{
  "abi": [
    {
      "anonymous": false,
      "inputs": [
        {
          "indexed": true,
          "internalType": "address",
          "name": "previousOwner",
          "type": "address"
        },
        {
          "indexed": true,
          "internalType": "address",
          "name": "newOwner",
          "type": "address"
        }
      ],
      "name": "OwnershipTransferred",
      "type": "event"
    },
    {
      "anonymous": false,
      "inputs": [
        {
          "indexed": false,
          "internalType": "uint256",
          "name": "USDsInOutRatio",
          "type": "uint256"
        },
        {
          "indexed": false,
          "internalType": "uint256",
          "name": "USDsOnflow_average",
          "type": "uint256"
        },
        {
          "indexed": false,
          "internalType": "uint256",
          "name": "USDsInflow_average",
          "type": "uint256"
        },
        {
          "indexed": false,
          "internalType": "uint32",
          "name": "timeStamp",
          "type": "uint32"
        },
        {
          "indexed": false,
          "internalType": "uint256",
          "name": "index",
          "type": "uint256"
        }
      ],
      "name": "USDsInOutRatioUpdated",
      "type": "event"
    },
    {
      "anonymous": false,
      "inputs": [
        {
          "indexed": false,
          "internalType": "address",
          "name": "_collateralAddr",
          "type": "address"
        },
        {
          "indexed": false,
          "internalType": "bool",
          "name": "_supported",
          "type": "bool"
        },
        {
          "indexed": false,
          "internalType": "contract AggregatorV3Interface",
          "name": "_priceFeed",
          "type": "address"
        },
        {
          "indexed": false,
          "internalType": "uint256",
          "name": "_price_prec",
          "type": "uint256"
        }
      ],
      "name": "collateralInfoChanged",
      "type": "event"
    },
    {
      "anonymous": false,
      "inputs": [
        {
          "indexed": false,
          "internalType": "uint32",
          "name": "updatePeriod",
          "type": "uint32"
        },
        {
          "indexed": false,
          "internalType": "uint32",
          "name": "movingAvgShortPeriod",
          "type": "uint32"
        },
        {
          "indexed": false,
          "internalType": "uint32",
          "name": "movingAvgLongPeriod",
          "type": "uint32"
        }
      ],
      "name": "periodChanged",
      "type": "event"
    },
    {
      "inputs": [],
      "name": "ETHprice_prec",
      "outputs": [
        {
          "internalType": "uint256",
          "name": "",
          "type": "uint256"
        }
      ],
      "stateMutability": "view",
      "type": "function"
    },
    {
      "inputs": [],
      "name": "FREQUENCY",
      "outputs": [
        {
          "internalType": "uint8",
          "name": "",
          "type": "uint8"
        }
      ],
      "stateMutability": "view",
      "type": "function"
    },
    {
      "inputs": [],
      "name": "SPAaddr",
      "outputs": [
        {
          "internalType": "address",
          "name": "",
          "type": "address"
        }
      ],
      "stateMutability": "view",
      "type": "function"
    },
    {
      "inputs": [],
      "name": "SPAoracleBaseTokenAddr",
      "outputs": [
        {
          "internalType": "address",
          "name": "",
          "type": "address"
        }
      ],
      "stateMutability": "view",
      "type": "function"
    },
    {
      "inputs": [],
      "name": "SPAoraclePool",
      "outputs": [
        {
          "internalType": "address",
          "name": "",
          "type": "address"
        }
      ],
      "stateMutability": "view",
      "type": "function"
    },
    {
      "inputs": [],
      "name": "SPAprice_prec",
      "outputs": [
        {
          "internalType": "uint256",
          "name": "",
          "type": "uint256"
        }
      ],
      "stateMutability": "view",
      "type": "function"
    },
    {
      "inputs": [],
      "name": "USDsAddr",
      "outputs": [
        {
          "internalType": "address",
          "name": "",
          "type": "address"
        }
      ],
      "stateMutability": "view",
      "type": "function"
    },
    {
      "inputs": [],
      "name": "USDsInOutRatio",
      "outputs": [
        {
          "internalType": "uint256",
          "name": "",
          "type": "uint256"
        }
      ],
      "stateMutability": "view",
      "type": "function"
    },
    {
      "inputs": [],
      "name": "USDsInOutRatio_prec",
      "outputs": [
        {
          "internalType": "uint32",
          "name": "",
          "type": "uint32"
        }
      ],
      "stateMutability": "view",
      "type": "function"
    },
    {
      "inputs": [
        {
          "internalType": "uint256",
          "name": "",
          "type": "uint256"
        }
      ],
      "name": "USDsInflow",
      "outputs": [
        {
          "internalType": "uint256",
          "name": "",
          "type": "uint256"
        }
      ],
      "stateMutability": "view",
      "type": "function"
    },
    {
      "inputs": [
        {
          "internalType": "uint256",
          "name": "",
          "type": "uint256"
        }
      ],
      "name": "USDsOnflow",
      "outputs": [
        {
          "internalType": "uint256",
          "name": "",
          "type": "uint256"
        }
      ],
      "stateMutability": "view",
      "type": "function"
    },
    {
      "inputs": [],
      "name": "USDsOracleBaseTokenAddr",
      "outputs": [
        {
          "internalType": "address",
          "name": "",
          "type": "address"
        }
      ],
      "stateMutability": "view",
      "type": "function"
    },
    {
      "inputs": [],
      "name": "USDsOraclePool",
      "outputs": [
        {
          "internalType": "address",
          "name": "",
          "type": "address"
        }
      ],
      "stateMutability": "view",
      "type": "function"
    },
    {
      "inputs": [],
      "name": "USDsPrice_prec",
      "outputs": [
        {
          "internalType": "uint256",
          "name": "",
          "type": "uint256"
        }
      ],
      "stateMutability": "view",
      "type": "function"
    },
    {
      "inputs": [],
      "name": "VaultAddr",
      "outputs": [
        {
          "internalType": "address",
          "name": "",
          "type": "address"
        }
      ],
      "stateMutability": "view",
      "type": "function"
    },
    {
      "inputs": [],
      "name": "WETH9",
      "outputs": [
        {
          "internalType": "address",
          "name": "",
          "type": "address"
        }
      ],
      "stateMutability": "view",
      "type": "function"
    },
    {
      "inputs": [
        {
          "internalType": "uint32",
          "name": "_updatePeriod",
          "type": "uint32"
        },
        {
          "internalType": "uint32",
          "name": "_movingAvgShortPeriod",
          "type": "uint32"
        },
        {
          "internalType": "uint32",
          "name": "_movingAvgLongPeriod",
          "type": "uint32"
        }
      ],
      "name": "changePeriod",
      "outputs": [],
      "stateMutability": "nonpayable",
      "type": "function"
    },
    {
      "inputs": [
        {
          "internalType": "address",
          "name": "collateralAddr",
          "type": "address"
        }
      ],
      "name": "getCollateralPrice",
      "outputs": [
        {
          "internalType": "uint256",
          "name": "",
          "type": "uint256"
        }
      ],
      "stateMutability": "view",
      "type": "function"
    },
    {
      "inputs": [
        {
          "internalType": "address",
          "name": "collateralAddr",
          "type": "address"
        }
      ],
      "name": "getCollateralPrice_prec",
      "outputs": [
        {
          "internalType": "uint256",
          "name": "",
          "type": "uint256"
        }
      ],
      "stateMutability": "view",
      "type": "function"
    },
    {
      "inputs": [],
      "name": "getETHprice",
      "outputs": [
        {
          "internalType": "uint256",
          "name": "",
          "type": "uint256"
        }
      ],
      "stateMutability": "view",
      "type": "function"
    },
    {
      "inputs": [],
      "name": "getETHprice_prec",
      "outputs": [
        {
          "internalType": "uint256",
          "name": "",
          "type": "uint256"
        }
      ],
      "stateMutability": "view",
      "type": "function"
    },
    {
      "inputs": [],
      "name": "getSPAprice",
      "outputs": [
        {
          "internalType": "uint256",
          "name": "",
          "type": "uint256"
        }
      ],
      "stateMutability": "view",
      "type": "function"
    },
    {
      "inputs": [],
      "name": "getSPAprice_prec",
      "outputs": [
        {
          "internalType": "uint256",
          "name": "",
          "type": "uint256"
        }
      ],
      "stateMutability": "view",
      "type": "function"
    },
    {
      "inputs": [],
      "name": "getUSDsPrice",
      "outputs": [
        {
          "internalType": "uint256",
          "name": "",
          "type": "uint256"
        }
      ],
      "stateMutability": "view",
      "type": "function"
    },
    {
      "inputs": [],
      "name": "getUSDsPrice_average",
      "outputs": [
        {
          "internalType": "uint256",
          "name": "",
          "type": "uint256"
        }
      ],
      "stateMutability": "view",
      "type": "function"
    },
    {
      "inputs": [],
      "name": "getUSDsPrice_prec",
      "outputs": [
        {
          "internalType": "uint256",
          "name": "",
          "type": "uint256"
        }
      ],
      "stateMutability": "view",
      "type": "function"
    },
    {
      "inputs": [
        {
          "internalType": "address",
          "name": "_priceFeedETH",
          "type": "address"
        },
        {
          "internalType": "address",
          "name": "_SPAaddr",
          "type": "address"
        },
        {
          "internalType": "address",
          "name": "_WETH9",
          "type": "address"
        }
      ],
      "name": "initialize",
      "outputs": [],
      "stateMutability": "nonpayable",
      "type": "function"
    },
    {
      "inputs": [],
      "name": "lastUpdateTime",
      "outputs": [
        {
          "internalType": "uint32",
          "name": "",
          "type": "uint32"
        }
      ],
      "stateMutability": "view",
      "type": "function"
    },
    {
      "inputs": [],
      "name": "movingAvgLongPeriod",
      "outputs": [
        {
          "internalType": "uint32",
          "name": "",
          "type": "uint32"
        }
      ],
      "stateMutability": "view",
      "type": "function"
    },
    {
      "inputs": [],
      "name": "movingAvgShortPeriod",
      "outputs": [
        {
          "internalType": "uint32",
          "name": "",
          "type": "uint32"
        }
      ],
      "stateMutability": "view",
      "type": "function"
    },
    {
      "inputs": [],
      "name": "owner",
      "outputs": [
        {
          "internalType": "address",
          "name": "",
          "type": "address"
        }
      ],
      "stateMutability": "view",
      "type": "function"
    },
    {
      "inputs": [],
      "name": "renounceOwnership",
      "outputs": [],
      "stateMutability": "nonpayable",
      "type": "function"
    },
    {
      "inputs": [
        {
          "internalType": "address",
          "name": "newOwner",
          "type": "address"
        }
      ],
      "name": "transferOwnership",
      "outputs": [],
      "stateMutability": "nonpayable",
      "type": "function"
    },
    {
      "inputs": [
        {
          "internalType": "address",
          "name": "_collateralAddr",
          "type": "address"
        },
        {
          "internalType": "bool",
          "name": "_supported",
          "type": "bool"
        },
        {
          "internalType": "contract AggregatorV3Interface",
          "name": "_priceFeed",
          "type": "address"
        },
        {
          "internalType": "uint256",
          "name": "_price_prec",
          "type": "uint256"
        }
      ],
      "name": "updateCollateralInfo",
      "outputs": [],
      "stateMutability": "nonpayable",
      "type": "function"
    },
    {
      "inputs": [],
      "name": "updateInOutRatio",
      "outputs": [],
      "stateMutability": "nonpayable",
      "type": "function"
    },
    {
      "inputs": [],
      "name": "updateNextIndex",
      "outputs": [
        {
          "internalType": "uint32",
          "name": "",
          "type": "uint32"
        }
      ],
      "stateMutability": "view",
      "type": "function"
    },
    {
      "inputs": [
        {
          "internalType": "address",
          "name": "_SPAoracleBaseTokenAddr",
          "type": "address"
        },
        {
          "internalType": "address",
          "name": "_USDsOracleBaseTokenAddr",
          "type": "address"
        },
        {
          "internalType": "address",
          "name": "_USDsOraclePool",
          "type": "address"
        },
        {
          "internalType": "address",
          "name": "_SPAoraclePool",
          "type": "address"
        }
      ],
      "name": "updateOraclePoolsAddress",
      "outputs": [],
      "stateMutability": "nonpayable",
      "type": "function"
    },
    {
      "inputs": [],
      "name": "updatePeriod",
      "outputs": [
        {
          "internalType": "uint32",
          "name": "",
          "type": "uint32"
        }
      ],
      "stateMutability": "view",
      "type": "function"
    },
    {
      "inputs": [
        {
          "internalType": "uint32",
          "name": "_movingAvgShortPeriod",
          "type": "uint32"
        },
        {
          "internalType": "uint32",
          "name": "_movingAvgLongPeriod",
          "type": "uint32"
        }
      ],
      "name": "updatePriceMovingAvgPeriod",
      "outputs": [],
      "stateMutability": "nonpayable",
      "type": "function"
    },
    {
      "inputs": [
        {
          "internalType": "address",
          "name": "_USDsAddr",
          "type": "address"
        }
      ],
      "name": "updateUSDsAddress",
      "outputs": [],
      "stateMutability": "nonpayable",
      "type": "function"
    },
    {
      "inputs": [
        {
          "internalType": "address",
          "name": "_VaultAddr",
          "type": "address"
        }
      ],
      "name": "updateVaultAddress",
      "outputs": [],
      "stateMutability": "nonpayable",
      "type": "function"
    }
  ],
  "bytecode": "608060405234801561001057600080fd5b50612702806100206000396000f3fe608060405234801561001057600080fd5b50600436106102535760003560e01c80638da5cb5b11610146578063c8d3fe9a116100c3578063d32f218211610087578063d32f2182146104f2578063d37b5df01461027a578063d79fd7a21461052e578063f2fde38b14610536578063f309eac21461055c578063f43693aa1461056457610253565b8063c8d3fe9a14610476578063c8f33c911461047e578063cfb1528e14610486578063d03280341461048e578063d2de2f85146104cc57610253565b8063c0c53b8b1161010a578063c0c53b8b146103ea578063c229d75014610422578063c541490514610440578063c6d15e1b14610448578063c7e524f71461046e57610253565b80638da5cb5b146103c2578063a7e02498146103ca578063a83627de146103d2578063bcb083c1146103da578063bdf4da6e146103e257610253565b80634d07640e116101d45780636c6f1865116101985780636c6f1865146103785780636f2a2b0f14610322578063715018a614610395578063820b35c51461039d5780638d1a0709146103a557610253565b80634d07640e1461033257806351a409941461033a5780635953e19714610360578063627dc9c11461036857806367f82edb1461037057610253565b80632b2913d61161021b5780632b2913d6146102b75780632c428e36146102d85780633f153279146102fc57806341b2a0f1146103225780634aa4a4fc1461032a57610253565b806306c102111461025857806308432eea146102725780630961d57b1461027a5780630b71f216146102825780631e17d1871461028a575b600080fd5b610260610599565b60408051918252519081900360200190f35b6102606105a9565b6102606106b3565b6102606106bf565b6102b5600480360360408110156102a057600080fd5b5063ffffffff813581169160200135166106c5565b005b6102bf610762565b6040805163ffffffff9092168252519081900360200190f35b6102e0610775565b604080516001600160a01b039092168252519081900360200190f35b6102606004803603602081101561031257600080fd5b50356001600160a01b0316610784565b610260610832565b6102e061083e565b61026061084d565b6102606004803603602081101561035057600080fd5b50356001600160a01b0316610855565b6102e06108fc565b61026061090b565b6102e06109bd565b6102606004803603602081101561038e57600080fd5b50356109cc565b6102b56109e0565b6102bf610a8c565b610260600480360360208110156103bb57600080fd5b5035610a9f565b6102e0610aac565b6102e0610abb565b6102bf610aca565b6102e0610add565b6102e0610aec565b6102b56004803603606081101561040057600080fd5b506001600160a01b038135811691602081013582169160409091013516610afb565b61042a610c4d565b6040805160ff9092168252519081900360200190f35b610260610c52565b6102b56004803603602081101561045e57600080fd5b50356001600160a01b0316610cdd565b6102bf610d61565b6102e0610d6d565b6102bf610d7c565b6102bf610d8f565b6102b5600480360360808110156104a457600080fd5b506001600160a01b038135811691602081013582169160408201358116916060013516610d96565b6102b5600480360360208110156104e257600080fd5b50356001600160a01b0316610e48565b6102b56004803603608081101561050857600080fd5b506001600160a01b03813581169160208101351515916040820135169060600135610ecc565b6102b5610fd4565b6102b56004803603602081101561054c57600080fd5b50356001600160a01b03166112c1565b6102606113c4565b6102b56004803603606081101561057a57600080fd5b5063ffffffff81358116916020810135821691604090910135166113cc565b60006105a36114d4565b90505b90565b606c546000906001600160a01b03166105cb5750670de0b6b3a76400006105a6565b606c546000906105e3906001600160a01b031661155a565b60665490915060009063ffffffff808416600160601b90920416106106085781610619565b606654600160601b900463ffffffff165b606c54909150600090610635906001600160a01b031683611729565b606a54606f54919250600091610663918491670de0b6b3a7640000916001600160a01b039081169116611a25565b606f549091506000906106a990610682906001600160a01b0316611b17565b606f546106a390859061069d906001600160a01b0316611bbf565b90611cd3565b90611d35565b9550505050505090565b670de0b6b3a764000081565b60655481565b6106cd611d9c565b6001600160a01b03166106de610aac565b6001600160a01b031614610727576040805162461bcd60e51b8152602060048201819052602482015260008051602061261c833981519152604482015290519081900360640190fd5b6066805463ffffffff928316600160801b0263ffffffff60801b1994909316600160601b0263ffffffff60601b199091161792909216179055565b606654600160801b900463ffffffff1681565b606f546001600160a01b031681565b600061078e6124e6565b506001600160a01b038281166000908152607e6020908152604091829020825160808101845281548086168252600160a01b900460ff16151592810183905260018201549094169284019290925260029091015460608301526108225760405162461bcd60e51b81526004018080602001828103825260328152602001806125616032913960400191505060405180910390fd5b61082b83611b17565b9392505050565b670de0b6b3a764000090565b6069546001600160a01b031681565b6305f5e10081565b600061085f6124e6565b506001600160a01b038281166000908152607e6020908152604091829020825160808101845281548086168252600160a01b900460ff16151592810183905260018201549094169284019290925260029091015460608301526108f35760405162461bcd60e51b815260040180806020018281038252602d815260200180612534602d913960400191505060405180910390fd5b61082b83611bbf565b606b546001600160a01b031681565b606d546000908190610925906001600160a01b031661155a565b60665490915060009063ffffffff808416600160601b909204161061094a578161095b565b606654600160601b900463ffffffff165b606d54909150600090610977906001600160a01b031683611729565b606854606e549192506000916109a5918491670de0b6b3a7640000916001600160a01b039081169116611a25565b905060006106a96305f5e1006106a38461069d6114d4565b606c546001600160a01b031681565b607081600781106109d957fe5b0154905081565b6109e8611d9c565b6001600160a01b03166109f9610aac565b6001600160a01b031614610a42576040805162461bcd60e51b8152602060048201819052602482015260008051602061261c833981519152604482015290519081900360640190fd5b6033546040516000916001600160a01b0316907f8be0079c531659141344cd1fd0a4f28419497f9722a3daafe3b4186f6b6457e0908390a3603380546001600160a01b0319169055565b606654600160601b900463ffffffff1681565b607781600781106109d957fe5b6033546001600160a01b031690565b606e546001600160a01b031681565b606654600160401b900463ffffffff1681565b6068546001600160a01b031681565b606d546001600160a01b031681565b600054610100900460ff1680610b145750610b14611da0565b80610b22575060005460ff16155b610b5d5760405162461bcd60e51b815260040180806020018281038252602e815260200180612593602e913960400191505060405180910390fd5b600054610100900460ff16158015610b88576000805460ff1961ff0019909116610100171660011790555b610b90611db1565b6066805463ffffffff60401b191669a8c00000000000000000179055600160201b4260668054606780546001600160a01b03199081166001600160a01b038b8116919091179092556068805482168a84161790556069805490911691881691909117905567ffffffff000000001916600160201b9390920663ffffffff16929092021763ffffffff60601b1916604b60631b1763ffffffff60801b191660e160841b1790558015610c47576000805461ff00191690555b50505050565b600681565b606c546000906001600160a01b0316610c745750670de0b6b3a76400006105a6565b606c54600090610c8c906001600160a01b031661155a565b60665490915060009063ffffffff808416600160801b9092041610610cb15781610619565b50606654606c54600160801b90910463ffffffff1690600090610635906001600160a01b031683611729565b610ce5611d9c565b6001600160a01b0316610cf6610aac565b6001600160a01b031614610d3f576040805162461bcd60e51b8152602060048201819052602482015260008051602061261c833981519152604482015290519081900360640190fd5b606b80546001600160a01b0319166001600160a01b0392909216919091179055565b60665463ffffffff1681565b606a546001600160a01b031681565b606654600160201b900463ffffffff1681565b620f424081565b610d9e611d9c565b6001600160a01b0316610daf610aac565b6001600160a01b031614610df8576040805162461bcd60e51b8152602060048201819052602482015260008051602061261c833981519152604482015290519081900360640190fd5b606e80546001600160a01b039586166001600160a01b031991821617909155606f805494861694821694909417909355606c805492851692841692909217909155606d8054919093169116179055565b610e50611d9c565b6001600160a01b0316610e61610aac565b6001600160a01b031614610eaa576040805162461bcd60e51b8152602060048201819052602482015260008051602061261c833981519152604482015290519081900360640190fd5b606a80546001600160a01b0319166001600160a01b0392909216919091179055565b610ed4611d9c565b6001600160a01b0316610ee5610aac565b6001600160a01b031614610f2e576040805162461bcd60e51b8152602060048201819052602482015260008051602061261c833981519152604482015290519081900360640190fd5b6001600160a01b038085166000818152607e60209081526040918290208054881515600160a01b810260ff60a01b196001600160a01b0319938416881716178355600183018054978a16979092168717909155600282018790558351948552918401919091528282019390935260608201849052517f9ce8daa3b6ddb1b45182c5db00c581f637e2373a74e2d343d1c4999aaa5224f09181900360800190a15050505050565b60665463ffffffff42811691600160201b9004168082039082101561102a5760405162461bcd60e51b815260040180806020018281038252603a8152602001806125c1603a913960400191505060405180910390fd5b60665463ffffffff600160401b9091048116908216101561107c5760405162461bcd60e51b815260040180806020018281038252603081526020018061266f6030913960400191505060405180910390fd5b606654606b546040805163144613ff60e31b8152905163ffffffff9384169360076001860190911606926001600160a01b03169163a2309ff89160048083019260209291908290030181600087803b1580156110d757600080fd5b505af11580156110eb573d6000803e3d6000fd5b505050506040513d602081101561110157600080fd5b5051607063ffffffff84166007811061111657fe5b0155606b5460408051630966ff6560e41b815290516001600160a01b039092169163966ff650916004808201926020929091908290030181600087803b15801561115f57600080fd5b505af1158015611173573d6000803e3d6000fd5b505050506040513d602081101561118957600080fd5b5051607763ffffffff84166007811061119e57fe5b015560006111d5607063ffffffff8416600781106111b857fe5b015460708563ffffffff16600781106111cd57fe5b015490611e63565b9050600061120460778463ffffffff16600781106111ef57fe5b015460778663ffffffff16600781106111cd57fe5b90506065546000141561121d57620f4240606555611232565b61122e826106a383620f4240611cd3565b6065555b6066805467ffffffff000000001916600160201b63ffffffff89811682029290921763ffffffff19168683161792839055606554604080519182526020820186905281810187905291909304821660608401529086166080830152517fb5c9438f23a276e24f58b423b7b8322a09f4dcd8be672dc0ec2c5f16edf6844d9160a0908290030190a1505050505050565b6112c9611d9c565b6001600160a01b03166112da610aac565b6001600160a01b031614611323576040805162461bcd60e51b8152602060048201819052602482015260008051602061261c833981519152604482015290519081900360640190fd5b6001600160a01b0381166113685760405162461bcd60e51b815260040180806020018281038252602681526020018061250e6026913960400191505060405180910390fd5b6033546040516001600160a01b038084169216907f8be0079c531659141344cd1fd0a4f28419497f9722a3daafe3b4186f6b6457e090600090a3603380546001600160a01b0319166001600160a01b0392909216919091179055565b6305f5e10090565b6113d4611d9c565b6001600160a01b03166113e5610aac565b6001600160a01b03161461142e576040805162461bcd60e51b8152602060048201819052602482015260008051602061261c833981519152604482015290519081900360640190fd5b6066805463ffffffff60401b1916600160401b63ffffffff86811682029290921763ffffffff60601b1916600160601b86841681029190911763ffffffff60801b1916600160801b868516810291909117948590556040805193860485168452918504841660208401529093049091168183015290517fd36686e6b7c0d0f601cf866ab5a5db598a9a4271b572401a988350de35e38891916060908290030190a1505050565b600080606760009054906101000a90046001600160a01b03166001600160a01b031663feaf968c6040518163ffffffff1660e01b815260040160a06040518083038186803b15801561152557600080fd5b505afa158015611539573d6000803e3d6000fd5b505050506040513d60a081101561154f57600080fd5b506020015191505090565b6000806000836001600160a01b0316633850c7bd6040518163ffffffff1660e01b815260040160e06040518083038186803b15801561159857600080fd5b505afa1580156115ac573d6000803e3d6000fd5b505050506040513d60e08110156115c257600080fd5b506040810151606090910151909250905061ffff811661160e576040805162461bcd60e51b81526020600482015260026024820152614e4960f01b604482015290519081900360640190fd5b600080856001600160a01b031663252c09d78461ffff168660010161ffff168161163457fe5b066040518263ffffffff1660e01b8152600401808261ffff16815260200191505060806040518083038186803b15801561166d57600080fd5b505afa158015611681573d6000803e3d6000fd5b505050506040513d608081101561169757600080fd5b50805160609091015190925090508061171e57856001600160a01b031663252c09d760006040518263ffffffff1660e01b81526004018082815260200191505060806040518083038186803b1580156116ef57600080fd5b505afa158015611703573d6000803e3d6000fd5b505050506040513d608081101561171957600080fd5b505191505b504203949350505050565b600063ffffffff8216611768576040805162461bcd60e51b8152602060048201526002602482015261042560f41b604482015290519081900360640190fd5b6040805160028082526060808301845292602083019080368337019050509050828160008151811061179657fe5b602002602001019063ffffffff16908163ffffffff16815250506000816001815181106117bf57fe5b63ffffffff90921660209283029190910182015260405163883bdbfd60e01b8152600481018281528351602483015283516060936001600160a01b0389169363883bdbfd9387939092839260440191858201910280838360005b83811015611831578181015183820152602001611819565b505050509050019250505060006040518083038186803b15801561185457600080fd5b505afa158015611868573d6000803e3d6000fd5b505050506040513d6000823e601f3d908101601f19168201604090815281101561189157600080fd5b8101908080516040519392919084600160201b8211156118b057600080fd5b9083019060208201858111156118c557600080fd5b82518660208202830111600160201b821117156118e157600080fd5b82525081516020918201928201910280838360005b8381101561190e5781810151838201526020016118f6565b5050505090500160405260200180516040519392919084600160201b82111561193657600080fd5b90830190602082018581111561194b57600080fd5b82518660208202830111600160201b8211171561196757600080fd5b82525081516020918201928201910280838360005b8381101561199457818101518382015260200161197c565b505050509050016040525050505090506000816000815181106119b357fe5b6020026020010151826001815181106119c857fe5b60200260200101510390508463ffffffff168160060b816119e557fe5b05935060008160060b128015611a0f57508463ffffffff168160060b81611a0857fe5b0760060b15155b15611a1c57600019909301925b50505092915050565b600080611a3186611ec0565b90506001600160801b036001600160a01b03821611611aa0576001600160a01b0380821680029084811690861610611a8057611a7b600160c01b876001600160801b0316836121f1565b611a98565b611a9881876001600160801b0316600160c01b6121f1565b925050611b0e565b6000611aba6001600160a01b03831680600160401b6121f1565b9050836001600160a01b0316856001600160a01b031610611af257611aed600160801b876001600160801b0316836121f1565b611b0a565b611b0a81876001600160801b0316600160801b6121f1565b9250505b50949350505050565b6000611b216124e6565b506001600160a01b038281166000908152607e6020908152604091829020825160808101845281548086168252600160a01b900460ff1615159281018390526001820154909416928401929092526002909101546060830152611bb55760405162461bcd60e51b815260040180806020018281038252603381526020018061263c6033913960400191505060405180910390fd5b6060015192915050565b6000611bc96124e6565b506001600160a01b038281166000908152607e6020908152604091829020825160808101845281548086168252600160a01b900460ff1615159281018390526001820154909416928401929092526002909101546060830152611c5d5760405162461bcd60e51b815260040180806020018281038252602e81526020018061269f602e913960400191505060405180910390fd5b600081604001516001600160a01b031663feaf968c6040518163ffffffff1660e01b815260040160a06040518083038186803b158015611c9c57600080fd5b505afa158015611cb0573d6000803e3d6000fd5b505050506040513d60a0811015611cc657600080fd5b5060200151949350505050565b600082611ce257506000611d2f565b82820282848281611cef57fe5b0414611d2c5760405162461bcd60e51b81526004018080602001828103825260218152602001806125fb6021913960400191505060405180910390fd5b90505b92915050565b6000808211611d8b576040805162461bcd60e51b815260206004820152601a60248201527f536166654d6174683a206469766973696f6e206279207a65726f000000000000604482015290519081900360640190fd5b818381611d9457fe5b049392505050565b3390565b6000611dab306122aa565b15905090565b600054610100900460ff1680611dca5750611dca611da0565b80611dd8575060005460ff16155b611e135760405162461bcd60e51b815260040180806020018281038252602e815260200180612593602e913960400191505060405180910390fd5b600054610100900460ff16158015611e3e576000805460ff1961ff0019909116610100171660011790555b611e466122b0565b611e4e612350565b8015611e60576000805461ff00191690555b50565b600082821115611eba576040805162461bcd60e51b815260206004820152601e60248201527f536166654d6174683a207375627472616374696f6e206f766572666c6f770000604482015290519081900360640190fd5b50900390565b60008060008360020b12611ed7578260020b611edf565b8260020b6000035b9050620d89e8811115611f1d576040805162461bcd60e51b81526020600482015260016024820152601560fa1b604482015290519081900360640190fd5b600060018216611f3157600160801b611f43565b6ffffcb933bd6fad37aa2d162d1a5940015b70ffffffffffffffffffffffffffffffffff1690506002821615611f77576ffff97272373d413259a46990580e213a0260801c5b6004821615611f96576ffff2e50f5f656932ef12357cf3c7fdcc0260801c5b6008821615611fb5576fffe5caca7e10e4e61c3624eaa0941cd00260801c5b6010821615611fd4576fffcb9843d60f6159c9db58835c9266440260801c5b6020821615611ff3576fff973b41fa98c081472e6896dfb254c00260801c5b6040821615612012576fff2ea16466c96a3843ec78b326b528610260801c5b6080821615612031576ffe5dee046a99a2a811c461f1969c30530260801c5b610100821615612051576ffcbe86c7900a88aedcffc83b479aa3a40260801c5b610200821615612071576ff987a7253ac413176f2b074cf7815e540260801c5b610400821615612091576ff3392b0822b70005940c7a398e4b70f30260801c5b6108008216156120b1576fe7159475a2c29b7443b29c7fa6e889d90260801c5b6110008216156120d1576fd097f3bdfd2022b8845ad8f792aa58250260801c5b6120008216156120f1576fa9f746462d870fdf8a65dc1f90e061e50260801c5b614000821615612111576f70d869a156d2a1b890bb3df62baf32f70260801c5b618000821615612131576f31be135f97d08fd981231505542fcfa60260801c5b62010000821615612152576f09aa508b5b7a84e1c677de54f3e99bc90260801c5b62020000821615612172576e5d6af8dedb81196699c329225ee6040260801c5b62040000821615612191576d2216e584f5fa1ea926041bedfe980260801c5b620800008216156121ae576b048a170391f7dc42444e8fa20260801c5b60008460020b13156121c95780600019816121c557fe5b0490505b600160201b8106156121dc5760016121df565b60005b60ff16602082901c0192505050919050565b60008060006122008686612449565b915091506000848061220e57fe5b868809905082811115612222576001820391505b9182900391816122405784838161223557fe5b04935050505061082b565b848210612294576040805162461bcd60e51b815260206004820152601a60248201527f46756c6c4d6174683a2046554c4c4449565f4f564552464c4f57000000000000604482015290519081900360640190fd5b61229f838387612476565b979650505050505050565b3b151590565b600054610100900460ff16806122c957506122c9611da0565b806122d7575060005460ff16155b6123125760405162461bcd60e51b815260040180806020018281038252602e815260200180612593602e913960400191505060405180910390fd5b600054610100900460ff16158015611e4e576000805460ff1961ff0019909116610100171660011790558015611e60576000805461ff001916905550565b600054610100900460ff16806123695750612369611da0565b80612377575060005460ff16155b6123b25760405162461bcd60e51b815260040180806020018281038252602e815260200180612593602e913960400191505060405180910390fd5b600054610100900460ff161580156123dd576000805460ff1961ff0019909116610100171660011790555b60006123e7611d9c565b603380546001600160a01b0319166001600160a01b038316908117909155604051919250906000907f8be0079c531659141344cd1fd0a4f28419497f9722a3daafe3b4186f6b6457e0908290a3508015611e60576000805461ff001916905550565b600080806000198486099050838502925082810391508281101561246e576001820391505b509250929050565b6000818103821680838161248657fe5b04925080858161249257fe5b0494508081600003816124a157fe5b60028581038087028203028087028203028087028203028087028203028087028203028087028203029586029003909402930460010193909302939093010292915050565b6040805160808101825260008082526020820181905291810182905260608101919091529056fe4f776e61626c653a206e6577206f776e657220697320746865207a65726f2061646472657373676574436f6c6c61746572616c50726963653a20436f6c6c61746572616c206e6f7420737570706f727465642e676574436f6c6c61746572616c50726963655f707265633a20436f6c6c61746572616c206e6f7420737570706f727465642e496e697469616c697a61626c653a20636f6e747261637420697320616c726561647920696e697469616c697a6564757064617465496e4f7574526174696f3a206572726f72206c617374207570646174652068617070656e656420696e2074686520667574757265536166654d6174683a206d756c7469706c69636174696f6e206f766572666c6f774f776e61626c653a2063616c6c6572206973206e6f7420746865206f776e65725f676574436f6c6c61746572616c50726963655f707265633a20436f6c6c61746572616c206e6f7420737570706f727465642e757064617465496e4f7574526174696f3a207468652074696d6520656c617073656420697320746f6f2073686f72742e5f676574436f6c6c61746572616c50726963653a20436f6c6c61746572616c206e6f7420737570706f727465642ea2646970667358221220e32f59f460f2e908267203050c24a4f94c14c1a6d99d6460269bf552f097b56664736f6c634300060c0033",
  "bytecodeSha1": "1a88a25248281bfb337a977bc982ca91bfe9d2ba",
  "compiler": {
    "evm_version": "istanbul",
    "optimizer": {
      "enabled": true,
      "runs": 200
    },
    "version": "0.6.12+commit.27d51765"
  },
  "contractName": "Oracle",
  "language": "Solidity",
  "natspec": {
    "author": "Sperax Dev Team",
    "details": "this contract draws insights from \"ExampleOracleSimple.sol\" by UniswapV2 team",
    "kind": "dev",
    "methods": {
      "changePeriod(uint32,uint32,uint32)": {
        "details": "the frequency of update always remains the same",
        "notice": "change updatePeriod",
        "params": {
          "_movingAvgLongPeriod": "new moving average range of USDs price on average (used in SwapFeeIn)",
          "_movingAvgShortPeriod": "new moving average range of SPA and USDs price",
          "_updatePeriod": "new minimal updatePeriod in between two updates"
        }
      },
      "owner()": {
        "details": "Returns the address of the current owner."
      },
      "renounceOwnership()": {
        "details": "Leaves the contract without owner. It will not be possible to call `onlyOwner` functions anymore. Can only be called by the current owner. NOTE: Renouncing ownership will leave the contract without an owner, thereby removing any functionality that is only available to the owner."
      },
      "transferOwnership(address)": {
        "details": "Transfers ownership of the contract to a new account (`newOwner`). Can only be called by the current owner."
      },
      "updateInOutRatio()": {
        "details": "the price would be updated only once per updatePeriod timeUSDsInOutRatio is accurate after 24 hours (one iteration)",
        "notice": "update the price of token0 to the latest"
      }
    },
    "notice": "this contract gets data from UniswapV2 pair and feed these data into the main contact of Spark, i.e. Spark.sol",
    "title": "Oracle - the oracle contract for Spark",
    "version": 1
  },
  "opcodes": "PUSH1 0x80 PUSH1 0x40 MSTORE CALLVALUE DUP1 ISZERO PUSH2 0x10 JUMPI PUSH1 0x0 DUP1 REVERT JUMPDEST POP PUSH1 0x4 CALLDATASIZE LT PUSH2 0x253 JUMPI PUSH1 0x0 CALLDATALOAD PUSH1 0xE0 SHR DUP1 PUSH4 0x8DA5CB5B GT PUSH2 0x146 JUMPI DUP1 PUSH4 0xC8D3FE9A GT PUSH2 0xC3 JUMPI DUP1 PUSH4 0xD32F2182 GT PUSH2 0x87 JUMPI DUP1 PUSH4 0xD32F2182 EQ PUSH2 0x4F2 JUMPI DUP1 PUSH4 0xD37B5DF0 EQ PUSH2 0x27A JUMPI DUP1 PUSH4 0xD79FD7A2 EQ PUSH2 0x52E JUMPI DUP1 PUSH4 0xF2FDE38B EQ PUSH2 0x536 JUMPI DUP1 PUSH4 0xF309EAC2 EQ PUSH2 0x55C JUMPI DUP1 PUSH4 0xF43693AA EQ PUSH2 0x564 JUMPI PUSH2 0x253 JUMP JUMPDEST DUP1 PUSH4 0xC8D3FE9A EQ PUSH2 0x476 JUMPI DUP1 PUSH4 0xC8F33C91 EQ PUSH2 0x47E JUMPI DUP1 PUSH4 0xCFB1528E EQ PUSH2 0x486 JUMPI DUP1 PUSH4 0xD0328034 EQ PUSH2 0x48E JUMPI DUP1 PUSH4 0xD2DE2F85 EQ PUSH2 0x4CC JUMPI PUSH2 0x253 JUMP JUMPDEST DUP1 PUSH4 0xC0C53B8B GT PUSH2 0x10A JUMPI DUP1 PUSH4 0xC0C53B8B EQ PUSH2 0x3EA JUMPI DUP1 PUSH4 0xC229D750 EQ PUSH2 0x422 JUMPI DUP1 PUSH4 0xC5414905 EQ PUSH2 0x440 JUMPI DUP1 PUSH4 0xC6D15E1B EQ PUSH2 0x448 JUMPI DUP1 PUSH4 0xC7E524F7 EQ PUSH2 0x46E JUMPI PUSH2 0x253 JUMP JUMPDEST DUP1 PUSH4 0x8DA5CB5B EQ PUSH2 0x3C2 JUMPI DUP1 PUSH4 0xA7E02498 EQ PUSH2 0x3CA JUMPI DUP1 PUSH4 0xA83627DE EQ PUSH2 0x3D2 JUMPI DUP1 PUSH4 0xBCB083C1 EQ PUSH2 0x3DA JUMPI DUP1 PUSH4 0xBDF4DA6E EQ PUSH2 0x3E2 JUMPI PUSH2 0x253 JUMP JUMPDEST DUP1 PUSH4 0x4D07640E GT PUSH2 0x1D4 JUMPI DUP1 PUSH4 0x6C6F1865 GT PUSH2 0x198 JUMPI DUP1 PUSH4 0x6C6F1865 EQ PUSH2 0x378 JUMPI DUP1 PUSH4 0x6F2A2B0F EQ PUSH2 0x322 JUMPI DUP1 PUSH4 0x715018A6 EQ PUSH2 0x395 JUMPI DUP1 PUSH4 0x820B35C5 EQ PUSH2 0x39D JUMPI DUP1 PUSH4 0x8D1A0709 EQ PUSH2 0x3A5 JUMPI PUSH2 0x253 JUMP JUMPDEST DUP1 PUSH4 0x4D07640E EQ PUSH2 0x332 JUMPI DUP1 PUSH4 0x51A40994 EQ PUSH2 0x33A JUMPI DUP1 PUSH4 0x5953E197 EQ PUSH2 0x360 JUMPI DUP1 PUSH4 0x627DC9C1 EQ PUSH2 0x368 JUMPI DUP1 PUSH4 0x67F82EDB EQ PUSH2 0x370 JUMPI PUSH2 0x253 JUMP JUMPDEST DUP1 PUSH4 0x2B2913D6 GT PUSH2 0x21B JUMPI DUP1 PUSH4 0x2B2913D6 EQ PUSH2 0x2B7 JUMPI DUP1 PUSH4 0x2C428E36 EQ PUSH2 0x2D8 JUMPI DUP1 PUSH4 0x3F153279 EQ PUSH2 0x2FC JUMPI DUP1 PUSH4 0x41B2A0F1 EQ PUSH2 0x322 JUMPI DUP1 PUSH4 0x4AA4A4FC EQ PUSH2 0x32A JUMPI PUSH2 0x253 JUMP JUMPDEST DUP1 PUSH4 0x6C10211 EQ PUSH2 0x258 JUMPI DUP1 PUSH4 0x8432EEA EQ PUSH2 0x272 JUMPI DUP1 PUSH4 0x961D57B EQ PUSH2 0x27A JUMPI DUP1 PUSH4 0xB71F216 EQ PUSH2 0x282 JUMPI DUP1 PUSH4 0x1E17D187 EQ PUSH2 0x28A JUMPI JUMPDEST PUSH1 0x0 DUP1 REVERT JUMPDEST PUSH2 0x260 PUSH2 0x599 JUMP JUMPDEST PUSH1 0x40 DUP1 MLOAD SWAP2 DUP3 MSTORE MLOAD SWAP1 DUP2 SWAP1 SUB PUSH1 0x20 ADD SWAP1 RETURN JUMPDEST PUSH2 0x260 PUSH2 0x5A9 JUMP JUMPDEST PUSH2 0x260 PUSH2 0x6B3 JUMP JUMPDEST PUSH2 0x260 PUSH2 0x6BF JUMP JUMPDEST PUSH2 0x2B5 PUSH1 0x4 DUP1 CALLDATASIZE SUB PUSH1 0x40 DUP2 LT ISZERO PUSH2 0x2A0 JUMPI PUSH1 0x0 DUP1 REVERT JUMPDEST POP PUSH4 0xFFFFFFFF DUP2 CALLDATALOAD DUP2 AND SWAP2 PUSH1 0x20 ADD CALLDATALOAD AND PUSH2 0x6C5 JUMP JUMPDEST STOP JUMPDEST PUSH2 0x2BF PUSH2 0x762 JUMP JUMPDEST PUSH1 0x40 DUP1 MLOAD PUSH4 0xFFFFFFFF SWAP1 SWAP3 AND DUP3 MSTORE MLOAD SWAP1 DUP2 SWAP1 SUB PUSH1 0x20 ADD SWAP1 RETURN JUMPDEST PUSH2 0x2E0 PUSH2 0x775 JUMP JUMPDEST PUSH1 0x40 DUP1 MLOAD PUSH1 0x1 PUSH1 0x1 PUSH1 0xA0 SHL SUB SWAP1 SWAP3 AND DUP3 MSTORE MLOAD SWAP1 DUP2 SWAP1 SUB PUSH1 0x20 ADD SWAP1 RETURN JUMPDEST PUSH2 0x260 PUSH1 0x4 DUP1 CALLDATASIZE SUB PUSH1 0x20 DUP2 LT ISZERO PUSH2 0x312 JUMPI PUSH1 0x0 DUP1 REVERT JUMPDEST POP CALLDATALOAD PUSH1 0x1 PUSH1 0x1 PUSH1 0xA0 SHL SUB AND PUSH2 0x784 JUMP JUMPDEST PUSH2 0x260 PUSH2 0x832 JUMP JUMPDEST PUSH2 0x2E0 PUSH2 0x83E JUMP JUMPDEST PUSH2 0x260 PUSH2 0x84D JUMP JUMPDEST PUSH2 0x260 PUSH1 0x4 DUP1 CALLDATASIZE SUB PUSH1 0x20 DUP2 LT ISZERO PUSH2 0x350 JUMPI PUSH1 0x0 DUP1 REVERT JUMPDEST POP CALLDATALOAD PUSH1 0x1 PUSH1 0x1 PUSH1 0xA0 SHL SUB AND PUSH2 0x855 JUMP JUMPDEST PUSH2 0x2E0 PUSH2 0x8FC JUMP JUMPDEST PUSH2 0x260 PUSH2 0x90B JUMP JUMPDEST PUSH2 0x2E0 PUSH2 0x9BD JUMP JUMPDEST PUSH2 0x260 PUSH1 0x4 DUP1 CALLDATASIZE SUB PUSH1 0x20 DUP2 LT ISZERO PUSH2 0x38E JUMPI PUSH1 0x0 DUP1 REVERT JUMPDEST POP CALLDATALOAD PUSH2 0x9CC JUMP JUMPDEST PUSH2 0x2B5 PUSH2 0x9E0 JUMP JUMPDEST PUSH2 0x2BF PUSH2 0xA8C JUMP JUMPDEST PUSH2 0x260 PUSH1 0x4 DUP1 CALLDATASIZE SUB PUSH1 0x20 DUP2 LT ISZERO PUSH2 0x3BB JUMPI PUSH1 0x0 DUP1 REVERT JUMPDEST POP CALLDATALOAD PUSH2 0xA9F JUMP JUMPDEST PUSH2 0x2E0 PUSH2 0xAAC JUMP JUMPDEST PUSH2 0x2E0 PUSH2 0xABB JUMP JUMPDEST PUSH2 0x2BF PUSH2 0xACA JUMP JUMPDEST PUSH2 0x2E0 PUSH2 0xADD JUMP JUMPDEST PUSH2 0x2E0 PUSH2 0xAEC JUMP JUMPDEST PUSH2 0x2B5 PUSH1 0x4 DUP1 CALLDATASIZE SUB PUSH1 0x60 DUP2 LT ISZERO PUSH2 0x400 JUMPI PUSH1 0x0 DUP1 REVERT JUMPDEST POP PUSH1 0x1 PUSH1 0x1 PUSH1 0xA0 SHL SUB DUP2 CALLDATALOAD DUP2 AND SWAP2 PUSH1 0x20 DUP2 ADD CALLDATALOAD DUP3 AND SWAP2 PUSH1 0x40 SWAP1 SWAP2 ADD CALLDATALOAD AND PUSH2 0xAFB JUMP JUMPDEST PUSH2 0x42A PUSH2 0xC4D JUMP JUMPDEST PUSH1 0x40 DUP1 MLOAD PUSH1 0xFF SWAP1 SWAP3 AND DUP3 MSTORE MLOAD SWAP1 DUP2 SWAP1 SUB PUSH1 0x20 ADD SWAP1 RETURN JUMPDEST PUSH2 0x260 PUSH2 0xC52 JUMP JUMPDEST PUSH2 0x2B5 PUSH1 0x4 DUP1 CALLDATASIZE SUB PUSH1 0x20 DUP2 LT ISZERO PUSH2 0x45E JUMPI PUSH1 0x0 DUP1 REVERT JUMPDEST POP CALLDATALOAD PUSH1 0x1 PUSH1 0x1 PUSH1 0xA0 SHL SUB AND PUSH2 0xCDD JUMP JUMPDEST PUSH2 0x2BF PUSH2 0xD61 JUMP JUMPDEST PUSH2 0x2E0 PUSH2 0xD6D JUMP JUMPDEST PUSH2 0x2BF PUSH2 0xD7C JUMP JUMPDEST PUSH2 0x2BF PUSH2 0xD8F JUMP JUMPDEST PUSH2 0x2B5 PUSH1 0x4 DUP1 CALLDATASIZE SUB PUSH1 0x80 DUP2 LT ISZERO PUSH2 0x4A4 JUMPI PUSH1 0x0 DUP1 REVERT JUMPDEST POP PUSH1 0x1 PUSH1 0x1 PUSH1 0xA0 SHL SUB DUP2 CALLDATALOAD DUP2 AND SWAP2 PUSH1 0x20 DUP2 ADD CALLDATALOAD DUP3 AND SWAP2 PUSH1 0x40 DUP3 ADD CALLDATALOAD DUP2 AND SWAP2 PUSH1 0x60 ADD CALLDATALOAD AND PUSH2 0xD96 JUMP JUMPDEST PUSH2 0x2B5 PUSH1 0x4 DUP1 CALLDATASIZE SUB PUSH1 0x20 DUP2 LT ISZERO PUSH2 0x4E2 JUMPI PUSH1 0x0 DUP1 REVERT JUMPDEST POP CALLDATALOAD PUSH1 0x1 PUSH1 0x1 PUSH1 0xA0 SHL SUB AND PUSH2 0xE48 JUMP JUMPDEST PUSH2 0x2B5 PUSH1 0x4 DUP1 CALLDATASIZE SUB PUSH1 0x80 DUP2 LT ISZERO PUSH2 0x508 JUMPI PUSH1 0x0 DUP1 REVERT JUMPDEST POP PUSH1 0x1 PUSH1 0x1 PUSH1 0xA0 SHL SUB DUP2 CALLDATALOAD DUP2 AND SWAP2 PUSH1 0x20 DUP2 ADD CALLDATALOAD ISZERO ISZERO SWAP2 PUSH1 0x40 DUP3 ADD CALLDATALOAD AND SWAP1 PUSH1 0x60 ADD CALLDATALOAD PUSH2 0xECC JUMP JUMPDEST PUSH2 0x2B5 PUSH2 0xFD4 JUMP JUMPDEST PUSH2 0x2B5 PUSH1 0x4 DUP1 CALLDATASIZE SUB PUSH1 0x20 DUP2 LT ISZERO PUSH2 0x54C JUMPI PUSH1 0x0 DUP1 REVERT JUMPDEST POP CALLDATALOAD PUSH1 0x1 PUSH1 0x1 PUSH1 0xA0 SHL SUB AND PUSH2 0x12C1 JUMP JUMPDEST PUSH2 0x260 PUSH2 0x13C4 JUMP JUMPDEST PUSH2 0x2B5 PUSH1 0x4 DUP1 CALLDATASIZE SUB PUSH1 0x60 DUP2 LT ISZERO PUSH2 0x57A JUMPI PUSH1 0x0 DUP1 REVERT JUMPDEST POP PUSH4 0xFFFFFFFF DUP2 CALLDATALOAD DUP2 AND SWAP2 PUSH1 0x20 DUP2 ADD CALLDATALOAD DUP3 AND SWAP2 PUSH1 0x40 SWAP1 SWAP2 ADD CALLDATALOAD AND PUSH2 0x13CC JUMP JUMPDEST PUSH1 0x0 PUSH2 0x5A3 PUSH2 0x14D4 JUMP JUMPDEST SWAP1 POP JUMPDEST SWAP1 JUMP JUMPDEST PUSH1 0x6C SLOAD PUSH1 0x0 SWAP1 PUSH1 0x1 PUSH1 0x1 PUSH1 0xA0 SHL SUB AND PUSH2 0x5CB JUMPI POP PUSH8 0xDE0B6B3A7640000 PUSH2 0x5A6 JUMP JUMPDEST PUSH1 0x6C SLOAD PUSH1 0x0 SWAP1 PUSH2 0x5E3 SWAP1 PUSH1 0x1 PUSH1 0x1 PUSH1 0xA0 SHL SUB AND PUSH2 0x155A JUMP JUMPDEST PUSH1 0x66 SLOAD SWAP1 SWAP2 POP PUSH1 0x0 SWAP1 PUSH4 0xFFFFFFFF DUP1 DUP5 AND PUSH1 0x1 PUSH1 0x60 SHL SWAP1 SWAP3 DIV AND LT PUSH2 0x608 JUMPI DUP2 PUSH2 0x619 JUMP JUMPDEST PUSH1 0x66 SLOAD PUSH1 0x1 PUSH1 0x60 SHL SWAP1 DIV PUSH4 0xFFFFFFFF AND JUMPDEST PUSH1 0x6C SLOAD SWAP1 SWAP2 POP PUSH1 0x0 SWAP1 PUSH2 0x635 SWAP1 PUSH1 0x1 PUSH1 0x1 PUSH1 0xA0 SHL SUB AND DUP4 PUSH2 0x1729 JUMP JUMPDEST PUSH1 0x6A SLOAD PUSH1 0x6F SLOAD SWAP2 SWAP3 POP PUSH1 0x0 SWAP2 PUSH2 0x663 SWAP2 DUP5 SWAP2 PUSH8 0xDE0B6B3A7640000 SWAP2 PUSH1 0x1 PUSH1 0x1 PUSH1 0xA0 SHL SUB SWAP1 DUP2 AND SWAP2 AND PUSH2 0x1A25 JUMP JUMPDEST PUSH1 0x6F SLOAD SWAP1 SWAP2 POP PUSH1 0x0 SWAP1 PUSH2 0x6A9 SWAP1 PUSH2 0x682 SWAP1 PUSH1 0x1 PUSH1 0x1 PUSH1 0xA0 SHL SUB AND PUSH2 0x1B17 JUMP JUMPDEST PUSH1 0x6F SLOAD PUSH2 0x6A3 SWAP1 DUP6 SWAP1 PUSH2 0x69D SWAP1 PUSH1 0x1 PUSH1 0x1 PUSH1 0xA0 SHL SUB AND PUSH2 0x1BBF JUMP JUMPDEST SWAP1 PUSH2 0x1CD3 JUMP JUMPDEST SWAP1 PUSH2 0x1D35 JUMP JUMPDEST SWAP6 POP POP POP POP POP POP SWAP1 JUMP JUMPDEST PUSH8 0xDE0B6B3A7640000 DUP2 JUMP JUMPDEST PUSH1 0x65 SLOAD DUP2 JUMP JUMPDEST PUSH2 0x6CD PUSH2 0x1D9C JUMP JUMPDEST PUSH1 0x1 PUSH1 0x1 PUSH1 0xA0 SHL SUB AND PUSH2 0x6DE PUSH2 0xAAC JUMP JUMPDEST PUSH1 0x1 PUSH1 0x1 PUSH1 0xA0 SHL SUB AND EQ PUSH2 0x727 JUMPI PUSH1 0x40 DUP1 MLOAD PUSH3 0x461BCD PUSH1 0xE5 SHL DUP2 MSTORE PUSH1 0x20 PUSH1 0x4 DUP3 ADD DUP2 SWAP1 MSTORE PUSH1 0x24 DUP3 ADD MSTORE PUSH1 0x0 DUP1 MLOAD PUSH1 0x20 PUSH2 0x261C DUP4 CODECOPY DUP2 MLOAD SWAP2 MSTORE PUSH1 0x44 DUP3 ADD MSTORE SWAP1 MLOAD SWAP1 DUP2 SWAP1 SUB PUSH1 0x64 ADD SWAP1 REVERT JUMPDEST PUSH1 0x66 DUP1 SLOAD PUSH4 0xFFFFFFFF SWAP3 DUP4 AND PUSH1 0x1 PUSH1 0x80 SHL MUL PUSH4 0xFFFFFFFF PUSH1 0x80 SHL NOT SWAP5 SWAP1 SWAP4 AND PUSH1 0x1 PUSH1 0x60 SHL MUL PUSH4 0xFFFFFFFF PUSH1 0x60 SHL NOT SWAP1 SWAP2 AND OR SWAP3 SWAP1 SWAP3 AND OR SWAP1 SSTORE JUMP JUMPDEST PUSH1 0x66 SLOAD PUSH1 0x1 PUSH1 0x80 SHL SWAP1 DIV PUSH4 0xFFFFFFFF AND DUP2 JUMP JUMPDEST PUSH1 0x6F SLOAD PUSH1 0x1 PUSH1 0x1 PUSH1 0xA0 SHL SUB AND DUP2 JUMP JUMPDEST PUSH1 0x0 PUSH2 0x78E PUSH2 0x24E6 JUMP JUMPDEST POP PUSH1 0x1 PUSH1 0x1 PUSH1 0xA0 SHL SUB DUP3 DUP2 AND PUSH1 0x0 SWAP1 DUP2 MSTORE PUSH1 0x7E PUSH1 0x20 SWAP1 DUP2 MSTORE PUSH1 0x40 SWAP2 DUP3 SWAP1 KECCAK256 DUP3 MLOAD PUSH1 0x80 DUP2 ADD DUP5 MSTORE DUP2 SLOAD DUP1 DUP7 AND DUP3 MSTORE PUSH1 0x1 PUSH1 0xA0 SHL SWAP1 DIV PUSH1 0xFF AND ISZERO ISZERO SWAP3 DUP2 ADD DUP4 SWAP1 MSTORE PUSH1 0x1 DUP3 ADD SLOAD SWAP1 SWAP5 AND SWAP3 DUP5 ADD SWAP3 SWAP1 SWAP3 MSTORE PUSH1 0x2 SWAP1 SWAP2 ADD SLOAD PUSH1 0x60 DUP4 ADD MSTORE PUSH2 0x822 JUMPI PUSH1 0x40 MLOAD PUSH3 0x461BCD PUSH1 0xE5 SHL DUP2 MSTORE PUSH1 0x4 ADD DUP1 DUP1 PUSH1 0x20 ADD DUP3 DUP2 SUB DUP3 MSTORE PUSH1 0x32 DUP2 MSTORE PUSH1 0x20 ADD DUP1 PUSH2 0x2561 PUSH1 0x32 SWAP2 CODECOPY PUSH1 0x40 ADD SWAP2 POP POP PUSH1 0x40 MLOAD DUP1 SWAP2 SUB SWAP1 REVERT JUMPDEST PUSH2 0x82B DUP4 PUSH2 0x1B17 JUMP JUMPDEST SWAP4 SWAP3 POP POP POP JUMP JUMPDEST PUSH8 0xDE0B6B3A7640000 SWAP1 JUMP JUMPDEST PUSH1 0x69 SLOAD PUSH1 0x1 PUSH1 0x1 PUSH1 0xA0 SHL SUB AND DUP2 JUMP JUMPDEST PUSH4 0x5F5E100 DUP2 JUMP JUMPDEST PUSH1 0x0 PUSH2 0x85F PUSH2 0x24E6 JUMP JUMPDEST POP PUSH1 0x1 PUSH1 0x1 PUSH1 0xA0 SHL SUB DUP3 DUP2 AND PUSH1 0x0 SWAP1 DUP2 MSTORE PUSH1 0x7E PUSH1 0x20 SWAP1 DUP2 MSTORE PUSH1 0x40 SWAP2 DUP3 SWAP1 KECCAK256 DUP3 MLOAD PUSH1 0x80 DUP2 ADD DUP5 MSTORE DUP2 SLOAD DUP1 DUP7 AND DUP3 MSTORE PUSH1 0x1 PUSH1 0xA0 SHL SWAP1 DIV PUSH1 0xFF AND ISZERO ISZERO SWAP3 DUP2 ADD DUP4 SWAP1 MSTORE PUSH1 0x1 DUP3 ADD SLOAD SWAP1 SWAP5 AND SWAP3 DUP5 ADD SWAP3 SWAP1 SWAP3 MSTORE PUSH1 0x2 SWAP1 SWAP2 ADD SLOAD PUSH1 0x60 DUP4 ADD MSTORE PUSH2 0x8F3 JUMPI PUSH1 0x40 MLOAD PUSH3 0x461BCD PUSH1 0xE5 SHL DUP2 MSTORE PUSH1 0x4 ADD DUP1 DUP1 PUSH1 0x20 ADD DUP3 DUP2 SUB DUP3 MSTORE PUSH1 0x2D DUP2 MSTORE PUSH1 0x20 ADD DUP1 PUSH2 0x2534 PUSH1 0x2D SWAP2 CODECOPY PUSH1 0x40 ADD SWAP2 POP POP PUSH1 0x40 MLOAD DUP1 SWAP2 SUB SWAP1 REVERT JUMPDEST PUSH2 0x82B DUP4 PUSH2 0x1BBF JUMP JUMPDEST PUSH1 0x6B SLOAD PUSH1 0x1 PUSH1 0x1 PUSH1 0xA0 SHL SUB AND DUP2 JUMP JUMPDEST PUSH1 0x6D SLOAD PUSH1 0x0 SWAP1 DUP2 SWAP1 PUSH2 0x925 SWAP1 PUSH1 0x1 PUSH1 0x1 PUSH1 0xA0 SHL SUB AND PUSH2 0x155A JUMP JUMPDEST PUSH1 0x66 SLOAD SWAP1 SWAP2 POP PUSH1 0x0 SWAP1 PUSH4 0xFFFFFFFF DUP1 DUP5 AND PUSH1 0x1 PUSH1 0x60 SHL SWAP1 SWAP3 DIV AND LT PUSH2 0x94A JUMPI DUP2 PUSH2 0x95B JUMP JUMPDEST PUSH1 0x66 SLOAD PUSH1 0x1 PUSH1 0x60 SHL SWAP1 DIV PUSH4 0xFFFFFFFF AND JUMPDEST PUSH1 0x6D SLOAD SWAP1 SWAP2 POP PUSH1 0x0 SWAP1 PUSH2 0x977 SWAP1 PUSH1 0x1 PUSH1 0x1 PUSH1 0xA0 SHL SUB AND DUP4 PUSH2 0x1729 JUMP JUMPDEST PUSH1 0x68 SLOAD PUSH1 0x6E SLOAD SWAP2 SWAP3 POP PUSH1 0x0 SWAP2 PUSH2 0x9A5 SWAP2 DUP5 SWAP2 PUSH8 0xDE0B6B3A7640000 SWAP2 PUSH1 0x1 PUSH1 0x1 PUSH1 0xA0 SHL SUB SWAP1 DUP2 AND SWAP2 AND PUSH2 0x1A25 JUMP JUMPDEST SWAP1 POP PUSH1 0x0 PUSH2 0x6A9 PUSH4 0x5F5E100 PUSH2 0x6A3 DUP5 PUSH2 0x69D PUSH2 0x14D4 JUMP JUMPDEST PUSH1 0x6C SLOAD PUSH1 0x1 PUSH1 0x1 PUSH1 0xA0 SHL SUB AND DUP2 JUMP JUMPDEST PUSH1 0x70 DUP2 PUSH1 0x7 DUP2 LT PUSH2 0x9D9 JUMPI INVALID JUMPDEST ADD SLOAD SWAP1 POP DUP2 JUMP JUMPDEST PUSH2 0x9E8 PUSH2 0x1D9C JUMP JUMPDEST PUSH1 0x1 PUSH1 0x1 PUSH1 0xA0 SHL SUB AND PUSH2 0x9F9 PUSH2 0xAAC JUMP JUMPDEST PUSH1 0x1 PUSH1 0x1 PUSH1 0xA0 SHL SUB AND EQ PUSH2 0xA42 JUMPI PUSH1 0x40 DUP1 MLOAD PUSH3 0x461BCD PUSH1 0xE5 SHL DUP2 MSTORE PUSH1 0x20 PUSH1 0x4 DUP3 ADD DUP2 SWAP1 MSTORE PUSH1 0x24 DUP3 ADD MSTORE PUSH1 0x0 DUP1 MLOAD PUSH1 0x20 PUSH2 0x261C DUP4 CODECOPY DUP2 MLOAD SWAP2 MSTORE PUSH1 0x44 DUP3 ADD MSTORE SWAP1 MLOAD SWAP1 DUP2 SWAP1 SUB PUSH1 0x64 ADD SWAP1 REVERT JUMPDEST PUSH1 0x33 SLOAD PUSH1 0x40 MLOAD PUSH1 0x0 SWAP2 PUSH1 0x1 PUSH1 0x1 PUSH1 0xA0 SHL SUB AND SWAP1 PUSH32 0x8BE0079C531659141344CD1FD0A4F28419497F9722A3DAAFE3B4186F6B6457E0 SWAP1 DUP4 SWAP1 LOG3 PUSH1 0x33 DUP1 SLOAD PUSH1 0x1 PUSH1 0x1 PUSH1 0xA0 SHL SUB NOT AND SWAP1 SSTORE JUMP JUMPDEST PUSH1 0x66 SLOAD PUSH1 0x1 PUSH1 0x60 SHL SWAP1 DIV PUSH4 0xFFFFFFFF AND DUP2 JUMP JUMPDEST PUSH1 0x77 DUP2 PUSH1 0x7 DUP2 LT PUSH2 0x9D9 JUMPI INVALID JUMPDEST PUSH1 0x33 SLOAD PUSH1 0x1 PUSH1 0x1 PUSH1 0xA0 SHL SUB AND SWAP1 JUMP JUMPDEST PUSH1 0x6E SLOAD PUSH1 0x1 PUSH1 0x1 PUSH1 0xA0 SHL SUB AND DUP2 JUMP JUMPDEST PUSH1 0x66 SLOAD PUSH1 0x1 PUSH1 0x40 SHL SWAP1 DIV PUSH4 0xFFFFFFFF AND DUP2 JUMP JUMPDEST PUSH1 0x68 SLOAD PUSH1 0x1 PUSH1 0x1 PUSH1 0xA0 SHL SUB AND DUP2 JUMP JUMPDEST PUSH1 0x6D SLOAD PUSH1 0x1 PUSH1 0x1 PUSH1 0xA0 SHL SUB AND DUP2 JUMP JUMPDEST PUSH1 0x0 SLOAD PUSH2 0x100 SWAP1 DIV PUSH1 0xFF AND DUP1 PUSH2 0xB14 JUMPI POP PUSH2 0xB14 PUSH2 0x1DA0 JUMP JUMPDEST DUP1 PUSH2 0xB22 JUMPI POP PUSH1 0x0 SLOAD PUSH1 0xFF AND ISZERO JUMPDEST PUSH2 0xB5D JUMPI PUSH1 0x40 MLOAD PUSH3 0x461BCD PUSH1 0xE5 SHL DUP2 MSTORE PUSH1 0x4 ADD DUP1 DUP1 PUSH1 0x20 ADD DUP3 DUP2 SUB DUP3 MSTORE PUSH1 0x2E DUP2 MSTORE PUSH1 0x20 ADD DUP1 PUSH2 0x2593 PUSH1 0x2E SWAP2 CODECOPY PUSH1 0x40 ADD SWAP2 POP POP PUSH1 0x40 MLOAD DUP1 SWAP2 SUB SWAP1 REVERT JUMPDEST PUSH1 0x0 SLOAD PUSH2 0x100 SWAP1 DIV PUSH1 0xFF AND ISZERO DUP1 ISZERO PUSH2 0xB88 JUMPI PUSH1 0x0 DUP1 SLOAD PUSH1 0xFF NOT PUSH2 0xFF00 NOT SWAP1 SWAP2 AND PUSH2 0x100 OR AND PUSH1 0x1 OR SWAP1 SSTORE JUMPDEST PUSH2 0xB90 PUSH2 0x1DB1 JUMP JUMPDEST PUSH1 0x66 DUP1 SLOAD PUSH4 0xFFFFFFFF PUSH1 0x40 SHL NOT AND PUSH10 0xA8C00000000000000000 OR SWAP1 SSTORE PUSH1 0x1 PUSH1 0x20 SHL TIMESTAMP PUSH1 0x66 DUP1 SLOAD PUSH1 0x67 DUP1 SLOAD PUSH1 0x1 PUSH1 0x1 PUSH1 0xA0 SHL SUB NOT SWAP1 DUP2 AND PUSH1 0x1 PUSH1 0x1 PUSH1 0xA0 SHL SUB DUP12 DUP2 AND SWAP2 SWAP1 SWAP2 OR SWAP1 SWAP3 SSTORE PUSH1 0x68 DUP1 SLOAD DUP3 AND DUP11 DUP5 AND OR SWAP1 SSTORE PUSH1 0x69 DUP1 SLOAD SWAP1 SWAP2 AND SWAP2 DUP9 AND SWAP2 SWAP1 SWAP2 OR SWAP1 SSTORE PUSH8 0xFFFFFFFF00000000 NOT AND PUSH1 0x1 PUSH1 0x20 SHL SWAP4 SWAP1 SWAP3 MOD PUSH4 0xFFFFFFFF AND SWAP3 SWAP1 SWAP3 MUL OR PUSH4 0xFFFFFFFF PUSH1 0x60 SHL NOT AND PUSH1 0x4B PUSH1 0x63 SHL OR PUSH4 0xFFFFFFFF PUSH1 0x80 SHL NOT AND PUSH1 0xE1 PUSH1 0x84 SHL OR SWAP1 SSTORE DUP1 ISZERO PUSH2 0xC47 JUMPI PUSH1 0x0 DUP1 SLOAD PUSH2 0xFF00 NOT AND SWAP1 SSTORE JUMPDEST POP POP POP POP JUMP JUMPDEST PUSH1 0x6 DUP2 JUMP JUMPDEST PUSH1 0x6C SLOAD PUSH1 0x0 SWAP1 PUSH1 0x1 PUSH1 0x1 PUSH1 0xA0 SHL SUB AND PUSH2 0xC74 JUMPI POP PUSH8 0xDE0B6B3A7640000 PUSH2 0x5A6 JUMP JUMPDEST PUSH1 0x6C SLOAD PUSH1 0x0 SWAP1 PUSH2 0xC8C SWAP1 PUSH1 0x1 PUSH1 0x1 PUSH1 0xA0 SHL SUB AND PUSH2 0x155A JUMP JUMPDEST PUSH1 0x66 SLOAD SWAP1 SWAP2 POP PUSH1 0x0 SWAP1 PUSH4 0xFFFFFFFF DUP1 DUP5 AND PUSH1 0x1 PUSH1 0x80 SHL SWAP1 SWAP3 DIV AND LT PUSH2 0xCB1 JUMPI DUP2 PUSH2 0x619 JUMP JUMPDEST POP PUSH1 0x66 SLOAD PUSH1 0x6C SLOAD PUSH1 0x1 PUSH1 0x80 SHL SWAP1 SWAP2 DIV PUSH4 0xFFFFFFFF AND SWAP1 PUSH1 0x0 SWAP1 PUSH2 0x635 SWAP1 PUSH1 0x1 PUSH1 0x1 PUSH1 0xA0 SHL SUB AND DUP4 PUSH2 0x1729 JUMP JUMPDEST PUSH2 0xCE5 PUSH2 0x1D9C JUMP JUMPDEST PUSH1 0x1 PUSH1 0x1 PUSH1 0xA0 SHL SUB AND PUSH2 0xCF6 PUSH2 0xAAC JUMP JUMPDEST PUSH1 0x1 PUSH1 0x1 PUSH1 0xA0 SHL SUB AND EQ PUSH2 0xD3F JUMPI PUSH1 0x40 DUP1 MLOAD PUSH3 0x461BCD PUSH1 0xE5 SHL DUP2 MSTORE PUSH1 0x20 PUSH1 0x4 DUP3 ADD DUP2 SWAP1 MSTORE PUSH1 0x24 DUP3 ADD MSTORE PUSH1 0x0 DUP1 MLOAD PUSH1 0x20 PUSH2 0x261C DUP4 CODECOPY DUP2 MLOAD SWAP2 MSTORE PUSH1 0x44 DUP3 ADD MSTORE SWAP1 MLOAD SWAP1 DUP2 SWAP1 SUB PUSH1 0x64 ADD SWAP1 REVERT JUMPDEST PUSH1 0x6B DUP1 SLOAD PUSH1 0x1 PUSH1 0x1 PUSH1 0xA0 SHL SUB NOT AND PUSH1 0x1 PUSH1 0x1 PUSH1 0xA0 SHL SUB SWAP3 SWAP1 SWAP3 AND SWAP2 SWAP1 SWAP2 OR SWAP1 SSTORE JUMP JUMPDEST PUSH1 0x66 SLOAD PUSH4 0xFFFFFFFF AND DUP2 JUMP JUMPDEST PUSH1 0x6A SLOAD PUSH1 0x1 PUSH1 0x1 PUSH1 0xA0 SHL SUB AND DUP2 JUMP JUMPDEST PUSH1 0x66 SLOAD PUSH1 0x1 PUSH1 0x20 SHL SWAP1 DIV PUSH4 0xFFFFFFFF AND DUP2 JUMP JUMPDEST PUSH3 0xF4240 DUP2 JUMP JUMPDEST PUSH2 0xD9E PUSH2 0x1D9C JUMP JUMPDEST PUSH1 0x1 PUSH1 0x1 PUSH1 0xA0 SHL SUB AND PUSH2 0xDAF PUSH2 0xAAC JUMP JUMPDEST PUSH1 0x1 PUSH1 0x1 PUSH1 0xA0 SHL SUB AND EQ PUSH2 0xDF8 JUMPI PUSH1 0x40 DUP1 MLOAD PUSH3 0x461BCD PUSH1 0xE5 SHL DUP2 MSTORE PUSH1 0x20 PUSH1 0x4 DUP3 ADD DUP2 SWAP1 MSTORE PUSH1 0x24 DUP3 ADD MSTORE PUSH1 0x0 DUP1 MLOAD PUSH1 0x20 PUSH2 0x261C DUP4 CODECOPY DUP2 MLOAD SWAP2 MSTORE PUSH1 0x44 DUP3 ADD MSTORE SWAP1 MLOAD SWAP1 DUP2 SWAP1 SUB PUSH1 0x64 ADD SWAP1 REVERT JUMPDEST PUSH1 0x6E DUP1 SLOAD PUSH1 0x1 PUSH1 0x1 PUSH1 0xA0 SHL SUB SWAP6 DUP7 AND PUSH1 0x1 PUSH1 0x1 PUSH1 0xA0 SHL SUB NOT SWAP2 DUP3 AND OR SWAP1 SWAP2 SSTORE PUSH1 0x6F DUP1 SLOAD SWAP5 DUP7 AND SWAP5 DUP3 AND SWAP5 SWAP1 SWAP5 OR SWAP1 SWAP4 SSTORE PUSH1 0x6C DUP1 SLOAD SWAP3 DUP6 AND SWAP3 DUP5 AND SWAP3 SWAP1 SWAP3 OR SWAP1 SWAP2 SSTORE PUSH1 0x6D DUP1 SLOAD SWAP2 SWAP1 SWAP4 AND SWAP2 AND OR SWAP1 SSTORE JUMP JUMPDEST PUSH2 0xE50 PUSH2 0x1D9C JUMP JUMPDEST PUSH1 0x1 PUSH1 0x1 PUSH1 0xA0 SHL SUB AND PUSH2 0xE61 PUSH2 0xAAC JUMP JUMPDEST PUSH1 0x1 PUSH1 0x1 PUSH1 0xA0 SHL SUB AND EQ PUSH2 0xEAA JUMPI PUSH1 0x40 DUP1 MLOAD PUSH3 0x461BCD PUSH1 0xE5 SHL DUP2 MSTORE PUSH1 0x20 PUSH1 0x4 DUP3 ADD DUP2 SWAP1 MSTORE PUSH1 0x24 DUP3 ADD MSTORE PUSH1 0x0 DUP1 MLOAD PUSH1 0x20 PUSH2 0x261C DUP4 CODECOPY DUP2 MLOAD SWAP2 MSTORE PUSH1 0x44 DUP3 ADD MSTORE SWAP1 MLOAD SWAP1 DUP2 SWAP1 SUB PUSH1 0x64 ADD SWAP1 REVERT JUMPDEST PUSH1 0x6A DUP1 SLOAD PUSH1 0x1 PUSH1 0x1 PUSH1 0xA0 SHL SUB NOT AND PUSH1 0x1 PUSH1 0x1 PUSH1 0xA0 SHL SUB SWAP3 SWAP1 SWAP3 AND SWAP2 SWAP1 SWAP2 OR SWAP1 SSTORE JUMP JUMPDEST PUSH2 0xED4 PUSH2 0x1D9C JUMP JUMPDEST PUSH1 0x1 PUSH1 0x1 PUSH1 0xA0 SHL SUB AND PUSH2 0xEE5 PUSH2 0xAAC JUMP JUMPDEST PUSH1 0x1 PUSH1 0x1 PUSH1 0xA0 SHL SUB AND EQ PUSH2 0xF2E JUMPI PUSH1 0x40 DUP1 MLOAD PUSH3 0x461BCD PUSH1 0xE5 SHL DUP2 MSTORE PUSH1 0x20 PUSH1 0x4 DUP3 ADD DUP2 SWAP1 MSTORE PUSH1 0x24 DUP3 ADD MSTORE PUSH1 0x0 DUP1 MLOAD PUSH1 0x20 PUSH2 0x261C DUP4 CODECOPY DUP2 MLOAD SWAP2 MSTORE PUSH1 0x44 DUP3 ADD MSTORE SWAP1 MLOAD SWAP1 DUP2 SWAP1 SUB PUSH1 0x64 ADD SWAP1 REVERT JUMPDEST PUSH1 0x1 PUSH1 0x1 PUSH1 0xA0 SHL SUB DUP1 DUP6 AND PUSH1 0x0 DUP2 DUP2 MSTORE PUSH1 0x7E PUSH1 0x20 SWAP1 DUP2 MSTORE PUSH1 0x40 SWAP2 DUP3 SWAP1 KECCAK256 DUP1 SLOAD DUP9 ISZERO ISZERO PUSH1 0x1 PUSH1 0xA0 SHL DUP2 MUL PUSH1 0xFF PUSH1 0xA0 SHL NOT PUSH1 0x1 PUSH1 0x1 PUSH1 0xA0 SHL SUB NOT SWAP4 DUP5 AND DUP9 OR AND OR DUP4 SSTORE PUSH1 0x1 DUP4 ADD DUP1 SLOAD SWAP8 DUP11 AND SWAP8 SWAP1 SWAP3 AND DUP8 OR SWAP1 SWAP2 SSTORE PUSH1 0x2 DUP3 ADD DUP8 SWAP1 SSTORE DUP4 MLOAD SWAP5 DUP6 MSTORE SWAP2 DUP5 ADD SWAP2 SWAP1 SWAP2 MSTORE DUP3 DUP3 ADD SWAP4 SWAP1 SWAP4 MSTORE PUSH1 0x60 DUP3 ADD DUP5 SWAP1 MSTORE MLOAD PUSH32 0x9CE8DAA3B6DDB1B45182C5DB00C581F637E2373A74E2D343D1C4999AAA5224F0 SWAP2 DUP2 SWAP1 SUB PUSH1 0x80 ADD SWAP1 LOG1 POP POP POP POP POP JUMP JUMPDEST PUSH1 0x66 SLOAD PUSH4 0xFFFFFFFF TIMESTAMP DUP2 AND SWAP2 PUSH1 0x1 PUSH1 0x20 SHL SWAP1 DIV AND DUP1 DUP3 SUB SWAP1 DUP3 LT ISZERO PUSH2 0x102A JUMPI PUSH1 0x40 MLOAD PUSH3 0x461BCD PUSH1 0xE5 SHL DUP2 MSTORE PUSH1 0x4 ADD DUP1 DUP1 PUSH1 0x20 ADD DUP3 DUP2 SUB DUP3 MSTORE PUSH1 0x3A DUP2 MSTORE PUSH1 0x20 ADD DUP1 PUSH2 0x25C1 PUSH1 0x3A SWAP2 CODECOPY PUSH1 0x40 ADD SWAP2 POP POP PUSH1 0x40 MLOAD DUP1 SWAP2 SUB SWAP1 REVERT JUMPDEST PUSH1 0x66 SLOAD PUSH4 0xFFFFFFFF PUSH1 0x1 PUSH1 0x40 SHL SWAP1 SWAP2 DIV DUP2 AND SWAP1 DUP3 AND LT ISZERO PUSH2 0x107C JUMPI PUSH1 0x40 MLOAD PUSH3 0x461BCD PUSH1 0xE5 SHL DUP2 MSTORE PUSH1 0x4 ADD DUP1 DUP1 PUSH1 0x20 ADD DUP3 DUP2 SUB DUP3 MSTORE PUSH1 0x30 DUP2 MSTORE PUSH1 0x20 ADD DUP1 PUSH2 0x266F PUSH1 0x30 SWAP2 CODECOPY PUSH1 0x40 ADD SWAP2 POP POP PUSH1 0x40 MLOAD DUP1 SWAP2 SUB SWAP1 REVERT JUMPDEST PUSH1 0x66 SLOAD PUSH1 0x6B SLOAD PUSH1 0x40 DUP1 MLOAD PUSH4 0x144613FF PUSH1 0xE3 SHL DUP2 MSTORE SWAP1 MLOAD PUSH4 0xFFFFFFFF SWAP4 DUP5 AND SWAP4 PUSH1 0x7 PUSH1 0x1 DUP7 ADD SWAP1 SWAP2 AND MOD SWAP3 PUSH1 0x1 PUSH1 0x1 PUSH1 0xA0 SHL SUB AND SWAP2 PUSH4 0xA2309FF8 SWAP2 PUSH1 0x4 DUP1 DUP4 ADD SWAP3 PUSH1 0x20 SWAP3 SWAP2 SWAP1 DUP3 SWAP1 SUB ADD DUP2 PUSH1 0x0 DUP8 DUP1 EXTCODESIZE ISZERO DUP1 ISZERO PUSH2 0x10D7 JUMPI PUSH1 0x0 DUP1 REVERT JUMPDEST POP GAS CALL ISZERO DUP1 ISZERO PUSH2 0x10EB JUMPI RETURNDATASIZE PUSH1 0x0 DUP1 RETURNDATACOPY RETURNDATASIZE PUSH1 0x0 REVERT JUMPDEST POP POP POP POP PUSH1 0x40 MLOAD RETURNDATASIZE PUSH1 0x20 DUP2 LT ISZERO PUSH2 0x1101 JUMPI PUSH1 0x0 DUP1 REVERT JUMPDEST POP MLOAD PUSH1 0x70 PUSH4 0xFFFFFFFF DUP5 AND PUSH1 0x7 DUP2 LT PUSH2 0x1116 JUMPI INVALID JUMPDEST ADD SSTORE PUSH1 0x6B SLOAD PUSH1 0x40 DUP1 MLOAD PUSH4 0x966FF65 PUSH1 0xE4 SHL DUP2 MSTORE SWAP1 MLOAD PUSH1 0x1 PUSH1 0x1 PUSH1 0xA0 SHL SUB SWAP1 SWAP3 AND SWAP2 PUSH4 0x966FF650 SWAP2 PUSH1 0x4 DUP1 DUP3 ADD SWAP3 PUSH1 0x20 SWAP3 SWAP1 SWAP2 SWAP1 DUP3 SWAP1 SUB ADD DUP2 PUSH1 0x0 DUP8 DUP1 EXTCODESIZE ISZERO DUP1 ISZERO PUSH2 0x115F JUMPI PUSH1 0x0 DUP1 REVERT JUMPDEST POP GAS CALL ISZERO DUP1 ISZERO PUSH2 0x1173 JUMPI RETURNDATASIZE PUSH1 0x0 DUP1 RETURNDATACOPY RETURNDATASIZE PUSH1 0x0 REVERT JUMPDEST POP POP POP POP PUSH1 0x40 MLOAD RETURNDATASIZE PUSH1 0x20 DUP2 LT ISZERO PUSH2 0x1189 JUMPI PUSH1 0x0 DUP1 REVERT JUMPDEST POP MLOAD PUSH1 0x77 PUSH4 0xFFFFFFFF DUP5 AND PUSH1 0x7 DUP2 LT PUSH2 0x119E JUMPI INVALID JUMPDEST ADD SSTORE PUSH1 0x0 PUSH2 0x11D5 PUSH1 0x70 PUSH4 0xFFFFFFFF DUP5 AND PUSH1 0x7 DUP2 LT PUSH2 0x11B8 JUMPI INVALID JUMPDEST ADD SLOAD PUSH1 0x70 DUP6 PUSH4 0xFFFFFFFF AND PUSH1 0x7 DUP2 LT PUSH2 0x11CD JUMPI INVALID JUMPDEST ADD SLOAD SWAP1 PUSH2 0x1E63 JUMP JUMPDEST SWAP1 POP PUSH1 0x0 PUSH2 0x1204 PUSH1 0x77 DUP5 PUSH4 0xFFFFFFFF AND PUSH1 0x7 DUP2 LT PUSH2 0x11EF JUMPI INVALID JUMPDEST ADD SLOAD PUSH1 0x77 DUP7 PUSH4 0xFFFFFFFF AND PUSH1 0x7 DUP2 LT PUSH2 0x11CD JUMPI INVALID JUMPDEST SWAP1 POP PUSH1 0x65 SLOAD PUSH1 0x0 EQ ISZERO PUSH2 0x121D JUMPI PUSH3 0xF4240 PUSH1 0x65 SSTORE PUSH2 0x1232 JUMP JUMPDEST PUSH2 0x122E DUP3 PUSH2 0x6A3 DUP4 PUSH3 0xF4240 PUSH2 0x1CD3 JUMP JUMPDEST PUSH1 0x65 SSTORE JUMPDEST PUSH1 0x66 DUP1 SLOAD PUSH8 0xFFFFFFFF00000000 NOT AND PUSH1 0x1 PUSH1 0x20 SHL PUSH4 0xFFFFFFFF DUP10 DUP2 AND DUP3 MUL SWAP3 SWAP1 SWAP3 OR PUSH4 0xFFFFFFFF NOT AND DUP7 DUP4 AND OR SWAP3 DUP4 SWAP1 SSTORE PUSH1 0x65 SLOAD PUSH1 0x40 DUP1 MLOAD SWAP2 DUP3 MSTORE PUSH1 0x20 DUP3 ADD DUP7 SWAP1 MSTORE DUP2 DUP2 ADD DUP8 SWAP1 MSTORE SWAP2 SWAP1 SWAP4 DIV DUP3 AND PUSH1 0x60 DUP5 ADD MSTORE SWAP1 DUP7 AND PUSH1 0x80 DUP4 ADD MSTORE MLOAD PUSH32 0xB5C9438F23A276E24F58B423B7B8322A09F4DCD8BE672DC0EC2C5F16EDF6844D SWAP2 PUSH1 0xA0 SWAP1 DUP3 SWAP1 SUB ADD SWAP1 LOG1 POP POP POP POP POP POP JUMP JUMPDEST PUSH2 0x12C9 PUSH2 0x1D9C JUMP JUMPDEST PUSH1 0x1 PUSH1 0x1 PUSH1 0xA0 SHL SUB AND PUSH2 0x12DA PUSH2 0xAAC JUMP JUMPDEST PUSH1 0x1 PUSH1 0x1 PUSH1 0xA0 SHL SUB AND EQ PUSH2 0x1323 JUMPI PUSH1 0x40 DUP1 MLOAD PUSH3 0x461BCD PUSH1 0xE5 SHL DUP2 MSTORE PUSH1 0x20 PUSH1 0x4 DUP3 ADD DUP2 SWAP1 MSTORE PUSH1 0x24 DUP3 ADD MSTORE PUSH1 0x0 DUP1 MLOAD PUSH1 0x20 PUSH2 0x261C DUP4 CODECOPY DUP2 MLOAD SWAP2 MSTORE PUSH1 0x44 DUP3 ADD MSTORE SWAP1 MLOAD SWAP1 DUP2 SWAP1 SUB PUSH1 0x64 ADD SWAP1 REVERT JUMPDEST PUSH1 0x1 PUSH1 0x1 PUSH1 0xA0 SHL SUB DUP2 AND PUSH2 0x1368 JUMPI PUSH1 0x40 MLOAD PUSH3 0x461BCD PUSH1 0xE5 SHL DUP2 MSTORE PUSH1 0x4 ADD DUP1 DUP1 PUSH1 0x20 ADD DUP3 DUP2 SUB DUP3 MSTORE PUSH1 0x26 DUP2 MSTORE PUSH1 0x20 ADD DUP1 PUSH2 0x250E PUSH1 0x26 SWAP2 CODECOPY PUSH1 0x40 ADD SWAP2 POP POP PUSH1 0x40 MLOAD DUP1 SWAP2 SUB SWAP1 REVERT JUMPDEST PUSH1 0x33 SLOAD PUSH1 0x40 MLOAD PUSH1 0x1 PUSH1 0x1 PUSH1 0xA0 SHL SUB DUP1 DUP5 AND SWAP3 AND SWAP1 PUSH32 0x8BE0079C531659141344CD1FD0A4F28419497F9722A3DAAFE3B4186F6B6457E0 SWAP1 PUSH1 0x0 SWAP1 LOG3 PUSH1 0x33 DUP1 SLOAD PUSH1 0x1 PUSH1 0x1 PUSH1 0xA0 SHL SUB NOT AND PUSH1 0x1 PUSH1 0x1 PUSH1 0xA0 SHL SUB SWAP3 SWAP1 SWAP3 AND SWAP2 SWAP1 SWAP2 OR SWAP1 SSTORE JUMP JUMPDEST PUSH4 0x5F5E100 SWAP1 JUMP JUMPDEST PUSH2 0x13D4 PUSH2 0x1D9C JUMP JUMPDEST PUSH1 0x1 PUSH1 0x1 PUSH1 0xA0 SHL SUB AND PUSH2 0x13E5 PUSH2 0xAAC JUMP JUMPDEST PUSH1 0x1 PUSH1 0x1 PUSH1 0xA0 SHL SUB AND EQ PUSH2 0x142E JUMPI PUSH1 0x40 DUP1 MLOAD PUSH3 0x461BCD PUSH1 0xE5 SHL DUP2 MSTORE PUSH1 0x20 PUSH1 0x4 DUP3 ADD DUP2 SWAP1 MSTORE PUSH1 0x24 DUP3 ADD MSTORE PUSH1 0x0 DUP1 MLOAD PUSH1 0x20 PUSH2 0x261C DUP4 CODECOPY DUP2 MLOAD SWAP2 MSTORE PUSH1 0x44 DUP3 ADD MSTORE SWAP1 MLOAD SWAP1 DUP2 SWAP1 SUB PUSH1 0x64 ADD SWAP1 REVERT JUMPDEST PUSH1 0x66 DUP1 SLOAD PUSH4 0xFFFFFFFF PUSH1 0x40 SHL NOT AND PUSH1 0x1 PUSH1 0x40 SHL PUSH4 0xFFFFFFFF DUP7 DUP2 AND DUP3 MUL SWAP3 SWAP1 SWAP3 OR PUSH4 0xFFFFFFFF PUSH1 0x60 SHL NOT AND PUSH1 0x1 PUSH1 0x60 SHL DUP7 DUP5 AND DUP2 MUL SWAP2 SWAP1 SWAP2 OR PUSH4 0xFFFFFFFF PUSH1 0x80 SHL NOT AND PUSH1 0x1 PUSH1 0x80 SHL DUP7 DUP6 AND DUP2 MUL SWAP2 SWAP1 SWAP2 OR SWAP5 DUP6 SWAP1 SSTORE PUSH1 0x40 DUP1 MLOAD SWAP4 DUP7 DIV DUP6 AND DUP5 MSTORE SWAP2 DUP6 DIV DUP5 AND PUSH1 0x20 DUP5 ADD MSTORE SWAP1 SWAP4 DIV SWAP1 SWAP2 AND DUP2 DUP4 ADD MSTORE SWAP1 MLOAD PUSH32 0xD36686E6B7C0D0F601CF866AB5A5DB598A9A4271B572401A988350DE35E38891 SWAP2 PUSH1 0x60 SWAP1 DUP3 SWAP1 SUB ADD SWAP1 LOG1 POP POP POP JUMP JUMPDEST PUSH1 0x0 DUP1 PUSH1 0x67 PUSH1 0x0 SWAP1 SLOAD SWAP1 PUSH2 0x100 EXP SWAP1 DIV PUSH1 0x1 PUSH1 0x1 PUSH1 0xA0 SHL SUB AND PUSH1 0x1 PUSH1 0x1 PUSH1 0xA0 SHL SUB AND PUSH4 0xFEAF968C PUSH1 0x40 MLOAD DUP2 PUSH4 0xFFFFFFFF AND PUSH1 0xE0 SHL DUP2 MSTORE PUSH1 0x4 ADD PUSH1 0xA0 PUSH1 0x40 MLOAD DUP1 DUP4 SUB DUP2 DUP7 DUP1 EXTCODESIZE ISZERO DUP1 ISZERO PUSH2 0x1525 JUMPI PUSH1 0x0 DUP1 REVERT JUMPDEST POP GAS STATICCALL ISZERO DUP1 ISZERO PUSH2 0x1539 JUMPI RETURNDATASIZE PUSH1 0x0 DUP1 RETURNDATACOPY RETURNDATASIZE PUSH1 0x0 REVERT JUMPDEST POP POP POP POP PUSH1 0x40 MLOAD RETURNDATASIZE PUSH1 0xA0 DUP2 LT ISZERO PUSH2 0x154F JUMPI PUSH1 0x0 DUP1 REVERT JUMPDEST POP PUSH1 0x20 ADD MLOAD SWAP2 POP POP SWAP1 JUMP JUMPDEST PUSH1 0x0 DUP1 PUSH1 0x0 DUP4 PUSH1 0x1 PUSH1 0x1 PUSH1 0xA0 SHL SUB AND PUSH4 0x3850C7BD PUSH1 0x40 MLOAD DUP2 PUSH4 0xFFFFFFFF AND PUSH1 0xE0 SHL DUP2 MSTORE PUSH1 0x4 ADD PUSH1 0xE0 PUSH1 0x40 MLOAD DUP1 DUP4 SUB DUP2 DUP7 DUP1 EXTCODESIZE ISZERO DUP1 ISZERO PUSH2 0x1598 JUMPI PUSH1 0x0 DUP1 REVERT JUMPDEST POP GAS STATICCALL ISZERO DUP1 ISZERO PUSH2 0x15AC JUMPI RETURNDATASIZE PUSH1 0x0 DUP1 RETURNDATACOPY RETURNDATASIZE PUSH1 0x0 REVERT JUMPDEST POP POP POP POP PUSH1 0x40 MLOAD RETURNDATASIZE PUSH1 0xE0 DUP2 LT ISZERO PUSH2 0x15C2 JUMPI PUSH1 0x0 DUP1 REVERT JUMPDEST POP PUSH1 0x40 DUP2 ADD MLOAD PUSH1 0x60 SWAP1 SWAP2 ADD MLOAD SWAP1 SWAP3 POP SWAP1 POP PUSH2 0xFFFF DUP2 AND PUSH2 0x160E JUMPI PUSH1 0x40 DUP1 MLOAD PUSH3 0x461BCD PUSH1 0xE5 SHL DUP2 MSTORE PUSH1 0x20 PUSH1 0x4 DUP3 ADD MSTORE PUSH1 0x2 PUSH1 0x24 DUP3 ADD MSTORE PUSH2 0x4E49 PUSH1 0xF0 SHL PUSH1 0x44 DUP3 ADD MSTORE SWAP1 MLOAD SWAP1 DUP2 SWAP1 SUB PUSH1 0x64 ADD SWAP1 REVERT JUMPDEST PUSH1 0x0 DUP1 DUP6 PUSH1 0x1 PUSH1 0x1 PUSH1 0xA0 SHL SUB AND PUSH4 0x252C09D7 DUP5 PUSH2 0xFFFF AND DUP7 PUSH1 0x1 ADD PUSH2 0xFFFF AND DUP2 PUSH2 0x1634 JUMPI INVALID JUMPDEST MOD PUSH1 0x40 MLOAD DUP3 PUSH4 0xFFFFFFFF AND PUSH1 0xE0 SHL DUP2 MSTORE PUSH1 0x4 ADD DUP1 DUP3 PUSH2 0xFFFF AND DUP2 MSTORE PUSH1 0x20 ADD SWAP2 POP POP PUSH1 0x80 PUSH1 0x40 MLOAD DUP1 DUP4 SUB DUP2 DUP7 DUP1 EXTCODESIZE ISZERO DUP1 ISZERO PUSH2 0x166D JUMPI PUSH1 0x0 DUP1 REVERT JUMPDEST POP GAS STATICCALL ISZERO DUP1 ISZERO PUSH2 0x1681 JUMPI RETURNDATASIZE PUSH1 0x0 DUP1 RETURNDATACOPY RETURNDATASIZE PUSH1 0x0 REVERT JUMPDEST POP POP POP POP PUSH1 0x40 MLOAD RETURNDATASIZE PUSH1 0x80 DUP2 LT ISZERO PUSH2 0x1697 JUMPI PUSH1 0x0 DUP1 REVERT JUMPDEST POP DUP1 MLOAD PUSH1 0x60 SWAP1 SWAP2 ADD MLOAD SWAP1 SWAP3 POP SWAP1 POP DUP1 PUSH2 0x171E JUMPI DUP6 PUSH1 0x1 PUSH1 0x1 PUSH1 0xA0 SHL SUB AND PUSH4 0x252C09D7 PUSH1 0x0 PUSH1 0x40 MLOAD DUP3 PUSH4 0xFFFFFFFF AND PUSH1 0xE0 SHL DUP2 MSTORE PUSH1 0x4 ADD DUP1 DUP3 DUP2 MSTORE PUSH1 0x20 ADD SWAP2 POP POP PUSH1 0x80 PUSH1 0x40 MLOAD DUP1 DUP4 SUB DUP2 DUP7 DUP1 EXTCODESIZE ISZERO DUP1 ISZERO PUSH2 0x16EF JUMPI PUSH1 0x0 DUP1 REVERT JUMPDEST POP GAS STATICCALL ISZERO DUP1 ISZERO PUSH2 0x1703 JUMPI RETURNDATASIZE PUSH1 0x0 DUP1 RETURNDATACOPY RETURNDATASIZE PUSH1 0x0 REVERT JUMPDEST POP POP POP POP PUSH1 0x40 MLOAD RETURNDATASIZE PUSH1 0x80 DUP2 LT ISZERO PUSH2 0x1719 JUMPI PUSH1 0x0 DUP1 REVERT JUMPDEST POP MLOAD SWAP2 POP JUMPDEST POP TIMESTAMP SUB SWAP5 SWAP4 POP POP POP POP JUMP JUMPDEST PUSH1 0x0 PUSH4 0xFFFFFFFF DUP3 AND PUSH2 0x1768 JUMPI PUSH1 0x40 DUP1 MLOAD PUSH3 0x461BCD PUSH1 0xE5 SHL DUP2 MSTORE PUSH1 0x20 PUSH1 0x4 DUP3 ADD MSTORE PUSH1 0x2 PUSH1 0x24 DUP3 ADD MSTORE PUSH2 0x425 PUSH1 0xF4 SHL PUSH1 0x44 DUP3 ADD MSTORE SWAP1 MLOAD SWAP1 DUP2 SWAP1 SUB PUSH1 0x64 ADD SWAP1 REVERT JUMPDEST PUSH1 0x40 DUP1 MLOAD PUSH1 0x2 DUP1 DUP3 MSTORE PUSH1 0x60 DUP1 DUP4 ADD DUP5 MSTORE SWAP3 PUSH1 0x20 DUP4 ADD SWAP1 DUP1 CALLDATASIZE DUP4 CALLDATACOPY ADD SWAP1 POP POP SWAP1 POP DUP3 DUP2 PUSH1 0x0 DUP2 MLOAD DUP2 LT PUSH2 0x1796 JUMPI INVALID JUMPDEST PUSH1 0x20 MUL PUSH1 0x20 ADD ADD SWAP1 PUSH4 0xFFFFFFFF AND SWAP1 DUP2 PUSH4 0xFFFFFFFF AND DUP2 MSTORE POP POP PUSH1 0x0 DUP2 PUSH1 0x1 DUP2 MLOAD DUP2 LT PUSH2 0x17BF JUMPI INVALID JUMPDEST PUSH4 0xFFFFFFFF SWAP1 SWAP3 AND PUSH1 0x20 SWAP3 DUP4 MUL SWAP2 SWAP1 SWAP2 ADD DUP3 ADD MSTORE PUSH1 0x40 MLOAD PUSH4 0x883BDBFD PUSH1 0xE0 SHL DUP2 MSTORE PUSH1 0x4 DUP2 ADD DUP3 DUP2 MSTORE DUP4 MLOAD PUSH1 0x24 DUP4 ADD MSTORE DUP4 MLOAD PUSH1 0x60 SWAP4 PUSH1 0x1 PUSH1 0x1 PUSH1 0xA0 SHL SUB DUP10 AND SWAP4 PUSH4 0x883BDBFD SWAP4 DUP8 SWAP4 SWAP1 SWAP3 DUP4 SWAP3 PUSH1 0x44 ADD SWAP2 DUP6 DUP3 ADD SWAP2 MUL DUP1 DUP4 DUP4 PUSH1 0x0 JUMPDEST DUP4 DUP2 LT ISZERO PUSH2 0x1831 JUMPI DUP2 DUP2 ADD MLOAD DUP4 DUP3 ADD MSTORE PUSH1 0x20 ADD PUSH2 0x1819 JUMP JUMPDEST POP POP POP POP SWAP1 POP ADD SWAP3 POP POP POP PUSH1 0x0 PUSH1 0x40 MLOAD DUP1 DUP4 SUB DUP2 DUP7 DUP1 EXTCODESIZE ISZERO DUP1 ISZERO PUSH2 0x1854 JUMPI PUSH1 0x0 DUP1 REVERT JUMPDEST POP GAS STATICCALL ISZERO DUP1 ISZERO PUSH2 0x1868 JUMPI RETURNDATASIZE PUSH1 0x0 DUP1 RETURNDATACOPY RETURNDATASIZE PUSH1 0x0 REVERT JUMPDEST POP POP POP POP PUSH1 0x40 MLOAD RETURNDATASIZE PUSH1 0x0 DUP3 RETURNDATACOPY PUSH1 0x1F RETURNDATASIZE SWAP1 DUP2 ADD PUSH1 0x1F NOT AND DUP3 ADD PUSH1 0x40 SWAP1 DUP2 MSTORE DUP2 LT ISZERO PUSH2 0x1891 JUMPI PUSH1 0x0 DUP1 REVERT JUMPDEST DUP2 ADD SWAP1 DUP1 DUP1 MLOAD PUSH1 0x40 MLOAD SWAP4 SWAP3 SWAP2 SWAP1 DUP5 PUSH1 0x1 PUSH1 0x20 SHL DUP3 GT ISZERO PUSH2 0x18B0 JUMPI PUSH1 0x0 DUP1 REVERT JUMPDEST SWAP1 DUP4 ADD SWAP1 PUSH1 0x20 DUP3 ADD DUP6 DUP2 GT ISZERO PUSH2 0x18C5 JUMPI PUSH1 0x0 DUP1 REVERT JUMPDEST DUP3 MLOAD DUP7 PUSH1 0x20 DUP3 MUL DUP4 ADD GT PUSH1 0x1 PUSH1 0x20 SHL DUP3 GT OR ISZERO PUSH2 0x18E1 JUMPI PUSH1 0x0 DUP1 REVERT JUMPDEST DUP3 MSTORE POP DUP2 MLOAD PUSH1 0x20 SWAP2 DUP3 ADD SWAP3 DUP3 ADD SWAP2 MUL DUP1 DUP4 DUP4 PUSH1 0x0 JUMPDEST DUP4 DUP2 LT ISZERO PUSH2 0x190E JUMPI DUP2 DUP2 ADD MLOAD DUP4 DUP3 ADD MSTORE PUSH1 0x20 ADD PUSH2 0x18F6 JUMP JUMPDEST POP POP POP POP SWAP1 POP ADD PUSH1 0x40 MSTORE PUSH1 0x20 ADD DUP1 MLOAD PUSH1 0x40 MLOAD SWAP4 SWAP3 SWAP2 SWAP1 DUP5 PUSH1 0x1 PUSH1 0x20 SHL DUP3 GT ISZERO PUSH2 0x1936 JUMPI PUSH1 0x0 DUP1 REVERT JUMPDEST SWAP1 DUP4 ADD SWAP1 PUSH1 0x20 DUP3 ADD DUP6 DUP2 GT ISZERO PUSH2 0x194B JUMPI PUSH1 0x0 DUP1 REVERT JUMPDEST DUP3 MLOAD DUP7 PUSH1 0x20 DUP3 MUL DUP4 ADD GT PUSH1 0x1 PUSH1 0x20 SHL DUP3 GT OR ISZERO PUSH2 0x1967 JUMPI PUSH1 0x0 DUP1 REVERT JUMPDEST DUP3 MSTORE POP DUP2 MLOAD PUSH1 0x20 SWAP2 DUP3 ADD SWAP3 DUP3 ADD SWAP2 MUL DUP1 DUP4 DUP4 PUSH1 0x0 JUMPDEST DUP4 DUP2 LT ISZERO PUSH2 0x1994 JUMPI DUP2 DUP2 ADD MLOAD DUP4 DUP3 ADD MSTORE PUSH1 0x20 ADD PUSH2 0x197C JUMP JUMPDEST POP POP POP POP SWAP1 POP ADD PUSH1 0x40 MSTORE POP POP POP POP SWAP1 POP PUSH1 0x0 DUP2 PUSH1 0x0 DUP2 MLOAD DUP2 LT PUSH2 0x19B3 JUMPI INVALID JUMPDEST PUSH1 0x20 MUL PUSH1 0x20 ADD ADD MLOAD DUP3 PUSH1 0x1 DUP2 MLOAD DUP2 LT PUSH2 0x19C8 JUMPI INVALID JUMPDEST PUSH1 0x20 MUL PUSH1 0x20 ADD ADD MLOAD SUB SWAP1 POP DUP5 PUSH4 0xFFFFFFFF AND DUP2 PUSH1 0x6 SIGNEXTEND DUP2 PUSH2 0x19E5 JUMPI INVALID JUMPDEST SDIV SWAP4 POP PUSH1 0x0 DUP2 PUSH1 0x6 SIGNEXTEND SLT DUP1 ISZERO PUSH2 0x1A0F JUMPI POP DUP5 PUSH4 0xFFFFFFFF AND DUP2 PUSH1 0x6 SIGNEXTEND DUP2 PUSH2 0x1A08 JUMPI INVALID JUMPDEST SMOD PUSH1 0x6 SIGNEXTEND ISZERO ISZERO JUMPDEST ISZERO PUSH2 0x1A1C JUMPI PUSH1 0x0 NOT SWAP1 SWAP4 ADD SWAP3 JUMPDEST POP POP POP SWAP3 SWAP2 POP POP JUMP JUMPDEST PUSH1 0x0 DUP1 PUSH2 0x1A31 DUP7 PUSH2 0x1EC0 JUMP JUMPDEST SWAP1 POP PUSH1 0x1 PUSH1 0x1 PUSH1 0x80 SHL SUB PUSH1 0x1 PUSH1 0x1 PUSH1 0xA0 SHL SUB DUP3 AND GT PUSH2 0x1AA0 JUMPI PUSH1 0x1 PUSH1 0x1 PUSH1 0xA0 SHL SUB DUP1 DUP3 AND DUP1 MUL SWAP1 DUP5 DUP2 AND SWAP1 DUP7 AND LT PUSH2 0x1A80 JUMPI PUSH2 0x1A7B PUSH1 0x1 PUSH1 0xC0 SHL DUP8 PUSH1 0x1 PUSH1 0x1 PUSH1 0x80 SHL SUB AND DUP4 PUSH2 0x21F1 JUMP JUMPDEST PUSH2 0x1A98 JUMP JUMPDEST PUSH2 0x1A98 DUP2 DUP8 PUSH1 0x1 PUSH1 0x1 PUSH1 0x80 SHL SUB AND PUSH1 0x1 PUSH1 0xC0 SHL PUSH2 0x21F1 JUMP JUMPDEST SWAP3 POP POP PUSH2 0x1B0E JUMP JUMPDEST PUSH1 0x0 PUSH2 0x1ABA PUSH1 0x1 PUSH1 0x1 PUSH1 0xA0 SHL SUB DUP4 AND DUP1 PUSH1 0x1 PUSH1 0x40 SHL PUSH2 0x21F1 JUMP JUMPDEST SWAP1 POP DUP4 PUSH1 0x1 PUSH1 0x1 PUSH1 0xA0 SHL SUB AND DUP6 PUSH1 0x1 PUSH1 0x1 PUSH1 0xA0 SHL SUB AND LT PUSH2 0x1AF2 JUMPI PUSH2 0x1AED PUSH1 0x1 PUSH1 0x80 SHL DUP8 PUSH1 0x1 PUSH1 0x1 PUSH1 0x80 SHL SUB AND DUP4 PUSH2 0x21F1 JUMP JUMPDEST PUSH2 0x1B0A JUMP JUMPDEST PUSH2 0x1B0A DUP2 DUP8 PUSH1 0x1 PUSH1 0x1 PUSH1 0x80 SHL SUB AND PUSH1 0x1 PUSH1 0x80 SHL PUSH2 0x21F1 JUMP JUMPDEST SWAP3 POP POP JUMPDEST POP SWAP5 SWAP4 POP POP POP POP JUMP JUMPDEST PUSH1 0x0 PUSH2 0x1B21 PUSH2 0x24E6 JUMP JUMPDEST POP PUSH1 0x1 PUSH1 0x1 PUSH1 0xA0 SHL SUB DUP3 DUP2 AND PUSH1 0x0 SWAP1 DUP2 MSTORE PUSH1 0x7E PUSH1 0x20 SWAP1 DUP2 MSTORE PUSH1 0x40 SWAP2 DUP3 SWAP1 KECCAK256 DUP3 MLOAD PUSH1 0x80 DUP2 ADD DUP5 MSTORE DUP2 SLOAD DUP1 DUP7 AND DUP3 MSTORE PUSH1 0x1 PUSH1 0xA0 SHL SWAP1 DIV PUSH1 0xFF AND ISZERO ISZERO SWAP3 DUP2 ADD DUP4 SWAP1 MSTORE PUSH1 0x1 DUP3 ADD SLOAD SWAP1 SWAP5 AND SWAP3 DUP5 ADD SWAP3 SWAP1 SWAP3 MSTORE PUSH1 0x2 SWAP1 SWAP2 ADD SLOAD PUSH1 0x60 DUP4 ADD MSTORE PUSH2 0x1BB5 JUMPI PUSH1 0x40 MLOAD PUSH3 0x461BCD PUSH1 0xE5 SHL DUP2 MSTORE PUSH1 0x4 ADD DUP1 DUP1 PUSH1 0x20 ADD DUP3 DUP2 SUB DUP3 MSTORE PUSH1 0x33 DUP2 MSTORE PUSH1 0x20 ADD DUP1 PUSH2 0x263C PUSH1 0x33 SWAP2 CODECOPY PUSH1 0x40 ADD SWAP2 POP POP PUSH1 0x40 MLOAD DUP1 SWAP2 SUB SWAP1 REVERT JUMPDEST PUSH1 0x60 ADD MLOAD SWAP3 SWAP2 POP POP JUMP JUMPDEST PUSH1 0x0 PUSH2 0x1BC9 PUSH2 0x24E6 JUMP JUMPDEST POP PUSH1 0x1 PUSH1 0x1 PUSH1 0xA0 SHL SUB DUP3 DUP2 AND PUSH1 0x0 SWAP1 DUP2 MSTORE PUSH1 0x7E PUSH1 0x20 SWAP1 DUP2 MSTORE PUSH1 0x40 SWAP2 DUP3 SWAP1 KECCAK256 DUP3 MLOAD PUSH1 0x80 DUP2 ADD DUP5 MSTORE DUP2 SLOAD DUP1 DUP7 AND DUP3 MSTORE PUSH1 0x1 PUSH1 0xA0 SHL SWAP1 DIV PUSH1 0xFF AND ISZERO ISZERO SWAP3 DUP2 ADD DUP4 SWAP1 MSTORE PUSH1 0x1 DUP3 ADD SLOAD SWAP1 SWAP5 AND SWAP3 DUP5 ADD SWAP3 SWAP1 SWAP3 MSTORE PUSH1 0x2 SWAP1 SWAP2 ADD SLOAD PUSH1 0x60 DUP4 ADD MSTORE PUSH2 0x1C5D JUMPI PUSH1 0x40 MLOAD PUSH3 0x461BCD PUSH1 0xE5 SHL DUP2 MSTORE PUSH1 0x4 ADD DUP1 DUP1 PUSH1 0x20 ADD DUP3 DUP2 SUB DUP3 MSTORE PUSH1 0x2E DUP2 MSTORE PUSH1 0x20 ADD DUP1 PUSH2 0x269F PUSH1 0x2E SWAP2 CODECOPY PUSH1 0x40 ADD SWAP2 POP POP PUSH1 0x40 MLOAD DUP1 SWAP2 SUB SWAP1 REVERT JUMPDEST PUSH1 0x0 DUP2 PUSH1 0x40 ADD MLOAD PUSH1 0x1 PUSH1 0x1 PUSH1 0xA0 SHL SUB AND PUSH4 0xFEAF968C PUSH1 0x40 MLOAD DUP2 PUSH4 0xFFFFFFFF AND PUSH1 0xE0 SHL DUP2 MSTORE PUSH1 0x4 ADD PUSH1 0xA0 PUSH1 0x40 MLOAD DUP1 DUP4 SUB DUP2 DUP7 DUP1 EXTCODESIZE ISZERO DUP1 ISZERO PUSH2 0x1C9C JUMPI PUSH1 0x0 DUP1 REVERT JUMPDEST POP GAS STATICCALL ISZERO DUP1 ISZERO PUSH2 0x1CB0 JUMPI RETURNDATASIZE PUSH1 0x0 DUP1 RETURNDATACOPY RETURNDATASIZE PUSH1 0x0 REVERT JUMPDEST POP POP POP POP PUSH1 0x40 MLOAD RETURNDATASIZE PUSH1 0xA0 DUP2 LT ISZERO PUSH2 0x1CC6 JUMPI PUSH1 0x0 DUP1 REVERT JUMPDEST POP PUSH1 0x20 ADD MLOAD SWAP5 SWAP4 POP POP POP POP JUMP JUMPDEST PUSH1 0x0 DUP3 PUSH2 0x1CE2 JUMPI POP PUSH1 0x0 PUSH2 0x1D2F JUMP JUMPDEST DUP3 DUP3 MUL DUP3 DUP5 DUP3 DUP2 PUSH2 0x1CEF JUMPI INVALID JUMPDEST DIV EQ PUSH2 0x1D2C JUMPI PUSH1 0x40 MLOAD PUSH3 0x461BCD PUSH1 0xE5 SHL DUP2 MSTORE PUSH1 0x4 ADD DUP1 DUP1 PUSH1 0x20 ADD DUP3 DUP2 SUB DUP3 MSTORE PUSH1 0x21 DUP2 MSTORE PUSH1 0x20 ADD DUP1 PUSH2 0x25FB PUSH1 0x21 SWAP2 CODECOPY PUSH1 0x40 ADD SWAP2 POP POP PUSH1 0x40 MLOAD DUP1 SWAP2 SUB SWAP1 REVERT JUMPDEST SWAP1 POP JUMPDEST SWAP3 SWAP2 POP POP JUMP JUMPDEST PUSH1 0x0 DUP1 DUP3 GT PUSH2 0x1D8B JUMPI PUSH1 0x40 DUP1 MLOAD PUSH3 0x461BCD PUSH1 0xE5 SHL DUP2 MSTORE PUSH1 0x20 PUSH1 0x4 DUP3 ADD MSTORE PUSH1 0x1A PUSH1 0x24 DUP3 ADD MSTORE PUSH32 0x536166654D6174683A206469766973696F6E206279207A65726F000000000000 PUSH1 0x44 DUP3 ADD MSTORE SWAP1 MLOAD SWAP1 DUP2 SWAP1 SUB PUSH1 0x64 ADD SWAP1 REVERT JUMPDEST DUP2 DUP4 DUP2 PUSH2 0x1D94 JUMPI INVALID JUMPDEST DIV SWAP4 SWAP3 POP POP POP JUMP JUMPDEST CALLER SWAP1 JUMP JUMPDEST PUSH1 0x0 PUSH2 0x1DAB ADDRESS PUSH2 0x22AA JUMP JUMPDEST ISZERO SWAP1 POP SWAP1 JUMP JUMPDEST PUSH1 0x0 SLOAD PUSH2 0x100 SWAP1 DIV PUSH1 0xFF AND DUP1 PUSH2 0x1DCA JUMPI POP PUSH2 0x1DCA PUSH2 0x1DA0 JUMP JUMPDEST DUP1 PUSH2 0x1DD8 JUMPI POP PUSH1 0x0 SLOAD PUSH1 0xFF AND ISZERO JUMPDEST PUSH2 0x1E13 JUMPI PUSH1 0x40 MLOAD PUSH3 0x461BCD PUSH1 0xE5 SHL DUP2 MSTORE PUSH1 0x4 ADD DUP1 DUP1 PUSH1 0x20 ADD DUP3 DUP2 SUB DUP3 MSTORE PUSH1 0x2E DUP2 MSTORE PUSH1 0x20 ADD DUP1 PUSH2 0x2593 PUSH1 0x2E SWAP2 CODECOPY PUSH1 0x40 ADD SWAP2 POP POP PUSH1 0x40 MLOAD DUP1 SWAP2 SUB SWAP1 REVERT JUMPDEST PUSH1 0x0 SLOAD PUSH2 0x100 SWAP1 DIV PUSH1 0xFF AND ISZERO DUP1 ISZERO PUSH2 0x1E3E JUMPI PUSH1 0x0 DUP1 SLOAD PUSH1 0xFF NOT PUSH2 0xFF00 NOT SWAP1 SWAP2 AND PUSH2 0x100 OR AND PUSH1 0x1 OR SWAP1 SSTORE JUMPDEST PUSH2 0x1E46 PUSH2 0x22B0 JUMP JUMPDEST PUSH2 0x1E4E PUSH2 0x2350 JUMP JUMPDEST DUP1 ISZERO PUSH2 0x1E60 JUMPI PUSH1 0x0 DUP1 SLOAD PUSH2 0xFF00 NOT AND SWAP1 SSTORE JUMPDEST POP JUMP JUMPDEST PUSH1 0x0 DUP3 DUP3 GT ISZERO PUSH2 0x1EBA JUMPI PUSH1 0x40 DUP1 MLOAD PUSH3 0x461BCD PUSH1 0xE5 SHL DUP2 MSTORE PUSH1 0x20 PUSH1 0x4 DUP3 ADD MSTORE PUSH1 0x1E PUSH1 0x24 DUP3 ADD MSTORE PUSH32 0x536166654D6174683A207375627472616374696F6E206F766572666C6F770000 PUSH1 0x44 DUP3 ADD MSTORE SWAP1 MLOAD SWAP1 DUP2 SWAP1 SUB PUSH1 0x64 ADD SWAP1 REVERT JUMPDEST POP SWAP1 SUB SWAP1 JUMP JUMPDEST PUSH1 0x0 DUP1 PUSH1 0x0 DUP4 PUSH1 0x2 SIGNEXTEND SLT PUSH2 0x1ED7 JUMPI DUP3 PUSH1 0x2 SIGNEXTEND PUSH2 0x1EDF JUMP JUMPDEST DUP3 PUSH1 0x2 SIGNEXTEND PUSH1 0x0 SUB JUMPDEST SWAP1 POP PUSH3 0xD89E8 DUP2 GT ISZERO PUSH2 0x1F1D JUMPI PUSH1 0x40 DUP1 MLOAD PUSH3 0x461BCD PUSH1 0xE5 SHL DUP2 MSTORE PUSH1 0x20 PUSH1 0x4 DUP3 ADD MSTORE PUSH1 0x1 PUSH1 0x24 DUP3 ADD MSTORE PUSH1 0x15 PUSH1 0xFA SHL PUSH1 0x44 DUP3 ADD MSTORE SWAP1 MLOAD SWAP1 DUP2 SWAP1 SUB PUSH1 0x64 ADD SWAP1 REVERT JUMPDEST PUSH1 0x0 PUSH1 0x1 DUP3 AND PUSH2 0x1F31 JUMPI PUSH1 0x1 PUSH1 0x80 SHL PUSH2 0x1F43 JUMP JUMPDEST PUSH16 0xFFFCB933BD6FAD37AA2D162D1A594001 JUMPDEST PUSH17 0xFFFFFFFFFFFFFFFFFFFFFFFFFFFFFFFFFF AND SWAP1 POP PUSH1 0x2 DUP3 AND ISZERO PUSH2 0x1F77 JUMPI PUSH16 0xFFF97272373D413259A46990580E213A MUL PUSH1 0x80 SHR JUMPDEST PUSH1 0x4 DUP3 AND ISZERO PUSH2 0x1F96 JUMPI PUSH16 0xFFF2E50F5F656932EF12357CF3C7FDCC MUL PUSH1 0x80 SHR JUMPDEST PUSH1 0x8 DUP3 AND ISZERO PUSH2 0x1FB5 JUMPI PUSH16 0xFFE5CACA7E10E4E61C3624EAA0941CD0 MUL PUSH1 0x80 SHR JUMPDEST PUSH1 0x10 DUP3 AND ISZERO PUSH2 0x1FD4 JUMPI PUSH16 0xFFCB9843D60F6159C9DB58835C926644 MUL PUSH1 0x80 SHR JUMPDEST PUSH1 0x20 DUP3 AND ISZERO PUSH2 0x1FF3 JUMPI PUSH16 0xFF973B41FA98C081472E6896DFB254C0 MUL PUSH1 0x80 SHR JUMPDEST PUSH1 0x40 DUP3 AND ISZERO PUSH2 0x2012 JUMPI PUSH16 0xFF2EA16466C96A3843EC78B326B52861 MUL PUSH1 0x80 SHR JUMPDEST PUSH1 0x80 DUP3 AND ISZERO PUSH2 0x2031 JUMPI PUSH16 0xFE5DEE046A99A2A811C461F1969C3053 MUL PUSH1 0x80 SHR JUMPDEST PUSH2 0x100 DUP3 AND ISZERO PUSH2 0x2051 JUMPI PUSH16 0xFCBE86C7900A88AEDCFFC83B479AA3A4 MUL PUSH1 0x80 SHR JUMPDEST PUSH2 0x200 DUP3 AND ISZERO PUSH2 0x2071 JUMPI PUSH16 0xF987A7253AC413176F2B074CF7815E54 MUL PUSH1 0x80 SHR JUMPDEST PUSH2 0x400 DUP3 AND ISZERO PUSH2 0x2091 JUMPI PUSH16 0xF3392B0822B70005940C7A398E4B70F3 MUL PUSH1 0x80 SHR JUMPDEST PUSH2 0x800 DUP3 AND ISZERO PUSH2 0x20B1 JUMPI PUSH16 0xE7159475A2C29B7443B29C7FA6E889D9 MUL PUSH1 0x80 SHR JUMPDEST PUSH2 0x1000 DUP3 AND ISZERO PUSH2 0x20D1 JUMPI PUSH16 0xD097F3BDFD2022B8845AD8F792AA5825 MUL PUSH1 0x80 SHR JUMPDEST PUSH2 0x2000 DUP3 AND ISZERO PUSH2 0x20F1 JUMPI PUSH16 0xA9F746462D870FDF8A65DC1F90E061E5 MUL PUSH1 0x80 SHR JUMPDEST PUSH2 0x4000 DUP3 AND ISZERO PUSH2 0x2111 JUMPI PUSH16 0x70D869A156D2A1B890BB3DF62BAF32F7 MUL PUSH1 0x80 SHR JUMPDEST PUSH2 0x8000 DUP3 AND ISZERO PUSH2 0x2131 JUMPI PUSH16 0x31BE135F97D08FD981231505542FCFA6 MUL PUSH1 0x80 SHR JUMPDEST PUSH3 0x10000 DUP3 AND ISZERO PUSH2 0x2152 JUMPI PUSH16 0x9AA508B5B7A84E1C677DE54F3E99BC9 MUL PUSH1 0x80 SHR JUMPDEST PUSH3 0x20000 DUP3 AND ISZERO PUSH2 0x2172 JUMPI PUSH15 0x5D6AF8DEDB81196699C329225EE604 MUL PUSH1 0x80 SHR JUMPDEST PUSH3 0x40000 DUP3 AND ISZERO PUSH2 0x2191 JUMPI PUSH14 0x2216E584F5FA1EA926041BEDFE98 MUL PUSH1 0x80 SHR JUMPDEST PUSH3 0x80000 DUP3 AND ISZERO PUSH2 0x21AE JUMPI PUSH12 0x48A170391F7DC42444E8FA2 MUL PUSH1 0x80 SHR JUMPDEST PUSH1 0x0 DUP5 PUSH1 0x2 SIGNEXTEND SGT ISZERO PUSH2 0x21C9 JUMPI DUP1 PUSH1 0x0 NOT DUP2 PUSH2 0x21C5 JUMPI INVALID JUMPDEST DIV SWAP1 POP JUMPDEST PUSH1 0x1 PUSH1 0x20 SHL DUP2 MOD ISZERO PUSH2 0x21DC JUMPI PUSH1 0x1 PUSH2 0x21DF JUMP JUMPDEST PUSH1 0x0 JUMPDEST PUSH1 0xFF AND PUSH1 0x20 DUP3 SWAP1 SHR ADD SWAP3 POP POP POP SWAP2 SWAP1 POP JUMP JUMPDEST PUSH1 0x0 DUP1 PUSH1 0x0 PUSH2 0x2200 DUP7 DUP7 PUSH2 0x2449 JUMP JUMPDEST SWAP2 POP SWAP2 POP PUSH1 0x0 DUP5 DUP1 PUSH2 0x220E JUMPI INVALID JUMPDEST DUP7 DUP9 MULMOD SWAP1 POP DUP3 DUP2 GT ISZERO PUSH2 0x2222 JUMPI PUSH1 0x1 DUP3 SUB SWAP2 POP JUMPDEST SWAP2 DUP3 SWAP1 SUB SWAP2 DUP2 PUSH2 0x2240 JUMPI DUP5 DUP4 DUP2 PUSH2 0x2235 JUMPI INVALID JUMPDEST DIV SWAP4 POP POP POP POP PUSH2 0x82B JUMP JUMPDEST DUP5 DUP3 LT PUSH2 0x2294 JUMPI PUSH1 0x40 DUP1 MLOAD PUSH3 0x461BCD PUSH1 0xE5 SHL DUP2 MSTORE PUSH1 0x20 PUSH1 0x4 DUP3 ADD MSTORE PUSH1 0x1A PUSH1 0x24 DUP3 ADD MSTORE PUSH32 0x46756C6C4D6174683A2046554C4C4449565F4F564552464C4F57000000000000 PUSH1 0x44 DUP3 ADD MSTORE SWAP1 MLOAD SWAP1 DUP2 SWAP1 SUB PUSH1 0x64 ADD SWAP1 REVERT JUMPDEST PUSH2 0x229F DUP4 DUP4 DUP8 PUSH2 0x2476 JUMP JUMPDEST SWAP8 SWAP7 POP POP POP POP POP POP POP JUMP JUMPDEST EXTCODESIZE ISZERO ISZERO SWAP1 JUMP JUMPDEST PUSH1 0x0 SLOAD PUSH2 0x100 SWAP1 DIV PUSH1 0xFF AND DUP1 PUSH2 0x22C9 JUMPI POP PUSH2 0x22C9 PUSH2 0x1DA0 JUMP JUMPDEST DUP1 PUSH2 0x22D7 JUMPI POP PUSH1 0x0 SLOAD PUSH1 0xFF AND ISZERO JUMPDEST PUSH2 0x2312 JUMPI PUSH1 0x40 MLOAD PUSH3 0x461BCD PUSH1 0xE5 SHL DUP2 MSTORE PUSH1 0x4 ADD DUP1 DUP1 PUSH1 0x20 ADD DUP3 DUP2 SUB DUP3 MSTORE PUSH1 0x2E DUP2 MSTORE PUSH1 0x20 ADD DUP1 PUSH2 0x2593 PUSH1 0x2E SWAP2 CODECOPY PUSH1 0x40 ADD SWAP2 POP POP PUSH1 0x40 MLOAD DUP1 SWAP2 SUB SWAP1 REVERT JUMPDEST PUSH1 0x0 SLOAD PUSH2 0x100 SWAP1 DIV PUSH1 0xFF AND ISZERO DUP1 ISZERO PUSH2 0x1E4E JUMPI PUSH1 0x0 DUP1 SLOAD PUSH1 0xFF NOT PUSH2 0xFF00 NOT SWAP1 SWAP2 AND PUSH2 0x100 OR AND PUSH1 0x1 OR SWAP1 SSTORE DUP1 ISZERO PUSH2 0x1E60 JUMPI PUSH1 0x0 DUP1 SLOAD PUSH2 0xFF00 NOT AND SWAP1 SSTORE POP JUMP JUMPDEST PUSH1 0x0 SLOAD PUSH2 0x100 SWAP1 DIV PUSH1 0xFF AND DUP1 PUSH2 0x2369 JUMPI POP PUSH2 0x2369 PUSH2 0x1DA0 JUMP JUMPDEST DUP1 PUSH2 0x2377 JUMPI POP PUSH1 0x0 SLOAD PUSH1 0xFF AND ISZERO JUMPDEST PUSH2 0x23B2 JUMPI PUSH1 0x40 MLOAD PUSH3 0x461BCD PUSH1 0xE5 SHL DUP2 MSTORE PUSH1 0x4 ADD DUP1 DUP1 PUSH1 0x20 ADD DUP3 DUP2 SUB DUP3 MSTORE PUSH1 0x2E DUP2 MSTORE PUSH1 0x20 ADD DUP1 PUSH2 0x2593 PUSH1 0x2E SWAP2 CODECOPY PUSH1 0x40 ADD SWAP2 POP POP PUSH1 0x40 MLOAD DUP1 SWAP2 SUB SWAP1 REVERT JUMPDEST PUSH1 0x0 SLOAD PUSH2 0x100 SWAP1 DIV PUSH1 0xFF AND ISZERO DUP1 ISZERO PUSH2 0x23DD JUMPI PUSH1 0x0 DUP1 SLOAD PUSH1 0xFF NOT PUSH2 0xFF00 NOT SWAP1 SWAP2 AND PUSH2 0x100 OR AND PUSH1 0x1 OR SWAP1 SSTORE JUMPDEST PUSH1 0x0 PUSH2 0x23E7 PUSH2 0x1D9C JUMP JUMPDEST PUSH1 0x33 DUP1 SLOAD PUSH1 0x1 PUSH1 0x1 PUSH1 0xA0 SHL SUB NOT AND PUSH1 0x1 PUSH1 0x1 PUSH1 0xA0 SHL SUB DUP4 AND SWAP1 DUP2 OR SWAP1 SWAP2 SSTORE PUSH1 0x40 MLOAD SWAP2 SWAP3 POP SWAP1 PUSH1 0x0 SWAP1 PUSH32 0x8BE0079C531659141344CD1FD0A4F28419497F9722A3DAAFE3B4186F6B6457E0 SWAP1 DUP3 SWAP1 LOG3 POP DUP1 ISZERO PUSH2 0x1E60 JUMPI PUSH1 0x0 DUP1 SLOAD PUSH2 0xFF00 NOT AND SWAP1 SSTORE POP JUMP JUMPDEST PUSH1 0x0 DUP1 DUP1 PUSH1 0x0 NOT DUP5 DUP7 MULMOD SWAP1 POP DUP4 DUP6 MUL SWAP3 POP DUP3 DUP2 SUB SWAP2 POP DUP3 DUP2 LT ISZERO PUSH2 0x246E JUMPI PUSH1 0x1 DUP3 SUB SWAP2 POP JUMPDEST POP SWAP3 POP SWAP3 SWAP1 POP JUMP JUMPDEST PUSH1 0x0 DUP2 DUP2 SUB DUP3 AND DUP1 DUP4 DUP2 PUSH2 0x2486 JUMPI INVALID JUMPDEST DIV SWAP3 POP DUP1 DUP6 DUP2 PUSH2 0x2492 JUMPI INVALID JUMPDEST DIV SWAP5 POP DUP1 DUP2 PUSH1 0x0 SUB DUP2 PUSH2 0x24A1 JUMPI INVALID JUMPDEST PUSH1 0x2 DUP6 DUP2 SUB DUP1 DUP8 MUL DUP3 SUB MUL DUP1 DUP8 MUL DUP3 SUB MUL DUP1 DUP8 MUL DUP3 SUB MUL DUP1 DUP8 MUL DUP3 SUB MUL DUP1 DUP8 MUL DUP3 SUB MUL DUP1 DUP8 MUL DUP3 SUB MUL SWAP6 DUP7 MUL SWAP1 SUB SWAP1 SWAP5 MUL SWAP4 DIV PUSH1 0x1 ADD SWAP4 SWAP1 SWAP4 MUL SWAP4 SWAP1 SWAP4 ADD MUL SWAP3 SWAP2 POP POP JUMP JUMPDEST PUSH1 0x40 DUP1 MLOAD PUSH1 0x80 DUP2 ADD DUP3 MSTORE PUSH1 0x0 DUP1 DUP3 MSTORE PUSH1 0x20 DUP3 ADD DUP2 SWAP1 MSTORE SWAP2 DUP2 ADD DUP3 SWAP1 MSTORE PUSH1 0x60 DUP2 ADD SWAP2 SWAP1 SWAP2 MSTORE SWAP1 JUMP INVALID 0x4F PUSH24 0x6E61626C653A206E6577206F776E65722069732074686520 PUSH27 0x65726F2061646472657373676574436F6C6C61746572616C507269 PUSH4 0x653A2043 PUSH16 0x6C6C61746572616C206E6F7420737570 PUSH17 0x6F727465642E676574436F6C6C61746572 PUSH2 0x6C50 PUSH19 0x6963655F707265633A20436F6C6C6174657261 PUSH13 0x206E6F7420737570706F727465 PUSH5 0x2E496E6974 PUSH10 0x616C697A61626C653A20 PUSH4 0x6F6E7472 PUSH2 0x6374 KECCAK256 PUSH10 0x7320616C726561647920 PUSH10 0x6E697469616C697A6564 PUSH22 0x7064617465496E4F7574526174696F3A206572726F72 KECCAK256 PUSH13 0x61737420757064617465206861 PUSH17 0x70656E656420696E207468652066757475 PUSH19 0x65536166654D6174683A206D756C7469706C69 PUSH4 0x6174696F PUSH15 0x206F766572666C6F774F776E61626C PUSH6 0x3A2063616C6C PUSH6 0x72206973206E PUSH16 0x7420746865206F776E65725F67657443 PUSH16 0x6C6C61746572616C50726963655F7072 PUSH6 0x633A20436F6C PUSH13 0x61746572616C206E6F74207375 PUSH17 0x706F727465642E757064617465496E4F75 PUSH21 0x526174696F3A207468652074696D6520656C617073 PUSH6 0x642069732074 PUSH16 0x6F2073686F72742E5F676574436F6C6C PUSH2 0x7465 PUSH19 0x616C50726963653A20436F6C6C61746572616C KECCAK256 PUSH15 0x6F7420737570706F727465642EA264 PUSH10 0x70667358221220E32F59 DELEGATECALL PUSH1 0xF2 0xE9 ADDMOD 0x26 PUSH19 0x3050C24A4F94C14C1A6D99D6460269BF552F0 SWAP8 0xB5 PUSH7 0x64736F6C634300 MOD 0xC STOP CALLER ",
  "sha1": "25cd9447c7583e697a5f304aca1fa1b85e4400da",
  "source": "\n// SPDX-License-Identifier: MIT\n// To-do: remove for testing purpose functions;\n// To-do: check USDsInOutRatio_prec;\npragma solidity >=0.6.12;\n//pragma experimental ABIEncoderV2;\n\nimport \"@openzeppelin/contracts-upgradeable/proxy/Initializable.sol\";\nimport \"@openzeppelin/contracts-upgradeable/access/OwnableUpgradeable.sol\";\n//import \"../libraries/openzeppelin/OwnableUpgradeable.sol\";\nimport \"@openzeppelin/contracts-upgradeable/math/SafeMathUpgradeable.sol\";\n\nimport \"../vault/VaultCore.sol\";\nimport \"../interfaces/AggregatorV3Interface.sol\";\nimport \"../interfaces/IOracle.sol\";\nimport \"../interfaces/IUSDs.sol\";\n//import \"@uniswap/v3-periphery/contracts/libraries/OracleLibrary.sol\";\nimport \"../libraries/OracleLibrary.sol\";\n\n/**\n * @title Oracle - the oracle contract for Spark\n * @author Sperax Dev Team\n * @notice this contract gets data from UniswapV2 pair and feed these data into the main contact of Spark, i.e. Spark.sol\n * @dev this contract draws insights from \"ExampleOracleSimple.sol\" by UniswapV2 team\n */\n\ncontract Oracle is Initializable, IOracle, OwnableUpgradeable {\n    using SafeMathUpgradeable for uint;\n    uint public override USDsInOutRatio; // USDsInOutRatio is accurate after 24 hours (one iteration)\n    uint32 public constant override USDsInOutRatio_prec = 10**6;\n    uint8 public constant FREQUENCY = 6;\n    uint32 public updateNextIndex;\n    uint32 public lastUpdateTime; // the timstamp of the lastest update\n    uint32 public updatePeriod; // the default updatePeriod of one update is 1 hours\n    uint public constant ETHprice_prec = 10**8;\n    uint public constant SPAprice_prec = 10**18;\n    uint public constant USDsPrice_prec = 10**18;\n    uint32 public movingAvgShortPeriod;\n    uint32 public movingAvgLongPeriod;\n    AggregatorV3Interface priceFeedETH;\n    address public SPAaddr;\n    address public WETH9;\n    address public VaultAddr;\n    address public USDsAddr;\n    address public USDsOraclePool;\n    address public SPAoraclePool;\n    address public SPAoracleBaseTokenAddr;\n    address public USDsOracleBaseTokenAddr;\n\n    event USDsInOutRatioUpdated(\n        uint USDsInOutRatio,\n        uint USDsOnflow_average,\n        uint USDsInflow_average,\n        uint32 timeStamp,\n        uint index\n    );\n    event periodChanged(\n        uint32 updatePeriod,\n        uint32 movingAvgShortPeriod,\n        uint32 movingAvgLongPeriod\n    );\n    event collateralInfoChanged(\n        address _collateralAddr,\n        bool _supported,\n        AggregatorV3Interface _priceFeed,\n        uint _price_prec\n    );\n\n    uint[FREQUENCY+1] public USDsInflow;\n    uint[FREQUENCY+1] public USDsOnflow;\n    mapping (address => collateralStruct) collateralsInfo;\n    struct collateralStruct {\n        address collateralAddr;\n        bool supported;\n        AggregatorV3Interface priceFeed;\n        uint price_prec;\n    }\n\n    //\n    // Initializer\n    //\n    function initialize(address _priceFeedETH, address _SPAaddr, address _WETH9) public initializer {\n        OwnableUpgradeable.__Ownable_init();\n        updatePeriod = 12 hours;\n        lastUpdateTime = uint32(now % 2**32);\n        priceFeedETH = AggregatorV3Interface(_priceFeedETH);\n        SPAaddr = _SPAaddr;\n        WETH9 = _WETH9;\n        movingAvgShortPeriod = 600;\n        movingAvgLongPeriod = 3600;\n    }\n\n    //for testing purpose\n    function updateUSDsAddress(address _USDsAddr) external onlyOwner {\n        USDsAddr = _USDsAddr;\n    }\n\n    function updateVaultAddress(address _VaultAddr) external onlyOwner {\n        VaultAddr = _VaultAddr;\n    }\n\n    function updateOraclePoolsAddress(address _SPAoracleBaseTokenAddr, address _USDsOracleBaseTokenAddr, address _USDsOraclePool, address _SPAoraclePool) external onlyOwner {\n        SPAoracleBaseTokenAddr = _SPAoracleBaseTokenAddr;\n        USDsOracleBaseTokenAddr = _USDsOracleBaseTokenAddr;\n        USDsOraclePool = _USDsOraclePool;\n        SPAoraclePool = _SPAoraclePool;\n    }\n\n\n    function updatePriceMovingAvgPeriod(uint32 _movingAvgShortPeriod, uint32 _movingAvgLongPeriod) external onlyOwner {\n        movingAvgShortPeriod = _movingAvgShortPeriod;\n        movingAvgLongPeriod = _movingAvgLongPeriod;\n    }\n\n    /**\n     * @notice change updatePeriod\n     * @dev the frequency of update always remains the same\n     * @param _updatePeriod new minimal updatePeriod in between two updates\n     * @param _movingAvgShortPeriod new moving average range of SPA and USDs price\n     * @param _movingAvgLongPeriod new moving average range of USDs price on average (used in SwapFeeIn)\n     */\n    function changePeriod(uint32 _updatePeriod, uint32 _movingAvgShortPeriod, uint32 _movingAvgLongPeriod) external onlyOwner {\n        updatePeriod = _updatePeriod;\n        movingAvgShortPeriod =_movingAvgShortPeriod;\n        movingAvgLongPeriod = _movingAvgLongPeriod;\n        emit periodChanged(updatePeriod, movingAvgShortPeriod, movingAvgLongPeriod);\n    }\n\n    function updateCollateralInfo(address _collateralAddr, bool _supported, AggregatorV3Interface _priceFeed, uint _price_prec) external onlyOwner {\n        collateralStruct storage updatedCollateral = collateralsInfo[_collateralAddr];\n        updatedCollateral.collateralAddr = _collateralAddr;\n        updatedCollateral.supported = _supported;\n        updatedCollateral.priceFeed = _priceFeed;\n        updatedCollateral.price_prec = _price_prec;\n        emit collateralInfoChanged(_collateralAddr, _supported, _priceFeed, _price_prec);\n    }\n\n    /**\n     * @notice update the price of token0 to the latest\n     * @dev the price would be updated only once per updatePeriod time\n     * @dev USDsInOutRatio is accurate after 24 hours (one iteration)\n     */\n    function updateInOutRatio() external override {\n        uint32 currTime = uint32(now % 2 ** 32);\n        uint32 timeElapsed = currTime - lastUpdateTime;\n        require(currTime >= lastUpdateTime, \"updateInOutRatio: error last update happened in the future\");\n        require(timeElapsed >= updatePeriod, \"updateInOutRatio: the time elapsed is too short.\");\n        uint32 indexNew = updateNextIndex;\n        uint32 indexOld = (indexNew + 1) % (FREQUENCY + 1);\n        USDsInflow[indexNew] = IUSDs(USDsAddr).totalMinted();\n        USDsOnflow[indexNew] = IUSDs(USDsAddr).totalBurnt();\n        uint USDsInflow_average = USDsInflow[indexNew].sub(USDsInflow[indexOld]);\n        uint USDsOnflow_average = USDsOnflow[indexNew].sub(USDsOnflow[indexOld]);\n        if (USDsInOutRatio == 0) {\n            USDsInOutRatio = USDsInOutRatio_prec;\n        } else {\n            USDsInOutRatio = USDsOnflow_average.mul(USDsInOutRatio_prec).div(USDsInflow_average);\n        }\n        lastUpdateTime = currTime;\n        updateNextIndex = indexOld;\n        emit USDsInOutRatioUpdated(USDsInOutRatio, USDsOnflow_average, USDsInflow_average, lastUpdateTime, indexNew);\n    }\n\n    function getCollateralPrice(address collateralAddr) external view override returns (uint) {\n        collateralStruct memory  collateralInfo = collateralsInfo[collateralAddr];\n        require(collateralInfo.supported, \"getCollateralPrice: Collateral not supported.\");\n        return _getCollateralPrice(collateralAddr);\n    }\n\n    function getETHprice() external view override returns (uint) {\n        return _getETHprice();\n\t}\n\n    function getSPAprice() external view override returns (uint) {\n        uint32 longestSec = OracleLibrary.getOldestObservationSecondsAgo(SPAoraclePool);\n        uint32 period = movingAvgShortPeriod < longestSec ? movingAvgShortPeriod : longestSec;\n        int24 timeWeightedAverageTick = OracleLibrary.consult(SPAoraclePool, period);\n        uint quoteAmount = OracleLibrary.getQuoteAtTick(timeWeightedAverageTick, uint128(SPAprice_prec), SPAaddr, SPAoracleBaseTokenAddr);\n        uint SPAprice = _getETHprice().mul(quoteAmount).div(ETHprice_prec);\n        return SPAprice;\n    }\n\n    function getUSDsPrice() external view override returns (uint) {\n        if (USDsOraclePool == address(0)) {\n            return USDsPrice_prec;\n        }\n        uint32 longestSec = OracleLibrary.getOldestObservationSecondsAgo(USDsOraclePool);\n        uint32 period = movingAvgShortPeriod < longestSec ? movingAvgShortPeriod : longestSec;\n        int24 timeWeightedAverageTick = OracleLibrary.consult(USDsOraclePool, period);\n        uint quoteAmount = OracleLibrary.getQuoteAtTick(timeWeightedAverageTick, uint128(USDsPrice_prec), VaultAddr, USDsOracleBaseTokenAddr);\n        uint USDsPrice = _getCollateralPrice(USDsOracleBaseTokenAddr).mul(quoteAmount).div(_getCollateralPrice_prec(USDsOracleBaseTokenAddr));\n        return USDsPrice;\n    }\n\n    function getUSDsPrice_average() external view override returns (uint) {\n        if (USDsOraclePool == address(0)){\n            return USDsPrice_prec;\n        }\n        uint32 longestSec = OracleLibrary.getOldestObservationSecondsAgo(USDsOraclePool);\n        uint32 period = movingAvgLongPeriod < longestSec ? movingAvgLongPeriod : longestSec;\n        int24 timeWeightedAverageTick = OracleLibrary.consult(USDsOraclePool, period);\n        uint quoteAmount = OracleLibrary.getQuoteAtTick(timeWeightedAverageTick, uint128(USDsPrice_prec), VaultAddr, USDsOracleBaseTokenAddr);\n        uint USDsPrice_average = _getCollateralPrice(USDsOracleBaseTokenAddr).mul(quoteAmount).div(_getCollateralPrice_prec(USDsOracleBaseTokenAddr));\n        return USDsPrice_average;\n    }\n    function getCollateralPrice_prec(address collateralAddr) external view override returns (uint) {\n        collateralStruct memory  collateralInfo = collateralsInfo[collateralAddr];\n        require(collateralInfo.supported, \"getCollateralPrice_prec: Collateral not supported.\");\n        return _getCollateralPrice_prec(collateralAddr);\n    }\n\n    function getETHprice_prec() external view override returns (uint) {\n        return ETHprice_prec;\n    }\n\n    function getSPAprice_prec() external view override returns (uint) {\n        return SPAprice_prec;\n    }\n\n    function getUSDsPrice_prec() external view override returns (uint) {\n        return USDsPrice_prec;\n    }\n\n    function _getCollateralPrice(address collateralAddr) internal view returns (uint) {\n        collateralStruct memory  collateralInfo = collateralsInfo[collateralAddr];\n        require(collateralInfo.supported, \"_getCollateralPrice: Collateral not supported.\");\n        (\n            ,\n            int price,\n            ,\n            ,\n        ) = collateralInfo.priceFeed.latestRoundData();\n        return uint(price);\n    }\n\n\n\tfunction _getETHprice() internal view returns (uint) {\n\t\t(\n            ,\n            int price,\n            ,\n            ,\n\t\t) = priceFeedETH.latestRoundData();\n\t\treturn uint(price);\n\t}\n\n    function _getCollateralPrice_prec(address collateralAddr) internal view returns (uint) {\n        collateralStruct memory  collateralInfo = collateralsInfo[collateralAddr];\n        require(collateralInfo.supported, \"_getCollateralPrice_prec: Collateral not supported.\");\n        return collateralInfo.price_prec;\n\t}\n\n\n}\n",
  "sourcePath": "contracts/oracle/Oracle.sol",
  "type": "contract"
}