{
  "contractName": "Oracle",
  "abi": [
    {
      "inputs": [
        {
          "internalType": "address",
          "name": "pair_",
          "type": "address"
        },
        {
          "internalType": "address",
          "name": "USDsToken_",
          "type": "address"
        }
      ],
      "stateMutability": "nonpayable",
      "type": "constructor"
    },
    {
      "anonymous": false,
      "inputs": [
        {
          "indexed": true,
          "internalType": "address",
          "name": "previousOwner",
          "type": "address"
        },
        {
          "indexed": true,
          "internalType": "address",
          "name": "newOwner",
          "type": "address"
        }
      ],
      "name": "OwnershipTransferred",
      "type": "event"
    },
    {
      "anonymous": false,
      "inputs": [
        {
          "indexed": false,
          "internalType": "uint256",
          "name": "currPriceMA",
          "type": "uint256"
        },
        {
          "indexed": false,
          "internalType": "uint256",
          "name": "currPricetime",
          "type": "uint256"
        }
      ],
      "name": "Update",
      "type": "event"
    },
    {
      "inputs": [],
      "name": "ETHPricePrecision",
      "outputs": [
        {
          "internalType": "uint256",
          "name": "",
          "type": "uint256"
        }
      ],
      "stateMutability": "view",
      "type": "function"
    },
    {
      "inputs": [],
      "name": "FREQUENCY",
      "outputs": [
        {
          "internalType": "uint8",
          "name": "",
          "type": "uint8"
        }
      ],
      "stateMutability": "view",
      "type": "function"
    },
    {
      "inputs": [],
      "name": "SPAPricePrecision",
      "outputs": [
        {
          "internalType": "uint256",
          "name": "",
          "type": "uint256"
        }
      ],
      "stateMutability": "view",
      "type": "function"
    },
    {
      "inputs": [],
      "name": "USDCAddr",
      "outputs": [
        {
          "internalType": "address",
          "name": "",
          "type": "address"
        }
      ],
      "stateMutability": "view",
      "type": "function"
    },
    {
      "inputs": [],
      "name": "USDCPricePrecision",
      "outputs": [
        {
          "internalType": "uint256",
          "name": "",
          "type": "uint256"
        }
      ],
      "stateMutability": "view",
      "type": "function"
    },
    {
      "inputs": [],
      "name": "USDsInOutRatio",
      "outputs": [
        {
          "internalType": "uint256",
          "name": "",
          "type": "uint256"
        }
      ],
      "stateMutability": "view",
      "type": "function"
    },
    {
      "inputs": [],
      "name": "USDsInOutRatioPrecision",
      "outputs": [
        {
          "internalType": "uint256",
          "name": "",
          "type": "uint256"
        }
      ],
      "stateMutability": "view",
      "type": "function"
    },
    {
      "inputs": [
        {
          "internalType": "uint256",
          "name": "",
          "type": "uint256"
        }
      ],
      "name": "USDsInflow",
      "outputs": [
        {
          "internalType": "uint256",
          "name": "",
          "type": "uint256"
        }
      ],
      "stateMutability": "view",
      "type": "function"
    },
    {
      "inputs": [],
      "name": "USDsInstance",
      "outputs": [
        {
          "internalType": "contract USDs",
          "name": "",
          "type": "address"
        }
      ],
      "stateMutability": "view",
      "type": "function"
    },
    {
      "inputs": [
        {
          "internalType": "uint256",
          "name": "",
          "type": "uint256"
        }
      ],
      "name": "USDsOutflow",
      "outputs": [
        {
          "internalType": "uint256",
          "name": "",
          "type": "uint256"
        }
      ],
      "stateMutability": "view",
      "type": "function"
    },
    {
      "inputs": [],
      "name": "USDsPricePrecision",
      "outputs": [
        {
          "internalType": "uint256",
          "name": "",
          "type": "uint256"
        }
      ],
      "stateMutability": "view",
      "type": "function"
    },
    {
      "inputs": [],
      "name": "isOwner",
      "outputs": [
        {
          "internalType": "bool",
          "name": "",
          "type": "bool"
        }
      ],
      "stateMutability": "view",
      "type": "function"
    },
    {
      "inputs": [],
      "name": "lastUpdateTime",
      "outputs": [
        {
          "internalType": "uint32",
          "name": "",
          "type": "uint32"
        }
      ],
      "stateMutability": "view",
      "type": "function"
    },
    {
      "inputs": [],
      "name": "owner",
      "outputs": [
        {
          "internalType": "address",
          "name": "",
          "type": "address"
        }
      ],
      "stateMutability": "view",
      "type": "function"
    },
    {
      "inputs": [],
      "name": "period",
      "outputs": [
        {
          "internalType": "uint32",
          "name": "",
          "type": "uint32"
        }
      ],
      "stateMutability": "view",
      "type": "function"
    },
    {
      "inputs": [],
      "name": "pricetimeOldestIndex",
      "outputs": [
        {
          "internalType": "uint32",
          "name": "",
          "type": "uint32"
        }
      ],
      "stateMutability": "view",
      "type": "function"
    },
    {
      "inputs": [],
      "name": "renounceOwnership",
      "outputs": [],
      "stateMutability": "nonpayable",
      "type": "function"
    },
    {
      "inputs": [],
      "name": "token0PriceMA",
      "outputs": [
        {
          "internalType": "uint256",
          "name": "",
          "type": "uint256"
        }
      ],
      "stateMutability": "view",
      "type": "function"
    },
    {
      "inputs": [
        {
          "internalType": "uint256",
          "name": "",
          "type": "uint256"
        }
      ],
      "name": "token0Pricetimes",
      "outputs": [
        {
          "internalType": "uint32",
          "name": "timestamp",
          "type": "uint32"
        },
        {
          "internalType": "uint256",
          "name": "price0Cumulative",
          "type": "uint256"
        }
      ],
      "stateMutability": "view",
      "type": "function"
    },
    {
      "inputs": [
        {
          "internalType": "address",
          "name": "newOwner",
          "type": "address"
        }
      ],
      "name": "transferOwnership",
      "outputs": [],
      "stateMutability": "nonpayable",
      "type": "function"
    },
    {
      "inputs": [],
      "name": "getPairAddr",
      "outputs": [
        {
          "internalType": "address",
          "name": "",
          "type": "address"
        }
      ],
      "stateMutability": "view",
      "type": "function"
    },
    {
      "inputs": [
        {
          "internalType": "uint32",
          "name": "newPeriod",
          "type": "uint32"
        }
      ],
      "name": "changePeriod",
      "outputs": [],
      "stateMutability": "nonpayable",
      "type": "function"
    },
    {
      "inputs": [],
      "name": "getETHPrice",
      "outputs": [
        {
          "internalType": "int256",
          "name": "",
          "type": "int256"
        }
      ],
      "stateMutability": "view",
      "type": "function"
    },
    {
      "inputs": [],
      "name": "getUSDCPrice",
      "outputs": [
        {
          "internalType": "int256",
          "name": "",
          "type": "int256"
        }
      ],
      "stateMutability": "view",
      "type": "function"
    },
    {
      "inputs": [],
      "name": "getSPAPrice",
      "outputs": [
        {
          "internalType": "int256",
          "name": "",
          "type": "int256"
        }
      ],
      "stateMutability": "view",
      "type": "function"
    },
    {
      "inputs": [],
      "name": "getUSDsPrice",
      "outputs": [
        {
          "internalType": "int256",
          "name": "",
          "type": "int256"
        }
      ],
      "stateMutability": "view",
      "type": "function"
    },
    {
      "inputs": [
        {
          "internalType": "address",
          "name": "tokenAddr",
          "type": "address"
        }
      ],
      "name": "collatPrice",
      "outputs": [
        {
          "internalType": "int256",
          "name": "",
          "type": "int256"
        }
      ],
      "stateMutability": "view",
      "type": "function"
    },
    {
      "inputs": [
        {
          "internalType": "address",
          "name": "tokenAddr",
          "type": "address"
        }
      ],
      "name": "collatPricePrecision",
      "outputs": [
        {
          "internalType": "uint256",
          "name": "",
          "type": "uint256"
        }
      ],
      "stateMutability": "view",
      "type": "function"
    },
    {
      "inputs": [],
      "name": "update",
      "outputs": [],
      "stateMutability": "nonpayable",
      "type": "function"
    }
  ],
  "bytecode": "0x60a0604052610e10603460086101000a81548163ffffffff021916908363ffffffff16021790555073b7a4f3e9097c08da09517b5ab877f7a917224ede603660006101000a81548173ffffffffffffffffffffffffffffffffffffffff021916908373ffffffffffffffffffffffffffffffffffffffff1602179055506305f5e1006037556305f5e100603855670de0b6b3a76400006039557105f5e1000000000000000000000000000000603a5562989680606e55348015620000c257600080fd5b5060405162002e8138038062002e8183398181016040526040811015620000e857600080fd5b81019080805190602001909291908051906020019092919050505062000113620004b660201b60201c565b6000806101000a81548173ffffffffffffffffffffffffffffffffffffffff021916908373ffffffffffffffffffffffffffffffffffffffff16021790555060008054906101000a900473ffffffffffffffffffffffffffffffffffffffff1673ffffffffffffffffffffffffffffffffffffffff16600073ffffffffffffffffffffffffffffffffffffffff167f8be0079c531659141344cd1fd0a4f28419497f9722a3daafe3b4186f6b6457e060405160405180910390a3739326bfa02add2366b30bacb125260af6410313316034600c6101000a81548173ffffffffffffffffffffffffffffffffffffffff021916908373ffffffffffffffffffffffffffffffffffffffff160217905550739211c6b3bf41a10f78539810cf5c64e1bb78ec60603560006101000a81548173ffffffffffffffffffffffffffffffffffffffff021916908373ffffffffffffffffffffffffffffffffffffffff160217905550600064010000000042816200028857fe5b0690508273ffffffffffffffffffffffffffffffffffffffff1660808173ffffffffffffffffffffffffffffffffffffffff1660601b8152505080603460046101000a81548163ffffffff021916908363ffffffff1602179055506000620002fb84620004be60201b6200128a1760201c565b5050905060006201e84890506000607090506000603460089054906101000a900463ffffffff1663ffffffff168284901b0290506000601860ff16820290508284901b60018190555060005b600160180160ff168110156200041a57620003a3826200038f886200037b85886200077560201b620015151790919060201c565b6200080060201b6200159b1790919060201c565b6200088960201b620016231790919060201c565b60028260198110620003b157fe5b600202016001018190555080601860ff1603603460089054906101000a900463ffffffff1602870360028260198110620003e757fe5b6002020160000160006101000a81548163ffffffff021916908363ffffffff160217905550808060010191505062000347565b5086606f60006101000a81548173ffffffffffffffffffffffffffffffffffffffff021916908373ffffffffffffffffffffffffffffffffffffffff16021790555060005b600160180160ff16811015620004a7576000603b82601981106200047f57fe5b01819055506000605482601981106200049457fe5b018190555080806001019150506200045f565b50505050505050505062000ecb565b600033905090565b6000806000620004d3620008db60201b60201c565b90508373ffffffffffffffffffffffffffffffffffffffff16635909c0d56040518163ffffffff1660e01b815260040160206040518083038186803b1580156200051c57600080fd5b505afa15801562000531573d6000803e3d6000fd5b505050506040513d60208110156200054857600080fd5b810190808051906020019092919050505092508373ffffffffffffffffffffffffffffffffffffffff16635a3d54936040518163ffffffff1660e01b815260040160206040518083038186803b158015620005a257600080fd5b505afa158015620005b7573d6000803e3d6000fd5b505050506040513d6020811015620005ce57600080fd5b8101908080519060200190929190505050915060008060008673ffffffffffffffffffffffffffffffffffffffff16630902f1ac6040518163ffffffff1660e01b815260040160606040518083038186803b1580156200062d57600080fd5b505afa15801562000642573d6000803e3d6000fd5b505050506040513d60608110156200065957600080fd5b810190808051906020019092919080519060200190929190805190602001909291905050509250925092508363ffffffff168163ffffffff16146200076b57600081850390508063ffffffff16620006dd846dffffffffffffffffffffffffffff16866dffffffffffffffffffffffffffff16620008f260201b6200166d1760201c565b600001517bffffffffffffffffffffffffffffffffffffffffffffffffffffffff1602870196508063ffffffff1662000742856dffffffffffffffffffffffffffff16856dffffffffffffffffffffffffffff16620008f260201b6200166d1760201c565b600001517bffffffffffffffffffffffffffffffffffffffffffffffffffffffff160286019550505b5050509193909250565b6000808314156200078a5760009050620007fa565b60008284029050828482816200079c57fe5b0414620007f5576040517f08c379a000000000000000000000000000000000000000000000000000000000815260040180806020018281038252602181526020018062002e606021913960400191505060405180910390fd5b809150505b92915050565b6000808284019050838110156200087f576040517f08c379a000000000000000000000000000000000000000000000000000000000815260040180806020018281038252601b8152602001807f536166654d6174683a206164646974696f6e206f766572666c6f77000000000081525060200191505060405180910390fd5b8091505092915050565b6000620008d383836040518060400160405280601e81526020017f536166654d6174683a207375627472616374696f6e206f766572666c6f77000081525062000beb60201b60201c565b905092915050565b60006401000000004281620008ec57fe5b06905090565b620008fc62000e9a565b6000821162000957576040517f08c379a000000000000000000000000000000000000000000000000000000000815260040180806020018281038252602681526020018062002e3a6026913960400191505060405180910390fd5b60008314156200099757604051806020016040528060007bffffffffffffffffffffffffffffffffffffffffffffffffffffffff16815250905062000be5565b7fffffffffffffffffffffffffffffffffffffffffffffffffffffffffffffffff71ffffffffffffffffffffffffffffffffffff16831162000ad457600082607060ff1685901b81620009e657fe5b0490507fffffffffffffffffffffffffffffffffffffffffffffffffffffffffffffffff7bffffffffffffffffffffffffffffffffffffffffffffffffffffffff1681111562000a9e576040517f08c379a000000000000000000000000000000000000000000000000000000000815260040180806020018281038252601e8152602001807f4669786564506f696e743a3a6672616374696f6e3a206f766572666c6f77000081525060200191505060405180910390fd5b6040518060200160405280827bffffffffffffffffffffffffffffffffffffffffffffffffffffffff1681525091505062000be5565b600062000afd846e0100000000000000000000000000008562000caf60201b6200194e1760201c565b90507fffffffffffffffffffffffffffffffffffffffffffffffffffffffffffffffff7bffffffffffffffffffffffffffffffffffffffffffffffffffffffff1681111562000bb4576040517f08c379a000000000000000000000000000000000000000000000000000000000815260040180806020018281038252601e8152602001807f4669786564506f696e743a3a6672616374696f6e3a206f766572666c6f77000081525060200191505060405180910390fd5b6040518060200160405280827bffffffffffffffffffffffffffffffffffffffffffffffffffffffff168152509150505b92915050565b600083831115829062000c9c576040517f08c379a00000000000000000000000000000000000000000000000000000000081526004018080602001828103825283818151815260200191508051906020019080838360005b8381101562000c6057808201518184015260208101905062000c43565b50505050905090810190601f16801562000c8e5780820380516001836020036101000a031916815260200191505b509250505060405180910390fd5b5060008385039050809150509392505050565b600080600062000cc6868662000da560201b60201c565b915091506000848062000cd557fe5b86880990508281111562000cea576001820391505b8083039250600082141562000d0f5784838162000d0357fe5b04935050505062000d9e565b84821062000d85576040517f08c379a000000000000000000000000000000000000000000000000000000000815260040180806020018281038252601a8152602001807f46756c6c4d6174683a2046554c4c4449565f4f564552464c4f5700000000000081525060200191505060405180910390fd5b62000d9883838762000dfa60201b60201c565b93505050505b9392505050565b60008060007fffffffffffffffffffffffffffffffffffffffffffffffffffffffffffffffff8062000dd357fe5b8486099050838502925082810391508281101562000df2576001820391505b509250929050565b600080826000038316905080838162000e0f57fe5b04925080858162000e1c57fe5b049450600181826000038162000e2e57fe5b04018402850194506000600190508084026002038102905080840260020381029050808402600203810290508084026002038102905080840260020381029050808402600203810290508084026002038102905080840260020381029050808602925050509392505050565b604051806020016040528060007bffffffffffffffffffffffffffffffffffffffffffffffffffffffff1681525090565b60805160601c611f4c62000eee600039806106f85280610c515250611f4c6000f3fe608060405234801561001057600080fd5b50600436106101cf5760003560e01c80638da5cb5b11610104578063c36d7497116100a2578063d5b01d4311610071578063d5b01d43146105f0578063ef78d4fd1461060e578063f2fde38b14610632578063fdcd7f4c14610676576101cf565b8063c36d749714610556578063c8f33c9114610574578063caffc2b814610598578063cef4b242146105bc576101cf565b80639fd3d759116100de5780639fd3d759146104cb578063a2e620451461050d578063a607a8d914610517578063c229d75014610535576101cf565b80638da5cb5b1461041f5780638f32d59b146104535780639f1a442e14610473576101cf565b80631f58c441116101715780636c6f18651161014b5780636c6f18651461035d578063715018a61461039f578063743db827146103a95780637d1489fe146103c7576101cf565b80631f58c441146102ed578063298cc9f11461030b5780634ad517bc1461033f576101cf565b80630d4045c6116101ad5780630d4045c61461025f57806312dd85ee1461029357806314564427146102b157806316c4c011146102cf576101cf565b8063067c0bef146101d457806308432eea146102235780630b71f21614610241575b600080fd5b610200600480360360208110156101ea57600080fd5b81019080803590602001909291905050506106aa565b604051808363ffffffff1681526020018281526020019250505060405180910390f35b61022b6106e1565b6040518082815260200191505060405180910390f35b6102496106ee565b6040518082815260200191505060405180910390f35b6102676106f4565b604051808273ffffffffffffffffffffffffffffffffffffffff16815260200191505060405180910390f35b61029b61071c565b6040518082815260200191505060405180910390f35b6102b9610744565b6040518082815260200191505060405180910390f35b6102d761074a565b6040518082815260200191505060405180910390f35b6102f5610750565b6040518082815260200191505060405180910390f35b61033d6004803603602081101561032157600080fd5b81019080803563ffffffff169060200190929190505050610756565b005b6103476107f4565b6040518082815260200191505060405180910390f35b6103896004803603602081101561037357600080fd5b81019080803590602001909291905050506108dd565b6040518082815260200191505060405180910390f35b6103a76108f5565b005b6103b1610a2d565b6040518082815260200191505060405180910390f35b610409600480360360208110156103dd57600080fd5b81019080803573ffffffffffffffffffffffffffffffffffffffff169060200190929190505050610a33565b6040518082815260200191505060405180910390f35b610427610a9b565b604051808273ffffffffffffffffffffffffffffffffffffffff16815260200191505060405180910390f35b61045b610ac4565b60405180821515815260200191505060405180910390f35b6104b56004803603602081101561048957600080fd5b81019080803573ffffffffffffffffffffffffffffffffffffffff169060200190929190505050610b22565b6040518082815260200191505060405180910390f35b6104f7600480360360208110156104e157600080fd5b8101908080359060200190929190505050610b8f565b6040518082815260200191505060405180910390f35b610515610ba7565b005b61051f61107c565b6040518082815260200191505060405180910390f35b61053d611165565b604051808260ff16815260200191505060405180910390f35b61055e61116a565b6040518082815260200191505060405180910390f35b61057c611170565b604051808263ffffffff16815260200191505060405180910390f35b6105a0611186565b604051808263ffffffff16815260200191505060405180910390f35b6105c461119c565b604051808273ffffffffffffffffffffffffffffffffffffffff16815260200191505060405180910390f35b6105f86111c2565b6040518082815260200191505060405180910390f35b6106166111c8565b604051808263ffffffff16815260200191505060405180910390f35b6106746004803603602081101561064857600080fd5b81019080803573ffffffffffffffffffffffffffffffffffffffff1690602001909291905050506111de565b005b61067e611264565b604051808273ffffffffffffffffffffffffffffffffffffffff16815260200191505060405180910390f35b600281601981106106b757fe5b600202016000915090508060000160009054906101000a900463ffffffff16908060010154905082565b6000603954600102905090565b606d5481565b60007f0000000000000000000000000000000000000000000000000000000000000000905090565b60008061072761107c565b905061073e8160015461151590919063ffffffff16565b91505090565b60385481565b60015481565b606e5481565b61075e610ac4565b6107d0576040517f08c379a00000000000000000000000000000000000000000000000000000000081526004018080602001828103825260208152602001807f4f776e61626c653a2063616c6c6572206973206e6f7420746865206f776e657281525060200191505060405180910390fd5b80603460086101000a81548163ffffffff021916908363ffffffff16021790555050565b600080600080600080603560009054906101000a900473ffffffffffffffffffffffffffffffffffffffff1673ffffffffffffffffffffffffffffffffffffffff1663feaf968c6040518163ffffffff1660e01b815260040160a06040518083038186803b15801561086557600080fd5b505afa158015610879573d6000803e3d6000fd5b505050506040513d60a081101561088f57600080fd5b81019080805190602001909291908051906020019092919080519060200190929190805190602001909291908051906020019092919050505094509450945094509450839550505050505090565b603b81601981106108ea57fe5b016000915090505481565b6108fd610ac4565b61096f576040517f08c379a00000000000000000000000000000000000000000000000000000000081526004018080602001828103825260208152602001807f4f776e61626c653a2063616c6c6572206973206e6f7420746865206f776e657281525060200191505060405180910390fd5b600073ffffffffffffffffffffffffffffffffffffffff1660008054906101000a900473ffffffffffffffffffffffffffffffffffffffff1673ffffffffffffffffffffffffffffffffffffffff167f8be0079c531659141344cd1fd0a4f28419497f9722a3daafe3b4186f6b6457e060405160405180910390a360008060006101000a81548173ffffffffffffffffffffffffffffffffffffffff021916908373ffffffffffffffffffffffffffffffffffffffff160217905550565b603a5481565b6000603660009054906101000a900473ffffffffffffffffffffffffffffffffffffffff1673ffffffffffffffffffffffffffffffffffffffff168273ffffffffffffffffffffffffffffffffffffffff161415610a95576038549050610a96565b5b919050565b60008060009054906101000a900473ffffffffffffffffffffffffffffffffffffffff16905090565b60008060009054906101000a900473ffffffffffffffffffffffffffffffffffffffff1673ffffffffffffffffffffffffffffffffffffffff16610b06611a2e565b73ffffffffffffffffffffffffffffffffffffffff1614905090565b6000603660009054906101000a900473ffffffffffffffffffffffffffffffffffffffff1673ffffffffffffffffffffffffffffffffffffffff168273ffffffffffffffffffffffffffffffffffffffff161415610b8957610b826107f4565b9050610b8a565b5b919050565b60548160198110610b9c57fe5b016000915090505481565b60006401000000004281610bb757fe5b0690506000603460049054906101000a900463ffffffff1682039050603460089054906101000a900463ffffffff1663ffffffff168163ffffffff161015610c4a576040517f08c379a0000000000000000000000000000000000000000000000000000000008152600401808060200182810382526029815260200180611e816029913960400191505060405180910390fd5b6000610c757f000000000000000000000000000000000000000000000000000000000000000061128a565b505090506000603460009054906101000a900463ffffffff1690506000600160180160ff166001830163ffffffff1681610cab57fe5b0690508260028363ffffffff1660198110610cc257fe5b60020201600101819055508460028363ffffffff1660198110610ce157fe5b6002020160000160006101000a81548163ffffffff021916908363ffffffff160217905550600060028263ffffffff1660198110610d1b57fe5b6002020160000160009054906101000a900463ffffffff1660028463ffffffff1660198110610d4657fe5b6002020160000160009054906101000a900463ffffffff160363ffffffff169050610dc081610db260028563ffffffff1660198110610d8157fe5b600202016001015460028763ffffffff1660198110610d9c57fe5b600202016001015461162390919063ffffffff16565b611a3690919063ffffffff16565b60018190555085603460046101000a81548163ffffffff021916908363ffffffff16021790555081603460006101000a81548163ffffffff021916908363ffffffff1602179055507f8ecf343d22d1934aea3fb34b7332371552b19286c5bc696adae16c7690a90d5460015485604051808381526020018281526020019250505060405180910390a1606f60009054906101000a900473ffffffffffffffffffffffffffffffffffffffff1673ffffffffffffffffffffffffffffffffffffffff1663736bf5916040518163ffffffff1660e01b815260040160206040518083038186803b158015610eb157600080fd5b505afa158015610ec5573d6000803e3d6000fd5b505050506040513d6020811015610edb57600080fd5b8101908080519060200190929190505050603b8463ffffffff1660198110610eff57fe5b0181905550606f60009054906101000a900473ffffffffffffffffffffffffffffffffffffffff1673ffffffffffffffffffffffffffffffffffffffff16630abddbe76040518163ffffffff1660e01b815260040160206040518083038186803b158015610f6c57600080fd5b505afa158015610f80573d6000803e3d6000fd5b505050506040513d6020811015610f9657600080fd5b810190808051906020019092919050505060548463ffffffff1660198110610fba57fe5b01819055506000610ffc603b8463ffffffff1660198110610fd757fe5b0154603b8663ffffffff1660198110610fec57fe5b015461162390919063ffffffff16565b9050600061103b60548563ffffffff166019811061101657fe5b015460548763ffffffff166019811061102b57fe5b015461162390919063ffffffff16565b90506000606d54141561105657606e54606d81905550611072565b61106b606d5482611a3690919063ffffffff16565b606d819055505b5050505050505050565b6000806000806000806034600c9054906101000a900473ffffffffffffffffffffffffffffffffffffffff1673ffffffffffffffffffffffffffffffffffffffff1663feaf968c6040518163ffffffff1660e01b815260040160a06040518083038186803b1580156110ed57600080fd5b505afa158015611101573d6000803e3d6000fd5b505050506040513d60a081101561111757600080fd5b81019080805190602001909291908051906020019092919080519060200190929190805190602001909291908051906020019092919050505094509450945094509450839550505050505090565b601881565b60395481565b603460049054906101000a900463ffffffff1681565b603460009054906101000a900463ffffffff1681565b606f60009054906101000a900473ffffffffffffffffffffffffffffffffffffffff1681565b60375481565b603460089054906101000a900463ffffffff1681565b6111e6610ac4565b611258576040517f08c379a00000000000000000000000000000000000000000000000000000000081526004018080602001828103825260208152602001807f4f776e61626c653a2063616c6c6572206973206e6f7420746865206f776e657281525060200191505060405180910390fd5b61126181611a80565b50565b603660009054906101000a900473ffffffffffffffffffffffffffffffffffffffff1681565b6000806000611297611bc3565b90508373ffffffffffffffffffffffffffffffffffffffff16635909c0d56040518163ffffffff1660e01b815260040160206040518083038186803b1580156112df57600080fd5b505afa1580156112f3573d6000803e3d6000fd5b505050506040513d602081101561130957600080fd5b810190808051906020019092919050505092508373ffffffffffffffffffffffffffffffffffffffff16635a3d54936040518163ffffffff1660e01b815260040160206040518083038186803b15801561136257600080fd5b505afa158015611376573d6000803e3d6000fd5b505050506040513d602081101561138c57600080fd5b8101908080519060200190929190505050915060008060008673ffffffffffffffffffffffffffffffffffffffff16630902f1ac6040518163ffffffff1660e01b815260040160606040518083038186803b1580156113ea57600080fd5b505afa1580156113fe573d6000803e3d6000fd5b505050506040513d606081101561141457600080fd5b810190808051906020019092919080519060200190929190805190602001909291905050509250925092508363ffffffff168163ffffffff161461150b57600081850390508063ffffffff1661148a846dffffffffffffffffffffffffffff16866dffffffffffffffffffffffffffff1661166d565b600001517bffffffffffffffffffffffffffffffffffffffffffffffffffffffff1602870196508063ffffffff166114e2856dffffffffffffffffffffffffffff16856dffffffffffffffffffffffffffff1661166d565b600001517bffffffffffffffffffffffffffffffffffffffffffffffffffffffff160286019550505b5050509193909250565b6000808314156115285760009050611595565b600082840290508284828161153957fe5b0414611590576040517f08c379a0000000000000000000000000000000000000000000000000000000008152600401808060200182810382526021815260200180611ef66021913960400191505060405180910390fd5b809150505b92915050565b600080828401905083811015611619576040517f08c379a000000000000000000000000000000000000000000000000000000000815260040180806020018281038252601b8152602001807f536166654d6174683a206164646974696f6e206f766572666c6f77000000000081525060200191505060405180910390fd5b8091505092915050565b600061166583836040518060400160405280601e81526020017f536166654d6174683a207375627472616374696f6e206f766572666c6f770000815250611bd9565b905092915050565b611675611e4f565b600082116116ce576040517f08c379a0000000000000000000000000000000000000000000000000000000008152600401808060200182810382526026815260200180611ed06026913960400191505060405180910390fd5b600083141561170c57604051806020016040528060007bffffffffffffffffffffffffffffffffffffffffffffffffffffffff168152509050611948565b7fffffffffffffffffffffffffffffffffffffffffffffffffffffffffffffffff71ffffffffffffffffffffffffffffffffffff16831161184557600082607060ff1685901b8161175957fe5b0490507fffffffffffffffffffffffffffffffffffffffffffffffffffffffffffffffff7bffffffffffffffffffffffffffffffffffffffffffffffffffffffff16811115611810576040517f08c379a000000000000000000000000000000000000000000000000000000000815260040180806020018281038252601e8152602001807f4669786564506f696e743a3a6672616374696f6e3a206f766572666c6f77000081525060200191505060405180910390fd5b6040518060200160405280827bffffffffffffffffffffffffffffffffffffffffffffffffffffffff16815250915050611948565b6000611861846e0100000000000000000000000000008561194e565b90507fffffffffffffffffffffffffffffffffffffffffffffffffffffffffffffffff7bffffffffffffffffffffffffffffffffffffffffffffffffffffffff16811115611917576040517f08c379a000000000000000000000000000000000000000000000000000000000815260040180806020018281038252601e8152602001807f4669786564506f696e743a3a6672616374696f6e3a206f766572666c6f77000081525060200191505060405180910390fd5b6040518060200160405280827bffffffffffffffffffffffffffffffffffffffffffffffffffffffff168152509150505b92915050565b600080600061195d8686611c99565b915091506000848061196b57fe5b86880990508281111561197f576001820391505b808303925060008214156119a15784838161199657fe5b049350505050611a27565b848210611a16576040517f08c379a000000000000000000000000000000000000000000000000000000000815260040180806020018281038252601a8152602001807f46756c6c4d6174683a2046554c4c4449565f4f564552464c4f5700000000000081525060200191505060405180910390fd5b611a21838387611cec565b93505050505b9392505050565b600033905090565b6000611a7883836040518060400160405280601a81526020017f536166654d6174683a206469766973696f6e206279207a65726f000000000000815250611d89565b905092915050565b600073ffffffffffffffffffffffffffffffffffffffff168173ffffffffffffffffffffffffffffffffffffffff161415611b06576040517f08c379a0000000000000000000000000000000000000000000000000000000008152600401808060200182810382526026815260200180611eaa6026913960400191505060405180910390fd5b8073ffffffffffffffffffffffffffffffffffffffff1660008054906101000a900473ffffffffffffffffffffffffffffffffffffffff1673ffffffffffffffffffffffffffffffffffffffff167f8be0079c531659141344cd1fd0a4f28419497f9722a3daafe3b4186f6b6457e060405160405180910390a3806000806101000a81548173ffffffffffffffffffffffffffffffffffffffff021916908373ffffffffffffffffffffffffffffffffffffffff16021790555050565b60006401000000004281611bd357fe5b06905090565b6000838311158290611c86576040517f08c379a00000000000000000000000000000000000000000000000000000000081526004018080602001828103825283818151815260200191508051906020019080838360005b83811015611c4b578082015181840152602081019050611c30565b50505050905090810190601f168015611c785780820380516001836020036101000a031916815260200191505b509250505060405180910390fd5b5060008385039050809150509392505050565b60008060007fffffffffffffffffffffffffffffffffffffffffffffffffffffffffffffffff80611cc657fe5b84860990508385029250828103915082811015611ce4576001820391505b509250929050565b6000808260000383169050808381611d0057fe5b049250808581611d0c57fe5b0494506001818260000381611d1d57fe5b04018402850194506000600190508084026002038102905080840260020381029050808402600203810290508084026002038102905080840260020381029050808402600203810290508084026002038102905080840260020381029050808602925050509392505050565b60008083118290611e35576040517f08c379a00000000000000000000000000000000000000000000000000000000081526004018080602001828103825283818151815260200191508051906020019080838360005b83811015611dfa578082015181840152602081019050611ddf565b50505050905090810190601f168015611e275780820380516001836020036101000a031916815260200191505b509250505060405180910390fd5b506000838581611e4157fe5b049050809150509392505050565b604051806020016040528060007bffffffffffffffffffffffffffffffffffffffffffffffffffffffff168152509056fe7570646174652829203a207468652074696d6520656c617073656420697320746f6f2073686f72742e4f776e61626c653a206e6577206f776e657220697320746865207a65726f20616464726573734669786564506f696e743a3a6672616374696f6e3a206469766973696f6e206279207a65726f536166654d6174683a206d756c7469706c69636174696f6e206f766572666c6f77a2646970667358221220b057c34aaac47b8b180086a07416784f3c03aefa505cd54a7d6c281f9824db7d64736f6c634300060c00334669786564506f696e743a3a6672616374696f6e3a206469766973696f6e206279207a65726f536166654d6174683a206d756c7469706c69636174696f6e206f766572666c6f77",
  "immutableReferences": {
    "5596": [
      {
        "length": 32,
        "start": 1784
      },
      {
        "length": 32,
        "start": 3153
      }
    ]
  },
  "source": "// Note: 00000000000000000000000006ee09ff6f4c83eab024173f5507515b0f810db0\npragma solidity ^0.6.12;\n\nimport { USDs } from \"../token/USDs.sol\";\nimport \"../interfaces/AggregatorV3Interface.sol\";\nimport \"../libraries/Ownable.sol\";\nimport \"../interfaces/IOracle.sol\";\nimport \"../interfaces/IUniswapV2Pair.sol\";\nimport \"../libraries/UniswapV2OracleLibrary.sol\";\nimport \"../libraries/SafeERC20.sol\";\n\n/**\n * @title Oracle - the oracle contract for Spark\n * @author Sperax Dev Team\n * @notice this contract gets data from UniswapV2 pair and feed these data into the main contact of Spark, i.e. Spark.sol\n * @dev this contract draws insights from \"ExampleOracleSimple.sol\" by UniswapV2 team\n */\n\ncontract Oracle is IOracle, Ownable {\n    using SafeMath for *;\n\n    event Update(uint currPriceMA, uint currPricetime);\n\n    struct token0Pricetime {\n       uint32 timestamp;\n       uint price0Cumulative;\n    }\n\n\n    //\n    // Constants & Immutables\n    //\n    uint8 public constant FREQUENCY = 24;\n    IUniswapV2Pair private immutable _pair;\n\n    //\n    // Core State Variables\n    //\n    // the moving average price of token0 denominated in token1\n    // frequency = 24, default period = 1 hours ==> default timespan is 1 days\n    uint public override token0PriceMA;\n\n    //\n    // Auxilliary State Variables\n    //\n    // the per-period cumulative pricetimes, i.e. the UniswapV2 price*time values, of token0\n    token0Pricetime[FREQUENCY+1] public token0Pricetimes;\n    uint32 public pricetimeOldestIndex;\n    // the timstamp of the lastest price update\n    uint32 public override lastUpdateTime;\n    // the default period of one price update is 1 hours\n    uint32 public override period = 1 hours;\n\tAggregatorV3Interface priceFeedETH;\n\tAggregatorV3Interface priceFeedUSDC;\n\n\taddress public USDCAddr = 0xb7a4F3E9097C08dA09517b5aB877F7a917224ede;\n\n    uint public override ETHPricePrecision = 10**8;\n    uint public USDCPricePrecision = 10**8;\n    uint public override USDsPricePrecision = 10**18;\n    uint public override SPAPricePrecision = 10**8 * 2**112;\n\n    //  For swap fee:\n    uint[FREQUENCY+1] public USDsInflow;\n    uint[FREQUENCY+1] public USDsOutflow;\n    uint public override USDsInOutRatio;\n    uint public override USDsInOutRatioPrecision = 10000000;\n    USDs public USDsInstance;\n\n\n\n    //\n    // Constructor\n    //\n    constructor(address pair_, address USDsToken_) public {\n\t\tpriceFeedETH = AggregatorV3Interface(0x9326BFA02ADD2366b30bacB125260Af641031331);\n        priceFeedUSDC = AggregatorV3Interface(0x9211c6b3BF41A10F78539810Cf5c64e1BB78Ec60);\n        uint32 constructTime = uint32(now % 2 ** 32);\n        _pair = IUniswapV2Pair(pair_);\n        lastUpdateTime = constructTime;\n\n        // obtain the cumulative pricetime from uniswapv2 pair deployment to now\n        (uint pricetimeCorrection, , ) = UniswapV2OracleLibrary.currentCumulativePrices(pair_);\n\n        // set up initial conditions\n        // assume that 1 ETH = 2500 USD, 1 SPA = 0.02 USD, so 1 ETH = 125,000 SPA\n        uint iniToken0Price = 125000;\n        uint resolution = 112;\n        uint unitPricetime = (iniToken0Price << resolution) * period;\n        uint basePricetime = unitPricetime * FREQUENCY;\n\n        // simulate the pricetimes of the past 7 days, including necessary correction\n        token0PriceMA = iniToken0Price << resolution;\n        for (uint i = 0; i < (FREQUENCY+1); i++) {\n            token0Pricetimes[i].price0Cumulative = unitPricetime\n                                                   .mul(i)\n                                                   .add(pricetimeCorrection)\n                                                   .sub(basePricetime);\n            token0Pricetimes[i].timestamp = constructTime - period * uint32(FREQUENCY - i);\n        }\n        USDsInstance = USDs(USDsToken_);\n\n        for (uint i = 0; i < (FREQUENCY+1); i++) {\n            USDsInflow[i] = 0;\n            USDsOutflow[i] = 0;\n        }\n\n    }\n\n    //\n    // Getter Function\n    //\n    /**\n     * @notice get the address of the token pair pool\n     * @return the pair pool address\n     */\n    function getPairAddr() external view returns (address) {\n        return address(_pair);\n    }\n\n    //\n    // Owner Only Function: changePeriod\n    //\n\n    /**\n     * @notice change updating period\n     * @dev the frequency of update always remains the same\n     * @param newPeriod new minimal period in between two updates\n     */\n    function changePeriod(uint32 newPeriod) external onlyOwner {\n        period = newPeriod;\n    }\n\n\n    //\n    // Core Functions\n    //\n\n\tfunction getETHPrice() public view returns (int) {\n\t\t(\n\t\t\tuint80 roundID,\n\t\t\tint price,\n\t\t\tuint startedAt,\n\t\t\tuint timeStamp,\n\t\t\tuint80 answeredInRound\n\t\t) = priceFeedETH.latestRoundData();\n\t\treturn price;\n\t}\n\tfunction getUSDCPrice() public view returns (int) {\n\t\t(\n\t\t\tuint80 roundID,\n\t\t\tint price,\n\t\t\tuint startedAt,\n\t\t\tuint timeStamp,\n\t\t\tuint80 answeredInRound\n\t\t) = priceFeedUSDC.latestRoundData();\n\t\treturn price;\n\t}\n\n\tfunction getSPAPrice() public view override returns (int) {\n\t\tint ETHPrice = getETHPrice();\n\t\treturn int(token0PriceMA.mul(uint(ETHPrice)));\n\t}\n\n    function getUSDsPrice() public view override returns (int) {\n\t\treturn int(1 * USDsPricePrecision);\n\t}\n\n\tfunction collatPrice(address tokenAddr) public view override returns (int) {\n\t\tif (tokenAddr == USDCAddr) {\n\t\t\treturn getUSDCPrice();\n\t\t}\n\t}\n\n    function collatPricePrecision(address tokenAddr) public view override returns (uint) {\n\t\tif (tokenAddr == USDCAddr) {\n\t\t\treturn USDCPricePrecision;\n\t\t}\n\t}\n\n\n    /**\n     * @notice update the price of token0 to the latest\n     * @dev the price would be updated only once per period time\n     */\n    function update() external override {\n        // check if enough time has elapsed for a new update\n        uint32 currTime = uint32(now % 2 ** 32);\n        uint32 timeElapsed = currTime - lastUpdateTime;\n        require(timeElapsed >= period, \"update() : the time elapsed is too short.\");\n\n\n        // query the lastest pricetime\n        (uint price0Cumulative, , ) = UniswapV2OracleLibrary.currentCumulativePrices(address(_pair));\n\n        // update the past-7-day pricetime array and record\n        uint32 indexNew = pricetimeOldestIndex;\n        uint32 indexOld = (indexNew + 1) % (FREQUENCY+1);\n        token0Pricetimes[indexNew].price0Cumulative = price0Cumulative;\n        token0Pricetimes[indexNew].timestamp = currTime;\n\n        // calculate the new moving average price of token0\n        uint timeElapsedMA =\n            uint(token0Pricetimes[indexNew].timestamp - token0Pricetimes[indexOld].timestamp); // notice: overflow is preferred\n        token0PriceMA = token0Pricetimes[indexNew].price0Cumulative\n                         .sub(token0Pricetimes[indexOld].price0Cumulative)\n                         .div(timeElapsedMA);\n\n        // update global status\n        lastUpdateTime = currTime;\n        pricetimeOldestIndex = indexOld;\n        emit Update(token0PriceMA, price0Cumulative);\n\n        USDsInflow[indexNew] = USDsInstance._totalMinted();\n        USDsOutflow[indexNew] = USDsInstance._totalBurnt();\n\n        uint USDsInflowOneDay = USDsInflow[indexNew].sub(USDsInflow[indexOld]);\n        uint USDsOutflowOneDay = USDsOutflow[indexNew].sub(USDsOutflow[indexOld]);\n        if (USDsInOutRatio == 0) {\n            USDsInOutRatio = USDsInOutRatioPrecision;\n        } else {\n            USDsInOutRatio = USDsOutflowOneDay.div(USDsInOutRatio);\n        }\n\n    }\n}\n",
  "sourcePath": "/Users/daweizhao/Documents/Sperax/USDs/USDs github/USDs/contracts/oracle/Oracle.sol",
  "compiler": {
    "name": "solc",
    "version": "0.6.12+commit.27d51765.Emscripten.clang"
  },
  "schemaVersion": "3.3.4",
  "updatedAt": "2021-07-11T23:56:44.390Z",
  "networkType": "ethereum",
  "devdoc": {
    "author": "Sperax Dev Team",
    "details": "this contract draws insights from \"ExampleOracleSimple.sol\" by UniswapV2 team",
    "kind": "dev",
    "methods": {
      "changePeriod(uint32)": {
        "details": "the frequency of update always remains the same",
        "params": {
          "newPeriod": "new minimal period in between two updates"
        }
      },
      "getPairAddr()": {
        "returns": {
          "_0": "the pair pool address"
        }
      },
      "isOwner()": {
        "details": "Returns true if the caller is the current owner."
      },
      "owner()": {
        "details": "Returns the address of the current owner."
      },
      "renounceOwnership()": {
        "details": "Leaves the contract without owner. It will not be possible to call `onlyOwner` functions anymore. Can only be called by the current owner. NOTE: Renouncing ownership will leave the contract without an owner, thereby removing any functionality that is only available to the owner."
      },
      "transferOwnership(address)": {
        "details": "Transfers ownership of the contract to a new account (`newOwner`). Can only be called by the current owner."
      },
      "update()": {
        "details": "the price would be updated only once per period time"
      }
    },
    "title": "Oracle - the oracle contract for Spark",
    "version": 1
  },
  "userdoc": {
    "kind": "user",
    "methods": {
      "changePeriod(uint32)": {
        "notice": "change updating period"
      },
      "getPairAddr()": {
        "notice": "get the address of the token pair pool"
      },
      "update()": {
        "notice": "update the price of token0 to the latest"
      }
    },
    "notice": "this contract gets data from UniswapV2 pair and feed these data into the main contact of Spark, i.e. Spark.sol",
    "version": 1
  }
}