{
  "contractName": "Oracle",
  "abi": [
    {
      "anonymous": false,
      "inputs": [
        {
          "indexed": true,
          "internalType": "address",
          "name": "previousOwner",
          "type": "address"
        },
        {
          "indexed": true,
          "internalType": "address",
          "name": "newOwner",
          "type": "address"
        }
      ],
      "name": "OwnershipTransferred",
      "type": "event"
    },
    {
      "anonymous": false,
      "inputs": [
        {
          "indexed": true,
          "internalType": "uint256",
          "name": "oldPeriod",
          "type": "uint256"
        },
        {
          "indexed": true,
          "internalType": "uint256",
          "name": "newPeriod",
          "type": "uint256"
        },
        {
          "indexed": false,
          "internalType": "uint256",
          "name": "timestamp",
          "type": "uint256"
        }
      ],
      "name": "PeriodUpdated",
      "type": "event"
    },
    {
      "anonymous": false,
      "inputs": [
        {
          "indexed": true,
          "internalType": "address",
          "name": "token",
          "type": "address"
        },
        {
          "indexed": true,
          "internalType": "address",
          "name": "aggregator",
          "type": "address"
        },
        {
          "indexed": false,
          "internalType": "uint256",
          "name": "precision",
          "type": "uint256"
        }
      ],
      "name": "PriceListUpdated",
      "type": "event"
    },
    {
      "anonymous": false,
      "inputs": [
        {
          "indexed": false,
          "internalType": "uint256",
          "name": "currPriceMA",
          "type": "uint256"
        },
        {
          "indexed": false,
          "internalType": "uint256",
          "name": "currPricetime",
          "type": "uint256"
        }
      ],
      "name": "Update",
      "type": "event"
    },
    {
      "inputs": [],
      "name": "ETHPricePrecision",
      "outputs": [
        {
          "internalType": "uint256",
          "name": "",
          "type": "uint256"
        }
      ],
      "stateMutability": "view",
      "type": "function",
      "constant": true
    },
    {
      "inputs": [],
      "name": "FREQUENCY",
      "outputs": [
        {
          "internalType": "uint8",
          "name": "",
          "type": "uint8"
        }
      ],
      "stateMutability": "view",
      "type": "function",
      "constant": true
    },
    {
      "inputs": [],
      "name": "SPAPricePrecision",
      "outputs": [
        {
          "internalType": "uint256",
          "name": "",
          "type": "uint256"
        }
      ],
      "stateMutability": "view",
      "type": "function",
      "constant": true
    },
    {
      "inputs": [],
      "name": "USDsInOutRatio",
      "outputs": [
        {
          "internalType": "uint256",
          "name": "",
          "type": "uint256"
        }
      ],
      "stateMutability": "view",
      "type": "function",
      "constant": true
    },
    {
      "inputs": [],
      "name": "USDsInOutRatioPrecision",
      "outputs": [
        {
          "internalType": "uint256",
          "name": "",
          "type": "uint256"
        }
      ],
      "stateMutability": "view",
      "type": "function",
      "constant": true
    },
    {
      "inputs": [
        {
          "internalType": "uint256",
          "name": "",
          "type": "uint256"
        }
      ],
      "name": "USDsInflow",
      "outputs": [
        {
          "internalType": "uint256",
          "name": "",
          "type": "uint256"
        }
      ],
      "stateMutability": "view",
      "type": "function",
      "constant": true
    },
    {
      "inputs": [],
      "name": "USDsInstance",
      "outputs": [
        {
          "internalType": "contract USDs",
          "name": "",
          "type": "address"
        }
      ],
      "stateMutability": "view",
      "type": "function",
      "constant": true
    },
    {
      "inputs": [
        {
          "internalType": "uint256",
          "name": "",
          "type": "uint256"
        }
      ],
      "name": "USDsOutflow",
      "outputs": [
        {
          "internalType": "uint256",
          "name": "",
          "type": "uint256"
        }
      ],
      "stateMutability": "view",
      "type": "function",
      "constant": true
    },
    {
      "inputs": [],
      "name": "USDsPricePrecision",
      "outputs": [
        {
          "internalType": "uint256",
          "name": "",
          "type": "uint256"
        }
      ],
      "stateMutability": "view",
      "type": "function",
      "constant": true
    },
    {
      "inputs": [],
      "name": "lastUpdateTime",
      "outputs": [
        {
          "internalType": "uint32",
          "name": "",
          "type": "uint32"
        }
      ],
      "stateMutability": "view",
      "type": "function",
      "constant": true
    },
    {
      "inputs": [],
      "name": "owner",
      "outputs": [
        {
          "internalType": "address",
          "name": "",
          "type": "address"
        }
      ],
      "stateMutability": "view",
      "type": "function",
      "constant": true
    },
    {
      "inputs": [],
      "name": "period",
      "outputs": [
        {
          "internalType": "uint32",
          "name": "",
          "type": "uint32"
        }
      ],
      "stateMutability": "view",
      "type": "function",
      "constant": true
    },
    {
      "inputs": [
        {
          "internalType": "address",
          "name": "",
          "type": "address"
        }
      ],
      "name": "priceFeeds",
      "outputs": [
        {
          "internalType": "contract AggregatorV3Interface",
          "name": "",
          "type": "address"
        }
      ],
      "stateMutability": "view",
      "type": "function",
      "constant": true
    },
    {
      "inputs": [
        {
          "internalType": "address",
          "name": "",
          "type": "address"
        }
      ],
      "name": "pricePrecisions",
      "outputs": [
        {
          "internalType": "uint256",
          "name": "",
          "type": "uint256"
        }
      ],
      "stateMutability": "view",
      "type": "function",
      "constant": true
    },
    {
      "inputs": [],
      "name": "pricetimeOldestIndex",
      "outputs": [
        {
          "internalType": "uint32",
          "name": "",
          "type": "uint32"
        }
      ],
      "stateMutability": "view",
      "type": "function",
      "constant": true
    },
    {
      "inputs": [],
      "name": "renounceOwnership",
      "outputs": [],
      "stateMutability": "nonpayable",
      "type": "function"
    },
    {
      "inputs": [],
      "name": "token0PriceMA",
      "outputs": [
        {
          "internalType": "uint256",
          "name": "",
          "type": "uint256"
        }
      ],
      "stateMutability": "view",
      "type": "function",
      "constant": true
    },
    {
      "inputs": [
        {
          "internalType": "uint256",
          "name": "",
          "type": "uint256"
        }
      ],
      "name": "token0Pricetimes",
      "outputs": [
        {
          "internalType": "uint32",
          "name": "timestamp",
          "type": "uint32"
        },
        {
          "internalType": "uint256",
          "name": "price0Cumulative",
          "type": "uint256"
        }
      ],
      "stateMutability": "view",
      "type": "function",
      "constant": true
    },
    {
      "inputs": [
        {
          "internalType": "address",
          "name": "",
          "type": "address"
        }
      ],
      "name": "tokenAddressIndex",
      "outputs": [
        {
          "internalType": "uint256",
          "name": "",
          "type": "uint256"
        }
      ],
      "stateMutability": "view",
      "type": "function",
      "constant": true
    },
    {
      "inputs": [
        {
          "internalType": "uint256",
          "name": "",
          "type": "uint256"
        }
      ],
      "name": "tokenAddresses",
      "outputs": [
        {
          "internalType": "address",
          "name": "",
          "type": "address"
        }
      ],
      "stateMutability": "view",
      "type": "function",
      "constant": true
    },
    {
      "inputs": [
        {
          "internalType": "address",
          "name": "newOwner",
          "type": "address"
        }
      ],
      "name": "transferOwnership",
      "outputs": [],
      "stateMutability": "nonpayable",
      "type": "function"
    },
    {
      "inputs": [],
      "name": "uniswapQuoter",
      "outputs": [
        {
          "internalType": "contract IQuoter",
          "name": "",
          "type": "address"
        }
      ],
      "stateMutability": "view",
      "type": "function",
      "constant": true
    },
    {
      "inputs": [
        {
          "internalType": "address",
          "name": "pair_",
          "type": "address"
        },
        {
          "internalType": "address",
          "name": "USDsToken_",
          "type": "address"
        }
      ],
      "name": "initialize",
      "outputs": [],
      "stateMutability": "nonpayable",
      "type": "function"
    },
    {
      "inputs": [],
      "name": "getPairAddr",
      "outputs": [
        {
          "internalType": "address",
          "name": "",
          "type": "address"
        }
      ],
      "stateMutability": "view",
      "type": "function",
      "constant": true
    },
    {
      "inputs": [
        {
          "internalType": "uint32",
          "name": "newPeriod",
          "type": "uint32"
        }
      ],
      "name": "changePeriod",
      "outputs": [],
      "stateMutability": "nonpayable",
      "type": "function"
    },
    {
      "inputs": [
        {
          "internalType": "address",
          "name": "assetAddress",
          "type": "address"
        },
        {
          "internalType": "address",
          "name": "aggregatorAddress",
          "type": "address"
        },
        {
          "internalType": "uint256",
          "name": "precision",
          "type": "uint256"
        }
      ],
      "name": "updatePriceList",
      "outputs": [],
      "stateMutability": "nonpayable",
      "type": "function"
    },
    {
      "inputs": [
        {
          "internalType": "address",
          "name": "USDsToken_",
          "type": "address"
        },
        {
          "internalType": "address",
          "name": "WETH9_",
          "type": "address"
        },
        {
          "internalType": "address",
          "name": "quoterAddress_",
          "type": "address"
        }
      ],
      "name": "updateUSDsPair",
      "outputs": [],
      "stateMutability": "nonpayable",
      "type": "function"
    },
    {
      "inputs": [],
      "name": "getETHPrice",
      "outputs": [
        {
          "internalType": "uint256",
          "name": "",
          "type": "uint256"
        }
      ],
      "stateMutability": "view",
      "type": "function",
      "constant": true
    },
    {
      "inputs": [
        {
          "internalType": "address",
          "name": "assetAddress",
          "type": "address"
        }
      ],
      "name": "getAssetPrice",
      "outputs": [
        {
          "internalType": "uint256",
          "name": "",
          "type": "uint256"
        }
      ],
      "stateMutability": "view",
      "type": "function",
      "constant": true
    },
    {
      "inputs": [],
      "name": "getSPAPrice",
      "outputs": [
        {
          "internalType": "uint256",
          "name": "",
          "type": "uint256"
        }
      ],
      "stateMutability": "view",
      "type": "function",
      "constant": true
    },
    {
      "inputs": [],
      "name": "getUSDsPrice",
      "outputs": [
        {
          "internalType": "uint256",
          "name": "",
          "type": "uint256"
        }
      ],
      "stateMutability": "nonpayable",
      "type": "function"
    },
    {
      "inputs": [
        {
          "internalType": "address",
          "name": "tokenAddr",
          "type": "address"
        }
      ],
      "name": "collatPrice",
      "outputs": [
        {
          "internalType": "uint256",
          "name": "",
          "type": "uint256"
        }
      ],
      "stateMutability": "view",
      "type": "function",
      "constant": true
    },
    {
      "inputs": [
        {
          "internalType": "address",
          "name": "tokenAddr",
          "type": "address"
        }
      ],
      "name": "collatPricePrecision",
      "outputs": [
        {
          "internalType": "uint256",
          "name": "",
          "type": "uint256"
        }
      ],
      "stateMutability": "view",
      "type": "function",
      "constant": true
    },
    {
      "inputs": [],
      "name": "update",
      "outputs": [],
      "stateMutability": "nonpayable",
      "type": "function"
    }
  ],
  "bytecode": "0x608060405234801561001057600080fd5b506135ad806100206000396000f3fe608060405234801561001057600080fd5b50600436106102065760003560e01c80639dcb511a1161011a578063c36d7497116100ad578063d5b01d431161007c578063d5b01d43146105e6578063e5df8b8414610604578063ee1bca9e14610634578063ef78d4fd14610650578063f2fde38b1461066e57610206565b8063c36d74971461056e578063c8f33c911461058c578063caffc2b8146105aa578063cef4b242146105c857610206565b8063a2e62045116100e9578063a2e62045146104f8578063a607a8d914610502578063b3596f0714610520578063c229d7501461055057610206565b80639dcb511a1461044c5780639e3354671461047c5780639f1a442e146104985780639fd3d759146104c857610206565b80632527c7221161019d5780636c6f18651161016c5780636c6f1865146103a6578063715018a6146103d6578063743db827146103e05780637d1489fe146103fe5780638da5cb5b1461042e57610206565b80632527c72214610320578063298cc9f114610350578063485cc9551461036c5780634db4a3521461038857610206565b806312dd85ee116101d957806312dd85ee1461029657806316c4c011146102b457806319860524146102d25780631f58c4411461030257610206565b8063067c0bef1461020b57806308432eea1461023c5780630b71f2161461025a5780630d4045c614610278575b600080fd5b61022560048036038101906102209190612bb8565b61068a565b604051610233929190613366565b60405180910390f35b6102446106c1565b6040516102519190613307565b60405180910390f35b610262610824565b60405161026f9190613307565b60405180910390f35b61028061082a565b60405161028d91906130cd565b60405180910390f35b61029e610854565b6040516102ab9190613307565b60405180910390f35b6102bc6108c6565b6040516102c99190613307565b60405180910390f35b6102ec60048036038101906102e79190612a66565b6108cc565b6040516102f99190613307565b60405180910390f35b61030a6108e4565b6040516103179190613307565b60405180910390f35b61033a60048036038101906103359190612a66565b6108ea565b6040516103479190613307565b60405180910390f35b61036a60048036038101906103659190612c0a565b610902565b005b61038660048036038101906103819190612a8f565b6109f9565b005b610390610e93565b60405161039d9190613156565b60405180910390f35b6103c060048036038101906103bb9190612bb8565b610eb9565b6040516103cd9190613307565b60405180910390f35b6103de610ed1565b005b6103e861100e565b6040516103f59190613307565b60405180910390f35b61041860048036038101906104139190612a66565b611014565b6040516104259190613307565b60405180910390f35b61043661105d565b60405161044391906130cd565b60405180910390f35b61046660048036038101906104619190612a66565b611087565b604051610473919061313b565b60405180910390f35b61049660048036038101906104919190612acb565b6110ba565b005b6104b260048036038101906104ad9190612a66565b611264565b6040516104bf9190613307565b60405180910390f35b6104e260048036038101906104dd9190612bb8565b611276565b6040516104ef9190613307565b60405180910390f35b61050061128e565b005b61050a611743565b6040516105179190613307565b60405180910390f35b61053a60048036038101906105359190612a66565b611801565b6040516105479190613307565b60405180910390f35b6105586118fe565b604051610565919061338f565b60405180910390f35b610576611903565b6040516105839190613307565b60405180910390f35b610594611909565b6040516105a1919061334b565b60405180910390f35b6105b261191f565b6040516105bf919061334b565b60405180910390f35b6105d0611935565b6040516105dd9190613171565b60405180910390f35b6105ee61195b565b6040516105fb9190613307565b60405180910390f35b61061e60048036038101906106199190612bb8565b611961565b60405161062b91906130cd565b60405180910390f35b61064e60048036038101906106499190612b1a565b61199d565b005b610658611c3d565b604051610665919061334b565b60405180910390f35b61068860048036038101906106839190612a66565b611c53565b005b6067816019811061069757fe5b600202016000915090508060000160009054906101000a900463ffffffff16908060010154905082565b60008060d760009054906101000a900473ffffffffffffffffffffffffffffffffffffffff169050600060d860009054906101000a900473ffffffffffffffffffffffffffffffffffffffff1690506000610bb8905060008060d660009054906101000a900473ffffffffffffffffffffffffffffffffffffffff1673ffffffffffffffffffffffffffffffffffffffff166330d07f218686866001876040518663ffffffff1660e01b815260040161077e9594939291906130e8565b602060405180830381600087803b15801561079857600080fd5b505af11580156107ac573d6000803e3d6000fd5b505050506040513d601f19601f820116820180604052508101906107d09190612be1565b905060006107dc611743565b9050610819609b5461080b836107fd609a5487611dff90919063ffffffff16565b611e6f90919063ffffffff16565b611dff90919063ffffffff16565b965050505050505090565b60cf5481565b6000606660009054906101000a900473ffffffffffffffffffffffffffffffffffffffff16905090565b60008061085f611743565b905060006108876e010000000000000000000000000000606554611e6f90919063ffffffff16565b90506108bf6065546108b16e01000000000000000000000000000085611dff90919063ffffffff16565b611e6f90919063ffffffff16565b9250505090565b60655481565b60d56020528060005260406000206000915090505481565b60d05481565b60d36020528060005260406000206000915090505481565b61090a611ec5565b73ffffffffffffffffffffffffffffffffffffffff1661092861105d565b73ffffffffffffffffffffffffffffffffffffffff161461097e576040517f08c379a0000000000000000000000000000000000000000000000000000000008152600401610975906132c7565b60405180910390fd5b8063ffffffff16609960089054906101000a900463ffffffff1663ffffffff167fde7c06487600994e2f4bf3592750288862ce94f43efbdbf7d2dcca6d682619ba426040516109cd9190613307565b60405180910390a380609960086101000a81548163ffffffff021916908363ffffffff16021790555050565b600060019054906101000a900460ff1680610a185750610a17611ecd565b5b80610a2e575060008054906101000a900460ff16155b610a6d576040517f08c379a0000000000000000000000000000000000000000000000000000000008152600401610a6490613267565b60405180910390fd5b60008060019054906101000a900460ff161590508015610abd576001600060016101000a81548160ff02191690831515021790555060016000806101000a81548160ff0219169083151502179055505b610ac5611ede565b610e10609960086101000a81548163ffffffff021916908363ffffffff1602179055506305f5e100609a81905550670de0b6b3a7640000609b819055506305f5e100609c819055506298968060d081905550739326bfa02add2366b30bacb125260af6410313316099600c6101000a81548173ffffffffffffffffffffffffffffffffffffffff021916908373ffffffffffffffffffffffffffffffffffffffff16021790555060006401000000004281610b7c57fe5b06905083606660006101000a81548173ffffffffffffffffffffffffffffffffffffffff021916908373ffffffffffffffffffffffffffffffffffffffff16021790555080609960046101000a81548163ffffffff021916908363ffffffff1602179055506000610bec85611fd6565b5050905060006201e84890506000607090506000609960089054906101000a900463ffffffff1663ffffffff168284901b0290506000601860ff16820290508284901b60658190555060005b600160180160ff16811015610cf257610c7e82610c7088610c628588611dff90919063ffffffff16565b61224490919063ffffffff16565b61229990919063ffffffff16565b60678260198110610c8b57fe5b600202016001018190555080601860ff1603609960089054906101000a900463ffffffff1602870360678260198110610cc057fe5b6002020160000160006101000a81548163ffffffff021916908363ffffffff1602179055508080600101915050610c38565b508760d160006101000a81548173ffffffffffffffffffffffffffffffffffffffff021916908373ffffffffffffffffffffffffffffffffffffffff16021790555060005b600160180160ff16811015610d7b576000609d8260198110610d5557fe5b0181905550600060b68260198110610d6957fe5b01819055508080600101915050610d37565b5073b27308f9f90d607463bb33ea1bebb41c27ce5ab660d660006101000a81548173ffffffffffffffffffffffffffffffffffffffff021916908373ffffffffffffffffffffffffffffffffffffffff1602179055508760d760006101000a81548173ffffffffffffffffffffffffffffffffffffffff021916908373ffffffffffffffffffffffffffffffffffffffff16021790555073d0a1e359811322d97991e03f863a0c30c2cf029c60d860006101000a81548173ffffffffffffffffffffffffffffffffffffffff021916908373ffffffffffffffffffffffffffffffffffffffff1602179055505050505050508015610e8e5760008060016101000a81548160ff0219169083151502179055505b505050565b60d660009054906101000a900473ffffffffffffffffffffffffffffffffffffffff1681565b609d8160198110610ec657fe5b016000915090505481565b610ed9611ec5565b73ffffffffffffffffffffffffffffffffffffffff16610ef761105d565b73ffffffffffffffffffffffffffffffffffffffff1614610f4d576040517f08c379a0000000000000000000000000000000000000000000000000000000008152600401610f44906132c7565b60405180910390fd5b600073ffffffffffffffffffffffffffffffffffffffff16603360009054906101000a900473ffffffffffffffffffffffffffffffffffffffff1673ffffffffffffffffffffffffffffffffffffffff167f8be0079c531659141344cd1fd0a4f28419497f9722a3daafe3b4186f6b6457e060405160405180910390a36000603360006101000a81548173ffffffffffffffffffffffffffffffffffffffff021916908373ffffffffffffffffffffffffffffffffffffffff160217905550565b609c5481565b600060d560008373ffffffffffffffffffffffffffffffffffffffff1673ffffffffffffffffffffffffffffffffffffffff168152602001908152602001600020549050919050565b6000603360009054906101000a900473ffffffffffffffffffffffffffffffffffffffff16905090565b60d46020528060005260406000206000915054906101000a900473ffffffffffffffffffffffffffffffffffffffff1681565b6110c2611ec5565b73ffffffffffffffffffffffffffffffffffffffff166110e061105d565b73ffffffffffffffffffffffffffffffffffffffff1614611136576040517f08c379a000000000000000000000000000000000000000000000000000000000815260040161112d906132c7565b60405180910390fd5b8060d660006101000a81548173ffffffffffffffffffffffffffffffffffffffff021916908373ffffffffffffffffffffffffffffffffffffffff1602179055508260d760006101000a81548173ffffffffffffffffffffffffffffffffffffffff021916908373ffffffffffffffffffffffffffffffffffffffff1602179055508160d860006101000a81548173ffffffffffffffffffffffffffffffffffffffff021916908373ffffffffffffffffffffffffffffffffffffffff1602179055508073ffffffffffffffffffffffffffffffffffffffff168373ffffffffffffffffffffffffffffffffffffffff167f939338a00a4640790cca2146dc2d01d062414c061f008ad2cc75e75ae5b5ec576012604051611257919061318c565b60405180910390a3505050565b600061126f82611801565b9050919050565b60b6816019811061128357fe5b016000915090505481565b6000640100000000428161129e57fe5b0690506000609960049054906101000a900463ffffffff1682039050609960089054906101000a900463ffffffff1663ffffffff168163ffffffff16101561131b576040517f08c379a0000000000000000000000000000000000000000000000000000000008152600401611312906131a7565b60405180910390fd5b6000611348606660009054906101000a900473ffffffffffffffffffffffffffffffffffffffff16611fd6565b505090506000609960009054906101000a900463ffffffff1690506000600160180160ff166001830163ffffffff168161137e57fe5b0690508260678363ffffffff166019811061139557fe5b60020201600101819055508460678363ffffffff16601981106113b457fe5b6002020160000160006101000a81548163ffffffff021916908363ffffffff160217905550600060678263ffffffff16601981106113ee57fe5b6002020160000160009054906101000a900463ffffffff1660678463ffffffff166019811061141957fe5b6002020160000160009054906101000a900463ffffffff160363ffffffff1690506114938161148560678563ffffffff166019811061145457fe5b600202016001015460678763ffffffff166019811061146f57fe5b600202016001015461229990919063ffffffff16565b611e6f90919063ffffffff16565b60658190555085609960046101000a81548163ffffffff021916908363ffffffff16021790555081609960006101000a81548163ffffffff021916908363ffffffff1602179055507f8ecf343d22d1934aea3fb34b7332371552b19286c5bc696adae16c7690a90d546065548560405161150e929190613322565b60405180910390a160d160009054906101000a900473ffffffffffffffffffffffffffffffffffffffff1673ffffffffffffffffffffffffffffffffffffffff1663736bf5916040518163ffffffff1660e01b815260040160206040518083038186803b15801561157e57600080fd5b505afa158015611592573d6000803e3d6000fd5b505050506040513d601f19601f820116820180604052508101906115b69190612be1565b609d8463ffffffff16601981106115c957fe5b018190555060d160009054906101000a900473ffffffffffffffffffffffffffffffffffffffff1673ffffffffffffffffffffffffffffffffffffffff16630abddbe76040518163ffffffff1660e01b815260040160206040518083038186803b15801561163657600080fd5b505afa15801561164a573d6000803e3d6000fd5b505050506040513d601f19601f8201168201806040525081019061166e9190612be1565b60b68463ffffffff166019811061168157fe5b018190555060006116c3609d8463ffffffff166019811061169e57fe5b0154609d8663ffffffff16601981106116b357fe5b015461229990919063ffffffff16565b9050600061170260b68563ffffffff16601981106116dd57fe5b015460b68763ffffffff16601981106116f257fe5b015461229990919063ffffffff16565b9050600060cf54141561171d5760d05460cf81905550611739565b61173260cf5482611e6f90919063ffffffff16565b60cf819055505b5050505050505050565b6000806000806000806099600c9054906101000a900473ffffffffffffffffffffffffffffffffffffffff1673ffffffffffffffffffffffffffffffffffffffff1663feaf968c6040518163ffffffff1660e01b815260040160a06040518083038186803b1580156117b457600080fd5b505afa1580156117c8573d6000803e3d6000fd5b505050506040513d601f19601f820116820180604052508101906117ec9190612c33565b94509450945094509450839550505050505090565b60008060008060008060d460008873ffffffffffffffffffffffffffffffffffffffff1673ffffffffffffffffffffffffffffffffffffffff16815260200190815260200160002060009054906101000a900473ffffffffffffffffffffffffffffffffffffffff1673ffffffffffffffffffffffffffffffffffffffff1663feaf968c6040518163ffffffff1660e01b815260040160a06040518083038186803b1580156118af57600080fd5b505afa1580156118c3573d6000803e3d6000fd5b505050506040513d601f19601f820116820180604052508101906118e79190612c33565b945094509450945094508395505050505050919050565b601881565b609b5481565b609960049054906101000a900463ffffffff1681565b609960009054906101000a900463ffffffff1681565b60d160009054906101000a900473ffffffffffffffffffffffffffffffffffffffff1681565b609a5481565b60d2818154811061196e57fe5b906000526020600020016000915054906101000a900473ffffffffffffffffffffffffffffffffffffffff1681565b6119a5611ec5565b73ffffffffffffffffffffffffffffffffffffffff166119c361105d565b73ffffffffffffffffffffffffffffffffffffffff1614611a19576040517f08c379a0000000000000000000000000000000000000000000000000000000008152600401611a10906132c7565b60405180910390fd5b600060d360008573ffffffffffffffffffffffffffffffffffffffff1673ffffffffffffffffffffffffffffffffffffffff168152602001908152602001600020541415611b0e5760d2839080600181540180825580915050600190039060005260206000200160009091909190916101000a81548173ffffffffffffffffffffffffffffffffffffffff021916908373ffffffffffffffffffffffffffffffffffffffff16021790555060d28054905060d360008573ffffffffffffffffffffffffffffffffffffffff1673ffffffffffffffffffffffffffffffffffffffff168152602001908152602001600020819055505b8160d460008573ffffffffffffffffffffffffffffffffffffffff1673ffffffffffffffffffffffffffffffffffffffff16815260200190815260200160002060006101000a81548173ffffffffffffffffffffffffffffffffffffffff021916908373ffffffffffffffffffffffffffffffffffffffff16021790555080600a0a60d560008573ffffffffffffffffffffffffffffffffffffffff1673ffffffffffffffffffffffffffffffffffffffff168152602001908152602001600020819055508173ffffffffffffffffffffffffffffffffffffffff168373ffffffffffffffffffffffffffffffffffffffff167f939338a00a4640790cca2146dc2d01d062414c061f008ad2cc75e75ae5b5ec5783604051611c309190613307565b60405180910390a3505050565b609960089054906101000a900463ffffffff1681565b611c5b611ec5565b73ffffffffffffffffffffffffffffffffffffffff16611c7961105d565b73ffffffffffffffffffffffffffffffffffffffff1614611ccf576040517f08c379a0000000000000000000000000000000000000000000000000000000008152600401611cc6906132c7565b60405180910390fd5b600073ffffffffffffffffffffffffffffffffffffffff168173ffffffffffffffffffffffffffffffffffffffff161415611d3f576040517f08c379a0000000000000000000000000000000000000000000000000000000008152600401611d36906131c7565b60405180910390fd5b8073ffffffffffffffffffffffffffffffffffffffff16603360009054906101000a900473ffffffffffffffffffffffffffffffffffffffff1673ffffffffffffffffffffffffffffffffffffffff167f8be0079c531659141344cd1fd0a4f28419497f9722a3daafe3b4186f6b6457e060405160405180910390a380603360006101000a81548173ffffffffffffffffffffffffffffffffffffffff021916908373ffffffffffffffffffffffffffffffffffffffff16021790555050565b600080831415611e125760009050611e69565b6000828402905082848281611e2357fe5b0414611e64576040517f08c379a0000000000000000000000000000000000000000000000000000000008152600401611e5b90613287565b60405180910390fd5b809150505b92915050565b6000808211611eb3576040517f08c379a0000000000000000000000000000000000000000000000000000000008152600401611eaa90613227565b60405180910390fd5b818381611ebc57fe5b04905092915050565b600033905090565b6000611ed8306122e9565b15905090565b600060019054906101000a900460ff1680611efd5750611efc611ecd565b5b80611f13575060008054906101000a900460ff16155b611f52576040517f08c379a0000000000000000000000000000000000000000000000000000000008152600401611f4990613267565b60405180910390fd5b60008060019054906101000a900460ff161590508015611fa2576001600060016101000a81548160ff02191690831515021790555060016000806101000a81548160ff0219169083151502179055505b611faa6122fc565b611fb26123e4565b8015611fd35760008060016101000a81548160ff0219169083151502179055505b50565b6000806000611fe3612575565b90508373ffffffffffffffffffffffffffffffffffffffff16635909c0d56040518163ffffffff1660e01b815260040160206040518083038186803b15801561202b57600080fd5b505afa15801561203f573d6000803e3d6000fd5b505050506040513d601f19601f820116820180604052508101906120639190612be1565b92508373ffffffffffffffffffffffffffffffffffffffff16635a3d54936040518163ffffffff1660e01b815260040160206040518083038186803b1580156120ab57600080fd5b505afa1580156120bf573d6000803e3d6000fd5b505050506040513d601f19601f820116820180604052508101906120e39190612be1565b915060008060008673ffffffffffffffffffffffffffffffffffffffff16630902f1ac6040518163ffffffff1660e01b815260040160606040518083038186803b15801561213057600080fd5b505afa158015612144573d6000803e3d6000fd5b505050506040513d601f19601f820116820180604052508101906121689190612b69565b9250925092508363ffffffff168163ffffffff161461223a57600081850390508063ffffffff166121b9846dffffffffffffffffffffffffffff16866dffffffffffffffffffffffffffff1661258b565b600001517bffffffffffffffffffffffffffffffffffffffffffffffffffffffff1602870196508063ffffffff16612211856dffffffffffffffffffffffffffff16856dffffffffffffffffffffffffffff1661258b565b600001517bffffffffffffffffffffffffffffffffffffffffffffffffffffffff160286019550505b5050509193909250565b60008082840190508381101561228f576040517f08c379a0000000000000000000000000000000000000000000000000000000008152600401612286906131e7565b60405180910390fd5b8091505092915050565b6000828211156122de576040517f08c379a00000000000000000000000000000000000000000000000000000000081526004016122d590613207565b60405180910390fd5b818303905092915050565b600080823b905060008111915050919050565b600060019054906101000a900460ff168061231b575061231a611ecd565b5b80612331575060008054906101000a900460ff16155b612370576040517f08c379a000000000000000000000000000000000000000000000000000000000815260040161236790613267565b60405180910390fd5b60008060019054906101000a900460ff1615905080156123c0576001600060016101000a81548160ff02191690831515021790555060016000806101000a81548160ff0219169083151502179055505b80156123e15760008060016101000a81548160ff0219169083151502179055505b50565b600060019054906101000a900460ff16806124035750612402611ecd565b5b80612419575060008054906101000a900460ff16155b612458576040517f08c379a000000000000000000000000000000000000000000000000000000000815260040161244f90613267565b60405180910390fd5b60008060019054906101000a900460ff1615905080156124a8576001600060016101000a81548160ff02191690831515021790555060016000806101000a81548160ff0219169083151502179055505b60006124b2611ec5565b905080603360006101000a81548173ffffffffffffffffffffffffffffffffffffffff021916908373ffffffffffffffffffffffffffffffffffffffff1602179055508073ffffffffffffffffffffffffffffffffffffffff16600073ffffffffffffffffffffffffffffffffffffffff167f8be0079c531659141344cd1fd0a4f28419497f9722a3daafe3b4186f6b6457e060405160405180910390a35080156125725760008060016101000a81548160ff0219169083151502179055505b50565b6000640100000000428161258557fe5b06905090565b61259361298d565b600082116125d6576040517f08c379a00000000000000000000000000000000000000000000000000000000081526004016125cd90613247565b60405180910390fd5b600083141561261457604051806020016040528060007bffffffffffffffffffffffffffffffffffffffffffffffffffffffff1681525090506127ea565b7fffffffffffffffffffffffffffffffffffffffffffffffffffffffffffffffff71ffffffffffffffffffffffffffffffffffff16831161271a57600082607060ff1685901b8161266157fe5b0490507fffffffffffffffffffffffffffffffffffffffffffffffffffffffffffffffff7bffffffffffffffffffffffffffffffffffffffffffffffffffffffff168111156126e5576040517f08c379a00000000000000000000000000000000000000000000000000000000081526004016126dc906132e7565b60405180910390fd5b6040518060200160405280827bffffffffffffffffffffffffffffffffffffffffffffffffffffffff168152509150506127ea565b6000612736846e010000000000000000000000000000856127f0565b90507fffffffffffffffffffffffffffffffffffffffffffffffffffffffffffffffff7bffffffffffffffffffffffffffffffffffffffffffffffffffffffff168111156127b9576040517f08c379a00000000000000000000000000000000000000000000000000000000081526004016127b0906132e7565b60405180910390fd5b6040518060200160405280827bffffffffffffffffffffffffffffffffffffffffffffffffffffffff168152509150505b92915050565b60008060006127ff868661289d565b915091506000848061280d57fe5b868809905082811115612821576001820391505b808303925060008214156128435784838161283857fe5b049350505050612896565b848210612885576040517f08c379a000000000000000000000000000000000000000000000000000000000815260040161287c906132a7565b60405180910390fd5b6128908383876128f0565b93505050505b9392505050565b60008060007fffffffffffffffffffffffffffffffffffffffffffffffffffffffffffffffff806128ca57fe5b848609905083850292508281039150828110156128e8576001820391505b509250929050565b600080826000038316905080838161290457fe5b04925080858161291057fe5b049450600181826000038161292157fe5b04018402850194506000600190508084026002038102905080840260020381029050808402600203810290508084026002038102905080840260020381029050808402600203810290508084026002038102905080840260020381029050808602925050509392505050565b604051806020016040528060007bffffffffffffffffffffffffffffffffffffffffffffffffffffffff1681525090565b6000813590506129cd816134ed565b92915050565b6000815190506129e281613504565b92915050565b6000815190506129f78161351b565b92915050565b600081359050612a0c81613532565b92915050565b600081519050612a2181613532565b92915050565b600081359050612a3681613549565b92915050565b600081519050612a4b81613549565b92915050565b600081519050612a6081613560565b92915050565b600060208284031215612a7857600080fd5b6000612a86848285016129be565b91505092915050565b60008060408385031215612aa257600080fd5b6000612ab0858286016129be565b9250506020612ac1858286016129be565b9150509250929050565b600080600060608486031215612ae057600080fd5b6000612aee868287016129be565b9350506020612aff868287016129be565b9250506040612b10868287016129be565b9150509250925092565b600080600060608486031215612b2f57600080fd5b6000612b3d868287016129be565b9350506020612b4e868287016129be565b9250506040612b5f868287016129fd565b9150509250925092565b600080600060608486031215612b7e57600080fd5b6000612b8c868287016129e8565b9350506020612b9d868287016129e8565b9250506040612bae86828701612a3c565b9150509250925092565b600060208284031215612bca57600080fd5b6000612bd8848285016129fd565b91505092915050565b600060208284031215612bf357600080fd5b6000612c0184828501612a12565b91505092915050565b600060208284031215612c1c57600080fd5b6000612c2a84828501612a27565b91505092915050565b600080600080600060a08688031215612c4b57600080fd5b6000612c5988828901612a51565b9550506020612c6a888289016129d3565b9450506040612c7b88828901612a12565b9350506060612c8c88828901612a12565b9250506080612c9d88828901612a51565b9150509295509295909350565b612cb3816133bb565b82525050565b612cc28161345d565b82525050565b612cd181613481565b82525050565b612ce0816134a5565b82525050565b612cef816134c9565b82525050565b612cfe816134db565b82525050565b6000612d116029836133aa565b91507f7570646174652829203a207468652074696d6520656c6170736564206973207460008301527f6f6f2073686f72742e00000000000000000000000000000000000000000000006020830152604082019050919050565b6000612d776026836133aa565b91507f4f776e61626c653a206e6577206f776e657220697320746865207a65726f206160008301527f64647265737300000000000000000000000000000000000000000000000000006020830152604082019050919050565b6000612ddd601b836133aa565b91507f536166654d6174683a206164646974696f6e206f766572666c6f7700000000006000830152602082019050919050565b6000612e1d601e836133aa565b91507f536166654d6174683a207375627472616374696f6e206f766572666c6f7700006000830152602082019050919050565b6000612e5d601a836133aa565b91507f536166654d6174683a206469766973696f6e206279207a65726f0000000000006000830152602082019050919050565b6000612e9d6026836133aa565b91507f4669786564506f696e743a3a6672616374696f6e3a206469766973696f6e206260008301527f79207a65726f00000000000000000000000000000000000000000000000000006020830152604082019050919050565b6000612f03602e836133aa565b91507f496e697469616c697a61626c653a20636f6e747261637420697320616c72656160008301527f647920696e697469616c697a65640000000000000000000000000000000000006020830152604082019050919050565b6000612f696021836133aa565b91507f536166654d6174683a206d756c7469706c69636174696f6e206f766572666c6f60008301527f77000000000000000000000000000000000000000000000000000000000000006020830152604082019050919050565b6000612fcf601a836133aa565b91507f46756c6c4d6174683a2046554c4c4449565f4f564552464c4f570000000000006000830152602082019050919050565b600061300f6020836133aa565b91507f4f776e61626c653a2063616c6c6572206973206e6f7420746865206f776e65726000830152602082019050919050565b600061304f601e836133aa565b91507f4669786564506f696e743a3a6672616374696f6e3a206f766572666c6f7700006000830152602082019050919050565b61308b816133f1565b82525050565b61309a81613411565b82525050565b6130a981613420565b82525050565b6130b88161342a565b82525050565b6130c78161343a565b82525050565b60006020820190506130e26000830184612caa565b92915050565b600060a0820190506130fd6000830188612caa565b61310a6020830187612caa565b6131176040830186613091565b6131246060830185612cf5565b6131316080830184613082565b9695505050505050565b60006020820190506131506000830184612cb9565b92915050565b600060208201905061316b6000830184612cc8565b92915050565b60006020820190506131866000830184612cd7565b92915050565b60006020820190506131a16000830184612ce6565b92915050565b600060208201905081810360008301526131c081612d04565b9050919050565b600060208201905081810360008301526131e081612d6a565b9050919050565b6000602082019050818103600083015261320081612dd0565b9050919050565b6000602082019050818103600083015261322081612e10565b9050919050565b6000602082019050818103600083015261324081612e50565b9050919050565b6000602082019050818103600083015261326081612e90565b9050919050565b6000602082019050818103600083015261328081612ef6565b9050919050565b600060208201905081810360008301526132a081612f5c565b9050919050565b600060208201905081810360008301526132c081612fc2565b9050919050565b600060208201905081810360008301526132e081613002565b9050919050565b6000602082019050818103600083015261330081613042565b9050919050565b600060208201905061331c60008301846130a0565b92915050565b600060408201905061333760008301856130a0565b61334460208301846130a0565b9392505050565b600060208201905061336060008301846130af565b92915050565b600060408201905061337b60008301856130af565b61338860208301846130a0565b9392505050565b60006020820190506133a460008301846130be565b92915050565b600082825260208201905092915050565b60006133c6826133f1565b9050919050565b6000819050919050565b60006dffffffffffffffffffffffffffff82169050919050565b600073ffffffffffffffffffffffffffffffffffffffff82169050919050565b600062ffffff82169050919050565b6000819050919050565b600063ffffffff82169050919050565b600060ff82169050919050565b600069ffffffffffffffffffff82169050919050565b60006134688261346f565b9050919050565b600061347a826133f1565b9050919050565b600061348c82613493565b9050919050565b600061349e826133f1565b9050919050565b60006134b0826134b7565b9050919050565b60006134c2826133f1565b9050919050565b60006134d482613420565b9050919050565b60006134e682613420565b9050919050565b6134f6816133bb565b811461350157600080fd5b50565b61350d816133cd565b811461351857600080fd5b50565b613524816133d7565b811461352f57600080fd5b50565b61353b81613420565b811461354657600080fd5b50565b6135528161342a565b811461355d57600080fd5b50565b61356981613447565b811461357457600080fd5b5056fea2646970667358221220f3891c96ef2246bf87493e2509f745a39f26b690b8437825014ba92fdf6df0ca64736f6c634300060c0033",
  "immutableReferences": {},
  "source": "// SPDX-License-Identifier: MIT\n// To-do:\n// change int()\npragma solidity ^0.6.12;\npragma experimental ABIEncoderV2;\n\n\nimport \"@openzeppelin/contracts-upgradeable/proxy/Initializable.sol\";\nimport \"@openzeppelin/contracts-upgradeable/access/OwnableUpgradeable.sol\";\nimport \"@openzeppelin/contracts-upgradeable/math/SafeMathUpgradeable.sol\";\n\nimport { USDs } from \"../token/USDs.sol\";\nimport \"../interfaces/AggregatorV3Interface.sol\";\nimport \"../interfaces/IOracle.sol\";\nimport \"../interfaces/IUniswapV2Pair.sol\";\nimport \"../libraries/UniswapV2OracleLibrary.sol\";\nimport \"../interfaces/IQuoter.sol\";\n\n/**\n * @title Oracle - the oracle contract for Spark\n * @author Sperax Dev Team\n * @notice this contract gets data from UniswapV2 pair and feed these data into the main contact of Spark, i.e. Spark.sol\n * @dev this contract draws insights from \"ExampleOracleSimple.sol\" by UniswapV2 team\n */\n\ncontract Oracle is Initializable, IOracle, OwnableUpgradeable {\n    using SafeMathUpgradeable for *;\n\n    event Update(uint currPriceMA, uint currPricetime);\n\n\tevent PriceListUpdated(\n\t\taddress indexed token,\n\t\taddress indexed aggregator,\n        uint256 precision\n\t);\n\n\tevent PeriodUpdated(\n\t\tuint256 indexed oldPeriod,\n        uint256 indexed newPeriod,\n        uint256 timestamp\n\t);\n\n    struct token0Pricetime {\n       uint32 timestamp;\n       uint price0Cumulative;\n    }\n\n\n    //\n    // Constants & Immutables\n    //\n    uint8 public constant FREQUENCY = 24;\n\n    //\n    // Core State Variables\n    //\n    // the moving average price of token0 denominated in token1\n    // frequency = 24, default period = 1 hours ==> default timespan is 1 days\n    uint public override token0PriceMA;\n    IUniswapV2Pair private _pair;\n\n    //\n    // Auxilliary State Variables\n    //\n    // the per-period cumulative pricetimes, i.e. the UniswapV2 price*time values, of token0\n    token0Pricetime[FREQUENCY+1] public token0Pricetimes;\n    uint32 public pricetimeOldestIndex;\n    // the timstamp of the lastest price update\n    uint32 public override lastUpdateTime;\n    // the default period of one price update is 1 hours\n    uint32 public override period;\n\tAggregatorV3Interface priceFeedETH;\n\n    uint public override ETHPricePrecision;\n    uint public override USDsPricePrecision;\n    uint public override SPAPricePrecision;\n\n    //  For swap fee:\n    uint[FREQUENCY+1] public USDsInflow;\n    uint[FREQUENCY+1] public USDsOutflow;\n    uint public override USDsInOutRatio;\n    uint public override USDsInOutRatioPrecision;\n    USDs public USDsInstance;\n\n    address[] public tokenAddresses;\n    mapping(address => uint256) public tokenAddressIndex;\n    mapping(address => AggregatorV3Interface) public priceFeeds;\n    mapping(address => uint256) public pricePrecisions;\n\n    IQuoter public uniswapQuoter;\n    address private USDsToken;\n    address private WETH9;\n\t// AggregatorV3Interface priceFeedUSDC;\n\t// AggregatorV3Interface priceFeedUSDT;\n\t// AggregatorV3Interface priceFeedDAI;\n\n\t// address public USDCAddr;\n\t// address public USDTAddr;\n\t// address public DAIAddr;\n    // uint public USDCPricePrecision;\n    // uint public USDTPricePrecision;\n    // uint public DAIPricePrecision;\n\n    //\n    // Initializer\n    //\n    function initialize(\n        address pair_, address USDsToken_\n    ) public initializer {\n        OwnableUpgradeable.__Ownable_init();\n\n        // Initialize variables\n        period = 1 hours;\n        // USDCAddr = 0xb7a4F3E9097C08dA09517b5aB877F7a917224ede;\n        // USDCPricePrecision = 10**8;\n        // priceFeedUSDC = AggregatorV3Interface(0x9211c6b3BF41A10F78539810Cf5c64e1BB78Ec60);\n        ETHPricePrecision = 10**8;\n        USDsPricePrecision = 10**18;\n        SPAPricePrecision = 10**8;\n        USDsInOutRatioPrecision = 10000000;\n\n        priceFeedETH = AggregatorV3Interface(0x9326BFA02ADD2366b30bacB125260Af641031331);\n        uint32 constructTime = uint32(now % 2 ** 32);\n        _pair = IUniswapV2Pair(pair_);\n        lastUpdateTime = constructTime;\n\n        // obtain the cumulative pricetime from uniswapv2 pair deployment to now\n        (uint pricetimeCorrection, , ) = UniswapV2OracleLibrary.currentCumulativePrices(pair_);\n\n        // set up initial conditions\n        // assume that 1 ETH = 2500 USD, 1 SPA = 0.02 USD, so 1 ETH = 125,000 SPA\n        uint iniToken0Price = 125000;\n        uint resolution = 112;\n        uint unitPricetime = (iniToken0Price << resolution) * period;\n        uint basePricetime = unitPricetime * FREQUENCY;\n\n        // simulate the pricetimes of the past 7 days, including necessary correction\n        token0PriceMA = iniToken0Price << resolution;\n        for (uint i = 0; i < (FREQUENCY+1); i++) {\n            token0Pricetimes[i].price0Cumulative = unitPricetime\n                                                   .mul(i)\n                                                   .add(pricetimeCorrection)\n                                                   .sub(basePricetime);\n            token0Pricetimes[i].timestamp = constructTime - period * uint32(FREQUENCY - i);\n        }\n        USDsInstance = USDs(USDsToken_);\n\n        for (uint i = 0; i < (FREQUENCY+1); i++) {\n            USDsInflow[i] = 0;\n            USDsOutflow[i] = 0;\n        }\n\n        uniswapQuoter = IQuoter(0xb27308f9F90D607463bb33eA1BeBb41C27CE5AB6);\n        USDsToken = USDsToken_;\n        WETH9 = 0xd0A1E359811322d97991E03f863a0C30C2cF029C;\n    }\n\n    //\n    // Getter Function\n    //\n    /**\n     * @notice get the address of the token pair pool\n     * @return the pair pool address\n     */\n    function getPairAddr() external view returns (address) {\n        return address(_pair);\n    }\n\n    //\n    // Owner Only Function: changePeriod\n    //\n\n    /**\n     * @notice change updating period\n     * @dev the frequency of update always remains the same\n     * @param newPeriod new minimal period in between two updates\n     */\n    function changePeriod(uint32 newPeriod) external onlyOwner {\n        emit PeriodUpdated(period, newPeriod, block.timestamp);\n\n        period = newPeriod;\n    }\n\n    /**\n        Update price list\n     */\n    function updatePriceList(address assetAddress, address aggregatorAddress, uint256 precision) external onlyOwner {\n        if (tokenAddressIndex[assetAddress] == 0) {\n            tokenAddresses.push(assetAddress);\n            tokenAddressIndex[assetAddress] = tokenAddresses.length;\n        }\n        priceFeeds[assetAddress] = AggregatorV3Interface(aggregatorAddress);\n        pricePrecisions[assetAddress] = 10 ** precision;\n\n        emit PriceListUpdated(assetAddress, aggregatorAddress, precision);\n    }\n\n    /**\n        Update USDs Uniswap V3 pair\n     */\n    function updateUSDsPair(address USDsToken_, address WETH9_, address quoterAddress_) external onlyOwner {\n        uniswapQuoter = IQuoter(quoterAddress_);\n        USDsToken = USDsToken_;\n        WETH9 = WETH9_;\n\n        emit PriceListUpdated(USDsToken_, quoterAddress_, 18);\n    }\n\n    //\n    // Core Functions\n    //\n\n\tfunction getETHPrice() public view override returns (uint) {\n\t\t(\n\t\t\tuint80 roundID,\n\t\t\tint price,\n\t\t\tuint startedAt,\n\t\t\tuint timeStamp,\n\t\t\tuint80 answeredInRound\n\t\t) = priceFeedETH.latestRoundData();\n\t\treturn uint(price);\n\t}\n\n\tfunction getAssetPrice(address assetAddress) public view returns (uint) {\n\t\t(\n\t\t\tuint80 roundID,\n\t\t\tint price,\n\t\t\tuint startedAt,\n\t\t\tuint timeStamp,\n\t\t\tuint80 answeredInRound\n\t\t) = priceFeeds[assetAddress].latestRoundData();\n\t\treturn uint(price);\n\t}\n\n    //to-do\n\tfunction getSPAPrice() external view override returns (uint) {\n\t\tuint ETHPrice = getETHPrice();\n\n        uint token0PriceMA_NoPrec = token0PriceMA.div(2**112);\n        //failing case: 1 ETH > 10^25 SPA or token0PriceMA/2**112 < ETHPrice\n        return ETHPrice.mul(2**112).div(token0PriceMA);\n\t}\n\n    function getUSDsPrice() external override returns (uint) {\n        address tokenIn = USDsToken;\n        address tokenOut = WETH9;\n        uint24 fee = 3000;\n        uint160 sqrtPriceLimitX96 = 0;\n\n        (uint256 amountIn) = uniswapQuoter.quoteExactOutputSingle(\n            tokenIn,\n            tokenOut,\n            fee,\n            1,\n            sqrtPriceLimitX96\n        );\n\n\t\tuint ETHPrice = getETHPrice();\n\t\treturn amountIn.mul(ETHPricePrecision).div(ETHPrice).mul(USDsPricePrecision);\n\t}\n\n\tfunction collatPrice(address tokenAddr) external view override returns (uint) {\n\t\treturn getAssetPrice(tokenAddr);\n\t}\n\n    function collatPricePrecision(address tokenAddr) external view override returns (uint) {\n        return pricePrecisions[tokenAddr];\n\t}\n\n    /**\n     * @notice update the price of token0 to the latest\n     * @dev the price would be updated only once per period time\n     */\n    function update() external override {\n        // check if enough time has elapsed for a new update\n        uint32 currTime = uint32(now % 2 ** 32);\n        uint32 timeElapsed = currTime - lastUpdateTime;\n        require(timeElapsed >= period, \"update() : the time elapsed is too short.\");\n\n\n        // query the lastest pricetime\n        (uint price0Cumulative, , ) = UniswapV2OracleLibrary.currentCumulativePrices(address(_pair));\n\n        // update the past-7-day pricetime array and record\n        uint32 indexNew = pricetimeOldestIndex;\n        uint32 indexOld = (indexNew + 1) % (FREQUENCY+1);\n        token0Pricetimes[indexNew].price0Cumulative = price0Cumulative;\n        token0Pricetimes[indexNew].timestamp = currTime;\n\n        // calculate the new moving average price of token0\n        uint timeElapsedMA =\n            uint(token0Pricetimes[indexNew].timestamp - token0Pricetimes[indexOld].timestamp); // notice: overflow is preferred\n        token0PriceMA = token0Pricetimes[indexNew].price0Cumulative\n                         .sub(token0Pricetimes[indexOld].price0Cumulative)\n                         .div(timeElapsedMA);\n\n        // update global status\n        lastUpdateTime = currTime;\n        pricetimeOldestIndex = indexOld;\n        emit Update(token0PriceMA, price0Cumulative);\n\n        USDsInflow[indexNew] = USDsInstance._totalMinted();\n        USDsOutflow[indexNew] = USDsInstance._totalBurnt();\n\n        uint USDsInflowOneDay = USDsInflow[indexNew].sub(USDsInflow[indexOld]);\n        uint USDsOutflowOneDay = USDsOutflow[indexNew].sub(USDsOutflow[indexOld]);\n        if (USDsInOutRatio == 0) {\n            USDsInOutRatio = USDsInOutRatioPrecision;\n        } else {\n            USDsInOutRatio = USDsOutflowOneDay.div(USDsInOutRatio);\n        }\n\n    }\n}\n",
  "sourcePath": "/Volumes/Work/Sperax/USDs/contracts/oracle/Oracle.sol",
  "compiler": {
    "name": "solc",
    "version": "0.6.12+commit.27d51765.Emscripten.clang"
  },
  "schemaVersion": "3.4.0",
  "updatedAt": "2021-08-05T13:22:54.192Z",
  "networkType": "ethereum",
  "devdoc": {
    "author": "Sperax Dev Team",
    "details": "this contract draws insights from \"ExampleOracleSimple.sol\" by UniswapV2 team",
    "kind": "dev",
    "methods": {
      "changePeriod(uint32)": {
        "details": "the frequency of update always remains the same",
        "params": {
          "newPeriod": "new minimal period in between two updates"
        }
      },
      "getPairAddr()": {
        "returns": {
          "_0": "the pair pool address"
        }
      },
      "owner()": {
        "details": "Returns the address of the current owner."
      },
      "renounceOwnership()": {
        "details": "Leaves the contract without owner. It will not be possible to call `onlyOwner` functions anymore. Can only be called by the current owner. NOTE: Renouncing ownership will leave the contract without an owner, thereby removing any functionality that is only available to the owner."
      },
      "transferOwnership(address)": {
        "details": "Transfers ownership of the contract to a new account (`newOwner`). Can only be called by the current owner."
      },
      "update()": {
        "details": "the price would be updated only once per period time"
      }
    },
    "title": "Oracle - the oracle contract for Spark",
    "version": 1
  },
  "userdoc": {
    "kind": "user",
    "methods": {
      "changePeriod(uint32)": {
        "notice": "change updating period"
      },
      "getPairAddr()": {
        "notice": "get the address of the token pair pool"
      },
      "update()": {
        "notice": "update the price of token0 to the latest"
      },
      "updatePriceList(address,address,uint256)": {
        "notice": "Update price list"
      },
      "updateUSDsPair(address,address,address)": {
        "notice": "Update USDs Uniswap V3 pair"
      }
    },
    "notice": "this contract gets data from UniswapV2 pair and feed these data into the main contact of Spark, i.e. Spark.sol",
    "version": 1
  }
}