{
  "contractName": "Oracle",
  "abi": [
    {
      "anonymous": false,
      "inputs": [
        {
          "indexed": true,
          "internalType": "address",
          "name": "previousOwner",
          "type": "address"
        },
        {
          "indexed": true,
          "internalType": "address",
          "name": "newOwner",
          "type": "address"
        }
      ],
      "name": "OwnershipTransferred",
      "type": "event"
    },
    {
      "anonymous": false,
      "inputs": [
        {
          "indexed": false,
          "internalType": "uint256",
          "name": "currPriceMA",
          "type": "uint256"
        },
        {
          "indexed": false,
          "internalType": "uint256",
          "name": "currPricetime",
          "type": "uint256"
        }
      ],
      "name": "Update",
      "type": "event"
    },
    {
      "inputs": [],
      "name": "ETHPricePrecision",
      "outputs": [
        {
          "internalType": "uint256",
          "name": "",
          "type": "uint256"
        }
      ],
      "stateMutability": "view",
      "type": "function"
    },
    {
      "inputs": [],
      "name": "FREQUENCY",
      "outputs": [
        {
          "internalType": "uint8",
          "name": "",
          "type": "uint8"
        }
      ],
      "stateMutability": "view",
      "type": "function"
    },
    {
      "inputs": [],
      "name": "SPAPricePrecision",
      "outputs": [
        {
          "internalType": "uint256",
          "name": "",
          "type": "uint256"
        }
      ],
      "stateMutability": "view",
      "type": "function"
    },
    {
      "inputs": [],
      "name": "USDCAddr",
      "outputs": [
        {
          "internalType": "address",
          "name": "",
          "type": "address"
        }
      ],
      "stateMutability": "view",
      "type": "function"
    },
    {
      "inputs": [],
      "name": "USDCPricePrecision",
      "outputs": [
        {
          "internalType": "uint256",
          "name": "",
          "type": "uint256"
        }
      ],
      "stateMutability": "view",
      "type": "function"
    },
    {
      "inputs": [],
      "name": "USDsInOutRatio",
      "outputs": [
        {
          "internalType": "uint256",
          "name": "",
          "type": "uint256"
        }
      ],
      "stateMutability": "view",
      "type": "function"
    },
    {
      "inputs": [],
      "name": "USDsInOutRatioPrecision",
      "outputs": [
        {
          "internalType": "uint256",
          "name": "",
          "type": "uint256"
        }
      ],
      "stateMutability": "view",
      "type": "function"
    },
    {
      "inputs": [
        {
          "internalType": "uint256",
          "name": "",
          "type": "uint256"
        }
      ],
      "name": "USDsInflow",
      "outputs": [
        {
          "internalType": "uint256",
          "name": "",
          "type": "uint256"
        }
      ],
      "stateMutability": "view",
      "type": "function"
    },
    {
      "inputs": [],
      "name": "USDsInstance",
      "outputs": [
        {
          "internalType": "contract USDs",
          "name": "",
          "type": "address"
        }
      ],
      "stateMutability": "view",
      "type": "function"
    },
    {
      "inputs": [
        {
          "internalType": "uint256",
          "name": "",
          "type": "uint256"
        }
      ],
      "name": "USDsOutflow",
      "outputs": [
        {
          "internalType": "uint256",
          "name": "",
          "type": "uint256"
        }
      ],
      "stateMutability": "view",
      "type": "function"
    },
    {
      "inputs": [],
      "name": "USDsPricePrecision",
      "outputs": [
        {
          "internalType": "uint256",
          "name": "",
          "type": "uint256"
        }
      ],
      "stateMutability": "view",
      "type": "function"
    },
    {
      "inputs": [],
      "name": "lastUpdateTime",
      "outputs": [
        {
          "internalType": "uint32",
          "name": "",
          "type": "uint32"
        }
      ],
      "stateMutability": "view",
      "type": "function"
    },
    {
      "inputs": [],
      "name": "owner",
      "outputs": [
        {
          "internalType": "address",
          "name": "",
          "type": "address"
        }
      ],
      "stateMutability": "view",
      "type": "function"
    },
    {
      "inputs": [],
      "name": "period",
      "outputs": [
        {
          "internalType": "uint32",
          "name": "",
          "type": "uint32"
        }
      ],
      "stateMutability": "view",
      "type": "function"
    },
    {
      "inputs": [],
      "name": "pricetimeOldestIndex",
      "outputs": [
        {
          "internalType": "uint32",
          "name": "",
          "type": "uint32"
        }
      ],
      "stateMutability": "view",
      "type": "function"
    },
    {
      "inputs": [],
      "name": "renounceOwnership",
      "outputs": [],
      "stateMutability": "nonpayable",
      "type": "function"
    },
    {
      "inputs": [],
      "name": "token0PriceMA",
      "outputs": [
        {
          "internalType": "uint256",
          "name": "",
          "type": "uint256"
        }
      ],
      "stateMutability": "view",
      "type": "function"
    },
    {
      "inputs": [
        {
          "internalType": "uint256",
          "name": "",
          "type": "uint256"
        }
      ],
      "name": "token0Pricetimes",
      "outputs": [
        {
          "internalType": "uint32",
          "name": "timestamp",
          "type": "uint32"
        },
        {
          "internalType": "uint256",
          "name": "price0Cumulative",
          "type": "uint256"
        }
      ],
      "stateMutability": "view",
      "type": "function"
    },
    {
      "inputs": [
        {
          "internalType": "address",
          "name": "newOwner",
          "type": "address"
        }
      ],
      "name": "transferOwnership",
      "outputs": [],
      "stateMutability": "nonpayable",
      "type": "function"
    },
    {
      "inputs": [
        {
          "internalType": "address",
          "name": "pair_",
          "type": "address"
        },
        {
          "internalType": "address",
          "name": "USDsToken_",
          "type": "address"
        }
      ],
      "name": "initialize",
      "outputs": [],
      "stateMutability": "nonpayable",
      "type": "function"
    },
    {
      "inputs": [],
      "name": "getPairAddr",
      "outputs": [
        {
          "internalType": "address",
          "name": "",
          "type": "address"
        }
      ],
      "stateMutability": "view",
      "type": "function"
    },
    {
      "inputs": [
        {
          "internalType": "uint32",
          "name": "newPeriod",
          "type": "uint32"
        }
      ],
      "name": "changePeriod",
      "outputs": [],
      "stateMutability": "nonpayable",
      "type": "function"
    },
    {
      "inputs": [],
      "name": "getETHPrice",
      "outputs": [
        {
          "internalType": "uint256",
          "name": "",
          "type": "uint256"
        }
      ],
      "stateMutability": "view",
      "type": "function"
    },
    {
      "inputs": [],
      "name": "getUSDCPrice",
      "outputs": [
        {
          "internalType": "uint256",
          "name": "",
          "type": "uint256"
        }
      ],
      "stateMutability": "view",
      "type": "function"
    },
    {
      "inputs": [],
      "name": "getSPAPrice",
      "outputs": [
        {
          "internalType": "uint256",
          "name": "",
          "type": "uint256"
        }
      ],
      "stateMutability": "view",
      "type": "function"
    },
    {
      "inputs": [],
      "name": "getUSDsPrice",
      "outputs": [
        {
          "internalType": "uint256",
          "name": "",
          "type": "uint256"
        }
      ],
      "stateMutability": "view",
      "type": "function"
    },
    {
      "inputs": [
        {
          "internalType": "address",
          "name": "tokenAddr",
          "type": "address"
        }
      ],
      "name": "collatPrice",
      "outputs": [
        {
          "internalType": "uint256",
          "name": "",
          "type": "uint256"
        }
      ],
      "stateMutability": "view",
      "type": "function"
    },
    {
      "inputs": [
        {
          "internalType": "address",
          "name": "tokenAddr",
          "type": "address"
        }
      ],
      "name": "collatPricePrecision",
      "outputs": [
        {
          "internalType": "uint256",
          "name": "",
          "type": "uint256"
        }
      ],
      "stateMutability": "view",
      "type": "function"
    },
    {
      "inputs": [],
      "name": "update",
      "outputs": [],
      "stateMutability": "nonpayable",
      "type": "function"
    }
  ],
  "bytecode": "0x608060405234801561001057600080fd5b5061278b806100206000396000f3fe608060405234801561001057600080fd5b50600436106101cf5760003560e01c80637d1489fe11610104578063c36d7497116100a2578063d5b01d4311610071578063d5b01d4314610634578063ef78d4fd14610652578063f2fde38b14610676578063fdcd7f4c146106ba576101cf565b8063c36d74971461059a578063c8f33c91146105b8578063caffc2b8146105dc578063cef4b24214610600576101cf565b80639fd3d759116100de5780639fd3d7591461050f578063a2e6204514610551578063a607a8d91461055b578063c229d75014610579576101cf565b80637d1489fe1461042b5780638da5cb5b146104835780639f1a442e146104b7576101cf565b80631f58c441116101715780634ad517bc1161014b5780634ad517bc146103a35780636c6f1865146103c1578063715018a614610403578063743db8271461040d576101cf565b80631f58c441146102ed578063298cc9f11461030b578063485cc9551461033f576101cf565b80630d4045c6116101ad5780630d4045c61461025f57806312dd85ee1461029357806314564427146102b157806316c4c011146102cf576101cf565b8063067c0bef146101d457806308432eea146102235780630b71f21614610241575b600080fd5b610200600480360360208110156101ea57600080fd5b81019080803590602001909291905050506106ee565b604051808363ffffffff1681526020018281526020019250505060405180910390f35b61022b610725565b6040518082815260200191505060405180910390f35b610249610732565b6040518082815260200191505060405180910390f35b610267610738565b604051808273ffffffffffffffffffffffffffffffffffffffff16815260200191505060405180910390f35b61029b610762565b6040518082815260200191505060405180910390f35b6102b96107d4565b6040518082815260200191505060405180910390f35b6102d76107da565b6040518082815260200191505060405180910390f35b6102f56107e0565b6040518082815260200191505060405180910390f35b61033d6004803603602081101561032157600080fd5b81019080803563ffffffff1690602001909291905050506107e6565b005b6103a16004803603604081101561035557600080fd5b81019080803573ffffffffffffffffffffffffffffffffffffffff169060200190929190803573ffffffffffffffffffffffffffffffffffffffff1690602001909291905050506108b9565b005b6103ab610d33565b6040518082815260200191505060405180910390f35b6103ed600480360360208110156103d757600080fd5b8101908080359060200190929190505050610e1c565b6040518082815260200191505060405180910390f35b61040b610e34565b005b610415610fa4565b6040518082815260200191505060405180910390f35b61046d6004803603602081101561044157600080fd5b81019080803573ffffffffffffffffffffffffffffffffffffffff169060200190929190505050610faa565b6040518082815260200191505060405180910390f35b61048b611012565b604051808273ffffffffffffffffffffffffffffffffffffffff16815260200191505060405180910390f35b6104f9600480360360208110156104cd57600080fd5b81019080803573ffffffffffffffffffffffffffffffffffffffff16906020019092919050505061103c565b6040518082815260200191505060405180910390f35b61053b6004803603602081101561052557600080fd5b81019080803590602001909291905050506110a9565b6040518082815260200191505060405180910390f35b6105596110c1565b005b610563611598565b6040518082815260200191505060405180910390f35b610581611681565b604051808260ff16815260200191505060405180910390f35b6105a2611686565b6040518082815260200191505060405180910390f35b6105c061168c565b604051808263ffffffff16815260200191505060405180910390f35b6105e46116a2565b604051808263ffffffff16815260200191505060405180910390f35b6106086116b8565b604051808273ffffffffffffffffffffffffffffffffffffffff16815260200191505060405180910390f35b61063c6116de565b6040518082815260200191505060405180910390f35b61065a6116e4565b604051808263ffffffff16815260200191505060405180910390f35b6106b86004803603602081101561068c57600080fd5b81019080803573ffffffffffffffffffffffffffffffffffffffff1690602001909291905050506116fa565b005b6106c26118ef565b604051808273ffffffffffffffffffffffffffffffffffffffff16815260200191505060405180910390f35b606781601981106106fb57fe5b600202016000915090508060000160009054906101000a900463ffffffff16908060010154905082565b6000609e54600102905090565b60d25481565b6000606660009054906101000a900473ffffffffffffffffffffffffffffffffffffffff16905090565b60008061076d611598565b905060006107956e01000000000000000000000000000060655461191590919063ffffffff16565b90506107cd6065546107bf6e0100000000000000000000000000008561199e90919063ffffffff16565b61191590919063ffffffff16565b9250505090565b609d5481565b60655481565b60d35481565b6107ee611a24565b73ffffffffffffffffffffffffffffffffffffffff1661080c611012565b73ffffffffffffffffffffffffffffffffffffffff1614610895576040517f08c379a00000000000000000000000000000000000000000000000000000000081526004018080602001828103825260208152602001807f4f776e61626c653a2063616c6c6572206973206e6f7420746865206f776e657281525060200191505060405180910390fd5b80609960086101000a81548163ffffffff021916908363ffffffff16021790555050565b600060019054906101000a900460ff16806108d857506108d7611a2c565b5b806108ee575060008054906101000a900460ff16155b610943576040517f08c379a000000000000000000000000000000000000000000000000000000000815260040180806020018281038252602e815260200180612707602e913960400191505060405180910390fd5b60008060019054906101000a900460ff161590508015610993576001600060016101000a81548160ff02191690831515021790555060016000806101000a81548160ff0219169083151502179055505b61099b611a3d565b610e10609960086101000a81548163ffffffff021916908363ffffffff16021790555073b7a4f3e9097c08da09517b5ab877f7a917224ede609b60006101000a81548173ffffffffffffffffffffffffffffffffffffffff021916908373ffffffffffffffffffffffffffffffffffffffff1602179055506305f5e100609c819055506305f5e100609d81905550670de0b6b3a7640000609e819055506305f5e100609f819055506298968060d381905550739326bfa02add2366b30bacb125260af6410313316099600c6101000a81548173ffffffffffffffffffffffffffffffffffffffff021916908373ffffffffffffffffffffffffffffffffffffffff160217905550739211c6b3bf41a10f78539810cf5c64e1bb78ec60609a60006101000a81548173ffffffffffffffffffffffffffffffffffffffff021916908373ffffffffffffffffffffffffffffffffffffffff16021790555060006401000000004281610b0757fe5b06905083606660006101000a81548173ffffffffffffffffffffffffffffffffffffffff021916908373ffffffffffffffffffffffffffffffffffffffff16021790555080609960046101000a81548163ffffffff021916908363ffffffff1602179055506000610b7785611b4b565b5050905060006201e84890506000607090506000609960089054906101000a900463ffffffff1663ffffffff168284901b0290506000601860ff16820290508284901b60658190555060005b600160180160ff16811015610c7d57610c0982610bfb88610bed858861199e90919063ffffffff16565b611dd690919063ffffffff16565b611e5e90919063ffffffff16565b60678260198110610c1657fe5b600202016001018190555080601860ff1603609960089054906101000a900463ffffffff1602870360678260198110610c4b57fe5b6002020160000160006101000a81548163ffffffff021916908363ffffffff1602179055508080600101915050610bc3565b508760d460006101000a81548173ffffffffffffffffffffffffffffffffffffffff021916908373ffffffffffffffffffffffffffffffffffffffff16021790555060005b600160180160ff16811015610d0657600060a08260198110610ce057fe5b0181905550600060b98260198110610cf457fe5b01819055508080600101915050610cc2565b505050505050508015610d2e5760008060016101000a81548160ff0219169083151502179055505b505050565b600080600080600080609a60009054906101000a900473ffffffffffffffffffffffffffffffffffffffff1673ffffffffffffffffffffffffffffffffffffffff1663feaf968c6040518163ffffffff1660e01b815260040160a06040518083038186803b158015610da457600080fd5b505afa158015610db8573d6000803e3d6000fd5b505050506040513d60a0811015610dce57600080fd5b81019080805190602001909291908051906020019092919080519060200190929190805190602001909291908051906020019092919050505094509450945094509450839550505050505090565b60a08160198110610e2957fe5b016000915090505481565b610e3c611a24565b73ffffffffffffffffffffffffffffffffffffffff16610e5a611012565b73ffffffffffffffffffffffffffffffffffffffff1614610ee3576040517f08c379a00000000000000000000000000000000000000000000000000000000081526004018080602001828103825260208152602001807f4f776e61626c653a2063616c6c6572206973206e6f7420746865206f776e657281525060200191505060405180910390fd5b600073ffffffffffffffffffffffffffffffffffffffff16603360009054906101000a900473ffffffffffffffffffffffffffffffffffffffff1673ffffffffffffffffffffffffffffffffffffffff167f8be0079c531659141344cd1fd0a4f28419497f9722a3daafe3b4186f6b6457e060405160405180910390a36000603360006101000a81548173ffffffffffffffffffffffffffffffffffffffff021916908373ffffffffffffffffffffffffffffffffffffffff160217905550565b609f5481565b6000609b60009054906101000a900473ffffffffffffffffffffffffffffffffffffffff1673ffffffffffffffffffffffffffffffffffffffff168273ffffffffffffffffffffffffffffffffffffffff16141561100c57609d54905061100d565b5b919050565b6000603360009054906101000a900473ffffffffffffffffffffffffffffffffffffffff16905090565b6000609b60009054906101000a900473ffffffffffffffffffffffffffffffffffffffff1673ffffffffffffffffffffffffffffffffffffffff168273ffffffffffffffffffffffffffffffffffffffff1614156110a35761109c610d33565b90506110a4565b5b919050565b60b981601981106110b657fe5b016000915090505481565b600064010000000042816110d157fe5b0690506000609960049054906101000a900463ffffffff1682039050609960089054906101000a900463ffffffff1663ffffffff168163ffffffff161015611164576040517f08c379a00000000000000000000000000000000000000000000000000000000081526004018080602001828103825260298152602001806126926029913960400191505060405180910390fd5b6000611191606660009054906101000a900473ffffffffffffffffffffffffffffffffffffffff16611b4b565b505090506000609960009054906101000a900463ffffffff1690506000600160180160ff166001830163ffffffff16816111c757fe5b0690508260678363ffffffff16601981106111de57fe5b60020201600101819055508460678363ffffffff16601981106111fd57fe5b6002020160000160006101000a81548163ffffffff021916908363ffffffff160217905550600060678263ffffffff166019811061123757fe5b6002020160000160009054906101000a900463ffffffff1660678463ffffffff166019811061126257fe5b6002020160000160009054906101000a900463ffffffff160363ffffffff1690506112dc816112ce60678563ffffffff166019811061129d57fe5b600202016001015460678763ffffffff16601981106112b857fe5b6002020160010154611e5e90919063ffffffff16565b61191590919063ffffffff16565b60658190555085609960046101000a81548163ffffffff021916908363ffffffff16021790555081609960006101000a81548163ffffffff021916908363ffffffff1602179055507f8ecf343d22d1934aea3fb34b7332371552b19286c5bc696adae16c7690a90d5460655485604051808381526020018281526020019250505060405180910390a160d460009054906101000a900473ffffffffffffffffffffffffffffffffffffffff1673ffffffffffffffffffffffffffffffffffffffff1663736bf5916040518163ffffffff1660e01b815260040160206040518083038186803b1580156113cd57600080fd5b505afa1580156113e1573d6000803e3d6000fd5b505050506040513d60208110156113f757600080fd5b810190808051906020019092919050505060a08463ffffffff166019811061141b57fe5b018190555060d460009054906101000a900473ffffffffffffffffffffffffffffffffffffffff1673ffffffffffffffffffffffffffffffffffffffff16630abddbe76040518163ffffffff1660e01b815260040160206040518083038186803b15801561148857600080fd5b505afa15801561149c573d6000803e3d6000fd5b505050506040513d60208110156114b257600080fd5b810190808051906020019092919050505060b98463ffffffff16601981106114d657fe5b0181905550600061151860a08463ffffffff16601981106114f357fe5b015460a08663ffffffff166019811061150857fe5b0154611e5e90919063ffffffff16565b9050600061155760b98563ffffffff166019811061153257fe5b015460b98763ffffffff166019811061154757fe5b0154611e5e90919063ffffffff16565b9050600060d25414156115725760d35460d28190555061158e565b61158760d2548261191590919063ffffffff16565b60d2819055505b5050505050505050565b6000806000806000806099600c9054906101000a900473ffffffffffffffffffffffffffffffffffffffff1673ffffffffffffffffffffffffffffffffffffffff1663feaf968c6040518163ffffffff1660e01b815260040160a06040518083038186803b15801561160957600080fd5b505afa15801561161d573d6000803e3d6000fd5b505050506040513d60a081101561163357600080fd5b81019080805190602001909291908051906020019092919080519060200190929190805190602001909291908051906020019092919050505094509450945094509450839550505050505090565b601881565b609e5481565b609960049054906101000a900463ffffffff1681565b609960009054906101000a900463ffffffff1681565b60d460009054906101000a900473ffffffffffffffffffffffffffffffffffffffff1681565b609c5481565b609960089054906101000a900463ffffffff1681565b611702611a24565b73ffffffffffffffffffffffffffffffffffffffff16611720611012565b73ffffffffffffffffffffffffffffffffffffffff16146117a9576040517f08c379a00000000000000000000000000000000000000000000000000000000081526004018080602001828103825260208152602001807f4f776e61626c653a2063616c6c6572206973206e6f7420746865206f776e657281525060200191505060405180910390fd5b600073ffffffffffffffffffffffffffffffffffffffff168173ffffffffffffffffffffffffffffffffffffffff16141561182f576040517f08c379a00000000000000000000000000000000000000000000000000000000081526004018080602001828103825260268152602001806126bb6026913960400191505060405180910390fd5b8073ffffffffffffffffffffffffffffffffffffffff16603360009054906101000a900473ffffffffffffffffffffffffffffffffffffffff1673ffffffffffffffffffffffffffffffffffffffff167f8be0079c531659141344cd1fd0a4f28419497f9722a3daafe3b4186f6b6457e060405160405180910390a380603360006101000a81548173ffffffffffffffffffffffffffffffffffffffff021916908373ffffffffffffffffffffffffffffffffffffffff16021790555050565b609b60009054906101000a900473ffffffffffffffffffffffffffffffffffffffff1681565b600080821161198c576040517f08c379a000000000000000000000000000000000000000000000000000000000815260040180806020018281038252601a8152602001807f536166654d6174683a206469766973696f6e206279207a65726f00000000000081525060200191505060405180910390fd5b81838161199557fe5b04905092915050565b6000808314156119b15760009050611a1e565b60008284029050828482816119c257fe5b0414611a19576040517f08c379a00000000000000000000000000000000000000000000000000000000081526004018080602001828103825260218152602001806127356021913960400191505060405180910390fd5b809150505b92915050565b600033905090565b6000611a3730611ee1565b15905090565b600060019054906101000a900460ff1680611a5c5750611a5b611a2c565b5b80611a72575060008054906101000a900460ff16155b611ac7576040517f08c379a000000000000000000000000000000000000000000000000000000000815260040180806020018281038252602e815260200180612707602e913960400191505060405180910390fd5b60008060019054906101000a900460ff161590508015611b17576001600060016101000a81548160ff02191690831515021790555060016000806101000a81548160ff0219169083151502179055505b611b1f611ef4565b611b27611ff2565b8015611b485760008060016101000a81548160ff0219169083151502179055505b50565b6000806000611b58612199565b90508373ffffffffffffffffffffffffffffffffffffffff16635909c0d56040518163ffffffff1660e01b815260040160206040518083038186803b158015611ba057600080fd5b505afa158015611bb4573d6000803e3d6000fd5b505050506040513d6020811015611bca57600080fd5b810190808051906020019092919050505092508373ffffffffffffffffffffffffffffffffffffffff16635a3d54936040518163ffffffff1660e01b815260040160206040518083038186803b158015611c2357600080fd5b505afa158015611c37573d6000803e3d6000fd5b505050506040513d6020811015611c4d57600080fd5b8101908080519060200190929190505050915060008060008673ffffffffffffffffffffffffffffffffffffffff16630902f1ac6040518163ffffffff1660e01b815260040160606040518083038186803b158015611cab57600080fd5b505afa158015611cbf573d6000803e3d6000fd5b505050506040513d6060811015611cd557600080fd5b810190808051906020019092919080519060200190929190805190602001909291905050509250925092508363ffffffff168163ffffffff1614611dcc57600081850390508063ffffffff16611d4b846dffffffffffffffffffffffffffff16866dffffffffffffffffffffffffffff166121af565b600001517bffffffffffffffffffffffffffffffffffffffffffffffffffffffff1602870196508063ffffffff16611da3856dffffffffffffffffffffffffffff16856dffffffffffffffffffffffffffff166121af565b600001517bffffffffffffffffffffffffffffffffffffffffffffffffffffffff160286019550505b5050509193909250565b600080828401905083811015611e54576040517f08c379a000000000000000000000000000000000000000000000000000000000815260040180806020018281038252601b8152602001807f536166654d6174683a206164646974696f6e206f766572666c6f77000000000081525060200191505060405180910390fd5b8091505092915050565b600082821115611ed6576040517f08c379a000000000000000000000000000000000000000000000000000000000815260040180806020018281038252601e8152602001807f536166654d6174683a207375627472616374696f6e206f766572666c6f77000081525060200191505060405180910390fd5b818303905092915050565b600080823b905060008111915050919050565b600060019054906101000a900460ff1680611f135750611f12611a2c565b5b80611f29575060008054906101000a900460ff16155b611f7e576040517f08c379a000000000000000000000000000000000000000000000000000000000815260040180806020018281038252602e815260200180612707602e913960400191505060405180910390fd5b60008060019054906101000a900460ff161590508015611fce576001600060016101000a81548160ff02191690831515021790555060016000806101000a81548160ff0219169083151502179055505b8015611fef5760008060016101000a81548160ff0219169083151502179055505b50565b600060019054906101000a900460ff16806120115750612010611a2c565b5b80612027575060008054906101000a900460ff16155b61207c576040517f08c379a000000000000000000000000000000000000000000000000000000000815260040180806020018281038252602e815260200180612707602e913960400191505060405180910390fd5b60008060019054906101000a900460ff1615905080156120cc576001600060016101000a81548160ff02191690831515021790555060016000806101000a81548160ff0219169083151502179055505b60006120d6611a24565b905080603360006101000a81548173ffffffffffffffffffffffffffffffffffffffff021916908373ffffffffffffffffffffffffffffffffffffffff1602179055508073ffffffffffffffffffffffffffffffffffffffff16600073ffffffffffffffffffffffffffffffffffffffff167f8be0079c531659141344cd1fd0a4f28419497f9722a3daafe3b4186f6b6457e060405160405180910390a35080156121965760008060016101000a81548160ff0219169083151502179055505b50565b600064010000000042816121a957fe5b06905090565b6121b7612660565b60008211612210576040517f08c379a00000000000000000000000000000000000000000000000000000000081526004018080602001828103825260268152602001806126e16026913960400191505060405180910390fd5b600083141561224e57604051806020016040528060007bffffffffffffffffffffffffffffffffffffffffffffffffffffffff16815250905061248a565b7fffffffffffffffffffffffffffffffffffffffffffffffffffffffffffffffff71ffffffffffffffffffffffffffffffffffff16831161238757600082607060ff1685901b8161229b57fe5b0490507fffffffffffffffffffffffffffffffffffffffffffffffffffffffffffffffff7bffffffffffffffffffffffffffffffffffffffffffffffffffffffff16811115612352576040517f08c379a000000000000000000000000000000000000000000000000000000000815260040180806020018281038252601e8152602001807f4669786564506f696e743a3a6672616374696f6e3a206f766572666c6f77000081525060200191505060405180910390fd5b6040518060200160405280827bffffffffffffffffffffffffffffffffffffffffffffffffffffffff1681525091505061248a565b60006123a3846e01000000000000000000000000000085612490565b90507fffffffffffffffffffffffffffffffffffffffffffffffffffffffffffffffff7bffffffffffffffffffffffffffffffffffffffffffffffffffffffff16811115612459576040517f08c379a000000000000000000000000000000000000000000000000000000000815260040180806020018281038252601e8152602001807f4669786564506f696e743a3a6672616374696f6e3a206f766572666c6f77000081525060200191505060405180910390fd5b6040518060200160405280827bffffffffffffffffffffffffffffffffffffffffffffffffffffffff168152509150505b92915050565b600080600061249f8686612570565b91509150600084806124ad57fe5b8688099050828111156124c1576001820391505b808303925060008214156124e3578483816124d857fe5b049350505050612569565b848210612558576040517f08c379a000000000000000000000000000000000000000000000000000000000815260040180806020018281038252601a8152602001807f46756c6c4d6174683a2046554c4c4449565f4f564552464c4f5700000000000081525060200191505060405180910390fd5b6125638383876125c3565b93505050505b9392505050565b60008060007fffffffffffffffffffffffffffffffffffffffffffffffffffffffffffffffff8061259d57fe5b848609905083850292508281039150828110156125bb576001820391505b509250929050565b60008082600003831690508083816125d757fe5b0492508085816125e357fe5b04945060018182600003816125f457fe5b04018402850194506000600190508084026002038102905080840260020381029050808402600203810290508084026002038102905080840260020381029050808402600203810290508084026002038102905080840260020381029050808602925050509392505050565b604051806020016040528060007bffffffffffffffffffffffffffffffffffffffffffffffffffffffff168152509056fe7570646174652829203a207468652074696d6520656c617073656420697320746f6f2073686f72742e4f776e61626c653a206e6577206f776e657220697320746865207a65726f20616464726573734669786564506f696e743a3a6672616374696f6e3a206469766973696f6e206279207a65726f496e697469616c697a61626c653a20636f6e747261637420697320616c726561647920696e697469616c697a6564536166654d6174683a206d756c7469706c69636174696f6e206f766572666c6f77a264697066735822122069c169bd529d3e820f51b84cd417435cee72bdb2ba7847249adb90e5b839f65564736f6c634300060c0033",
  "immutableReferences": {},
  "source": "\n// To-do:\n// change int()\npragma solidity ^0.6.12;\n\nimport \"@openzeppelin/contracts-upgradeable/proxy/Initializable.sol\";\nimport \"@openzeppelin/contracts-upgradeable/access/OwnableUpgradeable.sol\";\nimport \"@openzeppelin/contracts-upgradeable/math/SafeMathUpgradeable.sol\";\n\nimport { USDs } from \"../token/USDs.sol\";\nimport \"../interfaces/AggregatorV3Interface.sol\";\nimport \"../interfaces/IOracle.sol\";\nimport \"../interfaces/IUniswapV2Pair.sol\";\nimport \"../libraries/UniswapV2OracleLibrary.sol\";\n\n/**\n * @title Oracle - the oracle contract for Spark\n * @author Sperax Dev Team\n * @notice this contract gets data from UniswapV2 pair and feed these data into the main contact of Spark, i.e. Spark.sol\n * @dev this contract draws insights from \"ExampleOracleSimple.sol\" by UniswapV2 team\n */\n\ncontract Oracle is Initializable, IOracle, OwnableUpgradeable {\n    using SafeMathUpgradeable for *;\n\n    event Update(uint currPriceMA, uint currPricetime);\n\n    struct token0Pricetime {\n       uint32 timestamp;\n       uint price0Cumulative;\n    }\n\n\n    //\n    // Constants & Immutables\n    //\n    uint8 public constant FREQUENCY = 24;\n\n    //\n    // Core State Variables\n    //\n    // the moving average price of token0 denominated in token1\n    // frequency = 24, default period = 1 hours ==> default timespan is 1 days\n    uint public override token0PriceMA;\n    IUniswapV2Pair private _pair;\n\n    //\n    // Auxilliary State Variables\n    //\n    // the per-period cumulative pricetimes, i.e. the UniswapV2 price*time values, of token0\n    token0Pricetime[FREQUENCY+1] public token0Pricetimes;\n    uint32 public pricetimeOldestIndex;\n    // the timstamp of the lastest price update\n    uint32 public override lastUpdateTime;\n    // the default period of one price update is 1 hours\n    uint32 public override period;\n\tAggregatorV3Interface priceFeedETH;\n\tAggregatorV3Interface priceFeedUSDC;\n\n\taddress public USDCAddr;\n\n    uint public override ETHPricePrecision;\n    uint public USDCPricePrecision;\n    uint public override USDsPricePrecision;\n    uint public override SPAPricePrecision;\n\n    //  For swap fee:\n    uint[FREQUENCY+1] public USDsInflow;\n    uint[FREQUENCY+1] public USDsOutflow;\n    uint public override USDsInOutRatio;\n    uint public override USDsInOutRatioPrecision;\n    USDs public USDsInstance;\n\n    //\n    // Initializer\n    //\n    function initialize(\n        address pair_, address USDsToken_\n    ) public initializer {\n        OwnableUpgradeable.__Ownable_init();\n\n        // Initialize variables\n        period = 1 hours;\n        USDCAddr = 0xb7a4F3E9097C08dA09517b5aB877F7a917224ede;\n        ETHPricePrecision = 10**8;\n        USDCPricePrecision = 10**8;\n        USDsPricePrecision = 10**18;\n        SPAPricePrecision = 10**8;\n        USDsInOutRatioPrecision = 10000000;\n\n        priceFeedETH = AggregatorV3Interface(0x9326BFA02ADD2366b30bacB125260Af641031331);\n        priceFeedUSDC = AggregatorV3Interface(0x9211c6b3BF41A10F78539810Cf5c64e1BB78Ec60);\n        uint32 constructTime = uint32(now % 2 ** 32);\n        _pair = IUniswapV2Pair(pair_);\n        lastUpdateTime = constructTime;\n\n        // obtain the cumulative pricetime from uniswapv2 pair deployment to now\n        (uint pricetimeCorrection, , ) = UniswapV2OracleLibrary.currentCumulativePrices(pair_);\n\n        // set up initial conditions\n        // assume that 1 ETH = 2500 USD, 1 SPA = 0.02 USD, so 1 ETH = 125,000 SPA\n        uint iniToken0Price = 125000;\n        uint resolution = 112;\n        uint unitPricetime = (iniToken0Price << resolution) * period;\n        uint basePricetime = unitPricetime * FREQUENCY;\n\n        // simulate the pricetimes of the past 7 days, including necessary correction\n        token0PriceMA = iniToken0Price << resolution;\n        for (uint i = 0; i < (FREQUENCY+1); i++) {\n            token0Pricetimes[i].price0Cumulative = unitPricetime\n                                                   .mul(i)\n                                                   .add(pricetimeCorrection)\n                                                   .sub(basePricetime);\n            token0Pricetimes[i].timestamp = constructTime - period * uint32(FREQUENCY - i);\n        }\n        USDsInstance = USDs(USDsToken_);\n\n        for (uint i = 0; i < (FREQUENCY+1); i++) {\n            USDsInflow[i] = 0;\n            USDsOutflow[i] = 0;\n        }\n    }\n\n    //\n    // Getter Function\n    //\n    /**\n     * @notice get the address of the token pair pool\n     * @return the pair pool address\n     */\n    function getPairAddr() external view returns (address) {\n        return address(_pair);\n    }\n\n    //\n    // Owner Only Function: changePeriod\n    //\n\n    /**\n     * @notice change updating period\n     * @dev the frequency of update always remains the same\n     * @param newPeriod new minimal period in between two updates\n     */\n    function changePeriod(uint32 newPeriod) external onlyOwner {\n        period = newPeriod;\n    }\n\n\n    //\n    // Core Functions\n    //\n\n\tfunction getETHPrice() public view returns (uint) {\n\t\t(\n\t\t\tuint80 roundID,\n\t\t\tint price,\n\t\t\tuint startedAt,\n\t\t\tuint timeStamp,\n\t\t\tuint80 answeredInRound\n\t\t) = priceFeedETH.latestRoundData();\n\t\treturn uint(price);\n\t}\n\tfunction getUSDCPrice() public view returns (uint) {\n\t\t(\n\t\t\tuint80 roundID,\n\t\t\tint price,\n\t\t\tuint startedAt,\n\t\t\tuint timeStamp,\n\t\t\tuint80 answeredInRound\n\t\t) = priceFeedUSDC.latestRoundData();\n\t\treturn uint(price);\n\t}\n\n    //to-do\n\tfunction getSPAPrice() public view override returns (uint) {\n\t\tuint ETHPrice = getETHPrice();\n\n        uint token0PriceMA_NoPrec = token0PriceMA.div(2**112);\n        //failing case: 1 ETH > 10^25 SPA or token0PriceMA/2**112 < ETHPrice\n        return ETHPrice.mul(2**112).div(token0PriceMA);\n\t}\n\n    function getUSDsPrice() public view override returns (uint) {\n\t\treturn 1 * USDsPricePrecision;\n\t}\n\n\tfunction collatPrice(address tokenAddr) public view override returns (uint) {\n\t\tif (tokenAddr == USDCAddr) {\n\t\t\treturn getUSDCPrice();\n\t\t}\n\t}\n\n    function collatPricePrecision(address tokenAddr) public view override returns (uint) {\n\t\tif (tokenAddr == USDCAddr) {\n\t\t\treturn USDCPricePrecision;\n\t\t}\n\t}\n\n\n    /**\n     * @notice update the price of token0 to the latest\n     * @dev the price would be updated only once per period time\n     */\n    function update() external override {\n        // check if enough time has elapsed for a new update\n        uint32 currTime = uint32(now % 2 ** 32);\n        uint32 timeElapsed = currTime - lastUpdateTime;\n        require(timeElapsed >= period, \"update() : the time elapsed is too short.\");\n\n\n        // query the lastest pricetime\n        (uint price0Cumulative, , ) = UniswapV2OracleLibrary.currentCumulativePrices(address(_pair));\n\n        // update the past-7-day pricetime array and record\n        uint32 indexNew = pricetimeOldestIndex;\n        uint32 indexOld = (indexNew + 1) % (FREQUENCY+1);\n        token0Pricetimes[indexNew].price0Cumulative = price0Cumulative;\n        token0Pricetimes[indexNew].timestamp = currTime;\n\n        // calculate the new moving average price of token0\n        uint timeElapsedMA =\n            uint(token0Pricetimes[indexNew].timestamp - token0Pricetimes[indexOld].timestamp); // notice: overflow is preferred\n        token0PriceMA = token0Pricetimes[indexNew].price0Cumulative\n                         .sub(token0Pricetimes[indexOld].price0Cumulative)\n                         .div(timeElapsedMA);\n\n        // update global status\n        lastUpdateTime = currTime;\n        pricetimeOldestIndex = indexOld;\n        emit Update(token0PriceMA, price0Cumulative);\n\n        USDsInflow[indexNew] = USDsInstance._totalMinted();\n        USDsOutflow[indexNew] = USDsInstance._totalBurnt();\n\n        uint USDsInflowOneDay = USDsInflow[indexNew].sub(USDsInflow[indexOld]);\n        uint USDsOutflowOneDay = USDsOutflow[indexNew].sub(USDsOutflow[indexOld]);\n        if (USDsInOutRatio == 0) {\n            USDsInOutRatio = USDsInOutRatioPrecision;\n        } else {\n            USDsInOutRatio = USDsOutflowOneDay.div(USDsInOutRatio);\n        }\n\n    }\n}\n",
  "sourcePath": "/Volumes/Work/Sperax/USDs/contracts/oracle/Oracle.sol",
  "compiler": {
    "name": "solc",
    "version": "0.6.12+commit.27d51765.Emscripten.clang"
  },
  "schemaVersion": "3.4.0",
  "updatedAt": "2021-07-22T17:50:30.522Z",
  "networkType": "ethereum",
  "devdoc": {
    "author": "Sperax Dev Team",
    "details": "this contract draws insights from \"ExampleOracleSimple.sol\" by UniswapV2 team",
    "kind": "dev",
    "methods": {
      "changePeriod(uint32)": {
        "details": "the frequency of update always remains the same",
        "params": {
          "newPeriod": "new minimal period in between two updates"
        }
      },
      "getPairAddr()": {
        "returns": {
          "_0": "the pair pool address"
        }
      },
      "owner()": {
        "details": "Returns the address of the current owner."
      },
      "renounceOwnership()": {
        "details": "Leaves the contract without owner. It will not be possible to call `onlyOwner` functions anymore. Can only be called by the current owner. NOTE: Renouncing ownership will leave the contract without an owner, thereby removing any functionality that is only available to the owner."
      },
      "transferOwnership(address)": {
        "details": "Transfers ownership of the contract to a new account (`newOwner`). Can only be called by the current owner."
      },
      "update()": {
        "details": "the price would be updated only once per period time"
      }
    },
    "title": "Oracle - the oracle contract for Spark",
    "version": 1
  },
  "userdoc": {
    "kind": "user",
    "methods": {
      "changePeriod(uint32)": {
        "notice": "change updating period"
      },
      "getPairAddr()": {
        "notice": "get the address of the token pair pool"
      },
      "update()": {
        "notice": "update the price of token0 to the latest"
      }
    },
    "notice": "this contract gets data from UniswapV2 pair and feed these data into the main contact of Spark, i.e. Spark.sol",
    "version": 1
  }
}