{
  "contractName": "Oracle",
  "abi": [
    {
      "inputs": [
        {
          "internalType": "address",
          "name": "pair_",
          "type": "address"
        }
      ],
      "stateMutability": "nonpayable",
      "type": "constructor"
    },
    {
      "anonymous": false,
      "inputs": [
        {
          "indexed": true,
          "internalType": "address",
          "name": "previousOwner",
          "type": "address"
        },
        {
          "indexed": true,
          "internalType": "address",
          "name": "newOwner",
          "type": "address"
        }
      ],
      "name": "OwnershipTransferred",
      "type": "event"
    },
    {
      "anonymous": false,
      "inputs": [
        {
          "indexed": false,
          "internalType": "uint256",
          "name": "currPriceMA",
          "type": "uint256"
        },
        {
          "indexed": false,
          "internalType": "uint256",
          "name": "currPricetime",
          "type": "uint256"
        }
      ],
      "name": "Update",
      "type": "event"
    },
    {
      "inputs": [],
      "name": "FREQUENCY",
      "outputs": [
        {
          "internalType": "uint8",
          "name": "",
          "type": "uint8"
        }
      ],
      "stateMutability": "view",
      "type": "function"
    },
    {
      "inputs": [],
      "name": "USDCAddr",
      "outputs": [
        {
          "internalType": "address",
          "name": "",
          "type": "address"
        }
      ],
      "stateMutability": "view",
      "type": "function"
    },
    {
      "inputs": [],
      "name": "isOwner",
      "outputs": [
        {
          "internalType": "bool",
          "name": "",
          "type": "bool"
        }
      ],
      "stateMutability": "view",
      "type": "function"
    },
    {
      "inputs": [],
      "name": "lastUpdateTime",
      "outputs": [
        {
          "internalType": "uint32",
          "name": "",
          "type": "uint32"
        }
      ],
      "stateMutability": "view",
      "type": "function"
    },
    {
      "inputs": [],
      "name": "owner",
      "outputs": [
        {
          "internalType": "address",
          "name": "",
          "type": "address"
        }
      ],
      "stateMutability": "view",
      "type": "function"
    },
    {
      "inputs": [],
      "name": "period",
      "outputs": [
        {
          "internalType": "uint32",
          "name": "",
          "type": "uint32"
        }
      ],
      "stateMutability": "view",
      "type": "function"
    },
    {
      "inputs": [],
      "name": "pricetimeOldestIndex",
      "outputs": [
        {
          "internalType": "uint32",
          "name": "",
          "type": "uint32"
        }
      ],
      "stateMutability": "view",
      "type": "function"
    },
    {
      "inputs": [],
      "name": "renounceOwnership",
      "outputs": [],
      "stateMutability": "nonpayable",
      "type": "function"
    },
    {
      "inputs": [],
      "name": "token0PriceMA",
      "outputs": [
        {
          "internalType": "uint256",
          "name": "",
          "type": "uint256"
        }
      ],
      "stateMutability": "view",
      "type": "function"
    },
    {
      "inputs": [
        {
          "internalType": "uint256",
          "name": "",
          "type": "uint256"
        }
      ],
      "name": "token0Pricetimes",
      "outputs": [
        {
          "internalType": "uint32",
          "name": "timestamp",
          "type": "uint32"
        },
        {
          "internalType": "uint256",
          "name": "price0Cumulative",
          "type": "uint256"
        }
      ],
      "stateMutability": "view",
      "type": "function"
    },
    {
      "inputs": [
        {
          "internalType": "address",
          "name": "newOwner",
          "type": "address"
        }
      ],
      "name": "transferOwnership",
      "outputs": [],
      "stateMutability": "nonpayable",
      "type": "function"
    },
    {
      "inputs": [],
      "name": "getPairAddr",
      "outputs": [
        {
          "internalType": "address",
          "name": "",
          "type": "address"
        }
      ],
      "stateMutability": "view",
      "type": "function"
    },
    {
      "inputs": [
        {
          "internalType": "uint32",
          "name": "newPeriod",
          "type": "uint32"
        }
      ],
      "name": "changePeriod",
      "outputs": [],
      "stateMutability": "nonpayable",
      "type": "function"
    },
    {
      "inputs": [],
      "name": "getETHPrice",
      "outputs": [
        {
          "internalType": "int256",
          "name": "",
          "type": "int256"
        }
      ],
      "stateMutability": "view",
      "type": "function"
    },
    {
      "inputs": [],
      "name": "getUSDCPrice",
      "outputs": [
        {
          "internalType": "int256",
          "name": "",
          "type": "int256"
        }
      ],
      "stateMutability": "view",
      "type": "function"
    },
    {
      "inputs": [],
      "name": "getSPAPrice",
      "outputs": [
        {
          "internalType": "int256",
          "name": "",
          "type": "int256"
        }
      ],
      "stateMutability": "view",
      "type": "function"
    },
    {
      "inputs": [
        {
          "internalType": "address",
          "name": "tokenAddr",
          "type": "address"
        }
      ],
      "name": "price",
      "outputs": [
        {
          "internalType": "int256",
          "name": "",
          "type": "int256"
        }
      ],
      "stateMutability": "view",
      "type": "function"
    },
    {
      "inputs": [],
      "name": "update",
      "outputs": [],
      "stateMutability": "nonpayable",
      "type": "function"
    }
  ],
  "bytecode": "0x60a0604052610e10603460086101000a81548163ffffffff021916908363ffffffff16021790555073a0b86991c6218b36c1d19d4a2e9eb0ce3606eb48603660006101000a81548173ffffffffffffffffffffffffffffffffffffffff021916908373ffffffffffffffffffffffffffffffffffffffff1602179055503480156200008957600080fd5b50604051620027fb380380620027fb83398181016040526020811015620000af57600080fd5b8101908080519060200190929190505050620000d0620003e560201b60201c565b6000806101000a81548173ffffffffffffffffffffffffffffffffffffffff021916908373ffffffffffffffffffffffffffffffffffffffff16021790555060008054906101000a900473ffffffffffffffffffffffffffffffffffffffff1673ffffffffffffffffffffffffffffffffffffffff16600073ffffffffffffffffffffffffffffffffffffffff167f8be0079c531659141344cd1fd0a4f28419497f9722a3daafe3b4186f6b6457e060405160405180910390a3739326bfa02add2366b30bacb125260af6410313316034600c6101000a81548173ffffffffffffffffffffffffffffffffffffffff021916908373ffffffffffffffffffffffffffffffffffffffff160217905550739211c6b3bf41a10f78539810cf5c64e1bb78ec60603560006101000a81548173ffffffffffffffffffffffffffffffffffffffff021916908373ffffffffffffffffffffffffffffffffffffffff160217905550600064010000000042816200024557fe5b0690508173ffffffffffffffffffffffffffffffffffffffff1660808173ffffffffffffffffffffffffffffffffffffffff1660601b8152505080603460046101000a81548163ffffffff021916908363ffffffff1602179055506000620002b883620003ed60201b62000cd51760201c565b5050905060006201e84890506000607090506000603460089054906101000a900463ffffffff1663ffffffff168284901b0290506000601860ff16820290508284901b60018190555060005b600160180160ff16811015620003d75762000360826200034c88620003388588620006a460201b62000f601790919060201c565b6200072f60201b62000fe61790919060201c565b620007b860201b6200106e1790919060201c565b600282601981106200036e57fe5b600202016001018190555080601860ff1603603460089054906101000a900463ffffffff1602870360028260198110620003a457fe5b6002020160000160006101000a81548163ffffffff021916908363ffffffff160217905550808060010191505062000304565b505050505050505062000dfa565b600033905090565b6000806000620004026200080a60201b60201c565b90508373ffffffffffffffffffffffffffffffffffffffff16635909c0d56040518163ffffffff1660e01b815260040160206040518083038186803b1580156200044b57600080fd5b505afa15801562000460573d6000803e3d6000fd5b505050506040513d60208110156200047757600080fd5b810190808051906020019092919050505092508373ffffffffffffffffffffffffffffffffffffffff16635a3d54936040518163ffffffff1660e01b815260040160206040518083038186803b158015620004d157600080fd5b505afa158015620004e6573d6000803e3d6000fd5b505050506040513d6020811015620004fd57600080fd5b8101908080519060200190929190505050915060008060008673ffffffffffffffffffffffffffffffffffffffff16630902f1ac6040518163ffffffff1660e01b815260040160606040518083038186803b1580156200055c57600080fd5b505afa15801562000571573d6000803e3d6000fd5b505050506040513d60608110156200058857600080fd5b810190808051906020019092919080519060200190929190805190602001909291905050509250925092508363ffffffff168163ffffffff16146200069a57600081850390508063ffffffff166200060c846dffffffffffffffffffffffffffff16866dffffffffffffffffffffffffffff166200082160201b620010b81760201c565b600001517bffffffffffffffffffffffffffffffffffffffffffffffffffffffff1602870196508063ffffffff1662000671856dffffffffffffffffffffffffffff16856dffffffffffffffffffffffffffff166200082160201b620010b81760201c565b600001517bffffffffffffffffffffffffffffffffffffffffffffffffffffffff160286019550505b5050509193909250565b600080831415620006b9576000905062000729565b6000828402905082848281620006cb57fe5b041462000724576040517f08c379a0000000000000000000000000000000000000000000000000000000008152600401808060200182810382526021815260200180620027da6021913960400191505060405180910390fd5b809150505b92915050565b600080828401905083811015620007ae576040517f08c379a000000000000000000000000000000000000000000000000000000000815260040180806020018281038252601b8152602001807f536166654d6174683a206164646974696f6e206f766572666c6f77000000000081525060200191505060405180910390fd5b8091505092915050565b60006200080283836040518060400160405280601e81526020017f536166654d6174683a207375627472616374696f6e206f766572666c6f77000081525062000b1a60201b60201c565b905092915050565b600064010000000042816200081b57fe5b06905090565b6200082b62000dc9565b6000821162000886576040517f08c379a0000000000000000000000000000000000000000000000000000000008152600401808060200182810382526026815260200180620027b46026913960400191505060405180910390fd5b6000831415620008c657604051806020016040528060007bffffffffffffffffffffffffffffffffffffffffffffffffffffffff16815250905062000b14565b7fffffffffffffffffffffffffffffffffffffffffffffffffffffffffffffffff71ffffffffffffffffffffffffffffffffffff16831162000a0357600082607060ff1685901b816200091557fe5b0490507fffffffffffffffffffffffffffffffffffffffffffffffffffffffffffffffff7bffffffffffffffffffffffffffffffffffffffffffffffffffffffff16811115620009cd576040517f08c379a000000000000000000000000000000000000000000000000000000000815260040180806020018281038252601e8152602001807f4669786564506f696e743a3a6672616374696f6e3a206f766572666c6f77000081525060200191505060405180910390fd5b6040518060200160405280827bffffffffffffffffffffffffffffffffffffffffffffffffffffffff1681525091505062000b14565b600062000a2c846e0100000000000000000000000000008562000bde60201b620013991760201c565b90507fffffffffffffffffffffffffffffffffffffffffffffffffffffffffffffffff7bffffffffffffffffffffffffffffffffffffffffffffffffffffffff1681111562000ae3576040517f08c379a000000000000000000000000000000000000000000000000000000000815260040180806020018281038252601e8152602001807f4669786564506f696e743a3a6672616374696f6e3a206f766572666c6f77000081525060200191505060405180910390fd5b6040518060200160405280827bffffffffffffffffffffffffffffffffffffffffffffffffffffffff168152509150505b92915050565b600083831115829062000bcb576040517f08c379a00000000000000000000000000000000000000000000000000000000081526004018080602001828103825283818151815260200191508051906020019080838360005b8381101562000b8f57808201518184015260208101905062000b72565b50505050905090810190601f16801562000bbd5780820380516001836020036101000a031916815260200191505b509250505060405180910390fd5b5060008385039050809150509392505050565b600080600062000bf5868662000cd460201b60201c565b915091506000848062000c0457fe5b86880990508281111562000c19576001820391505b8083039250600082141562000c3e5784838162000c3257fe5b04935050505062000ccd565b84821062000cb4576040517f08c379a000000000000000000000000000000000000000000000000000000000815260040180806020018281038252601a8152602001807f46756c6c4d6174683a2046554c4c4449565f4f564552464c4f5700000000000081525060200191505060405180910390fd5b62000cc783838762000d2960201b60201c565b93505050505b9392505050565b60008060007fffffffffffffffffffffffffffffffffffffffffffffffffffffffffffffffff8062000d0257fe5b8486099050838502925082810391508281101562000d21576001820391505b509250929050565b600080826000038316905080838162000d3e57fe5b04925080858162000d4b57fe5b049450600181826000038162000d5d57fe5b04018402850194506000600190508084026002038102905080840260020381029050808402600203810290508084026002038102905080840260020381029050808402600203810290508084026002038102905080840260020381029050808602925050509392505050565b604051806020016040528060007bffffffffffffffffffffffffffffffffffffffffffffffffffffffff1681525090565b60805160601c61199762000e1d6000398061044a528061088c52506119976000f3fe608060405234801561001057600080fd5b50600436106101165760003560e01c8063a2e62045116100a2578063c8f33c9111610071578063c8f33c911461032b578063caffc2b81461034f578063ef78d4fd14610373578063f2fde38b14610397578063fdcd7f4c146103db57610116565b8063a2e620451461028a578063a607a8d914610294578063aea91078146102b2578063c229d7501461030a57610116565b8063298cc9f1116100e9578063298cc9f1146101da5780634ad517bc1461020e578063715018a61461022c5780638da5cb5b146102365780638f32d59b1461026a57610116565b8063067c0bef1461011b5780630d4045c61461016a57806312dd85ee1461019e57806316c4c011146101bc575b600080fd5b6101476004803603602081101561013157600080fd5b810190808035906020019092919050505061040f565b604051808363ffffffff1681526020018281526020019250505060405180910390f35b610172610446565b604051808273ffffffffffffffffffffffffffffffffffffffff16815260200191505060405180910390f35b6101a661046e565b6040518082815260200191505060405180910390f35b6101c4610496565b6040518082815260200191505060405180910390f35b61020c600480360360208110156101f057600080fd5b81019080803563ffffffff16906020019092919050505061049c565b005b61021661053a565b6040518082815260200191505060405180910390f35b610234610623565b005b61023e61075b565b604051808273ffffffffffffffffffffffffffffffffffffffff16815260200191505060405180910390f35b610272610784565b60405180821515815260200191505060405180910390f35b6102926107e2565b005b61029c610a8c565b6040518082815260200191505060405180910390f35b6102f4600480360360208110156102c857600080fd5b81019080803573ffffffffffffffffffffffffffffffffffffffff169060200190929190505050610b75565b6040518082815260200191505060405180910390f35b610312610be2565b604051808260ff16815260200191505060405180910390f35b610333610be7565b604051808263ffffffff16815260200191505060405180910390f35b610357610bfd565b604051808263ffffffff16815260200191505060405180910390f35b61037b610c13565b604051808263ffffffff16815260200191505060405180910390f35b6103d9600480360360208110156103ad57600080fd5b81019080803573ffffffffffffffffffffffffffffffffffffffff169060200190929190505050610c29565b005b6103e3610caf565b604051808273ffffffffffffffffffffffffffffffffffffffff16815260200191505060405180910390f35b6002816019811061041c57fe5b600202016000915090508060000160009054906101000a900463ffffffff16908060010154905082565b60007f0000000000000000000000000000000000000000000000000000000000000000905090565b600080610479610a8c565b905061049081600154610f6090919063ffffffff16565b91505090565b60015481565b6104a4610784565b610516576040517f08c379a00000000000000000000000000000000000000000000000000000000081526004018080602001828103825260208152602001807f4f776e61626c653a2063616c6c6572206973206e6f7420746865206f776e657281525060200191505060405180910390fd5b80603460086101000a81548163ffffffff021916908363ffffffff16021790555050565b600080600080600080603560009054906101000a900473ffffffffffffffffffffffffffffffffffffffff1673ffffffffffffffffffffffffffffffffffffffff1663feaf968c6040518163ffffffff1660e01b815260040160a06040518083038186803b1580156105ab57600080fd5b505afa1580156105bf573d6000803e3d6000fd5b505050506040513d60a08110156105d557600080fd5b81019080805190602001909291908051906020019092919080519060200190929190805190602001909291908051906020019092919050505094509450945094509450839550505050505090565b61062b610784565b61069d576040517f08c379a00000000000000000000000000000000000000000000000000000000081526004018080602001828103825260208152602001807f4f776e61626c653a2063616c6c6572206973206e6f7420746865206f776e657281525060200191505060405180910390fd5b600073ffffffffffffffffffffffffffffffffffffffff1660008054906101000a900473ffffffffffffffffffffffffffffffffffffffff1673ffffffffffffffffffffffffffffffffffffffff167f8be0079c531659141344cd1fd0a4f28419497f9722a3daafe3b4186f6b6457e060405160405180910390a360008060006101000a81548173ffffffffffffffffffffffffffffffffffffffff021916908373ffffffffffffffffffffffffffffffffffffffff160217905550565b60008060009054906101000a900473ffffffffffffffffffffffffffffffffffffffff16905090565b60008060009054906101000a900473ffffffffffffffffffffffffffffffffffffffff1673ffffffffffffffffffffffffffffffffffffffff166107c6611479565b73ffffffffffffffffffffffffffffffffffffffff1614905090565b600064010000000042816107f257fe5b0690506000603460049054906101000a900463ffffffff1682039050603460089054906101000a900463ffffffff1663ffffffff168163ffffffff161015610885576040517f08c379a00000000000000000000000000000000000000000000000000000000081526004018080602001828103825260298152602001806118cc6029913960400191505060405180910390fd5b60006108b07f0000000000000000000000000000000000000000000000000000000000000000610cd5565b505090506000603460009054906101000a900463ffffffff1690506000600160180160ff166001830163ffffffff16816108e657fe5b0690508260028363ffffffff16601981106108fd57fe5b60020201600101819055508460028363ffffffff166019811061091c57fe5b6002020160000160006101000a81548163ffffffff021916908363ffffffff160217905550600060028263ffffffff166019811061095657fe5b6002020160000160009054906101000a900463ffffffff1660028463ffffffff166019811061098157fe5b6002020160000160009054906101000a900463ffffffff160363ffffffff1690506109fb816109ed60028563ffffffff16601981106109bc57fe5b600202016001015460028763ffffffff16601981106109d757fe5b600202016001015461106e90919063ffffffff16565b61148190919063ffffffff16565b60018190555085603460046101000a81548163ffffffff021916908363ffffffff16021790555081603460006101000a81548163ffffffff021916908363ffffffff1602179055507f8ecf343d22d1934aea3fb34b7332371552b19286c5bc696adae16c7690a90d5460015485604051808381526020018281526020019250505060405180910390a1505050505050565b6000806000806000806034600c9054906101000a900473ffffffffffffffffffffffffffffffffffffffff1673ffffffffffffffffffffffffffffffffffffffff1663feaf968c6040518163ffffffff1660e01b815260040160a06040518083038186803b158015610afd57600080fd5b505afa158015610b11573d6000803e3d6000fd5b505050506040513d60a0811015610b2757600080fd5b81019080805190602001909291908051906020019092919080519060200190929190805190602001909291908051906020019092919050505094509450945094509450839550505050505090565b6000603660009054906101000a900473ffffffffffffffffffffffffffffffffffffffff1673ffffffffffffffffffffffffffffffffffffffff168273ffffffffffffffffffffffffffffffffffffffff161415610bdc57610bd561053a565b9050610bdd565b5b919050565b601881565b603460049054906101000a900463ffffffff1681565b603460009054906101000a900463ffffffff1681565b603460089054906101000a900463ffffffff1681565b610c31610784565b610ca3576040517f08c379a00000000000000000000000000000000000000000000000000000000081526004018080602001828103825260208152602001807f4f776e61626c653a2063616c6c6572206973206e6f7420746865206f776e657281525060200191505060405180910390fd5b610cac816114cb565b50565b603660009054906101000a900473ffffffffffffffffffffffffffffffffffffffff1681565b6000806000610ce261160e565b90508373ffffffffffffffffffffffffffffffffffffffff16635909c0d56040518163ffffffff1660e01b815260040160206040518083038186803b158015610d2a57600080fd5b505afa158015610d3e573d6000803e3d6000fd5b505050506040513d6020811015610d5457600080fd5b810190808051906020019092919050505092508373ffffffffffffffffffffffffffffffffffffffff16635a3d54936040518163ffffffff1660e01b815260040160206040518083038186803b158015610dad57600080fd5b505afa158015610dc1573d6000803e3d6000fd5b505050506040513d6020811015610dd757600080fd5b8101908080519060200190929190505050915060008060008673ffffffffffffffffffffffffffffffffffffffff16630902f1ac6040518163ffffffff1660e01b815260040160606040518083038186803b158015610e3557600080fd5b505afa158015610e49573d6000803e3d6000fd5b505050506040513d6060811015610e5f57600080fd5b810190808051906020019092919080519060200190929190805190602001909291905050509250925092508363ffffffff168163ffffffff1614610f5657600081850390508063ffffffff16610ed5846dffffffffffffffffffffffffffff16866dffffffffffffffffffffffffffff166110b8565b600001517bffffffffffffffffffffffffffffffffffffffffffffffffffffffff1602870196508063ffffffff16610f2d856dffffffffffffffffffffffffffff16856dffffffffffffffffffffffffffff166110b8565b600001517bffffffffffffffffffffffffffffffffffffffffffffffffffffffff160286019550505b5050509193909250565b600080831415610f735760009050610fe0565b6000828402905082848281610f8457fe5b0414610fdb576040517f08c379a00000000000000000000000000000000000000000000000000000000081526004018080602001828103825260218152602001806119416021913960400191505060405180910390fd5b809150505b92915050565b600080828401905083811015611064576040517f08c379a000000000000000000000000000000000000000000000000000000000815260040180806020018281038252601b8152602001807f536166654d6174683a206164646974696f6e206f766572666c6f77000000000081525060200191505060405180910390fd5b8091505092915050565b60006110b083836040518060400160405280601e81526020017f536166654d6174683a207375627472616374696f6e206f766572666c6f770000815250611624565b905092915050565b6110c061189a565b60008211611119576040517f08c379a000000000000000000000000000000000000000000000000000000000815260040180806020018281038252602681526020018061191b6026913960400191505060405180910390fd5b600083141561115757604051806020016040528060007bffffffffffffffffffffffffffffffffffffffffffffffffffffffff168152509050611393565b7fffffffffffffffffffffffffffffffffffffffffffffffffffffffffffffffff71ffffffffffffffffffffffffffffffffffff16831161129057600082607060ff1685901b816111a457fe5b0490507fffffffffffffffffffffffffffffffffffffffffffffffffffffffffffffffff7bffffffffffffffffffffffffffffffffffffffffffffffffffffffff1681111561125b576040517f08c379a000000000000000000000000000000000000000000000000000000000815260040180806020018281038252601e8152602001807f4669786564506f696e743a3a6672616374696f6e3a206f766572666c6f77000081525060200191505060405180910390fd5b6040518060200160405280827bffffffffffffffffffffffffffffffffffffffffffffffffffffffff16815250915050611393565b60006112ac846e01000000000000000000000000000085611399565b90507fffffffffffffffffffffffffffffffffffffffffffffffffffffffffffffffff7bffffffffffffffffffffffffffffffffffffffffffffffffffffffff16811115611362576040517f08c379a000000000000000000000000000000000000000000000000000000000815260040180806020018281038252601e8152602001807f4669786564506f696e743a3a6672616374696f6e3a206f766572666c6f77000081525060200191505060405180910390fd5b6040518060200160405280827bffffffffffffffffffffffffffffffffffffffffffffffffffffffff168152509150505b92915050565b60008060006113a886866116e4565b91509150600084806113b657fe5b8688099050828111156113ca576001820391505b808303925060008214156113ec578483816113e157fe5b049350505050611472565b848210611461576040517f08c379a000000000000000000000000000000000000000000000000000000000815260040180806020018281038252601a8152602001807f46756c6c4d6174683a2046554c4c4449565f4f564552464c4f5700000000000081525060200191505060405180910390fd5b61146c838387611737565b93505050505b9392505050565b600033905090565b60006114c383836040518060400160405280601a81526020017f536166654d6174683a206469766973696f6e206279207a65726f0000000000008152506117d4565b905092915050565b600073ffffffffffffffffffffffffffffffffffffffff168173ffffffffffffffffffffffffffffffffffffffff161415611551576040517f08c379a00000000000000000000000000000000000000000000000000000000081526004018080602001828103825260268152602001806118f56026913960400191505060405180910390fd5b8073ffffffffffffffffffffffffffffffffffffffff1660008054906101000a900473ffffffffffffffffffffffffffffffffffffffff1673ffffffffffffffffffffffffffffffffffffffff167f8be0079c531659141344cd1fd0a4f28419497f9722a3daafe3b4186f6b6457e060405160405180910390a3806000806101000a81548173ffffffffffffffffffffffffffffffffffffffff021916908373ffffffffffffffffffffffffffffffffffffffff16021790555050565b6000640100000000428161161e57fe5b06905090565b60008383111582906116d1576040517f08c379a00000000000000000000000000000000000000000000000000000000081526004018080602001828103825283818151815260200191508051906020019080838360005b8381101561169657808201518184015260208101905061167b565b50505050905090810190601f1680156116c35780820380516001836020036101000a031916815260200191505b509250505060405180910390fd5b5060008385039050809150509392505050565b60008060007fffffffffffffffffffffffffffffffffffffffffffffffffffffffffffffffff8061171157fe5b8486099050838502925082810391508281101561172f576001820391505b509250929050565b600080826000038316905080838161174b57fe5b04925080858161175757fe5b049450600181826000038161176857fe5b04018402850194506000600190508084026002038102905080840260020381029050808402600203810290508084026002038102905080840260020381029050808402600203810290508084026002038102905080840260020381029050808602925050509392505050565b60008083118290611880576040517f08c379a00000000000000000000000000000000000000000000000000000000081526004018080602001828103825283818151815260200191508051906020019080838360005b8381101561184557808201518184015260208101905061182a565b50505050905090810190601f1680156118725780820380516001836020036101000a031916815260200191505b509250505060405180910390fd5b50600083858161188c57fe5b049050809150509392505050565b604051806020016040528060007bffffffffffffffffffffffffffffffffffffffffffffffffffffffff168152509056fe7570646174652829203a207468652074696d6520656c617073656420697320746f6f2073686f72742e4f776e61626c653a206e6577206f776e657220697320746865207a65726f20616464726573734669786564506f696e743a3a6672616374696f6e3a206469766973696f6e206279207a65726f536166654d6174683a206d756c7469706c69636174696f6e206f766572666c6f77a2646970667358221220b278aeac0fb21db5fe14bd188537ee6ac02f30ecc49007bd4322b8dba353a36764736f6c634300060c00334669786564506f696e743a3a6672616374696f6e3a206469766973696f6e206279207a65726f536166654d6174683a206d756c7469706c69636174696f6e206f766572666c6f77",
  "immutableReferences": {
    "3850": [
      {
        "length": 32,
        "start": 1098
      },
      {
        "length": 32,
        "start": 2188
      }
    ]
  },
  "source": "/*\n    1.1.7\n*/\n// SPDX-License-Identifier: MIT\n\npragma solidity ^0.6.12;\n\nimport \"../interfaces/AggregatorV3Interface.sol\";\nimport \"../libraries/Ownable.sol\";\nimport \"../interfaces/IOracle.sol\";\nimport \"../interfaces/IUniswapV2Pair.sol\";\nimport \"../libraries/UniswapV2OracleLibrary.sol\";\nimport \"../libraries/SafeERC20.sol\";\n\n/**\n * @title Oracle - the oracle contract for Spark\n * @author Sperax Dev Team\n * @notice this contract gets data from UniswapV2 pair and feed these data into the main contact of Spark, i.e. Spark.sol\n * @dev this contract draws insights from \"ExampleOracleSimple.sol\" by UniswapV2 team\n */\n\ncontract Oracle is IOracle, Ownable {\n    using SafeMath for *;\n\n    event Update(uint currPriceMA, uint currPricetime);\n\n    struct token0Pricetime {\n       uint32 timestamp;\n       uint price0Cumulative;\n    }\n\n    //\n    // Constants & Immutables\n    //\n    uint8 public constant FREQUENCY = 24;\n    IUniswapV2Pair private immutable _pair;\n\n    //\n    // Core State Variables\n    //\n    // the moving average price of token0 denominated in token1\n    // frequency = 24, default period = 1 hours ==> default timespan is 1 days\n    uint public override token0PriceMA;\n\n    //\n    // Auxilliary State Variables\n    //\n    // the per-period cumulative pricetimes, i.e. the UniswapV2 price*time values, of token0\n    token0Pricetime[FREQUENCY+1] public token0Pricetimes;\n    uint32 public pricetimeOldestIndex;\n    // the timstamp of the lastest price update\n    uint32 public override lastUpdateTime;\n    // the default period of one price update is 1 hours\n    uint32 public override period = 1 hours;\n\tAggregatorV3Interface priceFeedETH;\n\tAggregatorV3Interface priceFeedUSDC;\n\n\taddress public USDCAddr = 0xA0b86991c6218b36c1d19D4a2e9Eb0cE3606eB48;\n\n\n\n    //\n    // Constructor\n    //\n    constructor(address pair_) public {\n\t\tpriceFeedETH = AggregatorV3Interface(0x9326BFA02ADD2366b30bacB125260Af641031331);\n        priceFeedUSDC = AggregatorV3Interface(0x9211c6b3BF41A10F78539810Cf5c64e1BB78Ec60);\n        uint32 constructTime = uint32(now % 2 ** 32);\n        _pair = IUniswapV2Pair(pair_);\n        lastUpdateTime = constructTime;\n\n        // obtain the cumulative pricetime from uniswapv2 pair deployment to now\n        (uint pricetimeCorrection, , ) = UniswapV2OracleLibrary.currentCumulativePrices(pair_);\n\n        // set up initial conditions\n        // assume that 1 ETH = 2500 USD, 1 SPA = 0.02 USD, so 1 ETH = 125,000 SPA\n        uint iniToken0Price = 125000;\n        uint resolution = 112;\n        uint unitPricetime = (iniToken0Price << resolution) * period;\n        uint basePricetime = unitPricetime * FREQUENCY;\n\n        // simulate the pricetimes of the past 7 days, including necessary correction\n        token0PriceMA = iniToken0Price << resolution;\n        for (uint i = 0; i < (FREQUENCY+1); i++) {\n            token0Pricetimes[i].price0Cumulative = unitPricetime\n                                                   .mul(i)\n                                                   .add(pricetimeCorrection)\n                                                   .sub(basePricetime);\n            token0Pricetimes[i].timestamp = constructTime - period * uint32(FREQUENCY - i);\n        }\n    }\n\n    //\n    // Getter Function\n    //\n    /**\n     * @notice get the address of the token pair pool\n     * @return the pair pool address\n     */\n    function getPairAddr() external view returns (address) {\n        return address(_pair);\n    }\n\n    //\n    // Owner Only Function: changePeriod\n    //\n\n    /**\n     * @notice change updating period\n     * @dev the frequency of update always remains the same\n     * @param newPeriod new minimal period in between two updates\n     */\n    function changePeriod(uint32 newPeriod) external onlyOwner {\n        period = newPeriod;\n    }\n\n\n    //\n    // Core Functions\n    //\n\n\tfunction getETHPrice() public view returns (int) {\n\t\t(\n\t\t\tuint80 roundID,\n\t\t\tint price,\n\t\t\tuint startedAt,\n\t\t\tuint timeStamp,\n\t\t\tuint80 answeredInRound\n\t\t) = priceFeedETH.latestRoundData();\n\t\treturn price;\n\t}\n\tfunction getUSDCPrice() public view returns (int) {\n\t\t(\n\t\t\tuint80 roundID,\n\t\t\tint price,\n\t\t\tuint startedAt,\n\t\t\tuint timeStamp,\n\t\t\tuint80 answeredInRound\n\t\t) = priceFeedUSDC.latestRoundData();\n\t\treturn price;\n\t}\n\tfunction getSPAPrice() public view override returns (int) {\n\t\tint ETHPrice = getETHPrice();\n\t\treturn int(token0PriceMA.mul(uint(ETHPrice)));\n\t}\n\tfunction price(address tokenAddr) public view override returns (int) {\n\t\tif (tokenAddr == USDCAddr) {\n\t\t\treturn getUSDCPrice();\n\t\t}\n\t}\n\n    /**\n     * @notice update the price of token0 to the latest\n     * @dev the price would be updated only once per period time\n     */\n    function update() external override {\n        // check if enough time has elapsed for a new update\n        uint32 currTime = uint32(now % 2 ** 32);\n        uint32 timeElapsed = currTime - lastUpdateTime;\n        require(timeElapsed >= period, \"update() : the time elapsed is too short.\");\n\n\n        // query the lastest pricetime\n        (uint price0Cumulative, , ) = UniswapV2OracleLibrary.currentCumulativePrices(address(_pair));\n\n        // update the past-7-day pricetime array and record\n        uint32 indexNew = pricetimeOldestIndex;\n        uint32 indexOld = (indexNew + 1) % (FREQUENCY+1);\n        token0Pricetimes[indexNew].price0Cumulative = price0Cumulative;\n        token0Pricetimes[indexNew].timestamp = currTime;\n\n        // calculate the new moving average price of token0\n        uint timeElapsedMA =\n            uint(token0Pricetimes[indexNew].timestamp - token0Pricetimes[indexOld].timestamp); // notice: overflow is preferred\n        token0PriceMA = token0Pricetimes[indexNew].price0Cumulative\n                         .sub(token0Pricetimes[indexOld].price0Cumulative)\n                         .div(timeElapsedMA);\n\n        // update global status\n        lastUpdateTime = currTime;\n        pricetimeOldestIndex = indexOld;\n        emit Update(token0PriceMA, price0Cumulative);\n    }\n}\n",
  "sourcePath": "/Users/daweizhao/Documents/Sperax/USDs/USDs github/USDs/contracts/oracle/Oracle.sol",
  "compiler": {
    "name": "solc",
    "version": "0.6.12+commit.27d51765.Emscripten.clang"
  },
  "schemaVersion": "3.3.4",
  "updatedAt": "2021-06-11T16:34:24.604Z",
  "devdoc": {
    "author": "Sperax Dev Team",
    "details": "this contract draws insights from \"ExampleOracleSimple.sol\" by UniswapV2 team",
    "kind": "dev",
    "methods": {
      "changePeriod(uint32)": {
        "details": "the frequency of update always remains the same",
        "params": {
          "newPeriod": "new minimal period in between two updates"
        }
      },
      "getPairAddr()": {
        "returns": {
          "_0": "the pair pool address"
        }
      },
      "isOwner()": {
        "details": "Returns true if the caller is the current owner."
      },
      "owner()": {
        "details": "Returns the address of the current owner."
      },
      "renounceOwnership()": {
        "details": "Leaves the contract without owner. It will not be possible to call `onlyOwner` functions anymore. Can only be called by the current owner. NOTE: Renouncing ownership will leave the contract without an owner, thereby removing any functionality that is only available to the owner."
      },
      "transferOwnership(address)": {
        "details": "Transfers ownership of the contract to a new account (`newOwner`). Can only be called by the current owner."
      },
      "update()": {
        "details": "the price would be updated only once per period time"
      }
    },
    "title": "Oracle - the oracle contract for Spark",
    "version": 1
  },
  "userdoc": {
    "kind": "user",
    "methods": {
      "changePeriod(uint32)": {
        "notice": "change updating period"
      },
      "getPairAddr()": {
        "notice": "get the address of the token pair pool"
      },
      "update()": {
        "notice": "update the price of token0 to the latest"
      }
    },
    "notice": "this contract gets data from UniswapV2 pair and feed these data into the main contact of Spark, i.e. Spark.sol",
    "version": 1
  }
}