{
  "abi": [
    {
      "anonymous": false,
      "inputs": [
        {
          "indexed": true,
          "internalType": "address",
          "name": "previousOwner",
          "type": "address"
        },
        {
          "indexed": true,
          "internalType": "address",
          "name": "newOwner",
          "type": "address"
        }
      ],
      "name": "OwnershipTransferred",
      "type": "event"
    },
    {
      "anonymous": false,
      "inputs": [
        {
          "indexed": false,
          "internalType": "uint256",
          "name": "USDsInOutRatio",
          "type": "uint256"
        },
        {
          "indexed": false,
          "internalType": "uint256",
          "name": "USDsOnflow_average",
          "type": "uint256"
        },
        {
          "indexed": false,
          "internalType": "uint256",
          "name": "USDsInflow_average",
          "type": "uint256"
        },
        {
          "indexed": false,
          "internalType": "uint32",
          "name": "timeStamp",
          "type": "uint32"
        },
        {
          "indexed": false,
          "internalType": "uint256",
          "name": "index",
          "type": "uint256"
        }
      ],
      "name": "USDsInOutRatioUpdated",
      "type": "event"
    },
    {
      "anonymous": false,
      "inputs": [
        {
          "indexed": false,
          "internalType": "address",
          "name": "_collateralAddr",
          "type": "address"
        },
        {
          "indexed": false,
          "internalType": "bool",
          "name": "_supported",
          "type": "bool"
        },
        {
          "indexed": false,
          "internalType": "contract AggregatorV3Interface",
          "name": "_priceFeed",
          "type": "address"
        },
        {
          "indexed": false,
          "internalType": "uint256",
          "name": "_price_prec",
          "type": "uint256"
        }
      ],
      "name": "collateralInfoChanged",
      "type": "event"
    },
    {
      "anonymous": false,
      "inputs": [
        {
          "indexed": false,
          "internalType": "uint32",
          "name": "newPeriod",
          "type": "uint32"
        }
      ],
      "name": "updatePeriodChanged",
      "type": "event"
    },
    {
      "inputs": [],
      "name": "ETHprice_prec",
      "outputs": [
        {
          "internalType": "uint256",
          "name": "",
          "type": "uint256"
        }
      ],
      "stateMutability": "view",
      "type": "function"
    },
    {
      "inputs": [],
      "name": "FREQUENCY",
      "outputs": [
        {
          "internalType": "uint8",
          "name": "",
          "type": "uint8"
        }
      ],
      "stateMutability": "view",
      "type": "function"
    },
    {
      "inputs": [],
      "name": "SPAaddr",
      "outputs": [
        {
          "internalType": "address",
          "name": "",
          "type": "address"
        }
      ],
      "stateMutability": "view",
      "type": "function"
    },
    {
      "inputs": [],
      "name": "SPAoracleBaseTokenAddr",
      "outputs": [
        {
          "internalType": "address",
          "name": "",
          "type": "address"
        }
      ],
      "stateMutability": "view",
      "type": "function"
    },
    {
      "inputs": [],
      "name": "SPAoraclePool",
      "outputs": [
        {
          "internalType": "address",
          "name": "",
          "type": "address"
        }
      ],
      "stateMutability": "view",
      "type": "function"
    },
    {
      "inputs": [],
      "name": "SPAprice_prec",
      "outputs": [
        {
          "internalType": "uint256",
          "name": "",
          "type": "uint256"
        }
      ],
      "stateMutability": "view",
      "type": "function"
    },
    {
      "inputs": [],
      "name": "USDsInOutRatio",
      "outputs": [
        {
          "internalType": "uint256",
          "name": "",
          "type": "uint256"
        }
      ],
      "stateMutability": "view",
      "type": "function"
    },
    {
      "inputs": [],
      "name": "USDsInOutRatio_prec",
      "outputs": [
        {
          "internalType": "uint32",
          "name": "",
          "type": "uint32"
        }
      ],
      "stateMutability": "view",
      "type": "function"
    },
    {
      "inputs": [
        {
          "internalType": "uint256",
          "name": "",
          "type": "uint256"
        }
      ],
      "name": "USDsInflow",
      "outputs": [
        {
          "internalType": "uint256",
          "name": "",
          "type": "uint256"
        }
      ],
      "stateMutability": "view",
      "type": "function"
    },
    {
      "inputs": [
        {
          "internalType": "uint256",
          "name": "",
          "type": "uint256"
        }
      ],
      "name": "USDsOnflow",
      "outputs": [
        {
          "internalType": "uint256",
          "name": "",
          "type": "uint256"
        }
      ],
      "stateMutability": "view",
      "type": "function"
    },
    {
      "inputs": [],
      "name": "USDsOracleBaseTokenAddr",
      "outputs": [
        {
          "internalType": "address",
          "name": "",
          "type": "address"
        }
      ],
      "stateMutability": "view",
      "type": "function"
    },
    {
      "inputs": [],
      "name": "USDsOraclePool",
      "outputs": [
        {
          "internalType": "address",
          "name": "",
          "type": "address"
        }
      ],
      "stateMutability": "view",
      "type": "function"
    },
    {
      "inputs": [],
      "name": "USDsPrice_prec",
      "outputs": [
        {
          "internalType": "uint256",
          "name": "",
          "type": "uint256"
        }
      ],
      "stateMutability": "view",
      "type": "function"
    },
    {
      "inputs": [],
      "name": "VaultAddr",
      "outputs": [
        {
          "internalType": "address",
          "name": "",
          "type": "address"
        }
      ],
      "stateMutability": "view",
      "type": "function"
    },
    {
      "inputs": [],
      "name": "WETH9",
      "outputs": [
        {
          "internalType": "address",
          "name": "",
          "type": "address"
        }
      ],
      "stateMutability": "view",
      "type": "function"
    },
    {
      "inputs": [
        {
          "internalType": "uint32",
          "name": "newPeriod",
          "type": "uint32"
        }
      ],
      "name": "changePeriod",
      "outputs": [],
      "stateMutability": "nonpayable",
      "type": "function"
    },
    {
      "inputs": [
        {
          "internalType": "address",
          "name": "collateralAddr",
          "type": "address"
        }
      ],
      "name": "getCollateralPrice",
      "outputs": [
        {
          "internalType": "uint256",
          "name": "",
          "type": "uint256"
        }
      ],
      "stateMutability": "view",
      "type": "function"
    },
    {
      "inputs": [
        {
          "internalType": "address",
          "name": "collateralAddr",
          "type": "address"
        }
      ],
      "name": "getCollateralPrice_prec",
      "outputs": [
        {
          "internalType": "uint256",
          "name": "",
          "type": "uint256"
        }
      ],
      "stateMutability": "view",
      "type": "function"
    },
    {
      "inputs": [],
      "name": "getETHprice",
      "outputs": [
        {
          "internalType": "uint256",
          "name": "",
          "type": "uint256"
        }
      ],
      "stateMutability": "view",
      "type": "function"
    },
    {
      "inputs": [],
      "name": "getETHprice_prec",
      "outputs": [
        {
          "internalType": "uint256",
          "name": "",
          "type": "uint256"
        }
      ],
      "stateMutability": "view",
      "type": "function"
    },
    {
      "inputs": [],
      "name": "getSPAprice",
      "outputs": [
        {
          "internalType": "uint256",
          "name": "",
          "type": "uint256"
        }
      ],
      "stateMutability": "view",
      "type": "function"
    },
    {
      "inputs": [],
      "name": "getSPAprice_prec",
      "outputs": [
        {
          "internalType": "uint256",
          "name": "",
          "type": "uint256"
        }
      ],
      "stateMutability": "view",
      "type": "function"
    },
    {
      "inputs": [],
      "name": "getUSDsPrice",
      "outputs": [
        {
          "internalType": "uint256",
          "name": "",
          "type": "uint256"
        }
      ],
      "stateMutability": "view",
      "type": "function"
    },
    {
      "inputs": [],
      "name": "getUSDsPrice_average",
      "outputs": [
        {
          "internalType": "uint256",
          "name": "",
          "type": "uint256"
        }
      ],
      "stateMutability": "view",
      "type": "function"
    },
    {
      "inputs": [],
      "name": "getUSDsPrice_prec",
      "outputs": [
        {
          "internalType": "uint256",
          "name": "",
          "type": "uint256"
        }
      ],
      "stateMutability": "view",
      "type": "function"
    },
    {
      "inputs": [],
      "name": "initialize",
      "outputs": [],
      "stateMutability": "nonpayable",
      "type": "function"
    },
    {
      "inputs": [],
      "name": "lastUpdateTime",
      "outputs": [
        {
          "internalType": "uint32",
          "name": "",
          "type": "uint32"
        }
      ],
      "stateMutability": "view",
      "type": "function"
    },
    {
      "inputs": [],
      "name": "owner",
      "outputs": [
        {
          "internalType": "address",
          "name": "",
          "type": "address"
        }
      ],
      "stateMutability": "view",
      "type": "function"
    },
    {
      "inputs": [],
      "name": "renounceOwnership",
      "outputs": [],
      "stateMutability": "nonpayable",
      "type": "function"
    },
    {
      "inputs": [
        {
          "internalType": "address",
          "name": "newOwner",
          "type": "address"
        }
      ],
      "name": "transferOwnership",
      "outputs": [],
      "stateMutability": "nonpayable",
      "type": "function"
    },
    {
      "inputs": [
        {
          "internalType": "address",
          "name": "_collateralAddr",
          "type": "address"
        },
        {
          "internalType": "bool",
          "name": "_supported",
          "type": "bool"
        },
        {
          "internalType": "contract AggregatorV3Interface",
          "name": "_priceFeed",
          "type": "address"
        },
        {
          "internalType": "uint256",
          "name": "_price_prec",
          "type": "uint256"
        }
      ],
      "name": "updateCollateralInfo",
      "outputs": [],
      "stateMutability": "nonpayable",
      "type": "function"
    },
    {
      "inputs": [],
      "name": "updateInOutRatio",
      "outputs": [],
      "stateMutability": "nonpayable",
      "type": "function"
    },
    {
      "inputs": [],
      "name": "updateNextIndex",
      "outputs": [
        {
          "internalType": "uint32",
          "name": "",
          "type": "uint32"
        }
      ],
      "stateMutability": "view",
      "type": "function"
    },
    {
      "inputs": [
        {
          "internalType": "address",
          "name": "_SPAoracleBaseTokenAddr",
          "type": "address"
        },
        {
          "internalType": "address",
          "name": "_USDsOracleBaseTokenAddr",
          "type": "address"
        },
        {
          "internalType": "address",
          "name": "_USDsOraclePool",
          "type": "address"
        },
        {
          "internalType": "address",
          "name": "_SPAoraclePool",
          "type": "address"
        }
      ],
      "name": "updateOraclePoolsAddress",
      "outputs": [],
      "stateMutability": "nonpayable",
      "type": "function"
    },
    {
      "inputs": [],
      "name": "updatePeriod",
      "outputs": [
        {
          "internalType": "uint32",
          "name": "",
          "type": "uint32"
        }
      ],
      "stateMutability": "view",
      "type": "function"
    },
    {
      "inputs": [
        {
          "internalType": "address",
          "name": "_VaultAddr",
          "type": "address"
        }
      ],
      "name": "updateVaultAddress",
      "outputs": [],
      "stateMutability": "nonpayable",
      "type": "function"
    }
  ],
  "bytecode": "608060405234801561001057600080fd5b5061227c806100206000396000f3fe608060405234801561001057600080fd5b506004361061021c5760003560e01c80638da5cb5b11610125578063c8f33c91116100ad578063d32f21821161007c578063d32f21821461039d578063d37b5df014610247578063d79fd7a2146103b0578063f2fde38b146103b8578063f309eac2146103cb5761021c565b8063c8f33c9114610367578063cfb1528e1461036f578063d032803414610377578063d2de2f851461038a5761021c565b8063bdf4da6e116100f4578063bdf4da6e14610332578063c229d7501461033a578063c54149051461034f578063c7e524f714610357578063c8d3fe9a1461035f5761021c565b80638da5cb5b14610305578063a7e024981461030d578063a83627de14610315578063bcb083c11461032a5761021c565b80634d07640e116101a85780636c6f1865116101775780636c6f1865146102cf5780636f2a2b0f14610294578063715018a6146102e25780638129fc1c146102ea5780638d1a0709146102f25761021c565b80634d07640e146102a457806351a40994146102ac578063627dc9c1146102bf57806367f82edb146102c75761021c565b8063298cc9f1116101ef578063298cc9f1146102575780632c428e361461026c5780633f1532791461028157806341b2a0f1146102945780634aa4a4fc1461029c5761021c565b806306c102111461022157806308432eea1461023f5780630961d57b146102475780630b71f2161461024f575b600080fd5b6102296103d3565b6040516102369190612196565b60405180910390f35b6102296103e2565b61022961047f565b61022961048b565b61026a610265366004611cc6565b610491565b005b61027461053e565b6040516102369190611d3b565b61022961028f366004611b09565b61054d565b6102296105dc565b6102746105e8565b610229610600565b6102296102ba366004611b09565b610608565b610229610690565b610274610706565b6102296102dd366004611c96565b610715565b61026a610729565b61026a6107b2565b610229610300366004611c96565b6108ad565b6102746108ba565b6102746108c9565b61031d6108d8565b60405161023691906121cb565b6102746108eb565b610274610903565b610342610912565b60405161023691906121dc565b610229610917565b61031d610935565b610274610941565b61031d610950565b61031d610964565b61026a610385366004611b25565b61096b565b61026a610398366004611b09565b6109fa565b61026a6103ab366004611b80565b610a5b565b61026a610b36565b61026a6103c6366004611b09565b610ded565b610229610eae565b60006103dd610eb6565b905090565b60685460009081906103ff906001600160a01b0316610e10610f4a565b606754606b5491925060009161043191600285900b91670de0b6b3a7640000916001600160a01b0390811691166110e2565b606b5490915060009061047790610450906001600160a01b03166111d4565b606b5461047190859061046b906001600160a01b031661125d565b90611360565b906113a3565b935050505090565b670de0b6b3a764000081565b60655481565b6104996113d5565b6001600160a01b03166104aa6108ba565b6001600160a01b0316146104d95760405162461bcd60e51b81526004016104d090612070565b60405180910390fd5b6066805463ffffffff60401b1916600160401b63ffffffff848116820292909217928390556040517f8bcfc45b9c73e761c499d9fefd8609900ca8b0f464b3f250f2085d1acc5253e39361053393929004909116906121cb565b60405180910390a150565b606b546001600160a01b031681565b6000610557611a3f565b506001600160a01b038281166000908152609e6020908152604091829020825160808101845281548086168252600160a01b900460ff16151592810183905260018201549094169284019290925260029091015460608301526105cc5760405162461bcd60e51b81526004016104d090611ee0565b6105d5836111d4565b9392505050565b670de0b6b3a764000090565b73d0a1e359811322d97991e03f863a0c30c2cf029c81565b6305f5e10081565b6000610612611a3f565b506001600160a01b038281166000908152609e6020908152604091829020825160808101845281548086168252600160a01b900460ff16151592810183905260018201549094169284019290925260029091015460608301526106875760405162461bcd60e51b81526004016104d090611e09565b6105d58361125d565b60695460009081906106ad906001600160a01b0316610e10610f4a565b606a549091506000906106ee90600284900b90670de0b6b3a76400009073bb5e27ae27a6a7d092b181fbddac1a1004e9adff906001600160a01b03166110e2565b905060006104776305f5e1006104718461046b610eb6565b6068546001600160a01b031681565b606c816019811061072257fe5b0154905081565b6107316113d5565b6001600160a01b03166107426108ba565b6001600160a01b0316146107685760405162461bcd60e51b81526004016104d090612070565b6033546040516000916001600160a01b0316907f8be0079c531659141344cd1fd0a4f28419497f9722a3daafe3b4186f6b6457e0908390a3603380546001600160a01b0319169055565b600054610100900460ff16806107cb57506107cb6113d9565b806107d9575060005460ff16155b6107f55760405162461bcd60e51b81526004016104d090611f32565b600054610100900460ff16158015610820576000805460ff1961ff0019909116610100171660011790555b6108286113ea565b6066805463ffffffff60401b1916690e100000000000000000179055640100000000426066805467ffffffff0000000019166401000000009390920663ffffffff1692909202176bffffffffffffffffffffffff16739326bfa02add2366b30bacb125260af64103133160601b17905580156108aa576000805461ff00191690555b50565b6085816019811061072257fe5b6033546001600160a01b031690565b606a546001600160a01b031681565b606654600160401b900463ffffffff1681565b73bb5e27ae27a6a7d092b181fbddac1a1004e9adff81565b6069546001600160a01b031681565b601881565b60685460009081906103ff906001600160a01b031662015180610f4a565b60665463ffffffff1681565b6067546001600160a01b031681565b606654640100000000900463ffffffff1681565b620f424081565b6109736113d5565b6001600160a01b03166109846108ba565b6001600160a01b0316146109aa5760405162461bcd60e51b81526004016104d090612070565b606a80546001600160a01b039586166001600160a01b031991821617909155606b805494861694821694909417909355606880549285169284169290921790915560698054919093169116179055565b610a026113d5565b6001600160a01b0316610a136108ba565b6001600160a01b031614610a395760405162461bcd60e51b81526004016104d090612070565b606780546001600160a01b0319166001600160a01b0392909216919091179055565b610a636113d5565b6001600160a01b0316610a746108ba565b6001600160a01b031614610a9a5760405162461bcd60e51b81526004016104d090612070565b6001600160a01b038481166000818152609e60205260409081902080546001600160a01b031990811690931760ff60a01b1916600160a01b881515021781556001810180549093169386169390931790915560028201839055517f9ce8daa3b6ddb1b45182c5db00c581f637e2373a74e2d343d1c4999aaa5224f090610b27908790879087908790611d4f565b60405180910390a15050505050565b60665463ffffffff4281169164010000000090041680820390821015610b6e5760405162461bcd60e51b81526004016104d090611f80565b60665463ffffffff600160401b90910481169082161015610ba15760405162461bcd60e51b81526004016104d0906120f8565b6066546067546040805163736bf59160e01b8152905163ffffffff9384169360196001860190911606926001600160a01b03169163736bf591916004808301926020929190829003018186803b158015610bfa57600080fd5b505afa158015610c0e573d6000803e3d6000fd5b505050506040513d601f19601f82011682018060405250810190610c329190611cae565b606c8363ffffffff1660198110610c4557fe5b015560675460408051630abddbe760e01b815290516001600160a01b0390921691630abddbe791600480820192602092909190829003018186803b158015610c8c57600080fd5b505afa158015610ca0573d6000803e3d6000fd5b505050506040513d601f19601f82011682018060405250810190610cc49190611cae565b60858363ffffffff1660198110610cd757fe5b01556000610d0e606c63ffffffff841660198110610cf157fe5b0154606c8563ffffffff1660198110610d0657fe5b01549061147c565b90506000610d3d60858463ffffffff1660198110610d2857fe5b015460858663ffffffff1660198110610d0657fe5b905060655460001415610d5657620f4240606555610d6b565b610d678261047183620f4240611360565b6065555b6066805463ffffffff85811663ffffffff19828b1664010000000090810267ffffffff0000000019909516949094171617928390556065546040517fb5c9438f23a276e24f58b423b7b8322a09f4dcd8be672dc0ec2c5f16edf6844d94610ddd94929387938993920416908a9061219f565b60405180910390a1505050505050565b610df56113d5565b6001600160a01b0316610e066108ba565b6001600160a01b031614610e2c5760405162461bcd60e51b81526004016104d090612070565b6001600160a01b038116610e525760405162461bcd60e51b81526004016104d090611dc3565b6033546040516001600160a01b038084169216907f8be0079c531659141344cd1fd0a4f28419497f9722a3daafe3b4186f6b6457e090600090a3603380546001600160a01b0319166001600160a01b0392909216919091179055565b6305f5e10090565b6000806066600c9054906101000a90046001600160a01b03166001600160a01b031663feaf968c6040518163ffffffff1660e01b815260040160a06040518083038186803b158015610f0757600080fd5b505afa158015610f1b573d6000803e3d6000fd5b505050506040513d601f19601f82011682018060405250810190610f3f9190611cea565b509194505050505090565b600063ffffffff8216610f6f5760405162461bcd60e51b81526004016104d090611ec4565b60408051600280825260608083018452926020830190803683370190505090508281600081518110610f9d57fe5b602002602001019063ffffffff16908163ffffffff1681525050600081600181518110610fc657fe5b63ffffffff9092166020928302919091019091015260405163883bdbfd60e01b81526060906001600160a01b0386169063883bdbfd9061100a908590600401611d79565b60006040518083038186803b15801561102257600080fd5b505afa158015611036573d6000803e3d6000fd5b505050506040513d6000823e601f3d908101601f1916820160405261105e9190810190611bd4565b50905060008160008151811061107057fe5b60200260200101518260018151811061108557fe5b60200260200101510390508463ffffffff168160060b816110a257fe5b05935060008160060b1280156110cc57508463ffffffff168160060b816110c557fe5b0760060b15155b156110d957600019909301925b50505092915050565b6000806110ee866114a4565b90506001600160801b036001600160a01b0382161161115d576001600160a01b038082168002908481169086161061113d57611138600160c01b876001600160801b0316836117bd565b611155565b61115581876001600160801b0316600160c01b6117bd565b9250506111cb565b60006111776001600160a01b03831680600160401b6117bd565b9050836001600160a01b0316856001600160a01b0316106111af576111aa600160801b876001600160801b0316836117bd565b6111c7565b6111c781876001600160801b0316600160801b6117bd565b9250505b50949350505050565b60006111de611a3f565b506001600160a01b038281166000908152609e6020908152604091829020825160808101845281548086168252600160a01b900460ff16151592810183905260018201549094169284019290925260029091015460608301526112535760405162461bcd60e51b81526004016104d0906120a5565b6060015192915050565b6000611267611a3f565b506001600160a01b038281166000908152609e6020908152604091829020825160808101845281548086168252600160a01b900460ff16151592810183905260018201549094169284019290925260029091015460608301526112dc5760405162461bcd60e51b81526004016104d090612148565b600081604001516001600160a01b031663feaf968c6040518163ffffffff1660e01b815260040160a06040518083038186803b15801561131b57600080fd5b505afa15801561132f573d6000803e3d6000fd5b505050506040513d601f19601f820116820180604052508101906113539190611cea565b5091979650505050505050565b60008261136f5750600061139d565b8282028284828161137c57fe5b041461139a5760405162461bcd60e51b81526004016104d090611ff8565b90505b92915050565b60008082116113c45760405162461bcd60e51b81526004016104d090611e8d565b8183816113cd57fe5b049392505050565b3390565b60006113e430611841565b15905090565b600054610100900460ff168061140357506114036113d9565b80611411575060005460ff16155b61142d5760405162461bcd60e51b81526004016104d090611f32565b600054610100900460ff16158015611458576000805460ff1961ff0019909116610100171660011790555b611460611847565b6114686118c8565b80156108aa576000805461ff001916905550565b60008282111561149e5760405162461bcd60e51b81526004016104d090611e56565b50900390565b60008060008360020b126114bb578260020b6114c3565b8260020b6000035b9050620d89e88111156114e85760405162461bcd60e51b81526004016104d090611fdd565b6000600182166114fc57600160801b61150e565b6ffffcb933bd6fad37aa2d162d1a5940015b70ffffffffffffffffffffffffffffffffff1690506002821615611542576ffff97272373d413259a46990580e213a0260801c5b6004821615611561576ffff2e50f5f656932ef12357cf3c7fdcc0260801c5b6008821615611580576fffe5caca7e10e4e61c3624eaa0941cd00260801c5b601082161561159f576fffcb9843d60f6159c9db58835c9266440260801c5b60208216156115be576fff973b41fa98c081472e6896dfb254c00260801c5b60408216156115dd576fff2ea16466c96a3843ec78b326b528610260801c5b60808216156115fc576ffe5dee046a99a2a811c461f1969c30530260801c5b61010082161561161c576ffcbe86c7900a88aedcffc83b479aa3a40260801c5b61020082161561163c576ff987a7253ac413176f2b074cf7815e540260801c5b61040082161561165c576ff3392b0822b70005940c7a398e4b70f30260801c5b61080082161561167c576fe7159475a2c29b7443b29c7fa6e889d90260801c5b61100082161561169c576fd097f3bdfd2022b8845ad8f792aa58250260801c5b6120008216156116bc576fa9f746462d870fdf8a65dc1f90e061e50260801c5b6140008216156116dc576f70d869a156d2a1b890bb3df62baf32f70260801c5b6180008216156116fc576f31be135f97d08fd981231505542fcfa60260801c5b6201000082161561171d576f09aa508b5b7a84e1c677de54f3e99bc90260801c5b6202000082161561173d576e5d6af8dedb81196699c329225ee6040260801c5b6204000082161561175c576d2216e584f5fa1ea926041bedfe980260801c5b62080000821615611779576b048a170391f7dc42444e8fa20260801c5b60008460020b131561179457806000198161179057fe5b0490505b6401000000008106156117a85760016117ab565b60005b60ff16602082901c0192505050919050565b60008060006117cc86866119a2565b91509150600084806117da57fe5b8688099050828111156117ee576001820391505b91829003918161180c5784838161180157fe5b0493505050506105d5565b84821061182b5760405162461bcd60e51b81526004016104d090612039565b6118368383876119cf565b979650505050505050565b3b151590565b600054610100900460ff168061186057506118606113d9565b8061186e575060005460ff16155b61188a5760405162461bcd60e51b81526004016104d090611f32565b600054610100900460ff16158015611468576000805460ff1961ff00199091166101001716600117905580156108aa576000805461ff001916905550565b600054610100900460ff16806118e157506118e16113d9565b806118ef575060005460ff16155b61190b5760405162461bcd60e51b81526004016104d090611f32565b600054610100900460ff16158015611936576000805460ff1961ff0019909116610100171660011790555b60006119406113d5565b603380546001600160a01b0319166001600160a01b038316908117909155604051919250906000907f8be0079c531659141344cd1fd0a4f28419497f9722a3daafe3b4186f6b6457e0908290a35080156108aa576000805461ff001916905550565b60008080600019848609905083850292508281039150828110156119c7576001820391505b509250929050565b600081810382168083816119df57fe5b0492508085816119eb57fe5b0494508081600003816119fa57fe5b60028581038087028203028087028203028087028203028087028203028087028203028087028203029586029003909402930460010193909302939093010292915050565b60408051608081018252600080825260208201819052918101829052606081019190915290565b600082601f830112611a76578081fd5b8151611a89611a8482612211565b6121ea565b818152915060208083019084810181840286018201871015611aaa57600080fd5b60005b84811015611ad2578151611ac081612231565b84529282019290820190600101611aad565b505050505092915050565b8051600681900b811461139d57600080fd5b805169ffffffffffffffffffff8116811461139d57600080fd5b600060208284031215611b1a578081fd5b813561139a81612231565b60008060008060808587031215611b3a578283fd5b8435611b4581612231565b93506020850135611b5581612231565b92506040850135611b6581612231565b91506060850135611b7581612231565b939692955090935050565b60008060008060808587031215611b95578384fd5b8435611ba081612231565b935060208501358015158114611bb4578384fd5b92506040850135611bc481612231565b9396929550929360600135925050565b60008060408385031215611be6578182fd5b825167ffffffffffffffff80821115611bfd578384fd5b818501915085601f830112611c10578384fd5b8151611c1e611a8482612211565b80828252602080830192508086018a828387028901011115611c3e578889fd5b8896505b84871015611c6857611c548b82611add565b845260019690960195928101928101611c42565b508801519096509350505080821115611c7f578283fd5b50611c8c85828601611a66565b9150509250929050565b600060208284031215611ca7578081fd5b5035919050565b600060208284031215611cbf578081fd5b5051919050565b600060208284031215611cd7578081fd5b813563ffffffff8116811461139a578182fd5b600080600080600060a08688031215611d01578081fd5b611d0b8787611aef565b9450602086015193506040860151925060608601519150611d2f8760808801611aef565b90509295509295909350565b6001600160a01b0391909116815260200190565b6001600160a01b039485168152921515602084015292166040820152606081019190915260800190565b6020808252825182820181905260009190848201906040850190845b81811015611db757835163ffffffff1683529284019291840191600101611d95565b50909695505050505050565b60208082526026908201527f4f776e61626c653a206e6577206f776e657220697320746865207a65726f206160408201526564647265737360d01b606082015260800190565b6020808252602d908201527f676574436f6c6c61746572616c50726963653a20436f6c6c61746572616c206e60408201526c37ba1039bab83837b93a32b21760991b606082015260800190565b6020808252601e908201527f536166654d6174683a207375627472616374696f6e206f766572666c6f770000604082015260600190565b6020808252601a908201527f536166654d6174683a206469766973696f6e206279207a65726f000000000000604082015260600190565b602080825260029082015261042560f41b604082015260600190565b60208082526032908201527f676574436f6c6c61746572616c50726963655f707265633a20436f6c6c6174656040820152713930b6103737ba1039bab83837b93a32b21760711b606082015260800190565b6020808252602e908201527f496e697469616c697a61626c653a20636f6e747261637420697320616c72656160408201526d191e481a5b9a5d1a585b1a5e995960921b606082015260800190565b6020808252603a908201527f757064617465496e4f7574526174696f3b206572726f72206c6173742075706460408201527f6174652068617070656e656420696e2074686520667574757265000000000000606082015260800190565b6020808252600190820152601560fa1b604082015260600190565b60208082526021908201527f536166654d6174683a206d756c7469706c69636174696f6e206f766572666c6f6040820152607760f81b606082015260800190565b6020808252601a908201527f46756c6c4d6174683a2046554c4c4449565f4f564552464c4f57000000000000604082015260600190565b6020808252818101527f4f776e61626c653a2063616c6c6572206973206e6f7420746865206f776e6572604082015260600190565b60208082526033908201527f5f676574436f6c6c61746572616c50726963655f707265633a20436f6c6c617460408201527232b930b6103737ba1039bab83837b93a32b21760691b606082015260800190565b60208082526030908201527f757064617465496e4f7574526174696f3a207468652074696d6520656c61707360408201526f32b21034b9903a37b79039b437b93a1760811b606082015260800190565b6020808252602e908201527f5f676574436f6c6c61746572616c50726963653a20436f6c6c61746572616c2060408201526d3737ba1039bab83837b93a32b21760911b606082015260800190565b90815260200190565b9485526020850193909352604084019190915263ffffffff908116606084015216608082015260a00190565b63ffffffff91909116815260200190565b60ff91909116815260200190565b60405181810167ffffffffffffffff8111828210171561220957600080fd5b604052919050565b600067ffffffffffffffff821115612227578081fd5b5060209081020190565b6001600160a01b03811681146108aa57600080fdfea2646970667358221220aca8ee421c24b326bf2db9840367678ee0ef545e466201ef645f4b183399ee9364736f6c634300060c0033",
  "bytecodeSha1": "4d9cb75bba8085e0ba32a50021c6cb1c22af8653",
  "compiler": {
    "evm_version": "istanbul",
    "optimizer": {
      "enabled": true,
      "runs": 200
    },
    "version": "0.6.12+commit.27d51765"
  },
  "contractName": "Oracle",
  "language": "Solidity",
  "natspec": {
    "author": "Sperax Dev Team",
    "details": "this contract draws insights from \"ExampleOracleSimple.sol\" by UniswapV2 team",
    "kind": "dev",
    "methods": {
      "changePeriod(uint32)": {
        "details": "the frequency of update always remains the same",
        "notice": "change updatePeriod",
        "params": {
          "newPeriod": "new minimal updatePeriod in between two updates"
        }
      },
      "owner()": {
        "details": "Returns the address of the current owner."
      },
      "renounceOwnership()": {
        "details": "Leaves the contract without owner. It will not be possible to call `onlyOwner` functions anymore. Can only be called by the current owner. NOTE: Renouncing ownership will leave the contract without an owner, thereby removing any functionality that is only available to the owner."
      },
      "transferOwnership(address)": {
        "details": "Transfers ownership of the contract to a new account (`newOwner`). Can only be called by the current owner."
      },
      "updateInOutRatio()": {
        "details": "the price would be updated only once per updatePeriod timeUSDsInOutRatio is accurate after 24 hours (one iteration)",
        "notice": "update the price of token0 to the latest"
      }
    },
    "notice": "this contract gets data from UniswapV2 pair and feed these data into the main contact of Spark, i.e. Spark.sol",
    "title": "Oracle - the oracle contract for Spark",
    "version": 1
  },
  "opcodes": "PUSH1 0x80 PUSH1 0x40 MSTORE CALLVALUE DUP1 ISZERO PUSH2 0x10 JUMPI PUSH1 0x0 DUP1 REVERT JUMPDEST POP PUSH1 0x4 CALLDATASIZE LT PUSH2 0x21C JUMPI PUSH1 0x0 CALLDATALOAD PUSH1 0xE0 SHR DUP1 PUSH4 0x8DA5CB5B GT PUSH2 0x125 JUMPI DUP1 PUSH4 0xC8F33C91 GT PUSH2 0xAD JUMPI DUP1 PUSH4 0xD32F2182 GT PUSH2 0x7C JUMPI DUP1 PUSH4 0xD32F2182 EQ PUSH2 0x39D JUMPI DUP1 PUSH4 0xD37B5DF0 EQ PUSH2 0x247 JUMPI DUP1 PUSH4 0xD79FD7A2 EQ PUSH2 0x3B0 JUMPI DUP1 PUSH4 0xF2FDE38B EQ PUSH2 0x3B8 JUMPI DUP1 PUSH4 0xF309EAC2 EQ PUSH2 0x3CB JUMPI PUSH2 0x21C JUMP JUMPDEST DUP1 PUSH4 0xC8F33C91 EQ PUSH2 0x367 JUMPI DUP1 PUSH4 0xCFB1528E EQ PUSH2 0x36F JUMPI DUP1 PUSH4 0xD0328034 EQ PUSH2 0x377 JUMPI DUP1 PUSH4 0xD2DE2F85 EQ PUSH2 0x38A JUMPI PUSH2 0x21C JUMP JUMPDEST DUP1 PUSH4 0xBDF4DA6E GT PUSH2 0xF4 JUMPI DUP1 PUSH4 0xBDF4DA6E EQ PUSH2 0x332 JUMPI DUP1 PUSH4 0xC229D750 EQ PUSH2 0x33A JUMPI DUP1 PUSH4 0xC5414905 EQ PUSH2 0x34F JUMPI DUP1 PUSH4 0xC7E524F7 EQ PUSH2 0x357 JUMPI DUP1 PUSH4 0xC8D3FE9A EQ PUSH2 0x35F JUMPI PUSH2 0x21C JUMP JUMPDEST DUP1 PUSH4 0x8DA5CB5B EQ PUSH2 0x305 JUMPI DUP1 PUSH4 0xA7E02498 EQ PUSH2 0x30D JUMPI DUP1 PUSH4 0xA83627DE EQ PUSH2 0x315 JUMPI DUP1 PUSH4 0xBCB083C1 EQ PUSH2 0x32A JUMPI PUSH2 0x21C JUMP JUMPDEST DUP1 PUSH4 0x4D07640E GT PUSH2 0x1A8 JUMPI DUP1 PUSH4 0x6C6F1865 GT PUSH2 0x177 JUMPI DUP1 PUSH4 0x6C6F1865 EQ PUSH2 0x2CF JUMPI DUP1 PUSH4 0x6F2A2B0F EQ PUSH2 0x294 JUMPI DUP1 PUSH4 0x715018A6 EQ PUSH2 0x2E2 JUMPI DUP1 PUSH4 0x8129FC1C EQ PUSH2 0x2EA JUMPI DUP1 PUSH4 0x8D1A0709 EQ PUSH2 0x2F2 JUMPI PUSH2 0x21C JUMP JUMPDEST DUP1 PUSH4 0x4D07640E EQ PUSH2 0x2A4 JUMPI DUP1 PUSH4 0x51A40994 EQ PUSH2 0x2AC JUMPI DUP1 PUSH4 0x627DC9C1 EQ PUSH2 0x2BF JUMPI DUP1 PUSH4 0x67F82EDB EQ PUSH2 0x2C7 JUMPI PUSH2 0x21C JUMP JUMPDEST DUP1 PUSH4 0x298CC9F1 GT PUSH2 0x1EF JUMPI DUP1 PUSH4 0x298CC9F1 EQ PUSH2 0x257 JUMPI DUP1 PUSH4 0x2C428E36 EQ PUSH2 0x26C JUMPI DUP1 PUSH4 0x3F153279 EQ PUSH2 0x281 JUMPI DUP1 PUSH4 0x41B2A0F1 EQ PUSH2 0x294 JUMPI DUP1 PUSH4 0x4AA4A4FC EQ PUSH2 0x29C JUMPI PUSH2 0x21C JUMP JUMPDEST DUP1 PUSH4 0x6C10211 EQ PUSH2 0x221 JUMPI DUP1 PUSH4 0x8432EEA EQ PUSH2 0x23F JUMPI DUP1 PUSH4 0x961D57B EQ PUSH2 0x247 JUMPI DUP1 PUSH4 0xB71F216 EQ PUSH2 0x24F JUMPI JUMPDEST PUSH1 0x0 DUP1 REVERT JUMPDEST PUSH2 0x229 PUSH2 0x3D3 JUMP JUMPDEST PUSH1 0x40 MLOAD PUSH2 0x236 SWAP2 SWAP1 PUSH2 0x2196 JUMP JUMPDEST PUSH1 0x40 MLOAD DUP1 SWAP2 SUB SWAP1 RETURN JUMPDEST PUSH2 0x229 PUSH2 0x3E2 JUMP JUMPDEST PUSH2 0x229 PUSH2 0x47F JUMP JUMPDEST PUSH2 0x229 PUSH2 0x48B JUMP JUMPDEST PUSH2 0x26A PUSH2 0x265 CALLDATASIZE PUSH1 0x4 PUSH2 0x1CC6 JUMP JUMPDEST PUSH2 0x491 JUMP JUMPDEST STOP JUMPDEST PUSH2 0x274 PUSH2 0x53E JUMP JUMPDEST PUSH1 0x40 MLOAD PUSH2 0x236 SWAP2 SWAP1 PUSH2 0x1D3B JUMP JUMPDEST PUSH2 0x229 PUSH2 0x28F CALLDATASIZE PUSH1 0x4 PUSH2 0x1B09 JUMP JUMPDEST PUSH2 0x54D JUMP JUMPDEST PUSH2 0x229 PUSH2 0x5DC JUMP JUMPDEST PUSH2 0x274 PUSH2 0x5E8 JUMP JUMPDEST PUSH2 0x229 PUSH2 0x600 JUMP JUMPDEST PUSH2 0x229 PUSH2 0x2BA CALLDATASIZE PUSH1 0x4 PUSH2 0x1B09 JUMP JUMPDEST PUSH2 0x608 JUMP JUMPDEST PUSH2 0x229 PUSH2 0x690 JUMP JUMPDEST PUSH2 0x274 PUSH2 0x706 JUMP JUMPDEST PUSH2 0x229 PUSH2 0x2DD CALLDATASIZE PUSH1 0x4 PUSH2 0x1C96 JUMP JUMPDEST PUSH2 0x715 JUMP JUMPDEST PUSH2 0x26A PUSH2 0x729 JUMP JUMPDEST PUSH2 0x26A PUSH2 0x7B2 JUMP JUMPDEST PUSH2 0x229 PUSH2 0x300 CALLDATASIZE PUSH1 0x4 PUSH2 0x1C96 JUMP JUMPDEST PUSH2 0x8AD JUMP JUMPDEST PUSH2 0x274 PUSH2 0x8BA JUMP JUMPDEST PUSH2 0x274 PUSH2 0x8C9 JUMP JUMPDEST PUSH2 0x31D PUSH2 0x8D8 JUMP JUMPDEST PUSH1 0x40 MLOAD PUSH2 0x236 SWAP2 SWAP1 PUSH2 0x21CB JUMP JUMPDEST PUSH2 0x274 PUSH2 0x8EB JUMP JUMPDEST PUSH2 0x274 PUSH2 0x903 JUMP JUMPDEST PUSH2 0x342 PUSH2 0x912 JUMP JUMPDEST PUSH1 0x40 MLOAD PUSH2 0x236 SWAP2 SWAP1 PUSH2 0x21DC JUMP JUMPDEST PUSH2 0x229 PUSH2 0x917 JUMP JUMPDEST PUSH2 0x31D PUSH2 0x935 JUMP JUMPDEST PUSH2 0x274 PUSH2 0x941 JUMP JUMPDEST PUSH2 0x31D PUSH2 0x950 JUMP JUMPDEST PUSH2 0x31D PUSH2 0x964 JUMP JUMPDEST PUSH2 0x26A PUSH2 0x385 CALLDATASIZE PUSH1 0x4 PUSH2 0x1B25 JUMP JUMPDEST PUSH2 0x96B JUMP JUMPDEST PUSH2 0x26A PUSH2 0x398 CALLDATASIZE PUSH1 0x4 PUSH2 0x1B09 JUMP JUMPDEST PUSH2 0x9FA JUMP JUMPDEST PUSH2 0x26A PUSH2 0x3AB CALLDATASIZE PUSH1 0x4 PUSH2 0x1B80 JUMP JUMPDEST PUSH2 0xA5B JUMP JUMPDEST PUSH2 0x26A PUSH2 0xB36 JUMP JUMPDEST PUSH2 0x26A PUSH2 0x3C6 CALLDATASIZE PUSH1 0x4 PUSH2 0x1B09 JUMP JUMPDEST PUSH2 0xDED JUMP JUMPDEST PUSH2 0x229 PUSH2 0xEAE JUMP JUMPDEST PUSH1 0x0 PUSH2 0x3DD PUSH2 0xEB6 JUMP JUMPDEST SWAP1 POP SWAP1 JUMP JUMPDEST PUSH1 0x68 SLOAD PUSH1 0x0 SWAP1 DUP2 SWAP1 PUSH2 0x3FF SWAP1 PUSH1 0x1 PUSH1 0x1 PUSH1 0xA0 SHL SUB AND PUSH2 0xE10 PUSH2 0xF4A JUMP JUMPDEST PUSH1 0x67 SLOAD PUSH1 0x6B SLOAD SWAP2 SWAP3 POP PUSH1 0x0 SWAP2 PUSH2 0x431 SWAP2 PUSH1 0x2 DUP6 SWAP1 SIGNEXTEND SWAP2 PUSH8 0xDE0B6B3A7640000 SWAP2 PUSH1 0x1 PUSH1 0x1 PUSH1 0xA0 SHL SUB SWAP1 DUP2 AND SWAP2 AND PUSH2 0x10E2 JUMP JUMPDEST PUSH1 0x6B SLOAD SWAP1 SWAP2 POP PUSH1 0x0 SWAP1 PUSH2 0x477 SWAP1 PUSH2 0x450 SWAP1 PUSH1 0x1 PUSH1 0x1 PUSH1 0xA0 SHL SUB AND PUSH2 0x11D4 JUMP JUMPDEST PUSH1 0x6B SLOAD PUSH2 0x471 SWAP1 DUP6 SWAP1 PUSH2 0x46B SWAP1 PUSH1 0x1 PUSH1 0x1 PUSH1 0xA0 SHL SUB AND PUSH2 0x125D JUMP JUMPDEST SWAP1 PUSH2 0x1360 JUMP JUMPDEST SWAP1 PUSH2 0x13A3 JUMP JUMPDEST SWAP4 POP POP POP POP SWAP1 JUMP JUMPDEST PUSH8 0xDE0B6B3A7640000 DUP2 JUMP JUMPDEST PUSH1 0x65 SLOAD DUP2 JUMP JUMPDEST PUSH2 0x499 PUSH2 0x13D5 JUMP JUMPDEST PUSH1 0x1 PUSH1 0x1 PUSH1 0xA0 SHL SUB AND PUSH2 0x4AA PUSH2 0x8BA JUMP JUMPDEST PUSH1 0x1 PUSH1 0x1 PUSH1 0xA0 SHL SUB AND EQ PUSH2 0x4D9 JUMPI PUSH1 0x40 MLOAD PUSH3 0x461BCD PUSH1 0xE5 SHL DUP2 MSTORE PUSH1 0x4 ADD PUSH2 0x4D0 SWAP1 PUSH2 0x2070 JUMP JUMPDEST PUSH1 0x40 MLOAD DUP1 SWAP2 SUB SWAP1 REVERT JUMPDEST PUSH1 0x66 DUP1 SLOAD PUSH4 0xFFFFFFFF PUSH1 0x40 SHL NOT AND PUSH1 0x1 PUSH1 0x40 SHL PUSH4 0xFFFFFFFF DUP5 DUP2 AND DUP3 MUL SWAP3 SWAP1 SWAP3 OR SWAP3 DUP4 SWAP1 SSTORE PUSH1 0x40 MLOAD PUSH32 0x8BCFC45B9C73E761C499D9FEFD8609900CA8B0F464B3F250F2085D1ACC5253E3 SWAP4 PUSH2 0x533 SWAP4 SWAP3 SWAP1 DIV SWAP1 SWAP2 AND SWAP1 PUSH2 0x21CB JUMP JUMPDEST PUSH1 0x40 MLOAD DUP1 SWAP2 SUB SWAP1 LOG1 POP JUMP JUMPDEST PUSH1 0x6B SLOAD PUSH1 0x1 PUSH1 0x1 PUSH1 0xA0 SHL SUB AND DUP2 JUMP JUMPDEST PUSH1 0x0 PUSH2 0x557 PUSH2 0x1A3F JUMP JUMPDEST POP PUSH1 0x1 PUSH1 0x1 PUSH1 0xA0 SHL SUB DUP3 DUP2 AND PUSH1 0x0 SWAP1 DUP2 MSTORE PUSH1 0x9E PUSH1 0x20 SWAP1 DUP2 MSTORE PUSH1 0x40 SWAP2 DUP3 SWAP1 KECCAK256 DUP3 MLOAD PUSH1 0x80 DUP2 ADD DUP5 MSTORE DUP2 SLOAD DUP1 DUP7 AND DUP3 MSTORE PUSH1 0x1 PUSH1 0xA0 SHL SWAP1 DIV PUSH1 0xFF AND ISZERO ISZERO SWAP3 DUP2 ADD DUP4 SWAP1 MSTORE PUSH1 0x1 DUP3 ADD SLOAD SWAP1 SWAP5 AND SWAP3 DUP5 ADD SWAP3 SWAP1 SWAP3 MSTORE PUSH1 0x2 SWAP1 SWAP2 ADD SLOAD PUSH1 0x60 DUP4 ADD MSTORE PUSH2 0x5CC JUMPI PUSH1 0x40 MLOAD PUSH3 0x461BCD PUSH1 0xE5 SHL DUP2 MSTORE PUSH1 0x4 ADD PUSH2 0x4D0 SWAP1 PUSH2 0x1EE0 JUMP JUMPDEST PUSH2 0x5D5 DUP4 PUSH2 0x11D4 JUMP JUMPDEST SWAP4 SWAP3 POP POP POP JUMP JUMPDEST PUSH8 0xDE0B6B3A7640000 SWAP1 JUMP JUMPDEST PUSH20 0xD0A1E359811322D97991E03F863A0C30C2CF029C DUP2 JUMP JUMPDEST PUSH4 0x5F5E100 DUP2 JUMP JUMPDEST PUSH1 0x0 PUSH2 0x612 PUSH2 0x1A3F JUMP JUMPDEST POP PUSH1 0x1 PUSH1 0x1 PUSH1 0xA0 SHL SUB DUP3 DUP2 AND PUSH1 0x0 SWAP1 DUP2 MSTORE PUSH1 0x9E PUSH1 0x20 SWAP1 DUP2 MSTORE PUSH1 0x40 SWAP2 DUP3 SWAP1 KECCAK256 DUP3 MLOAD PUSH1 0x80 DUP2 ADD DUP5 MSTORE DUP2 SLOAD DUP1 DUP7 AND DUP3 MSTORE PUSH1 0x1 PUSH1 0xA0 SHL SWAP1 DIV PUSH1 0xFF AND ISZERO ISZERO SWAP3 DUP2 ADD DUP4 SWAP1 MSTORE PUSH1 0x1 DUP3 ADD SLOAD SWAP1 SWAP5 AND SWAP3 DUP5 ADD SWAP3 SWAP1 SWAP3 MSTORE PUSH1 0x2 SWAP1 SWAP2 ADD SLOAD PUSH1 0x60 DUP4 ADD MSTORE PUSH2 0x687 JUMPI PUSH1 0x40 MLOAD PUSH3 0x461BCD PUSH1 0xE5 SHL DUP2 MSTORE PUSH1 0x4 ADD PUSH2 0x4D0 SWAP1 PUSH2 0x1E09 JUMP JUMPDEST PUSH2 0x5D5 DUP4 PUSH2 0x125D JUMP JUMPDEST PUSH1 0x69 SLOAD PUSH1 0x0 SWAP1 DUP2 SWAP1 PUSH2 0x6AD SWAP1 PUSH1 0x1 PUSH1 0x1 PUSH1 0xA0 SHL SUB AND PUSH2 0xE10 PUSH2 0xF4A JUMP JUMPDEST PUSH1 0x6A SLOAD SWAP1 SWAP2 POP PUSH1 0x0 SWAP1 PUSH2 0x6EE SWAP1 PUSH1 0x2 DUP5 SWAP1 SIGNEXTEND SWAP1 PUSH8 0xDE0B6B3A7640000 SWAP1 PUSH20 0xBB5E27AE27A6A7D092B181FBDDAC1A1004E9ADFF SWAP1 PUSH1 0x1 PUSH1 0x1 PUSH1 0xA0 SHL SUB AND PUSH2 0x10E2 JUMP JUMPDEST SWAP1 POP PUSH1 0x0 PUSH2 0x477 PUSH4 0x5F5E100 PUSH2 0x471 DUP5 PUSH2 0x46B PUSH2 0xEB6 JUMP JUMPDEST PUSH1 0x68 SLOAD PUSH1 0x1 PUSH1 0x1 PUSH1 0xA0 SHL SUB AND DUP2 JUMP JUMPDEST PUSH1 0x6C DUP2 PUSH1 0x19 DUP2 LT PUSH2 0x722 JUMPI INVALID JUMPDEST ADD SLOAD SWAP1 POP DUP2 JUMP JUMPDEST PUSH2 0x731 PUSH2 0x13D5 JUMP JUMPDEST PUSH1 0x1 PUSH1 0x1 PUSH1 0xA0 SHL SUB AND PUSH2 0x742 PUSH2 0x8BA JUMP JUMPDEST PUSH1 0x1 PUSH1 0x1 PUSH1 0xA0 SHL SUB AND EQ PUSH2 0x768 JUMPI PUSH1 0x40 MLOAD PUSH3 0x461BCD PUSH1 0xE5 SHL DUP2 MSTORE PUSH1 0x4 ADD PUSH2 0x4D0 SWAP1 PUSH2 0x2070 JUMP JUMPDEST PUSH1 0x33 SLOAD PUSH1 0x40 MLOAD PUSH1 0x0 SWAP2 PUSH1 0x1 PUSH1 0x1 PUSH1 0xA0 SHL SUB AND SWAP1 PUSH32 0x8BE0079C531659141344CD1FD0A4F28419497F9722A3DAAFE3B4186F6B6457E0 SWAP1 DUP4 SWAP1 LOG3 PUSH1 0x33 DUP1 SLOAD PUSH1 0x1 PUSH1 0x1 PUSH1 0xA0 SHL SUB NOT AND SWAP1 SSTORE JUMP JUMPDEST PUSH1 0x0 SLOAD PUSH2 0x100 SWAP1 DIV PUSH1 0xFF AND DUP1 PUSH2 0x7CB JUMPI POP PUSH2 0x7CB PUSH2 0x13D9 JUMP JUMPDEST DUP1 PUSH2 0x7D9 JUMPI POP PUSH1 0x0 SLOAD PUSH1 0xFF AND ISZERO JUMPDEST PUSH2 0x7F5 JUMPI PUSH1 0x40 MLOAD PUSH3 0x461BCD PUSH1 0xE5 SHL DUP2 MSTORE PUSH1 0x4 ADD PUSH2 0x4D0 SWAP1 PUSH2 0x1F32 JUMP JUMPDEST PUSH1 0x0 SLOAD PUSH2 0x100 SWAP1 DIV PUSH1 0xFF AND ISZERO DUP1 ISZERO PUSH2 0x820 JUMPI PUSH1 0x0 DUP1 SLOAD PUSH1 0xFF NOT PUSH2 0xFF00 NOT SWAP1 SWAP2 AND PUSH2 0x100 OR AND PUSH1 0x1 OR SWAP1 SSTORE JUMPDEST PUSH2 0x828 PUSH2 0x13EA JUMP JUMPDEST PUSH1 0x66 DUP1 SLOAD PUSH4 0xFFFFFFFF PUSH1 0x40 SHL NOT AND PUSH10 0xE100000000000000000 OR SWAP1 SSTORE PUSH5 0x100000000 TIMESTAMP PUSH1 0x66 DUP1 SLOAD PUSH8 0xFFFFFFFF00000000 NOT AND PUSH5 0x100000000 SWAP4 SWAP1 SWAP3 MOD PUSH4 0xFFFFFFFF AND SWAP3 SWAP1 SWAP3 MUL OR PUSH12 0xFFFFFFFFFFFFFFFFFFFFFFFF AND PUSH20 0x9326BFA02ADD2366B30BACB125260AF641031331 PUSH1 0x60 SHL OR SWAP1 SSTORE DUP1 ISZERO PUSH2 0x8AA JUMPI PUSH1 0x0 DUP1 SLOAD PUSH2 0xFF00 NOT AND SWAP1 SSTORE JUMPDEST POP JUMP JUMPDEST PUSH1 0x85 DUP2 PUSH1 0x19 DUP2 LT PUSH2 0x722 JUMPI INVALID JUMPDEST PUSH1 0x33 SLOAD PUSH1 0x1 PUSH1 0x1 PUSH1 0xA0 SHL SUB AND SWAP1 JUMP JUMPDEST PUSH1 0x6A SLOAD PUSH1 0x1 PUSH1 0x1 PUSH1 0xA0 SHL SUB AND DUP2 JUMP JUMPDEST PUSH1 0x66 SLOAD PUSH1 0x1 PUSH1 0x40 SHL SWAP1 DIV PUSH4 0xFFFFFFFF AND DUP2 JUMP JUMPDEST PUSH20 0xBB5E27AE27A6A7D092B181FBDDAC1A1004E9ADFF DUP2 JUMP JUMPDEST PUSH1 0x69 SLOAD PUSH1 0x1 PUSH1 0x1 PUSH1 0xA0 SHL SUB AND DUP2 JUMP JUMPDEST PUSH1 0x18 DUP2 JUMP JUMPDEST PUSH1 0x68 SLOAD PUSH1 0x0 SWAP1 DUP2 SWAP1 PUSH2 0x3FF SWAP1 PUSH1 0x1 PUSH1 0x1 PUSH1 0xA0 SHL SUB AND PUSH3 0x15180 PUSH2 0xF4A JUMP JUMPDEST PUSH1 0x66 SLOAD PUSH4 0xFFFFFFFF AND DUP2 JUMP JUMPDEST PUSH1 0x67 SLOAD PUSH1 0x1 PUSH1 0x1 PUSH1 0xA0 SHL SUB AND DUP2 JUMP JUMPDEST PUSH1 0x66 SLOAD PUSH5 0x100000000 SWAP1 DIV PUSH4 0xFFFFFFFF AND DUP2 JUMP JUMPDEST PUSH3 0xF4240 DUP2 JUMP JUMPDEST PUSH2 0x973 PUSH2 0x13D5 JUMP JUMPDEST PUSH1 0x1 PUSH1 0x1 PUSH1 0xA0 SHL SUB AND PUSH2 0x984 PUSH2 0x8BA JUMP JUMPDEST PUSH1 0x1 PUSH1 0x1 PUSH1 0xA0 SHL SUB AND EQ PUSH2 0x9AA JUMPI PUSH1 0x40 MLOAD PUSH3 0x461BCD PUSH1 0xE5 SHL DUP2 MSTORE PUSH1 0x4 ADD PUSH2 0x4D0 SWAP1 PUSH2 0x2070 JUMP JUMPDEST PUSH1 0x6A DUP1 SLOAD PUSH1 0x1 PUSH1 0x1 PUSH1 0xA0 SHL SUB SWAP6 DUP7 AND PUSH1 0x1 PUSH1 0x1 PUSH1 0xA0 SHL SUB NOT SWAP2 DUP3 AND OR SWAP1 SWAP2 SSTORE PUSH1 0x6B DUP1 SLOAD SWAP5 DUP7 AND SWAP5 DUP3 AND SWAP5 SWAP1 SWAP5 OR SWAP1 SWAP4 SSTORE PUSH1 0x68 DUP1 SLOAD SWAP3 DUP6 AND SWAP3 DUP5 AND SWAP3 SWAP1 SWAP3 OR SWAP1 SWAP2 SSTORE PUSH1 0x69 DUP1 SLOAD SWAP2 SWAP1 SWAP4 AND SWAP2 AND OR SWAP1 SSTORE JUMP JUMPDEST PUSH2 0xA02 PUSH2 0x13D5 JUMP JUMPDEST PUSH1 0x1 PUSH1 0x1 PUSH1 0xA0 SHL SUB AND PUSH2 0xA13 PUSH2 0x8BA JUMP JUMPDEST PUSH1 0x1 PUSH1 0x1 PUSH1 0xA0 SHL SUB AND EQ PUSH2 0xA39 JUMPI PUSH1 0x40 MLOAD PUSH3 0x461BCD PUSH1 0xE5 SHL DUP2 MSTORE PUSH1 0x4 ADD PUSH2 0x4D0 SWAP1 PUSH2 0x2070 JUMP JUMPDEST PUSH1 0x67 DUP1 SLOAD PUSH1 0x1 PUSH1 0x1 PUSH1 0xA0 SHL SUB NOT AND PUSH1 0x1 PUSH1 0x1 PUSH1 0xA0 SHL SUB SWAP3 SWAP1 SWAP3 AND SWAP2 SWAP1 SWAP2 OR SWAP1 SSTORE JUMP JUMPDEST PUSH2 0xA63 PUSH2 0x13D5 JUMP JUMPDEST PUSH1 0x1 PUSH1 0x1 PUSH1 0xA0 SHL SUB AND PUSH2 0xA74 PUSH2 0x8BA JUMP JUMPDEST PUSH1 0x1 PUSH1 0x1 PUSH1 0xA0 SHL SUB AND EQ PUSH2 0xA9A JUMPI PUSH1 0x40 MLOAD PUSH3 0x461BCD PUSH1 0xE5 SHL DUP2 MSTORE PUSH1 0x4 ADD PUSH2 0x4D0 SWAP1 PUSH2 0x2070 JUMP JUMPDEST PUSH1 0x1 PUSH1 0x1 PUSH1 0xA0 SHL SUB DUP5 DUP2 AND PUSH1 0x0 DUP2 DUP2 MSTORE PUSH1 0x9E PUSH1 0x20 MSTORE PUSH1 0x40 SWAP1 DUP2 SWAP1 KECCAK256 DUP1 SLOAD PUSH1 0x1 PUSH1 0x1 PUSH1 0xA0 SHL SUB NOT SWAP1 DUP2 AND SWAP1 SWAP4 OR PUSH1 0xFF PUSH1 0xA0 SHL NOT AND PUSH1 0x1 PUSH1 0xA0 SHL DUP9 ISZERO ISZERO MUL OR DUP2 SSTORE PUSH1 0x1 DUP2 ADD DUP1 SLOAD SWAP1 SWAP4 AND SWAP4 DUP7 AND SWAP4 SWAP1 SWAP4 OR SWAP1 SWAP2 SSTORE PUSH1 0x2 DUP3 ADD DUP4 SWAP1 SSTORE MLOAD PUSH32 0x9CE8DAA3B6DDB1B45182C5DB00C581F637E2373A74E2D343D1C4999AAA5224F0 SWAP1 PUSH2 0xB27 SWAP1 DUP8 SWAP1 DUP8 SWAP1 DUP8 SWAP1 DUP8 SWAP1 PUSH2 0x1D4F JUMP JUMPDEST PUSH1 0x40 MLOAD DUP1 SWAP2 SUB SWAP1 LOG1 POP POP POP POP POP JUMP JUMPDEST PUSH1 0x66 SLOAD PUSH4 0xFFFFFFFF TIMESTAMP DUP2 AND SWAP2 PUSH5 0x100000000 SWAP1 DIV AND DUP1 DUP3 SUB SWAP1 DUP3 LT ISZERO PUSH2 0xB6E JUMPI PUSH1 0x40 MLOAD PUSH3 0x461BCD PUSH1 0xE5 SHL DUP2 MSTORE PUSH1 0x4 ADD PUSH2 0x4D0 SWAP1 PUSH2 0x1F80 JUMP JUMPDEST PUSH1 0x66 SLOAD PUSH4 0xFFFFFFFF PUSH1 0x1 PUSH1 0x40 SHL SWAP1 SWAP2 DIV DUP2 AND SWAP1 DUP3 AND LT ISZERO PUSH2 0xBA1 JUMPI PUSH1 0x40 MLOAD PUSH3 0x461BCD PUSH1 0xE5 SHL DUP2 MSTORE PUSH1 0x4 ADD PUSH2 0x4D0 SWAP1 PUSH2 0x20F8 JUMP JUMPDEST PUSH1 0x66 SLOAD PUSH1 0x67 SLOAD PUSH1 0x40 DUP1 MLOAD PUSH4 0x736BF591 PUSH1 0xE0 SHL DUP2 MSTORE SWAP1 MLOAD PUSH4 0xFFFFFFFF SWAP4 DUP5 AND SWAP4 PUSH1 0x19 PUSH1 0x1 DUP7 ADD SWAP1 SWAP2 AND MOD SWAP3 PUSH1 0x1 PUSH1 0x1 PUSH1 0xA0 SHL SUB AND SWAP2 PUSH4 0x736BF591 SWAP2 PUSH1 0x4 DUP1 DUP4 ADD SWAP3 PUSH1 0x20 SWAP3 SWAP2 SWAP1 DUP3 SWAP1 SUB ADD DUP2 DUP7 DUP1 EXTCODESIZE ISZERO DUP1 ISZERO PUSH2 0xBFA JUMPI PUSH1 0x0 DUP1 REVERT JUMPDEST POP GAS STATICCALL ISZERO DUP1 ISZERO PUSH2 0xC0E JUMPI RETURNDATASIZE PUSH1 0x0 DUP1 RETURNDATACOPY RETURNDATASIZE PUSH1 0x0 REVERT JUMPDEST POP POP POP POP PUSH1 0x40 MLOAD RETURNDATASIZE PUSH1 0x1F NOT PUSH1 0x1F DUP3 ADD AND DUP3 ADD DUP1 PUSH1 0x40 MSTORE POP DUP2 ADD SWAP1 PUSH2 0xC32 SWAP2 SWAP1 PUSH2 0x1CAE JUMP JUMPDEST PUSH1 0x6C DUP4 PUSH4 0xFFFFFFFF AND PUSH1 0x19 DUP2 LT PUSH2 0xC45 JUMPI INVALID JUMPDEST ADD SSTORE PUSH1 0x67 SLOAD PUSH1 0x40 DUP1 MLOAD PUSH4 0xABDDBE7 PUSH1 0xE0 SHL DUP2 MSTORE SWAP1 MLOAD PUSH1 0x1 PUSH1 0x1 PUSH1 0xA0 SHL SUB SWAP1 SWAP3 AND SWAP2 PUSH4 0xABDDBE7 SWAP2 PUSH1 0x4 DUP1 DUP3 ADD SWAP3 PUSH1 0x20 SWAP3 SWAP1 SWAP2 SWAP1 DUP3 SWAP1 SUB ADD DUP2 DUP7 DUP1 EXTCODESIZE ISZERO DUP1 ISZERO PUSH2 0xC8C JUMPI PUSH1 0x0 DUP1 REVERT JUMPDEST POP GAS STATICCALL ISZERO DUP1 ISZERO PUSH2 0xCA0 JUMPI RETURNDATASIZE PUSH1 0x0 DUP1 RETURNDATACOPY RETURNDATASIZE PUSH1 0x0 REVERT JUMPDEST POP POP POP POP PUSH1 0x40 MLOAD RETURNDATASIZE PUSH1 0x1F NOT PUSH1 0x1F DUP3 ADD AND DUP3 ADD DUP1 PUSH1 0x40 MSTORE POP DUP2 ADD SWAP1 PUSH2 0xCC4 SWAP2 SWAP1 PUSH2 0x1CAE JUMP JUMPDEST PUSH1 0x85 DUP4 PUSH4 0xFFFFFFFF AND PUSH1 0x19 DUP2 LT PUSH2 0xCD7 JUMPI INVALID JUMPDEST ADD SSTORE PUSH1 0x0 PUSH2 0xD0E PUSH1 0x6C PUSH4 0xFFFFFFFF DUP5 AND PUSH1 0x19 DUP2 LT PUSH2 0xCF1 JUMPI INVALID JUMPDEST ADD SLOAD PUSH1 0x6C DUP6 PUSH4 0xFFFFFFFF AND PUSH1 0x19 DUP2 LT PUSH2 0xD06 JUMPI INVALID JUMPDEST ADD SLOAD SWAP1 PUSH2 0x147C JUMP JUMPDEST SWAP1 POP PUSH1 0x0 PUSH2 0xD3D PUSH1 0x85 DUP5 PUSH4 0xFFFFFFFF AND PUSH1 0x19 DUP2 LT PUSH2 0xD28 JUMPI INVALID JUMPDEST ADD SLOAD PUSH1 0x85 DUP7 PUSH4 0xFFFFFFFF AND PUSH1 0x19 DUP2 LT PUSH2 0xD06 JUMPI INVALID JUMPDEST SWAP1 POP PUSH1 0x65 SLOAD PUSH1 0x0 EQ ISZERO PUSH2 0xD56 JUMPI PUSH3 0xF4240 PUSH1 0x65 SSTORE PUSH2 0xD6B JUMP JUMPDEST PUSH2 0xD67 DUP3 PUSH2 0x471 DUP4 PUSH3 0xF4240 PUSH2 0x1360 JUMP JUMPDEST PUSH1 0x65 SSTORE JUMPDEST PUSH1 0x66 DUP1 SLOAD PUSH4 0xFFFFFFFF DUP6 DUP2 AND PUSH4 0xFFFFFFFF NOT DUP3 DUP12 AND PUSH5 0x100000000 SWAP1 DUP2 MUL PUSH8 0xFFFFFFFF00000000 NOT SWAP1 SWAP6 AND SWAP5 SWAP1 SWAP5 OR AND OR SWAP3 DUP4 SWAP1 SSTORE PUSH1 0x65 SLOAD PUSH1 0x40 MLOAD PUSH32 0xB5C9438F23A276E24F58B423B7B8322A09F4DCD8BE672DC0EC2C5F16EDF6844D SWAP5 PUSH2 0xDDD SWAP5 SWAP3 SWAP4 DUP8 SWAP4 DUP10 SWAP4 SWAP3 DIV AND SWAP1 DUP11 SWAP1 PUSH2 0x219F JUMP JUMPDEST PUSH1 0x40 MLOAD DUP1 SWAP2 SUB SWAP1 LOG1 POP POP POP POP POP POP JUMP JUMPDEST PUSH2 0xDF5 PUSH2 0x13D5 JUMP JUMPDEST PUSH1 0x1 PUSH1 0x1 PUSH1 0xA0 SHL SUB AND PUSH2 0xE06 PUSH2 0x8BA JUMP JUMPDEST PUSH1 0x1 PUSH1 0x1 PUSH1 0xA0 SHL SUB AND EQ PUSH2 0xE2C JUMPI PUSH1 0x40 MLOAD PUSH3 0x461BCD PUSH1 0xE5 SHL DUP2 MSTORE PUSH1 0x4 ADD PUSH2 0x4D0 SWAP1 PUSH2 0x2070 JUMP JUMPDEST PUSH1 0x1 PUSH1 0x1 PUSH1 0xA0 SHL SUB DUP2 AND PUSH2 0xE52 JUMPI PUSH1 0x40 MLOAD PUSH3 0x461BCD PUSH1 0xE5 SHL DUP2 MSTORE PUSH1 0x4 ADD PUSH2 0x4D0 SWAP1 PUSH2 0x1DC3 JUMP JUMPDEST PUSH1 0x33 SLOAD PUSH1 0x40 MLOAD PUSH1 0x1 PUSH1 0x1 PUSH1 0xA0 SHL SUB DUP1 DUP5 AND SWAP3 AND SWAP1 PUSH32 0x8BE0079C531659141344CD1FD0A4F28419497F9722A3DAAFE3B4186F6B6457E0 SWAP1 PUSH1 0x0 SWAP1 LOG3 PUSH1 0x33 DUP1 SLOAD PUSH1 0x1 PUSH1 0x1 PUSH1 0xA0 SHL SUB NOT AND PUSH1 0x1 PUSH1 0x1 PUSH1 0xA0 SHL SUB SWAP3 SWAP1 SWAP3 AND SWAP2 SWAP1 SWAP2 OR SWAP1 SSTORE JUMP JUMPDEST PUSH4 0x5F5E100 SWAP1 JUMP JUMPDEST PUSH1 0x0 DUP1 PUSH1 0x66 PUSH1 0xC SWAP1 SLOAD SWAP1 PUSH2 0x100 EXP SWAP1 DIV PUSH1 0x1 PUSH1 0x1 PUSH1 0xA0 SHL SUB AND PUSH1 0x1 PUSH1 0x1 PUSH1 0xA0 SHL SUB AND PUSH4 0xFEAF968C PUSH1 0x40 MLOAD DUP2 PUSH4 0xFFFFFFFF AND PUSH1 0xE0 SHL DUP2 MSTORE PUSH1 0x4 ADD PUSH1 0xA0 PUSH1 0x40 MLOAD DUP1 DUP4 SUB DUP2 DUP7 DUP1 EXTCODESIZE ISZERO DUP1 ISZERO PUSH2 0xF07 JUMPI PUSH1 0x0 DUP1 REVERT JUMPDEST POP GAS STATICCALL ISZERO DUP1 ISZERO PUSH2 0xF1B JUMPI RETURNDATASIZE PUSH1 0x0 DUP1 RETURNDATACOPY RETURNDATASIZE PUSH1 0x0 REVERT JUMPDEST POP POP POP POP PUSH1 0x40 MLOAD RETURNDATASIZE PUSH1 0x1F NOT PUSH1 0x1F DUP3 ADD AND DUP3 ADD DUP1 PUSH1 0x40 MSTORE POP DUP2 ADD SWAP1 PUSH2 0xF3F SWAP2 SWAP1 PUSH2 0x1CEA JUMP JUMPDEST POP SWAP2 SWAP5 POP POP POP POP POP SWAP1 JUMP JUMPDEST PUSH1 0x0 PUSH4 0xFFFFFFFF DUP3 AND PUSH2 0xF6F JUMPI PUSH1 0x40 MLOAD PUSH3 0x461BCD PUSH1 0xE5 SHL DUP2 MSTORE PUSH1 0x4 ADD PUSH2 0x4D0 SWAP1 PUSH2 0x1EC4 JUMP JUMPDEST PUSH1 0x40 DUP1 MLOAD PUSH1 0x2 DUP1 DUP3 MSTORE PUSH1 0x60 DUP1 DUP4 ADD DUP5 MSTORE SWAP3 PUSH1 0x20 DUP4 ADD SWAP1 DUP1 CALLDATASIZE DUP4 CALLDATACOPY ADD SWAP1 POP POP SWAP1 POP DUP3 DUP2 PUSH1 0x0 DUP2 MLOAD DUP2 LT PUSH2 0xF9D JUMPI INVALID JUMPDEST PUSH1 0x20 MUL PUSH1 0x20 ADD ADD SWAP1 PUSH4 0xFFFFFFFF AND SWAP1 DUP2 PUSH4 0xFFFFFFFF AND DUP2 MSTORE POP POP PUSH1 0x0 DUP2 PUSH1 0x1 DUP2 MLOAD DUP2 LT PUSH2 0xFC6 JUMPI INVALID JUMPDEST PUSH4 0xFFFFFFFF SWAP1 SWAP3 AND PUSH1 0x20 SWAP3 DUP4 MUL SWAP2 SWAP1 SWAP2 ADD SWAP1 SWAP2 ADD MSTORE PUSH1 0x40 MLOAD PUSH4 0x883BDBFD PUSH1 0xE0 SHL DUP2 MSTORE PUSH1 0x60 SWAP1 PUSH1 0x1 PUSH1 0x1 PUSH1 0xA0 SHL SUB DUP7 AND SWAP1 PUSH4 0x883BDBFD SWAP1 PUSH2 0x100A SWAP1 DUP6 SWAP1 PUSH1 0x4 ADD PUSH2 0x1D79 JUMP JUMPDEST PUSH1 0x0 PUSH1 0x40 MLOAD DUP1 DUP4 SUB DUP2 DUP7 DUP1 EXTCODESIZE ISZERO DUP1 ISZERO PUSH2 0x1022 JUMPI PUSH1 0x0 DUP1 REVERT JUMPDEST POP GAS STATICCALL ISZERO DUP1 ISZERO PUSH2 0x1036 JUMPI RETURNDATASIZE PUSH1 0x0 DUP1 RETURNDATACOPY RETURNDATASIZE PUSH1 0x0 REVERT JUMPDEST POP POP POP POP PUSH1 0x40 MLOAD RETURNDATASIZE PUSH1 0x0 DUP3 RETURNDATACOPY PUSH1 0x1F RETURNDATASIZE SWAP1 DUP2 ADD PUSH1 0x1F NOT AND DUP3 ADD PUSH1 0x40 MSTORE PUSH2 0x105E SWAP2 SWAP1 DUP2 ADD SWAP1 PUSH2 0x1BD4 JUMP JUMPDEST POP SWAP1 POP PUSH1 0x0 DUP2 PUSH1 0x0 DUP2 MLOAD DUP2 LT PUSH2 0x1070 JUMPI INVALID JUMPDEST PUSH1 0x20 MUL PUSH1 0x20 ADD ADD MLOAD DUP3 PUSH1 0x1 DUP2 MLOAD DUP2 LT PUSH2 0x1085 JUMPI INVALID JUMPDEST PUSH1 0x20 MUL PUSH1 0x20 ADD ADD MLOAD SUB SWAP1 POP DUP5 PUSH4 0xFFFFFFFF AND DUP2 PUSH1 0x6 SIGNEXTEND DUP2 PUSH2 0x10A2 JUMPI INVALID JUMPDEST SDIV SWAP4 POP PUSH1 0x0 DUP2 PUSH1 0x6 SIGNEXTEND SLT DUP1 ISZERO PUSH2 0x10CC JUMPI POP DUP5 PUSH4 0xFFFFFFFF AND DUP2 PUSH1 0x6 SIGNEXTEND DUP2 PUSH2 0x10C5 JUMPI INVALID JUMPDEST SMOD PUSH1 0x6 SIGNEXTEND ISZERO ISZERO JUMPDEST ISZERO PUSH2 0x10D9 JUMPI PUSH1 0x0 NOT SWAP1 SWAP4 ADD SWAP3 JUMPDEST POP POP POP SWAP3 SWAP2 POP POP JUMP JUMPDEST PUSH1 0x0 DUP1 PUSH2 0x10EE DUP7 PUSH2 0x14A4 JUMP JUMPDEST SWAP1 POP PUSH1 0x1 PUSH1 0x1 PUSH1 0x80 SHL SUB PUSH1 0x1 PUSH1 0x1 PUSH1 0xA0 SHL SUB DUP3 AND GT PUSH2 0x115D JUMPI PUSH1 0x1 PUSH1 0x1 PUSH1 0xA0 SHL SUB DUP1 DUP3 AND DUP1 MUL SWAP1 DUP5 DUP2 AND SWAP1 DUP7 AND LT PUSH2 0x113D JUMPI PUSH2 0x1138 PUSH1 0x1 PUSH1 0xC0 SHL DUP8 PUSH1 0x1 PUSH1 0x1 PUSH1 0x80 SHL SUB AND DUP4 PUSH2 0x17BD JUMP JUMPDEST PUSH2 0x1155 JUMP JUMPDEST PUSH2 0x1155 DUP2 DUP8 PUSH1 0x1 PUSH1 0x1 PUSH1 0x80 SHL SUB AND PUSH1 0x1 PUSH1 0xC0 SHL PUSH2 0x17BD JUMP JUMPDEST SWAP3 POP POP PUSH2 0x11CB JUMP JUMPDEST PUSH1 0x0 PUSH2 0x1177 PUSH1 0x1 PUSH1 0x1 PUSH1 0xA0 SHL SUB DUP4 AND DUP1 PUSH1 0x1 PUSH1 0x40 SHL PUSH2 0x17BD JUMP JUMPDEST SWAP1 POP DUP4 PUSH1 0x1 PUSH1 0x1 PUSH1 0xA0 SHL SUB AND DUP6 PUSH1 0x1 PUSH1 0x1 PUSH1 0xA0 SHL SUB AND LT PUSH2 0x11AF JUMPI PUSH2 0x11AA PUSH1 0x1 PUSH1 0x80 SHL DUP8 PUSH1 0x1 PUSH1 0x1 PUSH1 0x80 SHL SUB AND DUP4 PUSH2 0x17BD JUMP JUMPDEST PUSH2 0x11C7 JUMP JUMPDEST PUSH2 0x11C7 DUP2 DUP8 PUSH1 0x1 PUSH1 0x1 PUSH1 0x80 SHL SUB AND PUSH1 0x1 PUSH1 0x80 SHL PUSH2 0x17BD JUMP JUMPDEST SWAP3 POP POP JUMPDEST POP SWAP5 SWAP4 POP POP POP POP JUMP JUMPDEST PUSH1 0x0 PUSH2 0x11DE PUSH2 0x1A3F JUMP JUMPDEST POP PUSH1 0x1 PUSH1 0x1 PUSH1 0xA0 SHL SUB DUP3 DUP2 AND PUSH1 0x0 SWAP1 DUP2 MSTORE PUSH1 0x9E PUSH1 0x20 SWAP1 DUP2 MSTORE PUSH1 0x40 SWAP2 DUP3 SWAP1 KECCAK256 DUP3 MLOAD PUSH1 0x80 DUP2 ADD DUP5 MSTORE DUP2 SLOAD DUP1 DUP7 AND DUP3 MSTORE PUSH1 0x1 PUSH1 0xA0 SHL SWAP1 DIV PUSH1 0xFF AND ISZERO ISZERO SWAP3 DUP2 ADD DUP4 SWAP1 MSTORE PUSH1 0x1 DUP3 ADD SLOAD SWAP1 SWAP5 AND SWAP3 DUP5 ADD SWAP3 SWAP1 SWAP3 MSTORE PUSH1 0x2 SWAP1 SWAP2 ADD SLOAD PUSH1 0x60 DUP4 ADD MSTORE PUSH2 0x1253 JUMPI PUSH1 0x40 MLOAD PUSH3 0x461BCD PUSH1 0xE5 SHL DUP2 MSTORE PUSH1 0x4 ADD PUSH2 0x4D0 SWAP1 PUSH2 0x20A5 JUMP JUMPDEST PUSH1 0x60 ADD MLOAD SWAP3 SWAP2 POP POP JUMP JUMPDEST PUSH1 0x0 PUSH2 0x1267 PUSH2 0x1A3F JUMP JUMPDEST POP PUSH1 0x1 PUSH1 0x1 PUSH1 0xA0 SHL SUB DUP3 DUP2 AND PUSH1 0x0 SWAP1 DUP2 MSTORE PUSH1 0x9E PUSH1 0x20 SWAP1 DUP2 MSTORE PUSH1 0x40 SWAP2 DUP3 SWAP1 KECCAK256 DUP3 MLOAD PUSH1 0x80 DUP2 ADD DUP5 MSTORE DUP2 SLOAD DUP1 DUP7 AND DUP3 MSTORE PUSH1 0x1 PUSH1 0xA0 SHL SWAP1 DIV PUSH1 0xFF AND ISZERO ISZERO SWAP3 DUP2 ADD DUP4 SWAP1 MSTORE PUSH1 0x1 DUP3 ADD SLOAD SWAP1 SWAP5 AND SWAP3 DUP5 ADD SWAP3 SWAP1 SWAP3 MSTORE PUSH1 0x2 SWAP1 SWAP2 ADD SLOAD PUSH1 0x60 DUP4 ADD MSTORE PUSH2 0x12DC JUMPI PUSH1 0x40 MLOAD PUSH3 0x461BCD PUSH1 0xE5 SHL DUP2 MSTORE PUSH1 0x4 ADD PUSH2 0x4D0 SWAP1 PUSH2 0x2148 JUMP JUMPDEST PUSH1 0x0 DUP2 PUSH1 0x40 ADD MLOAD PUSH1 0x1 PUSH1 0x1 PUSH1 0xA0 SHL SUB AND PUSH4 0xFEAF968C PUSH1 0x40 MLOAD DUP2 PUSH4 0xFFFFFFFF AND PUSH1 0xE0 SHL DUP2 MSTORE PUSH1 0x4 ADD PUSH1 0xA0 PUSH1 0x40 MLOAD DUP1 DUP4 SUB DUP2 DUP7 DUP1 EXTCODESIZE ISZERO DUP1 ISZERO PUSH2 0x131B JUMPI PUSH1 0x0 DUP1 REVERT JUMPDEST POP GAS STATICCALL ISZERO DUP1 ISZERO PUSH2 0x132F JUMPI RETURNDATASIZE PUSH1 0x0 DUP1 RETURNDATACOPY RETURNDATASIZE PUSH1 0x0 REVERT JUMPDEST POP POP POP POP PUSH1 0x40 MLOAD RETURNDATASIZE PUSH1 0x1F NOT PUSH1 0x1F DUP3 ADD AND DUP3 ADD DUP1 PUSH1 0x40 MSTORE POP DUP2 ADD SWAP1 PUSH2 0x1353 SWAP2 SWAP1 PUSH2 0x1CEA JUMP JUMPDEST POP SWAP2 SWAP8 SWAP7 POP POP POP POP POP POP POP JUMP JUMPDEST PUSH1 0x0 DUP3 PUSH2 0x136F JUMPI POP PUSH1 0x0 PUSH2 0x139D JUMP JUMPDEST DUP3 DUP3 MUL DUP3 DUP5 DUP3 DUP2 PUSH2 0x137C JUMPI INVALID JUMPDEST DIV EQ PUSH2 0x139A JUMPI PUSH1 0x40 MLOAD PUSH3 0x461BCD PUSH1 0xE5 SHL DUP2 MSTORE PUSH1 0x4 ADD PUSH2 0x4D0 SWAP1 PUSH2 0x1FF8 JUMP JUMPDEST SWAP1 POP JUMPDEST SWAP3 SWAP2 POP POP JUMP JUMPDEST PUSH1 0x0 DUP1 DUP3 GT PUSH2 0x13C4 JUMPI PUSH1 0x40 MLOAD PUSH3 0x461BCD PUSH1 0xE5 SHL DUP2 MSTORE PUSH1 0x4 ADD PUSH2 0x4D0 SWAP1 PUSH2 0x1E8D JUMP JUMPDEST DUP2 DUP4 DUP2 PUSH2 0x13CD JUMPI INVALID JUMPDEST DIV SWAP4 SWAP3 POP POP POP JUMP JUMPDEST CALLER SWAP1 JUMP JUMPDEST PUSH1 0x0 PUSH2 0x13E4 ADDRESS PUSH2 0x1841 JUMP JUMPDEST ISZERO SWAP1 POP SWAP1 JUMP JUMPDEST PUSH1 0x0 SLOAD PUSH2 0x100 SWAP1 DIV PUSH1 0xFF AND DUP1 PUSH2 0x1403 JUMPI POP PUSH2 0x1403 PUSH2 0x13D9 JUMP JUMPDEST DUP1 PUSH2 0x1411 JUMPI POP PUSH1 0x0 SLOAD PUSH1 0xFF AND ISZERO JUMPDEST PUSH2 0x142D JUMPI PUSH1 0x40 MLOAD PUSH3 0x461BCD PUSH1 0xE5 SHL DUP2 MSTORE PUSH1 0x4 ADD PUSH2 0x4D0 SWAP1 PUSH2 0x1F32 JUMP JUMPDEST PUSH1 0x0 SLOAD PUSH2 0x100 SWAP1 DIV PUSH1 0xFF AND ISZERO DUP1 ISZERO PUSH2 0x1458 JUMPI PUSH1 0x0 DUP1 SLOAD PUSH1 0xFF NOT PUSH2 0xFF00 NOT SWAP1 SWAP2 AND PUSH2 0x100 OR AND PUSH1 0x1 OR SWAP1 SSTORE JUMPDEST PUSH2 0x1460 PUSH2 0x1847 JUMP JUMPDEST PUSH2 0x1468 PUSH2 0x18C8 JUMP JUMPDEST DUP1 ISZERO PUSH2 0x8AA JUMPI PUSH1 0x0 DUP1 SLOAD PUSH2 0xFF00 NOT AND SWAP1 SSTORE POP JUMP JUMPDEST PUSH1 0x0 DUP3 DUP3 GT ISZERO PUSH2 0x149E JUMPI PUSH1 0x40 MLOAD PUSH3 0x461BCD PUSH1 0xE5 SHL DUP2 MSTORE PUSH1 0x4 ADD PUSH2 0x4D0 SWAP1 PUSH2 0x1E56 JUMP JUMPDEST POP SWAP1 SUB SWAP1 JUMP JUMPDEST PUSH1 0x0 DUP1 PUSH1 0x0 DUP4 PUSH1 0x2 SIGNEXTEND SLT PUSH2 0x14BB JUMPI DUP3 PUSH1 0x2 SIGNEXTEND PUSH2 0x14C3 JUMP JUMPDEST DUP3 PUSH1 0x2 SIGNEXTEND PUSH1 0x0 SUB JUMPDEST SWAP1 POP PUSH3 0xD89E8 DUP2 GT ISZERO PUSH2 0x14E8 JUMPI PUSH1 0x40 MLOAD PUSH3 0x461BCD PUSH1 0xE5 SHL DUP2 MSTORE PUSH1 0x4 ADD PUSH2 0x4D0 SWAP1 PUSH2 0x1FDD JUMP JUMPDEST PUSH1 0x0 PUSH1 0x1 DUP3 AND PUSH2 0x14FC JUMPI PUSH1 0x1 PUSH1 0x80 SHL PUSH2 0x150E JUMP JUMPDEST PUSH16 0xFFFCB933BD6FAD37AA2D162D1A594001 JUMPDEST PUSH17 0xFFFFFFFFFFFFFFFFFFFFFFFFFFFFFFFFFF AND SWAP1 POP PUSH1 0x2 DUP3 AND ISZERO PUSH2 0x1542 JUMPI PUSH16 0xFFF97272373D413259A46990580E213A MUL PUSH1 0x80 SHR JUMPDEST PUSH1 0x4 DUP3 AND ISZERO PUSH2 0x1561 JUMPI PUSH16 0xFFF2E50F5F656932EF12357CF3C7FDCC MUL PUSH1 0x80 SHR JUMPDEST PUSH1 0x8 DUP3 AND ISZERO PUSH2 0x1580 JUMPI PUSH16 0xFFE5CACA7E10E4E61C3624EAA0941CD0 MUL PUSH1 0x80 SHR JUMPDEST PUSH1 0x10 DUP3 AND ISZERO PUSH2 0x159F JUMPI PUSH16 0xFFCB9843D60F6159C9DB58835C926644 MUL PUSH1 0x80 SHR JUMPDEST PUSH1 0x20 DUP3 AND ISZERO PUSH2 0x15BE JUMPI PUSH16 0xFF973B41FA98C081472E6896DFB254C0 MUL PUSH1 0x80 SHR JUMPDEST PUSH1 0x40 DUP3 AND ISZERO PUSH2 0x15DD JUMPI PUSH16 0xFF2EA16466C96A3843EC78B326B52861 MUL PUSH1 0x80 SHR JUMPDEST PUSH1 0x80 DUP3 AND ISZERO PUSH2 0x15FC JUMPI PUSH16 0xFE5DEE046A99A2A811C461F1969C3053 MUL PUSH1 0x80 SHR JUMPDEST PUSH2 0x100 DUP3 AND ISZERO PUSH2 0x161C JUMPI PUSH16 0xFCBE86C7900A88AEDCFFC83B479AA3A4 MUL PUSH1 0x80 SHR JUMPDEST PUSH2 0x200 DUP3 AND ISZERO PUSH2 0x163C JUMPI PUSH16 0xF987A7253AC413176F2B074CF7815E54 MUL PUSH1 0x80 SHR JUMPDEST PUSH2 0x400 DUP3 AND ISZERO PUSH2 0x165C JUMPI PUSH16 0xF3392B0822B70005940C7A398E4B70F3 MUL PUSH1 0x80 SHR JUMPDEST PUSH2 0x800 DUP3 AND ISZERO PUSH2 0x167C JUMPI PUSH16 0xE7159475A2C29B7443B29C7FA6E889D9 MUL PUSH1 0x80 SHR JUMPDEST PUSH2 0x1000 DUP3 AND ISZERO PUSH2 0x169C JUMPI PUSH16 0xD097F3BDFD2022B8845AD8F792AA5825 MUL PUSH1 0x80 SHR JUMPDEST PUSH2 0x2000 DUP3 AND ISZERO PUSH2 0x16BC JUMPI PUSH16 0xA9F746462D870FDF8A65DC1F90E061E5 MUL PUSH1 0x80 SHR JUMPDEST PUSH2 0x4000 DUP3 AND ISZERO PUSH2 0x16DC JUMPI PUSH16 0x70D869A156D2A1B890BB3DF62BAF32F7 MUL PUSH1 0x80 SHR JUMPDEST PUSH2 0x8000 DUP3 AND ISZERO PUSH2 0x16FC JUMPI PUSH16 0x31BE135F97D08FD981231505542FCFA6 MUL PUSH1 0x80 SHR JUMPDEST PUSH3 0x10000 DUP3 AND ISZERO PUSH2 0x171D JUMPI PUSH16 0x9AA508B5B7A84E1C677DE54F3E99BC9 MUL PUSH1 0x80 SHR JUMPDEST PUSH3 0x20000 DUP3 AND ISZERO PUSH2 0x173D JUMPI PUSH15 0x5D6AF8DEDB81196699C329225EE604 MUL PUSH1 0x80 SHR JUMPDEST PUSH3 0x40000 DUP3 AND ISZERO PUSH2 0x175C JUMPI PUSH14 0x2216E584F5FA1EA926041BEDFE98 MUL PUSH1 0x80 SHR JUMPDEST PUSH3 0x80000 DUP3 AND ISZERO PUSH2 0x1779 JUMPI PUSH12 0x48A170391F7DC42444E8FA2 MUL PUSH1 0x80 SHR JUMPDEST PUSH1 0x0 DUP5 PUSH1 0x2 SIGNEXTEND SGT ISZERO PUSH2 0x1794 JUMPI DUP1 PUSH1 0x0 NOT DUP2 PUSH2 0x1790 JUMPI INVALID JUMPDEST DIV SWAP1 POP JUMPDEST PUSH5 0x100000000 DUP2 MOD ISZERO PUSH2 0x17A8 JUMPI PUSH1 0x1 PUSH2 0x17AB JUMP JUMPDEST PUSH1 0x0 JUMPDEST PUSH1 0xFF AND PUSH1 0x20 DUP3 SWAP1 SHR ADD SWAP3 POP POP POP SWAP2 SWAP1 POP JUMP JUMPDEST PUSH1 0x0 DUP1 PUSH1 0x0 PUSH2 0x17CC DUP7 DUP7 PUSH2 0x19A2 JUMP JUMPDEST SWAP2 POP SWAP2 POP PUSH1 0x0 DUP5 DUP1 PUSH2 0x17DA JUMPI INVALID JUMPDEST DUP7 DUP9 MULMOD SWAP1 POP DUP3 DUP2 GT ISZERO PUSH2 0x17EE JUMPI PUSH1 0x1 DUP3 SUB SWAP2 POP JUMPDEST SWAP2 DUP3 SWAP1 SUB SWAP2 DUP2 PUSH2 0x180C JUMPI DUP5 DUP4 DUP2 PUSH2 0x1801 JUMPI INVALID JUMPDEST DIV SWAP4 POP POP POP POP PUSH2 0x5D5 JUMP JUMPDEST DUP5 DUP3 LT PUSH2 0x182B JUMPI PUSH1 0x40 MLOAD PUSH3 0x461BCD PUSH1 0xE5 SHL DUP2 MSTORE PUSH1 0x4 ADD PUSH2 0x4D0 SWAP1 PUSH2 0x2039 JUMP JUMPDEST PUSH2 0x1836 DUP4 DUP4 DUP8 PUSH2 0x19CF JUMP JUMPDEST SWAP8 SWAP7 POP POP POP POP POP POP POP JUMP JUMPDEST EXTCODESIZE ISZERO ISZERO SWAP1 JUMP JUMPDEST PUSH1 0x0 SLOAD PUSH2 0x100 SWAP1 DIV PUSH1 0xFF AND DUP1 PUSH2 0x1860 JUMPI POP PUSH2 0x1860 PUSH2 0x13D9 JUMP JUMPDEST DUP1 PUSH2 0x186E JUMPI POP PUSH1 0x0 SLOAD PUSH1 0xFF AND ISZERO JUMPDEST PUSH2 0x188A JUMPI PUSH1 0x40 MLOAD PUSH3 0x461BCD PUSH1 0xE5 SHL DUP2 MSTORE PUSH1 0x4 ADD PUSH2 0x4D0 SWAP1 PUSH2 0x1F32 JUMP JUMPDEST PUSH1 0x0 SLOAD PUSH2 0x100 SWAP1 DIV PUSH1 0xFF AND ISZERO DUP1 ISZERO PUSH2 0x1468 JUMPI PUSH1 0x0 DUP1 SLOAD PUSH1 0xFF NOT PUSH2 0xFF00 NOT SWAP1 SWAP2 AND PUSH2 0x100 OR AND PUSH1 0x1 OR SWAP1 SSTORE DUP1 ISZERO PUSH2 0x8AA JUMPI PUSH1 0x0 DUP1 SLOAD PUSH2 0xFF00 NOT AND SWAP1 SSTORE POP JUMP JUMPDEST PUSH1 0x0 SLOAD PUSH2 0x100 SWAP1 DIV PUSH1 0xFF AND DUP1 PUSH2 0x18E1 JUMPI POP PUSH2 0x18E1 PUSH2 0x13D9 JUMP JUMPDEST DUP1 PUSH2 0x18EF JUMPI POP PUSH1 0x0 SLOAD PUSH1 0xFF AND ISZERO JUMPDEST PUSH2 0x190B JUMPI PUSH1 0x40 MLOAD PUSH3 0x461BCD PUSH1 0xE5 SHL DUP2 MSTORE PUSH1 0x4 ADD PUSH2 0x4D0 SWAP1 PUSH2 0x1F32 JUMP JUMPDEST PUSH1 0x0 SLOAD PUSH2 0x100 SWAP1 DIV PUSH1 0xFF AND ISZERO DUP1 ISZERO PUSH2 0x1936 JUMPI PUSH1 0x0 DUP1 SLOAD PUSH1 0xFF NOT PUSH2 0xFF00 NOT SWAP1 SWAP2 AND PUSH2 0x100 OR AND PUSH1 0x1 OR SWAP1 SSTORE JUMPDEST PUSH1 0x0 PUSH2 0x1940 PUSH2 0x13D5 JUMP JUMPDEST PUSH1 0x33 DUP1 SLOAD PUSH1 0x1 PUSH1 0x1 PUSH1 0xA0 SHL SUB NOT AND PUSH1 0x1 PUSH1 0x1 PUSH1 0xA0 SHL SUB DUP4 AND SWAP1 DUP2 OR SWAP1 SWAP2 SSTORE PUSH1 0x40 MLOAD SWAP2 SWAP3 POP SWAP1 PUSH1 0x0 SWAP1 PUSH32 0x8BE0079C531659141344CD1FD0A4F28419497F9722A3DAAFE3B4186F6B6457E0 SWAP1 DUP3 SWAP1 LOG3 POP DUP1 ISZERO PUSH2 0x8AA JUMPI PUSH1 0x0 DUP1 SLOAD PUSH2 0xFF00 NOT AND SWAP1 SSTORE POP JUMP JUMPDEST PUSH1 0x0 DUP1 DUP1 PUSH1 0x0 NOT DUP5 DUP7 MULMOD SWAP1 POP DUP4 DUP6 MUL SWAP3 POP DUP3 DUP2 SUB SWAP2 POP DUP3 DUP2 LT ISZERO PUSH2 0x19C7 JUMPI PUSH1 0x1 DUP3 SUB SWAP2 POP JUMPDEST POP SWAP3 POP SWAP3 SWAP1 POP JUMP JUMPDEST PUSH1 0x0 DUP2 DUP2 SUB DUP3 AND DUP1 DUP4 DUP2 PUSH2 0x19DF JUMPI INVALID JUMPDEST DIV SWAP3 POP DUP1 DUP6 DUP2 PUSH2 0x19EB JUMPI INVALID JUMPDEST DIV SWAP5 POP DUP1 DUP2 PUSH1 0x0 SUB DUP2 PUSH2 0x19FA JUMPI INVALID JUMPDEST PUSH1 0x2 DUP6 DUP2 SUB DUP1 DUP8 MUL DUP3 SUB MUL DUP1 DUP8 MUL DUP3 SUB MUL DUP1 DUP8 MUL DUP3 SUB MUL DUP1 DUP8 MUL DUP3 SUB MUL DUP1 DUP8 MUL DUP3 SUB MUL DUP1 DUP8 MUL DUP3 SUB MUL SWAP6 DUP7 MUL SWAP1 SUB SWAP1 SWAP5 MUL SWAP4 DIV PUSH1 0x1 ADD SWAP4 SWAP1 SWAP4 MUL SWAP4 SWAP1 SWAP4 ADD MUL SWAP3 SWAP2 POP POP JUMP JUMPDEST PUSH1 0x40 DUP1 MLOAD PUSH1 0x80 DUP2 ADD DUP3 MSTORE PUSH1 0x0 DUP1 DUP3 MSTORE PUSH1 0x20 DUP3 ADD DUP2 SWAP1 MSTORE SWAP2 DUP2 ADD DUP3 SWAP1 MSTORE PUSH1 0x60 DUP2 ADD SWAP2 SWAP1 SWAP2 MSTORE SWAP1 JUMP JUMPDEST PUSH1 0x0 DUP3 PUSH1 0x1F DUP4 ADD SLT PUSH2 0x1A76 JUMPI DUP1 DUP2 REVERT JUMPDEST DUP2 MLOAD PUSH2 0x1A89 PUSH2 0x1A84 DUP3 PUSH2 0x2211 JUMP JUMPDEST PUSH2 0x21EA JUMP JUMPDEST DUP2 DUP2 MSTORE SWAP2 POP PUSH1 0x20 DUP1 DUP4 ADD SWAP1 DUP5 DUP2 ADD DUP2 DUP5 MUL DUP7 ADD DUP3 ADD DUP8 LT ISZERO PUSH2 0x1AAA JUMPI PUSH1 0x0 DUP1 REVERT JUMPDEST PUSH1 0x0 JUMPDEST DUP5 DUP2 LT ISZERO PUSH2 0x1AD2 JUMPI DUP2 MLOAD PUSH2 0x1AC0 DUP2 PUSH2 0x2231 JUMP JUMPDEST DUP5 MSTORE SWAP3 DUP3 ADD SWAP3 SWAP1 DUP3 ADD SWAP1 PUSH1 0x1 ADD PUSH2 0x1AAD JUMP JUMPDEST POP POP POP POP POP SWAP3 SWAP2 POP POP JUMP JUMPDEST DUP1 MLOAD PUSH1 0x6 DUP2 SWAP1 SIGNEXTEND DUP2 EQ PUSH2 0x139D JUMPI PUSH1 0x0 DUP1 REVERT JUMPDEST DUP1 MLOAD PUSH10 0xFFFFFFFFFFFFFFFFFFFF DUP2 AND DUP2 EQ PUSH2 0x139D JUMPI PUSH1 0x0 DUP1 REVERT JUMPDEST PUSH1 0x0 PUSH1 0x20 DUP3 DUP5 SUB SLT ISZERO PUSH2 0x1B1A JUMPI DUP1 DUP2 REVERT JUMPDEST DUP2 CALLDATALOAD PUSH2 0x139A DUP2 PUSH2 0x2231 JUMP JUMPDEST PUSH1 0x0 DUP1 PUSH1 0x0 DUP1 PUSH1 0x80 DUP6 DUP8 SUB SLT ISZERO PUSH2 0x1B3A JUMPI DUP3 DUP4 REVERT JUMPDEST DUP5 CALLDATALOAD PUSH2 0x1B45 DUP2 PUSH2 0x2231 JUMP JUMPDEST SWAP4 POP PUSH1 0x20 DUP6 ADD CALLDATALOAD PUSH2 0x1B55 DUP2 PUSH2 0x2231 JUMP JUMPDEST SWAP3 POP PUSH1 0x40 DUP6 ADD CALLDATALOAD PUSH2 0x1B65 DUP2 PUSH2 0x2231 JUMP JUMPDEST SWAP2 POP PUSH1 0x60 DUP6 ADD CALLDATALOAD PUSH2 0x1B75 DUP2 PUSH2 0x2231 JUMP JUMPDEST SWAP4 SWAP7 SWAP3 SWAP6 POP SWAP1 SWAP4 POP POP JUMP JUMPDEST PUSH1 0x0 DUP1 PUSH1 0x0 DUP1 PUSH1 0x80 DUP6 DUP8 SUB SLT ISZERO PUSH2 0x1B95 JUMPI DUP4 DUP5 REVERT JUMPDEST DUP5 CALLDATALOAD PUSH2 0x1BA0 DUP2 PUSH2 0x2231 JUMP JUMPDEST SWAP4 POP PUSH1 0x20 DUP6 ADD CALLDATALOAD DUP1 ISZERO ISZERO DUP2 EQ PUSH2 0x1BB4 JUMPI DUP4 DUP5 REVERT JUMPDEST SWAP3 POP PUSH1 0x40 DUP6 ADD CALLDATALOAD PUSH2 0x1BC4 DUP2 PUSH2 0x2231 JUMP JUMPDEST SWAP4 SWAP7 SWAP3 SWAP6 POP SWAP3 SWAP4 PUSH1 0x60 ADD CALLDATALOAD SWAP3 POP POP JUMP JUMPDEST PUSH1 0x0 DUP1 PUSH1 0x40 DUP4 DUP6 SUB SLT ISZERO PUSH2 0x1BE6 JUMPI DUP2 DUP3 REVERT JUMPDEST DUP3 MLOAD PUSH8 0xFFFFFFFFFFFFFFFF DUP1 DUP3 GT ISZERO PUSH2 0x1BFD JUMPI DUP4 DUP5 REVERT JUMPDEST DUP2 DUP6 ADD SWAP2 POP DUP6 PUSH1 0x1F DUP4 ADD SLT PUSH2 0x1C10 JUMPI DUP4 DUP5 REVERT JUMPDEST DUP2 MLOAD PUSH2 0x1C1E PUSH2 0x1A84 DUP3 PUSH2 0x2211 JUMP JUMPDEST DUP1 DUP3 DUP3 MSTORE PUSH1 0x20 DUP1 DUP4 ADD SWAP3 POP DUP1 DUP7 ADD DUP11 DUP3 DUP4 DUP8 MUL DUP10 ADD ADD GT ISZERO PUSH2 0x1C3E JUMPI DUP9 DUP10 REVERT JUMPDEST DUP9 SWAP7 POP JUMPDEST DUP5 DUP8 LT ISZERO PUSH2 0x1C68 JUMPI PUSH2 0x1C54 DUP12 DUP3 PUSH2 0x1ADD JUMP JUMPDEST DUP5 MSTORE PUSH1 0x1 SWAP7 SWAP1 SWAP7 ADD SWAP6 SWAP3 DUP2 ADD SWAP3 DUP2 ADD PUSH2 0x1C42 JUMP JUMPDEST POP DUP9 ADD MLOAD SWAP1 SWAP7 POP SWAP4 POP POP POP DUP1 DUP3 GT ISZERO PUSH2 0x1C7F JUMPI DUP3 DUP4 REVERT JUMPDEST POP PUSH2 0x1C8C DUP6 DUP3 DUP7 ADD PUSH2 0x1A66 JUMP JUMPDEST SWAP2 POP POP SWAP3 POP SWAP3 SWAP1 POP JUMP JUMPDEST PUSH1 0x0 PUSH1 0x20 DUP3 DUP5 SUB SLT ISZERO PUSH2 0x1CA7 JUMPI DUP1 DUP2 REVERT JUMPDEST POP CALLDATALOAD SWAP2 SWAP1 POP JUMP JUMPDEST PUSH1 0x0 PUSH1 0x20 DUP3 DUP5 SUB SLT ISZERO PUSH2 0x1CBF JUMPI DUP1 DUP2 REVERT JUMPDEST POP MLOAD SWAP2 SWAP1 POP JUMP JUMPDEST PUSH1 0x0 PUSH1 0x20 DUP3 DUP5 SUB SLT ISZERO PUSH2 0x1CD7 JUMPI DUP1 DUP2 REVERT JUMPDEST DUP2 CALLDATALOAD PUSH4 0xFFFFFFFF DUP2 AND DUP2 EQ PUSH2 0x139A JUMPI DUP2 DUP3 REVERT JUMPDEST PUSH1 0x0 DUP1 PUSH1 0x0 DUP1 PUSH1 0x0 PUSH1 0xA0 DUP7 DUP9 SUB SLT ISZERO PUSH2 0x1D01 JUMPI DUP1 DUP2 REVERT JUMPDEST PUSH2 0x1D0B DUP8 DUP8 PUSH2 0x1AEF JUMP JUMPDEST SWAP5 POP PUSH1 0x20 DUP7 ADD MLOAD SWAP4 POP PUSH1 0x40 DUP7 ADD MLOAD SWAP3 POP PUSH1 0x60 DUP7 ADD MLOAD SWAP2 POP PUSH2 0x1D2F DUP8 PUSH1 0x80 DUP9 ADD PUSH2 0x1AEF JUMP JUMPDEST SWAP1 POP SWAP3 SWAP6 POP SWAP3 SWAP6 SWAP1 SWAP4 POP JUMP JUMPDEST PUSH1 0x1 PUSH1 0x1 PUSH1 0xA0 SHL SUB SWAP2 SWAP1 SWAP2 AND DUP2 MSTORE PUSH1 0x20 ADD SWAP1 JUMP JUMPDEST PUSH1 0x1 PUSH1 0x1 PUSH1 0xA0 SHL SUB SWAP5 DUP6 AND DUP2 MSTORE SWAP3 ISZERO ISZERO PUSH1 0x20 DUP5 ADD MSTORE SWAP3 AND PUSH1 0x40 DUP3 ADD MSTORE PUSH1 0x60 DUP2 ADD SWAP2 SWAP1 SWAP2 MSTORE PUSH1 0x80 ADD SWAP1 JUMP JUMPDEST PUSH1 0x20 DUP1 DUP3 MSTORE DUP3 MLOAD DUP3 DUP3 ADD DUP2 SWAP1 MSTORE PUSH1 0x0 SWAP2 SWAP1 DUP5 DUP3 ADD SWAP1 PUSH1 0x40 DUP6 ADD SWAP1 DUP5 JUMPDEST DUP2 DUP2 LT ISZERO PUSH2 0x1DB7 JUMPI DUP4 MLOAD PUSH4 0xFFFFFFFF AND DUP4 MSTORE SWAP3 DUP5 ADD SWAP3 SWAP2 DUP5 ADD SWAP2 PUSH1 0x1 ADD PUSH2 0x1D95 JUMP JUMPDEST POP SWAP1 SWAP7 SWAP6 POP POP POP POP POP POP JUMP JUMPDEST PUSH1 0x20 DUP1 DUP3 MSTORE PUSH1 0x26 SWAP1 DUP3 ADD MSTORE PUSH32 0x4F776E61626C653A206E6577206F776E657220697320746865207A65726F2061 PUSH1 0x40 DUP3 ADD MSTORE PUSH6 0x646472657373 PUSH1 0xD0 SHL PUSH1 0x60 DUP3 ADD MSTORE PUSH1 0x80 ADD SWAP1 JUMP JUMPDEST PUSH1 0x20 DUP1 DUP3 MSTORE PUSH1 0x2D SWAP1 DUP3 ADD MSTORE PUSH32 0x676574436F6C6C61746572616C50726963653A20436F6C6C61746572616C206E PUSH1 0x40 DUP3 ADD MSTORE PUSH13 0x37BA1039BAB83837B93A32B217 PUSH1 0x99 SHL PUSH1 0x60 DUP3 ADD MSTORE PUSH1 0x80 ADD SWAP1 JUMP JUMPDEST PUSH1 0x20 DUP1 DUP3 MSTORE PUSH1 0x1E SWAP1 DUP3 ADD MSTORE PUSH32 0x536166654D6174683A207375627472616374696F6E206F766572666C6F770000 PUSH1 0x40 DUP3 ADD MSTORE PUSH1 0x60 ADD SWAP1 JUMP JUMPDEST PUSH1 0x20 DUP1 DUP3 MSTORE PUSH1 0x1A SWAP1 DUP3 ADD MSTORE PUSH32 0x536166654D6174683A206469766973696F6E206279207A65726F000000000000 PUSH1 0x40 DUP3 ADD MSTORE PUSH1 0x60 ADD SWAP1 JUMP JUMPDEST PUSH1 0x20 DUP1 DUP3 MSTORE PUSH1 0x2 SWAP1 DUP3 ADD MSTORE PUSH2 0x425 PUSH1 0xF4 SHL PUSH1 0x40 DUP3 ADD MSTORE PUSH1 0x60 ADD SWAP1 JUMP JUMPDEST PUSH1 0x20 DUP1 DUP3 MSTORE PUSH1 0x32 SWAP1 DUP3 ADD MSTORE PUSH32 0x676574436F6C6C61746572616C50726963655F707265633A20436F6C6C617465 PUSH1 0x40 DUP3 ADD MSTORE PUSH18 0x3930B6103737BA1039BAB83837B93A32B217 PUSH1 0x71 SHL PUSH1 0x60 DUP3 ADD MSTORE PUSH1 0x80 ADD SWAP1 JUMP JUMPDEST PUSH1 0x20 DUP1 DUP3 MSTORE PUSH1 0x2E SWAP1 DUP3 ADD MSTORE PUSH32 0x496E697469616C697A61626C653A20636F6E747261637420697320616C726561 PUSH1 0x40 DUP3 ADD MSTORE PUSH14 0x191E481A5B9A5D1A585B1A5E9959 PUSH1 0x92 SHL PUSH1 0x60 DUP3 ADD MSTORE PUSH1 0x80 ADD SWAP1 JUMP JUMPDEST PUSH1 0x20 DUP1 DUP3 MSTORE PUSH1 0x3A SWAP1 DUP3 ADD MSTORE PUSH32 0x757064617465496E4F7574526174696F3B206572726F72206C61737420757064 PUSH1 0x40 DUP3 ADD MSTORE PUSH32 0x6174652068617070656E656420696E2074686520667574757265000000000000 PUSH1 0x60 DUP3 ADD MSTORE PUSH1 0x80 ADD SWAP1 JUMP JUMPDEST PUSH1 0x20 DUP1 DUP3 MSTORE PUSH1 0x1 SWAP1 DUP3 ADD MSTORE PUSH1 0x15 PUSH1 0xFA SHL PUSH1 0x40 DUP3 ADD MSTORE PUSH1 0x60 ADD SWAP1 JUMP JUMPDEST PUSH1 0x20 DUP1 DUP3 MSTORE PUSH1 0x21 SWAP1 DUP3 ADD MSTORE PUSH32 0x536166654D6174683A206D756C7469706C69636174696F6E206F766572666C6F PUSH1 0x40 DUP3 ADD MSTORE PUSH1 0x77 PUSH1 0xF8 SHL PUSH1 0x60 DUP3 ADD MSTORE PUSH1 0x80 ADD SWAP1 JUMP JUMPDEST PUSH1 0x20 DUP1 DUP3 MSTORE PUSH1 0x1A SWAP1 DUP3 ADD MSTORE PUSH32 0x46756C6C4D6174683A2046554C4C4449565F4F564552464C4F57000000000000 PUSH1 0x40 DUP3 ADD MSTORE PUSH1 0x60 ADD SWAP1 JUMP JUMPDEST PUSH1 0x20 DUP1 DUP3 MSTORE DUP2 DUP2 ADD MSTORE PUSH32 0x4F776E61626C653A2063616C6C6572206973206E6F7420746865206F776E6572 PUSH1 0x40 DUP3 ADD MSTORE PUSH1 0x60 ADD SWAP1 JUMP JUMPDEST PUSH1 0x20 DUP1 DUP3 MSTORE PUSH1 0x33 SWAP1 DUP3 ADD MSTORE PUSH32 0x5F676574436F6C6C61746572616C50726963655F707265633A20436F6C6C6174 PUSH1 0x40 DUP3 ADD MSTORE PUSH19 0x32B930B6103737BA1039BAB83837B93A32B217 PUSH1 0x69 SHL PUSH1 0x60 DUP3 ADD MSTORE PUSH1 0x80 ADD SWAP1 JUMP JUMPDEST PUSH1 0x20 DUP1 DUP3 MSTORE PUSH1 0x30 SWAP1 DUP3 ADD MSTORE PUSH32 0x757064617465496E4F7574526174696F3A207468652074696D6520656C617073 PUSH1 0x40 DUP3 ADD MSTORE PUSH16 0x32B21034B9903A37B79039B437B93A17 PUSH1 0x81 SHL PUSH1 0x60 DUP3 ADD MSTORE PUSH1 0x80 ADD SWAP1 JUMP JUMPDEST PUSH1 0x20 DUP1 DUP3 MSTORE PUSH1 0x2E SWAP1 DUP3 ADD MSTORE PUSH32 0x5F676574436F6C6C61746572616C50726963653A20436F6C6C61746572616C20 PUSH1 0x40 DUP3 ADD MSTORE PUSH14 0x3737BA1039BAB83837B93A32B217 PUSH1 0x91 SHL PUSH1 0x60 DUP3 ADD MSTORE PUSH1 0x80 ADD SWAP1 JUMP JUMPDEST SWAP1 DUP2 MSTORE PUSH1 0x20 ADD SWAP1 JUMP JUMPDEST SWAP5 DUP6 MSTORE PUSH1 0x20 DUP6 ADD SWAP4 SWAP1 SWAP4 MSTORE PUSH1 0x40 DUP5 ADD SWAP2 SWAP1 SWAP2 MSTORE PUSH4 0xFFFFFFFF SWAP1 DUP2 AND PUSH1 0x60 DUP5 ADD MSTORE AND PUSH1 0x80 DUP3 ADD MSTORE PUSH1 0xA0 ADD SWAP1 JUMP JUMPDEST PUSH4 0xFFFFFFFF SWAP2 SWAP1 SWAP2 AND DUP2 MSTORE PUSH1 0x20 ADD SWAP1 JUMP JUMPDEST PUSH1 0xFF SWAP2 SWAP1 SWAP2 AND DUP2 MSTORE PUSH1 0x20 ADD SWAP1 JUMP JUMPDEST PUSH1 0x40 MLOAD DUP2 DUP2 ADD PUSH8 0xFFFFFFFFFFFFFFFF DUP2 GT DUP3 DUP3 LT OR ISZERO PUSH2 0x2209 JUMPI PUSH1 0x0 DUP1 REVERT JUMPDEST PUSH1 0x40 MSTORE SWAP2 SWAP1 POP JUMP JUMPDEST PUSH1 0x0 PUSH8 0xFFFFFFFFFFFFFFFF DUP3 GT ISZERO PUSH2 0x2227 JUMPI DUP1 DUP2 REVERT JUMPDEST POP PUSH1 0x20 SWAP1 DUP2 MUL ADD SWAP1 JUMP JUMPDEST PUSH1 0x1 PUSH1 0x1 PUSH1 0xA0 SHL SUB DUP2 AND DUP2 EQ PUSH2 0x8AA JUMPI PUSH1 0x0 DUP1 REVERT INVALID LOG2 PUSH5 0x6970667358 0x22 SLT KECCAK256 0xAC 0xA8 0xEE TIMESTAMP SHR 0x24 0xB3 0x26 0xBF 0x2D 0xB9 DUP5 SUB PUSH8 0x678EE0EF545E4662 ADD 0xEF PUSH5 0x5F4B183399 0xEE SWAP4 PUSH5 0x736F6C6343 STOP MOD 0xC STOP CALLER ",
  "sha1": "1cdbb4d67cf712869e9297525e3622ffd0159af4",
  "source": "\n// SPDX-License-Identifier: MIT\n// To-do: remove for testing purpose functions;\n// To-do: check USDsInOutRatio_prec;\npragma solidity ^0.6.12;\npragma experimental ABIEncoderV2; //What's this for?\n\n\nimport \"@openzeppelin/contracts-upgradeable/proxy/Initializable.sol\";\n//import \"@openzeppelin/contracts-upgradeable/access/OwnableUpgradeable.sol\";\n//import \"https://github.com/OpenZeppelin/openzeppelin-contracts-upgradeable/blob/v3.4.0/contracts/access/OwnableUpgradeable.sol\";\nimport \"../libraries/openzeppelin/OwnableUpgradeable.sol\";\nimport \"@openzeppelin/contracts-upgradeable/math/SafeMathUpgradeable.sol\";\n\nimport \"../vault/VaultCore.sol\";\nimport \"../interfaces/AggregatorV3Interface.sol\";\nimport \"../interfaces/IOracle.sol\";\nimport \"../interfaces/IUniswapV2Pair.sol\";\nimport \"../libraries/UniswapV2OracleLibrary.sol\";\nimport \"../libraries/OracleLibrary.sol\";\n\n/**\n * @title Oracle - the oracle contract for Spark\n * @author Sperax Dev Team\n * @notice this contract gets data from UniswapV2 pair and feed these data into the main contact of Spark, i.e. Spark.sol\n * @dev this contract draws insights from \"ExampleOracleSimple.sol\" by UniswapV2 team\n */\n\ncontract Oracle is Initializable, IOracle, OwnableUpgradeable {\n    using SafeMathUpgradeable for *;\n    using OracleLibrary for *;\n\n    uint public override USDsInOutRatio; // USDsInOutRatio is accurate after 24 hours (one iteration)\n    uint32 public constant override USDsInOutRatio_prec = 10**6;\n    uint8 public constant FREQUENCY = 24;\n    uint32 public updateNextIndex;\n    uint32 public lastUpdateTime; // the timstamp of the lastest update\n    uint32 public updatePeriod; // the default updatePeriod of one update is 1 hours\n    uint public constant ETHprice_prec = 10**8;\n    uint public constant SPAprice_prec = 10**18;\n    uint public constant USDsPrice_prec = 10**18;\n    AggregatorV3Interface priceFeedETH;\n    address public constant SPAaddr = address(0xbb5E27Ae27A6a7D092b181FbDdAc1A1004e9adff);\n    address public constant WETH9 = 0xd0A1E359811322d97991E03f863a0C30C2cF029C;\n    address public VaultAddr;\n    address public USDsOraclePool;\n    address public SPAoraclePool;\n    address public SPAoracleBaseTokenAddr;\n    address public USDsOracleBaseTokenAddr;\n\n    event USDsInOutRatioUpdated(\n        uint USDsInOutRatio,\n        uint USDsOnflow_average,\n        uint USDsInflow_average,\n        uint32 timeStamp,\n        uint index\n    );\n    event updatePeriodChanged(\n        uint32 newPeriod\n    );\n    event collateralInfoChanged(\n        address _collateralAddr,\n        bool _supported,\n        AggregatorV3Interface _priceFeed,\n        uint _price_prec\n    );\n\n    uint[FREQUENCY+1] public USDsInflow;\n    uint[FREQUENCY+1] public USDsOnflow;\n    mapping (address => collateralStruct) collateralsInfo;\n    struct collateralStruct {\n        address collateralAddr;\n        bool supported;\n        AggregatorV3Interface priceFeed;\n        uint price_prec;\n    }\n\n    //\n    // Initializer\n    //\n    function initialize() public initializer {\n        OwnableUpgradeable.__Ownable_init();\n        updatePeriod = 1 hours;\n        lastUpdateTime = uint32(now % 2**32);\n        priceFeedETH = AggregatorV3Interface(0x9326BFA02ADD2366b30bacB125260Af641031331);\n    }\n\n    function updateOraclePoolsAddress(address _SPAoracleBaseTokenAddr, address _USDsOracleBaseTokenAddr, address _USDsOraclePool, address _SPAoraclePool) external onlyOwner {\n        SPAoracleBaseTokenAddr = _SPAoracleBaseTokenAddr;\n        USDsOracleBaseTokenAddr = _USDsOracleBaseTokenAddr;\n        USDsOraclePool = _USDsOraclePool;\n        SPAoraclePool = _SPAoraclePool;\n    }\n\n    function updateVaultAddress(address _VaultAddr) external onlyOwner {\n        VaultAddr = _VaultAddr;\n    }\n\n    /**\n     * @notice change updatePeriod\n     * @dev the frequency of update always remains the same\n     * @param newPeriod new minimal updatePeriod in between two updates\n     */\n    function changePeriod(uint32 newPeriod) external onlyOwner {\n        updatePeriod = newPeriod;\n        emit updatePeriodChanged(updatePeriod);\n    }\n\n    function updateCollateralInfo(address _collateralAddr, bool _supported, AggregatorV3Interface _priceFeed, uint _price_prec) external onlyOwner {\n        collateralStruct storage updatedCollateral = collateralsInfo[_collateralAddr];\n        updatedCollateral.collateralAddr = _collateralAddr;\n        updatedCollateral.supported = _supported;\n        updatedCollateral.priceFeed = _priceFeed;\n        updatedCollateral.price_prec = _price_prec;\n        emit collateralInfoChanged(_collateralAddr, _supported, _priceFeed, _price_prec);\n    }\n\n    /**\n     * @notice update the price of token0 to the latest\n     * @dev the price would be updated only once per updatePeriod time\n     * @dev USDsInOutRatio is accurate after 24 hours (one iteration)\n     */\n    function updateInOutRatio() external override {\n        uint32 currTime = uint32(now % 2 ** 32);\n        uint32 timeElapsed = currTime - lastUpdateTime;\n        require(currTime >= lastUpdateTime, \"updateInOutRatio; error last update happened in the future\");\n        require(timeElapsed >= updatePeriod, \"updateInOutRatio: the time elapsed is too short.\");\n        uint32 indexNew = updateNextIndex;\n        uint32 indexOld = (indexNew + 1) % (FREQUENCY + 1);\n        USDsInflow[indexNew] = USDs(VaultAddr)._totalMinted();\n        USDsOnflow[indexNew] = USDs(VaultAddr)._totalBurnt();\n        uint USDsInflow_average = USDsInflow[indexNew].sub(USDsInflow[indexOld]);\n        uint USDsOnflow_average = USDsOnflow[indexNew].sub(USDsOnflow[indexOld]);\n        if (USDsInOutRatio == 0) {\n            USDsInOutRatio = USDsInOutRatio_prec;\n        } else {\n            USDsInOutRatio = USDsOnflow_average.mul(USDsInOutRatio_prec).div(USDsInflow_average);\n        }\n        lastUpdateTime = currTime;\n        updateNextIndex = indexOld;\n        emit USDsInOutRatioUpdated(USDsInOutRatio, USDsOnflow_average, USDsInflow_average, lastUpdateTime, indexNew);\n    }\n\n    function getCollateralPrice(address collateralAddr) external view override returns (uint) {\n        collateralStruct memory  collateralInfo = collateralsInfo[collateralAddr];\n        require(collateralInfo.supported, \"getCollateralPrice: Collateral not supported.\");\n        return _getCollateralPrice(collateralAddr);\n    }\n\n    function getETHprice() external view override returns (uint) {\n        return _getETHprice();\n\t}\n\n    function getSPAprice() external view override returns (uint) {\n        int24 timeWeightedAverageTick = SPAoraclePool.consult(3600);\n        uint quoteAmount = timeWeightedAverageTick.getQuoteAtTick(uint128(SPAprice_prec), SPAaddr, SPAoracleBaseTokenAddr);\n        uint SPAprice = _getETHprice().mul(quoteAmount).div(ETHprice_prec);\n        return SPAprice;\n    }\n\n    function getUSDsPrice() external view override returns (uint) {\n        int24 timeWeightedAverageTick = USDsOraclePool.consult(3600);\n        uint quoteAmount = timeWeightedAverageTick.getQuoteAtTick(uint128(USDsPrice_prec), VaultAddr, USDsOracleBaseTokenAddr);\n        uint USDsPrice = _getCollateralPrice(USDsOracleBaseTokenAddr).mul(quoteAmount).div(_getCollateralPrice_prec(USDsOracleBaseTokenAddr));\n        return USDsPrice;\n    }\n\n    function getUSDsPrice_average() external view override returns (uint) {\n        int24 timeWeightedAverageTick = USDsOraclePool.consult(86400);\n        uint quoteAmount = timeWeightedAverageTick.getQuoteAtTick(uint128(USDsPrice_prec), VaultAddr, USDsOracleBaseTokenAddr);\n        uint USDsPrice_average = _getCollateralPrice(USDsOracleBaseTokenAddr).mul(quoteAmount).div(_getCollateralPrice_prec(USDsOracleBaseTokenAddr));\n        return USDsPrice_average;\n    }\n    function getCollateralPrice_prec(address collateralAddr) external view override returns (uint) {\n        collateralStruct memory  collateralInfo = collateralsInfo[collateralAddr];\n        require(collateralInfo.supported, \"getCollateralPrice_prec: Collateral not supported.\");\n        return _getCollateralPrice_prec(collateralAddr);\n    }\n\n    function getETHprice_prec() external view override returns (uint) {\n        return ETHprice_prec;\n    }\n\n    function getSPAprice_prec() external view override returns (uint) {\n        return SPAprice_prec;\n    }\n\n    function getUSDsPrice_prec() external view override returns (uint) {\n        return USDsPrice_prec;\n    }\n\n    function _getCollateralPrice(address collateralAddr) internal view returns (uint) {\n        collateralStruct memory  collateralInfo = collateralsInfo[collateralAddr];\n        require(collateralInfo.supported, \"_getCollateralPrice: Collateral not supported.\");\n        (\n            ,\n            int price,\n            ,\n            ,\n        ) = collateralInfo.priceFeed.latestRoundData();\n        return uint(price);\n    }\n\n\n\tfunction _getETHprice() internal view returns (uint) {\n\t\t(\n            ,\n            int price,\n            ,\n            ,\n\t\t) = priceFeedETH.latestRoundData();\n\t\treturn uint(price);\n\t}\n\n    function _getCollateralPrice_prec(address collateralAddr) internal view returns (uint) {\n        collateralStruct memory  collateralInfo = collateralsInfo[collateralAddr];\n        require(collateralInfo.supported, \"_getCollateralPrice_prec: Collateral not supported.\");\n        return collateralInfo.price_prec;\n\t}\n\n\n}\n",
  "sourcePath": "contracts/oracle/Oracle.sol",
  "type": "contract"
}