{
  "contractName": "Oracle",
  "abi": [
    {
      "anonymous": false,
      "inputs": [
        {
          "indexed": true,
          "internalType": "address",
          "name": "previousOwner",
          "type": "address"
        },
        {
          "indexed": true,
          "internalType": "address",
          "name": "newOwner",
          "type": "address"
        }
      ],
      "name": "OwnershipTransferred",
      "type": "event"
    },
    {
      "anonymous": false,
      "inputs": [
        {
          "indexed": false,
          "internalType": "uint256",
          "name": "USDsInOutRatio",
          "type": "uint256"
        },
        {
          "indexed": false,
          "internalType": "uint256",
          "name": "USDsOnflow_average",
          "type": "uint256"
        },
        {
          "indexed": false,
          "internalType": "uint256",
          "name": "USDsInflow_average",
          "type": "uint256"
        },
        {
          "indexed": false,
          "internalType": "uint32",
          "name": "timeStamp",
          "type": "uint32"
        },
        {
          "indexed": false,
          "internalType": "uint256",
          "name": "index",
          "type": "uint256"
        }
      ],
      "name": "USDsInOutRatioUpdated",
      "type": "event"
    },
    {
      "anonymous": false,
      "inputs": [
        {
          "indexed": false,
          "internalType": "address",
          "name": "_collateralAddr",
          "type": "address"
        },
        {
          "indexed": false,
          "internalType": "bool",
          "name": "_supported",
          "type": "bool"
        },
        {
          "indexed": false,
          "internalType": "contract AggregatorV3Interface",
          "name": "_priceFeed",
          "type": "address"
        },
        {
          "indexed": false,
          "internalType": "uint256",
          "name": "_price_prec",
          "type": "uint256"
        }
      ],
      "name": "collateralInfoChanged",
      "type": "event"
    },
    {
      "anonymous": false,
      "inputs": [
        {
          "indexed": false,
          "internalType": "uint32",
          "name": "newPeriod",
          "type": "uint32"
        }
      ],
      "name": "updatePeriodChanged",
      "type": "event"
    },
    {
      "inputs": [],
      "name": "ETHprice_prec",
      "outputs": [
        {
          "internalType": "uint256",
          "name": "",
          "type": "uint256"
        }
      ],
      "stateMutability": "view",
      "type": "function"
    },
    {
      "inputs": [],
      "name": "FREQUENCY",
      "outputs": [
        {
          "internalType": "uint8",
          "name": "",
          "type": "uint8"
        }
      ],
      "stateMutability": "view",
      "type": "function"
    },
    {
      "inputs": [],
      "name": "SPAaddr",
      "outputs": [
        {
          "internalType": "address",
          "name": "",
          "type": "address"
        }
      ],
      "stateMutability": "view",
      "type": "function"
    },
    {
      "inputs": [],
      "name": "SPAoracleBaseTokenAddr",
      "outputs": [
        {
          "internalType": "address",
          "name": "",
          "type": "address"
        }
      ],
      "stateMutability": "view",
      "type": "function"
    },
    {
      "inputs": [],
      "name": "SPAoraclePool",
      "outputs": [
        {
          "internalType": "address",
          "name": "",
          "type": "address"
        }
      ],
      "stateMutability": "view",
      "type": "function"
    },
    {
      "inputs": [],
      "name": "SPAprice_prec",
      "outputs": [
        {
          "internalType": "uint256",
          "name": "",
          "type": "uint256"
        }
      ],
      "stateMutability": "view",
      "type": "function"
    },
    {
      "inputs": [],
      "name": "USDsInOutRatio",
      "outputs": [
        {
          "internalType": "uint256",
          "name": "",
          "type": "uint256"
        }
      ],
      "stateMutability": "view",
      "type": "function"
    },
    {
      "inputs": [],
      "name": "USDsInOutRatio_prec",
      "outputs": [
        {
          "internalType": "uint32",
          "name": "",
          "type": "uint32"
        }
      ],
      "stateMutability": "view",
      "type": "function"
    },
    {
      "inputs": [
        {
          "internalType": "uint256",
          "name": "",
          "type": "uint256"
        }
      ],
      "name": "USDsInflow",
      "outputs": [
        {
          "internalType": "uint256",
          "name": "",
          "type": "uint256"
        }
      ],
      "stateMutability": "view",
      "type": "function"
    },
    {
      "inputs": [
        {
          "internalType": "uint256",
          "name": "",
          "type": "uint256"
        }
      ],
      "name": "USDsOnflow",
      "outputs": [
        {
          "internalType": "uint256",
          "name": "",
          "type": "uint256"
        }
      ],
      "stateMutability": "view",
      "type": "function"
    },
    {
      "inputs": [],
      "name": "USDsOracleBaseTokenAddr",
      "outputs": [
        {
          "internalType": "address",
          "name": "",
          "type": "address"
        }
      ],
      "stateMutability": "view",
      "type": "function"
    },
    {
      "inputs": [],
      "name": "USDsOraclePool",
      "outputs": [
        {
          "internalType": "address",
          "name": "",
          "type": "address"
        }
      ],
      "stateMutability": "view",
      "type": "function"
    },
    {
      "inputs": [],
      "name": "USDsPrice_prec",
      "outputs": [
        {
          "internalType": "uint256",
          "name": "",
          "type": "uint256"
        }
      ],
      "stateMutability": "view",
      "type": "function"
    },
    {
      "inputs": [],
      "name": "VaultAddr",
      "outputs": [
        {
          "internalType": "address",
          "name": "",
          "type": "address"
        }
      ],
      "stateMutability": "view",
      "type": "function"
    },
    {
      "inputs": [],
      "name": "WETH9",
      "outputs": [
        {
          "internalType": "address",
          "name": "",
          "type": "address"
        }
      ],
      "stateMutability": "view",
      "type": "function"
    },
    {
      "inputs": [],
      "name": "lastUpdateTime",
      "outputs": [
        {
          "internalType": "uint32",
          "name": "",
          "type": "uint32"
        }
      ],
      "stateMutability": "view",
      "type": "function"
    },
    {
      "inputs": [],
      "name": "owner",
      "outputs": [
        {
          "internalType": "address",
          "name": "",
          "type": "address"
        }
      ],
      "stateMutability": "view",
      "type": "function"
    },
    {
      "inputs": [],
      "name": "renounceOwnership",
      "outputs": [],
      "stateMutability": "nonpayable",
      "type": "function"
    },
    {
      "inputs": [
        {
          "internalType": "address",
          "name": "newOwner",
          "type": "address"
        }
      ],
      "name": "transferOwnership",
      "outputs": [],
      "stateMutability": "nonpayable",
      "type": "function"
    },
    {
      "inputs": [],
      "name": "updateNextIndex",
      "outputs": [
        {
          "internalType": "uint32",
          "name": "",
          "type": "uint32"
        }
      ],
      "stateMutability": "view",
      "type": "function"
    },
    {
      "inputs": [],
      "name": "updatePeriod",
      "outputs": [
        {
          "internalType": "uint32",
          "name": "",
          "type": "uint32"
        }
      ],
      "stateMutability": "view",
      "type": "function"
    },
    {
      "inputs": [],
      "name": "initialize",
      "outputs": [],
      "stateMutability": "nonpayable",
      "type": "function"
    },
    {
      "inputs": [
        {
          "internalType": "address",
          "name": "_SPAoracleBaseTokenAddr",
          "type": "address"
        },
        {
          "internalType": "address",
          "name": "_USDsOracleBaseTokenAddr",
          "type": "address"
        },
        {
          "internalType": "address",
          "name": "_USDsOraclePool",
          "type": "address"
        },
        {
          "internalType": "address",
          "name": "_SPAoraclePool",
          "type": "address"
        }
      ],
      "name": "updateOraclePoolsAddress",
      "outputs": [],
      "stateMutability": "nonpayable",
      "type": "function"
    },
    {
      "inputs": [
        {
          "internalType": "address",
          "name": "_VaultAddr",
          "type": "address"
        }
      ],
      "name": "updateVaultAddress",
      "outputs": [],
      "stateMutability": "nonpayable",
      "type": "function"
    },
    {
      "inputs": [
        {
          "internalType": "uint32",
          "name": "newPeriod",
          "type": "uint32"
        }
      ],
      "name": "changePeriod",
      "outputs": [],
      "stateMutability": "nonpayable",
      "type": "function"
    },
    {
      "inputs": [
        {
          "internalType": "address",
          "name": "_collateralAddr",
          "type": "address"
        },
        {
          "internalType": "bool",
          "name": "_supported",
          "type": "bool"
        },
        {
          "internalType": "contract AggregatorV3Interface",
          "name": "_priceFeed",
          "type": "address"
        },
        {
          "internalType": "uint256",
          "name": "_price_prec",
          "type": "uint256"
        }
      ],
      "name": "updateCollateralInfo",
      "outputs": [],
      "stateMutability": "nonpayable",
      "type": "function"
    },
    {
      "inputs": [],
      "name": "updateInOutRatio",
      "outputs": [],
      "stateMutability": "nonpayable",
      "type": "function"
    },
    {
      "inputs": [
        {
          "internalType": "address",
          "name": "collateralAddr",
          "type": "address"
        }
      ],
      "name": "getCollateralPrice",
      "outputs": [
        {
          "internalType": "uint256",
          "name": "",
          "type": "uint256"
        }
      ],
      "stateMutability": "view",
      "type": "function"
    },
    {
      "inputs": [],
      "name": "getETHprice",
      "outputs": [
        {
          "internalType": "uint256",
          "name": "",
          "type": "uint256"
        }
      ],
      "stateMutability": "view",
      "type": "function"
    },
    {
      "inputs": [],
      "name": "getSPAprice",
      "outputs": [
        {
          "internalType": "uint256",
          "name": "",
          "type": "uint256"
        }
      ],
      "stateMutability": "view",
      "type": "function"
    },
    {
      "inputs": [],
      "name": "getUSDsPrice",
      "outputs": [
        {
          "internalType": "uint256",
          "name": "",
          "type": "uint256"
        }
      ],
      "stateMutability": "view",
      "type": "function"
    },
    {
      "inputs": [],
      "name": "getUSDsPrice_average",
      "outputs": [
        {
          "internalType": "uint256",
          "name": "",
          "type": "uint256"
        }
      ],
      "stateMutability": "view",
      "type": "function"
    },
    {
      "inputs": [
        {
          "internalType": "address",
          "name": "collateralAddr",
          "type": "address"
        }
      ],
      "name": "getCollateralPrice_prec",
      "outputs": [
        {
          "internalType": "uint256",
          "name": "",
          "type": "uint256"
        }
      ],
      "stateMutability": "view",
      "type": "function"
    },
    {
      "inputs": [],
      "name": "getETHprice_prec",
      "outputs": [
        {
          "internalType": "uint256",
          "name": "",
          "type": "uint256"
        }
      ],
      "stateMutability": "view",
      "type": "function"
    },
    {
      "inputs": [],
      "name": "getSPAprice_prec",
      "outputs": [
        {
          "internalType": "uint256",
          "name": "",
          "type": "uint256"
        }
      ],
      "stateMutability": "view",
      "type": "function"
    },
    {
      "inputs": [],
      "name": "getUSDsPrice_prec",
      "outputs": [
        {
          "internalType": "uint256",
          "name": "",
          "type": "uint256"
        }
      ],
      "stateMutability": "view",
      "type": "function"
    }
  ],
  "bytecode": "0x608060405234801561001057600080fd5b50613f15806100206000396000f3fe608060405234801561001057600080fd5b506004361061021c5760003560e01c80638da5cb5b11610125578063c8f33c91116100ad578063d32f21821161007c578063d32f2182146105dd578063d37b5df0146105f9578063d79fd7a214610617578063f2fde38b14610621578063f309eac21461063d5761021c565b8063c8f33c9114610569578063cfb1528e14610587578063d0328034146105a5578063d2de2f85146105c15761021c565b8063bdf4da6e116100f4578063bdf4da6e146104d3578063c229d750146104f1578063c54149051461050f578063c7e524f71461052d578063c8d3fe9a1461054b5761021c565b80638da5cb5b1461045b578063a7e0249814610479578063a83627de14610497578063bcb083c1146104b55761021c565b80634d07640e116101a85780636c6f1865116101775780636c6f1865146103c95780636f2a2b0f146103f9578063715018a6146104175780638129fc1c146104215780638d1a07091461042b5761021c565b80634d07640e1461033f57806351a409941461035d578063627dc9c11461038d57806367f82edb146103ab5761021c565b8063298cc9f1116101ef578063298cc9f1146102995780632c428e36146102b55780633f153279146102d357806341b2a0f1146103035780634aa4a4fc146103215761021c565b806306c102111461022157806308432eea1461023f5780630961d57b1461025d5780630b71f2161461027b575b600080fd5b61022961065b565b6040516102369190613bcb565b60405180910390f35b61024761066a565b6040516102549190613bcb565b60405180910390f35b6102656107c6565b6040516102729190613bcb565b60405180910390f35b6102836107d2565b6040516102909190613bcb565b60405180910390f35b6102b360048036038101906102ae91906132c5565b6107d8565b005b6102bd6108c1565b6040516102ca9190613969565b60405180910390f35b6102ed60048036038101906102e89190613118565b6108e7565b6040516102fa9190613bcb565b60405180910390f35b61030b610a63565b6040516103189190613bcb565b60405180910390f35b610329610a73565b6040516103369190613969565b60405180910390f35b610347610a8b565b6040516103549190613bcb565b60405180910390f35b61037760048036038101906103729190613118565b610a93565b6040516103849190613bcb565b60405180910390f35b610395610c0f565b6040516103a29190613bcb565b60405180910390f35b6103b3610d14565b6040516103c09190613969565b60405180910390f35b6103e360048036038101906103de9190613273565b610d3a565b6040516103f09190613bcb565b60405180910390f35b610401610d52565b60405161040e9190613bcb565b60405180910390f35b61041f610d62565b005b610429610e9f565b005b61044560048036038101906104409190613273565b611036565b6040516104529190613bcb565b60405180910390f35b61046361104e565b6040516104709190613969565b60405180910390f35b610481611078565b60405161048e9190613969565b60405180910390f35b61049f61109e565b6040516104ac9190613c39565b60405180910390f35b6104bd6110b4565b6040516104ca9190613969565b60405180910390f35b6104db6110cc565b6040516104e89190613969565b60405180910390f35b6104f96110f2565b6040516105069190613c54565b60405180910390f35b6105176110f7565b6040516105249190613bcb565b60405180910390f35b610535611254565b6040516105429190613c39565b60405180910390f35b61055361126a565b6040516105609190613969565b60405180910390f35b610571611290565b60405161057e9190613c39565b60405180910390f35b61058f6112a6565b60405161059c9190613c39565b60405180910390f35b6105bf60048036038101906105ba9190613141565b6112ad565b005b6105db60048036038101906105d69190613118565b611433565b005b6105f760048036038101906105f291906131a4565b6114f3565b005b6106016116a1565b60405161060e9190613bcb565b60405180910390f35b61061f6116ad565b005b61063b60048036038101906106369190613118565b611ab0565b005b610645611c5c565b6040516106529190613bcb565b60405180910390f35b6000610665611c68565b905090565b6000806106ba610e10606860009054906101000a900473ffffffffffffffffffffffffffffffffffffffff1673ffffffffffffffffffffffffffffffffffffffff16611d1890919063ffffffff16565b90506000610724670de0b6b3a7640000606760009054906101000a900473ffffffffffffffffffffffffffffffffffffffff16606b60009054906101000a900473ffffffffffffffffffffffffffffffffffffffff168560020b611f18909392919063ffffffff16565b905060006107bb610756606b60009054906101000a900473ffffffffffffffffffffffffffffffffffffffff1661211b565b6107ad8461079f670de0b6b3a7640000610791606b60009054906101000a900473ffffffffffffffffffffffffffffffffffffffff16612293565b61249290919063ffffffff16565b61249290919063ffffffff16565b61250290919063ffffffff16565b905080935050505090565b670de0b6b3a764000081565b60655481565b6107e0612558565b73ffffffffffffffffffffffffffffffffffffffff166107fe61104e565b73ffffffffffffffffffffffffffffffffffffffff1614610854576040517f08c379a000000000000000000000000000000000000000000000000000000000815260040161084b90613b4b565b60405180910390fd5b80606660086101000a81548163ffffffff021916908363ffffffff1602179055507f8bcfc45b9c73e761c499d9fefd8609900ca8b0f464b3f250f2085d1acc5253e3606660089054906101000a900463ffffffff166040516108b69190613c39565b60405180910390a150565b606b60009054906101000a900473ffffffffffffffffffffffffffffffffffffffff1681565b60006108f1612eea565b609e60008473ffffffffffffffffffffffffffffffffffffffff1673ffffffffffffffffffffffffffffffffffffffff1681526020019081526020016000206040518060800160405290816000820160009054906101000a900473ffffffffffffffffffffffffffffffffffffffff1673ffffffffffffffffffffffffffffffffffffffff1673ffffffffffffffffffffffffffffffffffffffff1681526020016000820160149054906101000a900460ff161515151581526020016001820160009054906101000a900473ffffffffffffffffffffffffffffffffffffffff1673ffffffffffffffffffffffffffffffffffffffff1673ffffffffffffffffffffffffffffffffffffffff16815260200160028201548152505090508060200151610a52576040517f08c379a0000000000000000000000000000000000000000000000000000000008152600401610a4990613a8b565b60405180910390fd5b610a5b8361211b565b915050919050565b6000670de0b6b3a7640000905090565b73d0a1e359811322d97991e03f863a0c30c2cf029c81565b6305f5e10081565b6000610a9d612eea565b609e60008473ffffffffffffffffffffffffffffffffffffffff1673ffffffffffffffffffffffffffffffffffffffff1681526020019081526020016000206040518060800160405290816000820160009054906101000a900473ffffffffffffffffffffffffffffffffffffffff1673ffffffffffffffffffffffffffffffffffffffff1673ffffffffffffffffffffffffffffffffffffffff1681526020016000820160149054906101000a900460ff161515151581526020016001820160009054906101000a900473ffffffffffffffffffffffffffffffffffffffff1673ffffffffffffffffffffffffffffffffffffffff1673ffffffffffffffffffffffffffffffffffffffff16815260200160028201548152505090508060200151610bfe576040517f08c379a0000000000000000000000000000000000000000000000000000000008152600401610bf590613a0b565b60405180910390fd5b610c0783612293565b915050919050565b600080610c5f610e10606960009054906101000a900473ffffffffffffffffffffffffffffffffffffffff1673ffffffffffffffffffffffffffffffffffffffff16611d1890919063ffffffff16565b90506000610cbb670de0b6b3a764000073bb5e27ae27a6a7d092b181fbddac1a1004e9adff606a60009054906101000a900473ffffffffffffffffffffffffffffffffffffffff168560020b611f18909392919063ffffffff16565b90506000610d096305f5e100610cfb84610ced670de0b6b3a7640000610cdf611c68565b61249290919063ffffffff16565b61249290919063ffffffff16565b61250290919063ffffffff16565b905080935050505090565b606860009054906101000a900473ffffffffffffffffffffffffffffffffffffffff1681565b606c8160198110610d4757fe5b016000915090505481565b6000670de0b6b3a7640000905090565b610d6a612558565b73ffffffffffffffffffffffffffffffffffffffff16610d8861104e565b73ffffffffffffffffffffffffffffffffffffffff1614610dde576040517f08c379a0000000000000000000000000000000000000000000000000000000008152600401610dd590613b4b565b60405180910390fd5b600073ffffffffffffffffffffffffffffffffffffffff16603360009054906101000a900473ffffffffffffffffffffffffffffffffffffffff1673ffffffffffffffffffffffffffffffffffffffff167f8be0079c531659141344cd1fd0a4f28419497f9722a3daafe3b4186f6b6457e060405160405180910390a36000603360006101000a81548173ffffffffffffffffffffffffffffffffffffffff021916908373ffffffffffffffffffffffffffffffffffffffff160217905550565b600060019054906101000a900460ff1680610ebe5750610ebd612560565b5b80610ed4575060008054906101000a900460ff16155b610f13576040517f08c379a0000000000000000000000000000000000000000000000000000000008152600401610f0a90613aab565b60405180910390fd5b60008060019054906101000a900460ff161590508015610f63576001600060016101000a81548160ff02191690831515021790555060016000806101000a81548160ff0219169083151502179055505b610f6b612571565b610e10606660086101000a81548163ffffffff021916908363ffffffff1602179055506401000000004281610f9c57fe5b06606660046101000a81548163ffffffff021916908363ffffffff160217905550739326bfa02add2366b30bacb125260af6410313316066600c6101000a81548173ffffffffffffffffffffffffffffffffffffffff021916908373ffffffffffffffffffffffffffffffffffffffff16021790555080156110335760008060016101000a81548160ff0219169083151502179055505b50565b6085816019811061104357fe5b016000915090505481565b6000603360009054906101000a900473ffffffffffffffffffffffffffffffffffffffff16905090565b606a60009054906101000a900473ffffffffffffffffffffffffffffffffffffffff1681565b606660089054906101000a900463ffffffff1681565b73bb5e27ae27a6a7d092b181fbddac1a1004e9adff81565b606960009054906101000a900473ffffffffffffffffffffffffffffffffffffffff1681565b601881565b60008061114862015180606860009054906101000a900473ffffffffffffffffffffffffffffffffffffffff1673ffffffffffffffffffffffffffffffffffffffff16611d1890919063ffffffff16565b905060006111b2670de0b6b3a7640000606760009054906101000a900473ffffffffffffffffffffffffffffffffffffffff16606b60009054906101000a900473ffffffffffffffffffffffffffffffffffffffff168560020b611f18909392919063ffffffff16565b905060006112496111e4606b60009054906101000a900473ffffffffffffffffffffffffffffffffffffffff1661211b565b61123b8461122d670de0b6b3a764000061121f606b60009054906101000a900473ffffffffffffffffffffffffffffffffffffffff16612293565b61249290919063ffffffff16565b61249290919063ffffffff16565b61250290919063ffffffff16565b905080935050505090565b606660009054906101000a900463ffffffff1681565b606760009054906101000a900473ffffffffffffffffffffffffffffffffffffffff1681565b606660049054906101000a900463ffffffff1681565b620f424081565b6112b5612558565b73ffffffffffffffffffffffffffffffffffffffff166112d361104e565b73ffffffffffffffffffffffffffffffffffffffff1614611329576040517f08c379a000000000000000000000000000000000000000000000000000000000815260040161132090613b4b565b60405180910390fd5b83606a60006101000a81548173ffffffffffffffffffffffffffffffffffffffff021916908373ffffffffffffffffffffffffffffffffffffffff16021790555082606b60006101000a81548173ffffffffffffffffffffffffffffffffffffffff021916908373ffffffffffffffffffffffffffffffffffffffff16021790555081606860006101000a81548173ffffffffffffffffffffffffffffffffffffffff021916908373ffffffffffffffffffffffffffffffffffffffff16021790555080606960006101000a81548173ffffffffffffffffffffffffffffffffffffffff021916908373ffffffffffffffffffffffffffffffffffffffff16021790555050505050565b61143b612558565b73ffffffffffffffffffffffffffffffffffffffff1661145961104e565b73ffffffffffffffffffffffffffffffffffffffff16146114af576040517f08c379a00000000000000000000000000000000000000000000000000000000081526004016114a690613b4b565b60405180910390fd5b80606760006101000a81548173ffffffffffffffffffffffffffffffffffffffff021916908373ffffffffffffffffffffffffffffffffffffffff16021790555050565b6114fb612558565b73ffffffffffffffffffffffffffffffffffffffff1661151961104e565b73ffffffffffffffffffffffffffffffffffffffff161461156f576040517f08c379a000000000000000000000000000000000000000000000000000000000815260040161156690613b4b565b60405180910390fd5b6000609e60008673ffffffffffffffffffffffffffffffffffffffff1673ffffffffffffffffffffffffffffffffffffffff1681526020019081526020016000209050848160000160006101000a81548173ffffffffffffffffffffffffffffffffffffffff021916908373ffffffffffffffffffffffffffffffffffffffff160217905550838160000160146101000a81548160ff021916908315150217905550828160010160006101000a81548173ffffffffffffffffffffffffffffffffffffffff021916908373ffffffffffffffffffffffffffffffffffffffff1602179055508181600201819055507f9ce8daa3b6ddb1b45182c5db00c581f637e2373a74e2d343d1c4999aaa5224f0858585856040516116929493929190613984565b60405180910390a15050505050565b670de0b6b3a764000081565b600064010000000042816116bd57fe5b0690506000606660049054906101000a900463ffffffff1682039050606660049054906101000a900463ffffffff1663ffffffff168263ffffffff16101561173a576040517f08c379a000000000000000000000000000000000000000000000000000000000815260040161173190613acb565b60405180910390fd5b606660089054906101000a900463ffffffff1663ffffffff168163ffffffff16101561179b576040517f08c379a000000000000000000000000000000000000000000000000000000000815260040161179290613b8b565b60405180910390fd5b6000606660009054906101000a900463ffffffff1690506000600160180160ff166001830163ffffffff16816117cd57fe5b069050606760009054906101000a900473ffffffffffffffffffffffffffffffffffffffff1673ffffffffffffffffffffffffffffffffffffffff1663736bf5916040518163ffffffff1660e01b815260040160206040518083038186803b15801561183857600080fd5b505afa15801561184c573d6000803e3d6000fd5b505050506040513d601f19601f82011682018060405250810190611870919061329c565b606c8363ffffffff166019811061188357fe5b0181905550606760009054906101000a900473ffffffffffffffffffffffffffffffffffffffff1673ffffffffffffffffffffffffffffffffffffffff16630abddbe76040518163ffffffff1660e01b815260040160206040518083038186803b1580156118f057600080fd5b505afa158015611904573d6000803e3d6000fd5b505050506040513d601f19601f82011682018060405250810190611928919061329c565b60858363ffffffff166019811061193b57fe5b0181905550600061197d606c8363ffffffff166019811061195857fe5b0154606c8563ffffffff166019811061196d57fe5b015461266990919063ffffffff16565b905060006119bc60858463ffffffff166019811061199757fe5b015460858663ffffffff16601981106119ac57fe5b015461266990919063ffffffff16565b9050600060655414156119de57620f424063ffffffff16606581905550611a13565b611a0c826119fe620f424063ffffffff168461249290919063ffffffff16565b61250290919063ffffffff16565b6065819055505b85606660046101000a81548163ffffffff021916908363ffffffff16021790555082606660006101000a81548163ffffffff021916908363ffffffff1602179055507fb5c9438f23a276e24f58b423b7b8322a09f4dcd8be672dc0ec2c5f16edf6844d6065548284606660049054906101000a900463ffffffff1688604051611aa0959493929190613be6565b60405180910390a1505050505050565b611ab8612558565b73ffffffffffffffffffffffffffffffffffffffff16611ad661104e565b73ffffffffffffffffffffffffffffffffffffffff1614611b2c576040517f08c379a0000000000000000000000000000000000000000000000000000000008152600401611b2390613b4b565b60405180910390fd5b600073ffffffffffffffffffffffffffffffffffffffff168173ffffffffffffffffffffffffffffffffffffffff161415611b9c576040517f08c379a0000000000000000000000000000000000000000000000000000000008152600401611b93906139eb565b60405180910390fd5b8073ffffffffffffffffffffffffffffffffffffffff16603360009054906101000a900473ffffffffffffffffffffffffffffffffffffffff1673ffffffffffffffffffffffffffffffffffffffff167f8be0079c531659141344cd1fd0a4f28419497f9722a3daafe3b4186f6b6457e060405160405180910390a380603360006101000a81548173ffffffffffffffffffffffffffffffffffffffff021916908373ffffffffffffffffffffffffffffffffffffffff16021790555050565b60006305f5e100905090565b6000806066600c9054906101000a900473ffffffffffffffffffffffffffffffffffffffff1673ffffffffffffffffffffffffffffffffffffffff1663feaf968c6040518163ffffffff1660e01b815260040160a06040518083038186803b158015611cd357600080fd5b505afa158015611ce7573d6000803e3d6000fd5b505050506040513d601f19601f82011682018060405250810190611d0b91906132ee565b5050509150508091505090565b6000808263ffffffff161415611d63576040517f08c379a0000000000000000000000000000000000000000000000000000000008152600401611d5a90613a6b565b60405180910390fd5b6060600267ffffffffffffffff81118015611d7d57600080fd5b50604051908082528060200260200182016040528015611dac5781602001602082028036833780820191505090505b5090508281600081518110611dbd57fe5b602002602001019063ffffffff16908163ffffffff1681525050600081600181518110611de657fe5b602002602001019063ffffffff16908163ffffffff168152505060608473ffffffffffffffffffffffffffffffffffffffff1663883bdbfd836040518263ffffffff1660e01b8152600401611e3b91906139c9565b60006040518083038186803b158015611e5357600080fd5b505afa158015611e67573d6000803e3d6000fd5b505050506040513d6000823e3d601f19601f82011682018060405250810190611e909190613207565b509050600081600081518110611ea257fe5b602002602001015182600181518110611eb757fe5b60200260200101510390508463ffffffff168160060b81611ed457fe5b05935060008160060b128015611f00575060008563ffffffff168260060b81611ef957fe5b0760060b14155b15611f0f578380600190039450505b50505092915050565b600080611f24866126b9565b90506fffffffffffffffffffffffffffffffff80168173ffffffffffffffffffffffffffffffffffffffff16116120355760008173ffffffffffffffffffffffffffffffffffffffff168273ffffffffffffffffffffffffffffffffffffffff160290508373ffffffffffffffffffffffffffffffffffffffff168573ffffffffffffffffffffffffffffffffffffffff1610611ff657611ff17801000000000000000000000000000000000000000000000000876fffffffffffffffffffffffffffffffff1683612ac1565b61202d565b61202c81876fffffffffffffffffffffffffffffffff167801000000000000000000000000000000000000000000000000612ac1565b5b925050612112565b60006120778273ffffffffffffffffffffffffffffffffffffffff168373ffffffffffffffffffffffffffffffffffffffff1668010000000000000000612ac1565b90508373ffffffffffffffffffffffffffffffffffffffff168573ffffffffffffffffffffffffffffffffffffffff16106120df576120da700100000000000000000000000000000000876fffffffffffffffffffffffffffffffff1683612ac1565b61210e565b61210d81876fffffffffffffffffffffffffffffffff16700100000000000000000000000000000000612ac1565b5b9250505b50949350505050565b6000612125612eea565b609e60008473ffffffffffffffffffffffffffffffffffffffff1673ffffffffffffffffffffffffffffffffffffffff1681526020019081526020016000206040518060800160405290816000820160009054906101000a900473ffffffffffffffffffffffffffffffffffffffff1673ffffffffffffffffffffffffffffffffffffffff1673ffffffffffffffffffffffffffffffffffffffff1681526020016000820160149054906101000a900460ff161515151581526020016001820160009054906101000a900473ffffffffffffffffffffffffffffffffffffffff1673ffffffffffffffffffffffffffffffffffffffff1673ffffffffffffffffffffffffffffffffffffffff16815260200160028201548152505090508060200151612286576040517f08c379a000000000000000000000000000000000000000000000000000000000815260040161227d90613b6b565b60405180910390fd5b8060600151915050919050565b600061229d612eea565b609e60008473ffffffffffffffffffffffffffffffffffffffff1673ffffffffffffffffffffffffffffffffffffffff1681526020019081526020016000206040518060800160405290816000820160009054906101000a900473ffffffffffffffffffffffffffffffffffffffff1673ffffffffffffffffffffffffffffffffffffffff1673ffffffffffffffffffffffffffffffffffffffff1681526020016000820160149054906101000a900460ff161515151581526020016001820160009054906101000a900473ffffffffffffffffffffffffffffffffffffffff1673ffffffffffffffffffffffffffffffffffffffff1673ffffffffffffffffffffffffffffffffffffffff168152602001600282015481525050905080602001516123fe576040517f08c379a00000000000000000000000000000000000000000000000000000000081526004016123f590613bab565b60405180910390fd5b6000816040015173ffffffffffffffffffffffffffffffffffffffff1663feaf968c6040518163ffffffff1660e01b815260040160a06040518083038186803b15801561244a57600080fd5b505afa15801561245e573d6000803e3d6000fd5b505050506040513d601f19601f8201168201806040525081019061248291906132ee565b5050509150508092505050919050565b6000808314156124a557600090506124fc565b60008284029050828482816124b657fe5b04146124f7576040517f08c379a00000000000000000000000000000000000000000000000000000000081526004016124ee90613b0b565b60405180910390fd5b809150505b92915050565b6000808211612546576040517f08c379a000000000000000000000000000000000000000000000000000000000815260040161253d90613a4b565b60405180910390fd5b81838161254f57fe5b04905092915050565b600033905090565b600061256b30612b6e565b15905090565b600060019054906101000a900460ff1680612590575061258f612560565b5b806125a6575060008054906101000a900460ff16155b6125e5576040517f08c379a00000000000000000000000000000000000000000000000000000000081526004016125dc90613aab565b60405180910390fd5b60008060019054906101000a900460ff161590508015612635576001600060016101000a81548160ff02191690831515021790555060016000806101000a81548160ff0219169083151502179055505b61263d612b81565b612645612c69565b80156126665760008060016101000a81548160ff0219169083151502179055505b50565b6000828211156126ae576040517f08c379a00000000000000000000000000000000000000000000000000000000081526004016126a590613a2b565b60405180910390fd5b818303905092915050565b60008060008360020b126126d0578260020b6126d8565b8260020b6000035b90507ffffffffffffffffffffffffffffffffffffffffffffffffffffffffffff2761860000360020b811115612743576040517f08c379a000000000000000000000000000000000000000000000000000000000815260040161273a90613aeb565b60405180910390fd5b60008060018316141561276757700100000000000000000000000000000000612779565b6ffffcb933bd6fad37aa2d162d1a5940015b70ffffffffffffffffffffffffffffffffff169050600060028316146127b35760806ffff97272373d413259a46990580e213a8202901c90505b600060048316146127d85760806ffff2e50f5f656932ef12357cf3c7fdcc8202901c90505b600060088316146127fd5760806fffe5caca7e10e4e61c3624eaa0941cd08202901c90505b600060108316146128225760806fffcb9843d60f6159c9db58835c9266448202901c90505b600060208316146128475760806fff973b41fa98c081472e6896dfb254c08202901c90505b6000604083161461286c5760806fff2ea16466c96a3843ec78b326b528618202901c90505b600060808316146128915760806ffe5dee046a99a2a811c461f1969c30538202901c90505b60006101008316146128b75760806ffcbe86c7900a88aedcffc83b479aa3a48202901c90505b60006102008316146128dd5760806ff987a7253ac413176f2b074cf7815e548202901c90505b60006104008316146129035760806ff3392b0822b70005940c7a398e4b70f38202901c90505b60006108008316146129295760806fe7159475a2c29b7443b29c7fa6e889d98202901c90505b600061100083161461294f5760806fd097f3bdfd2022b8845ad8f792aa58258202901c90505b60006120008316146129755760806fa9f746462d870fdf8a65dc1f90e061e58202901c90505b600061400083161461299b5760806f70d869a156d2a1b890bb3df62baf32f78202901c90505b60006180008316146129c15760806f31be135f97d08fd981231505542fcfa68202901c90505b6000620100008316146129e85760806f09aa508b5b7a84e1c677de54f3e99bc98202901c90505b600062020000831614612a0e5760806e5d6af8dedb81196699c329225ee6048202901c90505b600062040000831614612a335760806d2216e584f5fa1ea926041bedfe988202901c90505b600062080000831614612a565760806b048a170391f7dc42444e8fa28202901c90505b60008460020b1315612a8f57807fffffffffffffffffffffffffffffffffffffffffffffffffffffffffffffffff81612a8b57fe5b0490505b60006401000000008281612a9f57fe5b0614612aac576001612aaf565b60005b60ff16602082901c0192505050919050565b6000806000612ad08686612dfa565b9150915060008480612ade57fe5b868809905082811115612af2576001820391505b80830392506000821415612b1457848381612b0957fe5b049350505050612b67565b848210612b56576040517f08c379a0000000000000000000000000000000000000000000000000000000008152600401612b4d90613b2b565b60405180910390fd5b612b61838387612e4d565b93505050505b9392505050565b600080823b905060008111915050919050565b600060019054906101000a900460ff1680612ba05750612b9f612560565b5b80612bb6575060008054906101000a900460ff16155b612bf5576040517f08c379a0000000000000000000000000000000000000000000000000000000008152600401612bec90613aab565b60405180910390fd5b60008060019054906101000a900460ff161590508015612c45576001600060016101000a81548160ff02191690831515021790555060016000806101000a81548160ff0219169083151502179055505b8015612c665760008060016101000a81548160ff0219169083151502179055505b50565b600060019054906101000a900460ff1680612c885750612c87612560565b5b80612c9e575060008054906101000a900460ff16155b612cdd576040517f08c379a0000000000000000000000000000000000000000000000000000000008152600401612cd490613aab565b60405180910390fd5b60008060019054906101000a900460ff161590508015612d2d576001600060016101000a81548160ff02191690831515021790555060016000806101000a81548160ff0219169083151502179055505b6000612d37612558565b905080603360006101000a81548173ffffffffffffffffffffffffffffffffffffffff021916908373ffffffffffffffffffffffffffffffffffffffff1602179055508073ffffffffffffffffffffffffffffffffffffffff16600073ffffffffffffffffffffffffffffffffffffffff167f8be0079c531659141344cd1fd0a4f28419497f9722a3daafe3b4186f6b6457e060405160405180910390a3508015612df75760008060016101000a81548160ff0219169083151502179055505b50565b60008060007fffffffffffffffffffffffffffffffffffffffffffffffffffffffffffffffff80612e2757fe5b84860990508385029250828103915082811015612e45576001820391505b509250929050565b6000808260000383169050808381612e6157fe5b049250808581612e6d57fe5b0494506001818260000381612e7e57fe5b04018402850194506000600190508084026002038102905080840260020381029050808402600203810290508084026002038102905080840260020381029050808402600203810290508084026002038102905080840260020381029050808602925050509392505050565b6040518060800160405280600073ffffffffffffffffffffffffffffffffffffffff168152602001600015158152602001600073ffffffffffffffffffffffffffffffffffffffff168152602001600081525090565b600081359050612f4f81613e10565b92915050565b600082601f830112612f6657600080fd5b8151612f79612f7482613c9c565b613c6f565b91508181835260208401935060208101905083856020840282011115612f9e57600080fd5b60005b83811015612fce5781612fb4888261309a565b845260208401935060208301925050600181019050612fa1565b5050505092915050565b600082601f830112612fe957600080fd5b8151612ffc612ff782613cc4565b613c6f565b9150818183526020840193506020810190508385602084028201111561302157600080fd5b60005b83811015613051578161303788826130af565b845260208401935060208301925050600181019050613024565b5050505092915050565b60008135905061306a81613e27565b92915050565b60008135905061307f81613e3e565b92915050565b60008151905061309481613e55565b92915050565b6000815190506130a981613e6c565b92915050565b6000815190506130be81613e83565b92915050565b6000813590506130d381613e9a565b92915050565b6000815190506130e881613e9a565b92915050565b6000813590506130fd81613eb1565b92915050565b60008151905061311281613ec8565b92915050565b60006020828403121561312a57600080fd5b600061313884828501612f40565b91505092915050565b6000806000806080858703121561315757600080fd5b600061316587828801612f40565b945050602061317687828801612f40565b935050604061318787828801612f40565b925050606061319887828801612f40565b91505092959194509250565b600080600080608085870312156131ba57600080fd5b60006131c887828801612f40565b94505060206131d98782880161305b565b93505060406131ea87828801613070565b92505060606131fb878288016130c4565b91505092959194509250565b6000806040838503121561321a57600080fd5b600083015167ffffffffffffffff81111561323457600080fd5b61324085828601612f55565b925050602083015167ffffffffffffffff81111561325d57600080fd5b61326985828601612fd8565b9150509250929050565b60006020828403121561328557600080fd5b6000613293848285016130c4565b91505092915050565b6000602082840312156132ae57600080fd5b60006132bc848285016130d9565b91505092915050565b6000602082840312156132d757600080fd5b60006132e5848285016130ee565b91505092915050565b600080600080600060a0868803121561330657600080fd5b600061331488828901613103565b955050602061332588828901613085565b9450506040613336888289016130d9565b9350506060613347888289016130d9565b925050608061335888828901613103565b9150509295509295909350565b6000613371838361393c565b60208301905092915050565b61338681613d36565b82525050565b600061339782613cfc565b6133a18185613d14565b93506133ac83613cec565b8060005b838110156133dd5781516133c48882613365565b97506133cf83613d07565b9250506001810190506133b0565b5085935050505092915050565b6133f381613d48565b82525050565b61340281613dda565b82525050565b6000613415602683613d25565b91507f4f776e61626c653a206e6577206f776e657220697320746865207a65726f206160008301527f64647265737300000000000000000000000000000000000000000000000000006020830152604082019050919050565b600061347b602d83613d25565b91507f676574436f6c6c61746572616c50726963653a20436f6c6c61746572616c206e60008301527f6f7420737570706f727465642e000000000000000000000000000000000000006020830152604082019050919050565b60006134e1601e83613d25565b91507f536166654d6174683a207375627472616374696f6e206f766572666c6f7700006000830152602082019050919050565b6000613521601a83613d25565b91507f536166654d6174683a206469766973696f6e206279207a65726f0000000000006000830152602082019050919050565b6000613561600283613d25565b91507f42500000000000000000000000000000000000000000000000000000000000006000830152602082019050919050565b60006135a1603283613d25565b91507f676574436f6c6c61746572616c50726963655f707265633a20436f6c6c61746560008301527f72616c206e6f7420737570706f727465642e00000000000000000000000000006020830152604082019050919050565b6000613607602e83613d25565b91507f496e697469616c697a61626c653a20636f6e747261637420697320616c72656160008301527f647920696e697469616c697a65640000000000000000000000000000000000006020830152604082019050919050565b600061366d603a83613d25565b91507f757064617465496e4f7574526174696f3b206572726f72206c6173742075706460008301527f6174652068617070656e656420696e20746865206675747572650000000000006020830152604082019050919050565b60006136d3600183613d25565b91507f54000000000000000000000000000000000000000000000000000000000000006000830152602082019050919050565b6000613713602183613d25565b91507f536166654d6174683a206d756c7469706c69636174696f6e206f766572666c6f60008301527f77000000000000000000000000000000000000000000000000000000000000006020830152604082019050919050565b6000613779601a83613d25565b91507f46756c6c4d6174683a2046554c4c4449565f4f564552464c4f570000000000006000830152602082019050919050565b60006137b9602083613d25565b91507f4f776e61626c653a2063616c6c6572206973206e6f7420746865206f776e65726000830152602082019050919050565b60006137f9603383613d25565b91507f5f676574436f6c6c61746572616c50726963655f707265633a20436f6c6c617460008301527f6572616c206e6f7420737570706f727465642e000000000000000000000000006020830152604082019050919050565b600061385f603083613d25565b91507f757064617465496e4f7574526174696f3a207468652074696d6520656c61707360008301527f656420697320746f6f2073686f72742e000000000000000000000000000000006020830152604082019050919050565b60006138c5602e83613d25565b91507f5f676574436f6c6c61746572616c50726963653a20436f6c6c61746572616c2060008301527f6e6f7420737570706f727465642e0000000000000000000000000000000000006020830152604082019050919050565b61392781613d9d565b82525050565b61393681613dfe565b82525050565b61394581613da7565b82525050565b61395481613da7565b82525050565b61396381613db7565b82525050565b600060208201905061397e600083018461337d565b92915050565b6000608082019050613999600083018761337d565b6139a660208301866133ea565b6139b360408301856133f9565b6139c0606083018461391e565b95945050505050565b600060208201905081810360008301526139e3818461338c565b905092915050565b60006020820190508181036000830152613a0481613408565b9050919050565b60006020820190508181036000830152613a248161346e565b9050919050565b60006020820190508181036000830152613a44816134d4565b9050919050565b60006020820190508181036000830152613a6481613514565b9050919050565b60006020820190508181036000830152613a8481613554565b9050919050565b60006020820190508181036000830152613aa481613594565b9050919050565b60006020820190508181036000830152613ac4816135fa565b9050919050565b60006020820190508181036000830152613ae481613660565b9050919050565b60006020820190508181036000830152613b04816136c6565b9050919050565b60006020820190508181036000830152613b2481613706565b9050919050565b60006020820190508181036000830152613b448161376c565b9050919050565b60006020820190508181036000830152613b64816137ac565b9050919050565b60006020820190508181036000830152613b84816137ec565b9050919050565b60006020820190508181036000830152613ba481613852565b9050919050565b60006020820190508181036000830152613bc4816138b8565b9050919050565b6000602082019050613be0600083018461391e565b92915050565b600060a082019050613bfb600083018861391e565b613c08602083018761391e565b613c15604083018661391e565b613c22606083018561394b565b613c2f608083018461392d565b9695505050505050565b6000602082019050613c4e600083018461394b565b92915050565b6000602082019050613c69600083018461395a565b92915050565b6000604051905081810181811067ffffffffffffffff82111715613c9257600080fd5b8060405250919050565b600067ffffffffffffffff821115613cb357600080fd5b602082029050602081019050919050565b600067ffffffffffffffff821115613cdb57600080fd5b602082029050602081019050919050565b6000819050602082019050919050565b600081519050919050565b6000602082019050919050565b600082825260208201905092915050565b600082825260208201905092915050565b6000613d4182613d7d565b9050919050565b60008115159050919050565b6000613d5f82613d36565b9050919050565b6000819050919050565b60008160060b9050919050565b600073ffffffffffffffffffffffffffffffffffffffff82169050919050565b6000819050919050565b600063ffffffff82169050919050565b600060ff82169050919050565b600069ffffffffffffffffffff82169050919050565b6000613de582613dec565b9050919050565b6000613df782613d7d565b9050919050565b6000613e0982613da7565b9050919050565b613e1981613d36565b8114613e2457600080fd5b50565b613e3081613d48565b8114613e3b57600080fd5b50565b613e4781613d54565b8114613e5257600080fd5b50565b613e5e81613d66565b8114613e6957600080fd5b50565b613e7581613d70565b8114613e8057600080fd5b50565b613e8c81613d7d565b8114613e9757600080fd5b50565b613ea381613d9d565b8114613eae57600080fd5b50565b613eba81613da7565b8114613ec557600080fd5b50565b613ed181613dc4565b8114613edc57600080fd5b5056fea26469706673582212200984b04da178381a34b489df7eb9aff297d6b05dbcaaaa933f17135f5f47c84b64736f6c634300060c0033",
  "immutableReferences": {},
  "source": "\n// SPDX-License-Identifier: MIT\n// To-do: remove for testing purpose functions;\n// To-do: check USDsInOutRatio_prec;\npragma solidity ^0.6.12;\npragma experimental ABIEncoderV2; //What's this for?\n\n\nimport \"@openzeppelin/contracts-upgradeable/proxy/Initializable.sol\";\nimport \"@openzeppelin/contracts-upgradeable/access/OwnableUpgradeable.sol\";\nimport \"@openzeppelin/contracts-upgradeable/math/SafeMathUpgradeable.sol\";\n\nimport \"../vault/VaultCore.sol\";\nimport \"../interfaces/AggregatorV3Interface.sol\";\nimport \"../interfaces/IOracle.sol\";\nimport \"../interfaces/IUniswapV2Pair.sol\";\nimport \"../libraries/UniswapV2OracleLibrary.sol\";\nimport \"../libraries/OracleLibrary.sol\";\n\n/**\n * @title Oracle - the oracle contract for Spark\n * @author Sperax Dev Team\n * @notice this contract gets data from UniswapV2 pair and feed these data into the main contact of Spark, i.e. Spark.sol\n * @dev this contract draws insights from \"ExampleOracleSimple.sol\" by UniswapV2 team\n */\n\ncontract Oracle is Initializable, IOracle, OwnableUpgradeable {\n    using SafeMathUpgradeable for *;\n    using OracleLibrary for *;\n\n    uint public override USDsInOutRatio; // USDsInOutRatio is accurate after 24 hours (one iteration)\n    uint32 public constant override USDsInOutRatio_prec = 10**6;\n    uint8 public constant FREQUENCY = 24;\n    uint32 public updateNextIndex;\n    uint32 public lastUpdateTime; // the timstamp of the lastest update\n    uint32 public updatePeriod; // the default updatePeriod of one update is 1 hours\n    uint public constant ETHprice_prec = 10**8;\n    uint public constant SPAprice_prec = 10**18;\n    uint public constant USDsPrice_prec = 10**18;\n    AggregatorV3Interface priceFeedETH;\n    address public constant SPAaddr = address(0xbb5E27Ae27A6a7D092b181FbDdAc1A1004e9adff);\n    address public constant WETH9 = 0xd0A1E359811322d97991E03f863a0C30C2cF029C;\n    address public VaultAddr;\n    address public USDsOraclePool;\n    address public SPAoraclePool;\n    address public SPAoracleBaseTokenAddr;\n    address public USDsOracleBaseTokenAddr;\n\n    event USDsInOutRatioUpdated(\n        uint USDsInOutRatio,\n        uint USDsOnflow_average,\n        uint USDsInflow_average,\n        uint32 timeStamp,\n        uint index\n    );\n    event updatePeriodChanged(\n        uint32 newPeriod\n    );\n    event collateralInfoChanged(\n        address _collateralAddr,\n        bool _supported,\n        AggregatorV3Interface _priceFeed,\n        uint _price_prec\n    );\n\n    uint[FREQUENCY+1] public USDsInflow;\n    uint[FREQUENCY+1] public USDsOnflow;\n    mapping (address => collateralStruct) collateralsInfo;\n    struct collateralStruct {\n        address collateralAddr;\n        bool supported;\n        AggregatorV3Interface priceFeed;\n        uint price_prec;\n    }\n\n    //\n    // Initializer\n    //\n    function initialize() public initializer {\n        OwnableUpgradeable.__Ownable_init();\n        updatePeriod = 1 hours;\n        lastUpdateTime = uint32(now % 2**32);\n        priceFeedETH = AggregatorV3Interface(0x9326BFA02ADD2366b30bacB125260Af641031331);\n    }\n\n    function updateOraclePoolsAddress(address _SPAoracleBaseTokenAddr, address _USDsOracleBaseTokenAddr, address _USDsOraclePool, address _SPAoraclePool) external onlyOwner {\n        SPAoracleBaseTokenAddr = _SPAoracleBaseTokenAddr;\n        USDsOracleBaseTokenAddr = _USDsOracleBaseTokenAddr;\n        USDsOraclePool = _USDsOraclePool;\n        SPAoraclePool = _SPAoraclePool;\n    }\n\n    function updateVaultAddress(address _VaultAddr) external onlyOwner {\n        VaultAddr = _VaultAddr;\n    }\n\n    /**\n     * @notice change updatePeriod\n     * @dev the frequency of update always remains the same\n     * @param newPeriod new minimal updatePeriod in between two updates\n     */\n    function changePeriod(uint32 newPeriod) external onlyOwner {\n        updatePeriod = newPeriod;\n        emit updatePeriodChanged(updatePeriod);\n    }\n\n    function updateCollateralInfo(address _collateralAddr, bool _supported, AggregatorV3Interface _priceFeed, uint _price_prec) external onlyOwner {\n        collateralStruct storage updatedCollateral = collateralsInfo[_collateralAddr];\n        updatedCollateral.collateralAddr = _collateralAddr;\n        updatedCollateral.supported = _supported;\n        updatedCollateral.priceFeed = _priceFeed;\n        updatedCollateral.price_prec = _price_prec;\n        emit collateralInfoChanged(_collateralAddr, _supported, _priceFeed, _price_prec);\n    }\n\n    /**\n     * @notice update the price of token0 to the latest\n     * @dev the price would be updated only once per updatePeriod time\n     * @dev USDsInOutRatio is accurate after 24 hours (one iteration)\n     */\n    function updateInOutRatio() external override {\n        uint32 currTime = uint32(now % 2 ** 32);\n        uint32 timeElapsed = currTime - lastUpdateTime;\n        require(currTime >= lastUpdateTime, \"updateInOutRatio; error last update happened in the future\");\n        require(timeElapsed >= updatePeriod, \"updateInOutRatio: the time elapsed is too short.\");\n        uint32 indexNew = updateNextIndex;\n        uint32 indexOld = (indexNew + 1) % (FREQUENCY + 1);\n        USDsInflow[indexNew] = USDs(VaultAddr)._totalMinted();\n        USDsOnflow[indexNew] = USDs(VaultAddr)._totalBurnt();\n        uint USDsInflow_average = USDsInflow[indexNew].sub(USDsInflow[indexOld]);\n        uint USDsOnflow_average = USDsOnflow[indexNew].sub(USDsOnflow[indexOld]);\n        if (USDsInOutRatio == 0) {\n            USDsInOutRatio = USDsInOutRatio_prec;\n        } else {\n            USDsInOutRatio = USDsOnflow_average.mul(USDsInOutRatio_prec).div(USDsInflow_average);\n        }\n        lastUpdateTime = currTime;\n        updateNextIndex = indexOld;\n        emit USDsInOutRatioUpdated(USDsInOutRatio, USDsOnflow_average, USDsInflow_average, lastUpdateTime, indexNew);\n    }\n\n    function getCollateralPrice(address collateralAddr) external view override returns (uint) {\n        collateralStruct memory  collateralInfo = collateralsInfo[collateralAddr];\n        require(collateralInfo.supported, \"getCollateralPrice: Collateral not supported.\");\n        return _getCollateralPrice(collateralAddr);\n    }\n\n    function getETHprice() external view override returns (uint) {\n        return _getETHprice();\n\t}\n\n    function getSPAprice() external view override returns (uint) {\n        int24 timeWeightedAverageTick = SPAoraclePool.consult(3600);\n        uint quoteAmount = timeWeightedAverageTick.getQuoteAtTick(10**18, SPAaddr, SPAoracleBaseTokenAddr);\n        uint SPAprice = _getETHprice().mul(SPAprice_prec).mul(quoteAmount).div(ETHprice_prec);\n        return SPAprice;\n    }\n\n    function getUSDsPrice() external view override returns (uint) {\n        int24 timeWeightedAverageTick = USDsOraclePool.consult(3600);\n        uint quoteAmount = timeWeightedAverageTick.getQuoteAtTick(10**18, VaultAddr, USDsOracleBaseTokenAddr);\n        uint USDsPrice = _getCollateralPrice(USDsOracleBaseTokenAddr).mul(USDsPrice_prec).mul(quoteAmount).div(_getCollateralPrice_prec(USDsOracleBaseTokenAddr));\n        return USDsPrice;\n    }\n\n    function getUSDsPrice_average() external view override returns (uint) {\n        int24 timeWeightedAverageTick = USDsOraclePool.consult(86400);\n        uint quoteAmount = timeWeightedAverageTick.getQuoteAtTick(10**18, VaultAddr, USDsOracleBaseTokenAddr);\n        uint USDsPrice_average = _getCollateralPrice(USDsOracleBaseTokenAddr).mul(USDsPrice_prec).mul(quoteAmount).div(_getCollateralPrice_prec(USDsOracleBaseTokenAddr));\n        return USDsPrice_average;\n    }\n\n    function getCollateralPrice_prec(address collateralAddr) external view override returns (uint) {\n        collateralStruct memory  collateralInfo = collateralsInfo[collateralAddr];\n        require(collateralInfo.supported, \"getCollateralPrice_prec: Collateral not supported.\");\n        return _getCollateralPrice_prec(collateralAddr);\n    }\n\n    function getETHprice_prec() external view override returns (uint) {\n        return ETHprice_prec;\n    }\n\n    function getSPAprice_prec() external view override returns (uint) {\n        return SPAprice_prec;\n    }\n\n    function getUSDsPrice_prec() external view override returns (uint) {\n        return USDsPrice_prec;\n    }\n\n    function _getCollateralPrice(address collateralAddr) internal view returns (uint) {\n        collateralStruct memory  collateralInfo = collateralsInfo[collateralAddr];\n        require(collateralInfo.supported, \"_getCollateralPrice: Collateral not supported.\");\n        (\n            ,\n            int price,\n            ,\n            ,\n        ) = collateralInfo.priceFeed.latestRoundData();\n        return uint(price);\n    }\n\n\n\tfunction _getETHprice() internal view returns (uint) {\n\t\t(\n            ,\n            int price,\n            ,\n            ,\n\t\t) = priceFeedETH.latestRoundData();\n\t\treturn uint(price);\n\t}\n\n    function _getCollateralPrice_prec(address collateralAddr) internal view returns (uint) {\n        collateralStruct memory  collateralInfo = collateralsInfo[collateralAddr];\n        require(collateralInfo.supported, \"_getCollateralPrice_prec: Collateral not supported.\");\n        return collateralInfo.price_prec;\n\t}\n\n\n}\n",
  "sourcePath": "/Users/daweizhao/Documents/Sperax/USDs/USDs github/USDs/contracts/oracle/Oracle.sol",
  "compiler": {
    "name": "solc",
    "version": "0.6.12+commit.27d51765.Emscripten.clang"
  },
  "schemaVersion": "3.3.4",
  "updatedAt": "2021-09-11T02:34:54.107Z",
  "devdoc": {
    "author": "Sperax Dev Team",
    "details": "this contract draws insights from \"ExampleOracleSimple.sol\" by UniswapV2 team",
    "kind": "dev",
    "methods": {
      "changePeriod(uint32)": {
        "details": "the frequency of update always remains the same",
        "params": {
          "newPeriod": "new minimal updatePeriod in between two updates"
        }
      },
      "owner()": {
        "details": "Returns the address of the current owner."
      },
      "renounceOwnership()": {
        "details": "Leaves the contract without owner. It will not be possible to call `onlyOwner` functions anymore. Can only be called by the current owner. NOTE: Renouncing ownership will leave the contract without an owner, thereby removing any functionality that is only available to the owner."
      },
      "transferOwnership(address)": {
        "details": "Transfers ownership of the contract to a new account (`newOwner`). Can only be called by the current owner."
      },
      "updateInOutRatio()": {
        "details": "the price would be updated only once per updatePeriod timeUSDsInOutRatio is accurate after 24 hours (one iteration)"
      }
    },
    "title": "Oracle - the oracle contract for Spark",
    "version": 1
  },
  "userdoc": {
    "kind": "user",
    "methods": {
      "changePeriod(uint32)": {
        "notice": "change updatePeriod"
      },
      "updateInOutRatio()": {
        "notice": "update the price of token0 to the latest"
      }
    },
    "notice": "this contract gets data from UniswapV2 pair and feed these data into the main contact of Spark, i.e. Spark.sol",
    "version": 1
  }
}