{
  "contractName": "Oracle",
  "abi": [
    {
      "anonymous": false,
      "inputs": [
        {
          "indexed": true,
          "internalType": "address",
          "name": "previousOwner",
          "type": "address"
        },
        {
          "indexed": true,
          "internalType": "address",
          "name": "newOwner",
          "type": "address"
        }
      ],
      "name": "OwnershipTransferred",
      "type": "event"
    },
    {
      "anonymous": false,
      "inputs": [
        {
          "indexed": false,
          "internalType": "uint256",
          "name": "currPriceMA",
          "type": "uint256"
        },
        {
          "indexed": false,
          "internalType": "uint256",
          "name": "currPricetime",
          "type": "uint256"
        }
      ],
      "name": "Update",
      "type": "event"
    },
    {
      "inputs": [],
      "name": "ETHPricePrecision",
      "outputs": [
        {
          "internalType": "uint256",
          "name": "",
          "type": "uint256"
        }
      ],
      "stateMutability": "view",
      "type": "function"
    },
    {
      "inputs": [],
      "name": "FREQUENCY",
      "outputs": [
        {
          "internalType": "uint8",
          "name": "",
          "type": "uint8"
        }
      ],
      "stateMutability": "view",
      "type": "function"
    },
    {
      "inputs": [],
      "name": "SPAPricePrecision",
      "outputs": [
        {
          "internalType": "uint256",
          "name": "",
          "type": "uint256"
        }
      ],
      "stateMutability": "view",
      "type": "function"
    },
    {
      "inputs": [],
      "name": "USDsInOutRatio",
      "outputs": [
        {
          "internalType": "uint256",
          "name": "",
          "type": "uint256"
        }
      ],
      "stateMutability": "view",
      "type": "function"
    },
    {
      "inputs": [],
      "name": "USDsInOutRatioPrecision",
      "outputs": [
        {
          "internalType": "uint256",
          "name": "",
          "type": "uint256"
        }
      ],
      "stateMutability": "view",
      "type": "function"
    },
    {
      "inputs": [
        {
          "internalType": "uint256",
          "name": "",
          "type": "uint256"
        }
      ],
      "name": "USDsInflow",
      "outputs": [
        {
          "internalType": "uint256",
          "name": "",
          "type": "uint256"
        }
      ],
      "stateMutability": "view",
      "type": "function"
    },
    {
      "inputs": [],
      "name": "USDsInstance",
      "outputs": [
        {
          "internalType": "contract USDs",
          "name": "",
          "type": "address"
        }
      ],
      "stateMutability": "view",
      "type": "function"
    },
    {
      "inputs": [
        {
          "internalType": "uint256",
          "name": "",
          "type": "uint256"
        }
      ],
      "name": "USDsOutflow",
      "outputs": [
        {
          "internalType": "uint256",
          "name": "",
          "type": "uint256"
        }
      ],
      "stateMutability": "view",
      "type": "function"
    },
    {
      "inputs": [],
      "name": "USDsPricePrecision",
      "outputs": [
        {
          "internalType": "uint256",
          "name": "",
          "type": "uint256"
        }
      ],
      "stateMutability": "view",
      "type": "function"
    },
    {
      "inputs": [],
      "name": "lastUpdateTime",
      "outputs": [
        {
          "internalType": "uint32",
          "name": "",
          "type": "uint32"
        }
      ],
      "stateMutability": "view",
      "type": "function"
    },
    {
      "inputs": [],
      "name": "owner",
      "outputs": [
        {
          "internalType": "address",
          "name": "",
          "type": "address"
        }
      ],
      "stateMutability": "view",
      "type": "function"
    },
    {
      "inputs": [],
      "name": "period",
      "outputs": [
        {
          "internalType": "uint32",
          "name": "",
          "type": "uint32"
        }
      ],
      "stateMutability": "view",
      "type": "function"
    },
    {
      "inputs": [
        {
          "internalType": "address",
          "name": "",
          "type": "address"
        }
      ],
      "name": "priceFeeds",
      "outputs": [
        {
          "internalType": "contract AggregatorV3Interface",
          "name": "",
          "type": "address"
        }
      ],
      "stateMutability": "view",
      "type": "function"
    },
    {
      "inputs": [
        {
          "internalType": "address",
          "name": "",
          "type": "address"
        }
      ],
      "name": "pricePrecisions",
      "outputs": [
        {
          "internalType": "uint256",
          "name": "",
          "type": "uint256"
        }
      ],
      "stateMutability": "view",
      "type": "function"
    },
    {
      "inputs": [],
      "name": "pricetimeOldestIndex",
      "outputs": [
        {
          "internalType": "uint32",
          "name": "",
          "type": "uint32"
        }
      ],
      "stateMutability": "view",
      "type": "function"
    },
    {
      "inputs": [],
      "name": "renounceOwnership",
      "outputs": [],
      "stateMutability": "nonpayable",
      "type": "function"
    },
    {
      "inputs": [],
      "name": "token0PriceMA",
      "outputs": [
        {
          "internalType": "uint256",
          "name": "",
          "type": "uint256"
        }
      ],
      "stateMutability": "view",
      "type": "function"
    },
    {
      "inputs": [
        {
          "internalType": "uint256",
          "name": "",
          "type": "uint256"
        }
      ],
      "name": "token0Pricetimes",
      "outputs": [
        {
          "internalType": "uint32",
          "name": "timestamp",
          "type": "uint32"
        },
        {
          "internalType": "uint256",
          "name": "price0Cumulative",
          "type": "uint256"
        }
      ],
      "stateMutability": "view",
      "type": "function"
    },
    {
      "inputs": [
        {
          "internalType": "address",
          "name": "",
          "type": "address"
        }
      ],
      "name": "tokenAddressIndex",
      "outputs": [
        {
          "internalType": "uint256",
          "name": "",
          "type": "uint256"
        }
      ],
      "stateMutability": "view",
      "type": "function"
    },
    {
      "inputs": [
        {
          "internalType": "uint256",
          "name": "",
          "type": "uint256"
        }
      ],
      "name": "tokenAddresses",
      "outputs": [
        {
          "internalType": "address",
          "name": "",
          "type": "address"
        }
      ],
      "stateMutability": "view",
      "type": "function"
    },
    {
      "inputs": [
        {
          "internalType": "address",
          "name": "newOwner",
          "type": "address"
        }
      ],
      "name": "transferOwnership",
      "outputs": [],
      "stateMutability": "nonpayable",
      "type": "function"
    },
    {
      "inputs": [
        {
          "internalType": "address",
          "name": "pair_",
          "type": "address"
        },
        {
          "internalType": "address",
          "name": "USDsToken_",
          "type": "address"
        }
      ],
      "name": "initialize",
      "outputs": [],
      "stateMutability": "nonpayable",
      "type": "function"
    },
    {
      "inputs": [],
      "name": "getPairAddr",
      "outputs": [
        {
          "internalType": "address",
          "name": "",
          "type": "address"
        }
      ],
      "stateMutability": "view",
      "type": "function"
    },
    {
      "inputs": [
        {
          "internalType": "uint32",
          "name": "newPeriod",
          "type": "uint32"
        }
      ],
      "name": "changePeriod",
      "outputs": [],
      "stateMutability": "nonpayable",
      "type": "function"
    },
    {
      "inputs": [
        {
          "internalType": "address",
          "name": "assetAddress",
          "type": "address"
        },
        {
          "internalType": "address",
          "name": "aggregatorAddress",
          "type": "address"
        },
        {
          "internalType": "uint256",
          "name": "precision",
          "type": "uint256"
        }
      ],
      "name": "updatePriceList",
      "outputs": [],
      "stateMutability": "nonpayable",
      "type": "function"
    },
    {
      "inputs": [],
      "name": "getETHPrice",
      "outputs": [
        {
          "internalType": "uint256",
          "name": "",
          "type": "uint256"
        }
      ],
      "stateMutability": "view",
      "type": "function"
    },
    {
      "inputs": [
        {
          "internalType": "address",
          "name": "assetAddress",
          "type": "address"
        }
      ],
      "name": "getAssetPrice",
      "outputs": [
        {
          "internalType": "uint256",
          "name": "",
          "type": "uint256"
        }
      ],
      "stateMutability": "view",
      "type": "function"
    },
    {
      "inputs": [],
      "name": "getSPAPrice",
      "outputs": [
        {
          "internalType": "uint256",
          "name": "",
          "type": "uint256"
        }
      ],
      "stateMutability": "view",
      "type": "function"
    },
    {
      "inputs": [],
      "name": "getUSDsPrice",
      "outputs": [
        {
          "internalType": "uint256",
          "name": "",
          "type": "uint256"
        }
      ],
      "stateMutability": "view",
      "type": "function"
    },
    {
      "inputs": [
        {
          "internalType": "address",
          "name": "tokenAddr",
          "type": "address"
        }
      ],
      "name": "collatPrice",
      "outputs": [
        {
          "internalType": "uint256",
          "name": "",
          "type": "uint256"
        }
      ],
      "stateMutability": "view",
      "type": "function"
    },
    {
      "inputs": [
        {
          "internalType": "address",
          "name": "tokenAddr",
          "type": "address"
        }
      ],
      "name": "collatPricePrecision",
      "outputs": [
        {
          "internalType": "uint256",
          "name": "",
          "type": "uint256"
        }
      ],
      "stateMutability": "view",
      "type": "function"
    },
    {
      "inputs": [],
      "name": "update",
      "outputs": [],
      "stateMutability": "nonpayable",
      "type": "function"
    }
  ],
  "bytecode": "0x608060405234801561001057600080fd5b50612b69806100206000396000f3fe608060405234801561001057600080fd5b50600436106101f05760003560e01c80639dcb511a1161010f578063c8f33c91116100a2578063e5df8b8411610071578063e5df8b84146107ad578063ee1bca9e14610805578063ef78d4fd14610873578063f2fde38b14610897576101f0565b8063c8f33c9114610713578063caffc2b814610737578063cef4b2421461075b578063d5b01d431461078f576101f0565b8063a607a8d9116100de578063a607a8d91461065e578063b3596f071461067c578063c229d750146106d4578063c36d7497146106f5576101f0565b80639dcb511a1461054c5780639f1a442e146105ba5780639fd3d75914610612578063a2e6204514610654576101f0565b80632527c72211610187578063715018a611610156578063715018a614610498578063743db827146104a25780637d1489fe146104c05780638da5cb5b14610518576101f0565b80632527c72214610366578063298cc9f1146103be578063485cc955146103f25780636c6f186514610456576101f0565b806312dd85ee116101c357806312dd85ee146102b457806316c4c011146102d257806319860524146102f05780631f58c44114610348576101f0565b8063067c0bef146101f557806308432eea146102445780630b71f216146102625780630d4045c614610280575b600080fd5b6102216004803603602081101561020b57600080fd5b81019080803590602001909291905050506108db565b604051808363ffffffff1681526020018281526020019250505060405180910390f35b61024c610912565b6040518082815260200191505060405180910390f35b61026a61091f565b6040518082815260200191505060405180910390f35b610288610925565b604051808273ffffffffffffffffffffffffffffffffffffffff16815260200191505060405180910390f35b6102bc61094f565b6040518082815260200191505060405180910390f35b6102da6109c1565b6040518082815260200191505060405180910390f35b6103326004803603602081101561030657600080fd5b81019080803573ffffffffffffffffffffffffffffffffffffffff1690602001909291905050506109c7565b6040518082815260200191505060405180910390f35b6103506109df565b6040518082815260200191505060405180910390f35b6103a86004803603602081101561037c57600080fd5b81019080803573ffffffffffffffffffffffffffffffffffffffff1690602001909291905050506109e5565b6040518082815260200191505060405180910390f35b6103f0600480360360208110156103d457600080fd5b81019080803563ffffffff1690602001909291905050506109fd565b005b6104546004803603604081101561040857600080fd5b81019080803573ffffffffffffffffffffffffffffffffffffffff169060200190929190803573ffffffffffffffffffffffffffffffffffffffff169060200190929190505050610ad0565b005b6104826004803603602081101561046c57600080fd5b8101908080359060200190929190505050610e95565b6040518082815260200191505060405180910390f35b6104a0610ead565b005b6104aa61101d565b6040518082815260200191505060405180910390f35b610502600480360360208110156104d657600080fd5b81019080803573ffffffffffffffffffffffffffffffffffffffff169060200190929190505050611023565b6040518082815260200191505060405180910390f35b61052061106c565b604051808273ffffffffffffffffffffffffffffffffffffffff16815260200191505060405180910390f35b61058e6004803603602081101561056257600080fd5b81019080803573ffffffffffffffffffffffffffffffffffffffff169060200190929190505050611096565b604051808273ffffffffffffffffffffffffffffffffffffffff16815260200191505060405180910390f35b6105fc600480360360208110156105d057600080fd5b81019080803573ffffffffffffffffffffffffffffffffffffffff1690602001909291905050506110c9565b6040518082815260200191505060405180910390f35b61063e6004803603602081101561062857600080fd5b81019080803590602001909291905050506110db565b6040518082815260200191505060405180910390f35b61065c6110f3565b005b6106666115ca565b6040518082815260200191505060405180910390f35b6106be6004803603602081101561069257600080fd5b81019080803573ffffffffffffffffffffffffffffffffffffffff1690602001909291905050506116b3565b6040518082815260200191505060405180910390f35b6106dc6117db565b604051808260ff16815260200191505060405180910390f35b6106fd6117e0565b6040518082815260200191505060405180910390f35b61071b6117e6565b604051808263ffffffff16815260200191505060405180910390f35b61073f6117fc565b604051808263ffffffff16815260200191505060405180910390f35b610763611812565b604051808273ffffffffffffffffffffffffffffffffffffffff16815260200191505060405180910390f35b610797611838565b6040518082815260200191505060405180910390f35b6107d9600480360360208110156107c357600080fd5b810190808035906020019092919050505061183e565b604051808273ffffffffffffffffffffffffffffffffffffffff16815260200191505060405180910390f35b6108716004803603606081101561081b57600080fd5b81019080803573ffffffffffffffffffffffffffffffffffffffff169060200190929190803573ffffffffffffffffffffffffffffffffffffffff1690602001909291908035906020019092919050505061187a565b005b61087b611ae8565b604051808263ffffffff16815260200191505060405180910390f35b6108d9600480360360208110156108ad57600080fd5b81019080803573ffffffffffffffffffffffffffffffffffffffff169060200190929190505050611afe565b005b606781601981106108e857fe5b600202016000915090508060000160009054906101000a900463ffffffff16908060010154905082565b6000609b54600102905090565b60cf5481565b6000606660009054906101000a900473ffffffffffffffffffffffffffffffffffffffff16905090565b60008061095a6115ca565b905060006109826e010000000000000000000000000000606554611cf390919063ffffffff16565b90506109ba6065546109ac6e01000000000000000000000000000085611d7c90919063ffffffff16565b611cf390919063ffffffff16565b9250505090565b60655481565b60d56020528060005260406000206000915090505481565b60d05481565b60d36020528060005260406000206000915090505481565b610a05611e02565b73ffffffffffffffffffffffffffffffffffffffff16610a2361106c565b73ffffffffffffffffffffffffffffffffffffffff1614610aac576040517f08c379a00000000000000000000000000000000000000000000000000000000081526004018080602001828103825260208152602001807f4f776e61626c653a2063616c6c6572206973206e6f7420746865206f776e657281525060200191505060405180910390fd5b80609960086101000a81548163ffffffff021916908363ffffffff16021790555050565b600060019054906101000a900460ff1680610aef5750610aee611e0a565b5b80610b05575060008054906101000a900460ff16155b610b5a576040517f08c379a000000000000000000000000000000000000000000000000000000000815260040180806020018281038252602e815260200180612ae5602e913960400191505060405180910390fd5b60008060019054906101000a900460ff161590508015610baa576001600060016101000a81548160ff02191690831515021790555060016000806101000a81548160ff0219169083151502179055505b610bb2611e1b565b610e10609960086101000a81548163ffffffff021916908363ffffffff1602179055506305f5e100609a81905550670de0b6b3a7640000609b819055506305f5e100609c819055506298968060d081905550739326bfa02add2366b30bacb125260af6410313316099600c6101000a81548173ffffffffffffffffffffffffffffffffffffffff021916908373ffffffffffffffffffffffffffffffffffffffff16021790555060006401000000004281610c6957fe5b06905083606660006101000a81548173ffffffffffffffffffffffffffffffffffffffff021916908373ffffffffffffffffffffffffffffffffffffffff16021790555080609960046101000a81548163ffffffff021916908363ffffffff1602179055506000610cd985611f29565b5050905060006201e84890506000607090506000609960089054906101000a900463ffffffff1663ffffffff168284901b0290506000601860ff16820290508284901b60658190555060005b600160180160ff16811015610ddf57610d6b82610d5d88610d4f8588611d7c90919063ffffffff16565b6121b490919063ffffffff16565b61223c90919063ffffffff16565b60678260198110610d7857fe5b600202016001018190555080601860ff1603609960089054906101000a900463ffffffff1602870360678260198110610dad57fe5b6002020160000160006101000a81548163ffffffff021916908363ffffffff1602179055508080600101915050610d25565b508760d160006101000a81548173ffffffffffffffffffffffffffffffffffffffff021916908373ffffffffffffffffffffffffffffffffffffffff16021790555060005b600160180160ff16811015610e68576000609d8260198110610e4257fe5b0181905550600060b68260198110610e5657fe5b01819055508080600101915050610e24565b505050505050508015610e905760008060016101000a81548160ff0219169083151502179055505b505050565b609d8160198110610ea257fe5b016000915090505481565b610eb5611e02565b73ffffffffffffffffffffffffffffffffffffffff16610ed361106c565b73ffffffffffffffffffffffffffffffffffffffff1614610f5c576040517f08c379a00000000000000000000000000000000000000000000000000000000081526004018080602001828103825260208152602001807f4f776e61626c653a2063616c6c6572206973206e6f7420746865206f776e657281525060200191505060405180910390fd5b600073ffffffffffffffffffffffffffffffffffffffff16603360009054906101000a900473ffffffffffffffffffffffffffffffffffffffff1673ffffffffffffffffffffffffffffffffffffffff167f8be0079c531659141344cd1fd0a4f28419497f9722a3daafe3b4186f6b6457e060405160405180910390a36000603360006101000a81548173ffffffffffffffffffffffffffffffffffffffff021916908373ffffffffffffffffffffffffffffffffffffffff160217905550565b609c5481565b600060d560008373ffffffffffffffffffffffffffffffffffffffff1673ffffffffffffffffffffffffffffffffffffffff168152602001908152602001600020549050919050565b6000603360009054906101000a900473ffffffffffffffffffffffffffffffffffffffff16905090565b60d46020528060005260406000206000915054906101000a900473ffffffffffffffffffffffffffffffffffffffff1681565b60006110d4826116b3565b9050919050565b60b681601981106110e857fe5b016000915090505481565b6000640100000000428161110357fe5b0690506000609960049054906101000a900463ffffffff1682039050609960089054906101000a900463ffffffff1663ffffffff168163ffffffff161015611196576040517f08c379a0000000000000000000000000000000000000000000000000000000008152600401808060200182810382526029815260200180612a706029913960400191505060405180910390fd5b60006111c3606660009054906101000a900473ffffffffffffffffffffffffffffffffffffffff16611f29565b505090506000609960009054906101000a900463ffffffff1690506000600160180160ff166001830163ffffffff16816111f957fe5b0690508260678363ffffffff166019811061121057fe5b60020201600101819055508460678363ffffffff166019811061122f57fe5b6002020160000160006101000a81548163ffffffff021916908363ffffffff160217905550600060678263ffffffff166019811061126957fe5b6002020160000160009054906101000a900463ffffffff1660678463ffffffff166019811061129457fe5b6002020160000160009054906101000a900463ffffffff160363ffffffff16905061130e8161130060678563ffffffff16601981106112cf57fe5b600202016001015460678763ffffffff16601981106112ea57fe5b600202016001015461223c90919063ffffffff16565b611cf390919063ffffffff16565b60658190555085609960046101000a81548163ffffffff021916908363ffffffff16021790555081609960006101000a81548163ffffffff021916908363ffffffff1602179055507f8ecf343d22d1934aea3fb34b7332371552b19286c5bc696adae16c7690a90d5460655485604051808381526020018281526020019250505060405180910390a160d160009054906101000a900473ffffffffffffffffffffffffffffffffffffffff1673ffffffffffffffffffffffffffffffffffffffff1663736bf5916040518163ffffffff1660e01b815260040160206040518083038186803b1580156113ff57600080fd5b505afa158015611413573d6000803e3d6000fd5b505050506040513d602081101561142957600080fd5b8101908080519060200190929190505050609d8463ffffffff166019811061144d57fe5b018190555060d160009054906101000a900473ffffffffffffffffffffffffffffffffffffffff1673ffffffffffffffffffffffffffffffffffffffff16630abddbe76040518163ffffffff1660e01b815260040160206040518083038186803b1580156114ba57600080fd5b505afa1580156114ce573d6000803e3d6000fd5b505050506040513d60208110156114e457600080fd5b810190808051906020019092919050505060b68463ffffffff166019811061150857fe5b0181905550600061154a609d8463ffffffff166019811061152557fe5b0154609d8663ffffffff166019811061153a57fe5b015461223c90919063ffffffff16565b9050600061158960b68563ffffffff166019811061156457fe5b015460b68763ffffffff166019811061157957fe5b015461223c90919063ffffffff16565b9050600060cf5414156115a45760d05460cf819055506115c0565b6115b960cf5482611cf390919063ffffffff16565b60cf819055505b5050505050505050565b6000806000806000806099600c9054906101000a900473ffffffffffffffffffffffffffffffffffffffff1673ffffffffffffffffffffffffffffffffffffffff1663feaf968c6040518163ffffffff1660e01b815260040160a06040518083038186803b15801561163b57600080fd5b505afa15801561164f573d6000803e3d6000fd5b505050506040513d60a081101561166557600080fd5b81019080805190602001909291908051906020019092919080519060200190929190805190602001909291908051906020019092919050505094509450945094509450839550505050505090565b60008060008060008060d460008873ffffffffffffffffffffffffffffffffffffffff1673ffffffffffffffffffffffffffffffffffffffff16815260200190815260200160002060009054906101000a900473ffffffffffffffffffffffffffffffffffffffff1673ffffffffffffffffffffffffffffffffffffffff1663feaf968c6040518163ffffffff1660e01b815260040160a06040518083038186803b15801561176157600080fd5b505afa158015611775573d6000803e3d6000fd5b505050506040513d60a081101561178b57600080fd5b810190808051906020019092919080519060200190929190805190602001909291908051906020019092919080519060200190929190505050945094509450945094508395505050505050919050565b601881565b609b5481565b609960049054906101000a900463ffffffff1681565b609960009054906101000a900463ffffffff1681565b60d160009054906101000a900473ffffffffffffffffffffffffffffffffffffffff1681565b609a5481565b60d2818154811061184b57fe5b906000526020600020016000915054906101000a900473ffffffffffffffffffffffffffffffffffffffff1681565b611882611e02565b73ffffffffffffffffffffffffffffffffffffffff166118a061106c565b73ffffffffffffffffffffffffffffffffffffffff1614611929576040517f08c379a00000000000000000000000000000000000000000000000000000000081526004018080602001828103825260208152602001807f4f776e61626c653a2063616c6c6572206973206e6f7420746865206f776e657281525060200191505060405180910390fd5b600060d360008573ffffffffffffffffffffffffffffffffffffffff1673ffffffffffffffffffffffffffffffffffffffff168152602001908152602001600020541415611a1e5760d2839080600181540180825580915050600190039060005260206000200160009091909190916101000a81548173ffffffffffffffffffffffffffffffffffffffff021916908373ffffffffffffffffffffffffffffffffffffffff16021790555060d28054905060d360008573ffffffffffffffffffffffffffffffffffffffff1673ffffffffffffffffffffffffffffffffffffffff168152602001908152602001600020819055505b8160d460008573ffffffffffffffffffffffffffffffffffffffff1673ffffffffffffffffffffffffffffffffffffffff16815260200190815260200160002060006101000a81548173ffffffffffffffffffffffffffffffffffffffff021916908373ffffffffffffffffffffffffffffffffffffffff16021790555080600a0a60d560008573ffffffffffffffffffffffffffffffffffffffff1673ffffffffffffffffffffffffffffffffffffffff16815260200190815260200160002081905550505050565b609960089054906101000a900463ffffffff1681565b611b06611e02565b73ffffffffffffffffffffffffffffffffffffffff16611b2461106c565b73ffffffffffffffffffffffffffffffffffffffff1614611bad576040517f08c379a00000000000000000000000000000000000000000000000000000000081526004018080602001828103825260208152602001807f4f776e61626c653a2063616c6c6572206973206e6f7420746865206f776e657281525060200191505060405180910390fd5b600073ffffffffffffffffffffffffffffffffffffffff168173ffffffffffffffffffffffffffffffffffffffff161415611c33576040517f08c379a0000000000000000000000000000000000000000000000000000000008152600401808060200182810382526026815260200180612a996026913960400191505060405180910390fd5b8073ffffffffffffffffffffffffffffffffffffffff16603360009054906101000a900473ffffffffffffffffffffffffffffffffffffffff1673ffffffffffffffffffffffffffffffffffffffff167f8be0079c531659141344cd1fd0a4f28419497f9722a3daafe3b4186f6b6457e060405160405180910390a380603360006101000a81548173ffffffffffffffffffffffffffffffffffffffff021916908373ffffffffffffffffffffffffffffffffffffffff16021790555050565b6000808211611d6a576040517f08c379a000000000000000000000000000000000000000000000000000000000815260040180806020018281038252601a8152602001807f536166654d6174683a206469766973696f6e206279207a65726f00000000000081525060200191505060405180910390fd5b818381611d7357fe5b04905092915050565b600080831415611d8f5760009050611dfc565b6000828402905082848281611da057fe5b0414611df7576040517f08c379a0000000000000000000000000000000000000000000000000000000008152600401808060200182810382526021815260200180612b136021913960400191505060405180910390fd5b809150505b92915050565b600033905090565b6000611e15306122bf565b15905090565b600060019054906101000a900460ff1680611e3a5750611e39611e0a565b5b80611e50575060008054906101000a900460ff16155b611ea5576040517f08c379a000000000000000000000000000000000000000000000000000000000815260040180806020018281038252602e815260200180612ae5602e913960400191505060405180910390fd5b60008060019054906101000a900460ff161590508015611ef5576001600060016101000a81548160ff02191690831515021790555060016000806101000a81548160ff0219169083151502179055505b611efd6122d2565b611f056123d0565b8015611f265760008060016101000a81548160ff0219169083151502179055505b50565b6000806000611f36612577565b90508373ffffffffffffffffffffffffffffffffffffffff16635909c0d56040518163ffffffff1660e01b815260040160206040518083038186803b158015611f7e57600080fd5b505afa158015611f92573d6000803e3d6000fd5b505050506040513d6020811015611fa857600080fd5b810190808051906020019092919050505092508373ffffffffffffffffffffffffffffffffffffffff16635a3d54936040518163ffffffff1660e01b815260040160206040518083038186803b15801561200157600080fd5b505afa158015612015573d6000803e3d6000fd5b505050506040513d602081101561202b57600080fd5b8101908080519060200190929190505050915060008060008673ffffffffffffffffffffffffffffffffffffffff16630902f1ac6040518163ffffffff1660e01b815260040160606040518083038186803b15801561208957600080fd5b505afa15801561209d573d6000803e3d6000fd5b505050506040513d60608110156120b357600080fd5b810190808051906020019092919080519060200190929190805190602001909291905050509250925092508363ffffffff168163ffffffff16146121aa57600081850390508063ffffffff16612129846dffffffffffffffffffffffffffff16866dffffffffffffffffffffffffffff1661258d565b600001517bffffffffffffffffffffffffffffffffffffffffffffffffffffffff1602870196508063ffffffff16612181856dffffffffffffffffffffffffffff16856dffffffffffffffffffffffffffff1661258d565b600001517bffffffffffffffffffffffffffffffffffffffffffffffffffffffff160286019550505b5050509193909250565b600080828401905083811015612232576040517f08c379a000000000000000000000000000000000000000000000000000000000815260040180806020018281038252601b8152602001807f536166654d6174683a206164646974696f6e206f766572666c6f77000000000081525060200191505060405180910390fd5b8091505092915050565b6000828211156122b4576040517f08c379a000000000000000000000000000000000000000000000000000000000815260040180806020018281038252601e8152602001807f536166654d6174683a207375627472616374696f6e206f766572666c6f77000081525060200191505060405180910390fd5b818303905092915050565b600080823b905060008111915050919050565b600060019054906101000a900460ff16806122f157506122f0611e0a565b5b80612307575060008054906101000a900460ff16155b61235c576040517f08c379a000000000000000000000000000000000000000000000000000000000815260040180806020018281038252602e815260200180612ae5602e913960400191505060405180910390fd5b60008060019054906101000a900460ff1615905080156123ac576001600060016101000a81548160ff02191690831515021790555060016000806101000a81548160ff0219169083151502179055505b80156123cd5760008060016101000a81548160ff0219169083151502179055505b50565b600060019054906101000a900460ff16806123ef57506123ee611e0a565b5b80612405575060008054906101000a900460ff16155b61245a576040517f08c379a000000000000000000000000000000000000000000000000000000000815260040180806020018281038252602e815260200180612ae5602e913960400191505060405180910390fd5b60008060019054906101000a900460ff1615905080156124aa576001600060016101000a81548160ff02191690831515021790555060016000806101000a81548160ff0219169083151502179055505b60006124b4611e02565b905080603360006101000a81548173ffffffffffffffffffffffffffffffffffffffff021916908373ffffffffffffffffffffffffffffffffffffffff1602179055508073ffffffffffffffffffffffffffffffffffffffff16600073ffffffffffffffffffffffffffffffffffffffff167f8be0079c531659141344cd1fd0a4f28419497f9722a3daafe3b4186f6b6457e060405160405180910390a35080156125745760008060016101000a81548160ff0219169083151502179055505b50565b6000640100000000428161258757fe5b06905090565b612595612a3e565b600082116125ee576040517f08c379a0000000000000000000000000000000000000000000000000000000008152600401808060200182810382526026815260200180612abf6026913960400191505060405180910390fd5b600083141561262c57604051806020016040528060007bffffffffffffffffffffffffffffffffffffffffffffffffffffffff168152509050612868565b7fffffffffffffffffffffffffffffffffffffffffffffffffffffffffffffffff71ffffffffffffffffffffffffffffffffffff16831161276557600082607060ff1685901b8161267957fe5b0490507fffffffffffffffffffffffffffffffffffffffffffffffffffffffffffffffff7bffffffffffffffffffffffffffffffffffffffffffffffffffffffff16811115612730576040517f08c379a000000000000000000000000000000000000000000000000000000000815260040180806020018281038252601e8152602001807f4669786564506f696e743a3a6672616374696f6e3a206f766572666c6f77000081525060200191505060405180910390fd5b6040518060200160405280827bffffffffffffffffffffffffffffffffffffffffffffffffffffffff16815250915050612868565b6000612781846e0100000000000000000000000000008561286e565b90507fffffffffffffffffffffffffffffffffffffffffffffffffffffffffffffffff7bffffffffffffffffffffffffffffffffffffffffffffffffffffffff16811115612837576040517f08c379a000000000000000000000000000000000000000000000000000000000815260040180806020018281038252601e8152602001807f4669786564506f696e743a3a6672616374696f6e3a206f766572666c6f77000081525060200191505060405180910390fd5b6040518060200160405280827bffffffffffffffffffffffffffffffffffffffffffffffffffffffff168152509150505b92915050565b600080600061287d868661294e565b915091506000848061288b57fe5b86880990508281111561289f576001820391505b808303925060008214156128c1578483816128b657fe5b049350505050612947565b848210612936576040517f08c379a000000000000000000000000000000000000000000000000000000000815260040180806020018281038252601a8152602001807f46756c6c4d6174683a2046554c4c4449565f4f564552464c4f5700000000000081525060200191505060405180910390fd5b6129418383876129a1565b93505050505b9392505050565b60008060007fffffffffffffffffffffffffffffffffffffffffffffffffffffffffffffffff8061297b57fe5b84860990508385029250828103915082811015612999576001820391505b509250929050565b60008082600003831690508083816129b557fe5b0492508085816129c157fe5b04945060018182600003816129d257fe5b04018402850194506000600190508084026002038102905080840260020381029050808402600203810290508084026002038102905080840260020381029050808402600203810290508084026002038102905080840260020381029050808602925050509392505050565b604051806020016040528060007bffffffffffffffffffffffffffffffffffffffffffffffffffffffff168152509056fe7570646174652829203a207468652074696d6520656c617073656420697320746f6f2073686f72742e4f776e61626c653a206e6577206f776e657220697320746865207a65726f20616464726573734669786564506f696e743a3a6672616374696f6e3a206469766973696f6e206279207a65726f496e697469616c697a61626c653a20636f6e747261637420697320616c726561647920696e697469616c697a6564536166654d6174683a206d756c7469706c69636174696f6e206f766572666c6f77a2646970667358221220438b63409a97a3271035c2fc466685895e271f444e6daade48f45f2a035eafe964736f6c634300060c0033",
  "immutableReferences": {},
  "source": "\n// To-do:\n// change int()\npragma solidity ^0.6.12;\n\nimport \"@openzeppelin/contracts-upgradeable/proxy/Initializable.sol\";\nimport \"@openzeppelin/contracts-upgradeable/access/OwnableUpgradeable.sol\";\nimport \"@openzeppelin/contracts-upgradeable/math/SafeMathUpgradeable.sol\";\n\nimport { USDs } from \"../token/USDs.sol\";\nimport \"../interfaces/AggregatorV3Interface.sol\";\nimport \"../interfaces/IOracle.sol\";\nimport \"../interfaces/IUniswapV2Pair.sol\";\nimport \"../libraries/UniswapV2OracleLibrary.sol\";\n\n/**\n * @title Oracle - the oracle contract for Spark\n * @author Sperax Dev Team\n * @notice this contract gets data from UniswapV2 pair and feed these data into the main contact of Spark, i.e. Spark.sol\n * @dev this contract draws insights from \"ExampleOracleSimple.sol\" by UniswapV2 team\n */\n\ncontract Oracle is Initializable, IOracle, OwnableUpgradeable {\n    using SafeMathUpgradeable for *;\n\n    event Update(uint currPriceMA, uint currPricetime);\n\n    struct token0Pricetime {\n       uint32 timestamp;\n       uint price0Cumulative;\n    }\n\n\n    //\n    // Constants & Immutables\n    //\n    uint8 public constant FREQUENCY = 24;\n\n    //\n    // Core State Variables\n    //\n    // the moving average price of token0 denominated in token1\n    // frequency = 24, default period = 1 hours ==> default timespan is 1 days\n    uint public override token0PriceMA;\n    IUniswapV2Pair private _pair;\n\n    //\n    // Auxilliary State Variables\n    //\n    // the per-period cumulative pricetimes, i.e. the UniswapV2 price*time values, of token0\n    token0Pricetime[FREQUENCY+1] public token0Pricetimes;\n    uint32 public pricetimeOldestIndex;\n    // the timstamp of the lastest price update\n    uint32 public override lastUpdateTime;\n    // the default period of one price update is 1 hours\n    uint32 public override period;\n\tAggregatorV3Interface priceFeedETH;\n\n    uint public override ETHPricePrecision;\n    uint public override USDsPricePrecision;\n    uint public override SPAPricePrecision;\n\n    //  For swap fee:\n    uint[FREQUENCY+1] public USDsInflow;\n    uint[FREQUENCY+1] public USDsOutflow;\n    uint public override USDsInOutRatio;\n    uint public override USDsInOutRatioPrecision;\n    USDs public USDsInstance;\n\n    address[] public tokenAddresses;\n    mapping(address => uint256) public tokenAddressIndex;\n    mapping(address => AggregatorV3Interface) public priceFeeds;\n    mapping(address => uint256) public pricePrecisions;\n\n\t// AggregatorV3Interface priceFeedUSDC;\n\t// AggregatorV3Interface priceFeedUSDT;\n\t// AggregatorV3Interface priceFeedDAI;\n\n\t// address public USDCAddr;\n\t// address public USDTAddr;\n\t// address public DAIAddr;\n    // uint public USDCPricePrecision;\n    // uint public USDTPricePrecision;\n    // uint public DAIPricePrecision;\n\n    //\n    // Initializer\n    //\n    function initialize(\n        address pair_, address USDsToken_\n    ) public initializer {\n        OwnableUpgradeable.__Ownable_init();\n\n        // Initialize variables\n        period = 1 hours;\n        // USDCAddr = 0xb7a4F3E9097C08dA09517b5aB877F7a917224ede;\n        // USDCPricePrecision = 10**8;\n        // priceFeedUSDC = AggregatorV3Interface(0x9211c6b3BF41A10F78539810Cf5c64e1BB78Ec60);\n        ETHPricePrecision = 10**8;\n        USDsPricePrecision = 10**18;\n        SPAPricePrecision = 10**8;\n        USDsInOutRatioPrecision = 10000000;\n\n        priceFeedETH = AggregatorV3Interface(0x9326BFA02ADD2366b30bacB125260Af641031331);\n        uint32 constructTime = uint32(now % 2 ** 32);\n        _pair = IUniswapV2Pair(pair_);\n        lastUpdateTime = constructTime;\n\n        // obtain the cumulative pricetime from uniswapv2 pair deployment to now\n        (uint pricetimeCorrection, , ) = UniswapV2OracleLibrary.currentCumulativePrices(pair_);\n\n        // set up initial conditions\n        // assume that 1 ETH = 2500 USD, 1 SPA = 0.02 USD, so 1 ETH = 125,000 SPA\n        uint iniToken0Price = 125000;\n        uint resolution = 112;\n        uint unitPricetime = (iniToken0Price << resolution) * period;\n        uint basePricetime = unitPricetime * FREQUENCY;\n\n        // simulate the pricetimes of the past 7 days, including necessary correction\n        token0PriceMA = iniToken0Price << resolution;\n        for (uint i = 0; i < (FREQUENCY+1); i++) {\n            token0Pricetimes[i].price0Cumulative = unitPricetime\n                                                   .mul(i)\n                                                   .add(pricetimeCorrection)\n                                                   .sub(basePricetime);\n            token0Pricetimes[i].timestamp = constructTime - period * uint32(FREQUENCY - i);\n        }\n        USDsInstance = USDs(USDsToken_);\n\n        for (uint i = 0; i < (FREQUENCY+1); i++) {\n            USDsInflow[i] = 0;\n            USDsOutflow[i] = 0;\n        }\n    }\n\n    //\n    // Getter Function\n    //\n    /**\n     * @notice get the address of the token pair pool\n     * @return the pair pool address\n     */\n    function getPairAddr() external view returns (address) {\n        return address(_pair);\n    }\n\n    //\n    // Owner Only Function: changePeriod\n    //\n\n    /**\n     * @notice change updating period\n     * @dev the frequency of update always remains the same\n     * @param newPeriod new minimal period in between two updates\n     */\n    function changePeriod(uint32 newPeriod) external onlyOwner {\n        period = newPeriod;\n    }\n\n    /**\n        Update price list\n     */\n    function updatePriceList(address assetAddress, address aggregatorAddress, uint256 precision) external onlyOwner {\n        if (tokenAddressIndex[assetAddress] == 0) {\n            tokenAddresses.push(assetAddress);\n            tokenAddressIndex[assetAddress] = tokenAddresses.length;\n        }\n        priceFeeds[assetAddress] = AggregatorV3Interface(aggregatorAddress);\n        pricePrecisions[assetAddress] = 10 ** precision;\n    }\n\n    //\n    // Core Functions\n    //\n\n\tfunction getETHPrice() public view returns (uint) {\n\t\t(\n\t\t\tuint80 roundID,\n\t\t\tint price,\n\t\t\tuint startedAt,\n\t\t\tuint timeStamp,\n\t\t\tuint80 answeredInRound\n\t\t) = priceFeedETH.latestRoundData();\n\t\treturn uint(price);\n\t}\n\n\tfunction getAssetPrice(address assetAddress) public view returns (uint) {\n\t\t(\n\t\t\tuint80 roundID,\n\t\t\tint price,\n\t\t\tuint startedAt,\n\t\t\tuint timeStamp,\n\t\t\tuint80 answeredInRound\n\t\t) = priceFeeds[assetAddress].latestRoundData();\n\t\treturn uint(price);\n\t}\n\n    //to-do\n\tfunction getSPAPrice() external view override returns (uint) {\n\t\tuint ETHPrice = getETHPrice();\n\n        uint token0PriceMA_NoPrec = token0PriceMA.div(2**112);\n        //failing case: 1 ETH > 10^25 SPA or token0PriceMA/2**112 < ETHPrice\n        return ETHPrice.mul(2**112).div(token0PriceMA);\n\t}\n\n    function getUSDsPrice() external view override returns (uint) {\n\t\treturn 1 * USDsPricePrecision;\n\t}\n\n\tfunction collatPrice(address tokenAddr) external view override returns (uint) {\n\t\treturn getAssetPrice(tokenAddr);\n\t}\n\n    function collatPricePrecision(address tokenAddr) external view override returns (uint) {\n        return pricePrecisions[tokenAddr];\n\t}\n\n\n    /**\n     * @notice update the price of token0 to the latest\n     * @dev the price would be updated only once per period time\n     */\n    function update() external override {\n        // check if enough time has elapsed for a new update\n        uint32 currTime = uint32(now % 2 ** 32);\n        uint32 timeElapsed = currTime - lastUpdateTime;\n        require(timeElapsed >= period, \"update() : the time elapsed is too short.\");\n\n\n        // query the lastest pricetime\n        (uint price0Cumulative, , ) = UniswapV2OracleLibrary.currentCumulativePrices(address(_pair));\n\n        // update the past-7-day pricetime array and record\n        uint32 indexNew = pricetimeOldestIndex;\n        uint32 indexOld = (indexNew + 1) % (FREQUENCY+1);\n        token0Pricetimes[indexNew].price0Cumulative = price0Cumulative;\n        token0Pricetimes[indexNew].timestamp = currTime;\n\n        // calculate the new moving average price of token0\n        uint timeElapsedMA =\n            uint(token0Pricetimes[indexNew].timestamp - token0Pricetimes[indexOld].timestamp); // notice: overflow is preferred\n        token0PriceMA = token0Pricetimes[indexNew].price0Cumulative\n                         .sub(token0Pricetimes[indexOld].price0Cumulative)\n                         .div(timeElapsedMA);\n\n        // update global status\n        lastUpdateTime = currTime;\n        pricetimeOldestIndex = indexOld;\n        emit Update(token0PriceMA, price0Cumulative);\n\n        USDsInflow[indexNew] = USDsInstance._totalMinted();\n        USDsOutflow[indexNew] = USDsInstance._totalBurnt();\n\n        uint USDsInflowOneDay = USDsInflow[indexNew].sub(USDsInflow[indexOld]);\n        uint USDsOutflowOneDay = USDsOutflow[indexNew].sub(USDsOutflow[indexOld]);\n        if (USDsInOutRatio == 0) {\n            USDsInOutRatio = USDsInOutRatioPrecision;\n        } else {\n            USDsInOutRatio = USDsOutflowOneDay.div(USDsInOutRatio);\n        }\n\n    }\n}\n",
  "sourcePath": "/Volumes/Work/Sperax/USDs/contracts/oracle/Oracle.sol",
  "compiler": {
    "name": "solc",
    "version": "0.6.12+commit.27d51765.Emscripten.clang"
  },
  "schemaVersion": "3.4.0",
  "updatedAt": "2021-07-23T14:27:22.621Z",
  "networkType": "ethereum",
  "devdoc": {
    "author": "Sperax Dev Team",
    "details": "this contract draws insights from \"ExampleOracleSimple.sol\" by UniswapV2 team",
    "kind": "dev",
    "methods": {
      "changePeriod(uint32)": {
        "details": "the frequency of update always remains the same",
        "params": {
          "newPeriod": "new minimal period in between two updates"
        }
      },
      "getPairAddr()": {
        "returns": {
          "_0": "the pair pool address"
        }
      },
      "owner()": {
        "details": "Returns the address of the current owner."
      },
      "renounceOwnership()": {
        "details": "Leaves the contract without owner. It will not be possible to call `onlyOwner` functions anymore. Can only be called by the current owner. NOTE: Renouncing ownership will leave the contract without an owner, thereby removing any functionality that is only available to the owner."
      },
      "transferOwnership(address)": {
        "details": "Transfers ownership of the contract to a new account (`newOwner`). Can only be called by the current owner."
      },
      "update()": {
        "details": "the price would be updated only once per period time"
      }
    },
    "title": "Oracle - the oracle contract for Spark",
    "version": 1
  },
  "userdoc": {
    "kind": "user",
    "methods": {
      "changePeriod(uint32)": {
        "notice": "change updating period"
      },
      "getPairAddr()": {
        "notice": "get the address of the token pair pool"
      },
      "update()": {
        "notice": "update the price of token0 to the latest"
      },
      "updatePriceList(address,address,uint256)": {
        "notice": "Update price list"
      }
    },
    "notice": "this contract gets data from UniswapV2 pair and feed these data into the main contact of Spark, i.e. Spark.sol",
    "version": 1
  }
}