{
  "contractName": "Oracle",
  "abi": [
    {
      "anonymous": false,
      "inputs": [
        {
          "indexed": true,
          "internalType": "address",
          "name": "previousOwner",
          "type": "address"
        },
        {
          "indexed": true,
          "internalType": "address",
          "name": "newOwner",
          "type": "address"
        }
      ],
      "name": "OwnershipTransferred",
      "type": "event"
    },
    {
      "anonymous": false,
      "inputs": [
        {
          "indexed": false,
          "internalType": "uint256",
          "name": "USDsInOutRatio",
          "type": "uint256"
        },
        {
          "indexed": false,
          "internalType": "uint256",
          "name": "USDsOnflow_average",
          "type": "uint256"
        },
        {
          "indexed": false,
          "internalType": "uint256",
          "name": "USDsInflow_average",
          "type": "uint256"
        },
        {
          "indexed": false,
          "internalType": "uint32",
          "name": "timeStamp",
          "type": "uint32"
        },
        {
          "indexed": false,
          "internalType": "uint256",
          "name": "index",
          "type": "uint256"
        }
      ],
      "name": "USDsInOutRatioUpdated",
      "type": "event"
    },
    {
      "anonymous": false,
      "inputs": [
        {
          "indexed": false,
          "internalType": "address",
          "name": "_collateralAddr",
          "type": "address"
        },
        {
          "indexed": false,
          "internalType": "bool",
          "name": "_supported",
          "type": "bool"
        },
        {
          "indexed": false,
          "internalType": "contract AggregatorV3Interface",
          "name": "_priceFeed",
          "type": "address"
        },
        {
          "indexed": false,
          "internalType": "uint256",
          "name": "_price_prec",
          "type": "uint256"
        }
      ],
      "name": "collateralInfoChanged",
      "type": "event"
    },
    {
      "anonymous": false,
      "inputs": [
        {
          "indexed": false,
          "internalType": "uint32",
          "name": "newPeriod",
          "type": "uint32"
        }
      ],
      "name": "updatePeriodChanged",
      "type": "event"
    },
    {
      "inputs": [],
      "name": "ETHprice_prec",
      "outputs": [
        {
          "internalType": "uint256",
          "name": "",
          "type": "uint256"
        }
      ],
      "stateMutability": "view",
      "type": "function"
    },
    {
      "inputs": [],
      "name": "FREQUENCY",
      "outputs": [
        {
          "internalType": "uint8",
          "name": "",
          "type": "uint8"
        }
      ],
      "stateMutability": "view",
      "type": "function"
    },
    {
      "inputs": [],
      "name": "SPAaddr",
      "outputs": [
        {
          "internalType": "address",
          "name": "",
          "type": "address"
        }
      ],
      "stateMutability": "view",
      "type": "function"
    },
    {
      "inputs": [],
      "name": "SPAoracleBaseTokenAddr",
      "outputs": [
        {
          "internalType": "address",
          "name": "",
          "type": "address"
        }
      ],
      "stateMutability": "view",
      "type": "function"
    },
    {
      "inputs": [],
      "name": "SPAoraclePool",
      "outputs": [
        {
          "internalType": "address",
          "name": "",
          "type": "address"
        }
      ],
      "stateMutability": "view",
      "type": "function"
    },
    {
      "inputs": [],
      "name": "SPAprice_prec",
      "outputs": [
        {
          "internalType": "uint256",
          "name": "",
          "type": "uint256"
        }
      ],
      "stateMutability": "view",
      "type": "function"
    },
    {
      "inputs": [],
      "name": "USDsInOutRatio",
      "outputs": [
        {
          "internalType": "uint256",
          "name": "",
          "type": "uint256"
        }
      ],
      "stateMutability": "view",
      "type": "function"
    },
    {
      "inputs": [],
      "name": "USDsInOutRatio_prec",
      "outputs": [
        {
          "internalType": "uint32",
          "name": "",
          "type": "uint32"
        }
      ],
      "stateMutability": "view",
      "type": "function"
    },
    {
      "inputs": [
        {
          "internalType": "uint256",
          "name": "",
          "type": "uint256"
        }
      ],
      "name": "USDsInflow",
      "outputs": [
        {
          "internalType": "uint256",
          "name": "",
          "type": "uint256"
        }
      ],
      "stateMutability": "view",
      "type": "function"
    },
    {
      "inputs": [
        {
          "internalType": "uint256",
          "name": "",
          "type": "uint256"
        }
      ],
      "name": "USDsOnflow",
      "outputs": [
        {
          "internalType": "uint256",
          "name": "",
          "type": "uint256"
        }
      ],
      "stateMutability": "view",
      "type": "function"
    },
    {
      "inputs": [],
      "name": "USDsOracleBaseTokenAddr",
      "outputs": [
        {
          "internalType": "address",
          "name": "",
          "type": "address"
        }
      ],
      "stateMutability": "view",
      "type": "function"
    },
    {
      "inputs": [],
      "name": "USDsOraclePool",
      "outputs": [
        {
          "internalType": "address",
          "name": "",
          "type": "address"
        }
      ],
      "stateMutability": "view",
      "type": "function"
    },
    {
      "inputs": [],
      "name": "USDsPrice_prec",
      "outputs": [
        {
          "internalType": "uint256",
          "name": "",
          "type": "uint256"
        }
      ],
      "stateMutability": "view",
      "type": "function"
    },
    {
      "inputs": [],
      "name": "VaultAddr",
      "outputs": [
        {
          "internalType": "address",
          "name": "",
          "type": "address"
        }
      ],
      "stateMutability": "view",
      "type": "function"
    },
    {
      "inputs": [],
      "name": "WETH9",
      "outputs": [
        {
          "internalType": "address",
          "name": "",
          "type": "address"
        }
      ],
      "stateMutability": "view",
      "type": "function"
    },
    {
      "inputs": [],
      "name": "lastUpdateTime",
      "outputs": [
        {
          "internalType": "uint32",
          "name": "",
          "type": "uint32"
        }
      ],
      "stateMutability": "view",
      "type": "function"
    },
    {
      "inputs": [],
      "name": "owner",
      "outputs": [
        {
          "internalType": "address",
          "name": "",
          "type": "address"
        }
      ],
      "stateMutability": "view",
      "type": "function"
    },
    {
      "inputs": [],
      "name": "renounceOwnership",
      "outputs": [],
      "stateMutability": "nonpayable",
      "type": "function"
    },
    {
      "inputs": [
        {
          "internalType": "address",
          "name": "newOwner",
          "type": "address"
        }
      ],
      "name": "transferOwnership",
      "outputs": [],
      "stateMutability": "nonpayable",
      "type": "function"
    },
    {
      "inputs": [],
      "name": "updateNextIndex",
      "outputs": [
        {
          "internalType": "uint32",
          "name": "",
          "type": "uint32"
        }
      ],
      "stateMutability": "view",
      "type": "function"
    },
    {
      "inputs": [],
      "name": "updatePeriod",
      "outputs": [
        {
          "internalType": "uint32",
          "name": "",
          "type": "uint32"
        }
      ],
      "stateMutability": "view",
      "type": "function"
    },
    {
      "inputs": [],
      "name": "initialize",
      "outputs": [],
      "stateMutability": "nonpayable",
      "type": "function"
    },
    {
      "inputs": [
        {
          "internalType": "address",
          "name": "_SPAoracleBaseTokenAddr",
          "type": "address"
        },
        {
          "internalType": "address",
          "name": "_USDsOracleBaseTokenAddr",
          "type": "address"
        },
        {
          "internalType": "address",
          "name": "_USDsOraclePool",
          "type": "address"
        },
        {
          "internalType": "address",
          "name": "_SPAoraclePool",
          "type": "address"
        }
      ],
      "name": "updateOraclePoolsAddress",
      "outputs": [],
      "stateMutability": "nonpayable",
      "type": "function"
    },
    {
      "inputs": [
        {
          "internalType": "address",
          "name": "_VaultAddr",
          "type": "address"
        }
      ],
      "name": "updateVaultAddress",
      "outputs": [],
      "stateMutability": "nonpayable",
      "type": "function"
    },
    {
      "inputs": [
        {
          "internalType": "uint32",
          "name": "newPeriod",
          "type": "uint32"
        }
      ],
      "name": "changePeriod",
      "outputs": [],
      "stateMutability": "nonpayable",
      "type": "function"
    },
    {
      "inputs": [
        {
          "internalType": "address",
          "name": "_collateralAddr",
          "type": "address"
        },
        {
          "internalType": "bool",
          "name": "_supported",
          "type": "bool"
        },
        {
          "internalType": "contract AggregatorV3Interface",
          "name": "_priceFeed",
          "type": "address"
        },
        {
          "internalType": "uint256",
          "name": "_price_prec",
          "type": "uint256"
        }
      ],
      "name": "updateCollateralInfo",
      "outputs": [],
      "stateMutability": "nonpayable",
      "type": "function"
    },
    {
      "inputs": [],
      "name": "updateInOutRatio",
      "outputs": [],
      "stateMutability": "nonpayable",
      "type": "function"
    },
    {
      "inputs": [
        {
          "internalType": "address",
          "name": "collateralAddr",
          "type": "address"
        }
      ],
      "name": "getCollateralPrice",
      "outputs": [
        {
          "internalType": "uint256",
          "name": "",
          "type": "uint256"
        }
      ],
      "stateMutability": "view",
      "type": "function"
    },
    {
      "inputs": [],
      "name": "getETHprice",
      "outputs": [
        {
          "internalType": "uint256",
          "name": "",
          "type": "uint256"
        }
      ],
      "stateMutability": "view",
      "type": "function"
    },
    {
      "inputs": [],
      "name": "getSPAprice",
      "outputs": [
        {
          "internalType": "uint256",
          "name": "",
          "type": "uint256"
        }
      ],
      "stateMutability": "view",
      "type": "function"
    },
    {
      "inputs": [],
      "name": "getUSDsPrice",
      "outputs": [
        {
          "internalType": "uint256",
          "name": "",
          "type": "uint256"
        }
      ],
      "stateMutability": "view",
      "type": "function"
    },
    {
      "inputs": [],
      "name": "getUSDsPrice_average",
      "outputs": [
        {
          "internalType": "uint256",
          "name": "",
          "type": "uint256"
        }
      ],
      "stateMutability": "view",
      "type": "function"
    },
    {
      "inputs": [
        {
          "internalType": "address",
          "name": "collateralAddr",
          "type": "address"
        }
      ],
      "name": "getCollateralPrice_prec",
      "outputs": [
        {
          "internalType": "uint256",
          "name": "",
          "type": "uint256"
        }
      ],
      "stateMutability": "view",
      "type": "function"
    },
    {
      "inputs": [],
      "name": "getETHprice_prec",
      "outputs": [
        {
          "internalType": "uint256",
          "name": "",
          "type": "uint256"
        }
      ],
      "stateMutability": "view",
      "type": "function"
    },
    {
      "inputs": [],
      "name": "getSPAprice_prec",
      "outputs": [
        {
          "internalType": "uint256",
          "name": "",
          "type": "uint256"
        }
      ],
      "stateMutability": "view",
      "type": "function"
    },
    {
      "inputs": [],
      "name": "getUSDsPrice_prec",
      "outputs": [
        {
          "internalType": "uint256",
          "name": "",
          "type": "uint256"
        }
      ],
      "stateMutability": "view",
      "type": "function"
    }
  ],
  "bytecode": "0x608060405234801561001057600080fd5b5061227c806100206000396000f3fe608060405234801561001057600080fd5b506004361061021c5760003560e01c80638da5cb5b11610125578063c8f33c91116100ad578063d32f21821161007c578063d32f21821461039d578063d37b5df014610247578063d79fd7a2146103b0578063f2fde38b146103b8578063f309eac2146103cb5761021c565b8063c8f33c9114610367578063cfb1528e1461036f578063d032803414610377578063d2de2f851461038a5761021c565b8063bdf4da6e116100f4578063bdf4da6e14610332578063c229d7501461033a578063c54149051461034f578063c7e524f714610357578063c8d3fe9a1461035f5761021c565b80638da5cb5b14610305578063a7e024981461030d578063a83627de14610315578063bcb083c11461032a5761021c565b80634d07640e116101a85780636c6f1865116101775780636c6f1865146102cf5780636f2a2b0f14610294578063715018a6146102e25780638129fc1c146102ea5780638d1a0709146102f25761021c565b80634d07640e146102a457806351a40994146102ac578063627dc9c1146102bf57806367f82edb146102c75761021c565b8063298cc9f1116101ef578063298cc9f1146102575780632c428e361461026c5780633f1532791461028157806341b2a0f1146102945780634aa4a4fc1461029c5761021c565b806306c102111461022157806308432eea1461023f5780630961d57b146102475780630b71f2161461024f575b600080fd5b6102296103d3565b6040516102369190612196565b60405180910390f35b6102296103e2565b61022961047f565b61022961048b565b61026a610265366004611cc6565b610491565b005b61027461053e565b6040516102369190611d3b565b61022961028f366004611b09565b61054d565b6102296105dc565b6102746105e8565b610229610600565b6102296102ba366004611b09565b610608565b610229610690565b610274610706565b6102296102dd366004611c96565b610715565b61026a610729565b61026a6107b2565b610229610300366004611c96565b6108ad565b6102746108ba565b6102746108c9565b61031d6108d8565b60405161023691906121cb565b6102746108eb565b610274610903565b610342610912565b60405161023691906121dc565b610229610917565b61031d610935565b610274610941565b61031d610950565b61031d610964565b61026a610385366004611b25565b61096b565b61026a610398366004611b09565b6109fa565b61026a6103ab366004611b80565b610a5b565b61026a610b36565b61026a6103c6366004611b09565b610ded565b610229610eae565b60006103dd610eb6565b905090565b60685460009081906103ff906001600160a01b0316610e10610f4a565b606754606b5491925060009161043191600285900b91670de0b6b3a7640000916001600160a01b0390811691166110e2565b606b5490915060009061047790610450906001600160a01b03166111d4565b606b5461047190859061046b906001600160a01b031661125d565b90611360565b906113a3565b935050505090565b670de0b6b3a764000081565b60655481565b6104996113d5565b6001600160a01b03166104aa6108ba565b6001600160a01b0316146104d95760405162461bcd60e51b81526004016104d090612070565b60405180910390fd5b6066805463ffffffff60401b1916600160401b63ffffffff848116820292909217928390556040517f8bcfc45b9c73e761c499d9fefd8609900ca8b0f464b3f250f2085d1acc5253e39361053393929004909116906121cb565b60405180910390a150565b606b546001600160a01b031681565b6000610557611a3f565b506001600160a01b038281166000908152609e6020908152604091829020825160808101845281548086168252600160a01b900460ff16151592810183905260018201549094169284019290925260029091015460608301526105cc5760405162461bcd60e51b81526004016104d090611ee0565b6105d5836111d4565b9392505050565b670de0b6b3a764000090565b73d0a1e359811322d97991e03f863a0c30c2cf029c81565b6305f5e10081565b6000610612611a3f565b506001600160a01b038281166000908152609e6020908152604091829020825160808101845281548086168252600160a01b900460ff16151592810183905260018201549094169284019290925260029091015460608301526106875760405162461bcd60e51b81526004016104d090611e09565b6105d58361125d565b60695460009081906106ad906001600160a01b0316610e10610f4a565b606a549091506000906106ee90600284900b90670de0b6b3a76400009073bb5e27ae27a6a7d092b181fbddac1a1004e9adff906001600160a01b03166110e2565b905060006104776305f5e1006104718461046b610eb6565b6068546001600160a01b031681565b606c816019811061072257fe5b0154905081565b6107316113d5565b6001600160a01b03166107426108ba565b6001600160a01b0316146107685760405162461bcd60e51b81526004016104d090612070565b6033546040516000916001600160a01b0316907f8be0079c531659141344cd1fd0a4f28419497f9722a3daafe3b4186f6b6457e0908390a3603380546001600160a01b0319169055565b600054610100900460ff16806107cb57506107cb6113d9565b806107d9575060005460ff16155b6107f55760405162461bcd60e51b81526004016104d090611f32565b600054610100900460ff16158015610820576000805460ff1961ff0019909116610100171660011790555b6108286113ea565b6066805463ffffffff60401b1916690e100000000000000000179055640100000000426066805467ffffffff0000000019166401000000009390920663ffffffff1692909202176bffffffffffffffffffffffff16739326bfa02add2366b30bacb125260af64103133160601b17905580156108aa576000805461ff00191690555b50565b6085816019811061072257fe5b6033546001600160a01b031690565b606a546001600160a01b031681565b606654600160401b900463ffffffff1681565b73bb5e27ae27a6a7d092b181fbddac1a1004e9adff81565b6069546001600160a01b031681565b601881565b60685460009081906103ff906001600160a01b031662015180610f4a565b60665463ffffffff1681565b6067546001600160a01b031681565b606654640100000000900463ffffffff1681565b620f424081565b6109736113d5565b6001600160a01b03166109846108ba565b6001600160a01b0316146109aa5760405162461bcd60e51b81526004016104d090612070565b606a80546001600160a01b039586166001600160a01b031991821617909155606b805494861694821694909417909355606880549285169284169290921790915560698054919093169116179055565b610a026113d5565b6001600160a01b0316610a136108ba565b6001600160a01b031614610a395760405162461bcd60e51b81526004016104d090612070565b606780546001600160a01b0319166001600160a01b0392909216919091179055565b610a636113d5565b6001600160a01b0316610a746108ba565b6001600160a01b031614610a9a5760405162461bcd60e51b81526004016104d090612070565b6001600160a01b038481166000818152609e60205260409081902080546001600160a01b031990811690931760ff60a01b1916600160a01b881515021781556001810180549093169386169390931790915560028201839055517f9ce8daa3b6ddb1b45182c5db00c581f637e2373a74e2d343d1c4999aaa5224f090610b27908790879087908790611d4f565b60405180910390a15050505050565b60665463ffffffff4281169164010000000090041680820390821015610b6e5760405162461bcd60e51b81526004016104d090611f80565b60665463ffffffff600160401b90910481169082161015610ba15760405162461bcd60e51b81526004016104d0906120f8565b6066546067546040805163736bf59160e01b8152905163ffffffff9384169360196001860190911606926001600160a01b03169163736bf591916004808301926020929190829003018186803b158015610bfa57600080fd5b505afa158015610c0e573d6000803e3d6000fd5b505050506040513d601f19601f82011682018060405250810190610c329190611cae565b606c8363ffffffff1660198110610c4557fe5b015560675460408051630abddbe760e01b815290516001600160a01b0390921691630abddbe791600480820192602092909190829003018186803b158015610c8c57600080fd5b505afa158015610ca0573d6000803e3d6000fd5b505050506040513d601f19601f82011682018060405250810190610cc49190611cae565b60858363ffffffff1660198110610cd757fe5b01556000610d0e606c63ffffffff841660198110610cf157fe5b0154606c8563ffffffff1660198110610d0657fe5b01549061147c565b90506000610d3d60858463ffffffff1660198110610d2857fe5b015460858663ffffffff1660198110610d0657fe5b905060655460001415610d5657620f4240606555610d6b565b610d678261047183620f4240611360565b6065555b6066805463ffffffff85811663ffffffff19828b1664010000000090810267ffffffff0000000019909516949094171617928390556065546040517fb5c9438f23a276e24f58b423b7b8322a09f4dcd8be672dc0ec2c5f16edf6844d94610ddd94929387938993920416908a9061219f565b60405180910390a1505050505050565b610df56113d5565b6001600160a01b0316610e066108ba565b6001600160a01b031614610e2c5760405162461bcd60e51b81526004016104d090612070565b6001600160a01b038116610e525760405162461bcd60e51b81526004016104d090611dc3565b6033546040516001600160a01b038084169216907f8be0079c531659141344cd1fd0a4f28419497f9722a3daafe3b4186f6b6457e090600090a3603380546001600160a01b0319166001600160a01b0392909216919091179055565b6305f5e10090565b6000806066600c9054906101000a90046001600160a01b03166001600160a01b031663feaf968c6040518163ffffffff1660e01b815260040160a06040518083038186803b158015610f0757600080fd5b505afa158015610f1b573d6000803e3d6000fd5b505050506040513d601f19601f82011682018060405250810190610f3f9190611cea565b509194505050505090565b600063ffffffff8216610f6f5760405162461bcd60e51b81526004016104d090611ec4565b60408051600280825260608083018452926020830190803683370190505090508281600081518110610f9d57fe5b602002602001019063ffffffff16908163ffffffff1681525050600081600181518110610fc657fe5b63ffffffff9092166020928302919091019091015260405163883bdbfd60e01b81526060906001600160a01b0386169063883bdbfd9061100a908590600401611d79565b60006040518083038186803b15801561102257600080fd5b505afa158015611036573d6000803e3d6000fd5b505050506040513d6000823e601f3d908101601f1916820160405261105e9190810190611bd4565b50905060008160008151811061107057fe5b60200260200101518260018151811061108557fe5b60200260200101510390508463ffffffff168160060b816110a257fe5b05935060008160060b1280156110cc57508463ffffffff168160060b816110c557fe5b0760060b15155b156110d957600019909301925b50505092915050565b6000806110ee866114a4565b90506001600160801b036001600160a01b0382161161115d576001600160a01b038082168002908481169086161061113d57611138600160c01b876001600160801b0316836117bd565b611155565b61115581876001600160801b0316600160c01b6117bd565b9250506111cb565b60006111776001600160a01b03831680600160401b6117bd565b9050836001600160a01b0316856001600160a01b0316106111af576111aa600160801b876001600160801b0316836117bd565b6111c7565b6111c781876001600160801b0316600160801b6117bd565b9250505b50949350505050565b60006111de611a3f565b506001600160a01b038281166000908152609e6020908152604091829020825160808101845281548086168252600160a01b900460ff16151592810183905260018201549094169284019290925260029091015460608301526112535760405162461bcd60e51b81526004016104d0906120a5565b6060015192915050565b6000611267611a3f565b506001600160a01b038281166000908152609e6020908152604091829020825160808101845281548086168252600160a01b900460ff16151592810183905260018201549094169284019290925260029091015460608301526112dc5760405162461bcd60e51b81526004016104d090612148565b600081604001516001600160a01b031663feaf968c6040518163ffffffff1660e01b815260040160a06040518083038186803b15801561131b57600080fd5b505afa15801561132f573d6000803e3d6000fd5b505050506040513d601f19601f820116820180604052508101906113539190611cea565b5091979650505050505050565b60008261136f5750600061139d565b8282028284828161137c57fe5b041461139a5760405162461bcd60e51b81526004016104d090611ff8565b90505b92915050565b60008082116113c45760405162461bcd60e51b81526004016104d090611e8d565b8183816113cd57fe5b049392505050565b3390565b60006113e430611841565b15905090565b600054610100900460ff168061140357506114036113d9565b80611411575060005460ff16155b61142d5760405162461bcd60e51b81526004016104d090611f32565b600054610100900460ff16158015611458576000805460ff1961ff0019909116610100171660011790555b611460611847565b6114686118c8565b80156108aa576000805461ff001916905550565b60008282111561149e5760405162461bcd60e51b81526004016104d090611e56565b50900390565b60008060008360020b126114bb578260020b6114c3565b8260020b6000035b9050620d89e88111156114e85760405162461bcd60e51b81526004016104d090611fdd565b6000600182166114fc57600160801b61150e565b6ffffcb933bd6fad37aa2d162d1a5940015b70ffffffffffffffffffffffffffffffffff1690506002821615611542576ffff97272373d413259a46990580e213a0260801c5b6004821615611561576ffff2e50f5f656932ef12357cf3c7fdcc0260801c5b6008821615611580576fffe5caca7e10e4e61c3624eaa0941cd00260801c5b601082161561159f576fffcb9843d60f6159c9db58835c9266440260801c5b60208216156115be576fff973b41fa98c081472e6896dfb254c00260801c5b60408216156115dd576fff2ea16466c96a3843ec78b326b528610260801c5b60808216156115fc576ffe5dee046a99a2a811c461f1969c30530260801c5b61010082161561161c576ffcbe86c7900a88aedcffc83b479aa3a40260801c5b61020082161561163c576ff987a7253ac413176f2b074cf7815e540260801c5b61040082161561165c576ff3392b0822b70005940c7a398e4b70f30260801c5b61080082161561167c576fe7159475a2c29b7443b29c7fa6e889d90260801c5b61100082161561169c576fd097f3bdfd2022b8845ad8f792aa58250260801c5b6120008216156116bc576fa9f746462d870fdf8a65dc1f90e061e50260801c5b6140008216156116dc576f70d869a156d2a1b890bb3df62baf32f70260801c5b6180008216156116fc576f31be135f97d08fd981231505542fcfa60260801c5b6201000082161561171d576f09aa508b5b7a84e1c677de54f3e99bc90260801c5b6202000082161561173d576e5d6af8dedb81196699c329225ee6040260801c5b6204000082161561175c576d2216e584f5fa1ea926041bedfe980260801c5b62080000821615611779576b048a170391f7dc42444e8fa20260801c5b60008460020b131561179457806000198161179057fe5b0490505b6401000000008106156117a85760016117ab565b60005b60ff16602082901c0192505050919050565b60008060006117cc86866119a2565b91509150600084806117da57fe5b8688099050828111156117ee576001820391505b91829003918161180c5784838161180157fe5b0493505050506105d5565b84821061182b5760405162461bcd60e51b81526004016104d090612039565b6118368383876119cf565b979650505050505050565b3b151590565b600054610100900460ff168061186057506118606113d9565b8061186e575060005460ff16155b61188a5760405162461bcd60e51b81526004016104d090611f32565b600054610100900460ff16158015611468576000805460ff1961ff00199091166101001716600117905580156108aa576000805461ff001916905550565b600054610100900460ff16806118e157506118e16113d9565b806118ef575060005460ff16155b61190b5760405162461bcd60e51b81526004016104d090611f32565b600054610100900460ff16158015611936576000805460ff1961ff0019909116610100171660011790555b60006119406113d5565b603380546001600160a01b0319166001600160a01b038316908117909155604051919250906000907f8be0079c531659141344cd1fd0a4f28419497f9722a3daafe3b4186f6b6457e0908290a35080156108aa576000805461ff001916905550565b60008080600019848609905083850292508281039150828110156119c7576001820391505b509250929050565b600081810382168083816119df57fe5b0492508085816119eb57fe5b0494508081600003816119fa57fe5b60028581038087028203028087028203028087028203028087028203028087028203028087028203029586029003909402930460010193909302939093010292915050565b60408051608081018252600080825260208201819052918101829052606081019190915290565b600082601f830112611a76578081fd5b8151611a89611a8482612211565b6121ea565b818152915060208083019084810181840286018201871015611aaa57600080fd5b60005b84811015611ad2578151611ac081612231565b84529282019290820190600101611aad565b505050505092915050565b8051600681900b811461139d57600080fd5b805169ffffffffffffffffffff8116811461139d57600080fd5b600060208284031215611b1a578081fd5b813561139a81612231565b60008060008060808587031215611b3a578283fd5b8435611b4581612231565b93506020850135611b5581612231565b92506040850135611b6581612231565b91506060850135611b7581612231565b939692955090935050565b60008060008060808587031215611b95578384fd5b8435611ba081612231565b935060208501358015158114611bb4578384fd5b92506040850135611bc481612231565b9396929550929360600135925050565b60008060408385031215611be6578182fd5b825167ffffffffffffffff80821115611bfd578384fd5b818501915085601f830112611c10578384fd5b8151611c1e611a8482612211565b80828252602080830192508086018a828387028901011115611c3e578889fd5b8896505b84871015611c6857611c548b82611add565b845260019690960195928101928101611c42565b508801519096509350505080821115611c7f578283fd5b50611c8c85828601611a66565b9150509250929050565b600060208284031215611ca7578081fd5b5035919050565b600060208284031215611cbf578081fd5b5051919050565b600060208284031215611cd7578081fd5b813563ffffffff8116811461139a578182fd5b600080600080600060a08688031215611d01578081fd5b611d0b8787611aef565b9450602086015193506040860151925060608601519150611d2f8760808801611aef565b90509295509295909350565b6001600160a01b0391909116815260200190565b6001600160a01b039485168152921515602084015292166040820152606081019190915260800190565b6020808252825182820181905260009190848201906040850190845b81811015611db757835163ffffffff1683529284019291840191600101611d95565b50909695505050505050565b60208082526026908201527f4f776e61626c653a206e6577206f776e657220697320746865207a65726f206160408201526564647265737360d01b606082015260800190565b6020808252602d908201527f676574436f6c6c61746572616c50726963653a20436f6c6c61746572616c206e60408201526c37ba1039bab83837b93a32b21760991b606082015260800190565b6020808252601e908201527f536166654d6174683a207375627472616374696f6e206f766572666c6f770000604082015260600190565b6020808252601a908201527f536166654d6174683a206469766973696f6e206279207a65726f000000000000604082015260600190565b602080825260029082015261042560f41b604082015260600190565b60208082526032908201527f676574436f6c6c61746572616c50726963655f707265633a20436f6c6c6174656040820152713930b6103737ba1039bab83837b93a32b21760711b606082015260800190565b6020808252602e908201527f496e697469616c697a61626c653a20636f6e747261637420697320616c72656160408201526d191e481a5b9a5d1a585b1a5e995960921b606082015260800190565b6020808252603a908201527f757064617465496e4f7574526174696f3b206572726f72206c6173742075706460408201527f6174652068617070656e656420696e2074686520667574757265000000000000606082015260800190565b6020808252600190820152601560fa1b604082015260600190565b60208082526021908201527f536166654d6174683a206d756c7469706c69636174696f6e206f766572666c6f6040820152607760f81b606082015260800190565b6020808252601a908201527f46756c6c4d6174683a2046554c4c4449565f4f564552464c4f57000000000000604082015260600190565b6020808252818101527f4f776e61626c653a2063616c6c6572206973206e6f7420746865206f776e6572604082015260600190565b60208082526033908201527f5f676574436f6c6c61746572616c50726963655f707265633a20436f6c6c617460408201527232b930b6103737ba1039bab83837b93a32b21760691b606082015260800190565b60208082526030908201527f757064617465496e4f7574526174696f3a207468652074696d6520656c61707360408201526f32b21034b9903a37b79039b437b93a1760811b606082015260800190565b6020808252602e908201527f5f676574436f6c6c61746572616c50726963653a20436f6c6c61746572616c2060408201526d3737ba1039bab83837b93a32b21760911b606082015260800190565b90815260200190565b9485526020850193909352604084019190915263ffffffff908116606084015216608082015260a00190565b63ffffffff91909116815260200190565b60ff91909116815260200190565b60405181810167ffffffffffffffff8111828210171561220957600080fd5b604052919050565b600067ffffffffffffffff821115612227578081fd5b5060209081020190565b6001600160a01b03811681146108aa57600080fdfea26469706673582212207a9b516f46e3ffcbca29e55d8005c2a493cab4843efc935de94c726e06e4ff0a64736f6c634300060c0033",
  "immutableReferences": {},
  "source": "\n// SPDX-License-Identifier: MIT\n// To-do: remove for testing purpose functions;\n// To-do: check USDsInOutRatio_prec;\npragma solidity ^0.6.12;\npragma experimental ABIEncoderV2; //What's this for?\n\n\nimport \"@openzeppelin/contracts-upgradeable/proxy/Initializable.sol\";\n//import \"@openzeppelin/contracts-upgradeable/access/OwnableUpgradeable.sol\";\n//import \"https://github.com/OpenZeppelin/openzeppelin-contracts-upgradeable/blob/v3.4.0/contracts/access/OwnableUpgradeable.sol\";\nimport \"../libraries/openzeppelin/OwnableUpgradeable.sol\";\nimport \"@openzeppelin/contracts-upgradeable/math/SafeMathUpgradeable.sol\";\n\nimport \"../vault/VaultCore.sol\";\nimport \"../interfaces/AggregatorV3Interface.sol\";\nimport \"../interfaces/IOracle.sol\";\nimport \"../interfaces/IUniswapV2Pair.sol\";\nimport \"../libraries/UniswapV2OracleLibrary.sol\";\nimport \"../libraries/OracleLibrary.sol\";\n\n/**\n * @title Oracle - the oracle contract for Spark\n * @author Sperax Dev Team\n * @notice this contract gets data from UniswapV2 pair and feed these data into the main contact of Spark, i.e. Spark.sol\n * @dev this contract draws insights from \"ExampleOracleSimple.sol\" by UniswapV2 team\n */\n\ncontract Oracle is Initializable, IOracle, OwnableUpgradeable {\n    using SafeMathUpgradeable for *;\n    using OracleLibrary for *;\n\n    uint public override USDsInOutRatio; // USDsInOutRatio is accurate after 24 hours (one iteration)\n    uint32 public constant override USDsInOutRatio_prec = 10**6;\n    uint8 public constant FREQUENCY = 24;\n    uint32 public updateNextIndex;\n    uint32 public lastUpdateTime; // the timstamp of the lastest update\n    uint32 public updatePeriod; // the default updatePeriod of one update is 1 hours\n    uint public constant ETHprice_prec = 10**8;\n    uint public constant SPAprice_prec = 10**18;\n    uint public constant USDsPrice_prec = 10**18;\n    AggregatorV3Interface priceFeedETH;\n    address public constant SPAaddr = address(0xbb5E27Ae27A6a7D092b181FbDdAc1A1004e9adff);\n    address public constant WETH9 = 0xd0A1E359811322d97991E03f863a0C30C2cF029C;\n    address public VaultAddr;\n    address public USDsOraclePool;\n    address public SPAoraclePool;\n    address public SPAoracleBaseTokenAddr;\n    address public USDsOracleBaseTokenAddr;\n\n    event USDsInOutRatioUpdated(\n        uint USDsInOutRatio,\n        uint USDsOnflow_average,\n        uint USDsInflow_average,\n        uint32 timeStamp,\n        uint index\n    );\n    event updatePeriodChanged(\n        uint32 newPeriod\n    );\n    event collateralInfoChanged(\n        address _collateralAddr,\n        bool _supported,\n        AggregatorV3Interface _priceFeed,\n        uint _price_prec\n    );\n\n    uint[FREQUENCY+1] public USDsInflow;\n    uint[FREQUENCY+1] public USDsOnflow;\n    mapping (address => collateralStruct) collateralsInfo;\n    struct collateralStruct {\n        address collateralAddr;\n        bool supported;\n        AggregatorV3Interface priceFeed;\n        uint price_prec;\n    }\n\n    //\n    // Initializer\n    //\n    function initialize() public initializer {\n        OwnableUpgradeable.__Ownable_init();\n        updatePeriod = 1 hours;\n        lastUpdateTime = uint32(now % 2**32);\n        priceFeedETH = AggregatorV3Interface(0x9326BFA02ADD2366b30bacB125260Af641031331);\n    }\n\n    function updateOraclePoolsAddress(address _SPAoracleBaseTokenAddr, address _USDsOracleBaseTokenAddr, address _USDsOraclePool, address _SPAoraclePool) external onlyOwner {\n        SPAoracleBaseTokenAddr = _SPAoracleBaseTokenAddr;\n        USDsOracleBaseTokenAddr = _USDsOracleBaseTokenAddr;\n        USDsOraclePool = _USDsOraclePool;\n        SPAoraclePool = _SPAoraclePool;\n    }\n\n    function updateVaultAddress(address _VaultAddr) external onlyOwner {\n        VaultAddr = _VaultAddr;\n    }\n\n    /**\n     * @notice change updatePeriod\n     * @dev the frequency of update always remains the same\n     * @param newPeriod new minimal updatePeriod in between two updates\n     */\n    function changePeriod(uint32 newPeriod) external onlyOwner {\n        updatePeriod = newPeriod;\n        emit updatePeriodChanged(updatePeriod);\n    }\n\n    function updateCollateralInfo(address _collateralAddr, bool _supported, AggregatorV3Interface _priceFeed, uint _price_prec) external onlyOwner {\n        collateralStruct storage updatedCollateral = collateralsInfo[_collateralAddr];\n        updatedCollateral.collateralAddr = _collateralAddr;\n        updatedCollateral.supported = _supported;\n        updatedCollateral.priceFeed = _priceFeed;\n        updatedCollateral.price_prec = _price_prec;\n        emit collateralInfoChanged(_collateralAddr, _supported, _priceFeed, _price_prec);\n    }\n\n    /**\n     * @notice update the price of token0 to the latest\n     * @dev the price would be updated only once per updatePeriod time\n     * @dev USDsInOutRatio is accurate after 24 hours (one iteration)\n     */\n    function updateInOutRatio() external override {\n        uint32 currTime = uint32(now % 2 ** 32);\n        uint32 timeElapsed = currTime - lastUpdateTime;\n        require(currTime >= lastUpdateTime, \"updateInOutRatio; error last update happened in the future\");\n        require(timeElapsed >= updatePeriod, \"updateInOutRatio: the time elapsed is too short.\");\n        uint32 indexNew = updateNextIndex;\n        uint32 indexOld = (indexNew + 1) % (FREQUENCY + 1);\n        USDsInflow[indexNew] = USDs(VaultAddr)._totalMinted();\n        USDsOnflow[indexNew] = USDs(VaultAddr)._totalBurnt();\n        uint USDsInflow_average = USDsInflow[indexNew].sub(USDsInflow[indexOld]);\n        uint USDsOnflow_average = USDsOnflow[indexNew].sub(USDsOnflow[indexOld]);\n        if (USDsInOutRatio == 0) {\n            USDsInOutRatio = USDsInOutRatio_prec;\n        } else {\n            USDsInOutRatio = USDsOnflow_average.mul(USDsInOutRatio_prec).div(USDsInflow_average);\n        }\n        lastUpdateTime = currTime;\n        updateNextIndex = indexOld;\n        emit USDsInOutRatioUpdated(USDsInOutRatio, USDsOnflow_average, USDsInflow_average, lastUpdateTime, indexNew);\n    }\n\n    function getCollateralPrice(address collateralAddr) external view override returns (uint) {\n        collateralStruct memory  collateralInfo = collateralsInfo[collateralAddr];\n        require(collateralInfo.supported, \"getCollateralPrice: Collateral not supported.\");\n        return _getCollateralPrice(collateralAddr);\n    }\n\n    function getETHprice() external view override returns (uint) {\n        return _getETHprice();\n\t}\n\n    function getSPAprice() external view override returns (uint) {\n        int24 timeWeightedAverageTick = SPAoraclePool.consult(3600);\n        uint quoteAmount = timeWeightedAverageTick.getQuoteAtTick(uint128(SPAprice_prec), SPAaddr, SPAoracleBaseTokenAddr);\n        uint SPAprice = _getETHprice().mul(quoteAmount).div(ETHprice_prec);\n        return SPAprice;\n    }\n\n    function getUSDsPrice() external view override returns (uint) {\n        int24 timeWeightedAverageTick = USDsOraclePool.consult(3600);\n        uint quoteAmount = timeWeightedAverageTick.getQuoteAtTick(uint128(USDsPrice_prec), VaultAddr, USDsOracleBaseTokenAddr);\n        uint USDsPrice = _getCollateralPrice(USDsOracleBaseTokenAddr).mul(quoteAmount).div(_getCollateralPrice_prec(USDsOracleBaseTokenAddr));\n        return USDsPrice;\n    }\n\n    function getUSDsPrice_average() external view override returns (uint) {\n        int24 timeWeightedAverageTick = USDsOraclePool.consult(86400);\n        uint quoteAmount = timeWeightedAverageTick.getQuoteAtTick(uint128(USDsPrice_prec), VaultAddr, USDsOracleBaseTokenAddr);\n        uint USDsPrice_average = _getCollateralPrice(USDsOracleBaseTokenAddr).mul(quoteAmount).div(_getCollateralPrice_prec(USDsOracleBaseTokenAddr));\n        return USDsPrice_average;\n    }\n    function getCollateralPrice_prec(address collateralAddr) external view override returns (uint) {\n        collateralStruct memory  collateralInfo = collateralsInfo[collateralAddr];\n        require(collateralInfo.supported, \"getCollateralPrice_prec: Collateral not supported.\");\n        return _getCollateralPrice_prec(collateralAddr);\n    }\n\n    function getETHprice_prec() external view override returns (uint) {\n        return ETHprice_prec;\n    }\n\n    function getSPAprice_prec() external view override returns (uint) {\n        return SPAprice_prec;\n    }\n\n    function getUSDsPrice_prec() external view override returns (uint) {\n        return USDsPrice_prec;\n    }\n\n    function _getCollateralPrice(address collateralAddr) internal view returns (uint) {\n        collateralStruct memory  collateralInfo = collateralsInfo[collateralAddr];\n        require(collateralInfo.supported, \"_getCollateralPrice: Collateral not supported.\");\n        (\n            ,\n            int price,\n            ,\n            ,\n        ) = collateralInfo.priceFeed.latestRoundData();\n        return uint(price);\n    }\n\n\n\tfunction _getETHprice() internal view returns (uint) {\n\t\t(\n            ,\n            int price,\n            ,\n            ,\n\t\t) = priceFeedETH.latestRoundData();\n\t\treturn uint(price);\n\t}\n\n    function _getCollateralPrice_prec(address collateralAddr) internal view returns (uint) {\n        collateralStruct memory  collateralInfo = collateralsInfo[collateralAddr];\n        require(collateralInfo.supported, \"_getCollateralPrice_prec: Collateral not supported.\");\n        return collateralInfo.price_prec;\n\t}\n\n\n}\n",
  "sourcePath": "/Volumes/Work/Sperax/USDs/contracts/oracle/Oracle.sol",
  "compiler": {
    "name": "solc",
    "version": "0.6.12+commit.27d51765.Emscripten.clang"
  },
  "schemaVersion": "3.4.0",
  "updatedAt": "2021-10-15T19:21:18.034Z",
  "devdoc": {
    "author": "Sperax Dev Team",
    "details": "this contract draws insights from \"ExampleOracleSimple.sol\" by UniswapV2 team",
    "kind": "dev",
    "methods": {
      "changePeriod(uint32)": {
        "details": "the frequency of update always remains the same",
        "params": {
          "newPeriod": "new minimal updatePeriod in between two updates"
        }
      },
      "owner()": {
        "details": "Returns the address of the current owner."
      },
      "renounceOwnership()": {
        "details": "Leaves the contract without owner. It will not be possible to call `onlyOwner` functions anymore. Can only be called by the current owner. NOTE: Renouncing ownership will leave the contract without an owner, thereby removing any functionality that is only available to the owner."
      },
      "transferOwnership(address)": {
        "details": "Transfers ownership of the contract to a new account (`newOwner`). Can only be called by the current owner."
      },
      "updateInOutRatio()": {
        "details": "the price would be updated only once per updatePeriod timeUSDsInOutRatio is accurate after 24 hours (one iteration)"
      }
    },
    "title": "Oracle - the oracle contract for Spark",
    "version": 1
  },
  "userdoc": {
    "kind": "user",
    "methods": {
      "changePeriod(uint32)": {
        "notice": "change updatePeriod"
      },
      "updateInOutRatio()": {
        "notice": "update the price of token0 to the latest"
      }
    },
    "notice": "this contract gets data from UniswapV2 pair and feed these data into the main contact of Spark, i.e. Spark.sol",
    "version": 1
  }
}