{
  "abi": [
    {
      "anonymous": false,
      "inputs": [
        {
          "indexed": true,
          "internalType": "address",
          "name": "previousOwner",
          "type": "address"
        },
        {
          "indexed": true,
          "internalType": "address",
          "name": "newOwner",
          "type": "address"
        }
      ],
      "name": "OwnershipTransferred",
      "type": "event"
    },
    {
      "anonymous": false,
      "inputs": [
        {
          "indexed": false,
          "internalType": "uint256",
          "name": "USDsInOutRatio",
          "type": "uint256"
        },
        {
          "indexed": false,
          "internalType": "uint256",
          "name": "USDsOnflow_average",
          "type": "uint256"
        },
        {
          "indexed": false,
          "internalType": "uint256",
          "name": "USDsInflow_average",
          "type": "uint256"
        },
        {
          "indexed": false,
          "internalType": "uint32",
          "name": "timeStamp",
          "type": "uint32"
        },
        {
          "indexed": false,
          "internalType": "uint256",
          "name": "index",
          "type": "uint256"
        }
      ],
      "name": "USDsInOutRatioUpdated",
      "type": "event"
    },
    {
      "anonymous": false,
      "inputs": [
        {
          "indexed": false,
          "internalType": "address",
          "name": "_collateralAddr",
          "type": "address"
        },
        {
          "indexed": false,
          "internalType": "bool",
          "name": "_supported",
          "type": "bool"
        },
        {
          "indexed": false,
          "internalType": "contract AggregatorV3Interface",
          "name": "_priceFeed",
          "type": "address"
        },
        {
          "indexed": false,
          "internalType": "uint256",
          "name": "_price_prec",
          "type": "uint256"
        }
      ],
      "name": "collateralInfoChanged",
      "type": "event"
    },
    {
      "anonymous": false,
      "inputs": [
        {
          "indexed": false,
          "internalType": "uint32",
          "name": "updatePeriod",
          "type": "uint32"
        },
        {
          "indexed": false,
          "internalType": "uint32",
          "name": "movingAvgShortPeriod",
          "type": "uint32"
        },
        {
          "indexed": false,
          "internalType": "uint32",
          "name": "movingAvgLongPeriod",
          "type": "uint32"
        }
      ],
      "name": "periodChanged",
      "type": "event"
    },
    {
      "inputs": [],
      "name": "ETHprice_prec",
      "outputs": [
        {
          "internalType": "uint256",
          "name": "",
          "type": "uint256"
        }
      ],
      "stateMutability": "view",
      "type": "function"
    },
    {
      "inputs": [],
      "name": "FREQUENCY",
      "outputs": [
        {
          "internalType": "uint8",
          "name": "",
          "type": "uint8"
        }
      ],
      "stateMutability": "view",
      "type": "function"
    },
    {
      "inputs": [],
      "name": "SPAaddr",
      "outputs": [
        {
          "internalType": "address",
          "name": "",
          "type": "address"
        }
      ],
      "stateMutability": "view",
      "type": "function"
    },
    {
      "inputs": [],
      "name": "SPAoracleBaseTokenAddr",
      "outputs": [
        {
          "internalType": "address",
          "name": "",
          "type": "address"
        }
      ],
      "stateMutability": "view",
      "type": "function"
    },
    {
      "inputs": [],
      "name": "SPAoraclePool",
      "outputs": [
        {
          "internalType": "address",
          "name": "",
          "type": "address"
        }
      ],
      "stateMutability": "view",
      "type": "function"
    },
    {
      "inputs": [],
      "name": "SPAprice_prec",
      "outputs": [
        {
          "internalType": "uint256",
          "name": "",
          "type": "uint256"
        }
      ],
      "stateMutability": "view",
      "type": "function"
    },
    {
      "inputs": [],
      "name": "USDsAddr",
      "outputs": [
        {
          "internalType": "address",
          "name": "",
          "type": "address"
        }
      ],
      "stateMutability": "view",
      "type": "function"
    },
    {
      "inputs": [],
      "name": "USDsInOutRatio",
      "outputs": [
        {
          "internalType": "uint256",
          "name": "",
          "type": "uint256"
        }
      ],
      "stateMutability": "view",
      "type": "function"
    },
    {
      "inputs": [],
      "name": "USDsInOutRatio_prec",
      "outputs": [
        {
          "internalType": "uint32",
          "name": "",
          "type": "uint32"
        }
      ],
      "stateMutability": "view",
      "type": "function"
    },
    {
      "inputs": [
        {
          "internalType": "uint256",
          "name": "",
          "type": "uint256"
        }
      ],
      "name": "USDsInflow",
      "outputs": [
        {
          "internalType": "uint256",
          "name": "",
          "type": "uint256"
        }
      ],
      "stateMutability": "view",
      "type": "function"
    },
    {
      "inputs": [
        {
          "internalType": "uint256",
          "name": "",
          "type": "uint256"
        }
      ],
      "name": "USDsOnflow",
      "outputs": [
        {
          "internalType": "uint256",
          "name": "",
          "type": "uint256"
        }
      ],
      "stateMutability": "view",
      "type": "function"
    },
    {
      "inputs": [],
      "name": "USDsOracleBaseTokenAddr",
      "outputs": [
        {
          "internalType": "address",
          "name": "",
          "type": "address"
        }
      ],
      "stateMutability": "view",
      "type": "function"
    },
    {
      "inputs": [],
      "name": "USDsOraclePool",
      "outputs": [
        {
          "internalType": "address",
          "name": "",
          "type": "address"
        }
      ],
      "stateMutability": "view",
      "type": "function"
    },
    {
      "inputs": [],
      "name": "USDsPrice_prec",
      "outputs": [
        {
          "internalType": "uint256",
          "name": "",
          "type": "uint256"
        }
      ],
      "stateMutability": "view",
      "type": "function"
    },
    {
      "inputs": [],
      "name": "VaultAddr",
      "outputs": [
        {
          "internalType": "address",
          "name": "",
          "type": "address"
        }
      ],
      "stateMutability": "view",
      "type": "function"
    },
    {
      "inputs": [],
      "name": "WETH",
      "outputs": [
        {
          "internalType": "address",
          "name": "",
          "type": "address"
        }
      ],
      "stateMutability": "view",
      "type": "function"
    },
    {
      "inputs": [
        {
          "internalType": "uint32",
          "name": "_updatePeriod",
          "type": "uint32"
        },
        {
          "internalType": "uint32",
          "name": "_movingAvgShortPeriod",
          "type": "uint32"
        },
        {
          "internalType": "uint32",
          "name": "_movingAvgLongPeriod",
          "type": "uint32"
        }
      ],
      "name": "changePeriod",
      "outputs": [],
      "stateMutability": "nonpayable",
      "type": "function"
    },
    {
      "inputs": [
        {
          "internalType": "address",
          "name": "collateralAddr",
          "type": "address"
        }
      ],
      "name": "getCollateralPrice",
      "outputs": [
        {
          "internalType": "uint256",
          "name": "",
          "type": "uint256"
        }
      ],
      "stateMutability": "view",
      "type": "function"
    },
    {
      "inputs": [
        {
          "internalType": "address",
          "name": "collateralAddr",
          "type": "address"
        }
      ],
      "name": "getCollateralPrice_prec",
      "outputs": [
        {
          "internalType": "uint256",
          "name": "",
          "type": "uint256"
        }
      ],
      "stateMutability": "view",
      "type": "function"
    },
    {
      "inputs": [],
      "name": "getETHprice",
      "outputs": [
        {
          "internalType": "uint256",
          "name": "",
          "type": "uint256"
        }
      ],
      "stateMutability": "view",
      "type": "function"
    },
    {
      "inputs": [],
      "name": "getETHprice_prec",
      "outputs": [
        {
          "internalType": "uint256",
          "name": "",
          "type": "uint256"
        }
      ],
      "stateMutability": "view",
      "type": "function"
    },
    {
      "inputs": [],
      "name": "getSPAprice",
      "outputs": [
        {
          "internalType": "uint256",
          "name": "",
          "type": "uint256"
        }
      ],
      "stateMutability": "view",
      "type": "function"
    },
    {
      "inputs": [],
      "name": "getSPAprice_prec",
      "outputs": [
        {
          "internalType": "uint256",
          "name": "",
          "type": "uint256"
        }
      ],
      "stateMutability": "view",
      "type": "function"
    },
    {
      "inputs": [],
      "name": "getUSDsPrice",
      "outputs": [
        {
          "internalType": "uint256",
          "name": "",
          "type": "uint256"
        }
      ],
      "stateMutability": "view",
      "type": "function"
    },
    {
      "inputs": [],
      "name": "getUSDsPrice_average",
      "outputs": [
        {
          "internalType": "uint256",
          "name": "",
          "type": "uint256"
        }
      ],
      "stateMutability": "view",
      "type": "function"
    },
    {
      "inputs": [],
      "name": "getUSDsPrice_prec",
      "outputs": [
        {
          "internalType": "uint256",
          "name": "",
          "type": "uint256"
        }
      ],
      "stateMutability": "view",
      "type": "function"
    },
    {
      "inputs": [
        {
          "internalType": "address",
          "name": "_priceFeedETH",
          "type": "address"
        },
        {
          "internalType": "address",
          "name": "_SPAaddr",
          "type": "address"
        },
        {
          "internalType": "address",
          "name": "_WETH",
          "type": "address"
        }
      ],
      "name": "initialize",
      "outputs": [],
      "stateMutability": "nonpayable",
      "type": "function"
    },
    {
      "inputs": [],
      "name": "lastUpdateTime",
      "outputs": [
        {
          "internalType": "uint32",
          "name": "",
          "type": "uint32"
        }
      ],
      "stateMutability": "view",
      "type": "function"
    },
    {
      "inputs": [],
      "name": "movingAvgLongPeriod",
      "outputs": [
        {
          "internalType": "uint32",
          "name": "",
          "type": "uint32"
        }
      ],
      "stateMutability": "view",
      "type": "function"
    },
    {
      "inputs": [],
      "name": "movingAvgShortPeriod",
      "outputs": [
        {
          "internalType": "uint32",
          "name": "",
          "type": "uint32"
        }
      ],
      "stateMutability": "view",
      "type": "function"
    },
    {
      "inputs": [],
      "name": "owner",
      "outputs": [
        {
          "internalType": "address",
          "name": "",
          "type": "address"
        }
      ],
      "stateMutability": "view",
      "type": "function"
    },
    {
      "inputs": [],
      "name": "renounceOwnership",
      "outputs": [],
      "stateMutability": "nonpayable",
      "type": "function"
    },
    {
      "inputs": [
        {
          "internalType": "address",
          "name": "newOwner",
          "type": "address"
        }
      ],
      "name": "transferOwnership",
      "outputs": [],
      "stateMutability": "nonpayable",
      "type": "function"
    },
    {
      "inputs": [
        {
          "internalType": "address",
          "name": "_collateralAddr",
          "type": "address"
        },
        {
          "internalType": "bool",
          "name": "_supported",
          "type": "bool"
        },
        {
          "internalType": "contract AggregatorV3Interface",
          "name": "_priceFeed",
          "type": "address"
        },
        {
          "internalType": "uint256",
          "name": "_price_prec",
          "type": "uint256"
        }
      ],
      "name": "updateCollateralInfo",
      "outputs": [],
      "stateMutability": "nonpayable",
      "type": "function"
    },
    {
      "inputs": [],
      "name": "updateInOutRatio",
      "outputs": [],
      "stateMutability": "nonpayable",
      "type": "function"
    },
    {
      "inputs": [],
      "name": "updateNextIndex",
      "outputs": [
        {
          "internalType": "uint32",
          "name": "",
          "type": "uint32"
        }
      ],
      "stateMutability": "view",
      "type": "function"
    },
    {
      "inputs": [
        {
          "internalType": "address",
          "name": "_SPAoracleBaseTokenAddr",
          "type": "address"
        },
        {
          "internalType": "address",
          "name": "_USDsOracleBaseTokenAddr",
          "type": "address"
        },
        {
          "internalType": "address",
          "name": "_USDsOraclePool",
          "type": "address"
        },
        {
          "internalType": "address",
          "name": "_SPAoraclePool",
          "type": "address"
        }
      ],
      "name": "updateOraclePoolsAddress",
      "outputs": [],
      "stateMutability": "nonpayable",
      "type": "function"
    },
    {
      "inputs": [],
      "name": "updatePeriod",
      "outputs": [
        {
          "internalType": "uint32",
          "name": "",
          "type": "uint32"
        }
      ],
      "stateMutability": "view",
      "type": "function"
    },
    {
      "inputs": [
        {
          "internalType": "address",
          "name": "_USDsAddr",
          "type": "address"
        }
      ],
      "name": "updateUSDsAddress",
      "outputs": [],
      "stateMutability": "nonpayable",
      "type": "function"
    },
    {
      "inputs": [
        {
          "internalType": "address",
          "name": "_VaultAddr",
          "type": "address"
        }
      ],
      "name": "updateVaultAddress",
      "outputs": [],
      "stateMutability": "nonpayable",
      "type": "function"
    }
  ],
  "bytecode": "608060405234801561001057600080fd5b5061262f806100206000396000f3fe608060405234801561001057600080fd5b50600436106102485760003560e01c8063a83627de1161013b578063c8f33c91116100b8578063d37b5df01161007c578063d37b5df01461026f578063d79fd7a2146104f8578063f2fde38b14610500578063f309eac214610526578063f43693aa1461052e57610248565b8063c8f33c9114610448578063cfb1528e14610450578063d032803414610458578063d2de2f8514610496578063d32f2182146104bc57610248565b8063c229d750116100ff578063c229d750146103ec578063c54149051461040a578063c6d15e1b14610412578063c7e524f714610438578063c8d3fe9a1461044057610248565b8063a83627de14610394578063ad5c46481461039c578063bcb083c1146103a4578063bdf4da6e146103ac578063c0c53b8b146103b457610248565b80635953e197116101c9578063715018a61161018d578063715018a614610355578063820b35c51461035f5780638d1a0709146103675780638da5cb5b14610384578063a7e024981461038c57610248565b80635953e19714610320578063627dc9c11461032857806367f82edb146103305780636c6f1865146103385780636f2a2b0f146102ea57610248565b80632c428e36116102105780632c428e36146102a05780633f153279146102c457806341b2a0f1146102ea5780634d07640e146102f257806351a40994146102fa57610248565b806306c102111461024d57806308432eea146102675780630961d57b1461026f5780630b71f216146102775780632b2913d61461027f575b600080fd5b610255610563565b60408051918252519081900360200190f35b610255610573565b61025561067d565b610255610689565b61028761068f565b6040805163ffffffff9092168252519081900360200190f35b6102a86106a2565b604080516001600160a01b039092168252519081900360200190f35b610255600480360360208110156102da57600080fd5b50356001600160a01b03166106b1565b61025561075f565b61025561076b565b6102556004803603602081101561031057600080fd5b50356001600160a01b0316610773565b6102a861081a565b610255610829565b6102a86108db565b6102556004803603602081101561034e57600080fd5b50356108ea565b61035d6108fe565b005b6102876109aa565b6102556004803603602081101561037d57600080fd5b50356109bd565b6102a86109ca565b6102a86109d9565b6102876109e8565b6102a86109fb565b6102a8610a0a565b6102a8610a19565b61035d600480360360608110156103ca57600080fd5b506001600160a01b038135811691602081013582169160409091013516610a28565b6103f4610b7a565b6040805160ff9092168252519081900360200190f35b610255610b7f565b61035d6004803603602081101561042857600080fd5b50356001600160a01b0316610c0a565b610287610c8e565b6102a8610c9a565b610287610ca9565b610287610cbc565b61035d6004803603608081101561046e57600080fd5b506001600160a01b038135811691602081013582169160408201358116916060013516610cc3565b61035d600480360360208110156104ac57600080fd5b50356001600160a01b0316610d75565b61035d600480360360808110156104d257600080fd5b506001600160a01b03813581169160208101351515916040820135169060600135610df9565b61035d610f01565b61035d6004803603602081101561051657600080fd5b50356001600160a01b03166111ee565b6102556112f1565b61035d6004803603606081101561054457600080fd5b5063ffffffff81358116916020810135821691604090910135166112f9565b600061056d611401565b90505b90565b606c546000906001600160a01b03166105955750670de0b6b3a7640000610570565b606c546000906105ad906001600160a01b0316611487565b60665490915060009063ffffffff808416600160601b90920416106105d257816105e3565b606654600160601b900463ffffffff165b606c549091506000906105ff906001600160a01b031683611656565b606a54606f5491925060009161062d918491670de0b6b3a7640000916001600160a01b039081169116611952565b606f549091506000906106739061064c906001600160a01b0316611a44565b606f5461066d908590610667906001600160a01b0316611aec565b90611c00565b90611c62565b9550505050505090565b670de0b6b3a764000081565b60655481565b606654600160801b900463ffffffff1681565b606f546001600160a01b031681565b60006106bb612413565b506001600160a01b038281166000908152607e6020908152604091829020825160808101845281548086168252600160a01b900460ff161515928101839052600182015490941692840192909252600290910154606083015261074f5760405162461bcd60e51b815260040180806020018281038252603281526020018061248e6032913960400191505060405180910390fd5b61075883611a44565b9392505050565b670de0b6b3a764000090565b6305f5e10081565b600061077d612413565b506001600160a01b038281166000908152607e6020908152604091829020825160808101845281548086168252600160a01b900460ff16151592810183905260018201549094169284019290925260029091015460608301526108115760405162461bcd60e51b815260040180806020018281038252602d815260200180612461602d913960400191505060405180910390fd5b61075883611aec565b606b546001600160a01b031681565b606d546000908190610843906001600160a01b0316611487565b60665490915060009063ffffffff808416600160601b90920416106108685781610879565b606654600160601b900463ffffffff165b606d54909150600090610895906001600160a01b031683611656565b606854606e549192506000916108c3918491670de0b6b3a7640000916001600160a01b039081169116611952565b905060006106736305f5e10061066d84610667611401565b606c546001600160a01b031681565b607081600781106108f757fe5b0154905081565b610906611cc9565b6001600160a01b03166109176109ca565b6001600160a01b031614610960576040805162461bcd60e51b81526020600482018190526024820152600080516020612549833981519152604482015290519081900360640190fd5b6033546040516000916001600160a01b0316907f8be0079c531659141344cd1fd0a4f28419497f9722a3daafe3b4186f6b6457e0908390a3603380546001600160a01b0319169055565b606654600160601b900463ffffffff1681565b607781600781106108f757fe5b6033546001600160a01b031690565b606e546001600160a01b031681565b606654600160401b900463ffffffff1681565b6069546001600160a01b031681565b6068546001600160a01b031681565b606d546001600160a01b031681565b600054610100900460ff1680610a415750610a41611ccd565b80610a4f575060005460ff16155b610a8a5760405162461bcd60e51b815260040180806020018281038252602e8152602001806124c0602e913960400191505060405180910390fd5b600054610100900460ff16158015610ab5576000805460ff1961ff0019909116610100171660011790555b610abd611cde565b6066805463ffffffff60401b191669a8c00000000000000000179055600160201b4260668054606780546001600160a01b03199081166001600160a01b038b8116919091179092556068805482168a84161790556069805490911691881691909117905567ffffffff000000001916600160201b9390920663ffffffff16929092021763ffffffff60601b1916604b60631b1763ffffffff60801b191660e160841b1790558015610b74576000805461ff00191690555b50505050565b600681565b606c546000906001600160a01b0316610ba15750670de0b6b3a7640000610570565b606c54600090610bb9906001600160a01b0316611487565b60665490915060009063ffffffff808416600160801b9092041610610bde57816105e3565b50606654606c54600160801b90910463ffffffff16906000906105ff906001600160a01b031683611656565b610c12611cc9565b6001600160a01b0316610c236109ca565b6001600160a01b031614610c6c576040805162461bcd60e51b81526020600482018190526024820152600080516020612549833981519152604482015290519081900360640190fd5b606b80546001600160a01b0319166001600160a01b0392909216919091179055565b60665463ffffffff1681565b606a546001600160a01b031681565b606654600160201b900463ffffffff1681565b620f424081565b610ccb611cc9565b6001600160a01b0316610cdc6109ca565b6001600160a01b031614610d25576040805162461bcd60e51b81526020600482018190526024820152600080516020612549833981519152604482015290519081900360640190fd5b606e80546001600160a01b039586166001600160a01b031991821617909155606f805494861694821694909417909355606c805492851692841692909217909155606d8054919093169116179055565b610d7d611cc9565b6001600160a01b0316610d8e6109ca565b6001600160a01b031614610dd7576040805162461bcd60e51b81526020600482018190526024820152600080516020612549833981519152604482015290519081900360640190fd5b606a80546001600160a01b0319166001600160a01b0392909216919091179055565b610e01611cc9565b6001600160a01b0316610e126109ca565b6001600160a01b031614610e5b576040805162461bcd60e51b81526020600482018190526024820152600080516020612549833981519152604482015290519081900360640190fd5b6001600160a01b038085166000818152607e60209081526040918290208054881515600160a01b810260ff60a01b196001600160a01b0319938416881716178355600183018054978a16979092168717909155600282018790558351948552918401919091528282019390935260608201849052517f9ce8daa3b6ddb1b45182c5db00c581f637e2373a74e2d343d1c4999aaa5224f09181900360800190a15050505050565b60665463ffffffff42811691600160201b90041680820390821015610f575760405162461bcd60e51b815260040180806020018281038252603a8152602001806124ee603a913960400191505060405180910390fd5b60665463ffffffff600160401b90910481169082161015610fa95760405162461bcd60e51b815260040180806020018281038252603081526020018061259c6030913960400191505060405180910390fd5b606654606b546040805163144613ff60e31b8152905163ffffffff9384169360076001860190911606926001600160a01b03169163a2309ff89160048083019260209291908290030181600087803b15801561100457600080fd5b505af1158015611018573d6000803e3d6000fd5b505050506040513d602081101561102e57600080fd5b5051607063ffffffff84166007811061104357fe5b0155606b5460408051630966ff6560e41b815290516001600160a01b039092169163966ff650916004808201926020929091908290030181600087803b15801561108c57600080fd5b505af11580156110a0573d6000803e3d6000fd5b505050506040513d60208110156110b657600080fd5b5051607763ffffffff8416600781106110cb57fe5b01556000611102607063ffffffff8416600781106110e557fe5b015460708563ffffffff16600781106110fa57fe5b015490611d90565b9050600061113160778463ffffffff166007811061111c57fe5b015460778663ffffffff16600781106110fa57fe5b90506065546000141561114a57620f424060655561115f565b61115b8261066d83620f4240611c00565b6065555b6066805467ffffffff000000001916600160201b63ffffffff89811682029290921763ffffffff19168683161792839055606554604080519182526020820186905281810187905291909304821660608401529086166080830152517fb5c9438f23a276e24f58b423b7b8322a09f4dcd8be672dc0ec2c5f16edf6844d9160a0908290030190a1505050505050565b6111f6611cc9565b6001600160a01b03166112076109ca565b6001600160a01b031614611250576040805162461bcd60e51b81526020600482018190526024820152600080516020612549833981519152604482015290519081900360640190fd5b6001600160a01b0381166112955760405162461bcd60e51b815260040180806020018281038252602681526020018061243b6026913960400191505060405180910390fd5b6033546040516001600160a01b038084169216907f8be0079c531659141344cd1fd0a4f28419497f9722a3daafe3b4186f6b6457e090600090a3603380546001600160a01b0319166001600160a01b0392909216919091179055565b6305f5e10090565b611301611cc9565b6001600160a01b03166113126109ca565b6001600160a01b03161461135b576040805162461bcd60e51b81526020600482018190526024820152600080516020612549833981519152604482015290519081900360640190fd5b6066805463ffffffff60401b1916600160401b63ffffffff86811682029290921763ffffffff60601b1916600160601b86841681029190911763ffffffff60801b1916600160801b868516810291909117948590556040805193860485168452918504841660208401529093049091168183015290517fd36686e6b7c0d0f601cf866ab5a5db598a9a4271b572401a988350de35e38891916060908290030190a1505050565b600080606760009054906101000a90046001600160a01b03166001600160a01b031663feaf968c6040518163ffffffff1660e01b815260040160a06040518083038186803b15801561145257600080fd5b505afa158015611466573d6000803e3d6000fd5b505050506040513d60a081101561147c57600080fd5b506020015191505090565b6000806000836001600160a01b0316633850c7bd6040518163ffffffff1660e01b815260040160e06040518083038186803b1580156114c557600080fd5b505afa1580156114d9573d6000803e3d6000fd5b505050506040513d60e08110156114ef57600080fd5b506040810151606090910151909250905061ffff811661153b576040805162461bcd60e51b81526020600482015260026024820152614e4960f01b604482015290519081900360640190fd5b600080856001600160a01b031663252c09d78461ffff168660010161ffff168161156157fe5b066040518263ffffffff1660e01b8152600401808261ffff16815260200191505060806040518083038186803b15801561159a57600080fd5b505afa1580156115ae573d6000803e3d6000fd5b505050506040513d60808110156115c457600080fd5b50805160609091015190925090508061164b57856001600160a01b031663252c09d760006040518263ffffffff1660e01b81526004018082815260200191505060806040518083038186803b15801561161c57600080fd5b505afa158015611630573d6000803e3d6000fd5b505050506040513d608081101561164657600080fd5b505191505b504203949350505050565b600063ffffffff8216611695576040805162461bcd60e51b8152602060048201526002602482015261042560f41b604482015290519081900360640190fd5b604080516002808252606080830184529260208301908036833701905050905082816000815181106116c357fe5b602002602001019063ffffffff16908163ffffffff16815250506000816001815181106116ec57fe5b63ffffffff90921660209283029190910182015260405163883bdbfd60e01b8152600481018281528351602483015283516060936001600160a01b0389169363883bdbfd9387939092839260440191858201910280838360005b8381101561175e578181015183820152602001611746565b505050509050019250505060006040518083038186803b15801561178157600080fd5b505afa158015611795573d6000803e3d6000fd5b505050506040513d6000823e601f3d908101601f1916820160409081528110156117be57600080fd5b8101908080516040519392919084600160201b8211156117dd57600080fd5b9083019060208201858111156117f257600080fd5b82518660208202830111600160201b8211171561180e57600080fd5b82525081516020918201928201910280838360005b8381101561183b578181015183820152602001611823565b5050505090500160405260200180516040519392919084600160201b82111561186357600080fd5b90830190602082018581111561187857600080fd5b82518660208202830111600160201b8211171561189457600080fd5b82525081516020918201928201910280838360005b838110156118c15781810151838201526020016118a9565b505050509050016040525050505090506000816000815181106118e057fe5b6020026020010151826001815181106118f557fe5b60200260200101510390508463ffffffff168160060b8161191257fe5b05935060008160060b12801561193c57508463ffffffff168160060b8161193557fe5b0760060b15155b1561194957600019909301925b50505092915050565b60008061195e86611ded565b90506001600160801b036001600160a01b038216116119cd576001600160a01b03808216800290848116908616106119ad576119a8600160c01b876001600160801b03168361211e565b6119c5565b6119c581876001600160801b0316600160c01b61211e565b925050611a3b565b60006119e76001600160a01b03831680600160401b61211e565b9050836001600160a01b0316856001600160a01b031610611a1f57611a1a600160801b876001600160801b03168361211e565b611a37565b611a3781876001600160801b0316600160801b61211e565b9250505b50949350505050565b6000611a4e612413565b506001600160a01b038281166000908152607e6020908152604091829020825160808101845281548086168252600160a01b900460ff1615159281018390526001820154909416928401929092526002909101546060830152611ae25760405162461bcd60e51b81526004018080602001828103825260338152602001806125696033913960400191505060405180910390fd5b6060015192915050565b6000611af6612413565b506001600160a01b038281166000908152607e6020908152604091829020825160808101845281548086168252600160a01b900460ff1615159281018390526001820154909416928401929092526002909101546060830152611b8a5760405162461bcd60e51b815260040180806020018281038252602e8152602001806125cc602e913960400191505060405180910390fd5b600081604001516001600160a01b031663feaf968c6040518163ffffffff1660e01b815260040160a06040518083038186803b158015611bc957600080fd5b505afa158015611bdd573d6000803e3d6000fd5b505050506040513d60a0811015611bf357600080fd5b5060200151949350505050565b600082611c0f57506000611c5c565b82820282848281611c1c57fe5b0414611c595760405162461bcd60e51b81526004018080602001828103825260218152602001806125286021913960400191505060405180910390fd5b90505b92915050565b6000808211611cb8576040805162461bcd60e51b815260206004820152601a60248201527f536166654d6174683a206469766973696f6e206279207a65726f000000000000604482015290519081900360640190fd5b818381611cc157fe5b049392505050565b3390565b6000611cd8306121d7565b15905090565b600054610100900460ff1680611cf75750611cf7611ccd565b80611d05575060005460ff16155b611d405760405162461bcd60e51b815260040180806020018281038252602e8152602001806124c0602e913960400191505060405180910390fd5b600054610100900460ff16158015611d6b576000805460ff1961ff0019909116610100171660011790555b611d736121dd565b611d7b61227d565b8015611d8d576000805461ff00191690555b50565b600082821115611de7576040805162461bcd60e51b815260206004820152601e60248201527f536166654d6174683a207375627472616374696f6e206f766572666c6f770000604482015290519081900360640190fd5b50900390565b60008060008360020b12611e04578260020b611e0c565b8260020b6000035b9050620d89e8811115611e4a576040805162461bcd60e51b81526020600482015260016024820152601560fa1b604482015290519081900360640190fd5b600060018216611e5e57600160801b611e70565b6ffffcb933bd6fad37aa2d162d1a5940015b70ffffffffffffffffffffffffffffffffff1690506002821615611ea4576ffff97272373d413259a46990580e213a0260801c5b6004821615611ec3576ffff2e50f5f656932ef12357cf3c7fdcc0260801c5b6008821615611ee2576fffe5caca7e10e4e61c3624eaa0941cd00260801c5b6010821615611f01576fffcb9843d60f6159c9db58835c9266440260801c5b6020821615611f20576fff973b41fa98c081472e6896dfb254c00260801c5b6040821615611f3f576fff2ea16466c96a3843ec78b326b528610260801c5b6080821615611f5e576ffe5dee046a99a2a811c461f1969c30530260801c5b610100821615611f7e576ffcbe86c7900a88aedcffc83b479aa3a40260801c5b610200821615611f9e576ff987a7253ac413176f2b074cf7815e540260801c5b610400821615611fbe576ff3392b0822b70005940c7a398e4b70f30260801c5b610800821615611fde576fe7159475a2c29b7443b29c7fa6e889d90260801c5b611000821615611ffe576fd097f3bdfd2022b8845ad8f792aa58250260801c5b61200082161561201e576fa9f746462d870fdf8a65dc1f90e061e50260801c5b61400082161561203e576f70d869a156d2a1b890bb3df62baf32f70260801c5b61800082161561205e576f31be135f97d08fd981231505542fcfa60260801c5b6201000082161561207f576f09aa508b5b7a84e1c677de54f3e99bc90260801c5b6202000082161561209f576e5d6af8dedb81196699c329225ee6040260801c5b620400008216156120be576d2216e584f5fa1ea926041bedfe980260801c5b620800008216156120db576b048a170391f7dc42444e8fa20260801c5b60008460020b13156120f65780600019816120f257fe5b0490505b600160201b81061561210957600161210c565b60005b60ff16602082901c0192505050919050565b600080600061212d8686612376565b915091506000848061213b57fe5b86880990508281111561214f576001820391505b91829003918161216d5784838161216257fe5b049350505050610758565b8482106121c1576040805162461bcd60e51b815260206004820152601a60248201527f46756c6c4d6174683a2046554c4c4449565f4f564552464c4f57000000000000604482015290519081900360640190fd5b6121cc8383876123a3565b979650505050505050565b3b151590565b600054610100900460ff16806121f657506121f6611ccd565b80612204575060005460ff16155b61223f5760405162461bcd60e51b815260040180806020018281038252602e8152602001806124c0602e913960400191505060405180910390fd5b600054610100900460ff16158015611d7b576000805460ff1961ff0019909116610100171660011790558015611d8d576000805461ff001916905550565b600054610100900460ff16806122965750612296611ccd565b806122a4575060005460ff16155b6122df5760405162461bcd60e51b815260040180806020018281038252602e8152602001806124c0602e913960400191505060405180910390fd5b600054610100900460ff1615801561230a576000805460ff1961ff0019909116610100171660011790555b6000612314611cc9565b603380546001600160a01b0319166001600160a01b038316908117909155604051919250906000907f8be0079c531659141344cd1fd0a4f28419497f9722a3daafe3b4186f6b6457e0908290a3508015611d8d576000805461ff001916905550565b600080806000198486099050838502925082810391508281101561239b576001820391505b509250929050565b600081810382168083816123b357fe5b0492508085816123bf57fe5b0494508081600003816123ce57fe5b60028581038087028203028087028203028087028203028087028203028087028203028087028203029586029003909402930460010193909302939093010292915050565b6040805160808101825260008082526020820181905291810182905260608101919091529056fe4f776e61626c653a206e6577206f776e657220697320746865207a65726f2061646472657373676574436f6c6c61746572616c50726963653a20436f6c6c61746572616c206e6f7420737570706f727465642e676574436f6c6c61746572616c50726963655f707265633a20436f6c6c61746572616c206e6f7420737570706f727465642e496e697469616c697a61626c653a20636f6e747261637420697320616c726561647920696e697469616c697a6564757064617465496e4f7574526174696f3a206572726f72206c617374207570646174652068617070656e656420696e2074686520667574757265536166654d6174683a206d756c7469706c69636174696f6e206f766572666c6f774f776e61626c653a2063616c6c6572206973206e6f7420746865206f776e65725f676574436f6c6c61746572616c50726963655f707265633a20436f6c6c61746572616c206e6f7420737570706f727465642e757064617465496e4f7574526174696f3a207468652074696d6520656c617073656420697320746f6f2073686f72742e5f676574436f6c6c61746572616c50726963653a20436f6c6c61746572616c206e6f7420737570706f727465642ea2646970667358221220abaed4c5a42b3dd13fad5c680eaf98133ead4f3288bc74b42cba4f2c1d11de4a64736f6c634300060c0033",
  "bytecodeSha1": "4cc030937e7f7c8ee9597644df10524b11ae37d9",
  "compiler": {
    "evm_version": "istanbul",
    "optimizer": {
      "enabled": true,
      "runs": 200
    },
    "version": "0.6.12+commit.27d51765"
  },
  "contractName": "Oracle",
  "language": "Solidity",
  "natspec": {
    "author": "Sperax Inc",
    "details": "providing collateral prices (from Chainlink)providing SPA and USDs prices (from Uniswap V3 pools)providing records of USDs inflow and outflow ratio",
    "kind": "dev",
    "methods": {
      "changePeriod(uint32,uint32,uint32)": {
        "details": "the frequency of update always remains the same",
        "notice": "change updatePeriod",
        "params": {
          "_movingAvgLongPeriod": "new moving average range of USDs price on average (used in SwapFeeIn)",
          "_movingAvgShortPeriod": "new moving average range of SPA and USDs price",
          "_updatePeriod": "new minimal updatePeriod in between two updates"
        }
      },
      "owner()": {
        "details": "Returns the address of the current owner."
      },
      "renounceOwnership()": {
        "details": "Leaves the contract without owner. It will not be possible to call `onlyOwner` functions anymore. Can only be called by the current owner. NOTE: Renouncing ownership will leave the contract without an owner, thereby removing any functionality that is only available to the owner."
      },
      "transferOwnership(address)": {
        "details": "Transfers ownership of the contract to a new account (`newOwner`). Can only be called by the current owner."
      },
      "updateInOutRatio()": {
        "details": "the price would be updated only once per updatePeriod timeUSDsInOutRatio is accurate after 24 hours (one iteration)",
        "notice": "update the price of token0 to the latest"
      }
    },
    "title": "Oracle contract of USDs protocol",
    "version": 1
  },
  "opcodes": "PUSH1 0x80 PUSH1 0x40 MSTORE CALLVALUE DUP1 ISZERO PUSH2 0x10 JUMPI PUSH1 0x0 DUP1 REVERT JUMPDEST POP PUSH1 0x4 CALLDATASIZE LT PUSH2 0x248 JUMPI PUSH1 0x0 CALLDATALOAD PUSH1 0xE0 SHR DUP1 PUSH4 0xA83627DE GT PUSH2 0x13B JUMPI DUP1 PUSH4 0xC8F33C91 GT PUSH2 0xB8 JUMPI DUP1 PUSH4 0xD37B5DF0 GT PUSH2 0x7C JUMPI DUP1 PUSH4 0xD37B5DF0 EQ PUSH2 0x26F JUMPI DUP1 PUSH4 0xD79FD7A2 EQ PUSH2 0x4F8 JUMPI DUP1 PUSH4 0xF2FDE38B EQ PUSH2 0x500 JUMPI DUP1 PUSH4 0xF309EAC2 EQ PUSH2 0x526 JUMPI DUP1 PUSH4 0xF43693AA EQ PUSH2 0x52E JUMPI PUSH2 0x248 JUMP JUMPDEST DUP1 PUSH4 0xC8F33C91 EQ PUSH2 0x448 JUMPI DUP1 PUSH4 0xCFB1528E EQ PUSH2 0x450 JUMPI DUP1 PUSH4 0xD0328034 EQ PUSH2 0x458 JUMPI DUP1 PUSH4 0xD2DE2F85 EQ PUSH2 0x496 JUMPI DUP1 PUSH4 0xD32F2182 EQ PUSH2 0x4BC JUMPI PUSH2 0x248 JUMP JUMPDEST DUP1 PUSH4 0xC229D750 GT PUSH2 0xFF JUMPI DUP1 PUSH4 0xC229D750 EQ PUSH2 0x3EC JUMPI DUP1 PUSH4 0xC5414905 EQ PUSH2 0x40A JUMPI DUP1 PUSH4 0xC6D15E1B EQ PUSH2 0x412 JUMPI DUP1 PUSH4 0xC7E524F7 EQ PUSH2 0x438 JUMPI DUP1 PUSH4 0xC8D3FE9A EQ PUSH2 0x440 JUMPI PUSH2 0x248 JUMP JUMPDEST DUP1 PUSH4 0xA83627DE EQ PUSH2 0x394 JUMPI DUP1 PUSH4 0xAD5C4648 EQ PUSH2 0x39C JUMPI DUP1 PUSH4 0xBCB083C1 EQ PUSH2 0x3A4 JUMPI DUP1 PUSH4 0xBDF4DA6E EQ PUSH2 0x3AC JUMPI DUP1 PUSH4 0xC0C53B8B EQ PUSH2 0x3B4 JUMPI PUSH2 0x248 JUMP JUMPDEST DUP1 PUSH4 0x5953E197 GT PUSH2 0x1C9 JUMPI DUP1 PUSH4 0x715018A6 GT PUSH2 0x18D JUMPI DUP1 PUSH4 0x715018A6 EQ PUSH2 0x355 JUMPI DUP1 PUSH4 0x820B35C5 EQ PUSH2 0x35F JUMPI DUP1 PUSH4 0x8D1A0709 EQ PUSH2 0x367 JUMPI DUP1 PUSH4 0x8DA5CB5B EQ PUSH2 0x384 JUMPI DUP1 PUSH4 0xA7E02498 EQ PUSH2 0x38C JUMPI PUSH2 0x248 JUMP JUMPDEST DUP1 PUSH4 0x5953E197 EQ PUSH2 0x320 JUMPI DUP1 PUSH4 0x627DC9C1 EQ PUSH2 0x328 JUMPI DUP1 PUSH4 0x67F82EDB EQ PUSH2 0x330 JUMPI DUP1 PUSH4 0x6C6F1865 EQ PUSH2 0x338 JUMPI DUP1 PUSH4 0x6F2A2B0F EQ PUSH2 0x2EA JUMPI PUSH2 0x248 JUMP JUMPDEST DUP1 PUSH4 0x2C428E36 GT PUSH2 0x210 JUMPI DUP1 PUSH4 0x2C428E36 EQ PUSH2 0x2A0 JUMPI DUP1 PUSH4 0x3F153279 EQ PUSH2 0x2C4 JUMPI DUP1 PUSH4 0x41B2A0F1 EQ PUSH2 0x2EA JUMPI DUP1 PUSH4 0x4D07640E EQ PUSH2 0x2F2 JUMPI DUP1 PUSH4 0x51A40994 EQ PUSH2 0x2FA JUMPI PUSH2 0x248 JUMP JUMPDEST DUP1 PUSH4 0x6C10211 EQ PUSH2 0x24D JUMPI DUP1 PUSH4 0x8432EEA EQ PUSH2 0x267 JUMPI DUP1 PUSH4 0x961D57B EQ PUSH2 0x26F JUMPI DUP1 PUSH4 0xB71F216 EQ PUSH2 0x277 JUMPI DUP1 PUSH4 0x2B2913D6 EQ PUSH2 0x27F JUMPI JUMPDEST PUSH1 0x0 DUP1 REVERT JUMPDEST PUSH2 0x255 PUSH2 0x563 JUMP JUMPDEST PUSH1 0x40 DUP1 MLOAD SWAP2 DUP3 MSTORE MLOAD SWAP1 DUP2 SWAP1 SUB PUSH1 0x20 ADD SWAP1 RETURN JUMPDEST PUSH2 0x255 PUSH2 0x573 JUMP JUMPDEST PUSH2 0x255 PUSH2 0x67D JUMP JUMPDEST PUSH2 0x255 PUSH2 0x689 JUMP JUMPDEST PUSH2 0x287 PUSH2 0x68F JUMP JUMPDEST PUSH1 0x40 DUP1 MLOAD PUSH4 0xFFFFFFFF SWAP1 SWAP3 AND DUP3 MSTORE MLOAD SWAP1 DUP2 SWAP1 SUB PUSH1 0x20 ADD SWAP1 RETURN JUMPDEST PUSH2 0x2A8 PUSH2 0x6A2 JUMP JUMPDEST PUSH1 0x40 DUP1 MLOAD PUSH1 0x1 PUSH1 0x1 PUSH1 0xA0 SHL SUB SWAP1 SWAP3 AND DUP3 MSTORE MLOAD SWAP1 DUP2 SWAP1 SUB PUSH1 0x20 ADD SWAP1 RETURN JUMPDEST PUSH2 0x255 PUSH1 0x4 DUP1 CALLDATASIZE SUB PUSH1 0x20 DUP2 LT ISZERO PUSH2 0x2DA JUMPI PUSH1 0x0 DUP1 REVERT JUMPDEST POP CALLDATALOAD PUSH1 0x1 PUSH1 0x1 PUSH1 0xA0 SHL SUB AND PUSH2 0x6B1 JUMP JUMPDEST PUSH2 0x255 PUSH2 0x75F JUMP JUMPDEST PUSH2 0x255 PUSH2 0x76B JUMP JUMPDEST PUSH2 0x255 PUSH1 0x4 DUP1 CALLDATASIZE SUB PUSH1 0x20 DUP2 LT ISZERO PUSH2 0x310 JUMPI PUSH1 0x0 DUP1 REVERT JUMPDEST POP CALLDATALOAD PUSH1 0x1 PUSH1 0x1 PUSH1 0xA0 SHL SUB AND PUSH2 0x773 JUMP JUMPDEST PUSH2 0x2A8 PUSH2 0x81A JUMP JUMPDEST PUSH2 0x255 PUSH2 0x829 JUMP JUMPDEST PUSH2 0x2A8 PUSH2 0x8DB JUMP JUMPDEST PUSH2 0x255 PUSH1 0x4 DUP1 CALLDATASIZE SUB PUSH1 0x20 DUP2 LT ISZERO PUSH2 0x34E JUMPI PUSH1 0x0 DUP1 REVERT JUMPDEST POP CALLDATALOAD PUSH2 0x8EA JUMP JUMPDEST PUSH2 0x35D PUSH2 0x8FE JUMP JUMPDEST STOP JUMPDEST PUSH2 0x287 PUSH2 0x9AA JUMP JUMPDEST PUSH2 0x255 PUSH1 0x4 DUP1 CALLDATASIZE SUB PUSH1 0x20 DUP2 LT ISZERO PUSH2 0x37D JUMPI PUSH1 0x0 DUP1 REVERT JUMPDEST POP CALLDATALOAD PUSH2 0x9BD JUMP JUMPDEST PUSH2 0x2A8 PUSH2 0x9CA JUMP JUMPDEST PUSH2 0x2A8 PUSH2 0x9D9 JUMP JUMPDEST PUSH2 0x287 PUSH2 0x9E8 JUMP JUMPDEST PUSH2 0x2A8 PUSH2 0x9FB JUMP JUMPDEST PUSH2 0x2A8 PUSH2 0xA0A JUMP JUMPDEST PUSH2 0x2A8 PUSH2 0xA19 JUMP JUMPDEST PUSH2 0x35D PUSH1 0x4 DUP1 CALLDATASIZE SUB PUSH1 0x60 DUP2 LT ISZERO PUSH2 0x3CA JUMPI PUSH1 0x0 DUP1 REVERT JUMPDEST POP PUSH1 0x1 PUSH1 0x1 PUSH1 0xA0 SHL SUB DUP2 CALLDATALOAD DUP2 AND SWAP2 PUSH1 0x20 DUP2 ADD CALLDATALOAD DUP3 AND SWAP2 PUSH1 0x40 SWAP1 SWAP2 ADD CALLDATALOAD AND PUSH2 0xA28 JUMP JUMPDEST PUSH2 0x3F4 PUSH2 0xB7A JUMP JUMPDEST PUSH1 0x40 DUP1 MLOAD PUSH1 0xFF SWAP1 SWAP3 AND DUP3 MSTORE MLOAD SWAP1 DUP2 SWAP1 SUB PUSH1 0x20 ADD SWAP1 RETURN JUMPDEST PUSH2 0x255 PUSH2 0xB7F JUMP JUMPDEST PUSH2 0x35D PUSH1 0x4 DUP1 CALLDATASIZE SUB PUSH1 0x20 DUP2 LT ISZERO PUSH2 0x428 JUMPI PUSH1 0x0 DUP1 REVERT JUMPDEST POP CALLDATALOAD PUSH1 0x1 PUSH1 0x1 PUSH1 0xA0 SHL SUB AND PUSH2 0xC0A JUMP JUMPDEST PUSH2 0x287 PUSH2 0xC8E JUMP JUMPDEST PUSH2 0x2A8 PUSH2 0xC9A JUMP JUMPDEST PUSH2 0x287 PUSH2 0xCA9 JUMP JUMPDEST PUSH2 0x287 PUSH2 0xCBC JUMP JUMPDEST PUSH2 0x35D PUSH1 0x4 DUP1 CALLDATASIZE SUB PUSH1 0x80 DUP2 LT ISZERO PUSH2 0x46E JUMPI PUSH1 0x0 DUP1 REVERT JUMPDEST POP PUSH1 0x1 PUSH1 0x1 PUSH1 0xA0 SHL SUB DUP2 CALLDATALOAD DUP2 AND SWAP2 PUSH1 0x20 DUP2 ADD CALLDATALOAD DUP3 AND SWAP2 PUSH1 0x40 DUP3 ADD CALLDATALOAD DUP2 AND SWAP2 PUSH1 0x60 ADD CALLDATALOAD AND PUSH2 0xCC3 JUMP JUMPDEST PUSH2 0x35D PUSH1 0x4 DUP1 CALLDATASIZE SUB PUSH1 0x20 DUP2 LT ISZERO PUSH2 0x4AC JUMPI PUSH1 0x0 DUP1 REVERT JUMPDEST POP CALLDATALOAD PUSH1 0x1 PUSH1 0x1 PUSH1 0xA0 SHL SUB AND PUSH2 0xD75 JUMP JUMPDEST PUSH2 0x35D PUSH1 0x4 DUP1 CALLDATASIZE SUB PUSH1 0x80 DUP2 LT ISZERO PUSH2 0x4D2 JUMPI PUSH1 0x0 DUP1 REVERT JUMPDEST POP PUSH1 0x1 PUSH1 0x1 PUSH1 0xA0 SHL SUB DUP2 CALLDATALOAD DUP2 AND SWAP2 PUSH1 0x20 DUP2 ADD CALLDATALOAD ISZERO ISZERO SWAP2 PUSH1 0x40 DUP3 ADD CALLDATALOAD AND SWAP1 PUSH1 0x60 ADD CALLDATALOAD PUSH2 0xDF9 JUMP JUMPDEST PUSH2 0x35D PUSH2 0xF01 JUMP JUMPDEST PUSH2 0x35D PUSH1 0x4 DUP1 CALLDATASIZE SUB PUSH1 0x20 DUP2 LT ISZERO PUSH2 0x516 JUMPI PUSH1 0x0 DUP1 REVERT JUMPDEST POP CALLDATALOAD PUSH1 0x1 PUSH1 0x1 PUSH1 0xA0 SHL SUB AND PUSH2 0x11EE JUMP JUMPDEST PUSH2 0x255 PUSH2 0x12F1 JUMP JUMPDEST PUSH2 0x35D PUSH1 0x4 DUP1 CALLDATASIZE SUB PUSH1 0x60 DUP2 LT ISZERO PUSH2 0x544 JUMPI PUSH1 0x0 DUP1 REVERT JUMPDEST POP PUSH4 0xFFFFFFFF DUP2 CALLDATALOAD DUP2 AND SWAP2 PUSH1 0x20 DUP2 ADD CALLDATALOAD DUP3 AND SWAP2 PUSH1 0x40 SWAP1 SWAP2 ADD CALLDATALOAD AND PUSH2 0x12F9 JUMP JUMPDEST PUSH1 0x0 PUSH2 0x56D PUSH2 0x1401 JUMP JUMPDEST SWAP1 POP JUMPDEST SWAP1 JUMP JUMPDEST PUSH1 0x6C SLOAD PUSH1 0x0 SWAP1 PUSH1 0x1 PUSH1 0x1 PUSH1 0xA0 SHL SUB AND PUSH2 0x595 JUMPI POP PUSH8 0xDE0B6B3A7640000 PUSH2 0x570 JUMP JUMPDEST PUSH1 0x6C SLOAD PUSH1 0x0 SWAP1 PUSH2 0x5AD SWAP1 PUSH1 0x1 PUSH1 0x1 PUSH1 0xA0 SHL SUB AND PUSH2 0x1487 JUMP JUMPDEST PUSH1 0x66 SLOAD SWAP1 SWAP2 POP PUSH1 0x0 SWAP1 PUSH4 0xFFFFFFFF DUP1 DUP5 AND PUSH1 0x1 PUSH1 0x60 SHL SWAP1 SWAP3 DIV AND LT PUSH2 0x5D2 JUMPI DUP2 PUSH2 0x5E3 JUMP JUMPDEST PUSH1 0x66 SLOAD PUSH1 0x1 PUSH1 0x60 SHL SWAP1 DIV PUSH4 0xFFFFFFFF AND JUMPDEST PUSH1 0x6C SLOAD SWAP1 SWAP2 POP PUSH1 0x0 SWAP1 PUSH2 0x5FF SWAP1 PUSH1 0x1 PUSH1 0x1 PUSH1 0xA0 SHL SUB AND DUP4 PUSH2 0x1656 JUMP JUMPDEST PUSH1 0x6A SLOAD PUSH1 0x6F SLOAD SWAP2 SWAP3 POP PUSH1 0x0 SWAP2 PUSH2 0x62D SWAP2 DUP5 SWAP2 PUSH8 0xDE0B6B3A7640000 SWAP2 PUSH1 0x1 PUSH1 0x1 PUSH1 0xA0 SHL SUB SWAP1 DUP2 AND SWAP2 AND PUSH2 0x1952 JUMP JUMPDEST PUSH1 0x6F SLOAD SWAP1 SWAP2 POP PUSH1 0x0 SWAP1 PUSH2 0x673 SWAP1 PUSH2 0x64C SWAP1 PUSH1 0x1 PUSH1 0x1 PUSH1 0xA0 SHL SUB AND PUSH2 0x1A44 JUMP JUMPDEST PUSH1 0x6F SLOAD PUSH2 0x66D SWAP1 DUP6 SWAP1 PUSH2 0x667 SWAP1 PUSH1 0x1 PUSH1 0x1 PUSH1 0xA0 SHL SUB AND PUSH2 0x1AEC JUMP JUMPDEST SWAP1 PUSH2 0x1C00 JUMP JUMPDEST SWAP1 PUSH2 0x1C62 JUMP JUMPDEST SWAP6 POP POP POP POP POP POP SWAP1 JUMP JUMPDEST PUSH8 0xDE0B6B3A7640000 DUP2 JUMP JUMPDEST PUSH1 0x65 SLOAD DUP2 JUMP JUMPDEST PUSH1 0x66 SLOAD PUSH1 0x1 PUSH1 0x80 SHL SWAP1 DIV PUSH4 0xFFFFFFFF AND DUP2 JUMP JUMPDEST PUSH1 0x6F SLOAD PUSH1 0x1 PUSH1 0x1 PUSH1 0xA0 SHL SUB AND DUP2 JUMP JUMPDEST PUSH1 0x0 PUSH2 0x6BB PUSH2 0x2413 JUMP JUMPDEST POP PUSH1 0x1 PUSH1 0x1 PUSH1 0xA0 SHL SUB DUP3 DUP2 AND PUSH1 0x0 SWAP1 DUP2 MSTORE PUSH1 0x7E PUSH1 0x20 SWAP1 DUP2 MSTORE PUSH1 0x40 SWAP2 DUP3 SWAP1 KECCAK256 DUP3 MLOAD PUSH1 0x80 DUP2 ADD DUP5 MSTORE DUP2 SLOAD DUP1 DUP7 AND DUP3 MSTORE PUSH1 0x1 PUSH1 0xA0 SHL SWAP1 DIV PUSH1 0xFF AND ISZERO ISZERO SWAP3 DUP2 ADD DUP4 SWAP1 MSTORE PUSH1 0x1 DUP3 ADD SLOAD SWAP1 SWAP5 AND SWAP3 DUP5 ADD SWAP3 SWAP1 SWAP3 MSTORE PUSH1 0x2 SWAP1 SWAP2 ADD SLOAD PUSH1 0x60 DUP4 ADD MSTORE PUSH2 0x74F JUMPI PUSH1 0x40 MLOAD PUSH3 0x461BCD PUSH1 0xE5 SHL DUP2 MSTORE PUSH1 0x4 ADD DUP1 DUP1 PUSH1 0x20 ADD DUP3 DUP2 SUB DUP3 MSTORE PUSH1 0x32 DUP2 MSTORE PUSH1 0x20 ADD DUP1 PUSH2 0x248E PUSH1 0x32 SWAP2 CODECOPY PUSH1 0x40 ADD SWAP2 POP POP PUSH1 0x40 MLOAD DUP1 SWAP2 SUB SWAP1 REVERT JUMPDEST PUSH2 0x758 DUP4 PUSH2 0x1A44 JUMP JUMPDEST SWAP4 SWAP3 POP POP POP JUMP JUMPDEST PUSH8 0xDE0B6B3A7640000 SWAP1 JUMP JUMPDEST PUSH4 0x5F5E100 DUP2 JUMP JUMPDEST PUSH1 0x0 PUSH2 0x77D PUSH2 0x2413 JUMP JUMPDEST POP PUSH1 0x1 PUSH1 0x1 PUSH1 0xA0 SHL SUB DUP3 DUP2 AND PUSH1 0x0 SWAP1 DUP2 MSTORE PUSH1 0x7E PUSH1 0x20 SWAP1 DUP2 MSTORE PUSH1 0x40 SWAP2 DUP3 SWAP1 KECCAK256 DUP3 MLOAD PUSH1 0x80 DUP2 ADD DUP5 MSTORE DUP2 SLOAD DUP1 DUP7 AND DUP3 MSTORE PUSH1 0x1 PUSH1 0xA0 SHL SWAP1 DIV PUSH1 0xFF AND ISZERO ISZERO SWAP3 DUP2 ADD DUP4 SWAP1 MSTORE PUSH1 0x1 DUP3 ADD SLOAD SWAP1 SWAP5 AND SWAP3 DUP5 ADD SWAP3 SWAP1 SWAP3 MSTORE PUSH1 0x2 SWAP1 SWAP2 ADD SLOAD PUSH1 0x60 DUP4 ADD MSTORE PUSH2 0x811 JUMPI PUSH1 0x40 MLOAD PUSH3 0x461BCD PUSH1 0xE5 SHL DUP2 MSTORE PUSH1 0x4 ADD DUP1 DUP1 PUSH1 0x20 ADD DUP3 DUP2 SUB DUP3 MSTORE PUSH1 0x2D DUP2 MSTORE PUSH1 0x20 ADD DUP1 PUSH2 0x2461 PUSH1 0x2D SWAP2 CODECOPY PUSH1 0x40 ADD SWAP2 POP POP PUSH1 0x40 MLOAD DUP1 SWAP2 SUB SWAP1 REVERT JUMPDEST PUSH2 0x758 DUP4 PUSH2 0x1AEC JUMP JUMPDEST PUSH1 0x6B SLOAD PUSH1 0x1 PUSH1 0x1 PUSH1 0xA0 SHL SUB AND DUP2 JUMP JUMPDEST PUSH1 0x6D SLOAD PUSH1 0x0 SWAP1 DUP2 SWAP1 PUSH2 0x843 SWAP1 PUSH1 0x1 PUSH1 0x1 PUSH1 0xA0 SHL SUB AND PUSH2 0x1487 JUMP JUMPDEST PUSH1 0x66 SLOAD SWAP1 SWAP2 POP PUSH1 0x0 SWAP1 PUSH4 0xFFFFFFFF DUP1 DUP5 AND PUSH1 0x1 PUSH1 0x60 SHL SWAP1 SWAP3 DIV AND LT PUSH2 0x868 JUMPI DUP2 PUSH2 0x879 JUMP JUMPDEST PUSH1 0x66 SLOAD PUSH1 0x1 PUSH1 0x60 SHL SWAP1 DIV PUSH4 0xFFFFFFFF AND JUMPDEST PUSH1 0x6D SLOAD SWAP1 SWAP2 POP PUSH1 0x0 SWAP1 PUSH2 0x895 SWAP1 PUSH1 0x1 PUSH1 0x1 PUSH1 0xA0 SHL SUB AND DUP4 PUSH2 0x1656 JUMP JUMPDEST PUSH1 0x68 SLOAD PUSH1 0x6E SLOAD SWAP2 SWAP3 POP PUSH1 0x0 SWAP2 PUSH2 0x8C3 SWAP2 DUP5 SWAP2 PUSH8 0xDE0B6B3A7640000 SWAP2 PUSH1 0x1 PUSH1 0x1 PUSH1 0xA0 SHL SUB SWAP1 DUP2 AND SWAP2 AND PUSH2 0x1952 JUMP JUMPDEST SWAP1 POP PUSH1 0x0 PUSH2 0x673 PUSH4 0x5F5E100 PUSH2 0x66D DUP5 PUSH2 0x667 PUSH2 0x1401 JUMP JUMPDEST PUSH1 0x6C SLOAD PUSH1 0x1 PUSH1 0x1 PUSH1 0xA0 SHL SUB AND DUP2 JUMP JUMPDEST PUSH1 0x70 DUP2 PUSH1 0x7 DUP2 LT PUSH2 0x8F7 JUMPI INVALID JUMPDEST ADD SLOAD SWAP1 POP DUP2 JUMP JUMPDEST PUSH2 0x906 PUSH2 0x1CC9 JUMP JUMPDEST PUSH1 0x1 PUSH1 0x1 PUSH1 0xA0 SHL SUB AND PUSH2 0x917 PUSH2 0x9CA JUMP JUMPDEST PUSH1 0x1 PUSH1 0x1 PUSH1 0xA0 SHL SUB AND EQ PUSH2 0x960 JUMPI PUSH1 0x40 DUP1 MLOAD PUSH3 0x461BCD PUSH1 0xE5 SHL DUP2 MSTORE PUSH1 0x20 PUSH1 0x4 DUP3 ADD DUP2 SWAP1 MSTORE PUSH1 0x24 DUP3 ADD MSTORE PUSH1 0x0 DUP1 MLOAD PUSH1 0x20 PUSH2 0x2549 DUP4 CODECOPY DUP2 MLOAD SWAP2 MSTORE PUSH1 0x44 DUP3 ADD MSTORE SWAP1 MLOAD SWAP1 DUP2 SWAP1 SUB PUSH1 0x64 ADD SWAP1 REVERT JUMPDEST PUSH1 0x33 SLOAD PUSH1 0x40 MLOAD PUSH1 0x0 SWAP2 PUSH1 0x1 PUSH1 0x1 PUSH1 0xA0 SHL SUB AND SWAP1 PUSH32 0x8BE0079C531659141344CD1FD0A4F28419497F9722A3DAAFE3B4186F6B6457E0 SWAP1 DUP4 SWAP1 LOG3 PUSH1 0x33 DUP1 SLOAD PUSH1 0x1 PUSH1 0x1 PUSH1 0xA0 SHL SUB NOT AND SWAP1 SSTORE JUMP JUMPDEST PUSH1 0x66 SLOAD PUSH1 0x1 PUSH1 0x60 SHL SWAP1 DIV PUSH4 0xFFFFFFFF AND DUP2 JUMP JUMPDEST PUSH1 0x77 DUP2 PUSH1 0x7 DUP2 LT PUSH2 0x8F7 JUMPI INVALID JUMPDEST PUSH1 0x33 SLOAD PUSH1 0x1 PUSH1 0x1 PUSH1 0xA0 SHL SUB AND SWAP1 JUMP JUMPDEST PUSH1 0x6E SLOAD PUSH1 0x1 PUSH1 0x1 PUSH1 0xA0 SHL SUB AND DUP2 JUMP JUMPDEST PUSH1 0x66 SLOAD PUSH1 0x1 PUSH1 0x40 SHL SWAP1 DIV PUSH4 0xFFFFFFFF AND DUP2 JUMP JUMPDEST PUSH1 0x69 SLOAD PUSH1 0x1 PUSH1 0x1 PUSH1 0xA0 SHL SUB AND DUP2 JUMP JUMPDEST PUSH1 0x68 SLOAD PUSH1 0x1 PUSH1 0x1 PUSH1 0xA0 SHL SUB AND DUP2 JUMP JUMPDEST PUSH1 0x6D SLOAD PUSH1 0x1 PUSH1 0x1 PUSH1 0xA0 SHL SUB AND DUP2 JUMP JUMPDEST PUSH1 0x0 SLOAD PUSH2 0x100 SWAP1 DIV PUSH1 0xFF AND DUP1 PUSH2 0xA41 JUMPI POP PUSH2 0xA41 PUSH2 0x1CCD JUMP JUMPDEST DUP1 PUSH2 0xA4F JUMPI POP PUSH1 0x0 SLOAD PUSH1 0xFF AND ISZERO JUMPDEST PUSH2 0xA8A JUMPI PUSH1 0x40 MLOAD PUSH3 0x461BCD PUSH1 0xE5 SHL DUP2 MSTORE PUSH1 0x4 ADD DUP1 DUP1 PUSH1 0x20 ADD DUP3 DUP2 SUB DUP3 MSTORE PUSH1 0x2E DUP2 MSTORE PUSH1 0x20 ADD DUP1 PUSH2 0x24C0 PUSH1 0x2E SWAP2 CODECOPY PUSH1 0x40 ADD SWAP2 POP POP PUSH1 0x40 MLOAD DUP1 SWAP2 SUB SWAP1 REVERT JUMPDEST PUSH1 0x0 SLOAD PUSH2 0x100 SWAP1 DIV PUSH1 0xFF AND ISZERO DUP1 ISZERO PUSH2 0xAB5 JUMPI PUSH1 0x0 DUP1 SLOAD PUSH1 0xFF NOT PUSH2 0xFF00 NOT SWAP1 SWAP2 AND PUSH2 0x100 OR AND PUSH1 0x1 OR SWAP1 SSTORE JUMPDEST PUSH2 0xABD PUSH2 0x1CDE JUMP JUMPDEST PUSH1 0x66 DUP1 SLOAD PUSH4 0xFFFFFFFF PUSH1 0x40 SHL NOT AND PUSH10 0xA8C00000000000000000 OR SWAP1 SSTORE PUSH1 0x1 PUSH1 0x20 SHL TIMESTAMP PUSH1 0x66 DUP1 SLOAD PUSH1 0x67 DUP1 SLOAD PUSH1 0x1 PUSH1 0x1 PUSH1 0xA0 SHL SUB NOT SWAP1 DUP2 AND PUSH1 0x1 PUSH1 0x1 PUSH1 0xA0 SHL SUB DUP12 DUP2 AND SWAP2 SWAP1 SWAP2 OR SWAP1 SWAP3 SSTORE PUSH1 0x68 DUP1 SLOAD DUP3 AND DUP11 DUP5 AND OR SWAP1 SSTORE PUSH1 0x69 DUP1 SLOAD SWAP1 SWAP2 AND SWAP2 DUP9 AND SWAP2 SWAP1 SWAP2 OR SWAP1 SSTORE PUSH8 0xFFFFFFFF00000000 NOT AND PUSH1 0x1 PUSH1 0x20 SHL SWAP4 SWAP1 SWAP3 MOD PUSH4 0xFFFFFFFF AND SWAP3 SWAP1 SWAP3 MUL OR PUSH4 0xFFFFFFFF PUSH1 0x60 SHL NOT AND PUSH1 0x4B PUSH1 0x63 SHL OR PUSH4 0xFFFFFFFF PUSH1 0x80 SHL NOT AND PUSH1 0xE1 PUSH1 0x84 SHL OR SWAP1 SSTORE DUP1 ISZERO PUSH2 0xB74 JUMPI PUSH1 0x0 DUP1 SLOAD PUSH2 0xFF00 NOT AND SWAP1 SSTORE JUMPDEST POP POP POP POP JUMP JUMPDEST PUSH1 0x6 DUP2 JUMP JUMPDEST PUSH1 0x6C SLOAD PUSH1 0x0 SWAP1 PUSH1 0x1 PUSH1 0x1 PUSH1 0xA0 SHL SUB AND PUSH2 0xBA1 JUMPI POP PUSH8 0xDE0B6B3A7640000 PUSH2 0x570 JUMP JUMPDEST PUSH1 0x6C SLOAD PUSH1 0x0 SWAP1 PUSH2 0xBB9 SWAP1 PUSH1 0x1 PUSH1 0x1 PUSH1 0xA0 SHL SUB AND PUSH2 0x1487 JUMP JUMPDEST PUSH1 0x66 SLOAD SWAP1 SWAP2 POP PUSH1 0x0 SWAP1 PUSH4 0xFFFFFFFF DUP1 DUP5 AND PUSH1 0x1 PUSH1 0x80 SHL SWAP1 SWAP3 DIV AND LT PUSH2 0xBDE JUMPI DUP2 PUSH2 0x5E3 JUMP JUMPDEST POP PUSH1 0x66 SLOAD PUSH1 0x6C SLOAD PUSH1 0x1 PUSH1 0x80 SHL SWAP1 SWAP2 DIV PUSH4 0xFFFFFFFF AND SWAP1 PUSH1 0x0 SWAP1 PUSH2 0x5FF SWAP1 PUSH1 0x1 PUSH1 0x1 PUSH1 0xA0 SHL SUB AND DUP4 PUSH2 0x1656 JUMP JUMPDEST PUSH2 0xC12 PUSH2 0x1CC9 JUMP JUMPDEST PUSH1 0x1 PUSH1 0x1 PUSH1 0xA0 SHL SUB AND PUSH2 0xC23 PUSH2 0x9CA JUMP JUMPDEST PUSH1 0x1 PUSH1 0x1 PUSH1 0xA0 SHL SUB AND EQ PUSH2 0xC6C JUMPI PUSH1 0x40 DUP1 MLOAD PUSH3 0x461BCD PUSH1 0xE5 SHL DUP2 MSTORE PUSH1 0x20 PUSH1 0x4 DUP3 ADD DUP2 SWAP1 MSTORE PUSH1 0x24 DUP3 ADD MSTORE PUSH1 0x0 DUP1 MLOAD PUSH1 0x20 PUSH2 0x2549 DUP4 CODECOPY DUP2 MLOAD SWAP2 MSTORE PUSH1 0x44 DUP3 ADD MSTORE SWAP1 MLOAD SWAP1 DUP2 SWAP1 SUB PUSH1 0x64 ADD SWAP1 REVERT JUMPDEST PUSH1 0x6B DUP1 SLOAD PUSH1 0x1 PUSH1 0x1 PUSH1 0xA0 SHL SUB NOT AND PUSH1 0x1 PUSH1 0x1 PUSH1 0xA0 SHL SUB SWAP3 SWAP1 SWAP3 AND SWAP2 SWAP1 SWAP2 OR SWAP1 SSTORE JUMP JUMPDEST PUSH1 0x66 SLOAD PUSH4 0xFFFFFFFF AND DUP2 JUMP JUMPDEST PUSH1 0x6A SLOAD PUSH1 0x1 PUSH1 0x1 PUSH1 0xA0 SHL SUB AND DUP2 JUMP JUMPDEST PUSH1 0x66 SLOAD PUSH1 0x1 PUSH1 0x20 SHL SWAP1 DIV PUSH4 0xFFFFFFFF AND DUP2 JUMP JUMPDEST PUSH3 0xF4240 DUP2 JUMP JUMPDEST PUSH2 0xCCB PUSH2 0x1CC9 JUMP JUMPDEST PUSH1 0x1 PUSH1 0x1 PUSH1 0xA0 SHL SUB AND PUSH2 0xCDC PUSH2 0x9CA JUMP JUMPDEST PUSH1 0x1 PUSH1 0x1 PUSH1 0xA0 SHL SUB AND EQ PUSH2 0xD25 JUMPI PUSH1 0x40 DUP1 MLOAD PUSH3 0x461BCD PUSH1 0xE5 SHL DUP2 MSTORE PUSH1 0x20 PUSH1 0x4 DUP3 ADD DUP2 SWAP1 MSTORE PUSH1 0x24 DUP3 ADD MSTORE PUSH1 0x0 DUP1 MLOAD PUSH1 0x20 PUSH2 0x2549 DUP4 CODECOPY DUP2 MLOAD SWAP2 MSTORE PUSH1 0x44 DUP3 ADD MSTORE SWAP1 MLOAD SWAP1 DUP2 SWAP1 SUB PUSH1 0x64 ADD SWAP1 REVERT JUMPDEST PUSH1 0x6E DUP1 SLOAD PUSH1 0x1 PUSH1 0x1 PUSH1 0xA0 SHL SUB SWAP6 DUP7 AND PUSH1 0x1 PUSH1 0x1 PUSH1 0xA0 SHL SUB NOT SWAP2 DUP3 AND OR SWAP1 SWAP2 SSTORE PUSH1 0x6F DUP1 SLOAD SWAP5 DUP7 AND SWAP5 DUP3 AND SWAP5 SWAP1 SWAP5 OR SWAP1 SWAP4 SSTORE PUSH1 0x6C DUP1 SLOAD SWAP3 DUP6 AND SWAP3 DUP5 AND SWAP3 SWAP1 SWAP3 OR SWAP1 SWAP2 SSTORE PUSH1 0x6D DUP1 SLOAD SWAP2 SWAP1 SWAP4 AND SWAP2 AND OR SWAP1 SSTORE JUMP JUMPDEST PUSH2 0xD7D PUSH2 0x1CC9 JUMP JUMPDEST PUSH1 0x1 PUSH1 0x1 PUSH1 0xA0 SHL SUB AND PUSH2 0xD8E PUSH2 0x9CA JUMP JUMPDEST PUSH1 0x1 PUSH1 0x1 PUSH1 0xA0 SHL SUB AND EQ PUSH2 0xDD7 JUMPI PUSH1 0x40 DUP1 MLOAD PUSH3 0x461BCD PUSH1 0xE5 SHL DUP2 MSTORE PUSH1 0x20 PUSH1 0x4 DUP3 ADD DUP2 SWAP1 MSTORE PUSH1 0x24 DUP3 ADD MSTORE PUSH1 0x0 DUP1 MLOAD PUSH1 0x20 PUSH2 0x2549 DUP4 CODECOPY DUP2 MLOAD SWAP2 MSTORE PUSH1 0x44 DUP3 ADD MSTORE SWAP1 MLOAD SWAP1 DUP2 SWAP1 SUB PUSH1 0x64 ADD SWAP1 REVERT JUMPDEST PUSH1 0x6A DUP1 SLOAD PUSH1 0x1 PUSH1 0x1 PUSH1 0xA0 SHL SUB NOT AND PUSH1 0x1 PUSH1 0x1 PUSH1 0xA0 SHL SUB SWAP3 SWAP1 SWAP3 AND SWAP2 SWAP1 SWAP2 OR SWAP1 SSTORE JUMP JUMPDEST PUSH2 0xE01 PUSH2 0x1CC9 JUMP JUMPDEST PUSH1 0x1 PUSH1 0x1 PUSH1 0xA0 SHL SUB AND PUSH2 0xE12 PUSH2 0x9CA JUMP JUMPDEST PUSH1 0x1 PUSH1 0x1 PUSH1 0xA0 SHL SUB AND EQ PUSH2 0xE5B JUMPI PUSH1 0x40 DUP1 MLOAD PUSH3 0x461BCD PUSH1 0xE5 SHL DUP2 MSTORE PUSH1 0x20 PUSH1 0x4 DUP3 ADD DUP2 SWAP1 MSTORE PUSH1 0x24 DUP3 ADD MSTORE PUSH1 0x0 DUP1 MLOAD PUSH1 0x20 PUSH2 0x2549 DUP4 CODECOPY DUP2 MLOAD SWAP2 MSTORE PUSH1 0x44 DUP3 ADD MSTORE SWAP1 MLOAD SWAP1 DUP2 SWAP1 SUB PUSH1 0x64 ADD SWAP1 REVERT JUMPDEST PUSH1 0x1 PUSH1 0x1 PUSH1 0xA0 SHL SUB DUP1 DUP6 AND PUSH1 0x0 DUP2 DUP2 MSTORE PUSH1 0x7E PUSH1 0x20 SWAP1 DUP2 MSTORE PUSH1 0x40 SWAP2 DUP3 SWAP1 KECCAK256 DUP1 SLOAD DUP9 ISZERO ISZERO PUSH1 0x1 PUSH1 0xA0 SHL DUP2 MUL PUSH1 0xFF PUSH1 0xA0 SHL NOT PUSH1 0x1 PUSH1 0x1 PUSH1 0xA0 SHL SUB NOT SWAP4 DUP5 AND DUP9 OR AND OR DUP4 SSTORE PUSH1 0x1 DUP4 ADD DUP1 SLOAD SWAP8 DUP11 AND SWAP8 SWAP1 SWAP3 AND DUP8 OR SWAP1 SWAP2 SSTORE PUSH1 0x2 DUP3 ADD DUP8 SWAP1 SSTORE DUP4 MLOAD SWAP5 DUP6 MSTORE SWAP2 DUP5 ADD SWAP2 SWAP1 SWAP2 MSTORE DUP3 DUP3 ADD SWAP4 SWAP1 SWAP4 MSTORE PUSH1 0x60 DUP3 ADD DUP5 SWAP1 MSTORE MLOAD PUSH32 0x9CE8DAA3B6DDB1B45182C5DB00C581F637E2373A74E2D343D1C4999AAA5224F0 SWAP2 DUP2 SWAP1 SUB PUSH1 0x80 ADD SWAP1 LOG1 POP POP POP POP POP JUMP JUMPDEST PUSH1 0x66 SLOAD PUSH4 0xFFFFFFFF TIMESTAMP DUP2 AND SWAP2 PUSH1 0x1 PUSH1 0x20 SHL SWAP1 DIV AND DUP1 DUP3 SUB SWAP1 DUP3 LT ISZERO PUSH2 0xF57 JUMPI PUSH1 0x40 MLOAD PUSH3 0x461BCD PUSH1 0xE5 SHL DUP2 MSTORE PUSH1 0x4 ADD DUP1 DUP1 PUSH1 0x20 ADD DUP3 DUP2 SUB DUP3 MSTORE PUSH1 0x3A DUP2 MSTORE PUSH1 0x20 ADD DUP1 PUSH2 0x24EE PUSH1 0x3A SWAP2 CODECOPY PUSH1 0x40 ADD SWAP2 POP POP PUSH1 0x40 MLOAD DUP1 SWAP2 SUB SWAP1 REVERT JUMPDEST PUSH1 0x66 SLOAD PUSH4 0xFFFFFFFF PUSH1 0x1 PUSH1 0x40 SHL SWAP1 SWAP2 DIV DUP2 AND SWAP1 DUP3 AND LT ISZERO PUSH2 0xFA9 JUMPI PUSH1 0x40 MLOAD PUSH3 0x461BCD PUSH1 0xE5 SHL DUP2 MSTORE PUSH1 0x4 ADD DUP1 DUP1 PUSH1 0x20 ADD DUP3 DUP2 SUB DUP3 MSTORE PUSH1 0x30 DUP2 MSTORE PUSH1 0x20 ADD DUP1 PUSH2 0x259C PUSH1 0x30 SWAP2 CODECOPY PUSH1 0x40 ADD SWAP2 POP POP PUSH1 0x40 MLOAD DUP1 SWAP2 SUB SWAP1 REVERT JUMPDEST PUSH1 0x66 SLOAD PUSH1 0x6B SLOAD PUSH1 0x40 DUP1 MLOAD PUSH4 0x144613FF PUSH1 0xE3 SHL DUP2 MSTORE SWAP1 MLOAD PUSH4 0xFFFFFFFF SWAP4 DUP5 AND SWAP4 PUSH1 0x7 PUSH1 0x1 DUP7 ADD SWAP1 SWAP2 AND MOD SWAP3 PUSH1 0x1 PUSH1 0x1 PUSH1 0xA0 SHL SUB AND SWAP2 PUSH4 0xA2309FF8 SWAP2 PUSH1 0x4 DUP1 DUP4 ADD SWAP3 PUSH1 0x20 SWAP3 SWAP2 SWAP1 DUP3 SWAP1 SUB ADD DUP2 PUSH1 0x0 DUP8 DUP1 EXTCODESIZE ISZERO DUP1 ISZERO PUSH2 0x1004 JUMPI PUSH1 0x0 DUP1 REVERT JUMPDEST POP GAS CALL ISZERO DUP1 ISZERO PUSH2 0x1018 JUMPI RETURNDATASIZE PUSH1 0x0 DUP1 RETURNDATACOPY RETURNDATASIZE PUSH1 0x0 REVERT JUMPDEST POP POP POP POP PUSH1 0x40 MLOAD RETURNDATASIZE PUSH1 0x20 DUP2 LT ISZERO PUSH2 0x102E JUMPI PUSH1 0x0 DUP1 REVERT JUMPDEST POP MLOAD PUSH1 0x70 PUSH4 0xFFFFFFFF DUP5 AND PUSH1 0x7 DUP2 LT PUSH2 0x1043 JUMPI INVALID JUMPDEST ADD SSTORE PUSH1 0x6B SLOAD PUSH1 0x40 DUP1 MLOAD PUSH4 0x966FF65 PUSH1 0xE4 SHL DUP2 MSTORE SWAP1 MLOAD PUSH1 0x1 PUSH1 0x1 PUSH1 0xA0 SHL SUB SWAP1 SWAP3 AND SWAP2 PUSH4 0x966FF650 SWAP2 PUSH1 0x4 DUP1 DUP3 ADD SWAP3 PUSH1 0x20 SWAP3 SWAP1 SWAP2 SWAP1 DUP3 SWAP1 SUB ADD DUP2 PUSH1 0x0 DUP8 DUP1 EXTCODESIZE ISZERO DUP1 ISZERO PUSH2 0x108C JUMPI PUSH1 0x0 DUP1 REVERT JUMPDEST POP GAS CALL ISZERO DUP1 ISZERO PUSH2 0x10A0 JUMPI RETURNDATASIZE PUSH1 0x0 DUP1 RETURNDATACOPY RETURNDATASIZE PUSH1 0x0 REVERT JUMPDEST POP POP POP POP PUSH1 0x40 MLOAD RETURNDATASIZE PUSH1 0x20 DUP2 LT ISZERO PUSH2 0x10B6 JUMPI PUSH1 0x0 DUP1 REVERT JUMPDEST POP MLOAD PUSH1 0x77 PUSH4 0xFFFFFFFF DUP5 AND PUSH1 0x7 DUP2 LT PUSH2 0x10CB JUMPI INVALID JUMPDEST ADD SSTORE PUSH1 0x0 PUSH2 0x1102 PUSH1 0x70 PUSH4 0xFFFFFFFF DUP5 AND PUSH1 0x7 DUP2 LT PUSH2 0x10E5 JUMPI INVALID JUMPDEST ADD SLOAD PUSH1 0x70 DUP6 PUSH4 0xFFFFFFFF AND PUSH1 0x7 DUP2 LT PUSH2 0x10FA JUMPI INVALID JUMPDEST ADD SLOAD SWAP1 PUSH2 0x1D90 JUMP JUMPDEST SWAP1 POP PUSH1 0x0 PUSH2 0x1131 PUSH1 0x77 DUP5 PUSH4 0xFFFFFFFF AND PUSH1 0x7 DUP2 LT PUSH2 0x111C JUMPI INVALID JUMPDEST ADD SLOAD PUSH1 0x77 DUP7 PUSH4 0xFFFFFFFF AND PUSH1 0x7 DUP2 LT PUSH2 0x10FA JUMPI INVALID JUMPDEST SWAP1 POP PUSH1 0x65 SLOAD PUSH1 0x0 EQ ISZERO PUSH2 0x114A JUMPI PUSH3 0xF4240 PUSH1 0x65 SSTORE PUSH2 0x115F JUMP JUMPDEST PUSH2 0x115B DUP3 PUSH2 0x66D DUP4 PUSH3 0xF4240 PUSH2 0x1C00 JUMP JUMPDEST PUSH1 0x65 SSTORE JUMPDEST PUSH1 0x66 DUP1 SLOAD PUSH8 0xFFFFFFFF00000000 NOT AND PUSH1 0x1 PUSH1 0x20 SHL PUSH4 0xFFFFFFFF DUP10 DUP2 AND DUP3 MUL SWAP3 SWAP1 SWAP3 OR PUSH4 0xFFFFFFFF NOT AND DUP7 DUP4 AND OR SWAP3 DUP4 SWAP1 SSTORE PUSH1 0x65 SLOAD PUSH1 0x40 DUP1 MLOAD SWAP2 DUP3 MSTORE PUSH1 0x20 DUP3 ADD DUP7 SWAP1 MSTORE DUP2 DUP2 ADD DUP8 SWAP1 MSTORE SWAP2 SWAP1 SWAP4 DIV DUP3 AND PUSH1 0x60 DUP5 ADD MSTORE SWAP1 DUP7 AND PUSH1 0x80 DUP4 ADD MSTORE MLOAD PUSH32 0xB5C9438F23A276E24F58B423B7B8322A09F4DCD8BE672DC0EC2C5F16EDF6844D SWAP2 PUSH1 0xA0 SWAP1 DUP3 SWAP1 SUB ADD SWAP1 LOG1 POP POP POP POP POP POP JUMP JUMPDEST PUSH2 0x11F6 PUSH2 0x1CC9 JUMP JUMPDEST PUSH1 0x1 PUSH1 0x1 PUSH1 0xA0 SHL SUB AND PUSH2 0x1207 PUSH2 0x9CA JUMP JUMPDEST PUSH1 0x1 PUSH1 0x1 PUSH1 0xA0 SHL SUB AND EQ PUSH2 0x1250 JUMPI PUSH1 0x40 DUP1 MLOAD PUSH3 0x461BCD PUSH1 0xE5 SHL DUP2 MSTORE PUSH1 0x20 PUSH1 0x4 DUP3 ADD DUP2 SWAP1 MSTORE PUSH1 0x24 DUP3 ADD MSTORE PUSH1 0x0 DUP1 MLOAD PUSH1 0x20 PUSH2 0x2549 DUP4 CODECOPY DUP2 MLOAD SWAP2 MSTORE PUSH1 0x44 DUP3 ADD MSTORE SWAP1 MLOAD SWAP1 DUP2 SWAP1 SUB PUSH1 0x64 ADD SWAP1 REVERT JUMPDEST PUSH1 0x1 PUSH1 0x1 PUSH1 0xA0 SHL SUB DUP2 AND PUSH2 0x1295 JUMPI PUSH1 0x40 MLOAD PUSH3 0x461BCD PUSH1 0xE5 SHL DUP2 MSTORE PUSH1 0x4 ADD DUP1 DUP1 PUSH1 0x20 ADD DUP3 DUP2 SUB DUP3 MSTORE PUSH1 0x26 DUP2 MSTORE PUSH1 0x20 ADD DUP1 PUSH2 0x243B PUSH1 0x26 SWAP2 CODECOPY PUSH1 0x40 ADD SWAP2 POP POP PUSH1 0x40 MLOAD DUP1 SWAP2 SUB SWAP1 REVERT JUMPDEST PUSH1 0x33 SLOAD PUSH1 0x40 MLOAD PUSH1 0x1 PUSH1 0x1 PUSH1 0xA0 SHL SUB DUP1 DUP5 AND SWAP3 AND SWAP1 PUSH32 0x8BE0079C531659141344CD1FD0A4F28419497F9722A3DAAFE3B4186F6B6457E0 SWAP1 PUSH1 0x0 SWAP1 LOG3 PUSH1 0x33 DUP1 SLOAD PUSH1 0x1 PUSH1 0x1 PUSH1 0xA0 SHL SUB NOT AND PUSH1 0x1 PUSH1 0x1 PUSH1 0xA0 SHL SUB SWAP3 SWAP1 SWAP3 AND SWAP2 SWAP1 SWAP2 OR SWAP1 SSTORE JUMP JUMPDEST PUSH4 0x5F5E100 SWAP1 JUMP JUMPDEST PUSH2 0x1301 PUSH2 0x1CC9 JUMP JUMPDEST PUSH1 0x1 PUSH1 0x1 PUSH1 0xA0 SHL SUB AND PUSH2 0x1312 PUSH2 0x9CA JUMP JUMPDEST PUSH1 0x1 PUSH1 0x1 PUSH1 0xA0 SHL SUB AND EQ PUSH2 0x135B JUMPI PUSH1 0x40 DUP1 MLOAD PUSH3 0x461BCD PUSH1 0xE5 SHL DUP2 MSTORE PUSH1 0x20 PUSH1 0x4 DUP3 ADD DUP2 SWAP1 MSTORE PUSH1 0x24 DUP3 ADD MSTORE PUSH1 0x0 DUP1 MLOAD PUSH1 0x20 PUSH2 0x2549 DUP4 CODECOPY DUP2 MLOAD SWAP2 MSTORE PUSH1 0x44 DUP3 ADD MSTORE SWAP1 MLOAD SWAP1 DUP2 SWAP1 SUB PUSH1 0x64 ADD SWAP1 REVERT JUMPDEST PUSH1 0x66 DUP1 SLOAD PUSH4 0xFFFFFFFF PUSH1 0x40 SHL NOT AND PUSH1 0x1 PUSH1 0x40 SHL PUSH4 0xFFFFFFFF DUP7 DUP2 AND DUP3 MUL SWAP3 SWAP1 SWAP3 OR PUSH4 0xFFFFFFFF PUSH1 0x60 SHL NOT AND PUSH1 0x1 PUSH1 0x60 SHL DUP7 DUP5 AND DUP2 MUL SWAP2 SWAP1 SWAP2 OR PUSH4 0xFFFFFFFF PUSH1 0x80 SHL NOT AND PUSH1 0x1 PUSH1 0x80 SHL DUP7 DUP6 AND DUP2 MUL SWAP2 SWAP1 SWAP2 OR SWAP5 DUP6 SWAP1 SSTORE PUSH1 0x40 DUP1 MLOAD SWAP4 DUP7 DIV DUP6 AND DUP5 MSTORE SWAP2 DUP6 DIV DUP5 AND PUSH1 0x20 DUP5 ADD MSTORE SWAP1 SWAP4 DIV SWAP1 SWAP2 AND DUP2 DUP4 ADD MSTORE SWAP1 MLOAD PUSH32 0xD36686E6B7C0D0F601CF866AB5A5DB598A9A4271B572401A988350DE35E38891 SWAP2 PUSH1 0x60 SWAP1 DUP3 SWAP1 SUB ADD SWAP1 LOG1 POP POP POP JUMP JUMPDEST PUSH1 0x0 DUP1 PUSH1 0x67 PUSH1 0x0 SWAP1 SLOAD SWAP1 PUSH2 0x100 EXP SWAP1 DIV PUSH1 0x1 PUSH1 0x1 PUSH1 0xA0 SHL SUB AND PUSH1 0x1 PUSH1 0x1 PUSH1 0xA0 SHL SUB AND PUSH4 0xFEAF968C PUSH1 0x40 MLOAD DUP2 PUSH4 0xFFFFFFFF AND PUSH1 0xE0 SHL DUP2 MSTORE PUSH1 0x4 ADD PUSH1 0xA0 PUSH1 0x40 MLOAD DUP1 DUP4 SUB DUP2 DUP7 DUP1 EXTCODESIZE ISZERO DUP1 ISZERO PUSH2 0x1452 JUMPI PUSH1 0x0 DUP1 REVERT JUMPDEST POP GAS STATICCALL ISZERO DUP1 ISZERO PUSH2 0x1466 JUMPI RETURNDATASIZE PUSH1 0x0 DUP1 RETURNDATACOPY RETURNDATASIZE PUSH1 0x0 REVERT JUMPDEST POP POP POP POP PUSH1 0x40 MLOAD RETURNDATASIZE PUSH1 0xA0 DUP2 LT ISZERO PUSH2 0x147C JUMPI PUSH1 0x0 DUP1 REVERT JUMPDEST POP PUSH1 0x20 ADD MLOAD SWAP2 POP POP SWAP1 JUMP JUMPDEST PUSH1 0x0 DUP1 PUSH1 0x0 DUP4 PUSH1 0x1 PUSH1 0x1 PUSH1 0xA0 SHL SUB AND PUSH4 0x3850C7BD PUSH1 0x40 MLOAD DUP2 PUSH4 0xFFFFFFFF AND PUSH1 0xE0 SHL DUP2 MSTORE PUSH1 0x4 ADD PUSH1 0xE0 PUSH1 0x40 MLOAD DUP1 DUP4 SUB DUP2 DUP7 DUP1 EXTCODESIZE ISZERO DUP1 ISZERO PUSH2 0x14C5 JUMPI PUSH1 0x0 DUP1 REVERT JUMPDEST POP GAS STATICCALL ISZERO DUP1 ISZERO PUSH2 0x14D9 JUMPI RETURNDATASIZE PUSH1 0x0 DUP1 RETURNDATACOPY RETURNDATASIZE PUSH1 0x0 REVERT JUMPDEST POP POP POP POP PUSH1 0x40 MLOAD RETURNDATASIZE PUSH1 0xE0 DUP2 LT ISZERO PUSH2 0x14EF JUMPI PUSH1 0x0 DUP1 REVERT JUMPDEST POP PUSH1 0x40 DUP2 ADD MLOAD PUSH1 0x60 SWAP1 SWAP2 ADD MLOAD SWAP1 SWAP3 POP SWAP1 POP PUSH2 0xFFFF DUP2 AND PUSH2 0x153B JUMPI PUSH1 0x40 DUP1 MLOAD PUSH3 0x461BCD PUSH1 0xE5 SHL DUP2 MSTORE PUSH1 0x20 PUSH1 0x4 DUP3 ADD MSTORE PUSH1 0x2 PUSH1 0x24 DUP3 ADD MSTORE PUSH2 0x4E49 PUSH1 0xF0 SHL PUSH1 0x44 DUP3 ADD MSTORE SWAP1 MLOAD SWAP1 DUP2 SWAP1 SUB PUSH1 0x64 ADD SWAP1 REVERT JUMPDEST PUSH1 0x0 DUP1 DUP6 PUSH1 0x1 PUSH1 0x1 PUSH1 0xA0 SHL SUB AND PUSH4 0x252C09D7 DUP5 PUSH2 0xFFFF AND DUP7 PUSH1 0x1 ADD PUSH2 0xFFFF AND DUP2 PUSH2 0x1561 JUMPI INVALID JUMPDEST MOD PUSH1 0x40 MLOAD DUP3 PUSH4 0xFFFFFFFF AND PUSH1 0xE0 SHL DUP2 MSTORE PUSH1 0x4 ADD DUP1 DUP3 PUSH2 0xFFFF AND DUP2 MSTORE PUSH1 0x20 ADD SWAP2 POP POP PUSH1 0x80 PUSH1 0x40 MLOAD DUP1 DUP4 SUB DUP2 DUP7 DUP1 EXTCODESIZE ISZERO DUP1 ISZERO PUSH2 0x159A JUMPI PUSH1 0x0 DUP1 REVERT JUMPDEST POP GAS STATICCALL ISZERO DUP1 ISZERO PUSH2 0x15AE JUMPI RETURNDATASIZE PUSH1 0x0 DUP1 RETURNDATACOPY RETURNDATASIZE PUSH1 0x0 REVERT JUMPDEST POP POP POP POP PUSH1 0x40 MLOAD RETURNDATASIZE PUSH1 0x80 DUP2 LT ISZERO PUSH2 0x15C4 JUMPI PUSH1 0x0 DUP1 REVERT JUMPDEST POP DUP1 MLOAD PUSH1 0x60 SWAP1 SWAP2 ADD MLOAD SWAP1 SWAP3 POP SWAP1 POP DUP1 PUSH2 0x164B JUMPI DUP6 PUSH1 0x1 PUSH1 0x1 PUSH1 0xA0 SHL SUB AND PUSH4 0x252C09D7 PUSH1 0x0 PUSH1 0x40 MLOAD DUP3 PUSH4 0xFFFFFFFF AND PUSH1 0xE0 SHL DUP2 MSTORE PUSH1 0x4 ADD DUP1 DUP3 DUP2 MSTORE PUSH1 0x20 ADD SWAP2 POP POP PUSH1 0x80 PUSH1 0x40 MLOAD DUP1 DUP4 SUB DUP2 DUP7 DUP1 EXTCODESIZE ISZERO DUP1 ISZERO PUSH2 0x161C JUMPI PUSH1 0x0 DUP1 REVERT JUMPDEST POP GAS STATICCALL ISZERO DUP1 ISZERO PUSH2 0x1630 JUMPI RETURNDATASIZE PUSH1 0x0 DUP1 RETURNDATACOPY RETURNDATASIZE PUSH1 0x0 REVERT JUMPDEST POP POP POP POP PUSH1 0x40 MLOAD RETURNDATASIZE PUSH1 0x80 DUP2 LT ISZERO PUSH2 0x1646 JUMPI PUSH1 0x0 DUP1 REVERT JUMPDEST POP MLOAD SWAP2 POP JUMPDEST POP TIMESTAMP SUB SWAP5 SWAP4 POP POP POP POP JUMP JUMPDEST PUSH1 0x0 PUSH4 0xFFFFFFFF DUP3 AND PUSH2 0x1695 JUMPI PUSH1 0x40 DUP1 MLOAD PUSH3 0x461BCD PUSH1 0xE5 SHL DUP2 MSTORE PUSH1 0x20 PUSH1 0x4 DUP3 ADD MSTORE PUSH1 0x2 PUSH1 0x24 DUP3 ADD MSTORE PUSH2 0x425 PUSH1 0xF4 SHL PUSH1 0x44 DUP3 ADD MSTORE SWAP1 MLOAD SWAP1 DUP2 SWAP1 SUB PUSH1 0x64 ADD SWAP1 REVERT JUMPDEST PUSH1 0x40 DUP1 MLOAD PUSH1 0x2 DUP1 DUP3 MSTORE PUSH1 0x60 DUP1 DUP4 ADD DUP5 MSTORE SWAP3 PUSH1 0x20 DUP4 ADD SWAP1 DUP1 CALLDATASIZE DUP4 CALLDATACOPY ADD SWAP1 POP POP SWAP1 POP DUP3 DUP2 PUSH1 0x0 DUP2 MLOAD DUP2 LT PUSH2 0x16C3 JUMPI INVALID JUMPDEST PUSH1 0x20 MUL PUSH1 0x20 ADD ADD SWAP1 PUSH4 0xFFFFFFFF AND SWAP1 DUP2 PUSH4 0xFFFFFFFF AND DUP2 MSTORE POP POP PUSH1 0x0 DUP2 PUSH1 0x1 DUP2 MLOAD DUP2 LT PUSH2 0x16EC JUMPI INVALID JUMPDEST PUSH4 0xFFFFFFFF SWAP1 SWAP3 AND PUSH1 0x20 SWAP3 DUP4 MUL SWAP2 SWAP1 SWAP2 ADD DUP3 ADD MSTORE PUSH1 0x40 MLOAD PUSH4 0x883BDBFD PUSH1 0xE0 SHL DUP2 MSTORE PUSH1 0x4 DUP2 ADD DUP3 DUP2 MSTORE DUP4 MLOAD PUSH1 0x24 DUP4 ADD MSTORE DUP4 MLOAD PUSH1 0x60 SWAP4 PUSH1 0x1 PUSH1 0x1 PUSH1 0xA0 SHL SUB DUP10 AND SWAP4 PUSH4 0x883BDBFD SWAP4 DUP8 SWAP4 SWAP1 SWAP3 DUP4 SWAP3 PUSH1 0x44 ADD SWAP2 DUP6 DUP3 ADD SWAP2 MUL DUP1 DUP4 DUP4 PUSH1 0x0 JUMPDEST DUP4 DUP2 LT ISZERO PUSH2 0x175E JUMPI DUP2 DUP2 ADD MLOAD DUP4 DUP3 ADD MSTORE PUSH1 0x20 ADD PUSH2 0x1746 JUMP JUMPDEST POP POP POP POP SWAP1 POP ADD SWAP3 POP POP POP PUSH1 0x0 PUSH1 0x40 MLOAD DUP1 DUP4 SUB DUP2 DUP7 DUP1 EXTCODESIZE ISZERO DUP1 ISZERO PUSH2 0x1781 JUMPI PUSH1 0x0 DUP1 REVERT JUMPDEST POP GAS STATICCALL ISZERO DUP1 ISZERO PUSH2 0x1795 JUMPI RETURNDATASIZE PUSH1 0x0 DUP1 RETURNDATACOPY RETURNDATASIZE PUSH1 0x0 REVERT JUMPDEST POP POP POP POP PUSH1 0x40 MLOAD RETURNDATASIZE PUSH1 0x0 DUP3 RETURNDATACOPY PUSH1 0x1F RETURNDATASIZE SWAP1 DUP2 ADD PUSH1 0x1F NOT AND DUP3 ADD PUSH1 0x40 SWAP1 DUP2 MSTORE DUP2 LT ISZERO PUSH2 0x17BE JUMPI PUSH1 0x0 DUP1 REVERT JUMPDEST DUP2 ADD SWAP1 DUP1 DUP1 MLOAD PUSH1 0x40 MLOAD SWAP4 SWAP3 SWAP2 SWAP1 DUP5 PUSH1 0x1 PUSH1 0x20 SHL DUP3 GT ISZERO PUSH2 0x17DD JUMPI PUSH1 0x0 DUP1 REVERT JUMPDEST SWAP1 DUP4 ADD SWAP1 PUSH1 0x20 DUP3 ADD DUP6 DUP2 GT ISZERO PUSH2 0x17F2 JUMPI PUSH1 0x0 DUP1 REVERT JUMPDEST DUP3 MLOAD DUP7 PUSH1 0x20 DUP3 MUL DUP4 ADD GT PUSH1 0x1 PUSH1 0x20 SHL DUP3 GT OR ISZERO PUSH2 0x180E JUMPI PUSH1 0x0 DUP1 REVERT JUMPDEST DUP3 MSTORE POP DUP2 MLOAD PUSH1 0x20 SWAP2 DUP3 ADD SWAP3 DUP3 ADD SWAP2 MUL DUP1 DUP4 DUP4 PUSH1 0x0 JUMPDEST DUP4 DUP2 LT ISZERO PUSH2 0x183B JUMPI DUP2 DUP2 ADD MLOAD DUP4 DUP3 ADD MSTORE PUSH1 0x20 ADD PUSH2 0x1823 JUMP JUMPDEST POP POP POP POP SWAP1 POP ADD PUSH1 0x40 MSTORE PUSH1 0x20 ADD DUP1 MLOAD PUSH1 0x40 MLOAD SWAP4 SWAP3 SWAP2 SWAP1 DUP5 PUSH1 0x1 PUSH1 0x20 SHL DUP3 GT ISZERO PUSH2 0x1863 JUMPI PUSH1 0x0 DUP1 REVERT JUMPDEST SWAP1 DUP4 ADD SWAP1 PUSH1 0x20 DUP3 ADD DUP6 DUP2 GT ISZERO PUSH2 0x1878 JUMPI PUSH1 0x0 DUP1 REVERT JUMPDEST DUP3 MLOAD DUP7 PUSH1 0x20 DUP3 MUL DUP4 ADD GT PUSH1 0x1 PUSH1 0x20 SHL DUP3 GT OR ISZERO PUSH2 0x1894 JUMPI PUSH1 0x0 DUP1 REVERT JUMPDEST DUP3 MSTORE POP DUP2 MLOAD PUSH1 0x20 SWAP2 DUP3 ADD SWAP3 DUP3 ADD SWAP2 MUL DUP1 DUP4 DUP4 PUSH1 0x0 JUMPDEST DUP4 DUP2 LT ISZERO PUSH2 0x18C1 JUMPI DUP2 DUP2 ADD MLOAD DUP4 DUP3 ADD MSTORE PUSH1 0x20 ADD PUSH2 0x18A9 JUMP JUMPDEST POP POP POP POP SWAP1 POP ADD PUSH1 0x40 MSTORE POP POP POP POP SWAP1 POP PUSH1 0x0 DUP2 PUSH1 0x0 DUP2 MLOAD DUP2 LT PUSH2 0x18E0 JUMPI INVALID JUMPDEST PUSH1 0x20 MUL PUSH1 0x20 ADD ADD MLOAD DUP3 PUSH1 0x1 DUP2 MLOAD DUP2 LT PUSH2 0x18F5 JUMPI INVALID JUMPDEST PUSH1 0x20 MUL PUSH1 0x20 ADD ADD MLOAD SUB SWAP1 POP DUP5 PUSH4 0xFFFFFFFF AND DUP2 PUSH1 0x6 SIGNEXTEND DUP2 PUSH2 0x1912 JUMPI INVALID JUMPDEST SDIV SWAP4 POP PUSH1 0x0 DUP2 PUSH1 0x6 SIGNEXTEND SLT DUP1 ISZERO PUSH2 0x193C JUMPI POP DUP5 PUSH4 0xFFFFFFFF AND DUP2 PUSH1 0x6 SIGNEXTEND DUP2 PUSH2 0x1935 JUMPI INVALID JUMPDEST SMOD PUSH1 0x6 SIGNEXTEND ISZERO ISZERO JUMPDEST ISZERO PUSH2 0x1949 JUMPI PUSH1 0x0 NOT SWAP1 SWAP4 ADD SWAP3 JUMPDEST POP POP POP SWAP3 SWAP2 POP POP JUMP JUMPDEST PUSH1 0x0 DUP1 PUSH2 0x195E DUP7 PUSH2 0x1DED JUMP JUMPDEST SWAP1 POP PUSH1 0x1 PUSH1 0x1 PUSH1 0x80 SHL SUB PUSH1 0x1 PUSH1 0x1 PUSH1 0xA0 SHL SUB DUP3 AND GT PUSH2 0x19CD JUMPI PUSH1 0x1 PUSH1 0x1 PUSH1 0xA0 SHL SUB DUP1 DUP3 AND DUP1 MUL SWAP1 DUP5 DUP2 AND SWAP1 DUP7 AND LT PUSH2 0x19AD JUMPI PUSH2 0x19A8 PUSH1 0x1 PUSH1 0xC0 SHL DUP8 PUSH1 0x1 PUSH1 0x1 PUSH1 0x80 SHL SUB AND DUP4 PUSH2 0x211E JUMP JUMPDEST PUSH2 0x19C5 JUMP JUMPDEST PUSH2 0x19C5 DUP2 DUP8 PUSH1 0x1 PUSH1 0x1 PUSH1 0x80 SHL SUB AND PUSH1 0x1 PUSH1 0xC0 SHL PUSH2 0x211E JUMP JUMPDEST SWAP3 POP POP PUSH2 0x1A3B JUMP JUMPDEST PUSH1 0x0 PUSH2 0x19E7 PUSH1 0x1 PUSH1 0x1 PUSH1 0xA0 SHL SUB DUP4 AND DUP1 PUSH1 0x1 PUSH1 0x40 SHL PUSH2 0x211E JUMP JUMPDEST SWAP1 POP DUP4 PUSH1 0x1 PUSH1 0x1 PUSH1 0xA0 SHL SUB AND DUP6 PUSH1 0x1 PUSH1 0x1 PUSH1 0xA0 SHL SUB AND LT PUSH2 0x1A1F JUMPI PUSH2 0x1A1A PUSH1 0x1 PUSH1 0x80 SHL DUP8 PUSH1 0x1 PUSH1 0x1 PUSH1 0x80 SHL SUB AND DUP4 PUSH2 0x211E JUMP JUMPDEST PUSH2 0x1A37 JUMP JUMPDEST PUSH2 0x1A37 DUP2 DUP8 PUSH1 0x1 PUSH1 0x1 PUSH1 0x80 SHL SUB AND PUSH1 0x1 PUSH1 0x80 SHL PUSH2 0x211E JUMP JUMPDEST SWAP3 POP POP JUMPDEST POP SWAP5 SWAP4 POP POP POP POP JUMP JUMPDEST PUSH1 0x0 PUSH2 0x1A4E PUSH2 0x2413 JUMP JUMPDEST POP PUSH1 0x1 PUSH1 0x1 PUSH1 0xA0 SHL SUB DUP3 DUP2 AND PUSH1 0x0 SWAP1 DUP2 MSTORE PUSH1 0x7E PUSH1 0x20 SWAP1 DUP2 MSTORE PUSH1 0x40 SWAP2 DUP3 SWAP1 KECCAK256 DUP3 MLOAD PUSH1 0x80 DUP2 ADD DUP5 MSTORE DUP2 SLOAD DUP1 DUP7 AND DUP3 MSTORE PUSH1 0x1 PUSH1 0xA0 SHL SWAP1 DIV PUSH1 0xFF AND ISZERO ISZERO SWAP3 DUP2 ADD DUP4 SWAP1 MSTORE PUSH1 0x1 DUP3 ADD SLOAD SWAP1 SWAP5 AND SWAP3 DUP5 ADD SWAP3 SWAP1 SWAP3 MSTORE PUSH1 0x2 SWAP1 SWAP2 ADD SLOAD PUSH1 0x60 DUP4 ADD MSTORE PUSH2 0x1AE2 JUMPI PUSH1 0x40 MLOAD PUSH3 0x461BCD PUSH1 0xE5 SHL DUP2 MSTORE PUSH1 0x4 ADD DUP1 DUP1 PUSH1 0x20 ADD DUP3 DUP2 SUB DUP3 MSTORE PUSH1 0x33 DUP2 MSTORE PUSH1 0x20 ADD DUP1 PUSH2 0x2569 PUSH1 0x33 SWAP2 CODECOPY PUSH1 0x40 ADD SWAP2 POP POP PUSH1 0x40 MLOAD DUP1 SWAP2 SUB SWAP1 REVERT JUMPDEST PUSH1 0x60 ADD MLOAD SWAP3 SWAP2 POP POP JUMP JUMPDEST PUSH1 0x0 PUSH2 0x1AF6 PUSH2 0x2413 JUMP JUMPDEST POP PUSH1 0x1 PUSH1 0x1 PUSH1 0xA0 SHL SUB DUP3 DUP2 AND PUSH1 0x0 SWAP1 DUP2 MSTORE PUSH1 0x7E PUSH1 0x20 SWAP1 DUP2 MSTORE PUSH1 0x40 SWAP2 DUP3 SWAP1 KECCAK256 DUP3 MLOAD PUSH1 0x80 DUP2 ADD DUP5 MSTORE DUP2 SLOAD DUP1 DUP7 AND DUP3 MSTORE PUSH1 0x1 PUSH1 0xA0 SHL SWAP1 DIV PUSH1 0xFF AND ISZERO ISZERO SWAP3 DUP2 ADD DUP4 SWAP1 MSTORE PUSH1 0x1 DUP3 ADD SLOAD SWAP1 SWAP5 AND SWAP3 DUP5 ADD SWAP3 SWAP1 SWAP3 MSTORE PUSH1 0x2 SWAP1 SWAP2 ADD SLOAD PUSH1 0x60 DUP4 ADD MSTORE PUSH2 0x1B8A JUMPI PUSH1 0x40 MLOAD PUSH3 0x461BCD PUSH1 0xE5 SHL DUP2 MSTORE PUSH1 0x4 ADD DUP1 DUP1 PUSH1 0x20 ADD DUP3 DUP2 SUB DUP3 MSTORE PUSH1 0x2E DUP2 MSTORE PUSH1 0x20 ADD DUP1 PUSH2 0x25CC PUSH1 0x2E SWAP2 CODECOPY PUSH1 0x40 ADD SWAP2 POP POP PUSH1 0x40 MLOAD DUP1 SWAP2 SUB SWAP1 REVERT JUMPDEST PUSH1 0x0 DUP2 PUSH1 0x40 ADD MLOAD PUSH1 0x1 PUSH1 0x1 PUSH1 0xA0 SHL SUB AND PUSH4 0xFEAF968C PUSH1 0x40 MLOAD DUP2 PUSH4 0xFFFFFFFF AND PUSH1 0xE0 SHL DUP2 MSTORE PUSH1 0x4 ADD PUSH1 0xA0 PUSH1 0x40 MLOAD DUP1 DUP4 SUB DUP2 DUP7 DUP1 EXTCODESIZE ISZERO DUP1 ISZERO PUSH2 0x1BC9 JUMPI PUSH1 0x0 DUP1 REVERT JUMPDEST POP GAS STATICCALL ISZERO DUP1 ISZERO PUSH2 0x1BDD JUMPI RETURNDATASIZE PUSH1 0x0 DUP1 RETURNDATACOPY RETURNDATASIZE PUSH1 0x0 REVERT JUMPDEST POP POP POP POP PUSH1 0x40 MLOAD RETURNDATASIZE PUSH1 0xA0 DUP2 LT ISZERO PUSH2 0x1BF3 JUMPI PUSH1 0x0 DUP1 REVERT JUMPDEST POP PUSH1 0x20 ADD MLOAD SWAP5 SWAP4 POP POP POP POP JUMP JUMPDEST PUSH1 0x0 DUP3 PUSH2 0x1C0F JUMPI POP PUSH1 0x0 PUSH2 0x1C5C JUMP JUMPDEST DUP3 DUP3 MUL DUP3 DUP5 DUP3 DUP2 PUSH2 0x1C1C JUMPI INVALID JUMPDEST DIV EQ PUSH2 0x1C59 JUMPI PUSH1 0x40 MLOAD PUSH3 0x461BCD PUSH1 0xE5 SHL DUP2 MSTORE PUSH1 0x4 ADD DUP1 DUP1 PUSH1 0x20 ADD DUP3 DUP2 SUB DUP3 MSTORE PUSH1 0x21 DUP2 MSTORE PUSH1 0x20 ADD DUP1 PUSH2 0x2528 PUSH1 0x21 SWAP2 CODECOPY PUSH1 0x40 ADD SWAP2 POP POP PUSH1 0x40 MLOAD DUP1 SWAP2 SUB SWAP1 REVERT JUMPDEST SWAP1 POP JUMPDEST SWAP3 SWAP2 POP POP JUMP JUMPDEST PUSH1 0x0 DUP1 DUP3 GT PUSH2 0x1CB8 JUMPI PUSH1 0x40 DUP1 MLOAD PUSH3 0x461BCD PUSH1 0xE5 SHL DUP2 MSTORE PUSH1 0x20 PUSH1 0x4 DUP3 ADD MSTORE PUSH1 0x1A PUSH1 0x24 DUP3 ADD MSTORE PUSH32 0x536166654D6174683A206469766973696F6E206279207A65726F000000000000 PUSH1 0x44 DUP3 ADD MSTORE SWAP1 MLOAD SWAP1 DUP2 SWAP1 SUB PUSH1 0x64 ADD SWAP1 REVERT JUMPDEST DUP2 DUP4 DUP2 PUSH2 0x1CC1 JUMPI INVALID JUMPDEST DIV SWAP4 SWAP3 POP POP POP JUMP JUMPDEST CALLER SWAP1 JUMP JUMPDEST PUSH1 0x0 PUSH2 0x1CD8 ADDRESS PUSH2 0x21D7 JUMP JUMPDEST ISZERO SWAP1 POP SWAP1 JUMP JUMPDEST PUSH1 0x0 SLOAD PUSH2 0x100 SWAP1 DIV PUSH1 0xFF AND DUP1 PUSH2 0x1CF7 JUMPI POP PUSH2 0x1CF7 PUSH2 0x1CCD JUMP JUMPDEST DUP1 PUSH2 0x1D05 JUMPI POP PUSH1 0x0 SLOAD PUSH1 0xFF AND ISZERO JUMPDEST PUSH2 0x1D40 JUMPI PUSH1 0x40 MLOAD PUSH3 0x461BCD PUSH1 0xE5 SHL DUP2 MSTORE PUSH1 0x4 ADD DUP1 DUP1 PUSH1 0x20 ADD DUP3 DUP2 SUB DUP3 MSTORE PUSH1 0x2E DUP2 MSTORE PUSH1 0x20 ADD DUP1 PUSH2 0x24C0 PUSH1 0x2E SWAP2 CODECOPY PUSH1 0x40 ADD SWAP2 POP POP PUSH1 0x40 MLOAD DUP1 SWAP2 SUB SWAP1 REVERT JUMPDEST PUSH1 0x0 SLOAD PUSH2 0x100 SWAP1 DIV PUSH1 0xFF AND ISZERO DUP1 ISZERO PUSH2 0x1D6B JUMPI PUSH1 0x0 DUP1 SLOAD PUSH1 0xFF NOT PUSH2 0xFF00 NOT SWAP1 SWAP2 AND PUSH2 0x100 OR AND PUSH1 0x1 OR SWAP1 SSTORE JUMPDEST PUSH2 0x1D73 PUSH2 0x21DD JUMP JUMPDEST PUSH2 0x1D7B PUSH2 0x227D JUMP JUMPDEST DUP1 ISZERO PUSH2 0x1D8D JUMPI PUSH1 0x0 DUP1 SLOAD PUSH2 0xFF00 NOT AND SWAP1 SSTORE JUMPDEST POP JUMP JUMPDEST PUSH1 0x0 DUP3 DUP3 GT ISZERO PUSH2 0x1DE7 JUMPI PUSH1 0x40 DUP1 MLOAD PUSH3 0x461BCD PUSH1 0xE5 SHL DUP2 MSTORE PUSH1 0x20 PUSH1 0x4 DUP3 ADD MSTORE PUSH1 0x1E PUSH1 0x24 DUP3 ADD MSTORE PUSH32 0x536166654D6174683A207375627472616374696F6E206F766572666C6F770000 PUSH1 0x44 DUP3 ADD MSTORE SWAP1 MLOAD SWAP1 DUP2 SWAP1 SUB PUSH1 0x64 ADD SWAP1 REVERT JUMPDEST POP SWAP1 SUB SWAP1 JUMP JUMPDEST PUSH1 0x0 DUP1 PUSH1 0x0 DUP4 PUSH1 0x2 SIGNEXTEND SLT PUSH2 0x1E04 JUMPI DUP3 PUSH1 0x2 SIGNEXTEND PUSH2 0x1E0C JUMP JUMPDEST DUP3 PUSH1 0x2 SIGNEXTEND PUSH1 0x0 SUB JUMPDEST SWAP1 POP PUSH3 0xD89E8 DUP2 GT ISZERO PUSH2 0x1E4A JUMPI PUSH1 0x40 DUP1 MLOAD PUSH3 0x461BCD PUSH1 0xE5 SHL DUP2 MSTORE PUSH1 0x20 PUSH1 0x4 DUP3 ADD MSTORE PUSH1 0x1 PUSH1 0x24 DUP3 ADD MSTORE PUSH1 0x15 PUSH1 0xFA SHL PUSH1 0x44 DUP3 ADD MSTORE SWAP1 MLOAD SWAP1 DUP2 SWAP1 SUB PUSH1 0x64 ADD SWAP1 REVERT JUMPDEST PUSH1 0x0 PUSH1 0x1 DUP3 AND PUSH2 0x1E5E JUMPI PUSH1 0x1 PUSH1 0x80 SHL PUSH2 0x1E70 JUMP JUMPDEST PUSH16 0xFFFCB933BD6FAD37AA2D162D1A594001 JUMPDEST PUSH17 0xFFFFFFFFFFFFFFFFFFFFFFFFFFFFFFFFFF AND SWAP1 POP PUSH1 0x2 DUP3 AND ISZERO PUSH2 0x1EA4 JUMPI PUSH16 0xFFF97272373D413259A46990580E213A MUL PUSH1 0x80 SHR JUMPDEST PUSH1 0x4 DUP3 AND ISZERO PUSH2 0x1EC3 JUMPI PUSH16 0xFFF2E50F5F656932EF12357CF3C7FDCC MUL PUSH1 0x80 SHR JUMPDEST PUSH1 0x8 DUP3 AND ISZERO PUSH2 0x1EE2 JUMPI PUSH16 0xFFE5CACA7E10E4E61C3624EAA0941CD0 MUL PUSH1 0x80 SHR JUMPDEST PUSH1 0x10 DUP3 AND ISZERO PUSH2 0x1F01 JUMPI PUSH16 0xFFCB9843D60F6159C9DB58835C926644 MUL PUSH1 0x80 SHR JUMPDEST PUSH1 0x20 DUP3 AND ISZERO PUSH2 0x1F20 JUMPI PUSH16 0xFF973B41FA98C081472E6896DFB254C0 MUL PUSH1 0x80 SHR JUMPDEST PUSH1 0x40 DUP3 AND ISZERO PUSH2 0x1F3F JUMPI PUSH16 0xFF2EA16466C96A3843EC78B326B52861 MUL PUSH1 0x80 SHR JUMPDEST PUSH1 0x80 DUP3 AND ISZERO PUSH2 0x1F5E JUMPI PUSH16 0xFE5DEE046A99A2A811C461F1969C3053 MUL PUSH1 0x80 SHR JUMPDEST PUSH2 0x100 DUP3 AND ISZERO PUSH2 0x1F7E JUMPI PUSH16 0xFCBE86C7900A88AEDCFFC83B479AA3A4 MUL PUSH1 0x80 SHR JUMPDEST PUSH2 0x200 DUP3 AND ISZERO PUSH2 0x1F9E JUMPI PUSH16 0xF987A7253AC413176F2B074CF7815E54 MUL PUSH1 0x80 SHR JUMPDEST PUSH2 0x400 DUP3 AND ISZERO PUSH2 0x1FBE JUMPI PUSH16 0xF3392B0822B70005940C7A398E4B70F3 MUL PUSH1 0x80 SHR JUMPDEST PUSH2 0x800 DUP3 AND ISZERO PUSH2 0x1FDE JUMPI PUSH16 0xE7159475A2C29B7443B29C7FA6E889D9 MUL PUSH1 0x80 SHR JUMPDEST PUSH2 0x1000 DUP3 AND ISZERO PUSH2 0x1FFE JUMPI PUSH16 0xD097F3BDFD2022B8845AD8F792AA5825 MUL PUSH1 0x80 SHR JUMPDEST PUSH2 0x2000 DUP3 AND ISZERO PUSH2 0x201E JUMPI PUSH16 0xA9F746462D870FDF8A65DC1F90E061E5 MUL PUSH1 0x80 SHR JUMPDEST PUSH2 0x4000 DUP3 AND ISZERO PUSH2 0x203E JUMPI PUSH16 0x70D869A156D2A1B890BB3DF62BAF32F7 MUL PUSH1 0x80 SHR JUMPDEST PUSH2 0x8000 DUP3 AND ISZERO PUSH2 0x205E JUMPI PUSH16 0x31BE135F97D08FD981231505542FCFA6 MUL PUSH1 0x80 SHR JUMPDEST PUSH3 0x10000 DUP3 AND ISZERO PUSH2 0x207F JUMPI PUSH16 0x9AA508B5B7A84E1C677DE54F3E99BC9 MUL PUSH1 0x80 SHR JUMPDEST PUSH3 0x20000 DUP3 AND ISZERO PUSH2 0x209F JUMPI PUSH15 0x5D6AF8DEDB81196699C329225EE604 MUL PUSH1 0x80 SHR JUMPDEST PUSH3 0x40000 DUP3 AND ISZERO PUSH2 0x20BE JUMPI PUSH14 0x2216E584F5FA1EA926041BEDFE98 MUL PUSH1 0x80 SHR JUMPDEST PUSH3 0x80000 DUP3 AND ISZERO PUSH2 0x20DB JUMPI PUSH12 0x48A170391F7DC42444E8FA2 MUL PUSH1 0x80 SHR JUMPDEST PUSH1 0x0 DUP5 PUSH1 0x2 SIGNEXTEND SGT ISZERO PUSH2 0x20F6 JUMPI DUP1 PUSH1 0x0 NOT DUP2 PUSH2 0x20F2 JUMPI INVALID JUMPDEST DIV SWAP1 POP JUMPDEST PUSH1 0x1 PUSH1 0x20 SHL DUP2 MOD ISZERO PUSH2 0x2109 JUMPI PUSH1 0x1 PUSH2 0x210C JUMP JUMPDEST PUSH1 0x0 JUMPDEST PUSH1 0xFF AND PUSH1 0x20 DUP3 SWAP1 SHR ADD SWAP3 POP POP POP SWAP2 SWAP1 POP JUMP JUMPDEST PUSH1 0x0 DUP1 PUSH1 0x0 PUSH2 0x212D DUP7 DUP7 PUSH2 0x2376 JUMP JUMPDEST SWAP2 POP SWAP2 POP PUSH1 0x0 DUP5 DUP1 PUSH2 0x213B JUMPI INVALID JUMPDEST DUP7 DUP9 MULMOD SWAP1 POP DUP3 DUP2 GT ISZERO PUSH2 0x214F JUMPI PUSH1 0x1 DUP3 SUB SWAP2 POP JUMPDEST SWAP2 DUP3 SWAP1 SUB SWAP2 DUP2 PUSH2 0x216D JUMPI DUP5 DUP4 DUP2 PUSH2 0x2162 JUMPI INVALID JUMPDEST DIV SWAP4 POP POP POP POP PUSH2 0x758 JUMP JUMPDEST DUP5 DUP3 LT PUSH2 0x21C1 JUMPI PUSH1 0x40 DUP1 MLOAD PUSH3 0x461BCD PUSH1 0xE5 SHL DUP2 MSTORE PUSH1 0x20 PUSH1 0x4 DUP3 ADD MSTORE PUSH1 0x1A PUSH1 0x24 DUP3 ADD MSTORE PUSH32 0x46756C6C4D6174683A2046554C4C4449565F4F564552464C4F57000000000000 PUSH1 0x44 DUP3 ADD MSTORE SWAP1 MLOAD SWAP1 DUP2 SWAP1 SUB PUSH1 0x64 ADD SWAP1 REVERT JUMPDEST PUSH2 0x21CC DUP4 DUP4 DUP8 PUSH2 0x23A3 JUMP JUMPDEST SWAP8 SWAP7 POP POP POP POP POP POP POP JUMP JUMPDEST EXTCODESIZE ISZERO ISZERO SWAP1 JUMP JUMPDEST PUSH1 0x0 SLOAD PUSH2 0x100 SWAP1 DIV PUSH1 0xFF AND DUP1 PUSH2 0x21F6 JUMPI POP PUSH2 0x21F6 PUSH2 0x1CCD JUMP JUMPDEST DUP1 PUSH2 0x2204 JUMPI POP PUSH1 0x0 SLOAD PUSH1 0xFF AND ISZERO JUMPDEST PUSH2 0x223F JUMPI PUSH1 0x40 MLOAD PUSH3 0x461BCD PUSH1 0xE5 SHL DUP2 MSTORE PUSH1 0x4 ADD DUP1 DUP1 PUSH1 0x20 ADD DUP3 DUP2 SUB DUP3 MSTORE PUSH1 0x2E DUP2 MSTORE PUSH1 0x20 ADD DUP1 PUSH2 0x24C0 PUSH1 0x2E SWAP2 CODECOPY PUSH1 0x40 ADD SWAP2 POP POP PUSH1 0x40 MLOAD DUP1 SWAP2 SUB SWAP1 REVERT JUMPDEST PUSH1 0x0 SLOAD PUSH2 0x100 SWAP1 DIV PUSH1 0xFF AND ISZERO DUP1 ISZERO PUSH2 0x1D7B JUMPI PUSH1 0x0 DUP1 SLOAD PUSH1 0xFF NOT PUSH2 0xFF00 NOT SWAP1 SWAP2 AND PUSH2 0x100 OR AND PUSH1 0x1 OR SWAP1 SSTORE DUP1 ISZERO PUSH2 0x1D8D JUMPI PUSH1 0x0 DUP1 SLOAD PUSH2 0xFF00 NOT AND SWAP1 SSTORE POP JUMP JUMPDEST PUSH1 0x0 SLOAD PUSH2 0x100 SWAP1 DIV PUSH1 0xFF AND DUP1 PUSH2 0x2296 JUMPI POP PUSH2 0x2296 PUSH2 0x1CCD JUMP JUMPDEST DUP1 PUSH2 0x22A4 JUMPI POP PUSH1 0x0 SLOAD PUSH1 0xFF AND ISZERO JUMPDEST PUSH2 0x22DF JUMPI PUSH1 0x40 MLOAD PUSH3 0x461BCD PUSH1 0xE5 SHL DUP2 MSTORE PUSH1 0x4 ADD DUP1 DUP1 PUSH1 0x20 ADD DUP3 DUP2 SUB DUP3 MSTORE PUSH1 0x2E DUP2 MSTORE PUSH1 0x20 ADD DUP1 PUSH2 0x24C0 PUSH1 0x2E SWAP2 CODECOPY PUSH1 0x40 ADD SWAP2 POP POP PUSH1 0x40 MLOAD DUP1 SWAP2 SUB SWAP1 REVERT JUMPDEST PUSH1 0x0 SLOAD PUSH2 0x100 SWAP1 DIV PUSH1 0xFF AND ISZERO DUP1 ISZERO PUSH2 0x230A JUMPI PUSH1 0x0 DUP1 SLOAD PUSH1 0xFF NOT PUSH2 0xFF00 NOT SWAP1 SWAP2 AND PUSH2 0x100 OR AND PUSH1 0x1 OR SWAP1 SSTORE JUMPDEST PUSH1 0x0 PUSH2 0x2314 PUSH2 0x1CC9 JUMP JUMPDEST PUSH1 0x33 DUP1 SLOAD PUSH1 0x1 PUSH1 0x1 PUSH1 0xA0 SHL SUB NOT AND PUSH1 0x1 PUSH1 0x1 PUSH1 0xA0 SHL SUB DUP4 AND SWAP1 DUP2 OR SWAP1 SWAP2 SSTORE PUSH1 0x40 MLOAD SWAP2 SWAP3 POP SWAP1 PUSH1 0x0 SWAP1 PUSH32 0x8BE0079C531659141344CD1FD0A4F28419497F9722A3DAAFE3B4186F6B6457E0 SWAP1 DUP3 SWAP1 LOG3 POP DUP1 ISZERO PUSH2 0x1D8D JUMPI PUSH1 0x0 DUP1 SLOAD PUSH2 0xFF00 NOT AND SWAP1 SSTORE POP JUMP JUMPDEST PUSH1 0x0 DUP1 DUP1 PUSH1 0x0 NOT DUP5 DUP7 MULMOD SWAP1 POP DUP4 DUP6 MUL SWAP3 POP DUP3 DUP2 SUB SWAP2 POP DUP3 DUP2 LT ISZERO PUSH2 0x239B JUMPI PUSH1 0x1 DUP3 SUB SWAP2 POP JUMPDEST POP SWAP3 POP SWAP3 SWAP1 POP JUMP JUMPDEST PUSH1 0x0 DUP2 DUP2 SUB DUP3 AND DUP1 DUP4 DUP2 PUSH2 0x23B3 JUMPI INVALID JUMPDEST DIV SWAP3 POP DUP1 DUP6 DUP2 PUSH2 0x23BF JUMPI INVALID JUMPDEST DIV SWAP5 POP DUP1 DUP2 PUSH1 0x0 SUB DUP2 PUSH2 0x23CE JUMPI INVALID JUMPDEST PUSH1 0x2 DUP6 DUP2 SUB DUP1 DUP8 MUL DUP3 SUB MUL DUP1 DUP8 MUL DUP3 SUB MUL DUP1 DUP8 MUL DUP3 SUB MUL DUP1 DUP8 MUL DUP3 SUB MUL DUP1 DUP8 MUL DUP3 SUB MUL DUP1 DUP8 MUL DUP3 SUB MUL SWAP6 DUP7 MUL SWAP1 SUB SWAP1 SWAP5 MUL SWAP4 DIV PUSH1 0x1 ADD SWAP4 SWAP1 SWAP4 MUL SWAP4 SWAP1 SWAP4 ADD MUL SWAP3 SWAP2 POP POP JUMP JUMPDEST PUSH1 0x40 DUP1 MLOAD PUSH1 0x80 DUP2 ADD DUP3 MSTORE PUSH1 0x0 DUP1 DUP3 MSTORE PUSH1 0x20 DUP3 ADD DUP2 SWAP1 MSTORE SWAP2 DUP2 ADD DUP3 SWAP1 MSTORE PUSH1 0x60 DUP2 ADD SWAP2 SWAP1 SWAP2 MSTORE SWAP1 JUMP INVALID 0x4F PUSH24 0x6E61626C653A206E6577206F776E65722069732074686520 PUSH27 0x65726F2061646472657373676574436F6C6C61746572616C507269 PUSH4 0x653A2043 PUSH16 0x6C6C61746572616C206E6F7420737570 PUSH17 0x6F727465642E676574436F6C6C61746572 PUSH2 0x6C50 PUSH19 0x6963655F707265633A20436F6C6C6174657261 PUSH13 0x206E6F7420737570706F727465 PUSH5 0x2E496E6974 PUSH10 0x616C697A61626C653A20 PUSH4 0x6F6E7472 PUSH2 0x6374 KECCAK256 PUSH10 0x7320616C726561647920 PUSH10 0x6E697469616C697A6564 PUSH22 0x7064617465496E4F7574526174696F3A206572726F72 KECCAK256 PUSH13 0x61737420757064617465206861 PUSH17 0x70656E656420696E207468652066757475 PUSH19 0x65536166654D6174683A206D756C7469706C69 PUSH4 0x6174696F PUSH15 0x206F766572666C6F774F776E61626C PUSH6 0x3A2063616C6C PUSH6 0x72206973206E PUSH16 0x7420746865206F776E65725F67657443 PUSH16 0x6C6C61746572616C50726963655F7072 PUSH6 0x633A20436F6C PUSH13 0x61746572616C206E6F74207375 PUSH17 0x706F727465642E757064617465496E4F75 PUSH21 0x526174696F3A207468652074696D6520656C617073 PUSH6 0x642069732074 PUSH16 0x6F2073686F72742E5F676574436F6C6C PUSH2 0x7465 PUSH19 0x616C50726963653A20436F6C6C61746572616C KECCAK256 PUSH15 0x6F7420737570706F727465642EA264 PUSH10 0x70667358221220ABAED4 0xC5 LOG4 0x2B RETURNDATASIZE 0xD1 EXTCODEHASH 0xAD 0x5C PUSH9 0xEAF98133EAD4F3288 0xBC PUSH21 0xB42CBA4F2C1D11DE4A64736F6C634300060C003300 ",
  "sha1": "bbe8dab54d73012223ad306efbabb624d5b6bf01",
  "source": "// SPDX-License-Identifier: MIT\npragma solidity >=0.6.12;\n\nimport \"@openzeppelin/contracts-upgradeable/proxy/Initializable.sol\";\nimport \"@openzeppelin/contracts-upgradeable/access/OwnableUpgradeable.sol\";\nimport \"@openzeppelin/contracts-upgradeable/math/SafeMathUpgradeable.sol\";\n\nimport \"../vault/VaultCore.sol\";\nimport \"../interfaces/AggregatorV3Interface.sol\";\nimport \"../interfaces/IOracle.sol\";\nimport \"../interfaces/IUSDs.sol\";\nimport \"../libraries/OracleLibrary.sol\";\n\n/**\n * @title Oracle contract of USDs protocol\n * @dev providing collateral prices (from Chainlink)\n * @dev providing SPA and USDs prices (from Uniswap V3 pools)\n * @dev providing records of USDs inflow and outflow ratio\n * @author Sperax Inc\n */\ncontract Oracle is Initializable, IOracle, OwnableUpgradeable {\n    using SafeMathUpgradeable for uint;\n    uint public override USDsInOutRatio; // USDsInOutRatio is accurate after 24 hours (one iteration)\n    uint32 public constant override USDsInOutRatio_prec = 10**6;\n    uint8 public constant FREQUENCY = 6;\n    uint32 public updateNextIndex;\n    uint32 public lastUpdateTime; // the timstamp of the lastest update\n    uint32 public updatePeriod; // the default updatePeriod of one update is 1 hours\n    uint public constant ETHprice_prec = 10**8;\n    uint public constant SPAprice_prec = 10**18;\n    uint public constant USDsPrice_prec = 10**18;\n    uint32 public movingAvgShortPeriod;\n    uint32 public movingAvgLongPeriod;\n    AggregatorV3Interface priceFeedETH;\n    address public SPAaddr;\n    address public WETH;\n    address public VaultAddr;\n    address public USDsAddr;\n    address public USDsOraclePool;\n    address public SPAoraclePool;\n    address public SPAoracleBaseTokenAddr;\n    address public USDsOracleBaseTokenAddr;\n\n    event USDsInOutRatioUpdated(\n        uint USDsInOutRatio,\n        uint USDsOnflow_average,\n        uint USDsInflow_average,\n        uint32 timeStamp,\n        uint index\n    );\n    event periodChanged(\n        uint32 updatePeriod,\n        uint32 movingAvgShortPeriod,\n        uint32 movingAvgLongPeriod\n    );\n    event collateralInfoChanged(\n        address _collateralAddr,\n        bool _supported,\n        AggregatorV3Interface _priceFeed,\n        uint _price_prec\n    );\n\n    uint[FREQUENCY+1] public USDsInflow;\n    uint[FREQUENCY+1] public USDsOnflow;\n    mapping (address => collateralStruct) collateralsInfo;\n    struct collateralStruct {\n        address collateralAddr;\n        bool supported;\n        AggregatorV3Interface priceFeed;\n        uint price_prec;\n    }\n\n    //\n    // Initializer\n    //\n    function initialize(address _priceFeedETH, address _SPAaddr, address _WETH) public initializer {\n        OwnableUpgradeable.__Ownable_init();\n        updatePeriod = 12 hours;\n        lastUpdateTime = uint32(now % 2**32);\n        priceFeedETH = AggregatorV3Interface(_priceFeedETH);\n        SPAaddr = _SPAaddr;\n        WETH = _WETH;\n        movingAvgShortPeriod = 600;\n        movingAvgLongPeriod = 3600;\n    }\n\n    //for testing purpose\n    function updateUSDsAddress(address _USDsAddr) external onlyOwner {\n        USDsAddr = _USDsAddr;\n    }\n\n    function updateVaultAddress(address _VaultAddr) external onlyOwner {\n        VaultAddr = _VaultAddr;\n    }\n\n    function updateOraclePoolsAddress(address _SPAoracleBaseTokenAddr, address _USDsOracleBaseTokenAddr, address _USDsOraclePool, address _SPAoraclePool) external onlyOwner {\n        SPAoracleBaseTokenAddr = _SPAoracleBaseTokenAddr;\n        USDsOracleBaseTokenAddr = _USDsOracleBaseTokenAddr;\n        USDsOraclePool = _USDsOraclePool;\n        SPAoraclePool = _SPAoraclePool;\n    }\n\n    /**\n     * @notice change updatePeriod\n     * @dev the frequency of update always remains the same\n     * @param _updatePeriod new minimal updatePeriod in between two updates\n     * @param _movingAvgShortPeriod new moving average range of SPA and USDs price\n     * @param _movingAvgLongPeriod new moving average range of USDs price on average (used in SwapFeeIn)\n     */\n    function changePeriod(uint32 _updatePeriod, uint32 _movingAvgShortPeriod, uint32 _movingAvgLongPeriod) external onlyOwner {\n        updatePeriod = _updatePeriod;\n        movingAvgShortPeriod =_movingAvgShortPeriod;\n        movingAvgLongPeriod = _movingAvgLongPeriod;\n        emit periodChanged(updatePeriod, movingAvgShortPeriod, movingAvgLongPeriod);\n    }\n\n    function updateCollateralInfo(address _collateralAddr, bool _supported, AggregatorV3Interface _priceFeed, uint _price_prec) external onlyOwner {\n        collateralStruct storage updatedCollateral = collateralsInfo[_collateralAddr];\n        updatedCollateral.collateralAddr = _collateralAddr;\n        updatedCollateral.supported = _supported;\n        updatedCollateral.priceFeed = _priceFeed;\n        updatedCollateral.price_prec = _price_prec;\n        emit collateralInfoChanged(_collateralAddr, _supported, _priceFeed, _price_prec);\n    }\n\n    /**\n     * @notice update the price of token0 to the latest\n     * @dev the price would be updated only once per updatePeriod time\n     * @dev USDsInOutRatio is accurate after 24 hours (one iteration)\n     */\n    function updateInOutRatio() external override {\n        uint32 currTime = uint32(now % 2 ** 32);\n        uint32 timeElapsed = currTime - lastUpdateTime;\n        require(currTime >= lastUpdateTime, \"updateInOutRatio: error last update happened in the future\");\n        require(timeElapsed >= updatePeriod, \"updateInOutRatio: the time elapsed is too short.\");\n        uint32 indexNew = updateNextIndex;\n        uint32 indexOld = (indexNew + 1) % (FREQUENCY + 1);\n        USDsInflow[indexNew] = IUSDs(USDsAddr).totalMinted();\n        USDsOnflow[indexNew] = IUSDs(USDsAddr).totalBurnt();\n        uint USDsInflow_average = USDsInflow[indexNew].sub(USDsInflow[indexOld]);\n        uint USDsOnflow_average = USDsOnflow[indexNew].sub(USDsOnflow[indexOld]);\n        if (USDsInOutRatio == 0) {\n            USDsInOutRatio = USDsInOutRatio_prec;\n        } else {\n            USDsInOutRatio = USDsOnflow_average.mul(USDsInOutRatio_prec).div(USDsInflow_average);\n        }\n        lastUpdateTime = currTime;\n        updateNextIndex = indexOld;\n        emit USDsInOutRatioUpdated(USDsInOutRatio, USDsOnflow_average, USDsInflow_average, lastUpdateTime, indexNew);\n    }\n\n    function getCollateralPrice(address collateralAddr) external view override returns (uint) {\n        collateralStruct memory  collateralInfo = collateralsInfo[collateralAddr];\n        require(collateralInfo.supported, \"getCollateralPrice: Collateral not supported.\");\n        return _getCollateralPrice(collateralAddr);\n    }\n\n    function getETHprice() external view override returns (uint) {\n        return _getETHprice();\n\t}\n\n    function getSPAprice() external view override returns (uint) {\n        uint32 longestSec = OracleLibrary.getOldestObservationSecondsAgo(SPAoraclePool);\n        uint32 period = movingAvgShortPeriod < longestSec ? movingAvgShortPeriod : longestSec;\n        int24 timeWeightedAverageTick = OracleLibrary.consult(SPAoraclePool, period);\n        uint quoteAmount = OracleLibrary.getQuoteAtTick(timeWeightedAverageTick, uint128(SPAprice_prec), SPAaddr, SPAoracleBaseTokenAddr);\n        uint SPAprice = _getETHprice().mul(quoteAmount).div(ETHprice_prec);\n        return SPAprice;\n    }\n\n    function getUSDsPrice() external view override returns (uint) {\n        if (USDsOraclePool == address(0)) {\n            return USDsPrice_prec;\n        }\n        uint32 longestSec = OracleLibrary.getOldestObservationSecondsAgo(USDsOraclePool);\n        uint32 period = movingAvgShortPeriod < longestSec ? movingAvgShortPeriod : longestSec;\n        int24 timeWeightedAverageTick = OracleLibrary.consult(USDsOraclePool, period);\n        uint quoteAmount = OracleLibrary.getQuoteAtTick(timeWeightedAverageTick, uint128(USDsPrice_prec), VaultAddr, USDsOracleBaseTokenAddr);\n        uint USDsPrice = _getCollateralPrice(USDsOracleBaseTokenAddr).mul(quoteAmount).div(_getCollateralPrice_prec(USDsOracleBaseTokenAddr));\n        return USDsPrice;\n    }\n\n    function getUSDsPrice_average() external view override returns (uint) {\n        if (USDsOraclePool == address(0)){\n            return USDsPrice_prec;\n        }\n        uint32 longestSec = OracleLibrary.getOldestObservationSecondsAgo(USDsOraclePool);\n        uint32 period = movingAvgLongPeriod < longestSec ? movingAvgLongPeriod : longestSec;\n        int24 timeWeightedAverageTick = OracleLibrary.consult(USDsOraclePool, period);\n        uint quoteAmount = OracleLibrary.getQuoteAtTick(timeWeightedAverageTick, uint128(USDsPrice_prec), VaultAddr, USDsOracleBaseTokenAddr);\n        uint USDsPrice_average = _getCollateralPrice(USDsOracleBaseTokenAddr).mul(quoteAmount).div(_getCollateralPrice_prec(USDsOracleBaseTokenAddr));\n        return USDsPrice_average;\n    }\n    function getCollateralPrice_prec(address collateralAddr) external view override returns (uint) {\n        collateralStruct memory  collateralInfo = collateralsInfo[collateralAddr];\n        require(collateralInfo.supported, \"getCollateralPrice_prec: Collateral not supported.\");\n        return _getCollateralPrice_prec(collateralAddr);\n    }\n\n    function getETHprice_prec() external view override returns (uint) {\n        return ETHprice_prec;\n    }\n\n    function getSPAprice_prec() external view override returns (uint) {\n        return SPAprice_prec;\n    }\n\n    function getUSDsPrice_prec() external view override returns (uint) {\n        return USDsPrice_prec;\n    }\n\n    function _getCollateralPrice(address collateralAddr) internal view returns (uint) {\n        collateralStruct memory  collateralInfo = collateralsInfo[collateralAddr];\n        require(collateralInfo.supported, \"_getCollateralPrice: Collateral not supported.\");\n        (\n            ,\n            int price,\n            ,\n            ,\n        ) = collateralInfo.priceFeed.latestRoundData();\n        return uint(price);\n    }\n\n\n\tfunction _getETHprice() internal view returns (uint) {\n\t\t(\n            ,\n            int price,\n            ,\n            ,\n\t\t) = priceFeedETH.latestRoundData();\n\t\treturn uint(price);\n\t}\n\n    function _getCollateralPrice_prec(address collateralAddr) internal view returns (uint) {\n        collateralStruct memory  collateralInfo = collateralsInfo[collateralAddr];\n        require(collateralInfo.supported, \"_getCollateralPrice_prec: Collateral not supported.\");\n        return collateralInfo.price_prec;\n\t}\n\n\n}\n",
  "sourcePath": "contracts/oracle/Oracle.sol",
  "type": "contract"
}