{
  "abi": [
    {
      "anonymous": false,
      "inputs": [
        {
          "indexed": true,
          "internalType": "address",
          "name": "owner",
          "type": "address"
        },
        {
          "indexed": true,
          "internalType": "address",
          "name": "spender",
          "type": "address"
        },
        {
          "indexed": false,
          "internalType": "uint256",
          "name": "value",
          "type": "uint256"
        }
      ],
      "name": "Approval",
      "type": "event"
    },
    {
      "anonymous": false,
      "inputs": [
        {
          "indexed": true,
          "internalType": "address",
          "name": "previousOwner",
          "type": "address"
        },
        {
          "indexed": true,
          "internalType": "address",
          "name": "newOwner",
          "type": "address"
        }
      ],
      "name": "OwnershipTransferred",
      "type": "event"
    },
    {
      "anonymous": false,
      "inputs": [
        {
          "indexed": false,
          "internalType": "uint256",
          "name": "totalSupply",
          "type": "uint256"
        },
        {
          "indexed": false,
          "internalType": "uint256",
          "name": "rebasingCredits",
          "type": "uint256"
        },
        {
          "indexed": false,
          "internalType": "uint256",
          "name": "rebasingCreditsPerToken",
          "type": "uint256"
        }
      ],
      "name": "TotalSupplyUpdated",
      "type": "event"
    },
    {
      "anonymous": false,
      "inputs": [
        {
          "indexed": true,
          "internalType": "address",
          "name": "from",
          "type": "address"
        },
        {
          "indexed": true,
          "internalType": "address",
          "name": "to",
          "type": "address"
        },
        {
          "indexed": false,
          "internalType": "uint256",
          "name": "value",
          "type": "uint256"
        }
      ],
      "name": "Transfer",
      "type": "event"
    },
    {
      "inputs": [
        {
          "internalType": "address",
          "name": "_owner",
          "type": "address"
        },
        {
          "internalType": "address",
          "name": "_spender",
          "type": "address"
        }
      ],
      "name": "allowance",
      "outputs": [
        {
          "internalType": "uint256",
          "name": "",
          "type": "uint256"
        }
      ],
      "stateMutability": "view",
      "type": "function"
    },
    {
      "inputs": [
        {
          "internalType": "address",
          "name": "_spender",
          "type": "address"
        },
        {
          "internalType": "uint256",
          "name": "_value",
          "type": "uint256"
        }
      ],
      "name": "approve",
      "outputs": [
        {
          "internalType": "bool",
          "name": "",
          "type": "bool"
        }
      ],
      "stateMutability": "nonpayable",
      "type": "function"
    },
    {
      "inputs": [
        {
          "internalType": "address",
          "name": "_account",
          "type": "address"
        }
      ],
      "name": "balanceOf",
      "outputs": [
        {
          "internalType": "uint256",
          "name": "",
          "type": "uint256"
        }
      ],
      "stateMutability": "view",
      "type": "function"
    },
    {
      "inputs": [
        {
          "internalType": "address",
          "name": "account",
          "type": "address"
        },
        {
          "internalType": "uint256",
          "name": "amount",
          "type": "uint256"
        }
      ],
      "name": "burn",
      "outputs": [],
      "stateMutability": "nonpayable",
      "type": "function"
    },
    {
      "inputs": [
        {
          "internalType": "uint256",
          "name": "_newTotalSupply",
          "type": "uint256"
        }
      ],
      "name": "changeSupply",
      "outputs": [],
      "stateMutability": "nonpayable",
      "type": "function"
    },
    {
      "inputs": [
        {
          "internalType": "address",
          "name": "newVault",
          "type": "address"
        }
      ],
      "name": "changeVault",
      "outputs": [],
      "stateMutability": "nonpayable",
      "type": "function"
    },
    {
      "inputs": [
        {
          "internalType": "address",
          "name": "_account",
          "type": "address"
        }
      ],
      "name": "creditsBalanceOf",
      "outputs": [
        {
          "internalType": "uint256",
          "name": "",
          "type": "uint256"
        },
        {
          "internalType": "uint256",
          "name": "",
          "type": "uint256"
        }
      ],
      "stateMutability": "view",
      "type": "function"
    },
    {
      "inputs": [],
      "name": "decimals",
      "outputs": [
        {
          "internalType": "uint8",
          "name": "",
          "type": "uint8"
        }
      ],
      "stateMutability": "view",
      "type": "function"
    },
    {
      "inputs": [
        {
          "internalType": "address",
          "name": "_spender",
          "type": "address"
        },
        {
          "internalType": "uint256",
          "name": "_subtractedValue",
          "type": "uint256"
        }
      ],
      "name": "decreaseAllowance",
      "outputs": [
        {
          "internalType": "bool",
          "name": "",
          "type": "bool"
        }
      ],
      "stateMutability": "nonpayable",
      "type": "function"
    },
    {
      "inputs": [
        {
          "internalType": "address",
          "name": "_spender",
          "type": "address"
        },
        {
          "internalType": "uint256",
          "name": "_addedValue",
          "type": "uint256"
        }
      ],
      "name": "increaseAllowance",
      "outputs": [
        {
          "internalType": "bool",
          "name": "",
          "type": "bool"
        }
      ],
      "stateMutability": "nonpayable",
      "type": "function"
    },
    {
      "inputs": [
        {
          "internalType": "string",
          "name": "_nameArg",
          "type": "string"
        },
        {
          "internalType": "string",
          "name": "_symbolArg",
          "type": "string"
        },
        {
          "internalType": "address",
          "name": "_vaultAddress",
          "type": "address"
        }
      ],
      "name": "initialize",
      "outputs": [],
      "stateMutability": "nonpayable",
      "type": "function"
    },
    {
      "inputs": [
        {
          "internalType": "address",
          "name": "_account",
          "type": "address"
        },
        {
          "internalType": "uint256",
          "name": "_amount",
          "type": "uint256"
        }
      ],
      "name": "mint",
      "outputs": [],
      "stateMutability": "nonpayable",
      "type": "function"
    },
    {
      "inputs": [],
      "name": "name",
      "outputs": [
        {
          "internalType": "string",
          "name": "",
          "type": "string"
        }
      ],
      "stateMutability": "view",
      "type": "function"
    },
    {
      "inputs": [
        {
          "internalType": "address",
          "name": "",
          "type": "address"
        }
      ],
      "name": "nonRebasingCreditsPerToken",
      "outputs": [
        {
          "internalType": "uint256",
          "name": "",
          "type": "uint256"
        }
      ],
      "stateMutability": "view",
      "type": "function"
    },
    {
      "inputs": [],
      "name": "nonRebasingSupply",
      "outputs": [
        {
          "internalType": "uint256",
          "name": "",
          "type": "uint256"
        }
      ],
      "stateMutability": "view",
      "type": "function"
    },
    {
      "inputs": [],
      "name": "owner",
      "outputs": [
        {
          "internalType": "address",
          "name": "",
          "type": "address"
        }
      ],
      "stateMutability": "view",
      "type": "function"
    },
    {
      "inputs": [],
      "name": "rebaseOptIn",
      "outputs": [],
      "stateMutability": "nonpayable",
      "type": "function"
    },
    {
      "inputs": [],
      "name": "rebaseOptOut",
      "outputs": [],
      "stateMutability": "nonpayable",
      "type": "function"
    },
    {
      "inputs": [
        {
          "internalType": "address",
          "name": "",
          "type": "address"
        }
      ],
      "name": "rebaseState",
      "outputs": [
        {
          "internalType": "enum USDs.RebaseOptions",
          "name": "",
          "type": "uint8"
        }
      ],
      "stateMutability": "view",
      "type": "function"
    },
    {
      "inputs": [],
      "name": "rebasingCredits",
      "outputs": [
        {
          "internalType": "uint256",
          "name": "",
          "type": "uint256"
        }
      ],
      "stateMutability": "view",
      "type": "function"
    },
    {
      "inputs": [],
      "name": "rebasingCreditsPerToken",
      "outputs": [
        {
          "internalType": "uint256",
          "name": "",
          "type": "uint256"
        }
      ],
      "stateMutability": "view",
      "type": "function"
    },
    {
      "inputs": [],
      "name": "renounceOwnership",
      "outputs": [],
      "stateMutability": "nonpayable",
      "type": "function"
    },
    {
      "inputs": [],
      "name": "symbol",
      "outputs": [
        {
          "internalType": "string",
          "name": "",
          "type": "string"
        }
      ],
      "stateMutability": "view",
      "type": "function"
    },
    {
      "inputs": [],
      "name": "totalBurnt",
      "outputs": [
        {
          "internalType": "uint256",
          "name": "",
          "type": "uint256"
        }
      ],
      "stateMutability": "view",
      "type": "function"
    },
    {
      "inputs": [],
      "name": "totalMinted",
      "outputs": [
        {
          "internalType": "uint256",
          "name": "",
          "type": "uint256"
        }
      ],
      "stateMutability": "view",
      "type": "function"
    },
    {
      "inputs": [],
      "name": "totalSupply",
      "outputs": [
        {
          "internalType": "uint256",
          "name": "",
          "type": "uint256"
        }
      ],
      "stateMutability": "view",
      "type": "function"
    },
    {
      "inputs": [
        {
          "internalType": "address",
          "name": "_to",
          "type": "address"
        },
        {
          "internalType": "uint256",
          "name": "_value",
          "type": "uint256"
        }
      ],
      "name": "transfer",
      "outputs": [
        {
          "internalType": "bool",
          "name": "",
          "type": "bool"
        }
      ],
      "stateMutability": "nonpayable",
      "type": "function"
    },
    {
      "inputs": [
        {
          "internalType": "address",
          "name": "_from",
          "type": "address"
        },
        {
          "internalType": "address",
          "name": "_to",
          "type": "address"
        },
        {
          "internalType": "uint256",
          "name": "_value",
          "type": "uint256"
        }
      ],
      "name": "transferFrom",
      "outputs": [
        {
          "internalType": "bool",
          "name": "",
          "type": "bool"
        }
      ],
      "stateMutability": "nonpayable",
      "type": "function"
    },
    {
      "inputs": [
        {
          "internalType": "address",
          "name": "newOwner",
          "type": "address"
        }
      ],
      "name": "transferOwnership",
      "outputs": [],
      "stateMutability": "nonpayable",
      "type": "function"
    },
    {
      "inputs": [],
      "name": "vaultAddress",
      "outputs": [
        {
          "internalType": "address",
          "name": "",
          "type": "address"
        }
      ],
      "stateMutability": "view",
      "type": "function"
    }
  ],
  "bytecode": "608060405234801561001057600080fd5b506122a0806100206000396000f3fe608060405234801561001057600080fd5b50600436106101da5760003560e01c806370a0823111610104578063a457c2d7116100a2578063e696393a11610071578063e696393a1461061b578063f2fde38b14610623578063f51b0fd414610649578063f9854bfc14610651576101da565b8063a457c2d71461058d578063a9059cbb146105b9578063c2376dff146105e5578063dd62ed3e146105ed576101da565b806395d89b41116100de57806395d89b4114610549578063966ff650146105515780639dc29fac14610559578063a2309ff814610585576101da565b806370a0823114610513578063715018a6146105395780638da5cb5b14610541576101da565b8063395093511161017c578063456ee2861161014b578063456ee28614610478578063609350cd146104bf57806360e232a9146104e55780636691cb3d1461050b576101da565b806339509351146103df57806339a7919f1461040b57806340c10f1914610428578063430bf08a14610454576101da565b8063095ea7b3116101b8578063095ea7b31461034357806318160ddd1461038357806323b872dd1461038b578063313ce567146103c1576101da565b806306fdde03146101df578063077f224a1461025c578063077f22b714610329575b600080fd5b6101e7610690565b6040805160208082528351818301528351919283929083019185019080838360005b83811015610221578181015183820152602001610209565b50505050905090810190601f16801561024e5780820380516001836020036101000a031916815260200191505b509250505060405180910390f35b6103276004803603606081101561027257600080fd5b81019060208101813564010000000081111561028d57600080fd5b82018360208201111561029f57600080fd5b803590602001918460018302840111640100000000831117156102c157600080fd5b9193909290916020810190356401000000008111156102df57600080fd5b8201836020820111156102f157600080fd5b8035906020019184600183028401116401000000008311171561031357600080fd5b9193509150356001600160a01b0316610726565b005b610331610874565b60408051918252519081900360200190f35b61036f6004803603604081101561035957600080fd5b506001600160a01b03813516906020013561087b565b604080519115158252519081900360200190f35b6103316108e3565b61036f600480360360608110156103a157600080fd5b506001600160a01b038135811691602081013590911690604001356108e9565b6103c9610a40565b6040805160ff9092168252519081900360200190f35b61036f600480360360408110156103f557600080fd5b506001600160a01b038135169060200135610a49565b6103276004803603602081101561042157600080fd5b5035610ade565b6103276004803603604081101561043e57600080fd5b506001600160a01b038135169060200135610cf0565b61045c610d58565b604080516001600160a01b039092168252519081900360200190f35b61049e6004803603602081101561048e57600080fd5b50356001600160a01b0316610d68565b604051808260028111156104ae57fe5b815260200191505060405180910390f35b610331600480360360208110156104d557600080fd5b50356001600160a01b0316610d7e565b610327600480360360208110156104fb57600080fd5b50356001600160a01b0316610d91565b610331610e16565b6103316004803603602081101561052957600080fd5b50356001600160a01b0316610e1d565b610327610e77565b61045c610f29565b6101e7610f3d565b610331610f9e565b6103276004803603604081101561056f57600080fd5b506001600160a01b038135169060200135610fa4565b610331611008565b61036f600480360360408110156105a357600080fd5b506001600160a01b03813516906020013561100e565b61036f600480360360408110156105cf57600080fd5b506001600160a01b0381351690602001356110fb565b6103276111f2565b6103316004803603604081101561060357600080fd5b506001600160a01b0381358116916020013516611319565b610331611345565b6103276004803603602081101561063957600080fd5b50356001600160a01b031661134c565b61032761145a565b6106776004803603602081101561066757600080fd5b50356001600160a01b03166115b3565b6040805192835260208301919091528051918290030190f35b60c98054604080516020601f600260001961010060018816150201909516949094049384018190048102820181019092528281526060939092909183018282801561071c5780601f106106f15761010080835404028352916020019161071c565b820191906000526020600020905b8154815290600101906020018083116106ff57829003601f168201915b5050505050905090565b600054610100900460ff168061073f575061073f6115e1565b8061074d575060005460ff16155b6107885760405162461bcd60e51b815260040180806020018281038252602e8152602001806121dc602e913960400191505060405180910390fd5b600054610100900460ff161580156107b3576000805460ff1961ff0019909116610100171660011790555b61082986868080601f01602080910402602001604051908101604052809392919081815260200183838082843760009201919091525050604080516020601f8a018190048102820181019092528881529250889150879081908401838280828437600092019190915250601292506115f2915050565b610831611632565b670de0b6b3a76400006101045561010180546001600160a01b0319166001600160a01b038416179055801561086c576000805461ff00191690555b505050505050565b6101035481565b336000818152610100602090815260408083206001600160a01b038716808552908352818420869055815186815291519394909390927f8c5be1e5ebec7d5bd14f71427d1e84f3dd0314c0f7b2291e5b200ac8c7c3b925928290030190a35060015b92915050565b60fd5490565b60006001600160a01b038316610941576040805162461bcd60e51b81526020600482015260186024820152775472616e7366657220746f207a65726f206164647265737360401b604482015290519081900360640190fd5b61094a84610e1d565b82111561099e576040805162461bcd60e51b815260206004820152601d60248201527f5472616e736665722067726561746572207468616e2062616c616e6365000000604482015290519081900360640190fd5b6001600160a01b0384166000908152610100602090815260408083203384529091529020546109cd90836116e3565b6001600160a01b0385166000908152610100602090815260408083203384529091529020556109fd848484611740565b826001600160a01b0316846001600160a01b031660008051602061224b833981519152846040518082815260200191505060405180910390a35060019392505050565b60cb5460ff1690565b336000908152610100602090815260408083206001600160a01b0386168452909152812054610a7890836118b9565b336000818152610100602090815260408083206001600160a01b0389168085529083529281902085905580519485525191937f8c5be1e5ebec7d5bd14f71427d1e84f3dd0314c0f7b2291e5b200ac8c7c3b925929081900390910190a350600192915050565b610101546001600160a01b03163314610b38576040805162461bcd60e51b815260206004820152601760248201527610d85b1b195c881a5cc81b9bdd081d1a194815985d5b1d604a1b604482015290519081900360640190fd5b600060fd5411610b8f576040805162461bcd60e51b815260206004820152601860248201527f43616e6e6f7420696e637265617365203020737570706c790000000000000000604482015290519081900360640190fd5b8060fd541415610be75760fd54610103546101045460408051938452602084019290925282820152517f99e56f783b536ffacf422d59183ea321dd80dcd6d23daa13023e8afea38c3df19181900360600190a1610ced565b6001600160801b038111610bfb5780610c04565b6001600160801b035b60fd81905561010554610c2491610c1a916116e3565b610103549061191a565b610104819055610c7b576040805162461bcd60e51b815260206004820152601860248201527f496e76616c6964206368616e676520696e20737570706c790000000000000000604482015290519081900360640190fd5b610ca161010554610c9b610104546101035461191a90919063ffffffff16565b906118b9565b60fd819055610103546101045460408051938452602084019290925282820152517f99e56f783b536ffacf422d59183ea321dd80dcd6d23daa13023e8afea38c3df19181900360600190a15b50565b610101546001600160a01b03163314610d4a576040805162461bcd60e51b815260206004820152601760248201527610d85b1b195c881a5cc81b9bdd081d1a194815985d5b1d604a1b604482015290519081900360640190fd5b610d548282611943565b5050565b610101546001600160a01b031681565b6101076020526000908152604090205460ff1681565b6101066020526000908152604090205481565b610d99611ad0565b6001600160a01b0316610daa610f29565b6001600160a01b031614610df3576040805162461bcd60e51b8152602060048201819052602482015260008051602061222b833981519152604482015290519081900360640190fd5b61010180546001600160a01b0319166001600160a01b0392909216919091179055565b6101045481565b6001600160a01b03811660009081526101026020526040812054610e4357506000610e72565b610e6f610e4f83611ad4565b6001600160a01b038416600090815261010260205260409020549061191a565b90505b919050565b610e7f611ad0565b6001600160a01b0316610e90610f29565b6001600160a01b031614610ed9576040805162461bcd60e51b8152602060048201819052602482015260008051602061222b833981519152604482015290519081900360640190fd5b60cb5460405160009161010090046001600160a01b0316907f8be0079c531659141344cd1fd0a4f28419497f9722a3daafe3b4186f6b6457e0908390a360cb8054610100600160a81b0319169055565b60cb5461010090046001600160a01b031690565b60ca8054604080516020601f600260001961010060018816150201909516949094049384018190048102820181019092528281526060939092909183018282801561071c5780601f106106f15761010080835404028352916020019161071c565b60ff5481565b610101546001600160a01b03163314610ffe576040805162461bcd60e51b815260206004820152601760248201527610d85b1b195c881a5cc81b9bdd081d1a194815985d5b1d604a1b604482015290519081900360640190fd5b610d548282611b1d565b60fe5481565b336000908152610100602090815260408083206001600160a01b038616845290915281205480831061106457336000908152610100602090815260408083206001600160a01b0388168452909152812055611094565b61106e81846116e3565b336000908152610100602090815260408083206001600160a01b03891684529091529020555b336000818152610100602090815260408083206001600160a01b0389168085529083529281902054815190815290519293927f8c5be1e5ebec7d5bd14f71427d1e84f3dd0314c0f7b2291e5b200ac8c7c3b925929181900390910190a35060019392505050565b60006001600160a01b038316611153576040805162461bcd60e51b81526020600482015260186024820152775472616e7366657220746f207a65726f206164647265737360401b604482015290519081900360640190fd5b61115c33610e1d565b8211156111b0576040805162461bcd60e51b815260206004820152601d60248201527f5472616e736665722067726561746572207468616e2062616c616e6365000000604482015290519081900360640190fd5b6111bb338484611740565b6040805183815290516001600160a01b03851691339160008051602061224b8339815191529181900360200190a350600192915050565b6111fa611ad0565b6001600160a01b031661120b610f29565b6001600160a01b031614611254576040805162461bcd60e51b8152602060048201819052602482015260008051602061222b833981519152604482015290519081900360640190fd5b61125d33611d05565b156112af576040805162461bcd60e51b815260206004820152601860248201527f4163636f756e7420686173206e6f74206f7074656420696e0000000000000000604482015290519081900360640190fd5b6112c56112bb33610e1d565b61010554906118b9565b6101055561010454336000908152610106602090815260408083209390935561010290522054610103546112f8916116e3565b6101035533600090815261010760205260409020805460ff19166001179055565b6001600160a01b0391821660009081526101006020908152604080832093909416825291909152205490565b6101055481565b611354611ad0565b6001600160a01b0316611365610f29565b6001600160a01b0316146113ae576040805162461bcd60e51b8152602060048201819052602482015260008051602061222b833981519152604482015290519081900360640190fd5b6001600160a01b0381166113f35760405162461bcd60e51b81526004018080602001828103825260268152602001806121b66026913960400191505060405180910390fd5b60cb546040516001600160a01b0380841692610100900416907f8be0079c531659141344cd1fd0a4f28419497f9722a3daafe3b4186f6b6457e090600090a360cb80546001600160a01b0390921661010002610100600160a81b0319909216919091179055565b611462611ad0565b6001600160a01b0316611473610f29565b6001600160a01b0316146114bc576040805162461bcd60e51b8152602060048201819052602482015260008051602061222b833981519152604482015290519081900360640190fd5b6114c533611d05565b611516576040805162461bcd60e51b815260206004820152601960248201527f4163636f756e7420686173206e6f74206f70746564206f757400000000000000604482015290519081900360640190fd5b600061154861152433611ad4565b61010454336000908152610102602052604090205461154291611d73565b90611dcc565b905061156061155633610e1d565b61010554906116e3565b61010555336000908152610102602052604090208190556101035461158590826118b9565b610103555033600090815261010760209081526040808320805460ff19166002179055610106909152812055565b6001600160a01b0381166000908152610102602052604081205481906115d884611ad4565b91509150915091565b60006115ec30611e33565b15905090565b82516116059060c9906020860190612122565b5081516116199060ca906020850190612122565b5060cb805460ff191660ff929092169190911790555050565b600054610100900460ff168061164b575061164b6115e1565b80611659575060005460ff16155b6116945760405162461bcd60e51b815260040180806020018281038252602e8152602001806121dc602e913960400191505060405180910390fd5b600054610100900460ff161580156116bf576000805460ff1961ff0019909116610100171660011790555b6116c7611e39565b6116cf611ed9565b8015610ced576000805461ff001916905550565b60008282111561173a576040805162461bcd60e51b815260206004820152601e60248201527f536166654d6174683a207375627472616374696f6e206f766572666c6f770000604482015290519081900360640190fd5b50900390565b600061174b83611d05565b9050600061175885611d05565b9050600061176f61176886611ad4565b8590611fda565b9050600061178661177f88611ad4565b8690611fda565b90506117f8816040518060400160405280601f81526020017f5472616e7366657220616d6f756e7420657863656564732062616c616e63650081525061010260008b6001600160a01b03166001600160a01b0316815260200190815260200160002054611fef9092919063ffffffff16565b6001600160a01b0380891660009081526101026020526040808220939093559088168152205461182890836118b9565b6001600160a01b0387166000908152610102602052604090205583801561184d575082155b1561187b576101055461186090866118b9565b610105556101035461187290826116e3565b610103556118b0565b831580156118865750825b156118b0576101055461189990866116e3565b61010555610103546118ab90836118b9565b610103555b50505050505050565b600082820183811015611913576040805162461bcd60e51b815260206004820152601b60248201527f536166654d6174683a206164646974696f6e206f766572666c6f770000000000604482015290519081900360640190fd5b9392505050565b60008061192f84670de0b6b3a7640000611d73565b905061193b8184611dcc565b949350505050565b6001600160a01b03821661199e576040805162461bcd60e51b815260206004820152601860248201527f4d696e7420746f20746865207a65726f20616464726573730000000000000000604482015290519081900360640190fd5b60006119a983611d05565b905060006119c06119b985611ad4565b8490611fda565b6001600160a01b038516600090815261010260205260409020549091506119e790826118b9565b6001600160a01b038516600090815261010260205260409020558115611a1e5761010554611a1590846118b9565b61010555611a31565b61010354611a2c90826118b9565b610103555b60fd54611a3e90846118b9565b60fd5560fe54611a4e90846118b9565b60fe5560fd546001600160801b0311611a9b576040805162461bcd60e51b815260206004820152600a6024820152694d617820737570706c7960b01b604482015290519081900360640190fd5b6040805184815290516001600160a01b0386169160009160008051602061224b8339815191529181900360200190a350505050565b3390565b6001600160a01b0381166000908152610106602052604081205415611b1357506001600160a01b03811660009081526101066020526040902054610e72565b5061010454610e72565b6001600160a01b038216611b78576040805162461bcd60e51b815260206004820152601a60248201527f4275726e2066726f6d20746865207a65726f2061646472657373000000000000604482015290519081900360640190fd5b80611b8257610d54565b6000611b8d83611d05565b90506000611b9d6119b985611ad4565b6001600160a01b0385166000908152610102602052604090205490915080821480611bca57508160018203145b15611bee576001600160a01b03851660009081526101026020526040812055611c7f565b81811115611c39576001600160a01b03851660009081526101026020526040902054611c1a90836116e3565b6001600160a01b03861660009081526101026020526040902055611c7f565b6040805162461bcd60e51b815260206004820152601660248201527552656d6f766520657863656564732062616c616e636560501b604482015290519081900360640190fd5b8215611c9c5761010554611c9390856116e3565b61010555611caf565b61010354611caa90836116e3565b610103555b60fd54611cbc90856116e3565b60fd5560ff54611ccc90856118b9565b60ff556040805185815290516000916001600160a01b0388169160008051602061224b8339815191529181900360200190a35050505050565b600080611d1183611e33565b9050808015611d4557506001600160a01b0383166000908152610107602052604081205460ff166002811115611d4357fe5b145b15611d5357611d5383612086565b50506001600160a01b031660009081526101066020526040902054151590565b600082611d82575060006108dd565b82820282848281611d8f57fe5b04146119135760405162461bcd60e51b815260040180806020018281038252602181526020018061220a6021913960400191505060405180910390fd5b6000808211611e22576040805162461bcd60e51b815260206004820152601a60248201527f536166654d6174683a206469766973696f6e206279207a65726f000000000000604482015290519081900360640190fd5b818381611e2b57fe5b049392505050565b3b151590565b600054610100900460ff1680611e525750611e526115e1565b80611e60575060005460ff16155b611e9b5760405162461bcd60e51b815260040180806020018281038252602e8152602001806121dc602e913960400191505060405180910390fd5b600054610100900460ff161580156116cf576000805460ff1961ff0019909116610100171660011790558015610ced576000805461ff001916905550565b600054610100900460ff1680611ef25750611ef26115e1565b80611f00575060005460ff16155b611f3b5760405162461bcd60e51b815260040180806020018281038252602e8152602001806121dc602e913960400191505060405180910390fd5b600054610100900460ff16158015611f66576000805460ff1961ff0019909116610100171660011790555b6000611f70611ad0565b60cb8054610100600160a81b0319166101006001600160a01b03841690810291909117909155604051919250906000907f8be0079c531659141344cd1fd0a4f28419497f9722a3daafe3b4186f6b6457e0908290a3508015610ced576000805461ff001916905550565b60006119138383670de0b6b3a7640000612100565b6000818484111561207e5760405162461bcd60e51b81526004018080602001828103825283818151815260200191508051906020019080838360005b8381101561204357818101518382015260200161202b565b50505050905090810190601f1680156120705780820380516001836020036101000a031916815260200191505b509250505060405180910390fd5b505050900390565b6001600160a01b03811660009081526101066020526040902054610ced57610104546001600160a01b038216600090815261010660205260409020556120ce6112bb82610e1d565b610105556001600160a01b03811660009081526101026020526040902054610103546120f9916116e3565b6101035550565b60008061210d8585611d73565b90506121198184611dcc565b95945050505050565b828054600181600116156101000203166002900490600052602060002090601f016020900481019282601f1061216357805160ff1916838001178555612190565b82800160010185558215612190579182015b82811115612190578251825591602001919060010190612175565b5061219c9291506121a0565b5090565b5b8082111561219c57600081556001016121a156fe4f776e61626c653a206e6577206f776e657220697320746865207a65726f2061646472657373496e697469616c697a61626c653a20636f6e747261637420697320616c726561647920696e697469616c697a6564536166654d6174683a206d756c7469706c69636174696f6e206f766572666c6f774f776e61626c653a2063616c6c6572206973206e6f7420746865206f776e6572ddf252ad1be2c89b69c2b068fc378daa952ba7f163c4a11628f55a4df523b3efa2646970667358221220bbf95b68dde32ab5258067ab59e7423d35f81ea177ed9b63e585b337bf689a6964736f6c634300060c0033",
  "bytecodeSha1": "adb602fb1050d3f8b02894079b242c794f529a3d",
  "compiler": {
    "evm_version": "istanbul",
    "optimizer": {
      "enabled": true,
      "runs": 200
    },
    "version": "0.6.12+commit.27d51765"
  },
  "contractName": "USDs",
  "language": "Solidity",
  "natspec": {
    "kind": "dev",
    "methods": {
      "allowance(address,address)": {
        "details": "Function to check the _amount of tokens that an owner has allowed to a _spender.",
        "params": {
          "_owner": "The address which owns the funds.",
          "_spender": "The address which will spend the funds."
        },
        "returns": {
          "_0": "The number of tokens still available for the _spender."
        }
      },
      "approve(address,uint256)": {
        "details": "Approve the passed address to spend the specified _amount of tokens on behalf of msg.sender. This method is included for ERC20 compatibility. increaseAllowance and decreaseAllowance should be used instead. Changing an allowance with this method brings the risk that someone may transfer both the old and the new allowance - if they are both greater than zero - if a transfer transaction is mined before the later approve() call is mined.",
        "params": {
          "_spender": "The address which will spend the funds.",
          "_value": "The _amount of tokens to be spent."
        }
      },
      "balanceOf(address)": {
        "details": "Gets the USDs balance of the specified address.",
        "params": {
          "_account": "Address to query the balance of."
        },
        "returns": {
          "_0": "A uint256 representing the _amount of base units owned by the         specified address."
        }
      },
      "burn(address,uint256)": {
        "details": "Burns tokens, decreasing totalSupply."
      },
      "changeSupply(uint256)": {
        "details": "The rebase function. Modify the supply without minting new tokens. This uses a change in      the exchange rate between \"credits\" and USDs tokens to change balances.",
        "params": {
          "_newTotalSupply": "New total supply of USDs."
        }
      },
      "changeVault(address)": {
        "details": "change the vault address",
        "params": {
          "newVault": "the new vault address"
        }
      },
      "creditsBalanceOf(address)": {
        "details": "Gets the credits balance of the specified address.",
        "params": {
          "_account": "The address to query the balance of."
        },
        "returns": {
          "_0": "(uint256, uint256) Credit balance and credits per token of the         address"
        }
      },
      "decimals()": {
        "details": "Returns the number of decimals used to get its user representation. For example, if `decimals` equals `2`, a balance of `505` tokens should be displayed to a user as `5,05` (`505 / 10 ** 2`). Tokens usually opt for a value of 18, imitating the relationship between Ether and Wei. NOTE: This information is only used for _display_ purposes: it in no way affects any of the arithmetic of the contract, including {IERC20-balanceOf} and {IERC20-transfer}."
      },
      "decreaseAllowance(address,uint256)": {
        "details": "Decrease the _amount of tokens that an owner has allowed to a _spender.",
        "params": {
          "_spender": "The address which will spend the funds.",
          "_subtractedValue": "The _amount of tokens to decrease the allowance by."
        }
      },
      "increaseAllowance(address,uint256)": {
        "details": "Increase the _amount of tokens that an owner has allowed to a _spender. This method should be used instead of approve() to avoid the double approval vulnerability described above.",
        "params": {
          "_addedValue": "The _amount of tokens to increase the allowance by.",
          "_spender": "The address which will spend the funds."
        }
      },
      "mint(address,uint256)": {
        "details": "Mints new USDs tokens, increasing totalSupply.",
        "params": {
          "_account": "the account address the newly minted USDs will be attributed to",
          "_amount": "the amount of USDs that will be minted"
        }
      },
      "name()": {
        "details": "Returns the name of the token."
      },
      "owner()": {
        "details": "Returns the address of the current owner."
      },
      "rebaseOptIn()": {
        "details": "Add a contract address to the non rebasing exception list. I.e. the address's balance will be part of rebases so the account will be exposed to upside and downside."
      },
      "rebaseOptOut()": {
        "details": "Remove a contract address to the non rebasing exception list."
      },
      "renounceOwnership()": {
        "details": "Leaves the contract without owner. It will not be possible to call `onlyOwner` functions anymore. Can only be called by the current owner. NOTE: Renouncing ownership will leave the contract without an owner, thereby removing any functionality that is only available to the owner."
      },
      "symbol()": {
        "details": "Returns the symbol of the token, usually a shorter version of the name."
      },
      "totalSupply()": {
        "details": "check the current total supply of USDs",
        "returns": {
          "_0": "The total supply of USDs."
        }
      },
      "transfer(address,uint256)": {
        "details": "Transfer tokens to a specified address.",
        "params": {
          "_to": "the address to transfer to.",
          "_value": "the _amount to be transferred."
        },
        "returns": {
          "_0": "true on success."
        }
      },
      "transferFrom(address,address,uint256)": {
        "details": "Transfer tokens from one address to another.",
        "params": {
          "_from": "The address you want to send tokens from.",
          "_to": "The address you want to transfer to.",
          "_value": "The _amount of tokens to be transferred."
        }
      },
      "transferOwnership(address)": {
        "details": "Transfers ownership of the contract to a new account (`newOwner`). Can only be called by the current owner."
      }
    },
    "notice": "NOTE that this is an ERC20 token but the invariant that the sum of balanceOf(x) for all x is not >= totalSupply(). This is a consequence of the rebasing design. Any integrations with USDs should be aware.",
    "version": 1
  },
  "opcodes": "PUSH1 0x80 PUSH1 0x40 MSTORE CALLVALUE DUP1 ISZERO PUSH2 0x10 JUMPI PUSH1 0x0 DUP1 REVERT JUMPDEST POP PUSH1 0x4 CALLDATASIZE LT PUSH2 0x1DA JUMPI PUSH1 0x0 CALLDATALOAD PUSH1 0xE0 SHR DUP1 PUSH4 0x70A08231 GT PUSH2 0x104 JUMPI DUP1 PUSH4 0xA457C2D7 GT PUSH2 0xA2 JUMPI DUP1 PUSH4 0xE696393A GT PUSH2 0x71 JUMPI DUP1 PUSH4 0xE696393A EQ PUSH2 0x61B JUMPI DUP1 PUSH4 0xF2FDE38B EQ PUSH2 0x623 JUMPI DUP1 PUSH4 0xF51B0FD4 EQ PUSH2 0x649 JUMPI DUP1 PUSH4 0xF9854BFC EQ PUSH2 0x651 JUMPI PUSH2 0x1DA JUMP JUMPDEST DUP1 PUSH4 0xA457C2D7 EQ PUSH2 0x58D JUMPI DUP1 PUSH4 0xA9059CBB EQ PUSH2 0x5B9 JUMPI DUP1 PUSH4 0xC2376DFF EQ PUSH2 0x5E5 JUMPI DUP1 PUSH4 0xDD62ED3E EQ PUSH2 0x5ED JUMPI PUSH2 0x1DA JUMP JUMPDEST DUP1 PUSH4 0x95D89B41 GT PUSH2 0xDE JUMPI DUP1 PUSH4 0x95D89B41 EQ PUSH2 0x549 JUMPI DUP1 PUSH4 0x966FF650 EQ PUSH2 0x551 JUMPI DUP1 PUSH4 0x9DC29FAC EQ PUSH2 0x559 JUMPI DUP1 PUSH4 0xA2309FF8 EQ PUSH2 0x585 JUMPI PUSH2 0x1DA JUMP JUMPDEST DUP1 PUSH4 0x70A08231 EQ PUSH2 0x513 JUMPI DUP1 PUSH4 0x715018A6 EQ PUSH2 0x539 JUMPI DUP1 PUSH4 0x8DA5CB5B EQ PUSH2 0x541 JUMPI PUSH2 0x1DA JUMP JUMPDEST DUP1 PUSH4 0x39509351 GT PUSH2 0x17C JUMPI DUP1 PUSH4 0x456EE286 GT PUSH2 0x14B JUMPI DUP1 PUSH4 0x456EE286 EQ PUSH2 0x478 JUMPI DUP1 PUSH4 0x609350CD EQ PUSH2 0x4BF JUMPI DUP1 PUSH4 0x60E232A9 EQ PUSH2 0x4E5 JUMPI DUP1 PUSH4 0x6691CB3D EQ PUSH2 0x50B JUMPI PUSH2 0x1DA JUMP JUMPDEST DUP1 PUSH4 0x39509351 EQ PUSH2 0x3DF JUMPI DUP1 PUSH4 0x39A7919F EQ PUSH2 0x40B JUMPI DUP1 PUSH4 0x40C10F19 EQ PUSH2 0x428 JUMPI DUP1 PUSH4 0x430BF08A EQ PUSH2 0x454 JUMPI PUSH2 0x1DA JUMP JUMPDEST DUP1 PUSH4 0x95EA7B3 GT PUSH2 0x1B8 JUMPI DUP1 PUSH4 0x95EA7B3 EQ PUSH2 0x343 JUMPI DUP1 PUSH4 0x18160DDD EQ PUSH2 0x383 JUMPI DUP1 PUSH4 0x23B872DD EQ PUSH2 0x38B JUMPI DUP1 PUSH4 0x313CE567 EQ PUSH2 0x3C1 JUMPI PUSH2 0x1DA JUMP JUMPDEST DUP1 PUSH4 0x6FDDE03 EQ PUSH2 0x1DF JUMPI DUP1 PUSH4 0x77F224A EQ PUSH2 0x25C JUMPI DUP1 PUSH4 0x77F22B7 EQ PUSH2 0x329 JUMPI JUMPDEST PUSH1 0x0 DUP1 REVERT JUMPDEST PUSH2 0x1E7 PUSH2 0x690 JUMP JUMPDEST PUSH1 0x40 DUP1 MLOAD PUSH1 0x20 DUP1 DUP3 MSTORE DUP4 MLOAD DUP2 DUP4 ADD MSTORE DUP4 MLOAD SWAP2 SWAP3 DUP4 SWAP3 SWAP1 DUP4 ADD SWAP2 DUP6 ADD SWAP1 DUP1 DUP4 DUP4 PUSH1 0x0 JUMPDEST DUP4 DUP2 LT ISZERO PUSH2 0x221 JUMPI DUP2 DUP2 ADD MLOAD DUP4 DUP3 ADD MSTORE PUSH1 0x20 ADD PUSH2 0x209 JUMP JUMPDEST POP POP POP POP SWAP1 POP SWAP1 DUP2 ADD SWAP1 PUSH1 0x1F AND DUP1 ISZERO PUSH2 0x24E JUMPI DUP1 DUP3 SUB DUP1 MLOAD PUSH1 0x1 DUP4 PUSH1 0x20 SUB PUSH2 0x100 EXP SUB NOT AND DUP2 MSTORE PUSH1 0x20 ADD SWAP2 POP JUMPDEST POP SWAP3 POP POP POP PUSH1 0x40 MLOAD DUP1 SWAP2 SUB SWAP1 RETURN JUMPDEST PUSH2 0x327 PUSH1 0x4 DUP1 CALLDATASIZE SUB PUSH1 0x60 DUP2 LT ISZERO PUSH2 0x272 JUMPI PUSH1 0x0 DUP1 REVERT JUMPDEST DUP2 ADD SWAP1 PUSH1 0x20 DUP2 ADD DUP2 CALLDATALOAD PUSH5 0x100000000 DUP2 GT ISZERO PUSH2 0x28D JUMPI PUSH1 0x0 DUP1 REVERT JUMPDEST DUP3 ADD DUP4 PUSH1 0x20 DUP3 ADD GT ISZERO PUSH2 0x29F JUMPI PUSH1 0x0 DUP1 REVERT JUMPDEST DUP1 CALLDATALOAD SWAP1 PUSH1 0x20 ADD SWAP2 DUP5 PUSH1 0x1 DUP4 MUL DUP5 ADD GT PUSH5 0x100000000 DUP4 GT OR ISZERO PUSH2 0x2C1 JUMPI PUSH1 0x0 DUP1 REVERT JUMPDEST SWAP2 SWAP4 SWAP1 SWAP3 SWAP1 SWAP2 PUSH1 0x20 DUP2 ADD SWAP1 CALLDATALOAD PUSH5 0x100000000 DUP2 GT ISZERO PUSH2 0x2DF JUMPI PUSH1 0x0 DUP1 REVERT JUMPDEST DUP3 ADD DUP4 PUSH1 0x20 DUP3 ADD GT ISZERO PUSH2 0x2F1 JUMPI PUSH1 0x0 DUP1 REVERT JUMPDEST DUP1 CALLDATALOAD SWAP1 PUSH1 0x20 ADD SWAP2 DUP5 PUSH1 0x1 DUP4 MUL DUP5 ADD GT PUSH5 0x100000000 DUP4 GT OR ISZERO PUSH2 0x313 JUMPI PUSH1 0x0 DUP1 REVERT JUMPDEST SWAP2 SWAP4 POP SWAP2 POP CALLDATALOAD PUSH1 0x1 PUSH1 0x1 PUSH1 0xA0 SHL SUB AND PUSH2 0x726 JUMP JUMPDEST STOP JUMPDEST PUSH2 0x331 PUSH2 0x874 JUMP JUMPDEST PUSH1 0x40 DUP1 MLOAD SWAP2 DUP3 MSTORE MLOAD SWAP1 DUP2 SWAP1 SUB PUSH1 0x20 ADD SWAP1 RETURN JUMPDEST PUSH2 0x36F PUSH1 0x4 DUP1 CALLDATASIZE SUB PUSH1 0x40 DUP2 LT ISZERO PUSH2 0x359 JUMPI PUSH1 0x0 DUP1 REVERT JUMPDEST POP PUSH1 0x1 PUSH1 0x1 PUSH1 0xA0 SHL SUB DUP2 CALLDATALOAD AND SWAP1 PUSH1 0x20 ADD CALLDATALOAD PUSH2 0x87B JUMP JUMPDEST PUSH1 0x40 DUP1 MLOAD SWAP2 ISZERO ISZERO DUP3 MSTORE MLOAD SWAP1 DUP2 SWAP1 SUB PUSH1 0x20 ADD SWAP1 RETURN JUMPDEST PUSH2 0x331 PUSH2 0x8E3 JUMP JUMPDEST PUSH2 0x36F PUSH1 0x4 DUP1 CALLDATASIZE SUB PUSH1 0x60 DUP2 LT ISZERO PUSH2 0x3A1 JUMPI PUSH1 0x0 DUP1 REVERT JUMPDEST POP PUSH1 0x1 PUSH1 0x1 PUSH1 0xA0 SHL SUB DUP2 CALLDATALOAD DUP2 AND SWAP2 PUSH1 0x20 DUP2 ADD CALLDATALOAD SWAP1 SWAP2 AND SWAP1 PUSH1 0x40 ADD CALLDATALOAD PUSH2 0x8E9 JUMP JUMPDEST PUSH2 0x3C9 PUSH2 0xA40 JUMP JUMPDEST PUSH1 0x40 DUP1 MLOAD PUSH1 0xFF SWAP1 SWAP3 AND DUP3 MSTORE MLOAD SWAP1 DUP2 SWAP1 SUB PUSH1 0x20 ADD SWAP1 RETURN JUMPDEST PUSH2 0x36F PUSH1 0x4 DUP1 CALLDATASIZE SUB PUSH1 0x40 DUP2 LT ISZERO PUSH2 0x3F5 JUMPI PUSH1 0x0 DUP1 REVERT JUMPDEST POP PUSH1 0x1 PUSH1 0x1 PUSH1 0xA0 SHL SUB DUP2 CALLDATALOAD AND SWAP1 PUSH1 0x20 ADD CALLDATALOAD PUSH2 0xA49 JUMP JUMPDEST PUSH2 0x327 PUSH1 0x4 DUP1 CALLDATASIZE SUB PUSH1 0x20 DUP2 LT ISZERO PUSH2 0x421 JUMPI PUSH1 0x0 DUP1 REVERT JUMPDEST POP CALLDATALOAD PUSH2 0xADE JUMP JUMPDEST PUSH2 0x327 PUSH1 0x4 DUP1 CALLDATASIZE SUB PUSH1 0x40 DUP2 LT ISZERO PUSH2 0x43E JUMPI PUSH1 0x0 DUP1 REVERT JUMPDEST POP PUSH1 0x1 PUSH1 0x1 PUSH1 0xA0 SHL SUB DUP2 CALLDATALOAD AND SWAP1 PUSH1 0x20 ADD CALLDATALOAD PUSH2 0xCF0 JUMP JUMPDEST PUSH2 0x45C PUSH2 0xD58 JUMP JUMPDEST PUSH1 0x40 DUP1 MLOAD PUSH1 0x1 PUSH1 0x1 PUSH1 0xA0 SHL SUB SWAP1 SWAP3 AND DUP3 MSTORE MLOAD SWAP1 DUP2 SWAP1 SUB PUSH1 0x20 ADD SWAP1 RETURN JUMPDEST PUSH2 0x49E PUSH1 0x4 DUP1 CALLDATASIZE SUB PUSH1 0x20 DUP2 LT ISZERO PUSH2 0x48E JUMPI PUSH1 0x0 DUP1 REVERT JUMPDEST POP CALLDATALOAD PUSH1 0x1 PUSH1 0x1 PUSH1 0xA0 SHL SUB AND PUSH2 0xD68 JUMP JUMPDEST PUSH1 0x40 MLOAD DUP1 DUP3 PUSH1 0x2 DUP2 GT ISZERO PUSH2 0x4AE JUMPI INVALID JUMPDEST DUP2 MSTORE PUSH1 0x20 ADD SWAP2 POP POP PUSH1 0x40 MLOAD DUP1 SWAP2 SUB SWAP1 RETURN JUMPDEST PUSH2 0x331 PUSH1 0x4 DUP1 CALLDATASIZE SUB PUSH1 0x20 DUP2 LT ISZERO PUSH2 0x4D5 JUMPI PUSH1 0x0 DUP1 REVERT JUMPDEST POP CALLDATALOAD PUSH1 0x1 PUSH1 0x1 PUSH1 0xA0 SHL SUB AND PUSH2 0xD7E JUMP JUMPDEST PUSH2 0x327 PUSH1 0x4 DUP1 CALLDATASIZE SUB PUSH1 0x20 DUP2 LT ISZERO PUSH2 0x4FB JUMPI PUSH1 0x0 DUP1 REVERT JUMPDEST POP CALLDATALOAD PUSH1 0x1 PUSH1 0x1 PUSH1 0xA0 SHL SUB AND PUSH2 0xD91 JUMP JUMPDEST PUSH2 0x331 PUSH2 0xE16 JUMP JUMPDEST PUSH2 0x331 PUSH1 0x4 DUP1 CALLDATASIZE SUB PUSH1 0x20 DUP2 LT ISZERO PUSH2 0x529 JUMPI PUSH1 0x0 DUP1 REVERT JUMPDEST POP CALLDATALOAD PUSH1 0x1 PUSH1 0x1 PUSH1 0xA0 SHL SUB AND PUSH2 0xE1D JUMP JUMPDEST PUSH2 0x327 PUSH2 0xE77 JUMP JUMPDEST PUSH2 0x45C PUSH2 0xF29 JUMP JUMPDEST PUSH2 0x1E7 PUSH2 0xF3D JUMP JUMPDEST PUSH2 0x331 PUSH2 0xF9E JUMP JUMPDEST PUSH2 0x327 PUSH1 0x4 DUP1 CALLDATASIZE SUB PUSH1 0x40 DUP2 LT ISZERO PUSH2 0x56F JUMPI PUSH1 0x0 DUP1 REVERT JUMPDEST POP PUSH1 0x1 PUSH1 0x1 PUSH1 0xA0 SHL SUB DUP2 CALLDATALOAD AND SWAP1 PUSH1 0x20 ADD CALLDATALOAD PUSH2 0xFA4 JUMP JUMPDEST PUSH2 0x331 PUSH2 0x1008 JUMP JUMPDEST PUSH2 0x36F PUSH1 0x4 DUP1 CALLDATASIZE SUB PUSH1 0x40 DUP2 LT ISZERO PUSH2 0x5A3 JUMPI PUSH1 0x0 DUP1 REVERT JUMPDEST POP PUSH1 0x1 PUSH1 0x1 PUSH1 0xA0 SHL SUB DUP2 CALLDATALOAD AND SWAP1 PUSH1 0x20 ADD CALLDATALOAD PUSH2 0x100E JUMP JUMPDEST PUSH2 0x36F PUSH1 0x4 DUP1 CALLDATASIZE SUB PUSH1 0x40 DUP2 LT ISZERO PUSH2 0x5CF JUMPI PUSH1 0x0 DUP1 REVERT JUMPDEST POP PUSH1 0x1 PUSH1 0x1 PUSH1 0xA0 SHL SUB DUP2 CALLDATALOAD AND SWAP1 PUSH1 0x20 ADD CALLDATALOAD PUSH2 0x10FB JUMP JUMPDEST PUSH2 0x327 PUSH2 0x11F2 JUMP JUMPDEST PUSH2 0x331 PUSH1 0x4 DUP1 CALLDATASIZE SUB PUSH1 0x40 DUP2 LT ISZERO PUSH2 0x603 JUMPI PUSH1 0x0 DUP1 REVERT JUMPDEST POP PUSH1 0x1 PUSH1 0x1 PUSH1 0xA0 SHL SUB DUP2 CALLDATALOAD DUP2 AND SWAP2 PUSH1 0x20 ADD CALLDATALOAD AND PUSH2 0x1319 JUMP JUMPDEST PUSH2 0x331 PUSH2 0x1345 JUMP JUMPDEST PUSH2 0x327 PUSH1 0x4 DUP1 CALLDATASIZE SUB PUSH1 0x20 DUP2 LT ISZERO PUSH2 0x639 JUMPI PUSH1 0x0 DUP1 REVERT JUMPDEST POP CALLDATALOAD PUSH1 0x1 PUSH1 0x1 PUSH1 0xA0 SHL SUB AND PUSH2 0x134C JUMP JUMPDEST PUSH2 0x327 PUSH2 0x145A JUMP JUMPDEST PUSH2 0x677 PUSH1 0x4 DUP1 CALLDATASIZE SUB PUSH1 0x20 DUP2 LT ISZERO PUSH2 0x667 JUMPI PUSH1 0x0 DUP1 REVERT JUMPDEST POP CALLDATALOAD PUSH1 0x1 PUSH1 0x1 PUSH1 0xA0 SHL SUB AND PUSH2 0x15B3 JUMP JUMPDEST PUSH1 0x40 DUP1 MLOAD SWAP3 DUP4 MSTORE PUSH1 0x20 DUP4 ADD SWAP2 SWAP1 SWAP2 MSTORE DUP1 MLOAD SWAP2 DUP3 SWAP1 SUB ADD SWAP1 RETURN JUMPDEST PUSH1 0xC9 DUP1 SLOAD PUSH1 0x40 DUP1 MLOAD PUSH1 0x20 PUSH1 0x1F PUSH1 0x2 PUSH1 0x0 NOT PUSH2 0x100 PUSH1 0x1 DUP9 AND ISZERO MUL ADD SWAP1 SWAP6 AND SWAP5 SWAP1 SWAP5 DIV SWAP4 DUP5 ADD DUP2 SWAP1 DIV DUP2 MUL DUP3 ADD DUP2 ADD SWAP1 SWAP3 MSTORE DUP3 DUP2 MSTORE PUSH1 0x60 SWAP4 SWAP1 SWAP3 SWAP1 SWAP2 DUP4 ADD DUP3 DUP3 DUP1 ISZERO PUSH2 0x71C JUMPI DUP1 PUSH1 0x1F LT PUSH2 0x6F1 JUMPI PUSH2 0x100 DUP1 DUP4 SLOAD DIV MUL DUP4 MSTORE SWAP2 PUSH1 0x20 ADD SWAP2 PUSH2 0x71C JUMP JUMPDEST DUP3 ADD SWAP2 SWAP1 PUSH1 0x0 MSTORE PUSH1 0x20 PUSH1 0x0 KECCAK256 SWAP1 JUMPDEST DUP2 SLOAD DUP2 MSTORE SWAP1 PUSH1 0x1 ADD SWAP1 PUSH1 0x20 ADD DUP1 DUP4 GT PUSH2 0x6FF JUMPI DUP3 SWAP1 SUB PUSH1 0x1F AND DUP3 ADD SWAP2 JUMPDEST POP POP POP POP POP SWAP1 POP SWAP1 JUMP JUMPDEST PUSH1 0x0 SLOAD PUSH2 0x100 SWAP1 DIV PUSH1 0xFF AND DUP1 PUSH2 0x73F JUMPI POP PUSH2 0x73F PUSH2 0x15E1 JUMP JUMPDEST DUP1 PUSH2 0x74D JUMPI POP PUSH1 0x0 SLOAD PUSH1 0xFF AND ISZERO JUMPDEST PUSH2 0x788 JUMPI PUSH1 0x40 MLOAD PUSH3 0x461BCD PUSH1 0xE5 SHL DUP2 MSTORE PUSH1 0x4 ADD DUP1 DUP1 PUSH1 0x20 ADD DUP3 DUP2 SUB DUP3 MSTORE PUSH1 0x2E DUP2 MSTORE PUSH1 0x20 ADD DUP1 PUSH2 0x21DC PUSH1 0x2E SWAP2 CODECOPY PUSH1 0x40 ADD SWAP2 POP POP PUSH1 0x40 MLOAD DUP1 SWAP2 SUB SWAP1 REVERT JUMPDEST PUSH1 0x0 SLOAD PUSH2 0x100 SWAP1 DIV PUSH1 0xFF AND ISZERO DUP1 ISZERO PUSH2 0x7B3 JUMPI PUSH1 0x0 DUP1 SLOAD PUSH1 0xFF NOT PUSH2 0xFF00 NOT SWAP1 SWAP2 AND PUSH2 0x100 OR AND PUSH1 0x1 OR SWAP1 SSTORE JUMPDEST PUSH2 0x829 DUP7 DUP7 DUP1 DUP1 PUSH1 0x1F ADD PUSH1 0x20 DUP1 SWAP2 DIV MUL PUSH1 0x20 ADD PUSH1 0x40 MLOAD SWAP1 DUP2 ADD PUSH1 0x40 MSTORE DUP1 SWAP4 SWAP3 SWAP2 SWAP1 DUP2 DUP2 MSTORE PUSH1 0x20 ADD DUP4 DUP4 DUP1 DUP3 DUP5 CALLDATACOPY PUSH1 0x0 SWAP3 ADD SWAP2 SWAP1 SWAP2 MSTORE POP POP PUSH1 0x40 DUP1 MLOAD PUSH1 0x20 PUSH1 0x1F DUP11 ADD DUP2 SWAP1 DIV DUP2 MUL DUP3 ADD DUP2 ADD SWAP1 SWAP3 MSTORE DUP9 DUP2 MSTORE SWAP3 POP DUP9 SWAP2 POP DUP8 SWAP1 DUP2 SWAP1 DUP5 ADD DUP4 DUP3 DUP1 DUP3 DUP5 CALLDATACOPY PUSH1 0x0 SWAP3 ADD SWAP2 SWAP1 SWAP2 MSTORE POP PUSH1 0x12 SWAP3 POP PUSH2 0x15F2 SWAP2 POP POP JUMP JUMPDEST PUSH2 0x831 PUSH2 0x1632 JUMP JUMPDEST PUSH8 0xDE0B6B3A7640000 PUSH2 0x104 SSTORE PUSH2 0x101 DUP1 SLOAD PUSH1 0x1 PUSH1 0x1 PUSH1 0xA0 SHL SUB NOT AND PUSH1 0x1 PUSH1 0x1 PUSH1 0xA0 SHL SUB DUP5 AND OR SWAP1 SSTORE DUP1 ISZERO PUSH2 0x86C JUMPI PUSH1 0x0 DUP1 SLOAD PUSH2 0xFF00 NOT AND SWAP1 SSTORE JUMPDEST POP POP POP POP POP POP JUMP JUMPDEST PUSH2 0x103 SLOAD DUP2 JUMP JUMPDEST CALLER PUSH1 0x0 DUP2 DUP2 MSTORE PUSH2 0x100 PUSH1 0x20 SWAP1 DUP2 MSTORE PUSH1 0x40 DUP1 DUP4 KECCAK256 PUSH1 0x1 PUSH1 0x1 PUSH1 0xA0 SHL SUB DUP8 AND DUP1 DUP6 MSTORE SWAP1 DUP4 MSTORE DUP2 DUP5 KECCAK256 DUP7 SWAP1 SSTORE DUP2 MLOAD DUP7 DUP2 MSTORE SWAP2 MLOAD SWAP4 SWAP5 SWAP1 SWAP4 SWAP1 SWAP3 PUSH32 0x8C5BE1E5EBEC7D5BD14F71427D1E84F3DD0314C0F7B2291E5B200AC8C7C3B925 SWAP3 DUP3 SWAP1 SUB ADD SWAP1 LOG3 POP PUSH1 0x1 JUMPDEST SWAP3 SWAP2 POP POP JUMP JUMPDEST PUSH1 0xFD SLOAD SWAP1 JUMP JUMPDEST PUSH1 0x0 PUSH1 0x1 PUSH1 0x1 PUSH1 0xA0 SHL SUB DUP4 AND PUSH2 0x941 JUMPI PUSH1 0x40 DUP1 MLOAD PUSH3 0x461BCD PUSH1 0xE5 SHL DUP2 MSTORE PUSH1 0x20 PUSH1 0x4 DUP3 ADD MSTORE PUSH1 0x18 PUSH1 0x24 DUP3 ADD MSTORE PUSH24 0x5472616E7366657220746F207A65726F2061646472657373 PUSH1 0x40 SHL PUSH1 0x44 DUP3 ADD MSTORE SWAP1 MLOAD SWAP1 DUP2 SWAP1 SUB PUSH1 0x64 ADD SWAP1 REVERT JUMPDEST PUSH2 0x94A DUP5 PUSH2 0xE1D JUMP JUMPDEST DUP3 GT ISZERO PUSH2 0x99E JUMPI PUSH1 0x40 DUP1 MLOAD PUSH3 0x461BCD PUSH1 0xE5 SHL DUP2 MSTORE PUSH1 0x20 PUSH1 0x4 DUP3 ADD MSTORE PUSH1 0x1D PUSH1 0x24 DUP3 ADD MSTORE PUSH32 0x5472616E736665722067726561746572207468616E2062616C616E6365000000 PUSH1 0x44 DUP3 ADD MSTORE SWAP1 MLOAD SWAP1 DUP2 SWAP1 SUB PUSH1 0x64 ADD SWAP1 REVERT JUMPDEST PUSH1 0x1 PUSH1 0x1 PUSH1 0xA0 SHL SUB DUP5 AND PUSH1 0x0 SWAP1 DUP2 MSTORE PUSH2 0x100 PUSH1 0x20 SWAP1 DUP2 MSTORE PUSH1 0x40 DUP1 DUP4 KECCAK256 CALLER DUP5 MSTORE SWAP1 SWAP2 MSTORE SWAP1 KECCAK256 SLOAD PUSH2 0x9CD SWAP1 DUP4 PUSH2 0x16E3 JUMP JUMPDEST PUSH1 0x1 PUSH1 0x1 PUSH1 0xA0 SHL SUB DUP6 AND PUSH1 0x0 SWAP1 DUP2 MSTORE PUSH2 0x100 PUSH1 0x20 SWAP1 DUP2 MSTORE PUSH1 0x40 DUP1 DUP4 KECCAK256 CALLER DUP5 MSTORE SWAP1 SWAP2 MSTORE SWAP1 KECCAK256 SSTORE PUSH2 0x9FD DUP5 DUP5 DUP5 PUSH2 0x1740 JUMP JUMPDEST DUP3 PUSH1 0x1 PUSH1 0x1 PUSH1 0xA0 SHL SUB AND DUP5 PUSH1 0x1 PUSH1 0x1 PUSH1 0xA0 SHL SUB AND PUSH1 0x0 DUP1 MLOAD PUSH1 0x20 PUSH2 0x224B DUP4 CODECOPY DUP2 MLOAD SWAP2 MSTORE DUP5 PUSH1 0x40 MLOAD DUP1 DUP3 DUP2 MSTORE PUSH1 0x20 ADD SWAP2 POP POP PUSH1 0x40 MLOAD DUP1 SWAP2 SUB SWAP1 LOG3 POP PUSH1 0x1 SWAP4 SWAP3 POP POP POP JUMP JUMPDEST PUSH1 0xCB SLOAD PUSH1 0xFF AND SWAP1 JUMP JUMPDEST CALLER PUSH1 0x0 SWAP1 DUP2 MSTORE PUSH2 0x100 PUSH1 0x20 SWAP1 DUP2 MSTORE PUSH1 0x40 DUP1 DUP4 KECCAK256 PUSH1 0x1 PUSH1 0x1 PUSH1 0xA0 SHL SUB DUP7 AND DUP5 MSTORE SWAP1 SWAP2 MSTORE DUP2 KECCAK256 SLOAD PUSH2 0xA78 SWAP1 DUP4 PUSH2 0x18B9 JUMP JUMPDEST CALLER PUSH1 0x0 DUP2 DUP2 MSTORE PUSH2 0x100 PUSH1 0x20 SWAP1 DUP2 MSTORE PUSH1 0x40 DUP1 DUP4 KECCAK256 PUSH1 0x1 PUSH1 0x1 PUSH1 0xA0 SHL SUB DUP10 AND DUP1 DUP6 MSTORE SWAP1 DUP4 MSTORE SWAP3 DUP2 SWAP1 KECCAK256 DUP6 SWAP1 SSTORE DUP1 MLOAD SWAP5 DUP6 MSTORE MLOAD SWAP2 SWAP4 PUSH32 0x8C5BE1E5EBEC7D5BD14F71427D1E84F3DD0314C0F7B2291E5B200AC8C7C3B925 SWAP3 SWAP1 DUP2 SWAP1 SUB SWAP1 SWAP2 ADD SWAP1 LOG3 POP PUSH1 0x1 SWAP3 SWAP2 POP POP JUMP JUMPDEST PUSH2 0x101 SLOAD PUSH1 0x1 PUSH1 0x1 PUSH1 0xA0 SHL SUB AND CALLER EQ PUSH2 0xB38 JUMPI PUSH1 0x40 DUP1 MLOAD PUSH3 0x461BCD PUSH1 0xE5 SHL DUP2 MSTORE PUSH1 0x20 PUSH1 0x4 DUP3 ADD MSTORE PUSH1 0x17 PUSH1 0x24 DUP3 ADD MSTORE PUSH23 0x10D85B1B195C881A5CC81B9BDD081D1A194815985D5B1D PUSH1 0x4A SHL PUSH1 0x44 DUP3 ADD MSTORE SWAP1 MLOAD SWAP1 DUP2 SWAP1 SUB PUSH1 0x64 ADD SWAP1 REVERT JUMPDEST PUSH1 0x0 PUSH1 0xFD SLOAD GT PUSH2 0xB8F JUMPI PUSH1 0x40 DUP1 MLOAD PUSH3 0x461BCD PUSH1 0xE5 SHL DUP2 MSTORE PUSH1 0x20 PUSH1 0x4 DUP3 ADD MSTORE PUSH1 0x18 PUSH1 0x24 DUP3 ADD MSTORE PUSH32 0x43616E6E6F7420696E637265617365203020737570706C790000000000000000 PUSH1 0x44 DUP3 ADD MSTORE SWAP1 MLOAD SWAP1 DUP2 SWAP1 SUB PUSH1 0x64 ADD SWAP1 REVERT JUMPDEST DUP1 PUSH1 0xFD SLOAD EQ ISZERO PUSH2 0xBE7 JUMPI PUSH1 0xFD SLOAD PUSH2 0x103 SLOAD PUSH2 0x104 SLOAD PUSH1 0x40 DUP1 MLOAD SWAP4 DUP5 MSTORE PUSH1 0x20 DUP5 ADD SWAP3 SWAP1 SWAP3 MSTORE DUP3 DUP3 ADD MSTORE MLOAD PUSH32 0x99E56F783B536FFACF422D59183EA321DD80DCD6D23DAA13023E8AFEA38C3DF1 SWAP2 DUP2 SWAP1 SUB PUSH1 0x60 ADD SWAP1 LOG1 PUSH2 0xCED JUMP JUMPDEST PUSH1 0x1 PUSH1 0x1 PUSH1 0x80 SHL SUB DUP2 GT PUSH2 0xBFB JUMPI DUP1 PUSH2 0xC04 JUMP JUMPDEST PUSH1 0x1 PUSH1 0x1 PUSH1 0x80 SHL SUB JUMPDEST PUSH1 0xFD DUP2 SWAP1 SSTORE PUSH2 0x105 SLOAD PUSH2 0xC24 SWAP2 PUSH2 0xC1A SWAP2 PUSH2 0x16E3 JUMP JUMPDEST PUSH2 0x103 SLOAD SWAP1 PUSH2 0x191A JUMP JUMPDEST PUSH2 0x104 DUP2 SWAP1 SSTORE PUSH2 0xC7B JUMPI PUSH1 0x40 DUP1 MLOAD PUSH3 0x461BCD PUSH1 0xE5 SHL DUP2 MSTORE PUSH1 0x20 PUSH1 0x4 DUP3 ADD MSTORE PUSH1 0x18 PUSH1 0x24 DUP3 ADD MSTORE PUSH32 0x496E76616C6964206368616E676520696E20737570706C790000000000000000 PUSH1 0x44 DUP3 ADD MSTORE SWAP1 MLOAD SWAP1 DUP2 SWAP1 SUB PUSH1 0x64 ADD SWAP1 REVERT JUMPDEST PUSH2 0xCA1 PUSH2 0x105 SLOAD PUSH2 0xC9B PUSH2 0x104 SLOAD PUSH2 0x103 SLOAD PUSH2 0x191A SWAP1 SWAP2 SWAP1 PUSH4 0xFFFFFFFF AND JUMP JUMPDEST SWAP1 PUSH2 0x18B9 JUMP JUMPDEST PUSH1 0xFD DUP2 SWAP1 SSTORE PUSH2 0x103 SLOAD PUSH2 0x104 SLOAD PUSH1 0x40 DUP1 MLOAD SWAP4 DUP5 MSTORE PUSH1 0x20 DUP5 ADD SWAP3 SWAP1 SWAP3 MSTORE DUP3 DUP3 ADD MSTORE MLOAD PUSH32 0x99E56F783B536FFACF422D59183EA321DD80DCD6D23DAA13023E8AFEA38C3DF1 SWAP2 DUP2 SWAP1 SUB PUSH1 0x60 ADD SWAP1 LOG1 JUMPDEST POP JUMP JUMPDEST PUSH2 0x101 SLOAD PUSH1 0x1 PUSH1 0x1 PUSH1 0xA0 SHL SUB AND CALLER EQ PUSH2 0xD4A JUMPI PUSH1 0x40 DUP1 MLOAD PUSH3 0x461BCD PUSH1 0xE5 SHL DUP2 MSTORE PUSH1 0x20 PUSH1 0x4 DUP3 ADD MSTORE PUSH1 0x17 PUSH1 0x24 DUP3 ADD MSTORE PUSH23 0x10D85B1B195C881A5CC81B9BDD081D1A194815985D5B1D PUSH1 0x4A SHL PUSH1 0x44 DUP3 ADD MSTORE SWAP1 MLOAD SWAP1 DUP2 SWAP1 SUB PUSH1 0x64 ADD SWAP1 REVERT JUMPDEST PUSH2 0xD54 DUP3 DUP3 PUSH2 0x1943 JUMP JUMPDEST POP POP JUMP JUMPDEST PUSH2 0x101 SLOAD PUSH1 0x1 PUSH1 0x1 PUSH1 0xA0 SHL SUB AND DUP2 JUMP JUMPDEST PUSH2 0x107 PUSH1 0x20 MSTORE PUSH1 0x0 SWAP1 DUP2 MSTORE PUSH1 0x40 SWAP1 KECCAK256 SLOAD PUSH1 0xFF AND DUP2 JUMP JUMPDEST PUSH2 0x106 PUSH1 0x20 MSTORE PUSH1 0x0 SWAP1 DUP2 MSTORE PUSH1 0x40 SWAP1 KECCAK256 SLOAD DUP2 JUMP JUMPDEST PUSH2 0xD99 PUSH2 0x1AD0 JUMP JUMPDEST PUSH1 0x1 PUSH1 0x1 PUSH1 0xA0 SHL SUB AND PUSH2 0xDAA PUSH2 0xF29 JUMP JUMPDEST PUSH1 0x1 PUSH1 0x1 PUSH1 0xA0 SHL SUB AND EQ PUSH2 0xDF3 JUMPI PUSH1 0x40 DUP1 MLOAD PUSH3 0x461BCD PUSH1 0xE5 SHL DUP2 MSTORE PUSH1 0x20 PUSH1 0x4 DUP3 ADD DUP2 SWAP1 MSTORE PUSH1 0x24 DUP3 ADD MSTORE PUSH1 0x0 DUP1 MLOAD PUSH1 0x20 PUSH2 0x222B DUP4 CODECOPY DUP2 MLOAD SWAP2 MSTORE PUSH1 0x44 DUP3 ADD MSTORE SWAP1 MLOAD SWAP1 DUP2 SWAP1 SUB PUSH1 0x64 ADD SWAP1 REVERT JUMPDEST PUSH2 0x101 DUP1 SLOAD PUSH1 0x1 PUSH1 0x1 PUSH1 0xA0 SHL SUB NOT AND PUSH1 0x1 PUSH1 0x1 PUSH1 0xA0 SHL SUB SWAP3 SWAP1 SWAP3 AND SWAP2 SWAP1 SWAP2 OR SWAP1 SSTORE JUMP JUMPDEST PUSH2 0x104 SLOAD DUP2 JUMP JUMPDEST PUSH1 0x1 PUSH1 0x1 PUSH1 0xA0 SHL SUB DUP2 AND PUSH1 0x0 SWAP1 DUP2 MSTORE PUSH2 0x102 PUSH1 0x20 MSTORE PUSH1 0x40 DUP2 KECCAK256 SLOAD PUSH2 0xE43 JUMPI POP PUSH1 0x0 PUSH2 0xE72 JUMP JUMPDEST PUSH2 0xE6F PUSH2 0xE4F DUP4 PUSH2 0x1AD4 JUMP JUMPDEST PUSH1 0x1 PUSH1 0x1 PUSH1 0xA0 SHL SUB DUP5 AND PUSH1 0x0 SWAP1 DUP2 MSTORE PUSH2 0x102 PUSH1 0x20 MSTORE PUSH1 0x40 SWAP1 KECCAK256 SLOAD SWAP1 PUSH2 0x191A JUMP JUMPDEST SWAP1 POP JUMPDEST SWAP2 SWAP1 POP JUMP JUMPDEST PUSH2 0xE7F PUSH2 0x1AD0 JUMP JUMPDEST PUSH1 0x1 PUSH1 0x1 PUSH1 0xA0 SHL SUB AND PUSH2 0xE90 PUSH2 0xF29 JUMP JUMPDEST PUSH1 0x1 PUSH1 0x1 PUSH1 0xA0 SHL SUB AND EQ PUSH2 0xED9 JUMPI PUSH1 0x40 DUP1 MLOAD PUSH3 0x461BCD PUSH1 0xE5 SHL DUP2 MSTORE PUSH1 0x20 PUSH1 0x4 DUP3 ADD DUP2 SWAP1 MSTORE PUSH1 0x24 DUP3 ADD MSTORE PUSH1 0x0 DUP1 MLOAD PUSH1 0x20 PUSH2 0x222B DUP4 CODECOPY DUP2 MLOAD SWAP2 MSTORE PUSH1 0x44 DUP3 ADD MSTORE SWAP1 MLOAD SWAP1 DUP2 SWAP1 SUB PUSH1 0x64 ADD SWAP1 REVERT JUMPDEST PUSH1 0xCB SLOAD PUSH1 0x40 MLOAD PUSH1 0x0 SWAP2 PUSH2 0x100 SWAP1 DIV PUSH1 0x1 PUSH1 0x1 PUSH1 0xA0 SHL SUB AND SWAP1 PUSH32 0x8BE0079C531659141344CD1FD0A4F28419497F9722A3DAAFE3B4186F6B6457E0 SWAP1 DUP4 SWAP1 LOG3 PUSH1 0xCB DUP1 SLOAD PUSH2 0x100 PUSH1 0x1 PUSH1 0xA8 SHL SUB NOT AND SWAP1 SSTORE JUMP JUMPDEST PUSH1 0xCB SLOAD PUSH2 0x100 SWAP1 DIV PUSH1 0x1 PUSH1 0x1 PUSH1 0xA0 SHL SUB AND SWAP1 JUMP JUMPDEST PUSH1 0xCA DUP1 SLOAD PUSH1 0x40 DUP1 MLOAD PUSH1 0x20 PUSH1 0x1F PUSH1 0x2 PUSH1 0x0 NOT PUSH2 0x100 PUSH1 0x1 DUP9 AND ISZERO MUL ADD SWAP1 SWAP6 AND SWAP5 SWAP1 SWAP5 DIV SWAP4 DUP5 ADD DUP2 SWAP1 DIV DUP2 MUL DUP3 ADD DUP2 ADD SWAP1 SWAP3 MSTORE DUP3 DUP2 MSTORE PUSH1 0x60 SWAP4 SWAP1 SWAP3 SWAP1 SWAP2 DUP4 ADD DUP3 DUP3 DUP1 ISZERO PUSH2 0x71C JUMPI DUP1 PUSH1 0x1F LT PUSH2 0x6F1 JUMPI PUSH2 0x100 DUP1 DUP4 SLOAD DIV MUL DUP4 MSTORE SWAP2 PUSH1 0x20 ADD SWAP2 PUSH2 0x71C JUMP JUMPDEST PUSH1 0xFF SLOAD DUP2 JUMP JUMPDEST PUSH2 0x101 SLOAD PUSH1 0x1 PUSH1 0x1 PUSH1 0xA0 SHL SUB AND CALLER EQ PUSH2 0xFFE JUMPI PUSH1 0x40 DUP1 MLOAD PUSH3 0x461BCD PUSH1 0xE5 SHL DUP2 MSTORE PUSH1 0x20 PUSH1 0x4 DUP3 ADD MSTORE PUSH1 0x17 PUSH1 0x24 DUP3 ADD MSTORE PUSH23 0x10D85B1B195C881A5CC81B9BDD081D1A194815985D5B1D PUSH1 0x4A SHL PUSH1 0x44 DUP3 ADD MSTORE SWAP1 MLOAD SWAP1 DUP2 SWAP1 SUB PUSH1 0x64 ADD SWAP1 REVERT JUMPDEST PUSH2 0xD54 DUP3 DUP3 PUSH2 0x1B1D JUMP JUMPDEST PUSH1 0xFE SLOAD DUP2 JUMP JUMPDEST CALLER PUSH1 0x0 SWAP1 DUP2 MSTORE PUSH2 0x100 PUSH1 0x20 SWAP1 DUP2 MSTORE PUSH1 0x40 DUP1 DUP4 KECCAK256 PUSH1 0x1 PUSH1 0x1 PUSH1 0xA0 SHL SUB DUP7 AND DUP5 MSTORE SWAP1 SWAP2 MSTORE DUP2 KECCAK256 SLOAD DUP1 DUP4 LT PUSH2 0x1064 JUMPI CALLER PUSH1 0x0 SWAP1 DUP2 MSTORE PUSH2 0x100 PUSH1 0x20 SWAP1 DUP2 MSTORE PUSH1 0x40 DUP1 DUP4 KECCAK256 PUSH1 0x1 PUSH1 0x1 PUSH1 0xA0 SHL SUB DUP9 AND DUP5 MSTORE SWAP1 SWAP2 MSTORE DUP2 KECCAK256 SSTORE PUSH2 0x1094 JUMP JUMPDEST PUSH2 0x106E DUP2 DUP5 PUSH2 0x16E3 JUMP JUMPDEST CALLER PUSH1 0x0 SWAP1 DUP2 MSTORE PUSH2 0x100 PUSH1 0x20 SWAP1 DUP2 MSTORE PUSH1 0x40 DUP1 DUP4 KECCAK256 PUSH1 0x1 PUSH1 0x1 PUSH1 0xA0 SHL SUB DUP10 AND DUP5 MSTORE SWAP1 SWAP2 MSTORE SWAP1 KECCAK256 SSTORE JUMPDEST CALLER PUSH1 0x0 DUP2 DUP2 MSTORE PUSH2 0x100 PUSH1 0x20 SWAP1 DUP2 MSTORE PUSH1 0x40 DUP1 DUP4 KECCAK256 PUSH1 0x1 PUSH1 0x1 PUSH1 0xA0 SHL SUB DUP10 AND DUP1 DUP6 MSTORE SWAP1 DUP4 MSTORE SWAP3 DUP2 SWAP1 KECCAK256 SLOAD DUP2 MLOAD SWAP1 DUP2 MSTORE SWAP1 MLOAD SWAP3 SWAP4 SWAP3 PUSH32 0x8C5BE1E5EBEC7D5BD14F71427D1E84F3DD0314C0F7B2291E5B200AC8C7C3B925 SWAP3 SWAP2 DUP2 SWAP1 SUB SWAP1 SWAP2 ADD SWAP1 LOG3 POP PUSH1 0x1 SWAP4 SWAP3 POP POP POP JUMP JUMPDEST PUSH1 0x0 PUSH1 0x1 PUSH1 0x1 PUSH1 0xA0 SHL SUB DUP4 AND PUSH2 0x1153 JUMPI PUSH1 0x40 DUP1 MLOAD PUSH3 0x461BCD PUSH1 0xE5 SHL DUP2 MSTORE PUSH1 0x20 PUSH1 0x4 DUP3 ADD MSTORE PUSH1 0x18 PUSH1 0x24 DUP3 ADD MSTORE PUSH24 0x5472616E7366657220746F207A65726F2061646472657373 PUSH1 0x40 SHL PUSH1 0x44 DUP3 ADD MSTORE SWAP1 MLOAD SWAP1 DUP2 SWAP1 SUB PUSH1 0x64 ADD SWAP1 REVERT JUMPDEST PUSH2 0x115C CALLER PUSH2 0xE1D JUMP JUMPDEST DUP3 GT ISZERO PUSH2 0x11B0 JUMPI PUSH1 0x40 DUP1 MLOAD PUSH3 0x461BCD PUSH1 0xE5 SHL DUP2 MSTORE PUSH1 0x20 PUSH1 0x4 DUP3 ADD MSTORE PUSH1 0x1D PUSH1 0x24 DUP3 ADD MSTORE PUSH32 0x5472616E736665722067726561746572207468616E2062616C616E6365000000 PUSH1 0x44 DUP3 ADD MSTORE SWAP1 MLOAD SWAP1 DUP2 SWAP1 SUB PUSH1 0x64 ADD SWAP1 REVERT JUMPDEST PUSH2 0x11BB CALLER DUP5 DUP5 PUSH2 0x1740 JUMP JUMPDEST PUSH1 0x40 DUP1 MLOAD DUP4 DUP2 MSTORE SWAP1 MLOAD PUSH1 0x1 PUSH1 0x1 PUSH1 0xA0 SHL SUB DUP6 AND SWAP2 CALLER SWAP2 PUSH1 0x0 DUP1 MLOAD PUSH1 0x20 PUSH2 0x224B DUP4 CODECOPY DUP2 MLOAD SWAP2 MSTORE SWAP2 DUP2 SWAP1 SUB PUSH1 0x20 ADD SWAP1 LOG3 POP PUSH1 0x1 SWAP3 SWAP2 POP POP JUMP JUMPDEST PUSH2 0x11FA PUSH2 0x1AD0 JUMP JUMPDEST PUSH1 0x1 PUSH1 0x1 PUSH1 0xA0 SHL SUB AND PUSH2 0x120B PUSH2 0xF29 JUMP JUMPDEST PUSH1 0x1 PUSH1 0x1 PUSH1 0xA0 SHL SUB AND EQ PUSH2 0x1254 JUMPI PUSH1 0x40 DUP1 MLOAD PUSH3 0x461BCD PUSH1 0xE5 SHL DUP2 MSTORE PUSH1 0x20 PUSH1 0x4 DUP3 ADD DUP2 SWAP1 MSTORE PUSH1 0x24 DUP3 ADD MSTORE PUSH1 0x0 DUP1 MLOAD PUSH1 0x20 PUSH2 0x222B DUP4 CODECOPY DUP2 MLOAD SWAP2 MSTORE PUSH1 0x44 DUP3 ADD MSTORE SWAP1 MLOAD SWAP1 DUP2 SWAP1 SUB PUSH1 0x64 ADD SWAP1 REVERT JUMPDEST PUSH2 0x125D CALLER PUSH2 0x1D05 JUMP JUMPDEST ISZERO PUSH2 0x12AF JUMPI PUSH1 0x40 DUP1 MLOAD PUSH3 0x461BCD PUSH1 0xE5 SHL DUP2 MSTORE PUSH1 0x20 PUSH1 0x4 DUP3 ADD MSTORE PUSH1 0x18 PUSH1 0x24 DUP3 ADD MSTORE PUSH32 0x4163636F756E7420686173206E6F74206F7074656420696E0000000000000000 PUSH1 0x44 DUP3 ADD MSTORE SWAP1 MLOAD SWAP1 DUP2 SWAP1 SUB PUSH1 0x64 ADD SWAP1 REVERT JUMPDEST PUSH2 0x12C5 PUSH2 0x12BB CALLER PUSH2 0xE1D JUMP JUMPDEST PUSH2 0x105 SLOAD SWAP1 PUSH2 0x18B9 JUMP JUMPDEST PUSH2 0x105 SSTORE PUSH2 0x104 SLOAD CALLER PUSH1 0x0 SWAP1 DUP2 MSTORE PUSH2 0x106 PUSH1 0x20 SWAP1 DUP2 MSTORE PUSH1 0x40 DUP1 DUP4 KECCAK256 SWAP4 SWAP1 SWAP4 SSTORE PUSH2 0x102 SWAP1 MSTORE KECCAK256 SLOAD PUSH2 0x103 SLOAD PUSH2 0x12F8 SWAP2 PUSH2 0x16E3 JUMP JUMPDEST PUSH2 0x103 SSTORE CALLER PUSH1 0x0 SWAP1 DUP2 MSTORE PUSH2 0x107 PUSH1 0x20 MSTORE PUSH1 0x40 SWAP1 KECCAK256 DUP1 SLOAD PUSH1 0xFF NOT AND PUSH1 0x1 OR SWAP1 SSTORE JUMP JUMPDEST PUSH1 0x1 PUSH1 0x1 PUSH1 0xA0 SHL SUB SWAP2 DUP3 AND PUSH1 0x0 SWAP1 DUP2 MSTORE PUSH2 0x100 PUSH1 0x20 SWAP1 DUP2 MSTORE PUSH1 0x40 DUP1 DUP4 KECCAK256 SWAP4 SWAP1 SWAP5 AND DUP3 MSTORE SWAP2 SWAP1 SWAP2 MSTORE KECCAK256 SLOAD SWAP1 JUMP JUMPDEST PUSH2 0x105 SLOAD DUP2 JUMP JUMPDEST PUSH2 0x1354 PUSH2 0x1AD0 JUMP JUMPDEST PUSH1 0x1 PUSH1 0x1 PUSH1 0xA0 SHL SUB AND PUSH2 0x1365 PUSH2 0xF29 JUMP JUMPDEST PUSH1 0x1 PUSH1 0x1 PUSH1 0xA0 SHL SUB AND EQ PUSH2 0x13AE JUMPI PUSH1 0x40 DUP1 MLOAD PUSH3 0x461BCD PUSH1 0xE5 SHL DUP2 MSTORE PUSH1 0x20 PUSH1 0x4 DUP3 ADD DUP2 SWAP1 MSTORE PUSH1 0x24 DUP3 ADD MSTORE PUSH1 0x0 DUP1 MLOAD PUSH1 0x20 PUSH2 0x222B DUP4 CODECOPY DUP2 MLOAD SWAP2 MSTORE PUSH1 0x44 DUP3 ADD MSTORE SWAP1 MLOAD SWAP1 DUP2 SWAP1 SUB PUSH1 0x64 ADD SWAP1 REVERT JUMPDEST PUSH1 0x1 PUSH1 0x1 PUSH1 0xA0 SHL SUB DUP2 AND PUSH2 0x13F3 JUMPI PUSH1 0x40 MLOAD PUSH3 0x461BCD PUSH1 0xE5 SHL DUP2 MSTORE PUSH1 0x4 ADD DUP1 DUP1 PUSH1 0x20 ADD DUP3 DUP2 SUB DUP3 MSTORE PUSH1 0x26 DUP2 MSTORE PUSH1 0x20 ADD DUP1 PUSH2 0x21B6 PUSH1 0x26 SWAP2 CODECOPY PUSH1 0x40 ADD SWAP2 POP POP PUSH1 0x40 MLOAD DUP1 SWAP2 SUB SWAP1 REVERT JUMPDEST PUSH1 0xCB SLOAD PUSH1 0x40 MLOAD PUSH1 0x1 PUSH1 0x1 PUSH1 0xA0 SHL SUB DUP1 DUP5 AND SWAP3 PUSH2 0x100 SWAP1 DIV AND SWAP1 PUSH32 0x8BE0079C531659141344CD1FD0A4F28419497F9722A3DAAFE3B4186F6B6457E0 SWAP1 PUSH1 0x0 SWAP1 LOG3 PUSH1 0xCB DUP1 SLOAD PUSH1 0x1 PUSH1 0x1 PUSH1 0xA0 SHL SUB SWAP1 SWAP3 AND PUSH2 0x100 MUL PUSH2 0x100 PUSH1 0x1 PUSH1 0xA8 SHL SUB NOT SWAP1 SWAP3 AND SWAP2 SWAP1 SWAP2 OR SWAP1 SSTORE JUMP JUMPDEST PUSH2 0x1462 PUSH2 0x1AD0 JUMP JUMPDEST PUSH1 0x1 PUSH1 0x1 PUSH1 0xA0 SHL SUB AND PUSH2 0x1473 PUSH2 0xF29 JUMP JUMPDEST PUSH1 0x1 PUSH1 0x1 PUSH1 0xA0 SHL SUB AND EQ PUSH2 0x14BC JUMPI PUSH1 0x40 DUP1 MLOAD PUSH3 0x461BCD PUSH1 0xE5 SHL DUP2 MSTORE PUSH1 0x20 PUSH1 0x4 DUP3 ADD DUP2 SWAP1 MSTORE PUSH1 0x24 DUP3 ADD MSTORE PUSH1 0x0 DUP1 MLOAD PUSH1 0x20 PUSH2 0x222B DUP4 CODECOPY DUP2 MLOAD SWAP2 MSTORE PUSH1 0x44 DUP3 ADD MSTORE SWAP1 MLOAD SWAP1 DUP2 SWAP1 SUB PUSH1 0x64 ADD SWAP1 REVERT JUMPDEST PUSH2 0x14C5 CALLER PUSH2 0x1D05 JUMP JUMPDEST PUSH2 0x1516 JUMPI PUSH1 0x40 DUP1 MLOAD PUSH3 0x461BCD PUSH1 0xE5 SHL DUP2 MSTORE PUSH1 0x20 PUSH1 0x4 DUP3 ADD MSTORE PUSH1 0x19 PUSH1 0x24 DUP3 ADD MSTORE PUSH32 0x4163636F756E7420686173206E6F74206F70746564206F757400000000000000 PUSH1 0x44 DUP3 ADD MSTORE SWAP1 MLOAD SWAP1 DUP2 SWAP1 SUB PUSH1 0x64 ADD SWAP1 REVERT JUMPDEST PUSH1 0x0 PUSH2 0x1548 PUSH2 0x1524 CALLER PUSH2 0x1AD4 JUMP JUMPDEST PUSH2 0x104 SLOAD CALLER PUSH1 0x0 SWAP1 DUP2 MSTORE PUSH2 0x102 PUSH1 0x20 MSTORE PUSH1 0x40 SWAP1 KECCAK256 SLOAD PUSH2 0x1542 SWAP2 PUSH2 0x1D73 JUMP JUMPDEST SWAP1 PUSH2 0x1DCC JUMP JUMPDEST SWAP1 POP PUSH2 0x1560 PUSH2 0x1556 CALLER PUSH2 0xE1D JUMP JUMPDEST PUSH2 0x105 SLOAD SWAP1 PUSH2 0x16E3 JUMP JUMPDEST PUSH2 0x105 SSTORE CALLER PUSH1 0x0 SWAP1 DUP2 MSTORE PUSH2 0x102 PUSH1 0x20 MSTORE PUSH1 0x40 SWAP1 KECCAK256 DUP2 SWAP1 SSTORE PUSH2 0x103 SLOAD PUSH2 0x1585 SWAP1 DUP3 PUSH2 0x18B9 JUMP JUMPDEST PUSH2 0x103 SSTORE POP CALLER PUSH1 0x0 SWAP1 DUP2 MSTORE PUSH2 0x107 PUSH1 0x20 SWAP1 DUP2 MSTORE PUSH1 0x40 DUP1 DUP4 KECCAK256 DUP1 SLOAD PUSH1 0xFF NOT AND PUSH1 0x2 OR SWAP1 SSTORE PUSH2 0x106 SWAP1 SWAP2 MSTORE DUP2 KECCAK256 SSTORE JUMP JUMPDEST PUSH1 0x1 PUSH1 0x1 PUSH1 0xA0 SHL SUB DUP2 AND PUSH1 0x0 SWAP1 DUP2 MSTORE PUSH2 0x102 PUSH1 0x20 MSTORE PUSH1 0x40 DUP2 KECCAK256 SLOAD DUP2 SWAP1 PUSH2 0x15D8 DUP5 PUSH2 0x1AD4 JUMP JUMPDEST SWAP2 POP SWAP2 POP SWAP2 POP SWAP2 JUMP JUMPDEST PUSH1 0x0 PUSH2 0x15EC ADDRESS PUSH2 0x1E33 JUMP JUMPDEST ISZERO SWAP1 POP SWAP1 JUMP JUMPDEST DUP3 MLOAD PUSH2 0x1605 SWAP1 PUSH1 0xC9 SWAP1 PUSH1 0x20 DUP7 ADD SWAP1 PUSH2 0x2122 JUMP JUMPDEST POP DUP2 MLOAD PUSH2 0x1619 SWAP1 PUSH1 0xCA SWAP1 PUSH1 0x20 DUP6 ADD SWAP1 PUSH2 0x2122 JUMP JUMPDEST POP PUSH1 0xCB DUP1 SLOAD PUSH1 0xFF NOT AND PUSH1 0xFF SWAP3 SWAP1 SWAP3 AND SWAP2 SWAP1 SWAP2 OR SWAP1 SSTORE POP POP JUMP JUMPDEST PUSH1 0x0 SLOAD PUSH2 0x100 SWAP1 DIV PUSH1 0xFF AND DUP1 PUSH2 0x164B JUMPI POP PUSH2 0x164B PUSH2 0x15E1 JUMP JUMPDEST DUP1 PUSH2 0x1659 JUMPI POP PUSH1 0x0 SLOAD PUSH1 0xFF AND ISZERO JUMPDEST PUSH2 0x1694 JUMPI PUSH1 0x40 MLOAD PUSH3 0x461BCD PUSH1 0xE5 SHL DUP2 MSTORE PUSH1 0x4 ADD DUP1 DUP1 PUSH1 0x20 ADD DUP3 DUP2 SUB DUP3 MSTORE PUSH1 0x2E DUP2 MSTORE PUSH1 0x20 ADD DUP1 PUSH2 0x21DC PUSH1 0x2E SWAP2 CODECOPY PUSH1 0x40 ADD SWAP2 POP POP PUSH1 0x40 MLOAD DUP1 SWAP2 SUB SWAP1 REVERT JUMPDEST PUSH1 0x0 SLOAD PUSH2 0x100 SWAP1 DIV PUSH1 0xFF AND ISZERO DUP1 ISZERO PUSH2 0x16BF JUMPI PUSH1 0x0 DUP1 SLOAD PUSH1 0xFF NOT PUSH2 0xFF00 NOT SWAP1 SWAP2 AND PUSH2 0x100 OR AND PUSH1 0x1 OR SWAP1 SSTORE JUMPDEST PUSH2 0x16C7 PUSH2 0x1E39 JUMP JUMPDEST PUSH2 0x16CF PUSH2 0x1ED9 JUMP JUMPDEST DUP1 ISZERO PUSH2 0xCED JUMPI PUSH1 0x0 DUP1 SLOAD PUSH2 0xFF00 NOT AND SWAP1 SSTORE POP JUMP JUMPDEST PUSH1 0x0 DUP3 DUP3 GT ISZERO PUSH2 0x173A JUMPI PUSH1 0x40 DUP1 MLOAD PUSH3 0x461BCD PUSH1 0xE5 SHL DUP2 MSTORE PUSH1 0x20 PUSH1 0x4 DUP3 ADD MSTORE PUSH1 0x1E PUSH1 0x24 DUP3 ADD MSTORE PUSH32 0x536166654D6174683A207375627472616374696F6E206F766572666C6F770000 PUSH1 0x44 DUP3 ADD MSTORE SWAP1 MLOAD SWAP1 DUP2 SWAP1 SUB PUSH1 0x64 ADD SWAP1 REVERT JUMPDEST POP SWAP1 SUB SWAP1 JUMP JUMPDEST PUSH1 0x0 PUSH2 0x174B DUP4 PUSH2 0x1D05 JUMP JUMPDEST SWAP1 POP PUSH1 0x0 PUSH2 0x1758 DUP6 PUSH2 0x1D05 JUMP JUMPDEST SWAP1 POP PUSH1 0x0 PUSH2 0x176F PUSH2 0x1768 DUP7 PUSH2 0x1AD4 JUMP JUMPDEST DUP6 SWAP1 PUSH2 0x1FDA JUMP JUMPDEST SWAP1 POP PUSH1 0x0 PUSH2 0x1786 PUSH2 0x177F DUP9 PUSH2 0x1AD4 JUMP JUMPDEST DUP7 SWAP1 PUSH2 0x1FDA JUMP JUMPDEST SWAP1 POP PUSH2 0x17F8 DUP2 PUSH1 0x40 MLOAD DUP1 PUSH1 0x40 ADD PUSH1 0x40 MSTORE DUP1 PUSH1 0x1F DUP2 MSTORE PUSH1 0x20 ADD PUSH32 0x5472616E7366657220616D6F756E7420657863656564732062616C616E636500 DUP2 MSTORE POP PUSH2 0x102 PUSH1 0x0 DUP12 PUSH1 0x1 PUSH1 0x1 PUSH1 0xA0 SHL SUB AND PUSH1 0x1 PUSH1 0x1 PUSH1 0xA0 SHL SUB AND DUP2 MSTORE PUSH1 0x20 ADD SWAP1 DUP2 MSTORE PUSH1 0x20 ADD PUSH1 0x0 KECCAK256 SLOAD PUSH2 0x1FEF SWAP1 SWAP3 SWAP2 SWAP1 PUSH4 0xFFFFFFFF AND JUMP JUMPDEST PUSH1 0x1 PUSH1 0x1 PUSH1 0xA0 SHL SUB DUP1 DUP10 AND PUSH1 0x0 SWAP1 DUP2 MSTORE PUSH2 0x102 PUSH1 0x20 MSTORE PUSH1 0x40 DUP1 DUP3 KECCAK256 SWAP4 SWAP1 SWAP4 SSTORE SWAP1 DUP9 AND DUP2 MSTORE KECCAK256 SLOAD PUSH2 0x1828 SWAP1 DUP4 PUSH2 0x18B9 JUMP JUMPDEST PUSH1 0x1 PUSH1 0x1 PUSH1 0xA0 SHL SUB DUP8 AND PUSH1 0x0 SWAP1 DUP2 MSTORE PUSH2 0x102 PUSH1 0x20 MSTORE PUSH1 0x40 SWAP1 KECCAK256 SSTORE DUP4 DUP1 ISZERO PUSH2 0x184D JUMPI POP DUP3 ISZERO JUMPDEST ISZERO PUSH2 0x187B JUMPI PUSH2 0x105 SLOAD PUSH2 0x1860 SWAP1 DUP7 PUSH2 0x18B9 JUMP JUMPDEST PUSH2 0x105 SSTORE PUSH2 0x103 SLOAD PUSH2 0x1872 SWAP1 DUP3 PUSH2 0x16E3 JUMP JUMPDEST PUSH2 0x103 SSTORE PUSH2 0x18B0 JUMP JUMPDEST DUP4 ISZERO DUP1 ISZERO PUSH2 0x1886 JUMPI POP DUP3 JUMPDEST ISZERO PUSH2 0x18B0 JUMPI PUSH2 0x105 SLOAD PUSH2 0x1899 SWAP1 DUP7 PUSH2 0x16E3 JUMP JUMPDEST PUSH2 0x105 SSTORE PUSH2 0x103 SLOAD PUSH2 0x18AB SWAP1 DUP4 PUSH2 0x18B9 JUMP JUMPDEST PUSH2 0x103 SSTORE JUMPDEST POP POP POP POP POP POP POP JUMP JUMPDEST PUSH1 0x0 DUP3 DUP3 ADD DUP4 DUP2 LT ISZERO PUSH2 0x1913 JUMPI PUSH1 0x40 DUP1 MLOAD PUSH3 0x461BCD PUSH1 0xE5 SHL DUP2 MSTORE PUSH1 0x20 PUSH1 0x4 DUP3 ADD MSTORE PUSH1 0x1B PUSH1 0x24 DUP3 ADD MSTORE PUSH32 0x536166654D6174683A206164646974696F6E206F766572666C6F770000000000 PUSH1 0x44 DUP3 ADD MSTORE SWAP1 MLOAD SWAP1 DUP2 SWAP1 SUB PUSH1 0x64 ADD SWAP1 REVERT JUMPDEST SWAP4 SWAP3 POP POP POP JUMP JUMPDEST PUSH1 0x0 DUP1 PUSH2 0x192F DUP5 PUSH8 0xDE0B6B3A7640000 PUSH2 0x1D73 JUMP JUMPDEST SWAP1 POP PUSH2 0x193B DUP2 DUP5 PUSH2 0x1DCC JUMP JUMPDEST SWAP5 SWAP4 POP POP POP POP JUMP JUMPDEST PUSH1 0x1 PUSH1 0x1 PUSH1 0xA0 SHL SUB DUP3 AND PUSH2 0x199E JUMPI PUSH1 0x40 DUP1 MLOAD PUSH3 0x461BCD PUSH1 0xE5 SHL DUP2 MSTORE PUSH1 0x20 PUSH1 0x4 DUP3 ADD MSTORE PUSH1 0x18 PUSH1 0x24 DUP3 ADD MSTORE PUSH32 0x4D696E7420746F20746865207A65726F20616464726573730000000000000000 PUSH1 0x44 DUP3 ADD MSTORE SWAP1 MLOAD SWAP1 DUP2 SWAP1 SUB PUSH1 0x64 ADD SWAP1 REVERT JUMPDEST PUSH1 0x0 PUSH2 0x19A9 DUP4 PUSH2 0x1D05 JUMP JUMPDEST SWAP1 POP PUSH1 0x0 PUSH2 0x19C0 PUSH2 0x19B9 DUP6 PUSH2 0x1AD4 JUMP JUMPDEST DUP5 SWAP1 PUSH2 0x1FDA JUMP JUMPDEST PUSH1 0x1 PUSH1 0x1 PUSH1 0xA0 SHL SUB DUP6 AND PUSH1 0x0 SWAP1 DUP2 MSTORE PUSH2 0x102 PUSH1 0x20 MSTORE PUSH1 0x40 SWAP1 KECCAK256 SLOAD SWAP1 SWAP2 POP PUSH2 0x19E7 SWAP1 DUP3 PUSH2 0x18B9 JUMP JUMPDEST PUSH1 0x1 PUSH1 0x1 PUSH1 0xA0 SHL SUB DUP6 AND PUSH1 0x0 SWAP1 DUP2 MSTORE PUSH2 0x102 PUSH1 0x20 MSTORE PUSH1 0x40 SWAP1 KECCAK256 SSTORE DUP2 ISZERO PUSH2 0x1A1E JUMPI PUSH2 0x105 SLOAD PUSH2 0x1A15 SWAP1 DUP5 PUSH2 0x18B9 JUMP JUMPDEST PUSH2 0x105 SSTORE PUSH2 0x1A31 JUMP JUMPDEST PUSH2 0x103 SLOAD PUSH2 0x1A2C SWAP1 DUP3 PUSH2 0x18B9 JUMP JUMPDEST PUSH2 0x103 SSTORE JUMPDEST PUSH1 0xFD SLOAD PUSH2 0x1A3E SWAP1 DUP5 PUSH2 0x18B9 JUMP JUMPDEST PUSH1 0xFD SSTORE PUSH1 0xFE SLOAD PUSH2 0x1A4E SWAP1 DUP5 PUSH2 0x18B9 JUMP JUMPDEST PUSH1 0xFE SSTORE PUSH1 0xFD SLOAD PUSH1 0x1 PUSH1 0x1 PUSH1 0x80 SHL SUB GT PUSH2 0x1A9B JUMPI PUSH1 0x40 DUP1 MLOAD PUSH3 0x461BCD PUSH1 0xE5 SHL DUP2 MSTORE PUSH1 0x20 PUSH1 0x4 DUP3 ADD MSTORE PUSH1 0xA PUSH1 0x24 DUP3 ADD MSTORE PUSH10 0x4D617820737570706C79 PUSH1 0xB0 SHL PUSH1 0x44 DUP3 ADD MSTORE SWAP1 MLOAD SWAP1 DUP2 SWAP1 SUB PUSH1 0x64 ADD SWAP1 REVERT JUMPDEST PUSH1 0x40 DUP1 MLOAD DUP5 DUP2 MSTORE SWAP1 MLOAD PUSH1 0x1 PUSH1 0x1 PUSH1 0xA0 SHL SUB DUP7 AND SWAP2 PUSH1 0x0 SWAP2 PUSH1 0x0 DUP1 MLOAD PUSH1 0x20 PUSH2 0x224B DUP4 CODECOPY DUP2 MLOAD SWAP2 MSTORE SWAP2 DUP2 SWAP1 SUB PUSH1 0x20 ADD SWAP1 LOG3 POP POP POP POP JUMP JUMPDEST CALLER SWAP1 JUMP JUMPDEST PUSH1 0x1 PUSH1 0x1 PUSH1 0xA0 SHL SUB DUP2 AND PUSH1 0x0 SWAP1 DUP2 MSTORE PUSH2 0x106 PUSH1 0x20 MSTORE PUSH1 0x40 DUP2 KECCAK256 SLOAD ISZERO PUSH2 0x1B13 JUMPI POP PUSH1 0x1 PUSH1 0x1 PUSH1 0xA0 SHL SUB DUP2 AND PUSH1 0x0 SWAP1 DUP2 MSTORE PUSH2 0x106 PUSH1 0x20 MSTORE PUSH1 0x40 SWAP1 KECCAK256 SLOAD PUSH2 0xE72 JUMP JUMPDEST POP PUSH2 0x104 SLOAD PUSH2 0xE72 JUMP JUMPDEST PUSH1 0x1 PUSH1 0x1 PUSH1 0xA0 SHL SUB DUP3 AND PUSH2 0x1B78 JUMPI PUSH1 0x40 DUP1 MLOAD PUSH3 0x461BCD PUSH1 0xE5 SHL DUP2 MSTORE PUSH1 0x20 PUSH1 0x4 DUP3 ADD MSTORE PUSH1 0x1A PUSH1 0x24 DUP3 ADD MSTORE PUSH32 0x4275726E2066726F6D20746865207A65726F2061646472657373000000000000 PUSH1 0x44 DUP3 ADD MSTORE SWAP1 MLOAD SWAP1 DUP2 SWAP1 SUB PUSH1 0x64 ADD SWAP1 REVERT JUMPDEST DUP1 PUSH2 0x1B82 JUMPI PUSH2 0xD54 JUMP JUMPDEST PUSH1 0x0 PUSH2 0x1B8D DUP4 PUSH2 0x1D05 JUMP JUMPDEST SWAP1 POP PUSH1 0x0 PUSH2 0x1B9D PUSH2 0x19B9 DUP6 PUSH2 0x1AD4 JUMP JUMPDEST PUSH1 0x1 PUSH1 0x1 PUSH1 0xA0 SHL SUB DUP6 AND PUSH1 0x0 SWAP1 DUP2 MSTORE PUSH2 0x102 PUSH1 0x20 MSTORE PUSH1 0x40 SWAP1 KECCAK256 SLOAD SWAP1 SWAP2 POP DUP1 DUP3 EQ DUP1 PUSH2 0x1BCA JUMPI POP DUP2 PUSH1 0x1 DUP3 SUB EQ JUMPDEST ISZERO PUSH2 0x1BEE JUMPI PUSH1 0x1 PUSH1 0x1 PUSH1 0xA0 SHL SUB DUP6 AND PUSH1 0x0 SWAP1 DUP2 MSTORE PUSH2 0x102 PUSH1 0x20 MSTORE PUSH1 0x40 DUP2 KECCAK256 SSTORE PUSH2 0x1C7F JUMP JUMPDEST DUP2 DUP2 GT ISZERO PUSH2 0x1C39 JUMPI PUSH1 0x1 PUSH1 0x1 PUSH1 0xA0 SHL SUB DUP6 AND PUSH1 0x0 SWAP1 DUP2 MSTORE PUSH2 0x102 PUSH1 0x20 MSTORE PUSH1 0x40 SWAP1 KECCAK256 SLOAD PUSH2 0x1C1A SWAP1 DUP4 PUSH2 0x16E3 JUMP JUMPDEST PUSH1 0x1 PUSH1 0x1 PUSH1 0xA0 SHL SUB DUP7 AND PUSH1 0x0 SWAP1 DUP2 MSTORE PUSH2 0x102 PUSH1 0x20 MSTORE PUSH1 0x40 SWAP1 KECCAK256 SSTORE PUSH2 0x1C7F JUMP JUMPDEST PUSH1 0x40 DUP1 MLOAD PUSH3 0x461BCD PUSH1 0xE5 SHL DUP2 MSTORE PUSH1 0x20 PUSH1 0x4 DUP3 ADD MSTORE PUSH1 0x16 PUSH1 0x24 DUP3 ADD MSTORE PUSH22 0x52656D6F766520657863656564732062616C616E6365 PUSH1 0x50 SHL PUSH1 0x44 DUP3 ADD MSTORE SWAP1 MLOAD SWAP1 DUP2 SWAP1 SUB PUSH1 0x64 ADD SWAP1 REVERT JUMPDEST DUP3 ISZERO PUSH2 0x1C9C JUMPI PUSH2 0x105 SLOAD PUSH2 0x1C93 SWAP1 DUP6 PUSH2 0x16E3 JUMP JUMPDEST PUSH2 0x105 SSTORE PUSH2 0x1CAF JUMP JUMPDEST PUSH2 0x103 SLOAD PUSH2 0x1CAA SWAP1 DUP4 PUSH2 0x16E3 JUMP JUMPDEST PUSH2 0x103 SSTORE JUMPDEST PUSH1 0xFD SLOAD PUSH2 0x1CBC SWAP1 DUP6 PUSH2 0x16E3 JUMP JUMPDEST PUSH1 0xFD SSTORE PUSH1 0xFF SLOAD PUSH2 0x1CCC SWAP1 DUP6 PUSH2 0x18B9 JUMP JUMPDEST PUSH1 0xFF SSTORE PUSH1 0x40 DUP1 MLOAD DUP6 DUP2 MSTORE SWAP1 MLOAD PUSH1 0x0 SWAP2 PUSH1 0x1 PUSH1 0x1 PUSH1 0xA0 SHL SUB DUP9 AND SWAP2 PUSH1 0x0 DUP1 MLOAD PUSH1 0x20 PUSH2 0x224B DUP4 CODECOPY DUP2 MLOAD SWAP2 MSTORE SWAP2 DUP2 SWAP1 SUB PUSH1 0x20 ADD SWAP1 LOG3 POP POP POP POP POP JUMP JUMPDEST PUSH1 0x0 DUP1 PUSH2 0x1D11 DUP4 PUSH2 0x1E33 JUMP JUMPDEST SWAP1 POP DUP1 DUP1 ISZERO PUSH2 0x1D45 JUMPI POP PUSH1 0x1 PUSH1 0x1 PUSH1 0xA0 SHL SUB DUP4 AND PUSH1 0x0 SWAP1 DUP2 MSTORE PUSH2 0x107 PUSH1 0x20 MSTORE PUSH1 0x40 DUP2 KECCAK256 SLOAD PUSH1 0xFF AND PUSH1 0x2 DUP2 GT ISZERO PUSH2 0x1D43 JUMPI INVALID JUMPDEST EQ JUMPDEST ISZERO PUSH2 0x1D53 JUMPI PUSH2 0x1D53 DUP4 PUSH2 0x2086 JUMP JUMPDEST POP POP PUSH1 0x1 PUSH1 0x1 PUSH1 0xA0 SHL SUB AND PUSH1 0x0 SWAP1 DUP2 MSTORE PUSH2 0x106 PUSH1 0x20 MSTORE PUSH1 0x40 SWAP1 KECCAK256 SLOAD ISZERO ISZERO SWAP1 JUMP JUMPDEST PUSH1 0x0 DUP3 PUSH2 0x1D82 JUMPI POP PUSH1 0x0 PUSH2 0x8DD JUMP JUMPDEST DUP3 DUP3 MUL DUP3 DUP5 DUP3 DUP2 PUSH2 0x1D8F JUMPI INVALID JUMPDEST DIV EQ PUSH2 0x1913 JUMPI PUSH1 0x40 MLOAD PUSH3 0x461BCD PUSH1 0xE5 SHL DUP2 MSTORE PUSH1 0x4 ADD DUP1 DUP1 PUSH1 0x20 ADD DUP3 DUP2 SUB DUP3 MSTORE PUSH1 0x21 DUP2 MSTORE PUSH1 0x20 ADD DUP1 PUSH2 0x220A PUSH1 0x21 SWAP2 CODECOPY PUSH1 0x40 ADD SWAP2 POP POP PUSH1 0x40 MLOAD DUP1 SWAP2 SUB SWAP1 REVERT JUMPDEST PUSH1 0x0 DUP1 DUP3 GT PUSH2 0x1E22 JUMPI PUSH1 0x40 DUP1 MLOAD PUSH3 0x461BCD PUSH1 0xE5 SHL DUP2 MSTORE PUSH1 0x20 PUSH1 0x4 DUP3 ADD MSTORE PUSH1 0x1A PUSH1 0x24 DUP3 ADD MSTORE PUSH32 0x536166654D6174683A206469766973696F6E206279207A65726F000000000000 PUSH1 0x44 DUP3 ADD MSTORE SWAP1 MLOAD SWAP1 DUP2 SWAP1 SUB PUSH1 0x64 ADD SWAP1 REVERT JUMPDEST DUP2 DUP4 DUP2 PUSH2 0x1E2B JUMPI INVALID JUMPDEST DIV SWAP4 SWAP3 POP POP POP JUMP JUMPDEST EXTCODESIZE ISZERO ISZERO SWAP1 JUMP JUMPDEST PUSH1 0x0 SLOAD PUSH2 0x100 SWAP1 DIV PUSH1 0xFF AND DUP1 PUSH2 0x1E52 JUMPI POP PUSH2 0x1E52 PUSH2 0x15E1 JUMP JUMPDEST DUP1 PUSH2 0x1E60 JUMPI POP PUSH1 0x0 SLOAD PUSH1 0xFF AND ISZERO JUMPDEST PUSH2 0x1E9B JUMPI PUSH1 0x40 MLOAD PUSH3 0x461BCD PUSH1 0xE5 SHL DUP2 MSTORE PUSH1 0x4 ADD DUP1 DUP1 PUSH1 0x20 ADD DUP3 DUP2 SUB DUP3 MSTORE PUSH1 0x2E DUP2 MSTORE PUSH1 0x20 ADD DUP1 PUSH2 0x21DC PUSH1 0x2E SWAP2 CODECOPY PUSH1 0x40 ADD SWAP2 POP POP PUSH1 0x40 MLOAD DUP1 SWAP2 SUB SWAP1 REVERT JUMPDEST PUSH1 0x0 SLOAD PUSH2 0x100 SWAP1 DIV PUSH1 0xFF AND ISZERO DUP1 ISZERO PUSH2 0x16CF JUMPI PUSH1 0x0 DUP1 SLOAD PUSH1 0xFF NOT PUSH2 0xFF00 NOT SWAP1 SWAP2 AND PUSH2 0x100 OR AND PUSH1 0x1 OR SWAP1 SSTORE DUP1 ISZERO PUSH2 0xCED JUMPI PUSH1 0x0 DUP1 SLOAD PUSH2 0xFF00 NOT AND SWAP1 SSTORE POP JUMP JUMPDEST PUSH1 0x0 SLOAD PUSH2 0x100 SWAP1 DIV PUSH1 0xFF AND DUP1 PUSH2 0x1EF2 JUMPI POP PUSH2 0x1EF2 PUSH2 0x15E1 JUMP JUMPDEST DUP1 PUSH2 0x1F00 JUMPI POP PUSH1 0x0 SLOAD PUSH1 0xFF AND ISZERO JUMPDEST PUSH2 0x1F3B JUMPI PUSH1 0x40 MLOAD PUSH3 0x461BCD PUSH1 0xE5 SHL DUP2 MSTORE PUSH1 0x4 ADD DUP1 DUP1 PUSH1 0x20 ADD DUP3 DUP2 SUB DUP3 MSTORE PUSH1 0x2E DUP2 MSTORE PUSH1 0x20 ADD DUP1 PUSH2 0x21DC PUSH1 0x2E SWAP2 CODECOPY PUSH1 0x40 ADD SWAP2 POP POP PUSH1 0x40 MLOAD DUP1 SWAP2 SUB SWAP1 REVERT JUMPDEST PUSH1 0x0 SLOAD PUSH2 0x100 SWAP1 DIV PUSH1 0xFF AND ISZERO DUP1 ISZERO PUSH2 0x1F66 JUMPI PUSH1 0x0 DUP1 SLOAD PUSH1 0xFF NOT PUSH2 0xFF00 NOT SWAP1 SWAP2 AND PUSH2 0x100 OR AND PUSH1 0x1 OR SWAP1 SSTORE JUMPDEST PUSH1 0x0 PUSH2 0x1F70 PUSH2 0x1AD0 JUMP JUMPDEST PUSH1 0xCB DUP1 SLOAD PUSH2 0x100 PUSH1 0x1 PUSH1 0xA8 SHL SUB NOT AND PUSH2 0x100 PUSH1 0x1 PUSH1 0x1 PUSH1 0xA0 SHL SUB DUP5 AND SWAP1 DUP2 MUL SWAP2 SWAP1 SWAP2 OR SWAP1 SWAP2 SSTORE PUSH1 0x40 MLOAD SWAP2 SWAP3 POP SWAP1 PUSH1 0x0 SWAP1 PUSH32 0x8BE0079C531659141344CD1FD0A4F28419497F9722A3DAAFE3B4186F6B6457E0 SWAP1 DUP3 SWAP1 LOG3 POP DUP1 ISZERO PUSH2 0xCED JUMPI PUSH1 0x0 DUP1 SLOAD PUSH2 0xFF00 NOT AND SWAP1 SSTORE POP JUMP JUMPDEST PUSH1 0x0 PUSH2 0x1913 DUP4 DUP4 PUSH8 0xDE0B6B3A7640000 PUSH2 0x2100 JUMP JUMPDEST PUSH1 0x0 DUP2 DUP5 DUP5 GT ISZERO PUSH2 0x207E JUMPI PUSH1 0x40 MLOAD PUSH3 0x461BCD PUSH1 0xE5 SHL DUP2 MSTORE PUSH1 0x4 ADD DUP1 DUP1 PUSH1 0x20 ADD DUP3 DUP2 SUB DUP3 MSTORE DUP4 DUP2 DUP2 MLOAD DUP2 MSTORE PUSH1 0x20 ADD SWAP2 POP DUP1 MLOAD SWAP1 PUSH1 0x20 ADD SWAP1 DUP1 DUP4 DUP4 PUSH1 0x0 JUMPDEST DUP4 DUP2 LT ISZERO PUSH2 0x2043 JUMPI DUP2 DUP2 ADD MLOAD DUP4 DUP3 ADD MSTORE PUSH1 0x20 ADD PUSH2 0x202B JUMP JUMPDEST POP POP POP POP SWAP1 POP SWAP1 DUP2 ADD SWAP1 PUSH1 0x1F AND DUP1 ISZERO PUSH2 0x2070 JUMPI DUP1 DUP3 SUB DUP1 MLOAD PUSH1 0x1 DUP4 PUSH1 0x20 SUB PUSH2 0x100 EXP SUB NOT AND DUP2 MSTORE PUSH1 0x20 ADD SWAP2 POP JUMPDEST POP SWAP3 POP POP POP PUSH1 0x40 MLOAD DUP1 SWAP2 SUB SWAP1 REVERT JUMPDEST POP POP POP SWAP1 SUB SWAP1 JUMP JUMPDEST PUSH1 0x1 PUSH1 0x1 PUSH1 0xA0 SHL SUB DUP2 AND PUSH1 0x0 SWAP1 DUP2 MSTORE PUSH2 0x106 PUSH1 0x20 MSTORE PUSH1 0x40 SWAP1 KECCAK256 SLOAD PUSH2 0xCED JUMPI PUSH2 0x104 SLOAD PUSH1 0x1 PUSH1 0x1 PUSH1 0xA0 SHL SUB DUP3 AND PUSH1 0x0 SWAP1 DUP2 MSTORE PUSH2 0x106 PUSH1 0x20 MSTORE PUSH1 0x40 SWAP1 KECCAK256 SSTORE PUSH2 0x20CE PUSH2 0x12BB DUP3 PUSH2 0xE1D JUMP JUMPDEST PUSH2 0x105 SSTORE PUSH1 0x1 PUSH1 0x1 PUSH1 0xA0 SHL SUB DUP2 AND PUSH1 0x0 SWAP1 DUP2 MSTORE PUSH2 0x102 PUSH1 0x20 MSTORE PUSH1 0x40 SWAP1 KECCAK256 SLOAD PUSH2 0x103 SLOAD PUSH2 0x20F9 SWAP2 PUSH2 0x16E3 JUMP JUMPDEST PUSH2 0x103 SSTORE POP JUMP JUMPDEST PUSH1 0x0 DUP1 PUSH2 0x210D DUP6 DUP6 PUSH2 0x1D73 JUMP JUMPDEST SWAP1 POP PUSH2 0x2119 DUP2 DUP5 PUSH2 0x1DCC JUMP JUMPDEST SWAP6 SWAP5 POP POP POP POP POP JUMP JUMPDEST DUP3 DUP1 SLOAD PUSH1 0x1 DUP2 PUSH1 0x1 AND ISZERO PUSH2 0x100 MUL SUB AND PUSH1 0x2 SWAP1 DIV SWAP1 PUSH1 0x0 MSTORE PUSH1 0x20 PUSH1 0x0 KECCAK256 SWAP1 PUSH1 0x1F ADD PUSH1 0x20 SWAP1 DIV DUP2 ADD SWAP3 DUP3 PUSH1 0x1F LT PUSH2 0x2163 JUMPI DUP1 MLOAD PUSH1 0xFF NOT AND DUP4 DUP1 ADD OR DUP6 SSTORE PUSH2 0x2190 JUMP JUMPDEST DUP3 DUP1 ADD PUSH1 0x1 ADD DUP6 SSTORE DUP3 ISZERO PUSH2 0x2190 JUMPI SWAP2 DUP3 ADD JUMPDEST DUP3 DUP2 GT ISZERO PUSH2 0x2190 JUMPI DUP3 MLOAD DUP3 SSTORE SWAP2 PUSH1 0x20 ADD SWAP2 SWAP1 PUSH1 0x1 ADD SWAP1 PUSH2 0x2175 JUMP JUMPDEST POP PUSH2 0x219C SWAP3 SWAP2 POP PUSH2 0x21A0 JUMP JUMPDEST POP SWAP1 JUMP JUMPDEST JUMPDEST DUP1 DUP3 GT ISZERO PUSH2 0x219C JUMPI PUSH1 0x0 DUP2 SSTORE PUSH1 0x1 ADD PUSH2 0x21A1 JUMP INVALID 0x4F PUSH24 0x6E61626C653A206E6577206F776E65722069732074686520 PUSH27 0x65726F2061646472657373496E697469616C697A61626C653A2063 PUSH16 0x6E747261637420697320616C72656164 PUSH26 0x20696E697469616C697A6564536166654D6174683A206D756C74 PUSH10 0x706C69636174696F6E20 PUSH16 0x766572666C6F774F776E61626C653A20 PUSH4 0x616C6C65 PUSH19 0x206973206E6F7420746865206F776E6572DDF2 MSTORE 0xAD SHL 0xE2 0xC8 SWAP12 PUSH10 0xC2B068FC378DAA952BA7 CALL PUSH4 0xC4A11628 CREATE2 GAS 0x4D CREATE2 0x23 0xB3 0xEF LOG2 PUSH5 0x6970667358 0x22 SLT KECCAK256 0xBB 0xF9 JUMPDEST PUSH9 0xDDE32AB5258067AB59 0xE7 TIMESTAMP RETURNDATASIZE CALLDATALOAD 0xF8 0x1E LOG1 PUSH24 0xED9B63E585B337BF689A6964736F6C634300060C00330000 ",
  "sha1": "4b9ac72a767de31fd312d8de29e772b203f2d189",
  "source": "// SPDX-License-Identifier: MIT\npragma solidity ^0.6.12;\n\n/**\n * @title USDs Token Contract\n * @dev ERC20 compatible contract for USDs\n * @dev Implements an elastic supply\n * @author Sperax Inc\n */\n\nimport \"@openzeppelin/contracts-upgradeable/proxy/Initializable.sol\";\nimport \"@openzeppelin/contracts-upgradeable/math/SafeMathUpgradeable.sol\";\nimport \"@openzeppelin/contracts-upgradeable/utils/AddressUpgradeable.sol\";\nimport \"@openzeppelin/contracts-upgradeable/access/OwnableUpgradeable.sol\";\nimport { InitializableERC20Detailed } from \"../libraries/InitializableERC20Detailed.sol\";\nimport { StableMath } from \"../libraries/StableMath.sol\";\nimport \"../interfaces/IUSDs.sol\";\n\n/**\n * NOTE that this is an ERC20 token but the invariant that the sum of\n * balanceOf(x) for all x is not >= totalSupply(). This is a consequence of the\n * rebasing design. Any integrations with USDs should be aware.\n */\n\ncontract USDs is Initializable, InitializableERC20Detailed, OwnableUpgradeable, IUSDs {\n    using SafeMathUpgradeable for uint256;\n    using StableMath for uint256;\n\n    event TotalSupplyUpdated(\n        uint256 totalSupply,\n        uint256 rebasingCredits,\n        uint256 rebasingCreditsPerToken\n    );\n\n    enum RebaseOptions { NotSet, OptOut, OptIn }\n\n    uint256 private constant MAX_SUPPLY = ~uint128(0); // (2^128) - 1\n    uint256 internal _totalSupply;    // the total supply of USDs\n    uint256 public override totalMinted;    // the total num of USDs minted so far\n    uint256 public override totalBurnt;     // the total num of USDs burnt so far\n    mapping(address => mapping(address => uint256)) private _allowances;\n    address public vaultAddress;    // the address where (i) all collaterals of USDs protocol reside, e.g. USDT, USDC, ETH, etc and (ii) major actions like USDs minting are initiated\n    // an user's balance of USDs is based on her balance of \"credits.\"\n    // in a rebase process, her USDs balance will change according to her credit balance and the rebase ratio\n    mapping(address => uint256) private _creditBalances;\n    // the total number of credits of the USDs protocol\n    uint256 public rebasingCredits;\n    // the rebase ratio = num of credits / num of USDs\n    uint256 public rebasingCreditsPerToken;\n    // Frozen address/credits are non rebasing (value is held in contracts which\n    // do not receive yield unless they explicitly opt in)\n    uint256 public nonRebasingSupply;   // num of USDs that are not affected by rebase\n    mapping(address => uint256) public nonRebasingCreditsPerToken; // the rebase ratio of non-rebasing accounts just before they opt out\n    mapping(address => RebaseOptions) public rebaseState;          // the rebase state of each account, i.e. opt in or opt out\n\n    function initialize(\n        string calldata _nameArg,\n        string calldata _symbolArg,\n        address _vaultAddress\n    ) external initializer {\n        InitializableERC20Detailed._initialize(_nameArg, _symbolArg, 18);\n        OwnableUpgradeable.__Ownable_init();\n        rebasingCreditsPerToken = 1e18;\n        vaultAddress = _vaultAddress;\n    }\n\n    /**\n     * @dev change the vault address\n     * @param newVault the new vault address\n     */\n    function changeVault(address newVault) external onlyOwner {\n        vaultAddress = newVault;\n    }\n\n    /**\n     * @dev Verifies that the caller is the Savings Manager contract\n     */\n    modifier onlyVault() {\n        require(vaultAddress == msg.sender, \"Caller is not the Vault\");\n        _;\n    }\n\n    /**\n     * @dev check the current total supply of USDs\n     * @return The total supply of USDs.\n     */\n    function totalSupply() public view override returns (uint256) {\n        return _totalSupply;\n    }\n\n    /**\n     * @dev Gets the USDs balance of the specified address.\n     * @param _account Address to query the balance of.\n     * @return A uint256 representing the _amount of base units owned by the\n     *         specified address.\n     */\n    function balanceOf(address _account) public view override returns (uint256) {\n        if (_creditBalances[_account] == 0) return 0;\n        return\n            _creditBalances[_account].divPrecisely(_creditsPerToken(_account));\n    }\n\n    /**\n     * @dev Gets the credits balance of the specified address.\n     * @param _account The address to query the balance of.\n     * @return (uint256, uint256) Credit balance and credits per token of the\n     *         address\n     */\n    function creditsBalanceOf(address _account)\n        public\n        view\n        returns (uint256, uint256)\n    {\n        return (_creditBalances[_account], _creditsPerToken(_account));\n    }\n\n    /**\n     * @dev Transfer tokens to a specified address.\n     * @param _to the address to transfer to.\n     * @param _value the _amount to be transferred.\n     * @return true on success.\n     */\n    function transfer(address _to, uint256 _value) public override returns (bool) {\n        require(_to != address(0), \"Transfer to zero address\");\n        require(\n            _value <= balanceOf(msg.sender),\n            \"Transfer greater than balance\"\n        );\n\n        _executeTransfer(msg.sender, _to, _value);\n\n        emit Transfer(msg.sender, _to, _value);\n\n        return true;\n    }\n\n    /**\n     * @dev Transfer tokens from one address to another.\n     * @param _from The address you want to send tokens from.\n     * @param _to The address you want to transfer to.\n     * @param _value The _amount of tokens to be transferred.\n     */\n    function transferFrom(\n        address _from,\n        address _to,\n        uint256 _value\n    ) public override returns (bool) {\n        require(_to != address(0), \"Transfer to zero address\");\n        require(_value <= balanceOf(_from), \"Transfer greater than balance\");\n\n        // notice: allowance balnce check depends on \"sub\" non-negative check\n        _allowances[_from][msg.sender] = _allowances[_from][msg.sender].sub(\n            _value\n        );\n\n        _executeTransfer(_from, _to, _value);\n\n        emit Transfer(_from, _to, _value);\n\n        return true;\n    }\n\n    /**\n     * @dev Update the count of non rebasing credits in response to a transfer\n     * @param _from The address you want to send tokens from.\n     * @param _to The address you want to transfer to.\n     * @param _value Amount of USDs to transfer\n     */\n    function _executeTransfer(\n        address _from,\n        address _to,\n        uint256 _value\n    ) internal {\n        bool isNonRebasingTo = _isNonRebasingAccount(_to);\n        bool isNonRebasingFrom = _isNonRebasingAccount(_from);\n\n        // Credits deducted and credited might be different due to the\n        // differing creditsPerToken used by each account\n        uint256 creditsCredited = _value.mulTruncate(_creditsPerToken(_to));\n        uint256 creditsDeducted = _value.mulTruncate(_creditsPerToken(_from));\n\n        _creditBalances[_from] = _creditBalances[_from].sub(\n            creditsDeducted,\n            \"Transfer amount exceeds balance\"\n        );\n        _creditBalances[_to] = _creditBalances[_to].add(creditsCredited);\n\n        // update global stats\n        if (isNonRebasingTo && !isNonRebasingFrom) {\n            // Transfer to non-rebasing account from rebasing account, credits\n            // are removed from the non rebasing tally\n            nonRebasingSupply = nonRebasingSupply.add(_value);\n            // Update rebasingCredits by subtracting the deducted amount\n            rebasingCredits = rebasingCredits.sub(creditsDeducted);\n        } else if (!isNonRebasingTo && isNonRebasingFrom) {\n            // Transfer to rebasing account from non-rebasing account\n            // Decreasing non-rebasing credits by the amount that was sent\n            nonRebasingSupply = nonRebasingSupply.sub(_value);\n            // Update rebasingCredits by adding the credited amount\n            rebasingCredits = rebasingCredits.add(creditsCredited);\n        }\n    }\n\n    /**\n     * @dev Function to check the _amount of tokens that an owner has allowed to a _spender.\n     * @param _owner The address which owns the funds.\n     * @param _spender The address which will spend the funds.\n     * @return The number of tokens still available for the _spender.\n     */\n    function allowance(address _owner, address _spender)\n        public\n        view\n        override returns (uint256)\n    {\n        return _allowances[_owner][_spender];\n    }\n\n    /**\n     * @dev Approve the passed address to spend the specified _amount of tokens on behalf of\n     * msg.sender. This method is included for ERC20 compatibility.\n     * increaseAllowance and decreaseAllowance should be used instead.\n     * Changing an allowance with this method brings the risk that someone may transfer both\n     * the old and the new allowance - if they are both greater than zero - if a transfer\n     * transaction is mined before the later approve() call is mined.\n     *\n     * @param _spender The address which will spend the funds.\n     * @param _value The _amount of tokens to be spent.\n     */\n    function approve(address _spender, uint256 _value) public override returns (bool) {\n        _allowances[msg.sender][_spender] = _value;\n        emit Approval(msg.sender, _spender, _value);\n        return true;\n    }\n\n    /**\n     * @dev Increase the _amount of tokens that an owner has allowed to a _spender.\n     * This method should be used instead of approve() to avoid the double approval vulnerability\n     * described above.\n     * @param _spender The address which will spend the funds.\n     * @param _addedValue The _amount of tokens to increase the allowance by.\n     */\n    function increaseAllowance(address _spender, uint256 _addedValue)\n        public\n        override\n        returns (bool)\n    {\n        _allowances[msg.sender][_spender] = _allowances[msg.sender][_spender]\n            .add(_addedValue);\n        emit Approval(msg.sender, _spender, _allowances[msg.sender][_spender]);\n        return true;\n    }\n\n    /**\n     * @dev Decrease the _amount of tokens that an owner has allowed to a _spender.\n     * @param _spender The address which will spend the funds.\n     * @param _subtractedValue The _amount of tokens to decrease the allowance by.\n     */\n    function decreaseAllowance(address _spender, uint256 _subtractedValue)\n        public\n        override\n        returns (bool)\n    {\n        uint256 oldValue = _allowances[msg.sender][_spender];\n        if (_subtractedValue >= oldValue) {\n            _allowances[msg.sender][_spender] = 0;\n        } else {\n            _allowances[msg.sender][_spender] = oldValue.sub(_subtractedValue);\n        }\n        emit Approval(msg.sender, _spender, _allowances[msg.sender][_spender]);\n        return true;\n    }\n\n    /**\n     * @dev Mints new USDs tokens, increasing totalSupply.\n     * @param _account the account address the newly minted USDs will be attributed to\n     * @param _amount the amount of USDs that will be minted\n     */\n    function mint(address _account, uint256 _amount) external override onlyVault {\n        _mint(_account, _amount);\n    }\n\n    /**\n     * @dev Creates `_amount` tokens and assigns them to `_account`, increasing\n     * the total supply.\n     *\n     * Emits a {Transfer} event with `from` set to the zero address.\n     *\n     * Requirements\n     *\n     * - `to` cannot be the zero address.\n     * @param _account the account address the newly minted USDs will be attributed to\n     * @param _amount the amount of USDs that will be minted\n     */\n    function _mint(address _account, uint256 _amount) internal override {\n        require(_account != address(0), \"Mint to the zero address\");\n\n        bool isNonRebasingAccount = _isNonRebasingAccount(_account);\n\n        uint256 creditAmount = _amount.mulTruncate(_creditsPerToken(_account));\n        _creditBalances[_account] = _creditBalances[_account].add(creditAmount);\n\n        // notice: If the account is non rebasing and doesn't have a set creditsPerToken\n        //          then set it i.e. this is a mint from a fresh contract\n\n        // update global stats\n        if (isNonRebasingAccount) {\n            nonRebasingSupply = nonRebasingSupply.add(_amount);\n        } else {\n            rebasingCredits = rebasingCredits.add(creditAmount);\n        }\n\n        _totalSupply = _totalSupply.add(_amount);\n        totalMinted = totalMinted.add(_amount);\n\n        require(_totalSupply < MAX_SUPPLY, \"Max supply\");\n\n        emit Transfer(address(0), _account, _amount);\n    }\n\n    /**\n     * @dev Burns tokens, decreasing totalSupply.\n     */\n    function burn(address account, uint256 amount) external override onlyVault {\n        _burn(account, amount);\n    }\n\n    /**\n     * @dev Destroys `_amount` tokens from `_account`, reducing the\n     * total supply.\n     *\n     * Emits a {Transfer} event with `to` set to the zero address.\n     *\n     * Requirements\n     *\n     * - `_account` cannot be the zero address.\n     * - `_account` must have at least `_amount` tokens.\n     */\n    function _burn(address _account, uint256 _amount) internal override {\n        require(_account != address(0), \"Burn from the zero address\");\n        if (_amount == 0) {\n            return;\n        }\n\n        bool isNonRebasingAccount = _isNonRebasingAccount(_account);\n        uint256 creditAmount = _amount.mulTruncate(_creditsPerToken(_account));\n        uint256 currentCredits = _creditBalances[_account];\n\n        // Remove the credits, burning rounding errors\n        if (\n            currentCredits == creditAmount || currentCredits - 1 == creditAmount\n        ) {\n            // Handle dust from rounding\n            _creditBalances[_account] = 0;\n        } else if (currentCredits > creditAmount) {\n            _creditBalances[_account] = _creditBalances[_account].sub(\n                creditAmount\n            );\n        } else {\n            revert(\"Remove exceeds balance\");\n        }\n\n        // Remove from the credit tallies and non-rebasing supply\n        if (isNonRebasingAccount) {\n            nonRebasingSupply = nonRebasingSupply.sub(_amount);\n        } else {\n            rebasingCredits = rebasingCredits.sub(creditAmount);\n        }\n\n        _totalSupply = _totalSupply.sub(_amount);\n        totalBurnt = totalBurnt.add(_amount);\n        emit Transfer(_account, address(0), _amount);\n    }\n\n    /**\n     * @dev Get the credits per token for an account. Returns a fixed amount\n     *      if the account is non-rebasing.\n     * @param _account Address of the account.\n     */\n    function _creditsPerToken(address _account)\n        internal\n        view\n        returns (uint256)\n    {\n        if (nonRebasingCreditsPerToken[_account] != 0) {\n            return nonRebasingCreditsPerToken[_account];\n        } else {\n            return rebasingCreditsPerToken;\n        }\n    }\n\n    /**\n     * @dev Is an account using rebasing accounting or non-rebasing accounting?\n     *      Also, ensure contracts are non-rebasing if they have not opted in.\n     * @param _account Address of the account.\n     */\n    function _isNonRebasingAccount(address _account) internal returns (bool) {\n        bool isContract = AddressUpgradeable.isContract(_account);\n        if (isContract && rebaseState[_account] == RebaseOptions.NotSet) {\n            _ensureRebasingMigration(_account);\n        }\n        return nonRebasingCreditsPerToken[_account] > 0;\n    }\n\n    /**\n     * @dev Ensures internal account for rebasing and non-rebasing credits and\n     *      supply is updated following deployment of frozen yield change.\n     */\n    function _ensureRebasingMigration(address _account) internal {\n        if (nonRebasingCreditsPerToken[_account] == 0) {\n            // Set fixed credits per token for this account\n            nonRebasingCreditsPerToken[_account] = rebasingCreditsPerToken;\n            // Update non rebasing supply\n            nonRebasingSupply = nonRebasingSupply.add(balanceOf(_account));\n            // Update credit tallies\n            rebasingCredits = rebasingCredits.sub(_creditBalances[_account]);\n        }\n    }\n\n    /**\n     * @dev Add a contract address to the non rebasing exception list. I.e. the\n     * address's balance will be part of rebases so the account will be exposed\n     * to upside and downside.\n     */\n    function rebaseOptIn() public onlyOwner {\n        require(_isNonRebasingAccount(msg.sender), \"Account has not opted out\");\n\n        // Convert balance into the same amount at the current exchange rate\n        uint256 newCreditBalance = _creditBalances[msg.sender]\n            .mul(rebasingCreditsPerToken)\n            .div(_creditsPerToken(msg.sender));\n\n        // Decreasing non rebasing supply\n        nonRebasingSupply = nonRebasingSupply.sub(balanceOf(msg.sender));\n\n        _creditBalances[msg.sender] = newCreditBalance;\n\n        // Increase rebasing credits, totalSupply remains unchanged so no\n        // adjustment necessary\n        rebasingCredits = rebasingCredits.add(_creditBalances[msg.sender]);\n\n        rebaseState[msg.sender] = RebaseOptions.OptIn;\n\n        // Delete any fixed credits per token\n        delete nonRebasingCreditsPerToken[msg.sender];\n    }\n\n    /**\n     * @dev Remove a contract address to the non rebasing exception list.\n     */\n    function rebaseOptOut() public onlyOwner {\n        require(!_isNonRebasingAccount(msg.sender), \"Account has not opted in\");\n\n        // Increase non rebasing supply\n        nonRebasingSupply = nonRebasingSupply.add(balanceOf(msg.sender));\n        // Set fixed credits per token\n        nonRebasingCreditsPerToken[msg.sender] = rebasingCreditsPerToken;\n\n        // Decrease rebasing credits, total supply remains unchanged so no\n        // adjustment necessary\n        rebasingCredits = rebasingCredits.sub(_creditBalances[msg.sender]);\n\n        // Mark explicitly opted out of rebasing\n        rebaseState[msg.sender] = RebaseOptions.OptOut;\n    }\n\n    /**\n     * @dev The rebase function. Modify the supply without minting new tokens. This uses a change in\n     *      the exchange rate between \"credits\" and USDs tokens to change balances.\n     * @param _newTotalSupply New total supply of USDs.\n     */\n    function changeSupply(uint256 _newTotalSupply)\n        external override\n        onlyVault\n    {\n        require(_totalSupply > 0, \"Cannot increase 0 supply\");\n\n        // special case: if the total supply remains the same\n        if (_totalSupply == _newTotalSupply) {\n            emit TotalSupplyUpdated(\n                _totalSupply,\n                rebasingCredits,\n                rebasingCreditsPerToken\n            );\n            return;\n        }\n\n        // check if the new total supply surpasses the MAX\n        _totalSupply = _newTotalSupply > MAX_SUPPLY\n            ? MAX_SUPPLY\n            : _newTotalSupply;\n        // calculate the new rebase ratio, i.e. credits per token\n        rebasingCreditsPerToken = rebasingCredits.divPrecisely(\n            _totalSupply.sub(nonRebasingSupply)\n        );\n\n        require(rebasingCreditsPerToken > 0, \"Invalid change in supply\");\n\n        // re-calculate the total supply to accomodate precision error\n        _totalSupply = rebasingCredits\n            .divPrecisely(rebasingCreditsPerToken)\n            .add(nonRebasingSupply);\n\n        emit TotalSupplyUpdated(\n            _totalSupply,\n            rebasingCredits,\n            rebasingCreditsPerToken\n        );\n    }\n}\n",
  "sourcePath": "contracts/token/USDs.sol",
  "type": "contract"
}