{
  "contractName": "USDs",
  "abi": [
    {
      "anonymous": false,
      "inputs": [
        {
          "indexed": true,
          "internalType": "address",
          "name": "owner",
          "type": "address"
        },
        {
          "indexed": true,
          "internalType": "address",
          "name": "spender",
          "type": "address"
        },
        {
          "indexed": false,
          "internalType": "uint256",
          "name": "value",
          "type": "uint256"
        }
      ],
      "name": "Approval",
      "type": "event"
    },
    {
      "anonymous": false,
      "inputs": [
        {
          "indexed": true,
          "internalType": "address",
          "name": "previousGovernor",
          "type": "address"
        },
        {
          "indexed": true,
          "internalType": "address",
          "name": "newGovernor",
          "type": "address"
        }
      ],
      "name": "GovernorshipTransferred",
      "type": "event"
    },
    {
      "anonymous": false,
      "inputs": [
        {
          "indexed": true,
          "internalType": "address",
          "name": "previousGovernor",
          "type": "address"
        },
        {
          "indexed": true,
          "internalType": "address",
          "name": "newGovernor",
          "type": "address"
        }
      ],
      "name": "PendingGovernorshipTransfer",
      "type": "event"
    },
    {
      "anonymous": false,
      "inputs": [
        {
          "indexed": false,
          "internalType": "uint256",
          "name": "totalSupply",
          "type": "uint256"
        },
        {
          "indexed": false,
          "internalType": "uint256",
          "name": "rebasingCredits",
          "type": "uint256"
        },
        {
          "indexed": false,
          "internalType": "uint256",
          "name": "rebasingCreditsPerToken",
          "type": "uint256"
        }
      ],
      "name": "TotalSupplyUpdated",
      "type": "event"
    },
    {
      "anonymous": false,
      "inputs": [
        {
          "indexed": true,
          "internalType": "address",
          "name": "from",
          "type": "address"
        },
        {
          "indexed": true,
          "internalType": "address",
          "name": "to",
          "type": "address"
        },
        {
          "indexed": false,
          "internalType": "uint256",
          "name": "value",
          "type": "uint256"
        }
      ],
      "name": "Transfer",
      "type": "event"
    },
    {
      "inputs": [],
      "name": "_totalSupply",
      "outputs": [
        {
          "internalType": "uint256",
          "name": "",
          "type": "uint256"
        }
      ],
      "stateMutability": "view",
      "type": "function"
    },
    {
      "inputs": [],
      "name": "claimGovernance",
      "outputs": [],
      "stateMutability": "nonpayable",
      "type": "function"
    },
    {
      "inputs": [],
      "name": "decimals",
      "outputs": [
        {
          "internalType": "uint8",
          "name": "",
          "type": "uint8"
        }
      ],
      "stateMutability": "view",
      "type": "function"
    },
    {
      "inputs": [],
      "name": "governor",
      "outputs": [
        {
          "internalType": "address",
          "name": "",
          "type": "address"
        }
      ],
      "stateMutability": "view",
      "type": "function"
    },
    {
      "inputs": [],
      "name": "isGovernor",
      "outputs": [
        {
          "internalType": "bool",
          "name": "",
          "type": "bool"
        }
      ],
      "stateMutability": "view",
      "type": "function"
    },
    {
      "inputs": [],
      "name": "name",
      "outputs": [
        {
          "internalType": "string",
          "name": "",
          "type": "string"
        }
      ],
      "stateMutability": "view",
      "type": "function"
    },
    {
      "inputs": [
        {
          "internalType": "address",
          "name": "",
          "type": "address"
        }
      ],
      "name": "nonRebasingCreditsPerToken",
      "outputs": [
        {
          "internalType": "uint256",
          "name": "",
          "type": "uint256"
        }
      ],
      "stateMutability": "view",
      "type": "function"
    },
    {
      "inputs": [],
      "name": "nonRebasingSupply",
      "outputs": [
        {
          "internalType": "uint256",
          "name": "",
          "type": "uint256"
        }
      ],
      "stateMutability": "view",
      "type": "function"
    },
    {
      "inputs": [
        {
          "internalType": "address",
          "name": "",
          "type": "address"
        }
      ],
      "name": "rebaseState",
      "outputs": [
        {
          "internalType": "enum USDs.RebaseOptions",
          "name": "",
          "type": "uint8"
        }
      ],
      "stateMutability": "view",
      "type": "function"
    },
    {
      "inputs": [],
      "name": "rebasingCredits",
      "outputs": [
        {
          "internalType": "uint256",
          "name": "",
          "type": "uint256"
        }
      ],
      "stateMutability": "view",
      "type": "function"
    },
    {
      "inputs": [],
      "name": "rebasingCreditsPerToken",
      "outputs": [
        {
          "internalType": "uint256",
          "name": "",
          "type": "uint256"
        }
      ],
      "stateMutability": "view",
      "type": "function"
    },
    {
      "inputs": [],
      "name": "symbol",
      "outputs": [
        {
          "internalType": "string",
          "name": "",
          "type": "string"
        }
      ],
      "stateMutability": "view",
      "type": "function"
    },
    {
      "inputs": [
        {
          "internalType": "address",
          "name": "_newGovernor",
          "type": "address"
        }
      ],
      "name": "transferGovernance",
      "outputs": [],
      "stateMutability": "nonpayable",
      "type": "function"
    },
    {
      "inputs": [],
      "name": "vaultAddress",
      "outputs": [
        {
          "internalType": "address",
          "name": "",
          "type": "address"
        }
      ],
      "stateMutability": "view",
      "type": "function"
    },
    {
      "inputs": [
        {
          "internalType": "string",
          "name": "_nameArg",
          "type": "string"
        },
        {
          "internalType": "string",
          "name": "_symbolArg",
          "type": "string"
        },
        {
          "internalType": "address",
          "name": "_vaultAddress",
          "type": "address"
        }
      ],
      "name": "initialize",
      "outputs": [],
      "stateMutability": "nonpayable",
      "type": "function"
    },
    {
      "inputs": [],
      "name": "totalSupply",
      "outputs": [
        {
          "internalType": "uint256",
          "name": "",
          "type": "uint256"
        }
      ],
      "stateMutability": "view",
      "type": "function"
    },
    {
      "inputs": [
        {
          "internalType": "address",
          "name": "_account",
          "type": "address"
        }
      ],
      "name": "balanceOf",
      "outputs": [
        {
          "internalType": "uint256",
          "name": "",
          "type": "uint256"
        }
      ],
      "stateMutability": "view",
      "type": "function"
    },
    {
      "inputs": [
        {
          "internalType": "address",
          "name": "_account",
          "type": "address"
        }
      ],
      "name": "creditsBalanceOf",
      "outputs": [
        {
          "internalType": "uint256",
          "name": "",
          "type": "uint256"
        },
        {
          "internalType": "uint256",
          "name": "",
          "type": "uint256"
        }
      ],
      "stateMutability": "view",
      "type": "function"
    },
    {
      "inputs": [
        {
          "internalType": "address",
          "name": "_to",
          "type": "address"
        },
        {
          "internalType": "uint256",
          "name": "_value",
          "type": "uint256"
        }
      ],
      "name": "transfer",
      "outputs": [
        {
          "internalType": "bool",
          "name": "",
          "type": "bool"
        }
      ],
      "stateMutability": "nonpayable",
      "type": "function"
    },
    {
      "inputs": [
        {
          "internalType": "address",
          "name": "_from",
          "type": "address"
        },
        {
          "internalType": "address",
          "name": "_to",
          "type": "address"
        },
        {
          "internalType": "uint256",
          "name": "_value",
          "type": "uint256"
        }
      ],
      "name": "transferFrom",
      "outputs": [
        {
          "internalType": "bool",
          "name": "",
          "type": "bool"
        }
      ],
      "stateMutability": "nonpayable",
      "type": "function"
    },
    {
      "inputs": [
        {
          "internalType": "address",
          "name": "_owner",
          "type": "address"
        },
        {
          "internalType": "address",
          "name": "_spender",
          "type": "address"
        }
      ],
      "name": "allowance",
      "outputs": [
        {
          "internalType": "uint256",
          "name": "",
          "type": "uint256"
        }
      ],
      "stateMutability": "view",
      "type": "function"
    },
    {
      "inputs": [
        {
          "internalType": "address",
          "name": "_spender",
          "type": "address"
        },
        {
          "internalType": "uint256",
          "name": "_value",
          "type": "uint256"
        }
      ],
      "name": "approve",
      "outputs": [
        {
          "internalType": "bool",
          "name": "",
          "type": "bool"
        }
      ],
      "stateMutability": "nonpayable",
      "type": "function"
    },
    {
      "inputs": [
        {
          "internalType": "address",
          "name": "_spender",
          "type": "address"
        },
        {
          "internalType": "uint256",
          "name": "_addedValue",
          "type": "uint256"
        }
      ],
      "name": "increaseAllowance",
      "outputs": [
        {
          "internalType": "bool",
          "name": "",
          "type": "bool"
        }
      ],
      "stateMutability": "nonpayable",
      "type": "function"
    },
    {
      "inputs": [
        {
          "internalType": "address",
          "name": "_spender",
          "type": "address"
        },
        {
          "internalType": "uint256",
          "name": "_subtractedValue",
          "type": "uint256"
        }
      ],
      "name": "decreaseAllowance",
      "outputs": [
        {
          "internalType": "bool",
          "name": "",
          "type": "bool"
        }
      ],
      "stateMutability": "nonpayable",
      "type": "function"
    },
    {
      "inputs": [
        {
          "internalType": "address",
          "name": "_account",
          "type": "address"
        },
        {
          "internalType": "uint256",
          "name": "_amount",
          "type": "uint256"
        }
      ],
      "name": "mint",
      "outputs": [],
      "stateMutability": "nonpayable",
      "type": "function"
    },
    {
      "inputs": [
        {
          "internalType": "address",
          "name": "account",
          "type": "address"
        },
        {
          "internalType": "uint256",
          "name": "amount",
          "type": "uint256"
        }
      ],
      "name": "burn",
      "outputs": [],
      "stateMutability": "nonpayable",
      "type": "function"
    },
    {
      "inputs": [],
      "name": "rebaseOptIn",
      "outputs": [],
      "stateMutability": "nonpayable",
      "type": "function"
    },
    {
      "inputs": [],
      "name": "rebaseOptOut",
      "outputs": [],
      "stateMutability": "nonpayable",
      "type": "function"
    },
    {
      "inputs": [
        {
          "internalType": "uint256",
          "name": "_newTotalSupply",
          "type": "uint256"
        }
      ],
      "name": "changeSupply",
      "outputs": [],
      "stateMutability": "nonpayable",
      "type": "function"
    }
  ],
  "bytecode": "0x60806040526000609c60006101000a81548173ffffffffffffffffffffffffffffffffffffffff021916908373ffffffffffffffffffffffffffffffffffffffff1602179055503480156200005357600080fd5b506200006533620000d560201b60201c565b620000756200010460201b60201c565b73ffffffffffffffffffffffffffffffffffffffff16600073ffffffffffffffffffffffffffffffffffffffff167fc7c0c772add429241571afb3805861fb3cfa2af374534088b76cdb4325a87e9a60405160405180910390a362000135565b60007f7bea13895fa79d2831e0a9e28edede30099005a50d652d8957cf8a607ee6ca4a60001b90508181555050565b6000807f7bea13895fa79d2831e0a9e28edede30099005a50d652d8957cf8a607ee6ca4a60001b9050805491505090565b6139c880620001456000396000f3fe608060405234801561001057600080fd5b50600436106101cf5760003560e01c80635d36b19011610104578063a9059cbb116100a2578063dd62ed3e11610071578063dd62ed3e14610932578063e696393a146109aa578063f51b0fd4146109c8578063f9854bfc146109d2576101cf565b8063a9059cbb14610860578063c2376dff146108c4578063c7af3352146108ce578063d38bfff4146108ee576101cf565b806370a08231116100de57806370a08231146106d357806395d89b411461072b5780639dc29fac146107ae578063a457c2d7146107fc576101cf565b80635d36b19014610653578063609350cd1461065d5780636691cb3d146106b5576101cf565b8063313ce567116101715780633eaaf86b1161014b5780633eaaf86b1461055057806340c10f191461056e578063430bf08a146105bc578063456ee286146105f0576101cf565b8063313ce5671461049d57806339509351146104be57806339a7919f14610522576101cf565b8063095ea7b3116101ad578063095ea7b3146103635780630c340a24146103c757806318160ddd146103fb57806323b872dd14610419576101cf565b806306fdde03146101d4578063077f224a14610257578063077f22b714610345575b600080fd5b6101dc610a31565b6040518080602001828103825283818151815260200191508051906020019080838360005b8381101561021c578082015181840152602081019050610201565b50505050905090810190601f1680156102495780820380516001836020036101000a031916815260200191505b509250505060405180910390f35b6103436004803603606081101561026d57600080fd5b810190808035906020019064010000000081111561028a57600080fd5b82018360208201111561029c57600080fd5b803590602001918460018302840111640100000000831117156102be57600080fd5b9091929391929390803590602001906401000000008111156102df57600080fd5b8201836020820111156102f157600080fd5b8035906020019184600183028401116401000000008311171561031357600080fd5b9091929391929390803573ffffffffffffffffffffffffffffffffffffffff169060200190929190505050610ad3565b005b61034d610d34565b6040518082815260200191505060405180910390f35b6103af6004803603604081101561037957600080fd5b81019080803573ffffffffffffffffffffffffffffffffffffffff16906020019092919080359060200190929190505050610d3a565b60405180821515815260200191505060405180910390f35b6103cf610e2c565b604051808273ffffffffffffffffffffffffffffffffffffffff16815260200191505060405180910390f35b610403610e3b565b6040518082815260200191505060405180910390f35b6104856004803603606081101561042f57600080fd5b81019080803573ffffffffffffffffffffffffffffffffffffffff169060200190929190803573ffffffffffffffffffffffffffffffffffffffff16906020019092919080359060200190929190505050610e45565b60405180821515815260200191505060405180910390f35b6104a56110f1565b604051808260ff16815260200191505060405180910390f35b61050a600480360360408110156104d457600080fd5b81019080803573ffffffffffffffffffffffffffffffffffffffff16906020019092919080359060200190929190505050611108565b60405180821515815260200191505060405180910390f35b61054e6004803603602081101561053857600080fd5b8101908080359060200190929190505050611304565b005b6105586116b2565b6040518082815260200191505060405180910390f35b6105ba6004803603604081101561058457600080fd5b81019080803573ffffffffffffffffffffffffffffffffffffffff169060200190929190803590602001909291905050506116b8565b005b6105c4611789565b604051808273ffffffffffffffffffffffffffffffffffffffff16815260200191505060405180910390f35b6106326004803603602081101561060657600080fd5b81019080803573ffffffffffffffffffffffffffffffffffffffff1690602001909291905050506117af565b6040518082600281111561064257fe5b815260200191505060405180910390f35b61065b6117cf565b005b61069f6004803603602081101561067357600080fd5b81019080803573ffffffffffffffffffffffffffffffffffffffff169060200190929190505050611865565b6040518082815260200191505060405180910390f35b6106bd61187d565b6040518082815260200191505060405180910390f35b610715600480360360208110156106e957600080fd5b81019080803573ffffffffffffffffffffffffffffffffffffffff169060200190929190505050611883565b6040518082815260200191505060405180910390f35b610733611937565b6040518080602001828103825283818151815260200191508051906020019080838360005b83811015610773578082015181840152602081019050610758565b50505050905090810190601f1680156107a05780820380516001836020036101000a031916815260200191505b509250505060405180910390f35b6107fa600480360360408110156107c457600080fd5b81019080803573ffffffffffffffffffffffffffffffffffffffff169060200190929190803590602001909291905050506119d9565b005b6108486004803603604081101561081257600080fd5b81019080803573ffffffffffffffffffffffffffffffffffffffff16906020019092919080359060200190929190505050611aaa565b60405180821515815260200191505060405180910390f35b6108ac6004803603604081101561087657600080fd5b81019080803573ffffffffffffffffffffffffffffffffffffffff16906020019092919080359060200190929190505050611d3a565b60405180821515815260200191505060405180910390f35b6108cc611ed6565b005b6108d6612127565b60405180821515815260200191505060405180910390f35b6109306004803603602081101561090457600080fd5b81019080803573ffffffffffffffffffffffffffffffffffffffff169060200190929190505050612164565b005b6109946004803603604081101561094857600080fd5b81019080803573ffffffffffffffffffffffffffffffffffffffff169060200190929190803573ffffffffffffffffffffffffffffffffffffffff16906020019092919050505061224b565b6040518082815260200191505060405180910390f35b6109b26122d2565b6040518082815260200191505060405180910390f35b6109d06122d8565b005b610a14600480360360208110156109e857600080fd5b81019080803573ffffffffffffffffffffffffffffffffffffffff1690602001909291905050506125dc565b604051808381526020018281526020019250505060405180910390f35b606060978054600181600116156101000203166002900480601f016020809104026020016040519081016040528092919081815260200182805460018160011615610100020316600290048015610ac95780601f10610a9e57610100808354040283529160200191610ac9565b820191906000526020600020905b815481529060010190602001808311610aac57829003601f168201915b5050505050905090565b610adb612127565b610b4d576040517f08c379a000000000000000000000000000000000000000000000000000000000815260040180806020018281038252601a8152602001807f43616c6c6572206973206e6f742074686520476f7665726e6f7200000000000081525060200191505060405180910390fd5b600060019054906101000a900460ff1680610b6c5750610b6b612631565b5b80610b82575060008054906101000a900460ff16155b610bd7576040517f08c379a000000000000000000000000000000000000000000000000000000000815260040180806020018281038252602e815260200180613935602e913960400191505060405180910390fd5b60008060019054906101000a900460ff161590508015610c27576001600060016101000a81548160ff02191690831515021790555060016000806101000a81548160ff0219169083151502179055505b610cbb86868080601f016020809104026020016040519081016040528093929190818152602001838380828437600081840152601f19601f8201169050808301925050505050505085858080601f016020809104026020016040519081016040528093929190818152602001838380828437600081840152601f19601f820116905080830192505050505050506012612648565b670de0b6b3a7640000609f8190555081609c60006101000a81548173ffffffffffffffffffffffffffffffffffffffff021916908373ffffffffffffffffffffffffffffffffffffffff1602179055508015610d2c5760008060016101000a81548160ff0219169083151502179055505b505050505050565b609e5481565b600081609b60003373ffffffffffffffffffffffffffffffffffffffff1673ffffffffffffffffffffffffffffffffffffffff16815260200190815260200160002060008573ffffffffffffffffffffffffffffffffffffffff1673ffffffffffffffffffffffffffffffffffffffff168152602001908152602001600020819055508273ffffffffffffffffffffffffffffffffffffffff163373ffffffffffffffffffffffffffffffffffffffff167f8c5be1e5ebec7d5bd14f71427d1e84f3dd0314c0f7b2291e5b200ac8c7c3b925846040518082815260200191505060405180910390a36001905092915050565b6000610e36612696565b905090565b6000609a54905090565b60008073ffffffffffffffffffffffffffffffffffffffff168373ffffffffffffffffffffffffffffffffffffffff161415610ee9576040517f08c379a00000000000000000000000000000000000000000000000000000000081526004018080602001828103825260188152602001807f5472616e7366657220746f207a65726f2061646472657373000000000000000081525060200191505060405180910390fd5b610ef284611883565b821115610f67576040517f08c379a000000000000000000000000000000000000000000000000000000000815260040180806020018281038252601d8152602001807f5472616e736665722067726561746572207468616e2062616c616e636500000081525060200191505060405180910390fd5b610ff682609b60008773ffffffffffffffffffffffffffffffffffffffff1673ffffffffffffffffffffffffffffffffffffffff16815260200190815260200160002060003373ffffffffffffffffffffffffffffffffffffffff1673ffffffffffffffffffffffffffffffffffffffff168152602001908152602001600020546126c790919063ffffffff16565b609b60008673ffffffffffffffffffffffffffffffffffffffff1673ffffffffffffffffffffffffffffffffffffffff16815260200190815260200160002060003373ffffffffffffffffffffffffffffffffffffffff1673ffffffffffffffffffffffffffffffffffffffff16815260200190815260200160002081905550611081848484612711565b8273ffffffffffffffffffffffffffffffffffffffff168473ffffffffffffffffffffffffffffffffffffffff167fddf252ad1be2c89b69c2b068fc378daa952ba7f163c4a11628f55a4df523b3ef846040518082815260200191505060405180910390a3600190509392505050565b6000609960009054906101000a900460ff16905090565b600061119982609b60003373ffffffffffffffffffffffffffffffffffffffff1673ffffffffffffffffffffffffffffffffffffffff16815260200190815260200160002060008673ffffffffffffffffffffffffffffffffffffffff1673ffffffffffffffffffffffffffffffffffffffff1681526020019081526020016000205461296690919063ffffffff16565b609b60003373ffffffffffffffffffffffffffffffffffffffff1673ffffffffffffffffffffffffffffffffffffffff16815260200190815260200160002060008573ffffffffffffffffffffffffffffffffffffffff1673ffffffffffffffffffffffffffffffffffffffff168152602001908152602001600020819055508273ffffffffffffffffffffffffffffffffffffffff163373ffffffffffffffffffffffffffffffffffffffff167f8c5be1e5ebec7d5bd14f71427d1e84f3dd0314c0f7b2291e5b200ac8c7c3b925609b60003373ffffffffffffffffffffffffffffffffffffffff1673ffffffffffffffffffffffffffffffffffffffff16815260200190815260200160002060008773ffffffffffffffffffffffffffffffffffffffff1673ffffffffffffffffffffffffffffffffffffffff168152602001908152602001600020546040518082815260200191505060405180910390a36001905092915050565b3373ffffffffffffffffffffffffffffffffffffffff16609c60009054906101000a900473ffffffffffffffffffffffffffffffffffffffff1673ffffffffffffffffffffffffffffffffffffffff16146113c7576040517f08c379a00000000000000000000000000000000000000000000000000000000081526004018080602001828103825260178152602001807f43616c6c6572206973206e6f7420746865205661756c7400000000000000000081525060200191505060405180910390fd5b60007f53bf423e48ed90e97d02ab0ebab13b2a235a6bfbe9c321847d5c175333ac453560001b9050600081549050600281141561146c576040517f08c379a000000000000000000000000000000000000000000000000000000000815260040180806020018281038252600e8152602001807f5265656e7472616e742063616c6c00000000000000000000000000000000000081525060200191505060405180910390fd5b600282556000609a54116114e8576040517f08c379a00000000000000000000000000000000000000000000000000000000081526004018080602001828103825260188152602001807f43616e6e6f7420696e637265617365203020737570706c79000000000000000081525060200191505060405180910390fd5b82609a541415611544577f99e56f783b536ffacf422d59183ea321dd80dcd6d23daa13023e8afea38c3df1609a54609e54609f5460405180848152602001838152602001828152602001935050505060405180910390a16116a9565b6000196fffffffffffffffffffffffffffffffff168311611565578261157b565b6000196fffffffffffffffffffffffffffffffff165b609a819055506115ac61159b60a054609a546126c790919063ffffffff16565b609e546129ee90919063ffffffff16565b609f819055506000609f541161162a576040517f08c379a00000000000000000000000000000000000000000000000000000000081526004018080602001828103825260188152602001807f496e76616c6964206368616e676520696e20737570706c79000000000000000081525060200191505060405180910390fd5b61165560a054611647609f54609e546129ee90919063ffffffff16565b61296690919063ffffffff16565b609a819055507f99e56f783b536ffacf422d59183ea321dd80dcd6d23daa13023e8afea38c3df1609a54609e54609f5460405180848152602001838152602001828152602001935050505060405180910390a15b60018255505050565b609a5481565b3373ffffffffffffffffffffffffffffffffffffffff16609c60009054906101000a900473ffffffffffffffffffffffffffffffffffffffff1673ffffffffffffffffffffffffffffffffffffffff161461177b576040517f08c379a00000000000000000000000000000000000000000000000000000000081526004018080602001828103825260178152602001807f43616c6c6572206973206e6f7420746865205661756c7400000000000000000081525060200191505060405180910390fd5b6117858282612a2a565b5050565b609c60009054906101000a900473ffffffffffffffffffffffffffffffffffffffff1681565b60a26020528060005260406000206000915054906101000a900460ff1681565b6117d7612d91565b73ffffffffffffffffffffffffffffffffffffffff163373ffffffffffffffffffffffffffffffffffffffff161461185a576040517f08c379a00000000000000000000000000000000000000000000000000000000081526004018080602001828103825260308152602001806139636030913960400191505060405180910390fd5b61186333612dc2565b565b60a16020528060005260406000206000915090505481565b609f5481565b600080609d60008473ffffffffffffffffffffffffffffffffffffffff1673ffffffffffffffffffffffffffffffffffffffff1681526020019081526020016000205414156118d55760009050611932565b61192f6118e183612ed2565b609d60008573ffffffffffffffffffffffffffffffffffffffff1673ffffffffffffffffffffffffffffffffffffffff168152602001908152602001600020546129ee90919063ffffffff16565b90505b919050565b606060988054600181600116156101000203166002900480601f0160208091040260200160405190810160405280929190818152602001828054600181600116156101000203166002900480156119cf5780601f106119a4576101008083540402835291602001916119cf565b820191906000526020600020905b8154815290600101906020018083116119b257829003601f168201915b5050505050905090565b3373ffffffffffffffffffffffffffffffffffffffff16609c60009054906101000a900473ffffffffffffffffffffffffffffffffffffffff1673ffffffffffffffffffffffffffffffffffffffff1614611a9c576040517f08c379a00000000000000000000000000000000000000000000000000000000081526004018080602001828103825260178152602001807f43616c6c6572206973206e6f7420746865205661756c7400000000000000000081525060200191505060405180910390fd5b611aa68282612f6c565b5050565b600080609b60003373ffffffffffffffffffffffffffffffffffffffff1673ffffffffffffffffffffffffffffffffffffffff16815260200190815260200160002060008573ffffffffffffffffffffffffffffffffffffffff1673ffffffffffffffffffffffffffffffffffffffff168152602001908152602001600020549050808310611bba576000609b60003373ffffffffffffffffffffffffffffffffffffffff1673ffffffffffffffffffffffffffffffffffffffff16815260200190815260200160002060008673ffffffffffffffffffffffffffffffffffffffff1673ffffffffffffffffffffffffffffffffffffffff16815260200190815260200160002081905550611c4e565b611bcd83826126c790919063ffffffff16565b609b60003373ffffffffffffffffffffffffffffffffffffffff1673ffffffffffffffffffffffffffffffffffffffff16815260200190815260200160002060008673ffffffffffffffffffffffffffffffffffffffff1673ffffffffffffffffffffffffffffffffffffffff168152602001908152602001600020819055505b8373ffffffffffffffffffffffffffffffffffffffff163373ffffffffffffffffffffffffffffffffffffffff167f8c5be1e5ebec7d5bd14f71427d1e84f3dd0314c0f7b2291e5b200ac8c7c3b925609b60003373ffffffffffffffffffffffffffffffffffffffff1673ffffffffffffffffffffffffffffffffffffffff16815260200190815260200160002060008873ffffffffffffffffffffffffffffffffffffffff1673ffffffffffffffffffffffffffffffffffffffff168152602001908152602001600020546040518082815260200191505060405180910390a3600191505092915050565b60008073ffffffffffffffffffffffffffffffffffffffff168373ffffffffffffffffffffffffffffffffffffffff161415611dde576040517f08c379a00000000000000000000000000000000000000000000000000000000081526004018080602001828103825260188152602001807f5472616e7366657220746f207a65726f2061646472657373000000000000000081525060200191505060405180910390fd5b611de733611883565b821115611e5c576040517f08c379a000000000000000000000000000000000000000000000000000000000815260040180806020018281038252601d8152602001807f5472616e736665722067726561746572207468616e2062616c616e636500000081525060200191505060405180910390fd5b611e67338484612711565b8273ffffffffffffffffffffffffffffffffffffffff163373ffffffffffffffffffffffffffffffffffffffff167fddf252ad1be2c89b69c2b068fc378daa952ba7f163c4a11628f55a4df523b3ef846040518082815260200191505060405180910390a36001905092915050565b60007f53bf423e48ed90e97d02ab0ebab13b2a235a6bfbe9c321847d5c175333ac453560001b90506000815490506002811415611f7b576040517f08c379a000000000000000000000000000000000000000000000000000000000815260040180806020018281038252600e8152602001807f5265656e7472616e742063616c6c00000000000000000000000000000000000081525060200191505060405180910390fd5b60028255611f8833613377565b15611ffb576040517f08c379a00000000000000000000000000000000000000000000000000000000081526004018080602001828103825260188152602001807f4163636f756e7420686173206e6f74206f7074656420696e000000000000000081525060200191505060405180910390fd5b61201861200733611883565b60a05461296690919063ffffffff16565b60a081905550609f5460a160003373ffffffffffffffffffffffffffffffffffffffff1673ffffffffffffffffffffffffffffffffffffffff168152602001908152602001600020819055506120b8609d60003373ffffffffffffffffffffffffffffffffffffffff1673ffffffffffffffffffffffffffffffffffffffff16815260200190815260200160002054609e546126c790919063ffffffff16565b609e81905550600160a260003373ffffffffffffffffffffffffffffffffffffffff1673ffffffffffffffffffffffffffffffffffffffff16815260200190815260200160002060006101000a81548160ff0219169083600281111561211a57fe5b0217905550600182555050565b6000612131612696565b73ffffffffffffffffffffffffffffffffffffffff163373ffffffffffffffffffffffffffffffffffffffff1614905090565b61216c612127565b6121de576040517f08c379a000000000000000000000000000000000000000000000000000000000815260040180806020018281038252601a8152602001807f43616c6c6572206973206e6f742074686520476f7665726e6f7200000000000081525060200191505060405180910390fd5b6121e78161344e565b8073ffffffffffffffffffffffffffffffffffffffff16612206612696565b73ffffffffffffffffffffffffffffffffffffffff167fa39cc5eb22d0f34d8beaefee8a3f17cc229c1a1d1ef87a5ad47313487b1c4f0d60405160405180910390a350565b6000609b60008473ffffffffffffffffffffffffffffffffffffffff1673ffffffffffffffffffffffffffffffffffffffff16815260200190815260200160002060008373ffffffffffffffffffffffffffffffffffffffff1673ffffffffffffffffffffffffffffffffffffffff16815260200190815260200160002054905092915050565b60a05481565b60007f53bf423e48ed90e97d02ab0ebab13b2a235a6bfbe9c321847d5c175333ac453560001b9050600081549050600281141561237d576040517f08c379a000000000000000000000000000000000000000000000000000000000815260040180806020018281038252600e8152602001807f5265656e7472616e742063616c6c00000000000000000000000000000000000081525060200191505060405180910390fd5b6002825561238a33613377565b6123fc576040517f08c379a00000000000000000000000000000000000000000000000000000000081526004018080602001828103825260198152602001807f4163636f756e7420686173206e6f74206f70746564206f75740000000000000081525060200191505060405180910390fd5b600061246c61240a33612ed2565b61245e609f54609d60003373ffffffffffffffffffffffffffffffffffffffff1673ffffffffffffffffffffffffffffffffffffffff1681526020019081526020016000205461347d90919063ffffffff16565b61350390919063ffffffff16565b905061248b61247a33611883565b60a0546126c790919063ffffffff16565b60a08190555080609d60003373ffffffffffffffffffffffffffffffffffffffff1673ffffffffffffffffffffffffffffffffffffffff16815260200190815260200160002081905550612529609d60003373ffffffffffffffffffffffffffffffffffffffff1673ffffffffffffffffffffffffffffffffffffffff16815260200190815260200160002054609e5461296690919063ffffffff16565b609e81905550600260a260003373ffffffffffffffffffffffffffffffffffffffff1673ffffffffffffffffffffffffffffffffffffffff16815260200190815260200160002060006101000a81548160ff0219169083600281111561258b57fe5b021790555060a160003373ffffffffffffffffffffffffffffffffffffffff1673ffffffffffffffffffffffffffffffffffffffff1681526020019081526020016000206000905550600182555050565b600080609d60008473ffffffffffffffffffffffffffffffffffffffff1673ffffffffffffffffffffffffffffffffffffffff1681526020019081526020016000205461262884612ed2565b91509150915091565b6000803090506000813b9050600081149250505090565b826097908051906020019061265e929190613876565b508160989080519060200190612675929190613876565b5080609960006101000a81548160ff021916908360ff160217905550505050565b6000807f7bea13895fa79d2831e0a9e28edede30099005a50d652d8957cf8a607ee6ca4a60001b9050805491505090565b600061270983836040518060400160405280601e81526020017f536166654d6174683a207375627472616374696f6e206f766572666c6f77000081525061354d565b905092915050565b600061271c83613377565b9050600061272985613377565b9050600061274861273986612ed2565b8561360d90919063ffffffff16565b9050600061276761275888612ed2565b8661360d90919063ffffffff16565b90506127f2816040518060400160405280601f81526020017f5472616e7366657220616d6f756e7420657863656564732062616c616e636500815250609d60008b73ffffffffffffffffffffffffffffffffffffffff1673ffffffffffffffffffffffffffffffffffffffff1681526020019081526020016000205461354d9092919063ffffffff16565b609d60008973ffffffffffffffffffffffffffffffffffffffff1673ffffffffffffffffffffffffffffffffffffffff1681526020019081526020016000208190555061288782609d60008973ffffffffffffffffffffffffffffffffffffffff1673ffffffffffffffffffffffffffffffffffffffff1681526020019081526020016000205461296690919063ffffffff16565b609d60008873ffffffffffffffffffffffffffffffffffffffff1673ffffffffffffffffffffffffffffffffffffffff168152602001908152602001600020819055508380156128d5575082155b15612915576128ef8560a05461296690919063ffffffff16565b60a08190555061290a81609e546126c790919063ffffffff16565b609e8190555061295d565b831580156129205750825b1561295c5761293a8560a0546126c790919063ffffffff16565b60a08190555061295582609e5461296690919063ffffffff16565b609e819055505b5b50505050505050565b6000808284019050838110156129e4576040517f08c379a000000000000000000000000000000000000000000000000000000000815260040180806020018281038252601b8152602001807f536166654d6174683a206164646974696f6e206f766572666c6f77000000000081525060200191505060405180910390fd5b8091505092915050565b600080612a0c670de0b6b3a76400008561347d90919063ffffffff16565b9050612a21838261350390919063ffffffff16565b91505092915050565b60007f53bf423e48ed90e97d02ab0ebab13b2a235a6bfbe9c321847d5c175333ac453560001b90506000815490506002811415612acf576040517f08c379a000000000000000000000000000000000000000000000000000000000815260040180806020018281038252600e8152602001807f5265656e7472616e742063616c6c00000000000000000000000000000000000081525060200191505060405180910390fd5b60028255600073ffffffffffffffffffffffffffffffffffffffff168473ffffffffffffffffffffffffffffffffffffffff161415612b76576040517f08c379a00000000000000000000000000000000000000000000000000000000081526004018080602001828103825260188152602001807f4d696e7420746f20746865207a65726f2061646472657373000000000000000081525060200191505060405180910390fd5b6000612b8185613377565b90506000612ba0612b9187612ed2565b8661360d90919063ffffffff16565b9050612bf481609d60008973ffffffffffffffffffffffffffffffffffffffff1673ffffffffffffffffffffffffffffffffffffffff1681526020019081526020016000205461296690919063ffffffff16565b609d60008873ffffffffffffffffffffffffffffffffffffffff1673ffffffffffffffffffffffffffffffffffffffff168152602001908152602001600020819055508115612c5d57612c528560a05461296690919063ffffffff16565b60a081905550612c79565b612c7281609e5461296690919063ffffffff16565b609e819055505b612c8e85609a5461296690919063ffffffff16565b609a819055506000196fffffffffffffffffffffffffffffffff16609a5410612d1f576040517f08c379a000000000000000000000000000000000000000000000000000000000815260040180806020018281038252600a8152602001807f4d617820737570706c790000000000000000000000000000000000000000000081525060200191505060405180910390fd5b8573ffffffffffffffffffffffffffffffffffffffff16600073ffffffffffffffffffffffffffffffffffffffff167fddf252ad1be2c89b69c2b068fc378daa952ba7f163c4a11628f55a4df523b3ef876040518082815260200191505060405180910390a350506001825550505050565b6000807f44c4d30b2eaad5130ad70c3ba6972730566f3e6359ab83e800d905c61b1c51db60001b9050805491505090565b600073ffffffffffffffffffffffffffffffffffffffff168173ffffffffffffffffffffffffffffffffffffffff161415612e65576040517f08c379a000000000000000000000000000000000000000000000000000000000815260040180806020018281038252601a8152602001807f4e657720476f7665726e6f72206973206164647265737328302900000000000081525060200191505060405180910390fd5b8073ffffffffffffffffffffffffffffffffffffffff16612e84612696565b73ffffffffffffffffffffffffffffffffffffffff167fc7c0c772add429241571afb3805861fb3cfa2af374534088b76cdb4325a87e9a60405160405180910390a3612ecf8161362a565b50565b60008060a160008473ffffffffffffffffffffffffffffffffffffffff1673ffffffffffffffffffffffffffffffffffffffff1681526020019081526020016000205414612f615760a160008373ffffffffffffffffffffffffffffffffffffffff1673ffffffffffffffffffffffffffffffffffffffff168152602001908152602001600020549050612f67565b609f5490505b919050565b60007f53bf423e48ed90e97d02ab0ebab13b2a235a6bfbe9c321847d5c175333ac453560001b90506000815490506002811415613011576040517f08c379a000000000000000000000000000000000000000000000000000000000815260040180806020018281038252600e8152602001807f5265656e7472616e742063616c6c00000000000000000000000000000000000081525060200191505060405180910390fd5b60028255600073ffffffffffffffffffffffffffffffffffffffff168473ffffffffffffffffffffffffffffffffffffffff1614156130b8576040517f08c379a000000000000000000000000000000000000000000000000000000000815260040180806020018281038252601a8152602001807f4275726e2066726f6d20746865207a65726f206164647265737300000000000081525060200191505060405180910390fd5b60008314156130c65761336d565b60006130d185613377565b905060006130f06130e187612ed2565b8661360d90919063ffffffff16565b90506000609d60008873ffffffffffffffffffffffffffffffffffffffff1673ffffffffffffffffffffffffffffffffffffffff1681526020019081526020016000205490508181148061314657508160018203145b15613195576000609d60008973ffffffffffffffffffffffffffffffffffffffff1673ffffffffffffffffffffffffffffffffffffffff168152602001908152602001600020819055506132a6565b81811115613237576131ef82609d60008a73ffffffffffffffffffffffffffffffffffffffff1673ffffffffffffffffffffffffffffffffffffffff168152602001908152602001600020546126c790919063ffffffff16565b609d60008973ffffffffffffffffffffffffffffffffffffffff1673ffffffffffffffffffffffffffffffffffffffff168152602001908152602001600020819055506132a5565b6040517f08c379a00000000000000000000000000000000000000000000000000000000081526004018080602001828103825260168152602001807f52656d6f766520657863656564732062616c616e63650000000000000000000081525060200191505060405180910390fd5b5b82156132cc576132c18660a0546126c790919063ffffffff16565b60a0819055506132e8565b6132e182609e546126c790919063ffffffff16565b609e819055505b6132fd86609a546126c790919063ffffffff16565b609a81905550600073ffffffffffffffffffffffffffffffffffffffff168773ffffffffffffffffffffffffffffffffffffffff167fddf252ad1be2c89b69c2b068fc378daa952ba7f163c4a11628f55a4df523b3ef886040518082815260200191505060405180910390a35050505b6001825550505050565b60008061338383613659565b90508080156133f457506000600281111561339a57fe5b60a260008573ffffffffffffffffffffffffffffffffffffffff1673ffffffffffffffffffffffffffffffffffffffff16815260200190815260200160002060009054906101000a900460ff1660028111156133f257fe5b145b15613403576134028361366c565b5b600060a160008573ffffffffffffffffffffffffffffffffffffffff1673ffffffffffffffffffffffffffffffffffffffff1681526020019081526020016000205411915050919050565b60007f44c4d30b2eaad5130ad70c3ba6972730566f3e6359ab83e800d905c61b1c51db60001b90508181555050565b60008083141561349057600090506134fd565b60008284029050828482816134a157fe5b04146134f8576040517f08c379a00000000000000000000000000000000000000000000000000000000081526004018080602001828103825260218152602001806139146021913960400191505060405180910390fd5b809150505b92915050565b600061354583836040518060400160405280601a81526020017f536166654d6174683a206469766973696f6e206279207a65726f00000000000081525061377b565b905092915050565b60008383111582906135fa576040517f08c379a00000000000000000000000000000000000000000000000000000000081526004018080602001828103825283818151815260200191508051906020019080838360005b838110156135bf5780820151818401526020810190506135a4565b50505050905090810190601f1680156135ec5780820380516001836020036101000a031916815260200191505b509250505060405180910390fd5b5060008385039050809150509392505050565b60006136228383670de0b6b3a7640000613841565b905092915050565b60007f7bea13895fa79d2831e0a9e28edede30099005a50d652d8957cf8a607ee6ca4a60001b90508181555050565b600080823b905060008111915050919050565b600060a160008373ffffffffffffffffffffffffffffffffffffffff1673ffffffffffffffffffffffffffffffffffffffff16815260200190815260200160002054141561377857609f5460a160008373ffffffffffffffffffffffffffffffffffffffff1673ffffffffffffffffffffffffffffffffffffffff1681526020019081526020016000208190555061371761370682611883565b60a05461296690919063ffffffff16565b60a081905550613771609d60008373ffffffffffffffffffffffffffffffffffffffff1673ffffffffffffffffffffffffffffffffffffffff16815260200190815260200160002054609e546126c790919063ffffffff16565b609e819055505b50565b60008083118290613827576040517f08c379a00000000000000000000000000000000000000000000000000000000081526004018080602001828103825283818151815260200191508051906020019080838360005b838110156137ec5780820151818401526020810190506137d1565b50505050905090810190601f1680156138195780820380516001836020036101000a031916815260200191505b509250505060405180910390fd5b50600083858161383357fe5b049050809150509392505050565b600080613857848661347d90919063ffffffff16565b905061386c838261350390919063ffffffff16565b9150509392505050565b828054600181600116156101000203166002900490600052602060002090601f016020900481019282601f106138b757805160ff19168380011785556138e5565b828001600101855582156138e5579182015b828111156138e45782518255916020019190600101906138c9565b5b5090506138f291906138f6565b5090565b5b8082111561390f5760008160009055506001016138f7565b509056fe536166654d6174683a206d756c7469706c69636174696f6e206f766572666c6f77436f6e747261637420696e7374616e63652068617320616c7265616479206265656e20696e697469616c697a65644f6e6c79207468652070656e64696e6720476f7665726e6f722063616e20636f6d706c6574652074686520636c61696da26469706673582212208df9d719a4f3044229f3e196919a6f5b42d7f0c477dcc100d97249bbb8c5ad5d64736f6c634300060c0033",
  "immutableReferences": {},
  "source": "pragma solidity ^0.6.12;\n\n/**\n * @title USDs Token Contract\n * @dev ERC20 compatible contract for USDs\n * @dev Implements an elastic supply\n * @author Origin Protocol Inc\n */\n//import { SafeMath } from \"@openzeppelin/contracts/math/SafeMath.sol\";\nimport { SafeMath } from \"../libraries/SafeERC20.sol\";\nimport {\n    Initializable\n} from \"../libraries/Initializable.sol\";\nimport { Address } from \"../libraries/Address.sol\";\n\nimport {\n    InitializableERC20Detailed\n} from \"../libraries/InitializableERC20Detailed.sol\";\nimport { StableMath } from \"../libraries/StableMath.sol\";\nimport { Governable } from \"../governance/Governable.sol\";\n\n/**\n * NOTE that this is an ERC20 token but the invariant that the sum of\n * balanceOf(x) for all x is not >= totalSupply(). This is a consequence of the\n * rebasing design. Any integrations with USDs should be aware.\n */\n\ncontract USDs is Initializable, InitializableERC20Detailed, Governable {\n    using SafeMath for uint256;\n    using StableMath for uint256;\n\n    event TotalSupplyUpdated(\n        uint256 totalSupply,\n        uint256 rebasingCredits,\n        uint256 rebasingCreditsPerToken\n    );\n\n    enum RebaseOptions { NotSet, OptOut, OptIn }\n\n    uint256 private constant MAX_SUPPLY = ~uint128(0); // (2^128) - 1\n    uint256 public _totalSupply;\n    mapping(address => mapping(address => uint256)) private _allowances;\n    address public vaultAddress = address(0);\n    mapping(address => uint256) private _creditBalances;\n    uint256 public rebasingCredits;\n    uint256 public rebasingCreditsPerToken;\n    // Frozen address/credits are non rebasing (value is held in contracts which\n    // do not receive yield unless they explicitly opt in)\n    uint256 public nonRebasingSupply;\n    mapping(address => uint256) public nonRebasingCreditsPerToken;\n    mapping(address => RebaseOptions) public rebaseState;\n\n    function initialize(\n        string calldata _nameArg,\n        string calldata _symbolArg,\n        address _vaultAddress\n    ) external onlyGovernor initializer {\n        InitializableERC20Detailed._initialize(_nameArg, _symbolArg, 18);\n        rebasingCreditsPerToken = 1e18;\n        vaultAddress = _vaultAddress;\n    }\n\n    /**\n     * @dev Verifies that the caller is the Savings Manager contract\n     */\n    modifier onlyVault() {\n        require(vaultAddress == msg.sender, \"Caller is not the Vault\");\n        _;\n    }\n\n    /**\n     * @return The total supply of USDs.\n     */\n    function totalSupply() public view override returns (uint256) {\n        return _totalSupply;\n    }\n\n    /**\n     * @dev Gets the balance of the specified address.\n     * @param _account Address to query the balance of.\n     * @return A uint256 representing the _amount of base units owned by the\n     *         specified address.\n     */\n    function balanceOf(address _account) public view override returns (uint256) {\n        if (_creditBalances[_account] == 0) return 0;\n        return\n            _creditBalances[_account].divPrecisely(_creditsPerToken(_account));\n    }\n\n    /**\n     * @dev Gets the credits balance of the specified address.\n     * @param _account The address to query the balance of.\n     * @return (uint256, uint256) Credit balance and credits per token of the\n     *         address\n     */\n    function creditsBalanceOf(address _account)\n        public\n        view\n        returns (uint256, uint256)\n    {\n        return (_creditBalances[_account], _creditsPerToken(_account));\n    }\n\n    /**\n     * @dev Transfer tokens to a specified address.\n     * @param _to the address to transfer to.\n     * @param _value the _amount to be transferred.\n     * @return true on success.\n     */\n    function transfer(address _to, uint256 _value) public override returns (bool) {\n        require(_to != address(0), \"Transfer to zero address\");\n        require(\n            _value <= balanceOf(msg.sender),\n            \"Transfer greater than balance\"\n        );\n\n        _executeTransfer(msg.sender, _to, _value);\n\n        emit Transfer(msg.sender, _to, _value);\n\n        return true;\n    }\n\n    /**\n     * @dev Transfer tokens from one address to another.\n     * @param _from The address you want to send tokens from.\n     * @param _to The address you want to transfer to.\n     * @param _value The _amount of tokens to be transferred.\n     */\n    function transferFrom(\n        address _from,\n        address _to,\n        uint256 _value\n    ) public override returns (bool) {\n        require(_to != address(0), \"Transfer to zero address\");\n        require(_value <= balanceOf(_from), \"Transfer greater than balance\");\n\n        _allowances[_from][msg.sender] = _allowances[_from][msg.sender].sub(\n            _value\n        );\n\n        _executeTransfer(_from, _to, _value);\n\n        emit Transfer(_from, _to, _value);\n\n        return true;\n    }\n\n    /**\n     * @dev Update the count of non rebasing credits in response to a transfer\n     * @param _from The address you want to send tokens from.\n     * @param _to The address you want to transfer to.\n     * @param _value Amount of USDs to transfer\n     */\n    function _executeTransfer(\n        address _from,\n        address _to,\n        uint256 _value\n    ) internal {\n        bool isNonRebasingTo = _isNonRebasingAccount(_to);\n        bool isNonRebasingFrom = _isNonRebasingAccount(_from);\n\n        // Credits deducted and credited might be different due to the\n        // differing creditsPerToken used by each account\n        uint256 creditsCredited = _value.mulTruncate(_creditsPerToken(_to));\n        uint256 creditsDeducted = _value.mulTruncate(_creditsPerToken(_from));\n\n        _creditBalances[_from] = _creditBalances[_from].sub(\n            creditsDeducted,\n            \"Transfer amount exceeds balance\"\n        );\n        _creditBalances[_to] = _creditBalances[_to].add(creditsCredited);\n\n        if (isNonRebasingTo && !isNonRebasingFrom) {\n            // Transfer to non-rebasing account from rebasing account, credits\n            // are removed from the non rebasing tally\n            nonRebasingSupply = nonRebasingSupply.add(_value);\n            // Update rebasingCredits by subtracting the deducted amount\n            rebasingCredits = rebasingCredits.sub(creditsDeducted);\n        } else if (!isNonRebasingTo && isNonRebasingFrom) {\n            // Transfer to rebasing account from non-rebasing account\n            // Decreasing non-rebasing credits by the amount that was sent\n            nonRebasingSupply = nonRebasingSupply.sub(_value);\n            // Update rebasingCredits by adding the credited amount\n            rebasingCredits = rebasingCredits.add(creditsCredited);\n        }\n    }\n\n    /**\n     * @dev Function to check the _amount of tokens that an owner has allowed to a _spender.\n     * @param _owner The address which owns the funds.\n     * @param _spender The address which will spend the funds.\n     * @return The number of tokens still available for the _spender.\n     */\n    function allowance(address _owner, address _spender)\n        public\n        view\n        override returns (uint256)\n    {\n        return _allowances[_owner][_spender];\n    }\n\n    /**\n     * @dev Approve the passed address to spend the specified _amount of tokens on behalf of\n     * msg.sender. This method is included for ERC20 compatibility.\n     * increaseAllowance and decreaseAllowance should be used instead.\n     * Changing an allowance with this method brings the risk that someone may transfer both\n     * the old and the new allowance - if they are both greater than zero - if a transfer\n     * transaction is mined before the later approve() call is mined.\n     *\n     * @param _spender The address which will spend the funds.\n     * @param _value The _amount of tokens to be spent.\n     */\n    function approve(address _spender, uint256 _value) public override returns (bool) {\n        _allowances[msg.sender][_spender] = _value;\n        emit Approval(msg.sender, _spender, _value);\n        return true;\n    }\n\n    /**\n     * @dev Increase the _amount of tokens that an owner has allowed to a _spender.\n     * This method should be used instead of approve() to avoid the double approval vulnerability\n     * described above.\n     * @param _spender The address which will spend the funds.\n     * @param _addedValue The _amount of tokens to increase the allowance by.\n     */\n    function increaseAllowance(address _spender, uint256 _addedValue)\n        public\n        returns (bool)\n    {\n        _allowances[msg.sender][_spender] = _allowances[msg.sender][_spender]\n            .add(_addedValue);\n        emit Approval(msg.sender, _spender, _allowances[msg.sender][_spender]);\n        return true;\n    }\n\n    /**\n     * @dev Decrease the _amount of tokens that an owner has allowed to a _spender.\n     * @param _spender The address which will spend the funds.\n     * @param _subtractedValue The _amount of tokens to decrease the allowance by.\n     */\n    function decreaseAllowance(address _spender, uint256 _subtractedValue)\n        public\n        returns (bool)\n    {\n        uint256 oldValue = _allowances[msg.sender][_spender];\n        if (_subtractedValue >= oldValue) {\n            _allowances[msg.sender][_spender] = 0;\n        } else {\n            _allowances[msg.sender][_spender] = oldValue.sub(_subtractedValue);\n        }\n        emit Approval(msg.sender, _spender, _allowances[msg.sender][_spender]);\n        return true;\n    }\n\n    /**\n     * @dev Mints new tokens, increasing totalSupply.\n     */\n    function mint(address _account, uint256 _amount) external onlyVault {\n        _mint(_account, _amount);\n    }\n\n    /**\n     * @dev Creates `_amount` tokens and assigns them to `_account`, increasing\n     * the total supply.\n     *\n     * Emits a {Transfer} event with `from` set to the zero address.\n     *\n     * Requirements\n     *\n     * - `to` cannot be the zero address.\n     */\n    function _mint(address _account, uint256 _amount) internal nonReentrant {\n        require(_account != address(0), \"Mint to the zero address\");\n\n        bool isNonRebasingAccount = _isNonRebasingAccount(_account);\n\n        uint256 creditAmount = _amount.mulTruncate(_creditsPerToken(_account));\n        _creditBalances[_account] = _creditBalances[_account].add(creditAmount);\n\n        // If the account is non rebasing and doesn't have a set creditsPerToken\n        // then set it i.e. this is a mint from a fresh contract\n        if (isNonRebasingAccount) {\n            nonRebasingSupply = nonRebasingSupply.add(_amount);\n        } else {\n            rebasingCredits = rebasingCredits.add(creditAmount);\n        }\n\n        _totalSupply = _totalSupply.add(_amount);\n\n        require(_totalSupply < MAX_SUPPLY, \"Max supply\");\n\n        emit Transfer(address(0), _account, _amount);\n    }\n\n    /**\n     * @dev Burns tokens, decreasing totalSupply.\n     */\n    function burn(address account, uint256 amount) external onlyVault {\n        _burn(account, amount);\n    }\n\n    /**\n     * @dev Destroys `_amount` tokens from `_account`, reducing the\n     * total supply.\n     *\n     * Emits a {Transfer} event with `to` set to the zero address.\n     *\n     * Requirements\n     *\n     * - `_account` cannot be the zero address.\n     * - `_account` must have at least `_amount` tokens.\n     */\n    function _burn(address _account, uint256 _amount) internal nonReentrant {\n        require(_account != address(0), \"Burn from the zero address\");\n        if (_amount == 0) {\n            return;\n        }\n\n        bool isNonRebasingAccount = _isNonRebasingAccount(_account);\n        uint256 creditAmount = _amount.mulTruncate(_creditsPerToken(_account));\n        uint256 currentCredits = _creditBalances[_account];\n\n        // Remove the credits, burning rounding errors\n        if (\n            currentCredits == creditAmount || currentCredits - 1 == creditAmount\n        ) {\n            // Handle dust from rounding\n            _creditBalances[_account] = 0;\n        } else if (currentCredits > creditAmount) {\n            _creditBalances[_account] = _creditBalances[_account].sub(\n                creditAmount\n            );\n        } else {\n            revert(\"Remove exceeds balance\");\n        }\n\n        // Remove from the credit tallies and non-rebasing supply\n        if (isNonRebasingAccount) {\n            nonRebasingSupply = nonRebasingSupply.sub(_amount);\n        } else {\n            rebasingCredits = rebasingCredits.sub(creditAmount);\n        }\n\n        _totalSupply = _totalSupply.sub(_amount);\n\n        emit Transfer(_account, address(0), _amount);\n    }\n\n    /**\n     * @dev Get the credits per token for an account. Returns a fixed amount\n     *      if the account is non-rebasing.\n     * @param _account Address of the account.\n     */\n    function _creditsPerToken(address _account)\n        internal\n        view\n        returns (uint256)\n    {\n        if (nonRebasingCreditsPerToken[_account] != 0) {\n            return nonRebasingCreditsPerToken[_account];\n        } else {\n            return rebasingCreditsPerToken;\n        }\n    }\n\n    /**\n     * @dev Is an account using rebasing accounting or non-rebasing accounting?\n     *      Also, ensure contracts are non-rebasing if they have not opted in.\n     * @param _account Address of the account.\n     */\n    function _isNonRebasingAccount(address _account) internal returns (bool) {\n        bool isContract = Address.isContract(_account);\n        if (isContract && rebaseState[_account] == RebaseOptions.NotSet) {\n            _ensureRebasingMigration(_account);\n        }\n        return nonRebasingCreditsPerToken[_account] > 0;\n    }\n\n    /**\n     * @dev Ensures internal account for rebasing and non-rebasing credits and\n     *      supply is updated following deployment of frozen yield change.\n     */\n    function _ensureRebasingMigration(address _account) internal {\n        if (nonRebasingCreditsPerToken[_account] == 0) {\n            // Set fixed credits per token for this account\n            nonRebasingCreditsPerToken[_account] = rebasingCreditsPerToken;\n            // Update non rebasing supply\n            nonRebasingSupply = nonRebasingSupply.add(balanceOf(_account));\n            // Update credit tallies\n            rebasingCredits = rebasingCredits.sub(_creditBalances[_account]);\n        }\n    }\n\n    /**\n     * @dev Add a contract address to the non rebasing exception list. I.e. the\n     * address's balance will be part of rebases so the account will be exposed\n     * to upside and downside.\n     */\n    function rebaseOptIn() public nonReentrant {\n        require(_isNonRebasingAccount(msg.sender), \"Account has not opted out\");\n\n        // Convert balance into the same amount at the current exchange rate\n        uint256 newCreditBalance = _creditBalances[msg.sender]\n            .mul(rebasingCreditsPerToken)\n            .div(_creditsPerToken(msg.sender));\n\n        // Decreasing non rebasing supply\n        nonRebasingSupply = nonRebasingSupply.sub(balanceOf(msg.sender));\n\n        _creditBalances[msg.sender] = newCreditBalance;\n\n        // Increase rebasing credits, totalSupply remains unchanged so no\n        // adjustment necessary\n        rebasingCredits = rebasingCredits.add(_creditBalances[msg.sender]);\n\n        rebaseState[msg.sender] = RebaseOptions.OptIn;\n\n        // Delete any fixed credits per token\n        delete nonRebasingCreditsPerToken[msg.sender];\n    }\n\n    /**\n     * @dev Remove a contract address to the non rebasing exception list.\n     */\n    function rebaseOptOut() public nonReentrant {\n        require(!_isNonRebasingAccount(msg.sender), \"Account has not opted in\");\n\n        // Increase non rebasing supply\n        nonRebasingSupply = nonRebasingSupply.add(balanceOf(msg.sender));\n        // Set fixed credits per token\n        nonRebasingCreditsPerToken[msg.sender] = rebasingCreditsPerToken;\n\n        // Decrease rebasing credits, total supply remains unchanged so no\n        // adjustment necessary\n        rebasingCredits = rebasingCredits.sub(_creditBalances[msg.sender]);\n\n        // Mark explicitly opted out of rebasing\n        rebaseState[msg.sender] = RebaseOptions.OptOut;\n    }\n\n    /**\n     * @dev Modify the supply without minting new tokens. This uses a change in\n     *      the exchange rate between \"credits\" and USDs tokens to change balances.\n     * @param _newTotalSupply New total supply of USDs.\n     */\n    function changeSupply(uint256 _newTotalSupply)\n        external\n        onlyVault\n        nonReentrant\n    {\n        require(_totalSupply > 0, \"Cannot increase 0 supply\");\n\n        if (_totalSupply == _newTotalSupply) {\n            emit TotalSupplyUpdated(\n                _totalSupply,\n                rebasingCredits,\n                rebasingCreditsPerToken\n            );\n            return;\n        }\n\n        _totalSupply = _newTotalSupply > MAX_SUPPLY\n            ? MAX_SUPPLY\n            : _newTotalSupply;\n\n        rebasingCreditsPerToken = rebasingCredits.divPrecisely(\n            _totalSupply.sub(nonRebasingSupply)\n        );\n\n        require(rebasingCreditsPerToken > 0, \"Invalid change in supply\");\n\n        _totalSupply = rebasingCredits\n            .divPrecisely(rebasingCreditsPerToken)\n            .add(nonRebasingSupply);\n\n        emit TotalSupplyUpdated(\n            _totalSupply,\n            rebasingCredits,\n            rebasingCreditsPerToken\n        );\n    }\n}\n",
  "sourcePath": "/Users/daweizhao/Documents/Sperax/USDs/USDs github/USDs/contracts/token/USDs.sol",
  "compiler": {
    "name": "solc",
    "version": "0.6.12+commit.27d51765.Emscripten.clang"
  },
  "schemaVersion": "3.3.4",
  "updatedAt": "2021-06-11T16:34:24.713Z",
  "devdoc": {
    "kind": "dev",
    "methods": {
      "allowance(address,address)": {
        "details": "Function to check the _amount of tokens that an owner has allowed to a _spender.",
        "params": {
          "_owner": "The address which owns the funds.",
          "_spender": "The address which will spend the funds."
        },
        "returns": {
          "_0": "The number of tokens still available for the _spender."
        }
      },
      "approve(address,uint256)": {
        "details": "Approve the passed address to spend the specified _amount of tokens on behalf of msg.sender. This method is included for ERC20 compatibility. increaseAllowance and decreaseAllowance should be used instead. Changing an allowance with this method brings the risk that someone may transfer both the old and the new allowance - if they are both greater than zero - if a transfer transaction is mined before the later approve() call is mined.",
        "params": {
          "_spender": "The address which will spend the funds.",
          "_value": "The _amount of tokens to be spent."
        }
      },
      "balanceOf(address)": {
        "details": "Gets the balance of the specified address.",
        "params": {
          "_account": "Address to query the balance of."
        },
        "returns": {
          "_0": "A uint256 representing the _amount of base units owned by the         specified address."
        }
      },
      "burn(address,uint256)": {
        "details": "Burns tokens, decreasing totalSupply."
      },
      "changeSupply(uint256)": {
        "details": "Modify the supply without minting new tokens. This uses a change in      the exchange rate between \"credits\" and USDs tokens to change balances.",
        "params": {
          "_newTotalSupply": "New total supply of USDs."
        }
      },
      "claimGovernance()": {
        "details": "Claim Governance of the contract to a new account (`newGovernor`). Can only be called by the new Governor."
      },
      "creditsBalanceOf(address)": {
        "details": "Gets the credits balance of the specified address.",
        "params": {
          "_account": "The address to query the balance of."
        },
        "returns": {
          "_0": "(uint256, uint256) Credit balance and credits per token of the         address"
        }
      },
      "decimals()": {
        "details": "Returns the number of decimals used to get its user representation. For example, if `decimals` equals `2`, a balance of `505` tokens should be displayed to a user as `5,05` (`505 / 10 ** 2`). Tokens usually opt for a value of 18, imitating the relationship between Ether and Wei. NOTE: This information is only used for _display_ purposes: it in no way affects any of the arithmetic of the contract, including {IERC20-balanceOf} and {IERC20-transfer}."
      },
      "decreaseAllowance(address,uint256)": {
        "details": "Decrease the _amount of tokens that an owner has allowed to a _spender.",
        "params": {
          "_spender": "The address which will spend the funds.",
          "_subtractedValue": "The _amount of tokens to decrease the allowance by."
        }
      },
      "governor()": {
        "details": "Returns the address of the current Governor."
      },
      "increaseAllowance(address,uint256)": {
        "details": "Increase the _amount of tokens that an owner has allowed to a _spender. This method should be used instead of approve() to avoid the double approval vulnerability described above.",
        "params": {
          "_addedValue": "The _amount of tokens to increase the allowance by.",
          "_spender": "The address which will spend the funds."
        }
      },
      "isGovernor()": {
        "details": "Returns true if the caller is the current Governor."
      },
      "mint(address,uint256)": {
        "details": "Mints new tokens, increasing totalSupply."
      },
      "name()": {
        "details": "Returns the name of the token."
      },
      "rebaseOptIn()": {
        "details": "Add a contract address to the non rebasing exception list. I.e. the address's balance will be part of rebases so the account will be exposed to upside and downside."
      },
      "rebaseOptOut()": {
        "details": "Remove a contract address to the non rebasing exception list."
      },
      "symbol()": {
        "details": "Returns the symbol of the token, usually a shorter version of the name."
      },
      "totalSupply()": {
        "returns": {
          "_0": "The total supply of USDs."
        }
      },
      "transfer(address,uint256)": {
        "details": "Transfer tokens to a specified address.",
        "params": {
          "_to": "the address to transfer to.",
          "_value": "the _amount to be transferred."
        },
        "returns": {
          "_0": "true on success."
        }
      },
      "transferFrom(address,address,uint256)": {
        "details": "Transfer tokens from one address to another.",
        "params": {
          "_from": "The address you want to send tokens from.",
          "_to": "The address you want to transfer to.",
          "_value": "The _amount of tokens to be transferred."
        }
      },
      "transferGovernance(address)": {
        "details": "Transfers Governance of the contract to a new account (`newGovernor`). Can only be called by the current Governor. Must be claimed for this to complete",
        "params": {
          "_newGovernor": "Address of the new Governor"
        }
      }
    },
    "version": 1
  },
  "userdoc": {
    "kind": "user",
    "methods": {},
    "notice": "NOTE that this is an ERC20 token but the invariant that the sum of balanceOf(x) for all x is not >= totalSupply(). This is a consequence of the rebasing design. Any integrations with USDs should be aware.",
    "version": 1
  }
}