{
  "abi": [
    {
      "anonymous": false,
      "inputs": [
        {
          "indexed": true,
          "internalType": "address",
          "name": "owner",
          "type": "address"
        },
        {
          "indexed": true,
          "internalType": "address",
          "name": "spender",
          "type": "address"
        },
        {
          "indexed": false,
          "internalType": "uint256",
          "name": "value",
          "type": "uint256"
        }
      ],
      "name": "Approval",
      "type": "event"
    },
    {
      "anonymous": false,
      "inputs": [
        {
          "indexed": true,
          "internalType": "address",
          "name": "previousOwner",
          "type": "address"
        },
        {
          "indexed": true,
          "internalType": "address",
          "name": "newOwner",
          "type": "address"
        }
      ],
      "name": "OwnershipTransferred",
      "type": "event"
    },
    {
      "anonymous": false,
      "inputs": [
        {
          "indexed": false,
          "internalType": "uint256",
          "name": "totalSupply",
          "type": "uint256"
        },
        {
          "indexed": false,
          "internalType": "uint256",
          "name": "rebasingCredits",
          "type": "uint256"
        },
        {
          "indexed": false,
          "internalType": "uint256",
          "name": "rebasingCreditsPerToken",
          "type": "uint256"
        }
      ],
      "name": "TotalSupplyUpdated",
      "type": "event"
    },
    {
      "anonymous": false,
      "inputs": [
        {
          "indexed": true,
          "internalType": "address",
          "name": "from",
          "type": "address"
        },
        {
          "indexed": true,
          "internalType": "address",
          "name": "to",
          "type": "address"
        },
        {
          "indexed": false,
          "internalType": "uint256",
          "name": "value",
          "type": "uint256"
        }
      ],
      "name": "Transfer",
      "type": "event"
    },
    {
      "inputs": [],
      "name": "DOMAIN_SEPARATOR",
      "outputs": [
        {
          "internalType": "bytes32",
          "name": "",
          "type": "bytes32"
        }
      ],
      "stateMutability": "view",
      "type": "function"
    },
    {
      "inputs": [
        {
          "internalType": "address",
          "name": "_owner",
          "type": "address"
        },
        {
          "internalType": "address",
          "name": "_spender",
          "type": "address"
        }
      ],
      "name": "allowance",
      "outputs": [
        {
          "internalType": "uint256",
          "name": "",
          "type": "uint256"
        }
      ],
      "stateMutability": "view",
      "type": "function"
    },
    {
      "inputs": [
        {
          "internalType": "address",
          "name": "_spender",
          "type": "address"
        },
        {
          "internalType": "uint256",
          "name": "_value",
          "type": "uint256"
        }
      ],
      "name": "approve",
      "outputs": [
        {
          "internalType": "bool",
          "name": "",
          "type": "bool"
        }
      ],
      "stateMutability": "nonpayable",
      "type": "function"
    },
    {
      "inputs": [
        {
          "internalType": "address",
          "name": "_account",
          "type": "address"
        }
      ],
      "name": "balanceOf",
      "outputs": [
        {
          "internalType": "uint256",
          "name": "",
          "type": "uint256"
        }
      ],
      "stateMutability": "view",
      "type": "function"
    },
    {
      "inputs": [
        {
          "internalType": "address",
          "name": "account",
          "type": "address"
        },
        {
          "internalType": "uint256",
          "name": "amount",
          "type": "uint256"
        }
      ],
      "name": "burn",
      "outputs": [],
      "stateMutability": "nonpayable",
      "type": "function"
    },
    {
      "inputs": [
        {
          "internalType": "uint256",
          "name": "_newTotalSupply",
          "type": "uint256"
        }
      ],
      "name": "changeSupply",
      "outputs": [],
      "stateMutability": "nonpayable",
      "type": "function"
    },
    {
      "inputs": [
        {
          "internalType": "address",
          "name": "newVault",
          "type": "address"
        }
      ],
      "name": "changeVault",
      "outputs": [],
      "stateMutability": "nonpayable",
      "type": "function"
    },
    {
      "inputs": [
        {
          "internalType": "address",
          "name": "_account",
          "type": "address"
        }
      ],
      "name": "creditsBalanceOf",
      "outputs": [
        {
          "internalType": "uint256",
          "name": "",
          "type": "uint256"
        },
        {
          "internalType": "uint256",
          "name": "",
          "type": "uint256"
        }
      ],
      "stateMutability": "view",
      "type": "function"
    },
    {
      "inputs": [],
      "name": "decimals",
      "outputs": [
        {
          "internalType": "uint8",
          "name": "",
          "type": "uint8"
        }
      ],
      "stateMutability": "view",
      "type": "function"
    },
    {
      "inputs": [
        {
          "internalType": "address",
          "name": "_spender",
          "type": "address"
        },
        {
          "internalType": "uint256",
          "name": "_subtractedValue",
          "type": "uint256"
        }
      ],
      "name": "decreaseAllowance",
      "outputs": [
        {
          "internalType": "bool",
          "name": "",
          "type": "bool"
        }
      ],
      "stateMutability": "nonpayable",
      "type": "function"
    },
    {
      "inputs": [
        {
          "internalType": "address",
          "name": "_spender",
          "type": "address"
        },
        {
          "internalType": "uint256",
          "name": "_addedValue",
          "type": "uint256"
        }
      ],
      "name": "increaseAllowance",
      "outputs": [
        {
          "internalType": "bool",
          "name": "",
          "type": "bool"
        }
      ],
      "stateMutability": "nonpayable",
      "type": "function"
    },
    {
      "inputs": [
        {
          "internalType": "string",
          "name": "_nameArg",
          "type": "string"
        },
        {
          "internalType": "string",
          "name": "_symbolArg",
          "type": "string"
        },
        {
          "internalType": "address",
          "name": "_vaultAddress",
          "type": "address"
        }
      ],
      "name": "initialize",
      "outputs": [],
      "stateMutability": "nonpayable",
      "type": "function"
    },
    {
      "inputs": [
        {
          "internalType": "address",
          "name": "_account",
          "type": "address"
        },
        {
          "internalType": "uint256",
          "name": "_amount",
          "type": "uint256"
        }
      ],
      "name": "mint",
      "outputs": [],
      "stateMutability": "nonpayable",
      "type": "function"
    },
    {
      "inputs": [],
      "name": "name",
      "outputs": [
        {
          "internalType": "string",
          "name": "",
          "type": "string"
        }
      ],
      "stateMutability": "view",
      "type": "function"
    },
    {
      "inputs": [
        {
          "internalType": "address",
          "name": "",
          "type": "address"
        }
      ],
      "name": "nonRebasingCreditsPerToken",
      "outputs": [
        {
          "internalType": "uint256",
          "name": "",
          "type": "uint256"
        }
      ],
      "stateMutability": "view",
      "type": "function"
    },
    {
      "inputs": [],
      "name": "nonRebasingSupply",
      "outputs": [
        {
          "internalType": "uint256",
          "name": "",
          "type": "uint256"
        }
      ],
      "stateMutability": "view",
      "type": "function"
    },
    {
      "inputs": [
        {
          "internalType": "address",
          "name": "owner",
          "type": "address"
        }
      ],
      "name": "nonces",
      "outputs": [
        {
          "internalType": "uint256",
          "name": "",
          "type": "uint256"
        }
      ],
      "stateMutability": "view",
      "type": "function"
    },
    {
      "inputs": [],
      "name": "owner",
      "outputs": [
        {
          "internalType": "address",
          "name": "",
          "type": "address"
        }
      ],
      "stateMutability": "view",
      "type": "function"
    },
    {
      "inputs": [
        {
          "internalType": "address",
          "name": "owner",
          "type": "address"
        },
        {
          "internalType": "address",
          "name": "spender",
          "type": "address"
        },
        {
          "internalType": "uint256",
          "name": "value",
          "type": "uint256"
        },
        {
          "internalType": "uint256",
          "name": "deadline",
          "type": "uint256"
        },
        {
          "internalType": "uint8",
          "name": "v",
          "type": "uint8"
        },
        {
          "internalType": "bytes32",
          "name": "r",
          "type": "bytes32"
        },
        {
          "internalType": "bytes32",
          "name": "s",
          "type": "bytes32"
        }
      ],
      "name": "permit",
      "outputs": [],
      "stateMutability": "nonpayable",
      "type": "function"
    },
    {
      "inputs": [],
      "name": "rebaseOptIn",
      "outputs": [],
      "stateMutability": "nonpayable",
      "type": "function"
    },
    {
      "inputs": [],
      "name": "rebaseOptOut",
      "outputs": [],
      "stateMutability": "nonpayable",
      "type": "function"
    },
    {
      "inputs": [
        {
          "internalType": "address",
          "name": "",
          "type": "address"
        }
      ],
      "name": "rebaseState",
      "outputs": [
        {
          "internalType": "enum USDs.RebaseOptions",
          "name": "",
          "type": "uint8"
        }
      ],
      "stateMutability": "view",
      "type": "function"
    },
    {
      "inputs": [],
      "name": "rebasingCredits",
      "outputs": [
        {
          "internalType": "uint256",
          "name": "",
          "type": "uint256"
        }
      ],
      "stateMutability": "view",
      "type": "function"
    },
    {
      "inputs": [],
      "name": "rebasingCreditsPerToken",
      "outputs": [
        {
          "internalType": "uint256",
          "name": "",
          "type": "uint256"
        }
      ],
      "stateMutability": "view",
      "type": "function"
    },
    {
      "inputs": [],
      "name": "renounceOwnership",
      "outputs": [],
      "stateMutability": "nonpayable",
      "type": "function"
    },
    {
      "inputs": [],
      "name": "symbol",
      "outputs": [
        {
          "internalType": "string",
          "name": "",
          "type": "string"
        }
      ],
      "stateMutability": "view",
      "type": "function"
    },
    {
      "inputs": [],
      "name": "totalBurnt",
      "outputs": [
        {
          "internalType": "uint256",
          "name": "",
          "type": "uint256"
        }
      ],
      "stateMutability": "view",
      "type": "function"
    },
    {
      "inputs": [],
      "name": "totalMinted",
      "outputs": [
        {
          "internalType": "uint256",
          "name": "",
          "type": "uint256"
        }
      ],
      "stateMutability": "view",
      "type": "function"
    },
    {
      "inputs": [],
      "name": "totalSupply",
      "outputs": [
        {
          "internalType": "uint256",
          "name": "",
          "type": "uint256"
        }
      ],
      "stateMutability": "view",
      "type": "function"
    },
    {
      "inputs": [
        {
          "internalType": "address",
          "name": "_to",
          "type": "address"
        },
        {
          "internalType": "uint256",
          "name": "_value",
          "type": "uint256"
        }
      ],
      "name": "transfer",
      "outputs": [
        {
          "internalType": "bool",
          "name": "",
          "type": "bool"
        }
      ],
      "stateMutability": "nonpayable",
      "type": "function"
    },
    {
      "inputs": [
        {
          "internalType": "address",
          "name": "_from",
          "type": "address"
        },
        {
          "internalType": "address",
          "name": "_to",
          "type": "address"
        },
        {
          "internalType": "uint256",
          "name": "_value",
          "type": "uint256"
        }
      ],
      "name": "transferFrom",
      "outputs": [
        {
          "internalType": "bool",
          "name": "",
          "type": "bool"
        }
      ],
      "stateMutability": "nonpayable",
      "type": "function"
    },
    {
      "inputs": [
        {
          "internalType": "address",
          "name": "newOwner",
          "type": "address"
        }
      ],
      "name": "transferOwnership",
      "outputs": [],
      "stateMutability": "nonpayable",
      "type": "function"
    },
    {
      "inputs": [],
      "name": "vaultAddress",
      "outputs": [
        {
          "internalType": "address",
          "name": "",
          "type": "address"
        }
      ],
      "stateMutability": "view",
      "type": "function"
    }
  ],
  "bytecode": "608060405234801561001057600080fd5b50612cc7806100206000396000f3fe608060405234801561001057600080fd5b50600436106101fb5760003560e01c806370a082311161011a578063a457c2d7116100ad578063dd62ed3e1161007c578063dd62ed3e1461068d578063e696393a146106bb578063f2fde38b146106c3578063f51b0fd4146106e9578063f9854bfc146106f1576101fb565b8063a457c2d7146105dc578063a9059cbb14610608578063c2376dff14610634578063d505accf1461063c576101fb565b806395d89b41116100e957806395d89b4114610598578063966ff650146105a05780639dc29fac146105a8578063a2309ff8146105d4576101fb565b806370a082311461053c578063715018a6146105625780637ecebe001461056a5780638da5cb5b14610590576101fb565b80633950935111610192578063456ee28611610161578063456ee286146104a1578063609350cd146104e857806360e232a91461050e5780636691cb3d14610534576101fb565b8063395093511461040857806339a7919f1461043457806340c10f1914610451578063430bf08a1461047d576101fb565b806318160ddd116101ce57806318160ddd146103a457806323b872dd146103ac578063313ce567146103e25780633644e51514610400576101fb565b806306fdde0314610200578063077f224a1461027d578063077f22b71461034a578063095ea7b314610364575b600080fd5b610208610730565b6040805160208082528351818301528351919283929083019185019080838360005b8381101561024257818101518382015260200161022a565b50505050905090810190601f16801561026f5780820380516001836020036101000a031916815260200191505b509250505060405180910390f35b6103486004803603606081101561029357600080fd5b8101906020810181356401000000008111156102ae57600080fd5b8201836020820111156102c057600080fd5b803590602001918460018302840111640100000000831117156102e257600080fd5b91939092909160208101903564010000000081111561030057600080fd5b82018360208201111561031257600080fd5b8035906020019184600183028401116401000000008311171561033457600080fd5b9193509150356001600160a01b03166107c6565b005b61035261095a565b60408051918252519081900360200190f35b6103906004803603604081101561037a57600080fd5b506001600160a01b038135169060200135610961565b604080519115158252519081900360200190f35b6103526109b7565b610390600480360360608110156103c257600080fd5b506001600160a01b038135811691602081013590911690604001356109bd565b6103ea610b14565b6040805160ff9092168252519081900360200190f35b610352610b1d565b6103906004803603604081101561041e57600080fd5b506001600160a01b038135169060200135610b2c565b6103486004803603602081101561044a57600080fd5b5035610baf565b6103486004803603604081101561046757600080fd5b506001600160a01b038135169060200135610dc1565b610485610e29565b604080516001600160a01b039092168252519081900360200190f35b6104c7600480360360208110156104b757600080fd5b50356001600160a01b0316610e39565b604051808260028111156104d757fe5b815260200191505060405180910390f35b610352600480360360208110156104fe57600080fd5b50356001600160a01b0316610e4f565b6103486004803603602081101561052457600080fd5b50356001600160a01b0316610e62565b610352610ee7565b6103526004803603602081101561055257600080fd5b50356001600160a01b0316610eee565b610348610f48565b6103526004803603602081101561058057600080fd5b50356001600160a01b0316610ff4565b610485611015565b610208611024565b610352611085565b610348600480360360408110156105be57600080fd5b506001600160a01b03813516906020013561108c565b6103526110f0565b610390600480360360408110156105f257600080fd5b506001600160a01b0381351690602001356110f6565b6103906004803603604081101561061e57600080fd5b506001600160a01b0381351690602001356111d1565b6103486112c8565b610348600480360360e081101561065257600080fd5b506001600160a01b03813581169160208101359091169060408101359060608101359060ff6080820135169060a08101359060c001356113ef565b610352600480360360408110156106a357600080fd5b506001600160a01b0381358116916020013516611592565b6103526115be565b610348600480360360208110156106d957600080fd5b50356001600160a01b03166115c5565b6103486116c8565b6107176004803603602081101561070757600080fd5b50356001600160a01b0316611821565b6040805192835260208301919091528051918290030190f35b60368054604080516020601f60026000196101006001881615020190951694909404938401819004810282018101909252828152606093909290918301828280156107bc5780601f10610791576101008083540402835291602001916107bc565b820191906000526020600020905b81548152906001019060200180831161079f57829003601f168201915b5050505050905090565b600054610100900460ff16806107df57506107df61184f565b806107ed575060005460ff16155b6108285760405162461bcd60e51b815260040180806020018281038252602e815260200180612b9d602e913960400191505060405180910390fd5b600054610100900460ff16158015610853576000805460ff1961ff0019909116610100171660011790555b61089286868080601f01602080910402602001604051908101604052809392919081815260200183838082843760009201919091525061186092505050565b61090586868080601f01602080910402602001604051908101604052809392919081815260200183838082843760009201919091525050604080516020601f8a01819004810282018101909252888152925088915087908190840183828082843760009201919091525061193692505050565b61090f60126119ec565b610917611a02565b670de0b6b3a76400006101055561010280546001600160a01b0319166001600160a01b0384161790558015610952576000805461ff00191690555b505050505050565b6101045481565b336000818152610101602090815260408083206001600160a01b03871680855290835281842086905581518681529151939490939092600080516020612c4e833981519152928290030190a35060015b92915050565b60fe5490565b60006001600160a01b038316610a15576040805162461bcd60e51b81526020600482015260186024820152775472616e7366657220746f207a65726f206164647265737360401b604482015290519081900360640190fd5b610a1e84610eee565b821115610a72576040805162461bcd60e51b815260206004820152601d60248201527f5472616e736665722067726561746572207468616e2062616c616e6365000000604482015290519081900360640190fd5b6001600160a01b038416600090815261010160209081526040808320338452909152902054610aa19083611ab3565b6001600160a01b038516600090815261010160209081526040808320338452909152902055610ad1848484611b10565b826001600160a01b0316846001600160a01b0316600080516020612c2e833981519152846040518082815260200191505060405180910390a35060019392505050565b60385460ff1690565b6000610b27611c89565b905090565b336000908152610101602090815260408083206001600160a01b0386168452909152812054610b5b9083611cc4565b336000818152610101602090815260408083206001600160a01b038916808552908352928190208590558051948552519193600080516020612c4e833981519152929081900390910190a350600192915050565b610102546001600160a01b03163314610c09576040805162461bcd60e51b815260206004820152601760248201527610d85b1b195c881a5cc81b9bdd081d1a194815985d5b1d604a1b604482015290519081900360640190fd5b600060fe5411610c60576040805162461bcd60e51b815260206004820152601860248201527f43616e6e6f7420696e637265617365203020737570706c790000000000000000604482015290519081900360640190fd5b8060fe541415610cb85760fe54610104546101055460408051938452602084019290925282820152517f99e56f783b536ffacf422d59183ea321dd80dcd6d23daa13023e8afea38c3df19181900360600190a1610dbe565b6001600160801b038111610ccc5780610cd5565b6001600160801b035b60fe81905561010654610cf591610ceb91611ab3565b6101045490611d25565b610105819055610d4c576040805162461bcd60e51b815260206004820152601860248201527f496e76616c6964206368616e676520696e20737570706c790000000000000000604482015290519081900360640190fd5b610d7261010654610d6c6101055461010454611d2590919063ffffffff16565b90611cc4565b60fe819055610104546101055460408051938452602084019290925282820152517f99e56f783b536ffacf422d59183ea321dd80dcd6d23daa13023e8afea38c3df19181900360600190a15b50565b610102546001600160a01b03163314610e1b576040805162461bcd60e51b815260206004820152601760248201527610d85b1b195c881a5cc81b9bdd081d1a194815985d5b1d604a1b604482015290519081900360640190fd5b610e258282611d4e565b5050565b610102546001600160a01b031681565b6101086020526000908152604090205460ff1681565b6101076020526000908152604090205481565b610e6a611edb565b6001600160a01b0316610e7b611015565b6001600160a01b031614610ec4576040805162461bcd60e51b81526020600482018190526024820152600080516020612c0e833981519152604482015290519081900360640190fd5b61010280546001600160a01b0319166001600160a01b0392909216919091179055565b6101055481565b6001600160a01b03811660009081526101036020526040812054610f1457506000610f43565b610f40610f2083611edf565b6001600160a01b0384166000908152610103602052604090205490611d25565b90505b919050565b610f50611edb565b6001600160a01b0316610f61611015565b6001600160a01b031614610faa576040805162461bcd60e51b81526020600482018190526024820152600080516020612c0e833981519152604482015290519081900360640190fd5b60cc546040516000916001600160a01b0316907f8be0079c531659141344cd1fd0a4f28419497f9722a3daafe3b4186f6b6457e0908390a360cc80546001600160a01b0319169055565b6001600160a01b0381166000908152609960205260408120610f4090611f28565b60cc546001600160a01b031690565b60378054604080516020601f60026000196101006001881615020190951694909404938401819004810282018101909252828152606093909290918301828280156107bc5780601f10610791576101008083540402835291602001916107bc565b6101005481565b610102546001600160a01b031633146110e6576040805162461bcd60e51b815260206004820152601760248201527610d85b1b195c881a5cc81b9bdd081d1a194815985d5b1d604a1b604482015290519081900360640190fd5b610e258282611f2c565b60ff5481565b336000908152610101602090815260408083206001600160a01b038616845290915281205480831061114c57336000908152610101602090815260408083206001600160a01b038816845290915281205561117c565b6111568184611ab3565b336000908152610101602090815260408083206001600160a01b03891684529091529020555b336000818152610101602090815260408083206001600160a01b038916808552908352928190205481519081529051929392600080516020612c4e833981519152929181900390910190a35060019392505050565b60006001600160a01b038316611229576040805162461bcd60e51b81526020600482015260186024820152775472616e7366657220746f207a65726f206164647265737360401b604482015290519081900360640190fd5b61123233610eee565b821115611286576040805162461bcd60e51b815260206004820152601d60248201527f5472616e736665722067726561746572207468616e2062616c616e6365000000604482015290519081900360640190fd5b611291338484611b10565b6040805183815290516001600160a01b038516913391600080516020612c2e8339815191529181900360200190a350600192915050565b6112d0611edb565b6001600160a01b03166112e1611015565b6001600160a01b03161461132a576040805162461bcd60e51b81526020600482018190526024820152600080516020612c0e833981519152604482015290519081900360640190fd5b61133333612116565b15611385576040805162461bcd60e51b815260206004820152601860248201527f4163636f756e7420686173206e6f74206f7074656420696e0000000000000000604482015290519081900360640190fd5b61139b61139133610eee565b6101065490611cc4565b6101065561010554336000908152610107602090815260408083209390935561010390522054610104546113ce91611ab3565b6101045533600090815261010860205260409020805460ff19166001179055565b83421115611444576040805162461bcd60e51b815260206004820152601d60248201527f45524332305065726d69743a206578706972656420646561646c696e65000000604482015290519081900360640190fd5b6000609a54888888611479609960008e6001600160a01b03166001600160a01b03168152602001908152602001600020611f28565b8960405160200180878152602001866001600160a01b03168152602001856001600160a01b03168152602001848152602001838152602001828152602001965050505050505060405160208183030381529060405280519060200120905060006114e282612184565b905060006114f2828787876121d0565b9050896001600160a01b0316816001600160a01b03161461155a576040805162461bcd60e51b815260206004820152601e60248201527f45524332305065726d69743a20696e76616c6964207369676e61747572650000604482015290519081900360640190fd5b6001600160a01b038a16600090815260996020526040902061157b9061234e565b6115868a8a8a612357565b50505050505050505050565b6001600160a01b0391821660009081526101016020908152604080832093909416825291909152205490565b6101065481565b6115cd611edb565b6001600160a01b03166115de611015565b6001600160a01b031614611627576040805162461bcd60e51b81526020600482018190526024820152600080516020612c0e833981519152604482015290519081900360640190fd5b6001600160a01b03811661166c5760405162461bcd60e51b8152600401808060200182810382526026815260200180612b336026913960400191505060405180910390fd5b60cc546040516001600160a01b038084169216907f8be0079c531659141344cd1fd0a4f28419497f9722a3daafe3b4186f6b6457e090600090a360cc80546001600160a01b0319166001600160a01b0392909216919091179055565b6116d0611edb565b6001600160a01b03166116e1611015565b6001600160a01b03161461172a576040805162461bcd60e51b81526020600482018190526024820152600080516020612c0e833981519152604482015290519081900360640190fd5b61173333612116565b611784576040805162461bcd60e51b815260206004820152601960248201527f4163636f756e7420686173206e6f74206f70746564206f757400000000000000604482015290519081900360640190fd5b60006117b661179233611edf565b6101055433600090815261010360205260409020546117b091612431565b9061248a565b90506117ce6117c433610eee565b6101065490611ab3565b6101065533600090815261010360205260409020819055610104546117f39082611cc4565b610104555033600090815261010860209081526040808320805460ff19166002179055610107909152812055565b6001600160a01b03811660009081526101036020526040812054819061184684611edf565b91509150915091565b600061185a306124f1565b15905090565b600054610100900460ff1680611879575061187961184f565b80611887575060005460ff16155b6118c25760405162461bcd60e51b815260040180806020018281038252602e815260200180612b9d602e913960400191505060405180910390fd5b600054610100900460ff161580156118ed576000805460ff1961ff0019909116610100171660011790555b6118f56124f7565b61191882604051806040016040528060018152602001603160f81b815250612597565b61192182612657565b8015610e25576000805461ff00191690555050565b600054610100900460ff168061194f575061194f61184f565b8061195d575060005460ff16155b6119985760405162461bcd60e51b815260040180806020018281038252602e815260200180612b9d602e913960400191505060405180910390fd5b600054610100900460ff161580156119c3576000805460ff1961ff0019909116610100171660011790555b6119cb6124f7565b6119d5838361271d565b80156119e7576000805461ff00191690555b505050565b6038805460ff191660ff92909216919091179055565b600054610100900460ff1680611a1b5750611a1b61184f565b80611a29575060005460ff16155b611a645760405162461bcd60e51b815260040180806020018281038252602e815260200180612b9d602e913960400191505060405180910390fd5b600054610100900460ff16158015611a8f576000805460ff1961ff0019909116610100171660011790555b611a976124f7565b611a9f6127f5565b8015610dbe576000805461ff001916905550565b600082821115611b0a576040805162461bcd60e51b815260206004820152601e60248201527f536166654d6174683a207375627472616374696f6e206f766572666c6f770000604482015290519081900360640190fd5b50900390565b6000611b1b83612116565b90506000611b2885612116565b90506000611b3f611b3886611edf565b85906128ee565b90506000611b56611b4f88611edf565b86906128ee565b9050611bc8816040518060400160405280601f81526020017f5472616e7366657220616d6f756e7420657863656564732062616c616e63650081525061010360008b6001600160a01b03166001600160a01b03168152602001908152602001600020546129039092919063ffffffff16565b6001600160a01b03808916600090815261010360205260408082209390935590881681522054611bf89083611cc4565b6001600160a01b03871660009081526101036020526040902055838015611c1d575082155b15611c4b5761010654611c309086611cc4565b6101065561010454611c429082611ab3565b61010455611c80565b83158015611c565750825b15611c805761010654611c699086611ab3565b6101065561010454611c7b9083611cc4565b610104555b50505050505050565b6000610b277f8b73c3c69bb8fe3d512ecc4cf759cc79239f7b179b0ffacaa9a75d522b39400f611cb761299a565b611cbf6129a0565b6129a6565b600082820183811015611d1e576040805162461bcd60e51b815260206004820152601b60248201527f536166654d6174683a206164646974696f6e206f766572666c6f770000000000604482015290519081900360640190fd5b9392505050565b600080611d3a84670de0b6b3a7640000612431565b9050611d46818461248a565b949350505050565b6001600160a01b038216611da9576040805162461bcd60e51b815260206004820152601860248201527f4d696e7420746f20746865207a65726f20616464726573730000000000000000604482015290519081900360640190fd5b6000611db483612116565b90506000611dcb611dc485611edf565b84906128ee565b6001600160a01b03851660009081526101036020526040902054909150611df29082611cc4565b6001600160a01b038516600090815261010360205260409020558115611e295761010654611e209084611cc4565b61010655611e3c565b61010454611e379082611cc4565b610104555b60fe54611e499084611cc4565b60fe5560ff54611e599084611cc4565b60ff5560fe546001600160801b0311611ea6576040805162461bcd60e51b815260206004820152600a6024820152694d617820737570706c7960b01b604482015290519081900360640190fd5b6040805184815290516001600160a01b03861691600091600080516020612c2e8339815191529181900360200190a350505050565b3390565b6001600160a01b0381166000908152610107602052604081205415611f1e57506001600160a01b03811660009081526101076020526040902054610f43565b5061010554610f43565b5490565b6001600160a01b038216611f87576040805162461bcd60e51b815260206004820152601a60248201527f4275726e2066726f6d20746865207a65726f2061646472657373000000000000604482015290519081900360640190fd5b80611f9157610e25565b6000611f9c83612116565b90506000611fac611dc485611edf565b6001600160a01b0385166000908152610103602052604090205490915080821480611fd957508160018203145b15611ffd576001600160a01b0385166000908152610103602052604081205561208e565b81811115612048576001600160a01b038516600090815261010360205260409020546120299083611ab3565b6001600160a01b0386166000908152610103602052604090205561208e565b6040805162461bcd60e51b815260206004820152601660248201527552656d6f766520657863656564732062616c616e636560501b604482015290519081900360640190fd5b82156120ab57610106546120a29085611ab3565b610106556120be565b610104546120b99083611ab3565b610104555b60fe546120cb9085611ab3565b60fe55610100546120dc9085611cc4565b610100556040805185815290516000916001600160a01b03881691600080516020612c2e8339815191529181900360200190a35050505050565b600080612122836124f1565b905080801561215657506001600160a01b0383166000908152610108602052604081205460ff16600281111561215457fe5b145b156121645761216483612a08565b50506001600160a01b031660009081526101076020526040902054151590565b600061218e611c89565b82604051602001808061190160f01b81525060020183815260200182815260200192505050604051602081830303815290604052805190602001209050919050565b60007f7fffffffffffffffffffffffffffffff5d576e7357a4501ddfe92f46681b20a08211156122315760405162461bcd60e51b8152600401808060200182810382526022815260200180612b7b6022913960400191505060405180910390fd5b8360ff16601b148061224657508360ff16601c145b6122815760405162461bcd60e51b8152600401808060200182810382526022815260200180612bcb6022913960400191505060405180910390fd5b600060018686868660405160008152602001604052604051808581526020018460ff1681526020018381526020018281526020019450505050506020604051602081039080840390855afa1580156122dd573d6000803e3d6000fd5b5050604051601f1901519150506001600160a01b038116612345576040805162461bcd60e51b815260206004820152601860248201527f45434453413a20696e76616c6964207369676e61747572650000000000000000604482015290519081900360640190fd5b95945050505050565b80546001019055565b6001600160a01b03831661239c5760405162461bcd60e51b8152600401808060200182810382526024815260200180612c6e6024913960400191505060405180910390fd5b6001600160a01b0382166123e15760405162461bcd60e51b8152600401808060200182810382526022815260200180612b596022913960400191505060405180910390fd5b6001600160a01b0380841660008181526034602090815260408083209487168084529482529182902085905581518581529151600080516020612c4e8339815191529281900390910190a3505050565b600082612440575060006109b1565b8282028284828161244d57fe5b0414611d1e5760405162461bcd60e51b8152600401808060200182810382526021815260200180612bed6021913960400191505060405180910390fd5b60008082116124e0576040805162461bcd60e51b815260206004820152601a60248201527f536166654d6174683a206469766973696f6e206279207a65726f000000000000604482015290519081900360640190fd5b8183816124e957fe5b049392505050565b3b151590565b600054610100900460ff1680612510575061251061184f565b8061251e575060005460ff16155b6125595760405162461bcd60e51b815260040180806020018281038252602e815260200180612b9d602e913960400191505060405180910390fd5b600054610100900460ff16158015611a9f576000805460ff1961ff0019909116610100171660011790558015610dbe576000805461ff001916905550565b600054610100900460ff16806125b057506125b061184f565b806125be575060005460ff16155b6125f95760405162461bcd60e51b815260040180806020018281038252602e815260200180612b9d602e913960400191505060405180910390fd5b600054610100900460ff16158015612624576000805460ff1961ff0019909116610100171660011790555b825160208085019190912083519184019190912060659190915560665580156119e7576000805461ff0019169055505050565b600054610100900460ff1680612670575061267061184f565b8061267e575060005460ff16155b6126b95760405162461bcd60e51b815260040180806020018281038252602e815260200180612b9d602e913960400191505060405180910390fd5b600054610100900460ff161580156126e4576000805460ff1961ff0019909116610100171660011790555b7f6e71edae12b1b97f4d1f60370fef10105fa2faae0126114a169c64845d6126c9609a558015610e25576000805461ff00191690555050565b600054610100900460ff1680612736575061273661184f565b80612744575060005460ff16155b61277f5760405162461bcd60e51b815260040180806020018281038252602e815260200180612b9d602e913960400191505060405180910390fd5b600054610100900460ff161580156127aa576000805460ff1961ff0019909116610100171660011790555b82516127bd906036906020860190612a9f565b5081516127d1906037906020850190612a9f565b506038805460ff1916601217905580156119e7576000805461ff0019169055505050565b600054610100900460ff168061280e575061280e61184f565b8061281c575060005460ff16155b6128575760405162461bcd60e51b815260040180806020018281038252602e815260200180612b9d602e913960400191505060405180910390fd5b600054610100900460ff16158015612882576000805460ff1961ff0019909116610100171660011790555b600061288c611edb565b60cc80546001600160a01b0319166001600160a01b038316908117909155604051919250906000907f8be0079c531659141344cd1fd0a4f28419497f9722a3daafe3b4186f6b6457e0908290a3508015610dbe576000805461ff001916905550565b6000611d1e8383670de0b6b3a7640000612a82565b600081848411156129925760405162461bcd60e51b81526004018080602001828103825283818151815260200191508051906020019080838360005b8381101561295757818101518382015260200161293f565b50505050905090810190601f1680156129845780820380516001836020036101000a031916815260200191505b509250505060405180910390fd5b505050900390565b60655490565b60665490565b60008383836129b3612a9b565b3060405160200180868152602001858152602001848152602001838152602001826001600160a01b03168152602001955050505050506040516020818303038152906040528051906020012090509392505050565b6001600160a01b03811660009081526101076020526040902054610dbe57610105546001600160a01b03821660009081526101076020526040902055612a5061139182610eee565b610106556001600160a01b0381166000908152610103602052604090205461010454612a7b91611ab3565b6101045550565b600080612a8f8585612431565b9050612345818461248a565b4690565b828054600181600116156101000203166002900490600052602060002090601f016020900481019282601f10612ae057805160ff1916838001178555612b0d565b82800160010185558215612b0d579182015b82811115612b0d578251825591602001919060010190612af2565b50612b19929150612b1d565b5090565b5b80821115612b195760008155600101612b1e56fe4f776e61626c653a206e6577206f776e657220697320746865207a65726f206164647265737345524332303a20617070726f766520746f20746865207a65726f206164647265737345434453413a20696e76616c6964207369676e6174757265202773272076616c7565496e697469616c697a61626c653a20636f6e747261637420697320616c726561647920696e697469616c697a656445434453413a20696e76616c6964207369676e6174757265202776272076616c7565536166654d6174683a206d756c7469706c69636174696f6e206f766572666c6f774f776e61626c653a2063616c6c6572206973206e6f7420746865206f776e6572ddf252ad1be2c89b69c2b068fc378daa952ba7f163c4a11628f55a4df523b3ef8c5be1e5ebec7d5bd14f71427d1e84f3dd0314c0f7b2291e5b200ac8c7c3b92545524332303a20617070726f76652066726f6d20746865207a65726f2061646472657373a2646970667358221220c183d2da01e04e998b22e16ce21e7a9bb845b9a921bc4e1951dc167cd234c7b864736f6c634300060c0033",
  "bytecodeSha1": "5e2368a7334ac3fd01667f4b4b7c9dbdca520968",
  "compiler": {
    "evm_version": "istanbul",
    "optimizer": {
      "enabled": true,
      "runs": 200
    },
    "version": "0.6.12+commit.27d51765"
  },
  "contractName": "USDs",
  "language": "Solidity",
  "natspec": {
    "kind": "dev",
    "methods": {
      "DOMAIN_SEPARATOR()": {
        "details": "See {IERC20Permit-DOMAIN_SEPARATOR}."
      },
      "allowance(address,address)": {
        "details": "Function to check the _amount of tokens that an owner has allowed to a _spender.",
        "params": {
          "_owner": "The address which owns the funds.",
          "_spender": "The address which will spend the funds."
        },
        "returns": {
          "_0": "The number of tokens still available for the _spender."
        }
      },
      "approve(address,uint256)": {
        "details": "Approve the passed address to spend the specified _amount of tokens on behalf of msg.sender. This method is included for ERC20 compatibility. increaseAllowance and decreaseAllowance should be used instead. Changing an allowance with this method brings the risk that someone may transfer both the old and the new allowance - if they are both greater than zero - if a transfer transaction is mined before the later approve() call is mined.",
        "params": {
          "_spender": "The address which will spend the funds.",
          "_value": "The _amount of tokens to be spent."
        }
      },
      "balanceOf(address)": {
        "details": "Gets the USDs balance of the specified address.",
        "params": {
          "_account": "Address to query the balance of."
        },
        "returns": {
          "_0": "A uint256 representing the _amount of base units owned by the         specified address."
        }
      },
      "burn(address,uint256)": {
        "details": "Burns tokens, decreasing totalSupply."
      },
      "changeSupply(uint256)": {
        "details": "The rebase function. Modify the supply without minting new tokens. This uses a change in      the exchange rate between \"credits\" and USDs tokens to change balances.",
        "params": {
          "_newTotalSupply": "New total supply of USDs."
        }
      },
      "changeVault(address)": {
        "details": "change the vault address",
        "params": {
          "newVault": "the new vault address"
        }
      },
      "creditsBalanceOf(address)": {
        "details": "Gets the credits balance of the specified address.",
        "params": {
          "_account": "The address to query the balance of."
        },
        "returns": {
          "_0": "(uint256, uint256) Credit balance and credits per token of the         address"
        }
      },
      "decimals()": {
        "details": "Returns the number of decimals used to get its user representation. For example, if `decimals` equals `2`, a balance of `505` tokens should be displayed to a user as `5,05` (`505 / 10 ** 2`). Tokens usually opt for a value of 18, imitating the relationship between Ether and Wei. This is the value {ERC20} uses, unless {_setupDecimals} is called. NOTE: This information is only used for _display_ purposes: it in no way affects any of the arithmetic of the contract, including {IERC20-balanceOf} and {IERC20-transfer}."
      },
      "decreaseAllowance(address,uint256)": {
        "details": "Decrease the _amount of tokens that an owner has allowed to a _spender.",
        "params": {
          "_spender": "The address which will spend the funds.",
          "_subtractedValue": "The _amount of tokens to decrease the allowance by."
        }
      },
      "increaseAllowance(address,uint256)": {
        "details": "Increase the _amount of tokens that an owner has allowed to a _spender. This method should be used instead of approve() to avoid the double approval vulnerability described above.",
        "params": {
          "_addedValue": "The _amount of tokens to increase the allowance by.",
          "_spender": "The address which will spend the funds."
        }
      },
      "mint(address,uint256)": {
        "details": "Mints new USDs tokens, increasing totalSupply.",
        "params": {
          "_account": "the account address the newly minted USDs will be attributed to",
          "_amount": "the amount of USDs that will be minted"
        }
      },
      "name()": {
        "details": "Returns the name of the token."
      },
      "nonces(address)": {
        "details": "See {IERC20Permit-nonces}."
      },
      "owner()": {
        "details": "Returns the address of the current owner."
      },
      "permit(address,address,uint256,uint256,uint8,bytes32,bytes32)": {
        "details": "See {IERC20Permit-permit}."
      },
      "rebaseOptIn()": {
        "details": "Add a contract address to the non rebasing exception list. I.e. the address's balance will be part of rebases so the account will be exposed to upside and downside."
      },
      "rebaseOptOut()": {
        "details": "Remove a contract address to the non rebasing exception list."
      },
      "renounceOwnership()": {
        "details": "Leaves the contract without owner. It will not be possible to call `onlyOwner` functions anymore. Can only be called by the current owner. NOTE: Renouncing ownership will leave the contract without an owner, thereby removing any functionality that is only available to the owner."
      },
      "symbol()": {
        "details": "Returns the symbol of the token, usually a shorter version of the name."
      },
      "totalSupply()": {
        "details": "check the current total supply of USDs",
        "returns": {
          "_0": "The total supply of USDs."
        }
      },
      "transfer(address,uint256)": {
        "details": "Transfer tokens to a specified address.",
        "params": {
          "_to": "the address to transfer to.",
          "_value": "the _amount to be transferred."
        },
        "returns": {
          "_0": "true on success."
        }
      },
      "transferFrom(address,address,uint256)": {
        "details": "Transfer tokens from one address to another.",
        "params": {
          "_from": "The address you want to send tokens from.",
          "_to": "The address you want to transfer to.",
          "_value": "The _amount of tokens to be transferred."
        }
      },
      "transferOwnership(address)": {
        "details": "Transfers ownership of the contract to a new account (`newOwner`). Can only be called by the current owner."
      }
    },
    "notice": "NOTE that this is an ERC20 token but the invariant that the sum of balanceOf(x) for all x is not >= totalSupply(). This is a consequence of the rebasing design. Any integrations with USDs should be aware.",
    "version": 1
  },
  "opcodes": "PUSH1 0x80 PUSH1 0x40 MSTORE CALLVALUE DUP1 ISZERO PUSH2 0x10 JUMPI PUSH1 0x0 DUP1 REVERT JUMPDEST POP PUSH1 0x4 CALLDATASIZE LT PUSH2 0x1FB JUMPI PUSH1 0x0 CALLDATALOAD PUSH1 0xE0 SHR DUP1 PUSH4 0x70A08231 GT PUSH2 0x11A JUMPI DUP1 PUSH4 0xA457C2D7 GT PUSH2 0xAD JUMPI DUP1 PUSH4 0xDD62ED3E GT PUSH2 0x7C JUMPI DUP1 PUSH4 0xDD62ED3E EQ PUSH2 0x68D JUMPI DUP1 PUSH4 0xE696393A EQ PUSH2 0x6BB JUMPI DUP1 PUSH4 0xF2FDE38B EQ PUSH2 0x6C3 JUMPI DUP1 PUSH4 0xF51B0FD4 EQ PUSH2 0x6E9 JUMPI DUP1 PUSH4 0xF9854BFC EQ PUSH2 0x6F1 JUMPI PUSH2 0x1FB JUMP JUMPDEST DUP1 PUSH4 0xA457C2D7 EQ PUSH2 0x5DC JUMPI DUP1 PUSH4 0xA9059CBB EQ PUSH2 0x608 JUMPI DUP1 PUSH4 0xC2376DFF EQ PUSH2 0x634 JUMPI DUP1 PUSH4 0xD505ACCF EQ PUSH2 0x63C JUMPI PUSH2 0x1FB JUMP JUMPDEST DUP1 PUSH4 0x95D89B41 GT PUSH2 0xE9 JUMPI DUP1 PUSH4 0x95D89B41 EQ PUSH2 0x598 JUMPI DUP1 PUSH4 0x966FF650 EQ PUSH2 0x5A0 JUMPI DUP1 PUSH4 0x9DC29FAC EQ PUSH2 0x5A8 JUMPI DUP1 PUSH4 0xA2309FF8 EQ PUSH2 0x5D4 JUMPI PUSH2 0x1FB JUMP JUMPDEST DUP1 PUSH4 0x70A08231 EQ PUSH2 0x53C JUMPI DUP1 PUSH4 0x715018A6 EQ PUSH2 0x562 JUMPI DUP1 PUSH4 0x7ECEBE00 EQ PUSH2 0x56A JUMPI DUP1 PUSH4 0x8DA5CB5B EQ PUSH2 0x590 JUMPI PUSH2 0x1FB JUMP JUMPDEST DUP1 PUSH4 0x39509351 GT PUSH2 0x192 JUMPI DUP1 PUSH4 0x456EE286 GT PUSH2 0x161 JUMPI DUP1 PUSH4 0x456EE286 EQ PUSH2 0x4A1 JUMPI DUP1 PUSH4 0x609350CD EQ PUSH2 0x4E8 JUMPI DUP1 PUSH4 0x60E232A9 EQ PUSH2 0x50E JUMPI DUP1 PUSH4 0x6691CB3D EQ PUSH2 0x534 JUMPI PUSH2 0x1FB JUMP JUMPDEST DUP1 PUSH4 0x39509351 EQ PUSH2 0x408 JUMPI DUP1 PUSH4 0x39A7919F EQ PUSH2 0x434 JUMPI DUP1 PUSH4 0x40C10F19 EQ PUSH2 0x451 JUMPI DUP1 PUSH4 0x430BF08A EQ PUSH2 0x47D JUMPI PUSH2 0x1FB JUMP JUMPDEST DUP1 PUSH4 0x18160DDD GT PUSH2 0x1CE JUMPI DUP1 PUSH4 0x18160DDD EQ PUSH2 0x3A4 JUMPI DUP1 PUSH4 0x23B872DD EQ PUSH2 0x3AC JUMPI DUP1 PUSH4 0x313CE567 EQ PUSH2 0x3E2 JUMPI DUP1 PUSH4 0x3644E515 EQ PUSH2 0x400 JUMPI PUSH2 0x1FB JUMP JUMPDEST DUP1 PUSH4 0x6FDDE03 EQ PUSH2 0x200 JUMPI DUP1 PUSH4 0x77F224A EQ PUSH2 0x27D JUMPI DUP1 PUSH4 0x77F22B7 EQ PUSH2 0x34A JUMPI DUP1 PUSH4 0x95EA7B3 EQ PUSH2 0x364 JUMPI JUMPDEST PUSH1 0x0 DUP1 REVERT JUMPDEST PUSH2 0x208 PUSH2 0x730 JUMP JUMPDEST PUSH1 0x40 DUP1 MLOAD PUSH1 0x20 DUP1 DUP3 MSTORE DUP4 MLOAD DUP2 DUP4 ADD MSTORE DUP4 MLOAD SWAP2 SWAP3 DUP4 SWAP3 SWAP1 DUP4 ADD SWAP2 DUP6 ADD SWAP1 DUP1 DUP4 DUP4 PUSH1 0x0 JUMPDEST DUP4 DUP2 LT ISZERO PUSH2 0x242 JUMPI DUP2 DUP2 ADD MLOAD DUP4 DUP3 ADD MSTORE PUSH1 0x20 ADD PUSH2 0x22A JUMP JUMPDEST POP POP POP POP SWAP1 POP SWAP1 DUP2 ADD SWAP1 PUSH1 0x1F AND DUP1 ISZERO PUSH2 0x26F JUMPI DUP1 DUP3 SUB DUP1 MLOAD PUSH1 0x1 DUP4 PUSH1 0x20 SUB PUSH2 0x100 EXP SUB NOT AND DUP2 MSTORE PUSH1 0x20 ADD SWAP2 POP JUMPDEST POP SWAP3 POP POP POP PUSH1 0x40 MLOAD DUP1 SWAP2 SUB SWAP1 RETURN JUMPDEST PUSH2 0x348 PUSH1 0x4 DUP1 CALLDATASIZE SUB PUSH1 0x60 DUP2 LT ISZERO PUSH2 0x293 JUMPI PUSH1 0x0 DUP1 REVERT JUMPDEST DUP2 ADD SWAP1 PUSH1 0x20 DUP2 ADD DUP2 CALLDATALOAD PUSH5 0x100000000 DUP2 GT ISZERO PUSH2 0x2AE JUMPI PUSH1 0x0 DUP1 REVERT JUMPDEST DUP3 ADD DUP4 PUSH1 0x20 DUP3 ADD GT ISZERO PUSH2 0x2C0 JUMPI PUSH1 0x0 DUP1 REVERT JUMPDEST DUP1 CALLDATALOAD SWAP1 PUSH1 0x20 ADD SWAP2 DUP5 PUSH1 0x1 DUP4 MUL DUP5 ADD GT PUSH5 0x100000000 DUP4 GT OR ISZERO PUSH2 0x2E2 JUMPI PUSH1 0x0 DUP1 REVERT JUMPDEST SWAP2 SWAP4 SWAP1 SWAP3 SWAP1 SWAP2 PUSH1 0x20 DUP2 ADD SWAP1 CALLDATALOAD PUSH5 0x100000000 DUP2 GT ISZERO PUSH2 0x300 JUMPI PUSH1 0x0 DUP1 REVERT JUMPDEST DUP3 ADD DUP4 PUSH1 0x20 DUP3 ADD GT ISZERO PUSH2 0x312 JUMPI PUSH1 0x0 DUP1 REVERT JUMPDEST DUP1 CALLDATALOAD SWAP1 PUSH1 0x20 ADD SWAP2 DUP5 PUSH1 0x1 DUP4 MUL DUP5 ADD GT PUSH5 0x100000000 DUP4 GT OR ISZERO PUSH2 0x334 JUMPI PUSH1 0x0 DUP1 REVERT JUMPDEST SWAP2 SWAP4 POP SWAP2 POP CALLDATALOAD PUSH1 0x1 PUSH1 0x1 PUSH1 0xA0 SHL SUB AND PUSH2 0x7C6 JUMP JUMPDEST STOP JUMPDEST PUSH2 0x352 PUSH2 0x95A JUMP JUMPDEST PUSH1 0x40 DUP1 MLOAD SWAP2 DUP3 MSTORE MLOAD SWAP1 DUP2 SWAP1 SUB PUSH1 0x20 ADD SWAP1 RETURN JUMPDEST PUSH2 0x390 PUSH1 0x4 DUP1 CALLDATASIZE SUB PUSH1 0x40 DUP2 LT ISZERO PUSH2 0x37A JUMPI PUSH1 0x0 DUP1 REVERT JUMPDEST POP PUSH1 0x1 PUSH1 0x1 PUSH1 0xA0 SHL SUB DUP2 CALLDATALOAD AND SWAP1 PUSH1 0x20 ADD CALLDATALOAD PUSH2 0x961 JUMP JUMPDEST PUSH1 0x40 DUP1 MLOAD SWAP2 ISZERO ISZERO DUP3 MSTORE MLOAD SWAP1 DUP2 SWAP1 SUB PUSH1 0x20 ADD SWAP1 RETURN JUMPDEST PUSH2 0x352 PUSH2 0x9B7 JUMP JUMPDEST PUSH2 0x390 PUSH1 0x4 DUP1 CALLDATASIZE SUB PUSH1 0x60 DUP2 LT ISZERO PUSH2 0x3C2 JUMPI PUSH1 0x0 DUP1 REVERT JUMPDEST POP PUSH1 0x1 PUSH1 0x1 PUSH1 0xA0 SHL SUB DUP2 CALLDATALOAD DUP2 AND SWAP2 PUSH1 0x20 DUP2 ADD CALLDATALOAD SWAP1 SWAP2 AND SWAP1 PUSH1 0x40 ADD CALLDATALOAD PUSH2 0x9BD JUMP JUMPDEST PUSH2 0x3EA PUSH2 0xB14 JUMP JUMPDEST PUSH1 0x40 DUP1 MLOAD PUSH1 0xFF SWAP1 SWAP3 AND DUP3 MSTORE MLOAD SWAP1 DUP2 SWAP1 SUB PUSH1 0x20 ADD SWAP1 RETURN JUMPDEST PUSH2 0x352 PUSH2 0xB1D JUMP JUMPDEST PUSH2 0x390 PUSH1 0x4 DUP1 CALLDATASIZE SUB PUSH1 0x40 DUP2 LT ISZERO PUSH2 0x41E JUMPI PUSH1 0x0 DUP1 REVERT JUMPDEST POP PUSH1 0x1 PUSH1 0x1 PUSH1 0xA0 SHL SUB DUP2 CALLDATALOAD AND SWAP1 PUSH1 0x20 ADD CALLDATALOAD PUSH2 0xB2C JUMP JUMPDEST PUSH2 0x348 PUSH1 0x4 DUP1 CALLDATASIZE SUB PUSH1 0x20 DUP2 LT ISZERO PUSH2 0x44A JUMPI PUSH1 0x0 DUP1 REVERT JUMPDEST POP CALLDATALOAD PUSH2 0xBAF JUMP JUMPDEST PUSH2 0x348 PUSH1 0x4 DUP1 CALLDATASIZE SUB PUSH1 0x40 DUP2 LT ISZERO PUSH2 0x467 JUMPI PUSH1 0x0 DUP1 REVERT JUMPDEST POP PUSH1 0x1 PUSH1 0x1 PUSH1 0xA0 SHL SUB DUP2 CALLDATALOAD AND SWAP1 PUSH1 0x20 ADD CALLDATALOAD PUSH2 0xDC1 JUMP JUMPDEST PUSH2 0x485 PUSH2 0xE29 JUMP JUMPDEST PUSH1 0x40 DUP1 MLOAD PUSH1 0x1 PUSH1 0x1 PUSH1 0xA0 SHL SUB SWAP1 SWAP3 AND DUP3 MSTORE MLOAD SWAP1 DUP2 SWAP1 SUB PUSH1 0x20 ADD SWAP1 RETURN JUMPDEST PUSH2 0x4C7 PUSH1 0x4 DUP1 CALLDATASIZE SUB PUSH1 0x20 DUP2 LT ISZERO PUSH2 0x4B7 JUMPI PUSH1 0x0 DUP1 REVERT JUMPDEST POP CALLDATALOAD PUSH1 0x1 PUSH1 0x1 PUSH1 0xA0 SHL SUB AND PUSH2 0xE39 JUMP JUMPDEST PUSH1 0x40 MLOAD DUP1 DUP3 PUSH1 0x2 DUP2 GT ISZERO PUSH2 0x4D7 JUMPI INVALID JUMPDEST DUP2 MSTORE PUSH1 0x20 ADD SWAP2 POP POP PUSH1 0x40 MLOAD DUP1 SWAP2 SUB SWAP1 RETURN JUMPDEST PUSH2 0x352 PUSH1 0x4 DUP1 CALLDATASIZE SUB PUSH1 0x20 DUP2 LT ISZERO PUSH2 0x4FE JUMPI PUSH1 0x0 DUP1 REVERT JUMPDEST POP CALLDATALOAD PUSH1 0x1 PUSH1 0x1 PUSH1 0xA0 SHL SUB AND PUSH2 0xE4F JUMP JUMPDEST PUSH2 0x348 PUSH1 0x4 DUP1 CALLDATASIZE SUB PUSH1 0x20 DUP2 LT ISZERO PUSH2 0x524 JUMPI PUSH1 0x0 DUP1 REVERT JUMPDEST POP CALLDATALOAD PUSH1 0x1 PUSH1 0x1 PUSH1 0xA0 SHL SUB AND PUSH2 0xE62 JUMP JUMPDEST PUSH2 0x352 PUSH2 0xEE7 JUMP JUMPDEST PUSH2 0x352 PUSH1 0x4 DUP1 CALLDATASIZE SUB PUSH1 0x20 DUP2 LT ISZERO PUSH2 0x552 JUMPI PUSH1 0x0 DUP1 REVERT JUMPDEST POP CALLDATALOAD PUSH1 0x1 PUSH1 0x1 PUSH1 0xA0 SHL SUB AND PUSH2 0xEEE JUMP JUMPDEST PUSH2 0x348 PUSH2 0xF48 JUMP JUMPDEST PUSH2 0x352 PUSH1 0x4 DUP1 CALLDATASIZE SUB PUSH1 0x20 DUP2 LT ISZERO PUSH2 0x580 JUMPI PUSH1 0x0 DUP1 REVERT JUMPDEST POP CALLDATALOAD PUSH1 0x1 PUSH1 0x1 PUSH1 0xA0 SHL SUB AND PUSH2 0xFF4 JUMP JUMPDEST PUSH2 0x485 PUSH2 0x1015 JUMP JUMPDEST PUSH2 0x208 PUSH2 0x1024 JUMP JUMPDEST PUSH2 0x352 PUSH2 0x1085 JUMP JUMPDEST PUSH2 0x348 PUSH1 0x4 DUP1 CALLDATASIZE SUB PUSH1 0x40 DUP2 LT ISZERO PUSH2 0x5BE JUMPI PUSH1 0x0 DUP1 REVERT JUMPDEST POP PUSH1 0x1 PUSH1 0x1 PUSH1 0xA0 SHL SUB DUP2 CALLDATALOAD AND SWAP1 PUSH1 0x20 ADD CALLDATALOAD PUSH2 0x108C JUMP JUMPDEST PUSH2 0x352 PUSH2 0x10F0 JUMP JUMPDEST PUSH2 0x390 PUSH1 0x4 DUP1 CALLDATASIZE SUB PUSH1 0x40 DUP2 LT ISZERO PUSH2 0x5F2 JUMPI PUSH1 0x0 DUP1 REVERT JUMPDEST POP PUSH1 0x1 PUSH1 0x1 PUSH1 0xA0 SHL SUB DUP2 CALLDATALOAD AND SWAP1 PUSH1 0x20 ADD CALLDATALOAD PUSH2 0x10F6 JUMP JUMPDEST PUSH2 0x390 PUSH1 0x4 DUP1 CALLDATASIZE SUB PUSH1 0x40 DUP2 LT ISZERO PUSH2 0x61E JUMPI PUSH1 0x0 DUP1 REVERT JUMPDEST POP PUSH1 0x1 PUSH1 0x1 PUSH1 0xA0 SHL SUB DUP2 CALLDATALOAD AND SWAP1 PUSH1 0x20 ADD CALLDATALOAD PUSH2 0x11D1 JUMP JUMPDEST PUSH2 0x348 PUSH2 0x12C8 JUMP JUMPDEST PUSH2 0x348 PUSH1 0x4 DUP1 CALLDATASIZE SUB PUSH1 0xE0 DUP2 LT ISZERO PUSH2 0x652 JUMPI PUSH1 0x0 DUP1 REVERT JUMPDEST POP PUSH1 0x1 PUSH1 0x1 PUSH1 0xA0 SHL SUB DUP2 CALLDATALOAD DUP2 AND SWAP2 PUSH1 0x20 DUP2 ADD CALLDATALOAD SWAP1 SWAP2 AND SWAP1 PUSH1 0x40 DUP2 ADD CALLDATALOAD SWAP1 PUSH1 0x60 DUP2 ADD CALLDATALOAD SWAP1 PUSH1 0xFF PUSH1 0x80 DUP3 ADD CALLDATALOAD AND SWAP1 PUSH1 0xA0 DUP2 ADD CALLDATALOAD SWAP1 PUSH1 0xC0 ADD CALLDATALOAD PUSH2 0x13EF JUMP JUMPDEST PUSH2 0x352 PUSH1 0x4 DUP1 CALLDATASIZE SUB PUSH1 0x40 DUP2 LT ISZERO PUSH2 0x6A3 JUMPI PUSH1 0x0 DUP1 REVERT JUMPDEST POP PUSH1 0x1 PUSH1 0x1 PUSH1 0xA0 SHL SUB DUP2 CALLDATALOAD DUP2 AND SWAP2 PUSH1 0x20 ADD CALLDATALOAD AND PUSH2 0x1592 JUMP JUMPDEST PUSH2 0x352 PUSH2 0x15BE JUMP JUMPDEST PUSH2 0x348 PUSH1 0x4 DUP1 CALLDATASIZE SUB PUSH1 0x20 DUP2 LT ISZERO PUSH2 0x6D9 JUMPI PUSH1 0x0 DUP1 REVERT JUMPDEST POP CALLDATALOAD PUSH1 0x1 PUSH1 0x1 PUSH1 0xA0 SHL SUB AND PUSH2 0x15C5 JUMP JUMPDEST PUSH2 0x348 PUSH2 0x16C8 JUMP JUMPDEST PUSH2 0x717 PUSH1 0x4 DUP1 CALLDATASIZE SUB PUSH1 0x20 DUP2 LT ISZERO PUSH2 0x707 JUMPI PUSH1 0x0 DUP1 REVERT JUMPDEST POP CALLDATALOAD PUSH1 0x1 PUSH1 0x1 PUSH1 0xA0 SHL SUB AND PUSH2 0x1821 JUMP JUMPDEST PUSH1 0x40 DUP1 MLOAD SWAP3 DUP4 MSTORE PUSH1 0x20 DUP4 ADD SWAP2 SWAP1 SWAP2 MSTORE DUP1 MLOAD SWAP2 DUP3 SWAP1 SUB ADD SWAP1 RETURN JUMPDEST PUSH1 0x36 DUP1 SLOAD PUSH1 0x40 DUP1 MLOAD PUSH1 0x20 PUSH1 0x1F PUSH1 0x2 PUSH1 0x0 NOT PUSH2 0x100 PUSH1 0x1 DUP9 AND ISZERO MUL ADD SWAP1 SWAP6 AND SWAP5 SWAP1 SWAP5 DIV SWAP4 DUP5 ADD DUP2 SWAP1 DIV DUP2 MUL DUP3 ADD DUP2 ADD SWAP1 SWAP3 MSTORE DUP3 DUP2 MSTORE PUSH1 0x60 SWAP4 SWAP1 SWAP3 SWAP1 SWAP2 DUP4 ADD DUP3 DUP3 DUP1 ISZERO PUSH2 0x7BC JUMPI DUP1 PUSH1 0x1F LT PUSH2 0x791 JUMPI PUSH2 0x100 DUP1 DUP4 SLOAD DIV MUL DUP4 MSTORE SWAP2 PUSH1 0x20 ADD SWAP2 PUSH2 0x7BC JUMP JUMPDEST DUP3 ADD SWAP2 SWAP1 PUSH1 0x0 MSTORE PUSH1 0x20 PUSH1 0x0 KECCAK256 SWAP1 JUMPDEST DUP2 SLOAD DUP2 MSTORE SWAP1 PUSH1 0x1 ADD SWAP1 PUSH1 0x20 ADD DUP1 DUP4 GT PUSH2 0x79F JUMPI DUP3 SWAP1 SUB PUSH1 0x1F AND DUP3 ADD SWAP2 JUMPDEST POP POP POP POP POP SWAP1 POP SWAP1 JUMP JUMPDEST PUSH1 0x0 SLOAD PUSH2 0x100 SWAP1 DIV PUSH1 0xFF AND DUP1 PUSH2 0x7DF JUMPI POP PUSH2 0x7DF PUSH2 0x184F JUMP JUMPDEST DUP1 PUSH2 0x7ED JUMPI POP PUSH1 0x0 SLOAD PUSH1 0xFF AND ISZERO JUMPDEST PUSH2 0x828 JUMPI PUSH1 0x40 MLOAD PUSH3 0x461BCD PUSH1 0xE5 SHL DUP2 MSTORE PUSH1 0x4 ADD DUP1 DUP1 PUSH1 0x20 ADD DUP3 DUP2 SUB DUP3 MSTORE PUSH1 0x2E DUP2 MSTORE PUSH1 0x20 ADD DUP1 PUSH2 0x2B9D PUSH1 0x2E SWAP2 CODECOPY PUSH1 0x40 ADD SWAP2 POP POP PUSH1 0x40 MLOAD DUP1 SWAP2 SUB SWAP1 REVERT JUMPDEST PUSH1 0x0 SLOAD PUSH2 0x100 SWAP1 DIV PUSH1 0xFF AND ISZERO DUP1 ISZERO PUSH2 0x853 JUMPI PUSH1 0x0 DUP1 SLOAD PUSH1 0xFF NOT PUSH2 0xFF00 NOT SWAP1 SWAP2 AND PUSH2 0x100 OR AND PUSH1 0x1 OR SWAP1 SSTORE JUMPDEST PUSH2 0x892 DUP7 DUP7 DUP1 DUP1 PUSH1 0x1F ADD PUSH1 0x20 DUP1 SWAP2 DIV MUL PUSH1 0x20 ADD PUSH1 0x40 MLOAD SWAP1 DUP2 ADD PUSH1 0x40 MSTORE DUP1 SWAP4 SWAP3 SWAP2 SWAP1 DUP2 DUP2 MSTORE PUSH1 0x20 ADD DUP4 DUP4 DUP1 DUP3 DUP5 CALLDATACOPY PUSH1 0x0 SWAP3 ADD SWAP2 SWAP1 SWAP2 MSTORE POP PUSH2 0x1860 SWAP3 POP POP POP JUMP JUMPDEST PUSH2 0x905 DUP7 DUP7 DUP1 DUP1 PUSH1 0x1F ADD PUSH1 0x20 DUP1 SWAP2 DIV MUL PUSH1 0x20 ADD PUSH1 0x40 MLOAD SWAP1 DUP2 ADD PUSH1 0x40 MSTORE DUP1 SWAP4 SWAP3 SWAP2 SWAP1 DUP2 DUP2 MSTORE PUSH1 0x20 ADD DUP4 DUP4 DUP1 DUP3 DUP5 CALLDATACOPY PUSH1 0x0 SWAP3 ADD SWAP2 SWAP1 SWAP2 MSTORE POP POP PUSH1 0x40 DUP1 MLOAD PUSH1 0x20 PUSH1 0x1F DUP11 ADD DUP2 SWAP1 DIV DUP2 MUL DUP3 ADD DUP2 ADD SWAP1 SWAP3 MSTORE DUP9 DUP2 MSTORE SWAP3 POP DUP9 SWAP2 POP DUP8 SWAP1 DUP2 SWAP1 DUP5 ADD DUP4 DUP3 DUP1 DUP3 DUP5 CALLDATACOPY PUSH1 0x0 SWAP3 ADD SWAP2 SWAP1 SWAP2 MSTORE POP PUSH2 0x1936 SWAP3 POP POP POP JUMP JUMPDEST PUSH2 0x90F PUSH1 0x12 PUSH2 0x19EC JUMP JUMPDEST PUSH2 0x917 PUSH2 0x1A02 JUMP JUMPDEST PUSH8 0xDE0B6B3A7640000 PUSH2 0x105 SSTORE PUSH2 0x102 DUP1 SLOAD PUSH1 0x1 PUSH1 0x1 PUSH1 0xA0 SHL SUB NOT AND PUSH1 0x1 PUSH1 0x1 PUSH1 0xA0 SHL SUB DUP5 AND OR SWAP1 SSTORE DUP1 ISZERO PUSH2 0x952 JUMPI PUSH1 0x0 DUP1 SLOAD PUSH2 0xFF00 NOT AND SWAP1 SSTORE JUMPDEST POP POP POP POP POP POP JUMP JUMPDEST PUSH2 0x104 SLOAD DUP2 JUMP JUMPDEST CALLER PUSH1 0x0 DUP2 DUP2 MSTORE PUSH2 0x101 PUSH1 0x20 SWAP1 DUP2 MSTORE PUSH1 0x40 DUP1 DUP4 KECCAK256 PUSH1 0x1 PUSH1 0x1 PUSH1 0xA0 SHL SUB DUP8 AND DUP1 DUP6 MSTORE SWAP1 DUP4 MSTORE DUP2 DUP5 KECCAK256 DUP7 SWAP1 SSTORE DUP2 MLOAD DUP7 DUP2 MSTORE SWAP2 MLOAD SWAP4 SWAP5 SWAP1 SWAP4 SWAP1 SWAP3 PUSH1 0x0 DUP1 MLOAD PUSH1 0x20 PUSH2 0x2C4E DUP4 CODECOPY DUP2 MLOAD SWAP2 MSTORE SWAP3 DUP3 SWAP1 SUB ADD SWAP1 LOG3 POP PUSH1 0x1 JUMPDEST SWAP3 SWAP2 POP POP JUMP JUMPDEST PUSH1 0xFE SLOAD SWAP1 JUMP JUMPDEST PUSH1 0x0 PUSH1 0x1 PUSH1 0x1 PUSH1 0xA0 SHL SUB DUP4 AND PUSH2 0xA15 JUMPI PUSH1 0x40 DUP1 MLOAD PUSH3 0x461BCD PUSH1 0xE5 SHL DUP2 MSTORE PUSH1 0x20 PUSH1 0x4 DUP3 ADD MSTORE PUSH1 0x18 PUSH1 0x24 DUP3 ADD MSTORE PUSH24 0x5472616E7366657220746F207A65726F2061646472657373 PUSH1 0x40 SHL PUSH1 0x44 DUP3 ADD MSTORE SWAP1 MLOAD SWAP1 DUP2 SWAP1 SUB PUSH1 0x64 ADD SWAP1 REVERT JUMPDEST PUSH2 0xA1E DUP5 PUSH2 0xEEE JUMP JUMPDEST DUP3 GT ISZERO PUSH2 0xA72 JUMPI PUSH1 0x40 DUP1 MLOAD PUSH3 0x461BCD PUSH1 0xE5 SHL DUP2 MSTORE PUSH1 0x20 PUSH1 0x4 DUP3 ADD MSTORE PUSH1 0x1D PUSH1 0x24 DUP3 ADD MSTORE PUSH32 0x5472616E736665722067726561746572207468616E2062616C616E6365000000 PUSH1 0x44 DUP3 ADD MSTORE SWAP1 MLOAD SWAP1 DUP2 SWAP1 SUB PUSH1 0x64 ADD SWAP1 REVERT JUMPDEST PUSH1 0x1 PUSH1 0x1 PUSH1 0xA0 SHL SUB DUP5 AND PUSH1 0x0 SWAP1 DUP2 MSTORE PUSH2 0x101 PUSH1 0x20 SWAP1 DUP2 MSTORE PUSH1 0x40 DUP1 DUP4 KECCAK256 CALLER DUP5 MSTORE SWAP1 SWAP2 MSTORE SWAP1 KECCAK256 SLOAD PUSH2 0xAA1 SWAP1 DUP4 PUSH2 0x1AB3 JUMP JUMPDEST PUSH1 0x1 PUSH1 0x1 PUSH1 0xA0 SHL SUB DUP6 AND PUSH1 0x0 SWAP1 DUP2 MSTORE PUSH2 0x101 PUSH1 0x20 SWAP1 DUP2 MSTORE PUSH1 0x40 DUP1 DUP4 KECCAK256 CALLER DUP5 MSTORE SWAP1 SWAP2 MSTORE SWAP1 KECCAK256 SSTORE PUSH2 0xAD1 DUP5 DUP5 DUP5 PUSH2 0x1B10 JUMP JUMPDEST DUP3 PUSH1 0x1 PUSH1 0x1 PUSH1 0xA0 SHL SUB AND DUP5 PUSH1 0x1 PUSH1 0x1 PUSH1 0xA0 SHL SUB AND PUSH1 0x0 DUP1 MLOAD PUSH1 0x20 PUSH2 0x2C2E DUP4 CODECOPY DUP2 MLOAD SWAP2 MSTORE DUP5 PUSH1 0x40 MLOAD DUP1 DUP3 DUP2 MSTORE PUSH1 0x20 ADD SWAP2 POP POP PUSH1 0x40 MLOAD DUP1 SWAP2 SUB SWAP1 LOG3 POP PUSH1 0x1 SWAP4 SWAP3 POP POP POP JUMP JUMPDEST PUSH1 0x38 SLOAD PUSH1 0xFF AND SWAP1 JUMP JUMPDEST PUSH1 0x0 PUSH2 0xB27 PUSH2 0x1C89 JUMP JUMPDEST SWAP1 POP SWAP1 JUMP JUMPDEST CALLER PUSH1 0x0 SWAP1 DUP2 MSTORE PUSH2 0x101 PUSH1 0x20 SWAP1 DUP2 MSTORE PUSH1 0x40 DUP1 DUP4 KECCAK256 PUSH1 0x1 PUSH1 0x1 PUSH1 0xA0 SHL SUB DUP7 AND DUP5 MSTORE SWAP1 SWAP2 MSTORE DUP2 KECCAK256 SLOAD PUSH2 0xB5B SWAP1 DUP4 PUSH2 0x1CC4 JUMP JUMPDEST CALLER PUSH1 0x0 DUP2 DUP2 MSTORE PUSH2 0x101 PUSH1 0x20 SWAP1 DUP2 MSTORE PUSH1 0x40 DUP1 DUP4 KECCAK256 PUSH1 0x1 PUSH1 0x1 PUSH1 0xA0 SHL SUB DUP10 AND DUP1 DUP6 MSTORE SWAP1 DUP4 MSTORE SWAP3 DUP2 SWAP1 KECCAK256 DUP6 SWAP1 SSTORE DUP1 MLOAD SWAP5 DUP6 MSTORE MLOAD SWAP2 SWAP4 PUSH1 0x0 DUP1 MLOAD PUSH1 0x20 PUSH2 0x2C4E DUP4 CODECOPY DUP2 MLOAD SWAP2 MSTORE SWAP3 SWAP1 DUP2 SWAP1 SUB SWAP1 SWAP2 ADD SWAP1 LOG3 POP PUSH1 0x1 SWAP3 SWAP2 POP POP JUMP JUMPDEST PUSH2 0x102 SLOAD PUSH1 0x1 PUSH1 0x1 PUSH1 0xA0 SHL SUB AND CALLER EQ PUSH2 0xC09 JUMPI PUSH1 0x40 DUP1 MLOAD PUSH3 0x461BCD PUSH1 0xE5 SHL DUP2 MSTORE PUSH1 0x20 PUSH1 0x4 DUP3 ADD MSTORE PUSH1 0x17 PUSH1 0x24 DUP3 ADD MSTORE PUSH23 0x10D85B1B195C881A5CC81B9BDD081D1A194815985D5B1D PUSH1 0x4A SHL PUSH1 0x44 DUP3 ADD MSTORE SWAP1 MLOAD SWAP1 DUP2 SWAP1 SUB PUSH1 0x64 ADD SWAP1 REVERT JUMPDEST PUSH1 0x0 PUSH1 0xFE SLOAD GT PUSH2 0xC60 JUMPI PUSH1 0x40 DUP1 MLOAD PUSH3 0x461BCD PUSH1 0xE5 SHL DUP2 MSTORE PUSH1 0x20 PUSH1 0x4 DUP3 ADD MSTORE PUSH1 0x18 PUSH1 0x24 DUP3 ADD MSTORE PUSH32 0x43616E6E6F7420696E637265617365203020737570706C790000000000000000 PUSH1 0x44 DUP3 ADD MSTORE SWAP1 MLOAD SWAP1 DUP2 SWAP1 SUB PUSH1 0x64 ADD SWAP1 REVERT JUMPDEST DUP1 PUSH1 0xFE SLOAD EQ ISZERO PUSH2 0xCB8 JUMPI PUSH1 0xFE SLOAD PUSH2 0x104 SLOAD PUSH2 0x105 SLOAD PUSH1 0x40 DUP1 MLOAD SWAP4 DUP5 MSTORE PUSH1 0x20 DUP5 ADD SWAP3 SWAP1 SWAP3 MSTORE DUP3 DUP3 ADD MSTORE MLOAD PUSH32 0x99E56F783B536FFACF422D59183EA321DD80DCD6D23DAA13023E8AFEA38C3DF1 SWAP2 DUP2 SWAP1 SUB PUSH1 0x60 ADD SWAP1 LOG1 PUSH2 0xDBE JUMP JUMPDEST PUSH1 0x1 PUSH1 0x1 PUSH1 0x80 SHL SUB DUP2 GT PUSH2 0xCCC JUMPI DUP1 PUSH2 0xCD5 JUMP JUMPDEST PUSH1 0x1 PUSH1 0x1 PUSH1 0x80 SHL SUB JUMPDEST PUSH1 0xFE DUP2 SWAP1 SSTORE PUSH2 0x106 SLOAD PUSH2 0xCF5 SWAP2 PUSH2 0xCEB SWAP2 PUSH2 0x1AB3 JUMP JUMPDEST PUSH2 0x104 SLOAD SWAP1 PUSH2 0x1D25 JUMP JUMPDEST PUSH2 0x105 DUP2 SWAP1 SSTORE PUSH2 0xD4C JUMPI PUSH1 0x40 DUP1 MLOAD PUSH3 0x461BCD PUSH1 0xE5 SHL DUP2 MSTORE PUSH1 0x20 PUSH1 0x4 DUP3 ADD MSTORE PUSH1 0x18 PUSH1 0x24 DUP3 ADD MSTORE PUSH32 0x496E76616C6964206368616E676520696E20737570706C790000000000000000 PUSH1 0x44 DUP3 ADD MSTORE SWAP1 MLOAD SWAP1 DUP2 SWAP1 SUB PUSH1 0x64 ADD SWAP1 REVERT JUMPDEST PUSH2 0xD72 PUSH2 0x106 SLOAD PUSH2 0xD6C PUSH2 0x105 SLOAD PUSH2 0x104 SLOAD PUSH2 0x1D25 SWAP1 SWAP2 SWAP1 PUSH4 0xFFFFFFFF AND JUMP JUMPDEST SWAP1 PUSH2 0x1CC4 JUMP JUMPDEST PUSH1 0xFE DUP2 SWAP1 SSTORE PUSH2 0x104 SLOAD PUSH2 0x105 SLOAD PUSH1 0x40 DUP1 MLOAD SWAP4 DUP5 MSTORE PUSH1 0x20 DUP5 ADD SWAP3 SWAP1 SWAP3 MSTORE DUP3 DUP3 ADD MSTORE MLOAD PUSH32 0x99E56F783B536FFACF422D59183EA321DD80DCD6D23DAA13023E8AFEA38C3DF1 SWAP2 DUP2 SWAP1 SUB PUSH1 0x60 ADD SWAP1 LOG1 JUMPDEST POP JUMP JUMPDEST PUSH2 0x102 SLOAD PUSH1 0x1 PUSH1 0x1 PUSH1 0xA0 SHL SUB AND CALLER EQ PUSH2 0xE1B JUMPI PUSH1 0x40 DUP1 MLOAD PUSH3 0x461BCD PUSH1 0xE5 SHL DUP2 MSTORE PUSH1 0x20 PUSH1 0x4 DUP3 ADD MSTORE PUSH1 0x17 PUSH1 0x24 DUP3 ADD MSTORE PUSH23 0x10D85B1B195C881A5CC81B9BDD081D1A194815985D5B1D PUSH1 0x4A SHL PUSH1 0x44 DUP3 ADD MSTORE SWAP1 MLOAD SWAP1 DUP2 SWAP1 SUB PUSH1 0x64 ADD SWAP1 REVERT JUMPDEST PUSH2 0xE25 DUP3 DUP3 PUSH2 0x1D4E JUMP JUMPDEST POP POP JUMP JUMPDEST PUSH2 0x102 SLOAD PUSH1 0x1 PUSH1 0x1 PUSH1 0xA0 SHL SUB AND DUP2 JUMP JUMPDEST PUSH2 0x108 PUSH1 0x20 MSTORE PUSH1 0x0 SWAP1 DUP2 MSTORE PUSH1 0x40 SWAP1 KECCAK256 SLOAD PUSH1 0xFF AND DUP2 JUMP JUMPDEST PUSH2 0x107 PUSH1 0x20 MSTORE PUSH1 0x0 SWAP1 DUP2 MSTORE PUSH1 0x40 SWAP1 KECCAK256 SLOAD DUP2 JUMP JUMPDEST PUSH2 0xE6A PUSH2 0x1EDB JUMP JUMPDEST PUSH1 0x1 PUSH1 0x1 PUSH1 0xA0 SHL SUB AND PUSH2 0xE7B PUSH2 0x1015 JUMP JUMPDEST PUSH1 0x1 PUSH1 0x1 PUSH1 0xA0 SHL SUB AND EQ PUSH2 0xEC4 JUMPI PUSH1 0x40 DUP1 MLOAD PUSH3 0x461BCD PUSH1 0xE5 SHL DUP2 MSTORE PUSH1 0x20 PUSH1 0x4 DUP3 ADD DUP2 SWAP1 MSTORE PUSH1 0x24 DUP3 ADD MSTORE PUSH1 0x0 DUP1 MLOAD PUSH1 0x20 PUSH2 0x2C0E DUP4 CODECOPY DUP2 MLOAD SWAP2 MSTORE PUSH1 0x44 DUP3 ADD MSTORE SWAP1 MLOAD SWAP1 DUP2 SWAP1 SUB PUSH1 0x64 ADD SWAP1 REVERT JUMPDEST PUSH2 0x102 DUP1 SLOAD PUSH1 0x1 PUSH1 0x1 PUSH1 0xA0 SHL SUB NOT AND PUSH1 0x1 PUSH1 0x1 PUSH1 0xA0 SHL SUB SWAP3 SWAP1 SWAP3 AND SWAP2 SWAP1 SWAP2 OR SWAP1 SSTORE JUMP JUMPDEST PUSH2 0x105 SLOAD DUP2 JUMP JUMPDEST PUSH1 0x1 PUSH1 0x1 PUSH1 0xA0 SHL SUB DUP2 AND PUSH1 0x0 SWAP1 DUP2 MSTORE PUSH2 0x103 PUSH1 0x20 MSTORE PUSH1 0x40 DUP2 KECCAK256 SLOAD PUSH2 0xF14 JUMPI POP PUSH1 0x0 PUSH2 0xF43 JUMP JUMPDEST PUSH2 0xF40 PUSH2 0xF20 DUP4 PUSH2 0x1EDF JUMP JUMPDEST PUSH1 0x1 PUSH1 0x1 PUSH1 0xA0 SHL SUB DUP5 AND PUSH1 0x0 SWAP1 DUP2 MSTORE PUSH2 0x103 PUSH1 0x20 MSTORE PUSH1 0x40 SWAP1 KECCAK256 SLOAD SWAP1 PUSH2 0x1D25 JUMP JUMPDEST SWAP1 POP JUMPDEST SWAP2 SWAP1 POP JUMP JUMPDEST PUSH2 0xF50 PUSH2 0x1EDB JUMP JUMPDEST PUSH1 0x1 PUSH1 0x1 PUSH1 0xA0 SHL SUB AND PUSH2 0xF61 PUSH2 0x1015 JUMP JUMPDEST PUSH1 0x1 PUSH1 0x1 PUSH1 0xA0 SHL SUB AND EQ PUSH2 0xFAA JUMPI PUSH1 0x40 DUP1 MLOAD PUSH3 0x461BCD PUSH1 0xE5 SHL DUP2 MSTORE PUSH1 0x20 PUSH1 0x4 DUP3 ADD DUP2 SWAP1 MSTORE PUSH1 0x24 DUP3 ADD MSTORE PUSH1 0x0 DUP1 MLOAD PUSH1 0x20 PUSH2 0x2C0E DUP4 CODECOPY DUP2 MLOAD SWAP2 MSTORE PUSH1 0x44 DUP3 ADD MSTORE SWAP1 MLOAD SWAP1 DUP2 SWAP1 SUB PUSH1 0x64 ADD SWAP1 REVERT JUMPDEST PUSH1 0xCC SLOAD PUSH1 0x40 MLOAD PUSH1 0x0 SWAP2 PUSH1 0x1 PUSH1 0x1 PUSH1 0xA0 SHL SUB AND SWAP1 PUSH32 0x8BE0079C531659141344CD1FD0A4F28419497F9722A3DAAFE3B4186F6B6457E0 SWAP1 DUP4 SWAP1 LOG3 PUSH1 0xCC DUP1 SLOAD PUSH1 0x1 PUSH1 0x1 PUSH1 0xA0 SHL SUB NOT AND SWAP1 SSTORE JUMP JUMPDEST PUSH1 0x1 PUSH1 0x1 PUSH1 0xA0 SHL SUB DUP2 AND PUSH1 0x0 SWAP1 DUP2 MSTORE PUSH1 0x99 PUSH1 0x20 MSTORE PUSH1 0x40 DUP2 KECCAK256 PUSH2 0xF40 SWAP1 PUSH2 0x1F28 JUMP JUMPDEST PUSH1 0xCC SLOAD PUSH1 0x1 PUSH1 0x1 PUSH1 0xA0 SHL SUB AND SWAP1 JUMP JUMPDEST PUSH1 0x37 DUP1 SLOAD PUSH1 0x40 DUP1 MLOAD PUSH1 0x20 PUSH1 0x1F PUSH1 0x2 PUSH1 0x0 NOT PUSH2 0x100 PUSH1 0x1 DUP9 AND ISZERO MUL ADD SWAP1 SWAP6 AND SWAP5 SWAP1 SWAP5 DIV SWAP4 DUP5 ADD DUP2 SWAP1 DIV DUP2 MUL DUP3 ADD DUP2 ADD SWAP1 SWAP3 MSTORE DUP3 DUP2 MSTORE PUSH1 0x60 SWAP4 SWAP1 SWAP3 SWAP1 SWAP2 DUP4 ADD DUP3 DUP3 DUP1 ISZERO PUSH2 0x7BC JUMPI DUP1 PUSH1 0x1F LT PUSH2 0x791 JUMPI PUSH2 0x100 DUP1 DUP4 SLOAD DIV MUL DUP4 MSTORE SWAP2 PUSH1 0x20 ADD SWAP2 PUSH2 0x7BC JUMP JUMPDEST PUSH2 0x100 SLOAD DUP2 JUMP JUMPDEST PUSH2 0x102 SLOAD PUSH1 0x1 PUSH1 0x1 PUSH1 0xA0 SHL SUB AND CALLER EQ PUSH2 0x10E6 JUMPI PUSH1 0x40 DUP1 MLOAD PUSH3 0x461BCD PUSH1 0xE5 SHL DUP2 MSTORE PUSH1 0x20 PUSH1 0x4 DUP3 ADD MSTORE PUSH1 0x17 PUSH1 0x24 DUP3 ADD MSTORE PUSH23 0x10D85B1B195C881A5CC81B9BDD081D1A194815985D5B1D PUSH1 0x4A SHL PUSH1 0x44 DUP3 ADD MSTORE SWAP1 MLOAD SWAP1 DUP2 SWAP1 SUB PUSH1 0x64 ADD SWAP1 REVERT JUMPDEST PUSH2 0xE25 DUP3 DUP3 PUSH2 0x1F2C JUMP JUMPDEST PUSH1 0xFF SLOAD DUP2 JUMP JUMPDEST CALLER PUSH1 0x0 SWAP1 DUP2 MSTORE PUSH2 0x101 PUSH1 0x20 SWAP1 DUP2 MSTORE PUSH1 0x40 DUP1 DUP4 KECCAK256 PUSH1 0x1 PUSH1 0x1 PUSH1 0xA0 SHL SUB DUP7 AND DUP5 MSTORE SWAP1 SWAP2 MSTORE DUP2 KECCAK256 SLOAD DUP1 DUP4 LT PUSH2 0x114C JUMPI CALLER PUSH1 0x0 SWAP1 DUP2 MSTORE PUSH2 0x101 PUSH1 0x20 SWAP1 DUP2 MSTORE PUSH1 0x40 DUP1 DUP4 KECCAK256 PUSH1 0x1 PUSH1 0x1 PUSH1 0xA0 SHL SUB DUP9 AND DUP5 MSTORE SWAP1 SWAP2 MSTORE DUP2 KECCAK256 SSTORE PUSH2 0x117C JUMP JUMPDEST PUSH2 0x1156 DUP2 DUP5 PUSH2 0x1AB3 JUMP JUMPDEST CALLER PUSH1 0x0 SWAP1 DUP2 MSTORE PUSH2 0x101 PUSH1 0x20 SWAP1 DUP2 MSTORE PUSH1 0x40 DUP1 DUP4 KECCAK256 PUSH1 0x1 PUSH1 0x1 PUSH1 0xA0 SHL SUB DUP10 AND DUP5 MSTORE SWAP1 SWAP2 MSTORE SWAP1 KECCAK256 SSTORE JUMPDEST CALLER PUSH1 0x0 DUP2 DUP2 MSTORE PUSH2 0x101 PUSH1 0x20 SWAP1 DUP2 MSTORE PUSH1 0x40 DUP1 DUP4 KECCAK256 PUSH1 0x1 PUSH1 0x1 PUSH1 0xA0 SHL SUB DUP10 AND DUP1 DUP6 MSTORE SWAP1 DUP4 MSTORE SWAP3 DUP2 SWAP1 KECCAK256 SLOAD DUP2 MLOAD SWAP1 DUP2 MSTORE SWAP1 MLOAD SWAP3 SWAP4 SWAP3 PUSH1 0x0 DUP1 MLOAD PUSH1 0x20 PUSH2 0x2C4E DUP4 CODECOPY DUP2 MLOAD SWAP2 MSTORE SWAP3 SWAP2 DUP2 SWAP1 SUB SWAP1 SWAP2 ADD SWAP1 LOG3 POP PUSH1 0x1 SWAP4 SWAP3 POP POP POP JUMP JUMPDEST PUSH1 0x0 PUSH1 0x1 PUSH1 0x1 PUSH1 0xA0 SHL SUB DUP4 AND PUSH2 0x1229 JUMPI PUSH1 0x40 DUP1 MLOAD PUSH3 0x461BCD PUSH1 0xE5 SHL DUP2 MSTORE PUSH1 0x20 PUSH1 0x4 DUP3 ADD MSTORE PUSH1 0x18 PUSH1 0x24 DUP3 ADD MSTORE PUSH24 0x5472616E7366657220746F207A65726F2061646472657373 PUSH1 0x40 SHL PUSH1 0x44 DUP3 ADD MSTORE SWAP1 MLOAD SWAP1 DUP2 SWAP1 SUB PUSH1 0x64 ADD SWAP1 REVERT JUMPDEST PUSH2 0x1232 CALLER PUSH2 0xEEE JUMP JUMPDEST DUP3 GT ISZERO PUSH2 0x1286 JUMPI PUSH1 0x40 DUP1 MLOAD PUSH3 0x461BCD PUSH1 0xE5 SHL DUP2 MSTORE PUSH1 0x20 PUSH1 0x4 DUP3 ADD MSTORE PUSH1 0x1D PUSH1 0x24 DUP3 ADD MSTORE PUSH32 0x5472616E736665722067726561746572207468616E2062616C616E6365000000 PUSH1 0x44 DUP3 ADD MSTORE SWAP1 MLOAD SWAP1 DUP2 SWAP1 SUB PUSH1 0x64 ADD SWAP1 REVERT JUMPDEST PUSH2 0x1291 CALLER DUP5 DUP5 PUSH2 0x1B10 JUMP JUMPDEST PUSH1 0x40 DUP1 MLOAD DUP4 DUP2 MSTORE SWAP1 MLOAD PUSH1 0x1 PUSH1 0x1 PUSH1 0xA0 SHL SUB DUP6 AND SWAP2 CALLER SWAP2 PUSH1 0x0 DUP1 MLOAD PUSH1 0x20 PUSH2 0x2C2E DUP4 CODECOPY DUP2 MLOAD SWAP2 MSTORE SWAP2 DUP2 SWAP1 SUB PUSH1 0x20 ADD SWAP1 LOG3 POP PUSH1 0x1 SWAP3 SWAP2 POP POP JUMP JUMPDEST PUSH2 0x12D0 PUSH2 0x1EDB JUMP JUMPDEST PUSH1 0x1 PUSH1 0x1 PUSH1 0xA0 SHL SUB AND PUSH2 0x12E1 PUSH2 0x1015 JUMP JUMPDEST PUSH1 0x1 PUSH1 0x1 PUSH1 0xA0 SHL SUB AND EQ PUSH2 0x132A JUMPI PUSH1 0x40 DUP1 MLOAD PUSH3 0x461BCD PUSH1 0xE5 SHL DUP2 MSTORE PUSH1 0x20 PUSH1 0x4 DUP3 ADD DUP2 SWAP1 MSTORE PUSH1 0x24 DUP3 ADD MSTORE PUSH1 0x0 DUP1 MLOAD PUSH1 0x20 PUSH2 0x2C0E DUP4 CODECOPY DUP2 MLOAD SWAP2 MSTORE PUSH1 0x44 DUP3 ADD MSTORE SWAP1 MLOAD SWAP1 DUP2 SWAP1 SUB PUSH1 0x64 ADD SWAP1 REVERT JUMPDEST PUSH2 0x1333 CALLER PUSH2 0x2116 JUMP JUMPDEST ISZERO PUSH2 0x1385 JUMPI PUSH1 0x40 DUP1 MLOAD PUSH3 0x461BCD PUSH1 0xE5 SHL DUP2 MSTORE PUSH1 0x20 PUSH1 0x4 DUP3 ADD MSTORE PUSH1 0x18 PUSH1 0x24 DUP3 ADD MSTORE PUSH32 0x4163636F756E7420686173206E6F74206F7074656420696E0000000000000000 PUSH1 0x44 DUP3 ADD MSTORE SWAP1 MLOAD SWAP1 DUP2 SWAP1 SUB PUSH1 0x64 ADD SWAP1 REVERT JUMPDEST PUSH2 0x139B PUSH2 0x1391 CALLER PUSH2 0xEEE JUMP JUMPDEST PUSH2 0x106 SLOAD SWAP1 PUSH2 0x1CC4 JUMP JUMPDEST PUSH2 0x106 SSTORE PUSH2 0x105 SLOAD CALLER PUSH1 0x0 SWAP1 DUP2 MSTORE PUSH2 0x107 PUSH1 0x20 SWAP1 DUP2 MSTORE PUSH1 0x40 DUP1 DUP4 KECCAK256 SWAP4 SWAP1 SWAP4 SSTORE PUSH2 0x103 SWAP1 MSTORE KECCAK256 SLOAD PUSH2 0x104 SLOAD PUSH2 0x13CE SWAP2 PUSH2 0x1AB3 JUMP JUMPDEST PUSH2 0x104 SSTORE CALLER PUSH1 0x0 SWAP1 DUP2 MSTORE PUSH2 0x108 PUSH1 0x20 MSTORE PUSH1 0x40 SWAP1 KECCAK256 DUP1 SLOAD PUSH1 0xFF NOT AND PUSH1 0x1 OR SWAP1 SSTORE JUMP JUMPDEST DUP4 TIMESTAMP GT ISZERO PUSH2 0x1444 JUMPI PUSH1 0x40 DUP1 MLOAD PUSH3 0x461BCD PUSH1 0xE5 SHL DUP2 MSTORE PUSH1 0x20 PUSH1 0x4 DUP3 ADD MSTORE PUSH1 0x1D PUSH1 0x24 DUP3 ADD MSTORE PUSH32 0x45524332305065726D69743A206578706972656420646561646C696E65000000 PUSH1 0x44 DUP3 ADD MSTORE SWAP1 MLOAD SWAP1 DUP2 SWAP1 SUB PUSH1 0x64 ADD SWAP1 REVERT JUMPDEST PUSH1 0x0 PUSH1 0x9A SLOAD DUP9 DUP9 DUP9 PUSH2 0x1479 PUSH1 0x99 PUSH1 0x0 DUP15 PUSH1 0x1 PUSH1 0x1 PUSH1 0xA0 SHL SUB AND PUSH1 0x1 PUSH1 0x1 PUSH1 0xA0 SHL SUB AND DUP2 MSTORE PUSH1 0x20 ADD SWAP1 DUP2 MSTORE PUSH1 0x20 ADD PUSH1 0x0 KECCAK256 PUSH2 0x1F28 JUMP JUMPDEST DUP10 PUSH1 0x40 MLOAD PUSH1 0x20 ADD DUP1 DUP8 DUP2 MSTORE PUSH1 0x20 ADD DUP7 PUSH1 0x1 PUSH1 0x1 PUSH1 0xA0 SHL SUB AND DUP2 MSTORE PUSH1 0x20 ADD DUP6 PUSH1 0x1 PUSH1 0x1 PUSH1 0xA0 SHL SUB AND DUP2 MSTORE PUSH1 0x20 ADD DUP5 DUP2 MSTORE PUSH1 0x20 ADD DUP4 DUP2 MSTORE PUSH1 0x20 ADD DUP3 DUP2 MSTORE PUSH1 0x20 ADD SWAP7 POP POP POP POP POP POP POP PUSH1 0x40 MLOAD PUSH1 0x20 DUP2 DUP4 SUB SUB DUP2 MSTORE SWAP1 PUSH1 0x40 MSTORE DUP1 MLOAD SWAP1 PUSH1 0x20 ADD KECCAK256 SWAP1 POP PUSH1 0x0 PUSH2 0x14E2 DUP3 PUSH2 0x2184 JUMP JUMPDEST SWAP1 POP PUSH1 0x0 PUSH2 0x14F2 DUP3 DUP8 DUP8 DUP8 PUSH2 0x21D0 JUMP JUMPDEST SWAP1 POP DUP10 PUSH1 0x1 PUSH1 0x1 PUSH1 0xA0 SHL SUB AND DUP2 PUSH1 0x1 PUSH1 0x1 PUSH1 0xA0 SHL SUB AND EQ PUSH2 0x155A JUMPI PUSH1 0x40 DUP1 MLOAD PUSH3 0x461BCD PUSH1 0xE5 SHL DUP2 MSTORE PUSH1 0x20 PUSH1 0x4 DUP3 ADD MSTORE PUSH1 0x1E PUSH1 0x24 DUP3 ADD MSTORE PUSH32 0x45524332305065726D69743A20696E76616C6964207369676E61747572650000 PUSH1 0x44 DUP3 ADD MSTORE SWAP1 MLOAD SWAP1 DUP2 SWAP1 SUB PUSH1 0x64 ADD SWAP1 REVERT JUMPDEST PUSH1 0x1 PUSH1 0x1 PUSH1 0xA0 SHL SUB DUP11 AND PUSH1 0x0 SWAP1 DUP2 MSTORE PUSH1 0x99 PUSH1 0x20 MSTORE PUSH1 0x40 SWAP1 KECCAK256 PUSH2 0x157B SWAP1 PUSH2 0x234E JUMP JUMPDEST PUSH2 0x1586 DUP11 DUP11 DUP11 PUSH2 0x2357 JUMP JUMPDEST POP POP POP POP POP POP POP POP POP POP JUMP JUMPDEST PUSH1 0x1 PUSH1 0x1 PUSH1 0xA0 SHL SUB SWAP2 DUP3 AND PUSH1 0x0 SWAP1 DUP2 MSTORE PUSH2 0x101 PUSH1 0x20 SWAP1 DUP2 MSTORE PUSH1 0x40 DUP1 DUP4 KECCAK256 SWAP4 SWAP1 SWAP5 AND DUP3 MSTORE SWAP2 SWAP1 SWAP2 MSTORE KECCAK256 SLOAD SWAP1 JUMP JUMPDEST PUSH2 0x106 SLOAD DUP2 JUMP JUMPDEST PUSH2 0x15CD PUSH2 0x1EDB JUMP JUMPDEST PUSH1 0x1 PUSH1 0x1 PUSH1 0xA0 SHL SUB AND PUSH2 0x15DE PUSH2 0x1015 JUMP JUMPDEST PUSH1 0x1 PUSH1 0x1 PUSH1 0xA0 SHL SUB AND EQ PUSH2 0x1627 JUMPI PUSH1 0x40 DUP1 MLOAD PUSH3 0x461BCD PUSH1 0xE5 SHL DUP2 MSTORE PUSH1 0x20 PUSH1 0x4 DUP3 ADD DUP2 SWAP1 MSTORE PUSH1 0x24 DUP3 ADD MSTORE PUSH1 0x0 DUP1 MLOAD PUSH1 0x20 PUSH2 0x2C0E DUP4 CODECOPY DUP2 MLOAD SWAP2 MSTORE PUSH1 0x44 DUP3 ADD MSTORE SWAP1 MLOAD SWAP1 DUP2 SWAP1 SUB PUSH1 0x64 ADD SWAP1 REVERT JUMPDEST PUSH1 0x1 PUSH1 0x1 PUSH1 0xA0 SHL SUB DUP2 AND PUSH2 0x166C JUMPI PUSH1 0x40 MLOAD PUSH3 0x461BCD PUSH1 0xE5 SHL DUP2 MSTORE PUSH1 0x4 ADD DUP1 DUP1 PUSH1 0x20 ADD DUP3 DUP2 SUB DUP3 MSTORE PUSH1 0x26 DUP2 MSTORE PUSH1 0x20 ADD DUP1 PUSH2 0x2B33 PUSH1 0x26 SWAP2 CODECOPY PUSH1 0x40 ADD SWAP2 POP POP PUSH1 0x40 MLOAD DUP1 SWAP2 SUB SWAP1 REVERT JUMPDEST PUSH1 0xCC SLOAD PUSH1 0x40 MLOAD PUSH1 0x1 PUSH1 0x1 PUSH1 0xA0 SHL SUB DUP1 DUP5 AND SWAP3 AND SWAP1 PUSH32 0x8BE0079C531659141344CD1FD0A4F28419497F9722A3DAAFE3B4186F6B6457E0 SWAP1 PUSH1 0x0 SWAP1 LOG3 PUSH1 0xCC DUP1 SLOAD PUSH1 0x1 PUSH1 0x1 PUSH1 0xA0 SHL SUB NOT AND PUSH1 0x1 PUSH1 0x1 PUSH1 0xA0 SHL SUB SWAP3 SWAP1 SWAP3 AND SWAP2 SWAP1 SWAP2 OR SWAP1 SSTORE JUMP JUMPDEST PUSH2 0x16D0 PUSH2 0x1EDB JUMP JUMPDEST PUSH1 0x1 PUSH1 0x1 PUSH1 0xA0 SHL SUB AND PUSH2 0x16E1 PUSH2 0x1015 JUMP JUMPDEST PUSH1 0x1 PUSH1 0x1 PUSH1 0xA0 SHL SUB AND EQ PUSH2 0x172A JUMPI PUSH1 0x40 DUP1 MLOAD PUSH3 0x461BCD PUSH1 0xE5 SHL DUP2 MSTORE PUSH1 0x20 PUSH1 0x4 DUP3 ADD DUP2 SWAP1 MSTORE PUSH1 0x24 DUP3 ADD MSTORE PUSH1 0x0 DUP1 MLOAD PUSH1 0x20 PUSH2 0x2C0E DUP4 CODECOPY DUP2 MLOAD SWAP2 MSTORE PUSH1 0x44 DUP3 ADD MSTORE SWAP1 MLOAD SWAP1 DUP2 SWAP1 SUB PUSH1 0x64 ADD SWAP1 REVERT JUMPDEST PUSH2 0x1733 CALLER PUSH2 0x2116 JUMP JUMPDEST PUSH2 0x1784 JUMPI PUSH1 0x40 DUP1 MLOAD PUSH3 0x461BCD PUSH1 0xE5 SHL DUP2 MSTORE PUSH1 0x20 PUSH1 0x4 DUP3 ADD MSTORE PUSH1 0x19 PUSH1 0x24 DUP3 ADD MSTORE PUSH32 0x4163636F756E7420686173206E6F74206F70746564206F757400000000000000 PUSH1 0x44 DUP3 ADD MSTORE SWAP1 MLOAD SWAP1 DUP2 SWAP1 SUB PUSH1 0x64 ADD SWAP1 REVERT JUMPDEST PUSH1 0x0 PUSH2 0x17B6 PUSH2 0x1792 CALLER PUSH2 0x1EDF JUMP JUMPDEST PUSH2 0x105 SLOAD CALLER PUSH1 0x0 SWAP1 DUP2 MSTORE PUSH2 0x103 PUSH1 0x20 MSTORE PUSH1 0x40 SWAP1 KECCAK256 SLOAD PUSH2 0x17B0 SWAP2 PUSH2 0x2431 JUMP JUMPDEST SWAP1 PUSH2 0x248A JUMP JUMPDEST SWAP1 POP PUSH2 0x17CE PUSH2 0x17C4 CALLER PUSH2 0xEEE JUMP JUMPDEST PUSH2 0x106 SLOAD SWAP1 PUSH2 0x1AB3 JUMP JUMPDEST PUSH2 0x106 SSTORE CALLER PUSH1 0x0 SWAP1 DUP2 MSTORE PUSH2 0x103 PUSH1 0x20 MSTORE PUSH1 0x40 SWAP1 KECCAK256 DUP2 SWAP1 SSTORE PUSH2 0x104 SLOAD PUSH2 0x17F3 SWAP1 DUP3 PUSH2 0x1CC4 JUMP JUMPDEST PUSH2 0x104 SSTORE POP CALLER PUSH1 0x0 SWAP1 DUP2 MSTORE PUSH2 0x108 PUSH1 0x20 SWAP1 DUP2 MSTORE PUSH1 0x40 DUP1 DUP4 KECCAK256 DUP1 SLOAD PUSH1 0xFF NOT AND PUSH1 0x2 OR SWAP1 SSTORE PUSH2 0x107 SWAP1 SWAP2 MSTORE DUP2 KECCAK256 SSTORE JUMP JUMPDEST PUSH1 0x1 PUSH1 0x1 PUSH1 0xA0 SHL SUB DUP2 AND PUSH1 0x0 SWAP1 DUP2 MSTORE PUSH2 0x103 PUSH1 0x20 MSTORE PUSH1 0x40 DUP2 KECCAK256 SLOAD DUP2 SWAP1 PUSH2 0x1846 DUP5 PUSH2 0x1EDF JUMP JUMPDEST SWAP2 POP SWAP2 POP SWAP2 POP SWAP2 JUMP JUMPDEST PUSH1 0x0 PUSH2 0x185A ADDRESS PUSH2 0x24F1 JUMP JUMPDEST ISZERO SWAP1 POP SWAP1 JUMP JUMPDEST PUSH1 0x0 SLOAD PUSH2 0x100 SWAP1 DIV PUSH1 0xFF AND DUP1 PUSH2 0x1879 JUMPI POP PUSH2 0x1879 PUSH2 0x184F JUMP JUMPDEST DUP1 PUSH2 0x1887 JUMPI POP PUSH1 0x0 SLOAD PUSH1 0xFF AND ISZERO JUMPDEST PUSH2 0x18C2 JUMPI PUSH1 0x40 MLOAD PUSH3 0x461BCD PUSH1 0xE5 SHL DUP2 MSTORE PUSH1 0x4 ADD DUP1 DUP1 PUSH1 0x20 ADD DUP3 DUP2 SUB DUP3 MSTORE PUSH1 0x2E DUP2 MSTORE PUSH1 0x20 ADD DUP1 PUSH2 0x2B9D PUSH1 0x2E SWAP2 CODECOPY PUSH1 0x40 ADD SWAP2 POP POP PUSH1 0x40 MLOAD DUP1 SWAP2 SUB SWAP1 REVERT JUMPDEST PUSH1 0x0 SLOAD PUSH2 0x100 SWAP1 DIV PUSH1 0xFF AND ISZERO DUP1 ISZERO PUSH2 0x18ED JUMPI PUSH1 0x0 DUP1 SLOAD PUSH1 0xFF NOT PUSH2 0xFF00 NOT SWAP1 SWAP2 AND PUSH2 0x100 OR AND PUSH1 0x1 OR SWAP1 SSTORE JUMPDEST PUSH2 0x18F5 PUSH2 0x24F7 JUMP JUMPDEST PUSH2 0x1918 DUP3 PUSH1 0x40 MLOAD DUP1 PUSH1 0x40 ADD PUSH1 0x40 MSTORE DUP1 PUSH1 0x1 DUP2 MSTORE PUSH1 0x20 ADD PUSH1 0x31 PUSH1 0xF8 SHL DUP2 MSTORE POP PUSH2 0x2597 JUMP JUMPDEST PUSH2 0x1921 DUP3 PUSH2 0x2657 JUMP JUMPDEST DUP1 ISZERO PUSH2 0xE25 JUMPI PUSH1 0x0 DUP1 SLOAD PUSH2 0xFF00 NOT AND SWAP1 SSTORE POP POP JUMP JUMPDEST PUSH1 0x0 SLOAD PUSH2 0x100 SWAP1 DIV PUSH1 0xFF AND DUP1 PUSH2 0x194F JUMPI POP PUSH2 0x194F PUSH2 0x184F JUMP JUMPDEST DUP1 PUSH2 0x195D JUMPI POP PUSH1 0x0 SLOAD PUSH1 0xFF AND ISZERO JUMPDEST PUSH2 0x1998 JUMPI PUSH1 0x40 MLOAD PUSH3 0x461BCD PUSH1 0xE5 SHL DUP2 MSTORE PUSH1 0x4 ADD DUP1 DUP1 PUSH1 0x20 ADD DUP3 DUP2 SUB DUP3 MSTORE PUSH1 0x2E DUP2 MSTORE PUSH1 0x20 ADD DUP1 PUSH2 0x2B9D PUSH1 0x2E SWAP2 CODECOPY PUSH1 0x40 ADD SWAP2 POP POP PUSH1 0x40 MLOAD DUP1 SWAP2 SUB SWAP1 REVERT JUMPDEST PUSH1 0x0 SLOAD PUSH2 0x100 SWAP1 DIV PUSH1 0xFF AND ISZERO DUP1 ISZERO PUSH2 0x19C3 JUMPI PUSH1 0x0 DUP1 SLOAD PUSH1 0xFF NOT PUSH2 0xFF00 NOT SWAP1 SWAP2 AND PUSH2 0x100 OR AND PUSH1 0x1 OR SWAP1 SSTORE JUMPDEST PUSH2 0x19CB PUSH2 0x24F7 JUMP JUMPDEST PUSH2 0x19D5 DUP4 DUP4 PUSH2 0x271D JUMP JUMPDEST DUP1 ISZERO PUSH2 0x19E7 JUMPI PUSH1 0x0 DUP1 SLOAD PUSH2 0xFF00 NOT AND SWAP1 SSTORE JUMPDEST POP POP POP JUMP JUMPDEST PUSH1 0x38 DUP1 SLOAD PUSH1 0xFF NOT AND PUSH1 0xFF SWAP3 SWAP1 SWAP3 AND SWAP2 SWAP1 SWAP2 OR SWAP1 SSTORE JUMP JUMPDEST PUSH1 0x0 SLOAD PUSH2 0x100 SWAP1 DIV PUSH1 0xFF AND DUP1 PUSH2 0x1A1B JUMPI POP PUSH2 0x1A1B PUSH2 0x184F JUMP JUMPDEST DUP1 PUSH2 0x1A29 JUMPI POP PUSH1 0x0 SLOAD PUSH1 0xFF AND ISZERO JUMPDEST PUSH2 0x1A64 JUMPI PUSH1 0x40 MLOAD PUSH3 0x461BCD PUSH1 0xE5 SHL DUP2 MSTORE PUSH1 0x4 ADD DUP1 DUP1 PUSH1 0x20 ADD DUP3 DUP2 SUB DUP3 MSTORE PUSH1 0x2E DUP2 MSTORE PUSH1 0x20 ADD DUP1 PUSH2 0x2B9D PUSH1 0x2E SWAP2 CODECOPY PUSH1 0x40 ADD SWAP2 POP POP PUSH1 0x40 MLOAD DUP1 SWAP2 SUB SWAP1 REVERT JUMPDEST PUSH1 0x0 SLOAD PUSH2 0x100 SWAP1 DIV PUSH1 0xFF AND ISZERO DUP1 ISZERO PUSH2 0x1A8F JUMPI PUSH1 0x0 DUP1 SLOAD PUSH1 0xFF NOT PUSH2 0xFF00 NOT SWAP1 SWAP2 AND PUSH2 0x100 OR AND PUSH1 0x1 OR SWAP1 SSTORE JUMPDEST PUSH2 0x1A97 PUSH2 0x24F7 JUMP JUMPDEST PUSH2 0x1A9F PUSH2 0x27F5 JUMP JUMPDEST DUP1 ISZERO PUSH2 0xDBE JUMPI PUSH1 0x0 DUP1 SLOAD PUSH2 0xFF00 NOT AND SWAP1 SSTORE POP JUMP JUMPDEST PUSH1 0x0 DUP3 DUP3 GT ISZERO PUSH2 0x1B0A JUMPI PUSH1 0x40 DUP1 MLOAD PUSH3 0x461BCD PUSH1 0xE5 SHL DUP2 MSTORE PUSH1 0x20 PUSH1 0x4 DUP3 ADD MSTORE PUSH1 0x1E PUSH1 0x24 DUP3 ADD MSTORE PUSH32 0x536166654D6174683A207375627472616374696F6E206F766572666C6F770000 PUSH1 0x44 DUP3 ADD MSTORE SWAP1 MLOAD SWAP1 DUP2 SWAP1 SUB PUSH1 0x64 ADD SWAP1 REVERT JUMPDEST POP SWAP1 SUB SWAP1 JUMP JUMPDEST PUSH1 0x0 PUSH2 0x1B1B DUP4 PUSH2 0x2116 JUMP JUMPDEST SWAP1 POP PUSH1 0x0 PUSH2 0x1B28 DUP6 PUSH2 0x2116 JUMP JUMPDEST SWAP1 POP PUSH1 0x0 PUSH2 0x1B3F PUSH2 0x1B38 DUP7 PUSH2 0x1EDF JUMP JUMPDEST DUP6 SWAP1 PUSH2 0x28EE JUMP JUMPDEST SWAP1 POP PUSH1 0x0 PUSH2 0x1B56 PUSH2 0x1B4F DUP9 PUSH2 0x1EDF JUMP JUMPDEST DUP7 SWAP1 PUSH2 0x28EE JUMP JUMPDEST SWAP1 POP PUSH2 0x1BC8 DUP2 PUSH1 0x40 MLOAD DUP1 PUSH1 0x40 ADD PUSH1 0x40 MSTORE DUP1 PUSH1 0x1F DUP2 MSTORE PUSH1 0x20 ADD PUSH32 0x5472616E7366657220616D6F756E7420657863656564732062616C616E636500 DUP2 MSTORE POP PUSH2 0x103 PUSH1 0x0 DUP12 PUSH1 0x1 PUSH1 0x1 PUSH1 0xA0 SHL SUB AND PUSH1 0x1 PUSH1 0x1 PUSH1 0xA0 SHL SUB AND DUP2 MSTORE PUSH1 0x20 ADD SWAP1 DUP2 MSTORE PUSH1 0x20 ADD PUSH1 0x0 KECCAK256 SLOAD PUSH2 0x2903 SWAP1 SWAP3 SWAP2 SWAP1 PUSH4 0xFFFFFFFF AND JUMP JUMPDEST PUSH1 0x1 PUSH1 0x1 PUSH1 0xA0 SHL SUB DUP1 DUP10 AND PUSH1 0x0 SWAP1 DUP2 MSTORE PUSH2 0x103 PUSH1 0x20 MSTORE PUSH1 0x40 DUP1 DUP3 KECCAK256 SWAP4 SWAP1 SWAP4 SSTORE SWAP1 DUP9 AND DUP2 MSTORE KECCAK256 SLOAD PUSH2 0x1BF8 SWAP1 DUP4 PUSH2 0x1CC4 JUMP JUMPDEST PUSH1 0x1 PUSH1 0x1 PUSH1 0xA0 SHL SUB DUP8 AND PUSH1 0x0 SWAP1 DUP2 MSTORE PUSH2 0x103 PUSH1 0x20 MSTORE PUSH1 0x40 SWAP1 KECCAK256 SSTORE DUP4 DUP1 ISZERO PUSH2 0x1C1D JUMPI POP DUP3 ISZERO JUMPDEST ISZERO PUSH2 0x1C4B JUMPI PUSH2 0x106 SLOAD PUSH2 0x1C30 SWAP1 DUP7 PUSH2 0x1CC4 JUMP JUMPDEST PUSH2 0x106 SSTORE PUSH2 0x104 SLOAD PUSH2 0x1C42 SWAP1 DUP3 PUSH2 0x1AB3 JUMP JUMPDEST PUSH2 0x104 SSTORE PUSH2 0x1C80 JUMP JUMPDEST DUP4 ISZERO DUP1 ISZERO PUSH2 0x1C56 JUMPI POP DUP3 JUMPDEST ISZERO PUSH2 0x1C80 JUMPI PUSH2 0x106 SLOAD PUSH2 0x1C69 SWAP1 DUP7 PUSH2 0x1AB3 JUMP JUMPDEST PUSH2 0x106 SSTORE PUSH2 0x104 SLOAD PUSH2 0x1C7B SWAP1 DUP4 PUSH2 0x1CC4 JUMP JUMPDEST PUSH2 0x104 SSTORE JUMPDEST POP POP POP POP POP POP POP JUMP JUMPDEST PUSH1 0x0 PUSH2 0xB27 PUSH32 0x8B73C3C69BB8FE3D512ECC4CF759CC79239F7B179B0FFACAA9A75D522B39400F PUSH2 0x1CB7 PUSH2 0x299A JUMP JUMPDEST PUSH2 0x1CBF PUSH2 0x29A0 JUMP JUMPDEST PUSH2 0x29A6 JUMP JUMPDEST PUSH1 0x0 DUP3 DUP3 ADD DUP4 DUP2 LT ISZERO PUSH2 0x1D1E JUMPI PUSH1 0x40 DUP1 MLOAD PUSH3 0x461BCD PUSH1 0xE5 SHL DUP2 MSTORE PUSH1 0x20 PUSH1 0x4 DUP3 ADD MSTORE PUSH1 0x1B PUSH1 0x24 DUP3 ADD MSTORE PUSH32 0x536166654D6174683A206164646974696F6E206F766572666C6F770000000000 PUSH1 0x44 DUP3 ADD MSTORE SWAP1 MLOAD SWAP1 DUP2 SWAP1 SUB PUSH1 0x64 ADD SWAP1 REVERT JUMPDEST SWAP4 SWAP3 POP POP POP JUMP JUMPDEST PUSH1 0x0 DUP1 PUSH2 0x1D3A DUP5 PUSH8 0xDE0B6B3A7640000 PUSH2 0x2431 JUMP JUMPDEST SWAP1 POP PUSH2 0x1D46 DUP2 DUP5 PUSH2 0x248A JUMP JUMPDEST SWAP5 SWAP4 POP POP POP POP JUMP JUMPDEST PUSH1 0x1 PUSH1 0x1 PUSH1 0xA0 SHL SUB DUP3 AND PUSH2 0x1DA9 JUMPI PUSH1 0x40 DUP1 MLOAD PUSH3 0x461BCD PUSH1 0xE5 SHL DUP2 MSTORE PUSH1 0x20 PUSH1 0x4 DUP3 ADD MSTORE PUSH1 0x18 PUSH1 0x24 DUP3 ADD MSTORE PUSH32 0x4D696E7420746F20746865207A65726F20616464726573730000000000000000 PUSH1 0x44 DUP3 ADD MSTORE SWAP1 MLOAD SWAP1 DUP2 SWAP1 SUB PUSH1 0x64 ADD SWAP1 REVERT JUMPDEST PUSH1 0x0 PUSH2 0x1DB4 DUP4 PUSH2 0x2116 JUMP JUMPDEST SWAP1 POP PUSH1 0x0 PUSH2 0x1DCB PUSH2 0x1DC4 DUP6 PUSH2 0x1EDF JUMP JUMPDEST DUP5 SWAP1 PUSH2 0x28EE JUMP JUMPDEST PUSH1 0x1 PUSH1 0x1 PUSH1 0xA0 SHL SUB DUP6 AND PUSH1 0x0 SWAP1 DUP2 MSTORE PUSH2 0x103 PUSH1 0x20 MSTORE PUSH1 0x40 SWAP1 KECCAK256 SLOAD SWAP1 SWAP2 POP PUSH2 0x1DF2 SWAP1 DUP3 PUSH2 0x1CC4 JUMP JUMPDEST PUSH1 0x1 PUSH1 0x1 PUSH1 0xA0 SHL SUB DUP6 AND PUSH1 0x0 SWAP1 DUP2 MSTORE PUSH2 0x103 PUSH1 0x20 MSTORE PUSH1 0x40 SWAP1 KECCAK256 SSTORE DUP2 ISZERO PUSH2 0x1E29 JUMPI PUSH2 0x106 SLOAD PUSH2 0x1E20 SWAP1 DUP5 PUSH2 0x1CC4 JUMP JUMPDEST PUSH2 0x106 SSTORE PUSH2 0x1E3C JUMP JUMPDEST PUSH2 0x104 SLOAD PUSH2 0x1E37 SWAP1 DUP3 PUSH2 0x1CC4 JUMP JUMPDEST PUSH2 0x104 SSTORE JUMPDEST PUSH1 0xFE SLOAD PUSH2 0x1E49 SWAP1 DUP5 PUSH2 0x1CC4 JUMP JUMPDEST PUSH1 0xFE SSTORE PUSH1 0xFF SLOAD PUSH2 0x1E59 SWAP1 DUP5 PUSH2 0x1CC4 JUMP JUMPDEST PUSH1 0xFF SSTORE PUSH1 0xFE SLOAD PUSH1 0x1 PUSH1 0x1 PUSH1 0x80 SHL SUB GT PUSH2 0x1EA6 JUMPI PUSH1 0x40 DUP1 MLOAD PUSH3 0x461BCD PUSH1 0xE5 SHL DUP2 MSTORE PUSH1 0x20 PUSH1 0x4 DUP3 ADD MSTORE PUSH1 0xA PUSH1 0x24 DUP3 ADD MSTORE PUSH10 0x4D617820737570706C79 PUSH1 0xB0 SHL PUSH1 0x44 DUP3 ADD MSTORE SWAP1 MLOAD SWAP1 DUP2 SWAP1 SUB PUSH1 0x64 ADD SWAP1 REVERT JUMPDEST PUSH1 0x40 DUP1 MLOAD DUP5 DUP2 MSTORE SWAP1 MLOAD PUSH1 0x1 PUSH1 0x1 PUSH1 0xA0 SHL SUB DUP7 AND SWAP2 PUSH1 0x0 SWAP2 PUSH1 0x0 DUP1 MLOAD PUSH1 0x20 PUSH2 0x2C2E DUP4 CODECOPY DUP2 MLOAD SWAP2 MSTORE SWAP2 DUP2 SWAP1 SUB PUSH1 0x20 ADD SWAP1 LOG3 POP POP POP POP JUMP JUMPDEST CALLER SWAP1 JUMP JUMPDEST PUSH1 0x1 PUSH1 0x1 PUSH1 0xA0 SHL SUB DUP2 AND PUSH1 0x0 SWAP1 DUP2 MSTORE PUSH2 0x107 PUSH1 0x20 MSTORE PUSH1 0x40 DUP2 KECCAK256 SLOAD ISZERO PUSH2 0x1F1E JUMPI POP PUSH1 0x1 PUSH1 0x1 PUSH1 0xA0 SHL SUB DUP2 AND PUSH1 0x0 SWAP1 DUP2 MSTORE PUSH2 0x107 PUSH1 0x20 MSTORE PUSH1 0x40 SWAP1 KECCAK256 SLOAD PUSH2 0xF43 JUMP JUMPDEST POP PUSH2 0x105 SLOAD PUSH2 0xF43 JUMP JUMPDEST SLOAD SWAP1 JUMP JUMPDEST PUSH1 0x1 PUSH1 0x1 PUSH1 0xA0 SHL SUB DUP3 AND PUSH2 0x1F87 JUMPI PUSH1 0x40 DUP1 MLOAD PUSH3 0x461BCD PUSH1 0xE5 SHL DUP2 MSTORE PUSH1 0x20 PUSH1 0x4 DUP3 ADD MSTORE PUSH1 0x1A PUSH1 0x24 DUP3 ADD MSTORE PUSH32 0x4275726E2066726F6D20746865207A65726F2061646472657373000000000000 PUSH1 0x44 DUP3 ADD MSTORE SWAP1 MLOAD SWAP1 DUP2 SWAP1 SUB PUSH1 0x64 ADD SWAP1 REVERT JUMPDEST DUP1 PUSH2 0x1F91 JUMPI PUSH2 0xE25 JUMP JUMPDEST PUSH1 0x0 PUSH2 0x1F9C DUP4 PUSH2 0x2116 JUMP JUMPDEST SWAP1 POP PUSH1 0x0 PUSH2 0x1FAC PUSH2 0x1DC4 DUP6 PUSH2 0x1EDF JUMP JUMPDEST PUSH1 0x1 PUSH1 0x1 PUSH1 0xA0 SHL SUB DUP6 AND PUSH1 0x0 SWAP1 DUP2 MSTORE PUSH2 0x103 PUSH1 0x20 MSTORE PUSH1 0x40 SWAP1 KECCAK256 SLOAD SWAP1 SWAP2 POP DUP1 DUP3 EQ DUP1 PUSH2 0x1FD9 JUMPI POP DUP2 PUSH1 0x1 DUP3 SUB EQ JUMPDEST ISZERO PUSH2 0x1FFD JUMPI PUSH1 0x1 PUSH1 0x1 PUSH1 0xA0 SHL SUB DUP6 AND PUSH1 0x0 SWAP1 DUP2 MSTORE PUSH2 0x103 PUSH1 0x20 MSTORE PUSH1 0x40 DUP2 KECCAK256 SSTORE PUSH2 0x208E JUMP JUMPDEST DUP2 DUP2 GT ISZERO PUSH2 0x2048 JUMPI PUSH1 0x1 PUSH1 0x1 PUSH1 0xA0 SHL SUB DUP6 AND PUSH1 0x0 SWAP1 DUP2 MSTORE PUSH2 0x103 PUSH1 0x20 MSTORE PUSH1 0x40 SWAP1 KECCAK256 SLOAD PUSH2 0x2029 SWAP1 DUP4 PUSH2 0x1AB3 JUMP JUMPDEST PUSH1 0x1 PUSH1 0x1 PUSH1 0xA0 SHL SUB DUP7 AND PUSH1 0x0 SWAP1 DUP2 MSTORE PUSH2 0x103 PUSH1 0x20 MSTORE PUSH1 0x40 SWAP1 KECCAK256 SSTORE PUSH2 0x208E JUMP JUMPDEST PUSH1 0x40 DUP1 MLOAD PUSH3 0x461BCD PUSH1 0xE5 SHL DUP2 MSTORE PUSH1 0x20 PUSH1 0x4 DUP3 ADD MSTORE PUSH1 0x16 PUSH1 0x24 DUP3 ADD MSTORE PUSH22 0x52656D6F766520657863656564732062616C616E6365 PUSH1 0x50 SHL PUSH1 0x44 DUP3 ADD MSTORE SWAP1 MLOAD SWAP1 DUP2 SWAP1 SUB PUSH1 0x64 ADD SWAP1 REVERT JUMPDEST DUP3 ISZERO PUSH2 0x20AB JUMPI PUSH2 0x106 SLOAD PUSH2 0x20A2 SWAP1 DUP6 PUSH2 0x1AB3 JUMP JUMPDEST PUSH2 0x106 SSTORE PUSH2 0x20BE JUMP JUMPDEST PUSH2 0x104 SLOAD PUSH2 0x20B9 SWAP1 DUP4 PUSH2 0x1AB3 JUMP JUMPDEST PUSH2 0x104 SSTORE JUMPDEST PUSH1 0xFE SLOAD PUSH2 0x20CB SWAP1 DUP6 PUSH2 0x1AB3 JUMP JUMPDEST PUSH1 0xFE SSTORE PUSH2 0x100 SLOAD PUSH2 0x20DC SWAP1 DUP6 PUSH2 0x1CC4 JUMP JUMPDEST PUSH2 0x100 SSTORE PUSH1 0x40 DUP1 MLOAD DUP6 DUP2 MSTORE SWAP1 MLOAD PUSH1 0x0 SWAP2 PUSH1 0x1 PUSH1 0x1 PUSH1 0xA0 SHL SUB DUP9 AND SWAP2 PUSH1 0x0 DUP1 MLOAD PUSH1 0x20 PUSH2 0x2C2E DUP4 CODECOPY DUP2 MLOAD SWAP2 MSTORE SWAP2 DUP2 SWAP1 SUB PUSH1 0x20 ADD SWAP1 LOG3 POP POP POP POP POP JUMP JUMPDEST PUSH1 0x0 DUP1 PUSH2 0x2122 DUP4 PUSH2 0x24F1 JUMP JUMPDEST SWAP1 POP DUP1 DUP1 ISZERO PUSH2 0x2156 JUMPI POP PUSH1 0x1 PUSH1 0x1 PUSH1 0xA0 SHL SUB DUP4 AND PUSH1 0x0 SWAP1 DUP2 MSTORE PUSH2 0x108 PUSH1 0x20 MSTORE PUSH1 0x40 DUP2 KECCAK256 SLOAD PUSH1 0xFF AND PUSH1 0x2 DUP2 GT ISZERO PUSH2 0x2154 JUMPI INVALID JUMPDEST EQ JUMPDEST ISZERO PUSH2 0x2164 JUMPI PUSH2 0x2164 DUP4 PUSH2 0x2A08 JUMP JUMPDEST POP POP PUSH1 0x1 PUSH1 0x1 PUSH1 0xA0 SHL SUB AND PUSH1 0x0 SWAP1 DUP2 MSTORE PUSH2 0x107 PUSH1 0x20 MSTORE PUSH1 0x40 SWAP1 KECCAK256 SLOAD ISZERO ISZERO SWAP1 JUMP JUMPDEST PUSH1 0x0 PUSH2 0x218E PUSH2 0x1C89 JUMP JUMPDEST DUP3 PUSH1 0x40 MLOAD PUSH1 0x20 ADD DUP1 DUP1 PUSH2 0x1901 PUSH1 0xF0 SHL DUP2 MSTORE POP PUSH1 0x2 ADD DUP4 DUP2 MSTORE PUSH1 0x20 ADD DUP3 DUP2 MSTORE PUSH1 0x20 ADD SWAP3 POP POP POP PUSH1 0x40 MLOAD PUSH1 0x20 DUP2 DUP4 SUB SUB DUP2 MSTORE SWAP1 PUSH1 0x40 MSTORE DUP1 MLOAD SWAP1 PUSH1 0x20 ADD KECCAK256 SWAP1 POP SWAP2 SWAP1 POP JUMP JUMPDEST PUSH1 0x0 PUSH32 0x7FFFFFFFFFFFFFFFFFFFFFFFFFFFFFFF5D576E7357A4501DDFE92F46681B20A0 DUP3 GT ISZERO PUSH2 0x2231 JUMPI PUSH1 0x40 MLOAD PUSH3 0x461BCD PUSH1 0xE5 SHL DUP2 MSTORE PUSH1 0x4 ADD DUP1 DUP1 PUSH1 0x20 ADD DUP3 DUP2 SUB DUP3 MSTORE PUSH1 0x22 DUP2 MSTORE PUSH1 0x20 ADD DUP1 PUSH2 0x2B7B PUSH1 0x22 SWAP2 CODECOPY PUSH1 0x40 ADD SWAP2 POP POP PUSH1 0x40 MLOAD DUP1 SWAP2 SUB SWAP1 REVERT JUMPDEST DUP4 PUSH1 0xFF AND PUSH1 0x1B EQ DUP1 PUSH2 0x2246 JUMPI POP DUP4 PUSH1 0xFF AND PUSH1 0x1C EQ JUMPDEST PUSH2 0x2281 JUMPI PUSH1 0x40 MLOAD PUSH3 0x461BCD PUSH1 0xE5 SHL DUP2 MSTORE PUSH1 0x4 ADD DUP1 DUP1 PUSH1 0x20 ADD DUP3 DUP2 SUB DUP3 MSTORE PUSH1 0x22 DUP2 MSTORE PUSH1 0x20 ADD DUP1 PUSH2 0x2BCB PUSH1 0x22 SWAP2 CODECOPY PUSH1 0x40 ADD SWAP2 POP POP PUSH1 0x40 MLOAD DUP1 SWAP2 SUB SWAP1 REVERT JUMPDEST PUSH1 0x0 PUSH1 0x1 DUP7 DUP7 DUP7 DUP7 PUSH1 0x40 MLOAD PUSH1 0x0 DUP2 MSTORE PUSH1 0x20 ADD PUSH1 0x40 MSTORE PUSH1 0x40 MLOAD DUP1 DUP6 DUP2 MSTORE PUSH1 0x20 ADD DUP5 PUSH1 0xFF AND DUP2 MSTORE PUSH1 0x20 ADD DUP4 DUP2 MSTORE PUSH1 0x20 ADD DUP3 DUP2 MSTORE PUSH1 0x20 ADD SWAP5 POP POP POP POP POP PUSH1 0x20 PUSH1 0x40 MLOAD PUSH1 0x20 DUP2 SUB SWAP1 DUP1 DUP5 SUB SWAP1 DUP6 GAS STATICCALL ISZERO DUP1 ISZERO PUSH2 0x22DD JUMPI RETURNDATASIZE PUSH1 0x0 DUP1 RETURNDATACOPY RETURNDATASIZE PUSH1 0x0 REVERT JUMPDEST POP POP PUSH1 0x40 MLOAD PUSH1 0x1F NOT ADD MLOAD SWAP2 POP POP PUSH1 0x1 PUSH1 0x1 PUSH1 0xA0 SHL SUB DUP2 AND PUSH2 0x2345 JUMPI PUSH1 0x40 DUP1 MLOAD PUSH3 0x461BCD PUSH1 0xE5 SHL DUP2 MSTORE PUSH1 0x20 PUSH1 0x4 DUP3 ADD MSTORE PUSH1 0x18 PUSH1 0x24 DUP3 ADD MSTORE PUSH32 0x45434453413A20696E76616C6964207369676E61747572650000000000000000 PUSH1 0x44 DUP3 ADD MSTORE SWAP1 MLOAD SWAP1 DUP2 SWAP1 SUB PUSH1 0x64 ADD SWAP1 REVERT JUMPDEST SWAP6 SWAP5 POP POP POP POP POP JUMP JUMPDEST DUP1 SLOAD PUSH1 0x1 ADD SWAP1 SSTORE JUMP JUMPDEST PUSH1 0x1 PUSH1 0x1 PUSH1 0xA0 SHL SUB DUP4 AND PUSH2 0x239C JUMPI PUSH1 0x40 MLOAD PUSH3 0x461BCD PUSH1 0xE5 SHL DUP2 MSTORE PUSH1 0x4 ADD DUP1 DUP1 PUSH1 0x20 ADD DUP3 DUP2 SUB DUP3 MSTORE PUSH1 0x24 DUP2 MSTORE PUSH1 0x20 ADD DUP1 PUSH2 0x2C6E PUSH1 0x24 SWAP2 CODECOPY PUSH1 0x40 ADD SWAP2 POP POP PUSH1 0x40 MLOAD DUP1 SWAP2 SUB SWAP1 REVERT JUMPDEST PUSH1 0x1 PUSH1 0x1 PUSH1 0xA0 SHL SUB DUP3 AND PUSH2 0x23E1 JUMPI PUSH1 0x40 MLOAD PUSH3 0x461BCD PUSH1 0xE5 SHL DUP2 MSTORE PUSH1 0x4 ADD DUP1 DUP1 PUSH1 0x20 ADD DUP3 DUP2 SUB DUP3 MSTORE PUSH1 0x22 DUP2 MSTORE PUSH1 0x20 ADD DUP1 PUSH2 0x2B59 PUSH1 0x22 SWAP2 CODECOPY PUSH1 0x40 ADD SWAP2 POP POP PUSH1 0x40 MLOAD DUP1 SWAP2 SUB SWAP1 REVERT JUMPDEST PUSH1 0x1 PUSH1 0x1 PUSH1 0xA0 SHL SUB DUP1 DUP5 AND PUSH1 0x0 DUP2 DUP2 MSTORE PUSH1 0x34 PUSH1 0x20 SWAP1 DUP2 MSTORE PUSH1 0x40 DUP1 DUP4 KECCAK256 SWAP5 DUP8 AND DUP1 DUP5 MSTORE SWAP5 DUP3 MSTORE SWAP2 DUP3 SWAP1 KECCAK256 DUP6 SWAP1 SSTORE DUP2 MLOAD DUP6 DUP2 MSTORE SWAP2 MLOAD PUSH1 0x0 DUP1 MLOAD PUSH1 0x20 PUSH2 0x2C4E DUP4 CODECOPY DUP2 MLOAD SWAP2 MSTORE SWAP3 DUP2 SWAP1 SUB SWAP1 SWAP2 ADD SWAP1 LOG3 POP POP POP JUMP JUMPDEST PUSH1 0x0 DUP3 PUSH2 0x2440 JUMPI POP PUSH1 0x0 PUSH2 0x9B1 JUMP JUMPDEST DUP3 DUP3 MUL DUP3 DUP5 DUP3 DUP2 PUSH2 0x244D JUMPI INVALID JUMPDEST DIV EQ PUSH2 0x1D1E JUMPI PUSH1 0x40 MLOAD PUSH3 0x461BCD PUSH1 0xE5 SHL DUP2 MSTORE PUSH1 0x4 ADD DUP1 DUP1 PUSH1 0x20 ADD DUP3 DUP2 SUB DUP3 MSTORE PUSH1 0x21 DUP2 MSTORE PUSH1 0x20 ADD DUP1 PUSH2 0x2BED PUSH1 0x21 SWAP2 CODECOPY PUSH1 0x40 ADD SWAP2 POP POP PUSH1 0x40 MLOAD DUP1 SWAP2 SUB SWAP1 REVERT JUMPDEST PUSH1 0x0 DUP1 DUP3 GT PUSH2 0x24E0 JUMPI PUSH1 0x40 DUP1 MLOAD PUSH3 0x461BCD PUSH1 0xE5 SHL DUP2 MSTORE PUSH1 0x20 PUSH1 0x4 DUP3 ADD MSTORE PUSH1 0x1A PUSH1 0x24 DUP3 ADD MSTORE PUSH32 0x536166654D6174683A206469766973696F6E206279207A65726F000000000000 PUSH1 0x44 DUP3 ADD MSTORE SWAP1 MLOAD SWAP1 DUP2 SWAP1 SUB PUSH1 0x64 ADD SWAP1 REVERT JUMPDEST DUP2 DUP4 DUP2 PUSH2 0x24E9 JUMPI INVALID JUMPDEST DIV SWAP4 SWAP3 POP POP POP JUMP JUMPDEST EXTCODESIZE ISZERO ISZERO SWAP1 JUMP JUMPDEST PUSH1 0x0 SLOAD PUSH2 0x100 SWAP1 DIV PUSH1 0xFF AND DUP1 PUSH2 0x2510 JUMPI POP PUSH2 0x2510 PUSH2 0x184F JUMP JUMPDEST DUP1 PUSH2 0x251E JUMPI POP PUSH1 0x0 SLOAD PUSH1 0xFF AND ISZERO JUMPDEST PUSH2 0x2559 JUMPI PUSH1 0x40 MLOAD PUSH3 0x461BCD PUSH1 0xE5 SHL DUP2 MSTORE PUSH1 0x4 ADD DUP1 DUP1 PUSH1 0x20 ADD DUP3 DUP2 SUB DUP3 MSTORE PUSH1 0x2E DUP2 MSTORE PUSH1 0x20 ADD DUP1 PUSH2 0x2B9D PUSH1 0x2E SWAP2 CODECOPY PUSH1 0x40 ADD SWAP2 POP POP PUSH1 0x40 MLOAD DUP1 SWAP2 SUB SWAP1 REVERT JUMPDEST PUSH1 0x0 SLOAD PUSH2 0x100 SWAP1 DIV PUSH1 0xFF AND ISZERO DUP1 ISZERO PUSH2 0x1A9F JUMPI PUSH1 0x0 DUP1 SLOAD PUSH1 0xFF NOT PUSH2 0xFF00 NOT SWAP1 SWAP2 AND PUSH2 0x100 OR AND PUSH1 0x1 OR SWAP1 SSTORE DUP1 ISZERO PUSH2 0xDBE JUMPI PUSH1 0x0 DUP1 SLOAD PUSH2 0xFF00 NOT AND SWAP1 SSTORE POP JUMP JUMPDEST PUSH1 0x0 SLOAD PUSH2 0x100 SWAP1 DIV PUSH1 0xFF AND DUP1 PUSH2 0x25B0 JUMPI POP PUSH2 0x25B0 PUSH2 0x184F JUMP JUMPDEST DUP1 PUSH2 0x25BE JUMPI POP PUSH1 0x0 SLOAD PUSH1 0xFF AND ISZERO JUMPDEST PUSH2 0x25F9 JUMPI PUSH1 0x40 MLOAD PUSH3 0x461BCD PUSH1 0xE5 SHL DUP2 MSTORE PUSH1 0x4 ADD DUP1 DUP1 PUSH1 0x20 ADD DUP3 DUP2 SUB DUP3 MSTORE PUSH1 0x2E DUP2 MSTORE PUSH1 0x20 ADD DUP1 PUSH2 0x2B9D PUSH1 0x2E SWAP2 CODECOPY PUSH1 0x40 ADD SWAP2 POP POP PUSH1 0x40 MLOAD DUP1 SWAP2 SUB SWAP1 REVERT JUMPDEST PUSH1 0x0 SLOAD PUSH2 0x100 SWAP1 DIV PUSH1 0xFF AND ISZERO DUP1 ISZERO PUSH2 0x2624 JUMPI PUSH1 0x0 DUP1 SLOAD PUSH1 0xFF NOT PUSH2 0xFF00 NOT SWAP1 SWAP2 AND PUSH2 0x100 OR AND PUSH1 0x1 OR SWAP1 SSTORE JUMPDEST DUP3 MLOAD PUSH1 0x20 DUP1 DUP6 ADD SWAP2 SWAP1 SWAP2 KECCAK256 DUP4 MLOAD SWAP2 DUP5 ADD SWAP2 SWAP1 SWAP2 KECCAK256 PUSH1 0x65 SWAP2 SWAP1 SWAP2 SSTORE PUSH1 0x66 SSTORE DUP1 ISZERO PUSH2 0x19E7 JUMPI PUSH1 0x0 DUP1 SLOAD PUSH2 0xFF00 NOT AND SWAP1 SSTORE POP POP POP JUMP JUMPDEST PUSH1 0x0 SLOAD PUSH2 0x100 SWAP1 DIV PUSH1 0xFF AND DUP1 PUSH2 0x2670 JUMPI POP PUSH2 0x2670 PUSH2 0x184F JUMP JUMPDEST DUP1 PUSH2 0x267E JUMPI POP PUSH1 0x0 SLOAD PUSH1 0xFF AND ISZERO JUMPDEST PUSH2 0x26B9 JUMPI PUSH1 0x40 MLOAD PUSH3 0x461BCD PUSH1 0xE5 SHL DUP2 MSTORE PUSH1 0x4 ADD DUP1 DUP1 PUSH1 0x20 ADD DUP3 DUP2 SUB DUP3 MSTORE PUSH1 0x2E DUP2 MSTORE PUSH1 0x20 ADD DUP1 PUSH2 0x2B9D PUSH1 0x2E SWAP2 CODECOPY PUSH1 0x40 ADD SWAP2 POP POP PUSH1 0x40 MLOAD DUP1 SWAP2 SUB SWAP1 REVERT JUMPDEST PUSH1 0x0 SLOAD PUSH2 0x100 SWAP1 DIV PUSH1 0xFF AND ISZERO DUP1 ISZERO PUSH2 0x26E4 JUMPI PUSH1 0x0 DUP1 SLOAD PUSH1 0xFF NOT PUSH2 0xFF00 NOT SWAP1 SWAP2 AND PUSH2 0x100 OR AND PUSH1 0x1 OR SWAP1 SSTORE JUMPDEST PUSH32 0x6E71EDAE12B1B97F4D1F60370FEF10105FA2FAAE0126114A169C64845D6126C9 PUSH1 0x9A SSTORE DUP1 ISZERO PUSH2 0xE25 JUMPI PUSH1 0x0 DUP1 SLOAD PUSH2 0xFF00 NOT AND SWAP1 SSTORE POP POP JUMP JUMPDEST PUSH1 0x0 SLOAD PUSH2 0x100 SWAP1 DIV PUSH1 0xFF AND DUP1 PUSH2 0x2736 JUMPI POP PUSH2 0x2736 PUSH2 0x184F JUMP JUMPDEST DUP1 PUSH2 0x2744 JUMPI POP PUSH1 0x0 SLOAD PUSH1 0xFF AND ISZERO JUMPDEST PUSH2 0x277F JUMPI PUSH1 0x40 MLOAD PUSH3 0x461BCD PUSH1 0xE5 SHL DUP2 MSTORE PUSH1 0x4 ADD DUP1 DUP1 PUSH1 0x20 ADD DUP3 DUP2 SUB DUP3 MSTORE PUSH1 0x2E DUP2 MSTORE PUSH1 0x20 ADD DUP1 PUSH2 0x2B9D PUSH1 0x2E SWAP2 CODECOPY PUSH1 0x40 ADD SWAP2 POP POP PUSH1 0x40 MLOAD DUP1 SWAP2 SUB SWAP1 REVERT JUMPDEST PUSH1 0x0 SLOAD PUSH2 0x100 SWAP1 DIV PUSH1 0xFF AND ISZERO DUP1 ISZERO PUSH2 0x27AA JUMPI PUSH1 0x0 DUP1 SLOAD PUSH1 0xFF NOT PUSH2 0xFF00 NOT SWAP1 SWAP2 AND PUSH2 0x100 OR AND PUSH1 0x1 OR SWAP1 SSTORE JUMPDEST DUP3 MLOAD PUSH2 0x27BD SWAP1 PUSH1 0x36 SWAP1 PUSH1 0x20 DUP7 ADD SWAP1 PUSH2 0x2A9F JUMP JUMPDEST POP DUP2 MLOAD PUSH2 0x27D1 SWAP1 PUSH1 0x37 SWAP1 PUSH1 0x20 DUP6 ADD SWAP1 PUSH2 0x2A9F JUMP JUMPDEST POP PUSH1 0x38 DUP1 SLOAD PUSH1 0xFF NOT AND PUSH1 0x12 OR SWAP1 SSTORE DUP1 ISZERO PUSH2 0x19E7 JUMPI PUSH1 0x0 DUP1 SLOAD PUSH2 0xFF00 NOT AND SWAP1 SSTORE POP POP POP JUMP JUMPDEST PUSH1 0x0 SLOAD PUSH2 0x100 SWAP1 DIV PUSH1 0xFF AND DUP1 PUSH2 0x280E JUMPI POP PUSH2 0x280E PUSH2 0x184F JUMP JUMPDEST DUP1 PUSH2 0x281C JUMPI POP PUSH1 0x0 SLOAD PUSH1 0xFF AND ISZERO JUMPDEST PUSH2 0x2857 JUMPI PUSH1 0x40 MLOAD PUSH3 0x461BCD PUSH1 0xE5 SHL DUP2 MSTORE PUSH1 0x4 ADD DUP1 DUP1 PUSH1 0x20 ADD DUP3 DUP2 SUB DUP3 MSTORE PUSH1 0x2E DUP2 MSTORE PUSH1 0x20 ADD DUP1 PUSH2 0x2B9D PUSH1 0x2E SWAP2 CODECOPY PUSH1 0x40 ADD SWAP2 POP POP PUSH1 0x40 MLOAD DUP1 SWAP2 SUB SWAP1 REVERT JUMPDEST PUSH1 0x0 SLOAD PUSH2 0x100 SWAP1 DIV PUSH1 0xFF AND ISZERO DUP1 ISZERO PUSH2 0x2882 JUMPI PUSH1 0x0 DUP1 SLOAD PUSH1 0xFF NOT PUSH2 0xFF00 NOT SWAP1 SWAP2 AND PUSH2 0x100 OR AND PUSH1 0x1 OR SWAP1 SSTORE JUMPDEST PUSH1 0x0 PUSH2 0x288C PUSH2 0x1EDB JUMP JUMPDEST PUSH1 0xCC DUP1 SLOAD PUSH1 0x1 PUSH1 0x1 PUSH1 0xA0 SHL SUB NOT AND PUSH1 0x1 PUSH1 0x1 PUSH1 0xA0 SHL SUB DUP4 AND SWAP1 DUP2 OR SWAP1 SWAP2 SSTORE PUSH1 0x40 MLOAD SWAP2 SWAP3 POP SWAP1 PUSH1 0x0 SWAP1 PUSH32 0x8BE0079C531659141344CD1FD0A4F28419497F9722A3DAAFE3B4186F6B6457E0 SWAP1 DUP3 SWAP1 LOG3 POP DUP1 ISZERO PUSH2 0xDBE JUMPI PUSH1 0x0 DUP1 SLOAD PUSH2 0xFF00 NOT AND SWAP1 SSTORE POP JUMP JUMPDEST PUSH1 0x0 PUSH2 0x1D1E DUP4 DUP4 PUSH8 0xDE0B6B3A7640000 PUSH2 0x2A82 JUMP JUMPDEST PUSH1 0x0 DUP2 DUP5 DUP5 GT ISZERO PUSH2 0x2992 JUMPI PUSH1 0x40 MLOAD PUSH3 0x461BCD PUSH1 0xE5 SHL DUP2 MSTORE PUSH1 0x4 ADD DUP1 DUP1 PUSH1 0x20 ADD DUP3 DUP2 SUB DUP3 MSTORE DUP4 DUP2 DUP2 MLOAD DUP2 MSTORE PUSH1 0x20 ADD SWAP2 POP DUP1 MLOAD SWAP1 PUSH1 0x20 ADD SWAP1 DUP1 DUP4 DUP4 PUSH1 0x0 JUMPDEST DUP4 DUP2 LT ISZERO PUSH2 0x2957 JUMPI DUP2 DUP2 ADD MLOAD DUP4 DUP3 ADD MSTORE PUSH1 0x20 ADD PUSH2 0x293F JUMP JUMPDEST POP POP POP POP SWAP1 POP SWAP1 DUP2 ADD SWAP1 PUSH1 0x1F AND DUP1 ISZERO PUSH2 0x2984 JUMPI DUP1 DUP3 SUB DUP1 MLOAD PUSH1 0x1 DUP4 PUSH1 0x20 SUB PUSH2 0x100 EXP SUB NOT AND DUP2 MSTORE PUSH1 0x20 ADD SWAP2 POP JUMPDEST POP SWAP3 POP POP POP PUSH1 0x40 MLOAD DUP1 SWAP2 SUB SWAP1 REVERT JUMPDEST POP POP POP SWAP1 SUB SWAP1 JUMP JUMPDEST PUSH1 0x65 SLOAD SWAP1 JUMP JUMPDEST PUSH1 0x66 SLOAD SWAP1 JUMP JUMPDEST PUSH1 0x0 DUP4 DUP4 DUP4 PUSH2 0x29B3 PUSH2 0x2A9B JUMP JUMPDEST ADDRESS PUSH1 0x40 MLOAD PUSH1 0x20 ADD DUP1 DUP7 DUP2 MSTORE PUSH1 0x20 ADD DUP6 DUP2 MSTORE PUSH1 0x20 ADD DUP5 DUP2 MSTORE PUSH1 0x20 ADD DUP4 DUP2 MSTORE PUSH1 0x20 ADD DUP3 PUSH1 0x1 PUSH1 0x1 PUSH1 0xA0 SHL SUB AND DUP2 MSTORE PUSH1 0x20 ADD SWAP6 POP POP POP POP POP POP PUSH1 0x40 MLOAD PUSH1 0x20 DUP2 DUP4 SUB SUB DUP2 MSTORE SWAP1 PUSH1 0x40 MSTORE DUP1 MLOAD SWAP1 PUSH1 0x20 ADD KECCAK256 SWAP1 POP SWAP4 SWAP3 POP POP POP JUMP JUMPDEST PUSH1 0x1 PUSH1 0x1 PUSH1 0xA0 SHL SUB DUP2 AND PUSH1 0x0 SWAP1 DUP2 MSTORE PUSH2 0x107 PUSH1 0x20 MSTORE PUSH1 0x40 SWAP1 KECCAK256 SLOAD PUSH2 0xDBE JUMPI PUSH2 0x105 SLOAD PUSH1 0x1 PUSH1 0x1 PUSH1 0xA0 SHL SUB DUP3 AND PUSH1 0x0 SWAP1 DUP2 MSTORE PUSH2 0x107 PUSH1 0x20 MSTORE PUSH1 0x40 SWAP1 KECCAK256 SSTORE PUSH2 0x2A50 PUSH2 0x1391 DUP3 PUSH2 0xEEE JUMP JUMPDEST PUSH2 0x106 SSTORE PUSH1 0x1 PUSH1 0x1 PUSH1 0xA0 SHL SUB DUP2 AND PUSH1 0x0 SWAP1 DUP2 MSTORE PUSH2 0x103 PUSH1 0x20 MSTORE PUSH1 0x40 SWAP1 KECCAK256 SLOAD PUSH2 0x104 SLOAD PUSH2 0x2A7B SWAP2 PUSH2 0x1AB3 JUMP JUMPDEST PUSH2 0x104 SSTORE POP JUMP JUMPDEST PUSH1 0x0 DUP1 PUSH2 0x2A8F DUP6 DUP6 PUSH2 0x2431 JUMP JUMPDEST SWAP1 POP PUSH2 0x2345 DUP2 DUP5 PUSH2 0x248A JUMP JUMPDEST CHAINID SWAP1 JUMP JUMPDEST DUP3 DUP1 SLOAD PUSH1 0x1 DUP2 PUSH1 0x1 AND ISZERO PUSH2 0x100 MUL SUB AND PUSH1 0x2 SWAP1 DIV SWAP1 PUSH1 0x0 MSTORE PUSH1 0x20 PUSH1 0x0 KECCAK256 SWAP1 PUSH1 0x1F ADD PUSH1 0x20 SWAP1 DIV DUP2 ADD SWAP3 DUP3 PUSH1 0x1F LT PUSH2 0x2AE0 JUMPI DUP1 MLOAD PUSH1 0xFF NOT AND DUP4 DUP1 ADD OR DUP6 SSTORE PUSH2 0x2B0D JUMP JUMPDEST DUP3 DUP1 ADD PUSH1 0x1 ADD DUP6 SSTORE DUP3 ISZERO PUSH2 0x2B0D JUMPI SWAP2 DUP3 ADD JUMPDEST DUP3 DUP2 GT ISZERO PUSH2 0x2B0D JUMPI DUP3 MLOAD DUP3 SSTORE SWAP2 PUSH1 0x20 ADD SWAP2 SWAP1 PUSH1 0x1 ADD SWAP1 PUSH2 0x2AF2 JUMP JUMPDEST POP PUSH2 0x2B19 SWAP3 SWAP2 POP PUSH2 0x2B1D JUMP JUMPDEST POP SWAP1 JUMP JUMPDEST JUMPDEST DUP1 DUP3 GT ISZERO PUSH2 0x2B19 JUMPI PUSH1 0x0 DUP2 SSTORE PUSH1 0x1 ADD PUSH2 0x2B1E JUMP INVALID 0x4F PUSH24 0x6E61626C653A206E6577206F776E65722069732074686520 PUSH27 0x65726F206164647265737345524332303A20617070726F76652074 PUSH16 0x20746865207A65726F20616464726573 PUSH20 0x45434453413A20696E76616C6964207369676E61 PUSH21 0x757265202773272076616C7565496E697469616C69 PUSH27 0x61626C653A20636F6E747261637420697320616C72656164792069 PUSH15 0x697469616C697A656445434453413A KECCAK256 PUSH10 0x6E76616C696420736967 PUSH15 0x6174757265202776272076616C7565 MSTORE8 PUSH2 0x6665 0x4D PUSH2 0x7468 GASPRICE KECCAK256 PUSH14 0x756C7469706C69636174696F6E20 PUSH16 0x766572666C6F774F776E61626C653A20 PUSH4 0x616C6C65 PUSH19 0x206973206E6F7420746865206F776E6572DDF2 MSTORE 0xAD SHL 0xE2 0xC8 SWAP12 PUSH10 0xC2B068FC378DAA952BA7 CALL PUSH4 0xC4A11628 CREATE2 GAS 0x4D CREATE2 0x23 0xB3 0xEF DUP13 JUMPDEST 0xE1 0xE5 0xEB 0xEC PUSH30 0x5BD14F71427D1E84F3DD0314C0F7B2291E5B200AC8C7C3B9254552433230 GASPRICE KECCAK256 PUSH2 0x7070 PUSH19 0x6F76652066726F6D20746865207A65726F2061 PUSH5 0x6472657373 LOG2 PUSH5 0x6970667358 0x22 SLT KECCAK256 0xC1 DUP4 0xD2 0xDA ADD 0xE0 0x4E SWAP10 DUP12 0x22 0xE1 PUSH13 0xE21E7A9BB845B9A921BC4E1951 0xDC AND PUSH29 0xD234C7B864736F6C634300060C00330000000000000000000000000000 ",
  "sha1": "e50d163d50aec932d137d7b5d5dc06e67b2a48a1",
  "source": "// SPDX-License-Identifier: MIT\npragma solidity ^0.6.12;\n\n/**\n * @title USDs Token Contract\n * @dev ERC20 compatible contract for USDs\n * @dev Implements an elastic supply\n * @author Sperax Inc\n */\n\nimport \"@openzeppelin/contracts-upgradeable/math/SafeMathUpgradeable.sol\";\nimport \"@openzeppelin/contracts-upgradeable/utils/AddressUpgradeable.sol\";\nimport \"@openzeppelin/contracts-upgradeable/access/OwnableUpgradeable.sol\";\nimport \"@openzeppelin/contracts-upgradeable/drafts/ERC20PermitUpgradeable.sol\";\nimport { StableMath } from \"../libraries/StableMath.sol\";\nimport \"../interfaces/IUSDs.sol\";\n\n/**\n * NOTE that this is an ERC20 token but the invariant that the sum of\n * balanceOf(x) for all x is not >= totalSupply(). This is a consequence of the\n * rebasing design. Any integrations with USDs should be aware.\n */\n\ncontract USDs is ERC20PermitUpgradeable, OwnableUpgradeable, IUSDs {\n    using SafeMathUpgradeable for uint256;\n    using StableMath for uint256;\n\n    event TotalSupplyUpdated(\n        uint256 totalSupply,\n        uint256 rebasingCredits,\n        uint256 rebasingCreditsPerToken\n    );\n\n    enum RebaseOptions { NotSet, OptOut, OptIn }\n\n    uint256 private constant MAX_SUPPLY = ~uint128(0); // (2^128) - 1\n    uint256 internal _totalSupply;    // the total supply of USDs\n    uint256 public override totalMinted;    // the total num of USDs minted so far\n    uint256 public override totalBurnt;     // the total num of USDs burnt so far\n    mapping(address => mapping(address => uint256)) private _allowances;\n    address public vaultAddress;    // the address where (i) all collaterals of USDs protocol reside, e.g. USDT, USDC, ETH, etc and (ii) major actions like USDs minting are initiated\n    // an user's balance of USDs is based on her balance of \"credits.\"\n    // in a rebase process, her USDs balance will change according to her credit balance and the rebase ratio\n    mapping(address => uint256) private _creditBalances;\n    // the total number of credits of the USDs protocol\n    uint256 public rebasingCredits;\n    // the rebase ratio = num of credits / num of USDs\n    uint256 public rebasingCreditsPerToken;\n    // Frozen address/credits are non rebasing (value is held in contracts which\n    // do not receive yield unless they explicitly opt in)\n    uint256 public nonRebasingSupply;   // num of USDs that are not affected by rebase\n    mapping(address => uint256) public nonRebasingCreditsPerToken; // the rebase ratio of non-rebasing accounts just before they opt out\n    mapping(address => RebaseOptions) public rebaseState;          // the rebase state of each account, i.e. opt in or opt out\n\n    function initialize(\n        string calldata _nameArg,\n        string calldata _symbolArg,\n        address _vaultAddress\n    ) external initializer {\n        __ERC20Permit_init(_nameArg);\n        __ERC20_init(_nameArg, _symbolArg);\n        _setupDecimals(18);\n        OwnableUpgradeable.__Ownable_init();\n        rebasingCreditsPerToken = 1e18;\n        vaultAddress = _vaultAddress;\n    }\n\n    /**\n     * @dev change the vault address\n     * @param newVault the new vault address\n     */\n    function changeVault(address newVault) external onlyOwner {\n        vaultAddress = newVault;\n    }\n\n    /**\n     * @dev Verifies that the caller is the Savings Manager contract\n     */\n    modifier onlyVault() {\n        require(vaultAddress == msg.sender, \"Caller is not the Vault\");\n        _;\n    }\n\n    /**\n     * @dev check the current total supply of USDs\n     * @return The total supply of USDs.\n     */\n    function totalSupply() public view override returns (uint256) {\n        return _totalSupply;\n    }\n\n    /**\n     * @dev Gets the USDs balance of the specified address.\n     * @param _account Address to query the balance of.\n     * @return A uint256 representing the _amount of base units owned by the\n     *         specified address.\n     */\n    function balanceOf(address _account) public view override returns (uint256) {\n        if (_creditBalances[_account] == 0) return 0;\n        return\n            _creditBalances[_account].divPrecisely(_creditsPerToken(_account));\n    }\n\n    /**\n     * @dev Gets the credits balance of the specified address.\n     * @param _account The address to query the balance of.\n     * @return (uint256, uint256) Credit balance and credits per token of the\n     *         address\n     */\n    function creditsBalanceOf(address _account)\n        public\n        view\n        returns (uint256, uint256)\n    {\n        return (_creditBalances[_account], _creditsPerToken(_account));\n    }\n\n    /**\n     * @dev Transfer tokens to a specified address.\n     * @param _to the address to transfer to.\n     * @param _value the _amount to be transferred.\n     * @return true on success.\n     */\n    function transfer(address _to, uint256 _value) public override returns (bool) {\n        require(_to != address(0), \"Transfer to zero address\");\n        require(\n            _value <= balanceOf(msg.sender),\n            \"Transfer greater than balance\"\n        );\n\n        _executeTransfer(msg.sender, _to, _value);\n\n        emit Transfer(msg.sender, _to, _value);\n\n        return true;\n    }\n\n    /**\n     * @dev Transfer tokens from one address to another.\n     * @param _from The address you want to send tokens from.\n     * @param _to The address you want to transfer to.\n     * @param _value The _amount of tokens to be transferred.\n     */\n    function transferFrom(\n        address _from,\n        address _to,\n        uint256 _value\n    ) public override returns (bool) {\n        require(_to != address(0), \"Transfer to zero address\");\n        require(_value <= balanceOf(_from), \"Transfer greater than balance\");\n\n        // notice: allowance balnce check depends on \"sub\" non-negative check\n        _allowances[_from][msg.sender] = _allowances[_from][msg.sender].sub(\n            _value\n        );\n\n        _executeTransfer(_from, _to, _value);\n\n        emit Transfer(_from, _to, _value);\n\n        return true;\n    }\n\n    /**\n     * @dev Update the count of non rebasing credits in response to a transfer\n     * @param _from The address you want to send tokens from.\n     * @param _to The address you want to transfer to.\n     * @param _value Amount of USDs to transfer\n     */\n    function _executeTransfer(\n        address _from,\n        address _to,\n        uint256 _value\n    ) internal {\n        bool isNonRebasingTo = _isNonRebasingAccount(_to);\n        bool isNonRebasingFrom = _isNonRebasingAccount(_from);\n\n        // Credits deducted and credited might be different due to the\n        // differing creditsPerToken used by each account\n        uint256 creditsCredited = _value.mulTruncate(_creditsPerToken(_to));\n        uint256 creditsDeducted = _value.mulTruncate(_creditsPerToken(_from));\n\n        _creditBalances[_from] = _creditBalances[_from].sub(\n            creditsDeducted,\n            \"Transfer amount exceeds balance\"\n        );\n        _creditBalances[_to] = _creditBalances[_to].add(creditsCredited);\n\n        // update global stats\n        if (isNonRebasingTo && !isNonRebasingFrom) {\n            // Transfer to non-rebasing account from rebasing account, credits\n            // are removed from the non rebasing tally\n            nonRebasingSupply = nonRebasingSupply.add(_value);\n            // Update rebasingCredits by subtracting the deducted amount\n            rebasingCredits = rebasingCredits.sub(creditsDeducted);\n        } else if (!isNonRebasingTo && isNonRebasingFrom) {\n            // Transfer to rebasing account from non-rebasing account\n            // Decreasing non-rebasing credits by the amount that was sent\n            nonRebasingSupply = nonRebasingSupply.sub(_value);\n            // Update rebasingCredits by adding the credited amount\n            rebasingCredits = rebasingCredits.add(creditsCredited);\n        }\n    }\n\n    /**\n     * @dev Function to check the _amount of tokens that an owner has allowed to a _spender.\n     * @param _owner The address which owns the funds.\n     * @param _spender The address which will spend the funds.\n     * @return The number of tokens still available for the _spender.\n     */\n    function allowance(address _owner, address _spender)\n        public\n        view\n        override returns (uint256)\n    {\n        return _allowances[_owner][_spender];\n    }\n\n    /**\n     * @dev Approve the passed address to spend the specified _amount of tokens on behalf of\n     * msg.sender. This method is included for ERC20 compatibility.\n     * increaseAllowance and decreaseAllowance should be used instead.\n     * Changing an allowance with this method brings the risk that someone may transfer both\n     * the old and the new allowance - if they are both greater than zero - if a transfer\n     * transaction is mined before the later approve() call is mined.\n     *\n     * @param _spender The address which will spend the funds.\n     * @param _value The _amount of tokens to be spent.\n     */\n    function approve(address _spender, uint256 _value) public override returns (bool) {\n        _allowances[msg.sender][_spender] = _value;\n        emit Approval(msg.sender, _spender, _value);\n        return true;\n    }\n\n    /**\n     * @dev Increase the _amount of tokens that an owner has allowed to a _spender.\n     * This method should be used instead of approve() to avoid the double approval vulnerability\n     * described above.\n     * @param _spender The address which will spend the funds.\n     * @param _addedValue The _amount of tokens to increase the allowance by.\n     */\n    function increaseAllowance(address _spender, uint256 _addedValue)\n        public\n        override\n        returns (bool)\n    {\n        _allowances[msg.sender][_spender] = _allowances[msg.sender][_spender]\n            .add(_addedValue);\n        emit Approval(msg.sender, _spender, _allowances[msg.sender][_spender]);\n        return true;\n    }\n\n    /**\n     * @dev Decrease the _amount of tokens that an owner has allowed to a _spender.\n     * @param _spender The address which will spend the funds.\n     * @param _subtractedValue The _amount of tokens to decrease the allowance by.\n     */\n    function decreaseAllowance(address _spender, uint256 _subtractedValue)\n        public\n        override\n        returns (bool)\n    {\n        uint256 oldValue = _allowances[msg.sender][_spender];\n        if (_subtractedValue >= oldValue) {\n            _allowances[msg.sender][_spender] = 0;\n        } else {\n            _allowances[msg.sender][_spender] = oldValue.sub(_subtractedValue);\n        }\n        emit Approval(msg.sender, _spender, _allowances[msg.sender][_spender]);\n        return true;\n    }\n\n    /**\n     * @dev Mints new USDs tokens, increasing totalSupply.\n     * @param _account the account address the newly minted USDs will be attributed to\n     * @param _amount the amount of USDs that will be minted\n     */\n    function mint(address _account, uint256 _amount) external override onlyVault {\n        _mint(_account, _amount);\n    }\n\n    /**\n     * @dev Creates `_amount` tokens and assigns them to `_account`, increasing\n     * the total supply.\n     *\n     * Emits a {Transfer} event with `from` set to the zero address.\n     *\n     * Requirements\n     *\n     * - `to` cannot be the zero address.\n     * @param _account the account address the newly minted USDs will be attributed to\n     * @param _amount the amount of USDs that will be minted\n     */\n    function _mint(address _account, uint256 _amount) internal override {\n        require(_account != address(0), \"Mint to the zero address\");\n\n        bool isNonRebasingAccount = _isNonRebasingAccount(_account);\n\n        uint256 creditAmount = _amount.mulTruncate(_creditsPerToken(_account));\n        _creditBalances[_account] = _creditBalances[_account].add(creditAmount);\n\n        // notice: If the account is non rebasing and doesn't have a set creditsPerToken\n        //          then set it i.e. this is a mint from a fresh contract\n\n        // update global stats\n        if (isNonRebasingAccount) {\n            nonRebasingSupply = nonRebasingSupply.add(_amount);\n        } else {\n            rebasingCredits = rebasingCredits.add(creditAmount);\n        }\n\n        _totalSupply = _totalSupply.add(_amount);\n        totalMinted = totalMinted.add(_amount);\n\n        require(_totalSupply < MAX_SUPPLY, \"Max supply\");\n\n        emit Transfer(address(0), _account, _amount);\n    }\n\n    /**\n     * @dev Burns tokens, decreasing totalSupply.\n     */\n    function burn(address account, uint256 amount) external override onlyVault {\n        _burn(account, amount);\n    }\n\n    /**\n     * @dev Destroys `_amount` tokens from `_account`, reducing the\n     * total supply.\n     *\n     * Emits a {Transfer} event with `to` set to the zero address.\n     *\n     * Requirements\n     *\n     * - `_account` cannot be the zero address.\n     * - `_account` must have at least `_amount` tokens.\n     */\n    function _burn(address _account, uint256 _amount) internal override {\n        require(_account != address(0), \"Burn from the zero address\");\n        if (_amount == 0) {\n            return;\n        }\n\n        bool isNonRebasingAccount = _isNonRebasingAccount(_account);\n        uint256 creditAmount = _amount.mulTruncate(_creditsPerToken(_account));\n        uint256 currentCredits = _creditBalances[_account];\n\n        // Remove the credits, burning rounding errors\n        if (\n            currentCredits == creditAmount || currentCredits - 1 == creditAmount\n        ) {\n            // Handle dust from rounding\n            _creditBalances[_account] = 0;\n        } else if (currentCredits > creditAmount) {\n            _creditBalances[_account] = _creditBalances[_account].sub(\n                creditAmount\n            );\n        } else {\n            revert(\"Remove exceeds balance\");\n        }\n\n        // Remove from the credit tallies and non-rebasing supply\n        if (isNonRebasingAccount) {\n            nonRebasingSupply = nonRebasingSupply.sub(_amount);\n        } else {\n            rebasingCredits = rebasingCredits.sub(creditAmount);\n        }\n\n        _totalSupply = _totalSupply.sub(_amount);\n        totalBurnt = totalBurnt.add(_amount);\n        emit Transfer(_account, address(0), _amount);\n    }\n\n    /**\n     * @dev Get the credits per token for an account. Returns a fixed amount\n     *      if the account is non-rebasing.\n     * @param _account Address of the account.\n     */\n    function _creditsPerToken(address _account)\n        internal\n        view\n        returns (uint256)\n    {\n        if (nonRebasingCreditsPerToken[_account] != 0) {\n            return nonRebasingCreditsPerToken[_account];\n        } else {\n            return rebasingCreditsPerToken;\n        }\n    }\n\n    /**\n     * @dev Is an account using rebasing accounting or non-rebasing accounting?\n     *      Also, ensure contracts are non-rebasing if they have not opted in.\n     * @param _account Address of the account.\n     */\n    function _isNonRebasingAccount(address _account) internal returns (bool) {\n        bool isContract = AddressUpgradeable.isContract(_account);\n        if (isContract && rebaseState[_account] == RebaseOptions.NotSet) {\n            _ensureRebasingMigration(_account);\n        }\n        return nonRebasingCreditsPerToken[_account] > 0;\n    }\n\n    /**\n     * @dev Ensures internal account for rebasing and non-rebasing credits and\n     *      supply is updated following deployment of frozen yield change.\n     */\n    function _ensureRebasingMigration(address _account) internal {\n        if (nonRebasingCreditsPerToken[_account] == 0) {\n            // Set fixed credits per token for this account\n            nonRebasingCreditsPerToken[_account] = rebasingCreditsPerToken;\n            // Update non rebasing supply\n            nonRebasingSupply = nonRebasingSupply.add(balanceOf(_account));\n            // Update credit tallies\n            rebasingCredits = rebasingCredits.sub(_creditBalances[_account]);\n        }\n    }\n\n    /**\n     * @dev Add a contract address to the non rebasing exception list. I.e. the\n     * address's balance will be part of rebases so the account will be exposed\n     * to upside and downside.\n     */\n    function rebaseOptIn() public onlyOwner {\n        require(_isNonRebasingAccount(msg.sender), \"Account has not opted out\");\n\n        // Convert balance into the same amount at the current exchange rate\n        uint256 newCreditBalance = _creditBalances[msg.sender]\n            .mul(rebasingCreditsPerToken)\n            .div(_creditsPerToken(msg.sender));\n\n        // Decreasing non rebasing supply\n        nonRebasingSupply = nonRebasingSupply.sub(balanceOf(msg.sender));\n\n        _creditBalances[msg.sender] = newCreditBalance;\n\n        // Increase rebasing credits, totalSupply remains unchanged so no\n        // adjustment necessary\n        rebasingCredits = rebasingCredits.add(_creditBalances[msg.sender]);\n\n        rebaseState[msg.sender] = RebaseOptions.OptIn;\n\n        // Delete any fixed credits per token\n        delete nonRebasingCreditsPerToken[msg.sender];\n    }\n\n    /**\n     * @dev Remove a contract address to the non rebasing exception list.\n     */\n    function rebaseOptOut() public onlyOwner {\n        require(!_isNonRebasingAccount(msg.sender), \"Account has not opted in\");\n\n        // Increase non rebasing supply\n        nonRebasingSupply = nonRebasingSupply.add(balanceOf(msg.sender));\n        // Set fixed credits per token\n        nonRebasingCreditsPerToken[msg.sender] = rebasingCreditsPerToken;\n\n        // Decrease rebasing credits, total supply remains unchanged so no\n        // adjustment necessary\n        rebasingCredits = rebasingCredits.sub(_creditBalances[msg.sender]);\n\n        // Mark explicitly opted out of rebasing\n        rebaseState[msg.sender] = RebaseOptions.OptOut;\n    }\n\n    /**\n     * @dev The rebase function. Modify the supply without minting new tokens. This uses a change in\n     *      the exchange rate between \"credits\" and USDs tokens to change balances.\n     * @param _newTotalSupply New total supply of USDs.\n     */\n    function changeSupply(uint256 _newTotalSupply)\n        external override\n        onlyVault\n    {\n        require(_totalSupply > 0, \"Cannot increase 0 supply\");\n\n        // special case: if the total supply remains the same\n        if (_totalSupply == _newTotalSupply) {\n            emit TotalSupplyUpdated(\n                _totalSupply,\n                rebasingCredits,\n                rebasingCreditsPerToken\n            );\n            return;\n        }\n\n        // check if the new total supply surpasses the MAX\n        _totalSupply = _newTotalSupply > MAX_SUPPLY\n            ? MAX_SUPPLY\n            : _newTotalSupply;\n        // calculate the new rebase ratio, i.e. credits per token\n        rebasingCreditsPerToken = rebasingCredits.divPrecisely(\n            _totalSupply.sub(nonRebasingSupply)\n        );\n\n        require(rebasingCreditsPerToken > 0, \"Invalid change in supply\");\n\n        // re-calculate the total supply to accomodate precision error\n        _totalSupply = rebasingCredits\n            .divPrecisely(rebasingCreditsPerToken)\n            .add(nonRebasingSupply);\n\n        emit TotalSupplyUpdated(\n            _totalSupply,\n            rebasingCredits,\n            rebasingCreditsPerToken\n        );\n    }\n}\n",
  "sourcePath": "contracts/token/USDs.sol",
  "type": "contract"
}