{
  "contractName": "VaultCore",
  "abi": [
    {
      "anonymous": false,
      "inputs": [
        {
          "indexed": true,
          "internalType": "address",
          "name": "previousOwner",
          "type": "address"
        },
        {
          "indexed": true,
          "internalType": "address",
          "name": "newOwner",
          "type": "address"
        }
      ],
      "name": "OwnershipTransferred",
      "type": "event"
    },
    {
      "inputs": [],
      "name": "SPATokenAddr",
      "outputs": [
        {
          "internalType": "address",
          "name": "",
          "type": "address"
        }
      ],
      "stateMutability": "view",
      "type": "function",
      "constant": true
    },
    {
      "inputs": [],
      "name": "SPAValut",
      "outputs": [
        {
          "internalType": "address",
          "name": "",
          "type": "address"
        }
      ],
      "stateMutability": "view",
      "type": "function",
      "constant": true
    },
    {
      "inputs": [],
      "name": "USDsFeeValut",
      "outputs": [
        {
          "internalType": "address",
          "name": "",
          "type": "address"
        }
      ],
      "stateMutability": "view",
      "type": "function",
      "constant": true
    },
    {
      "inputs": [],
      "name": "USDsYieldValut",
      "outputs": [
        {
          "internalType": "address",
          "name": "",
          "type": "address"
        }
      ],
      "stateMutability": "view",
      "type": "function",
      "constant": true
    },
    {
      "inputs": [],
      "name": "chiInit",
      "outputs": [
        {
          "internalType": "uint256",
          "name": "",
          "type": "uint256"
        }
      ],
      "stateMutability": "view",
      "type": "function",
      "constant": true
    },
    {
      "inputs": [],
      "name": "chiPrec",
      "outputs": [
        {
          "internalType": "uint256",
          "name": "",
          "type": "uint256"
        }
      ],
      "stateMutability": "view",
      "type": "function",
      "constant": true
    },
    {
      "inputs": [],
      "name": "chi_alpha",
      "outputs": [
        {
          "internalType": "uint256",
          "name": "",
          "type": "uint256"
        }
      ],
      "stateMutability": "view",
      "type": "function",
      "constant": true
    },
    {
      "inputs": [],
      "name": "chi_alpha_Prec",
      "outputs": [
        {
          "internalType": "uint256",
          "name": "",
          "type": "uint256"
        }
      ],
      "stateMutability": "view",
      "type": "function",
      "constant": true
    },
    {
      "inputs": [],
      "name": "chi_beta",
      "outputs": [
        {
          "internalType": "uint256",
          "name": "",
          "type": "uint256"
        }
      ],
      "stateMutability": "view",
      "type": "function",
      "constant": true
    },
    {
      "inputs": [],
      "name": "chi_beta_Prec",
      "outputs": [
        {
          "internalType": "uint256",
          "name": "",
          "type": "uint256"
        }
      ],
      "stateMutability": "view",
      "type": "function",
      "constant": true
    },
    {
      "inputs": [],
      "name": "chi_gamma",
      "outputs": [
        {
          "internalType": "uint256",
          "name": "",
          "type": "uint256"
        }
      ],
      "stateMutability": "view",
      "type": "function",
      "constant": true
    },
    {
      "inputs": [],
      "name": "chi_gamma_Prec",
      "outputs": [
        {
          "internalType": "uint256",
          "name": "",
          "type": "uint256"
        }
      ],
      "stateMutability": "view",
      "type": "function",
      "constant": true
    },
    {
      "inputs": [],
      "name": "collaValut",
      "outputs": [
        {
          "internalType": "address",
          "name": "",
          "type": "address"
        }
      ],
      "stateMutability": "view",
      "type": "function",
      "constant": true
    },
    {
      "inputs": [],
      "name": "mintRedeemAllowed",
      "outputs": [
        {
          "internalType": "bool",
          "name": "",
          "type": "bool"
        }
      ],
      "stateMutability": "view",
      "type": "function",
      "constant": true
    },
    {
      "inputs": [],
      "name": "oracleAddr",
      "outputs": [
        {
          "internalType": "address",
          "name": "",
          "type": "address"
        }
      ],
      "stateMutability": "view",
      "type": "function",
      "constant": true
    },
    {
      "inputs": [],
      "name": "owner",
      "outputs": [
        {
          "internalType": "address",
          "name": "",
          "type": "address"
        }
      ],
      "stateMutability": "view",
      "type": "function",
      "constant": true
    },
    {
      "inputs": [],
      "name": "renounceOwnership",
      "outputs": [],
      "stateMutability": "nonpayable",
      "type": "function"
    },
    {
      "inputs": [],
      "name": "startBlockHeight",
      "outputs": [
        {
          "internalType": "uint256",
          "name": "",
          "type": "uint256"
        }
      ],
      "stateMutability": "view",
      "type": "function",
      "constant": true
    },
    {
      "inputs": [],
      "name": "swapFeePresion",
      "outputs": [
        {
          "internalType": "uint256",
          "name": "",
          "type": "uint256"
        }
      ],
      "stateMutability": "view",
      "type": "function",
      "constant": true
    },
    {
      "inputs": [],
      "name": "swapFee_A",
      "outputs": [
        {
          "internalType": "uint256",
          "name": "",
          "type": "uint256"
        }
      ],
      "stateMutability": "view",
      "type": "function",
      "constant": true
    },
    {
      "inputs": [],
      "name": "swapFee_A_Prec",
      "outputs": [
        {
          "internalType": "uint256",
          "name": "",
          "type": "uint256"
        }
      ],
      "stateMutability": "view",
      "type": "function",
      "constant": true
    },
    {
      "inputs": [],
      "name": "swapFee_a",
      "outputs": [
        {
          "internalType": "uint32",
          "name": "",
          "type": "uint32"
        }
      ],
      "stateMutability": "view",
      "type": "function",
      "constant": true
    },
    {
      "inputs": [],
      "name": "swapFee_a_Prec",
      "outputs": [
        {
          "internalType": "uint32",
          "name": "",
          "type": "uint32"
        }
      ],
      "stateMutability": "view",
      "type": "function",
      "constant": true
    },
    {
      "inputs": [],
      "name": "swapFee_p",
      "outputs": [
        {
          "internalType": "uint256",
          "name": "",
          "type": "uint256"
        }
      ],
      "stateMutability": "view",
      "type": "function",
      "constant": true
    },
    {
      "inputs": [],
      "name": "swapFee_p_Prec",
      "outputs": [
        {
          "internalType": "uint256",
          "name": "",
          "type": "uint256"
        }
      ],
      "stateMutability": "view",
      "type": "function",
      "constant": true
    },
    {
      "inputs": [],
      "name": "swapFee_theta",
      "outputs": [
        {
          "internalType": "uint256",
          "name": "",
          "type": "uint256"
        }
      ],
      "stateMutability": "view",
      "type": "function",
      "constant": true
    },
    {
      "inputs": [],
      "name": "swapFee_theta_Prec",
      "outputs": [
        {
          "internalType": "uint256",
          "name": "",
          "type": "uint256"
        }
      ],
      "stateMutability": "view",
      "type": "function",
      "constant": true
    },
    {
      "inputs": [],
      "name": "swapfeeInAllowed",
      "outputs": [
        {
          "internalType": "bool",
          "name": "",
          "type": "bool"
        }
      ],
      "stateMutability": "view",
      "type": "function",
      "constant": true
    },
    {
      "inputs": [],
      "name": "swapfeeOutAllowed",
      "outputs": [
        {
          "internalType": "bool",
          "name": "",
          "type": "bool"
        }
      ],
      "stateMutability": "view",
      "type": "function",
      "constant": true
    },
    {
      "inputs": [
        {
          "internalType": "address",
          "name": "newOwner",
          "type": "address"
        }
      ],
      "name": "transferOwnership",
      "outputs": [],
      "stateMutability": "nonpayable",
      "type": "function"
    },
    {
      "inputs": [
        {
          "internalType": "address",
          "name": "USDsToken_",
          "type": "address"
        },
        {
          "internalType": "address",
          "name": "oracleAddr_",
          "type": "address"
        },
        {
          "internalType": "address",
          "name": "BancorFormulaAddr_",
          "type": "address"
        }
      ],
      "name": "initialize",
      "outputs": [],
      "stateMutability": "nonpayable",
      "type": "function"
    },
    {
      "inputs": [],
      "name": "calculateSwapFeeIn",
      "outputs": [
        {
          "internalType": "uint256",
          "name": "",
          "type": "uint256"
        }
      ],
      "stateMutability": "view",
      "type": "function",
      "constant": true
    },
    {
      "inputs": [],
      "name": "calculateSwapFeeOut",
      "outputs": [
        {
          "internalType": "uint256",
          "name": "",
          "type": "uint256"
        }
      ],
      "stateMutability": "view",
      "type": "function",
      "constant": true
    },
    {
      "inputs": [
        {
          "internalType": "uint256",
          "name": "chiInit_",
          "type": "uint256"
        },
        {
          "internalType": "uint256",
          "name": "blockPassed",
          "type": "uint256"
        },
        {
          "internalType": "uint256",
          "name": "priceUSDs",
          "type": "uint256"
        },
        {
          "internalType": "uint256",
          "name": "precisionUSDs",
          "type": "uint256"
        }
      ],
      "name": "chiTarget",
      "outputs": [
        {
          "internalType": "uint256",
          "name": "chiTarget_",
          "type": "uint256"
        }
      ],
      "stateMutability": "view",
      "type": "function",
      "constant": true
    },
    {
      "inputs": [],
      "name": "chiMint",
      "outputs": [
        {
          "internalType": "uint256",
          "name": "",
          "type": "uint256"
        }
      ],
      "stateMutability": "view",
      "type": "function",
      "constant": true
    },
    {
      "inputs": [],
      "name": "chiRedeem",
      "outputs": [
        {
          "internalType": "uint256",
          "name": "chiRedeem_",
          "type": "uint256"
        }
      ],
      "stateMutability": "view",
      "type": "function",
      "constant": true
    },
    {
      "inputs": [
        {
          "internalType": "address",
          "name": "collaAddr",
          "type": "address"
        },
        {
          "internalType": "uint256",
          "name": "USDsMintAmt",
          "type": "uint256"
        }
      ],
      "name": "mintWithUSDs",
      "outputs": [],
      "stateMutability": "nonpayable",
      "type": "function"
    },
    {
      "inputs": [
        {
          "internalType": "address",
          "name": "collaAddr",
          "type": "address"
        },
        {
          "internalType": "uint256",
          "name": "SPAAmt",
          "type": "uint256"
        }
      ],
      "name": "mintWithSPA",
      "outputs": [],
      "stateMutability": "nonpayable",
      "type": "function"
    },
    {
      "inputs": [
        {
          "internalType": "address",
          "name": "collaAddr",
          "type": "address"
        },
        {
          "internalType": "uint256",
          "name": "CollaAmt",
          "type": "uint256"
        }
      ],
      "name": "mintWithColla",
      "outputs": [],
      "stateMutability": "nonpayable",
      "type": "function"
    },
    {
      "inputs": [
        {
          "internalType": "address",
          "name": "collaAddr",
          "type": "address"
        },
        {
          "internalType": "uint256",
          "name": "USDsMintAmt",
          "type": "uint256"
        }
      ],
      "name": "mintWithUSDsView",
      "outputs": [
        {
          "internalType": "uint256",
          "name": "SPABurnAmt",
          "type": "uint256"
        },
        {
          "internalType": "uint256",
          "name": "CollaDepAmtCorrected",
          "type": "uint256"
        },
        {
          "internalType": "uint256",
          "name": "USDsAmt",
          "type": "uint256"
        },
        {
          "internalType": "uint256",
          "name": "swapFeeAmount",
          "type": "uint256"
        }
      ],
      "stateMutability": "view",
      "type": "function",
      "constant": true
    },
    {
      "inputs": [
        {
          "internalType": "address",
          "name": "collaAddr",
          "type": "address"
        },
        {
          "internalType": "uint256",
          "name": "SPAAmt",
          "type": "uint256"
        }
      ],
      "name": "mintWithSPAView",
      "outputs": [
        {
          "internalType": "uint256",
          "name": "SPABurnAmt",
          "type": "uint256"
        },
        {
          "internalType": "uint256",
          "name": "CollaDepAmtCorrected",
          "type": "uint256"
        },
        {
          "internalType": "uint256",
          "name": "USDsAmt",
          "type": "uint256"
        },
        {
          "internalType": "uint256",
          "name": "swapFeeAmount",
          "type": "uint256"
        }
      ],
      "stateMutability": "view",
      "type": "function",
      "constant": true
    },
    {
      "inputs": [
        {
          "internalType": "address",
          "name": "collaAddr",
          "type": "address"
        },
        {
          "internalType": "uint256",
          "name": "CollaAmt",
          "type": "uint256"
        }
      ],
      "name": "mintWithCollaView",
      "outputs": [
        {
          "internalType": "uint256",
          "name": "SPABurnAmt",
          "type": "uint256"
        },
        {
          "internalType": "uint256",
          "name": "CollaDepAmtCorrected",
          "type": "uint256"
        },
        {
          "internalType": "uint256",
          "name": "USDsAmt",
          "type": "uint256"
        },
        {
          "internalType": "uint256",
          "name": "swapFeeAmount",
          "type": "uint256"
        }
      ],
      "stateMutability": "view",
      "type": "function",
      "constant": true
    },
    {
      "inputs": [
        {
          "internalType": "address",
          "name": "collaAddr",
          "type": "address"
        },
        {
          "internalType": "uint256",
          "name": "valueAmt",
          "type": "uint256"
        },
        {
          "internalType": "uint8",
          "name": "valueType",
          "type": "uint8"
        }
      ],
      "name": "mintView",
      "outputs": [
        {
          "internalType": "uint256",
          "name": "SPABurnAmt",
          "type": "uint256"
        },
        {
          "internalType": "uint256",
          "name": "CollaDepAmtCorrected",
          "type": "uint256"
        },
        {
          "internalType": "uint256",
          "name": "USDsAmt",
          "type": "uint256"
        },
        {
          "internalType": "uint256",
          "name": "swapFeeAmount",
          "type": "uint256"
        }
      ],
      "stateMutability": "view",
      "type": "function",
      "constant": true
    },
    {
      "inputs": [
        {
          "internalType": "address",
          "name": "collaAddr",
          "type": "address"
        },
        {
          "internalType": "uint256",
          "name": "USDsAmt",
          "type": "uint256"
        }
      ],
      "name": "redeem",
      "outputs": [],
      "stateMutability": "nonpayable",
      "type": "function"
    },
    {
      "inputs": [
        {
          "internalType": "address",
          "name": "collaAddr",
          "type": "address"
        },
        {
          "internalType": "uint256",
          "name": "USDsAmt",
          "type": "uint256"
        }
      ],
      "name": "redeemView",
      "outputs": [
        {
          "internalType": "uint256",
          "name": "SPAMintAmt",
          "type": "uint256"
        },
        {
          "internalType": "uint256",
          "name": "CollaUnlockAmtCorrect",
          "type": "uint256"
        },
        {
          "internalType": "uint256",
          "name": "USDsBurntAmt",
          "type": "uint256"
        },
        {
          "internalType": "uint256",
          "name": "swapFeeAmount",
          "type": "uint256"
        }
      ],
      "stateMutability": "view",
      "type": "function",
      "constant": true
    },
    {
      "inputs": [],
      "name": "rebase",
      "outputs": [],
      "stateMutability": "nonpayable",
      "type": "function"
    },
    {
      "inputs": [],
      "name": "collateralRatio",
      "outputs": [
        {
          "internalType": "uint256",
          "name": "ratio",
          "type": "uint256"
        }
      ],
      "stateMutability": "view",
      "type": "function",
      "constant": true
    },
    {
      "inputs": [],
      "name": "totalValue",
      "outputs": [
        {
          "internalType": "uint256",
          "name": "value",
          "type": "uint256"
        }
      ],
      "stateMutability": "view",
      "type": "function",
      "constant": true
    },
    {
      "inputs": [
        {
          "internalType": "address",
          "name": "_asset",
          "type": "address"
        }
      ],
      "name": "checkBalance",
      "outputs": [
        {
          "internalType": "uint256",
          "name": "",
          "type": "uint256"
        }
      ],
      "stateMutability": "view",
      "type": "function",
      "constant": true
    },
    {
      "inputs": [
        {
          "internalType": "bool",
          "name": "newAllowance",
          "type": "bool"
        }
      ],
      "name": "toggleSwapfeeInAllowed",
      "outputs": [],
      "stateMutability": "nonpayable",
      "type": "function"
    },
    {
      "inputs": [
        {
          "internalType": "bool",
          "name": "newAllowance",
          "type": "bool"
        }
      ],
      "name": "toggleSwapfeeOutAllowed",
      "outputs": [],
      "stateMutability": "nonpayable",
      "type": "function"
    },
    {
      "inputs": [
        {
          "internalType": "address",
          "name": "collatAddress",
          "type": "address"
        },
        {
          "internalType": "bool",
          "name": "allowance",
          "type": "bool"
        }
      ],
      "name": "updateCollateralList",
      "outputs": [],
      "stateMutability": "nonpayable",
      "type": "function"
    }
  ],
  "bytecode": "0x608060405234801561001057600080fd5b506152b7806100206000396000f3fe608060405234801561001057600080fd5b506004361061030c5760003560e01c80639f8fdafe1161019d578063cc31fccb116100e9578063e4a584a7116100a2578063faa5f34b1161007c578063faa5f34b14610d1d578063faeddc9014610d3b578063fc703aa614610d59578063fc9dc4ff14610d775761030c565b8063e4a584a714610c87578063f2fde38b14610ca5578063f62f843014610ce95761030c565b8063cc31fccb14610b0c578063ceee77ed14610b40578063d4c3eea014610b74578063df1750cb14610b92578063dfab838d14610c09578063e1da538014610c695761030c565b8063af14052c11610156578063bbfd838111610130578063bbfd8381146109d6578063be002f6e14610a06578063c0c53b8b14610a3a578063c290817f14610abe5761030c565b8063af14052c14610990578063b4eae1cb1461099a578063bbf274be146109b85761030c565b80639f8fdafe14610809578063a09caa1814610827578063a0fda95e14610847578063a7a63b0a14610865578063ab5d97f4146108dc578063ae67fbb1146109605761030c565b80635f5152261161025c5780637e4e61d7116102155780638da5cb5b116101ef5780638da5cb5b1461072257806395bb5e371461075657806396fd7db6146107cd5780639c11ca73146107eb5761030c565b80637e4e61d7146106b257806382dd391c146106e65780638714a6d3146107045761030c565b80635f515226146105765780635f587895146105ce57806363a018e31461061c5780637080460f1461066a578063715018a61461068a57806372386371146106945761030c565b806333f8bdfe116102c957806343ee5cdc116102a357806343ee5cdc146104f65780634b5214991461051457806357635e91146105325780635e0d5f13146105525761030c565b806333f8bdfe1461049657806337d87d70146104b45780633f521f8c146104d85761030c565b80630314e80c1461031157806316e63e30146103615780631e9a6950146103955780631f207d08146103e3578063276545fe1461045a57806332ad97ab14610478575b600080fd5b61035f6004803603604081101561032757600080fd5b81019080803573ffffffffffffffffffffffffffffffffffffffff169060200190929190803515159060200190929190505050610d95565b005b6103696111c3565b604051808273ffffffffffffffffffffffffffffffffffffffff16815260200191505060405180910390f35b6103e1600480360360408110156103ab57600080fd5b81019080803573ffffffffffffffffffffffffffffffffffffffff169060200190929190803590602001909291905050506111e9565b005b61042f600480360360408110156103f957600080fd5b81019080803573ffffffffffffffffffffffffffffffffffffffff16906020019092919080359060200190929190505050611387565b6040518085815260200184815260200183815260200182815260200194505050505060405180910390f35b6104626114c0565b6040518082815260200191505060405180910390f35b6104806114c5565b6040518082815260200191505060405180910390f35b61049e6114d3565b6040518082815260200191505060405180910390f35b6104bc6114da565b604051808263ffffffff16815260200191505060405180910390f35b6104e06114df565b6040518082815260200191505060405180910390f35b6104fe6114e4565b6040518082815260200191505060405180910390f35b61051c611754565b6040518082815260200191505060405180910390f35b61053a61175b565b60405180821515815260200191505060405180910390f35b61055a61176e565b604051808263ffffffff16815260200191505060405180910390f35b6105b86004803603602081101561058c57600080fd5b81019080803573ffffffffffffffffffffffffffffffffffffffff169060200190929190505050611773565b6040518082815260200191505060405180910390f35b61061a600480360360408110156105e457600080fd5b81019080803573ffffffffffffffffffffffffffffffffffffffff16906020019092919080359060200190929190505050611785565b005b6106686004803603604081101561063257600080fd5b81019080803573ffffffffffffffffffffffffffffffffffffffff16906020019092919080359060200190929190505050611925565b005b610672611ac5565b60405180821515815260200191505060405180910390f35b610692611ad8565b005b61069c611c48565b6040518082815260200191505060405180910390f35b6106ba611c53565b604051808273ffffffffffffffffffffffffffffffffffffffff16815260200191505060405180910390f35b6106ee611c79565b6040518082815260200191505060405180910390f35b61070c611f29565b6040518082815260200191505060405180910390f35b61072a6120fe565b604051808273ffffffffffffffffffffffffffffffffffffffff16815260200191505060405180910390f35b6107a26004803603604081101561076c57600080fd5b81019080803573ffffffffffffffffffffffffffffffffffffffff16906020019092919080359060200190929190505050612128565b6040518085815260200184815260200183815260200182815260200194505050505060405180910390f35b6107d5612261565b6040518082815260200191505060405180910390f35b6107f3612266565b6040518082815260200191505060405180910390f35b61081161226b565b6040518082815260200191505060405180910390f35b61082f612270565b60405180821515815260200191505060405180910390f35b61084f612283565b6040518082815260200191505060405180910390f35b6108b16004803603604081101561087b57600080fd5b81019080803573ffffffffffffffffffffffffffffffffffffffff16906020019092919080359060200190929190505050612288565b6040518085815260200184815260200183815260200182815260200194505050505060405180910390f35b610935600480360360608110156108f257600080fd5b81019080803573ffffffffffffffffffffffffffffffffffffffff16906020019092919080359060200190929190803560ff1690602001909291905050506123c1565b6040518085815260200184815260200183815260200182815260200194505050505060405180910390f35b61098e6004803603602081101561097657600080fd5b81019080803515159060200190929190505050612b75565b005b610998612c41565b005b6109a2612c4b565b6040518082815260200191505060405180910390f35b6109c0612d2e565b6040518082815260200191505060405180910390f35b610a04600480360360208110156109ec57600080fd5b81019080803515159060200190929190505050612d33565b005b610a0e612dff565b604051808273ffffffffffffffffffffffffffffffffffffffff16815260200191505060405180910390f35b610abc60048036036060811015610a5057600080fd5b81019080803573ffffffffffffffffffffffffffffffffffffffff169060200190929190803573ffffffffffffffffffffffffffffffffffffffff169060200190929190803573ffffffffffffffffffffffffffffffffffffffff169060200190929190505050612e25565b005b610b0a60048036036040811015610ad457600080fd5b81019080803573ffffffffffffffffffffffffffffffffffffffff1690602001909291908035906020019092919050505061327b565b005b610b1461341b565b604051808273ffffffffffffffffffffffffffffffffffffffff16815260200191505060405180910390f35b610b48613441565b604051808273ffffffffffffffffffffffffffffffffffffffff16815260200191505060405180910390f35b610b7c613467565b6040518082815260200191505060405180910390f35b610bde60048036036040811015610ba857600080fd5b81019080803573ffffffffffffffffffffffffffffffffffffffff16906020019092919080359060200190929190505050613476565b6040518085815260200184815260200183815260200182815260200194505050505060405180910390f35b610c5360048036036080811015610c1f57600080fd5b81019080803590602001909291908035906020019092919080359060200190929190803590602001909291905050506139a5565b6040518082815260200191505060405180910390f35b610c71613ae9565b6040518082815260200191505060405180910390f35b610c8f613aee565b6040518082815260200191505060405180910390f35b610ce760048036036020811015610cbb57600080fd5b81019080803573ffffffffffffffffffffffffffffffffffffffff169060200190929190505050613c6c565b005b610cf1613e61565b604051808273ffffffffffffffffffffffffffffffffffffffff16815260200191505060405180910390f35b610d25613e87565b6040518082815260200191505060405180910390f35b610d43613e8c565b6040518082815260200191505060405180910390f35b610d61613e92565b6040518082815260200191505060405180910390f35b610d7f613e97565b6040518082815260200191505060405180910390f35b610d9d613e9d565b73ffffffffffffffffffffffffffffffffffffffff16610dbb6120fe565b73ffffffffffffffffffffffffffffffffffffffff1614610e44576040517f08c379a00000000000000000000000000000000000000000000000000000000081526004018080602001828103825260208152602001807f4f776e61626c653a2063616c6c6572206973206e6f7420746865206f776e657281525060200191505060405180910390fd5b8015610fb0576000600160008473ffffffffffffffffffffffffffffffffffffffff1673ffffffffffffffffffffffffffffffffffffffff1681526020019081526020016000205414610eff576040517f08c379a000000000000000000000000000000000000000000000000000000000815260040180806020018281038252601a8152602001807f436f6c6c61746572616c20616c726561647920616c6c6f77656400000000000081525060200191505060405180910390fd5b6002829080600181540180825580915050600190039060005260206000200160009091909190916101000a81548173ffffffffffffffffffffffffffffffffffffffff021916908373ffffffffffffffffffffffffffffffffffffffff160217905550600280549050600160008473ffffffffffffffffffffffffffffffffffffffff1673ffffffffffffffffffffffffffffffffffffffff168152602001908152602001600020819055506111bf565b6000600160008473ffffffffffffffffffffffffffffffffffffffff1673ffffffffffffffffffffffffffffffffffffffff1681526020019081526020016000205411611065576040517f08c379a00000000000000000000000000000000000000000000000000000000081526004018080602001828103825260168152602001807f436f6c6c61746572616c206e6f7420616c6c6f7765640000000000000000000081525060200191505060405180910390fd5b60026001600280549050038154811061107a57fe5b9060005260206000200160009054906101000a900473ffffffffffffffffffffffffffffffffffffffff16600260018060008673ffffffffffffffffffffffffffffffffffffffff1673ffffffffffffffffffffffffffffffffffffffff1681526020019081526020016000205403815481106110f357fe5b9060005260206000200160006101000a81548173ffffffffffffffffffffffffffffffffffffffff021916908373ffffffffffffffffffffffffffffffffffffffff160217905550600280548061114657fe5b6001900381819060005260206000200160006101000a81549073ffffffffffffffffffffffffffffffffffffffff02191690559055600160008373ffffffffffffffffffffffffffffffffffffffff1673ffffffffffffffffffffffffffffffffffffffff168152602001908152602001600020600090555b5050565b600460009054906101000a900473ffffffffffffffffffffffffffffffffffffffff1681565b600060029054906101000a900460ff1661126b576040517f08c379a00000000000000000000000000000000000000000000000000000000081526004018080602001828103825260148152602001807f4d696e7420262072656465656d2070617573656400000000000000000000000081525060200191505060405180910390fd5b6000600160008473ffffffffffffffffffffffffffffffffffffffff1673ffffffffffffffffffffffffffffffffffffffff1681526020019081526020016000205411611320576040517f08c379a00000000000000000000000000000000000000000000000000000000081526004018080602001828103825260188152602001807f436f6c6c61746572616c206e6f7420737570706f72746564000000000000000081525060200191505060405180910390fd5b60008111611379576040517f08c379a00000000000000000000000000000000000000000000000000000000081526004018080602001828103825260218152602001806151c26021913960400191505060405180910390fd5b6113838282613ea5565b5050565b6000806000806000600160008873ffffffffffffffffffffffffffffffffffffffff1673ffffffffffffffffffffffffffffffffffffffff1681526020019081526020016000205411611442576040517f08c379a00000000000000000000000000000000000000000000000000000000081526004018080602001828103825260188152602001807f436f6c6c61746572616c206e6f7420737570706f72746564000000000000000081525060200191505060405180910390fd5b6000851161149b576040517f08c379a00000000000000000000000000000000000000000000000000000000081526004018080602001828103825260218152602001806151c26021913960400191505060405180910390fd5b6114a7868660016123c1565b8094508195508296508397505050505092959194509250565b606381565b69152d02c7e14af680000081565b620186a081565b600c81565b600181565b60008060039054906101000a900460ff166115025760009050611751565b6000600560009054906101000a900473ffffffffffffffffffffffffffffffffffffffff1673ffffffffffffffffffffffffffffffffffffffff166308432eea6040518163ffffffff1660e01b815260040160206040518083038186803b15801561156c57600080fd5b505afa158015611580573d6000803e3d6000fd5b505050506040513d602081101561159657600080fd5b810190808051906020019092919050505090506000600560009054906101000a900473ffffffffffffffffffffffffffffffffffffffff1673ffffffffffffffffffffffffffffffffffffffff1663c36d74976040518163ffffffff1660e01b815260040160206040518083038186803b15801561161357600080fd5b505afa158015611627573d6000803e3d6000fd5b505050506040513d602081101561163d57600080fd5b810190808051906020019092919050505090506000611679606461166b84606361419f90919063ffffffff16565b61422590919063ffffffff16565b90508281101561169c576103e8620f42408161169157fe5b049350505050611751565b60006116c760016116b9603287860361419f90919063ffffffff16565b61422590919063ffffffff16565b905060006116de828361419f90919063ffffffff16565b9050600061171c8561170e87611700620f42408761419f90919063ffffffff16565b61422590919063ffffffff16565b61422590919063ffffffff16565b9050600061173460648361422590919063ffffffff16565b9050806103e8620f42408161174557fe5b04019750505050505050505b90565b620f424081565b600060029054906101000a900460ff1681565b600a81565b600061177e826142ae565b9050919050565b600060029054906101000a900460ff16611807576040517f08c379a00000000000000000000000000000000000000000000000000000000081526004018080602001828103825260148152602001807f4d696e7420262072656465656d2070617573656400000000000000000000000081525060200191505060405180910390fd5b6000600160008473ffffffffffffffffffffffffffffffffffffffff1673ffffffffffffffffffffffffffffffffffffffff16815260200190815260200160002054116118bc576040517f08c379a00000000000000000000000000000000000000000000000000000000081526004018080602001828103825260188152602001807f436f6c6c61746572616c206e6f7420737570706f72746564000000000000000081525060200191505060405180910390fd5b60008111611915576040517f08c379a00000000000000000000000000000000000000000000000000000000081526004018080602001828103825260218152602001806151c26021913960400191505060405180910390fd5b6119218282600061435e565b5050565b600060029054906101000a900460ff166119a7576040517f08c379a00000000000000000000000000000000000000000000000000000000081526004018080602001828103825260148152602001807f4d696e7420262072656465656d2070617573656400000000000000000000000081525060200191505060405180910390fd5b6000600160008473ffffffffffffffffffffffffffffffffffffffff1673ffffffffffffffffffffffffffffffffffffffff1681526020019081526020016000205411611a5c576040517f08c379a00000000000000000000000000000000000000000000000000000000081526004018080602001828103825260188152602001807f436f6c6c61746572616c206e6f7420737570706f72746564000000000000000081525060200191505060405180910390fd5b60008111611ab5576040517f08c379a00000000000000000000000000000000000000000000000000000000081526004018080602001828103825260218152602001806151c26021913960400191505060405180910390fd5b611ac18282600261435e565b5050565b600060049054906101000a900460ff1681565b611ae0613e9d565b73ffffffffffffffffffffffffffffffffffffffff16611afe6120fe565b73ffffffffffffffffffffffffffffffffffffffff1614611b87576040517f08c379a00000000000000000000000000000000000000000000000000000000081526004018080602001828103825260208152602001807f4f776e61626c653a2063616c6c6572206973206e6f7420746865206f776e657281525060200191505060405180910390fd5b600073ffffffffffffffffffffffffffffffffffffffff16604060009054906101000a900473ffffffffffffffffffffffffffffffffffffffff1673ffffffffffffffffffffffffffffffffffffffff167f8be0079c531659141344cd1fd0a4f28419497f9722a3daafe3b4186f6b6457e060405160405180910390a36000604060006101000a81548173ffffffffffffffffffffffffffffffffffffffff021916908373ffffffffffffffffffffffffffffffffffffffff160217905550565b66123a3aa239f65c81565b600560009054906101000a900473ffffffffffffffffffffffffffffffffffffffff1681565b60008060049054906101000a900460ff16611c975760009050611f26565b6000600560009054906101000a900473ffffffffffffffffffffffffffffffffffffffff1673ffffffffffffffffffffffffffffffffffffffff16630b71f2166040518163ffffffff1660e01b815260040160206040518083038186803b158015611d0157600080fd5b505afa158015611d15573d6000803e3d6000fd5b505050506040513d6020811015611d2b57600080fd5b810190808051906020019092919050505090506000600560009054906101000a900473ffffffffffffffffffffffffffffffffffffffff1673ffffffffffffffffffffffffffffffffffffffff16631f58c4416040518163ffffffff1660e01b815260040160206040518083038186803b158015611da857600080fd5b505afa158015611dbc573d6000803e3d6000fd5b505050506040513d6020811015611dd257600080fd5b81019080805190602001909291905050509050611e0c600a611dfe83600c61419f90919063ffffffff16565b61422590919063ffffffff16565b8211611e1e576103e892505050611f26565b600080600d60009054906101000a900473ffffffffffffffffffffffffffffffffffffffff1673ffffffffffffffffffffffffffffffffffffffff166332833d5160146001600c600a6040518563ffffffff1660e01b8152600401808581526020018481526020018363ffffffff1681526020018263ffffffff168152602001945050505050604080518083038186803b158015611ebb57600080fd5b505afa158015611ecf573d6000803e3d6000fd5b505050506040513d6040811015611ee557600080fd5b81019080805190602001909291908051906020019092919050505091509150611f1f6127108260ff1684901c61419f90919063ffffffff16565b9450505050505b90565b600080600560009054906101000a900473ffffffffffffffffffffffffffffffffffffffff1673ffffffffffffffffffffffffffffffffffffffff166308432eea6040518163ffffffff1660e01b815260040160206040518083038186803b158015611f9457600080fd5b505afa158015611fa8573d6000803e3d6000fd5b505050506040513d6020811015611fbe57600080fd5b810190808051906020019092919050505090506000600560009054906101000a900473ffffffffffffffffffffffffffffffffffffffff1673ffffffffffffffffffffffffffffffffffffffff1663c36d74976040518163ffffffff1660e01b815260040160206040518083038186803b15801561203b57600080fd5b505afa15801561204f573d6000803e3d6000fd5b505050506040513d602081101561206557600080fd5b81019080805190602001909291905050509050600061208f600a544361467490919063ffffffff16565b905060006120a1600b548386866139a5565b90506000819050808211156120f2576120eb6120dc60016120ce848603600161419f90919063ffffffff16565b61422590919063ffffffff16565b836146f790919063ffffffff16565b95506120f6565b8195505b505050505090565b6000604060009054906101000a900473ffffffffffffffffffffffffffffffffffffffff16905090565b6000806000806000600160008873ffffffffffffffffffffffffffffffffffffffff1673ffffffffffffffffffffffffffffffffffffffff16815260200190815260200160002054116121e3576040517f08c379a00000000000000000000000000000000000000000000000000000000081526004018080602001828103825260188152602001807f436f6c6c61746572616c206e6f7420737570706f72746564000000000000000081525060200191505060405180910390fd5b6000851161223c576040517f08c379a00000000000000000000000000000000000000000000000000000000081526004018080602001828103825260218152602001806151c26021913960400191505060405180910390fd5b612248868660006123c1565b8094508195508296508397505050505092959194509250565b600981565b600181565b600181565b600060039054906101000a900460ff1681565b601481565b6000806000806000600160008873ffffffffffffffffffffffffffffffffffffffff1673ffffffffffffffffffffffffffffffffffffffff1681526020019081526020016000205411612343576040517f08c379a00000000000000000000000000000000000000000000000000000000081526004018080602001828103825260188152602001807f436f6c6c61746572616c206e6f7420737570706f72746564000000000000000081525060200191505060405180910390fd5b6000851161239c576040517f08c379a00000000000000000000000000000000000000000000000000000000081526004018080602001828103825260218152602001806151c26021913960400191505060405180910390fd5b6123a8868660026123c1565b8094508195508296508397505050505092959194509250565b6000806000806000600560009054906101000a900473ffffffffffffffffffffffffffffffffffffffff1673ffffffffffffffffffffffffffffffffffffffff16639f1a442e896040518263ffffffff1660e01b8152600401808273ffffffffffffffffffffffffffffffffffffffff16815260200191505060206040518083038186803b15801561245257600080fd5b505afa158015612466573d6000803e3d6000fd5b505050506040513d602081101561247c57600080fd5b810190808051906020019092919050505090506000600560009054906101000a900473ffffffffffffffffffffffffffffffffffffffff1673ffffffffffffffffffffffffffffffffffffffff16637d1489fe8a6040518263ffffffff1660e01b8152600401808273ffffffffffffffffffffffffffffffffffffffff16815260200191505060206040518083038186803b15801561251a57600080fd5b505afa15801561252e573d6000803e3d6000fd5b505050506040513d602081101561254457600080fd5b810190808051906020019092919050505090506000600560009054906101000a900473ffffffffffffffffffffffffffffffffffffffff1673ffffffffffffffffffffffffffffffffffffffff166312dd85ee6040518163ffffffff1660e01b815260040160206040518083038186803b1580156125c157600080fd5b505afa1580156125d5573d6000803e3d6000fd5b505050506040513d60208110156125eb57600080fd5b810190808051906020019092919050505090506000600560009054906101000a900473ffffffffffffffffffffffffffffffffffffffff1673ffffffffffffffffffffffffffffffffffffffff1663743db8276040518163ffffffff1660e01b815260040160206040518083038186803b15801561266857600080fd5b505afa15801561267c573d6000803e3d6000fd5b505050506040513d602081101561269257600080fd5b8101908080519060200190929190505050905060006126af6114e4565b905060006126bb613aee565b90506000808c60ff161415612829578c985061271e6126e6620186a08761419f90919063ffffffff16565b6127108661270286620186a0038e61419f90919063ffffffff16565b61419f90919063ffffffff16565b61422590919063ffffffff16565b9a50600083111561276657612763612754620f4240612746868f61419f90919063ffffffff16565b61422590919063ffffffff16565b8c6146f790919063ffffffff16565b9a505b6127b261277f88620186a061419f90919063ffffffff16565b6127a488612796868e61419f90919063ffffffff16565b61419f90919063ffffffff16565b61422590919063ffffffff16565b905060008311156127fa576127f76127e8620f42406127da868561419f90919063ffffffff16565b61422590919063ffffffff16565b826146f790919063ffffffff16565b90505b612822620f4240612814858c61419f90919063ffffffff16565b61422590919063ffffffff16565b9750612aab565b60018c60ff161415612988578c9a508a985060008311156128725761286f61285d620f42408561422590919063ffffffff16565b6001018a61422590919063ffffffff16565b98505b6128c361288d83620186a0038661419f90919063ffffffff16565b6128b5876128a7620186a08e61419f90919063ffffffff16565b61419f90919063ffffffff16565b61422590919063ffffffff16565b98506129116128de88620186a061419f90919063ffffffff16565b612903886128f5868e61419f90919063ffffffff16565b61419f90919063ffffffff16565b61422590919063ffffffff16565b9050600083111561295957612956612947620f4240612939868561419f90919063ffffffff16565b61422590919063ffffffff16565b826146f790919063ffffffff16565b90505b612981620f4240612973858c61419f90919063ffffffff16565b61422590919063ffffffff16565b9750612aaa565b60028c60ff161415612aa9578c90506129e3826129d5886129c76129b88c620186a061419f90919063ffffffff16565b8661419f90919063ffffffff16565b61422590919063ffffffff16565b61422590919063ffffffff16565b9850612a366129fe620186a08761419f90919063ffffffff16565b612a2886612a1a86620186a0038e61419f90919063ffffffff16565b61419f90919063ffffffff16565b61422590919063ffffffff16565b9a506000831115612a7e57612a7b612a6c620f4240612a5e868f61419f90919063ffffffff16565b61422590919063ffffffff16565b8c6146f790919063ffffffff16565b9a505b612aa6620f4240612a98858c61419f90919063ffffffff16565b61422590919063ffffffff16565b97505b5b5b60008e905060008173ffffffffffffffffffffffffffffffffffffffff1663313ce5676040518163ffffffff1660e01b815260040160206040518083038186803b158015612af857600080fd5b505afa158015612b0c573d6000803e3d6000fd5b505050506040513d6020811015612b2257600080fd5b810190808051906020019092919050505060ff169050612b61612b4f82601261467490919063ffffffff16565b600a0a8461422590919063ffffffff16565b9b5050505050505050505093509350935093565b612b7d613e9d565b73ffffffffffffffffffffffffffffffffffffffff16612b9b6120fe565b73ffffffffffffffffffffffffffffffffffffffff1614612c24576040517f08c379a00000000000000000000000000000000000000000000000000000000081526004018080602001828103825260208152602001807f4f776e61626c653a2063616c6c6572206973206e6f7420746865206f776e657281525060200191505060405180910390fd5b80600060036101000a81548160ff02191690831515021790555050565b612c4961477f565b565b600080612c566148d9565b90506000600c60009054906101000a900473ffffffffffffffffffffffffffffffffffffffff1673ffffffffffffffffffffffffffffffffffffffff166318160ddd6040518163ffffffff1660e01b815260040160206040518083038186803b158015612cc257600080fd5b505afa158015612cd6573d6000803e3d6000fd5b505050506040513d6020811015612cec57600080fd5b81019080805190602001909291905050509050612d2781612d19620186a08561419f90919063ffffffff16565b61422590919063ffffffff16565b9250505090565b606481565b612d3b613e9d565b73ffffffffffffffffffffffffffffffffffffffff16612d596120fe565b73ffffffffffffffffffffffffffffffffffffffff1614612de2576040517f08c379a00000000000000000000000000000000000000000000000000000000081526004018080602001828103825260208152602001807f4f776e61626c653a2063616c6c6572206973206e6f7420746865206f776e657281525060200191505060405180910390fd5b80600060046101000a81548160ff02191690831515021790555050565b600860009054906101000a900473ffffffffffffffffffffffffffffffffffffffff1681565b600060019054906101000a900460ff1680612e445750612e43614901565b5b80612e5a575060008054906101000a900460ff16155b612eaf576040517f08c379a000000000000000000000000000000000000000000000000000000000815260040180806020018281038252602e815260200180615209602e913960400191505060405180910390fd5b60008060019054906101000a900460ff161590508015612eff576001600060016101000a81548160ff02191690831515021790555060016000806101000a81548160ff0219169083151502179055505b612f07614912565b6001600060026101000a81548160ff0219169083151502179055506001600060036101000a81548160ff0219169083151502179055506001600060046101000a81548160ff02191690831515021790555073fb931d41a744be590e8b51e2e343bbe030ac4f93600460006101000a81548173ffffffffffffffffffffffffffffffffffffffff021916908373ffffffffffffffffffffffffffffffffffffffff16021790555062017318600b8190555030600660006101000a81548173ffffffffffffffffffffffffffffffffffffffff021916908373ffffffffffffffffffffffffffffffffffffffff16021790555030600760006101000a81548173ffffffffffffffffffffffffffffffffffffffff021916908373ffffffffffffffffffffffffffffffffffffffff16021790555030600860006101000a81548173ffffffffffffffffffffffffffffffffffffffff021916908373ffffffffffffffffffffffffffffffffffffffff16021790555030600960006101000a81548173ffffffffffffffffffffffffffffffffffffffff021916908373ffffffffffffffffffffffffffffffffffffffff160217905550600180600073b7a4f3e9097c08da09517b5ab877f7a917224ede73ffffffffffffffffffffffffffffffffffffffff1673ffffffffffffffffffffffffffffffffffffffff16815260200190815260200160002081905550600273b7a4f3e9097c08da09517b5ab877f7a917224ede9080600181540180825580915050600190039060005260206000200160009091909190916101000a81548173ffffffffffffffffffffffffffffffffffffffff021916908373ffffffffffffffffffffffffffffffffffffffff16021790555083600c60006101000a81548173ffffffffffffffffffffffffffffffffffffffff021916908373ffffffffffffffffffffffffffffffffffffffff16021790555082600560006101000a81548173ffffffffffffffffffffffffffffffffffffffff021916908373ffffffffffffffffffffffffffffffffffffffff16021790555081600d60006101000a81548173ffffffffffffffffffffffffffffffffffffffff021916908373ffffffffffffffffffffffffffffffffffffffff16021790555043600a8190555080156132755760008060016101000a81548160ff0219169083151502179055505b50505050565b600060029054906101000a900460ff166132fd576040517f08c379a00000000000000000000000000000000000000000000000000000000081526004018080602001828103825260148152602001807f4d696e7420262072656465656d2070617573656400000000000000000000000081525060200191505060405180910390fd5b6000600160008473ffffffffffffffffffffffffffffffffffffffff1673ffffffffffffffffffffffffffffffffffffffff16815260200190815260200160002054116133b2576040517f08c379a00000000000000000000000000000000000000000000000000000000081526004018080602001828103825260188152602001807f436f6c6c61746572616c206e6f7420737570706f72746564000000000000000081525060200191505060405180910390fd5b6000811161340b576040517f08c379a00000000000000000000000000000000000000000000000000000000081526004018080602001828103825260218152602001806151c26021913960400191505060405180910390fd5b6134178282600161435e565b5050565b600960009054906101000a900473ffffffffffffffffffffffffffffffffffffffff1681565b600660009054906101000a900473ffffffffffffffffffffffffffffffffffffffff1681565b60006134716148d9565b905090565b6000806000806000600560009054906101000a900473ffffffffffffffffffffffffffffffffffffffff1673ffffffffffffffffffffffffffffffffffffffff16639f1a442e886040518263ffffffff1660e01b8152600401808273ffffffffffffffffffffffffffffffffffffffff16815260200191505060206040518083038186803b15801561350757600080fd5b505afa15801561351b573d6000803e3d6000fd5b505050506040513d602081101561353157600080fd5b810190808051906020019092919050505090506000600560009054906101000a900473ffffffffffffffffffffffffffffffffffffffff1673ffffffffffffffffffffffffffffffffffffffff16637d1489fe896040518263ffffffff1660e01b8152600401808273ffffffffffffffffffffffffffffffffffffffff16815260200191505060206040518083038186803b1580156135cf57600080fd5b505afa1580156135e3573d6000803e3d6000fd5b505050506040513d60208110156135f957600080fd5b810190808051906020019092919050505090506000600560009054906101000a900473ffffffffffffffffffffffffffffffffffffffff1673ffffffffffffffffffffffffffffffffffffffff166312dd85ee6040518163ffffffff1660e01b815260040160206040518083038186803b15801561367657600080fd5b505afa15801561368a573d6000803e3d6000fd5b505050506040513d60208110156136a057600080fd5b810190808051906020019092919050505090506000600560009054906101000a900473ffffffffffffffffffffffffffffffffffffffff1673ffffffffffffffffffffffffffffffffffffffff1663743db8276040518163ffffffff1660e01b815260040160206040518083038186803b15801561371d57600080fd5b505afa158015613731573d6000803e3d6000fd5b505050506040513d602081101561374757600080fd5b810190808051906020019092919050505090506000613764611c79565b90506137be61377f620186a08561419f90919063ffffffff16565b6137b0846137a261378e611f29565b620186a0038f61419f90919063ffffffff16565b61419f90919063ffffffff16565b61422590919063ffffffff16565b98506000811115613806576138036137f4620f42406137e6848d61419f90919063ffffffff16565b61422590919063ffffffff16565b8a61467490919063ffffffff16565b98505b600061385b61382187620186a061419f90919063ffffffff16565b61384d61383e88613830611f29565b61419f90919063ffffffff16565b8e61419f90919063ffffffff16565b61422590919063ffffffff16565b905060008211156138a3576138a0613891620f4240613883858561419f90919063ffffffff16565b61422590919063ffffffff16565b8261467490919063ffffffff16565b90505b60008c73ffffffffffffffffffffffffffffffffffffffff1663313ce5676040518163ffffffff1660e01b815260040160206040518083038186803b1580156138eb57600080fd5b505afa1580156138ff573d6000803e3d6000fd5b505050506040513d602081101561391557600080fd5b810190808051906020019092919050505060ff16905061395461394282601261467490919063ffffffff16565b600a0a8361422590919063ffffffff16565b995061397e620f4240613970858f61419f90919063ffffffff16565b61422590919063ffffffff16565b9750613993888d61467490919063ffffffff16565b98505050505050505092959194509250565b6000806139de69152d02c7e14af68000006139d066123a3aa239f65c8861419f90919063ffffffff16565b61422590919063ffffffff16565b9050600083851115613a5557613a276001613a19868803613a0b888a03600961419f90919063ffffffff16565b61419f90919063ffffffff16565b61422590919063ffffffff16565b9050613a4e81613a40848a61467490919063ffffffff16565b6146f790919063ffffffff16565b9250613adf565b83851015613ac857613a9a6001613a8c878703613a7e898903600961419f90919063ffffffff16565b61419f90919063ffffffff16565b61422590919063ffffffff16565b9050613ac181613ab3848a61467490919063ffffffff16565b61467490919063ffffffff16565b9250613ade565b613adb828861467490919063ffffffff16565b92505b5b5050949350505050565b603281565b600080600560009054906101000a900473ffffffffffffffffffffffffffffffffffffffff1673ffffffffffffffffffffffffffffffffffffffff166308432eea6040518163ffffffff1660e01b815260040160206040518083038186803b158015613b5957600080fd5b505afa158015613b6d573d6000803e3d6000fd5b505050506040513d6020811015613b8357600080fd5b810190808051906020019092919050505090506000600560009054906101000a900473ffffffffffffffffffffffffffffffffffffffff1673ffffffffffffffffffffffffffffffffffffffff1663c36d74976040518163ffffffff1660e01b815260040160206040518083038186803b158015613c0057600080fd5b505afa158015613c14573d6000803e3d6000fd5b505050506040513d6020811015613c2a57600080fd5b810190808051906020019092919050505090506000613c54600a544361467490919063ffffffff16565b9050613c64600b548285856139a5565b935050505090565b613c74613e9d565b73ffffffffffffffffffffffffffffffffffffffff16613c926120fe565b73ffffffffffffffffffffffffffffffffffffffff1614613d1b576040517f08c379a00000000000000000000000000000000000000000000000000000000081526004018080602001828103825260208152602001807f4f776e61626c653a2063616c6c6572206973206e6f7420746865206f776e657281525060200191505060405180910390fd5b600073ffffffffffffffffffffffffffffffffffffffff168173ffffffffffffffffffffffffffffffffffffffff161415613da1576040517f08c379a000000000000000000000000000000000000000000000000000000000815260040180806020018281038252602681526020018061519c6026913960400191505060405180910390fd5b8073ffffffffffffffffffffffffffffffffffffffff16604060009054906101000a900473ffffffffffffffffffffffffffffffffffffffff1673ffffffffffffffffffffffffffffffffffffffff167f8be0079c531659141344cd1fd0a4f28419497f9722a3daafe3b4186f6b6457e060405160405180910390a380604060006101000a81548173ffffffffffffffffffffffffffffffffffffffff021916908373ffffffffffffffffffffffffffffffffffffffff16021790555050565b600760009054906101000a900473ffffffffffffffffffffffffffffffffffffffff1681565b600181565b600b5481565b600181565b600a5481565b600033905090565b600060029054906101000a900460ff16613f27576040517f08c379a00000000000000000000000000000000000000000000000000000000081526004018080602001828103825260148152602001807f4d696e7420262072656465656d2070617573656400000000000000000000000081525060200191505060405180910390fd5b600080600080613f378686613476565b9350935093509350613f8e600760009054906101000a900473ffffffffffffffffffffffffffffffffffffffff1633868973ffffffffffffffffffffffffffffffffffffffff16614a20909392919063ffffffff16565b613fdd600660009054906101000a900473ffffffffffffffffffffffffffffffffffffffff1633858973ffffffffffffffffffffffffffffffffffffffff16614a20909392919063ffffffff16565b600c60009054906101000a900473ffffffffffffffffffffffffffffffffffffffff1673ffffffffffffffffffffffffffffffffffffffff16639dc29fac33846040518363ffffffff1660e01b8152600401808373ffffffffffffffffffffffffffffffffffffffff16815260200182815260200192505050600060405180830381600087803b15801561407057600080fd5b505af1158015614084573d6000803e3d6000fd5b50505050600c60009054906101000a900473ffffffffffffffffffffffffffffffffffffffff1673ffffffffffffffffffffffffffffffffffffffff166323b872dd33600860009054906101000a900473ffffffffffffffffffffffffffffffffffffffff16846040518463ffffffff1660e01b8152600401808473ffffffffffffffffffffffffffffffffffffffff1681526020018373ffffffffffffffffffffffffffffffffffffffff1681526020018281526020019350505050602060405180830381600087803b15801561415b57600080fd5b505af115801561416f573d6000803e3d6000fd5b505050506040513d602081101561418557600080fd5b810190808051906020019092919050505050505050505050565b6000808314156141b2576000905061421f565b60008284029050828482816141c357fe5b041461421a576040517f08c379a00000000000000000000000000000000000000000000000000000000081526004018080602001828103825260218152602001806152376021913960400191505060405180910390fd5b809150505b92915050565b600080821161429c576040517f08c379a000000000000000000000000000000000000000000000000000000000815260040180806020018281038252601a8152602001807f536166654d6174683a206469766973696f6e206279207a65726f00000000000081525060200191505060405180910390fd5b8183816142a557fe5b04905092915050565b6000808290508073ffffffffffffffffffffffffffffffffffffffff166370a08231306040518263ffffffff1660e01b8152600401808273ffffffffffffffffffffffffffffffffffffffff16815260200191505060206040518083038186803b15801561431b57600080fd5b505afa15801561432f573d6000803e3d6000fd5b505050506040513d602081101561434557600080fd5b8101908080519060200190929190505050915050919050565b600060029054906101000a900460ff166143e0576040517f08c379a00000000000000000000000000000000000000000000000000000000081526004018080602001828103825260148152602001807f4d696e7420262072656465656d2070617573656400000000000000000000000081525060200191505060405180910390fd5b6000806000806143f18787876123c1565b9350935093509350600460009054906101000a900473ffffffffffffffffffffffffffffffffffffffff1673ffffffffffffffffffffffffffffffffffffffff166379cc679033866040518363ffffffff1660e01b8152600401808373ffffffffffffffffffffffffffffffffffffffff16815260200182815260200192505050600060405180830381600087803b15801561448c57600080fd5b505af11580156144a0573d6000803e3d6000fd5b505050506144f333600660009054906101000a900473ffffffffffffffffffffffffffffffffffffffff16858a73ffffffffffffffffffffffffffffffffffffffff16614a20909392919063ffffffff16565b600c60009054906101000a900473ffffffffffffffffffffffffffffffffffffffff1673ffffffffffffffffffffffffffffffffffffffff166340c10f1933846040518363ffffffff1660e01b8152600401808373ffffffffffffffffffffffffffffffffffffffff16815260200182815260200192505050600060405180830381600087803b15801561458657600080fd5b505af115801561459a573d6000803e3d6000fd5b50505050600c60009054906101000a900473ffffffffffffffffffffffffffffffffffffffff1673ffffffffffffffffffffffffffffffffffffffff166340c10f19600860009054906101000a900473ffffffffffffffffffffffffffffffffffffffff16836040518363ffffffff1660e01b8152600401808373ffffffffffffffffffffffffffffffffffffffff16815260200182815260200192505050600060405180830381600087803b15801561465357600080fd5b505af1158015614667573d6000803e3d6000fd5b5050505050505050505050565b6000828211156146ec576040517f08c379a000000000000000000000000000000000000000000000000000000000815260040180806020018281038252601e8152602001807f536166654d6174683a207375627472616374696f6e206f766572666c6f77000081525060200191505060405180910390fd5b818303905092915050565b600080828401905083811015614775576040517f08c379a000000000000000000000000000000000000000000000000000000000815260040180806020018281038252601b8152602001807f536166654d6174683a206164646974696f6e206f766572666c6f77000000000081525060200191505060405180910390fd5b8091505092915050565b6000600c60009054906101000a900473ffffffffffffffffffffffffffffffffffffffff1673ffffffffffffffffffffffffffffffffffffffff166318160ddd6040518163ffffffff1660e01b815260040160206040518083038186803b1580156147e957600080fd5b505afa1580156147fd573d6000803e3d6000fd5b505050506040513d602081101561481357600080fd5b8101908080519060200190929190505050905060006148306148d9565b90508181118015614842575060008214155b156148d557600c60009054906101000a900473ffffffffffffffffffffffffffffffffffffffff1673ffffffffffffffffffffffffffffffffffffffff166339a7919f826040518263ffffffff1660e01b815260040180828152602001915050600060405180830381600087803b1580156148bc57600080fd5b505af11580156148d0573d6000803e3d6000fd5b505050505b5050565b60006148fc6148e6614ae1565b6148ee614b5b565b6146f790919063ffffffff16565b905090565b600061490c30614b60565b15905090565b600060019054906101000a900460ff16806149315750614930614901565b5b80614947575060008054906101000a900460ff16155b61499c576040517f08c379a000000000000000000000000000000000000000000000000000000000815260040180806020018281038252602e815260200180615209602e913960400191505060405180910390fd5b60008060019054906101000a900460ff1615905080156149ec576001600060016101000a81548160ff02191690831515021790555060016000806101000a81548160ff0219169083151502179055505b6149f4614b73565b6149fc614c71565b8015614a1d5760008060016101000a81548160ff0219169083151502179055505b50565b614adb846323b872dd60e01b858585604051602401808473ffffffffffffffffffffffffffffffffffffffff1681526020018373ffffffffffffffffffffffffffffffffffffffff1681526020018281526020019350505050604051602081830303815290604052907bffffffffffffffffffffffffffffffffffffffffffffffffffffffff19166020820180517bffffffffffffffffffffffffffffffffffffffffffffffffffffffff8381831617835250505050614e18565b50505050565b600080600090505b600380549050811015614b5757614b48614b3960038381548110614b0957fe5b9060005260206000200160009054906101000a900473ffffffffffffffffffffffffffffffffffffffff16614f07565b836146f790919063ffffffff16565b91508080600101915050614ae9565b5090565b600090565b600080823b905060008111915050919050565b600060019054906101000a900460ff1680614b925750614b91614901565b5b80614ba8575060008054906101000a900460ff16155b614bfd576040517f08c379a000000000000000000000000000000000000000000000000000000000815260040180806020018281038252602e815260200180615209602e913960400191505060405180910390fd5b60008060019054906101000a900460ff161590508015614c4d576001600060016101000a81548160ff02191690831515021790555060016000806101000a81548160ff0219169083151502179055505b8015614c6e5760008060016101000a81548160ff0219169083151502179055505b50565b600060019054906101000a900460ff1680614c905750614c8f614901565b5b80614ca6575060008054906101000a900460ff16155b614cfb576040517f08c379a000000000000000000000000000000000000000000000000000000000815260040180806020018281038252602e815260200180615209602e913960400191505060405180910390fd5b60008060019054906101000a900460ff161590508015614d4b576001600060016101000a81548160ff02191690831515021790555060016000806101000a81548160ff0219169083151502179055505b6000614d55613e9d565b905080604060006101000a81548173ffffffffffffffffffffffffffffffffffffffff021916908373ffffffffffffffffffffffffffffffffffffffff1602179055508073ffffffffffffffffffffffffffffffffffffffff16600073ffffffffffffffffffffffffffffffffffffffff167f8be0079c531659141344cd1fd0a4f28419497f9722a3daafe3b4186f6b6457e060405160405180910390a3508015614e155760008060016101000a81548160ff0219169083151502179055505b50565b6060614e7a826040518060400160405280602081526020017f5361666545524332303a206c6f772d6c6576656c2063616c6c206661696c65648152508573ffffffffffffffffffffffffffffffffffffffff16614f0e9092919063ffffffff16565b9050600081511115614f0257808060200190516020811015614e9b57600080fd5b8101908080519060200190929190505050614f01576040517f08c379a000000000000000000000000000000000000000000000000000000000815260040180806020018281038252602a815260200180615258602a913960400191505060405180910390fd5b5b505050565b6000919050565b6060614f1d8484600085614f26565b90509392505050565b606082471015614f81576040517f08c379a00000000000000000000000000000000000000000000000000000000081526004018080602001828103825260268152602001806151e36026913960400191505060405180910390fd5b614f8a85614b60565b614ffc576040517f08c379a000000000000000000000000000000000000000000000000000000000815260040180806020018281038252601d8152602001807f416464726573733a2063616c6c20746f206e6f6e2d636f6e747261637400000081525060200191505060405180910390fd5b600060608673ffffffffffffffffffffffffffffffffffffffff1685876040518082805190602001908083835b6020831061504c5780518252602082019150602081019050602083039250615029565b6001836020036101000a03801982511681845116808217855250505050505090500191505060006040518083038185875af1925050503d80600081146150ae576040519150601f19603f3d011682016040523d82523d6000602084013e6150b3565b606091505b50915091506150c38282866150cf565b92505050949350505050565b606083156150df57829050615194565b6000835111156150f25782518084602001fd5b816040517f08c379a00000000000000000000000000000000000000000000000000000000081526004018080602001828103825283818151815260200191508051906020019080838360005b8381101561515957808201518184015260208101905061513e565b50505050905090810190601f1680156151865780820380516001836020036101000a031916815260200191505b509250505060405180910390fd5b939250505056fe4f776e61626c653a206e6577206f776e657220697320746865207a65726f2061646472657373416d6f756e74206e6565647320746f2062652067726561746572207468616e2030416464726573733a20696e73756666696369656e742062616c616e636520666f722063616c6c496e697469616c697a61626c653a20636f6e747261637420697320616c726561647920696e697469616c697a6564536166654d6174683a206d756c7469706c69636174696f6e206f766572666c6f775361666545524332303a204552433230206f7065726174696f6e20646964206e6f742073756363656564a2646970667358221220b52dcb9898e7e11d585301f951b77f8682b746ac311ede5f9b5693b71a0dfb1b64736f6c634300060c0033",
  "immutableReferences": {},
  "source": "//To-do: fix presion\n\npragma solidity ^0.6.12;\n\nimport \"@openzeppelin/contracts-upgradeable/proxy/Initializable.sol\";\nimport \"@openzeppelin/contracts-upgradeable/access/OwnableUpgradeable.sol\";\nimport \"@openzeppelin/contracts-upgradeable/math/SafeMathUpgradeable.sol\";\nimport \"@openzeppelin/contracts-upgradeable/utils/AddressUpgradeable.sol\";\nimport \"@openzeppelin/contracts-upgradeable/token/ERC20/SafeERC20Upgradeable.sol\";\nimport \"@openzeppelin/contracts-upgradeable/token/ERC20/ERC20Upgradeable.sol\";\n\nimport \"./VaultStorage.sol\";\nimport \"../libraries/MyMath.sol\";\nimport \"../libraries/Helpers.sol\";\nimport \"../interfaces/IOracle.sol\";\nimport \"../interfaces/ISperaxToken.sol\";\n\ncontract VaultCore is Initializable, VaultStorage, OwnableUpgradeable {\n\tusing SafeERC20Upgradeable for ERC20Upgradeable;\n\tusing SafeMathUpgradeable for uint;\n\tusing MyMath for uint;\n\n\tmodifier whenMintRedeemAllowed {\n\t\trequire(mintRedeemAllowed, \"Mint & redeem paused\");\n\t\t_;\n\t}\n\n\tfunction initialize(address USDsToken_, address oracleAddr_, address BancorFormulaAddr_) public initializer {\n\t\tOwnableUpgradeable.__Ownable_init();\n\t\t// Initialize variables\n\t\tmintRedeemAllowed = true;\n\t\tswapfeeInAllowed = true;\n\t\tswapfeeOutAllowed = true;\n\t\tSPATokenAddr = 0xFb931d41A744bE590E8B51e2e343bBE030aC4f93;\n\t\tchiInit = 95000;\n\n\t\tcollaValut = address(this);\n\t\tSPAValut = address(this);\n\t\tUSDsFeeValut = address(this);\n\t\tUSDsYieldValut = address(this);\n\t\tsupportedCollat[0xb7a4F3E9097C08dA09517b5aB877F7a917224ede] = 1;\n\t\tallCollat.push(0xb7a4F3E9097C08dA09517b5aB877F7a917224ede);\n\t\tUSDsInstance = USDs(USDsToken_);\n\t\toracleAddr = oracleAddr_;\n\t\tBancorInstance = BancorFormula(BancorFormulaAddr_);\n\t\tstartBlockHeight = block.number;\n\t\t// DAI\n\t\t// 0x4f96fe3b7a6cf9725f59d353f723c1bdb64ca6aa\n\t\t// 0x777A68032a88E5A84678A77Af2CD65A7b3c0775a\n\t\t// 8\n\t\t// USDC\n\t\t// 0xb7a4F3E9097C08dA09517b5aB877F7a917224ede\n\t\t// 0x9211c6b3BF41A10F78539810Cf5c64e1BB78Ec60\n\t\t// 8\n\t\t// USDT\n\t\t// 0x07de306ff27a2b630b1141956844eb1552b956b5\n\t\t// 0x2ca5A90D34cA333661083F89D831f757A9A50148\n\t\t// 8\n\t}\n\n\n\tfunction calculateSwapFeeIn() public view returns (uint) {\n\t\tif (!swapfeeInAllowed) {\n\t\t\treturn 0;\n\t\t}\n\n\t\tuint priceUSDs = uint(IOracle(oracleAddr).getUSDsPrice()); //TODO: change to 3 days average\n\t\tuint precisionUSDs = IOracle(oracleAddr).USDsPricePrecision();\n\t\tuint smallPwithPrecision = swapFee_p.mul(precisionUSDs).div(swapFee_p_Prec);\n\t\tif (smallPwithPrecision < priceUSDs) {\n\t\t\treturn swapFeePresion / 1000; // 0.1%\n\t\t} else {\n\t\t\tuint temp = (smallPwithPrecision - priceUSDs).mul(swapFee_theta).div(swapFee_theta_Prec); //precision: precisionUSDs\n\t\t\tuint temp2 = temp.mul(temp); //precision: precisionUSDs^2\n\t\t\tuint temp3 = temp2.mul(swapFeePresion).div(precisionUSDs).div(precisionUSDs);\n\t\t\tuint temp4 = temp3.div(100);\n\t\t\treturn swapFeePresion / 1000 + temp4;\n\t\t}\n\n\t}\n\n\tfunction calculateSwapFeeOut() public view returns (uint) {\n\t\tif (!swapfeeOutAllowed) {\n\t\t\treturn 0;\n\t\t}\n\t\tuint USDsInOutRatio = IOracle(oracleAddr).USDsInOutRatio();\n\t\tuint USDsInOutRatioPrecision = IOracle(oracleAddr).USDsInOutRatioPrecision();\n\t\tif (USDsInOutRatio <= uint(12).mul(USDsInOutRatioPrecision).div(10)) {\n\t\t\treturn 1000; //0.1%\n\t\t} else {\n\n\t\t\t(uint powResWithPrec, uint8 powResPrec) = BancorInstance.power(uint(swapFee_A), uint(swapFee_A_Prec), swapFee_a, swapFee_a_Prec);\n\t\t\treturn uint(powResWithPrec >> powResPrec).mul(10**4);\n\t\t}\n\t}\n\n\tfunction chiTarget(uint chiInit_, uint blockPassed, uint priceUSDs, uint precisionUSDs) public view returns (uint chiTarget_) {\n\t\tuint chiAdjustmentA = blockPassed.mul(chi_alpha).div(chi_alpha_Prec);\n\t\tuint chiAdjustmentB;\n\t\tif (priceUSDs > precisionUSDs) {\n\t\t\tchiAdjustmentB = chi_beta.mul(priceUSDs - precisionUSDs).mul(priceUSDs - precisionUSDs).div(chi_beta_Prec);\n\t\t\tchiTarget_ = chiInit_.sub(chiAdjustmentA).add(chiAdjustmentB);\n\t\t} else if (priceUSDs < precisionUSDs) {\n\t\t\tchiAdjustmentB = chi_beta.mul(precisionUSDs - priceUSDs).mul(precisionUSDs - priceUSDs).div(chi_beta_Prec);\n\t\t\tchiTarget_ = chiInit_.sub(chiAdjustmentA).sub(chiAdjustmentB);\n\t\t} else {\n\t\t\tchiTarget_ = chiInit_.sub(chiAdjustmentA);\n\t\t}\n\t}\n\n\tfunction chiMint() public view returns (uint)  {\n\t\tuint priceUSDs = uint(IOracle(oracleAddr).getUSDsPrice());\n\t\tuint precisionUSDs = IOracle(oracleAddr).USDsPricePrecision();\n\t\tuint blockPassed = uint(block.number).sub(startBlockHeight);\n\t\treturn chiTarget(chiInit, blockPassed, priceUSDs, precisionUSDs);\n\t}\n\n\tfunction chiRedeem() public view returns (uint chiRedeem_) {\n\t\tuint priceUSDs = uint(IOracle(oracleAddr).getUSDsPrice());\n\t\tuint precisionUSDs = IOracle(oracleAddr).USDsPricePrecision();\n\t\tuint blockPassed = uint(block.number).sub(startBlockHeight);\n\t\tuint chiTarget_ = chiTarget(chiInit, blockPassed, priceUSDs, precisionUSDs);\n\t\t//uint collateralRatio_ = collateralRatio();\n\t\tuint collateralRatio_ = chiTarget_;\n\t\tif (chiTarget_ > collateralRatio_) {\n\t\t\tchiRedeem_ = chiTarget_.add(chi_gamma.mul(chiTarget_ - collateralRatio_).div(chi_gamma_Prec));\n\t\t} else {\n\t\t\tchiRedeem_ = chiTarget_;\n\t\t}\n\n\t}\n\n\tfunction mintWithUSDs(address collaAddr, uint USDsMintAmt)\n\t\tpublic\n\t\twhenMintRedeemAllowed\n\t{\n\t\trequire(supportedCollat[collaAddr] > 0, \"Collateral not supported\");\n\t\trequire(USDsMintAmt > 0, \"Amount needs to be greater than 0\");\n\t\t_mint(collaAddr, USDsMintAmt, 0);\n\t}\n\n\tfunction mintWithSPA(address collaAddr, uint SPAAmt)\n\t\tpublic\n\t\twhenMintRedeemAllowed\n\t{\n\t\trequire(supportedCollat[collaAddr] > 0, \"Collateral not supported\");\n\t\trequire(SPAAmt > 0, \"Amount needs to be greater than 0\");\n\t\t_mint(collaAddr, SPAAmt, 1);\n\t}\n\n\tfunction mintWithColla(address collaAddr, uint CollaAmt)\n\t\tpublic\n\t\twhenMintRedeemAllowed\n\t{\n\t\trequire(supportedCollat[collaAddr] > 0, \"Collateral not supported\");\n\t\trequire(CollaAmt > 0, \"Amount needs to be greater than 0\");\n\t\t_mint(collaAddr, CollaAmt, 2);\n\t}\n\n\n\t//View functions\n\n\tfunction mintWithUSDsView(address collaAddr, uint USDsMintAmt)\n\t\tpublic view returns (uint SPABurnAmt, uint CollaDepAmtCorrected, uint USDsAmt, uint swapFeeAmount)\n\t{\n\t\trequire(supportedCollat[collaAddr] > 0, \"Collateral not supported\");\n\t\trequire(USDsMintAmt > 0, \"Amount needs to be greater than 0\");\n\t\t(SPABurnAmt, CollaDepAmtCorrected, USDsAmt, swapFeeAmount) = mintView(collaAddr, USDsMintAmt, 0);\n\t}\n\n\tfunction mintWithSPAView(address collaAddr, uint SPAAmt)\n\t\tpublic view returns (uint SPABurnAmt, uint CollaDepAmtCorrected, uint USDsAmt, uint swapFeeAmount)\n\t{\n\t\trequire(supportedCollat[collaAddr] > 0, \"Collateral not supported\");\n\t\trequire(SPAAmt > 0, \"Amount needs to be greater than 0\");\n\t\t(SPABurnAmt, CollaDepAmtCorrected, USDsAmt, swapFeeAmount)  = mintView(collaAddr, SPAAmt, 1);\n\t}\n\n\tfunction mintWithCollaView(address collaAddr, uint CollaAmt)\n\t\tpublic view returns (uint SPABurnAmt, uint CollaDepAmtCorrected, uint USDsAmt, uint swapFeeAmount)\n\t{\n\t\trequire(supportedCollat[collaAddr] > 0, \"Collateral not supported\");\n\t\trequire(CollaAmt > 0, \"Amount needs to be greater than 0\");\n\t\t(SPABurnAmt, CollaDepAmtCorrected, USDsAmt, swapFeeAmount) = mintView(collaAddr, CollaAmt, 2);\n\t}\n\n\tfunction mintView(\n\t\taddress collaAddr,\n\t\tuint valueAmt,\n\t\tuint8 valueType\n\t) public view returns (uint SPABurnAmt, uint CollaDepAmtCorrected, uint USDsAmt, uint swapFeeAmount) {\n\t\tuint priceColla = IOracle(oracleAddr).collatPrice(collaAddr);\n\t\tuint precisionColla = IOracle(oracleAddr).collatPricePrecision(collaAddr);\n\t\tuint priceSPA = IOracle(oracleAddr).getSPAPrice();\n\t\tuint precisionSPA = IOracle(oracleAddr).SPAPricePrecision();\n\t\tuint swapFee = calculateSwapFeeIn();\n\t\tuint chi = chiMint();\n\t\tuint CollaDepAmt;\n\n\t\tif (valueType == 0) {\n\t\t\tUSDsAmt = valueAmt;\n\n\t\t\tSPABurnAmt = USDsAmt.mul(chiPrec - chi).mul(precisionSPA).div(priceSPA.mul(chiPrec));\n\t\t\tif (swapFee > 0) {\n\t\t\t\tSPABurnAmt = SPABurnAmt.add(SPABurnAmt.mul(swapFee).div(swapFeePresion));\n\t\t\t}\n\n\t\t\t//Deposit collaeral\n\t\t\tCollaDepAmt = USDsAmt.mul(chi).mul(precisionColla).div(chiPrec.mul(priceColla));\n\t\t\tif (swapFee > 0) {\n\t\t\t\tCollaDepAmt = CollaDepAmt.add(CollaDepAmt.mul(swapFee).div(swapFeePresion));\n\t\t\t}\n\n\t\t\tswapFeeAmount = USDsAmt.mul(swapFee).div(swapFeePresion);\n\t\t} else if (valueType == 1) {\n\t\t\tSPABurnAmt = valueAmt;\n\n\t\t\tUSDsAmt = SPABurnAmt;\n\t\t\tif (swapFee > 0) {\n\t\t\t\tUSDsAmt = USDsAmt.div(1 + swapFee.div(swapFeePresion));\n\t\t\t}\n\t\t\tUSDsAmt = USDsAmt.mul(chiPrec).mul(priceSPA).div(precisionSPA.mul(chiPrec - chi));\n\n\t\t\t//Deposit collaeral\n\t\t\tCollaDepAmt = USDsAmt.mul(chi).mul(precisionColla).div(chiPrec.mul(priceColla));\n\t\t\tif (swapFee > 0) {\n\t\t\t\tCollaDepAmt = CollaDepAmt.add(CollaDepAmt.mul(swapFee).div(swapFeePresion));\n\t\t\t}\n\n\t\t\tswapFeeAmount = USDsAmt.mul(swapFee).div(swapFeePresion);\n\t\t} else if (valueType == 2) {\n\t\t\tCollaDepAmt = valueAmt;\n\n\t\t\tUSDsAmt = CollaDepAmt.mul(chiPrec.mul(priceColla)).div(precisionColla).div(chi);\n\n\t\t\tSPABurnAmt = USDsAmt.mul(chiPrec - chi).mul(precisionSPA).div(priceSPA.mul(chiPrec));\n\t\t\tif (swapFee > 0) {\n\t\t\t\tSPABurnAmt = SPABurnAmt.add(SPABurnAmt.mul(swapFee).div(swapFeePresion));\n\t\t\t}\n\n\t\t\tswapFeeAmount = USDsAmt.mul(swapFee).div(swapFeePresion);\n\t\t}\n\n\t\tERC20Upgradeable collaAddrERC20 = ERC20Upgradeable(collaAddr);\n\t\tuint collaAddrDecimal = uint(collaAddrERC20.decimals());\n\t\tCollaDepAmtCorrected = CollaDepAmt.div(10**(uint(18).sub(collaAddrDecimal)));\n\t}\n\n\tfunction _mint(\n\t\taddress collaAddr,\n\t\tuint valueAmt,\n\t\tuint8 valueType\n\t) internal whenMintRedeemAllowed {\n\t\t(uint SPABurnAmt, uint CollaDepAmtCorrected, uint USDsAmt, uint swapFeeAmount) = mintView(collaAddr, valueAmt, valueType);\n\t\tISperaxToken(SPATokenAddr).burnFrom(msg.sender, SPABurnAmt);\n\t\tERC20Upgradeable(collaAddr).safeTransferFrom(msg.sender, collaValut, CollaDepAmtCorrected);\n\t\tUSDsInstance.mint(msg.sender, USDsAmt);\n\t\tUSDsInstance.mint(USDsFeeValut, swapFeeAmount);\n\n\t}\n\n\tfunction redeem(address collaAddr, uint USDsAmt)\n\t\tpublic\n\t\twhenMintRedeemAllowed\n\t{\n\t\trequire(supportedCollat[collaAddr] > 0, \"Collateral not supported\");\n\t\trequire(USDsAmt > 0, \"Amount needs to be greater than 0\");\n\t\t_redeem(collaAddr, USDsAmt);\n\t}\n\n\n\tfunction redeemView(\n\t\taddress collaAddr,\n\t\tuint USDsAmt\n\t) public view returns (uint SPAMintAmt, uint CollaUnlockAmtCorrect, uint USDsBurntAmt, uint swapFeeAmount) {\n\t\tuint priceColla = IOracle(oracleAddr).collatPrice(collaAddr);\n\t\tuint precisionColla = IOracle(oracleAddr).collatPricePrecision(collaAddr);\n\t\tuint priceSPA = IOracle(oracleAddr).getSPAPrice();\n\t\tuint precisionSPA = IOracle(oracleAddr).SPAPricePrecision();\n\t\tuint swapFee = calculateSwapFeeOut();\n\t\tSPAMintAmt = USDsAmt.mul(chiPrec - chiRedeem()).mul(precisionSPA).div(priceSPA.mul(chiPrec));\n\t\tif (swapFee > 0) {\n\t\t\tSPAMintAmt = SPAMintAmt.sub(SPAMintAmt.mul(swapFee).div(swapFeePresion));\n\t\t}\n\n\t\t//Unlock collaeral\n\t\tuint CollaUnlockAmt = USDsAmt.mul(chiRedeem().mul(precisionColla)).div(chiPrec.mul(priceColla));\n\t\tif (swapFee > 0) {\n\t\t\tCollaUnlockAmt = CollaUnlockAmt.sub(CollaUnlockAmt.mul(swapFee).div(swapFeePresion));\n\t\t}\n\t\tuint collaAddrDecimal = uint(ERC20Upgradeable(collaAddr).decimals());\n\t\tCollaUnlockAmtCorrect =  CollaUnlockAmt.div(10**(uint(18).sub(collaAddrDecimal)));\n\n\t\t//Burn USDs\n\t\tswapFeeAmount = USDsAmt.mul(swapFee).div(swapFeePresion);\n\t\tUSDsBurntAmt =  USDsAmt.sub(swapFeeAmount);\n\t}\n\n\tfunction _redeem(\n\t\taddress collaAddr,\n\t\tuint USDsAmt\n\t) internal whenMintRedeemAllowed {\n\t\t(uint SPAMintAmt, uint CollaUnlockAmtCorrect, uint USDsBurntAmt, uint swapFeeAmount) = redeemView(collaAddr, USDsAmt);\n\t\tERC20Upgradeable(collaAddr).safeTransferFrom(SPAValut, msg.sender, SPAMintAmt);\n\t\tERC20Upgradeable(collaAddr).safeTransferFrom(collaValut, msg.sender, CollaUnlockAmtCorrect);\n\t\tUSDsInstance.burn(msg.sender, USDsBurntAmt);\n\t\tUSDsInstance.transferFrom(msg.sender, USDsFeeValut, swapFeeAmount);\n\n\t}\n\n\t/**\n\t * @dev Calculate the total value of assets held by the Vault and all\n\t *      strategies and update the supply of USDs.\n\t */\n\tfunction rebase() public {\n\t\t_rebase();\n\t}\n\n\t/**\n\t * @dev Calculate the total value of assets held by the Vault and all\n\t *      strategies and update the supply of USDs, optionaly sending a\n\t *      portion of the yield to the trustee.\n\t */\n\tfunction _rebase() internal {\n\t\tuint256 totalSupply = USDsInstance.totalSupply();\n\t\tuint256 vaultValue = _totalValue();\n\n\t\tif (vaultValue > totalSupply && totalSupply != 0) {\n\t\t\tUSDsInstance.changeSupply(vaultValue);\n\t\t}\n\t}\n\n\t/**\n\t * @dev  Precision: same as chi\n\t */\n\n\tfunction collateralRatio() public view returns (uint256 ratio) {\n        uint totalValue = _totalValue();\n\t\tuint USDsSupply =  USDsInstance.totalSupply();\n\t\tratio = totalValue.mul(chiPrec).div(USDsSupply);\n    }\n\n\t/**\n     * @dev Determine the total value of assets held by the vault and its\n     *         strategies.\n     * @return value Total value in USD (1e18)\n     */\n    function totalValue() external view returns (uint256 value) {\n        value = _totalValue();\n    }\n\n    /**\n     * @dev Internal Calculate the total value of the assets held by the\n     *         vault and its strategies.\n     * @return value Total value in USD (1e18)\n     */\n    function _totalValue() internal view returns (uint256 value) {\n        return _totalValueInVault().add(_totalValueInStrategies());\n    }\n\n    /**\n     * @dev Internal to calculate total value of all assets held in Vault.\n     * @return value in ETH (1e18)\n     */\n    function _totalValueInVault() internal view returns (uint256 value) {\n        // for (uint256 y = 0; y < allCollat.length; y++) {\n        //     ERC20Upgradeable asset = ERC20Upgradeable(allCollat[y]);\n        //     uint256 assetDecimals = Helpers.getDecimals(allCollat[y]);\n        //     uint256 balance = asset.balanceOf(address(this));\n        //     if (balance > 0) {\n        //         value = value.add(balance.scaleBy(int8(18 - assetDecimals)));\n        //     }\n        // }\n    }\n\n    /**\n     * @dev Internal to calculate total value of all assets held in Strategies.\n     * @return value in ETH (1e18)\n     */\n    function _totalValueInStrategies() internal view returns (uint256 value) {\n        for (uint256 i = 0; i < allStrategies.length; i++) {\n            value = value.add(_totalValueInStrategy(allStrategies[i]));\n        }\n    }\n\n    /**\n     * @dev Internal to calculate total value of all assets held by strategy.\n     * @param _strategyAddr Address of the strategy\n     * @return value in ETH (1e18)\n     */\n    function _totalValueInStrategy(address _strategyAddr)\n        internal\n        view\n        returns (uint256 value)\n    {\n        value = 0;\n    }\n\n\t/**\n     * @notice Get the balance of an asset held in Vault and all strategies.\n     * @param _asset Address of asset\n     * @return uint256 Balance of asset in decimals of asset\n     */\n    function checkBalance(address _asset) external view returns (uint256) {\n        return _checkBalance(_asset);\n    }\n\n    /**\n     * @notice Get the balance of an asset held in Vault and all strategies.\n     * @param _asset Address of asset\n     * @return balance Balance of asset in decimals of asset\n     */\n    function _checkBalance(address _asset)\n        internal\n        view\n        returns (uint256 balance)\n    {\n        ERC20Upgradeable asset = ERC20Upgradeable(_asset);\n        balance = asset.balanceOf(address(this));\n        // for (uint256 i = 0; i < allStrategies.length; i++) {\n        //     IStrategy strategy = IStrategy(allStrategies[i]);\n        //     if (strategy.supportsAsset(_asset)) {\n        //         balance = balance.add(strategy.checkBalance(_asset));\n        //     }\n        // }\n    }\n\n    //\n    // Owner Only Function: change swap fee allowance\n    //\n\n    function toggleSwapfeeInAllowed(bool newAllowance) external onlyOwner {\n      swapfeeInAllowed = newAllowance;\n    }\n\n    function toggleSwapfeeOutAllowed(bool newAllowance) external onlyOwner {\n      swapfeeOutAllowed = newAllowance;\n    }\n\n    function updateCollateralList(address collatAddress, bool allowance) external onlyOwner {\n\t\t\tif (allowance) {\n\t\t\t\trequire(supportedCollat[collatAddress] == 0, \"Collateral already allowed\");\n\t\t\t\tallCollat.push(collatAddress);\n\t\t\t\tsupportedCollat[collatAddress] = allCollat.length;\n\t\t\t} else {\n\t\t\t\trequire(supportedCollat[collatAddress] > 0, \"Collateral not allowed\");\n\t\t\t\tallCollat[supportedCollat[collatAddress] - 1] = allCollat[allCollat.length - 1];\n\t\t\t\tallCollat.pop();\n\t\t\t\tdelete supportedCollat[collatAddress];\n\t\t\t}\n    }\n}\n",
  "sourcePath": "/Volumes/Work/Sperax/USDs/contracts/vault/VaultCore.sol",
  "compiler": {
    "name": "solc",
    "version": "0.6.12+commit.27d51765.Emscripten.clang"
  },
  "schemaVersion": "3.4.0",
  "updatedAt": "2021-07-23T14:27:22.600Z",
  "networkType": "ethereum",
  "devdoc": {
    "kind": "dev",
    "methods": {
      "checkBalance(address)": {
        "params": {
          "_asset": "Address of asset"
        },
        "returns": {
          "_0": "uint256 Balance of asset in decimals of asset"
        }
      },
      "collateralRatio()": {
        "details": "Precision: same as chi"
      },
      "owner()": {
        "details": "Returns the address of the current owner."
      },
      "rebase()": {
        "details": "Calculate the total value of assets held by the Vault and all      strategies and update the supply of USDs."
      },
      "renounceOwnership()": {
        "details": "Leaves the contract without owner. It will not be possible to call `onlyOwner` functions anymore. Can only be called by the current owner. NOTE: Renouncing ownership will leave the contract without an owner, thereby removing any functionality that is only available to the owner."
      },
      "totalValue()": {
        "details": "Determine the total value of assets held by the vault and its         strategies.",
        "returns": {
          "value": "Total value in USD (1e18)"
        }
      },
      "transferOwnership(address)": {
        "details": "Transfers ownership of the contract to a new account (`newOwner`). Can only be called by the current owner."
      }
    },
    "version": 1
  },
  "userdoc": {
    "kind": "user",
    "methods": {
      "checkBalance(address)": {
        "notice": "Get the balance of an asset held in Vault and all strategies."
      }
    },
    "version": 1
  }
}