{
  "contractName": "VaultStorage",
  "abi": [
    {
      "inputs": [],
      "name": "SPATokenAddr",
      "outputs": [
        {
          "internalType": "address",
          "name": "",
          "type": "address"
        }
      ],
      "stateMutability": "view",
      "type": "function"
    },
    {
      "inputs": [],
      "name": "SPAValut",
      "outputs": [
        {
          "internalType": "address",
          "name": "",
          "type": "address"
        }
      ],
      "stateMutability": "view",
      "type": "function"
    },
    {
      "inputs": [],
      "name": "USDsFeeValut",
      "outputs": [
        {
          "internalType": "address",
          "name": "",
          "type": "address"
        }
      ],
      "stateMutability": "view",
      "type": "function"
    },
    {
      "inputs": [],
      "name": "USDsYieldValut",
      "outputs": [
        {
          "internalType": "address",
          "name": "",
          "type": "address"
        }
      ],
      "stateMutability": "view",
      "type": "function"
    },
    {
      "inputs": [],
      "name": "chiInit",
      "outputs": [
        {
          "internalType": "uint256",
          "name": "",
          "type": "uint256"
        }
      ],
      "stateMutability": "view",
      "type": "function"
    },
    {
      "inputs": [],
      "name": "chiPrec",
      "outputs": [
        {
          "internalType": "uint256",
          "name": "",
          "type": "uint256"
        }
      ],
      "stateMutability": "view",
      "type": "function"
    },
    {
      "inputs": [],
      "name": "chi_alpha",
      "outputs": [
        {
          "internalType": "uint256",
          "name": "",
          "type": "uint256"
        }
      ],
      "stateMutability": "view",
      "type": "function"
    },
    {
      "inputs": [],
      "name": "chi_alpha_Prec",
      "outputs": [
        {
          "internalType": "uint256",
          "name": "",
          "type": "uint256"
        }
      ],
      "stateMutability": "view",
      "type": "function"
    },
    {
      "inputs": [],
      "name": "chi_beta",
      "outputs": [
        {
          "internalType": "uint256",
          "name": "",
          "type": "uint256"
        }
      ],
      "stateMutability": "view",
      "type": "function"
    },
    {
      "inputs": [],
      "name": "chi_beta_Prec",
      "outputs": [
        {
          "internalType": "uint256",
          "name": "",
          "type": "uint256"
        }
      ],
      "stateMutability": "view",
      "type": "function"
    },
    {
      "inputs": [],
      "name": "chi_gamma",
      "outputs": [
        {
          "internalType": "uint256",
          "name": "",
          "type": "uint256"
        }
      ],
      "stateMutability": "view",
      "type": "function"
    },
    {
      "inputs": [],
      "name": "chi_gamma_Prec",
      "outputs": [
        {
          "internalType": "uint256",
          "name": "",
          "type": "uint256"
        }
      ],
      "stateMutability": "view",
      "type": "function"
    },
    {
      "inputs": [],
      "name": "collaValut",
      "outputs": [
        {
          "internalType": "address",
          "name": "",
          "type": "address"
        }
      ],
      "stateMutability": "view",
      "type": "function"
    },
    {
      "inputs": [],
      "name": "mintRedeemAllowed",
      "outputs": [
        {
          "internalType": "bool",
          "name": "",
          "type": "bool"
        }
      ],
      "stateMutability": "view",
      "type": "function"
    },
    {
      "inputs": [],
      "name": "oracleAddr",
      "outputs": [
        {
          "internalType": "address",
          "name": "",
          "type": "address"
        }
      ],
      "stateMutability": "view",
      "type": "function"
    },
    {
      "inputs": [],
      "name": "startBlockHeight",
      "outputs": [
        {
          "internalType": "uint256",
          "name": "",
          "type": "uint256"
        }
      ],
      "stateMutability": "view",
      "type": "function"
    },
    {
      "inputs": [],
      "name": "swapFeePresion",
      "outputs": [
        {
          "internalType": "uint256",
          "name": "",
          "type": "uint256"
        }
      ],
      "stateMutability": "view",
      "type": "function"
    },
    {
      "inputs": [],
      "name": "swapFee_A",
      "outputs": [
        {
          "internalType": "uint256",
          "name": "",
          "type": "uint256"
        }
      ],
      "stateMutability": "view",
      "type": "function"
    },
    {
      "inputs": [],
      "name": "swapFee_A_Prec",
      "outputs": [
        {
          "internalType": "uint256",
          "name": "",
          "type": "uint256"
        }
      ],
      "stateMutability": "view",
      "type": "function"
    },
    {
      "inputs": [],
      "name": "swapFee_a",
      "outputs": [
        {
          "internalType": "uint32",
          "name": "",
          "type": "uint32"
        }
      ],
      "stateMutability": "view",
      "type": "function"
    },
    {
      "inputs": [],
      "name": "swapFee_a_Prec",
      "outputs": [
        {
          "internalType": "uint32",
          "name": "",
          "type": "uint32"
        }
      ],
      "stateMutability": "view",
      "type": "function"
    },
    {
      "inputs": [],
      "name": "swapFee_p",
      "outputs": [
        {
          "internalType": "uint256",
          "name": "",
          "type": "uint256"
        }
      ],
      "stateMutability": "view",
      "type": "function"
    },
    {
      "inputs": [],
      "name": "swapFee_p_Prec",
      "outputs": [
        {
          "internalType": "uint256",
          "name": "",
          "type": "uint256"
        }
      ],
      "stateMutability": "view",
      "type": "function"
    },
    {
      "inputs": [],
      "name": "swapFee_theta",
      "outputs": [
        {
          "internalType": "uint256",
          "name": "",
          "type": "uint256"
        }
      ],
      "stateMutability": "view",
      "type": "function"
    },
    {
      "inputs": [],
      "name": "swapFee_theta_Prec",
      "outputs": [
        {
          "internalType": "uint256",
          "name": "",
          "type": "uint256"
        }
      ],
      "stateMutability": "view",
      "type": "function"
    },
    {
      "inputs": [],
      "name": "swapfeeInAllowed",
      "outputs": [
        {
          "internalType": "bool",
          "name": "",
          "type": "bool"
        }
      ],
      "stateMutability": "view",
      "type": "function"
    },
    {
      "inputs": [],
      "name": "swapfeeOutAllowed",
      "outputs": [
        {
          "internalType": "bool",
          "name": "",
          "type": "bool"
        }
      ],
      "stateMutability": "view",
      "type": "function"
    }
  ],
  "bytecode": "0x608060405234801561001057600080fd5b5061072e806100206000396000f3fe608060405234801561001057600080fd5b50600436106101a95760003560e01c80639c11ca73116100f9578063ceee77ed11610097578063faa5f34b11610071578063faa5f34b146104f6578063faeddc9014610514578063fc703aa614610532578063fc9dc4ff14610550576101a9565b8063ceee77ed14610470578063e1da5380146104a4578063f62f8430146104c2576101a9565b8063a0fda95e116100d3578063a0fda95e146103cc578063bbf274be146103ea578063be002f6e14610408578063cc31fccb1461043c576101a9565b80639c11ca73146103705780639f8fdafe1461038e578063a09caa18146103ac576101a9565b80634b521499116101665780637080460f116101405780637080460f146102e057806372386371146103005780637e4e61d71461031e57806396fd7db614610352576101a9565b80634b5214991461027e57806357635e911461029c5780635e0d5f13146102bc576101a9565b806316e63e30146101ae578063276545fe146101e257806332ad97ab1461020057806333f8bdfe1461021e57806337d87d701461023c5780633f521f8c14610260575b600080fd5b6101b661056e565b604051808273ffffffffffffffffffffffffffffffffffffffff16815260200191505060405180910390f35b6101ea610594565b6040518082815260200191505060405180910390f35b610208610599565b6040518082815260200191505060405180910390f35b6102266105a7565b6040518082815260200191505060405180910390f35b6102446105ae565b604051808263ffffffff16815260200191505060405180910390f35b6102686105b3565b6040518082815260200191505060405180910390f35b6102866105b8565b6040518082815260200191505060405180910390f35b6102a46105bf565b60405180821515815260200191505060405180910390f35b6102c46105d0565b604051808263ffffffff16815260200191505060405180910390f35b6102e86105d5565b60405180821515815260200191505060405180910390f35b6103086105e8565b6040518082815260200191505060405180910390f35b6103266105f3565b604051808273ffffffffffffffffffffffffffffffffffffffff16815260200191505060405180910390f35b61035a610619565b6040518082815260200191505060405180910390f35b61037861061e565b6040518082815260200191505060405180910390f35b610396610623565b6040518082815260200191505060405180910390f35b6103b4610628565b60405180821515815260200191505060405180910390f35b6103d461063b565b6040518082815260200191505060405180910390f35b6103f2610640565b6040518082815260200191505060405180910390f35b610410610645565b604051808273ffffffffffffffffffffffffffffffffffffffff16815260200191505060405180910390f35b61044461066b565b604051808273ffffffffffffffffffffffffffffffffffffffff16815260200191505060405180910390f35b610478610691565b604051808273ffffffffffffffffffffffffffffffffffffffff16815260200191505060405180910390f35b6104ac6106b7565b6040518082815260200191505060405180910390f35b6104ca6106bc565b604051808273ffffffffffffffffffffffffffffffffffffffff16815260200191505060405180910390f35b6104fe6106e2565b6040518082815260200191505060405180910390f35b61051c6106e7565b6040518082815260200191505060405180910390f35b61053a6106ed565b6040518082815260200191505060405180910390f35b6105586106f2565b6040518082815260200191505060405180910390f35b600460009054906101000a900473ffffffffffffffffffffffffffffffffffffffff1681565b606381565b69152d02c7e14af680000081565b620186a081565b600c81565b600181565b620f424081565b60008054906101000a900460ff1681565b600a81565b600060029054906101000a900460ff1681565b66123a3aa239f65c81565b600560009054906101000a900473ffffffffffffffffffffffffffffffffffffffff1681565b600981565b600181565b600181565b600060019054906101000a900460ff1681565b601481565b606481565b600860009054906101000a900473ffffffffffffffffffffffffffffffffffffffff1681565b600960009054906101000a900473ffffffffffffffffffffffffffffffffffffffff1681565b600660009054906101000a900473ffffffffffffffffffffffffffffffffffffffff1681565b603281565b600760009054906101000a900473ffffffffffffffffffffffffffffffffffffffff1681565b600181565b600b5481565b600181565b600a548156fea26469706673582212209a048ffffed01928180ec9e7058d801c9fc53fad936887d96738d0ae5582e3ec64736f6c634300060c0033",
  "immutableReferences": {},
  "source": "pragma solidity ^0.6.12;\n\nimport { USDs } from \"../token/USDs.sol\";\nimport { BancorFormula } from \"../libraries/BancorFormula.sol\";\n\ncontract VaultStorage {\n\tbool public mintRedeemAllowed;\n\n\tbool public swapfeeInAllowed;\n\tbool public swapfeeOutAllowed;\n\n\tmapping(address => bool) supportedCollat;\n\taddress[] allCollat;\n\taddress[] allStrategies;\n\n\taddress public SPATokenAddr;\n\taddress public oracleAddr;\n\taddress public collaValut;\n\taddress public SPAValut;\n\taddress public USDsFeeValut;\n\taddress public USDsYieldValut;\n\n\tuint public startBlockHeight;\n\n\tuint public chiInit;\n\tuint public constant chiPrec = 100000;\n\tuint public constant chi_alpha = 5130573085013596;\n\tuint public constant chi_alpha_Prec = 10**23;\n\tuint public constant chi_beta = 9;\n\tuint public constant chi_beta_Prec = 1;\n\tuint public constant chi_gamma = 1;\n\tuint public constant chi_gamma_Prec = 1;\n\n\n\tuint public constant swapFeePresion = 1000000;\n\tuint public constant swapFee_p = 99;\n\tuint public constant swapFee_p_Prec = 100;\n\tuint public constant swapFee_theta = 50;\n\tuint public constant swapFee_theta_Prec = 1;\n\tuint32 public constant swapFee_a = 12;\n\tuint32 public constant swapFee_a_Prec = 10;\n\tuint public constant swapFee_A = 20;\n\tuint public constant swapFee_A_Prec = 1;\n\n\n\tUSDs USDsInstance;\n\tBancorFormula BancorInstance;\n\n}\n",
  "sourcePath": "/Volumes/Work/Sperax/USDs/contracts/vault/VaultStorage.sol",
  "compiler": {
    "name": "solc",
    "version": "0.6.12+commit.27d51765.Emscripten.clang"
  },
  "schemaVersion": "3.4.0",
  "updatedAt": "2021-07-22T17:47:48.531Z",
  "devdoc": {
    "kind": "dev",
    "methods": {},
    "version": 1
  },
  "userdoc": {
    "kind": "user",
    "methods": {},
    "version": 1
  }
}