{
  "contractName": "VaultCore",
  "abi": [
    {
      "anonymous": false,
      "inputs": [
        {
          "indexed": true,
          "internalType": "bool",
          "name": "permission",
          "type": "bool"
        }
      ],
      "name": "AllocationPermssionChanged",
      "type": "event"
    },
    {
      "anonymous": false,
      "inputs": [
        {
          "indexed": true,
          "internalType": "address",
          "name": "collateralAddr",
          "type": "address"
        },
        {
          "indexed": false,
          "internalType": "bool",
          "name": "supported",
          "type": "bool"
        },
        {
          "indexed": false,
          "internalType": "address",
          "name": "defaultStrategyAddr",
          "type": "address"
        },
        {
          "indexed": false,
          "internalType": "bool",
          "name": "allocationAllowed",
          "type": "bool"
        },
        {
          "indexed": false,
          "internalType": "address",
          "name": "buyBackAddr",
          "type": "address"
        },
        {
          "indexed": false,
          "internalType": "bool",
          "name": "rebaseAllowed",
          "type": "bool"
        }
      ],
      "name": "CollateralInfoChanged",
      "type": "event"
    },
    {
      "anonymous": false,
      "inputs": [
        {
          "indexed": true,
          "internalType": "bool",
          "name": "permission",
          "type": "bool"
        }
      ],
      "name": "MintRedeemPermssionChanged",
      "type": "event"
    },
    {
      "anonymous": false,
      "inputs": [
        {
          "indexed": true,
          "internalType": "address",
          "name": "previousOwner",
          "type": "address"
        },
        {
          "indexed": true,
          "internalType": "address",
          "name": "newOwner",
          "type": "address"
        }
      ],
      "name": "OwnershipTransferred",
      "type": "event"
    },
    {
      "anonymous": false,
      "inputs": [
        {
          "indexed": true,
          "internalType": "uint256",
          "name": "oldSupply",
          "type": "uint256"
        },
        {
          "indexed": true,
          "internalType": "uint256",
          "name": "newSupply",
          "type": "uint256"
        }
      ],
      "name": "Rebase",
      "type": "event"
    },
    {
      "anonymous": false,
      "inputs": [
        {
          "indexed": false,
          "internalType": "address",
          "name": "strategyAddr",
          "type": "address"
        },
        {
          "indexed": false,
          "internalType": "bool",
          "name": "enabled",
          "type": "bool"
        }
      ],
      "name": "StrategyInfoChanged",
      "type": "event"
    },
    {
      "anonymous": false,
      "inputs": [
        {
          "indexed": true,
          "internalType": "bool",
          "name": "permission",
          "type": "bool"
        }
      ],
      "name": "SwapFeeInPermissionChanged",
      "type": "event"
    },
    {
      "anonymous": false,
      "inputs": [
        {
          "indexed": true,
          "internalType": "bool",
          "name": "permission",
          "type": "bool"
        }
      ],
      "name": "SwapFeeOutPermissionChanged",
      "type": "event"
    },
    {
      "anonymous": false,
      "inputs": [
        {
          "indexed": true,
          "internalType": "address",
          "name": "wallet",
          "type": "address"
        },
        {
          "indexed": true,
          "internalType": "uint256",
          "name": "USDsAmt",
          "type": "uint256"
        },
        {
          "indexed": false,
          "internalType": "uint256",
          "name": "collateralAmt",
          "type": "uint256"
        },
        {
          "indexed": false,
          "internalType": "uint256",
          "name": "SPAsAmt",
          "type": "uint256"
        },
        {
          "indexed": false,
          "internalType": "uint256",
          "name": "feeAmt",
          "type": "uint256"
        }
      ],
      "name": "USDsMinted",
      "type": "event"
    },
    {
      "anonymous": false,
      "inputs": [
        {
          "indexed": true,
          "internalType": "address",
          "name": "wallet",
          "type": "address"
        },
        {
          "indexed": true,
          "internalType": "uint256",
          "name": "USDsAmt",
          "type": "uint256"
        },
        {
          "indexed": false,
          "internalType": "uint256",
          "name": "collateralAmt",
          "type": "uint256"
        },
        {
          "indexed": false,
          "internalType": "uint256",
          "name": "SPAsAmt",
          "type": "uint256"
        },
        {
          "indexed": false,
          "internalType": "uint256",
          "name": "feeAmt",
          "type": "uint256"
        }
      ],
      "name": "USDsRedeemed",
      "type": "event"
    },
    {
      "anonymous": false,
      "inputs": [
        {
          "indexed": false,
          "internalType": "uint64",
          "name": "_chiInit",
          "type": "uint64"
        },
        {
          "indexed": false,
          "internalType": "uint32",
          "name": "_chi_beta",
          "type": "uint32"
        },
        {
          "indexed": false,
          "internalType": "uint32",
          "name": "_chi_gamma",
          "type": "uint32"
        },
        {
          "indexed": false,
          "internalType": "uint32",
          "name": "_swapFee_p",
          "type": "uint32"
        },
        {
          "indexed": false,
          "internalType": "uint32",
          "name": "_swapFee_theta",
          "type": "uint32"
        },
        {
          "indexed": false,
          "internalType": "uint32",
          "name": "_swapFee_a",
          "type": "uint32"
        },
        {
          "indexed": false,
          "internalType": "uint32",
          "name": "_swapFee_A",
          "type": "uint32"
        },
        {
          "indexed": false,
          "internalType": "uint32",
          "name": "_allocatePrecentage",
          "type": "uint32"
        }
      ],
      "name": "parametersUpdated",
      "type": "event"
    },
    {
      "inputs": [],
      "name": "BancorInstance",
      "outputs": [
        {
          "internalType": "contract BancorFormula",
          "name": "",
          "type": "address"
        }
      ],
      "stateMutability": "view",
      "type": "function"
    },
    {
      "inputs": [],
      "name": "SPAaddr",
      "outputs": [
        {
          "internalType": "address",
          "name": "",
          "type": "address"
        }
      ],
      "stateMutability": "view",
      "type": "function"
    },
    {
      "inputs": [],
      "name": "SPAburnt",
      "outputs": [
        {
          "internalType": "uint256",
          "name": "",
          "type": "uint256"
        }
      ],
      "stateMutability": "view",
      "type": "function"
    },
    {
      "inputs": [],
      "name": "SPAminted",
      "outputs": [
        {
          "internalType": "uint256",
          "name": "",
          "type": "uint256"
        }
      ],
      "stateMutability": "view",
      "type": "function"
    },
    {
      "inputs": [],
      "name": "SPAvault",
      "outputs": [
        {
          "internalType": "address",
          "name": "",
          "type": "address"
        }
      ],
      "stateMutability": "view",
      "type": "function"
    },
    {
      "inputs": [],
      "name": "allocatePrecentage",
      "outputs": [
        {
          "internalType": "uint32",
          "name": "",
          "type": "uint32"
        }
      ],
      "stateMutability": "view",
      "type": "function"
    },
    {
      "inputs": [],
      "name": "allocatePrecentage_prec",
      "outputs": [
        {
          "internalType": "uint16",
          "name": "",
          "type": "uint16"
        }
      ],
      "stateMutability": "view",
      "type": "function"
    },
    {
      "inputs": [],
      "name": "allocationAllowed",
      "outputs": [
        {
          "internalType": "bool",
          "name": "",
          "type": "bool"
        }
      ],
      "stateMutability": "view",
      "type": "function"
    },
    {
      "inputs": [],
      "name": "chiInit",
      "outputs": [
        {
          "internalType": "uint64",
          "name": "",
          "type": "uint64"
        }
      ],
      "stateMutability": "view",
      "type": "function"
    },
    {
      "inputs": [],
      "name": "chi_alpha",
      "outputs": [
        {
          "internalType": "uint32",
          "name": "",
          "type": "uint32"
        }
      ],
      "stateMutability": "view",
      "type": "function"
    },
    {
      "inputs": [],
      "name": "chi_alpha_prec",
      "outputs": [
        {
          "internalType": "uint64",
          "name": "",
          "type": "uint64"
        }
      ],
      "stateMutability": "view",
      "type": "function"
    },
    {
      "inputs": [],
      "name": "chi_beta",
      "outputs": [
        {
          "internalType": "uint32",
          "name": "",
          "type": "uint32"
        }
      ],
      "stateMutability": "view",
      "type": "function"
    },
    {
      "inputs": [],
      "name": "chi_beta_prec",
      "outputs": [
        {
          "internalType": "uint16",
          "name": "",
          "type": "uint16"
        }
      ],
      "stateMutability": "view",
      "type": "function"
    },
    {
      "inputs": [],
      "name": "chi_gamma",
      "outputs": [
        {
          "internalType": "uint32",
          "name": "",
          "type": "uint32"
        }
      ],
      "stateMutability": "view",
      "type": "function"
    },
    {
      "inputs": [],
      "name": "chi_gamma_prec",
      "outputs": [
        {
          "internalType": "uint16",
          "name": "",
          "type": "uint16"
        }
      ],
      "stateMutability": "view",
      "type": "function"
    },
    {
      "inputs": [],
      "name": "chi_prec",
      "outputs": [
        {
          "internalType": "uint64",
          "name": "",
          "type": "uint64"
        }
      ],
      "stateMutability": "view",
      "type": "function"
    },
    {
      "inputs": [],
      "name": "mintRedeemAllowed",
      "outputs": [
        {
          "internalType": "bool",
          "name": "",
          "type": "bool"
        }
      ],
      "stateMutability": "view",
      "type": "function"
    },
    {
      "inputs": [],
      "name": "oracleAddr",
      "outputs": [
        {
          "internalType": "address",
          "name": "",
          "type": "address"
        }
      ],
      "stateMutability": "view",
      "type": "function"
    },
    {
      "inputs": [],
      "name": "owner",
      "outputs": [
        {
          "internalType": "address",
          "name": "",
          "type": "address"
        }
      ],
      "stateMutability": "view",
      "type": "function"
    },
    {
      "inputs": [],
      "name": "rebaseAllowed",
      "outputs": [
        {
          "internalType": "bool",
          "name": "",
          "type": "bool"
        }
      ],
      "stateMutability": "view",
      "type": "function"
    },
    {
      "inputs": [],
      "name": "renounceOwnership",
      "outputs": [],
      "stateMutability": "nonpayable",
      "type": "function"
    },
    {
      "inputs": [],
      "name": "startBlockHeight",
      "outputs": [
        {
          "internalType": "uint256",
          "name": "",
          "type": "uint256"
        }
      ],
      "stateMutability": "view",
      "type": "function"
    },
    {
      "inputs": [
        {
          "internalType": "address",
          "name": "",
          "type": "address"
        }
      ],
      "name": "supportedCollateral",
      "outputs": [
        {
          "internalType": "uint256",
          "name": "",
          "type": "uint256"
        }
      ],
      "stateMutability": "view",
      "type": "function"
    },
    {
      "inputs": [],
      "name": "swapFee_A",
      "outputs": [
        {
          "internalType": "uint32",
          "name": "",
          "type": "uint32"
        }
      ],
      "stateMutability": "view",
      "type": "function"
    },
    {
      "inputs": [],
      "name": "swapFee_A_prec",
      "outputs": [
        {
          "internalType": "uint16",
          "name": "",
          "type": "uint16"
        }
      ],
      "stateMutability": "view",
      "type": "function"
    },
    {
      "inputs": [],
      "name": "swapFee_a",
      "outputs": [
        {
          "internalType": "uint32",
          "name": "",
          "type": "uint32"
        }
      ],
      "stateMutability": "view",
      "type": "function"
    },
    {
      "inputs": [],
      "name": "swapFee_a_prec",
      "outputs": [
        {
          "internalType": "uint16",
          "name": "",
          "type": "uint16"
        }
      ],
      "stateMutability": "view",
      "type": "function"
    },
    {
      "inputs": [],
      "name": "swapFee_p",
      "outputs": [
        {
          "internalType": "uint32",
          "name": "",
          "type": "uint32"
        }
      ],
      "stateMutability": "view",
      "type": "function"
    },
    {
      "inputs": [],
      "name": "swapFee_p_prec",
      "outputs": [
        {
          "internalType": "uint16",
          "name": "",
          "type": "uint16"
        }
      ],
      "stateMutability": "view",
      "type": "function"
    },
    {
      "inputs": [],
      "name": "swapFee_prec",
      "outputs": [
        {
          "internalType": "uint64",
          "name": "",
          "type": "uint64"
        }
      ],
      "stateMutability": "view",
      "type": "function"
    },
    {
      "inputs": [],
      "name": "swapFee_theta",
      "outputs": [
        {
          "internalType": "uint32",
          "name": "",
          "type": "uint32"
        }
      ],
      "stateMutability": "view",
      "type": "function"
    },
    {
      "inputs": [],
      "name": "swapFee_theta_prec",
      "outputs": [
        {
          "internalType": "uint16",
          "name": "",
          "type": "uint16"
        }
      ],
      "stateMutability": "view",
      "type": "function"
    },
    {
      "inputs": [],
      "name": "swapfeeInAllowed",
      "outputs": [
        {
          "internalType": "bool",
          "name": "",
          "type": "bool"
        }
      ],
      "stateMutability": "view",
      "type": "function"
    },
    {
      "inputs": [],
      "name": "swapfeeOutAllowed",
      "outputs": [
        {
          "internalType": "bool",
          "name": "",
          "type": "bool"
        }
      ],
      "stateMutability": "view",
      "type": "function"
    },
    {
      "inputs": [
        {
          "internalType": "address",
          "name": "newOwner",
          "type": "address"
        }
      ],
      "name": "transferOwnership",
      "outputs": [],
      "stateMutability": "nonpayable",
      "type": "function"
    },
    {
      "inputs": [],
      "name": "initialize",
      "outputs": [],
      "stateMutability": "nonpayable",
      "type": "function"
    },
    {
      "inputs": [
        {
          "internalType": "address",
          "name": "_USDsAddr",
          "type": "address"
        }
      ],
      "name": "updateUSDsAddress",
      "outputs": [],
      "stateMutability": "nonpayable",
      "type": "function"
    },
    {
      "inputs": [
        {
          "internalType": "address",
          "name": "_oracleAddr",
          "type": "address"
        }
      ],
      "name": "updateOracleAddress",
      "outputs": [],
      "stateMutability": "nonpayable",
      "type": "function"
    },
    {
      "inputs": [
        {
          "internalType": "uint64",
          "name": "_chiInit",
          "type": "uint64"
        },
        {
          "internalType": "uint32",
          "name": "_chi_beta",
          "type": "uint32"
        },
        {
          "internalType": "uint32",
          "name": "_chi_gamma",
          "type": "uint32"
        },
        {
          "internalType": "uint32",
          "name": "_swapFee_p",
          "type": "uint32"
        },
        {
          "internalType": "uint32",
          "name": "_swapFee_theta",
          "type": "uint32"
        },
        {
          "internalType": "uint32",
          "name": "_swapFee_a",
          "type": "uint32"
        },
        {
          "internalType": "uint32",
          "name": "_swapFee_A",
          "type": "uint32"
        },
        {
          "internalType": "uint32",
          "name": "_allocatePrecentage",
          "type": "uint32"
        }
      ],
      "name": "updateParameters",
      "outputs": [],
      "stateMutability": "nonpayable",
      "type": "function"
    },
    {
      "inputs": [
        {
          "internalType": "bool",
          "name": "_mintRedeemAllowed",
          "type": "bool"
        }
      ],
      "name": "updateMintBurnPermission",
      "outputs": [],
      "stateMutability": "nonpayable",
      "type": "function"
    },
    {
      "inputs": [
        {
          "internalType": "bool",
          "name": "_allocationAllowed",
          "type": "bool"
        }
      ],
      "name": "updateAllocationPermission",
      "outputs": [],
      "stateMutability": "nonpayable",
      "type": "function"
    },
    {
      "inputs": [
        {
          "internalType": "bool",
          "name": "_swapfeeInAllowed",
          "type": "bool"
        }
      ],
      "name": "updateSwapInFee",
      "outputs": [],
      "stateMutability": "nonpayable",
      "type": "function"
    },
    {
      "inputs": [
        {
          "internalType": "bool",
          "name": "_swapfeeOutAllowed",
          "type": "bool"
        }
      ],
      "name": "updateSwapOutFee",
      "outputs": [],
      "stateMutability": "nonpayable",
      "type": "function"
    },
    {
      "inputs": [
        {
          "internalType": "address",
          "name": "_collateralAddr",
          "type": "address"
        },
        {
          "internalType": "bool",
          "name": "_supported",
          "type": "bool"
        },
        {
          "internalType": "address",
          "name": "_defaultStrategyAddr",
          "type": "address"
        },
        {
          "internalType": "bool",
          "name": "_allocationAllowed",
          "type": "bool"
        },
        {
          "internalType": "address",
          "name": "_buyBackAddr",
          "type": "address"
        },
        {
          "internalType": "bool",
          "name": "_rebaseAllowed",
          "type": "bool"
        }
      ],
      "name": "updateCollateralInfo",
      "outputs": [],
      "stateMutability": "nonpayable",
      "type": "function"
    },
    {
      "inputs": [
        {
          "internalType": "address",
          "name": "_strategyAddr",
          "type": "address"
        },
        {
          "internalType": "bool",
          "name": "_enabled",
          "type": "bool"
        }
      ],
      "name": "updateStrategyInfo",
      "outputs": [],
      "stateMutability": "nonpayable",
      "type": "function"
    },
    {
      "inputs": [
        {
          "internalType": "address",
          "name": "collateralAddr",
          "type": "address"
        },
        {
          "internalType": "uint256",
          "name": "USDsMintAmt",
          "type": "uint256"
        },
        {
          "internalType": "uint256",
          "name": "slippageCollateral",
          "type": "uint256"
        },
        {
          "internalType": "uint256",
          "name": "slippageSPA",
          "type": "uint256"
        },
        {
          "internalType": "uint256",
          "name": "deadline",
          "type": "uint256"
        }
      ],
      "name": "mintWithUSDs",
      "outputs": [],
      "stateMutability": "nonpayable",
      "type": "function"
    },
    {
      "inputs": [
        {
          "internalType": "address",
          "name": "collateralAddr",
          "type": "address"
        },
        {
          "internalType": "uint256",
          "name": "SPAamt",
          "type": "uint256"
        },
        {
          "internalType": "uint256",
          "name": "slippageUSDs",
          "type": "uint256"
        },
        {
          "internalType": "uint256",
          "name": "slippageCollateral",
          "type": "uint256"
        },
        {
          "internalType": "uint256",
          "name": "deadline",
          "type": "uint256"
        }
      ],
      "name": "mintWithSPA",
      "outputs": [],
      "stateMutability": "nonpayable",
      "type": "function"
    },
    {
      "inputs": [
        {
          "internalType": "address",
          "name": "collateralAddr",
          "type": "address"
        },
        {
          "internalType": "uint256",
          "name": "collateralAmt",
          "type": "uint256"
        },
        {
          "internalType": "uint256",
          "name": "slippageUSDs",
          "type": "uint256"
        },
        {
          "internalType": "uint256",
          "name": "slippageSPA",
          "type": "uint256"
        },
        {
          "internalType": "uint256",
          "name": "deadline",
          "type": "uint256"
        }
      ],
      "name": "mintWithColla",
      "outputs": [],
      "stateMutability": "nonpayable",
      "type": "function"
    },
    {
      "inputs": [
        {
          "internalType": "uint256",
          "name": "slippageUSDs",
          "type": "uint256"
        },
        {
          "internalType": "uint256",
          "name": "slippageSPA",
          "type": "uint256"
        },
        {
          "internalType": "uint256",
          "name": "deadline",
          "type": "uint256"
        }
      ],
      "name": "mintWithEth",
      "outputs": [],
      "stateMutability": "payable",
      "type": "function"
    },
    {
      "inputs": [
        {
          "internalType": "address",
          "name": "collateralAddr",
          "type": "address"
        },
        {
          "internalType": "uint256",
          "name": "USDsAmt",
          "type": "uint256"
        },
        {
          "internalType": "uint256",
          "name": "slippageCollat",
          "type": "uint256"
        },
        {
          "internalType": "uint256",
          "name": "slippageSPA",
          "type": "uint256"
        },
        {
          "internalType": "uint256",
          "name": "deadline",
          "type": "uint256"
        }
      ],
      "name": "redeem",
      "outputs": [],
      "stateMutability": "nonpayable",
      "type": "function"
    },
    {
      "inputs": [],
      "name": "rebase",
      "outputs": [],
      "stateMutability": "nonpayable",
      "type": "function"
    },
    {
      "inputs": [],
      "name": "collateralRatio",
      "outputs": [
        {
          "internalType": "uint256",
          "name": "ratio",
          "type": "uint256"
        }
      ],
      "stateMutability": "view",
      "type": "function"
    },
    {
      "inputs": [],
      "name": "totalValueLocked",
      "outputs": [
        {
          "internalType": "uint256",
          "name": "value",
          "type": "uint256"
        }
      ],
      "stateMutability": "view",
      "type": "function"
    },
    {
      "inputs": [],
      "name": "totalValueInVault",
      "outputs": [
        {
          "internalType": "uint256",
          "name": "value",
          "type": "uint256"
        }
      ],
      "stateMutability": "view",
      "type": "function"
    },
    {
      "inputs": [],
      "name": "totalValueInStrategies",
      "outputs": [
        {
          "internalType": "uint256",
          "name": "value",
          "type": "uint256"
        }
      ],
      "stateMutability": "view",
      "type": "function"
    },
    {
      "inputs": [],
      "name": "allocateAll",
      "outputs": [],
      "stateMutability": "nonpayable",
      "type": "function"
    },
    {
      "inputs": [
        {
          "internalType": "address",
          "name": "_collateralAddr",
          "type": "address"
        },
        {
          "internalType": "uint256",
          "name": "amtToAllocate",
          "type": "uint256"
        }
      ],
      "name": "allocate",
      "outputs": [],
      "stateMutability": "nonpayable",
      "type": "function"
    }
  ],
  "bytecode": "0x608060405234801561001057600080fd5b50616bd780620000216000396000f3fe6080604052600436106103765760003560e01c80638129fc1c116101d1578063b78b52df11610102578063e32974fe116100a0578063f7023bb61161006f578063f7023bb61461104e578063fa550eba1461109f578063faeddc9014611104578063fc9dc4ff1461113957610376565b8063e32974fe14610f68578063ec18154e14610fa5578063edbbdb9714610fd0578063f2fde38b14610ffd57610376565b8063c6d15e1b116100dc578063c6d15e1b14610e02578063d8ea64d614610e53578063dfeaedb814610e82578063e1da538014610f3757610376565b8063b78b52df14610d31578063b845a12914610d8c578063bcb083c114610dc157610376565b8063a09caa181161016f578063a9e3458c11610149578063a9e3458c14610c0e578063aa7fdee514610c39578063af14052c14610cef578063b4eae1cb14610d0657610376565b8063a09caa1814610b37578063a0fda95e14610b64578063a49fdb4914610b9557610376565b80638da5cb5b116101ab5780638da5cb5b14610a575780638e5f289814610a985780638eb1281414610ad557806396fd7db614610b0657610376565b80638129fc1c146109d05780638177b4a6146109e757806381b67a3014610a1657610376565b806357635e91116102ab5780637080460f1161024957806377a41af11161022357806377a41af1146108fa57806377f0c615146109375780637e428dac146109645780637e4e61d71461098f57610376565b80637080460f14610885578063715018a6146108b257806372386371146108c957610376565b80635a9a9438116102855780635a9a9438146107855780635c68308d1461079c5780636707d12e146107dd57806368ee35911461085657610376565b806357635e91146106cc57806358d7be8f146106f9578063598e6c081461072857610376565b80633881d70c1161031857806347be1c3e116102f257806347be1c3e146105ca5780634aba3121146105f95780634b24e3d3146106285780635109ef1c146106a157610376565b80633881d70c146104e35780633c533b561461055c5780633f521f8c1461059957610376565b80632206ccbc116103545780632206ccbc1461041d578063276545fe1461044c57806332e197f41461047d57806337d87d70146104b257610376565b806306ec8cd71461037b5780630d170b03146103b057806317852264146103f2575b600080fd5b34801561038757600080fd5b50610390611164565b604051808267ffffffffffffffff16815260200191505060405180910390f35b6103f0600480360360608110156103c657600080fd5b8101908080359060200190929190803590602001909291908035906020019092919050505061116d565b005b3480156103fe57600080fd5b5061040761127b565b6040518082815260200191505060405180910390f35b34801561042957600080fd5b5061043261128a565b604051808261ffff16815260200191505060405180910390f35b34801561045857600080fd5b50610461611290565b604051808263ffffffff16815260200191505060405180910390f35b34801561048957600080fd5b506104926112a6565b604051808267ffffffffffffffff16815260200191505060405180910390f35b3480156104be57600080fd5b506104c76112af565b604051808263ffffffff16815260200191505060405180910390f35b3480156104ef57600080fd5b5061055a600480360360a081101561050657600080fd5b81019080803573ffffffffffffffffffffffffffffffffffffffff169060200190929190803590602001909291908035906020019092919080359060200190929190803590602001909291905050506112c5565b005b34801561056857600080fd5b506105976004803603602081101561057f57600080fd5b81019080803515159060200190929190505050611479565b005b3480156105a557600080fd5b506105ae611583565b604051808263ffffffff16815260200191505060405180910390f35b3480156105d657600080fd5b506105df611599565b604051808261ffff16815260200191505060405180910390f35b34801561060557600080fd5b5061060e61159f565b604051808261ffff16815260200191505060405180910390f35b34801561063457600080fd5b5061069f600480360360a081101561064b57600080fd5b81019080803573ffffffffffffffffffffffffffffffffffffffff169060200190929190803590602001909291908035906020019092919080359060200190929190803590602001909291905050506115a5565b005b3480156106ad57600080fd5b506106b6611759565b6040518082815260200191505060405180910390f35b3480156106d857600080fd5b506106e161175f565b60405180821515815260200191505060405180910390f35b34801561070557600080fd5b5061070e611772565b604051808261ffff16815260200191505060405180910390f35b34801561073457600080fd5b506107836004803603604081101561074b57600080fd5b81019080803573ffffffffffffffffffffffffffffffffffffffff169060200190929190803515159060200190929190505050611778565b005b34801561079157600080fd5b5061079a611835565b005b3480156107a857600080fd5b506107b1611d0d565b604051808273ffffffffffffffffffffffffffffffffffffffff16815260200191505060405180910390f35b3480156107e957600080fd5b50610854600480360360a081101561080057600080fd5b81019080803573ffffffffffffffffffffffffffffffffffffffff16906020019092919080359060200190929190803590602001909291908035906020019092919080359060200190929190505050611d33565b005b34801561086257600080fd5b5061086b611ee7565b604051808261ffff16815260200191505060405180910390f35b34801561089157600080fd5b5061089a611eed565b60405180821515815260200191505060405180910390f35b3480156108be57600080fd5b506108c7611f00565b005b3480156108d557600080fd5b506108de612070565b604051808263ffffffff16815260200191505060405180910390f35b34801561090657600080fd5b506109356004803603602081101561091d57600080fd5b81019080803515159060200190929190505050612086565b005b34801561094357600080fd5b5061094c612190565b60405180821515815260200191505060405180910390f35b34801561097057600080fd5b506109796121a3565b6040518082815260200191505060405180910390f35b34801561099b57600080fd5b506109a46121b2565b604051808273ffffffffffffffffffffffffffffffffffffffff16815260200191505060405180910390f35b3480156109dc57600080fd5b506109e56121d8565b005b3480156109f357600080fd5b506109fc612610565b604051808261ffff16815260200191505060405180910390f35b348015610a2257600080fd5b50610a2b612616565b604051808273ffffffffffffffffffffffffffffffffffffffff16815260200191505060405180910390f35b348015610a6357600080fd5b50610a6c61263c565b604051808273ffffffffffffffffffffffffffffffffffffffff16815260200191505060405180910390f35b348015610aa457600080fd5b50610ad360048036036020811015610abb57600080fd5b81019080803515159060200190929190505050612666565b005b348015610ae157600080fd5b50610aea612770565b604051808263ffffffff16815260200191505060405180910390f35b348015610b1257600080fd5b50610b1b612786565b604051808263ffffffff16815260200191505060405180910390f35b348015610b4357600080fd5b50610b4c61279c565b60405180821515815260200191505060405180910390f35b348015610b7057600080fd5b50610b796127af565b604051808263ffffffff16815260200191505060405180910390f35b348015610ba157600080fd5b50610c0c600480360360a0811015610bb857600080fd5b81019080803573ffffffffffffffffffffffffffffffffffffffff169060200190929190803590602001909291908035906020019092919080359060200190929190803590602001909291905050506127c5565b005b348015610c1a57600080fd5b50610c23612976565b6040518082815260200191505060405180910390f35b348015610c4557600080fd5b50610ced6004803603610100811015610c5d57600080fd5b81019080803567ffffffffffffffff169060200190929190803563ffffffff169060200190929190803563ffffffff169060200190929190803563ffffffff169060200190929190803563ffffffff169060200190929190803563ffffffff169060200190929190803563ffffffff169060200190929190803563ffffffff16906020019092919050505061297c565b005b348015610cfb57600080fd5b50610d04612c7c565b005b348015610d1257600080fd5b50610d1b612d35565b6040518082815260200191505060405180910390f35b348015610d3d57600080fd5b50610d8a60048036036040811015610d5457600080fd5b81019080803573ffffffffffffffffffffffffffffffffffffffff16906020019092919080359060200190929190505050612f9e565b005b348015610d9857600080fd5b50610da16130dd565b604051808267ffffffffffffffff16815260200191505060405180910390f35b348015610dcd57600080fd5b50610dd66130e6565b604051808273ffffffffffffffffffffffffffffffffffffffff16815260200191505060405180910390f35b348015610e0e57600080fd5b50610e5160048036036020811015610e2557600080fd5b81019080803573ffffffffffffffffffffffffffffffffffffffff16906020019092919050505061310c565b005b348015610e5f57600080fd5b50610e686131ff565b604051808261ffff16815260200191505060405180910390f35b348015610e8e57600080fd5b50610f35600480360360c0811015610ea557600080fd5b81019080803573ffffffffffffffffffffffffffffffffffffffff169060200190929190803515159060200190929190803573ffffffffffffffffffffffffffffffffffffffff169060200190929190803515159060200190929190803573ffffffffffffffffffffffffffffffffffffffff169060200190929190803515159060200190929190505050613205565b005b348015610f4357600080fd5b50610f4c6132ca565b604051808263ffffffff16815260200191505060405180910390f35b348015610f7457600080fd5b50610fa360048036036020811015610f8b57600080fd5b810190808035151590602001909291905050506132e0565b005b348015610fb157600080fd5b50610fba6133ea565b6040518082815260200191505060405180910390f35b348015610fdc57600080fd5b50610fe56133f9565b60405180821515815260200191505060405180910390f35b34801561100957600080fd5b5061104c6004803603602081101561102057600080fd5b81019080803573ffffffffffffffffffffffffffffffffffffffff16906020019092919050505061340c565b005b34801561105a57600080fd5b5061109d6004803603602081101561107157600080fd5b81019080803573ffffffffffffffffffffffffffffffffffffffff169060200190929190505050613601565b005b3480156110ab57600080fd5b506110ee600480360360208110156110c257600080fd5b81019080803573ffffffffffffffffffffffffffffffffffffffff1690602001909291905050506136f4565b6040518082815260200191505060405180910390f35b34801561111057600080fd5b5061111961370c565b604051808267ffffffffffffffff16815260200191505060405180910390f35b34801561114557600080fd5b5061114e613726565b6040518082815260200191505060405180910390f35b64e8d4a5100081565b606560009054906101000a900460ff166111ef576040517f08c379a00000000000000000000000000000000000000000000000000000000081526004018080602001828103825260148152602001807f4d696e7420262072656465656d2070617573656400000000000000000000000081525060200191505060405180910390fd5b60003411611265576040517f08c379a00000000000000000000000000000000000000000000000000000000081526004018080602001828103825260118152602001807f4e65656420746f2070617920457468657200000000000000000000000000000081525060200191505060405180910390fd5b61127660003460038634878761372c565b505050565b6000611285613ced565b905090565b61271081565b606d60149054906101000a900463ffffffff1681565b64e8d4a5100081565b606d601c9054906101000a900463ffffffff1681565b606560009054906101000a900460ff16611347576040517f08c379a00000000000000000000000000000000000000000000000000000000081526004018080602001828103825260148152602001807f4d696e7420262072656465656d2070617573656400000000000000000000000081525060200191505060405180910390fd5b607060008673ffffffffffffffffffffffffffffffffffffffff1673ffffffffffffffffffffffffffffffffffffffff16815260200190815260200160002060000160149054906101000a900460ff16611409576040517f08c379a00000000000000000000000000000000000000000000000000000000081526004018080602001828103825260188152602001807f436f6c6c61746572616c206e6f7420737570706f72746564000000000000000081525060200191505060405180910390fd5b60008411611462576040517f08c379a00000000000000000000000000000000000000000000000000000000081526004018080602001828103825260218152602001806169df6021913960400191505060405180910390fd5b611472858560008787878761372c565b5050505050565b611481613d98565b73ffffffffffffffffffffffffffffffffffffffff1661149f61263c565b73ffffffffffffffffffffffffffffffffffffffff1614611528576040517f08c379a00000000000000000000000000000000000000000000000000000000081526004018080602001828103825260208152602001807f4f776e61626c653a2063616c6c6572206973206e6f7420746865206f776e657281525060200191505060405180910390fd5b80606560006101000a81548160ff021916908315150217905550606560009054906101000a900460ff1615157f4aa2f044c925ec4ad9ac60a30b437e605ba4b7c4827d423be239b10228df4a4d60405160405180910390a250565b606d60109054906101000a900463ffffffff1681565b61271081565b61271081565b606560009054906101000a900460ff16611627576040517f08c379a00000000000000000000000000000000000000000000000000000000081526004018080602001828103825260148152602001807f4d696e7420262072656465656d2070617573656400000000000000000000000081525060200191505060405180910390fd5b607060008673ffffffffffffffffffffffffffffffffffffffff1673ffffffffffffffffffffffffffffffffffffffff16815260200190815260200160002060000160149054906101000a900460ff166116e9576040517f08c379a00000000000000000000000000000000000000000000000000000000081526004018080602001828103825260188152602001807f436f6c6c61746572616c206e6f7420737570706f72746564000000000000000081525060200191505060405180910390fd5b60008411611742576040517f08c379a00000000000000000000000000000000000000000000000000000000081526004018080602001828103825260218152602001806169df6021913960400191505060405180910390fd5b611752858560018686898761372c565b5050505050565b606b5481565b606560009054906101000a900460ff1681565b61271081565b611780613d98565b73ffffffffffffffffffffffffffffffffffffffff1661179e61263c565b73ffffffffffffffffffffffffffffffffffffffff1614611827576040517f08c379a00000000000000000000000000000000000000000000000000000000081526004018080602001828103825260208152602001807f4f776e61626c653a2063616c6c6572206973206e6f7420746865206f776e657281525060200191505060405180910390fd5b6118318282613da0565b5050565b606560019054906101000a900460ff166118b7576040517f08c379a000000000000000000000000000000000000000000000000000000000815260040180806020018281038252600f8152602001807f416c6c6f6361746520706175736564000000000000000000000000000000000081525060200191505060405180910390fd5b6118bf613d98565b73ffffffffffffffffffffffffffffffffffffffff166118dd61263c565b73ffffffffffffffffffffffffffffffffffffffff1614611966576040517f08c379a00000000000000000000000000000000000000000000000000000000081526004018080602001828103825260208152602001807f4f776e61626c653a2063616c6c6572206973206e6f7420746865206f776e657281525060200191505060405180910390fd5b60005b607280549050811015611d0a5761197e616887565b6072828154811061198b57fe5b90600052602060002090600302016040518060c00160405290816000820160009054906101000a900473ffffffffffffffffffffffffffffffffffffffff1673ffffffffffffffffffffffffffffffffffffffff1673ffffffffffffffffffffffffffffffffffffffff1681526020016000820160149054906101000a900460ff161515151581526020016001820160009054906101000a900473ffffffffffffffffffffffffffffffffffffffff1673ffffffffffffffffffffffffffffffffffffffff1673ffffffffffffffffffffffffffffffffffffffff1681526020016001820160149054906101000a900460ff161515151581526020016002820160009054906101000a900473ffffffffffffffffffffffffffffffffffffffff1673ffffffffffffffffffffffffffffffffffffffff1673ffffffffffffffffffffffffffffffffffffffff1681526020016002820160149054906101000a900460ff161515151581525050905080602001518015611b0b575080606001515b15611cfc576000816040015190506000826000015173ffffffffffffffffffffffffffffffffffffffff166370a08231306040518263ffffffff1660e01b8152600401808273ffffffffffffffffffffffffffffffffffffffff16815260200191505060206040518083038186803b158015611b8657600080fd5b505afa158015611b9a573d6000803e3d6000fd5b505050506040513d6020811015611bb057600080fd5b8101908080519060200190929190505050905060008273ffffffffffffffffffffffffffffffffffffffff16635f51522685600001516040518263ffffffff1660e01b8152600401808273ffffffffffffffffffffffffffffffffffffffff16815260200191505060206040518083038186803b158015611c3057600080fd5b505afa158015611c44573d6000803e3d6000fd5b505050506040513d6020811015611c5a57600080fd5b810190808051906020019092919050505090506000611c828284613e9e90919063ffffffff16565b90506000611cdb83611ccd61271061ffff16611cbf606e60049054906101000a900463ffffffff1663ffffffff1687613f2690919063ffffffff16565b613fac90919063ffffffff16565b61403590919063ffffffff16565b9150506000811115611cf657611cf586600001518261405d565b5b50505050505b508080600101915050611969565b50565b606760009054906101000a900473ffffffffffffffffffffffffffffffffffffffff1681565b606560009054906101000a900460ff16611db5576040517f08c379a00000000000000000000000000000000000000000000000000000000081526004018080602001828103825260148152602001807f4d696e7420262072656465656d2070617573656400000000000000000000000081525060200191505060405180910390fd5b607060008673ffffffffffffffffffffffffffffffffffffffff1673ffffffffffffffffffffffffffffffffffffffff16815260200190815260200160002060000160149054906101000a900460ff16611e77576040517f08c379a00000000000000000000000000000000000000000000000000000000081526004018080602001828103825260188152602001807f436f6c6c61746572616c206e6f7420737570706f72746564000000000000000081525060200191505060405180910390fd5b60008411611ed0576040517f08c379a00000000000000000000000000000000000000000000000000000000081526004018080602001828103825260218152602001806169df6021913960400191505060405180910390fd5b611ee0858560028688878761372c565b5050505050565b61271081565b606560049054906101000a900460ff1681565b611f08613d98565b73ffffffffffffffffffffffffffffffffffffffff16611f2661263c565b73ffffffffffffffffffffffffffffffffffffffff1614611faf576040517f08c379a00000000000000000000000000000000000000000000000000000000081526004018080602001828103825260208152602001807f4f776e61626c653a2063616c6c6572206973206e6f7420746865206f776e657281525060200191505060405180910390fd5b600073ffffffffffffffffffffffffffffffffffffffff16603360009054906101000a900473ffffffffffffffffffffffffffffffffffffffff1673ffffffffffffffffffffffffffffffffffffffff167f8be0079c531659141344cd1fd0a4f28419497f9722a3daafe3b4186f6b6457e060405160405180910390a36000603360006101000a81548173ffffffffffffffffffffffffffffffffffffffff021916908373ffffffffffffffffffffffffffffffffffffffff160217905550565b606d60009054906101000a900463ffffffff1681565b61208e613d98565b73ffffffffffffffffffffffffffffffffffffffff166120ac61263c565b73ffffffffffffffffffffffffffffffffffffffff1614612135576040517f08c379a00000000000000000000000000000000000000000000000000000000081526004018080602001828103825260208152602001807f4f776e61626c653a2063616c6c6572206973206e6f7420746865206f776e657281525060200191505060405180910390fd5b80606560036101000a81548160ff021916908315150217905550606560039054906101000a900460ff1615157f32283e3f5169b3f27bffa7c5232797e57010d1bab085d6a5b5a6f4047f04102160405160405180910390a250565b606560029054906101000a900460ff1681565b60006121ad614706565b905090565b606660009054906101000a900473ffffffffffffffffffffffffffffffffffffffff1681565b600060019054906101000a900460ff16806121f757506121f6614be9565b5b8061220d575060008054906101000a900460ff16155b612262576040517f08c379a000000000000000000000000000000000000000000000000000000000815260040180806020018281038252602e815260200180616ac8602e913960400191505060405180910390fd5b60008060019054906101000a900460ff1615905080156122b2576001600060016101000a81548160ff02191690831515021790555060016000806101000a81548160ff0219169083151502179055505b6122ba614bfa565b6001606560006101000a81548160ff0219169083151502179055506000606560036101000a81548160ff0219169083151502179055506000606560046101000a81548160ff0219169083151502179055506000606560016101000a81548160ff02191690831515021790555073bb5e27ae27a6a7d092b181fbddac1a1004e9adff606560056101000a81548173ffffffffffffffffffffffffffffffffffffffff021916908373ffffffffffffffffffffffffffffffffffffffff16021790555030606760006101000a81548173ffffffffffffffffffffffffffffffffffffffff021916908373ffffffffffffffffffffffffffffffffffffffff16021790555043606a81905550730f27662a7e4033eb4549a4e6bd42a35a96979bdc606960006101000a81548173ffffffffffffffffffffffffffffffffffffffff021916908373ffffffffffffffffffffffffffffffffffffffff1602179055506402540be40061020164e8d4a510000267ffffffffffffffff168161243957fe5b04606d60006101000a81548163ffffffff021916908363ffffffff1602179055506064605f64e8d4a510000267ffffffffffffffff168161247657fe5b04606d60046101000a81548167ffffffffffffffff021916908367ffffffffffffffff16021790555060096127100261ffff16606d600c6101000a81548163ffffffff021916908363ffffffff16021790555061271061ffff16606d60106101000a81548163ffffffff021916908363ffffffff160217905550606460636127100261ffff168161250357fe5b0461ffff16606d60146101000a81548163ffffffff021916908363ffffffff16021790555060326127100261ffff16606d60186101000a81548163ffffffff021916908363ffffffff160217905550600a600c6127100261ffff168161256557fe5b0461ffff16606d601c6101000a81548163ffffffff021916908363ffffffff16021790555060146127100261ffff16606e60006101000a81548163ffffffff021916908363ffffffff160217905550600a60086127100261ffff16816125c757fe5b0461ffff16606e60046101000a81548163ffffffff021916908363ffffffff160217905550801561260d5760008060016101000a81548160ff0219169083151502179055505b50565b61271081565b606960009054906101000a900473ffffffffffffffffffffffffffffffffffffffff1681565b6000603360009054906101000a900473ffffffffffffffffffffffffffffffffffffffff16905090565b61266e613d98565b73ffffffffffffffffffffffffffffffffffffffff1661268c61263c565b73ffffffffffffffffffffffffffffffffffffffff1614612715576040517f08c379a00000000000000000000000000000000000000000000000000000000081526004018080602001828103825260208152602001807f4f776e61626c653a2063616c6c6572206973206e6f7420746865206f776e657281525060200191505060405180910390fd5b80606560016101000a81548160ff021916908315150217905550606560019054906101000a900460ff1615157f7304ed846a7da817e311f225ed0df7c4b621c484da0ab3e633bd5ad083f2c3ae60405160405180910390a250565b606e60049054906101000a900463ffffffff1681565b606d600c9054906101000a900463ffffffff1681565b606560039054906101000a900460ff1681565b606e60009054906101000a900463ffffffff1681565b606560009054906101000a900460ff16612847576040517f08c379a00000000000000000000000000000000000000000000000000000000081526004018080602001828103825260148152602001807f4d696e7420262072656465656d2070617573656400000000000000000000000081525060200191505060405180910390fd5b607060008673ffffffffffffffffffffffffffffffffffffffff1673ffffffffffffffffffffffffffffffffffffffff16815260200190815260200160002060000160149054906101000a900460ff16612909576040517f08c379a00000000000000000000000000000000000000000000000000000000081526004018080602001828103825260188152602001807f436f6c6c61746572616c206e6f7420737570706f72746564000000000000000081525060200191505060405180910390fd5b60008411612962576040517f08c379a00000000000000000000000000000000000000000000000000000000081526004018080602001828103825260218152602001806169df6021913960400191505060405180910390fd5b61296f8585858585614d08565b5050505050565b606c5481565b612984613d98565b73ffffffffffffffffffffffffffffffffffffffff166129a261263c565b73ffffffffffffffffffffffffffffffffffffffff1614612a2b576040517f08c379a00000000000000000000000000000000000000000000000000000000081526004018080602001828103825260208152602001807f4f776e61626c653a2063616c6c6572206973206e6f7420746865206f776e657281525060200191505060405180910390fd5b87606d60046101000a81548167ffffffffffffffff021916908367ffffffffffffffff16021790555086606d600c6101000a81548163ffffffff021916908363ffffffff16021790555085606d60106101000a81548163ffffffff021916908363ffffffff16021790555084606d60146101000a81548163ffffffff021916908363ffffffff16021790555083606d60186101000a81548163ffffffff021916908363ffffffff16021790555082606d601c6101000a81548163ffffffff021916908363ffffffff16021790555081606e60006101000a81548163ffffffff021916908363ffffffff16021790555080606e60046101000a81548163ffffffff021916908363ffffffff1602179055507f3dec55373127e31c7cc1d9e11374dbf6a604e0727cf87fa3687dd90ea53db6f0606d60049054906101000a900467ffffffffffffffff16606d600c9054906101000a900463ffffffff16606d60109054906101000a900463ffffffff16606d60149054906101000a900463ffffffff16606d60189054906101000a900463ffffffff16606d601c9054906101000a900463ffffffff16606e60009054906101000a900463ffffffff16606e60049054906101000a900463ffffffff16604051808967ffffffffffffffff1681526020018863ffffffff1681526020018763ffffffff1681526020018663ffffffff1681526020018563ffffffff1681526020018463ffffffff1681526020018363ffffffff1681526020018263ffffffff1681526020019850505050505050505060405180910390a15050505050505050565b612c84613d98565b73ffffffffffffffffffffffffffffffffffffffff16612ca261263c565b73ffffffffffffffffffffffffffffffffffffffff1614612d2b576040517f08c379a00000000000000000000000000000000000000000000000000000000081526004018080602001828103825260208152602001807f4f776e61626c653a2063616c6c6572206973206e6f7420746865206f776e657281525060200191505060405180910390fd5b612d336152d7565b565b600080612d406158c5565b90506000606860009054906101000a900473ffffffffffffffffffffffffffffffffffffffff1673ffffffffffffffffffffffffffffffffffffffff166318160ddd6040518163ffffffff1660e01b815260040160206040518083038186803b158015612dac57600080fd5b505afa158015612dc0573d6000803e3d6000fd5b505050506040513d6020811015612dd657600080fd5b810190808051906020019092919050505090506000606660009054906101000a900473ffffffffffffffffffffffffffffffffffffffff1673ffffffffffffffffffffffffffffffffffffffff166308432eea6040518163ffffffff1660e01b815260040160206040518083038186803b158015612e5357600080fd5b505afa158015612e67573d6000803e3d6000fd5b505050506040513d6020811015612e7d57600080fd5b810190808051906020019092919050505090506000606660009054906101000a900473ffffffffffffffffffffffffffffffffffffffff1673ffffffffffffffffffffffffffffffffffffffff16636f2a2b0f6040518163ffffffff1660e01b815260040160206040518083038186803b158015612efa57600080fd5b505afa158015612f0e573d6000803e3d6000fd5b505050506040513d6020811015612f2457600080fd5b810190808051906020019092919050505090506000612f5e82612f508587613f2690919063ffffffff16565b613fac90919063ffffffff16565b9050612f9481612f8664e8d4a5100067ffffffffffffffff1688613f2690919063ffffffff16565b613fac90919063ffffffff16565b9550505050505090565b606560019054906101000a900460ff16613020576040517f08c379a000000000000000000000000000000000000000000000000000000000815260040180806020018281038252600f8152602001807f416c6c6f6361746520706175736564000000000000000000000000000000000081525060200191505060405180910390fd5b613028613d98565b73ffffffffffffffffffffffffffffffffffffffff1661304661263c565b73ffffffffffffffffffffffffffffffffffffffff16146130cf576040517f08c379a00000000000000000000000000000000000000000000000000000000081526004018080602001828103825260208152602001807f4f776e61626c653a2063616c6c6572206973206e6f7420746865206f776e657281525060200191505060405180910390fd5b6130d9828261405d565b5050565b64e8d4a5100081565b606560059054906101000a900473ffffffffffffffffffffffffffffffffffffffff1681565b613114613d98565b73ffffffffffffffffffffffffffffffffffffffff1661313261263c565b73ffffffffffffffffffffffffffffffffffffffff16146131bb576040517f08c379a00000000000000000000000000000000000000000000000000000000081526004018080602001828103825260208152602001807f4f776e61626c653a2063616c6c6572206973206e6f7420746865206f776e657281525060200191505060405180910390fd5b80606860006101000a81548173ffffffffffffffffffffffffffffffffffffffff021916908373ffffffffffffffffffffffffffffffffffffffff16021790555050565b61271081565b61320d613d98565b73ffffffffffffffffffffffffffffffffffffffff1661322b61263c565b73ffffffffffffffffffffffffffffffffffffffff16146132b4576040517f08c379a00000000000000000000000000000000000000000000000000000000081526004018080602001828103825260208152602001807f4f776e61626c653a2063616c6c6572206973206e6f7420746865206f776e657281525060200191505060405180910390fd5b6132c28686868686866158ed565b505050505050565b606d60189054906101000a900463ffffffff1681565b6132e8613d98565b73ffffffffffffffffffffffffffffffffffffffff1661330661263c565b73ffffffffffffffffffffffffffffffffffffffff161461338f576040517f08c379a00000000000000000000000000000000000000000000000000000000081526004018080602001828103825260208152602001807f4f776e61626c653a2063616c6c6572206973206e6f7420746865206f776e657281525060200191505060405180910390fd5b80606560046101000a81548160ff021916908315150217905550606560049054906101000a900460ff1615157ffb969aa546a820e3cbe3c8f92c1c61420fa094878ae6123f54d4726e6fa9e41860405160405180910390a250565b60006133f46158c5565b905090565b606560019054906101000a900460ff1681565b613414613d98565b73ffffffffffffffffffffffffffffffffffffffff1661343261263c565b73ffffffffffffffffffffffffffffffffffffffff16146134bb576040517f08c379a00000000000000000000000000000000000000000000000000000000081526004018080602001828103825260208152602001807f4f776e61626c653a2063616c6c6572206973206e6f7420746865206f776e657281525060200191505060405180910390fd5b600073ffffffffffffffffffffffffffffffffffffffff168173ffffffffffffffffffffffffffffffffffffffff161415613541576040517f08c379a00000000000000000000000000000000000000000000000000000000081526004018080602001828103825260268152602001806169596026913960400191505060405180910390fd5b8073ffffffffffffffffffffffffffffffffffffffff16603360009054906101000a900473ffffffffffffffffffffffffffffffffffffffff1673ffffffffffffffffffffffffffffffffffffffff167f8be0079c531659141344cd1fd0a4f28419497f9722a3daafe3b4186f6b6457e060405160405180910390a380603360006101000a81548173ffffffffffffffffffffffffffffffffffffffff021916908373ffffffffffffffffffffffffffffffffffffffff16021790555050565b613609613d98565b73ffffffffffffffffffffffffffffffffffffffff1661362761263c565b73ffffffffffffffffffffffffffffffffffffffff16146136b0576040517f08c379a00000000000000000000000000000000000000000000000000000000081526004018080602001828103825260208152602001807f4f776e61626c653a2063616c6c6572206973206e6f7420746865206f776e657281525060200191505060405180910390fd5b80606660006101000a81548173ffffffffffffffffffffffffffffffffffffffff021916908373ffffffffffffffffffffffffffffffffffffffff16021790555050565b606f6020528060005260406000206000915090505481565b606d60049054906101000a900467ffffffffffffffff1681565b606a5481565b606560009054906101000a900460ff166137ae576040517f08c379a00000000000000000000000000000000000000000000000000000000081526004018080602001828103825260148152602001807f4d696e7420262072656465656d2070617573656400000000000000000000000081525060200191505060405180910390fd5b60008060008073__VaultCoreLibrary______________________6363b09fdb8c8c8c306040518563ffffffff1660e01b8152600401808573ffffffffffffffffffffffffffffffffffffffff1681526020018481526020018360ff1681526020018273ffffffffffffffffffffffffffffffffffffffff16815260200194505050505060806040518083038186803b15801561384a57600080fd5b505af415801561385e573d6000803e3d6000fd5b505050506040513d608081101561387457600080fd5b8101908080519060200190929190805190602001909291908051906020019092919080519060200190929190505050935093509350935087821015613904576040517f08c379a000000000000000000000000000000000000000000000000000000000815260040180806020018281038252602e815260200180616b4a602e913960400191505060405180910390fd5b8683111561395d576040517f08c379a0000000000000000000000000000000000000000000000000000000008152600401808060200182810382526033815260200180616af66033913960400191505060405180910390fd5b858410156139b6576040517f08c379a000000000000000000000000000000000000000000000000000000000815260040180806020018281038252602c8152602001806169b3602c913960400191505060405180910390fd5b84421115613a2c576040517f08c379a00000000000000000000000000000000000000000000000000000000081526004018080602001828103825260108152602001807f446561646c696e6520657870697265640000000000000000000000000000000081525060200191505060405180910390fd5b606560059054906101000a900473ffffffffffffffffffffffffffffffffffffffff1673ffffffffffffffffffffffffffffffffffffffff166379cc679033866040518363ffffffff1660e01b8152600401808373ffffffffffffffffffffffffffffffffffffffff16815260200182815260200192505050600060405180830381600087803b158015613abf57600080fd5b505af1158015613ad3573d6000803e3d6000fd5b50505050613aec84606c54613e9e90919063ffffffff16565b606c8190555060038960ff1614613b2b57613b2a3330858e73ffffffffffffffffffffffffffffffffffffffff16615ada909392919063ffffffff16565b5b606860009054906101000a900473ffffffffffffffffffffffffffffffffffffffff1673ffffffffffffffffffffffffffffffffffffffff166340c10f1933846040518363ffffffff1660e01b8152600401808373ffffffffffffffffffffffffffffffffffffffff16815260200182815260200192505050600060405180830381600087803b158015613bbe57600080fd5b505af1158015613bd2573d6000803e3d6000fd5b50505050606860009054906101000a900473ffffffffffffffffffffffffffffffffffffffff1673ffffffffffffffffffffffffffffffffffffffff166340c10f1930836040518363ffffffff1660e01b8152600401808373ffffffffffffffffffffffffffffffffffffffff16815260200182815260200192505050600060405180830381600087803b158015613c6957600080fd5b505af1158015613c7d573d6000803e3d6000fd5b50505050813373ffffffffffffffffffffffffffffffffffffffff167f473211ca1f39de50cbd3cc7e9f63f97251afb1a528e8164f279bf67dab4f952d85878560405180848152602001838152602001828152602001935050505060405180910390a35050505050505050505050565b600080600090505b607380549050811015613d945760738181548110613d0f57fe5b9060005260206000200160000160149054906101000a900460ff1615613d8757613d84613d7560738381548110613d4257fe5b9060005260206000200160000160009054906101000a900473ffffffffffffffffffffffffffffffffffffffff16615b9b565b83613e9e90919063ffffffff16565b91505b8080600101915050613cf5565b5090565b600033905090565b6000607160008473ffffffffffffffffffffffffffffffffffffffff1673ffffffffffffffffffffffffffffffffffffffff1681526020019081526020016000209050828160000160006101000a81548173ffffffffffffffffffffffffffffffffffffffff021916908373ffffffffffffffffffffffffffffffffffffffff160217905550818160000160146101000a81548160ff0219169083151502179055507f2c6e13ba0b47fcf1ee784f19401f9a9d63e134849552181df389442846de0d518383604051808373ffffffffffffffffffffffffffffffffffffffff16815260200182151581526020019250505060405180910390a1505050565b600080828401905083811015613f1c576040517f08c379a000000000000000000000000000000000000000000000000000000000815260040180806020018281038252601b8152602001807f536166654d6174683a206164646974696f6e206f766572666c6f77000000000081525060200191505060405180910390fd5b8091505092915050565b600080831415613f395760009050613fa6565b6000828402905082848281613f4a57fe5b0414613fa1576040517f08c379a0000000000000000000000000000000000000000000000000000000008152600401808060200182810382526021815260200180616b296021913960400191505060405180910390fd5b809150505b92915050565b6000808211614023576040517f08c379a000000000000000000000000000000000000000000000000000000000815260040180806020018281038252601a8152602001807f536166654d6174683a206469766973696f6e206279207a65726f00000000000081525060200191505060405180910390fd5b81838161402c57fe5b04905092915050565b6000808383111561404c5760008091509150614056565b6001838503915091505b9250929050565b614065616887565b607060008473ffffffffffffffffffffffffffffffffffffffff1673ffffffffffffffffffffffffffffffffffffffff1681526020019081526020016000206040518060c00160405290816000820160009054906101000a900473ffffffffffffffffffffffffffffffffffffffff1673ffffffffffffffffffffffffffffffffffffffff1673ffffffffffffffffffffffffffffffffffffffff1681526020016000820160149054906101000a900460ff161515151581526020016001820160009054906101000a900473ffffffffffffffffffffffffffffffffffffffff1673ffffffffffffffffffffffffffffffffffffffff1673ffffffffffffffffffffffffffffffffffffffff1681526020016001820160149054906101000a900460ff161515151581526020016002820160009054906101000a900473ffffffffffffffffffffffffffffffffffffffff1673ffffffffffffffffffffffffffffffffffffffff1673ffffffffffffffffffffffffffffffffffffffff1681526020016002820160149054906101000a900460ff1615151515815250509050806020015161425e576040517f08c379a0000000000000000000000000000000000000000000000000000000008152600401808060200182810382526025815260200180616a006025913960400191505060405180910390fd5b600073ffffffffffffffffffffffffffffffffffffffff16816040015173ffffffffffffffffffffffffffffffffffffffff161415614305576040517f08c379a000000000000000000000000000000000000000000000000000000000815260040180806020018281038252601d8152602001807f5f616c6c6f636174653a205374726174656779206e6f74207365742e2000000081525060200191505060405180910390fd5b806060015161435f576040517f08c379a0000000000000000000000000000000000000000000000000000000008152600401808060200182810382526023815260200180616a256023913960400191505060405180910390fd5b6000607060008573ffffffffffffffffffffffffffffffffffffffff1673ffffffffffffffffffffffffffffffffffffffff16815260200190815260200160002060010160009054906101000a900473ffffffffffffffffffffffffffffffffffffffff1690506143ce616905565b60716000607060008873ffffffffffffffffffffffffffffffffffffffff1673ffffffffffffffffffffffffffffffffffffffff16815260200190815260200160002060010160009054906101000a900473ffffffffffffffffffffffffffffffffffffffff1673ffffffffffffffffffffffffffffffffffffffff1673ffffffffffffffffffffffffffffffffffffffff1681526020019081526020016000206040518060400160405290816000820160009054906101000a900473ffffffffffffffffffffffffffffffffffffffff1673ffffffffffffffffffffffffffffffffffffffff1673ffffffffffffffffffffffffffffffffffffffff1681526020016000820160149054906101000a900460ff1615151515815250509050600073ffffffffffffffffffffffffffffffffffffffff16816000015173ffffffffffffffffffffffffffffffffffffffff161415614594576040517f08c379a000000000000000000000000000000000000000000000000000000000815260040180806020018281038252601d8152602001807f5f616c6c6f636174653a205374726174656779206e6f74207365742e2000000081525060200191505060405180910390fd5b80602001516145ee576040517f08c379a00000000000000000000000000000000000000000000000000000000081526004018080602001828103825260218152602001806169386021913960400191505060405180910390fd5b60008411614647576040517f08c379a000000000000000000000000000000000000000000000000000000000815260040180806020018281038252602d815260200180616a48602d913960400191505060405180910390fd5b6146768360400151858773ffffffffffffffffffffffffffffffffffffffff1661612e9092919063ffffffff16565b8173ffffffffffffffffffffffffffffffffffffffff166347e7ef2486866040518363ffffffff1660e01b8152600401808373ffffffffffffffffffffffffffffffffffffffff16815260200182815260200192505050600060405180830381600087803b1580156146e757600080fd5b505af11580156146fb573d6000803e3d6000fd5b505050505050505050565b600080600090505b607280549050811015614be557614723616887565b6072828154811061473057fe5b90600052602060002090600302016040518060c00160405290816000820160009054906101000a900473ffffffffffffffffffffffffffffffffffffffff1673ffffffffffffffffffffffffffffffffffffffff1673ffffffffffffffffffffffffffffffffffffffff1681526020016000820160149054906101000a900460ff161515151581526020016001820160009054906101000a900473ffffffffffffffffffffffffffffffffffffffff1673ffffffffffffffffffffffffffffffffffffffff1673ffffffffffffffffffffffffffffffffffffffff1681526020016001820160149054906101000a900460ff161515151581526020016002820160009054906101000a900473ffffffffffffffffffffffffffffffffffffffff1673ffffffffffffffffffffffffffffffffffffffff1673ffffffffffffffffffffffffffffffffffffffff1681526020016002820160149054906101000a900460ff16151515158152505090506000606660009054906101000a900473ffffffffffffffffffffffffffffffffffffffff1673ffffffffffffffffffffffffffffffffffffffff166351a4099483600001516040518263ffffffff1660e01b8152600401808273ffffffffffffffffffffffffffffffffffffffff16815260200191505060206040518083038186803b15801561492d57600080fd5b505afa158015614941573d6000803e3d6000fd5b505050506040513d602081101561495757600080fd5b810190808051906020019092919050505090506000606660009054906101000a900473ffffffffffffffffffffffffffffffffffffffff1673ffffffffffffffffffffffffffffffffffffffff16633f15327984600001516040518263ffffffff1660e01b8152600401808273ffffffffffffffffffffffffffffffffffffffff16815260200191505060206040518083038186803b1580156149f957600080fd5b505afa158015614a0d573d6000803e3d6000fd5b505050506040513d6020811015614a2357600080fd5b810190808051906020019092919050505090506000836000015173ffffffffffffffffffffffffffffffffffffffff1663313ce5676040518163ffffffff1660e01b815260040160206040518083038186803b158015614a8257600080fd5b505afa158015614a96573d6000803e3d6000fd5b505050506040513d6020811015614aac57600080fd5b810190808051906020019092919050505060ff1690506000614b8e83614b8086886000015173ffffffffffffffffffffffffffffffffffffffff166370a08231306040518263ffffffff1660e01b8152600401808273ffffffffffffffffffffffffffffffffffffffff16815260200191505060206040518083038186803b158015614b3757600080fd5b505afa158015614b4b573d6000803e3d6000fd5b505050506040513d6020811015614b6157600080fd5b8101908080519060200190929190505050613f2690919063ffffffff16565b613fac90919063ffffffff16565b90506000614bbb614ba98460126161d090919063ffffffff16565b600a0a83613f2690919063ffffffff16565b9050614bd08189613e9e90919063ffffffff16565b9750505050505050808060010191505061470e565b5090565b6000614bf430616253565b15905090565b600060019054906101000a900460ff1680614c195750614c18614be9565b5b80614c2f575060008054906101000a900460ff16155b614c84576040517f08c379a000000000000000000000000000000000000000000000000000000000815260040180806020018281038252602e815260200180616ac8602e913960400191505060405180910390fd5b60008060019054906101000a900460ff161590508015614cd4576001600060016101000a81548160ff02191690831515021790555060016000806101000a81548160ff0219169083151502179055505b614cdc616266565b614ce4616364565b8015614d055760008060016101000a81548160ff0219169083151502179055505b50565b606560009054906101000a900460ff16614d8a576040517f08c379a00000000000000000000000000000000000000000000000000000000081526004018080602001828103825260148152602001807f4d696e7420262072656465656d2070617573656400000000000000000000000081525060200191505060405180910390fd5b60008060008073__VaultCoreLibrary______________________63f53595a68a8a30606660009054906101000a900473ffffffffffffffffffffffffffffffffffffffff166040518563ffffffff1660e01b8152600401808573ffffffffffffffffffffffffffffffffffffffff1681526020018481526020018373ffffffffffffffffffffffffffffffffffffffff1681526020018273ffffffffffffffffffffffffffffffffffffffff16815260200194505050505060806040518083038186803b158015614e5b57600080fd5b505af4158015614e6f573d6000803e3d6000fd5b505050506040513d6080811015614e8557600080fd5b8101908080519060200190929190805190602001909291908051906020019092919080519060200190929190505050935093509350935086831015614f15576040517f08c379a000000000000000000000000000000000000000000000000000000000815260040180806020018281038252603481526020018061697f6034913960400191505060405180910390fd5b85841015614f6e576040517f08c379a000000000000000000000000000000000000000000000000000000000815260040180806020018281038252602d815260200180616a9b602d913960400191505060405180910390fd5b84421115614fe4576040517f08c379a00000000000000000000000000000000000000000000000000000000081526004018080602001828103825260108152602001807f446561646c696e6520657870697265640000000000000000000000000000000081525060200191505060405180910390fd5b606560059054906101000a900473ffffffffffffffffffffffffffffffffffffffff1673ffffffffffffffffffffffffffffffffffffffff1663edb561c333866040518363ffffffff1660e01b8152600401808373ffffffffffffffffffffffffffffffffffffffff16815260200182815260200192505050600060405180830381600087803b15801561507757600080fd5b505af115801561508b573d6000803e3d6000fd5b505050506150a484606b54613e9e90919063ffffffff16565b606b819055506150d533848b73ffffffffffffffffffffffffffffffffffffffff1661612e9092919063ffffffff16565b606860009054906101000a900473ffffffffffffffffffffffffffffffffffffffff1673ffffffffffffffffffffffffffffffffffffffff16639dc29fac33846040518363ffffffff1660e01b8152600401808373ffffffffffffffffffffffffffffffffffffffff16815260200182815260200192505050600060405180830381600087803b15801561516857600080fd5b505af115801561517c573d6000803e3d6000fd5b50505050606860009054906101000a900473ffffffffffffffffffffffffffffffffffffffff1673ffffffffffffffffffffffffffffffffffffffff166323b872dd3330846040518463ffffffff1660e01b8152600401808473ffffffffffffffffffffffffffffffffffffffff1681526020018373ffffffffffffffffffffffffffffffffffffffff1681526020018281526020019350505050602060405180830381600087803b15801561523157600080fd5b505af1158015615245573d6000803e3d6000fd5b505050506040513d602081101561525b57600080fd5b810190808051906020019092919050505050813373ffffffffffffffffffffffffffffffffffffffff167f7a7fa876a9a577092f57d3c1deeddc4025fb563aab144154b355ede4fb9f3ded85878560405180848152602001838152602001828152602001935050505060405180910390a3505050505050505050565b60006152e1616887565b600080606860009054906101000a900473ffffffffffffffffffffffffffffffffffffffff1673ffffffffffffffffffffffffffffffffffffffff16633eaaf86b6040518163ffffffff1660e01b815260040160206040518083038186803b15801561534c57600080fd5b505afa158015615360573d6000803e3d6000fd5b505050506040513d602081101561537657600080fd5b8101908080519060200190929190505050905060008060005b6072805490508110156157e957607281815481106153a957fe5b90600052602060002090600302016040518060c00160405290816000820160009054906101000a900473ffffffffffffffffffffffffffffffffffffffff1673ffffffffffffffffffffffffffffffffffffffff1673ffffffffffffffffffffffffffffffffffffffff1681526020016000820160149054906101000a900460ff161515151581526020016001820160009054906101000a900473ffffffffffffffffffffffffffffffffffffffff1673ffffffffffffffffffffffffffffffffffffffff1673ffffffffffffffffffffffffffffffffffffffff1681526020016001820160149054906101000a900460ff161515151581526020016002820160009054906101000a900473ffffffffffffffffffffffffffffffffffffffff1673ffffffffffffffffffffffffffffffffffffffff1673ffffffffffffffffffffffffffffffffffffffff1681526020016002820160149054906101000a900460ff1615151515815250509550856040015196508673ffffffffffffffffffffffffffffffffffffffff16638d2c872787600001516040518263ffffffff1660e01b8152600401808273ffffffffffffffffffffffffffffffffffffffff16815260200191505060206040518083038186803b15801561558957600080fd5b505afa15801561559d573d6000803e3d6000fd5b505050506040513d60208110156155b357600080fd5b810190808051906020019092919050505094506000851180156155d757508560a001515b156157dc578673ffffffffffffffffffffffffffffffffffffffff1663d9caed12308860000151886040518463ffffffff1660e01b8152600401808473ffffffffffffffffffffffffffffffffffffffff1681526020018373ffffffffffffffffffffffffffffffffffffffff1681526020018281526020019350505050600060405180830381600087803b15801561566f57600080fd5b505af1158015615683573d6000803e3d6000fd5b50505050856080015173ffffffffffffffffffffffffffffffffffffffff166373bd43ad866040518263ffffffff1660e01b815260040180828152602001915050602060405180830381600087803b1580156156de57600080fd5b505af11580156156f2573d6000803e3d6000fd5b505050506040513d602081101561570857600080fd5b81019080805190602001909291905050509150606860009054906101000a900473ffffffffffffffffffffffffffffffffffffffff1673ffffffffffffffffffffffffffffffffffffffff16639dc29fac30846040518363ffffffff1660e01b8152600401808373ffffffffffffffffffffffffffffffffffffffff16815260200182815260200192505050600060405180830381600087803b1580156157ae57600080fd5b505af11580156157c2573d6000803e3d6000fd5b505050506157d98284613e9e90919063ffffffff16565b92505b808060010191505061538f565b5060006157ff8385613e9e90919063ffffffff16565b9050606860009054906101000a900473ffffffffffffffffffffffffffffffffffffffff1673ffffffffffffffffffffffffffffffffffffffff166339a7919f826040518263ffffffff1660e01b815260040180828152602001915050600060405180830381600087803b15801561587657600080fd5b505af115801561588a573d6000803e3d6000fd5b5050505080847f11c6bf55864ff83827df712625d7a80e5583eef0264921025e7cd22003a2151160405160405180910390a350505050505050565b60006158e86158d2613ced565b6158da614706565b613e9e90919063ffffffff16565b905090565b6000607060008873ffffffffffffffffffffffffffffffffffffffff1673ffffffffffffffffffffffffffffffffffffffff1681526020019081526020016000209050868160000160006101000a81548173ffffffffffffffffffffffffffffffffffffffff021916908373ffffffffffffffffffffffffffffffffffffffff160217905550858160000160146101000a81548160ff021916908315150217905550848160010160006101000a81548173ffffffffffffffffffffffffffffffffffffffff021916908373ffffffffffffffffffffffffffffffffffffffff160217905550838160010160146101000a81548160ff021916908315150217905550828160020160006101000a81548173ffffffffffffffffffffffffffffffffffffffff021916908373ffffffffffffffffffffffffffffffffffffffff1602179055508673ffffffffffffffffffffffffffffffffffffffff167f17829b659e9b6373b3f06a015f33261164011effe018eea960430225e3ba6c1e87878787876040518086151581526020018573ffffffffffffffffffffffffffffffffffffffff16815260200184151581526020018373ffffffffffffffffffffffffffffffffffffffff16815260200182151581526020019550505050505060405180910390a250505050505050565b615b95846323b872dd60e01b858585604051602401808473ffffffffffffffffffffffffffffffffffffffff1681526020018373ffffffffffffffffffffffffffffffffffffffff1681526020018281526020019350505050604051602081830303815290604052907bffffffffffffffffffffffffffffffffffffffffffffffffffffffff19166020820180517bffffffffffffffffffffffffffffffffffffffffffffffffffffffff838183161783525050505061650b565b50505050565b60008082905060005b60728054905081101561612757615bb9616887565b60728281548110615bc657fe5b90600052602060002090600302016040518060c00160405290816000820160009054906101000a900473ffffffffffffffffffffffffffffffffffffffff1673ffffffffffffffffffffffffffffffffffffffff1673ffffffffffffffffffffffffffffffffffffffff1681526020016000820160149054906101000a900460ff161515151581526020016001820160009054906101000a900473ffffffffffffffffffffffffffffffffffffffff1673ffffffffffffffffffffffffffffffffffffffff1673ffffffffffffffffffffffffffffffffffffffff1681526020016001820160149054906101000a900460ff161515151581526020016002820160009054906101000a900473ffffffffffffffffffffffffffffffffffffffff1673ffffffffffffffffffffffffffffffffffffffff1673ffffffffffffffffffffffffffffffffffffffff1681526020016002820160149054906101000a900460ff16151515158152505090508273ffffffffffffffffffffffffffffffffffffffff1663a400326f82600001516040518263ffffffff1660e01b8152600401808273ffffffffffffffffffffffffffffffffffffffff16815260200191505060206040518083038186803b158015615d9f57600080fd5b505afa158015615db3573d6000803e3d6000fd5b505050506040513d6020811015615dc957600080fd5b810190808051906020019092919050505015616119576000606660009054906101000a900473ffffffffffffffffffffffffffffffffffffffff1673ffffffffffffffffffffffffffffffffffffffff166351a4099483600001516040518263ffffffff1660e01b8152600401808273ffffffffffffffffffffffffffffffffffffffff16815260200191505060206040518083038186803b158015615e6e57600080fd5b505afa158015615e82573d6000803e3d6000fd5b505050506040513d6020811015615e9857600080fd5b810190808051906020019092919050505090506000606660009054906101000a900473ffffffffffffffffffffffffffffffffffffffff1673ffffffffffffffffffffffffffffffffffffffff16633f15327984600001516040518263ffffffff1660e01b8152600401808273ffffffffffffffffffffffffffffffffffffffff16815260200191505060206040518083038186803b158015615f3a57600080fd5b505afa158015615f4e573d6000803e3d6000fd5b505050506040513d6020811015615f6457600080fd5b810190808051906020019092919050505090506000836000015173ffffffffffffffffffffffffffffffffffffffff1663313ce5676040518163ffffffff1660e01b815260040160206040518083038186803b158015615fc357600080fd5b505afa158015615fd7573d6000803e3d6000fd5b505050506040513d6020811015615fed57600080fd5b810190808051906020019092919050505060ff16905060006160cf836160c1868a73ffffffffffffffffffffffffffffffffffffffff16635f5152268a600001516040518263ffffffff1660e01b8152600401808273ffffffffffffffffffffffffffffffffffffffff16815260200191505060206040518083038186803b15801561607857600080fd5b505afa15801561608c573d6000803e3d6000fd5b505050506040513d60208110156160a257600080fd5b8101908080519060200190929190505050613f2690919063ffffffff16565b613fac90919063ffffffff16565b905060006160fc6160ea8460126161d090919063ffffffff16565b600a0a83613f2690919063ffffffff16565b9050616111818a613e9e90919063ffffffff16565b985050505050505b508080600101915050615ba4565b5050919050565b6161cb8363a9059cbb60e01b8484604051602401808373ffffffffffffffffffffffffffffffffffffffff16815260200182815260200192505050604051602081830303815290604052907bffffffffffffffffffffffffffffffffffffffffffffffffffffffff19166020820180517bffffffffffffffffffffffffffffffffffffffffffffffffffffffff838183161783525050505061650b565b505050565b600082821115616248576040517f08c379a000000000000000000000000000000000000000000000000000000000815260040180806020018281038252601e8152602001807f536166654d6174683a207375627472616374696f6e206f766572666c6f77000081525060200191505060405180910390fd5b818303905092915050565b600080823b905060008111915050919050565b600060019054906101000a900460ff16806162855750616284614be9565b5b8061629b575060008054906101000a900460ff16155b6162f0576040517f08c379a000000000000000000000000000000000000000000000000000000000815260040180806020018281038252602e815260200180616ac8602e913960400191505060405180910390fd5b60008060019054906101000a900460ff161590508015616340576001600060016101000a81548160ff02191690831515021790555060016000806101000a81548160ff0219169083151502179055505b80156163615760008060016101000a81548160ff0219169083151502179055505b50565b600060019054906101000a900460ff16806163835750616382614be9565b5b80616399575060008054906101000a900460ff16155b6163ee576040517f08c379a000000000000000000000000000000000000000000000000000000000815260040180806020018281038252602e815260200180616ac8602e913960400191505060405180910390fd5b60008060019054906101000a900460ff16159050801561643e576001600060016101000a81548160ff02191690831515021790555060016000806101000a81548160ff0219169083151502179055505b6000616448613d98565b905080603360006101000a81548173ffffffffffffffffffffffffffffffffffffffff021916908373ffffffffffffffffffffffffffffffffffffffff1602179055508073ffffffffffffffffffffffffffffffffffffffff16600073ffffffffffffffffffffffffffffffffffffffff167f8be0079c531659141344cd1fd0a4f28419497f9722a3daafe3b4186f6b6457e060405160405180910390a35080156165085760008060016101000a81548160ff0219169083151502179055505b50565b606061656d826040518060400160405280602081526020017f5361666545524332303a206c6f772d6c6576656c2063616c6c206661696c65648152508573ffffffffffffffffffffffffffffffffffffffff166165fa9092919063ffffffff16565b90506000815111156165f55780806020019051602081101561658e57600080fd5b81019080805190602001909291905050506165f4576040517f08c379a000000000000000000000000000000000000000000000000000000000815260040180806020018281038252602a815260200180616b78602a913960400191505060405180910390fd5b5b505050565b60606166098484600085616612565b90509392505050565b60608247101561666d576040517f08c379a0000000000000000000000000000000000000000000000000000000008152600401808060200182810382526026815260200180616a756026913960400191505060405180910390fd5b61667685616253565b6166e8576040517f08c379a000000000000000000000000000000000000000000000000000000000815260040180806020018281038252601d8152602001807f416464726573733a2063616c6c20746f206e6f6e2d636f6e747261637400000081525060200191505060405180910390fd5b600060608673ffffffffffffffffffffffffffffffffffffffff1685876040518082805190602001908083835b602083106167385780518252602082019150602081019050602083039250616715565b6001836020036101000a03801982511681845116808217855250505050505090500191505060006040518083038185875af1925050503d806000811461679a576040519150601f19603f3d011682016040523d82523d6000602084013e61679f565b606091505b50915091506167af8282866167bb565b92505050949350505050565b606083156167cb57829050616880565b6000835111156167de5782518084602001fd5b816040517f08c379a00000000000000000000000000000000000000000000000000000000081526004018080602001828103825283818151815260200191508051906020019080838360005b8381101561684557808201518184015260208101905061682a565b50505050905090810190601f1680156168725780820380516001836020036101000a031916815260200191505b509250505060405180910390fd5b9392505050565b6040518060c00160405280600073ffffffffffffffffffffffffffffffffffffffff168152602001600015158152602001600073ffffffffffffffffffffffffffffffffffffffff168152602001600015158152602001600073ffffffffffffffffffffffffffffffffffffffff1681526020016000151581525090565b6040518060400160405280600073ffffffffffffffffffffffffffffffffffffffff168152602001600015158152509056fe5f616c6c6f636174653a205374726174656779206e6f7420656e61626c65642e204f776e61626c653a206e6577206f776e657220697320746865207a65726f2061646472657373436f6c6c61746572616c20616d6f756e74206973206c6f776572207468616e20746865206d6178696d756d20736c69707061676553504120616d6f756e74206973206d6f7265207468616e20746865206d6178696d756d20736c697070616765416d6f756e74206e6565647320746f2062652067726561746572207468616e20305f616c6c6f636174653a20436f6c6c61746572616c206e6f7420737570706f727465642e205f616c6c6f636174653a20416c6c6f636174696f6e206e6f7420616c6c6f7765642e205f616c6c6f636174653a20616d74546f416c6c6f636174652073686f756c6420626520706f7369746976652e20416464726573733a20696e73756666696369656e742062616c616e636520666f722063616c6c53504120616d6f756e74206973206c6f776572207468616e20746865206d6178696d756d20736c697070616765496e697469616c697a61626c653a20636f6e747261637420697320616c726561647920696e697469616c697a6564436f6c6c61746572616c20616d6f756e74206973206d6f7265207468616e20746865206d6178696d756d20736c697070616765536166654d6174683a206d756c7469706c69636174696f6e206f766572666c6f775553447320616d6f756e74206973206c6f776572207468616e20746865206d6178696d756d20736c6970706167655361666545524332303a204552433230206f7065726174696f6e20646964206e6f742073756363656564a264697066735822122054e2e8a52ee3e1706a51094d48e700785d9f5710a7423b432b7a9f878530ce0e64736f6c634300060c0033",
  "immutableReferences": {},
  "source": "//TO-DO: check source file of SafeMathUpgradeable regarding trySub() (and the usage of \"unchecked\")\n//TO-DO: check ERC20Upgradeable vs ERC20Upgradeable\n// Note: assuming when exponentWith_prec >= 2^32, toReturn >= swapFee_prec () (TO-DO: work out the number)\n//TO-DO: deal with collateralStrategies\n//TO-DO: what happen when we redeem aTokens\n//TO-DO: whether _redeem needs \"SafeTransferFrom\" and how\n//TO-DO: check all user inputs, especially mintView\n//TO-DO: remove for testing purposes files\npragma solidity ^0.6.12;\n\nimport \"@openzeppelin/contracts-upgradeable/access/OwnableUpgradeable.sol\";\nimport \"@openzeppelin/contracts-upgradeable/token/ERC20/SafeERC20Upgradeable.sol\";\nimport \"@openzeppelin/contracts-upgradeable/token/ERC20/ERC20Upgradeable.sol\";\n\nimport \"../libraries/Helpers.sol\";\nimport \"../interfaces/IOracle.sol\";\nimport \"../interfaces/ISperaxToken.sol\";\nimport \"../interfaces/IStrategy.sol\";\nimport \"../libraries/VaultCoreLibrary.sol\";\nimport \"../token/USDs.sol\";\nimport \"../libraries/BancorFormula.sol\";\nimport \"../interfaces/IBuyback.sol\";\n\ncontract VaultCore is Initializable, OwnableUpgradeable {\n\tusing SafeERC20Upgradeable for ERC20Upgradeable;\n\tusing SafeMathUpgradeable for uint;\n\tusing StableMath for uint;\n\n\tbool public mintRedeemAllowed;\n\tbool public allocationAllowed;\n\tbool public rebaseAllowed;\n\tbool public swapfeeInAllowed;\n\tbool public swapfeeOutAllowed;\n\taddress public SPAaddr;\n\taddress public oracleAddr;\n\taddress public SPAvault;\n\tUSDs USDsInstance;\n\tBancorFormula public BancorInstance;\n\tuint public startBlockHeight;\n\tuint public SPAminted;\n\tuint public SPAburnt;\n\tuint32 public chi_alpha;\n\tuint64 public constant chi_alpha_prec = 10**12;\n\tuint64 public constant chi_prec = 10**12;\n\tuint64 public chiInit;\n\tuint32 public chi_beta;\n\tuint16 public constant chi_beta_prec = 10**4;\n\tuint32 public chi_gamma;\n\tuint16 public constant chi_gamma_prec = 10**4;\n\tuint64 public constant swapFee_prec = 10**12;\n\tuint32 public swapFee_p;\n\tuint16 public constant swapFee_p_prec = 10**4;\n\tuint32 public swapFee_theta;\n\tuint16 public constant swapFee_theta_prec = 10**4;\n\tuint32 public swapFee_a;\n\tuint16 public constant swapFee_a_prec = 10**4;\n\tuint32 public swapFee_A;\n\tuint16 public constant swapFee_A_prec = 10**4;\n\tuint32 public allocatePrecentage;\n\tuint16 public constant allocatePrecentage_prec = 10**4;\n\n\tevent parametersUpdated(uint64 _chiInit, uint32 _chi_beta, uint32 _chi_gamma, uint32 _swapFee_p, uint32 _swapFee_theta, uint32 _swapFee_a, uint32 _swapFee_A, uint32 _allocatePrecentage);\n\tevent USDsMinted(address indexed wallet, uint indexed USDsAmt, uint collateralAmt, uint SPAsAmt, uint feeAmt);\n\tevent USDsRedeemed(address indexed wallet, uint indexed USDsAmt, uint collateralAmt, uint SPAsAmt, uint feeAmt);\n\tevent Rebase(uint indexed oldSupply, uint indexed newSupply);\n\tevent CollateralInfoChanged(address indexed collateralAddr, bool supported, address defaultStrategyAddr, bool allocationAllowed, address buyBackAddr, bool rebaseAllowed);\n\tevent StrategyInfoChanged(address strategyAddr, bool enabled);\n\tevent MintRedeemPermssionChanged(bool indexed permission);\n\tevent AllocationPermssionChanged(bool indexed permission);\n\tevent SwapFeeInPermissionChanged(bool indexed permission);\n\tevent SwapFeeOutPermissionChanged(bool indexed permission);\n\n\t/**\n\t * @dev check if USDs mint & redeem are both allowed\n\t */\n\tmodifier whenMintRedeemAllowed {\n\t\trequire(mintRedeemAllowed, \"Mint & redeem paused\");\n\t\t_;\n\t}\n\t/**\n\t * @dev check if re-investment of collaterals is allowed\n\t */\n\tmodifier whenAllocationAllowed {\n\t\trequire(allocationAllowed, \"Allocate paused\");\n\t\t_;\n\t}\n\t/**\n\t * @dev check if rebase is allowed\n\t */\n\tmodifier whenRebaseAllowed {\n\t\trequire(rebaseAllowed, \"Rebase paused\");\n\t\t_;\n\t}\n\n\tstruct collateralStruct {\n\t\taddress collateralAddr;\n\t\tbool supported;\n\t\taddress defaultStrategyAddr;\n\t\tbool allocationAllowed;\n\t\taddress buyBackAddr;\n\t\tbool rebaseAllowed;\n\t}\n\tstruct strategyStruct {\n\t\taddress strategyAddr;\n\t\tbool enabled;\n\t}\n\tmapping(address => uint) public supportedCollateral;\t\t// if it is 1, the collateral is supported; else it is 0, it is not supported\n\tmapping(address => collateralStruct) collateralsInfo;\n\tmapping(address => strategyStruct) strategiesInfo;\n\tcollateralStruct[] allCollaterals;\t// the list of all supported collaterals\n\tstrategyStruct[] allStrategies;\t// the list of all strategy addresses\n\n\tfunction initialize() public initializer {\n\t\tOwnableUpgradeable.__Ownable_init();\n\t\tmintRedeemAllowed = true;\n\t\tswapfeeInAllowed = false;\n\t\tswapfeeOutAllowed = false;\n\t\tallocationAllowed = false;\n\t\tSPAaddr = 0xbb5E27Ae27A6a7D092b181FbDdAc1A1004e9adff;\t// SPA on Kovan\n\t\tSPAvault = address(this);\n\t\tstartBlockHeight = block.number;\n\t\tBancorInstance = BancorFormula(0x0f27662A7e4033eB4549a4E6Bd42a35a96979BdC);\n\t\tchi_alpha = uint32(chi_alpha_prec * 513 / 10**10);\n\t\tchiInit = chi_prec * 95 / 100;\n\t\tchi_beta = chi_beta_prec * 9;\n\t\tchi_gamma = chi_gamma_prec;\n\t\tswapFee_p = swapFee_p_prec * 99 / 100;\n\t\tswapFee_theta = swapFee_theta_prec * 50;\n\t\tswapFee_a = swapFee_a_prec * 12 / 10;\n\t\tswapFee_A = swapFee_A_prec * 20;\n\t\tallocatePrecentage = allocatePrecentage_prec * 8 / 10;\n\t}\n\n\t//For testing purposes:\n\tfunction updateUSDsAddress(address _USDsAddr) external onlyOwner {\n\t\tUSDsInstance = USDs(_USDsAddr);\n\t}\n\n\tfunction updateOracleAddress(address _oracleAddr) external onlyOwner {\n\t\toracleAddr =  _oracleAddr;\n\t}\n\n\tfunction updateParameters(uint64 _chiInit, uint32 _chi_beta, uint32 _chi_gamma, uint32 _swapFee_p, uint32 _swapFee_theta, uint32 _swapFee_a, uint32 _swapFee_A, uint32 _allocatePrecentage) external onlyOwner {\n\t\tchiInit = _chiInit;\n\t\tchi_beta = _chi_beta;\n\t\tchi_gamma = _chi_gamma;\n\t\tswapFee_p = _swapFee_p;\n\t\tswapFee_theta = _swapFee_theta;\n\t\tswapFee_a = _swapFee_a;\n\t\tswapFee_A = _swapFee_A;\n\t\tallocatePrecentage = _allocatePrecentage;\n\t\temit parametersUpdated(chiInit, chi_beta, chi_gamma, swapFee_p, swapFee_theta, swapFee_a, swapFee_A, allocatePrecentage);\n\t}\n\n\t/**\n\t * @dev disable USDs mint & redeem\n\t */\n\tfunction updateMintBurnPermission(bool _mintRedeemAllowed) external onlyOwner {\n\t\tmintRedeemAllowed = _mintRedeemAllowed;\n\t\temit MintRedeemPermssionChanged(mintRedeemAllowed);\n\t}\n\t/**\n\t * @dev disable collateral re-investment\n\t */\n\tfunction updateAllocationPermission(bool _allocationAllowed) external onlyOwner {\n\t\tallocationAllowed = _allocationAllowed;\n\t\temit AllocationPermssionChanged(allocationAllowed);\n\t}\n\t/**\n\t * @dev disable swapInFee, i.e. mint becomes free\n\t */\n\tfunction updateSwapInFee(bool _swapfeeInAllowed) external onlyOwner {\n\t\tswapfeeInAllowed = _swapfeeInAllowed;\n\t\temit SwapFeeInPermissionChanged(swapfeeInAllowed);\n\t}\n\t/**\n\t * @dev disable swapOutFee, i.e. redeem becomes free\n\t */\n\tfunction updateSwapOutFee(bool _swapfeeOutAllowed) external onlyOwner {\n\t\tswapfeeOutAllowed = _swapfeeOutAllowed;\n\t\temit SwapFeeOutPermissionChanged(swapfeeOutAllowed);\n\t}\n\n\tfunction updateCollateralInfo(address _collateralAddr, bool _supported, address _defaultStrategyAddr, bool _allocationAllowed, address _buyBackAddr, bool _rebaseAllowed) external onlyOwner {\n\t\t_updateCollateralInfo(_collateralAddr, _supported, _defaultStrategyAddr, _allocationAllowed, _buyBackAddr, _rebaseAllowed);\n\t}\n\n\tfunction _updateCollateralInfo(address _collateralAddr, bool _supported, address _defaultStrategyAddr, bool _allocationAllowed, address _buyBackAddr, bool _rebaseAllowed) internal {\n\t\tcollateralStruct storage updatedCollateral = collateralsInfo[_collateralAddr];\n\t\tupdatedCollateral.collateralAddr = _collateralAddr;\n\t\tupdatedCollateral.supported = _supported;\n\t\tupdatedCollateral.defaultStrategyAddr = _defaultStrategyAddr;\n\t\tupdatedCollateral.allocationAllowed = _allocationAllowed;\n\t\tupdatedCollateral.buyBackAddr = _buyBackAddr;\n\t\temit CollateralInfoChanged(_collateralAddr, _supported, _defaultStrategyAddr, _allocationAllowed, _buyBackAddr, _rebaseAllowed);\n\t}\n\n\tfunction updateStrategyInfo(address _strategyAddr, bool _enabled) external onlyOwner {\n\t\t_updateStrategyInfo(_strategyAddr, _enabled);\n\t}\n\n\tfunction _updateStrategyInfo(address _strategyAddr, bool _enabled) internal {\n\t\tstrategyStruct storage updatedStrategy = strategiesInfo[_strategyAddr];\n\t\tupdatedStrategy.strategyAddr = _strategyAddr;\n\t\tupdatedStrategy.enabled = _enabled;\n\t\temit StrategyInfoChanged(_strategyAddr, _enabled);\n\t}\n\n\t/**\n\t * @dev mint USDs by entering USDs amount\n\t * @param collateralAddr the address of user's chosen collateral\n\t * @param USDsMintAmt the amount of USDs to be minted\n\t */\n\tfunction mintWithUSDs(address collateralAddr, uint USDsMintAmt, uint slippageCollateral, uint slippageSPA, uint deadline)\n\t\tpublic\n\t\twhenMintRedeemAllowed\n\t{\n\t\trequire(collateralsInfo[collateralAddr].supported, \"Collateral not supported\");\n\t\trequire(USDsMintAmt > 0, \"Amount needs to be greater than 0\");\n\t\t_mint(collateralAddr, USDsMintAmt, 0, USDsMintAmt, slippageCollateral, slippageSPA, deadline);\n\t}\n\n\t/**\n\t * @dev mint USDs by entering SPA amount\n\t * @param collateralAddr the address of user's chosen collateral\n\t * @param SPAamt the amount of SPA to burn\n\t */\n\n\tfunction mintWithSPA(address collateralAddr, uint SPAamt, uint slippageUSDs, uint slippageCollateral, uint deadline)\n\t\tpublic\n\t\twhenMintRedeemAllowed\n\t{\n\t\trequire(collateralsInfo[collateralAddr].supported, \"Collateral not supported\");\n\t\trequire(SPAamt > 0, \"Amount needs to be greater than 0\");\n\t\t_mint(collateralAddr, SPAamt, 1, slippageUSDs, slippageCollateral, SPAamt, deadline);\n\t}\n\n\t/**\n\t * @dev mint USDs by entering collateral amount (excluding ETH)\n\t * @param collateralAddr the address of user's chosen collateral\n\t * @param collateralAmt the amount of collateral to stake\n\t */\n\tfunction mintWithColla(address collateralAddr, uint collateralAmt, uint slippageUSDs, uint slippageSPA, uint deadline)\n\t\tpublic\n\t\twhenMintRedeemAllowed\n\t{\n\t\trequire(collateralsInfo[collateralAddr].supported, \"Collateral not supported\");\n\t\trequire(collateralAmt > 0, \"Amount needs to be greater than 0\");\n\t\t_mint(collateralAddr, collateralAmt, 2, slippageUSDs, collateralAmt, slippageSPA, deadline);\n\t}\n\n\t/**\n\t * @dev mint USDs by ETH\n\t * note: this function needs changes when USDs is deployed on other blockchain platform\n\t */\n\tfunction mintWithEth(uint slippageUSDs, uint slippageSPA, uint deadline) public payable whenMintRedeemAllowed {\n\t\trequire(msg.value > 0, \"Need to pay Ether\");\n\t\t_mint(address(0), msg.value, 3, slippageUSDs, msg.value, slippageSPA, deadline);\n\t}\n\n\n\t/**\n\t * @dev the generic, internal mint function\n\t * @param collateralAddr the address of the collateral\n\t * @param valueAmt the amount of tokens (the specific meaning depends on valueType)\n\t * @param valueType the type of tokens (specific meanings are listed lower)\n\t *\t\tvalueType = 0: mintWithUSDs\n\t *\t\tvalueType = 1: mintWithSPA\n\t *\t\tvalueType = 2: mintWithColla\n\t *\t\tvalueType = 3: mintWithETH\n\t */\n\tfunction _mint(\n\t\taddress collateralAddr,\n\t\tuint valueAmt,\n\t\tuint8 valueType,\n\t\tuint slippageUSDs,\n\t\tuint slippageCollat,\n\t\tuint slippageSPA,\n\t\tuint deadline\n\t) internal whenMintRedeemAllowed {\n\t\t// calculate all necessary related quantities based on user inputs\n\t\t(uint SPABurnAmt, uint collateralDepAmt, uint USDsAmt, uint swapFeeAmount) = VaultCoreLibrary.mintView(collateralAddr, valueAmt, valueType, address(this));\n\n\t\t// slippageUSDs is the minimum value of the minted USDs\n\t\t// slippageCollat is the maximum value of the required collateral\n\t\t// slippageSPA is the maximum value of the required spa\n\t\trequire(USDsAmt >= slippageUSDs, \"USDs amount is lower than the maximum slippage\");\n\t\trequire(collateralDepAmt <= slippageCollat, \"Collateral amount is more than the maximum slippage\");\n\t\trequire(SPABurnAmt >= slippageSPA, \"SPA amount is more than the maximum slippage\");\n\t\trequire(block.timestamp <= deadline, \"Deadline expired\");\n\n\t\t// burn SPA tokens\n\t\tISperaxToken(SPAaddr).burnFrom(msg.sender, SPABurnAmt);\n\t\tSPAburnt = SPAburnt.add(SPABurnAmt);\n\t\t// if it it not mintWithETH, stake collaterals\n\t\tif (valueType != 3) {\n\t\t\tERC20Upgradeable(collateralAddr).safeTransferFrom(msg.sender, address(this), collateralDepAmt);\n\t\t}\n\t\t// mint USDs and collect swapIn fees\n\t\tUSDsInstance.mint(msg.sender, USDsAmt);\n\t\tUSDsInstance.mint(address(this), swapFeeAmount);\n\t\temit USDsMinted(msg.sender, USDsAmt, collateralDepAmt, SPABurnAmt, swapFeeAmount);\n\t}\n\n\t/**\n\t *\n\t */\n\tfunction redeem(address collateralAddr, uint USDsAmt, uint slippageCollat, uint slippageSPA, uint deadline)\n\t\tpublic\n\t\twhenMintRedeemAllowed\n\t{\n\t\trequire(collateralsInfo[collateralAddr].supported, \"Collateral not supported\");\n\t\trequire(USDsAmt > 0, \"Amount needs to be greater than 0\");\n\t\t_redeem(collateralAddr, USDsAmt, slippageCollat, slippageSPA, deadline);\n\t}\n\n\tfunction _redeem(\n\t\taddress collateralAddr,\n\t\tuint USDsAmt,\n\t\tuint slippageCollat,\n\t\tuint slippageSPA,\n\t\tuint deadline\n\t) internal whenMintRedeemAllowed {\n\t\t(uint SPAMintAmt, uint collateralUnlockedAmt, uint USDsBurntAmt, uint swapFeeAmount) = VaultCoreLibrary.redeemView(collateralAddr, USDsAmt, address(this), oracleAddr);\n\n\t\t// slippageCollat is the minimum value of the unlocked collateral\n\t\t// slippageSPA is the minimum value of the minted spa\n\t\trequire(collateralUnlockedAmt >= slippageCollat, \"Collateral amount is lower than the maximum slippage\");\n\t\trequire(SPAMintAmt >= slippageSPA, \"SPA amount is lower than the maximum slippage\");\n\t\trequire(block.timestamp <= deadline, \"Deadline expired\");\n\n\t\tISperaxToken(SPAaddr).mintForUSDs(msg.sender, SPAMintAmt);\n\t\tSPAminted = SPAminted.add(SPAMintAmt);\n\t\tERC20Upgradeable(collateralAddr).safeTransfer(msg.sender, collateralUnlockedAmt);\n\t\tUSDsInstance.burn(msg.sender, USDsBurntAmt);\n\t\tUSDsInstance.transferFrom(msg.sender, address(this), swapFeeAmount);\n\n\t\temit USDsRedeemed(msg.sender, USDsBurntAmt, collateralUnlockedAmt,SPAMintAmt, swapFeeAmount);\n\t}\n\n\t/**\n\t * @dev Calculate the total value of collaterals held by the Vault and all\n\t *      strategies and update the supply of USDs.\n\t */\n\tfunction rebase() external onlyOwner {\n\t\t_rebase();\n\t}\n\n\t/**\n\t * @dev Calculate the total value of collaterals held by the Vault and all\n\t *      strategies and update the supply of USDs, optionaly sending a\n\t *      portion of the yield to the trustee.\n\t */\n\tfunction _rebase() internal {\n\t\tIStrategy strategy;\n\t\tcollateralStruct memory collateral;\n\t\tuint newTokensAmt;\n\t\tuint USDsSupply = USDsInstance._totalSupply();\n\t\tuint USDsSupplyIncrementTotal;\n\t\tuint USDsReceived;\n\t\tfor (uint y = 0; y < allCollaterals.length; y++) {\n\t\t\tcollateral = allCollaterals[y];\n\t\t\tstrategy = IStrategy(collateral.defaultStrategyAddr);\n\t\t\tnewTokensAmt = strategy.checkInterestEarned(collateral.collateralAddr);\n\t\t\tif (newTokensAmt > 0 && collateral.rebaseAllowed) {\n\t\t\t\tstrategy.withdraw(address(this), collateral.collateralAddr, newTokensAmt);\n\t\t\t\tUSDsReceived = IBuyback(collateral.buyBackAddr).swapExactInputSingle(newTokensAmt);\n\t\t\t\tUSDsInstance.burn(address(this), USDsReceived);\n\t\t\t\tUSDsSupplyIncrementTotal = USDsSupplyIncrementTotal.add(USDsReceived);\n\t\t\t}\n\t\t}\n\t\tuint USDsNewSupply = USDsSupply.add(USDsSupplyIncrementTotal);\n\t\tUSDsInstance.changeSupply(USDsNewSupply);\n\t\temit Rebase(USDsSupply, USDsNewSupply);\n\t}\n\t//\n\t// /**\n\t//  * @dev  _precision: same as chi (chi_prec)\n\t//  */\n\t//\n\tfunction collateralRatio() public view returns (uint ratio) {\n\t\tuint totalValueLocked = _totalValueLocked();\n\t\tuint USDsSupply = USDsInstance.totalSupply();\n\t\tuint priceUSDs = uint(IOracle(oracleAddr).getUSDsPrice());\n\t\tuint precisionUSDs = IOracle(oracleAddr).getUSDsPrice_prec();\n\t\tuint USDsValue = USDsSupply.mul(priceUSDs).div(precisionUSDs);\n\t\tratio = totalValueLocked.mul(chi_prec).div(USDsValue);\n\t}\n\n\tfunction totalValueLocked() external view returns (uint value) {\n\t\tvalue = _totalValueLocked();\n\t}\n\n\tfunction _totalValueLocked() internal view returns (uint value) {\n\t\tvalue = _totalValueInVault().add(_totalValueInStrategies());\n\t}\n\n\tfunction totalValueInVault() external view returns (uint value) {\n\t\tvalue = _totalValueInVault();\n\t}\n\n\tfunction _totalValueInVault() internal view returns (uint value) {\n\t\tfor (uint y = 0; y < allCollaterals.length; y++) {\n\t\t\tcollateralStruct memory collateral = allCollaterals[y];\n\t\t\tuint priceColla = IOracle(oracleAddr).getCollateralPrice(collateral.collateralAddr);\n\t\t\tuint precisionColla = IOracle(oracleAddr).getCollateralPrice_prec(collateral.collateralAddr);\n\t\t\tuint collateralAddrDecimal = uint(ERC20Upgradeable(collateral.collateralAddr).decimals());\n\t\t\tuint collaTotalValueInVault = ERC20Upgradeable(collateral.collateralAddr).balanceOf(address(this)).mul(priceColla).div(precisionColla);\n\t\t\tuint collaTotalValueInVault_18 = collaTotalValueInVault.mul(10**(uint(18).sub(collateralAddrDecimal)));\n\t\t\tvalue = value.add(collaTotalValueInVault_18);\n\t\t}\n\t}\n\n\tfunction totalValueInStrategies() external view returns (uint value) {\n\t\tvalue = _totalValueInStrategies();\n\t}\n\n\tfunction _totalValueInStrategies() internal view returns (uint value) {\n\t\tfor (uint i = 0; i < allStrategies.length; i++) {\n\t\t\tif (allStrategies[i].enabled) {\n\t\t\t\tvalue = value.add(_totalValueInStrategy(allStrategies[i].strategyAddr));\n\t\t\t}\n\t\t}\n\t}\n\n\tfunction _totalValueInStrategy(address _strategyAddr) internal view returns (uint value) {\n\t\tIStrategy strategy = IStrategy(_strategyAddr);\n\t\tfor (uint y = 0; y < allCollaterals.length; y++) {\n\t\t\tcollateralStruct memory collateral = allCollaterals[y];\n\t\t\tif (strategy.supportsCollateral(collateral.collateralAddr)) {\n\t\t\t\tuint priceColla = IOracle(oracleAddr).getCollateralPrice(collateral.collateralAddr);\n\t\t\t\tuint precisionColla = IOracle(oracleAddr).getCollateralPrice_prec(collateral.collateralAddr);\n\t\t\t\tuint collateralAddrDecimal = uint(ERC20Upgradeable(collateral.collateralAddr).decimals());\n\t\t\t\tuint collaTotalValueInStrategy = strategy.checkBalance(collateral.collateralAddr).mul(priceColla).div(precisionColla);\n\t\t\t\tuint collaTotalValueInStrategy_18 = collaTotalValueInStrategy.mul(10**(uint(18).sub(collateralAddrDecimal)));\n\t\t\t\tvalue = value.add(collaTotalValueInStrategy_18);\n\t\t\t}\n\t\t}\n\t}\n\n\t/**\n\t\t* @notice Allocate unallocated funds on Vault to strategies.\n\t\t* @dev Allocate unallocated funds on Vault to strategies.\n\t\t**/\n\tfunction allocateAll() external whenAllocationAllowed onlyOwner {\n\t\tfor (uint i = 0; i < allCollaterals.length; i++) {\n\t\t\tcollateralStruct memory collateral = allCollaterals[i];\n\t\t\tif (collateral.supported && collateral.allocationAllowed) {\n\t\t\t\tIStrategy strategyInstance = IStrategy(collateral.defaultStrategyAddr);\n\t\t\t\tuint amtInVault = ERC20Upgradeable(collateral.collateralAddr).balanceOf(address(this));\n\t\t\t\tuint amtInStrategy = strategyInstance.checkBalance(collateral.collateralAddr);\n\t\t\t\tuint amtTotal = amtInVault.add(amtInStrategy);\n\t\t\t\t(, uint amtToAllocate) = amtTotal.mul(allocatePrecentage).div(allocatePrecentage_prec).trySub(amtInStrategy);\n\t\t\t\tif (amtToAllocate > 0) {\n\t\t\t\t\t_allocate(collateral.collateralAddr, amtToAllocate);\n\t\t\t\t}\n\t\t\t}\n\t\t}\n\t}\n\n\tfunction allocate(address _collateralAddr, uint amtToAllocate) external whenAllocationAllowed onlyOwner {\n\t\t_allocate(_collateralAddr, amtToAllocate);\n\t}\n\n\t/**\n\t* @notice Allocate unallocated funds on Vault to strategies.\n\t* @dev Allocate unallocated funds on Vault to strategies.\n\t**/\n\tfunction _allocate(address _collateralAddr, uint amtToAllocate) internal {\n\t\tcollateralStruct memory collateral = collateralsInfo[_collateralAddr];\n\t\trequire(collateral.supported, \"_allocate: Collateral not supported. \");\n\t\trequire(collateral.defaultStrategyAddr != address(0), \"_allocate: Strategy not set. \");\n\t\trequire(collateral.allocationAllowed, \"_allocate: Allocation not allowed. \");\n\t\tIStrategy strategyInstance = IStrategy(collateralsInfo[_collateralAddr].defaultStrategyAddr);\n\t\tstrategyStruct memory strategy = strategiesInfo[collateralsInfo[_collateralAddr].defaultStrategyAddr];\n\t\trequire(strategy.strategyAddr != address(0), \"_allocate: Strategy not set. \");\n\t\trequire(strategy.enabled, \"_allocate: Strategy not enabled. \");\n\t\trequire(amtToAllocate > 0, \"_allocate: amtToAllocate should be positive. \");\n\t\tERC20Upgradeable(_collateralAddr).safeTransfer(collateral.defaultStrategyAddr, amtToAllocate);\n\t\tstrategyInstance.deposit(_collateralAddr, amtToAllocate);\n\t}\n\n}\n",
  "sourcePath": "/Users/daweizhao/Documents/Sperax/USDs/USDs github/USDs/contracts/vault/VaultCore.sol",
  "compiler": {
    "name": "solc",
    "version": "0.6.12+commit.27d51765.Emscripten.clang"
  },
  "schemaVersion": "3.3.4",
  "updatedAt": "2021-09-11T02:34:54.368Z",
  "devdoc": {
    "kind": "dev",
    "methods": {
      "allocateAll()": {
        "details": "Allocate unallocated funds on Vault to strategies.*"
      },
      "mintWithColla(address,uint256,uint256,uint256,uint256)": {
        "details": "mint USDs by entering collateral amount (excluding ETH)",
        "params": {
          "collateralAddr": "the address of user's chosen collateral",
          "collateralAmt": "the amount of collateral to stake"
        }
      },
      "mintWithEth(uint256,uint256,uint256)": {
        "details": "mint USDs by ETH note: this function needs changes when USDs is deployed on other blockchain platform"
      },
      "mintWithSPA(address,uint256,uint256,uint256,uint256)": {
        "details": "mint USDs by entering SPA amount",
        "params": {
          "SPAamt": "the amount of SPA to burn",
          "collateralAddr": "the address of user's chosen collateral"
        }
      },
      "mintWithUSDs(address,uint256,uint256,uint256,uint256)": {
        "details": "mint USDs by entering USDs amount",
        "params": {
          "USDsMintAmt": "the amount of USDs to be minted",
          "collateralAddr": "the address of user's chosen collateral"
        }
      },
      "owner()": {
        "details": "Returns the address of the current owner."
      },
      "rebase()": {
        "details": "Calculate the total value of collaterals held by the Vault and all      strategies and update the supply of USDs."
      },
      "renounceOwnership()": {
        "details": "Leaves the contract without owner. It will not be possible to call `onlyOwner` functions anymore. Can only be called by the current owner. NOTE: Renouncing ownership will leave the contract without an owner, thereby removing any functionality that is only available to the owner."
      },
      "transferOwnership(address)": {
        "details": "Transfers ownership of the contract to a new account (`newOwner`). Can only be called by the current owner."
      },
      "updateAllocationPermission(bool)": {
        "details": "disable collateral re-investment"
      },
      "updateMintBurnPermission(bool)": {
        "details": "disable USDs mint & redeem"
      },
      "updateSwapInFee(bool)": {
        "details": "disable swapInFee, i.e. mint becomes free"
      },
      "updateSwapOutFee(bool)": {
        "details": "disable swapOutFee, i.e. redeem becomes free"
      }
    },
    "version": 1
  },
  "userdoc": {
    "kind": "user",
    "methods": {
      "allocateAll()": {
        "notice": "Allocate unallocated funds on Vault to strategies."
      }
    },
    "version": 1
  }
}