{
  "contractName": "VaultStorage",
  "abi": [
    {
      "inputs": [],
      "name": "Q112",
      "outputs": [
        {
          "internalType": "uint256",
          "name": "",
          "type": "uint256"
        }
      ],
      "stateMutability": "view",
      "type": "function"
    },
    {
      "inputs": [],
      "name": "SPATokenAddr",
      "outputs": [
        {
          "internalType": "address",
          "name": "",
          "type": "address"
        }
      ],
      "stateMutability": "view",
      "type": "function"
    },
    {
      "inputs": [],
      "name": "SPAValut",
      "outputs": [
        {
          "internalType": "address",
          "name": "",
          "type": "address"
        }
      ],
      "stateMutability": "view",
      "type": "function"
    },
    {
      "inputs": [],
      "name": "USDsFeeValut",
      "outputs": [
        {
          "internalType": "address",
          "name": "",
          "type": "address"
        }
      ],
      "stateMutability": "view",
      "type": "function"
    },
    {
      "inputs": [],
      "name": "USDsYieldValut",
      "outputs": [
        {
          "internalType": "address",
          "name": "",
          "type": "address"
        }
      ],
      "stateMutability": "view",
      "type": "function"
    },
    {
      "inputs": [],
      "name": "chiAlpha",
      "outputs": [
        {
          "internalType": "uint256",
          "name": "",
          "type": "uint256"
        }
      ],
      "stateMutability": "view",
      "type": "function"
    },
    {
      "inputs": [],
      "name": "chiAlpha_Presion",
      "outputs": [
        {
          "internalType": "uint256",
          "name": "",
          "type": "uint256"
        }
      ],
      "stateMutability": "view",
      "type": "function"
    },
    {
      "inputs": [],
      "name": "chiBeta",
      "outputs": [
        {
          "internalType": "uint256",
          "name": "",
          "type": "uint256"
        }
      ],
      "stateMutability": "view",
      "type": "function"
    },
    {
      "inputs": [],
      "name": "chiGamma",
      "outputs": [
        {
          "internalType": "uint256",
          "name": "",
          "type": "uint256"
        }
      ],
      "stateMutability": "view",
      "type": "function"
    },
    {
      "inputs": [],
      "name": "chiInit",
      "outputs": [
        {
          "internalType": "uint256",
          "name": "",
          "type": "uint256"
        }
      ],
      "stateMutability": "view",
      "type": "function"
    },
    {
      "inputs": [],
      "name": "chiPresion",
      "outputs": [
        {
          "internalType": "uint256",
          "name": "",
          "type": "uint256"
        }
      ],
      "stateMutability": "view",
      "type": "function"
    },
    {
      "inputs": [],
      "name": "collaValut",
      "outputs": [
        {
          "internalType": "address",
          "name": "",
          "type": "address"
        }
      ],
      "stateMutability": "view",
      "type": "function"
    },
    {
      "inputs": [],
      "name": "mintRedeemAllowed",
      "outputs": [
        {
          "internalType": "bool",
          "name": "",
          "type": "bool"
        }
      ],
      "stateMutability": "view",
      "type": "function"
    },
    {
      "inputs": [],
      "name": "oracleAddr",
      "outputs": [
        {
          "internalType": "address",
          "name": "",
          "type": "address"
        }
      ],
      "stateMutability": "view",
      "type": "function"
    },
    {
      "inputs": [],
      "name": "swapFeePresion",
      "outputs": [
        {
          "internalType": "uint256",
          "name": "",
          "type": "uint256"
        }
      ],
      "stateMutability": "view",
      "type": "function"
    },
    {
      "inputs": [],
      "name": "swapFeeTheta",
      "outputs": [
        {
          "internalType": "uint256",
          "name": "",
          "type": "uint256"
        }
      ],
      "stateMutability": "view",
      "type": "function"
    },
    {
      "inputs": [],
      "name": "swapFee_P",
      "outputs": [
        {
          "internalType": "uint256",
          "name": "",
          "type": "uint256"
        }
      ],
      "stateMutability": "view",
      "type": "function"
    },
    {
      "inputs": [],
      "name": "swapFee_PPresion",
      "outputs": [
        {
          "internalType": "uint256",
          "name": "",
          "type": "uint256"
        }
      ],
      "stateMutability": "view",
      "type": "function"
    },
    {
      "inputs": [],
      "name": "swapfeeInAllowed",
      "outputs": [
        {
          "internalType": "bool",
          "name": "",
          "type": "bool"
        }
      ],
      "stateMutability": "view",
      "type": "function"
    },
    {
      "inputs": [],
      "name": "swapfeeOutAllowed",
      "outputs": [
        {
          "internalType": "bool",
          "name": "",
          "type": "bool"
        }
      ],
      "stateMutability": "view",
      "type": "function"
    }
  ],
  "bytecode": "0x608060405260016000806101000a81548160ff0219169083151502179055506001600060016101000a81548160ff0219169083151502179055506001600060026101000a81548160ff02191690831515021790555073fb931d41a744be590e8b51e2e343bbe030ac4f93600460006101000a81548173ffffffffffffffffffffffffffffffffffffffff021916908373ffffffffffffffffffffffffffffffffffffffff16021790555062017318600a553480156100bc57600080fd5b506105b1806100cc6000396000f3fe608060405234801561001057600080fd5b506004361061012c5760003560e01c806380e18135116100ad578063ceee77ed11610071578063ceee77ed14610351578063e661133714610385578063f62f8430146103a3578063faeddc90146103d7578063fff4bad1146103f55761012c565b806380e181351461028d5780639145e088146102ab578063a09caa18146102c9578063be002f6e146102e9578063cc31fccb1461031d5761012c565b806358ef165e116100f457806358ef165e146101df5780635b912051146101fd578063638372c11461021b5780637080460f146102395780637e4e61d7146102595761012c565b806316e63e3014610131578063356c61ea146101655780633bf7a83e146101835780634b521499146101a157806357635e91146101bf575b600080fd5b610139610413565b604051808273ffffffffffffffffffffffffffffffffffffffff16815260200191505060405180910390f35b61016d610439565b6040518082815260200191505060405180910390f35b61018b61043f565b6040518082815260200191505060405180910390f35b6101a9610452565b6040518082815260200191505060405180910390f35b6101c7610459565b60405180821515815260200191505060405180910390f35b6101e761046a565b6040518082815260200191505060405180910390f35b610205610471565b6040518082815260200191505060405180910390f35b610223610476565b6040518082815260200191505060405180910390f35b61024161047c565b60405180821515815260200191505060405180910390f35b61026161048f565b604051808273ffffffffffffffffffffffffffffffffffffffff16815260200191505060405180910390f35b6102956104b5565b6040518082815260200191505060405180910390f35b6102b36104bb565b6040518082815260200191505060405180910390f35b6102d16104c0565b60405180821515815260200191505060405180910390f35b6102f16104d3565b604051808273ffffffffffffffffffffffffffffffffffffffff16815260200191505060405180910390f35b6103256104f9565b604051808273ffffffffffffffffffffffffffffffffffffffff16815260200191505060405180910390f35b61035961051f565b604051808273ffffffffffffffffffffffffffffffffffffffff16815260200191505060405180910390f35b61038d610545565b6040518082815260200191505060405180910390f35b6103ab61054a565b604051808273ffffffffffffffffffffffffffffffffffffffff16815260200191505060405180910390f35b6103df610570565b6040518082815260200191505060405180910390f35b6103fd610576565b6040518082815260200191505060405180910390f35b600460009054906101000a900473ffffffffffffffffffffffffffffffffffffffff1681565b6103e381565b6e01000000000000000000000000000081565b620f424081565b60008054906101000a900460ff1681565b620186a081565b600181565b61271081565b600060029054906101000a900460ff1681565b600560009054906101000a900473ffffffffffffffffffffffffffffffffffffffff1681565b6103e881565b600181565b600060019054906101000a900460ff1681565b600860009054906101000a900473ffffffffffffffffffffffffffffffffffffffff1681565b600960009054906101000a900473ffffffffffffffffffffffffffffffffffffffff1681565b600660009054906101000a900473ffffffffffffffffffffffffffffffffffffffff1681565b603281565b600760009054906101000a900473ffffffffffffffffffffffffffffffffffffffff1681565b600a5481565b60c88156fea264697066735822122018363be22d6086fa01ddf2d278a28e159427ea024bcd3ece5ccf363c07a173d864736f6c634300060c0033",
  "immutableReferences": {},
  "source": "pragma solidity ^0.6.12;\n\nimport { USDs } from \"../token/USDs.sol\";\nimport { BancorFormula } from \"../libraries/BancorFormula.sol\";\n\ncontract VaultStorage {\n\tuint256 public constant Q112 = 0x10000000000000000000000000000;\n\n\tbool public mintRedeemAllowed = true;\n\n\tbool public swapfeeInAllowed = true;\n\tbool public swapfeeOutAllowed = true;\n\n\tmapping(address => bool) supportedCollat;\n\taddress[] allCollat;\n\taddress[] allStrategies;\n\n\taddress public SPATokenAddr = 0xFb931d41A744bE590E8B51e2e343bBE030aC4f93;\n\taddress public oracleAddr;\n\taddress public collaValut;\n\taddress public SPAValut;\n\taddress public USDsFeeValut;\n\taddress public USDsYieldValut;\n\n\tuint public chiInit = 95000;\n\tuint public constant chiPresion = 100000;\n\tuint public constant chiAlpha = 200;\n\tuint public constant chiAlpha_Presion = 10000;\n\tuint public constant chiBeta = 1;\n\tuint public constant chiGamma = 1;\n\n\tuint public constant swapFeePresion = 1000000;\n\tuint public constant swapFee_P = 995;\n\tuint public constant swapFee_PPresion = 1000;\n\tuint public constant swapFeeTheta = 50;\n\n\tUSDs USDsInstance;\n\tBancorFormula BancorInstance;\n\n}\n",
  "sourcePath": "/Users/daweizhao/Documents/Sperax/USDs/USDs github/USDs/contracts/vault/VaultStorage.sol",
  "compiler": {
    "name": "solc",
    "version": "0.6.12+commit.27d51765.Emscripten.clang"
  },
  "schemaVersion": "3.3.4",
  "updatedAt": "2021-07-11T23:56:21.877Z",
  "devdoc": {
    "kind": "dev",
    "methods": {},
    "version": 1
  },
  "userdoc": {
    "kind": "user",
    "methods": {},
    "version": 1
  }
}