{
  "abi": [
    {
      "anonymous": false,
      "inputs": [
        {
          "indexed": true,
          "internalType": "bool",
          "name": "permission",
          "type": "bool"
        }
      ],
      "name": "AllocationPermssionChanged",
      "type": "event"
    },
    {
      "anonymous": false,
      "inputs": [
        {
          "indexed": true,
          "internalType": "address",
          "name": "collateralAddr",
          "type": "address"
        },
        {
          "indexed": false,
          "internalType": "bool",
          "name": "addded",
          "type": "bool"
        },
        {
          "indexed": false,
          "internalType": "address",
          "name": "defaultStrategyAddr",
          "type": "address"
        },
        {
          "indexed": false,
          "internalType": "bool",
          "name": "allocationAllowed",
          "type": "bool"
        },
        {
          "indexed": false,
          "internalType": "address",
          "name": "buyBackAddr",
          "type": "address"
        },
        {
          "indexed": false,
          "internalType": "bool",
          "name": "rebaseAllowed",
          "type": "bool"
        }
      ],
      "name": "CollateralAdded",
      "type": "event"
    },
    {
      "anonymous": false,
      "inputs": [
        {
          "indexed": true,
          "internalType": "address",
          "name": "collateralAddr",
          "type": "address"
        },
        {
          "indexed": true,
          "internalType": "address",
          "name": "depositStrategyAddr",
          "type": "address"
        },
        {
          "indexed": false,
          "internalType": "uint256",
          "name": "allocateAmount",
          "type": "uint256"
        }
      ],
      "name": "CollateralAllocated",
      "type": "event"
    },
    {
      "anonymous": false,
      "inputs": [
        {
          "indexed": true,
          "internalType": "address",
          "name": "collateralAddr",
          "type": "address"
        },
        {
          "indexed": false,
          "internalType": "bool",
          "name": "addded",
          "type": "bool"
        },
        {
          "indexed": false,
          "internalType": "address",
          "name": "defaultStrategyAddr",
          "type": "address"
        },
        {
          "indexed": false,
          "internalType": "bool",
          "name": "allocationAllowed",
          "type": "bool"
        },
        {
          "indexed": false,
          "internalType": "address",
          "name": "buyBackAddr",
          "type": "address"
        },
        {
          "indexed": false,
          "internalType": "bool",
          "name": "rebaseAllowed",
          "type": "bool"
        }
      ],
      "name": "CollateralChanged",
      "type": "event"
    },
    {
      "anonymous": false,
      "inputs": [
        {
          "indexed": true,
          "internalType": "bool",
          "name": "permission",
          "type": "bool"
        }
      ],
      "name": "MintRedeemPermssionChanged",
      "type": "event"
    },
    {
      "anonymous": false,
      "inputs": [
        {
          "indexed": true,
          "internalType": "address",
          "name": "previousOwner",
          "type": "address"
        },
        {
          "indexed": true,
          "internalType": "address",
          "name": "newOwner",
          "type": "address"
        }
      ],
      "name": "OwnershipTransferred",
      "type": "event"
    },
    {
      "anonymous": false,
      "inputs": [
        {
          "indexed": true,
          "internalType": "uint256",
          "name": "oldSupply",
          "type": "uint256"
        },
        {
          "indexed": true,
          "internalType": "uint256",
          "name": "newSupply",
          "type": "uint256"
        }
      ],
      "name": "Rebase",
      "type": "event"
    },
    {
      "anonymous": false,
      "inputs": [
        {
          "indexed": true,
          "internalType": "bytes32",
          "name": "role",
          "type": "bytes32"
        },
        {
          "indexed": true,
          "internalType": "bytes32",
          "name": "previousAdminRole",
          "type": "bytes32"
        },
        {
          "indexed": true,
          "internalType": "bytes32",
          "name": "newAdminRole",
          "type": "bytes32"
        }
      ],
      "name": "RoleAdminChanged",
      "type": "event"
    },
    {
      "anonymous": false,
      "inputs": [
        {
          "indexed": true,
          "internalType": "bytes32",
          "name": "role",
          "type": "bytes32"
        },
        {
          "indexed": true,
          "internalType": "address",
          "name": "account",
          "type": "address"
        },
        {
          "indexed": true,
          "internalType": "address",
          "name": "sender",
          "type": "address"
        }
      ],
      "name": "RoleGranted",
      "type": "event"
    },
    {
      "anonymous": false,
      "inputs": [
        {
          "indexed": true,
          "internalType": "bytes32",
          "name": "role",
          "type": "bytes32"
        },
        {
          "indexed": true,
          "internalType": "address",
          "name": "account",
          "type": "address"
        },
        {
          "indexed": true,
          "internalType": "address",
          "name": "sender",
          "type": "address"
        }
      ],
      "name": "RoleRevoked",
      "type": "event"
    },
    {
      "anonymous": false,
      "inputs": [
        {
          "indexed": false,
          "internalType": "address",
          "name": "strategyAddr",
          "type": "address"
        },
        {
          "indexed": false,
          "internalType": "bool",
          "name": "added",
          "type": "bool"
        }
      ],
      "name": "StrategyAdded",
      "type": "event"
    },
    {
      "anonymous": false,
      "inputs": [
        {
          "indexed": true,
          "internalType": "bool",
          "name": "swapfeeInAllowed",
          "type": "bool"
        },
        {
          "indexed": true,
          "internalType": "bool",
          "name": "swapfeeOutAllowed",
          "type": "bool"
        }
      ],
      "name": "SwapFeeInOutPermissionChanged",
      "type": "event"
    },
    {
      "anonymous": false,
      "inputs": [
        {
          "indexed": true,
          "internalType": "address",
          "name": "wallet",
          "type": "address"
        },
        {
          "indexed": true,
          "internalType": "uint256",
          "name": "USDsAmt",
          "type": "uint256"
        },
        {
          "indexed": false,
          "internalType": "uint256",
          "name": "collateralAmt",
          "type": "uint256"
        },
        {
          "indexed": false,
          "internalType": "uint256",
          "name": "SPAsAmt",
          "type": "uint256"
        },
        {
          "indexed": false,
          "internalType": "uint256",
          "name": "feeAmt",
          "type": "uint256"
        }
      ],
      "name": "USDsMinted",
      "type": "event"
    },
    {
      "anonymous": false,
      "inputs": [
        {
          "indexed": true,
          "internalType": "address",
          "name": "wallet",
          "type": "address"
        },
        {
          "indexed": true,
          "internalType": "uint256",
          "name": "USDsAmt",
          "type": "uint256"
        },
        {
          "indexed": false,
          "internalType": "uint256",
          "name": "collateralAmt",
          "type": "uint256"
        },
        {
          "indexed": false,
          "internalType": "uint256",
          "name": "SPAsAmt",
          "type": "uint256"
        },
        {
          "indexed": false,
          "internalType": "uint256",
          "name": "feeAmt",
          "type": "uint256"
        }
      ],
      "name": "USDsRedeemed",
      "type": "event"
    },
    {
      "anonymous": false,
      "inputs": [
        {
          "indexed": false,
          "internalType": "uint256",
          "name": "_chiInit",
          "type": "uint256"
        },
        {
          "indexed": false,
          "internalType": "uint32",
          "name": "_chi_beta",
          "type": "uint32"
        },
        {
          "indexed": false,
          "internalType": "uint32",
          "name": "_chi_gamma",
          "type": "uint32"
        },
        {
          "indexed": false,
          "internalType": "uint32",
          "name": "_swapFee_p",
          "type": "uint32"
        },
        {
          "indexed": false,
          "internalType": "uint32",
          "name": "_swapFee_theta",
          "type": "uint32"
        },
        {
          "indexed": false,
          "internalType": "uint32",
          "name": "_swapFee_a",
          "type": "uint32"
        },
        {
          "indexed": false,
          "internalType": "uint32",
          "name": "_swapFee_A",
          "type": "uint32"
        },
        {
          "indexed": false,
          "internalType": "uint32",
          "name": "_allocatePrecentage",
          "type": "uint32"
        }
      ],
      "name": "parametersUpdated",
      "type": "event"
    },
    {
      "inputs": [],
      "name": "BancorInstance",
      "outputs": [
        {
          "internalType": "contract BancorFormula",
          "name": "",
          "type": "address"
        }
      ],
      "stateMutability": "view",
      "type": "function"
    },
    {
      "inputs": [],
      "name": "DEFAULT_ADMIN_ROLE",
      "outputs": [
        {
          "internalType": "bytes32",
          "name": "",
          "type": "bytes32"
        }
      ],
      "stateMutability": "view",
      "type": "function"
    },
    {
      "inputs": [],
      "name": "REBASER_ROLE",
      "outputs": [
        {
          "internalType": "bytes32",
          "name": "",
          "type": "bytes32"
        }
      ],
      "stateMutability": "view",
      "type": "function"
    },
    {
      "inputs": [],
      "name": "SPAaddr",
      "outputs": [
        {
          "internalType": "address",
          "name": "",
          "type": "address"
        }
      ],
      "stateMutability": "view",
      "type": "function"
    },
    {
      "inputs": [],
      "name": "SPAburnt",
      "outputs": [
        {
          "internalType": "uint256",
          "name": "",
          "type": "uint256"
        }
      ],
      "stateMutability": "view",
      "type": "function"
    },
    {
      "inputs": [],
      "name": "SPAminted",
      "outputs": [
        {
          "internalType": "uint256",
          "name": "",
          "type": "uint256"
        }
      ],
      "stateMutability": "view",
      "type": "function"
    },
    {
      "inputs": [],
      "name": "SPAvault",
      "outputs": [
        {
          "internalType": "address",
          "name": "",
          "type": "address"
        }
      ],
      "stateMutability": "view",
      "type": "function"
    },
    {
      "inputs": [],
      "name": "USDsAddr",
      "outputs": [
        {
          "internalType": "address",
          "name": "",
          "type": "address"
        }
      ],
      "stateMutability": "view",
      "type": "function"
    },
    {
      "inputs": [
        {
          "internalType": "address",
          "name": "_collateralAddr",
          "type": "address"
        },
        {
          "internalType": "address",
          "name": "_defaultStrategyAddr",
          "type": "address"
        },
        {
          "internalType": "bool",
          "name": "_allocationAllowed",
          "type": "bool"
        },
        {
          "internalType": "address",
          "name": "_buyBackAddr",
          "type": "address"
        },
        {
          "internalType": "bool",
          "name": "_rebaseAllowed",
          "type": "bool"
        }
      ],
      "name": "addCollateral",
      "outputs": [],
      "stateMutability": "nonpayable",
      "type": "function"
    },
    {
      "inputs": [
        {
          "internalType": "address",
          "name": "_strategyAddr",
          "type": "address"
        }
      ],
      "name": "addStrategy",
      "outputs": [],
      "stateMutability": "nonpayable",
      "type": "function"
    },
    {
      "inputs": [],
      "name": "allocatePrecentage",
      "outputs": [
        {
          "internalType": "uint32",
          "name": "",
          "type": "uint32"
        }
      ],
      "stateMutability": "view",
      "type": "function"
    },
    {
      "inputs": [],
      "name": "allocatePrecentage_prec",
      "outputs": [
        {
          "internalType": "uint16",
          "name": "",
          "type": "uint16"
        }
      ],
      "stateMutability": "view",
      "type": "function"
    },
    {
      "inputs": [],
      "name": "allocationAllowed",
      "outputs": [
        {
          "internalType": "bool",
          "name": "",
          "type": "bool"
        }
      ],
      "stateMutability": "view",
      "type": "function"
    },
    {
      "inputs": [],
      "name": "chiInit",
      "outputs": [
        {
          "internalType": "uint256",
          "name": "",
          "type": "uint256"
        }
      ],
      "stateMutability": "view",
      "type": "function"
    },
    {
      "inputs": [],
      "name": "chi_alpha",
      "outputs": [
        {
          "internalType": "uint32",
          "name": "",
          "type": "uint32"
        }
      ],
      "stateMutability": "view",
      "type": "function"
    },
    {
      "inputs": [],
      "name": "chi_alpha_prec",
      "outputs": [
        {
          "internalType": "uint64",
          "name": "",
          "type": "uint64"
        }
      ],
      "stateMutability": "view",
      "type": "function"
    },
    {
      "inputs": [],
      "name": "chi_beta",
      "outputs": [
        {
          "internalType": "uint32",
          "name": "",
          "type": "uint32"
        }
      ],
      "stateMutability": "view",
      "type": "function"
    },
    {
      "inputs": [],
      "name": "chi_beta_prec",
      "outputs": [
        {
          "internalType": "uint16",
          "name": "",
          "type": "uint16"
        }
      ],
      "stateMutability": "view",
      "type": "function"
    },
    {
      "inputs": [],
      "name": "chi_gamma",
      "outputs": [
        {
          "internalType": "uint32",
          "name": "",
          "type": "uint32"
        }
      ],
      "stateMutability": "view",
      "type": "function"
    },
    {
      "inputs": [],
      "name": "chi_gamma_prec",
      "outputs": [
        {
          "internalType": "uint16",
          "name": "",
          "type": "uint16"
        }
      ],
      "stateMutability": "view",
      "type": "function"
    },
    {
      "inputs": [],
      "name": "chi_prec",
      "outputs": [
        {
          "internalType": "uint64",
          "name": "",
          "type": "uint64"
        }
      ],
      "stateMutability": "view",
      "type": "function"
    },
    {
      "inputs": [],
      "name": "collateralRatio",
      "outputs": [
        {
          "internalType": "uint256",
          "name": "ratio",
          "type": "uint256"
        }
      ],
      "stateMutability": "view",
      "type": "function"
    },
    {
      "inputs": [
        {
          "internalType": "bytes32",
          "name": "role",
          "type": "bytes32"
        }
      ],
      "name": "getRoleAdmin",
      "outputs": [
        {
          "internalType": "bytes32",
          "name": "",
          "type": "bytes32"
        }
      ],
      "stateMutability": "view",
      "type": "function"
    },
    {
      "inputs": [
        {
          "internalType": "bytes32",
          "name": "role",
          "type": "bytes32"
        },
        {
          "internalType": "uint256",
          "name": "index",
          "type": "uint256"
        }
      ],
      "name": "getRoleMember",
      "outputs": [
        {
          "internalType": "address",
          "name": "",
          "type": "address"
        }
      ],
      "stateMutability": "view",
      "type": "function"
    },
    {
      "inputs": [
        {
          "internalType": "bytes32",
          "name": "role",
          "type": "bytes32"
        }
      ],
      "name": "getRoleMemberCount",
      "outputs": [
        {
          "internalType": "uint256",
          "name": "",
          "type": "uint256"
        }
      ],
      "stateMutability": "view",
      "type": "function"
    },
    {
      "inputs": [
        {
          "internalType": "bytes32",
          "name": "role",
          "type": "bytes32"
        },
        {
          "internalType": "address",
          "name": "account",
          "type": "address"
        }
      ],
      "name": "grantRole",
      "outputs": [],
      "stateMutability": "nonpayable",
      "type": "function"
    },
    {
      "inputs": [
        {
          "internalType": "bytes32",
          "name": "role",
          "type": "bytes32"
        },
        {
          "internalType": "address",
          "name": "account",
          "type": "address"
        }
      ],
      "name": "hasRole",
      "outputs": [
        {
          "internalType": "bool",
          "name": "",
          "type": "bool"
        }
      ],
      "stateMutability": "view",
      "type": "function"
    },
    {
      "inputs": [
        {
          "internalType": "address",
          "name": "_SPAaddr",
          "type": "address"
        },
        {
          "internalType": "address",
          "name": "_BancorFormulaAddr",
          "type": "address"
        }
      ],
      "name": "initialize",
      "outputs": [],
      "stateMutability": "nonpayable",
      "type": "function"
    },
    {
      "inputs": [],
      "name": "mintRedeemAllowed",
      "outputs": [
        {
          "internalType": "bool",
          "name": "",
          "type": "bool"
        }
      ],
      "stateMutability": "view",
      "type": "function"
    },
    {
      "inputs": [
        {
          "internalType": "address",
          "name": "collateralAddr",
          "type": "address"
        },
        {
          "internalType": "uint256",
          "name": "collateralAmt",
          "type": "uint256"
        },
        {
          "internalType": "uint256",
          "name": "slippageUSDs",
          "type": "uint256"
        },
        {
          "internalType": "uint256",
          "name": "slippageSPA",
          "type": "uint256"
        },
        {
          "internalType": "uint256",
          "name": "deadline",
          "type": "uint256"
        }
      ],
      "name": "mintWithColla",
      "outputs": [],
      "stateMutability": "nonpayable",
      "type": "function"
    },
    {
      "inputs": [
        {
          "internalType": "uint256",
          "name": "slippageUSDs",
          "type": "uint256"
        },
        {
          "internalType": "uint256",
          "name": "slippageSPA",
          "type": "uint256"
        },
        {
          "internalType": "uint256",
          "name": "deadline",
          "type": "uint256"
        }
      ],
      "name": "mintWithEth",
      "outputs": [],
      "stateMutability": "payable",
      "type": "function"
    },
    {
      "inputs": [
        {
          "internalType": "address",
          "name": "collateralAddr",
          "type": "address"
        },
        {
          "internalType": "uint256",
          "name": "SPAamt",
          "type": "uint256"
        },
        {
          "internalType": "uint256",
          "name": "slippageUSDs",
          "type": "uint256"
        },
        {
          "internalType": "uint256",
          "name": "slippageCollateral",
          "type": "uint256"
        },
        {
          "internalType": "uint256",
          "name": "deadline",
          "type": "uint256"
        }
      ],
      "name": "mintWithSPA",
      "outputs": [],
      "stateMutability": "nonpayable",
      "type": "function"
    },
    {
      "inputs": [
        {
          "internalType": "address",
          "name": "collateralAddr",
          "type": "address"
        },
        {
          "internalType": "uint256",
          "name": "USDsMintAmt",
          "type": "uint256"
        },
        {
          "internalType": "uint256",
          "name": "slippageCollateral",
          "type": "uint256"
        },
        {
          "internalType": "uint256",
          "name": "slippageSPA",
          "type": "uint256"
        },
        {
          "internalType": "uint256",
          "name": "deadline",
          "type": "uint256"
        }
      ],
      "name": "mintWithUSDs",
      "outputs": [],
      "stateMutability": "nonpayable",
      "type": "function"
    },
    {
      "inputs": [],
      "name": "oracleAddr",
      "outputs": [
        {
          "internalType": "address",
          "name": "",
          "type": "address"
        }
      ],
      "stateMutability": "view",
      "type": "function"
    },
    {
      "inputs": [],
      "name": "owner",
      "outputs": [
        {
          "internalType": "address",
          "name": "",
          "type": "address"
        }
      ],
      "stateMutability": "view",
      "type": "function"
    },
    {
      "inputs": [],
      "name": "rebase",
      "outputs": [],
      "stateMutability": "nonpayable",
      "type": "function"
    },
    {
      "inputs": [],
      "name": "rebaseAllowed",
      "outputs": [
        {
          "internalType": "bool",
          "name": "",
          "type": "bool"
        }
      ],
      "stateMutability": "view",
      "type": "function"
    },
    {
      "inputs": [
        {
          "internalType": "address",
          "name": "collateralAddr",
          "type": "address"
        },
        {
          "internalType": "uint256",
          "name": "USDsAmt",
          "type": "uint256"
        },
        {
          "internalType": "uint256",
          "name": "slippageCollat",
          "type": "uint256"
        },
        {
          "internalType": "uint256",
          "name": "slippageSPA",
          "type": "uint256"
        },
        {
          "internalType": "uint256",
          "name": "deadline",
          "type": "uint256"
        }
      ],
      "name": "redeem",
      "outputs": [],
      "stateMutability": "nonpayable",
      "type": "function"
    },
    {
      "inputs": [
        {
          "internalType": "uint256",
          "name": "USDsAmt",
          "type": "uint256"
        },
        {
          "internalType": "uint256",
          "name": "slippageEth",
          "type": "uint256"
        },
        {
          "internalType": "uint256",
          "name": "slippageSPA",
          "type": "uint256"
        },
        {
          "internalType": "uint256",
          "name": "deadline",
          "type": "uint256"
        }
      ],
      "name": "redeemWithEth",
      "outputs": [],
      "stateMutability": "nonpayable",
      "type": "function"
    },
    {
      "inputs": [],
      "name": "renounceOwnership",
      "outputs": [],
      "stateMutability": "nonpayable",
      "type": "function"
    },
    {
      "inputs": [
        {
          "internalType": "bytes32",
          "name": "role",
          "type": "bytes32"
        },
        {
          "internalType": "address",
          "name": "account",
          "type": "address"
        }
      ],
      "name": "renounceRole",
      "outputs": [],
      "stateMutability": "nonpayable",
      "type": "function"
    },
    {
      "inputs": [
        {
          "internalType": "bytes32",
          "name": "role",
          "type": "bytes32"
        },
        {
          "internalType": "address",
          "name": "account",
          "type": "address"
        }
      ],
      "name": "revokeRole",
      "outputs": [],
      "stateMutability": "nonpayable",
      "type": "function"
    },
    {
      "inputs": [],
      "name": "startBlockHeight",
      "outputs": [
        {
          "internalType": "uint256",
          "name": "",
          "type": "uint256"
        }
      ],
      "stateMutability": "view",
      "type": "function"
    },
    {
      "inputs": [],
      "name": "swapFee_A",
      "outputs": [
        {
          "internalType": "uint32",
          "name": "",
          "type": "uint32"
        }
      ],
      "stateMutability": "view",
      "type": "function"
    },
    {
      "inputs": [],
      "name": "swapFee_A_prec",
      "outputs": [
        {
          "internalType": "uint16",
          "name": "",
          "type": "uint16"
        }
      ],
      "stateMutability": "view",
      "type": "function"
    },
    {
      "inputs": [],
      "name": "swapFee_a",
      "outputs": [
        {
          "internalType": "uint32",
          "name": "",
          "type": "uint32"
        }
      ],
      "stateMutability": "view",
      "type": "function"
    },
    {
      "inputs": [],
      "name": "swapFee_a_prec",
      "outputs": [
        {
          "internalType": "uint16",
          "name": "",
          "type": "uint16"
        }
      ],
      "stateMutability": "view",
      "type": "function"
    },
    {
      "inputs": [],
      "name": "swapFee_p",
      "outputs": [
        {
          "internalType": "uint32",
          "name": "",
          "type": "uint32"
        }
      ],
      "stateMutability": "view",
      "type": "function"
    },
    {
      "inputs": [],
      "name": "swapFee_p_prec",
      "outputs": [
        {
          "internalType": "uint16",
          "name": "",
          "type": "uint16"
        }
      ],
      "stateMutability": "view",
      "type": "function"
    },
    {
      "inputs": [],
      "name": "swapFee_prec",
      "outputs": [
        {
          "internalType": "uint64",
          "name": "",
          "type": "uint64"
        }
      ],
      "stateMutability": "view",
      "type": "function"
    },
    {
      "inputs": [],
      "name": "swapFee_theta",
      "outputs": [
        {
          "internalType": "uint32",
          "name": "",
          "type": "uint32"
        }
      ],
      "stateMutability": "view",
      "type": "function"
    },
    {
      "inputs": [],
      "name": "swapFee_theta_prec",
      "outputs": [
        {
          "internalType": "uint16",
          "name": "",
          "type": "uint16"
        }
      ],
      "stateMutability": "view",
      "type": "function"
    },
    {
      "inputs": [],
      "name": "swapfeeInAllowed",
      "outputs": [
        {
          "internalType": "bool",
          "name": "",
          "type": "bool"
        }
      ],
      "stateMutability": "view",
      "type": "function"
    },
    {
      "inputs": [],
      "name": "swapfeeOutAllowed",
      "outputs": [
        {
          "internalType": "bool",
          "name": "",
          "type": "bool"
        }
      ],
      "stateMutability": "view",
      "type": "function"
    },
    {
      "inputs": [],
      "name": "totalValueInStrategies",
      "outputs": [
        {
          "internalType": "uint256",
          "name": "value",
          "type": "uint256"
        }
      ],
      "stateMutability": "view",
      "type": "function"
    },
    {
      "inputs": [],
      "name": "totalValueInVault",
      "outputs": [
        {
          "internalType": "uint256",
          "name": "value",
          "type": "uint256"
        }
      ],
      "stateMutability": "view",
      "type": "function"
    },
    {
      "inputs": [],
      "name": "totalValueLocked",
      "outputs": [
        {
          "internalType": "uint256",
          "name": "value",
          "type": "uint256"
        }
      ],
      "stateMutability": "view",
      "type": "function"
    },
    {
      "inputs": [
        {
          "internalType": "address",
          "name": "newOwner",
          "type": "address"
        }
      ],
      "name": "transferOwnership",
      "outputs": [],
      "stateMutability": "nonpayable",
      "type": "function"
    },
    {
      "inputs": [
        {
          "internalType": "bool",
          "name": "_allocationAllowed",
          "type": "bool"
        }
      ],
      "name": "updateAllocationPermission",
      "outputs": [],
      "stateMutability": "nonpayable",
      "type": "function"
    },
    {
      "inputs": [
        {
          "internalType": "address",
          "name": "_collateralAddr",
          "type": "address"
        },
        {
          "internalType": "address",
          "name": "_defaultStrategyAddr",
          "type": "address"
        },
        {
          "internalType": "bool",
          "name": "_allocationAllowed",
          "type": "bool"
        },
        {
          "internalType": "address",
          "name": "_buyBackAddr",
          "type": "address"
        },
        {
          "internalType": "bool",
          "name": "_rebaseAllowed",
          "type": "bool"
        }
      ],
      "name": "updateCollateralInfo",
      "outputs": [],
      "stateMutability": "nonpayable",
      "type": "function"
    },
    {
      "inputs": [
        {
          "internalType": "bool",
          "name": "_mintRedeemAllowed",
          "type": "bool"
        }
      ],
      "name": "updateMintBurnPermission",
      "outputs": [],
      "stateMutability": "nonpayable",
      "type": "function"
    },
    {
      "inputs": [
        {
          "internalType": "address",
          "name": "_oracleAddr",
          "type": "address"
        }
      ],
      "name": "updateOracleAddress",
      "outputs": [],
      "stateMutability": "nonpayable",
      "type": "function"
    },
    {
      "inputs": [
        {
          "internalType": "uint256",
          "name": "_chiInit",
          "type": "uint256"
        },
        {
          "internalType": "uint32",
          "name": "_chi_beta",
          "type": "uint32"
        },
        {
          "internalType": "uint32",
          "name": "_chi_gamma",
          "type": "uint32"
        },
        {
          "internalType": "uint32",
          "name": "_swapFee_p",
          "type": "uint32"
        },
        {
          "internalType": "uint32",
          "name": "_swapFee_theta",
          "type": "uint32"
        },
        {
          "internalType": "uint32",
          "name": "_swapFee_a",
          "type": "uint32"
        },
        {
          "internalType": "uint32",
          "name": "_swapFee_A",
          "type": "uint32"
        },
        {
          "internalType": "uint32",
          "name": "_allocatePrecentage",
          "type": "uint32"
        }
      ],
      "name": "updateParameters",
      "outputs": [],
      "stateMutability": "nonpayable",
      "type": "function"
    },
    {
      "inputs": [
        {
          "internalType": "bool",
          "name": "_swapfeeInAllowed",
          "type": "bool"
        },
        {
          "internalType": "bool",
          "name": "_swapfeeOutAllowed",
          "type": "bool"
        }
      ],
      "name": "updateSwapInOutFeePermission",
      "outputs": [],
      "stateMutability": "nonpayable",
      "type": "function"
    },
    {
      "inputs": [
        {
          "internalType": "address",
          "name": "_USDsAddr",
          "type": "address"
        }
      ],
      "name": "updateUSDsAddress",
      "outputs": [],
      "stateMutability": "nonpayable",
      "type": "function"
    }
  ],
  "bytecode": "608060405234801561001057600080fd5b50614815806100206000396000f3fe6080604052600436106103ce5760003560e01c80637e4e61d7116101fd578063b4eae1cb11610118578063e1da5380116100ab578063f2fde38b1161007a578063f2fde38b14610bec578063f7023bb614610c1f578063faeddc9014610c52578063fc9dc4ff14610c67578063fcf4535214610c7c576103ce565b8063e1da538014610b44578063e68ce2b614610b59578063ec18154e14610bc2578063edbbdb9714610bd7576103ce565b8063ca15c873116100e7578063ca15c87314610a8c578063d547741f14610ab6578063d8ea64d61461048b578063daab5d4e14610aef576103ce565b8063b4eae1cb14610a2f578063b845a129146103d3578063bcb083c114610a44578063c6d15e1b14610a59576103ce565b806391d1485411610190578063a217fddf1161015f578063a217fddf146109a5578063a49fdb49146109ba578063a9e3458c14610a05578063af14052c14610a1a576103ce565b806391d148541461092d57806396fd7db614610966578063a09caa181461097b578063a0fda95e14610990576103ce565b80638da5cb5b116101cc5780638da5cb5b146108a75780638e5f2898146108bc5780638eb12814146108e85780639010d07c146108fd576103ce565b80637e4e61d7146108685780638177b4a61461048b57806381b67a301461087d57806383eb70e514610892576103ce565b8063485cc955116102ed5780635c68308d11610280578063715018a61161024f578063715018a614610814578063723863711461082957806377f0c6151461083e5780637e428dac14610853576103ce565b80635c68308d1461079f5780636707d12e146107b457806368ee35911461048b5780637080460f146107ff576103ce565b806352bb81e5116102bc57806352bb81e5146106f057806357635e911461074557806358d7be8f1461048b5780635953e1971461076e576103ce565b8063485cc955146106555780634aba31211461048b5780634b24e3d3146106905780635109ef1c146106db576103ce565b80632f2ff15d116103655780633881d70c116103345780633881d70c146105c95780633c533b56146106145780633f521f8c1461064057806347be1c3e1461048b576103ce565b80632f2ff15d1461054257806332e197f4146103d357806336568abe1461057b57806337d87d70146105b4576103ce565b80632206ccbc116103a15780632206ccbc1461048b578063223e5479146104b7578063248a9ca3146104ea578063276545fe14610514576103ce565b806306ec8cd7146103d35780630d170b03146104055780630d4b927f146104305780631785226414610464575b600080fd5b3480156103df57600080fd5b506103e8610cb8565b6040805167ffffffffffffffff9092168252519081900360200190f35b61042e6004803603606081101561041b57600080fd5b5080359060208101359060400135610cc1565b005b34801561043c57600080fd5b5061042e6004803603604081101561045357600080fd5b508035151590602001351515610d65565b34801561047057600080fd5b50610479610e3a565b60408051918252519081900360200190f35b34801561049757600080fd5b506104a0610e49565b6040805161ffff9092168252519081900360200190f35b3480156104c357600080fd5b5061042e600480360360208110156104da57600080fd5b50356001600160a01b0316610e4f565b3480156104f657600080fd5b506104796004803603602081101561050d57600080fd5b5035610fec565b34801561052057600080fd5b50610529611001565b6040805163ffffffff9092168252519081900360200190f35b34801561054e57600080fd5b5061042e6004803603604081101561056557600080fd5b50803590602001356001600160a01b0316611019565b34801561058757600080fd5b5061042e6004803603604081101561059e57600080fd5b50803590602001356001600160a01b0316611085565b3480156105c057600080fd5b506105296110e6565b3480156105d557600080fd5b5061042e600480360360a08110156105ec57600080fd5b506001600160a01b0381351690602081013590604081013590606081013590608001356110f9565b34801561062057600080fd5b5061042e6004803603602081101561063757600080fd5b503515156111ff565b34801561064c57600080fd5b506105296112a5565b34801561066157600080fd5b5061042e6004803603604081101561067857600080fd5b506001600160a01b03813581169160200135166112b9565b34801561069c57600080fd5b5061042e600480360360a08110156106b357600080fd5b506001600160a01b038135169060208101359060408101359060608101359060800135611486565b3480156106e757600080fd5b50610479611585565b3480156106fc57600080fd5b5061042e600480360360a081101561071357600080fd5b506001600160a01b0381358116916020810135821691604082013515159160608101359091169060800135151561158b565b34801561075157600080fd5b5061075a6117aa565b604080519115158252519081900360200190f35b34801561077a57600080fd5b506107836117b3565b604080516001600160a01b039092168252519081900360200190f35b3480156107ab57600080fd5b506107836117c2565b3480156107c057600080fd5b5061042e600480360360a08110156107d757600080fd5b506001600160a01b0381351690602081013590604081013590606081013590608001356117d1565b34801561080b57600080fd5b5061075a6118d0565b34801561082057600080fd5b5061042e6118e1565b34801561083557600080fd5b5061052961198d565b34801561084a57600080fd5b5061075a611999565b34801561085f57600080fd5b506104796119a8565b34801561087457600080fd5b506107836119b2565b34801561088957600080fd5b506107836119c1565b34801561089e57600080fd5b506104796119d0565b3480156108b357600080fd5b506107836119f4565b3480156108c857600080fd5b5061042e600480360360208110156108df57600080fd5b50351515611a03565b3480156108f457600080fd5b50610529611ab4565b34801561090957600080fd5b506107836004803603604081101561092057600080fd5b5080359060200135611ac7565b34801561093957600080fd5b5061075a6004803603604081101561095057600080fd5b50803590602001356001600160a01b0316611ae8565b34801561097257600080fd5b50610529611b00565b34801561098757600080fd5b5061075a611b0c565b34801561099c57600080fd5b50610529611b1c565b3480156109b157600080fd5b50610479611b2f565b3480156109c657600080fd5b5061042e600480360360a08110156109dd57600080fd5b506001600160a01b038135169060208101359060408101359060608101359060800135611b34565b348015610a1157600080fd5b50610479611c30565b348015610a2657600080fd5b5061042e611c36565b348015610a3b57600080fd5b50610479611d01565b348015610a5057600080fd5b50610783611eaf565b348015610a6557600080fd5b5061042e60048036036020811015610a7c57600080fd5b50356001600160a01b0316611ec5565b348015610a9857600080fd5b5061047960048036036020811015610aaf57600080fd5b5035611f49565b348015610ac257600080fd5b5061042e60048036036040811015610ad957600080fd5b50803590602001356001600160a01b0316611f60565b348015610afb57600080fd5b5061042e600480360360a0811015610b1257600080fd5b506001600160a01b03813581169160208101358216916040820135151591606081013590911690608001351515611fb9565b348015610b5057600080fd5b5061052961240e565b348015610b6557600080fd5b5061042e6004803603610100811015610b7d57600080fd5b5080359063ffffffff602082013581169160408101358216916060820135811691608081013582169160a082013581169160c081013582169160e09091013516612421565b348015610bce57600080fd5b50610479612694565b348015610be357600080fd5b5061075a61269e565b348015610bf857600080fd5b5061042e60048036036020811015610c0f57600080fd5b50356001600160a01b03166126ac565b348015610c2b57600080fd5b5061042e60048036036020811015610c4257600080fd5b50356001600160a01b03166127af565b348015610c5e57600080fd5b50610479612833565b348015610c7357600080fd5b50610479612839565b348015610c8857600080fd5b5061042e60048036036080811015610c9f57600080fd5b508035906020810135906040810135906060013561283f565b64e8d4a5100081565b60975460ff16610d06576040805162461bcd60e51b8152602060048201526014602482015260008051602061463b833981519152604482015290519081900360640190fd5b60003411610d4f576040805162461bcd60e51b81526020600482015260116024820152702732b2b2103a37903830bc9022ba3432b960791b604482015290519081900360640190fd5b610d606000346003863487876128d7565b505050565b610d6d612caa565b6001600160a01b0316610d7e6119f4565b6001600160a01b031614610dc7576040805162461bcd60e51b81526020600482018190526024820152600080516020614739833981519152604482015290519081900360640190fd5b6097805463ff0000001916630100000084151581029190911764ff0000000019166401000000008415158102919091179283905560405160ff918404821615159392909204161515907f8e363288229795661dc4cd7765bb22af3b1ddb395a07cd4894d365d6ebd5d67190600090a35050565b6000610e44612cae565b905090565b61271081565b610e57612caa565b6001600160a01b0316610e686119f4565b6001600160a01b031614610eb1576040805162461bcd60e51b81526020600482018190526024820152600080516020614739833981519152604482015290519081900360640190fd5b6001600160a01b038116600090815260a36020526040902054600160a01b900460ff1615610f17576040805162461bcd60e51b815260206004820152600e60248201526d14dd1c985d1959de48185919195960921b604482015290519081900360640190fd5b6001600160a01b03808216600081815260a360209081526040808320805460ff60a01b196001600160a01b031991821687178116600160a01b908117845560a58054600181810183559190985284547fb29a2b3b6f2ff1b765777a231725941da5072cc4fcc30ac4a2ce09706e8ddeff90980180549094169790991696909617808355835487900460ff161515909602951694909417909355805193845290830193909352825190927f835a6c4fc865a810f7943cfca478cada6bf307d7dbd75892a046aee7ea3cc214928290030190a15050565b60009081526065602052604090206002015490565b60a15468010000000000000000900463ffffffff1681565b60008281526065602052604090206002015461103c90611037612caa565b611ae8565b6110775760405162461bcd60e51b815260040180806020018281038252602f815260200180614512602f913960400191505060405180910390fd5b6110818282612d27565b5050565b61108d612caa565b6001600160a01b0316816001600160a01b0316146110dc5760405162461bcd60e51b815260040180806020018281038252602f8152602001806147b1602f913960400191505060405180910390fd5b6110818282612d90565b60a154600160801b900463ffffffff1681565b60975460ff1661113e576040805162461bcd60e51b8152602060048201526014602482015260008051602061463b833981519152604482015290519081900360640190fd5b6001600160a01b038516600090815260a26020526040902054600160a01b900460ff166111a9576040805162461bcd60e51b815260206004820152601460248201527310dbdb1b185d195c985b081b9bdd08185919195960621b604482015290519081900360640190fd5b600084116111e85760405162461bcd60e51b81526004018080602001828103825260218152602001806145c76021913960400191505060405180910390fd5b6111f885856000878787876128d7565b5050505050565b611207612caa565b6001600160a01b03166112186119f4565b6001600160a01b031614611261576040805162461bcd60e51b81526020600482018190526024820152600080516020614739833981519152604482015290519081900360640190fd5b6097805460ff1916821515179081905560405160ff9091161515907f4aa2f044c925ec4ad9ac60a30b437e605ba4b7c4827d423be239b10228df4a4d90600090a250565b60a154640100000000900463ffffffff1681565b600054610100900460ff16806112d257506112d2612df9565b806112e0575060005460ff16155b61131b5760405162461bcd60e51b815260040180806020018281038252602e8152602001806146b7602e913960400191505060405180910390fd5b600054610100900460ff16158015611346576000805460ff1961ff0019909116610100171660011790555b61134e612e0a565b609780546001600160a01b03858116600160281b0262ff0100600160c81b031960ff199093166001179290921691909117909155609b80549184166001600160a01b0319928316179055609a80549091163017905543609c819055609f805463ffffffff191661c86417908190556113df916113d39163ffffffff90811690612ebc16565b64dd30699c0090612f15565b60a05560a18054615f9063ffffffff199091161767ffffffff00000000191665271000000000176bffffffff00000000000000001916684500000000000000001763ffffffff60601b191661050960651b1763ffffffff60801b1916610aa360811b1763ffffffff60a01b1916603560a61b1763ffffffff60c01b19166102d360c11b179055611470600033611077565b8015610d60576000805461ff0019169055505050565b60975460ff166114cb576040805162461bcd60e51b8152602060048201526014602482015260008051602061463b833981519152604482015290519081900360640190fd5b6001600160a01b038516600090815260a26020526040902054600160a01b900460ff16611536576040805162461bcd60e51b815260206004820152601460248201527310dbdb1b185d195c985b081b9bdd08185919195960621b604482015290519081900360640190fd5b600084116115755760405162461bcd60e51b81526004018080602001828103825260218152602001806145c76021913960400191505060405180910390fd5b6111f885856001868689876128d7565b609d5481565b611593612caa565b6001600160a01b03166115a46119f4565b6001600160a01b0316146115ed576040805162461bcd60e51b81526020600482018190526024820152600080516020614739833981519152604482015290519081900360640190fd5b6001600160a01b038516600090815260a26020526040902054600160a01b900460ff16611658576040805162461bcd60e51b815260206004820152601460248201527310dbdb1b185d195c985b081b9bdd08185919195960621b604482015290519081900360640190fd5b600060a26000876001600160a01b03166001600160a01b031681526020019081526020016000209050858160000160006101000a8154816001600160a01b0302191690836001600160a01b03160217905550848160010160006101000a8154816001600160a01b0302191690836001600160a01b03160217905550838160010160146101000a81548160ff021916908315150217905550828160020160006101000a8154816001600160a01b0302191690836001600160a01b03160217905550856001600160a01b03167fde3f06e95dae99e79be6e9df3a782a93f61d2e886042bd75502377cd9453a9218260000160149054906101000a900460ff1687878787604051808615158152602001856001600160a01b031681526020018415158152602001836001600160a01b0316815260200182151581526020019550505050505060405180910390a2505050505050565b60975460ff1681565b6098546001600160a01b031681565b609a546001600160a01b031681565b60975460ff16611816576040805162461bcd60e51b8152602060048201526014602482015260008051602061463b833981519152604482015290519081900360640190fd5b6001600160a01b038516600090815260a26020526040902054600160a01b900460ff16611881576040805162461bcd60e51b815260206004820152601460248201527310dbdb1b185d195c985b081b9bdd08185919195960621b604482015290519081900360640190fd5b600084116118c05760405162461bcd60e51b81526004018080602001828103825260218152602001806145c76021913960400191505060405180910390fd5b6111f885856002868887876128d7565b609754640100000000900460ff1681565b6118e9612caa565b6001600160a01b03166118fa6119f4565b6001600160a01b031614611943576040805162461bcd60e51b81526020600482018190526024820152600080516020614739833981519152604482015290519081900360640190fd5b6033546040516000916001600160a01b0316907f8be0079c531659141344cd1fd0a4f28419497f9722a3daafe3b4186f6b6457e0908390a3603380546001600160a01b0319169055565b609f5463ffffffff1681565b60975462010000900460ff1681565b6000610e44612f6f565b6099546001600160a01b031681565b609b546001600160a01b031681565b7f5fde63b561377d1441afa201ff619faac2ff8fed70a7fbdbe7a5cb07768c0b7581565b6033546001600160a01b031690565b611a0b612caa565b6001600160a01b0316611a1c6119f4565b6001600160a01b031614611a65576040805162461bcd60e51b81526020600482018190526024820152600080516020614739833981519152604482015290519081900360640190fd5b6097805461ff0019166101008315158102919091179182905560405160ff91909204161515907f7304ed846a7da817e311f225ed0df7c4b621c484da0ab3e633bd5ad083f2c3ae90600090a250565b60a154600160c01b900463ffffffff1681565b6000828152606560205260408120611adf9083613235565b90505b92915050565b6000828152606560205260408120611adf9083613241565b60a15463ffffffff1681565b6097546301000000900460ff1681565b60a154600160a01b900463ffffffff1681565b600081565b60975460ff16611b79576040805162461bcd60e51b8152602060048201526014602482015260008051602061463b833981519152604482015290519081900360640190fd5b6001600160a01b038516600090815260a26020526040902054600160a01b900460ff16611be4576040805162461bcd60e51b815260206004820152601460248201527310dbdb1b185d195c985b081b9bdd08185919195960621b604482015290519081900360640190fd5b60008411611c235760405162461bcd60e51b81526004018080602001828103825260218152602001806145c76021913960400191505060405180910390fd5b6111f88585858585613256565b609e5481565b60975462010000900460ff16611c83576040805162461bcd60e51b815260206004820152600d60248201526c149958985cd9481c185d5cd959609a1b604482015290519081900360640190fd5b611cad7f5fde63b561377d1441afa201ff619faac2ff8fed70a7fbdbe7a5cb07768c0b7533611ae8565b611cf7576040805162461bcd60e51b815260206004820152601660248201527521b0b63632b91034b9903737ba103090313ab93732b960511b604482015290519081900360640190fd5b611cff613634565b565b600080611d0c6139f0565b90506000609860009054906101000a90046001600160a01b03166001600160a01b03166318160ddd6040518163ffffffff1660e01b815260040160206040518083038186803b158015611d5e57600080fd5b505afa158015611d72573d6000803e3d6000fd5b505050506040513d6020811015611d8857600080fd5b505160995460408051630421977560e11b815290519293506000926001600160a01b03909216916308432eea91600480820192602092909190829003018186803b158015611dd557600080fd5b505afa158015611de9573d6000803e3d6000fd5b505050506040513d6020811015611dff57600080fd5b505160995460408051636f2a2b0f60e01b815290519293506000926001600160a01b0390921691636f2a2b0f91600480820192602092909190829003018186803b158015611e4c57600080fd5b505afa158015611e60573d6000803e3d6000fd5b505050506040513d6020811015611e7657600080fd5b505190506000611e9082611e8a8686612ebc565b90613a0b565b9050611ea581611e8a8764e8d4a51000612ebc565b9550505050505090565b609754600160281b90046001600160a01b031681565b611ecd612caa565b6001600160a01b0316611ede6119f4565b6001600160a01b031614611f27576040805162461bcd60e51b81526020600482018190526024820152600080516020614739833981519152604482015290519081900360640190fd5b609880546001600160a01b0319166001600160a01b0392909216919091179055565b6000818152606560205260408120611ae290613a72565b600082815260656020526040902060020154611f7e90611037612caa565b6110dc5760405162461bcd60e51b815260040180806020018281038252603081526020018061465b6030913960400191505060405180910390fd5b611fc1612caa565b6001600160a01b0316611fd26119f4565b6001600160a01b03161461201b576040805162461bcd60e51b81526020600482018190526024820152600080516020614739833981519152604482015290519081900360640190fd5b6001600160a01b038516600090815260a26020526040902054600160a01b900460ff1615612083576040805162461bcd60e51b815260206004820152601060248201526f10dbdb1b185d195c985b08185919195960821b604482015290519081900360640190fd5b6012856001600160a01b031663313ce5676040518163ffffffff1660e01b815260040160206040518083038186803b1580156120be57600080fd5b505afa1580156120d2573d6000803e3d6000fd5b505050506040513d60208110156120e857600080fd5b505160ff16111561212a5760405162461bcd60e51b815260040180806020018281038252602c81526020018061468b602c913960400191505060405180910390fd5b600060a26000876001600160a01b03166001600160a01b031681526020019081526020016000209050858160000160006101000a8154816001600160a01b0302191690836001600160a01b0316021790555060018160000160146101000a81548160ff021916908315150217905550848160010160006101000a8154816001600160a01b0302191690836001600160a01b03160217905550838160010160146101000a81548160ff021916908315150217905550828160020160006101000a8154816001600160a01b0302191690836001600160a01b0316021790555060a48190806001815401808255809150506001900390600052602060002090600302016000909190919091506000820160009054906101000a90046001600160a01b03168160000160006101000a8154816001600160a01b0302191690836001600160a01b031602179055506000820160149054906101000a900460ff168160000160146101000a81548160ff0219169083151502179055506001820160009054906101000a90046001600160a01b03168160010160006101000a8154816001600160a01b0302191690836001600160a01b031602179055506001820160149054906101000a900460ff168160010160146101000a81548160ff0219169083151502179055506002820160009054906101000a90046001600160a01b03168160020160006101000a8154816001600160a01b0302191690836001600160a01b031602179055506002820160149054906101000a900460ff168160020160146101000a81548160ff0219169083151502179055505050856001600160a01b03167fb1751a613cafaab1099ee086ed9f2ec7ade8c547584f5f7d8ecc9547ae0181608260000160149054906101000a900460ff1687878787604051808615158152602001856001600160a01b031681526020018415158152602001836001600160a01b0316815260200182151581526020019550505050505060405180910390a2505050505050565b60a154600160601b900463ffffffff1681565b612429612caa565b6001600160a01b031661243a6119f4565b6001600160a01b031614612483576040805162461bcd60e51b81526020600482018190526024820152600080516020614739833981519152604482015290519081900360640190fd5b8760a0819055508660a160006101000a81548163ffffffff021916908363ffffffff1602179055508560a160046101000a81548163ffffffff021916908363ffffffff1602179055508460a160086101000a81548163ffffffff021916908363ffffffff1602179055508360a1600c6101000a81548163ffffffff021916908363ffffffff1602179055508260a160106101000a81548163ffffffff021916908363ffffffff1602179055508160a160146101000a81548163ffffffff021916908363ffffffff1602179055508060a160186101000a81548163ffffffff021916908363ffffffff1602179055507f3b5ba3caba3d0e0d68c4ceedd15cb7e47ae0e3ed3576725db4652aed627a19a760a05460a160009054906101000a900463ffffffff1660a160049054906101000a900463ffffffff1660a160089054906101000a900463ffffffff1660a1600c9054906101000a900463ffffffff1660a160109054906101000a900463ffffffff1660a160149054906101000a900463ffffffff1660a160189054906101000a900463ffffffff16604051808981526020018863ffffffff1681526020018763ffffffff1681526020018663ffffffff1681526020018563ffffffff1681526020018463ffffffff1681526020018363ffffffff1681526020018263ffffffff1681526020019850505050505050505060405180910390a15050505050505050565b6000610e446139f0565b609754610100900460ff1681565b6126b4612caa565b6001600160a01b03166126c56119f4565b6001600160a01b03161461270e576040805162461bcd60e51b81526020600482018190526024820152600080516020614739833981519152604482015290519081900360640190fd5b6001600160a01b0381166127535760405162461bcd60e51b81526004018080602001828103825260268152602001806145416026913960400191505060405180910390fd5b6033546040516001600160a01b038084169216907f8be0079c531659141344cd1fd0a4f28419497f9722a3daafe3b4186f6b6457e090600090a3603380546001600160a01b0319166001600160a01b0392909216919091179055565b6127b7612caa565b6001600160a01b03166127c86119f4565b6001600160a01b031614612811576040805162461bcd60e51b81526020600482018190526024820152600080516020614739833981519152604482015290519081900360640190fd5b609980546001600160a01b0319166001600160a01b0392909216919091179055565b60a05481565b609c5481565b60975460ff16612884576040805162461bcd60e51b8152602060048201526014602482015260008051602061463b833981519152604482015290519081900360640190fd5b600084116128c35760405162461bcd60e51b81526004018080602001828103825260218152602001806145c76021913960400191505060405180910390fd5b6128d1600085858585613256565b50505050565b60975460ff1661291c576040805162461bcd60e51b8152602060048201526014602482015260008051602061463b833981519152604482015290519081900360640190fd5b604080516363b09fdb60e01b81526001600160a01b03891660048201526024810188905260ff87166044820152306064820152905160009182918291829173__VaultCoreLibrary______________________916363b09fdb916084808301926080929190829003018186803b15801561299557600080fd5b505af41580156129a9573d6000803e3d6000fd5b505050506040513d60808110156129bf57600080fd5b508051602082015160408301516060909301519196509450909250905087821015612a1b5760405162461bcd60e51b815260040180806020018281038252602e815260200180614759602e913960400191505060405180910390fd5b86831115612a5a5760405162461bcd60e51b81526004018080602001828103825260338152602001806146e56033913960400191505060405180910390fd5b85841115612a995760405162461bcd60e51b815260040180806020018281038252602c81526020018061459b602c913960400191505060405180910390fd5b84421115612ae1576040805162461bcd60e51b815260206004820152601060248201526f111958591b1a5b9948195e1c1a5c995960821b604482015290519081900360640190fd5b6097546040805163079cc67960e41b8152336004820152602481018790529051600160281b9092046001600160a01b0316916379cc67909160448082019260009290919082900301818387803b158015612b3a57600080fd5b505af1158015612b4e573d6000803e3d6000fd5b5050609e54612b609250905085612f15565b609e55600360ff8a1614612b8357612b836001600160a01b038c16333086613a7d565b609854604080516340c10f1960e01b81523360048201526024810185905290516001600160a01b03909216916340c10f199160448082019260009290919082900301818387803b158015612bd657600080fd5b505af1158015612bea573d6000803e3d6000fd5b5050609854604080516340c10f1960e01b81523060048201526024810186905290516001600160a01b0390921693506340c10f19925060448082019260009290919082900301818387803b158015612c4157600080fd5b505af1158015612c55573d6000803e3d6000fd5b5050604080518681526020810188905280820185905290518593503392507f473211ca1f39de50cbd3cc7e9f63f97251afb1a528e8164f279bf67dab4f952d9181900360600190a35050505050505050505050565b3390565b6000805b60a554811015612d235760a58181548110612cc957fe5b600091825260209091200154600160a01b900460ff1615612d1b57612d18612d1160a58381548110612cf757fe5b6000918252602090912001546001600160a01b0316613ad7565b8390612f15565b91505b600101612cb2565b5090565b6000828152606560205260409020612d3f9082613de8565b1561108157612d4c612caa565b6001600160a01b0316816001600160a01b0316837f2f8788117e7eff1d82e926ec794901d17c78024a50270940304540a733656f0d60405160405180910390a45050565b6000828152606560205260409020612da89082613dfd565b1561108157612db5612caa565b6001600160a01b0316816001600160a01b0316837ff6391f5c32d9c69d2a47ea670b442974b53935d1edc7fd64eb21e047a839171b60405160405180910390a45050565b6000612e0430613e12565b15905090565b600054610100900460ff1680612e235750612e23612df9565b80612e31575060005460ff16155b612e6c5760405162461bcd60e51b815260040180806020018281038252602e8152602001806146b7602e913960400191505060405180910390fd5b600054610100900460ff16158015612e97576000805460ff1961ff0019909116610100171660011790555b612e9f613e18565b612ea7613eb8565b8015612eb9576000805461ff00191690555b50565b600082612ecb57506000611ae2565b82820282848281612ed857fe5b0414611adf5760405162461bcd60e51b81526004018080602001828103825260218152602001806147186021913960400191505060405180910390fd5b600082820183811015611adf576040805162461bcd60e51b815260206004820152601b60248201527f536166654d6174683a206164646974696f6e206f766572666c6f770000000000604482015290519081900360640190fd5b6000805b60a454811015612d2357612f856144ba565b60a48281548110612f9257fe5b600091825260208083206040805160c081018252600390940290910180546001600160a01b0380821680875260ff600160a01b938490048116151588880152600185015480841689880152849004811615156060890152600290940154808316608089015292909204909216151560a08601526099548351631469026560e21b8152600481019290925292519496509116926351a4099492602480840193919291829003018186803b15801561304757600080fd5b505afa15801561305b573d6000803e3d6000fd5b505050506040513d602081101561307157600080fd5b5051609954835160408051633f15327960e01b81526001600160a01b03928316600482015290519394506000939190921691633f153279916024808301926020929190829003018186803b1580156130c857600080fd5b505afa1580156130dc573d6000803e3d6000fd5b505050506040513d60208110156130f257600080fd5b505183516040805163313ce56760e01b815290519293506000926001600160a01b039092169163313ce56791600480820192602092909190829003018186803b15801561313e57600080fd5b505afa158015613152573d6000803e3d6000fd5b505050506040513d602081101561316857600080fd5b50518451604080516370a0823160e01b8152306004820152905160ff90931693506000926131f9928692611e8a9289926001600160a01b0316916370a08231916024808301926020929190829003018186803b1580156131c757600080fd5b505afa1580156131db573d6000803e3d6000fd5b505050506040513d60208110156131f157600080fd5b505190612ebc565b9050600061321561320b601285613fb1565b8390600a0a612ebc565b90506132218882612f15565b97505060019095019450612f739350505050565b6000611adf838361400e565b6000611adf836001600160a01b038416614072565b60975460ff1661329b576040805162461bcd60e51b8152602060048201526014602482015260008051602061463b833981519152604482015290519081900360640190fd5b60995460408051637a9acad360e11b81526001600160a01b0380891660048301526024820188905230604483015290921660648301525160009182918291829173__VaultCoreLibrary______________________9163f53595a6916084808301926080929190829003018186803b15801561331657600080fd5b505af415801561332a573d6000803e3d6000fd5b505050506040513d608081101561334057600080fd5b50805160208201516040830151606090930151919650945090925090508683101561339c5760405162461bcd60e51b81526004018080602001828103825260348152602001806145676034913960400191505060405180910390fd5b858410156133db5760405162461bcd60e51b815260040180806020018281038252602d81526020018061460e602d913960400191505060405180910390fd5b84421115613423576040805162461bcd60e51b815260206004820152601060248201526f111958591b1a5b9948195e1c1a5c995960821b604482015290519081900360640190fd5b6097546040805163edb561c360e01b8152336004820152602481018790529051600160281b9092046001600160a01b03169163edb561c39160448082019260009290919082900301818387803b15801561347c57600080fd5b505af1158015613490573d6000803e3d6000fd5b5050609d546134a29250905085612f15565b609d556001600160a01b03891661354d57604051600090339085908381818185875af1925050503d80600081146134f5576040519150601f19603f3d011682016040523d82523d6000602084013e6134fa565b606091505b5050905080613547576040805162461bcd60e51b81526020600482015260146024820152732330b4b632b2103a379039b2b7321022ba3432b960611b604482015290519081900360640190fd5b50613561565b6135616001600160a01b038a16338561408a565b60985460408051632770a7eb60e21b81523360048201526024810185905290516001600160a01b0390921691639dc29fac9160448082019260009290919082900301818387803b1580156135b457600080fd5b505af11580156135c8573d6000803e3d6000fd5b50506098546135e592506001600160a01b03169050333084613a7d565b60408051848152602081018690528082018390529051839133917f7a7fa876a9a577092f57d3c1deeddc4025fb563aab144154b355ede4fb9f3ded9181900360600190a3505050505050505050565b600061363e6144ba565b600080609860009054906101000a90046001600160a01b03166001600160a01b03166318160ddd6040518163ffffffff1660e01b815260040160206040518083038186803b15801561368f57600080fd5b505afa1580156136a3573d6000803e3d6000fd5b505050506040513d60208110156136b957600080fd5b50519050600080805b60a4548110156139455760a481815481106136d957fe5b60009182526020918290206040805160c081018252600390930290910180546001600160a01b0380821680865260ff600160a01b938490048116151587890152600185015480841688880181905290859004821615156060890152600290950154928316608088015292909104909116151560a08501528251638d2c872760e01b815260048101919091529151909a509198508992638d2c872792602480840193829003018186803b15801561378e57600080fd5b505afa1580156137a2573d6000803e3d6000fd5b505050506040513d60208110156137b857600080fd5b5051945084158015906137cc57508560a001515b1561393d57855160408051636ce5768960e11b81523060048201526001600160a01b0392831660248201526044810188905290519189169163d9caed129160648082019260009290919082900301818387803b15801561382b57600080fd5b505af115801561383f573d6000803e3d6000fd5b5050505085608001516001600160a01b03166373bd43ad866040518263ffffffff1660e01b815260040180828152602001915050602060405180830381600087803b15801561388d57600080fd5b505af11580156138a1573d6000803e3d6000fd5b505050506040513d60208110156138b757600080fd5b505160985460408051632770a7eb60e21b81523060048201526024810184905290519294506001600160a01b0390911691639dc29fac9160448082019260009290919082900301818387803b15801561390f57600080fd5b505af1158015613923573d6000803e3d6000fd5b5050505061393a8284612f1590919063ffffffff16565b92505b6001016136c2565b5060006139528484612f15565b609854604080516339a7919f60e01b81526004810184905290519293506001600160a01b03909116916339a7919f9160248082019260009290919082900301818387803b1580156139a257600080fd5b505af11580156139b6573d6000803e3d6000fd5b50506040518392508691507f11c6bf55864ff83827df712625d7a80e5583eef0264921025e7cd22003a2151190600090a350505050505050565b6000610e446139fd612cae565b613a05612f6f565b90612f15565b6000808211613a61576040805162461bcd60e51b815260206004820152601a60248201527f536166654d6174683a206469766973696f6e206279207a65726f000000000000604482015290519081900360640190fd5b818381613a6a57fe5b049392505050565b6000611ae2826140dc565b604080516001600160a01b0380861660248301528416604482015260648082018490528251808303909101815260849091019091526020810180516001600160e01b03166323b872dd60e01b1790526128d19085906140e0565b600081815b60a454811015613de157613aee6144ba565b60a48281548110613afb57fe5b60009182526020918290206040805160c081018252600390930290910180546001600160a01b0380821680865260ff600160a01b938490048116151587890152600185015480841688880152849004811615156060880152600290940154808316608088015292909204909216151560a0850152825163a400326f60e01b81526004810191909152915192945086169263a400326f92602480840193829003018186803b158015613bab57600080fd5b505afa158015613bbf573d6000803e3d6000fd5b505050506040513d6020811015613bd557600080fd5b505115613dd857609954815160408051631469026560e21b81526001600160a01b039283166004820152905160009392909216916351a4099491602480820192602092909190829003018186803b158015613c2f57600080fd5b505afa158015613c43573d6000803e3d6000fd5b505050506040513d6020811015613c5957600080fd5b5051609954835160408051633f15327960e01b81526001600160a01b03928316600482015290519394506000939190921691633f153279916024808301926020929190829003018186803b158015613cb057600080fd5b505afa158015613cc4573d6000803e3d6000fd5b505050506040513d6020811015613cda57600080fd5b505183516040805163313ce56760e01b815290519293506000926001600160a01b039092169163313ce56791600480820192602092909190829003018186803b158015613d2657600080fd5b505afa158015613d3a573d6000803e3d6000fd5b505050506040513d6020811015613d5057600080fd5b5051845160408051632fa8a91360e11b81526001600160a01b039283166004820152905160ff9093169350600092613db2928692611e8a9289928d1691635f515226916024808301926020929190829003018186803b1580156131c757600080fd5b90506000613dc461320b601285613fb1565b9050613dd08982612f15565b985050505050505b50600101613adc565b5050919050565b6000611adf836001600160a01b038416614191565b6000611adf836001600160a01b0384166141db565b3b151590565b600054610100900460ff1680613e315750613e31612df9565b80613e3f575060005460ff16155b613e7a5760405162461bcd60e51b815260040180806020018281038252602e8152602001806146b7602e913960400191505060405180910390fd5b600054610100900460ff16158015612ea7576000805460ff1961ff0019909116610100171660011790558015612eb9576000805461ff001916905550565b600054610100900460ff1680613ed15750613ed1612df9565b80613edf575060005460ff16155b613f1a5760405162461bcd60e51b815260040180806020018281038252602e8152602001806146b7602e913960400191505060405180910390fd5b600054610100900460ff16158015613f45576000805460ff1961ff0019909116610100171660011790555b6000613f4f612caa565b603380546001600160a01b0319166001600160a01b038316908117909155604051919250906000907f8be0079c531659141344cd1fd0a4f28419497f9722a3daafe3b4186f6b6457e0908290a3508015612eb9576000805461ff001916905550565b600082821115614008576040805162461bcd60e51b815260206004820152601e60248201527f536166654d6174683a207375627472616374696f6e206f766572666c6f770000604482015290519081900360640190fd5b50900390565b815460009082106140505760405162461bcd60e51b81526004018080602001828103825260228152602001806144f06022913960400191505060405180910390fd5b82600001828154811061405f57fe5b9060005260206000200154905092915050565b60009081526001919091016020526040902054151590565b604080516001600160a01b038416602482015260448082018490528251808303909101815260649091019091526020810180516001600160e01b031663a9059cbb60e01b179052610d609084906140e0565b5490565b6060614135826040518060400160405280602081526020017f5361666545524332303a206c6f772d6c6576656c2063616c6c206661696c6564815250856001600160a01b03166142a19092919063ffffffff16565b805190915015610d605780806020019051602081101561415457600080fd5b5051610d605760405162461bcd60e51b815260040180806020018281038252602a815260200180614787602a913960400191505060405180910390fd5b600061419d8383614072565b6141d357508154600181810184556000848152602080822090930184905584548482528286019093526040902091909155611ae2565b506000611ae2565b60008181526001830160205260408120548015614297578354600019808301919081019060009087908390811061420e57fe5b906000526020600020015490508087600001848154811061422b57fe5b60009182526020808320909101929092558281526001898101909252604090209084019055865487908061425b57fe5b60019003818190600052602060002001600090559055866001016000878152602001908152602001600020600090556001945050505050611ae2565b6000915050611ae2565b60606142b084846000856142ba565b90505b9392505050565b6060824710156142fb5760405162461bcd60e51b81526004018080602001828103825260268152602001806145e86026913960400191505060405180910390fd5b61430485613e12565b614355576040805162461bcd60e51b815260206004820152601d60248201527f416464726573733a2063616c6c20746f206e6f6e2d636f6e7472616374000000604482015290519081900360640190fd5b60006060866001600160a01b031685876040518082805190602001908083835b602083106143945780518252601f199092019160209182019101614375565b6001836020036101000a03801982511681845116808217855250505050505090500191505060006040518083038185875af1925050503d80600081146143f6576040519150601f19603f3d011682016040523d82523d6000602084013e6143fb565b606091505b509150915061440b828286614416565b979650505050505050565b606083156144255750816142b3565b8251156144355782518084602001fd5b8160405162461bcd60e51b81526004018080602001828103825283818151815260200191508051906020019080838360005b8381101561447f578181015183820152602001614467565b50505050905090810190601f1680156144ac5780820380516001836020036101000a031916815260200191505b509250505060405180910390fd5b6040805160c081018252600080825260208201819052918101829052606081018290526080810182905260a08101919091529056fe456e756d657261626c655365743a20696e646578206f7574206f6620626f756e6473416363657373436f6e74726f6c3a2073656e646572206d75737420626520616e2061646d696e20746f206772616e744f776e61626c653a206e6577206f776e657220697320746865207a65726f2061646472657373436f6c6c61746572616c20616d6f756e74206973206c6f776572207468616e20746865206d6178696d756d20736c69707061676553504120616d6f756e74206973206d6f7265207468616e20746865206d6178696d756d20736c697070616765416d6f756e74206e6565647320746f2062652067726561746572207468616e2030416464726573733a20696e73756666696369656e742062616c616e636520666f722063616c6c53504120616d6f756e74206973206c6f776572207468616e20746865206d6178696d756d20736c6970706167654d696e7420262072656465656d20706175736564000000000000000000000000416363657373436f6e74726f6c3a2073656e646572206d75737420626520616e2061646d696e20746f207265766f6b65436f6c6c61746572616c7320646563696d616c73206e65656420746f206265206c657373207465686e203138496e697469616c697a61626c653a20636f6e747261637420697320616c726561647920696e697469616c697a6564436f6c6c61746572616c20616d6f756e74206973206d6f7265207468616e20746865206d6178696d756d20736c697070616765536166654d6174683a206d756c7469706c69636174696f6e206f766572666c6f774f776e61626c653a2063616c6c6572206973206e6f7420746865206f776e65725553447320616d6f756e74206973206c6f776572207468616e20746865206d6178696d756d20736c6970706167655361666545524332303a204552433230206f7065726174696f6e20646964206e6f742073756363656564416363657373436f6e74726f6c3a2063616e206f6e6c792072656e6f756e636520726f6c657320666f722073656c66a2646970667358221220ee0e69ac4645ca3eedc9970cb5c8a8ffff512ee1048b70ec85e9b671fd6655da64736f6c634300060c0033",
  "bytecodeSha1": "f2e4cc16eb6b8e445bf6deed55b3492c5881c3f5",
  "compiler": {
    "evm_version": "istanbul",
    "optimizer": {
      "enabled": true,
      "runs": 200
    },
    "version": "0.6.12+commit.27d51765"
  },
  "contractName": "VaultCore",
  "deployedBytecode": "6080604052600436106103ce5760003560e01c80637e4e61d7116101fd578063b4eae1cb11610118578063e1da5380116100ab578063f2fde38b1161007a578063f2fde38b14610bec578063f7023bb614610c1f578063faeddc9014610c52578063fc9dc4ff14610c67578063fcf4535214610c7c576103ce565b8063e1da538014610b44578063e68ce2b614610b59578063ec18154e14610bc2578063edbbdb9714610bd7576103ce565b8063ca15c873116100e7578063ca15c87314610a8c578063d547741f14610ab6578063d8ea64d61461048b578063daab5d4e14610aef576103ce565b8063b4eae1cb14610a2f578063b845a129146103d3578063bcb083c114610a44578063c6d15e1b14610a59576103ce565b806391d1485411610190578063a217fddf1161015f578063a217fddf146109a5578063a49fdb49146109ba578063a9e3458c14610a05578063af14052c14610a1a576103ce565b806391d148541461092d57806396fd7db614610966578063a09caa181461097b578063a0fda95e14610990576103ce565b80638da5cb5b116101cc5780638da5cb5b146108a75780638e5f2898146108bc5780638eb12814146108e85780639010d07c146108fd576103ce565b80637e4e61d7146108685780638177b4a61461048b57806381b67a301461087d57806383eb70e514610892576103ce565b8063485cc955116102ed5780635c68308d11610280578063715018a61161024f578063715018a614610814578063723863711461082957806377f0c6151461083e5780637e428dac14610853576103ce565b80635c68308d1461079f5780636707d12e146107b457806368ee35911461048b5780637080460f146107ff576103ce565b806352bb81e5116102bc57806352bb81e5146106f057806357635e911461074557806358d7be8f1461048b5780635953e1971461076e576103ce565b8063485cc955146106555780634aba31211461048b5780634b24e3d3146106905780635109ef1c146106db576103ce565b80632f2ff15d116103655780633881d70c116103345780633881d70c146105c95780633c533b56146106145780633f521f8c1461064057806347be1c3e1461048b576103ce565b80632f2ff15d1461054257806332e197f4146103d357806336568abe1461057b57806337d87d70146105b4576103ce565b80632206ccbc116103a15780632206ccbc1461048b578063223e5479146104b7578063248a9ca3146104ea578063276545fe14610514576103ce565b806306ec8cd7146103d35780630d170b03146104055780630d4b927f146104305780631785226414610464575b600080fd5b3480156103df57600080fd5b506103e8610cb8565b6040805167ffffffffffffffff9092168252519081900360200190f35b61042e6004803603606081101561041b57600080fd5b5080359060208101359060400135610cc1565b005b34801561043c57600080fd5b5061042e6004803603604081101561045357600080fd5b508035151590602001351515610d65565b34801561047057600080fd5b50610479610e3a565b60408051918252519081900360200190f35b34801561049757600080fd5b506104a0610e49565b6040805161ffff9092168252519081900360200190f35b3480156104c357600080fd5b5061042e600480360360208110156104da57600080fd5b50356001600160a01b0316610e4f565b3480156104f657600080fd5b506104796004803603602081101561050d57600080fd5b5035610fec565b34801561052057600080fd5b50610529611001565b6040805163ffffffff9092168252519081900360200190f35b34801561054e57600080fd5b5061042e6004803603604081101561056557600080fd5b50803590602001356001600160a01b0316611019565b34801561058757600080fd5b5061042e6004803603604081101561059e57600080fd5b50803590602001356001600160a01b0316611085565b3480156105c057600080fd5b506105296110e6565b3480156105d557600080fd5b5061042e600480360360a08110156105ec57600080fd5b506001600160a01b0381351690602081013590604081013590606081013590608001356110f9565b34801561062057600080fd5b5061042e6004803603602081101561063757600080fd5b503515156111ff565b34801561064c57600080fd5b506105296112a5565b34801561066157600080fd5b5061042e6004803603604081101561067857600080fd5b506001600160a01b03813581169160200135166112b9565b34801561069c57600080fd5b5061042e600480360360a08110156106b357600080fd5b506001600160a01b038135169060208101359060408101359060608101359060800135611486565b3480156106e757600080fd5b50610479611585565b3480156106fc57600080fd5b5061042e600480360360a081101561071357600080fd5b506001600160a01b0381358116916020810135821691604082013515159160608101359091169060800135151561158b565b34801561075157600080fd5b5061075a6117aa565b604080519115158252519081900360200190f35b34801561077a57600080fd5b506107836117b3565b604080516001600160a01b039092168252519081900360200190f35b3480156107ab57600080fd5b506107836117c2565b3480156107c057600080fd5b5061042e600480360360a08110156107d757600080fd5b506001600160a01b0381351690602081013590604081013590606081013590608001356117d1565b34801561080b57600080fd5b5061075a6118d0565b34801561082057600080fd5b5061042e6118e1565b34801561083557600080fd5b5061052961198d565b34801561084a57600080fd5b5061075a611999565b34801561085f57600080fd5b506104796119a8565b34801561087457600080fd5b506107836119b2565b34801561088957600080fd5b506107836119c1565b34801561089e57600080fd5b506104796119d0565b3480156108b357600080fd5b506107836119f4565b3480156108c857600080fd5b5061042e600480360360208110156108df57600080fd5b50351515611a03565b3480156108f457600080fd5b50610529611ab4565b34801561090957600080fd5b506107836004803603604081101561092057600080fd5b5080359060200135611ac7565b34801561093957600080fd5b5061075a6004803603604081101561095057600080fd5b50803590602001356001600160a01b0316611ae8565b34801561097257600080fd5b50610529611b00565b34801561098757600080fd5b5061075a611b0c565b34801561099c57600080fd5b50610529611b1c565b3480156109b157600080fd5b50610479611b2f565b3480156109c657600080fd5b5061042e600480360360a08110156109dd57600080fd5b506001600160a01b038135169060208101359060408101359060608101359060800135611b34565b348015610a1157600080fd5b50610479611c30565b348015610a2657600080fd5b5061042e611c36565b348015610a3b57600080fd5b50610479611d01565b348015610a5057600080fd5b50610783611eaf565b348015610a6557600080fd5b5061042e60048036036020811015610a7c57600080fd5b50356001600160a01b0316611ec5565b348015610a9857600080fd5b5061047960048036036020811015610aaf57600080fd5b5035611f49565b348015610ac257600080fd5b5061042e60048036036040811015610ad957600080fd5b50803590602001356001600160a01b0316611f60565b348015610afb57600080fd5b5061042e600480360360a0811015610b1257600080fd5b506001600160a01b03813581169160208101358216916040820135151591606081013590911690608001351515611fb9565b348015610b5057600080fd5b5061052961240e565b348015610b6557600080fd5b5061042e6004803603610100811015610b7d57600080fd5b5080359063ffffffff602082013581169160408101358216916060820135811691608081013582169160a082013581169160c081013582169160e09091013516612421565b348015610bce57600080fd5b50610479612694565b348015610be357600080fd5b5061075a61269e565b348015610bf857600080fd5b5061042e60048036036020811015610c0f57600080fd5b50356001600160a01b03166126ac565b348015610c2b57600080fd5b5061042e60048036036020811015610c4257600080fd5b50356001600160a01b03166127af565b348015610c5e57600080fd5b50610479612833565b348015610c7357600080fd5b50610479612839565b348015610c8857600080fd5b5061042e60048036036080811015610c9f57600080fd5b508035906020810135906040810135906060013561283f565b64e8d4a5100081565b60975460ff16610d06576040805162461bcd60e51b8152602060048201526014602482015260008051602061463b833981519152604482015290519081900360640190fd5b60003411610d4f576040805162461bcd60e51b81526020600482015260116024820152702732b2b2103a37903830bc9022ba3432b960791b604482015290519081900360640190fd5b610d606000346003863487876128d7565b505050565b610d6d612caa565b6001600160a01b0316610d7e6119f4565b6001600160a01b031614610dc7576040805162461bcd60e51b81526020600482018190526024820152600080516020614739833981519152604482015290519081900360640190fd5b6097805463ff0000001916630100000084151581029190911764ff0000000019166401000000008415158102919091179283905560405160ff918404821615159392909204161515907f8e363288229795661dc4cd7765bb22af3b1ddb395a07cd4894d365d6ebd5d67190600090a35050565b6000610e44612cae565b905090565b61271081565b610e57612caa565b6001600160a01b0316610e686119f4565b6001600160a01b031614610eb1576040805162461bcd60e51b81526020600482018190526024820152600080516020614739833981519152604482015290519081900360640190fd5b6001600160a01b038116600090815260a36020526040902054600160a01b900460ff1615610f17576040805162461bcd60e51b815260206004820152600e60248201526d14dd1c985d1959de48185919195960921b604482015290519081900360640190fd5b6001600160a01b03808216600081815260a360209081526040808320805460ff60a01b196001600160a01b031991821687178116600160a01b908117845560a58054600181810183559190985284547fb29a2b3b6f2ff1b765777a231725941da5072cc4fcc30ac4a2ce09706e8ddeff90980180549094169790991696909617808355835487900460ff161515909602951694909417909355805193845290830193909352825190927f835a6c4fc865a810f7943cfca478cada6bf307d7dbd75892a046aee7ea3cc214928290030190a15050565b60009081526065602052604090206002015490565b60a15468010000000000000000900463ffffffff1681565b60008281526065602052604090206002015461103c90611037612caa565b611ae8565b6110775760405162461bcd60e51b815260040180806020018281038252602f815260200180614512602f913960400191505060405180910390fd5b6110818282612d27565b5050565b61108d612caa565b6001600160a01b0316816001600160a01b0316146110dc5760405162461bcd60e51b815260040180806020018281038252602f8152602001806147b1602f913960400191505060405180910390fd5b6110818282612d90565b60a154600160801b900463ffffffff1681565b60975460ff1661113e576040805162461bcd60e51b8152602060048201526014602482015260008051602061463b833981519152604482015290519081900360640190fd5b6001600160a01b038516600090815260a26020526040902054600160a01b900460ff166111a9576040805162461bcd60e51b815260206004820152601460248201527310dbdb1b185d195c985b081b9bdd08185919195960621b604482015290519081900360640190fd5b600084116111e85760405162461bcd60e51b81526004018080602001828103825260218152602001806145c76021913960400191505060405180910390fd5b6111f885856000878787876128d7565b5050505050565b611207612caa565b6001600160a01b03166112186119f4565b6001600160a01b031614611261576040805162461bcd60e51b81526020600482018190526024820152600080516020614739833981519152604482015290519081900360640190fd5b6097805460ff1916821515179081905560405160ff9091161515907f4aa2f044c925ec4ad9ac60a30b437e605ba4b7c4827d423be239b10228df4a4d90600090a250565b60a154640100000000900463ffffffff1681565b600054610100900460ff16806112d257506112d2612df9565b806112e0575060005460ff16155b61131b5760405162461bcd60e51b815260040180806020018281038252602e8152602001806146b7602e913960400191505060405180910390fd5b600054610100900460ff16158015611346576000805460ff1961ff0019909116610100171660011790555b61134e612e0a565b609780546001600160a01b03858116600160281b0262ff0100600160c81b031960ff199093166001179290921691909117909155609b80549184166001600160a01b0319928316179055609a80549091163017905543609c819055609f805463ffffffff191661c86417908190556113df916113d39163ffffffff90811690612ebc16565b64dd30699c0090612f15565b60a05560a18054615f9063ffffffff199091161767ffffffff00000000191665271000000000176bffffffff00000000000000001916684500000000000000001763ffffffff60601b191661050960651b1763ffffffff60801b1916610aa360811b1763ffffffff60a01b1916603560a61b1763ffffffff60c01b19166102d360c11b179055611470600033611077565b8015610d60576000805461ff0019169055505050565b60975460ff166114cb576040805162461bcd60e51b8152602060048201526014602482015260008051602061463b833981519152604482015290519081900360640190fd5b6001600160a01b038516600090815260a26020526040902054600160a01b900460ff16611536576040805162461bcd60e51b815260206004820152601460248201527310dbdb1b185d195c985b081b9bdd08185919195960621b604482015290519081900360640190fd5b600084116115755760405162461bcd60e51b81526004018080602001828103825260218152602001806145c76021913960400191505060405180910390fd5b6111f885856001868689876128d7565b609d5481565b611593612caa565b6001600160a01b03166115a46119f4565b6001600160a01b0316146115ed576040805162461bcd60e51b81526020600482018190526024820152600080516020614739833981519152604482015290519081900360640190fd5b6001600160a01b038516600090815260a26020526040902054600160a01b900460ff16611658576040805162461bcd60e51b815260206004820152601460248201527310dbdb1b185d195c985b081b9bdd08185919195960621b604482015290519081900360640190fd5b600060a26000876001600160a01b03166001600160a01b031681526020019081526020016000209050858160000160006101000a8154816001600160a01b0302191690836001600160a01b03160217905550848160010160006101000a8154816001600160a01b0302191690836001600160a01b03160217905550838160010160146101000a81548160ff021916908315150217905550828160020160006101000a8154816001600160a01b0302191690836001600160a01b03160217905550856001600160a01b03167fde3f06e95dae99e79be6e9df3a782a93f61d2e886042bd75502377cd9453a9218260000160149054906101000a900460ff1687878787604051808615158152602001856001600160a01b031681526020018415158152602001836001600160a01b0316815260200182151581526020019550505050505060405180910390a2505050505050565b60975460ff1681565b6098546001600160a01b031681565b609a546001600160a01b031681565b60975460ff16611816576040805162461bcd60e51b8152602060048201526014602482015260008051602061463b833981519152604482015290519081900360640190fd5b6001600160a01b038516600090815260a26020526040902054600160a01b900460ff16611881576040805162461bcd60e51b815260206004820152601460248201527310dbdb1b185d195c985b081b9bdd08185919195960621b604482015290519081900360640190fd5b600084116118c05760405162461bcd60e51b81526004018080602001828103825260218152602001806145c76021913960400191505060405180910390fd5b6111f885856002868887876128d7565b609754640100000000900460ff1681565b6118e9612caa565b6001600160a01b03166118fa6119f4565b6001600160a01b031614611943576040805162461bcd60e51b81526020600482018190526024820152600080516020614739833981519152604482015290519081900360640190fd5b6033546040516000916001600160a01b0316907f8be0079c531659141344cd1fd0a4f28419497f9722a3daafe3b4186f6b6457e0908390a3603380546001600160a01b0319169055565b609f5463ffffffff1681565b60975462010000900460ff1681565b6000610e44612f6f565b6099546001600160a01b031681565b609b546001600160a01b031681565b7f5fde63b561377d1441afa201ff619faac2ff8fed70a7fbdbe7a5cb07768c0b7581565b6033546001600160a01b031690565b611a0b612caa565b6001600160a01b0316611a1c6119f4565b6001600160a01b031614611a65576040805162461bcd60e51b81526020600482018190526024820152600080516020614739833981519152604482015290519081900360640190fd5b6097805461ff0019166101008315158102919091179182905560405160ff91909204161515907f7304ed846a7da817e311f225ed0df7c4b621c484da0ab3e633bd5ad083f2c3ae90600090a250565b60a154600160c01b900463ffffffff1681565b6000828152606560205260408120611adf9083613235565b90505b92915050565b6000828152606560205260408120611adf9083613241565b60a15463ffffffff1681565b6097546301000000900460ff1681565b60a154600160a01b900463ffffffff1681565b600081565b60975460ff16611b79576040805162461bcd60e51b8152602060048201526014602482015260008051602061463b833981519152604482015290519081900360640190fd5b6001600160a01b038516600090815260a26020526040902054600160a01b900460ff16611be4576040805162461bcd60e51b815260206004820152601460248201527310dbdb1b185d195c985b081b9bdd08185919195960621b604482015290519081900360640190fd5b60008411611c235760405162461bcd60e51b81526004018080602001828103825260218152602001806145c76021913960400191505060405180910390fd5b6111f88585858585613256565b609e5481565b60975462010000900460ff16611c83576040805162461bcd60e51b815260206004820152600d60248201526c149958985cd9481c185d5cd959609a1b604482015290519081900360640190fd5b611cad7f5fde63b561377d1441afa201ff619faac2ff8fed70a7fbdbe7a5cb07768c0b7533611ae8565b611cf7576040805162461bcd60e51b815260206004820152601660248201527521b0b63632b91034b9903737ba103090313ab93732b960511b604482015290519081900360640190fd5b611cff613634565b565b600080611d0c6139f0565b90506000609860009054906101000a90046001600160a01b03166001600160a01b03166318160ddd6040518163ffffffff1660e01b815260040160206040518083038186803b158015611d5e57600080fd5b505afa158015611d72573d6000803e3d6000fd5b505050506040513d6020811015611d8857600080fd5b505160995460408051630421977560e11b815290519293506000926001600160a01b03909216916308432eea91600480820192602092909190829003018186803b158015611dd557600080fd5b505afa158015611de9573d6000803e3d6000fd5b505050506040513d6020811015611dff57600080fd5b505160995460408051636f2a2b0f60e01b815290519293506000926001600160a01b0390921691636f2a2b0f91600480820192602092909190829003018186803b158015611e4c57600080fd5b505afa158015611e60573d6000803e3d6000fd5b505050506040513d6020811015611e7657600080fd5b505190506000611e9082611e8a8686612ebc565b90613a0b565b9050611ea581611e8a8764e8d4a51000612ebc565b9550505050505090565b609754600160281b90046001600160a01b031681565b611ecd612caa565b6001600160a01b0316611ede6119f4565b6001600160a01b031614611f27576040805162461bcd60e51b81526020600482018190526024820152600080516020614739833981519152604482015290519081900360640190fd5b609880546001600160a01b0319166001600160a01b0392909216919091179055565b6000818152606560205260408120611ae290613a72565b600082815260656020526040902060020154611f7e90611037612caa565b6110dc5760405162461bcd60e51b815260040180806020018281038252603081526020018061465b6030913960400191505060405180910390fd5b611fc1612caa565b6001600160a01b0316611fd26119f4565b6001600160a01b03161461201b576040805162461bcd60e51b81526020600482018190526024820152600080516020614739833981519152604482015290519081900360640190fd5b6001600160a01b038516600090815260a26020526040902054600160a01b900460ff1615612083576040805162461bcd60e51b815260206004820152601060248201526f10dbdb1b185d195c985b08185919195960821b604482015290519081900360640190fd5b6012856001600160a01b031663313ce5676040518163ffffffff1660e01b815260040160206040518083038186803b1580156120be57600080fd5b505afa1580156120d2573d6000803e3d6000fd5b505050506040513d60208110156120e857600080fd5b505160ff16111561212a5760405162461bcd60e51b815260040180806020018281038252602c81526020018061468b602c913960400191505060405180910390fd5b600060a26000876001600160a01b03166001600160a01b031681526020019081526020016000209050858160000160006101000a8154816001600160a01b0302191690836001600160a01b0316021790555060018160000160146101000a81548160ff021916908315150217905550848160010160006101000a8154816001600160a01b0302191690836001600160a01b03160217905550838160010160146101000a81548160ff021916908315150217905550828160020160006101000a8154816001600160a01b0302191690836001600160a01b0316021790555060a48190806001815401808255809150506001900390600052602060002090600302016000909190919091506000820160009054906101000a90046001600160a01b03168160000160006101000a8154816001600160a01b0302191690836001600160a01b031602179055506000820160149054906101000a900460ff168160000160146101000a81548160ff0219169083151502179055506001820160009054906101000a90046001600160a01b03168160010160006101000a8154816001600160a01b0302191690836001600160a01b031602179055506001820160149054906101000a900460ff168160010160146101000a81548160ff0219169083151502179055506002820160009054906101000a90046001600160a01b03168160020160006101000a8154816001600160a01b0302191690836001600160a01b031602179055506002820160149054906101000a900460ff168160020160146101000a81548160ff0219169083151502179055505050856001600160a01b03167fb1751a613cafaab1099ee086ed9f2ec7ade8c547584f5f7d8ecc9547ae0181608260000160149054906101000a900460ff1687878787604051808615158152602001856001600160a01b031681526020018415158152602001836001600160a01b0316815260200182151581526020019550505050505060405180910390a2505050505050565b60a154600160601b900463ffffffff1681565b612429612caa565b6001600160a01b031661243a6119f4565b6001600160a01b031614612483576040805162461bcd60e51b81526020600482018190526024820152600080516020614739833981519152604482015290519081900360640190fd5b8760a0819055508660a160006101000a81548163ffffffff021916908363ffffffff1602179055508560a160046101000a81548163ffffffff021916908363ffffffff1602179055508460a160086101000a81548163ffffffff021916908363ffffffff1602179055508360a1600c6101000a81548163ffffffff021916908363ffffffff1602179055508260a160106101000a81548163ffffffff021916908363ffffffff1602179055508160a160146101000a81548163ffffffff021916908363ffffffff1602179055508060a160186101000a81548163ffffffff021916908363ffffffff1602179055507f3b5ba3caba3d0e0d68c4ceedd15cb7e47ae0e3ed3576725db4652aed627a19a760a05460a160009054906101000a900463ffffffff1660a160049054906101000a900463ffffffff1660a160089054906101000a900463ffffffff1660a1600c9054906101000a900463ffffffff1660a160109054906101000a900463ffffffff1660a160149054906101000a900463ffffffff1660a160189054906101000a900463ffffffff16604051808981526020018863ffffffff1681526020018763ffffffff1681526020018663ffffffff1681526020018563ffffffff1681526020018463ffffffff1681526020018363ffffffff1681526020018263ffffffff1681526020019850505050505050505060405180910390a15050505050505050565b6000610e446139f0565b609754610100900460ff1681565b6126b4612caa565b6001600160a01b03166126c56119f4565b6001600160a01b03161461270e576040805162461bcd60e51b81526020600482018190526024820152600080516020614739833981519152604482015290519081900360640190fd5b6001600160a01b0381166127535760405162461bcd60e51b81526004018080602001828103825260268152602001806145416026913960400191505060405180910390fd5b6033546040516001600160a01b038084169216907f8be0079c531659141344cd1fd0a4f28419497f9722a3daafe3b4186f6b6457e090600090a3603380546001600160a01b0319166001600160a01b0392909216919091179055565b6127b7612caa565b6001600160a01b03166127c86119f4565b6001600160a01b031614612811576040805162461bcd60e51b81526020600482018190526024820152600080516020614739833981519152604482015290519081900360640190fd5b609980546001600160a01b0319166001600160a01b0392909216919091179055565b60a05481565b609c5481565b60975460ff16612884576040805162461bcd60e51b8152602060048201526014602482015260008051602061463b833981519152604482015290519081900360640190fd5b600084116128c35760405162461bcd60e51b81526004018080602001828103825260218152602001806145c76021913960400191505060405180910390fd5b6128d1600085858585613256565b50505050565b60975460ff1661291c576040805162461bcd60e51b8152602060048201526014602482015260008051602061463b833981519152604482015290519081900360640190fd5b604080516363b09fdb60e01b81526001600160a01b03891660048201526024810188905260ff87166044820152306064820152905160009182918291829173__$7a4da8ed57fb7b8a8e1fd7d3a17aa071d9$__916363b09fdb916084808301926080929190829003018186803b15801561299557600080fd5b505af41580156129a9573d6000803e3d6000fd5b505050506040513d60808110156129bf57600080fd5b508051602082015160408301516060909301519196509450909250905087821015612a1b5760405162461bcd60e51b815260040180806020018281038252602e815260200180614759602e913960400191505060405180910390fd5b86831115612a5a5760405162461bcd60e51b81526004018080602001828103825260338152602001806146e56033913960400191505060405180910390fd5b85841115612a995760405162461bcd60e51b815260040180806020018281038252602c81526020018061459b602c913960400191505060405180910390fd5b84421115612ae1576040805162461bcd60e51b815260206004820152601060248201526f111958591b1a5b9948195e1c1a5c995960821b604482015290519081900360640190fd5b6097546040805163079cc67960e41b8152336004820152602481018790529051600160281b9092046001600160a01b0316916379cc67909160448082019260009290919082900301818387803b158015612b3a57600080fd5b505af1158015612b4e573d6000803e3d6000fd5b5050609e54612b609250905085612f15565b609e55600360ff8a1614612b8357612b836001600160a01b038c16333086613a7d565b609854604080516340c10f1960e01b81523360048201526024810185905290516001600160a01b03909216916340c10f199160448082019260009290919082900301818387803b158015612bd657600080fd5b505af1158015612bea573d6000803e3d6000fd5b5050609854604080516340c10f1960e01b81523060048201526024810186905290516001600160a01b0390921693506340c10f19925060448082019260009290919082900301818387803b158015612c4157600080fd5b505af1158015612c55573d6000803e3d6000fd5b5050604080518681526020810188905280820185905290518593503392507f473211ca1f39de50cbd3cc7e9f63f97251afb1a528e8164f279bf67dab4f952d9181900360600190a35050505050505050505050565b3390565b6000805b60a554811015612d235760a58181548110612cc957fe5b600091825260209091200154600160a01b900460ff1615612d1b57612d18612d1160a58381548110612cf757fe5b6000918252602090912001546001600160a01b0316613ad7565b8390612f15565b91505b600101612cb2565b5090565b6000828152606560205260409020612d3f9082613de8565b1561108157612d4c612caa565b6001600160a01b0316816001600160a01b0316837f2f8788117e7eff1d82e926ec794901d17c78024a50270940304540a733656f0d60405160405180910390a45050565b6000828152606560205260409020612da89082613dfd565b1561108157612db5612caa565b6001600160a01b0316816001600160a01b0316837ff6391f5c32d9c69d2a47ea670b442974b53935d1edc7fd64eb21e047a839171b60405160405180910390a45050565b6000612e0430613e12565b15905090565b600054610100900460ff1680612e235750612e23612df9565b80612e31575060005460ff16155b612e6c5760405162461bcd60e51b815260040180806020018281038252602e8152602001806146b7602e913960400191505060405180910390fd5b600054610100900460ff16158015612e97576000805460ff1961ff0019909116610100171660011790555b612e9f613e18565b612ea7613eb8565b8015612eb9576000805461ff00191690555b50565b600082612ecb57506000611ae2565b82820282848281612ed857fe5b0414611adf5760405162461bcd60e51b81526004018080602001828103825260218152602001806147186021913960400191505060405180910390fd5b600082820183811015611adf576040805162461bcd60e51b815260206004820152601b60248201527f536166654d6174683a206164646974696f6e206f766572666c6f770000000000604482015290519081900360640190fd5b6000805b60a454811015612d2357612f856144ba565b60a48281548110612f9257fe5b600091825260208083206040805160c081018252600390940290910180546001600160a01b0380821680875260ff600160a01b938490048116151588880152600185015480841689880152849004811615156060890152600290940154808316608089015292909204909216151560a08601526099548351631469026560e21b8152600481019290925292519496509116926351a4099492602480840193919291829003018186803b15801561304757600080fd5b505afa15801561305b573d6000803e3d6000fd5b505050506040513d602081101561307157600080fd5b5051609954835160408051633f15327960e01b81526001600160a01b03928316600482015290519394506000939190921691633f153279916024808301926020929190829003018186803b1580156130c857600080fd5b505afa1580156130dc573d6000803e3d6000fd5b505050506040513d60208110156130f257600080fd5b505183516040805163313ce56760e01b815290519293506000926001600160a01b039092169163313ce56791600480820192602092909190829003018186803b15801561313e57600080fd5b505afa158015613152573d6000803e3d6000fd5b505050506040513d602081101561316857600080fd5b50518451604080516370a0823160e01b8152306004820152905160ff90931693506000926131f9928692611e8a9289926001600160a01b0316916370a08231916024808301926020929190829003018186803b1580156131c757600080fd5b505afa1580156131db573d6000803e3d6000fd5b505050506040513d60208110156131f157600080fd5b505190612ebc565b9050600061321561320b601285613fb1565b8390600a0a612ebc565b90506132218882612f15565b97505060019095019450612f739350505050565b6000611adf838361400e565b6000611adf836001600160a01b038416614072565b60975460ff1661329b576040805162461bcd60e51b8152602060048201526014602482015260008051602061463b833981519152604482015290519081900360640190fd5b60995460408051637a9acad360e11b81526001600160a01b0380891660048301526024820188905230604483015290921660648301525160009182918291829173__$7a4da8ed57fb7b8a8e1fd7d3a17aa071d9$__9163f53595a6916084808301926080929190829003018186803b15801561331657600080fd5b505af415801561332a573d6000803e3d6000fd5b505050506040513d608081101561334057600080fd5b50805160208201516040830151606090930151919650945090925090508683101561339c5760405162461bcd60e51b81526004018080602001828103825260348152602001806145676034913960400191505060405180910390fd5b858410156133db5760405162461bcd60e51b815260040180806020018281038252602d81526020018061460e602d913960400191505060405180910390fd5b84421115613423576040805162461bcd60e51b815260206004820152601060248201526f111958591b1a5b9948195e1c1a5c995960821b604482015290519081900360640190fd5b6097546040805163edb561c360e01b8152336004820152602481018790529051600160281b9092046001600160a01b03169163edb561c39160448082019260009290919082900301818387803b15801561347c57600080fd5b505af1158015613490573d6000803e3d6000fd5b5050609d546134a29250905085612f15565b609d556001600160a01b03891661354d57604051600090339085908381818185875af1925050503d80600081146134f5576040519150601f19603f3d011682016040523d82523d6000602084013e6134fa565b606091505b5050905080613547576040805162461bcd60e51b81526020600482015260146024820152732330b4b632b2103a379039b2b7321022ba3432b960611b604482015290519081900360640190fd5b50613561565b6135616001600160a01b038a16338561408a565b60985460408051632770a7eb60e21b81523360048201526024810185905290516001600160a01b0390921691639dc29fac9160448082019260009290919082900301818387803b1580156135b457600080fd5b505af11580156135c8573d6000803e3d6000fd5b50506098546135e592506001600160a01b03169050333084613a7d565b60408051848152602081018690528082018390529051839133917f7a7fa876a9a577092f57d3c1deeddc4025fb563aab144154b355ede4fb9f3ded9181900360600190a3505050505050505050565b600061363e6144ba565b600080609860009054906101000a90046001600160a01b03166001600160a01b03166318160ddd6040518163ffffffff1660e01b815260040160206040518083038186803b15801561368f57600080fd5b505afa1580156136a3573d6000803e3d6000fd5b505050506040513d60208110156136b957600080fd5b50519050600080805b60a4548110156139455760a481815481106136d957fe5b60009182526020918290206040805160c081018252600390930290910180546001600160a01b0380821680865260ff600160a01b938490048116151587890152600185015480841688880181905290859004821615156060890152600290950154928316608088015292909104909116151560a08501528251638d2c872760e01b815260048101919091529151909a509198508992638d2c872792602480840193829003018186803b15801561378e57600080fd5b505afa1580156137a2573d6000803e3d6000fd5b505050506040513d60208110156137b857600080fd5b5051945084158015906137cc57508560a001515b1561393d57855160408051636ce5768960e11b81523060048201526001600160a01b0392831660248201526044810188905290519189169163d9caed129160648082019260009290919082900301818387803b15801561382b57600080fd5b505af115801561383f573d6000803e3d6000fd5b5050505085608001516001600160a01b03166373bd43ad866040518263ffffffff1660e01b815260040180828152602001915050602060405180830381600087803b15801561388d57600080fd5b505af11580156138a1573d6000803e3d6000fd5b505050506040513d60208110156138b757600080fd5b505160985460408051632770a7eb60e21b81523060048201526024810184905290519294506001600160a01b0390911691639dc29fac9160448082019260009290919082900301818387803b15801561390f57600080fd5b505af1158015613923573d6000803e3d6000fd5b5050505061393a8284612f1590919063ffffffff16565b92505b6001016136c2565b5060006139528484612f15565b609854604080516339a7919f60e01b81526004810184905290519293506001600160a01b03909116916339a7919f9160248082019260009290919082900301818387803b1580156139a257600080fd5b505af11580156139b6573d6000803e3d6000fd5b50506040518392508691507f11c6bf55864ff83827df712625d7a80e5583eef0264921025e7cd22003a2151190600090a350505050505050565b6000610e446139fd612cae565b613a05612f6f565b90612f15565b6000808211613a61576040805162461bcd60e51b815260206004820152601a60248201527f536166654d6174683a206469766973696f6e206279207a65726f000000000000604482015290519081900360640190fd5b818381613a6a57fe5b049392505050565b6000611ae2826140dc565b604080516001600160a01b0380861660248301528416604482015260648082018490528251808303909101815260849091019091526020810180516001600160e01b03166323b872dd60e01b1790526128d19085906140e0565b600081815b60a454811015613de157613aee6144ba565b60a48281548110613afb57fe5b60009182526020918290206040805160c081018252600390930290910180546001600160a01b0380821680865260ff600160a01b938490048116151587890152600185015480841688880152849004811615156060880152600290940154808316608088015292909204909216151560a0850152825163a400326f60e01b81526004810191909152915192945086169263a400326f92602480840193829003018186803b158015613bab57600080fd5b505afa158015613bbf573d6000803e3d6000fd5b505050506040513d6020811015613bd557600080fd5b505115613dd857609954815160408051631469026560e21b81526001600160a01b039283166004820152905160009392909216916351a4099491602480820192602092909190829003018186803b158015613c2f57600080fd5b505afa158015613c43573d6000803e3d6000fd5b505050506040513d6020811015613c5957600080fd5b5051609954835160408051633f15327960e01b81526001600160a01b03928316600482015290519394506000939190921691633f153279916024808301926020929190829003018186803b158015613cb057600080fd5b505afa158015613cc4573d6000803e3d6000fd5b505050506040513d6020811015613cda57600080fd5b505183516040805163313ce56760e01b815290519293506000926001600160a01b039092169163313ce56791600480820192602092909190829003018186803b158015613d2657600080fd5b505afa158015613d3a573d6000803e3d6000fd5b505050506040513d6020811015613d5057600080fd5b5051845160408051632fa8a91360e11b81526001600160a01b039283166004820152905160ff9093169350600092613db2928692611e8a9289928d1691635f515226916024808301926020929190829003018186803b1580156131c757600080fd5b90506000613dc461320b601285613fb1565b9050613dd08982612f15565b985050505050505b50600101613adc565b5050919050565b6000611adf836001600160a01b038416614191565b6000611adf836001600160a01b0384166141db565b3b151590565b600054610100900460ff1680613e315750613e31612df9565b80613e3f575060005460ff16155b613e7a5760405162461bcd60e51b815260040180806020018281038252602e8152602001806146b7602e913960400191505060405180910390fd5b600054610100900460ff16158015612ea7576000805460ff1961ff0019909116610100171660011790558015612eb9576000805461ff001916905550565b600054610100900460ff1680613ed15750613ed1612df9565b80613edf575060005460ff16155b613f1a5760405162461bcd60e51b815260040180806020018281038252602e8152602001806146b7602e913960400191505060405180910390fd5b600054610100900460ff16158015613f45576000805460ff1961ff0019909116610100171660011790555b6000613f4f612caa565b603380546001600160a01b0319166001600160a01b038316908117909155604051919250906000907f8be0079c531659141344cd1fd0a4f28419497f9722a3daafe3b4186f6b6457e0908290a3508015612eb9576000805461ff001916905550565b600082821115614008576040805162461bcd60e51b815260206004820152601e60248201527f536166654d6174683a207375627472616374696f6e206f766572666c6f770000604482015290519081900360640190fd5b50900390565b815460009082106140505760405162461bcd60e51b81526004018080602001828103825260228152602001806144f06022913960400191505060405180910390fd5b82600001828154811061405f57fe5b9060005260206000200154905092915050565b60009081526001919091016020526040902054151590565b604080516001600160a01b038416602482015260448082018490528251808303909101815260649091019091526020810180516001600160e01b031663a9059cbb60e01b179052610d609084906140e0565b5490565b6060614135826040518060400160405280602081526020017f5361666545524332303a206c6f772d6c6576656c2063616c6c206661696c6564815250856001600160a01b03166142a19092919063ffffffff16565b805190915015610d605780806020019051602081101561415457600080fd5b5051610d605760405162461bcd60e51b815260040180806020018281038252602a815260200180614787602a913960400191505060405180910390fd5b600061419d8383614072565b6141d357508154600181810184556000848152602080822090930184905584548482528286019093526040902091909155611ae2565b506000611ae2565b60008181526001830160205260408120548015614297578354600019808301919081019060009087908390811061420e57fe5b906000526020600020015490508087600001848154811061422b57fe5b60009182526020808320909101929092558281526001898101909252604090209084019055865487908061425b57fe5b60019003818190600052602060002001600090559055866001016000878152602001908152602001600020600090556001945050505050611ae2565b6000915050611ae2565b60606142b084846000856142ba565b90505b9392505050565b6060824710156142fb5760405162461bcd60e51b81526004018080602001828103825260268152602001806145e86026913960400191505060405180910390fd5b61430485613e12565b614355576040805162461bcd60e51b815260206004820152601d60248201527f416464726573733a2063616c6c20746f206e6f6e2d636f6e7472616374000000604482015290519081900360640190fd5b60006060866001600160a01b031685876040518082805190602001908083835b602083106143945780518252601f199092019160209182019101614375565b6001836020036101000a03801982511681845116808217855250505050505090500191505060006040518083038185875af1925050503d80600081146143f6576040519150601f19603f3d011682016040523d82523d6000602084013e6143fb565b606091505b509150915061440b828286614416565b979650505050505050565b606083156144255750816142b3565b8251156144355782518084602001fd5b8160405162461bcd60e51b81526004018080602001828103825283818151815260200191508051906020019080838360005b8381101561447f578181015183820152602001614467565b50505050905090810190601f1680156144ac5780820380516001836020036101000a031916815260200191505b509250505060405180910390fd5b6040805160c081018252600080825260208201819052918101829052606081018290526080810182905260a08101919091529056fe456e756d657261626c655365743a20696e646578206f7574206f6620626f756e6473416363657373436f6e74726f6c3a2073656e646572206d75737420626520616e2061646d696e20746f206772616e744f776e61626c653a206e6577206f776e657220697320746865207a65726f2061646472657373436f6c6c61746572616c20616d6f756e74206973206c6f776572207468616e20746865206d6178696d756d20736c69707061676553504120616d6f756e74206973206d6f7265207468616e20746865206d6178696d756d20736c697070616765416d6f756e74206e6565647320746f2062652067726561746572207468616e2030416464726573733a20696e73756666696369656e742062616c616e636520666f722063616c6c53504120616d6f756e74206973206c6f776572207468616e20746865206d6178696d756d20736c6970706167654d696e7420262072656465656d20706175736564000000000000000000000000416363657373436f6e74726f6c3a2073656e646572206d75737420626520616e2061646d696e20746f207265766f6b65436f6c6c61746572616c7320646563696d616c73206e65656420746f206265206c657373207465686e203138496e697469616c697a61626c653a20636f6e747261637420697320616c726561647920696e697469616c697a6564436f6c6c61746572616c20616d6f756e74206973206d6f7265207468616e20746865206d6178696d756d20736c697070616765536166654d6174683a206d756c7469706c69636174696f6e206f766572666c6f774f776e61626c653a2063616c6c6572206973206e6f7420746865206f776e65725553447320616d6f756e74206973206c6f776572207468616e20746865206d6178696d756d20736c6970706167655361666545524332303a204552433230206f7065726174696f6e20646964206e6f742073756363656564416363657373436f6e74726f6c3a2063616e206f6e6c792072656e6f756e636520726f6c657320666f722073656c66a2646970667358221220ee0e69ac4645ca3eedc9970cb5c8a8ffff512ee1048b70ec85e9b671fd6655da64736f6c634300060c0033",
  "language": "Solidity",
  "natspec": {
    "kind": "dev",
    "methods": {
      "getRoleAdmin(bytes32)": {
        "details": "Returns the admin role that controls `role`. See {grantRole} and {revokeRole}. To change a role's admin, use {_setRoleAdmin}."
      },
      "getRoleMember(bytes32,uint256)": {
        "details": "Returns one of the accounts that have `role`. `index` must be a value between 0 and {getRoleMemberCount}, non-inclusive. Role bearers are not sorted in any particular way, and their ordering may change at any point. WARNING: When using {getRoleMember} and {getRoleMemberCount}, make sure you perform all queries on the same block. See the following https://forum.openzeppelin.com/t/iterating-over-elements-on-enumerableset-in-openzeppelin-contracts/2296[forum post] for more information."
      },
      "getRoleMemberCount(bytes32)": {
        "details": "Returns the number of accounts that have `role`. Can be used together with {getRoleMember} to enumerate all bearers of a role."
      },
      "grantRole(bytes32,address)": {
        "details": "Grants `role` to `account`. If `account` had not been already granted `role`, emits a {RoleGranted} event. Requirements: - the caller must have ``role``'s admin role."
      },
      "hasRole(bytes32,address)": {
        "details": "Returns `true` if `account` has been granted `role`."
      },
      "mintWithColla(address,uint256,uint256,uint256,uint256)": {
        "details": "mint USDs by entering collateral amount (excluding ETH)",
        "params": {
          "collateralAddr": "the address of user's chosen collateral",
          "collateralAmt": "the amount of collateral to stake"
        }
      },
      "mintWithEth(uint256,uint256,uint256)": {
        "details": "mint USDs by ETH note: this function needs changes when USDs is deployed on other blockchain platform"
      },
      "mintWithSPA(address,uint256,uint256,uint256,uint256)": {
        "details": "mint USDs by entering SPA amount",
        "params": {
          "SPAamt": "the amount of SPA to burn",
          "collateralAddr": "the address of user's chosen collateral"
        }
      },
      "mintWithUSDs(address,uint256,uint256,uint256,uint256)": {
        "details": "mint USDs by entering USDs amount",
        "params": {
          "USDsMintAmt": "the amount of USDs to be minted",
          "collateralAddr": "the address of user's chosen collateral"
        }
      },
      "owner()": {
        "details": "Returns the address of the current owner."
      },
      "renounceOwnership()": {
        "details": "Leaves the contract without owner. It will not be possible to call `onlyOwner` functions anymore. Can only be called by the current owner. NOTE: Renouncing ownership will leave the contract without an owner, thereby removing any functionality that is only available to the owner."
      },
      "renounceRole(bytes32,address)": {
        "details": "Revokes `role` from the calling account. Roles are often managed via {grantRole} and {revokeRole}: this function's purpose is to provide a mechanism for accounts to lose their privileges if they are compromised (such as when a trusted device is misplaced). If the calling account had been granted `role`, emits a {RoleRevoked} event. Requirements: - the caller must be `account`."
      },
      "revokeRole(bytes32,address)": {
        "details": "Revokes `role` from `account`. If `account` had been granted `role`, emits a {RoleRevoked} event. Requirements: - the caller must have ``role``'s admin role."
      },
      "transferOwnership(address)": {
        "details": "Transfers ownership of the contract to a new account (`newOwner`). Can only be called by the current owner."
      },
      "updateAllocationPermission(bool)": {
        "details": "disable collateral re-investment"
      },
      "updateMintBurnPermission(bool)": {
        "details": "disable USDs mint & redeem"
      },
      "updateSwapInOutFeePermission(bool,bool)": {
        "details": "disable swapInFee, i.e. mint becomes free"
      }
    },
    "version": 1
  },
  "opcodes": "PUSH1 0x80 PUSH1 0x40 MSTORE PUSH1 0x4 CALLDATASIZE LT PUSH2 0x3CE JUMPI PUSH1 0x0 CALLDATALOAD PUSH1 0xE0 SHR DUP1 PUSH4 0x7E4E61D7 GT PUSH2 0x1FD JUMPI DUP1 PUSH4 0xB4EAE1CB GT PUSH2 0x118 JUMPI DUP1 PUSH4 0xE1DA5380 GT PUSH2 0xAB JUMPI DUP1 PUSH4 0xF2FDE38B GT PUSH2 0x7A JUMPI DUP1 PUSH4 0xF2FDE38B EQ PUSH2 0xBEC JUMPI DUP1 PUSH4 0xF7023BB6 EQ PUSH2 0xC1F JUMPI DUP1 PUSH4 0xFAEDDC90 EQ PUSH2 0xC52 JUMPI DUP1 PUSH4 0xFC9DC4FF EQ PUSH2 0xC67 JUMPI DUP1 PUSH4 0xFCF45352 EQ PUSH2 0xC7C JUMPI PUSH2 0x3CE JUMP JUMPDEST DUP1 PUSH4 0xE1DA5380 EQ PUSH2 0xB44 JUMPI DUP1 PUSH4 0xE68CE2B6 EQ PUSH2 0xB59 JUMPI DUP1 PUSH4 0xEC18154E EQ PUSH2 0xBC2 JUMPI DUP1 PUSH4 0xEDBBDB97 EQ PUSH2 0xBD7 JUMPI PUSH2 0x3CE JUMP JUMPDEST DUP1 PUSH4 0xCA15C873 GT PUSH2 0xE7 JUMPI DUP1 PUSH4 0xCA15C873 EQ PUSH2 0xA8C JUMPI DUP1 PUSH4 0xD547741F EQ PUSH2 0xAB6 JUMPI DUP1 PUSH4 0xD8EA64D6 EQ PUSH2 0x48B JUMPI DUP1 PUSH4 0xDAAB5D4E EQ PUSH2 0xAEF JUMPI PUSH2 0x3CE JUMP JUMPDEST DUP1 PUSH4 0xB4EAE1CB EQ PUSH2 0xA2F JUMPI DUP1 PUSH4 0xB845A129 EQ PUSH2 0x3D3 JUMPI DUP1 PUSH4 0xBCB083C1 EQ PUSH2 0xA44 JUMPI DUP1 PUSH4 0xC6D15E1B EQ PUSH2 0xA59 JUMPI PUSH2 0x3CE JUMP JUMPDEST DUP1 PUSH4 0x91D14854 GT PUSH2 0x190 JUMPI DUP1 PUSH4 0xA217FDDF GT PUSH2 0x15F JUMPI DUP1 PUSH4 0xA217FDDF EQ PUSH2 0x9A5 JUMPI DUP1 PUSH4 0xA49FDB49 EQ PUSH2 0x9BA JUMPI DUP1 PUSH4 0xA9E3458C EQ PUSH2 0xA05 JUMPI DUP1 PUSH4 0xAF14052C EQ PUSH2 0xA1A JUMPI PUSH2 0x3CE JUMP JUMPDEST DUP1 PUSH4 0x91D14854 EQ PUSH2 0x92D JUMPI DUP1 PUSH4 0x96FD7DB6 EQ PUSH2 0x966 JUMPI DUP1 PUSH4 0xA09CAA18 EQ PUSH2 0x97B JUMPI DUP1 PUSH4 0xA0FDA95E EQ PUSH2 0x990 JUMPI PUSH2 0x3CE JUMP JUMPDEST DUP1 PUSH4 0x8DA5CB5B GT PUSH2 0x1CC JUMPI DUP1 PUSH4 0x8DA5CB5B EQ PUSH2 0x8A7 JUMPI DUP1 PUSH4 0x8E5F2898 EQ PUSH2 0x8BC JUMPI DUP1 PUSH4 0x8EB12814 EQ PUSH2 0x8E8 JUMPI DUP1 PUSH4 0x9010D07C EQ PUSH2 0x8FD JUMPI PUSH2 0x3CE JUMP JUMPDEST DUP1 PUSH4 0x7E4E61D7 EQ PUSH2 0x868 JUMPI DUP1 PUSH4 0x8177B4A6 EQ PUSH2 0x48B JUMPI DUP1 PUSH4 0x81B67A30 EQ PUSH2 0x87D JUMPI DUP1 PUSH4 0x83EB70E5 EQ PUSH2 0x892 JUMPI PUSH2 0x3CE JUMP JUMPDEST DUP1 PUSH4 0x485CC955 GT PUSH2 0x2ED JUMPI DUP1 PUSH4 0x5C68308D GT PUSH2 0x280 JUMPI DUP1 PUSH4 0x715018A6 GT PUSH2 0x24F JUMPI DUP1 PUSH4 0x715018A6 EQ PUSH2 0x814 JUMPI DUP1 PUSH4 0x72386371 EQ PUSH2 0x829 JUMPI DUP1 PUSH4 0x77F0C615 EQ PUSH2 0x83E JUMPI DUP1 PUSH4 0x7E428DAC EQ PUSH2 0x853 JUMPI PUSH2 0x3CE JUMP JUMPDEST DUP1 PUSH4 0x5C68308D EQ PUSH2 0x79F JUMPI DUP1 PUSH4 0x6707D12E EQ PUSH2 0x7B4 JUMPI DUP1 PUSH4 0x68EE3591 EQ PUSH2 0x48B JUMPI DUP1 PUSH4 0x7080460F EQ PUSH2 0x7FF JUMPI PUSH2 0x3CE JUMP JUMPDEST DUP1 PUSH4 0x52BB81E5 GT PUSH2 0x2BC JUMPI DUP1 PUSH4 0x52BB81E5 EQ PUSH2 0x6F0 JUMPI DUP1 PUSH4 0x57635E91 EQ PUSH2 0x745 JUMPI DUP1 PUSH4 0x58D7BE8F EQ PUSH2 0x48B JUMPI DUP1 PUSH4 0x5953E197 EQ PUSH2 0x76E JUMPI PUSH2 0x3CE JUMP JUMPDEST DUP1 PUSH4 0x485CC955 EQ PUSH2 0x655 JUMPI DUP1 PUSH4 0x4ABA3121 EQ PUSH2 0x48B JUMPI DUP1 PUSH4 0x4B24E3D3 EQ PUSH2 0x690 JUMPI DUP1 PUSH4 0x5109EF1C EQ PUSH2 0x6DB JUMPI PUSH2 0x3CE JUMP JUMPDEST DUP1 PUSH4 0x2F2FF15D GT PUSH2 0x365 JUMPI DUP1 PUSH4 0x3881D70C GT PUSH2 0x334 JUMPI DUP1 PUSH4 0x3881D70C EQ PUSH2 0x5C9 JUMPI DUP1 PUSH4 0x3C533B56 EQ PUSH2 0x614 JUMPI DUP1 PUSH4 0x3F521F8C EQ PUSH2 0x640 JUMPI DUP1 PUSH4 0x47BE1C3E EQ PUSH2 0x48B JUMPI PUSH2 0x3CE JUMP JUMPDEST DUP1 PUSH4 0x2F2FF15D EQ PUSH2 0x542 JUMPI DUP1 PUSH4 0x32E197F4 EQ PUSH2 0x3D3 JUMPI DUP1 PUSH4 0x36568ABE EQ PUSH2 0x57B JUMPI DUP1 PUSH4 0x37D87D70 EQ PUSH2 0x5B4 JUMPI PUSH2 0x3CE JUMP JUMPDEST DUP1 PUSH4 0x2206CCBC GT PUSH2 0x3A1 JUMPI DUP1 PUSH4 0x2206CCBC EQ PUSH2 0x48B JUMPI DUP1 PUSH4 0x223E5479 EQ PUSH2 0x4B7 JUMPI DUP1 PUSH4 0x248A9CA3 EQ PUSH2 0x4EA JUMPI DUP1 PUSH4 0x276545FE EQ PUSH2 0x514 JUMPI PUSH2 0x3CE JUMP JUMPDEST DUP1 PUSH4 0x6EC8CD7 EQ PUSH2 0x3D3 JUMPI DUP1 PUSH4 0xD170B03 EQ PUSH2 0x405 JUMPI DUP1 PUSH4 0xD4B927F EQ PUSH2 0x430 JUMPI DUP1 PUSH4 0x17852264 EQ PUSH2 0x464 JUMPI JUMPDEST PUSH1 0x0 DUP1 REVERT JUMPDEST CALLVALUE DUP1 ISZERO PUSH2 0x3DF JUMPI PUSH1 0x0 DUP1 REVERT JUMPDEST POP PUSH2 0x3E8 PUSH2 0xCB8 JUMP JUMPDEST PUSH1 0x40 DUP1 MLOAD PUSH8 0xFFFFFFFFFFFFFFFF SWAP1 SWAP3 AND DUP3 MSTORE MLOAD SWAP1 DUP2 SWAP1 SUB PUSH1 0x20 ADD SWAP1 RETURN JUMPDEST PUSH2 0x42E PUSH1 0x4 DUP1 CALLDATASIZE SUB PUSH1 0x60 DUP2 LT ISZERO PUSH2 0x41B JUMPI PUSH1 0x0 DUP1 REVERT JUMPDEST POP DUP1 CALLDATALOAD SWAP1 PUSH1 0x20 DUP2 ADD CALLDATALOAD SWAP1 PUSH1 0x40 ADD CALLDATALOAD PUSH2 0xCC1 JUMP JUMPDEST STOP JUMPDEST CALLVALUE DUP1 ISZERO PUSH2 0x43C JUMPI PUSH1 0x0 DUP1 REVERT JUMPDEST POP PUSH2 0x42E PUSH1 0x4 DUP1 CALLDATASIZE SUB PUSH1 0x40 DUP2 LT ISZERO PUSH2 0x453 JUMPI PUSH1 0x0 DUP1 REVERT JUMPDEST POP DUP1 CALLDATALOAD ISZERO ISZERO SWAP1 PUSH1 0x20 ADD CALLDATALOAD ISZERO ISZERO PUSH2 0xD65 JUMP JUMPDEST CALLVALUE DUP1 ISZERO PUSH2 0x470 JUMPI PUSH1 0x0 DUP1 REVERT JUMPDEST POP PUSH2 0x479 PUSH2 0xE3A JUMP JUMPDEST PUSH1 0x40 DUP1 MLOAD SWAP2 DUP3 MSTORE MLOAD SWAP1 DUP2 SWAP1 SUB PUSH1 0x20 ADD SWAP1 RETURN JUMPDEST CALLVALUE DUP1 ISZERO PUSH2 0x497 JUMPI PUSH1 0x0 DUP1 REVERT JUMPDEST POP PUSH2 0x4A0 PUSH2 0xE49 JUMP JUMPDEST PUSH1 0x40 DUP1 MLOAD PUSH2 0xFFFF SWAP1 SWAP3 AND DUP3 MSTORE MLOAD SWAP1 DUP2 SWAP1 SUB PUSH1 0x20 ADD SWAP1 RETURN JUMPDEST CALLVALUE DUP1 ISZERO PUSH2 0x4C3 JUMPI PUSH1 0x0 DUP1 REVERT JUMPDEST POP PUSH2 0x42E PUSH1 0x4 DUP1 CALLDATASIZE SUB PUSH1 0x20 DUP2 LT ISZERO PUSH2 0x4DA JUMPI PUSH1 0x0 DUP1 REVERT JUMPDEST POP CALLDATALOAD PUSH1 0x1 PUSH1 0x1 PUSH1 0xA0 SHL SUB AND PUSH2 0xE4F JUMP JUMPDEST CALLVALUE DUP1 ISZERO PUSH2 0x4F6 JUMPI PUSH1 0x0 DUP1 REVERT JUMPDEST POP PUSH2 0x479 PUSH1 0x4 DUP1 CALLDATASIZE SUB PUSH1 0x20 DUP2 LT ISZERO PUSH2 0x50D JUMPI PUSH1 0x0 DUP1 REVERT JUMPDEST POP CALLDATALOAD PUSH2 0xFEC JUMP JUMPDEST CALLVALUE DUP1 ISZERO PUSH2 0x520 JUMPI PUSH1 0x0 DUP1 REVERT JUMPDEST POP PUSH2 0x529 PUSH2 0x1001 JUMP JUMPDEST PUSH1 0x40 DUP1 MLOAD PUSH4 0xFFFFFFFF SWAP1 SWAP3 AND DUP3 MSTORE MLOAD SWAP1 DUP2 SWAP1 SUB PUSH1 0x20 ADD SWAP1 RETURN JUMPDEST CALLVALUE DUP1 ISZERO PUSH2 0x54E JUMPI PUSH1 0x0 DUP1 REVERT JUMPDEST POP PUSH2 0x42E PUSH1 0x4 DUP1 CALLDATASIZE SUB PUSH1 0x40 DUP2 LT ISZERO PUSH2 0x565 JUMPI PUSH1 0x0 DUP1 REVERT JUMPDEST POP DUP1 CALLDATALOAD SWAP1 PUSH1 0x20 ADD CALLDATALOAD PUSH1 0x1 PUSH1 0x1 PUSH1 0xA0 SHL SUB AND PUSH2 0x1019 JUMP JUMPDEST CALLVALUE DUP1 ISZERO PUSH2 0x587 JUMPI PUSH1 0x0 DUP1 REVERT JUMPDEST POP PUSH2 0x42E PUSH1 0x4 DUP1 CALLDATASIZE SUB PUSH1 0x40 DUP2 LT ISZERO PUSH2 0x59E JUMPI PUSH1 0x0 DUP1 REVERT JUMPDEST POP DUP1 CALLDATALOAD SWAP1 PUSH1 0x20 ADD CALLDATALOAD PUSH1 0x1 PUSH1 0x1 PUSH1 0xA0 SHL SUB AND PUSH2 0x1085 JUMP JUMPDEST CALLVALUE DUP1 ISZERO PUSH2 0x5C0 JUMPI PUSH1 0x0 DUP1 REVERT JUMPDEST POP PUSH2 0x529 PUSH2 0x10E6 JUMP JUMPDEST CALLVALUE DUP1 ISZERO PUSH2 0x5D5 JUMPI PUSH1 0x0 DUP1 REVERT JUMPDEST POP PUSH2 0x42E PUSH1 0x4 DUP1 CALLDATASIZE SUB PUSH1 0xA0 DUP2 LT ISZERO PUSH2 0x5EC JUMPI PUSH1 0x0 DUP1 REVERT JUMPDEST POP PUSH1 0x1 PUSH1 0x1 PUSH1 0xA0 SHL SUB DUP2 CALLDATALOAD AND SWAP1 PUSH1 0x20 DUP2 ADD CALLDATALOAD SWAP1 PUSH1 0x40 DUP2 ADD CALLDATALOAD SWAP1 PUSH1 0x60 DUP2 ADD CALLDATALOAD SWAP1 PUSH1 0x80 ADD CALLDATALOAD PUSH2 0x10F9 JUMP JUMPDEST CALLVALUE DUP1 ISZERO PUSH2 0x620 JUMPI PUSH1 0x0 DUP1 REVERT JUMPDEST POP PUSH2 0x42E PUSH1 0x4 DUP1 CALLDATASIZE SUB PUSH1 0x20 DUP2 LT ISZERO PUSH2 0x637 JUMPI PUSH1 0x0 DUP1 REVERT JUMPDEST POP CALLDATALOAD ISZERO ISZERO PUSH2 0x11FF JUMP JUMPDEST CALLVALUE DUP1 ISZERO PUSH2 0x64C JUMPI PUSH1 0x0 DUP1 REVERT JUMPDEST POP PUSH2 0x529 PUSH2 0x12A5 JUMP JUMPDEST CALLVALUE DUP1 ISZERO PUSH2 0x661 JUMPI PUSH1 0x0 DUP1 REVERT JUMPDEST POP PUSH2 0x42E PUSH1 0x4 DUP1 CALLDATASIZE SUB PUSH1 0x40 DUP2 LT ISZERO PUSH2 0x678 JUMPI PUSH1 0x0 DUP1 REVERT JUMPDEST POP PUSH1 0x1 PUSH1 0x1 PUSH1 0xA0 SHL SUB DUP2 CALLDATALOAD DUP2 AND SWAP2 PUSH1 0x20 ADD CALLDATALOAD AND PUSH2 0x12B9 JUMP JUMPDEST CALLVALUE DUP1 ISZERO PUSH2 0x69C JUMPI PUSH1 0x0 DUP1 REVERT JUMPDEST POP PUSH2 0x42E PUSH1 0x4 DUP1 CALLDATASIZE SUB PUSH1 0xA0 DUP2 LT ISZERO PUSH2 0x6B3 JUMPI PUSH1 0x0 DUP1 REVERT JUMPDEST POP PUSH1 0x1 PUSH1 0x1 PUSH1 0xA0 SHL SUB DUP2 CALLDATALOAD AND SWAP1 PUSH1 0x20 DUP2 ADD CALLDATALOAD SWAP1 PUSH1 0x40 DUP2 ADD CALLDATALOAD SWAP1 PUSH1 0x60 DUP2 ADD CALLDATALOAD SWAP1 PUSH1 0x80 ADD CALLDATALOAD PUSH2 0x1486 JUMP JUMPDEST CALLVALUE DUP1 ISZERO PUSH2 0x6E7 JUMPI PUSH1 0x0 DUP1 REVERT JUMPDEST POP PUSH2 0x479 PUSH2 0x1585 JUMP JUMPDEST CALLVALUE DUP1 ISZERO PUSH2 0x6FC JUMPI PUSH1 0x0 DUP1 REVERT JUMPDEST POP PUSH2 0x42E PUSH1 0x4 DUP1 CALLDATASIZE SUB PUSH1 0xA0 DUP2 LT ISZERO PUSH2 0x713 JUMPI PUSH1 0x0 DUP1 REVERT JUMPDEST POP PUSH1 0x1 PUSH1 0x1 PUSH1 0xA0 SHL SUB DUP2 CALLDATALOAD DUP2 AND SWAP2 PUSH1 0x20 DUP2 ADD CALLDATALOAD DUP3 AND SWAP2 PUSH1 0x40 DUP3 ADD CALLDATALOAD ISZERO ISZERO SWAP2 PUSH1 0x60 DUP2 ADD CALLDATALOAD SWAP1 SWAP2 AND SWAP1 PUSH1 0x80 ADD CALLDATALOAD ISZERO ISZERO PUSH2 0x158B JUMP JUMPDEST CALLVALUE DUP1 ISZERO PUSH2 0x751 JUMPI PUSH1 0x0 DUP1 REVERT JUMPDEST POP PUSH2 0x75A PUSH2 0x17AA JUMP JUMPDEST PUSH1 0x40 DUP1 MLOAD SWAP2 ISZERO ISZERO DUP3 MSTORE MLOAD SWAP1 DUP2 SWAP1 SUB PUSH1 0x20 ADD SWAP1 RETURN JUMPDEST CALLVALUE DUP1 ISZERO PUSH2 0x77A JUMPI PUSH1 0x0 DUP1 REVERT JUMPDEST POP PUSH2 0x783 PUSH2 0x17B3 JUMP JUMPDEST PUSH1 0x40 DUP1 MLOAD PUSH1 0x1 PUSH1 0x1 PUSH1 0xA0 SHL SUB SWAP1 SWAP3 AND DUP3 MSTORE MLOAD SWAP1 DUP2 SWAP1 SUB PUSH1 0x20 ADD SWAP1 RETURN JUMPDEST CALLVALUE DUP1 ISZERO PUSH2 0x7AB JUMPI PUSH1 0x0 DUP1 REVERT JUMPDEST POP PUSH2 0x783 PUSH2 0x17C2 JUMP JUMPDEST CALLVALUE DUP1 ISZERO PUSH2 0x7C0 JUMPI PUSH1 0x0 DUP1 REVERT JUMPDEST POP PUSH2 0x42E PUSH1 0x4 DUP1 CALLDATASIZE SUB PUSH1 0xA0 DUP2 LT ISZERO PUSH2 0x7D7 JUMPI PUSH1 0x0 DUP1 REVERT JUMPDEST POP PUSH1 0x1 PUSH1 0x1 PUSH1 0xA0 SHL SUB DUP2 CALLDATALOAD AND SWAP1 PUSH1 0x20 DUP2 ADD CALLDATALOAD SWAP1 PUSH1 0x40 DUP2 ADD CALLDATALOAD SWAP1 PUSH1 0x60 DUP2 ADD CALLDATALOAD SWAP1 PUSH1 0x80 ADD CALLDATALOAD PUSH2 0x17D1 JUMP JUMPDEST CALLVALUE DUP1 ISZERO PUSH2 0x80B JUMPI PUSH1 0x0 DUP1 REVERT JUMPDEST POP PUSH2 0x75A PUSH2 0x18D0 JUMP JUMPDEST CALLVALUE DUP1 ISZERO PUSH2 0x820 JUMPI PUSH1 0x0 DUP1 REVERT JUMPDEST POP PUSH2 0x42E PUSH2 0x18E1 JUMP JUMPDEST CALLVALUE DUP1 ISZERO PUSH2 0x835 JUMPI PUSH1 0x0 DUP1 REVERT JUMPDEST POP PUSH2 0x529 PUSH2 0x198D JUMP JUMPDEST CALLVALUE DUP1 ISZERO PUSH2 0x84A JUMPI PUSH1 0x0 DUP1 REVERT JUMPDEST POP PUSH2 0x75A PUSH2 0x1999 JUMP JUMPDEST CALLVALUE DUP1 ISZERO PUSH2 0x85F JUMPI PUSH1 0x0 DUP1 REVERT JUMPDEST POP PUSH2 0x479 PUSH2 0x19A8 JUMP JUMPDEST CALLVALUE DUP1 ISZERO PUSH2 0x874 JUMPI PUSH1 0x0 DUP1 REVERT JUMPDEST POP PUSH2 0x783 PUSH2 0x19B2 JUMP JUMPDEST CALLVALUE DUP1 ISZERO PUSH2 0x889 JUMPI PUSH1 0x0 DUP1 REVERT JUMPDEST POP PUSH2 0x783 PUSH2 0x19C1 JUMP JUMPDEST CALLVALUE DUP1 ISZERO PUSH2 0x89E JUMPI PUSH1 0x0 DUP1 REVERT JUMPDEST POP PUSH2 0x479 PUSH2 0x19D0 JUMP JUMPDEST CALLVALUE DUP1 ISZERO PUSH2 0x8B3 JUMPI PUSH1 0x0 DUP1 REVERT JUMPDEST POP PUSH2 0x783 PUSH2 0x19F4 JUMP JUMPDEST CALLVALUE DUP1 ISZERO PUSH2 0x8C8 JUMPI PUSH1 0x0 DUP1 REVERT JUMPDEST POP PUSH2 0x42E PUSH1 0x4 DUP1 CALLDATASIZE SUB PUSH1 0x20 DUP2 LT ISZERO PUSH2 0x8DF JUMPI PUSH1 0x0 DUP1 REVERT JUMPDEST POP CALLDATALOAD ISZERO ISZERO PUSH2 0x1A03 JUMP JUMPDEST CALLVALUE DUP1 ISZERO PUSH2 0x8F4 JUMPI PUSH1 0x0 DUP1 REVERT JUMPDEST POP PUSH2 0x529 PUSH2 0x1AB4 JUMP JUMPDEST CALLVALUE DUP1 ISZERO PUSH2 0x909 JUMPI PUSH1 0x0 DUP1 REVERT JUMPDEST POP PUSH2 0x783 PUSH1 0x4 DUP1 CALLDATASIZE SUB PUSH1 0x40 DUP2 LT ISZERO PUSH2 0x920 JUMPI PUSH1 0x0 DUP1 REVERT JUMPDEST POP DUP1 CALLDATALOAD SWAP1 PUSH1 0x20 ADD CALLDATALOAD PUSH2 0x1AC7 JUMP JUMPDEST CALLVALUE DUP1 ISZERO PUSH2 0x939 JUMPI PUSH1 0x0 DUP1 REVERT JUMPDEST POP PUSH2 0x75A PUSH1 0x4 DUP1 CALLDATASIZE SUB PUSH1 0x40 DUP2 LT ISZERO PUSH2 0x950 JUMPI PUSH1 0x0 DUP1 REVERT JUMPDEST POP DUP1 CALLDATALOAD SWAP1 PUSH1 0x20 ADD CALLDATALOAD PUSH1 0x1 PUSH1 0x1 PUSH1 0xA0 SHL SUB AND PUSH2 0x1AE8 JUMP JUMPDEST CALLVALUE DUP1 ISZERO PUSH2 0x972 JUMPI PUSH1 0x0 DUP1 REVERT JUMPDEST POP PUSH2 0x529 PUSH2 0x1B00 JUMP JUMPDEST CALLVALUE DUP1 ISZERO PUSH2 0x987 JUMPI PUSH1 0x0 DUP1 REVERT JUMPDEST POP PUSH2 0x75A PUSH2 0x1B0C JUMP JUMPDEST CALLVALUE DUP1 ISZERO PUSH2 0x99C JUMPI PUSH1 0x0 DUP1 REVERT JUMPDEST POP PUSH2 0x529 PUSH2 0x1B1C JUMP JUMPDEST CALLVALUE DUP1 ISZERO PUSH2 0x9B1 JUMPI PUSH1 0x0 DUP1 REVERT JUMPDEST POP PUSH2 0x479 PUSH2 0x1B2F JUMP JUMPDEST CALLVALUE DUP1 ISZERO PUSH2 0x9C6 JUMPI PUSH1 0x0 DUP1 REVERT JUMPDEST POP PUSH2 0x42E PUSH1 0x4 DUP1 CALLDATASIZE SUB PUSH1 0xA0 DUP2 LT ISZERO PUSH2 0x9DD JUMPI PUSH1 0x0 DUP1 REVERT JUMPDEST POP PUSH1 0x1 PUSH1 0x1 PUSH1 0xA0 SHL SUB DUP2 CALLDATALOAD AND SWAP1 PUSH1 0x20 DUP2 ADD CALLDATALOAD SWAP1 PUSH1 0x40 DUP2 ADD CALLDATALOAD SWAP1 PUSH1 0x60 DUP2 ADD CALLDATALOAD SWAP1 PUSH1 0x80 ADD CALLDATALOAD PUSH2 0x1B34 JUMP JUMPDEST CALLVALUE DUP1 ISZERO PUSH2 0xA11 JUMPI PUSH1 0x0 DUP1 REVERT JUMPDEST POP PUSH2 0x479 PUSH2 0x1C30 JUMP JUMPDEST CALLVALUE DUP1 ISZERO PUSH2 0xA26 JUMPI PUSH1 0x0 DUP1 REVERT JUMPDEST POP PUSH2 0x42E PUSH2 0x1C36 JUMP JUMPDEST CALLVALUE DUP1 ISZERO PUSH2 0xA3B JUMPI PUSH1 0x0 DUP1 REVERT JUMPDEST POP PUSH2 0x479 PUSH2 0x1D01 JUMP JUMPDEST CALLVALUE DUP1 ISZERO PUSH2 0xA50 JUMPI PUSH1 0x0 DUP1 REVERT JUMPDEST POP PUSH2 0x783 PUSH2 0x1EAF JUMP JUMPDEST CALLVALUE DUP1 ISZERO PUSH2 0xA65 JUMPI PUSH1 0x0 DUP1 REVERT JUMPDEST POP PUSH2 0x42E PUSH1 0x4 DUP1 CALLDATASIZE SUB PUSH1 0x20 DUP2 LT ISZERO PUSH2 0xA7C JUMPI PUSH1 0x0 DUP1 REVERT JUMPDEST POP CALLDATALOAD PUSH1 0x1 PUSH1 0x1 PUSH1 0xA0 SHL SUB AND PUSH2 0x1EC5 JUMP JUMPDEST CALLVALUE DUP1 ISZERO PUSH2 0xA98 JUMPI PUSH1 0x0 DUP1 REVERT JUMPDEST POP PUSH2 0x479 PUSH1 0x4 DUP1 CALLDATASIZE SUB PUSH1 0x20 DUP2 LT ISZERO PUSH2 0xAAF JUMPI PUSH1 0x0 DUP1 REVERT JUMPDEST POP CALLDATALOAD PUSH2 0x1F49 JUMP JUMPDEST CALLVALUE DUP1 ISZERO PUSH2 0xAC2 JUMPI PUSH1 0x0 DUP1 REVERT JUMPDEST POP PUSH2 0x42E PUSH1 0x4 DUP1 CALLDATASIZE SUB PUSH1 0x40 DUP2 LT ISZERO PUSH2 0xAD9 JUMPI PUSH1 0x0 DUP1 REVERT JUMPDEST POP DUP1 CALLDATALOAD SWAP1 PUSH1 0x20 ADD CALLDATALOAD PUSH1 0x1 PUSH1 0x1 PUSH1 0xA0 SHL SUB AND PUSH2 0x1F60 JUMP JUMPDEST CALLVALUE DUP1 ISZERO PUSH2 0xAFB JUMPI PUSH1 0x0 DUP1 REVERT JUMPDEST POP PUSH2 0x42E PUSH1 0x4 DUP1 CALLDATASIZE SUB PUSH1 0xA0 DUP2 LT ISZERO PUSH2 0xB12 JUMPI PUSH1 0x0 DUP1 REVERT JUMPDEST POP PUSH1 0x1 PUSH1 0x1 PUSH1 0xA0 SHL SUB DUP2 CALLDATALOAD DUP2 AND SWAP2 PUSH1 0x20 DUP2 ADD CALLDATALOAD DUP3 AND SWAP2 PUSH1 0x40 DUP3 ADD CALLDATALOAD ISZERO ISZERO SWAP2 PUSH1 0x60 DUP2 ADD CALLDATALOAD SWAP1 SWAP2 AND SWAP1 PUSH1 0x80 ADD CALLDATALOAD ISZERO ISZERO PUSH2 0x1FB9 JUMP JUMPDEST CALLVALUE DUP1 ISZERO PUSH2 0xB50 JUMPI PUSH1 0x0 DUP1 REVERT JUMPDEST POP PUSH2 0x529 PUSH2 0x240E JUMP JUMPDEST CALLVALUE DUP1 ISZERO PUSH2 0xB65 JUMPI PUSH1 0x0 DUP1 REVERT JUMPDEST POP PUSH2 0x42E PUSH1 0x4 DUP1 CALLDATASIZE SUB PUSH2 0x100 DUP2 LT ISZERO PUSH2 0xB7D JUMPI PUSH1 0x0 DUP1 REVERT JUMPDEST POP DUP1 CALLDATALOAD SWAP1 PUSH4 0xFFFFFFFF PUSH1 0x20 DUP3 ADD CALLDATALOAD DUP2 AND SWAP2 PUSH1 0x40 DUP2 ADD CALLDATALOAD DUP3 AND SWAP2 PUSH1 0x60 DUP3 ADD CALLDATALOAD DUP2 AND SWAP2 PUSH1 0x80 DUP2 ADD CALLDATALOAD DUP3 AND SWAP2 PUSH1 0xA0 DUP3 ADD CALLDATALOAD DUP2 AND SWAP2 PUSH1 0xC0 DUP2 ADD CALLDATALOAD DUP3 AND SWAP2 PUSH1 0xE0 SWAP1 SWAP2 ADD CALLDATALOAD AND PUSH2 0x2421 JUMP JUMPDEST CALLVALUE DUP1 ISZERO PUSH2 0xBCE JUMPI PUSH1 0x0 DUP1 REVERT JUMPDEST POP PUSH2 0x479 PUSH2 0x2694 JUMP JUMPDEST CALLVALUE DUP1 ISZERO PUSH2 0xBE3 JUMPI PUSH1 0x0 DUP1 REVERT JUMPDEST POP PUSH2 0x75A PUSH2 0x269E JUMP JUMPDEST CALLVALUE DUP1 ISZERO PUSH2 0xBF8 JUMPI PUSH1 0x0 DUP1 REVERT JUMPDEST POP PUSH2 0x42E PUSH1 0x4 DUP1 CALLDATASIZE SUB PUSH1 0x20 DUP2 LT ISZERO PUSH2 0xC0F JUMPI PUSH1 0x0 DUP1 REVERT JUMPDEST POP CALLDATALOAD PUSH1 0x1 PUSH1 0x1 PUSH1 0xA0 SHL SUB AND PUSH2 0x26AC JUMP JUMPDEST CALLVALUE DUP1 ISZERO PUSH2 0xC2B JUMPI PUSH1 0x0 DUP1 REVERT JUMPDEST POP PUSH2 0x42E PUSH1 0x4 DUP1 CALLDATASIZE SUB PUSH1 0x20 DUP2 LT ISZERO PUSH2 0xC42 JUMPI PUSH1 0x0 DUP1 REVERT JUMPDEST POP CALLDATALOAD PUSH1 0x1 PUSH1 0x1 PUSH1 0xA0 SHL SUB AND PUSH2 0x27AF JUMP JUMPDEST CALLVALUE DUP1 ISZERO PUSH2 0xC5E JUMPI PUSH1 0x0 DUP1 REVERT JUMPDEST POP PUSH2 0x479 PUSH2 0x2833 JUMP JUMPDEST CALLVALUE DUP1 ISZERO PUSH2 0xC73 JUMPI PUSH1 0x0 DUP1 REVERT JUMPDEST POP PUSH2 0x479 PUSH2 0x2839 JUMP JUMPDEST CALLVALUE DUP1 ISZERO PUSH2 0xC88 JUMPI PUSH1 0x0 DUP1 REVERT JUMPDEST POP PUSH2 0x42E PUSH1 0x4 DUP1 CALLDATASIZE SUB PUSH1 0x80 DUP2 LT ISZERO PUSH2 0xC9F JUMPI PUSH1 0x0 DUP1 REVERT JUMPDEST POP DUP1 CALLDATALOAD SWAP1 PUSH1 0x20 DUP2 ADD CALLDATALOAD SWAP1 PUSH1 0x40 DUP2 ADD CALLDATALOAD SWAP1 PUSH1 0x60 ADD CALLDATALOAD PUSH2 0x283F JUMP JUMPDEST PUSH5 0xE8D4A51000 DUP2 JUMP JUMPDEST PUSH1 0x97 SLOAD PUSH1 0xFF AND PUSH2 0xD06 JUMPI PUSH1 0x40 DUP1 MLOAD PUSH3 0x461BCD PUSH1 0xE5 SHL DUP2 MSTORE PUSH1 0x20 PUSH1 0x4 DUP3 ADD MSTORE PUSH1 0x14 PUSH1 0x24 DUP3 ADD MSTORE PUSH1 0x0 DUP1 MLOAD PUSH1 0x20 PUSH2 0x463B DUP4 CODECOPY DUP2 MLOAD SWAP2 MSTORE PUSH1 0x44 DUP3 ADD MSTORE SWAP1 MLOAD SWAP1 DUP2 SWAP1 SUB PUSH1 0x64 ADD SWAP1 REVERT JUMPDEST PUSH1 0x0 CALLVALUE GT PUSH2 0xD4F JUMPI PUSH1 0x40 DUP1 MLOAD PUSH3 0x461BCD PUSH1 0xE5 SHL DUP2 MSTORE PUSH1 0x20 PUSH1 0x4 DUP3 ADD MSTORE PUSH1 0x11 PUSH1 0x24 DUP3 ADD MSTORE PUSH17 0x2732B2B2103A37903830BC9022BA3432B9 PUSH1 0x79 SHL PUSH1 0x44 DUP3 ADD MSTORE SWAP1 MLOAD SWAP1 DUP2 SWAP1 SUB PUSH1 0x64 ADD SWAP1 REVERT JUMPDEST PUSH2 0xD60 PUSH1 0x0 CALLVALUE PUSH1 0x3 DUP7 CALLVALUE DUP8 DUP8 PUSH2 0x28D7 JUMP JUMPDEST POP POP POP JUMP JUMPDEST PUSH2 0xD6D PUSH2 0x2CAA JUMP JUMPDEST PUSH1 0x1 PUSH1 0x1 PUSH1 0xA0 SHL SUB AND PUSH2 0xD7E PUSH2 0x19F4 JUMP JUMPDEST PUSH1 0x1 PUSH1 0x1 PUSH1 0xA0 SHL SUB AND EQ PUSH2 0xDC7 JUMPI PUSH1 0x40 DUP1 MLOAD PUSH3 0x461BCD PUSH1 0xE5 SHL DUP2 MSTORE PUSH1 0x20 PUSH1 0x4 DUP3 ADD DUP2 SWAP1 MSTORE PUSH1 0x24 DUP3 ADD MSTORE PUSH1 0x0 DUP1 MLOAD PUSH1 0x20 PUSH2 0x4739 DUP4 CODECOPY DUP2 MLOAD SWAP2 MSTORE PUSH1 0x44 DUP3 ADD MSTORE SWAP1 MLOAD SWAP1 DUP2 SWAP1 SUB PUSH1 0x64 ADD SWAP1 REVERT JUMPDEST PUSH1 0x97 DUP1 SLOAD PUSH4 0xFF000000 NOT AND PUSH4 0x1000000 DUP5 ISZERO ISZERO DUP2 MUL SWAP2 SWAP1 SWAP2 OR PUSH5 0xFF00000000 NOT AND PUSH5 0x100000000 DUP5 ISZERO ISZERO DUP2 MUL SWAP2 SWAP1 SWAP2 OR SWAP3 DUP4 SWAP1 SSTORE PUSH1 0x40 MLOAD PUSH1 0xFF SWAP2 DUP5 DIV DUP3 AND ISZERO ISZERO SWAP4 SWAP3 SWAP1 SWAP3 DIV AND ISZERO ISZERO SWAP1 PUSH32 0x8E363288229795661DC4CD7765BB22AF3B1DDB395A07CD4894D365D6EBD5D671 SWAP1 PUSH1 0x0 SWAP1 LOG3 POP POP JUMP JUMPDEST PUSH1 0x0 PUSH2 0xE44 PUSH2 0x2CAE JUMP JUMPDEST SWAP1 POP SWAP1 JUMP JUMPDEST PUSH2 0x2710 DUP2 JUMP JUMPDEST PUSH2 0xE57 PUSH2 0x2CAA JUMP JUMPDEST PUSH1 0x1 PUSH1 0x1 PUSH1 0xA0 SHL SUB AND PUSH2 0xE68 PUSH2 0x19F4 JUMP JUMPDEST PUSH1 0x1 PUSH1 0x1 PUSH1 0xA0 SHL SUB AND EQ PUSH2 0xEB1 JUMPI PUSH1 0x40 DUP1 MLOAD PUSH3 0x461BCD PUSH1 0xE5 SHL DUP2 MSTORE PUSH1 0x20 PUSH1 0x4 DUP3 ADD DUP2 SWAP1 MSTORE PUSH1 0x24 DUP3 ADD MSTORE PUSH1 0x0 DUP1 MLOAD PUSH1 0x20 PUSH2 0x4739 DUP4 CODECOPY DUP2 MLOAD SWAP2 MSTORE PUSH1 0x44 DUP3 ADD MSTORE SWAP1 MLOAD SWAP1 DUP2 SWAP1 SUB PUSH1 0x64 ADD SWAP1 REVERT JUMPDEST PUSH1 0x1 PUSH1 0x1 PUSH1 0xA0 SHL SUB DUP2 AND PUSH1 0x0 SWAP1 DUP2 MSTORE PUSH1 0xA3 PUSH1 0x20 MSTORE PUSH1 0x40 SWAP1 KECCAK256 SLOAD PUSH1 0x1 PUSH1 0xA0 SHL SWAP1 DIV PUSH1 0xFF AND ISZERO PUSH2 0xF17 JUMPI PUSH1 0x40 DUP1 MLOAD PUSH3 0x461BCD PUSH1 0xE5 SHL DUP2 MSTORE PUSH1 0x20 PUSH1 0x4 DUP3 ADD MSTORE PUSH1 0xE PUSH1 0x24 DUP3 ADD MSTORE PUSH14 0x14DD1C985D1959DE481859191959 PUSH1 0x92 SHL PUSH1 0x44 DUP3 ADD MSTORE SWAP1 MLOAD SWAP1 DUP2 SWAP1 SUB PUSH1 0x64 ADD SWAP1 REVERT JUMPDEST PUSH1 0x1 PUSH1 0x1 PUSH1 0xA0 SHL SUB DUP1 DUP3 AND PUSH1 0x0 DUP2 DUP2 MSTORE PUSH1 0xA3 PUSH1 0x20 SWAP1 DUP2 MSTORE PUSH1 0x40 DUP1 DUP4 KECCAK256 DUP1 SLOAD PUSH1 0xFF PUSH1 0xA0 SHL NOT PUSH1 0x1 PUSH1 0x1 PUSH1 0xA0 SHL SUB NOT SWAP2 DUP3 AND DUP8 OR DUP2 AND PUSH1 0x1 PUSH1 0xA0 SHL SWAP1 DUP2 OR DUP5 SSTORE PUSH1 0xA5 DUP1 SLOAD PUSH1 0x1 DUP2 DUP2 ADD DUP4 SSTORE SWAP2 SWAP1 SWAP9 MSTORE DUP5 SLOAD PUSH32 0xB29A2B3B6F2FF1B765777A231725941DA5072CC4FCC30AC4A2CE09706E8DDEFF SWAP1 SWAP9 ADD DUP1 SLOAD SWAP1 SWAP5 AND SWAP8 SWAP1 SWAP10 AND SWAP7 SWAP1 SWAP7 OR DUP1 DUP4 SSTORE DUP4 SLOAD DUP8 SWAP1 DIV PUSH1 0xFF AND ISZERO ISZERO SWAP1 SWAP7 MUL SWAP6 AND SWAP5 SWAP1 SWAP5 OR SWAP1 SWAP4 SSTORE DUP1 MLOAD SWAP4 DUP5 MSTORE SWAP1 DUP4 ADD SWAP4 SWAP1 SWAP4 MSTORE DUP3 MLOAD SWAP1 SWAP3 PUSH32 0x835A6C4FC865A810F7943CFCA478CADA6BF307D7DBD75892A046AEE7EA3CC214 SWAP3 DUP3 SWAP1 SUB ADD SWAP1 LOG1 POP POP JUMP JUMPDEST PUSH1 0x0 SWAP1 DUP2 MSTORE PUSH1 0x65 PUSH1 0x20 MSTORE PUSH1 0x40 SWAP1 KECCAK256 PUSH1 0x2 ADD SLOAD SWAP1 JUMP JUMPDEST PUSH1 0xA1 SLOAD PUSH9 0x10000000000000000 SWAP1 DIV PUSH4 0xFFFFFFFF AND DUP2 JUMP JUMPDEST PUSH1 0x0 DUP3 DUP2 MSTORE PUSH1 0x65 PUSH1 0x20 MSTORE PUSH1 0x40 SWAP1 KECCAK256 PUSH1 0x2 ADD SLOAD PUSH2 0x103C SWAP1 PUSH2 0x1037 PUSH2 0x2CAA JUMP JUMPDEST PUSH2 0x1AE8 JUMP JUMPDEST PUSH2 0x1077 JUMPI PUSH1 0x40 MLOAD PUSH3 0x461BCD PUSH1 0xE5 SHL DUP2 MSTORE PUSH1 0x4 ADD DUP1 DUP1 PUSH1 0x20 ADD DUP3 DUP2 SUB DUP3 MSTORE PUSH1 0x2F DUP2 MSTORE PUSH1 0x20 ADD DUP1 PUSH2 0x4512 PUSH1 0x2F SWAP2 CODECOPY PUSH1 0x40 ADD SWAP2 POP POP PUSH1 0x40 MLOAD DUP1 SWAP2 SUB SWAP1 REVERT JUMPDEST PUSH2 0x1081 DUP3 DUP3 PUSH2 0x2D27 JUMP JUMPDEST POP POP JUMP JUMPDEST PUSH2 0x108D PUSH2 0x2CAA JUMP JUMPDEST PUSH1 0x1 PUSH1 0x1 PUSH1 0xA0 SHL SUB AND DUP2 PUSH1 0x1 PUSH1 0x1 PUSH1 0xA0 SHL SUB AND EQ PUSH2 0x10DC JUMPI PUSH1 0x40 MLOAD PUSH3 0x461BCD PUSH1 0xE5 SHL DUP2 MSTORE PUSH1 0x4 ADD DUP1 DUP1 PUSH1 0x20 ADD DUP3 DUP2 SUB DUP3 MSTORE PUSH1 0x2F DUP2 MSTORE PUSH1 0x20 ADD DUP1 PUSH2 0x47B1 PUSH1 0x2F SWAP2 CODECOPY PUSH1 0x40 ADD SWAP2 POP POP PUSH1 0x40 MLOAD DUP1 SWAP2 SUB SWAP1 REVERT JUMPDEST PUSH2 0x1081 DUP3 DUP3 PUSH2 0x2D90 JUMP JUMPDEST PUSH1 0xA1 SLOAD PUSH1 0x1 PUSH1 0x80 SHL SWAP1 DIV PUSH4 0xFFFFFFFF AND DUP2 JUMP JUMPDEST PUSH1 0x97 SLOAD PUSH1 0xFF AND PUSH2 0x113E JUMPI PUSH1 0x40 DUP1 MLOAD PUSH3 0x461BCD PUSH1 0xE5 SHL DUP2 MSTORE PUSH1 0x20 PUSH1 0x4 DUP3 ADD MSTORE PUSH1 0x14 PUSH1 0x24 DUP3 ADD MSTORE PUSH1 0x0 DUP1 MLOAD PUSH1 0x20 PUSH2 0x463B DUP4 CODECOPY DUP2 MLOAD SWAP2 MSTORE PUSH1 0x44 DUP3 ADD MSTORE SWAP1 MLOAD SWAP1 DUP2 SWAP1 SUB PUSH1 0x64 ADD SWAP1 REVERT JUMPDEST PUSH1 0x1 PUSH1 0x1 PUSH1 0xA0 SHL SUB DUP6 AND PUSH1 0x0 SWAP1 DUP2 MSTORE PUSH1 0xA2 PUSH1 0x20 MSTORE PUSH1 0x40 SWAP1 KECCAK256 SLOAD PUSH1 0x1 PUSH1 0xA0 SHL SWAP1 DIV PUSH1 0xFF AND PUSH2 0x11A9 JUMPI PUSH1 0x40 DUP1 MLOAD PUSH3 0x461BCD PUSH1 0xE5 SHL DUP2 MSTORE PUSH1 0x20 PUSH1 0x4 DUP3 ADD MSTORE PUSH1 0x14 PUSH1 0x24 DUP3 ADD MSTORE PUSH20 0x10DBDB1B185D195C985B081B9BDD081859191959 PUSH1 0x62 SHL PUSH1 0x44 DUP3 ADD MSTORE SWAP1 MLOAD SWAP1 DUP2 SWAP1 SUB PUSH1 0x64 ADD SWAP1 REVERT JUMPDEST PUSH1 0x0 DUP5 GT PUSH2 0x11E8 JUMPI PUSH1 0x40 MLOAD PUSH3 0x461BCD PUSH1 0xE5 SHL DUP2 MSTORE PUSH1 0x4 ADD DUP1 DUP1 PUSH1 0x20 ADD DUP3 DUP2 SUB DUP3 MSTORE PUSH1 0x21 DUP2 MSTORE PUSH1 0x20 ADD DUP1 PUSH2 0x45C7 PUSH1 0x21 SWAP2 CODECOPY PUSH1 0x40 ADD SWAP2 POP POP PUSH1 0x40 MLOAD DUP1 SWAP2 SUB SWAP1 REVERT JUMPDEST PUSH2 0x11F8 DUP6 DUP6 PUSH1 0x0 DUP8 DUP8 DUP8 DUP8 PUSH2 0x28D7 JUMP JUMPDEST POP POP POP POP POP JUMP JUMPDEST PUSH2 0x1207 PUSH2 0x2CAA JUMP JUMPDEST PUSH1 0x1 PUSH1 0x1 PUSH1 0xA0 SHL SUB AND PUSH2 0x1218 PUSH2 0x19F4 JUMP JUMPDEST PUSH1 0x1 PUSH1 0x1 PUSH1 0xA0 SHL SUB AND EQ PUSH2 0x1261 JUMPI PUSH1 0x40 DUP1 MLOAD PUSH3 0x461BCD PUSH1 0xE5 SHL DUP2 MSTORE PUSH1 0x20 PUSH1 0x4 DUP3 ADD DUP2 SWAP1 MSTORE PUSH1 0x24 DUP3 ADD MSTORE PUSH1 0x0 DUP1 MLOAD PUSH1 0x20 PUSH2 0x4739 DUP4 CODECOPY DUP2 MLOAD SWAP2 MSTORE PUSH1 0x44 DUP3 ADD MSTORE SWAP1 MLOAD SWAP1 DUP2 SWAP1 SUB PUSH1 0x64 ADD SWAP1 REVERT JUMPDEST PUSH1 0x97 DUP1 SLOAD PUSH1 0xFF NOT AND DUP3 ISZERO ISZERO OR SWAP1 DUP2 SWAP1 SSTORE PUSH1 0x40 MLOAD PUSH1 0xFF SWAP1 SWAP2 AND ISZERO ISZERO SWAP1 PUSH32 0x4AA2F044C925EC4AD9AC60A30B437E605BA4B7C4827D423BE239B10228DF4A4D SWAP1 PUSH1 0x0 SWAP1 LOG2 POP JUMP JUMPDEST PUSH1 0xA1 SLOAD PUSH5 0x100000000 SWAP1 DIV PUSH4 0xFFFFFFFF AND DUP2 JUMP JUMPDEST PUSH1 0x0 SLOAD PUSH2 0x100 SWAP1 DIV PUSH1 0xFF AND DUP1 PUSH2 0x12D2 JUMPI POP PUSH2 0x12D2 PUSH2 0x2DF9 JUMP JUMPDEST DUP1 PUSH2 0x12E0 JUMPI POP PUSH1 0x0 SLOAD PUSH1 0xFF AND ISZERO JUMPDEST PUSH2 0x131B JUMPI PUSH1 0x40 MLOAD PUSH3 0x461BCD PUSH1 0xE5 SHL DUP2 MSTORE PUSH1 0x4 ADD DUP1 DUP1 PUSH1 0x20 ADD DUP3 DUP2 SUB DUP3 MSTORE PUSH1 0x2E DUP2 MSTORE PUSH1 0x20 ADD DUP1 PUSH2 0x46B7 PUSH1 0x2E SWAP2 CODECOPY PUSH1 0x40 ADD SWAP2 POP POP PUSH1 0x40 MLOAD DUP1 SWAP2 SUB SWAP1 REVERT JUMPDEST PUSH1 0x0 SLOAD PUSH2 0x100 SWAP1 DIV PUSH1 0xFF AND ISZERO DUP1 ISZERO PUSH2 0x1346 JUMPI PUSH1 0x0 DUP1 SLOAD PUSH1 0xFF NOT PUSH2 0xFF00 NOT SWAP1 SWAP2 AND PUSH2 0x100 OR AND PUSH1 0x1 OR SWAP1 SSTORE JUMPDEST PUSH2 0x134E PUSH2 0x2E0A JUMP JUMPDEST PUSH1 0x97 DUP1 SLOAD PUSH1 0x1 PUSH1 0x1 PUSH1 0xA0 SHL SUB DUP6 DUP2 AND PUSH1 0x1 PUSH1 0x28 SHL MUL PUSH3 0xFF0100 PUSH1 0x1 PUSH1 0xC8 SHL SUB NOT PUSH1 0xFF NOT SWAP1 SWAP4 AND PUSH1 0x1 OR SWAP3 SWAP1 SWAP3 AND SWAP2 SWAP1 SWAP2 OR SWAP1 SWAP2 SSTORE PUSH1 0x9B DUP1 SLOAD SWAP2 DUP5 AND PUSH1 0x1 PUSH1 0x1 PUSH1 0xA0 SHL SUB NOT SWAP3 DUP4 AND OR SWAP1 SSTORE PUSH1 0x9A DUP1 SLOAD SWAP1 SWAP2 AND ADDRESS OR SWAP1 SSTORE NUMBER PUSH1 0x9C DUP2 SWAP1 SSTORE PUSH1 0x9F DUP1 SLOAD PUSH4 0xFFFFFFFF NOT AND PUSH2 0xC864 OR SWAP1 DUP2 SWAP1 SSTORE PUSH2 0x13DF SWAP2 PUSH2 0x13D3 SWAP2 PUSH4 0xFFFFFFFF SWAP1 DUP2 AND SWAP1 PUSH2 0x2EBC AND JUMP JUMPDEST PUSH5 0xDD30699C00 SWAP1 PUSH2 0x2F15 JUMP JUMPDEST PUSH1 0xA0 SSTORE PUSH1 0xA1 DUP1 SLOAD PUSH2 0x5F90 PUSH4 0xFFFFFFFF NOT SWAP1 SWAP2 AND OR PUSH8 0xFFFFFFFF00000000 NOT AND PUSH6 0x271000000000 OR PUSH12 0xFFFFFFFF0000000000000000 NOT AND PUSH9 0x450000000000000000 OR PUSH4 0xFFFFFFFF PUSH1 0x60 SHL NOT AND PUSH2 0x509 PUSH1 0x65 SHL OR PUSH4 0xFFFFFFFF PUSH1 0x80 SHL NOT AND PUSH2 0xAA3 PUSH1 0x81 SHL OR PUSH4 0xFFFFFFFF PUSH1 0xA0 SHL NOT AND PUSH1 0x35 PUSH1 0xA6 SHL OR PUSH4 0xFFFFFFFF PUSH1 0xC0 SHL NOT AND PUSH2 0x2D3 PUSH1 0xC1 SHL OR SWAP1 SSTORE PUSH2 0x1470 PUSH1 0x0 CALLER PUSH2 0x1077 JUMP JUMPDEST DUP1 ISZERO PUSH2 0xD60 JUMPI PUSH1 0x0 DUP1 SLOAD PUSH2 0xFF00 NOT AND SWAP1 SSTORE POP POP POP JUMP JUMPDEST PUSH1 0x97 SLOAD PUSH1 0xFF AND PUSH2 0x14CB JUMPI PUSH1 0x40 DUP1 MLOAD PUSH3 0x461BCD PUSH1 0xE5 SHL DUP2 MSTORE PUSH1 0x20 PUSH1 0x4 DUP3 ADD MSTORE PUSH1 0x14 PUSH1 0x24 DUP3 ADD MSTORE PUSH1 0x0 DUP1 MLOAD PUSH1 0x20 PUSH2 0x463B DUP4 CODECOPY DUP2 MLOAD SWAP2 MSTORE PUSH1 0x44 DUP3 ADD MSTORE SWAP1 MLOAD SWAP1 DUP2 SWAP1 SUB PUSH1 0x64 ADD SWAP1 REVERT JUMPDEST PUSH1 0x1 PUSH1 0x1 PUSH1 0xA0 SHL SUB DUP6 AND PUSH1 0x0 SWAP1 DUP2 MSTORE PUSH1 0xA2 PUSH1 0x20 MSTORE PUSH1 0x40 SWAP1 KECCAK256 SLOAD PUSH1 0x1 PUSH1 0xA0 SHL SWAP1 DIV PUSH1 0xFF AND PUSH2 0x1536 JUMPI PUSH1 0x40 DUP1 MLOAD PUSH3 0x461BCD PUSH1 0xE5 SHL DUP2 MSTORE PUSH1 0x20 PUSH1 0x4 DUP3 ADD MSTORE PUSH1 0x14 PUSH1 0x24 DUP3 ADD MSTORE PUSH20 0x10DBDB1B185D195C985B081B9BDD081859191959 PUSH1 0x62 SHL PUSH1 0x44 DUP3 ADD MSTORE SWAP1 MLOAD SWAP1 DUP2 SWAP1 SUB PUSH1 0x64 ADD SWAP1 REVERT JUMPDEST PUSH1 0x0 DUP5 GT PUSH2 0x1575 JUMPI PUSH1 0x40 MLOAD PUSH3 0x461BCD PUSH1 0xE5 SHL DUP2 MSTORE PUSH1 0x4 ADD DUP1 DUP1 PUSH1 0x20 ADD DUP3 DUP2 SUB DUP3 MSTORE PUSH1 0x21 DUP2 MSTORE PUSH1 0x20 ADD DUP1 PUSH2 0x45C7 PUSH1 0x21 SWAP2 CODECOPY PUSH1 0x40 ADD SWAP2 POP POP PUSH1 0x40 MLOAD DUP1 SWAP2 SUB SWAP1 REVERT JUMPDEST PUSH2 0x11F8 DUP6 DUP6 PUSH1 0x1 DUP7 DUP7 DUP10 DUP8 PUSH2 0x28D7 JUMP JUMPDEST PUSH1 0x9D SLOAD DUP2 JUMP JUMPDEST PUSH2 0x1593 PUSH2 0x2CAA JUMP JUMPDEST PUSH1 0x1 PUSH1 0x1 PUSH1 0xA0 SHL SUB AND PUSH2 0x15A4 PUSH2 0x19F4 JUMP JUMPDEST PUSH1 0x1 PUSH1 0x1 PUSH1 0xA0 SHL SUB AND EQ PUSH2 0x15ED JUMPI PUSH1 0x40 DUP1 MLOAD PUSH3 0x461BCD PUSH1 0xE5 SHL DUP2 MSTORE PUSH1 0x20 PUSH1 0x4 DUP3 ADD DUP2 SWAP1 MSTORE PUSH1 0x24 DUP3 ADD MSTORE PUSH1 0x0 DUP1 MLOAD PUSH1 0x20 PUSH2 0x4739 DUP4 CODECOPY DUP2 MLOAD SWAP2 MSTORE PUSH1 0x44 DUP3 ADD MSTORE SWAP1 MLOAD SWAP1 DUP2 SWAP1 SUB PUSH1 0x64 ADD SWAP1 REVERT JUMPDEST PUSH1 0x1 PUSH1 0x1 PUSH1 0xA0 SHL SUB DUP6 AND PUSH1 0x0 SWAP1 DUP2 MSTORE PUSH1 0xA2 PUSH1 0x20 MSTORE PUSH1 0x40 SWAP1 KECCAK256 SLOAD PUSH1 0x1 PUSH1 0xA0 SHL SWAP1 DIV PUSH1 0xFF AND PUSH2 0x1658 JUMPI PUSH1 0x40 DUP1 MLOAD PUSH3 0x461BCD PUSH1 0xE5 SHL DUP2 MSTORE PUSH1 0x20 PUSH1 0x4 DUP3 ADD MSTORE PUSH1 0x14 PUSH1 0x24 DUP3 ADD MSTORE PUSH20 0x10DBDB1B185D195C985B081B9BDD081859191959 PUSH1 0x62 SHL PUSH1 0x44 DUP3 ADD MSTORE SWAP1 MLOAD SWAP1 DUP2 SWAP1 SUB PUSH1 0x64 ADD SWAP1 REVERT JUMPDEST PUSH1 0x0 PUSH1 0xA2 PUSH1 0x0 DUP8 PUSH1 0x1 PUSH1 0x1 PUSH1 0xA0 SHL SUB AND PUSH1 0x1 PUSH1 0x1 PUSH1 0xA0 SHL SUB AND DUP2 MSTORE PUSH1 0x20 ADD SWAP1 DUP2 MSTORE PUSH1 0x20 ADD PUSH1 0x0 KECCAK256 SWAP1 POP DUP6 DUP2 PUSH1 0x0 ADD PUSH1 0x0 PUSH2 0x100 EXP DUP2 SLOAD DUP2 PUSH1 0x1 PUSH1 0x1 PUSH1 0xA0 SHL SUB MUL NOT AND SWAP1 DUP4 PUSH1 0x1 PUSH1 0x1 PUSH1 0xA0 SHL SUB AND MUL OR SWAP1 SSTORE POP DUP5 DUP2 PUSH1 0x1 ADD PUSH1 0x0 PUSH2 0x100 EXP DUP2 SLOAD DUP2 PUSH1 0x1 PUSH1 0x1 PUSH1 0xA0 SHL SUB MUL NOT AND SWAP1 DUP4 PUSH1 0x1 PUSH1 0x1 PUSH1 0xA0 SHL SUB AND MUL OR SWAP1 SSTORE POP DUP4 DUP2 PUSH1 0x1 ADD PUSH1 0x14 PUSH2 0x100 EXP DUP2 SLOAD DUP2 PUSH1 0xFF MUL NOT AND SWAP1 DUP4 ISZERO ISZERO MUL OR SWAP1 SSTORE POP DUP3 DUP2 PUSH1 0x2 ADD PUSH1 0x0 PUSH2 0x100 EXP DUP2 SLOAD DUP2 PUSH1 0x1 PUSH1 0x1 PUSH1 0xA0 SHL SUB MUL NOT AND SWAP1 DUP4 PUSH1 0x1 PUSH1 0x1 PUSH1 0xA0 SHL SUB AND MUL OR SWAP1 SSTORE POP DUP6 PUSH1 0x1 PUSH1 0x1 PUSH1 0xA0 SHL SUB AND PUSH32 0xDE3F06E95DAE99E79BE6E9DF3A782A93F61D2E886042BD75502377CD9453A921 DUP3 PUSH1 0x0 ADD PUSH1 0x14 SWAP1 SLOAD SWAP1 PUSH2 0x100 EXP SWAP1 DIV PUSH1 0xFF AND DUP8 DUP8 DUP8 DUP8 PUSH1 0x40 MLOAD DUP1 DUP7 ISZERO ISZERO DUP2 MSTORE PUSH1 0x20 ADD DUP6 PUSH1 0x1 PUSH1 0x1 PUSH1 0xA0 SHL SUB AND DUP2 MSTORE PUSH1 0x20 ADD DUP5 ISZERO ISZERO DUP2 MSTORE PUSH1 0x20 ADD DUP4 PUSH1 0x1 PUSH1 0x1 PUSH1 0xA0 SHL SUB AND DUP2 MSTORE PUSH1 0x20 ADD DUP3 ISZERO ISZERO DUP2 MSTORE PUSH1 0x20 ADD SWAP6 POP POP POP POP POP POP PUSH1 0x40 MLOAD DUP1 SWAP2 SUB SWAP1 LOG2 POP POP POP POP POP POP JUMP JUMPDEST PUSH1 0x97 SLOAD PUSH1 0xFF AND DUP2 JUMP JUMPDEST PUSH1 0x98 SLOAD PUSH1 0x1 PUSH1 0x1 PUSH1 0xA0 SHL SUB AND DUP2 JUMP JUMPDEST PUSH1 0x9A SLOAD PUSH1 0x1 PUSH1 0x1 PUSH1 0xA0 SHL SUB AND DUP2 JUMP JUMPDEST PUSH1 0x97 SLOAD PUSH1 0xFF AND PUSH2 0x1816 JUMPI PUSH1 0x40 DUP1 MLOAD PUSH3 0x461BCD PUSH1 0xE5 SHL DUP2 MSTORE PUSH1 0x20 PUSH1 0x4 DUP3 ADD MSTORE PUSH1 0x14 PUSH1 0x24 DUP3 ADD MSTORE PUSH1 0x0 DUP1 MLOAD PUSH1 0x20 PUSH2 0x463B DUP4 CODECOPY DUP2 MLOAD SWAP2 MSTORE PUSH1 0x44 DUP3 ADD MSTORE SWAP1 MLOAD SWAP1 DUP2 SWAP1 SUB PUSH1 0x64 ADD SWAP1 REVERT JUMPDEST PUSH1 0x1 PUSH1 0x1 PUSH1 0xA0 SHL SUB DUP6 AND PUSH1 0x0 SWAP1 DUP2 MSTORE PUSH1 0xA2 PUSH1 0x20 MSTORE PUSH1 0x40 SWAP1 KECCAK256 SLOAD PUSH1 0x1 PUSH1 0xA0 SHL SWAP1 DIV PUSH1 0xFF AND PUSH2 0x1881 JUMPI PUSH1 0x40 DUP1 MLOAD PUSH3 0x461BCD PUSH1 0xE5 SHL DUP2 MSTORE PUSH1 0x20 PUSH1 0x4 DUP3 ADD MSTORE PUSH1 0x14 PUSH1 0x24 DUP3 ADD MSTORE PUSH20 0x10DBDB1B185D195C985B081B9BDD081859191959 PUSH1 0x62 SHL PUSH1 0x44 DUP3 ADD MSTORE SWAP1 MLOAD SWAP1 DUP2 SWAP1 SUB PUSH1 0x64 ADD SWAP1 REVERT JUMPDEST PUSH1 0x0 DUP5 GT PUSH2 0x18C0 JUMPI PUSH1 0x40 MLOAD PUSH3 0x461BCD PUSH1 0xE5 SHL DUP2 MSTORE PUSH1 0x4 ADD DUP1 DUP1 PUSH1 0x20 ADD DUP3 DUP2 SUB DUP3 MSTORE PUSH1 0x21 DUP2 MSTORE PUSH1 0x20 ADD DUP1 PUSH2 0x45C7 PUSH1 0x21 SWAP2 CODECOPY PUSH1 0x40 ADD SWAP2 POP POP PUSH1 0x40 MLOAD DUP1 SWAP2 SUB SWAP1 REVERT JUMPDEST PUSH2 0x11F8 DUP6 DUP6 PUSH1 0x2 DUP7 DUP9 DUP8 DUP8 PUSH2 0x28D7 JUMP JUMPDEST PUSH1 0x97 SLOAD PUSH5 0x100000000 SWAP1 DIV PUSH1 0xFF AND DUP2 JUMP JUMPDEST PUSH2 0x18E9 PUSH2 0x2CAA JUMP JUMPDEST PUSH1 0x1 PUSH1 0x1 PUSH1 0xA0 SHL SUB AND PUSH2 0x18FA PUSH2 0x19F4 JUMP JUMPDEST PUSH1 0x1 PUSH1 0x1 PUSH1 0xA0 SHL SUB AND EQ PUSH2 0x1943 JUMPI PUSH1 0x40 DUP1 MLOAD PUSH3 0x461BCD PUSH1 0xE5 SHL DUP2 MSTORE PUSH1 0x20 PUSH1 0x4 DUP3 ADD DUP2 SWAP1 MSTORE PUSH1 0x24 DUP3 ADD MSTORE PUSH1 0x0 DUP1 MLOAD PUSH1 0x20 PUSH2 0x4739 DUP4 CODECOPY DUP2 MLOAD SWAP2 MSTORE PUSH1 0x44 DUP3 ADD MSTORE SWAP1 MLOAD SWAP1 DUP2 SWAP1 SUB PUSH1 0x64 ADD SWAP1 REVERT JUMPDEST PUSH1 0x33 SLOAD PUSH1 0x40 MLOAD PUSH1 0x0 SWAP2 PUSH1 0x1 PUSH1 0x1 PUSH1 0xA0 SHL SUB AND SWAP1 PUSH32 0x8BE0079C531659141344CD1FD0A4F28419497F9722A3DAAFE3B4186F6B6457E0 SWAP1 DUP4 SWAP1 LOG3 PUSH1 0x33 DUP1 SLOAD PUSH1 0x1 PUSH1 0x1 PUSH1 0xA0 SHL SUB NOT AND SWAP1 SSTORE JUMP JUMPDEST PUSH1 0x9F SLOAD PUSH4 0xFFFFFFFF AND DUP2 JUMP JUMPDEST PUSH1 0x97 SLOAD PUSH3 0x10000 SWAP1 DIV PUSH1 0xFF AND DUP2 JUMP JUMPDEST PUSH1 0x0 PUSH2 0xE44 PUSH2 0x2F6F JUMP JUMPDEST PUSH1 0x99 SLOAD PUSH1 0x1 PUSH1 0x1 PUSH1 0xA0 SHL SUB AND DUP2 JUMP JUMPDEST PUSH1 0x9B SLOAD PUSH1 0x1 PUSH1 0x1 PUSH1 0xA0 SHL SUB AND DUP2 JUMP JUMPDEST PUSH32 0x5FDE63B561377D1441AFA201FF619FAAC2FF8FED70A7FBDBE7A5CB07768C0B75 DUP2 JUMP JUMPDEST PUSH1 0x33 SLOAD PUSH1 0x1 PUSH1 0x1 PUSH1 0xA0 SHL SUB AND SWAP1 JUMP JUMPDEST PUSH2 0x1A0B PUSH2 0x2CAA JUMP JUMPDEST PUSH1 0x1 PUSH1 0x1 PUSH1 0xA0 SHL SUB AND PUSH2 0x1A1C PUSH2 0x19F4 JUMP JUMPDEST PUSH1 0x1 PUSH1 0x1 PUSH1 0xA0 SHL SUB AND EQ PUSH2 0x1A65 JUMPI PUSH1 0x40 DUP1 MLOAD PUSH3 0x461BCD PUSH1 0xE5 SHL DUP2 MSTORE PUSH1 0x20 PUSH1 0x4 DUP3 ADD DUP2 SWAP1 MSTORE PUSH1 0x24 DUP3 ADD MSTORE PUSH1 0x0 DUP1 MLOAD PUSH1 0x20 PUSH2 0x4739 DUP4 CODECOPY DUP2 MLOAD SWAP2 MSTORE PUSH1 0x44 DUP3 ADD MSTORE SWAP1 MLOAD SWAP1 DUP2 SWAP1 SUB PUSH1 0x64 ADD SWAP1 REVERT JUMPDEST PUSH1 0x97 DUP1 SLOAD PUSH2 0xFF00 NOT AND PUSH2 0x100 DUP4 ISZERO ISZERO DUP2 MUL SWAP2 SWAP1 SWAP2 OR SWAP2 DUP3 SWAP1 SSTORE PUSH1 0x40 MLOAD PUSH1 0xFF SWAP2 SWAP1 SWAP3 DIV AND ISZERO ISZERO SWAP1 PUSH32 0x7304ED846A7DA817E311F225ED0DF7C4B621C484DA0AB3E633BD5AD083F2C3AE SWAP1 PUSH1 0x0 SWAP1 LOG2 POP JUMP JUMPDEST PUSH1 0xA1 SLOAD PUSH1 0x1 PUSH1 0xC0 SHL SWAP1 DIV PUSH4 0xFFFFFFFF AND DUP2 JUMP JUMPDEST PUSH1 0x0 DUP3 DUP2 MSTORE PUSH1 0x65 PUSH1 0x20 MSTORE PUSH1 0x40 DUP2 KECCAK256 PUSH2 0x1ADF SWAP1 DUP4 PUSH2 0x3235 JUMP JUMPDEST SWAP1 POP JUMPDEST SWAP3 SWAP2 POP POP JUMP JUMPDEST PUSH1 0x0 DUP3 DUP2 MSTORE PUSH1 0x65 PUSH1 0x20 MSTORE PUSH1 0x40 DUP2 KECCAK256 PUSH2 0x1ADF SWAP1 DUP4 PUSH2 0x3241 JUMP JUMPDEST PUSH1 0xA1 SLOAD PUSH4 0xFFFFFFFF AND DUP2 JUMP JUMPDEST PUSH1 0x97 SLOAD PUSH4 0x1000000 SWAP1 DIV PUSH1 0xFF AND DUP2 JUMP JUMPDEST PUSH1 0xA1 SLOAD PUSH1 0x1 PUSH1 0xA0 SHL SWAP1 DIV PUSH4 0xFFFFFFFF AND DUP2 JUMP JUMPDEST PUSH1 0x0 DUP2 JUMP JUMPDEST PUSH1 0x97 SLOAD PUSH1 0xFF AND PUSH2 0x1B79 JUMPI PUSH1 0x40 DUP1 MLOAD PUSH3 0x461BCD PUSH1 0xE5 SHL DUP2 MSTORE PUSH1 0x20 PUSH1 0x4 DUP3 ADD MSTORE PUSH1 0x14 PUSH1 0x24 DUP3 ADD MSTORE PUSH1 0x0 DUP1 MLOAD PUSH1 0x20 PUSH2 0x463B DUP4 CODECOPY DUP2 MLOAD SWAP2 MSTORE PUSH1 0x44 DUP3 ADD MSTORE SWAP1 MLOAD SWAP1 DUP2 SWAP1 SUB PUSH1 0x64 ADD SWAP1 REVERT JUMPDEST PUSH1 0x1 PUSH1 0x1 PUSH1 0xA0 SHL SUB DUP6 AND PUSH1 0x0 SWAP1 DUP2 MSTORE PUSH1 0xA2 PUSH1 0x20 MSTORE PUSH1 0x40 SWAP1 KECCAK256 SLOAD PUSH1 0x1 PUSH1 0xA0 SHL SWAP1 DIV PUSH1 0xFF AND PUSH2 0x1BE4 JUMPI PUSH1 0x40 DUP1 MLOAD PUSH3 0x461BCD PUSH1 0xE5 SHL DUP2 MSTORE PUSH1 0x20 PUSH1 0x4 DUP3 ADD MSTORE PUSH1 0x14 PUSH1 0x24 DUP3 ADD MSTORE PUSH20 0x10DBDB1B185D195C985B081B9BDD081859191959 PUSH1 0x62 SHL PUSH1 0x44 DUP3 ADD MSTORE SWAP1 MLOAD SWAP1 DUP2 SWAP1 SUB PUSH1 0x64 ADD SWAP1 REVERT JUMPDEST PUSH1 0x0 DUP5 GT PUSH2 0x1C23 JUMPI PUSH1 0x40 MLOAD PUSH3 0x461BCD PUSH1 0xE5 SHL DUP2 MSTORE PUSH1 0x4 ADD DUP1 DUP1 PUSH1 0x20 ADD DUP3 DUP2 SUB DUP3 MSTORE PUSH1 0x21 DUP2 MSTORE PUSH1 0x20 ADD DUP1 PUSH2 0x45C7 PUSH1 0x21 SWAP2 CODECOPY PUSH1 0x40 ADD SWAP2 POP POP PUSH1 0x40 MLOAD DUP1 SWAP2 SUB SWAP1 REVERT JUMPDEST PUSH2 0x11F8 DUP6 DUP6 DUP6 DUP6 DUP6 PUSH2 0x3256 JUMP JUMPDEST PUSH1 0x9E SLOAD DUP2 JUMP JUMPDEST PUSH1 0x97 SLOAD PUSH3 0x10000 SWAP1 DIV PUSH1 0xFF AND PUSH2 0x1C83 JUMPI PUSH1 0x40 DUP1 MLOAD PUSH3 0x461BCD PUSH1 0xE5 SHL DUP2 MSTORE PUSH1 0x20 PUSH1 0x4 DUP3 ADD MSTORE PUSH1 0xD PUSH1 0x24 DUP3 ADD MSTORE PUSH13 0x149958985CD9481C185D5CD959 PUSH1 0x9A SHL PUSH1 0x44 DUP3 ADD MSTORE SWAP1 MLOAD SWAP1 DUP2 SWAP1 SUB PUSH1 0x64 ADD SWAP1 REVERT JUMPDEST PUSH2 0x1CAD PUSH32 0x5FDE63B561377D1441AFA201FF619FAAC2FF8FED70A7FBDBE7A5CB07768C0B75 CALLER PUSH2 0x1AE8 JUMP JUMPDEST PUSH2 0x1CF7 JUMPI PUSH1 0x40 DUP1 MLOAD PUSH3 0x461BCD PUSH1 0xE5 SHL DUP2 MSTORE PUSH1 0x20 PUSH1 0x4 DUP3 ADD MSTORE PUSH1 0x16 PUSH1 0x24 DUP3 ADD MSTORE PUSH22 0x21B0B63632B91034B9903737BA103090313AB93732B9 PUSH1 0x51 SHL PUSH1 0x44 DUP3 ADD MSTORE SWAP1 MLOAD SWAP1 DUP2 SWAP1 SUB PUSH1 0x64 ADD SWAP1 REVERT JUMPDEST PUSH2 0x1CFF PUSH2 0x3634 JUMP JUMPDEST JUMP JUMPDEST PUSH1 0x0 DUP1 PUSH2 0x1D0C PUSH2 0x39F0 JUMP JUMPDEST SWAP1 POP PUSH1 0x0 PUSH1 0x98 PUSH1 0x0 SWAP1 SLOAD SWAP1 PUSH2 0x100 EXP SWAP1 DIV PUSH1 0x1 PUSH1 0x1 PUSH1 0xA0 SHL SUB AND PUSH1 0x1 PUSH1 0x1 PUSH1 0xA0 SHL SUB AND PUSH4 0x18160DDD PUSH1 0x40 MLOAD DUP2 PUSH4 0xFFFFFFFF AND PUSH1 0xE0 SHL DUP2 MSTORE PUSH1 0x4 ADD PUSH1 0x20 PUSH1 0x40 MLOAD DUP1 DUP4 SUB DUP2 DUP7 DUP1 EXTCODESIZE ISZERO DUP1 ISZERO PUSH2 0x1D5E JUMPI PUSH1 0x0 DUP1 REVERT JUMPDEST POP GAS STATICCALL ISZERO DUP1 ISZERO PUSH2 0x1D72 JUMPI RETURNDATASIZE PUSH1 0x0 DUP1 RETURNDATACOPY RETURNDATASIZE PUSH1 0x0 REVERT JUMPDEST POP POP POP POP PUSH1 0x40 MLOAD RETURNDATASIZE PUSH1 0x20 DUP2 LT ISZERO PUSH2 0x1D88 JUMPI PUSH1 0x0 DUP1 REVERT JUMPDEST POP MLOAD PUSH1 0x99 SLOAD PUSH1 0x40 DUP1 MLOAD PUSH4 0x4219775 PUSH1 0xE1 SHL DUP2 MSTORE SWAP1 MLOAD SWAP3 SWAP4 POP PUSH1 0x0 SWAP3 PUSH1 0x1 PUSH1 0x1 PUSH1 0xA0 SHL SUB SWAP1 SWAP3 AND SWAP2 PUSH4 0x8432EEA SWAP2 PUSH1 0x4 DUP1 DUP3 ADD SWAP3 PUSH1 0x20 SWAP3 SWAP1 SWAP2 SWAP1 DUP3 SWAP1 SUB ADD DUP2 DUP7 DUP1 EXTCODESIZE ISZERO DUP1 ISZERO PUSH2 0x1DD5 JUMPI PUSH1 0x0 DUP1 REVERT JUMPDEST POP GAS STATICCALL ISZERO DUP1 ISZERO PUSH2 0x1DE9 JUMPI RETURNDATASIZE PUSH1 0x0 DUP1 RETURNDATACOPY RETURNDATASIZE PUSH1 0x0 REVERT JUMPDEST POP POP POP POP PUSH1 0x40 MLOAD RETURNDATASIZE PUSH1 0x20 DUP2 LT ISZERO PUSH2 0x1DFF JUMPI PUSH1 0x0 DUP1 REVERT JUMPDEST POP MLOAD PUSH1 0x99 SLOAD PUSH1 0x40 DUP1 MLOAD PUSH4 0x6F2A2B0F PUSH1 0xE0 SHL DUP2 MSTORE SWAP1 MLOAD SWAP3 SWAP4 POP PUSH1 0x0 SWAP3 PUSH1 0x1 PUSH1 0x1 PUSH1 0xA0 SHL SUB SWAP1 SWAP3 AND SWAP2 PUSH4 0x6F2A2B0F SWAP2 PUSH1 0x4 DUP1 DUP3 ADD SWAP3 PUSH1 0x20 SWAP3 SWAP1 SWAP2 SWAP1 DUP3 SWAP1 SUB ADD DUP2 DUP7 DUP1 EXTCODESIZE ISZERO DUP1 ISZERO PUSH2 0x1E4C JUMPI PUSH1 0x0 DUP1 REVERT JUMPDEST POP GAS STATICCALL ISZERO DUP1 ISZERO PUSH2 0x1E60 JUMPI RETURNDATASIZE PUSH1 0x0 DUP1 RETURNDATACOPY RETURNDATASIZE PUSH1 0x0 REVERT JUMPDEST POP POP POP POP PUSH1 0x40 MLOAD RETURNDATASIZE PUSH1 0x20 DUP2 LT ISZERO PUSH2 0x1E76 JUMPI PUSH1 0x0 DUP1 REVERT JUMPDEST POP MLOAD SWAP1 POP PUSH1 0x0 PUSH2 0x1E90 DUP3 PUSH2 0x1E8A DUP7 DUP7 PUSH2 0x2EBC JUMP JUMPDEST SWAP1 PUSH2 0x3A0B JUMP JUMPDEST SWAP1 POP PUSH2 0x1EA5 DUP2 PUSH2 0x1E8A DUP8 PUSH5 0xE8D4A51000 PUSH2 0x2EBC JUMP JUMPDEST SWAP6 POP POP POP POP POP POP SWAP1 JUMP JUMPDEST PUSH1 0x97 SLOAD PUSH1 0x1 PUSH1 0x28 SHL SWAP1 DIV PUSH1 0x1 PUSH1 0x1 PUSH1 0xA0 SHL SUB AND DUP2 JUMP JUMPDEST PUSH2 0x1ECD PUSH2 0x2CAA JUMP JUMPDEST PUSH1 0x1 PUSH1 0x1 PUSH1 0xA0 SHL SUB AND PUSH2 0x1EDE PUSH2 0x19F4 JUMP JUMPDEST PUSH1 0x1 PUSH1 0x1 PUSH1 0xA0 SHL SUB AND EQ PUSH2 0x1F27 JUMPI PUSH1 0x40 DUP1 MLOAD PUSH3 0x461BCD PUSH1 0xE5 SHL DUP2 MSTORE PUSH1 0x20 PUSH1 0x4 DUP3 ADD DUP2 SWAP1 MSTORE PUSH1 0x24 DUP3 ADD MSTORE PUSH1 0x0 DUP1 MLOAD PUSH1 0x20 PUSH2 0x4739 DUP4 CODECOPY DUP2 MLOAD SWAP2 MSTORE PUSH1 0x44 DUP3 ADD MSTORE SWAP1 MLOAD SWAP1 DUP2 SWAP1 SUB PUSH1 0x64 ADD SWAP1 REVERT JUMPDEST PUSH1 0x98 DUP1 SLOAD PUSH1 0x1 PUSH1 0x1 PUSH1 0xA0 SHL SUB NOT AND PUSH1 0x1 PUSH1 0x1 PUSH1 0xA0 SHL SUB SWAP3 SWAP1 SWAP3 AND SWAP2 SWAP1 SWAP2 OR SWAP1 SSTORE JUMP JUMPDEST PUSH1 0x0 DUP2 DUP2 MSTORE PUSH1 0x65 PUSH1 0x20 MSTORE PUSH1 0x40 DUP2 KECCAK256 PUSH2 0x1AE2 SWAP1 PUSH2 0x3A72 JUMP JUMPDEST PUSH1 0x0 DUP3 DUP2 MSTORE PUSH1 0x65 PUSH1 0x20 MSTORE PUSH1 0x40 SWAP1 KECCAK256 PUSH1 0x2 ADD SLOAD PUSH2 0x1F7E SWAP1 PUSH2 0x1037 PUSH2 0x2CAA JUMP JUMPDEST PUSH2 0x10DC JUMPI PUSH1 0x40 MLOAD PUSH3 0x461BCD PUSH1 0xE5 SHL DUP2 MSTORE PUSH1 0x4 ADD DUP1 DUP1 PUSH1 0x20 ADD DUP3 DUP2 SUB DUP3 MSTORE PUSH1 0x30 DUP2 MSTORE PUSH1 0x20 ADD DUP1 PUSH2 0x465B PUSH1 0x30 SWAP2 CODECOPY PUSH1 0x40 ADD SWAP2 POP POP PUSH1 0x40 MLOAD DUP1 SWAP2 SUB SWAP1 REVERT JUMPDEST PUSH2 0x1FC1 PUSH2 0x2CAA JUMP JUMPDEST PUSH1 0x1 PUSH1 0x1 PUSH1 0xA0 SHL SUB AND PUSH2 0x1FD2 PUSH2 0x19F4 JUMP JUMPDEST PUSH1 0x1 PUSH1 0x1 PUSH1 0xA0 SHL SUB AND EQ PUSH2 0x201B JUMPI PUSH1 0x40 DUP1 MLOAD PUSH3 0x461BCD PUSH1 0xE5 SHL DUP2 MSTORE PUSH1 0x20 PUSH1 0x4 DUP3 ADD DUP2 SWAP1 MSTORE PUSH1 0x24 DUP3 ADD MSTORE PUSH1 0x0 DUP1 MLOAD PUSH1 0x20 PUSH2 0x4739 DUP4 CODECOPY DUP2 MLOAD SWAP2 MSTORE PUSH1 0x44 DUP3 ADD MSTORE SWAP1 MLOAD SWAP1 DUP2 SWAP1 SUB PUSH1 0x64 ADD SWAP1 REVERT JUMPDEST PUSH1 0x1 PUSH1 0x1 PUSH1 0xA0 SHL SUB DUP6 AND PUSH1 0x0 SWAP1 DUP2 MSTORE PUSH1 0xA2 PUSH1 0x20 MSTORE PUSH1 0x40 SWAP1 KECCAK256 SLOAD PUSH1 0x1 PUSH1 0xA0 SHL SWAP1 DIV PUSH1 0xFF AND ISZERO PUSH2 0x2083 JUMPI PUSH1 0x40 DUP1 MLOAD PUSH3 0x461BCD PUSH1 0xE5 SHL DUP2 MSTORE PUSH1 0x20 PUSH1 0x4 DUP3 ADD MSTORE PUSH1 0x10 PUSH1 0x24 DUP3 ADD MSTORE PUSH16 0x10DBDB1B185D195C985B081859191959 PUSH1 0x82 SHL PUSH1 0x44 DUP3 ADD MSTORE SWAP1 MLOAD SWAP1 DUP2 SWAP1 SUB PUSH1 0x64 ADD SWAP1 REVERT JUMPDEST PUSH1 0x12 DUP6 PUSH1 0x1 PUSH1 0x1 PUSH1 0xA0 SHL SUB AND PUSH4 0x313CE567 PUSH1 0x40 MLOAD DUP2 PUSH4 0xFFFFFFFF AND PUSH1 0xE0 SHL DUP2 MSTORE PUSH1 0x4 ADD PUSH1 0x20 PUSH1 0x40 MLOAD DUP1 DUP4 SUB DUP2 DUP7 DUP1 EXTCODESIZE ISZERO DUP1 ISZERO PUSH2 0x20BE JUMPI PUSH1 0x0 DUP1 REVERT JUMPDEST POP GAS STATICCALL ISZERO DUP1 ISZERO PUSH2 0x20D2 JUMPI RETURNDATASIZE PUSH1 0x0 DUP1 RETURNDATACOPY RETURNDATASIZE PUSH1 0x0 REVERT JUMPDEST POP POP POP POP PUSH1 0x40 MLOAD RETURNDATASIZE PUSH1 0x20 DUP2 LT ISZERO PUSH2 0x20E8 JUMPI PUSH1 0x0 DUP1 REVERT JUMPDEST POP MLOAD PUSH1 0xFF AND GT ISZERO PUSH2 0x212A JUMPI PUSH1 0x40 MLOAD PUSH3 0x461BCD PUSH1 0xE5 SHL DUP2 MSTORE PUSH1 0x4 ADD DUP1 DUP1 PUSH1 0x20 ADD DUP3 DUP2 SUB DUP3 MSTORE PUSH1 0x2C DUP2 MSTORE PUSH1 0x20 ADD DUP1 PUSH2 0x468B PUSH1 0x2C SWAP2 CODECOPY PUSH1 0x40 ADD SWAP2 POP POP PUSH1 0x40 MLOAD DUP1 SWAP2 SUB SWAP1 REVERT JUMPDEST PUSH1 0x0 PUSH1 0xA2 PUSH1 0x0 DUP8 PUSH1 0x1 PUSH1 0x1 PUSH1 0xA0 SHL SUB AND PUSH1 0x1 PUSH1 0x1 PUSH1 0xA0 SHL SUB AND DUP2 MSTORE PUSH1 0x20 ADD SWAP1 DUP2 MSTORE PUSH1 0x20 ADD PUSH1 0x0 KECCAK256 SWAP1 POP DUP6 DUP2 PUSH1 0x0 ADD PUSH1 0x0 PUSH2 0x100 EXP DUP2 SLOAD DUP2 PUSH1 0x1 PUSH1 0x1 PUSH1 0xA0 SHL SUB MUL NOT AND SWAP1 DUP4 PUSH1 0x1 PUSH1 0x1 PUSH1 0xA0 SHL SUB AND MUL OR SWAP1 SSTORE POP PUSH1 0x1 DUP2 PUSH1 0x0 ADD PUSH1 0x14 PUSH2 0x100 EXP DUP2 SLOAD DUP2 PUSH1 0xFF MUL NOT AND SWAP1 DUP4 ISZERO ISZERO MUL OR SWAP1 SSTORE POP DUP5 DUP2 PUSH1 0x1 ADD PUSH1 0x0 PUSH2 0x100 EXP DUP2 SLOAD DUP2 PUSH1 0x1 PUSH1 0x1 PUSH1 0xA0 SHL SUB MUL NOT AND SWAP1 DUP4 PUSH1 0x1 PUSH1 0x1 PUSH1 0xA0 SHL SUB AND MUL OR SWAP1 SSTORE POP DUP4 DUP2 PUSH1 0x1 ADD PUSH1 0x14 PUSH2 0x100 EXP DUP2 SLOAD DUP2 PUSH1 0xFF MUL NOT AND SWAP1 DUP4 ISZERO ISZERO MUL OR SWAP1 SSTORE POP DUP3 DUP2 PUSH1 0x2 ADD PUSH1 0x0 PUSH2 0x100 EXP DUP2 SLOAD DUP2 PUSH1 0x1 PUSH1 0x1 PUSH1 0xA0 SHL SUB MUL NOT AND SWAP1 DUP4 PUSH1 0x1 PUSH1 0x1 PUSH1 0xA0 SHL SUB AND MUL OR SWAP1 SSTORE POP PUSH1 0xA4 DUP2 SWAP1 DUP1 PUSH1 0x1 DUP2 SLOAD ADD DUP1 DUP3 SSTORE DUP1 SWAP2 POP POP PUSH1 0x1 SWAP1 SUB SWAP1 PUSH1 0x0 MSTORE PUSH1 0x20 PUSH1 0x0 KECCAK256 SWAP1 PUSH1 0x3 MUL ADD PUSH1 0x0 SWAP1 SWAP2 SWAP1 SWAP2 SWAP1 SWAP2 POP PUSH1 0x0 DUP3 ADD PUSH1 0x0 SWAP1 SLOAD SWAP1 PUSH2 0x100 EXP SWAP1 DIV PUSH1 0x1 PUSH1 0x1 PUSH1 0xA0 SHL SUB AND DUP2 PUSH1 0x0 ADD PUSH1 0x0 PUSH2 0x100 EXP DUP2 SLOAD DUP2 PUSH1 0x1 PUSH1 0x1 PUSH1 0xA0 SHL SUB MUL NOT AND SWAP1 DUP4 PUSH1 0x1 PUSH1 0x1 PUSH1 0xA0 SHL SUB AND MUL OR SWAP1 SSTORE POP PUSH1 0x0 DUP3 ADD PUSH1 0x14 SWAP1 SLOAD SWAP1 PUSH2 0x100 EXP SWAP1 DIV PUSH1 0xFF AND DUP2 PUSH1 0x0 ADD PUSH1 0x14 PUSH2 0x100 EXP DUP2 SLOAD DUP2 PUSH1 0xFF MUL NOT AND SWAP1 DUP4 ISZERO ISZERO MUL OR SWAP1 SSTORE POP PUSH1 0x1 DUP3 ADD PUSH1 0x0 SWAP1 SLOAD SWAP1 PUSH2 0x100 EXP SWAP1 DIV PUSH1 0x1 PUSH1 0x1 PUSH1 0xA0 SHL SUB AND DUP2 PUSH1 0x1 ADD PUSH1 0x0 PUSH2 0x100 EXP DUP2 SLOAD DUP2 PUSH1 0x1 PUSH1 0x1 PUSH1 0xA0 SHL SUB MUL NOT AND SWAP1 DUP4 PUSH1 0x1 PUSH1 0x1 PUSH1 0xA0 SHL SUB AND MUL OR SWAP1 SSTORE POP PUSH1 0x1 DUP3 ADD PUSH1 0x14 SWAP1 SLOAD SWAP1 PUSH2 0x100 EXP SWAP1 DIV PUSH1 0xFF AND DUP2 PUSH1 0x1 ADD PUSH1 0x14 PUSH2 0x100 EXP DUP2 SLOAD DUP2 PUSH1 0xFF MUL NOT AND SWAP1 DUP4 ISZERO ISZERO MUL OR SWAP1 SSTORE POP PUSH1 0x2 DUP3 ADD PUSH1 0x0 SWAP1 SLOAD SWAP1 PUSH2 0x100 EXP SWAP1 DIV PUSH1 0x1 PUSH1 0x1 PUSH1 0xA0 SHL SUB AND DUP2 PUSH1 0x2 ADD PUSH1 0x0 PUSH2 0x100 EXP DUP2 SLOAD DUP2 PUSH1 0x1 PUSH1 0x1 PUSH1 0xA0 SHL SUB MUL NOT AND SWAP1 DUP4 PUSH1 0x1 PUSH1 0x1 PUSH1 0xA0 SHL SUB AND MUL OR SWAP1 SSTORE POP PUSH1 0x2 DUP3 ADD PUSH1 0x14 SWAP1 SLOAD SWAP1 PUSH2 0x100 EXP SWAP1 DIV PUSH1 0xFF AND DUP2 PUSH1 0x2 ADD PUSH1 0x14 PUSH2 0x100 EXP DUP2 SLOAD DUP2 PUSH1 0xFF MUL NOT AND SWAP1 DUP4 ISZERO ISZERO MUL OR SWAP1 SSTORE POP POP POP DUP6 PUSH1 0x1 PUSH1 0x1 PUSH1 0xA0 SHL SUB AND PUSH32 0xB1751A613CAFAAB1099EE086ED9F2EC7ADE8C547584F5F7D8ECC9547AE018160 DUP3 PUSH1 0x0 ADD PUSH1 0x14 SWAP1 SLOAD SWAP1 PUSH2 0x100 EXP SWAP1 DIV PUSH1 0xFF AND DUP8 DUP8 DUP8 DUP8 PUSH1 0x40 MLOAD DUP1 DUP7 ISZERO ISZERO DUP2 MSTORE PUSH1 0x20 ADD DUP6 PUSH1 0x1 PUSH1 0x1 PUSH1 0xA0 SHL SUB AND DUP2 MSTORE PUSH1 0x20 ADD DUP5 ISZERO ISZERO DUP2 MSTORE PUSH1 0x20 ADD DUP4 PUSH1 0x1 PUSH1 0x1 PUSH1 0xA0 SHL SUB AND DUP2 MSTORE PUSH1 0x20 ADD DUP3 ISZERO ISZERO DUP2 MSTORE PUSH1 0x20 ADD SWAP6 POP POP POP POP POP POP PUSH1 0x40 MLOAD DUP1 SWAP2 SUB SWAP1 LOG2 POP POP POP POP POP POP JUMP JUMPDEST PUSH1 0xA1 SLOAD PUSH1 0x1 PUSH1 0x60 SHL SWAP1 DIV PUSH4 0xFFFFFFFF AND DUP2 JUMP JUMPDEST PUSH2 0x2429 PUSH2 0x2CAA JUMP JUMPDEST PUSH1 0x1 PUSH1 0x1 PUSH1 0xA0 SHL SUB AND PUSH2 0x243A PUSH2 0x19F4 JUMP JUMPDEST PUSH1 0x1 PUSH1 0x1 PUSH1 0xA0 SHL SUB AND EQ PUSH2 0x2483 JUMPI PUSH1 0x40 DUP1 MLOAD PUSH3 0x461BCD PUSH1 0xE5 SHL DUP2 MSTORE PUSH1 0x20 PUSH1 0x4 DUP3 ADD DUP2 SWAP1 MSTORE PUSH1 0x24 DUP3 ADD MSTORE PUSH1 0x0 DUP1 MLOAD PUSH1 0x20 PUSH2 0x4739 DUP4 CODECOPY DUP2 MLOAD SWAP2 MSTORE PUSH1 0x44 DUP3 ADD MSTORE SWAP1 MLOAD SWAP1 DUP2 SWAP1 SUB PUSH1 0x64 ADD SWAP1 REVERT JUMPDEST DUP8 PUSH1 0xA0 DUP2 SWAP1 SSTORE POP DUP7 PUSH1 0xA1 PUSH1 0x0 PUSH2 0x100 EXP DUP2 SLOAD DUP2 PUSH4 0xFFFFFFFF MUL NOT AND SWAP1 DUP4 PUSH4 0xFFFFFFFF AND MUL OR SWAP1 SSTORE POP DUP6 PUSH1 0xA1 PUSH1 0x4 PUSH2 0x100 EXP DUP2 SLOAD DUP2 PUSH4 0xFFFFFFFF MUL NOT AND SWAP1 DUP4 PUSH4 0xFFFFFFFF AND MUL OR SWAP1 SSTORE POP DUP5 PUSH1 0xA1 PUSH1 0x8 PUSH2 0x100 EXP DUP2 SLOAD DUP2 PUSH4 0xFFFFFFFF MUL NOT AND SWAP1 DUP4 PUSH4 0xFFFFFFFF AND MUL OR SWAP1 SSTORE POP DUP4 PUSH1 0xA1 PUSH1 0xC PUSH2 0x100 EXP DUP2 SLOAD DUP2 PUSH4 0xFFFFFFFF MUL NOT AND SWAP1 DUP4 PUSH4 0xFFFFFFFF AND MUL OR SWAP1 SSTORE POP DUP3 PUSH1 0xA1 PUSH1 0x10 PUSH2 0x100 EXP DUP2 SLOAD DUP2 PUSH4 0xFFFFFFFF MUL NOT AND SWAP1 DUP4 PUSH4 0xFFFFFFFF AND MUL OR SWAP1 SSTORE POP DUP2 PUSH1 0xA1 PUSH1 0x14 PUSH2 0x100 EXP DUP2 SLOAD DUP2 PUSH4 0xFFFFFFFF MUL NOT AND SWAP1 DUP4 PUSH4 0xFFFFFFFF AND MUL OR SWAP1 SSTORE POP DUP1 PUSH1 0xA1 PUSH1 0x18 PUSH2 0x100 EXP DUP2 SLOAD DUP2 PUSH4 0xFFFFFFFF MUL NOT AND SWAP1 DUP4 PUSH4 0xFFFFFFFF AND MUL OR SWAP1 SSTORE POP PUSH32 0x3B5BA3CABA3D0E0D68C4CEEDD15CB7E47AE0E3ED3576725DB4652AED627A19A7 PUSH1 0xA0 SLOAD PUSH1 0xA1 PUSH1 0x0 SWAP1 SLOAD SWAP1 PUSH2 0x100 EXP SWAP1 DIV PUSH4 0xFFFFFFFF AND PUSH1 0xA1 PUSH1 0x4 SWAP1 SLOAD SWAP1 PUSH2 0x100 EXP SWAP1 DIV PUSH4 0xFFFFFFFF AND PUSH1 0xA1 PUSH1 0x8 SWAP1 SLOAD SWAP1 PUSH2 0x100 EXP SWAP1 DIV PUSH4 0xFFFFFFFF AND PUSH1 0xA1 PUSH1 0xC SWAP1 SLOAD SWAP1 PUSH2 0x100 EXP SWAP1 DIV PUSH4 0xFFFFFFFF AND PUSH1 0xA1 PUSH1 0x10 SWAP1 SLOAD SWAP1 PUSH2 0x100 EXP SWAP1 DIV PUSH4 0xFFFFFFFF AND PUSH1 0xA1 PUSH1 0x14 SWAP1 SLOAD SWAP1 PUSH2 0x100 EXP SWAP1 DIV PUSH4 0xFFFFFFFF AND PUSH1 0xA1 PUSH1 0x18 SWAP1 SLOAD SWAP1 PUSH2 0x100 EXP SWAP1 DIV PUSH4 0xFFFFFFFF AND PUSH1 0x40 MLOAD DUP1 DUP10 DUP2 MSTORE PUSH1 0x20 ADD DUP9 PUSH4 0xFFFFFFFF AND DUP2 MSTORE PUSH1 0x20 ADD DUP8 PUSH4 0xFFFFFFFF AND DUP2 MSTORE PUSH1 0x20 ADD DUP7 PUSH4 0xFFFFFFFF AND DUP2 MSTORE PUSH1 0x20 ADD DUP6 PUSH4 0xFFFFFFFF AND DUP2 MSTORE PUSH1 0x20 ADD DUP5 PUSH4 0xFFFFFFFF AND DUP2 MSTORE PUSH1 0x20 ADD DUP4 PUSH4 0xFFFFFFFF AND DUP2 MSTORE PUSH1 0x20 ADD DUP3 PUSH4 0xFFFFFFFF AND DUP2 MSTORE PUSH1 0x20 ADD SWAP9 POP POP POP POP POP POP POP POP POP PUSH1 0x40 MLOAD DUP1 SWAP2 SUB SWAP1 LOG1 POP POP POP POP POP POP POP POP JUMP JUMPDEST PUSH1 0x0 PUSH2 0xE44 PUSH2 0x39F0 JUMP JUMPDEST PUSH1 0x97 SLOAD PUSH2 0x100 SWAP1 DIV PUSH1 0xFF AND DUP2 JUMP JUMPDEST PUSH2 0x26B4 PUSH2 0x2CAA JUMP JUMPDEST PUSH1 0x1 PUSH1 0x1 PUSH1 0xA0 SHL SUB AND PUSH2 0x26C5 PUSH2 0x19F4 JUMP JUMPDEST PUSH1 0x1 PUSH1 0x1 PUSH1 0xA0 SHL SUB AND EQ PUSH2 0x270E JUMPI PUSH1 0x40 DUP1 MLOAD PUSH3 0x461BCD PUSH1 0xE5 SHL DUP2 MSTORE PUSH1 0x20 PUSH1 0x4 DUP3 ADD DUP2 SWAP1 MSTORE PUSH1 0x24 DUP3 ADD MSTORE PUSH1 0x0 DUP1 MLOAD PUSH1 0x20 PUSH2 0x4739 DUP4 CODECOPY DUP2 MLOAD SWAP2 MSTORE PUSH1 0x44 DUP3 ADD MSTORE SWAP1 MLOAD SWAP1 DUP2 SWAP1 SUB PUSH1 0x64 ADD SWAP1 REVERT JUMPDEST PUSH1 0x1 PUSH1 0x1 PUSH1 0xA0 SHL SUB DUP2 AND PUSH2 0x2753 JUMPI PUSH1 0x40 MLOAD PUSH3 0x461BCD PUSH1 0xE5 SHL DUP2 MSTORE PUSH1 0x4 ADD DUP1 DUP1 PUSH1 0x20 ADD DUP3 DUP2 SUB DUP3 MSTORE PUSH1 0x26 DUP2 MSTORE PUSH1 0x20 ADD DUP1 PUSH2 0x4541 PUSH1 0x26 SWAP2 CODECOPY PUSH1 0x40 ADD SWAP2 POP POP PUSH1 0x40 MLOAD DUP1 SWAP2 SUB SWAP1 REVERT JUMPDEST PUSH1 0x33 SLOAD PUSH1 0x40 MLOAD PUSH1 0x1 PUSH1 0x1 PUSH1 0xA0 SHL SUB DUP1 DUP5 AND SWAP3 AND SWAP1 PUSH32 0x8BE0079C531659141344CD1FD0A4F28419497F9722A3DAAFE3B4186F6B6457E0 SWAP1 PUSH1 0x0 SWAP1 LOG3 PUSH1 0x33 DUP1 SLOAD PUSH1 0x1 PUSH1 0x1 PUSH1 0xA0 SHL SUB NOT AND PUSH1 0x1 PUSH1 0x1 PUSH1 0xA0 SHL SUB SWAP3 SWAP1 SWAP3 AND SWAP2 SWAP1 SWAP2 OR SWAP1 SSTORE JUMP JUMPDEST PUSH2 0x27B7 PUSH2 0x2CAA JUMP JUMPDEST PUSH1 0x1 PUSH1 0x1 PUSH1 0xA0 SHL SUB AND PUSH2 0x27C8 PUSH2 0x19F4 JUMP JUMPDEST PUSH1 0x1 PUSH1 0x1 PUSH1 0xA0 SHL SUB AND EQ PUSH2 0x2811 JUMPI PUSH1 0x40 DUP1 MLOAD PUSH3 0x461BCD PUSH1 0xE5 SHL DUP2 MSTORE PUSH1 0x20 PUSH1 0x4 DUP3 ADD DUP2 SWAP1 MSTORE PUSH1 0x24 DUP3 ADD MSTORE PUSH1 0x0 DUP1 MLOAD PUSH1 0x20 PUSH2 0x4739 DUP4 CODECOPY DUP2 MLOAD SWAP2 MSTORE PUSH1 0x44 DUP3 ADD MSTORE SWAP1 MLOAD SWAP1 DUP2 SWAP1 SUB PUSH1 0x64 ADD SWAP1 REVERT JUMPDEST PUSH1 0x99 DUP1 SLOAD PUSH1 0x1 PUSH1 0x1 PUSH1 0xA0 SHL SUB NOT AND PUSH1 0x1 PUSH1 0x1 PUSH1 0xA0 SHL SUB SWAP3 SWAP1 SWAP3 AND SWAP2 SWAP1 SWAP2 OR SWAP1 SSTORE JUMP JUMPDEST PUSH1 0xA0 SLOAD DUP2 JUMP JUMPDEST PUSH1 0x9C SLOAD DUP2 JUMP JUMPDEST PUSH1 0x97 SLOAD PUSH1 0xFF AND PUSH2 0x2884 JUMPI PUSH1 0x40 DUP1 MLOAD PUSH3 0x461BCD PUSH1 0xE5 SHL DUP2 MSTORE PUSH1 0x20 PUSH1 0x4 DUP3 ADD MSTORE PUSH1 0x14 PUSH1 0x24 DUP3 ADD MSTORE PUSH1 0x0 DUP1 MLOAD PUSH1 0x20 PUSH2 0x463B DUP4 CODECOPY DUP2 MLOAD SWAP2 MSTORE PUSH1 0x44 DUP3 ADD MSTORE SWAP1 MLOAD SWAP1 DUP2 SWAP1 SUB PUSH1 0x64 ADD SWAP1 REVERT JUMPDEST PUSH1 0x0 DUP5 GT PUSH2 0x28C3 JUMPI PUSH1 0x40 MLOAD PUSH3 0x461BCD PUSH1 0xE5 SHL DUP2 MSTORE PUSH1 0x4 ADD DUP1 DUP1 PUSH1 0x20 ADD DUP3 DUP2 SUB DUP3 MSTORE PUSH1 0x21 DUP2 MSTORE PUSH1 0x20 ADD DUP1 PUSH2 0x45C7 PUSH1 0x21 SWAP2 CODECOPY PUSH1 0x40 ADD SWAP2 POP POP PUSH1 0x40 MLOAD DUP1 SWAP2 SUB SWAP1 REVERT JUMPDEST PUSH2 0x28D1 PUSH1 0x0 DUP6 DUP6 DUP6 DUP6 PUSH2 0x3256 JUMP JUMPDEST POP POP POP POP JUMP JUMPDEST PUSH1 0x97 SLOAD PUSH1 0xFF AND PUSH2 0x291C JUMPI PUSH1 0x40 DUP1 MLOAD PUSH3 0x461BCD PUSH1 0xE5 SHL DUP2 MSTORE PUSH1 0x20 PUSH1 0x4 DUP3 ADD MSTORE PUSH1 0x14 PUSH1 0x24 DUP3 ADD MSTORE PUSH1 0x0 DUP1 MLOAD PUSH1 0x20 PUSH2 0x463B DUP4 CODECOPY DUP2 MLOAD SWAP2 MSTORE PUSH1 0x44 DUP3 ADD MSTORE SWAP1 MLOAD SWAP1 DUP2 SWAP1 SUB PUSH1 0x64 ADD SWAP1 REVERT JUMPDEST PUSH1 0x40 DUP1 MLOAD PUSH4 0x63B09FDB PUSH1 0xE0 SHL DUP2 MSTORE PUSH1 0x1 PUSH1 0x1 PUSH1 0xA0 SHL SUB DUP10 AND PUSH1 0x4 DUP3 ADD MSTORE PUSH1 0x24 DUP2 ADD DUP9 SWAP1 MSTORE PUSH1 0xFF DUP8 AND PUSH1 0x44 DUP3 ADD MSTORE ADDRESS PUSH1 0x64 DUP3 ADD MSTORE SWAP1 MLOAD PUSH1 0x0 SWAP2 DUP3 SWAP2 DUP3 SWAP2 DUP3 SWAP2 PUSH20 0x0 SWAP2 PUSH4 0x63B09FDB SWAP2 PUSH1 0x84 DUP1 DUP4 ADD SWAP3 PUSH1 0x80 SWAP3 SWAP2 SWAP1 DUP3 SWAP1 SUB ADD DUP2 DUP7 DUP1 EXTCODESIZE ISZERO DUP1 ISZERO PUSH2 0x2995 JUMPI PUSH1 0x0 DUP1 REVERT JUMPDEST POP GAS DELEGATECALL ISZERO DUP1 ISZERO PUSH2 0x29A9 JUMPI RETURNDATASIZE PUSH1 0x0 DUP1 RETURNDATACOPY RETURNDATASIZE PUSH1 0x0 REVERT JUMPDEST POP POP POP POP PUSH1 0x40 MLOAD RETURNDATASIZE PUSH1 0x80 DUP2 LT ISZERO PUSH2 0x29BF JUMPI PUSH1 0x0 DUP1 REVERT JUMPDEST POP DUP1 MLOAD PUSH1 0x20 DUP3 ADD MLOAD PUSH1 0x40 DUP4 ADD MLOAD PUSH1 0x60 SWAP1 SWAP4 ADD MLOAD SWAP2 SWAP7 POP SWAP5 POP SWAP1 SWAP3 POP SWAP1 POP DUP8 DUP3 LT ISZERO PUSH2 0x2A1B JUMPI PUSH1 0x40 MLOAD PUSH3 0x461BCD PUSH1 0xE5 SHL DUP2 MSTORE PUSH1 0x4 ADD DUP1 DUP1 PUSH1 0x20 ADD DUP3 DUP2 SUB DUP3 MSTORE PUSH1 0x2E DUP2 MSTORE PUSH1 0x20 ADD DUP1 PUSH2 0x4759 PUSH1 0x2E SWAP2 CODECOPY PUSH1 0x40 ADD SWAP2 POP POP PUSH1 0x40 MLOAD DUP1 SWAP2 SUB SWAP1 REVERT JUMPDEST DUP7 DUP4 GT ISZERO PUSH2 0x2A5A JUMPI PUSH1 0x40 MLOAD PUSH3 0x461BCD PUSH1 0xE5 SHL DUP2 MSTORE PUSH1 0x4 ADD DUP1 DUP1 PUSH1 0x20 ADD DUP3 DUP2 SUB DUP3 MSTORE PUSH1 0x33 DUP2 MSTORE PUSH1 0x20 ADD DUP1 PUSH2 0x46E5 PUSH1 0x33 SWAP2 CODECOPY PUSH1 0x40 ADD SWAP2 POP POP PUSH1 0x40 MLOAD DUP1 SWAP2 SUB SWAP1 REVERT JUMPDEST DUP6 DUP5 GT ISZERO PUSH2 0x2A99 JUMPI PUSH1 0x40 MLOAD PUSH3 0x461BCD PUSH1 0xE5 SHL DUP2 MSTORE PUSH1 0x4 ADD DUP1 DUP1 PUSH1 0x20 ADD DUP3 DUP2 SUB DUP3 MSTORE PUSH1 0x2C DUP2 MSTORE PUSH1 0x20 ADD DUP1 PUSH2 0x459B PUSH1 0x2C SWAP2 CODECOPY PUSH1 0x40 ADD SWAP2 POP POP PUSH1 0x40 MLOAD DUP1 SWAP2 SUB SWAP1 REVERT JUMPDEST DUP5 TIMESTAMP GT ISZERO PUSH2 0x2AE1 JUMPI PUSH1 0x40 DUP1 MLOAD PUSH3 0x461BCD PUSH1 0xE5 SHL DUP2 MSTORE PUSH1 0x20 PUSH1 0x4 DUP3 ADD MSTORE PUSH1 0x10 PUSH1 0x24 DUP3 ADD MSTORE PUSH16 0x111958591B1A5B9948195E1C1A5C9959 PUSH1 0x82 SHL PUSH1 0x44 DUP3 ADD MSTORE SWAP1 MLOAD SWAP1 DUP2 SWAP1 SUB PUSH1 0x64 ADD SWAP1 REVERT JUMPDEST PUSH1 0x97 SLOAD PUSH1 0x40 DUP1 MLOAD PUSH4 0x79CC679 PUSH1 0xE4 SHL DUP2 MSTORE CALLER PUSH1 0x4 DUP3 ADD MSTORE PUSH1 0x24 DUP2 ADD DUP8 SWAP1 MSTORE SWAP1 MLOAD PUSH1 0x1 PUSH1 0x28 SHL SWAP1 SWAP3 DIV PUSH1 0x1 PUSH1 0x1 PUSH1 0xA0 SHL SUB AND SWAP2 PUSH4 0x79CC6790 SWAP2 PUSH1 0x44 DUP1 DUP3 ADD SWAP3 PUSH1 0x0 SWAP3 SWAP1 SWAP2 SWAP1 DUP3 SWAP1 SUB ADD DUP2 DUP4 DUP8 DUP1 EXTCODESIZE ISZERO DUP1 ISZERO PUSH2 0x2B3A JUMPI PUSH1 0x0 DUP1 REVERT JUMPDEST POP GAS CALL ISZERO DUP1 ISZERO PUSH2 0x2B4E JUMPI RETURNDATASIZE PUSH1 0x0 DUP1 RETURNDATACOPY RETURNDATASIZE PUSH1 0x0 REVERT JUMPDEST POP POP PUSH1 0x9E SLOAD PUSH2 0x2B60 SWAP3 POP SWAP1 POP DUP6 PUSH2 0x2F15 JUMP JUMPDEST PUSH1 0x9E SSTORE PUSH1 0x3 PUSH1 0xFF DUP11 AND EQ PUSH2 0x2B83 JUMPI PUSH2 0x2B83 PUSH1 0x1 PUSH1 0x1 PUSH1 0xA0 SHL SUB DUP13 AND CALLER ADDRESS DUP7 PUSH2 0x3A7D JUMP JUMPDEST PUSH1 0x98 SLOAD PUSH1 0x40 DUP1 MLOAD PUSH4 0x40C10F19 PUSH1 0xE0 SHL DUP2 MSTORE CALLER PUSH1 0x4 DUP3 ADD MSTORE PUSH1 0x24 DUP2 ADD DUP6 SWAP1 MSTORE SWAP1 MLOAD PUSH1 0x1 PUSH1 0x1 PUSH1 0xA0 SHL SUB SWAP1 SWAP3 AND SWAP2 PUSH4 0x40C10F19 SWAP2 PUSH1 0x44 DUP1 DUP3 ADD SWAP3 PUSH1 0x0 SWAP3 SWAP1 SWAP2 SWAP1 DUP3 SWAP1 SUB ADD DUP2 DUP4 DUP8 DUP1 EXTCODESIZE ISZERO DUP1 ISZERO PUSH2 0x2BD6 JUMPI PUSH1 0x0 DUP1 REVERT JUMPDEST POP GAS CALL ISZERO DUP1 ISZERO PUSH2 0x2BEA JUMPI RETURNDATASIZE PUSH1 0x0 DUP1 RETURNDATACOPY RETURNDATASIZE PUSH1 0x0 REVERT JUMPDEST POP POP PUSH1 0x98 SLOAD PUSH1 0x40 DUP1 MLOAD PUSH4 0x40C10F19 PUSH1 0xE0 SHL DUP2 MSTORE ADDRESS PUSH1 0x4 DUP3 ADD MSTORE PUSH1 0x24 DUP2 ADD DUP7 SWAP1 MSTORE SWAP1 MLOAD PUSH1 0x1 PUSH1 0x1 PUSH1 0xA0 SHL SUB SWAP1 SWAP3 AND SWAP4 POP PUSH4 0x40C10F19 SWAP3 POP PUSH1 0x44 DUP1 DUP3 ADD SWAP3 PUSH1 0x0 SWAP3 SWAP1 SWAP2 SWAP1 DUP3 SWAP1 SUB ADD DUP2 DUP4 DUP8 DUP1 EXTCODESIZE ISZERO DUP1 ISZERO PUSH2 0x2C41 JUMPI PUSH1 0x0 DUP1 REVERT JUMPDEST POP GAS CALL ISZERO DUP1 ISZERO PUSH2 0x2C55 JUMPI RETURNDATASIZE PUSH1 0x0 DUP1 RETURNDATACOPY RETURNDATASIZE PUSH1 0x0 REVERT JUMPDEST POP POP PUSH1 0x40 DUP1 MLOAD DUP7 DUP2 MSTORE PUSH1 0x20 DUP2 ADD DUP9 SWAP1 MSTORE DUP1 DUP3 ADD DUP6 SWAP1 MSTORE SWAP1 MLOAD DUP6 SWAP4 POP CALLER SWAP3 POP PUSH32 0x473211CA1F39DE50CBD3CC7E9F63F97251AFB1A528E8164F279BF67DAB4F952D SWAP2 DUP2 SWAP1 SUB PUSH1 0x60 ADD SWAP1 LOG3 POP POP POP POP POP POP POP POP POP POP POP JUMP JUMPDEST CALLER SWAP1 JUMP JUMPDEST PUSH1 0x0 DUP1 JUMPDEST PUSH1 0xA5 SLOAD DUP2 LT ISZERO PUSH2 0x2D23 JUMPI PUSH1 0xA5 DUP2 DUP2 SLOAD DUP2 LT PUSH2 0x2CC9 JUMPI INVALID JUMPDEST PUSH1 0x0 SWAP2 DUP3 MSTORE PUSH1 0x20 SWAP1 SWAP2 KECCAK256 ADD SLOAD PUSH1 0x1 PUSH1 0xA0 SHL SWAP1 DIV PUSH1 0xFF AND ISZERO PUSH2 0x2D1B JUMPI PUSH2 0x2D18 PUSH2 0x2D11 PUSH1 0xA5 DUP4 DUP2 SLOAD DUP2 LT PUSH2 0x2CF7 JUMPI INVALID JUMPDEST PUSH1 0x0 SWAP2 DUP3 MSTORE PUSH1 0x20 SWAP1 SWAP2 KECCAK256 ADD SLOAD PUSH1 0x1 PUSH1 0x1 PUSH1 0xA0 SHL SUB AND PUSH2 0x3AD7 JUMP JUMPDEST DUP4 SWAP1 PUSH2 0x2F15 JUMP JUMPDEST SWAP2 POP JUMPDEST PUSH1 0x1 ADD PUSH2 0x2CB2 JUMP JUMPDEST POP SWAP1 JUMP JUMPDEST PUSH1 0x0 DUP3 DUP2 MSTORE PUSH1 0x65 PUSH1 0x20 MSTORE PUSH1 0x40 SWAP1 KECCAK256 PUSH2 0x2D3F SWAP1 DUP3 PUSH2 0x3DE8 JUMP JUMPDEST ISZERO PUSH2 0x1081 JUMPI PUSH2 0x2D4C PUSH2 0x2CAA JUMP JUMPDEST PUSH1 0x1 PUSH1 0x1 PUSH1 0xA0 SHL SUB AND DUP2 PUSH1 0x1 PUSH1 0x1 PUSH1 0xA0 SHL SUB AND DUP4 PUSH32 0x2F8788117E7EFF1D82E926EC794901D17C78024A50270940304540A733656F0D PUSH1 0x40 MLOAD PUSH1 0x40 MLOAD DUP1 SWAP2 SUB SWAP1 LOG4 POP POP JUMP JUMPDEST PUSH1 0x0 DUP3 DUP2 MSTORE PUSH1 0x65 PUSH1 0x20 MSTORE PUSH1 0x40 SWAP1 KECCAK256 PUSH2 0x2DA8 SWAP1 DUP3 PUSH2 0x3DFD JUMP JUMPDEST ISZERO PUSH2 0x1081 JUMPI PUSH2 0x2DB5 PUSH2 0x2CAA JUMP JUMPDEST PUSH1 0x1 PUSH1 0x1 PUSH1 0xA0 SHL SUB AND DUP2 PUSH1 0x1 PUSH1 0x1 PUSH1 0xA0 SHL SUB AND DUP4 PUSH32 0xF6391F5C32D9C69D2A47EA670B442974B53935D1EDC7FD64EB21E047A839171B PUSH1 0x40 MLOAD PUSH1 0x40 MLOAD DUP1 SWAP2 SUB SWAP1 LOG4 POP POP JUMP JUMPDEST PUSH1 0x0 PUSH2 0x2E04 ADDRESS PUSH2 0x3E12 JUMP JUMPDEST ISZERO SWAP1 POP SWAP1 JUMP JUMPDEST PUSH1 0x0 SLOAD PUSH2 0x100 SWAP1 DIV PUSH1 0xFF AND DUP1 PUSH2 0x2E23 JUMPI POP PUSH2 0x2E23 PUSH2 0x2DF9 JUMP JUMPDEST DUP1 PUSH2 0x2E31 JUMPI POP PUSH1 0x0 SLOAD PUSH1 0xFF AND ISZERO JUMPDEST PUSH2 0x2E6C JUMPI PUSH1 0x40 MLOAD PUSH3 0x461BCD PUSH1 0xE5 SHL DUP2 MSTORE PUSH1 0x4 ADD DUP1 DUP1 PUSH1 0x20 ADD DUP3 DUP2 SUB DUP3 MSTORE PUSH1 0x2E DUP2 MSTORE PUSH1 0x20 ADD DUP1 PUSH2 0x46B7 PUSH1 0x2E SWAP2 CODECOPY PUSH1 0x40 ADD SWAP2 POP POP PUSH1 0x40 MLOAD DUP1 SWAP2 SUB SWAP1 REVERT JUMPDEST PUSH1 0x0 SLOAD PUSH2 0x100 SWAP1 DIV PUSH1 0xFF AND ISZERO DUP1 ISZERO PUSH2 0x2E97 JUMPI PUSH1 0x0 DUP1 SLOAD PUSH1 0xFF NOT PUSH2 0xFF00 NOT SWAP1 SWAP2 AND PUSH2 0x100 OR AND PUSH1 0x1 OR SWAP1 SSTORE JUMPDEST PUSH2 0x2E9F PUSH2 0x3E18 JUMP JUMPDEST PUSH2 0x2EA7 PUSH2 0x3EB8 JUMP JUMPDEST DUP1 ISZERO PUSH2 0x2EB9 JUMPI PUSH1 0x0 DUP1 SLOAD PUSH2 0xFF00 NOT AND SWAP1 SSTORE JUMPDEST POP JUMP JUMPDEST PUSH1 0x0 DUP3 PUSH2 0x2ECB JUMPI POP PUSH1 0x0 PUSH2 0x1AE2 JUMP JUMPDEST DUP3 DUP3 MUL DUP3 DUP5 DUP3 DUP2 PUSH2 0x2ED8 JUMPI INVALID JUMPDEST DIV EQ PUSH2 0x1ADF JUMPI PUSH1 0x40 MLOAD PUSH3 0x461BCD PUSH1 0xE5 SHL DUP2 MSTORE PUSH1 0x4 ADD DUP1 DUP1 PUSH1 0x20 ADD DUP3 DUP2 SUB DUP3 MSTORE PUSH1 0x21 DUP2 MSTORE PUSH1 0x20 ADD DUP1 PUSH2 0x4718 PUSH1 0x21 SWAP2 CODECOPY PUSH1 0x40 ADD SWAP2 POP POP PUSH1 0x40 MLOAD DUP1 SWAP2 SUB SWAP1 REVERT JUMPDEST PUSH1 0x0 DUP3 DUP3 ADD DUP4 DUP2 LT ISZERO PUSH2 0x1ADF JUMPI PUSH1 0x40 DUP1 MLOAD PUSH3 0x461BCD PUSH1 0xE5 SHL DUP2 MSTORE PUSH1 0x20 PUSH1 0x4 DUP3 ADD MSTORE PUSH1 0x1B PUSH1 0x24 DUP3 ADD MSTORE PUSH32 0x536166654D6174683A206164646974696F6E206F766572666C6F770000000000 PUSH1 0x44 DUP3 ADD MSTORE SWAP1 MLOAD SWAP1 DUP2 SWAP1 SUB PUSH1 0x64 ADD SWAP1 REVERT JUMPDEST PUSH1 0x0 DUP1 JUMPDEST PUSH1 0xA4 SLOAD DUP2 LT ISZERO PUSH2 0x2D23 JUMPI PUSH2 0x2F85 PUSH2 0x44BA JUMP JUMPDEST PUSH1 0xA4 DUP3 DUP2 SLOAD DUP2 LT PUSH2 0x2F92 JUMPI INVALID JUMPDEST PUSH1 0x0 SWAP2 DUP3 MSTORE PUSH1 0x20 DUP1 DUP4 KECCAK256 PUSH1 0x40 DUP1 MLOAD PUSH1 0xC0 DUP2 ADD DUP3 MSTORE PUSH1 0x3 SWAP1 SWAP5 MUL SWAP1 SWAP2 ADD DUP1 SLOAD PUSH1 0x1 PUSH1 0x1 PUSH1 0xA0 SHL SUB DUP1 DUP3 AND DUP1 DUP8 MSTORE PUSH1 0xFF PUSH1 0x1 PUSH1 0xA0 SHL SWAP4 DUP5 SWAP1 DIV DUP2 AND ISZERO ISZERO DUP9 DUP9 ADD MSTORE PUSH1 0x1 DUP6 ADD SLOAD DUP1 DUP5 AND DUP10 DUP9 ADD MSTORE DUP5 SWAP1 DIV DUP2 AND ISZERO ISZERO PUSH1 0x60 DUP10 ADD MSTORE PUSH1 0x2 SWAP1 SWAP5 ADD SLOAD DUP1 DUP4 AND PUSH1 0x80 DUP10 ADD MSTORE SWAP3 SWAP1 SWAP3 DIV SWAP1 SWAP3 AND ISZERO ISZERO PUSH1 0xA0 DUP7 ADD MSTORE PUSH1 0x99 SLOAD DUP4 MLOAD PUSH4 0x14690265 PUSH1 0xE2 SHL DUP2 MSTORE PUSH1 0x4 DUP2 ADD SWAP3 SWAP1 SWAP3 MSTORE SWAP3 MLOAD SWAP5 SWAP7 POP SWAP2 AND SWAP3 PUSH4 0x51A40994 SWAP3 PUSH1 0x24 DUP1 DUP5 ADD SWAP4 SWAP2 SWAP3 SWAP2 DUP3 SWAP1 SUB ADD DUP2 DUP7 DUP1 EXTCODESIZE ISZERO DUP1 ISZERO PUSH2 0x3047 JUMPI PUSH1 0x0 DUP1 REVERT JUMPDEST POP GAS STATICCALL ISZERO DUP1 ISZERO PUSH2 0x305B JUMPI RETURNDATASIZE PUSH1 0x0 DUP1 RETURNDATACOPY RETURNDATASIZE PUSH1 0x0 REVERT JUMPDEST POP POP POP POP PUSH1 0x40 MLOAD RETURNDATASIZE PUSH1 0x20 DUP2 LT ISZERO PUSH2 0x3071 JUMPI PUSH1 0x0 DUP1 REVERT JUMPDEST POP MLOAD PUSH1 0x99 SLOAD DUP4 MLOAD PUSH1 0x40 DUP1 MLOAD PUSH4 0x3F153279 PUSH1 0xE0 SHL DUP2 MSTORE PUSH1 0x1 PUSH1 0x1 PUSH1 0xA0 SHL SUB SWAP3 DUP4 AND PUSH1 0x4 DUP3 ADD MSTORE SWAP1 MLOAD SWAP4 SWAP5 POP PUSH1 0x0 SWAP4 SWAP2 SWAP1 SWAP3 AND SWAP2 PUSH4 0x3F153279 SWAP2 PUSH1 0x24 DUP1 DUP4 ADD SWAP3 PUSH1 0x20 SWAP3 SWAP2 SWAP1 DUP3 SWAP1 SUB ADD DUP2 DUP7 DUP1 EXTCODESIZE ISZERO DUP1 ISZERO PUSH2 0x30C8 JUMPI PUSH1 0x0 DUP1 REVERT JUMPDEST POP GAS STATICCALL ISZERO DUP1 ISZERO PUSH2 0x30DC JUMPI RETURNDATASIZE PUSH1 0x0 DUP1 RETURNDATACOPY RETURNDATASIZE PUSH1 0x0 REVERT JUMPDEST POP POP POP POP PUSH1 0x40 MLOAD RETURNDATASIZE PUSH1 0x20 DUP2 LT ISZERO PUSH2 0x30F2 JUMPI PUSH1 0x0 DUP1 REVERT JUMPDEST POP MLOAD DUP4 MLOAD PUSH1 0x40 DUP1 MLOAD PUSH4 0x313CE567 PUSH1 0xE0 SHL DUP2 MSTORE SWAP1 MLOAD SWAP3 SWAP4 POP PUSH1 0x0 SWAP3 PUSH1 0x1 PUSH1 0x1 PUSH1 0xA0 SHL SUB SWAP1 SWAP3 AND SWAP2 PUSH4 0x313CE567 SWAP2 PUSH1 0x4 DUP1 DUP3 ADD SWAP3 PUSH1 0x20 SWAP3 SWAP1 SWAP2 SWAP1 DUP3 SWAP1 SUB ADD DUP2 DUP7 DUP1 EXTCODESIZE ISZERO DUP1 ISZERO PUSH2 0x313E JUMPI PUSH1 0x0 DUP1 REVERT JUMPDEST POP GAS STATICCALL ISZERO DUP1 ISZERO PUSH2 0x3152 JUMPI RETURNDATASIZE PUSH1 0x0 DUP1 RETURNDATACOPY RETURNDATASIZE PUSH1 0x0 REVERT JUMPDEST POP POP POP POP PUSH1 0x40 MLOAD RETURNDATASIZE PUSH1 0x20 DUP2 LT ISZERO PUSH2 0x3168 JUMPI PUSH1 0x0 DUP1 REVERT JUMPDEST POP MLOAD DUP5 MLOAD PUSH1 0x40 DUP1 MLOAD PUSH4 0x70A08231 PUSH1 0xE0 SHL DUP2 MSTORE ADDRESS PUSH1 0x4 DUP3 ADD MSTORE SWAP1 MLOAD PUSH1 0xFF SWAP1 SWAP4 AND SWAP4 POP PUSH1 0x0 SWAP3 PUSH2 0x31F9 SWAP3 DUP7 SWAP3 PUSH2 0x1E8A SWAP3 DUP10 SWAP3 PUSH1 0x1 PUSH1 0x1 PUSH1 0xA0 SHL SUB AND SWAP2 PUSH4 0x70A08231 SWAP2 PUSH1 0x24 DUP1 DUP4 ADD SWAP3 PUSH1 0x20 SWAP3 SWAP2 SWAP1 DUP3 SWAP1 SUB ADD DUP2 DUP7 DUP1 EXTCODESIZE ISZERO DUP1 ISZERO PUSH2 0x31C7 JUMPI PUSH1 0x0 DUP1 REVERT JUMPDEST POP GAS STATICCALL ISZERO DUP1 ISZERO PUSH2 0x31DB JUMPI RETURNDATASIZE PUSH1 0x0 DUP1 RETURNDATACOPY RETURNDATASIZE PUSH1 0x0 REVERT JUMPDEST POP POP POP POP PUSH1 0x40 MLOAD RETURNDATASIZE PUSH1 0x20 DUP2 LT ISZERO PUSH2 0x31F1 JUMPI PUSH1 0x0 DUP1 REVERT JUMPDEST POP MLOAD SWAP1 PUSH2 0x2EBC JUMP JUMPDEST SWAP1 POP PUSH1 0x0 PUSH2 0x3215 PUSH2 0x320B PUSH1 0x12 DUP6 PUSH2 0x3FB1 JUMP JUMPDEST DUP4 SWAP1 PUSH1 0xA EXP PUSH2 0x2EBC JUMP JUMPDEST SWAP1 POP PUSH2 0x3221 DUP9 DUP3 PUSH2 0x2F15 JUMP JUMPDEST SWAP8 POP POP PUSH1 0x1 SWAP1 SWAP6 ADD SWAP5 POP PUSH2 0x2F73 SWAP4 POP POP POP POP JUMP JUMPDEST PUSH1 0x0 PUSH2 0x1ADF DUP4 DUP4 PUSH2 0x400E JUMP JUMPDEST PUSH1 0x0 PUSH2 0x1ADF DUP4 PUSH1 0x1 PUSH1 0x1 PUSH1 0xA0 SHL SUB DUP5 AND PUSH2 0x4072 JUMP JUMPDEST PUSH1 0x97 SLOAD PUSH1 0xFF AND PUSH2 0x329B JUMPI PUSH1 0x40 DUP1 MLOAD PUSH3 0x461BCD PUSH1 0xE5 SHL DUP2 MSTORE PUSH1 0x20 PUSH1 0x4 DUP3 ADD MSTORE PUSH1 0x14 PUSH1 0x24 DUP3 ADD MSTORE PUSH1 0x0 DUP1 MLOAD PUSH1 0x20 PUSH2 0x463B DUP4 CODECOPY DUP2 MLOAD SWAP2 MSTORE PUSH1 0x44 DUP3 ADD MSTORE SWAP1 MLOAD SWAP1 DUP2 SWAP1 SUB PUSH1 0x64 ADD SWAP1 REVERT JUMPDEST PUSH1 0x99 SLOAD PUSH1 0x40 DUP1 MLOAD PUSH4 0x7A9ACAD3 PUSH1 0xE1 SHL DUP2 MSTORE PUSH1 0x1 PUSH1 0x1 PUSH1 0xA0 SHL SUB DUP1 DUP10 AND PUSH1 0x4 DUP4 ADD MSTORE PUSH1 0x24 DUP3 ADD DUP9 SWAP1 MSTORE ADDRESS PUSH1 0x44 DUP4 ADD MSTORE SWAP1 SWAP3 AND PUSH1 0x64 DUP4 ADD MSTORE MLOAD PUSH1 0x0 SWAP2 DUP3 SWAP2 DUP3 SWAP2 DUP3 SWAP2 PUSH20 0x0 SWAP2 PUSH4 0xF53595A6 SWAP2 PUSH1 0x84 DUP1 DUP4 ADD SWAP3 PUSH1 0x80 SWAP3 SWAP2 SWAP1 DUP3 SWAP1 SUB ADD DUP2 DUP7 DUP1 EXTCODESIZE ISZERO DUP1 ISZERO PUSH2 0x3316 JUMPI PUSH1 0x0 DUP1 REVERT JUMPDEST POP GAS DELEGATECALL ISZERO DUP1 ISZERO PUSH2 0x332A JUMPI RETURNDATASIZE PUSH1 0x0 DUP1 RETURNDATACOPY RETURNDATASIZE PUSH1 0x0 REVERT JUMPDEST POP POP POP POP PUSH1 0x40 MLOAD RETURNDATASIZE PUSH1 0x80 DUP2 LT ISZERO PUSH2 0x3340 JUMPI PUSH1 0x0 DUP1 REVERT JUMPDEST POP DUP1 MLOAD PUSH1 0x20 DUP3 ADD MLOAD PUSH1 0x40 DUP4 ADD MLOAD PUSH1 0x60 SWAP1 SWAP4 ADD MLOAD SWAP2 SWAP7 POP SWAP5 POP SWAP1 SWAP3 POP SWAP1 POP DUP7 DUP4 LT ISZERO PUSH2 0x339C JUMPI PUSH1 0x40 MLOAD PUSH3 0x461BCD PUSH1 0xE5 SHL DUP2 MSTORE PUSH1 0x4 ADD DUP1 DUP1 PUSH1 0x20 ADD DUP3 DUP2 SUB DUP3 MSTORE PUSH1 0x34 DUP2 MSTORE PUSH1 0x20 ADD DUP1 PUSH2 0x4567 PUSH1 0x34 SWAP2 CODECOPY PUSH1 0x40 ADD SWAP2 POP POP PUSH1 0x40 MLOAD DUP1 SWAP2 SUB SWAP1 REVERT JUMPDEST DUP6 DUP5 LT ISZERO PUSH2 0x33DB JUMPI PUSH1 0x40 MLOAD PUSH3 0x461BCD PUSH1 0xE5 SHL DUP2 MSTORE PUSH1 0x4 ADD DUP1 DUP1 PUSH1 0x20 ADD DUP3 DUP2 SUB DUP3 MSTORE PUSH1 0x2D DUP2 MSTORE PUSH1 0x20 ADD DUP1 PUSH2 0x460E PUSH1 0x2D SWAP2 CODECOPY PUSH1 0x40 ADD SWAP2 POP POP PUSH1 0x40 MLOAD DUP1 SWAP2 SUB SWAP1 REVERT JUMPDEST DUP5 TIMESTAMP GT ISZERO PUSH2 0x3423 JUMPI PUSH1 0x40 DUP1 MLOAD PUSH3 0x461BCD PUSH1 0xE5 SHL DUP2 MSTORE PUSH1 0x20 PUSH1 0x4 DUP3 ADD MSTORE PUSH1 0x10 PUSH1 0x24 DUP3 ADD MSTORE PUSH16 0x111958591B1A5B9948195E1C1A5C9959 PUSH1 0x82 SHL PUSH1 0x44 DUP3 ADD MSTORE SWAP1 MLOAD SWAP1 DUP2 SWAP1 SUB PUSH1 0x64 ADD SWAP1 REVERT JUMPDEST PUSH1 0x97 SLOAD PUSH1 0x40 DUP1 MLOAD PUSH4 0xEDB561C3 PUSH1 0xE0 SHL DUP2 MSTORE CALLER PUSH1 0x4 DUP3 ADD MSTORE PUSH1 0x24 DUP2 ADD DUP8 SWAP1 MSTORE SWAP1 MLOAD PUSH1 0x1 PUSH1 0x28 SHL SWAP1 SWAP3 DIV PUSH1 0x1 PUSH1 0x1 PUSH1 0xA0 SHL SUB AND SWAP2 PUSH4 0xEDB561C3 SWAP2 PUSH1 0x44 DUP1 DUP3 ADD SWAP3 PUSH1 0x0 SWAP3 SWAP1 SWAP2 SWAP1 DUP3 SWAP1 SUB ADD DUP2 DUP4 DUP8 DUP1 EXTCODESIZE ISZERO DUP1 ISZERO PUSH2 0x347C JUMPI PUSH1 0x0 DUP1 REVERT JUMPDEST POP GAS CALL ISZERO DUP1 ISZERO PUSH2 0x3490 JUMPI RETURNDATASIZE PUSH1 0x0 DUP1 RETURNDATACOPY RETURNDATASIZE PUSH1 0x0 REVERT JUMPDEST POP POP PUSH1 0x9D SLOAD PUSH2 0x34A2 SWAP3 POP SWAP1 POP DUP6 PUSH2 0x2F15 JUMP JUMPDEST PUSH1 0x9D SSTORE PUSH1 0x1 PUSH1 0x1 PUSH1 0xA0 SHL SUB DUP10 AND PUSH2 0x354D JUMPI PUSH1 0x40 MLOAD PUSH1 0x0 SWAP1 CALLER SWAP1 DUP6 SWAP1 DUP4 DUP2 DUP2 DUP2 DUP6 DUP8 GAS CALL SWAP3 POP POP POP RETURNDATASIZE DUP1 PUSH1 0x0 DUP2 EQ PUSH2 0x34F5 JUMPI PUSH1 0x40 MLOAD SWAP2 POP PUSH1 0x1F NOT PUSH1 0x3F RETURNDATASIZE ADD AND DUP3 ADD PUSH1 0x40 MSTORE RETURNDATASIZE DUP3 MSTORE RETURNDATASIZE PUSH1 0x0 PUSH1 0x20 DUP5 ADD RETURNDATACOPY PUSH2 0x34FA JUMP JUMPDEST PUSH1 0x60 SWAP2 POP JUMPDEST POP POP SWAP1 POP DUP1 PUSH2 0x3547 JUMPI PUSH1 0x40 DUP1 MLOAD PUSH3 0x461BCD PUSH1 0xE5 SHL DUP2 MSTORE PUSH1 0x20 PUSH1 0x4 DUP3 ADD MSTORE PUSH1 0x14 PUSH1 0x24 DUP3 ADD MSTORE PUSH20 0x2330B4B632B2103A379039B2B7321022BA3432B9 PUSH1 0x61 SHL PUSH1 0x44 DUP3 ADD MSTORE SWAP1 MLOAD SWAP1 DUP2 SWAP1 SUB PUSH1 0x64 ADD SWAP1 REVERT JUMPDEST POP PUSH2 0x3561 JUMP JUMPDEST PUSH2 0x3561 PUSH1 0x1 PUSH1 0x1 PUSH1 0xA0 SHL SUB DUP11 AND CALLER DUP6 PUSH2 0x408A JUMP JUMPDEST PUSH1 0x98 SLOAD PUSH1 0x40 DUP1 MLOAD PUSH4 0x2770A7EB PUSH1 0xE2 SHL DUP2 MSTORE CALLER PUSH1 0x4 DUP3 ADD MSTORE PUSH1 0x24 DUP2 ADD DUP6 SWAP1 MSTORE SWAP1 MLOAD PUSH1 0x1 PUSH1 0x1 PUSH1 0xA0 SHL SUB SWAP1 SWAP3 AND SWAP2 PUSH4 0x9DC29FAC SWAP2 PUSH1 0x44 DUP1 DUP3 ADD SWAP3 PUSH1 0x0 SWAP3 SWAP1 SWAP2 SWAP1 DUP3 SWAP1 SUB ADD DUP2 DUP4 DUP8 DUP1 EXTCODESIZE ISZERO DUP1 ISZERO PUSH2 0x35B4 JUMPI PUSH1 0x0 DUP1 REVERT JUMPDEST POP GAS CALL ISZERO DUP1 ISZERO PUSH2 0x35C8 JUMPI RETURNDATASIZE PUSH1 0x0 DUP1 RETURNDATACOPY RETURNDATASIZE PUSH1 0x0 REVERT JUMPDEST POP POP PUSH1 0x98 SLOAD PUSH2 0x35E5 SWAP3 POP PUSH1 0x1 PUSH1 0x1 PUSH1 0xA0 SHL SUB AND SWAP1 POP CALLER ADDRESS DUP5 PUSH2 0x3A7D JUMP JUMPDEST PUSH1 0x40 DUP1 MLOAD DUP5 DUP2 MSTORE PUSH1 0x20 DUP2 ADD DUP7 SWAP1 MSTORE DUP1 DUP3 ADD DUP4 SWAP1 MSTORE SWAP1 MLOAD DUP4 SWAP2 CALLER SWAP2 PUSH32 0x7A7FA876A9A577092F57D3C1DEEDDC4025FB563AAB144154B355EDE4FB9F3DED SWAP2 DUP2 SWAP1 SUB PUSH1 0x60 ADD SWAP1 LOG3 POP POP POP POP POP POP POP POP POP JUMP JUMPDEST PUSH1 0x0 PUSH2 0x363E PUSH2 0x44BA JUMP JUMPDEST PUSH1 0x0 DUP1 PUSH1 0x98 PUSH1 0x0 SWAP1 SLOAD SWAP1 PUSH2 0x100 EXP SWAP1 DIV PUSH1 0x1 PUSH1 0x1 PUSH1 0xA0 SHL SUB AND PUSH1 0x1 PUSH1 0x1 PUSH1 0xA0 SHL SUB AND PUSH4 0x18160DDD PUSH1 0x40 MLOAD DUP2 PUSH4 0xFFFFFFFF AND PUSH1 0xE0 SHL DUP2 MSTORE PUSH1 0x4 ADD PUSH1 0x20 PUSH1 0x40 MLOAD DUP1 DUP4 SUB DUP2 DUP7 DUP1 EXTCODESIZE ISZERO DUP1 ISZERO PUSH2 0x368F JUMPI PUSH1 0x0 DUP1 REVERT JUMPDEST POP GAS STATICCALL ISZERO DUP1 ISZERO PUSH2 0x36A3 JUMPI RETURNDATASIZE PUSH1 0x0 DUP1 RETURNDATACOPY RETURNDATASIZE PUSH1 0x0 REVERT JUMPDEST POP POP POP POP PUSH1 0x40 MLOAD RETURNDATASIZE PUSH1 0x20 DUP2 LT ISZERO PUSH2 0x36B9 JUMPI PUSH1 0x0 DUP1 REVERT JUMPDEST POP MLOAD SWAP1 POP PUSH1 0x0 DUP1 DUP1 JUMPDEST PUSH1 0xA4 SLOAD DUP2 LT ISZERO PUSH2 0x3945 JUMPI PUSH1 0xA4 DUP2 DUP2 SLOAD DUP2 LT PUSH2 0x36D9 JUMPI INVALID JUMPDEST PUSH1 0x0 SWAP2 DUP3 MSTORE PUSH1 0x20 SWAP2 DUP3 SWAP1 KECCAK256 PUSH1 0x40 DUP1 MLOAD PUSH1 0xC0 DUP2 ADD DUP3 MSTORE PUSH1 0x3 SWAP1 SWAP4 MUL SWAP1 SWAP2 ADD DUP1 SLOAD PUSH1 0x1 PUSH1 0x1 PUSH1 0xA0 SHL SUB DUP1 DUP3 AND DUP1 DUP7 MSTORE PUSH1 0xFF PUSH1 0x1 PUSH1 0xA0 SHL SWAP4 DUP5 SWAP1 DIV DUP2 AND ISZERO ISZERO DUP8 DUP10 ADD MSTORE PUSH1 0x1 DUP6 ADD SLOAD DUP1 DUP5 AND DUP9 DUP9 ADD DUP2 SWAP1 MSTORE SWAP1 DUP6 SWAP1 DIV DUP3 AND ISZERO ISZERO PUSH1 0x60 DUP10 ADD MSTORE PUSH1 0x2 SWAP1 SWAP6 ADD SLOAD SWAP3 DUP4 AND PUSH1 0x80 DUP9 ADD MSTORE SWAP3 SWAP1 SWAP2 DIV SWAP1 SWAP2 AND ISZERO ISZERO PUSH1 0xA0 DUP6 ADD MSTORE DUP3 MLOAD PUSH4 0x8D2C8727 PUSH1 0xE0 SHL DUP2 MSTORE PUSH1 0x4 DUP2 ADD SWAP2 SWAP1 SWAP2 MSTORE SWAP2 MLOAD SWAP1 SWAP11 POP SWAP2 SWAP9 POP DUP10 SWAP3 PUSH4 0x8D2C8727 SWAP3 PUSH1 0x24 DUP1 DUP5 ADD SWAP4 DUP3 SWAP1 SUB ADD DUP2 DUP7 DUP1 EXTCODESIZE ISZERO DUP1 ISZERO PUSH2 0x378E JUMPI PUSH1 0x0 DUP1 REVERT JUMPDEST POP GAS STATICCALL ISZERO DUP1 ISZERO PUSH2 0x37A2 JUMPI RETURNDATASIZE PUSH1 0x0 DUP1 RETURNDATACOPY RETURNDATASIZE PUSH1 0x0 REVERT JUMPDEST POP POP POP POP PUSH1 0x40 MLOAD RETURNDATASIZE PUSH1 0x20 DUP2 LT ISZERO PUSH2 0x37B8 JUMPI PUSH1 0x0 DUP1 REVERT JUMPDEST POP MLOAD SWAP5 POP DUP5 ISZERO DUP1 ISZERO SWAP1 PUSH2 0x37CC JUMPI POP DUP6 PUSH1 0xA0 ADD MLOAD JUMPDEST ISZERO PUSH2 0x393D JUMPI DUP6 MLOAD PUSH1 0x40 DUP1 MLOAD PUSH4 0x6CE57689 PUSH1 0xE1 SHL DUP2 MSTORE ADDRESS PUSH1 0x4 DUP3 ADD MSTORE PUSH1 0x1 PUSH1 0x1 PUSH1 0xA0 SHL SUB SWAP3 DUP4 AND PUSH1 0x24 DUP3 ADD MSTORE PUSH1 0x44 DUP2 ADD DUP9 SWAP1 MSTORE SWAP1 MLOAD SWAP2 DUP10 AND SWAP2 PUSH4 0xD9CAED12 SWAP2 PUSH1 0x64 DUP1 DUP3 ADD SWAP3 PUSH1 0x0 SWAP3 SWAP1 SWAP2 SWAP1 DUP3 SWAP1 SUB ADD DUP2 DUP4 DUP8 DUP1 EXTCODESIZE ISZERO DUP1 ISZERO PUSH2 0x382B JUMPI PUSH1 0x0 DUP1 REVERT JUMPDEST POP GAS CALL ISZERO DUP1 ISZERO PUSH2 0x383F JUMPI RETURNDATASIZE PUSH1 0x0 DUP1 RETURNDATACOPY RETURNDATASIZE PUSH1 0x0 REVERT JUMPDEST POP POP POP POP DUP6 PUSH1 0x80 ADD MLOAD PUSH1 0x1 PUSH1 0x1 PUSH1 0xA0 SHL SUB AND PUSH4 0x73BD43AD DUP7 PUSH1 0x40 MLOAD DUP3 PUSH4 0xFFFFFFFF AND PUSH1 0xE0 SHL DUP2 MSTORE PUSH1 0x4 ADD DUP1 DUP3 DUP2 MSTORE PUSH1 0x20 ADD SWAP2 POP POP PUSH1 0x20 PUSH1 0x40 MLOAD DUP1 DUP4 SUB DUP2 PUSH1 0x0 DUP8 DUP1 EXTCODESIZE ISZERO DUP1 ISZERO PUSH2 0x388D JUMPI PUSH1 0x0 DUP1 REVERT JUMPDEST POP GAS CALL ISZERO DUP1 ISZERO PUSH2 0x38A1 JUMPI RETURNDATASIZE PUSH1 0x0 DUP1 RETURNDATACOPY RETURNDATASIZE PUSH1 0x0 REVERT JUMPDEST POP POP POP POP PUSH1 0x40 MLOAD RETURNDATASIZE PUSH1 0x20 DUP2 LT ISZERO PUSH2 0x38B7 JUMPI PUSH1 0x0 DUP1 REVERT JUMPDEST POP MLOAD PUSH1 0x98 SLOAD PUSH1 0x40 DUP1 MLOAD PUSH4 0x2770A7EB PUSH1 0xE2 SHL DUP2 MSTORE ADDRESS PUSH1 0x4 DUP3 ADD MSTORE PUSH1 0x24 DUP2 ADD DUP5 SWAP1 MSTORE SWAP1 MLOAD SWAP3 SWAP5 POP PUSH1 0x1 PUSH1 0x1 PUSH1 0xA0 SHL SUB SWAP1 SWAP2 AND SWAP2 PUSH4 0x9DC29FAC SWAP2 PUSH1 0x44 DUP1 DUP3 ADD SWAP3 PUSH1 0x0 SWAP3 SWAP1 SWAP2 SWAP1 DUP3 SWAP1 SUB ADD DUP2 DUP4 DUP8 DUP1 EXTCODESIZE ISZERO DUP1 ISZERO PUSH2 0x390F JUMPI PUSH1 0x0 DUP1 REVERT JUMPDEST POP GAS CALL ISZERO DUP1 ISZERO PUSH2 0x3923 JUMPI RETURNDATASIZE PUSH1 0x0 DUP1 RETURNDATACOPY RETURNDATASIZE PUSH1 0x0 REVERT JUMPDEST POP POP POP POP PUSH2 0x393A DUP3 DUP5 PUSH2 0x2F15 SWAP1 SWAP2 SWAP1 PUSH4 0xFFFFFFFF AND JUMP JUMPDEST SWAP3 POP JUMPDEST PUSH1 0x1 ADD PUSH2 0x36C2 JUMP JUMPDEST POP PUSH1 0x0 PUSH2 0x3952 DUP5 DUP5 PUSH2 0x2F15 JUMP JUMPDEST PUSH1 0x98 SLOAD PUSH1 0x40 DUP1 MLOAD PUSH4 0x39A7919F PUSH1 0xE0 SHL DUP2 MSTORE PUSH1 0x4 DUP2 ADD DUP5 SWAP1 MSTORE SWAP1 MLOAD SWAP3 SWAP4 POP PUSH1 0x1 PUSH1 0x1 PUSH1 0xA0 SHL SUB SWAP1 SWAP2 AND SWAP2 PUSH4 0x39A7919F SWAP2 PUSH1 0x24 DUP1 DUP3 ADD SWAP3 PUSH1 0x0 SWAP3 SWAP1 SWAP2 SWAP1 DUP3 SWAP1 SUB ADD DUP2 DUP4 DUP8 DUP1 EXTCODESIZE ISZERO DUP1 ISZERO PUSH2 0x39A2 JUMPI PUSH1 0x0 DUP1 REVERT JUMPDEST POP GAS CALL ISZERO DUP1 ISZERO PUSH2 0x39B6 JUMPI RETURNDATASIZE PUSH1 0x0 DUP1 RETURNDATACOPY RETURNDATASIZE PUSH1 0x0 REVERT JUMPDEST POP POP PUSH1 0x40 MLOAD DUP4 SWAP3 POP DUP7 SWAP2 POP PUSH32 0x11C6BF55864FF83827DF712625D7A80E5583EEF0264921025E7CD22003A21511 SWAP1 PUSH1 0x0 SWAP1 LOG3 POP POP POP POP POP POP POP JUMP JUMPDEST PUSH1 0x0 PUSH2 0xE44 PUSH2 0x39FD PUSH2 0x2CAE JUMP JUMPDEST PUSH2 0x3A05 PUSH2 0x2F6F JUMP JUMPDEST SWAP1 PUSH2 0x2F15 JUMP JUMPDEST PUSH1 0x0 DUP1 DUP3 GT PUSH2 0x3A61 JUMPI PUSH1 0x40 DUP1 MLOAD PUSH3 0x461BCD PUSH1 0xE5 SHL DUP2 MSTORE PUSH1 0x20 PUSH1 0x4 DUP3 ADD MSTORE PUSH1 0x1A PUSH1 0x24 DUP3 ADD MSTORE PUSH32 0x536166654D6174683A206469766973696F6E206279207A65726F000000000000 PUSH1 0x44 DUP3 ADD MSTORE SWAP1 MLOAD SWAP1 DUP2 SWAP1 SUB PUSH1 0x64 ADD SWAP1 REVERT JUMPDEST DUP2 DUP4 DUP2 PUSH2 0x3A6A JUMPI INVALID JUMPDEST DIV SWAP4 SWAP3 POP POP POP JUMP JUMPDEST PUSH1 0x0 PUSH2 0x1AE2 DUP3 PUSH2 0x40DC JUMP JUMPDEST PUSH1 0x40 DUP1 MLOAD PUSH1 0x1 PUSH1 0x1 PUSH1 0xA0 SHL SUB DUP1 DUP7 AND PUSH1 0x24 DUP4 ADD MSTORE DUP5 AND PUSH1 0x44 DUP3 ADD MSTORE PUSH1 0x64 DUP1 DUP3 ADD DUP5 SWAP1 MSTORE DUP3 MLOAD DUP1 DUP4 SUB SWAP1 SWAP2 ADD DUP2 MSTORE PUSH1 0x84 SWAP1 SWAP2 ADD SWAP1 SWAP2 MSTORE PUSH1 0x20 DUP2 ADD DUP1 MLOAD PUSH1 0x1 PUSH1 0x1 PUSH1 0xE0 SHL SUB AND PUSH4 0x23B872DD PUSH1 0xE0 SHL OR SWAP1 MSTORE PUSH2 0x28D1 SWAP1 DUP6 SWAP1 PUSH2 0x40E0 JUMP JUMPDEST PUSH1 0x0 DUP2 DUP2 JUMPDEST PUSH1 0xA4 SLOAD DUP2 LT ISZERO PUSH2 0x3DE1 JUMPI PUSH2 0x3AEE PUSH2 0x44BA JUMP JUMPDEST PUSH1 0xA4 DUP3 DUP2 SLOAD DUP2 LT PUSH2 0x3AFB JUMPI INVALID JUMPDEST PUSH1 0x0 SWAP2 DUP3 MSTORE PUSH1 0x20 SWAP2 DUP3 SWAP1 KECCAK256 PUSH1 0x40 DUP1 MLOAD PUSH1 0xC0 DUP2 ADD DUP3 MSTORE PUSH1 0x3 SWAP1 SWAP4 MUL SWAP1 SWAP2 ADD DUP1 SLOAD PUSH1 0x1 PUSH1 0x1 PUSH1 0xA0 SHL SUB DUP1 DUP3 AND DUP1 DUP7 MSTORE PUSH1 0xFF PUSH1 0x1 PUSH1 0xA0 SHL SWAP4 DUP5 SWAP1 DIV DUP2 AND ISZERO ISZERO DUP8 DUP10 ADD MSTORE PUSH1 0x1 DUP6 ADD SLOAD DUP1 DUP5 AND DUP9 DUP9 ADD MSTORE DUP5 SWAP1 DIV DUP2 AND ISZERO ISZERO PUSH1 0x60 DUP9 ADD MSTORE PUSH1 0x2 SWAP1 SWAP5 ADD SLOAD DUP1 DUP4 AND PUSH1 0x80 DUP9 ADD MSTORE SWAP3 SWAP1 SWAP3 DIV SWAP1 SWAP3 AND ISZERO ISZERO PUSH1 0xA0 DUP6 ADD MSTORE DUP3 MLOAD PUSH4 0xA400326F PUSH1 0xE0 SHL DUP2 MSTORE PUSH1 0x4 DUP2 ADD SWAP2 SWAP1 SWAP2 MSTORE SWAP2 MLOAD SWAP3 SWAP5 POP DUP7 AND SWAP3 PUSH4 0xA400326F SWAP3 PUSH1 0x24 DUP1 DUP5 ADD SWAP4 DUP3 SWAP1 SUB ADD DUP2 DUP7 DUP1 EXTCODESIZE ISZERO DUP1 ISZERO PUSH2 0x3BAB JUMPI PUSH1 0x0 DUP1 REVERT JUMPDEST POP GAS STATICCALL ISZERO DUP1 ISZERO PUSH2 0x3BBF JUMPI RETURNDATASIZE PUSH1 0x0 DUP1 RETURNDATACOPY RETURNDATASIZE PUSH1 0x0 REVERT JUMPDEST POP POP POP POP PUSH1 0x40 MLOAD RETURNDATASIZE PUSH1 0x20 DUP2 LT ISZERO PUSH2 0x3BD5 JUMPI PUSH1 0x0 DUP1 REVERT JUMPDEST POP MLOAD ISZERO PUSH2 0x3DD8 JUMPI PUSH1 0x99 SLOAD DUP2 MLOAD PUSH1 0x40 DUP1 MLOAD PUSH4 0x14690265 PUSH1 0xE2 SHL DUP2 MSTORE PUSH1 0x1 PUSH1 0x1 PUSH1 0xA0 SHL SUB SWAP3 DUP4 AND PUSH1 0x4 DUP3 ADD MSTORE SWAP1 MLOAD PUSH1 0x0 SWAP4 SWAP3 SWAP1 SWAP3 AND SWAP2 PUSH4 0x51A40994 SWAP2 PUSH1 0x24 DUP1 DUP3 ADD SWAP3 PUSH1 0x20 SWAP3 SWAP1 SWAP2 SWAP1 DUP3 SWAP1 SUB ADD DUP2 DUP7 DUP1 EXTCODESIZE ISZERO DUP1 ISZERO PUSH2 0x3C2F JUMPI PUSH1 0x0 DUP1 REVERT JUMPDEST POP GAS STATICCALL ISZERO DUP1 ISZERO PUSH2 0x3C43 JUMPI RETURNDATASIZE PUSH1 0x0 DUP1 RETURNDATACOPY RETURNDATASIZE PUSH1 0x0 REVERT JUMPDEST POP POP POP POP PUSH1 0x40 MLOAD RETURNDATASIZE PUSH1 0x20 DUP2 LT ISZERO PUSH2 0x3C59 JUMPI PUSH1 0x0 DUP1 REVERT JUMPDEST POP MLOAD PUSH1 0x99 SLOAD DUP4 MLOAD PUSH1 0x40 DUP1 MLOAD PUSH4 0x3F153279 PUSH1 0xE0 SHL DUP2 MSTORE PUSH1 0x1 PUSH1 0x1 PUSH1 0xA0 SHL SUB SWAP3 DUP4 AND PUSH1 0x4 DUP3 ADD MSTORE SWAP1 MLOAD SWAP4 SWAP5 POP PUSH1 0x0 SWAP4 SWAP2 SWAP1 SWAP3 AND SWAP2 PUSH4 0x3F153279 SWAP2 PUSH1 0x24 DUP1 DUP4 ADD SWAP3 PUSH1 0x20 SWAP3 SWAP2 SWAP1 DUP3 SWAP1 SUB ADD DUP2 DUP7 DUP1 EXTCODESIZE ISZERO DUP1 ISZERO PUSH2 0x3CB0 JUMPI PUSH1 0x0 DUP1 REVERT JUMPDEST POP GAS STATICCALL ISZERO DUP1 ISZERO PUSH2 0x3CC4 JUMPI RETURNDATASIZE PUSH1 0x0 DUP1 RETURNDATACOPY RETURNDATASIZE PUSH1 0x0 REVERT JUMPDEST POP POP POP POP PUSH1 0x40 MLOAD RETURNDATASIZE PUSH1 0x20 DUP2 LT ISZERO PUSH2 0x3CDA JUMPI PUSH1 0x0 DUP1 REVERT JUMPDEST POP MLOAD DUP4 MLOAD PUSH1 0x40 DUP1 MLOAD PUSH4 0x313CE567 PUSH1 0xE0 SHL DUP2 MSTORE SWAP1 MLOAD SWAP3 SWAP4 POP PUSH1 0x0 SWAP3 PUSH1 0x1 PUSH1 0x1 PUSH1 0xA0 SHL SUB SWAP1 SWAP3 AND SWAP2 PUSH4 0x313CE567 SWAP2 PUSH1 0x4 DUP1 DUP3 ADD SWAP3 PUSH1 0x20 SWAP3 SWAP1 SWAP2 SWAP1 DUP3 SWAP1 SUB ADD DUP2 DUP7 DUP1 EXTCODESIZE ISZERO DUP1 ISZERO PUSH2 0x3D26 JUMPI PUSH1 0x0 DUP1 REVERT JUMPDEST POP GAS STATICCALL ISZERO DUP1 ISZERO PUSH2 0x3D3A JUMPI RETURNDATASIZE PUSH1 0x0 DUP1 RETURNDATACOPY RETURNDATASIZE PUSH1 0x0 REVERT JUMPDEST POP POP POP POP PUSH1 0x40 MLOAD RETURNDATASIZE PUSH1 0x20 DUP2 LT ISZERO PUSH2 0x3D50 JUMPI PUSH1 0x0 DUP1 REVERT JUMPDEST POP MLOAD DUP5 MLOAD PUSH1 0x40 DUP1 MLOAD PUSH4 0x2FA8A913 PUSH1 0xE1 SHL DUP2 MSTORE PUSH1 0x1 PUSH1 0x1 PUSH1 0xA0 SHL SUB SWAP3 DUP4 AND PUSH1 0x4 DUP3 ADD MSTORE SWAP1 MLOAD PUSH1 0xFF SWAP1 SWAP4 AND SWAP4 POP PUSH1 0x0 SWAP3 PUSH2 0x3DB2 SWAP3 DUP7 SWAP3 PUSH2 0x1E8A SWAP3 DUP10 SWAP3 DUP14 AND SWAP2 PUSH4 0x5F515226 SWAP2 PUSH1 0x24 DUP1 DUP4 ADD SWAP3 PUSH1 0x20 SWAP3 SWAP2 SWAP1 DUP3 SWAP1 SUB ADD DUP2 DUP7 DUP1 EXTCODESIZE ISZERO DUP1 ISZERO PUSH2 0x31C7 JUMPI PUSH1 0x0 DUP1 REVERT JUMPDEST SWAP1 POP PUSH1 0x0 PUSH2 0x3DC4 PUSH2 0x320B PUSH1 0x12 DUP6 PUSH2 0x3FB1 JUMP JUMPDEST SWAP1 POP PUSH2 0x3DD0 DUP10 DUP3 PUSH2 0x2F15 JUMP JUMPDEST SWAP9 POP POP POP POP POP POP JUMPDEST POP PUSH1 0x1 ADD PUSH2 0x3ADC JUMP JUMPDEST POP POP SWAP2 SWAP1 POP JUMP JUMPDEST PUSH1 0x0 PUSH2 0x1ADF DUP4 PUSH1 0x1 PUSH1 0x1 PUSH1 0xA0 SHL SUB DUP5 AND PUSH2 0x4191 JUMP JUMPDEST PUSH1 0x0 PUSH2 0x1ADF DUP4 PUSH1 0x1 PUSH1 0x1 PUSH1 0xA0 SHL SUB DUP5 AND PUSH2 0x41DB JUMP JUMPDEST EXTCODESIZE ISZERO ISZERO SWAP1 JUMP JUMPDEST PUSH1 0x0 SLOAD PUSH2 0x100 SWAP1 DIV PUSH1 0xFF AND DUP1 PUSH2 0x3E31 JUMPI POP PUSH2 0x3E31 PUSH2 0x2DF9 JUMP JUMPDEST DUP1 PUSH2 0x3E3F JUMPI POP PUSH1 0x0 SLOAD PUSH1 0xFF AND ISZERO JUMPDEST PUSH2 0x3E7A JUMPI PUSH1 0x40 MLOAD PUSH3 0x461BCD PUSH1 0xE5 SHL DUP2 MSTORE PUSH1 0x4 ADD DUP1 DUP1 PUSH1 0x20 ADD DUP3 DUP2 SUB DUP3 MSTORE PUSH1 0x2E DUP2 MSTORE PUSH1 0x20 ADD DUP1 PUSH2 0x46B7 PUSH1 0x2E SWAP2 CODECOPY PUSH1 0x40 ADD SWAP2 POP POP PUSH1 0x40 MLOAD DUP1 SWAP2 SUB SWAP1 REVERT JUMPDEST PUSH1 0x0 SLOAD PUSH2 0x100 SWAP1 DIV PUSH1 0xFF AND ISZERO DUP1 ISZERO PUSH2 0x2EA7 JUMPI PUSH1 0x0 DUP1 SLOAD PUSH1 0xFF NOT PUSH2 0xFF00 NOT SWAP1 SWAP2 AND PUSH2 0x100 OR AND PUSH1 0x1 OR SWAP1 SSTORE DUP1 ISZERO PUSH2 0x2EB9 JUMPI PUSH1 0x0 DUP1 SLOAD PUSH2 0xFF00 NOT AND SWAP1 SSTORE POP JUMP JUMPDEST PUSH1 0x0 SLOAD PUSH2 0x100 SWAP1 DIV PUSH1 0xFF AND DUP1 PUSH2 0x3ED1 JUMPI POP PUSH2 0x3ED1 PUSH2 0x2DF9 JUMP JUMPDEST DUP1 PUSH2 0x3EDF JUMPI POP PUSH1 0x0 SLOAD PUSH1 0xFF AND ISZERO JUMPDEST PUSH2 0x3F1A JUMPI PUSH1 0x40 MLOAD PUSH3 0x461BCD PUSH1 0xE5 SHL DUP2 MSTORE PUSH1 0x4 ADD DUP1 DUP1 PUSH1 0x20 ADD DUP3 DUP2 SUB DUP3 MSTORE PUSH1 0x2E DUP2 MSTORE PUSH1 0x20 ADD DUP1 PUSH2 0x46B7 PUSH1 0x2E SWAP2 CODECOPY PUSH1 0x40 ADD SWAP2 POP POP PUSH1 0x40 MLOAD DUP1 SWAP2 SUB SWAP1 REVERT JUMPDEST PUSH1 0x0 SLOAD PUSH2 0x100 SWAP1 DIV PUSH1 0xFF AND ISZERO DUP1 ISZERO PUSH2 0x3F45 JUMPI PUSH1 0x0 DUP1 SLOAD PUSH1 0xFF NOT PUSH2 0xFF00 NOT SWAP1 SWAP2 AND PUSH2 0x100 OR AND PUSH1 0x1 OR SWAP1 SSTORE JUMPDEST PUSH1 0x0 PUSH2 0x3F4F PUSH2 0x2CAA JUMP JUMPDEST PUSH1 0x33 DUP1 SLOAD PUSH1 0x1 PUSH1 0x1 PUSH1 0xA0 SHL SUB NOT AND PUSH1 0x1 PUSH1 0x1 PUSH1 0xA0 SHL SUB DUP4 AND SWAP1 DUP2 OR SWAP1 SWAP2 SSTORE PUSH1 0x40 MLOAD SWAP2 SWAP3 POP SWAP1 PUSH1 0x0 SWAP1 PUSH32 0x8BE0079C531659141344CD1FD0A4F28419497F9722A3DAAFE3B4186F6B6457E0 SWAP1 DUP3 SWAP1 LOG3 POP DUP1 ISZERO PUSH2 0x2EB9 JUMPI PUSH1 0x0 DUP1 SLOAD PUSH2 0xFF00 NOT AND SWAP1 SSTORE POP JUMP JUMPDEST PUSH1 0x0 DUP3 DUP3 GT ISZERO PUSH2 0x4008 JUMPI PUSH1 0x40 DUP1 MLOAD PUSH3 0x461BCD PUSH1 0xE5 SHL DUP2 MSTORE PUSH1 0x20 PUSH1 0x4 DUP3 ADD MSTORE PUSH1 0x1E PUSH1 0x24 DUP3 ADD MSTORE PUSH32 0x536166654D6174683A207375627472616374696F6E206F766572666C6F770000 PUSH1 0x44 DUP3 ADD MSTORE SWAP1 MLOAD SWAP1 DUP2 SWAP1 SUB PUSH1 0x64 ADD SWAP1 REVERT JUMPDEST POP SWAP1 SUB SWAP1 JUMP JUMPDEST DUP2 SLOAD PUSH1 0x0 SWAP1 DUP3 LT PUSH2 0x4050 JUMPI PUSH1 0x40 MLOAD PUSH3 0x461BCD PUSH1 0xE5 SHL DUP2 MSTORE PUSH1 0x4 ADD DUP1 DUP1 PUSH1 0x20 ADD DUP3 DUP2 SUB DUP3 MSTORE PUSH1 0x22 DUP2 MSTORE PUSH1 0x20 ADD DUP1 PUSH2 0x44F0 PUSH1 0x22 SWAP2 CODECOPY PUSH1 0x40 ADD SWAP2 POP POP PUSH1 0x40 MLOAD DUP1 SWAP2 SUB SWAP1 REVERT JUMPDEST DUP3 PUSH1 0x0 ADD DUP3 DUP2 SLOAD DUP2 LT PUSH2 0x405F JUMPI INVALID JUMPDEST SWAP1 PUSH1 0x0 MSTORE PUSH1 0x20 PUSH1 0x0 KECCAK256 ADD SLOAD SWAP1 POP SWAP3 SWAP2 POP POP JUMP JUMPDEST PUSH1 0x0 SWAP1 DUP2 MSTORE PUSH1 0x1 SWAP2 SWAP1 SWAP2 ADD PUSH1 0x20 MSTORE PUSH1 0x40 SWAP1 KECCAK256 SLOAD ISZERO ISZERO SWAP1 JUMP JUMPDEST PUSH1 0x40 DUP1 MLOAD PUSH1 0x1 PUSH1 0x1 PUSH1 0xA0 SHL SUB DUP5 AND PUSH1 0x24 DUP3 ADD MSTORE PUSH1 0x44 DUP1 DUP3 ADD DUP5 SWAP1 MSTORE DUP3 MLOAD DUP1 DUP4 SUB SWAP1 SWAP2 ADD DUP2 MSTORE PUSH1 0x64 SWAP1 SWAP2 ADD SWAP1 SWAP2 MSTORE PUSH1 0x20 DUP2 ADD DUP1 MLOAD PUSH1 0x1 PUSH1 0x1 PUSH1 0xE0 SHL SUB AND PUSH4 0xA9059CBB PUSH1 0xE0 SHL OR SWAP1 MSTORE PUSH2 0xD60 SWAP1 DUP5 SWAP1 PUSH2 0x40E0 JUMP JUMPDEST SLOAD SWAP1 JUMP JUMPDEST PUSH1 0x60 PUSH2 0x4135 DUP3 PUSH1 0x40 MLOAD DUP1 PUSH1 0x40 ADD PUSH1 0x40 MSTORE DUP1 PUSH1 0x20 DUP2 MSTORE PUSH1 0x20 ADD PUSH32 0x5361666545524332303A206C6F772D6C6576656C2063616C6C206661696C6564 DUP2 MSTORE POP DUP6 PUSH1 0x1 PUSH1 0x1 PUSH1 0xA0 SHL SUB AND PUSH2 0x42A1 SWAP1 SWAP3 SWAP2 SWAP1 PUSH4 0xFFFFFFFF AND JUMP JUMPDEST DUP1 MLOAD SWAP1 SWAP2 POP ISZERO PUSH2 0xD60 JUMPI DUP1 DUP1 PUSH1 0x20 ADD SWAP1 MLOAD PUSH1 0x20 DUP2 LT ISZERO PUSH2 0x4154 JUMPI PUSH1 0x0 DUP1 REVERT JUMPDEST POP MLOAD PUSH2 0xD60 JUMPI PUSH1 0x40 MLOAD PUSH3 0x461BCD PUSH1 0xE5 SHL DUP2 MSTORE PUSH1 0x4 ADD DUP1 DUP1 PUSH1 0x20 ADD DUP3 DUP2 SUB DUP3 MSTORE PUSH1 0x2A DUP2 MSTORE PUSH1 0x20 ADD DUP1 PUSH2 0x4787 PUSH1 0x2A SWAP2 CODECOPY PUSH1 0x40 ADD SWAP2 POP POP PUSH1 0x40 MLOAD DUP1 SWAP2 SUB SWAP1 REVERT JUMPDEST PUSH1 0x0 PUSH2 0x419D DUP4 DUP4 PUSH2 0x4072 JUMP JUMPDEST PUSH2 0x41D3 JUMPI POP DUP2 SLOAD PUSH1 0x1 DUP2 DUP2 ADD DUP5 SSTORE PUSH1 0x0 DUP5 DUP2 MSTORE PUSH1 0x20 DUP1 DUP3 KECCAK256 SWAP1 SWAP4 ADD DUP5 SWAP1 SSTORE DUP5 SLOAD DUP5 DUP3 MSTORE DUP3 DUP7 ADD SWAP1 SWAP4 MSTORE PUSH1 0x40 SWAP1 KECCAK256 SWAP2 SWAP1 SWAP2 SSTORE PUSH2 0x1AE2 JUMP JUMPDEST POP PUSH1 0x0 PUSH2 0x1AE2 JUMP JUMPDEST PUSH1 0x0 DUP2 DUP2 MSTORE PUSH1 0x1 DUP4 ADD PUSH1 0x20 MSTORE PUSH1 0x40 DUP2 KECCAK256 SLOAD DUP1 ISZERO PUSH2 0x4297 JUMPI DUP4 SLOAD PUSH1 0x0 NOT DUP1 DUP4 ADD SWAP2 SWAP1 DUP2 ADD SWAP1 PUSH1 0x0 SWAP1 DUP8 SWAP1 DUP4 SWAP1 DUP2 LT PUSH2 0x420E JUMPI INVALID JUMPDEST SWAP1 PUSH1 0x0 MSTORE PUSH1 0x20 PUSH1 0x0 KECCAK256 ADD SLOAD SWAP1 POP DUP1 DUP8 PUSH1 0x0 ADD DUP5 DUP2 SLOAD DUP2 LT PUSH2 0x422B JUMPI INVALID JUMPDEST PUSH1 0x0 SWAP2 DUP3 MSTORE PUSH1 0x20 DUP1 DUP4 KECCAK256 SWAP1 SWAP2 ADD SWAP3 SWAP1 SWAP3 SSTORE DUP3 DUP2 MSTORE PUSH1 0x1 DUP10 DUP2 ADD SWAP1 SWAP3 MSTORE PUSH1 0x40 SWAP1 KECCAK256 SWAP1 DUP5 ADD SWAP1 SSTORE DUP7 SLOAD DUP8 SWAP1 DUP1 PUSH2 0x425B JUMPI INVALID JUMPDEST PUSH1 0x1 SWAP1 SUB DUP2 DUP2 SWAP1 PUSH1 0x0 MSTORE PUSH1 0x20 PUSH1 0x0 KECCAK256 ADD PUSH1 0x0 SWAP1 SSTORE SWAP1 SSTORE DUP7 PUSH1 0x1 ADD PUSH1 0x0 DUP8 DUP2 MSTORE PUSH1 0x20 ADD SWAP1 DUP2 MSTORE PUSH1 0x20 ADD PUSH1 0x0 KECCAK256 PUSH1 0x0 SWAP1 SSTORE PUSH1 0x1 SWAP5 POP POP POP POP POP PUSH2 0x1AE2 JUMP JUMPDEST PUSH1 0x0 SWAP2 POP POP PUSH2 0x1AE2 JUMP JUMPDEST PUSH1 0x60 PUSH2 0x42B0 DUP5 DUP5 PUSH1 0x0 DUP6 PUSH2 0x42BA JUMP JUMPDEST SWAP1 POP JUMPDEST SWAP4 SWAP3 POP POP POP JUMP JUMPDEST PUSH1 0x60 DUP3 SELFBALANCE LT ISZERO PUSH2 0x42FB JUMPI PUSH1 0x40 MLOAD PUSH3 0x461BCD PUSH1 0xE5 SHL DUP2 MSTORE PUSH1 0x4 ADD DUP1 DUP1 PUSH1 0x20 ADD DUP3 DUP2 SUB DUP3 MSTORE PUSH1 0x26 DUP2 MSTORE PUSH1 0x20 ADD DUP1 PUSH2 0x45E8 PUSH1 0x26 SWAP2 CODECOPY PUSH1 0x40 ADD SWAP2 POP POP PUSH1 0x40 MLOAD DUP1 SWAP2 SUB SWAP1 REVERT JUMPDEST PUSH2 0x4304 DUP6 PUSH2 0x3E12 JUMP JUMPDEST PUSH2 0x4355 JUMPI PUSH1 0x40 DUP1 MLOAD PUSH3 0x461BCD PUSH1 0xE5 SHL DUP2 MSTORE PUSH1 0x20 PUSH1 0x4 DUP3 ADD MSTORE PUSH1 0x1D PUSH1 0x24 DUP3 ADD MSTORE PUSH32 0x416464726573733A2063616C6C20746F206E6F6E2D636F6E7472616374000000 PUSH1 0x44 DUP3 ADD MSTORE SWAP1 MLOAD SWAP1 DUP2 SWAP1 SUB PUSH1 0x64 ADD SWAP1 REVERT JUMPDEST PUSH1 0x0 PUSH1 0x60 DUP7 PUSH1 0x1 PUSH1 0x1 PUSH1 0xA0 SHL SUB AND DUP6 DUP8 PUSH1 0x40 MLOAD DUP1 DUP3 DUP1 MLOAD SWAP1 PUSH1 0x20 ADD SWAP1 DUP1 DUP4 DUP4 JUMPDEST PUSH1 0x20 DUP4 LT PUSH2 0x4394 JUMPI DUP1 MLOAD DUP3 MSTORE PUSH1 0x1F NOT SWAP1 SWAP3 ADD SWAP2 PUSH1 0x20 SWAP2 DUP3 ADD SWAP2 ADD PUSH2 0x4375 JUMP JUMPDEST PUSH1 0x1 DUP4 PUSH1 0x20 SUB PUSH2 0x100 EXP SUB DUP1 NOT DUP3 MLOAD AND DUP2 DUP5 MLOAD AND DUP1 DUP3 OR DUP6 MSTORE POP POP POP POP POP POP SWAP1 POP ADD SWAP2 POP POP PUSH1 0x0 PUSH1 0x40 MLOAD DUP1 DUP4 SUB DUP2 DUP6 DUP8 GAS CALL SWAP3 POP POP POP RETURNDATASIZE DUP1 PUSH1 0x0 DUP2 EQ PUSH2 0x43F6 JUMPI PUSH1 0x40 MLOAD SWAP2 POP PUSH1 0x1F NOT PUSH1 0x3F RETURNDATASIZE ADD AND DUP3 ADD PUSH1 0x40 MSTORE RETURNDATASIZE DUP3 MSTORE RETURNDATASIZE PUSH1 0x0 PUSH1 0x20 DUP5 ADD RETURNDATACOPY PUSH2 0x43FB JUMP JUMPDEST PUSH1 0x60 SWAP2 POP JUMPDEST POP SWAP2 POP SWAP2 POP PUSH2 0x440B DUP3 DUP3 DUP7 PUSH2 0x4416 JUMP JUMPDEST SWAP8 SWAP7 POP POP POP POP POP POP POP JUMP JUMPDEST PUSH1 0x60 DUP4 ISZERO PUSH2 0x4425 JUMPI POP DUP2 PUSH2 0x42B3 JUMP JUMPDEST DUP3 MLOAD ISZERO PUSH2 0x4435 JUMPI DUP3 MLOAD DUP1 DUP5 PUSH1 0x20 ADD REVERT JUMPDEST DUP2 PUSH1 0x40 MLOAD PUSH3 0x461BCD PUSH1 0xE5 SHL DUP2 MSTORE PUSH1 0x4 ADD DUP1 DUP1 PUSH1 0x20 ADD DUP3 DUP2 SUB DUP3 MSTORE DUP4 DUP2 DUP2 MLOAD DUP2 MSTORE PUSH1 0x20 ADD SWAP2 POP DUP1 MLOAD SWAP1 PUSH1 0x20 ADD SWAP1 DUP1 DUP4 DUP4 PUSH1 0x0 JUMPDEST DUP4 DUP2 LT ISZERO PUSH2 0x447F JUMPI DUP2 DUP2 ADD MLOAD DUP4 DUP3 ADD MSTORE PUSH1 0x20 ADD PUSH2 0x4467 JUMP JUMPDEST POP POP POP POP SWAP1 POP SWAP1 DUP2 ADD SWAP1 PUSH1 0x1F AND DUP1 ISZERO PUSH2 0x44AC JUMPI DUP1 DUP3 SUB DUP1 MLOAD PUSH1 0x1 DUP4 PUSH1 0x20 SUB PUSH2 0x100 EXP SUB NOT AND DUP2 MSTORE PUSH1 0x20 ADD SWAP2 POP JUMPDEST POP SWAP3 POP POP POP PUSH1 0x40 MLOAD DUP1 SWAP2 SUB SWAP1 REVERT JUMPDEST PUSH1 0x40 DUP1 MLOAD PUSH1 0xC0 DUP2 ADD DUP3 MSTORE PUSH1 0x0 DUP1 DUP3 MSTORE PUSH1 0x20 DUP3 ADD DUP2 SWAP1 MSTORE SWAP2 DUP2 ADD DUP3 SWAP1 MSTORE PUSH1 0x60 DUP2 ADD DUP3 SWAP1 MSTORE PUSH1 0x80 DUP2 ADD DUP3 SWAP1 MSTORE PUSH1 0xA0 DUP2 ADD SWAP2 SWAP1 SWAP2 MSTORE SWAP1 JUMP INVALID GASLIMIT PUSH15 0x756D657261626C655365743A20696E PUSH5 0x6578206F75 PUSH21 0x206F6620626F756E6473416363657373436F6E7472 PUSH16 0x6C3A2073656E646572206D7573742062 PUSH6 0x20616E206164 PUSH14 0x696E20746F206772616E744F776E PUSH2 0x626C PUSH6 0x3A206E657720 PUSH16 0x776E657220697320746865207A65726F KECCAK256 PUSH2 0x6464 PUSH19 0x657373436F6C6C61746572616C20616D6F756E PUSH21 0x206973206C6F776572207468616E20746865206D61 PUSH25 0x696D756D20736C69707061676553504120616D6F756E742069 PUSH20 0x206D6F7265207468616E20746865206D6178696D PUSH22 0x6D20736C697070616765416D6F756E74206E65656473 KECCAK256 PUSH21 0x6F2062652067726561746572207468616E20304164 PUSH5 0x726573733A KECCAK256 PUSH10 0x6E73756666696369656E PUSH21 0x2062616C616E636520666F722063616C6C53504120 PUSH2 0x6D6F PUSH22 0x6E74206973206C6F776572207468616E20746865206D PUSH2 0x7869 PUSH14 0x756D20736C6970706167654D696E PUSH21 0x20262072656465656D207061757365640000000000 STOP STOP STOP STOP STOP STOP STOP COINBASE PUSH4 0x63657373 NUMBER PUSH16 0x6E74726F6C3A2073656E646572206D75 PUSH20 0x7420626520616E2061646D696E20746F20726576 PUSH16 0x6B65436F6C6C61746572616C73206465 PUSH4 0x696D616C PUSH20 0x206E65656420746F206265206C65737320746568 PUSH15 0x203138496E697469616C697A61626C PUSH6 0x3A20636F6E74 PUSH19 0x61637420697320616C726561647920696E6974 PUSH10 0x616C697A6564436F6C6C PUSH2 0x7465 PUSH19 0x616C20616D6F756E74206973206D6F72652074 PUSH9 0x616E20746865206D61 PUSH25 0x696D756D20736C697070616765536166654D6174683A206D75 PUSH13 0x7469706C69636174696F6E206F PUSH23 0x6572666C6F774F776E61626C653A2063616C6C65722069 PUSH20 0x206E6F7420746865206F776E6572555344732061 PUSH14 0x6F756E74206973206C6F77657220 PUSH21 0x68616E20746865206D6178696D756D20736C697070 PUSH2 0x6765 MSTORE8 PUSH2 0x6665 GASLIMIT MSTORE NUMBER ORIGIN ADDRESS GASPRICE KECCAK256 GASLIMIT MSTORE NUMBER ORIGIN ADDRESS KECCAK256 PUSH16 0x7065726174696F6E20646964206E6F74 KECCAK256 PUSH20 0x756363656564416363657373436F6E74726F6C3A KECCAK256 PUSH4 0x616E206F PUSH15 0x6C792072656E6F756E636520726F6C PUSH6 0x7320666F7220 PUSH20 0x656C66A2646970667358221220EE0E69AC4645CA RETURNDATACOPY 0xED 0xC9 SWAP8 0xC 0xB5 0xC8 0xA8 SELFDESTRUCT SELFDESTRUCT MLOAD 0x2E 0xE1 DIV DUP12 PUSH17 0xEC85E9B671FD6655DA64736F6C63430006 0xC STOP CALLER ",
  "sha1": "b5fcacccf5bc3f6254ea1bbf75362a88e4727b13",
  "source": "// SPDX-License-Identifier: MIT\npragma solidity >=0.6.12;\nimport \"@openzeppelin/contracts-upgradeable/access/AccessControlUpgradeable.sol\";\nimport \"@openzeppelin/contracts-upgradeable/access/OwnableUpgradeable.sol\";\nimport \"@openzeppelin/contracts-upgradeable/token/ERC20/SafeERC20Upgradeable.sol\";\nimport \"@openzeppelin/contracts-upgradeable/token/ERC20/ERC20Upgradeable.sol\";\n\nimport \"../libraries/Helpers.sol\";\nimport \"../interfaces/ISperaxToken.sol\";\nimport \"../interfaces/IStrategy.sol\";\nimport \"../libraries/VaultCoreLibrary.sol\";\nimport \"../interfaces/IUSDs.sol\";\nimport \"../interfaces/IBuyback.sol\";\nimport \"../interfaces/IVaultCore.sol\";\n\ncontract VaultCore is Initializable, OwnableUpgradeable, AccessControlUpgradeable, IVaultCore {\n\tusing SafeERC20Upgradeable for ERC20Upgradeable;\n\tusing SafeMathUpgradeable for uint;\n\tusing StableMath for uint;\n\n\tbytes32 public constant REBASER_ROLE = keccak256(\"REBASER_ROLE\");\n\n\tbool public override mintRedeemAllowed;\n\tbool public override allocationAllowed;\n\tbool public override rebaseAllowed;\n\tbool public override swapfeeInAllowed;\n\tbool public override swapfeeOutAllowed;\n\taddress public SPAaddr;\n\taddress public USDsAddr;\n\taddress public override oracleAddr;\n\taddress public SPAvault;\n\tBancorFormula public override BancorInstance;\n\tuint public override startBlockHeight;\n\tuint public SPAminted;\n\tuint public SPAburnt;\n\tuint32 public override chi_alpha;\n\tuint64 public override constant chi_alpha_prec = 10**12;\n\tuint64 public override constant chi_prec = chi_alpha_prec;\n\tuint public override chiInit;\n\tuint32 public override chi_beta;\n\tuint16 public override constant chi_beta_prec = 10**4;\n\tuint32 public override chi_gamma;\n\tuint16 public override constant chi_gamma_prec = 10**4;\n\tuint64 public override constant swapFee_prec = 10**12;\n\tuint32 public override swapFee_p;\n\tuint16 public override constant swapFee_p_prec = 10**4;\n\tuint32 public override swapFee_theta;\n\tuint16 public override constant swapFee_theta_prec = 10**4;\n\tuint32 public override swapFee_a;\n\tuint16 public override constant swapFee_a_prec = 10**4;\n\tuint32 public override swapFee_A;\n\tuint16 public override constant swapFee_A_prec = 10**4;\n\tuint32 public override allocatePrecentage;\n\tuint16 public override constant allocatePrecentage_prec = 10**4;\n\n\tevent parametersUpdated(uint _chiInit, uint32 _chi_beta, uint32 _chi_gamma, uint32 _swapFee_p, uint32 _swapFee_theta, uint32 _swapFee_a, uint32 _swapFee_A, uint32 _allocatePrecentage);\n\tevent USDsMinted(address indexed wallet, uint indexed USDsAmt, uint collateralAmt, uint SPAsAmt, uint feeAmt);\n\tevent USDsRedeemed(address indexed wallet, uint indexed USDsAmt, uint collateralAmt, uint SPAsAmt, uint feeAmt);\n\tevent Rebase(uint indexed oldSupply, uint indexed newSupply);\n\tevent CollateralAdded(address indexed collateralAddr, bool addded, address defaultStrategyAddr, bool allocationAllowed, address buyBackAddr, bool rebaseAllowed);\n\tevent CollateralChanged(address indexed collateralAddr, bool addded, address defaultStrategyAddr, bool allocationAllowed, address buyBackAddr, bool rebaseAllowed);\n\tevent StrategyAdded(address strategyAddr, bool added);\n\tevent MintRedeemPermssionChanged(bool indexed permission);\n\tevent AllocationPermssionChanged(bool indexed permission);\n\tevent SwapFeeInOutPermissionChanged(bool indexed swapfeeInAllowed, bool indexed swapfeeOutAllowed);\n\tevent CollateralAllocated(address indexed collateralAddr, address indexed depositStrategyAddr, uint allocateAmount);\n\n\t/**\n\t * @dev check if USDs mint & redeem are both allowed\n\t */\n\tmodifier whenMintRedeemAllowed {\n\t\trequire(mintRedeemAllowed, \"Mint & redeem paused\");\n\t\t_;\n\t}\n\t/**\n\t * @dev check if re-investment of collaterals is allowed\n\t */\n\tmodifier whenAllocationAllowed {\n\t\trequire(allocationAllowed, \"Allocate paused\");\n\t\t_;\n\t}\n\t/**\n\t * @dev check if rebase is allowed\n\t */\n\tmodifier whenRebaseAllowed {\n\t\trequire(rebaseAllowed, \"Rebase paused\");\n\t\t_;\n\t}\n\n\tstruct collateralStruct {\n\t\taddress collateralAddr;\n\t\tbool added;\n\t\taddress defaultStrategyAddr;\n\t\tbool allocationAllowed;\n\t\taddress buyBackAddr;\n\t\tbool rebaseAllowed;\n\t}\n\tstruct strategyStruct {\n\t\taddress strategyAddr;\n\t\tbool added;\n\t}\n\tmapping(address => collateralStruct) collateralsInfo;\n\tmapping(address => strategyStruct) strategiesInfo;\n\tcollateralStruct[] allCollaterals;\t// the list of all added collaterals\n\tstrategyStruct[] allStrategies;\t// the list of all strategy addresses\n\n\tfunction initialize(address _SPAaddr, address _BancorFormulaAddr) public initializer {\n\t\tOwnableUpgradeable.__Ownable_init();\n\t\tmintRedeemAllowed = true;\n\t\tswapfeeInAllowed = false;\n\t\tswapfeeOutAllowed = false;\n\t\tallocationAllowed = false;\n\t\tSPAaddr = _SPAaddr;\n\t\tBancorInstance = BancorFormula(_BancorFormulaAddr);\n\t\tSPAvault = address(this);\n\t\tstartBlockHeight = block.number;\n\t\tchi_alpha = uint32(chi_alpha_prec * 513 / 10**10);\n\t\tchiInit = uint(chi_prec * 95 / 100).add(startBlockHeight.mul(chi_alpha));\n\t\tchi_beta = chi_beta_prec * 9;\n\t\tchi_gamma = chi_gamma_prec;\n\t\tswapFee_p = swapFee_p_prec * 99 / 100;\n\t\tswapFee_theta = swapFee_theta_prec * 50;\n\t\tswapFee_a = swapFee_a_prec * 12 / 10;\n\t\tswapFee_A = swapFee_A_prec * 20;\n\t\tallocatePrecentage = allocatePrecentage_prec * 8 / 10;\n\t\t_setupRole(DEFAULT_ADMIN_ROLE, msg.sender);\n\t}\n\n\t//for testing purpose\n\tfunction updateUSDsAddress(address _USDsAddr) external onlyOwner {\n\t\tUSDsAddr = _USDsAddr;\n\t}\n\n\tfunction updateOracleAddress(address _oracleAddr) external onlyOwner {\n\t\toracleAddr =  _oracleAddr;\n\t}\n\n\tfunction updateParameters(uint _chiInit, uint32 _chi_beta, uint32 _chi_gamma, uint32 _swapFee_p, uint32 _swapFee_theta, uint32 _swapFee_a, uint32 _swapFee_A, uint32 _allocatePrecentage) external onlyOwner {\n\t\tchiInit = _chiInit;\n\t\tchi_beta = _chi_beta;\n\t\tchi_gamma = _chi_gamma;\n\t\tswapFee_p = _swapFee_p;\n\t\tswapFee_theta = _swapFee_theta;\n\t\tswapFee_a = _swapFee_a;\n\t\tswapFee_A = _swapFee_A;\n\t\tallocatePrecentage = _allocatePrecentage;\n\t\temit parametersUpdated(chiInit, chi_beta, chi_gamma, swapFee_p, swapFee_theta, swapFee_a, swapFee_A, allocatePrecentage);\n\t}\n\n\t/**\n\t * @dev disable USDs mint & redeem\n\t */\n\tfunction updateMintBurnPermission(bool _mintRedeemAllowed) external onlyOwner {\n\t\tmintRedeemAllowed = _mintRedeemAllowed;\n\t\temit MintRedeemPermssionChanged(mintRedeemAllowed);\n\t}\n\t/**\n\t * @dev disable collateral re-investment\n\t */\n\tfunction updateAllocationPermission(bool _allocationAllowed) external onlyOwner {\n\t\tallocationAllowed = _allocationAllowed;\n\t\temit AllocationPermssionChanged(allocationAllowed);\n\t}\n\t/**\n\t * @dev disable swapInFee, i.e. mint becomes free\n\t */\n\tfunction updateSwapInOutFeePermission(bool _swapfeeInAllowed, bool _swapfeeOutAllowed) external onlyOwner {\n\t\tswapfeeInAllowed = _swapfeeInAllowed;\n\t\tswapfeeOutAllowed = _swapfeeOutAllowed;\n\t\temit SwapFeeInOutPermissionChanged(swapfeeInAllowed, swapfeeOutAllowed);\n\t}\n\n\tfunction addCollateral(address _collateralAddr, address _defaultStrategyAddr, bool _allocationAllowed, address _buyBackAddr, bool _rebaseAllowed) external onlyOwner {\n\t\trequire(!collateralsInfo[_collateralAddr].added, \"Collateral added\");\n\t\trequire(ERC20Upgradeable(_collateralAddr).decimals() <= 18, \"Collaterals decimals need to be less tehn 18\");\n\t\tcollateralStruct storage addingCollateral = collateralsInfo[_collateralAddr];\n\t\taddingCollateral.collateralAddr = _collateralAddr;\n\t\taddingCollateral.added = true;\n\t\taddingCollateral.defaultStrategyAddr = _defaultStrategyAddr;\n\t\taddingCollateral.allocationAllowed = _allocationAllowed;\n\t\taddingCollateral.buyBackAddr = _buyBackAddr;\n\t\tallCollaterals.push(addingCollateral);\n\t\temit CollateralAdded(_collateralAddr, addingCollateral.added, _defaultStrategyAddr, _allocationAllowed, _buyBackAddr, _rebaseAllowed);\n\t}\n\n\tfunction updateCollateralInfo(address _collateralAddr, address _defaultStrategyAddr, bool _allocationAllowed, address _buyBackAddr, bool _rebaseAllowed) external onlyOwner {\n\t\trequire(collateralsInfo[_collateralAddr].added, \"Collateral not added\");\n\t\tcollateralStruct storage updatedCollateral = collateralsInfo[_collateralAddr];\n\t\tupdatedCollateral.collateralAddr = _collateralAddr;\n\t\tupdatedCollateral.defaultStrategyAddr = _defaultStrategyAddr;\n\t\tupdatedCollateral.allocationAllowed = _allocationAllowed;\n\t\tupdatedCollateral.buyBackAddr = _buyBackAddr;\n\t\temit CollateralChanged(_collateralAddr, updatedCollateral.added ,_defaultStrategyAddr, _allocationAllowed, _buyBackAddr, _rebaseAllowed);\n\t}\n\n\n\t// function updateStrategyInfo(address _strategyAddr, bool _added) external onlyOwner {\n\t// \t_updateStrategyInfo(_strategyAddr, _added);\n\t// }\n\t//\n\t// function _updateStrategyInfo(address _strategyAddr, bool _added) internal {\n\t// \tstrategyStruct storage addingStrategy = strategiesInfo[_strategyAddr];\n\t// \taddingStrategy.strategyAddr = _strategyAddr;\n\t// \taddingStrategy.added = _added;\n\t// \temit StrategyInfoChanged(_strategyAddr, _added);\n\t// }\n\tfunction addStrategy(address _strategyAddr) external onlyOwner {\n\t\trequire(!strategiesInfo[_strategyAddr].added, \"Strategy added\");\n\t\tstrategyStruct storage addingStrategy = strategiesInfo[_strategyAddr];\n\t\taddingStrategy.strategyAddr = _strategyAddr;\n\t\taddingStrategy.added = true;\n\t\tallStrategies.push(addingStrategy);\n\t\temit StrategyAdded(_strategyAddr, true);\n\t}\n\n\t/**\n\t * @dev mint USDs by entering USDs amount\n\t * @param collateralAddr the address of user's chosen collateral\n\t * @param USDsMintAmt the amount of USDs to be minted\n\t */\n\tfunction mintWithUSDs(address collateralAddr, uint USDsMintAmt, uint slippageCollateral, uint slippageSPA, uint deadline)\n\t\tpublic\n\t\twhenMintRedeemAllowed\n\t{\n\t\trequire(collateralsInfo[collateralAddr].added, \"Collateral not added\");\n\t\trequire(USDsMintAmt > 0, \"Amount needs to be greater than 0\");\n\t\t_mint(collateralAddr, USDsMintAmt, 0, USDsMintAmt, slippageCollateral, slippageSPA, deadline);\n\t}\n\n\t/**\n\t * @dev mint USDs by entering SPA amount\n\t * @param collateralAddr the address of user's chosen collateral\n\t * @param SPAamt the amount of SPA to burn\n\t */\n\n\tfunction mintWithSPA(address collateralAddr, uint SPAamt, uint slippageUSDs, uint slippageCollateral, uint deadline)\n\t\tpublic\n\t\twhenMintRedeemAllowed\n\t{\n\t\trequire(collateralsInfo[collateralAddr].added, \"Collateral not added\");\n\t\trequire(SPAamt > 0, \"Amount needs to be greater than 0\");\n\t\t_mint(collateralAddr, SPAamt, 1, slippageUSDs, slippageCollateral, SPAamt, deadline);\n\t}\n\n\t/**\n\t * @dev mint USDs by entering collateral amount (excluding ETH)\n\t * @param collateralAddr the address of user's chosen collateral\n\t * @param collateralAmt the amount of collateral to stake\n\t */\n\tfunction mintWithColla(address collateralAddr, uint collateralAmt, uint slippageUSDs, uint slippageSPA, uint deadline)\n\t\tpublic\n\t\twhenMintRedeemAllowed\n\t{\n\t\trequire(collateralsInfo[collateralAddr].added, \"Collateral not added\");\n\t\trequire(collateralAmt > 0, \"Amount needs to be greater than 0\");\n\t\t_mint(collateralAddr, collateralAmt, 2, slippageUSDs, collateralAmt, slippageSPA, deadline);\n\t}\n\n\t/**\n\t * @dev mint USDs by ETH\n\t * note: this function needs changes when USDs is deployed on other blockchain platform\n\t */\n\tfunction mintWithEth(uint slippageUSDs, uint slippageSPA, uint deadline) public payable whenMintRedeemAllowed {\n\t\trequire(msg.value > 0, \"Need to pay Ether\");\n\t\t_mint(address(0), msg.value, 3, slippageUSDs, msg.value, slippageSPA, deadline);\n\t}\n\n\n\t/**\n\t * @dev the generic, internal mint function\n\t * @param collateralAddr the address of the collateral\n\t * @param valueAmt the amount of tokens (the specific meaning depends on valueType)\n\t * @param valueType the type of tokens (specific meanings are listed lower)\n\t *\t\tvalueType = 0: mintWithUSDs\n\t *\t\tvalueType = 1: mintWithSPA\n\t *\t\tvalueType = 2: mintWithColla\n\t *\t\tvalueType = 3: mintWithETH\n\t */\n\tfunction _mint(\n\t\taddress collateralAddr,\n\t\tuint valueAmt,\n\t\tuint8 valueType,\n\t\tuint slippageUSDs,\n\t\tuint slippageCollat,\n\t\tuint slippageSPA,\n\t\tuint deadline\n\t) internal whenMintRedeemAllowed {\n\t\t// calculate all necessary related quantities based on user inputs\n\t\t(uint SPABurnAmt, uint collateralDepAmt, uint USDsAmt, uint swapFeeAmount) = VaultCoreLibrary.mintView(collateralAddr, valueAmt, valueType, address(this));\n\n\t\t// slippageUSDs is the minimum value of the minted USDs\n\t\t// slippageCollat is the maximum value of the required collateral\n\t\t// slippageSPA is the maximum value of the required spa\n\t\trequire(USDsAmt >= slippageUSDs, \"USDs amount is lower than the maximum slippage\");\n\t\trequire(collateralDepAmt <= slippageCollat, \"Collateral amount is more than the maximum slippage\");\n\t\trequire(SPABurnAmt <= slippageSPA, \"SPA amount is more than the maximum slippage\");\n\t\trequire(block.timestamp <= deadline, \"Deadline expired\");\n\n\t\t// burn SPA tokens\n\t\tISperaxToken(SPAaddr).burnFrom(msg.sender, SPABurnAmt);\n\t\tSPAburnt = SPAburnt.add(SPABurnAmt);\n\t\t// if it it not mintWithETH, stake collaterals\n\t\tif (valueType != 3) {\n\t\t\tERC20Upgradeable(collateralAddr).safeTransferFrom(msg.sender, address(this), collateralDepAmt);\n\t\t}\n\t\t// mint USDs and collect swapIn fees\n\t\tIUSDs(USDsAddr).mint(msg.sender, USDsAmt);\n\t\tIUSDs(USDsAddr).mint(address(this), swapFeeAmount);\n\t\temit USDsMinted(msg.sender, USDsAmt, collateralDepAmt, SPABurnAmt, swapFeeAmount);\n\t}\n\n\t/**\n\t *\n\t */\n\tfunction redeem(address collateralAddr, uint USDsAmt, uint slippageCollat, uint slippageSPA, uint deadline)\n\t\tpublic\n\t\twhenMintRedeemAllowed\n\t{\n\t\trequire(collateralsInfo[collateralAddr].added, \"Collateral not added\");\n\t\trequire(USDsAmt > 0, \"Amount needs to be greater than 0\");\n\t\t_redeem(collateralAddr, USDsAmt, slippageCollat, slippageSPA, deadline);\n\t}\n\n\t/**\n\t *\n\t */\n\tfunction redeemWithEth(uint USDsAmt, uint slippageEth, uint slippageSPA, uint deadline)\n\t\tpublic\n\t\twhenMintRedeemAllowed\n\t{\n\t\trequire(USDsAmt > 0, \"Amount needs to be greater than 0\");\n\t\t_redeem(address(0), USDsAmt, slippageEth, slippageSPA, deadline);\n\t}\n\n\tfunction _redeem(\n\t\taddress collateralAddr,\n\t\tuint USDsAmt,\n\t\tuint slippageCollat,\n\t\tuint slippageSPA,\n\t\tuint deadline\n\t) internal whenMintRedeemAllowed {\n\t\t(uint SPAMintAmt, uint collateralUnlockedAmt, uint USDsBurntAmt, uint swapFeeAmount) = VaultCoreLibrary.redeemView(collateralAddr, USDsAmt, address(this), oracleAddr);\n\n\t\t// slippageCollat is the minimum value of the unlocked collateral\n\t\t// slippageSPA is the minimum value of the minted spa\n\t\trequire(collateralUnlockedAmt >= slippageCollat, \"Collateral amount is lower than the maximum slippage\");\n\t\trequire(SPAMintAmt >= slippageSPA, \"SPA amount is lower than the maximum slippage\");\n\t\trequire(block.timestamp <= deadline, \"Deadline expired\");\n\n\t\tISperaxToken(SPAaddr).mintForUSDs(msg.sender, SPAMintAmt);\n\t\tSPAminted = SPAminted.add(SPAMintAmt);\n\n\t\tif (collateralAddr == address(0)) {\n\t\t\t(bool sent, ) = msg.sender.call{value: collateralUnlockedAmt}(\"\");\n\t\t\trequire(sent, \"Failed to send Ether\");\n\t\t} else {\n\t\t\tERC20Upgradeable(collateralAddr).safeTransfer(msg.sender, collateralUnlockedAmt);\n\t\t}\n\t\tIUSDs(USDsAddr).burn(msg.sender, USDsBurntAmt);\n\t\tERC20Upgradeable(USDsAddr).safeTransferFrom(msg.sender, address(this), swapFeeAmount);\n\n\t\temit USDsRedeemed(msg.sender, USDsBurntAmt, collateralUnlockedAmt,SPAMintAmt, swapFeeAmount);\n\t}\n\n\tfunction rebase() external whenRebaseAllowed {\n\t\trequire(hasRole(REBASER_ROLE, msg.sender), \"Caller is not a burner\");\n\t\t_rebase();\n\t}\n\n\tfunction _rebase() internal {\n\t\tIStrategy strategy;\n\t\tcollateralStruct memory collateral;\n\t\tuint newTokensAmt;\n\t\tuint USDsSupply = ERC20Upgradeable(USDsAddr).totalSupply();\n\t\tuint USDsSupplyIncrementTotal;\n\t\tuint USDsReceived;\n\t\tfor (uint y = 0; y < allCollaterals.length; y++) {\n\t\t\tcollateral = allCollaterals[y];\n\t\t\tstrategy = IStrategy(collateral.defaultStrategyAddr);\n\t\t\tnewTokensAmt = strategy.checkInterestEarned(collateral.collateralAddr);\n\t\t\tif (newTokensAmt > 0 && collateral.rebaseAllowed) {\n\t\t\t\tstrategy.withdraw(address(this), collateral.collateralAddr, newTokensAmt);\n\t\t\t\tUSDsReceived = IBuyback(collateral.buyBackAddr).swapExactInputSingle(newTokensAmt);\n\t\t\t\tIUSDs(USDsAddr).burn(address(this), USDsReceived);\n\t\t\t\tUSDsSupplyIncrementTotal = USDsSupplyIncrementTotal.add(USDsReceived);\n\t\t\t}\n\t\t}\n\t\tuint USDsNewSupply = USDsSupply.add(USDsSupplyIncrementTotal);\n\t\tIUSDs(USDsAddr).changeSupply(USDsNewSupply);\n\t\temit Rebase(USDsSupply, USDsNewSupply);\n\t}\n\n\n\tfunction collateralRatio() public view override returns (uint ratio) {\n\t\tuint totalValueLocked = _totalValueLocked();\n\t\tuint USDsSupply = ERC20Upgradeable(USDsAddr).totalSupply();\n\t\tuint priceUSDs = uint(IOracle(oracleAddr).getUSDsPrice());\n\t\tuint precisionUSDs = IOracle(oracleAddr).getUSDsPrice_prec();\n\t\tuint USDsValue = USDsSupply.mul(priceUSDs).div(precisionUSDs);\n\t\tratio = totalValueLocked.mul(chi_prec).div(USDsValue);\n\t}\n\n\tfunction totalValueLocked() external view returns (uint value) {\n\t\tvalue = _totalValueLocked();\n\t}\n\n\tfunction _totalValueLocked() internal view returns (uint value) {\n\t\tvalue = _totalValueInVault().add(_totalValueInStrategies());\n\t}\n\n\tfunction totalValueInVault() external view returns (uint value) {\n\t\tvalue = _totalValueInVault();\n\t}\n\n\tfunction _totalValueInVault() internal view returns (uint value) {\n\t\tfor (uint y = 0; y < allCollaterals.length; y++) {\n\t\t\tcollateralStruct memory collateral = allCollaterals[y];\n\t\t\tuint priceColla = IOracle(oracleAddr).getCollateralPrice(collateral.collateralAddr);\n\t\t\tuint precisionColla = IOracle(oracleAddr).getCollateralPrice_prec(collateral.collateralAddr);\n\t\t\tuint collateralAddrDecimal = uint(ERC20Upgradeable(collateral.collateralAddr).decimals());\n\t\t\tuint collateralTotalValueInVault = ERC20Upgradeable(collateral.collateralAddr).balanceOf(address(this)).mul(priceColla).div(precisionColla);\n\t\t\tuint collateralTotalValueInVault_18 = collateralTotalValueInVault.mul(10**(uint(18).sub(collateralAddrDecimal)));\n\t\t\tvalue = value.add(collateralTotalValueInVault_18);\n\t\t}\n\t}\n\n\tfunction totalValueInStrategies() external view returns (uint value) {\n\t\tvalue = _totalValueInStrategies();\n\t}\n\n\tfunction _totalValueInStrategies() internal view returns (uint value) {\n\t\tfor (uint i = 0; i < allStrategies.length; i++) {\n\t\t\tif (allStrategies[i].added) {\n\t\t\t\tvalue = value.add(_totalValueInStrategy(allStrategies[i].strategyAddr));\n\t\t\t}\n\t\t}\n\t}\n\n\tfunction _totalValueInStrategy(address _strategyAddr) internal view returns (uint value) {\n\t\tIStrategy strategy = IStrategy(_strategyAddr);\n\t\tfor (uint y = 0; y < allCollaterals.length; y++) {\n\t\t\tcollateralStruct memory collateral = allCollaterals[y];\n\t\t\tif (strategy.supportsCollateral(collateral.collateralAddr)) {\n\t\t\t\tuint priceColla = IOracle(oracleAddr).getCollateralPrice(collateral.collateralAddr);\n\t\t\t\tuint precisionColla = IOracle(oracleAddr).getCollateralPrice_prec(collateral.collateralAddr);\n\t\t\t\tuint collateralAddrDecimal = uint(ERC20Upgradeable(collateral.collateralAddr).decimals());\n\t\t\t\tuint collateralTotalValueInStrategy = strategy.checkBalance(collateral.collateralAddr).mul(priceColla).div(precisionColla);\n\t\t\t\tuint collateralTotalValueInStrategy_18 = collateralTotalValueInStrategy.mul(10**(uint(18).sub(collateralAddrDecimal)));\n\t\t\t\tvalue = value.add(collateralTotalValueInStrategy_18);\n\t\t\t}\n\t\t}\n\t}\n\n\t/**\n\t* @notice Allocate unallocated funds on Vault to strategies.\n\t* @dev Allocate unallocated funds on Vault to strategies.\n\t**/\n    function _allocate() internal {\n\t\t//David is working on this\n\t}\n\n\n\n\n\n}\n",
  "sourcePath": "contracts/vault/VaultCore.sol",
  "type": "contract"
}