{
  "abi": [
    {
      "anonymous": false,
      "inputs": [
        {
          "indexed": true,
          "internalType": "bool",
          "name": "permission",
          "type": "bool"
        }
      ],
      "name": "AllocationPermssionChanged",
      "type": "event"
    },
    {
      "anonymous": false,
      "inputs": [
        {
          "indexed": true,
          "internalType": "address",
          "name": "collateralAddr",
          "type": "address"
        },
        {
          "indexed": false,
          "internalType": "bool",
          "name": "addded",
          "type": "bool"
        },
        {
          "indexed": false,
          "internalType": "address",
          "name": "defaultStrategyAddr",
          "type": "address"
        },
        {
          "indexed": false,
          "internalType": "bool",
          "name": "allocationAllowed",
          "type": "bool"
        },
        {
          "indexed": false,
          "internalType": "uint8",
          "name": "allocatePercentage",
          "type": "uint8"
        },
        {
          "indexed": false,
          "internalType": "address",
          "name": "buyBackAddr",
          "type": "address"
        },
        {
          "indexed": false,
          "internalType": "bool",
          "name": "rebaseAllowed",
          "type": "bool"
        }
      ],
      "name": "CollateralAdded",
      "type": "event"
    },
    {
      "anonymous": false,
      "inputs": [
        {
          "indexed": true,
          "internalType": "address",
          "name": "collateralAddr",
          "type": "address"
        },
        {
          "indexed": true,
          "internalType": "address",
          "name": "depositStrategyAddr",
          "type": "address"
        },
        {
          "indexed": false,
          "internalType": "uint256",
          "name": "allocateAmount",
          "type": "uint256"
        }
      ],
      "name": "CollateralAllocated",
      "type": "event"
    },
    {
      "anonymous": false,
      "inputs": [
        {
          "indexed": true,
          "internalType": "address",
          "name": "collateralAddr",
          "type": "address"
        },
        {
          "indexed": false,
          "internalType": "bool",
          "name": "addded",
          "type": "bool"
        },
        {
          "indexed": false,
          "internalType": "address",
          "name": "defaultStrategyAddr",
          "type": "address"
        },
        {
          "indexed": false,
          "internalType": "bool",
          "name": "allocationAllowed",
          "type": "bool"
        },
        {
          "indexed": false,
          "internalType": "uint8",
          "name": "allocatePercentage",
          "type": "uint8"
        },
        {
          "indexed": false,
          "internalType": "address",
          "name": "buyBackAddr",
          "type": "address"
        },
        {
          "indexed": false,
          "internalType": "bool",
          "name": "rebaseAllowed",
          "type": "bool"
        }
      ],
      "name": "CollateralChanged",
      "type": "event"
    },
    {
      "anonymous": false,
      "inputs": [
        {
          "indexed": true,
          "internalType": "bool",
          "name": "permission",
          "type": "bool"
        }
      ],
      "name": "MintRedeemPermssionChanged",
      "type": "event"
    },
    {
      "anonymous": false,
      "inputs": [
        {
          "indexed": true,
          "internalType": "address",
          "name": "previousOwner",
          "type": "address"
        },
        {
          "indexed": true,
          "internalType": "address",
          "name": "newOwner",
          "type": "address"
        }
      ],
      "name": "OwnershipTransferred",
      "type": "event"
    },
    {
      "anonymous": false,
      "inputs": [
        {
          "indexed": true,
          "internalType": "uint256",
          "name": "oldSupply",
          "type": "uint256"
        },
        {
          "indexed": true,
          "internalType": "uint256",
          "name": "newSupply",
          "type": "uint256"
        }
      ],
      "name": "Rebase",
      "type": "event"
    },
    {
      "anonymous": false,
      "inputs": [
        {
          "indexed": true,
          "internalType": "bytes32",
          "name": "role",
          "type": "bytes32"
        },
        {
          "indexed": true,
          "internalType": "bytes32",
          "name": "previousAdminRole",
          "type": "bytes32"
        },
        {
          "indexed": true,
          "internalType": "bytes32",
          "name": "newAdminRole",
          "type": "bytes32"
        }
      ],
      "name": "RoleAdminChanged",
      "type": "event"
    },
    {
      "anonymous": false,
      "inputs": [
        {
          "indexed": true,
          "internalType": "bytes32",
          "name": "role",
          "type": "bytes32"
        },
        {
          "indexed": true,
          "internalType": "address",
          "name": "account",
          "type": "address"
        },
        {
          "indexed": true,
          "internalType": "address",
          "name": "sender",
          "type": "address"
        }
      ],
      "name": "RoleGranted",
      "type": "event"
    },
    {
      "anonymous": false,
      "inputs": [
        {
          "indexed": true,
          "internalType": "bytes32",
          "name": "role",
          "type": "bytes32"
        },
        {
          "indexed": true,
          "internalType": "address",
          "name": "account",
          "type": "address"
        },
        {
          "indexed": true,
          "internalType": "address",
          "name": "sender",
          "type": "address"
        }
      ],
      "name": "RoleRevoked",
      "type": "event"
    },
    {
      "anonymous": false,
      "inputs": [
        {
          "indexed": false,
          "internalType": "address",
          "name": "strategyAddr",
          "type": "address"
        },
        {
          "indexed": false,
          "internalType": "bool",
          "name": "added",
          "type": "bool"
        }
      ],
      "name": "StrategyAdded",
      "type": "event"
    },
    {
      "anonymous": false,
      "inputs": [
        {
          "indexed": true,
          "internalType": "bool",
          "name": "swapfeeInAllowed",
          "type": "bool"
        },
        {
          "indexed": true,
          "internalType": "bool",
          "name": "swapfeeOutAllowed",
          "type": "bool"
        }
      ],
      "name": "SwapFeeInOutPermissionChanged",
      "type": "event"
    },
    {
      "anonymous": false,
      "inputs": [
        {
          "indexed": true,
          "internalType": "address",
          "name": "wallet",
          "type": "address"
        },
        {
          "indexed": true,
          "internalType": "uint256",
          "name": "USDsAmt",
          "type": "uint256"
        },
        {
          "indexed": false,
          "internalType": "uint256",
          "name": "collateralAmt",
          "type": "uint256"
        },
        {
          "indexed": false,
          "internalType": "uint256",
          "name": "SPAsAmt",
          "type": "uint256"
        },
        {
          "indexed": false,
          "internalType": "uint256",
          "name": "feeAmt",
          "type": "uint256"
        }
      ],
      "name": "USDsMinted",
      "type": "event"
    },
    {
      "anonymous": false,
      "inputs": [
        {
          "indexed": true,
          "internalType": "address",
          "name": "wallet",
          "type": "address"
        },
        {
          "indexed": true,
          "internalType": "uint256",
          "name": "USDsAmt",
          "type": "uint256"
        },
        {
          "indexed": false,
          "internalType": "uint256",
          "name": "collateralAmt",
          "type": "uint256"
        },
        {
          "indexed": false,
          "internalType": "uint256",
          "name": "SPAsAmt",
          "type": "uint256"
        },
        {
          "indexed": false,
          "internalType": "uint256",
          "name": "feeAmt",
          "type": "uint256"
        }
      ],
      "name": "USDsRedeemed",
      "type": "event"
    },
    {
      "anonymous": false,
      "inputs": [
        {
          "indexed": false,
          "internalType": "uint256",
          "name": "_chiInit",
          "type": "uint256"
        },
        {
          "indexed": false,
          "internalType": "uint32",
          "name": "_chi_beta",
          "type": "uint32"
        },
        {
          "indexed": false,
          "internalType": "uint32",
          "name": "_chi_gamma",
          "type": "uint32"
        },
        {
          "indexed": false,
          "internalType": "uint32",
          "name": "_swapFee_p",
          "type": "uint32"
        },
        {
          "indexed": false,
          "internalType": "uint32",
          "name": "_swapFee_theta",
          "type": "uint32"
        },
        {
          "indexed": false,
          "internalType": "uint32",
          "name": "_swapFee_a",
          "type": "uint32"
        },
        {
          "indexed": false,
          "internalType": "uint32",
          "name": "_swapFee_A",
          "type": "uint32"
        }
      ],
      "name": "parametersUpdated",
      "type": "event"
    },
    {
      "inputs": [],
      "name": "DEFAULT_ADMIN_ROLE",
      "outputs": [
        {
          "internalType": "bytes32",
          "name": "",
          "type": "bytes32"
        }
      ],
      "stateMutability": "view",
      "type": "function"
    },
    {
      "inputs": [],
      "name": "REBASER_ROLE",
      "outputs": [
        {
          "internalType": "bytes32",
          "name": "",
          "type": "bytes32"
        }
      ],
      "stateMutability": "view",
      "type": "function"
    },
    {
      "inputs": [],
      "name": "SPAaddr",
      "outputs": [
        {
          "internalType": "address",
          "name": "",
          "type": "address"
        }
      ],
      "stateMutability": "view",
      "type": "function"
    },
    {
      "inputs": [],
      "name": "SPAburnt",
      "outputs": [
        {
          "internalType": "uint256",
          "name": "",
          "type": "uint256"
        }
      ],
      "stateMutability": "view",
      "type": "function"
    },
    {
      "inputs": [],
      "name": "SPAminted",
      "outputs": [
        {
          "internalType": "uint256",
          "name": "",
          "type": "uint256"
        }
      ],
      "stateMutability": "view",
      "type": "function"
    },
    {
      "inputs": [],
      "name": "SPAvault",
      "outputs": [
        {
          "internalType": "address",
          "name": "",
          "type": "address"
        }
      ],
      "stateMutability": "view",
      "type": "function"
    },
    {
      "inputs": [],
      "name": "USDsAddr",
      "outputs": [
        {
          "internalType": "address",
          "name": "",
          "type": "address"
        }
      ],
      "stateMutability": "view",
      "type": "function"
    },
    {
      "inputs": [
        {
          "internalType": "address",
          "name": "_collateralAddr",
          "type": "address"
        },
        {
          "internalType": "address",
          "name": "_defaultStrategyAddr",
          "type": "address"
        },
        {
          "internalType": "bool",
          "name": "_allocationAllowed",
          "type": "bool"
        },
        {
          "internalType": "uint8",
          "name": "_allocatePercentage",
          "type": "uint8"
        },
        {
          "internalType": "address",
          "name": "_buyBackAddr",
          "type": "address"
        },
        {
          "internalType": "bool",
          "name": "_rebaseAllowed",
          "type": "bool"
        }
      ],
      "name": "addCollateral",
      "outputs": [],
      "stateMutability": "nonpayable",
      "type": "function"
    },
    {
      "inputs": [
        {
          "internalType": "address",
          "name": "_strategyAddr",
          "type": "address"
        }
      ],
      "name": "addStrategy",
      "outputs": [],
      "stateMutability": "nonpayable",
      "type": "function"
    },
    {
      "inputs": [],
      "name": "allocate",
      "outputs": [],
      "stateMutability": "nonpayable",
      "type": "function"
    },
    {
      "inputs": [],
      "name": "allocatePercentage_prec",
      "outputs": [
        {
          "internalType": "uint8",
          "name": "",
          "type": "uint8"
        }
      ],
      "stateMutability": "view",
      "type": "function"
    },
    {
      "inputs": [],
      "name": "allocationAllowed",
      "outputs": [
        {
          "internalType": "bool",
          "name": "",
          "type": "bool"
        }
      ],
      "stateMutability": "view",
      "type": "function"
    },
    {
      "inputs": [],
      "name": "chiInit",
      "outputs": [
        {
          "internalType": "uint256",
          "name": "",
          "type": "uint256"
        }
      ],
      "stateMutability": "view",
      "type": "function"
    },
    {
      "inputs": [],
      "name": "chi_alpha",
      "outputs": [
        {
          "internalType": "uint32",
          "name": "",
          "type": "uint32"
        }
      ],
      "stateMutability": "view",
      "type": "function"
    },
    {
      "inputs": [],
      "name": "chi_alpha_prec",
      "outputs": [
        {
          "internalType": "uint64",
          "name": "",
          "type": "uint64"
        }
      ],
      "stateMutability": "view",
      "type": "function"
    },
    {
      "inputs": [],
      "name": "chi_beta",
      "outputs": [
        {
          "internalType": "uint32",
          "name": "",
          "type": "uint32"
        }
      ],
      "stateMutability": "view",
      "type": "function"
    },
    {
      "inputs": [],
      "name": "chi_beta_prec",
      "outputs": [
        {
          "internalType": "uint16",
          "name": "",
          "type": "uint16"
        }
      ],
      "stateMutability": "view",
      "type": "function"
    },
    {
      "inputs": [],
      "name": "chi_gamma",
      "outputs": [
        {
          "internalType": "uint32",
          "name": "",
          "type": "uint32"
        }
      ],
      "stateMutability": "view",
      "type": "function"
    },
    {
      "inputs": [],
      "name": "chi_gamma_prec",
      "outputs": [
        {
          "internalType": "uint16",
          "name": "",
          "type": "uint16"
        }
      ],
      "stateMutability": "view",
      "type": "function"
    },
    {
      "inputs": [],
      "name": "chi_prec",
      "outputs": [
        {
          "internalType": "uint64",
          "name": "",
          "type": "uint64"
        }
      ],
      "stateMutability": "view",
      "type": "function"
    },
    {
      "inputs": [],
      "name": "collateralRatio",
      "outputs": [
        {
          "internalType": "uint256",
          "name": "ratio",
          "type": "uint256"
        }
      ],
      "stateMutability": "view",
      "type": "function"
    },
    {
      "inputs": [
        {
          "internalType": "address",
          "name": "",
          "type": "address"
        }
      ],
      "name": "collateralsInfo",
      "outputs": [
        {
          "internalType": "address",
          "name": "collateralAddr",
          "type": "address"
        },
        {
          "internalType": "bool",
          "name": "added",
          "type": "bool"
        },
        {
          "internalType": "address",
          "name": "defaultStrategyAddr",
          "type": "address"
        },
        {
          "internalType": "bool",
          "name": "allocationAllowed",
          "type": "bool"
        },
        {
          "internalType": "uint8",
          "name": "allocatePercentage",
          "type": "uint8"
        },
        {
          "internalType": "address",
          "name": "buyBackAddr",
          "type": "address"
        },
        {
          "internalType": "bool",
          "name": "rebaseAllowed",
          "type": "bool"
        }
      ],
      "stateMutability": "view",
      "type": "function"
    },
    {
      "inputs": [],
      "name": "feeVault",
      "outputs": [
        {
          "internalType": "address",
          "name": "",
          "type": "address"
        }
      ],
      "stateMutability": "view",
      "type": "function"
    },
    {
      "inputs": [
        {
          "internalType": "bytes32",
          "name": "role",
          "type": "bytes32"
        }
      ],
      "name": "getRoleAdmin",
      "outputs": [
        {
          "internalType": "bytes32",
          "name": "",
          "type": "bytes32"
        }
      ],
      "stateMutability": "view",
      "type": "function"
    },
    {
      "inputs": [
        {
          "internalType": "bytes32",
          "name": "role",
          "type": "bytes32"
        },
        {
          "internalType": "uint256",
          "name": "index",
          "type": "uint256"
        }
      ],
      "name": "getRoleMember",
      "outputs": [
        {
          "internalType": "address",
          "name": "",
          "type": "address"
        }
      ],
      "stateMutability": "view",
      "type": "function"
    },
    {
      "inputs": [
        {
          "internalType": "bytes32",
          "name": "role",
          "type": "bytes32"
        }
      ],
      "name": "getRoleMemberCount",
      "outputs": [
        {
          "internalType": "uint256",
          "name": "",
          "type": "uint256"
        }
      ],
      "stateMutability": "view",
      "type": "function"
    },
    {
      "inputs": [
        {
          "internalType": "bytes32",
          "name": "role",
          "type": "bytes32"
        },
        {
          "internalType": "address",
          "name": "account",
          "type": "address"
        }
      ],
      "name": "grantRole",
      "outputs": [],
      "stateMutability": "nonpayable",
      "type": "function"
    },
    {
      "inputs": [
        {
          "internalType": "bytes32",
          "name": "role",
          "type": "bytes32"
        },
        {
          "internalType": "address",
          "name": "account",
          "type": "address"
        }
      ],
      "name": "hasRole",
      "outputs": [
        {
          "internalType": "bool",
          "name": "",
          "type": "bool"
        }
      ],
      "stateMutability": "view",
      "type": "function"
    },
    {
      "inputs": [
        {
          "internalType": "address",
          "name": "_SPAaddr",
          "type": "address"
        },
        {
          "internalType": "address",
          "name": "_vaultCoreToolsAddr",
          "type": "address"
        },
        {
          "internalType": "address",
          "name": "_feeVault",
          "type": "address"
        }
      ],
      "name": "initialize",
      "outputs": [],
      "stateMutability": "nonpayable",
      "type": "function"
    },
    {
      "inputs": [],
      "name": "mintRedeemAllowed",
      "outputs": [
        {
          "internalType": "bool",
          "name": "",
          "type": "bool"
        }
      ],
      "stateMutability": "view",
      "type": "function"
    },
    {
      "inputs": [
        {
          "internalType": "address",
          "name": "collateralAddr",
          "type": "address"
        },
        {
          "internalType": "uint256",
          "name": "collateralAmt",
          "type": "uint256"
        },
        {
          "internalType": "uint256",
          "name": "slippageUSDs",
          "type": "uint256"
        },
        {
          "internalType": "uint256",
          "name": "slippageSPA",
          "type": "uint256"
        },
        {
          "internalType": "uint256",
          "name": "deadline",
          "type": "uint256"
        }
      ],
      "name": "mintWithColla",
      "outputs": [],
      "stateMutability": "nonpayable",
      "type": "function"
    },
    {
      "inputs": [
        {
          "internalType": "address",
          "name": "collateralAddr",
          "type": "address"
        },
        {
          "internalType": "uint256",
          "name": "SPAamt",
          "type": "uint256"
        },
        {
          "internalType": "uint256",
          "name": "slippageUSDs",
          "type": "uint256"
        },
        {
          "internalType": "uint256",
          "name": "slippageCollateral",
          "type": "uint256"
        },
        {
          "internalType": "uint256",
          "name": "deadline",
          "type": "uint256"
        }
      ],
      "name": "mintWithSPA",
      "outputs": [],
      "stateMutability": "nonpayable",
      "type": "function"
    },
    {
      "inputs": [
        {
          "internalType": "address",
          "name": "collateralAddr",
          "type": "address"
        },
        {
          "internalType": "uint256",
          "name": "USDsMintAmt",
          "type": "uint256"
        },
        {
          "internalType": "uint256",
          "name": "slippageCollateral",
          "type": "uint256"
        },
        {
          "internalType": "uint256",
          "name": "slippageSPA",
          "type": "uint256"
        },
        {
          "internalType": "uint256",
          "name": "deadline",
          "type": "uint256"
        }
      ],
      "name": "mintWithUSDs",
      "outputs": [],
      "stateMutability": "nonpayable",
      "type": "function"
    },
    {
      "inputs": [],
      "name": "oracleAddr",
      "outputs": [
        {
          "internalType": "address",
          "name": "",
          "type": "address"
        }
      ],
      "stateMutability": "view",
      "type": "function"
    },
    {
      "inputs": [],
      "name": "owner",
      "outputs": [
        {
          "internalType": "address",
          "name": "",
          "type": "address"
        }
      ],
      "stateMutability": "view",
      "type": "function"
    },
    {
      "inputs": [],
      "name": "rebase",
      "outputs": [],
      "stateMutability": "nonpayable",
      "type": "function"
    },
    {
      "inputs": [],
      "name": "rebaseAllowed",
      "outputs": [
        {
          "internalType": "bool",
          "name": "",
          "type": "bool"
        }
      ],
      "stateMutability": "view",
      "type": "function"
    },
    {
      "inputs": [
        {
          "internalType": "address",
          "name": "collateralAddr",
          "type": "address"
        },
        {
          "internalType": "uint256",
          "name": "USDsAmt",
          "type": "uint256"
        },
        {
          "internalType": "uint256",
          "name": "slippageCollat",
          "type": "uint256"
        },
        {
          "internalType": "uint256",
          "name": "slippageSPA",
          "type": "uint256"
        },
        {
          "internalType": "uint256",
          "name": "deadline",
          "type": "uint256"
        }
      ],
      "name": "redeem",
      "outputs": [],
      "stateMutability": "nonpayable",
      "type": "function"
    },
    {
      "inputs": [],
      "name": "renounceOwnership",
      "outputs": [],
      "stateMutability": "nonpayable",
      "type": "function"
    },
    {
      "inputs": [
        {
          "internalType": "bytes32",
          "name": "role",
          "type": "bytes32"
        },
        {
          "internalType": "address",
          "name": "account",
          "type": "address"
        }
      ],
      "name": "renounceRole",
      "outputs": [],
      "stateMutability": "nonpayable",
      "type": "function"
    },
    {
      "inputs": [
        {
          "internalType": "bytes32",
          "name": "role",
          "type": "bytes32"
        },
        {
          "internalType": "address",
          "name": "account",
          "type": "address"
        }
      ],
      "name": "revokeRole",
      "outputs": [],
      "stateMutability": "nonpayable",
      "type": "function"
    },
    {
      "inputs": [],
      "name": "startBlockHeight",
      "outputs": [
        {
          "internalType": "uint256",
          "name": "",
          "type": "uint256"
        }
      ],
      "stateMutability": "view",
      "type": "function"
    },
    {
      "inputs": [
        {
          "internalType": "address",
          "name": "",
          "type": "address"
        }
      ],
      "name": "strategiesInfo",
      "outputs": [
        {
          "internalType": "address",
          "name": "strategyAddr",
          "type": "address"
        },
        {
          "internalType": "bool",
          "name": "added",
          "type": "bool"
        }
      ],
      "stateMutability": "view",
      "type": "function"
    },
    {
      "inputs": [],
      "name": "swapFee_A",
      "outputs": [
        {
          "internalType": "uint32",
          "name": "",
          "type": "uint32"
        }
      ],
      "stateMutability": "view",
      "type": "function"
    },
    {
      "inputs": [],
      "name": "swapFee_A_prec",
      "outputs": [
        {
          "internalType": "uint16",
          "name": "",
          "type": "uint16"
        }
      ],
      "stateMutability": "view",
      "type": "function"
    },
    {
      "inputs": [],
      "name": "swapFee_a",
      "outputs": [
        {
          "internalType": "uint32",
          "name": "",
          "type": "uint32"
        }
      ],
      "stateMutability": "view",
      "type": "function"
    },
    {
      "inputs": [],
      "name": "swapFee_a_prec",
      "outputs": [
        {
          "internalType": "uint16",
          "name": "",
          "type": "uint16"
        }
      ],
      "stateMutability": "view",
      "type": "function"
    },
    {
      "inputs": [],
      "name": "swapFee_p",
      "outputs": [
        {
          "internalType": "uint32",
          "name": "",
          "type": "uint32"
        }
      ],
      "stateMutability": "view",
      "type": "function"
    },
    {
      "inputs": [],
      "name": "swapFee_p_prec",
      "outputs": [
        {
          "internalType": "uint16",
          "name": "",
          "type": "uint16"
        }
      ],
      "stateMutability": "view",
      "type": "function"
    },
    {
      "inputs": [],
      "name": "swapFee_prec",
      "outputs": [
        {
          "internalType": "uint64",
          "name": "",
          "type": "uint64"
        }
      ],
      "stateMutability": "view",
      "type": "function"
    },
    {
      "inputs": [],
      "name": "swapFee_theta",
      "outputs": [
        {
          "internalType": "uint32",
          "name": "",
          "type": "uint32"
        }
      ],
      "stateMutability": "view",
      "type": "function"
    },
    {
      "inputs": [],
      "name": "swapFee_theta_prec",
      "outputs": [
        {
          "internalType": "uint16",
          "name": "",
          "type": "uint16"
        }
      ],
      "stateMutability": "view",
      "type": "function"
    },
    {
      "inputs": [],
      "name": "swapfeeInAllowed",
      "outputs": [
        {
          "internalType": "bool",
          "name": "",
          "type": "bool"
        }
      ],
      "stateMutability": "view",
      "type": "function"
    },
    {
      "inputs": [],
      "name": "swapfeeOutAllowed",
      "outputs": [
        {
          "internalType": "bool",
          "name": "",
          "type": "bool"
        }
      ],
      "stateMutability": "view",
      "type": "function"
    },
    {
      "inputs": [],
      "name": "totalValueInStrategies",
      "outputs": [
        {
          "internalType": "uint256",
          "name": "value",
          "type": "uint256"
        }
      ],
      "stateMutability": "view",
      "type": "function"
    },
    {
      "inputs": [],
      "name": "totalValueInVault",
      "outputs": [
        {
          "internalType": "uint256",
          "name": "value",
          "type": "uint256"
        }
      ],
      "stateMutability": "view",
      "type": "function"
    },
    {
      "inputs": [],
      "name": "totalValueLocked",
      "outputs": [
        {
          "internalType": "uint256",
          "name": "value",
          "type": "uint256"
        }
      ],
      "stateMutability": "view",
      "type": "function"
    },
    {
      "inputs": [
        {
          "internalType": "address",
          "name": "newOwner",
          "type": "address"
        }
      ],
      "name": "transferOwnership",
      "outputs": [],
      "stateMutability": "nonpayable",
      "type": "function"
    },
    {
      "inputs": [
        {
          "internalType": "bool",
          "name": "_allocationAllowed",
          "type": "bool"
        }
      ],
      "name": "updateAllocationPermission",
      "outputs": [],
      "stateMutability": "nonpayable",
      "type": "function"
    },
    {
      "inputs": [
        {
          "internalType": "address",
          "name": "_collateralAddr",
          "type": "address"
        },
        {
          "internalType": "address",
          "name": "_defaultStrategyAddr",
          "type": "address"
        },
        {
          "internalType": "bool",
          "name": "_allocationAllowed",
          "type": "bool"
        },
        {
          "internalType": "uint8",
          "name": "_allocatePercentage",
          "type": "uint8"
        },
        {
          "internalType": "address",
          "name": "_buyBackAddr",
          "type": "address"
        },
        {
          "internalType": "bool",
          "name": "_rebaseAllowed",
          "type": "bool"
        }
      ],
      "name": "updateCollateralInfo",
      "outputs": [],
      "stateMutability": "nonpayable",
      "type": "function"
    },
    {
      "inputs": [
        {
          "internalType": "bool",
          "name": "_mintRedeemAllowed",
          "type": "bool"
        }
      ],
      "name": "updateMintBurnPermission",
      "outputs": [],
      "stateMutability": "nonpayable",
      "type": "function"
    },
    {
      "inputs": [
        {
          "internalType": "address",
          "name": "_oracleAddr",
          "type": "address"
        }
      ],
      "name": "updateOracleAddress",
      "outputs": [],
      "stateMutability": "nonpayable",
      "type": "function"
    },
    {
      "inputs": [
        {
          "internalType": "uint256",
          "name": "_chiInit",
          "type": "uint256"
        },
        {
          "internalType": "uint32",
          "name": "_chi_beta",
          "type": "uint32"
        },
        {
          "internalType": "uint32",
          "name": "_chi_gamma",
          "type": "uint32"
        },
        {
          "internalType": "uint32",
          "name": "_swapFee_p",
          "type": "uint32"
        },
        {
          "internalType": "uint32",
          "name": "_swapFee_theta",
          "type": "uint32"
        },
        {
          "internalType": "uint32",
          "name": "_swapFee_a",
          "type": "uint32"
        },
        {
          "internalType": "uint32",
          "name": "_swapFee_A",
          "type": "uint32"
        }
      ],
      "name": "updateParameters",
      "outputs": [],
      "stateMutability": "nonpayable",
      "type": "function"
    },
    {
      "inputs": [
        {
          "internalType": "bool",
          "name": "_swapfeeInAllowed",
          "type": "bool"
        },
        {
          "internalType": "bool",
          "name": "_swapfeeOutAllowed",
          "type": "bool"
        }
      ],
      "name": "updateSwapInOutFeePermission",
      "outputs": [],
      "stateMutability": "nonpayable",
      "type": "function"
    },
    {
      "inputs": [
        {
          "internalType": "address",
          "name": "_USDsAddr",
          "type": "address"
        }
      ],
      "name": "updateUSDsAddress",
      "outputs": [],
      "stateMutability": "nonpayable",
      "type": "function"
    },
    {
      "inputs": [],
      "name": "vaultCoreToolsAddr",
      "outputs": [
        {
          "internalType": "address",
          "name": "",
          "type": "address"
        }
      ],
      "stateMutability": "view",
      "type": "function"
    }
  ],
  "bytecode": "608060405234801561001057600080fd5b50615427806100206000396000f3fe608060405234801561001057600080fd5b50600436106103e65760003560e01c80637e4e61d71161020a578063abaa991611610125578063d547741f116100b8578063edbbdb9711610087578063edbbdb9714610a2c578063f2fde38b14610a34578063f7023bb614610a5a578063faeddc9014610a80578063fc9dc4ff14610a88576103e6565b8063d547741f146109f0578063d8ea64d614610640578063e1da538014610a1c578063ec18154e14610a24576103e6565b8063bcb083c1116100f4578063bcb083c11461096d578063c0c53b8b14610975578063c6d15e1b146109ad578063ca15c873146109d3576103e6565b8063abaa991614610955578063af14052c1461095d578063b4eae1cb14610965578063b845a129146103eb576103e6565b806396577a1a1161019d578063a217fddf1161016c578063a217fddf146108b8578063a49fdb49146108c0578063a9e3458c146108fe578063ab1f37fa14610906576103e6565b806396577a1a1461085757806396fd7db6146108a0578063a09caa18146108a8578063a0fda95e146108b0576103e6565b80638da5cb5b116101d95780638da5cb5b146107e15780638e5f2898146107e95780639010d07c1461080857806391d148541461082b576103e6565b80637e4e61d71461075d5780638177b4a61461064057806383eb70e5146107655780638d52fec61461076d576103e6565b806347be1c3e116103055780636707d12e11610298578063715018a611610267578063715018a614610735578063723863711461073d57806377f0c615146107455780637bd14e321461074d5780637e428dac14610755576103e6565b80636707d12e146106d1578063688a90651461070f57806368ee3591146106405780637080460f1461072d576103e6565b806357635e91116102d457806357635e91146106a557806358d7be8f146106405780635953e197146106c15780635c68308d146106c9576103e6565b806347be1c3e146106405780634aba3121146106405780634b24e3d31461065f5780635109ef1c1461069d576103e6565b80632f2ff15d1161037d5780633881d70c1161034c5780633881d70c146105b75780633c533b56146105f55780633f521f8c14610614578063478222c21461061c576103e6565b80632f2ff15d1461055757806332e197f4146103eb57806336568abe1461058357806337d87d70146105af576103e6565b806317852264116103b957806317852264146104d9578063223e5479146104f3578063248a9ca314610519578063276545fe14610536576103e6565b806306ec8cd7146103eb57806309f2cdcd146104105780630d4b927f1461046157806314f4e97414610488575b600080fd5b6103f3610a90565b6040805167ffffffffffffffff9092168252519081900360200190f35b61045f600480360360c081101561042657600080fd5b506001600160a01b0381358116916020810135821691604082013515159160ff606082013516916080820135169060a001351515610a99565b005b61045f6004803603604081101561047757600080fd5b508035151590602001351515610f61565b61045f600480360360e081101561049e57600080fd5b5080359063ffffffff602082013581169160408101358216916060820135811691608081013582169160a082013581169160c0013516611036565b6104e1611267565b60408051918252519081900360200190f35b61045f6004803603602081101561050957600080fd5b50356001600160a01b0316611336565b6104e16004803603602081101561052f57600080fd5b50356114d3565b61053e6114e8565b6040805163ffffffff9092168252519081900360200190f35b61045f6004803603604081101561056d57600080fd5b50803590602001356001600160a01b0316611500565b61045f6004803603604081101561059957600080fd5b50803590602001356001600160a01b031661156c565b61053e6115cd565b61045f600480360360a08110156105cd57600080fd5b506001600160a01b0381351690602081013590604081013590606081013590608001356115e0565b61045f6004803603602081101561060b57600080fd5b5035151561173f565b61053e6117e5565b6106246117f9565b604080516001600160a01b039092168252519081900360200190f35b610648611808565b6040805161ffff9092168252519081900360200190f35b61045f600480360360a081101561067557600080fd5b506001600160a01b03813516906020810135906040810135906060810135906080013561180e565b6104e1611961565b6106ad611967565b604080519115158252519081900360200190f35b610624611970565b61062461197f565b61045f600480360360a08110156106e757600080fd5b506001600160a01b03813516906020810135906040810135906060810135906080013561198e565b610717611ae1565b6040805160ff9092168252519081900360200190f35b6106ad611ae6565b61045f611af7565b61053e611ba3565b6106ad611baf565b610624611bbe565b6104e1611bcd565b610624611c91565b6104e1611ca0565b6107936004803603602081101561078357600080fd5b50356001600160a01b0316611cc4565b604080516001600160a01b039889168152961515602088015294871686860152921515606086015260ff909116608085015290931660a083015291151560c082015290519081900360e00190f35b610624611d18565b61045f600480360360208110156107ff57600080fd5b50351515611d27565b6106246004803603604081101561081e57600080fd5b5080359060200135611dd8565b6106ad6004803603604081101561084157600080fd5b50803590602001356001600160a01b0316611df9565b61087d6004803603602081101561086d57600080fd5b50356001600160a01b0316611e11565b604080516001600160a01b03909316835290151560208301528051918290030190f35b61053e611e38565b6106ad611e44565b61053e611e54565b6104e1611e67565b61045f600480360360a08110156108d657600080fd5b506001600160a01b038135169060208101359060408101359060608101359060800135611e6c565b6104e1611fbc565b61045f600480360360c081101561091c57600080fd5b506001600160a01b0381358116916020810135821691604082013515159160ff606082013516916080820135169060a001351515611fc2565b61045f6121ed565b61045f6125a3565b6104e1612909565b610624612ab1565b61045f6004803603606081101561098b57600080fd5b506001600160a01b038135811691602081013582169160409091013516612ac7565b61045f600480360360208110156109c357600080fd5b50356001600160a01b0316612c83565b6104e1600480360360208110156109e957600080fd5b5035612d07565b61045f60048036036040811015610a0657600080fd5b50803590602001356001600160a01b0316612d1e565b61053e612d77565b6104e1612d8a565b6106ad612daa565b61045f60048036036020811015610a4a57600080fd5b50356001600160a01b0316612db8565b61045f60048036036020811015610a7057600080fd5b50356001600160a01b0316612ebb565b6104e1612f3f565b6104e1612f45565b64e8d4a5100081565b610aa1612f4b565b6001600160a01b0316610ab2611d18565b6001600160a01b031614610afb576040805162461bcd60e51b8152602060048201819052602482015260008051602061531f833981519152604482015290519081900360640190fd5b6001600160a01b038616600090815260d56020526040902054600160a01b900460ff1615610b63576040805162461bcd60e51b815260206004820152601060248201526f10dbdb1b185d195c985b08185919195960821b604482015290519081900360640190fd5b6012866001600160a01b031663313ce5676040518163ffffffff1660e01b815260040160206040518083038186803b158015610b9e57600080fd5b505afa158015610bb2573d6000803e3d6000fd5b505050506040513d6020811015610bc857600080fd5b505160ff161115610c0a5760405162461bcd60e51b815260040180806020018281038252602c81526020018061536d602c913960400191505060405180910390fd5b600060d56000886001600160a01b03166001600160a01b031681526020019081526020016000209050868160000160006101000a8154816001600160a01b0302191690836001600160a01b0316021790555060018160000160146101000a81548160ff021916908315150217905550858160010160006101000a8154816001600160a01b0302191690836001600160a01b03160217905550848160010160146101000a81548160ff021916908315150217905550838160010160156101000a81548160ff021916908360ff160217905550828160020160006101000a8154816001600160a01b0302191690836001600160a01b03160217905550818160020160146101000a81548160ff02191690831515021790555060d78190806001815401808255809150506001900390600052602060002090600302016000909190919091506000820160009054906101000a90046001600160a01b03168160000160006101000a8154816001600160a01b0302191690836001600160a01b031602179055506000820160149054906101000a900460ff168160000160146101000a81548160ff0219169083151502179055506001820160009054906101000a90046001600160a01b03168160010160006101000a8154816001600160a01b0302191690836001600160a01b031602179055506001820160149054906101000a900460ff168160010160146101000a81548160ff0219169083151502179055506001820160159054906101000a900460ff168160010160156101000a81548160ff021916908360ff1602179055506002820160009054906101000a90046001600160a01b03168160020160006101000a8154816001600160a01b0302191690836001600160a01b031602179055506002820160149054906101000a900460ff168160020160146101000a81548160ff0219169083151502179055505050866001600160a01b03167fb74901440f0e5d23bd60355bf8d84403df003dc885ba6e8759712f8a34db5e598260000160149054906101000a900460ff168888888888604051808715158152602001866001600160a01b0316815260200185151581526020018460ff168152602001836001600160a01b031681526020018215158152602001965050505050505060405180910390a250505050505050565b610f69612f4b565b6001600160a01b0316610f7a611d18565b6001600160a01b031614610fc3576040805162461bcd60e51b8152602060048201819052602482015260008051602061531f833981519152604482015290519081900360640190fd5b60c9805463ff0000001916630100000084151581029190911764ff0000000019166401000000008415158102919091179283905560405160ff918404821615159392909204161515907f8e363288229795661dc4cd7765bb22af3b1ddb395a07cd4894d365d6ebd5d67190600090a35050565b61103e612f4b565b6001600160a01b031661104f611d18565b6001600160a01b031614611098576040805162461bcd60e51b8152602060048201819052602482015260008051602061531f833981519152604482015290519081900360640190fd5b8660d3819055508560d460006101000a81548163ffffffff021916908363ffffffff1602179055508460d460046101000a81548163ffffffff021916908363ffffffff1602179055508360d460086101000a81548163ffffffff021916908363ffffffff1602179055508260d4600c6101000a81548163ffffffff021916908363ffffffff1602179055508160d460106101000a81548163ffffffff021916908363ffffffff1602179055508060d460146101000a81548163ffffffff021916908363ffffffff1602179055507f54ce0b11ef28e3402c63cfc90282c636bb07cce2ec4a737dbd0b2fb60b7158f760d35460d460009054906101000a900463ffffffff1660d460049054906101000a900463ffffffff1660d460089054906101000a900463ffffffff1660d4600c9054906101000a900463ffffffff1660d460109054906101000a900463ffffffff1660d460149054906101000a900463ffffffff16604051808881526020018763ffffffff1681526020018663ffffffff1681526020018563ffffffff1681526020018463ffffffff1681526020018363ffffffff1681526020018263ffffffff16815260200197505050505050505060405180910390a150505050505050565b6000805b60d7548110156113325761127d61509c565b60d7828154811061128a57fe5b60009182526020918290206040805160e081018252600390930290910180546001600160a01b0380821680865260ff600160a01b938490048116151597870197909752600184015480831695870195909552828504871615156060870152600160a81b9094048616608086015260029092015491821660a08501529004909216151560c082015291506113279061132090612f4f565b849061328a565b92505060010161126b565b5090565b61133e612f4b565b6001600160a01b031661134f611d18565b6001600160a01b031614611398576040805162461bcd60e51b8152602060048201819052602482015260008051602061531f833981519152604482015290519081900360640190fd5b6001600160a01b038116600090815260d66020526040902054600160a01b900460ff16156113fe576040805162461bcd60e51b815260206004820152600e60248201526d14dd1c985d1959de48185919195960921b604482015290519081900360640190fd5b6001600160a01b03808216600081815260d660209081526040808320805460ff60a01b196001600160a01b031991821687178116600160a01b908117845560d88054600181810183559190985284547f5320ad99a619a90804cd2efe3a5cf0ac1ac5c41ad9ff2c61cf699efdad77109690980180549094169790991696909617808355835487900460ff161515909602951694909417909355805193845290830193909352825190927f835a6c4fc865a810f7943cfca478cada6bf307d7dbd75892a046aee7ea3cc214928290030190a15050565b60009081526065602052604090206002015490565b60d45468010000000000000000900463ffffffff1681565b6000828152606560205260409020600201546115239061151e612f4b565b611df9565b61155e5760405162461bcd60e51b815260040180806020018281038252602f8152602001806150fb602f913960400191505060405180910390fd5b61156882826132e4565b5050565b611574612f4b565b6001600160a01b0316816001600160a01b0316146115c35760405162461bcd60e51b815260040180806020018281038252602f8152602001806153c3602f913960400191505060405180910390fd5b611568828261334d565b60d454600160801b900463ffffffff1681565b60c95460ff1661162e576040805162461bcd60e51b8152602060048201526014602482015273135a5b9d0809881c995919595b481c185d5cd95960621b604482015290519081900360640190fd5b60026097541415611674576040805162461bcd60e51b815260206004820152601f602482015260008051602061512a833981519152604482015290519081900360640190fd5b60026097556001600160a01b038516600090815260d56020526040902054600160a01b900460ff166116e4576040805162461bcd60e51b815260206004820152601460248201527310dbdb1b185d195c985b081b9bdd08185919195960621b604482015290519081900360640190fd5b600084116117235760405162461bcd60e51b81526004018080602001828103825260218152602001806151d06021913960400191505060405180910390fd5b61173385856000878787876133b6565b50506001609755505050565b611747612f4b565b6001600160a01b0316611758611d18565b6001600160a01b0316146117a1576040805162461bcd60e51b8152602060048201819052602482015260008051602061531f833981519152604482015290519081900360640190fd5b60c9805460ff1916821515179081905560405160ff9091161515907f4aa2f044c925ec4ad9ac60a30b437e605ba4b7c4827d423be239b10228df4a4d90600090a250565b60d454640100000000900463ffffffff1681565b60cd546001600160a01b031681565b61271081565b60c95460ff1661185c576040805162461bcd60e51b8152602060048201526014602482015273135a5b9d0809881c995919595b481c185d5cd95960621b604482015290519081900360640190fd5b600260975414156118a2576040805162461bcd60e51b815260206004820152601f602482015260008051602061512a833981519152604482015290519081900360640190fd5b60026097556001600160a01b038516600090815260d56020526040902054600160a01b900460ff16611912576040805162461bcd60e51b815260206004820152601460248201527310dbdb1b185d195c985b081b9bdd08185919195960621b604482015290519081900360640190fd5b600084116119515760405162461bcd60e51b81526004018080602001828103825260218152602001806151d06021913960400191505060405180910390fd5b61173385856001868689876133b6565b60d05481565b60c95460ff1681565b60ca546001600160a01b031681565b60cc546001600160a01b031681565b60c95460ff166119dc576040805162461bcd60e51b8152602060048201526014602482015273135a5b9d0809881c995919595b481c185d5cd95960621b604482015290519081900360640190fd5b60026097541415611a22576040805162461bcd60e51b815260206004820152601f602482015260008051602061512a833981519152604482015290519081900360640190fd5b60026097556001600160a01b038516600090815260d56020526040902054600160a01b900460ff16611a92576040805162461bcd60e51b815260206004820152601460248201527310dbdb1b185d195c985b081b9bdd08185919195960621b604482015290519081900360640190fd5b60008411611ad15760405162461bcd60e51b81526004018080602001828103825260218152602001806151d06021913960400191505060405180910390fd5b61173385856002868887876133b6565b606481565b60c954640100000000900460ff1681565b611aff612f4b565b6001600160a01b0316611b10611d18565b6001600160a01b031614611b59576040805162461bcd60e51b8152602060048201819052602482015260008051602061531f833981519152604482015290519081900360640190fd5b6033546040516000916001600160a01b0316907f8be0079c531659141344cd1fd0a4f28419497f9722a3daafe3b4186f6b6457e0908390a3603380546001600160a01b0319169055565b60d25463ffffffff1681565b60c95462010000900460ff1681565b60ce546001600160a01b031681565b6000805b60d75481101561133257611be361509c565b60d78281548110611bf057fe5b60009182526020918290206040805160e081018252600390930290910180546001600160a01b0380821680865260ff600160a01b938490048116151597870197909752600184015480831695870195909552828504871615156060870152600160a81b9094048616608086015260029092015491821660a08501529004909216151560c08201529150611c86906113209061377f565b925050600101611bd1565b60cb546001600160a01b031681565b7f5fde63b561377d1441afa201ff619faac2ff8fed70a7fbdbe7a5cb07768c0b7581565b60d5602052600090815260409020805460018201546002909201546001600160a01b038083169360ff600160a01b9485900481169482841694818404831694600160a81b9094048316938116929190041687565b6033546001600160a01b031690565b611d2f612f4b565b6001600160a01b0316611d40611d18565b6001600160a01b031614611d89576040805162461bcd60e51b8152602060048201819052602482015260008051602061531f833981519152604482015290519081900360640190fd5b60c9805461ff0019166101008315158102919091179182905560405160ff91909204161515907f7304ed846a7da817e311f225ed0df7c4b621c484da0ab3e633bd5ad083f2c3ae90600090a250565b6000828152606560205260408120611df090836139e9565b90505b92915050565b6000828152606560205260408120611df090836139f5565b60d6602052600090815260409020546001600160a01b03811690600160a01b900460ff1682565b60d45463ffffffff1681565b60c9546301000000900460ff1681565b60d454600160a01b900463ffffffff1681565b600081565b60c95460ff16611eba576040805162461bcd60e51b8152602060048201526014602482015273135a5b9d0809881c995919595b481c185d5cd95960621b604482015290519081900360640190fd5b60026097541415611f00576040805162461bcd60e51b815260206004820152601f602482015260008051602061512a833981519152604482015290519081900360640190fd5b60026097556001600160a01b038516600090815260d56020526040902054600160a01b900460ff16611f70576040805162461bcd60e51b815260206004820152601460248201527310dbdb1b185d195c985b081b9bdd08185919195960621b604482015290519081900360640190fd5b60008411611faf5760405162461bcd60e51b81526004018080602001828103825260218152602001806151d06021913960400191505060405180910390fd5b6117338585858585613a0a565b60d15481565b611fca612f4b565b6001600160a01b0316611fdb611d18565b6001600160a01b031614612024576040805162461bcd60e51b8152602060048201819052602482015260008051602061531f833981519152604482015290519081900360640190fd5b6001600160a01b038616600090815260d56020526040902054600160a01b900460ff1661208f576040805162461bcd60e51b815260206004820152601460248201527310dbdb1b185d195c985b081b9bdd08185919195960621b604482015290519081900360640190fd5b600060d56000886001600160a01b03166001600160a01b031681526020019081526020016000209050868160000160006101000a8154816001600160a01b0302191690836001600160a01b03160217905550858160010160006101000a8154816001600160a01b0302191690836001600160a01b03160217905550848160010160146101000a81548160ff021916908315150217905550828160020160006101000a8154816001600160a01b0302191690836001600160a01b03160217905550866001600160a01b03167f4373c9397f82b63ec1404e609e257362b37c078b682bce6b7727d21fce4d15948260000160149054906101000a900460ff168888888888604051808715158152602001866001600160a01b0316815260200185151581526020018460ff168152602001836001600160a01b031681526020018215158152602001965050505050505060405180910390a250505050505050565b60c954610100900460ff1661223b576040805162461bcd60e51b815260206004820152600f60248201526e105b1b1bd8d85d19481c185d5cd959608a1b604482015290519081900360640190fd5b612243612f4b565b6001600160a01b0316612254611d18565b6001600160a01b03161461229d576040805162461bcd60e51b8152602060048201819052602482015260008051602061531f833981519152604482015290519081900360640190fd5b600260975414156122e3576040805162461bcd60e51b815260206004820152601f602482015260008051602061512a833981519152604482015290519081900360640190fd5b600260975560006122f261509c565b60005b60d7548110156125995760d7818154811061230c57fe5b60009182526020918290206040805160e081018252600390930290910180546001600160a01b03808216855260ff600160a01b9283900481161515968601969096526001830154808216948601859052828104871615801560608801819052600160a81b9092048816608088015260029094015491821660a0870152919004909416151560c08401529095509093506123b1575060408201516001600160a01b031615155b80156124365750826001600160a01b031663a400326f83600001516040518263ffffffff1660e01b815260040180826001600160a01b0316815260200191505060206040518083038186803b15801561240957600080fd5b505afa15801561241d573d6000803e3d6000fd5b505050506040513d602081101561243357600080fd5b50515b1561259157600061244a8360000151612f4f565b9050600061245b846000015161377f565b90506000612491606460ff1661248b876080015160ff16612485868861328a90919063ffffffff16565b90613f88565b90613fe1565b90508281111561258d5760006124a78285614048565b604087015187519192506124c5916001600160a01b031690836140a5565b866001600160a01b03166347e7ef248760000151836040518363ffffffff1660e01b815260040180836001600160a01b0316815260200182815260200192505050600060405180830381600087803b15801561252057600080fd5b505af1158015612534573d6000803e3d6000fd5b5050505085604001516001600160a01b031686600001516001600160a01b03167f290d3382f5cb307945388c5a4ab3a9e3695c8706927c11c35eb329620a310961836040518082815260200191505060405180910390a3505b5050505b6001016122f5565b5050600160975550565b60c95462010000900460ff166125f0576040805162461bcd60e51b815260206004820152600d60248201526c149958985cd9481c185d5cd959609a1b604482015290519081900360640190fd5b60026097541415612636576040805162461bcd60e51b815260206004820152601f602482015260008051602061512a833981519152604482015290519081900360640190fd5b60026097556126657f5fde63b561377d1441afa201ff619faac2ff8fed70a7fbdbe7a5cb07768c0b7533611df9565b6126b6576040805162461bcd60e51b815260206004820152601760248201527f43616c6c6572206973206e6f7420612072656261736572000000000000000000604482015290519081900360640190fd5b60006126c06140fc565b9050600060ca60009054906101000a90046001600160a01b03166001600160a01b03166318160ddd6040518163ffffffff1660e01b815260040160206040518083038186803b15801561271257600080fd5b505afa158015612726573d6000803e3d6000fd5b505050506040513d602081101561273c57600080fd5b5051905081156128d25760006127cc8360ca60009054906101000a90046001600160a01b03166001600160a01b03166318160ddd6040518163ffffffff1660e01b815260040160206040518083038186803b15801561279a57600080fd5b505afa1580156127ae573d6000803e3d6000fd5b505050506040513d60208110156127c457600080fd5b50519061328a565b60ca5460408051632770a7eb60e21b81523060048201526024810187905290519293506001600160a01b0390911691639dc29fac9160448082019260009290919082900301818387803b15801561282257600080fd5b505af1158015612836573d6000803e3d6000fd5b505060ca54604080516339a7919f60e01b81526004810186905290516001600160a01b0390921693506339a7919f925060248082019260009290919082900301818387803b15801561288757600080fd5b505af115801561289b573d6000803e3d6000fd5b50506040518392508491507f11c6bf55864ff83827df712625d7a80e5583eef0264921025e7cd22003a2151190600090a350612900565b604051819081907f11c6bf55864ff83827df712625d7a80e5583eef0264921025e7cd22003a2151190600090a35b50506001609755565b600080612914612d8a565b9050600060ca60009054906101000a90046001600160a01b03166001600160a01b03166318160ddd6040518163ffffffff1660e01b815260040160206040518083038186803b15801561296657600080fd5b505afa15801561297a573d6000803e3d6000fd5b505050506040513d602081101561299057600080fd5b505160cb5460408051630421977560e11b815290519293506000926001600160a01b03909216916308432eea91600480820192602092909190829003018186803b1580156129dd57600080fd5b505afa1580156129f1573d6000803e3d6000fd5b505050506040513d6020811015612a0757600080fd5b505160cb5460408051636f2a2b0f60e01b815290519293506000926001600160a01b0390921691636f2a2b0f91600480820192602092909190829003018186803b158015612a5457600080fd5b505afa158015612a68573d6000803e3d6000fd5b505050506040513d6020811015612a7e57600080fd5b505190506000612a928261248b8686613f88565b9050612aa78161248b8764e8d4a51000613f88565b9550505050505090565b60c954600160281b90046001600160a01b031681565b600054610100900460ff1680612ae05750612ae0614262565b80612aee575060005460ff16155b612b295760405162461bcd60e51b815260040180806020018281038252602e815260200180615274602e913960400191505060405180910390fd5b600054610100900460ff16158015612b54576000805460ff1961ff0019909116610100171660011790555b612b5c614273565b612b64614325565b612b6c6143c2565b60c980546001600160a01b03868116600160281b0262ff0100600160c81b031960ff19909316600117929092169190911790915560ce80548583166001600160a01b03199182161790915560cc80548216301790554360cf5560d2805463ffffffff19908116613db81790915564dd30699c0060d35560d48054615f9092169190911767ffffffff00000000191665271000000000176bffffffff00000000000000001916684500000000000000001763ffffffff60601b191661050960651b1763ffffffff60801b1916610aa360811b1763ffffffff60a01b1916603560a61b17905560cd8054909116918416919091179055612c6b60003361155e565b8015612c7d576000805461ff00191690555b50505050565b612c8b612f4b565b6001600160a01b0316612c9c611d18565b6001600160a01b031614612ce5576040805162461bcd60e51b8152602060048201819052602482015260008051602061531f833981519152604482015290519081900360640190fd5b60ca80546001600160a01b0319166001600160a01b0392909216919091179055565b6000818152606560205260408120611df390614457565b600082815260656020526040902060020154612d3c9061151e612f4b565b6115c35760405162461bcd60e51b81526004018080602001828103825260308152602001806152446030913960400191505060405180910390fd5b60d454600160601b900463ffffffff1681565b6000612da5612d97611267565b612d9f611bcd565b9061328a565b905090565b60c954610100900460ff1681565b612dc0612f4b565b6001600160a01b0316612dd1611d18565b6001600160a01b031614612e1a576040805162461bcd60e51b8152602060048201819052602482015260008051602061531f833981519152604482015290519081900360640190fd5b6001600160a01b038116612e5f5760405162461bcd60e51b815260040180806020018281038252602681526020018061514a6026913960400191505060405180910390fd5b6033546040516001600160a01b038084169216907f8be0079c531659141344cd1fd0a4f28419497f9722a3daafe3b4186f6b6457e090600090a3603380546001600160a01b0319166001600160a01b0392909216919091179055565b612ec3612f4b565b6001600160a01b0316612ed4611d18565b6001600160a01b031614612f1d576040805162461bcd60e51b8152602060048201819052602482015260008051602061531f833981519152604482015290519081900360640190fd5b60cb80546001600160a01b0319166001600160a01b0392909216919091179055565b60d35481565b60cf5481565b3390565b6000612f5961509c565b506001600160a01b03808316600090815260d560209081526040808320815160e081018352815480871680835260ff600160a01b9283900481161515848801526001850154808a16858801819052848204831615156060870152600160a81b90910482166080860152600290950154808a1660a086015292909204909116151560c083015260cb548451631469026560e21b815260048101929092529351919692959493909216926351a409949260248082019391829003018186803b15801561302257600080fd5b505afa158015613036573d6000803e3d6000fd5b505050506040513d602081101561304c57600080fd5b505160cb54845160408051633f15327960e01b81526001600160a01b03928316600482015290519394506000939190921691633f153279916024808301926020929190829003018186803b1580156130a357600080fd5b505afa1580156130b7573d6000803e3d6000fd5b505050506040513d60208110156130cd57600080fd5b505184516040805163313ce56760e01b815290519293506000926001600160a01b039092169163313ce56791600480820192602092909190829003018186803b15801561311957600080fd5b505afa15801561312d573d6000803e3d6000fd5b505050506040513d602081101561314357600080fd5b5051855160408051632fa8a91360e11b81526001600160a01b039283166004820152905160ff90931693506000926131d792869261248b9289928b1691635f515226916024808301926020929190829003018186803b1580156131a557600080fd5b505afa1580156131b9573d6000803e3d6000fd5b505050506040513d60208110156131cf57600080fd5b505190613f88565b905060006131f36131e9601285614048565b8390600a0a613f88565b9050809750856001600160a01b031663a400326f88600001516040518263ffffffff1660e01b815260040180826001600160a01b0316815260200191505060206040518083038186803b15801561324957600080fd5b505afa15801561325d573d6000803e3d6000fd5b505050506040513d602081101561327357600080fd5b505161327e57600097505b50505050505050919050565b600082820183811015611df0576040805162461bcd60e51b815260206004820152601b60248201527f536166654d6174683a206164646974696f6e206f766572666c6f770000000000604482015290519081900360640190fd5b60008281526065602052604090206132fc9082614462565b1561156857613309612f4b565b6001600160a01b0316816001600160a01b0316837f2f8788117e7eff1d82e926ec794901d17c78024a50270940304540a733656f0d60405160405180910390a45050565b60008281526065602052604090206133659082614477565b1561156857613372612f4b565b6001600160a01b0316816001600160a01b0316837ff6391f5c32d9c69d2a47ea670b442974b53935d1edc7fd64eb21e047a839171b60405160405180910390a45050565b60c95460ff16613404576040805162461bcd60e51b8152602060048201526014602482015273135a5b9d0809881c995919595b481c185d5cd95960621b604482015290519081900360640190fd5b60ce54604080516363b09fdb60e01b81526001600160a01b038a81166004830152602482018a905260ff89166044830152306064830152915160009384938493849391909216916363b09fdb916084808301926080929190829003018186803b15801561347057600080fd5b505afa158015613484573d6000803e3d6000fd5b505050506040513d608081101561349a57600080fd5b5080516020820151604083015160609093015191965094509092509050878210156134f65760405162461bcd60e51b815260040180806020018281038252602e81526020018061533f602e913960400191505060405180910390fd5b868311156135355760405162461bcd60e51b81526004018080602001828103825260338152602001806152a26033913960400191505060405180910390fd5b858411156135745760405162461bcd60e51b815260040180806020018281038252602c8152602001806151a4602c913960400191505060405180910390fd5b844211156135bc576040805162461bcd60e51b815260206004820152601060248201526f111958591b1a5b9948195e1c1a5c995960821b604482015290519081900360640190fd5b60c9546040805163079cc67960e41b8152336004820152602481018790529051600160281b9092046001600160a01b0316916379cc67909160448082019260009290919082900301818387803b15801561361557600080fd5b505af1158015613629573d6000803e3d6000fd5b505060d15461363b925090508561328a565b60d1556136536001600160a01b038c1633308661448c565b60ca54604080516340c10f1960e01b81523360048201526024810185905290516001600160a01b03909216916340c10f199160448082019260009290919082900301818387803b1580156136a657600080fd5b505af11580156136ba573d6000803e3d6000fd5b505060ca5460cd54604080516340c10f1960e01b81526001600160a01b0392831660048201526024810187905290519190921693506340c10f199250604480830192600092919082900301818387803b15801561371657600080fd5b505af115801561372a573d6000803e3d6000fd5b5050604080518681526020810188905280820185905290518593503392507f473211ca1f39de50cbd3cc7e9f63f97251afb1a528e8164f279bf67dab4f952d9181900360600190a35050505050505050505050565b600061378961509c565b506001600160a01b03808316600090815260d560209081526040808320815160e081018352815480871680835260ff600160a01b9283900481161515848801526001850154808a1685880152838104821615156060860152600160a81b90048116608085015260029094015480891660a085015291909104909216151560c082015260cb548351631469026560e21b815260048101939093529251909592909216926351a4099492602480840193829003018186803b15801561384b57600080fd5b505afa15801561385f573d6000803e3d6000fd5b505050506040513d602081101561387557600080fd5b505160cb54835160408051633f15327960e01b81526001600160a01b03928316600482015290519394506000939190921691633f153279916024808301926020929190829003018186803b1580156138cc57600080fd5b505afa1580156138e0573d6000803e3d6000fd5b505050506040513d60208110156138f657600080fd5b505183516040805163313ce56760e01b815290519293506000926001600160a01b039092169163313ce56791600480820192602092909190829003018186803b15801561394257600080fd5b505afa158015613956573d6000803e3d6000fd5b505050506040513d602081101561396c57600080fd5b50518451604080516370a0823160e01b8152306004820152905160ff90931693506000926139cb92869261248b9289926001600160a01b0316916370a08231916024808301926020929190829003018186803b1580156131a557600080fd5b905060006139dd6131e9601285614048565b98975050505050505050565b6000611df083836144e6565b6000611df0836001600160a01b03841661454a565b60c95460ff16613a58576040805162461bcd60e51b8152602060048201526014602482015273135a5b9d0809881c995919595b481c185d5cd95960621b604482015290519081900360640190fd5b60ce5460cb5460408051637a9acad360e11b81526001600160a01b0389811660048301526024820189905230604483015292831660648201529051600093849384938493919092169163f53595a6916084808301926080929190829003018186803b158015613ac657600080fd5b505afa158015613ada573d6000803e3d6000fd5b505050506040513d6080811015613af057600080fd5b508051602082015160408301516060909301519196509450909250905086831015613b4c5760405162461bcd60e51b81526004018080602001828103825260348152602001806151706034913960400191505060405180910390fd5b85841015613b8b5760405162461bcd60e51b815260040180806020018281038252602d815260200180615217602d913960400191505060405180910390fd5b84421115613bd3576040805162461bcd60e51b815260206004820152601060248201526f111958591b1a5b9948195e1c1a5c995960821b604482015290519081900360640190fd5b613bdb61509c565b506001600160a01b03808a16600090815260d560209081526040808320815160e0810183528154808716825260ff600160a01b918290048116151595830195909552600183015480881683860152818104861615156060840152600160a81b90048516608083015260029092015480871660a083015291909104909216151560c083015260c954815163edb561c360e01b8152336004820152602481018a905291519294600160281b909104169263edb561c39260448084019382900301818387803b158015613caa57600080fd5b505af1158015613cbe573d6000803e3d6000fd5b505060d054613cd0925090508661328a565b60d055604080516370a0823160e01b8152306004820152905185916001600160a01b038d16916370a0823191602480820192602092909190829003018186803b158015613d1c57600080fd5b505afa158015613d30573d6000803e3d6000fd5b505050506040513d6020811015613d4657600080fd5b505110613d6657613d616001600160a01b038b1633866140a5565b613eae565b60408101516001600160a01b031615613e7757600081604001519050806001600160a01b031663a400326f8c6040518263ffffffff1660e01b815260040180826001600160a01b0316815260200191505060206040518083038186803b158015613dcf57600080fd5b505afa158015613de3573d6000803e3d6000fd5b505050506040513d6020811015613df957600080fd5b505115613e715760408051636ce5768960e11b81523360048201526001600160a01b038d811660248301526044820188905291519183169163d9caed129160648082019260009290919082900301818387803b158015613e5857600080fd5b505af1158015613e6c573d6000803e3d6000fd5b505050505b50613eae565b60405162461bcd60e51b81526004018080602001828103825260298152602001806152d56029913960400191505060405180910390fd5b60ca5460408051632770a7eb60e21b81523360048201526024810186905290516001600160a01b0390921691639dc29fac9160448082019260009290919082900301818387803b158015613f0157600080fd5b505af1158015613f15573d6000803e3d6000fd5b505060cd5460ca54613f3893506001600160a01b0390811692503391168561448c565b60408051858152602081018790528082018490529051849133917f7a7fa876a9a577092f57d3c1deeddc4025fb563aab144154b355ede4fb9f3ded9181900360600190a350505050505050505050565b600082613f9757506000611df3565b82820282848281613fa457fe5b0414611df05760405162461bcd60e51b81526004018080602001828103825260218152602001806152fe6021913960400191505060405180910390fd5b6000808211614037576040805162461bcd60e51b815260206004820152601a60248201527f536166654d6174683a206469766973696f6e206279207a65726f000000000000604482015290519081900360640190fd5b81838161404057fe5b049392505050565b60008282111561409f576040805162461bcd60e51b815260206004820152601e60248201527f536166654d6174683a207375627472616374696f6e206f766572666c6f770000604482015290519081900360640190fd5b50900390565b604080516001600160a01b038416602482015260448082018490528251808303909101815260649091019091526020810180516001600160e01b031663a9059cbb60e01b1790526140f7908490614562565b505050565b60008061410761509c565b60005b60d75481101561425c5760d7818154811061412157fe5b60009182526020918290206040805160e081018252600390930290910180546001600160a01b0380821680865260ff600160a01b93849004811615158789015260018501548084168888018190528582048316151560608a0152600160a81b9091048216608089015260029095015492831660a088015292909104909116151560c0850152825163a400326f60e01b815260048101919091529151909650919450859263a400326f92602480840193829003018186803b1580156141e457600080fd5b505afa1580156141f8573d6000803e3d6000fd5b505050506040513d602081101561420e57600080fd5b5051801561421d57508160c001515b1561425457600061422d84614613565b9050600061423f85856000015161493b565b905061424f81612d9f888561328a565b955050505b60010161410a565b50505090565b600061426d30614b2a565b15905090565b600054610100900460ff168061428c575061428c614262565b8061429a575060005460ff16155b6142d55760405162461bcd60e51b815260040180806020018281038252602e815260200180615274602e913960400191505060405180910390fd5b600054610100900460ff16158015614300576000805460ff1961ff0019909116610100171660011790555b614308614b30565b614310614bd0565b8015614322576000805461ff00191690555b50565b600054610100900460ff168061433e575061433e614262565b8061434c575060005460ff16155b6143875760405162461bcd60e51b815260040180806020018281038252602e815260200180615274602e913960400191505060405180910390fd5b600054610100900460ff161580156143b2576000805460ff1961ff0019909116610100171660011790555b6143ba614b30565b614310614b30565b600054610100900460ff16806143db57506143db614262565b806143e9575060005460ff16155b6144245760405162461bcd60e51b815260040180806020018281038252602e815260200180615274602e913960400191505060405180910390fd5b600054610100900460ff1615801561444f576000805460ff1961ff0019909116610100171660011790555b614310614cc9565b6000611df382614d6f565b6000611df0836001600160a01b038416614d73565b6000611df0836001600160a01b038416614dbd565b604080516001600160a01b0380861660248301528416604482015260648082018490528251808303909101815260849091019091526020810180516001600160e01b03166323b872dd60e01b179052612c7d908590614562565b815460009082106145285760405162461bcd60e51b81526004018080602001828103825260228152602001806150d96022913960400191505060405180910390fd5b82600001828154811061453757fe5b9060005260206000200154905092915050565b60009081526001919091016020526040902054151590565b60606145b7826040518060400160405280602081526020017f5361666545524332303a206c6f772d6c6576656c2063616c6c206661696c6564815250856001600160a01b0316614e839092919063ffffffff16565b8051909150156140f7578080602001905160208110156145d657600080fd5b50516140f75760405162461bcd60e51b815260040180806020018281038252602a815260200180615399602a913960400191505060405180910390fd5b600080826001600160a01b031663125f9e336040518163ffffffff1660e01b815260040160206040518083038186803b15801561464f57600080fd5b505afa158015614663573d6000803e3d6000fd5b505050506040513d602081101561467957600080fd5b505190506001600160a01b03811615614935576000836001600160a01b0316635653b4146040518163ffffffff1660e01b815260040160206040518083038186803b1580156146c757600080fd5b505afa1580156146db573d6000803e3d6000fd5b505050506040513d60208110156146f157600080fd5b5051604080516370a0823160e01b815230600482015290519192506000916001600160a01b038516916370a08231916024808301926020929190829003018186803b15801561473f57600080fd5b505afa158015614753573d6000803e3d6000fd5b505050506040513d602081101561476957600080fd5b505190508161493257846001600160a01b0316630242241d6040518163ffffffff1660e01b8152600401600060405180830381600087803b1580156147ad57600080fd5b505af11580156147c1573d6000803e3d6000fd5b505050506000836001600160a01b03166370a08231306040518263ffffffff1660e01b815260040180826001600160a01b0316815260200191505060206040518083038186803b15801561481457600080fd5b505afa158015614828573d6000803e3d6000fd5b505050506040513d602081101561483e57600080fd5b5051604080516335bb18e960e21b815290519192506001600160a01b0388169163d6ec63a4916004808201926020929091908290030181600087803b15801561488657600080fd5b505af115801561489a573d6000803e3d6000fd5b505050506040513d60208110156148b057600080fd5b505160408051634a5c8c6f60e11b81526004810184905290516001600160a01b03909216916394b918de916024808201926020929091908290030181600087803b1580156148fd57600080fd5b505af1158015614911573d6000803e3d6000fd5b505050506040513d602081101561492757600080fd5b505194506149329050565b50505b50919050565b600061494561509c565b506001600160a01b03808316600081815260d560209081526040808320815160e0810183528154808816825260ff600160a01b9182900481161515838701526001840154808a1684870152828104821615156060850152600160a81b90048116608084015260029093015480891660a084015204909116151560c08201528151638d2c872760e01b8152600481019590955290519094929392881692638d2c8727926024808301939192829003018186803b158015614a0357600080fd5b505afa158015614a17573d6000803e3d6000fd5b505050506040513d6020811015614a2d57600080fd5b505190508015614b2257815160408051636ce5768960e11b81523060048201526001600160a01b0392831660248201526044810184905290519187169163d9caed129160648082019260009290919082900301818387803b158015614a9157600080fd5b505af1158015614aa5573d6000803e3d6000fd5b505050508160a001516001600160a01b03166394b918de826040518263ffffffff1660e01b815260040180828152602001915050602060405180830381600087803b158015614af357600080fd5b505af1158015614b07573d6000803e3d6000fd5b505050506040513d6020811015614b1d57600080fd5b505192505b505092915050565b3b151590565b600054610100900460ff1680614b495750614b49614262565b80614b57575060005460ff16155b614b925760405162461bcd60e51b815260040180806020018281038252602e815260200180615274602e913960400191505060405180910390fd5b600054610100900460ff16158015614310576000805460ff1961ff0019909116610100171660011790558015614322576000805461ff001916905550565b600054610100900460ff1680614be95750614be9614262565b80614bf7575060005460ff16155b614c325760405162461bcd60e51b815260040180806020018281038252602e815260200180615274602e913960400191505060405180910390fd5b600054610100900460ff16158015614c5d576000805460ff1961ff0019909116610100171660011790555b6000614c67612f4b565b603380546001600160a01b0319166001600160a01b038316908117909155604051919250906000907f8be0079c531659141344cd1fd0a4f28419497f9722a3daafe3b4186f6b6457e0908290a3508015614322576000805461ff001916905550565b600054610100900460ff1680614ce25750614ce2614262565b80614cf0575060005460ff16155b614d2b5760405162461bcd60e51b815260040180806020018281038252602e815260200180615274602e913960400191505060405180910390fd5b600054610100900460ff16158015614d56576000805460ff1961ff0019909116610100171660011790555b60016097558015614322576000805461ff001916905550565b5490565b6000614d7f838361454a565b614db557508154600181810184556000848152602080822090930184905584548482528286019093526040902091909155611df3565b506000611df3565b60008181526001830160205260408120548015614e795783546000198083019190810190600090879083908110614df057fe5b9060005260206000200154905080876000018481548110614e0d57fe5b600091825260208083209091019290925582815260018981019092526040902090840190558654879080614e3d57fe5b60019003818190600052602060002001600090559055866001016000878152602001908152602001600020600090556001945050505050611df3565b6000915050611df3565b6060614e928484600085614e9c565b90505b9392505050565b606082471015614edd5760405162461bcd60e51b81526004018080602001828103825260268152602001806151f16026913960400191505060405180910390fd5b614ee685614b2a565b614f37576040805162461bcd60e51b815260206004820152601d60248201527f416464726573733a2063616c6c20746f206e6f6e2d636f6e7472616374000000604482015290519081900360640190fd5b60006060866001600160a01b031685876040518082805190602001908083835b60208310614f765780518252601f199092019160209182019101614f57565b6001836020036101000a03801982511681845116808217855250505050505090500191505060006040518083038185875af1925050503d8060008114614fd8576040519150601f19603f3d011682016040523d82523d6000602084013e614fdd565b606091505b5091509150614fed828286614ff8565b979650505050505050565b60608315615007575081614e95565b8251156150175782518084602001fd5b8160405162461bcd60e51b81526004018080602001828103825283818151815260200191508051906020019080838360005b83811015615061578181015183820152602001615049565b50505050905090810190601f16801561508e5780820380516001836020036101000a031916815260200191505b509250505060405180910390fd5b6040805160e081018252600080825260208201819052918101829052606081018290526080810182905260a0810182905260c08101919091529056fe456e756d657261626c655365743a20696e646578206f7574206f6620626f756e6473416363657373436f6e74726f6c3a2073656e646572206d75737420626520616e2061646d696e20746f206772616e745265656e7472616e637947756172643a207265656e7472616e742063616c6c004f776e61626c653a206e6577206f776e657220697320746865207a65726f2061646472657373436f6c6c61746572616c20616d6f756e74206973206c6f776572207468616e20746865206d6178696d756d20736c69707061676553504120616d6f756e74206973206d6f7265207468616e20746865206d6178696d756d20736c697070616765416d6f756e74206e6565647320746f2062652067726561746572207468616e2030416464726573733a20696e73756666696369656e742062616c616e636520666f722063616c6c53504120616d6f756e74206973206c6f776572207468616e20746865206d6178696d756d20736c697070616765416363657373436f6e74726f6c3a2073656e646572206d75737420626520616e2061646d696e20746f207265766f6b65496e697469616c697a61626c653a20636f6e747261637420697320616c726561647920696e697469616c697a6564436f6c6c61746572616c20616d6f756e74206973206d6f7265207468616e20746865206d6178696d756d20736c6970706167654e6f20656e6f75676820636f6c6c61746572616c20696e205661756c74206f72205374726174656779536166654d6174683a206d756c7469706c69636174696f6e206f766572666c6f774f776e61626c653a2063616c6c6572206973206e6f7420746865206f776e65725553447320616d6f756e74206973206c6f776572207468616e20746865206d6178696d756d20736c697070616765436f6c6c61746572616c7320646563696d616c73206e65656420746f206265206c657373207468616e2031385361666545524332303a204552433230206f7065726174696f6e20646964206e6f742073756363656564416363657373436f6e74726f6c3a2063616e206f6e6c792072656e6f756e636520726f6c657320666f722073656c66a26469706673582212204df21fd033a48e918e2db923a9fcea4d79a3d87a0da961cd4f6e13677e97ca2164736f6c634300060c0033",
  "bytecodeSha1": "0e27a6ee82f364f3a200d931f4d37128c021d37b",
  "compiler": {
    "evm_version": "istanbul",
    "optimizer": {
      "enabled": true,
      "runs": 200
    },
    "version": "0.6.12+commit.27d51765"
  },
  "contractName": "VaultCore",
  "language": "Solidity",
  "natspec": {
    "kind": "dev",
    "methods": {
      "allocate()": {
        "details": "Allocate unallocated funds on Vault to strategies.*",
        "notice": "Allocate unallocated funds on Vault to strategies."
      },
      "getRoleAdmin(bytes32)": {
        "details": "Returns the admin role that controls `role`. See {grantRole} and {revokeRole}. To change a role's admin, use {_setRoleAdmin}."
      },
      "getRoleMember(bytes32,uint256)": {
        "details": "Returns one of the accounts that have `role`. `index` must be a value between 0 and {getRoleMemberCount}, non-inclusive. Role bearers are not sorted in any particular way, and their ordering may change at any point. WARNING: When using {getRoleMember} and {getRoleMemberCount}, make sure you perform all queries on the same block. See the following https://forum.openzeppelin.com/t/iterating-over-elements-on-enumerableset-in-openzeppelin-contracts/2296[forum post] for more information."
      },
      "getRoleMemberCount(bytes32)": {
        "details": "Returns the number of accounts that have `role`. Can be used together with {getRoleMember} to enumerate all bearers of a role."
      },
      "grantRole(bytes32,address)": {
        "details": "Grants `role` to `account`. If `account` had not been already granted `role`, emits a {RoleGranted} event. Requirements: - the caller must have ``role``'s admin role."
      },
      "hasRole(bytes32,address)": {
        "details": "Returns `true` if `account` has been granted `role`."
      },
      "mintWithColla(address,uint256,uint256,uint256,uint256)": {
        "details": "mint USDs by entering collateral amount (excluding ETH)",
        "params": {
          "collateralAddr": "the address of user's chosen collateral",
          "collateralAmt": "the amount of collateral to stake"
        }
      },
      "mintWithSPA(address,uint256,uint256,uint256,uint256)": {
        "details": "mint USDs by entering SPA amount",
        "params": {
          "SPAamt": "the amount of SPA to burn",
          "collateralAddr": "the address of user's chosen collateral"
        }
      },
      "mintWithUSDs(address,uint256,uint256,uint256,uint256)": {
        "details": "mint USDs by entering USDs amount",
        "params": {
          "USDsMintAmt": "the amount of USDs to be minted",
          "collateralAddr": "the address of user's chosen collateral"
        }
      },
      "owner()": {
        "details": "Returns the address of the current owner."
      },
      "renounceOwnership()": {
        "details": "Leaves the contract without owner. It will not be possible to call `onlyOwner` functions anymore. Can only be called by the current owner. NOTE: Renouncing ownership will leave the contract without an owner, thereby removing any functionality that is only available to the owner."
      },
      "renounceRole(bytes32,address)": {
        "details": "Revokes `role` from the calling account. Roles are often managed via {grantRole} and {revokeRole}: this function's purpose is to provide a mechanism for accounts to lose their privileges if they are compromised (such as when a trusted device is misplaced). If the calling account had been granted `role`, emits a {RoleRevoked} event. Requirements: - the caller must be `account`."
      },
      "revokeRole(bytes32,address)": {
        "details": "Revokes `role` from `account`. If `account` had been granted `role`, emits a {RoleRevoked} event. Requirements: - the caller must have ``role``'s admin role."
      },
      "transferOwnership(address)": {
        "details": "Transfers ownership of the contract to a new account (`newOwner`). Can only be called by the current owner."
      },
      "updateAllocationPermission(bool)": {
        "details": "disable collateral re-investment"
      },
      "updateMintBurnPermission(bool)": {
        "details": "disable USDs mint & redeem"
      },
      "updateSwapInOutFeePermission(bool,bool)": {
        "details": "disable swapInFee, i.e. mint becomes free"
      }
    },
    "version": 1
  },
  "opcodes": "PUSH1 0x80 PUSH1 0x40 MSTORE CALLVALUE DUP1 ISZERO PUSH2 0x10 JUMPI PUSH1 0x0 DUP1 REVERT JUMPDEST POP PUSH1 0x4 CALLDATASIZE LT PUSH2 0x3E6 JUMPI PUSH1 0x0 CALLDATALOAD PUSH1 0xE0 SHR DUP1 PUSH4 0x7E4E61D7 GT PUSH2 0x20A JUMPI DUP1 PUSH4 0xABAA9916 GT PUSH2 0x125 JUMPI DUP1 PUSH4 0xD547741F GT PUSH2 0xB8 JUMPI DUP1 PUSH4 0xEDBBDB97 GT PUSH2 0x87 JUMPI DUP1 PUSH4 0xEDBBDB97 EQ PUSH2 0xA2C JUMPI DUP1 PUSH4 0xF2FDE38B EQ PUSH2 0xA34 JUMPI DUP1 PUSH4 0xF7023BB6 EQ PUSH2 0xA5A JUMPI DUP1 PUSH4 0xFAEDDC90 EQ PUSH2 0xA80 JUMPI DUP1 PUSH4 0xFC9DC4FF EQ PUSH2 0xA88 JUMPI PUSH2 0x3E6 JUMP JUMPDEST DUP1 PUSH4 0xD547741F EQ PUSH2 0x9F0 JUMPI DUP1 PUSH4 0xD8EA64D6 EQ PUSH2 0x640 JUMPI DUP1 PUSH4 0xE1DA5380 EQ PUSH2 0xA1C JUMPI DUP1 PUSH4 0xEC18154E EQ PUSH2 0xA24 JUMPI PUSH2 0x3E6 JUMP JUMPDEST DUP1 PUSH4 0xBCB083C1 GT PUSH2 0xF4 JUMPI DUP1 PUSH4 0xBCB083C1 EQ PUSH2 0x96D JUMPI DUP1 PUSH4 0xC0C53B8B EQ PUSH2 0x975 JUMPI DUP1 PUSH4 0xC6D15E1B EQ PUSH2 0x9AD JUMPI DUP1 PUSH4 0xCA15C873 EQ PUSH2 0x9D3 JUMPI PUSH2 0x3E6 JUMP JUMPDEST DUP1 PUSH4 0xABAA9916 EQ PUSH2 0x955 JUMPI DUP1 PUSH4 0xAF14052C EQ PUSH2 0x95D JUMPI DUP1 PUSH4 0xB4EAE1CB EQ PUSH2 0x965 JUMPI DUP1 PUSH4 0xB845A129 EQ PUSH2 0x3EB JUMPI PUSH2 0x3E6 JUMP JUMPDEST DUP1 PUSH4 0x96577A1A GT PUSH2 0x19D JUMPI DUP1 PUSH4 0xA217FDDF GT PUSH2 0x16C JUMPI DUP1 PUSH4 0xA217FDDF EQ PUSH2 0x8B8 JUMPI DUP1 PUSH4 0xA49FDB49 EQ PUSH2 0x8C0 JUMPI DUP1 PUSH4 0xA9E3458C EQ PUSH2 0x8FE JUMPI DUP1 PUSH4 0xAB1F37FA EQ PUSH2 0x906 JUMPI PUSH2 0x3E6 JUMP JUMPDEST DUP1 PUSH4 0x96577A1A EQ PUSH2 0x857 JUMPI DUP1 PUSH4 0x96FD7DB6 EQ PUSH2 0x8A0 JUMPI DUP1 PUSH4 0xA09CAA18 EQ PUSH2 0x8A8 JUMPI DUP1 PUSH4 0xA0FDA95E EQ PUSH2 0x8B0 JUMPI PUSH2 0x3E6 JUMP JUMPDEST DUP1 PUSH4 0x8DA5CB5B GT PUSH2 0x1D9 JUMPI DUP1 PUSH4 0x8DA5CB5B EQ PUSH2 0x7E1 JUMPI DUP1 PUSH4 0x8E5F2898 EQ PUSH2 0x7E9 JUMPI DUP1 PUSH4 0x9010D07C EQ PUSH2 0x808 JUMPI DUP1 PUSH4 0x91D14854 EQ PUSH2 0x82B JUMPI PUSH2 0x3E6 JUMP JUMPDEST DUP1 PUSH4 0x7E4E61D7 EQ PUSH2 0x75D JUMPI DUP1 PUSH4 0x8177B4A6 EQ PUSH2 0x640 JUMPI DUP1 PUSH4 0x83EB70E5 EQ PUSH2 0x765 JUMPI DUP1 PUSH4 0x8D52FEC6 EQ PUSH2 0x76D JUMPI PUSH2 0x3E6 JUMP JUMPDEST DUP1 PUSH4 0x47BE1C3E GT PUSH2 0x305 JUMPI DUP1 PUSH4 0x6707D12E GT PUSH2 0x298 JUMPI DUP1 PUSH4 0x715018A6 GT PUSH2 0x267 JUMPI DUP1 PUSH4 0x715018A6 EQ PUSH2 0x735 JUMPI DUP1 PUSH4 0x72386371 EQ PUSH2 0x73D JUMPI DUP1 PUSH4 0x77F0C615 EQ PUSH2 0x745 JUMPI DUP1 PUSH4 0x7BD14E32 EQ PUSH2 0x74D JUMPI DUP1 PUSH4 0x7E428DAC EQ PUSH2 0x755 JUMPI PUSH2 0x3E6 JUMP JUMPDEST DUP1 PUSH4 0x6707D12E EQ PUSH2 0x6D1 JUMPI DUP1 PUSH4 0x688A9065 EQ PUSH2 0x70F JUMPI DUP1 PUSH4 0x68EE3591 EQ PUSH2 0x640 JUMPI DUP1 PUSH4 0x7080460F EQ PUSH2 0x72D JUMPI PUSH2 0x3E6 JUMP JUMPDEST DUP1 PUSH4 0x57635E91 GT PUSH2 0x2D4 JUMPI DUP1 PUSH4 0x57635E91 EQ PUSH2 0x6A5 JUMPI DUP1 PUSH4 0x58D7BE8F EQ PUSH2 0x640 JUMPI DUP1 PUSH4 0x5953E197 EQ PUSH2 0x6C1 JUMPI DUP1 PUSH4 0x5C68308D EQ PUSH2 0x6C9 JUMPI PUSH2 0x3E6 JUMP JUMPDEST DUP1 PUSH4 0x47BE1C3E EQ PUSH2 0x640 JUMPI DUP1 PUSH4 0x4ABA3121 EQ PUSH2 0x640 JUMPI DUP1 PUSH4 0x4B24E3D3 EQ PUSH2 0x65F JUMPI DUP1 PUSH4 0x5109EF1C EQ PUSH2 0x69D JUMPI PUSH2 0x3E6 JUMP JUMPDEST DUP1 PUSH4 0x2F2FF15D GT PUSH2 0x37D JUMPI DUP1 PUSH4 0x3881D70C GT PUSH2 0x34C JUMPI DUP1 PUSH4 0x3881D70C EQ PUSH2 0x5B7 JUMPI DUP1 PUSH4 0x3C533B56 EQ PUSH2 0x5F5 JUMPI DUP1 PUSH4 0x3F521F8C EQ PUSH2 0x614 JUMPI DUP1 PUSH4 0x478222C2 EQ PUSH2 0x61C JUMPI PUSH2 0x3E6 JUMP JUMPDEST DUP1 PUSH4 0x2F2FF15D EQ PUSH2 0x557 JUMPI DUP1 PUSH4 0x32E197F4 EQ PUSH2 0x3EB JUMPI DUP1 PUSH4 0x36568ABE EQ PUSH2 0x583 JUMPI DUP1 PUSH4 0x37D87D70 EQ PUSH2 0x5AF JUMPI PUSH2 0x3E6 JUMP JUMPDEST DUP1 PUSH4 0x17852264 GT PUSH2 0x3B9 JUMPI DUP1 PUSH4 0x17852264 EQ PUSH2 0x4D9 JUMPI DUP1 PUSH4 0x223E5479 EQ PUSH2 0x4F3 JUMPI DUP1 PUSH4 0x248A9CA3 EQ PUSH2 0x519 JUMPI DUP1 PUSH4 0x276545FE EQ PUSH2 0x536 JUMPI PUSH2 0x3E6 JUMP JUMPDEST DUP1 PUSH4 0x6EC8CD7 EQ PUSH2 0x3EB JUMPI DUP1 PUSH4 0x9F2CDCD EQ PUSH2 0x410 JUMPI DUP1 PUSH4 0xD4B927F EQ PUSH2 0x461 JUMPI DUP1 PUSH4 0x14F4E974 EQ PUSH2 0x488 JUMPI JUMPDEST PUSH1 0x0 DUP1 REVERT JUMPDEST PUSH2 0x3F3 PUSH2 0xA90 JUMP JUMPDEST PUSH1 0x40 DUP1 MLOAD PUSH8 0xFFFFFFFFFFFFFFFF SWAP1 SWAP3 AND DUP3 MSTORE MLOAD SWAP1 DUP2 SWAP1 SUB PUSH1 0x20 ADD SWAP1 RETURN JUMPDEST PUSH2 0x45F PUSH1 0x4 DUP1 CALLDATASIZE SUB PUSH1 0xC0 DUP2 LT ISZERO PUSH2 0x426 JUMPI PUSH1 0x0 DUP1 REVERT JUMPDEST POP PUSH1 0x1 PUSH1 0x1 PUSH1 0xA0 SHL SUB DUP2 CALLDATALOAD DUP2 AND SWAP2 PUSH1 0x20 DUP2 ADD CALLDATALOAD DUP3 AND SWAP2 PUSH1 0x40 DUP3 ADD CALLDATALOAD ISZERO ISZERO SWAP2 PUSH1 0xFF PUSH1 0x60 DUP3 ADD CALLDATALOAD AND SWAP2 PUSH1 0x80 DUP3 ADD CALLDATALOAD AND SWAP1 PUSH1 0xA0 ADD CALLDATALOAD ISZERO ISZERO PUSH2 0xA99 JUMP JUMPDEST STOP JUMPDEST PUSH2 0x45F PUSH1 0x4 DUP1 CALLDATASIZE SUB PUSH1 0x40 DUP2 LT ISZERO PUSH2 0x477 JUMPI PUSH1 0x0 DUP1 REVERT JUMPDEST POP DUP1 CALLDATALOAD ISZERO ISZERO SWAP1 PUSH1 0x20 ADD CALLDATALOAD ISZERO ISZERO PUSH2 0xF61 JUMP JUMPDEST PUSH2 0x45F PUSH1 0x4 DUP1 CALLDATASIZE SUB PUSH1 0xE0 DUP2 LT ISZERO PUSH2 0x49E JUMPI PUSH1 0x0 DUP1 REVERT JUMPDEST POP DUP1 CALLDATALOAD SWAP1 PUSH4 0xFFFFFFFF PUSH1 0x20 DUP3 ADD CALLDATALOAD DUP2 AND SWAP2 PUSH1 0x40 DUP2 ADD CALLDATALOAD DUP3 AND SWAP2 PUSH1 0x60 DUP3 ADD CALLDATALOAD DUP2 AND SWAP2 PUSH1 0x80 DUP2 ADD CALLDATALOAD DUP3 AND SWAP2 PUSH1 0xA0 DUP3 ADD CALLDATALOAD DUP2 AND SWAP2 PUSH1 0xC0 ADD CALLDATALOAD AND PUSH2 0x1036 JUMP JUMPDEST PUSH2 0x4E1 PUSH2 0x1267 JUMP JUMPDEST PUSH1 0x40 DUP1 MLOAD SWAP2 DUP3 MSTORE MLOAD SWAP1 DUP2 SWAP1 SUB PUSH1 0x20 ADD SWAP1 RETURN JUMPDEST PUSH2 0x45F PUSH1 0x4 DUP1 CALLDATASIZE SUB PUSH1 0x20 DUP2 LT ISZERO PUSH2 0x509 JUMPI PUSH1 0x0 DUP1 REVERT JUMPDEST POP CALLDATALOAD PUSH1 0x1 PUSH1 0x1 PUSH1 0xA0 SHL SUB AND PUSH2 0x1336 JUMP JUMPDEST PUSH2 0x4E1 PUSH1 0x4 DUP1 CALLDATASIZE SUB PUSH1 0x20 DUP2 LT ISZERO PUSH2 0x52F JUMPI PUSH1 0x0 DUP1 REVERT JUMPDEST POP CALLDATALOAD PUSH2 0x14D3 JUMP JUMPDEST PUSH2 0x53E PUSH2 0x14E8 JUMP JUMPDEST PUSH1 0x40 DUP1 MLOAD PUSH4 0xFFFFFFFF SWAP1 SWAP3 AND DUP3 MSTORE MLOAD SWAP1 DUP2 SWAP1 SUB PUSH1 0x20 ADD SWAP1 RETURN JUMPDEST PUSH2 0x45F PUSH1 0x4 DUP1 CALLDATASIZE SUB PUSH1 0x40 DUP2 LT ISZERO PUSH2 0x56D JUMPI PUSH1 0x0 DUP1 REVERT JUMPDEST POP DUP1 CALLDATALOAD SWAP1 PUSH1 0x20 ADD CALLDATALOAD PUSH1 0x1 PUSH1 0x1 PUSH1 0xA0 SHL SUB AND PUSH2 0x1500 JUMP JUMPDEST PUSH2 0x45F PUSH1 0x4 DUP1 CALLDATASIZE SUB PUSH1 0x40 DUP2 LT ISZERO PUSH2 0x599 JUMPI PUSH1 0x0 DUP1 REVERT JUMPDEST POP DUP1 CALLDATALOAD SWAP1 PUSH1 0x20 ADD CALLDATALOAD PUSH1 0x1 PUSH1 0x1 PUSH1 0xA0 SHL SUB AND PUSH2 0x156C JUMP JUMPDEST PUSH2 0x53E PUSH2 0x15CD JUMP JUMPDEST PUSH2 0x45F PUSH1 0x4 DUP1 CALLDATASIZE SUB PUSH1 0xA0 DUP2 LT ISZERO PUSH2 0x5CD JUMPI PUSH1 0x0 DUP1 REVERT JUMPDEST POP PUSH1 0x1 PUSH1 0x1 PUSH1 0xA0 SHL SUB DUP2 CALLDATALOAD AND SWAP1 PUSH1 0x20 DUP2 ADD CALLDATALOAD SWAP1 PUSH1 0x40 DUP2 ADD CALLDATALOAD SWAP1 PUSH1 0x60 DUP2 ADD CALLDATALOAD SWAP1 PUSH1 0x80 ADD CALLDATALOAD PUSH2 0x15E0 JUMP JUMPDEST PUSH2 0x45F PUSH1 0x4 DUP1 CALLDATASIZE SUB PUSH1 0x20 DUP2 LT ISZERO PUSH2 0x60B JUMPI PUSH1 0x0 DUP1 REVERT JUMPDEST POP CALLDATALOAD ISZERO ISZERO PUSH2 0x173F JUMP JUMPDEST PUSH2 0x53E PUSH2 0x17E5 JUMP JUMPDEST PUSH2 0x624 PUSH2 0x17F9 JUMP JUMPDEST PUSH1 0x40 DUP1 MLOAD PUSH1 0x1 PUSH1 0x1 PUSH1 0xA0 SHL SUB SWAP1 SWAP3 AND DUP3 MSTORE MLOAD SWAP1 DUP2 SWAP1 SUB PUSH1 0x20 ADD SWAP1 RETURN JUMPDEST PUSH2 0x648 PUSH2 0x1808 JUMP JUMPDEST PUSH1 0x40 DUP1 MLOAD PUSH2 0xFFFF SWAP1 SWAP3 AND DUP3 MSTORE MLOAD SWAP1 DUP2 SWAP1 SUB PUSH1 0x20 ADD SWAP1 RETURN JUMPDEST PUSH2 0x45F PUSH1 0x4 DUP1 CALLDATASIZE SUB PUSH1 0xA0 DUP2 LT ISZERO PUSH2 0x675 JUMPI PUSH1 0x0 DUP1 REVERT JUMPDEST POP PUSH1 0x1 PUSH1 0x1 PUSH1 0xA0 SHL SUB DUP2 CALLDATALOAD AND SWAP1 PUSH1 0x20 DUP2 ADD CALLDATALOAD SWAP1 PUSH1 0x40 DUP2 ADD CALLDATALOAD SWAP1 PUSH1 0x60 DUP2 ADD CALLDATALOAD SWAP1 PUSH1 0x80 ADD CALLDATALOAD PUSH2 0x180E JUMP JUMPDEST PUSH2 0x4E1 PUSH2 0x1961 JUMP JUMPDEST PUSH2 0x6AD PUSH2 0x1967 JUMP JUMPDEST PUSH1 0x40 DUP1 MLOAD SWAP2 ISZERO ISZERO DUP3 MSTORE MLOAD SWAP1 DUP2 SWAP1 SUB PUSH1 0x20 ADD SWAP1 RETURN JUMPDEST PUSH2 0x624 PUSH2 0x1970 JUMP JUMPDEST PUSH2 0x624 PUSH2 0x197F JUMP JUMPDEST PUSH2 0x45F PUSH1 0x4 DUP1 CALLDATASIZE SUB PUSH1 0xA0 DUP2 LT ISZERO PUSH2 0x6E7 JUMPI PUSH1 0x0 DUP1 REVERT JUMPDEST POP PUSH1 0x1 PUSH1 0x1 PUSH1 0xA0 SHL SUB DUP2 CALLDATALOAD AND SWAP1 PUSH1 0x20 DUP2 ADD CALLDATALOAD SWAP1 PUSH1 0x40 DUP2 ADD CALLDATALOAD SWAP1 PUSH1 0x60 DUP2 ADD CALLDATALOAD SWAP1 PUSH1 0x80 ADD CALLDATALOAD PUSH2 0x198E JUMP JUMPDEST PUSH2 0x717 PUSH2 0x1AE1 JUMP JUMPDEST PUSH1 0x40 DUP1 MLOAD PUSH1 0xFF SWAP1 SWAP3 AND DUP3 MSTORE MLOAD SWAP1 DUP2 SWAP1 SUB PUSH1 0x20 ADD SWAP1 RETURN JUMPDEST PUSH2 0x6AD PUSH2 0x1AE6 JUMP JUMPDEST PUSH2 0x45F PUSH2 0x1AF7 JUMP JUMPDEST PUSH2 0x53E PUSH2 0x1BA3 JUMP JUMPDEST PUSH2 0x6AD PUSH2 0x1BAF JUMP JUMPDEST PUSH2 0x624 PUSH2 0x1BBE JUMP JUMPDEST PUSH2 0x4E1 PUSH2 0x1BCD JUMP JUMPDEST PUSH2 0x624 PUSH2 0x1C91 JUMP JUMPDEST PUSH2 0x4E1 PUSH2 0x1CA0 JUMP JUMPDEST PUSH2 0x793 PUSH1 0x4 DUP1 CALLDATASIZE SUB PUSH1 0x20 DUP2 LT ISZERO PUSH2 0x783 JUMPI PUSH1 0x0 DUP1 REVERT JUMPDEST POP CALLDATALOAD PUSH1 0x1 PUSH1 0x1 PUSH1 0xA0 SHL SUB AND PUSH2 0x1CC4 JUMP JUMPDEST PUSH1 0x40 DUP1 MLOAD PUSH1 0x1 PUSH1 0x1 PUSH1 0xA0 SHL SUB SWAP9 DUP10 AND DUP2 MSTORE SWAP7 ISZERO ISZERO PUSH1 0x20 DUP9 ADD MSTORE SWAP5 DUP8 AND DUP7 DUP7 ADD MSTORE SWAP3 ISZERO ISZERO PUSH1 0x60 DUP7 ADD MSTORE PUSH1 0xFF SWAP1 SWAP2 AND PUSH1 0x80 DUP6 ADD MSTORE SWAP1 SWAP4 AND PUSH1 0xA0 DUP4 ADD MSTORE SWAP2 ISZERO ISZERO PUSH1 0xC0 DUP3 ADD MSTORE SWAP1 MLOAD SWAP1 DUP2 SWAP1 SUB PUSH1 0xE0 ADD SWAP1 RETURN JUMPDEST PUSH2 0x624 PUSH2 0x1D18 JUMP JUMPDEST PUSH2 0x45F PUSH1 0x4 DUP1 CALLDATASIZE SUB PUSH1 0x20 DUP2 LT ISZERO PUSH2 0x7FF JUMPI PUSH1 0x0 DUP1 REVERT JUMPDEST POP CALLDATALOAD ISZERO ISZERO PUSH2 0x1D27 JUMP JUMPDEST PUSH2 0x624 PUSH1 0x4 DUP1 CALLDATASIZE SUB PUSH1 0x40 DUP2 LT ISZERO PUSH2 0x81E JUMPI PUSH1 0x0 DUP1 REVERT JUMPDEST POP DUP1 CALLDATALOAD SWAP1 PUSH1 0x20 ADD CALLDATALOAD PUSH2 0x1DD8 JUMP JUMPDEST PUSH2 0x6AD PUSH1 0x4 DUP1 CALLDATASIZE SUB PUSH1 0x40 DUP2 LT ISZERO PUSH2 0x841 JUMPI PUSH1 0x0 DUP1 REVERT JUMPDEST POP DUP1 CALLDATALOAD SWAP1 PUSH1 0x20 ADD CALLDATALOAD PUSH1 0x1 PUSH1 0x1 PUSH1 0xA0 SHL SUB AND PUSH2 0x1DF9 JUMP JUMPDEST PUSH2 0x87D PUSH1 0x4 DUP1 CALLDATASIZE SUB PUSH1 0x20 DUP2 LT ISZERO PUSH2 0x86D JUMPI PUSH1 0x0 DUP1 REVERT JUMPDEST POP CALLDATALOAD PUSH1 0x1 PUSH1 0x1 PUSH1 0xA0 SHL SUB AND PUSH2 0x1E11 JUMP JUMPDEST PUSH1 0x40 DUP1 MLOAD PUSH1 0x1 PUSH1 0x1 PUSH1 0xA0 SHL SUB SWAP1 SWAP4 AND DUP4 MSTORE SWAP1 ISZERO ISZERO PUSH1 0x20 DUP4 ADD MSTORE DUP1 MLOAD SWAP2 DUP3 SWAP1 SUB ADD SWAP1 RETURN JUMPDEST PUSH2 0x53E PUSH2 0x1E38 JUMP JUMPDEST PUSH2 0x6AD PUSH2 0x1E44 JUMP JUMPDEST PUSH2 0x53E PUSH2 0x1E54 JUMP JUMPDEST PUSH2 0x4E1 PUSH2 0x1E67 JUMP JUMPDEST PUSH2 0x45F PUSH1 0x4 DUP1 CALLDATASIZE SUB PUSH1 0xA0 DUP2 LT ISZERO PUSH2 0x8D6 JUMPI PUSH1 0x0 DUP1 REVERT JUMPDEST POP PUSH1 0x1 PUSH1 0x1 PUSH1 0xA0 SHL SUB DUP2 CALLDATALOAD AND SWAP1 PUSH1 0x20 DUP2 ADD CALLDATALOAD SWAP1 PUSH1 0x40 DUP2 ADD CALLDATALOAD SWAP1 PUSH1 0x60 DUP2 ADD CALLDATALOAD SWAP1 PUSH1 0x80 ADD CALLDATALOAD PUSH2 0x1E6C JUMP JUMPDEST PUSH2 0x4E1 PUSH2 0x1FBC JUMP JUMPDEST PUSH2 0x45F PUSH1 0x4 DUP1 CALLDATASIZE SUB PUSH1 0xC0 DUP2 LT ISZERO PUSH2 0x91C JUMPI PUSH1 0x0 DUP1 REVERT JUMPDEST POP PUSH1 0x1 PUSH1 0x1 PUSH1 0xA0 SHL SUB DUP2 CALLDATALOAD DUP2 AND SWAP2 PUSH1 0x20 DUP2 ADD CALLDATALOAD DUP3 AND SWAP2 PUSH1 0x40 DUP3 ADD CALLDATALOAD ISZERO ISZERO SWAP2 PUSH1 0xFF PUSH1 0x60 DUP3 ADD CALLDATALOAD AND SWAP2 PUSH1 0x80 DUP3 ADD CALLDATALOAD AND SWAP1 PUSH1 0xA0 ADD CALLDATALOAD ISZERO ISZERO PUSH2 0x1FC2 JUMP JUMPDEST PUSH2 0x45F PUSH2 0x21ED JUMP JUMPDEST PUSH2 0x45F PUSH2 0x25A3 JUMP JUMPDEST PUSH2 0x4E1 PUSH2 0x2909 JUMP JUMPDEST PUSH2 0x624 PUSH2 0x2AB1 JUMP JUMPDEST PUSH2 0x45F PUSH1 0x4 DUP1 CALLDATASIZE SUB PUSH1 0x60 DUP2 LT ISZERO PUSH2 0x98B JUMPI PUSH1 0x0 DUP1 REVERT JUMPDEST POP PUSH1 0x1 PUSH1 0x1 PUSH1 0xA0 SHL SUB DUP2 CALLDATALOAD DUP2 AND SWAP2 PUSH1 0x20 DUP2 ADD CALLDATALOAD DUP3 AND SWAP2 PUSH1 0x40 SWAP1 SWAP2 ADD CALLDATALOAD AND PUSH2 0x2AC7 JUMP JUMPDEST PUSH2 0x45F PUSH1 0x4 DUP1 CALLDATASIZE SUB PUSH1 0x20 DUP2 LT ISZERO PUSH2 0x9C3 JUMPI PUSH1 0x0 DUP1 REVERT JUMPDEST POP CALLDATALOAD PUSH1 0x1 PUSH1 0x1 PUSH1 0xA0 SHL SUB AND PUSH2 0x2C83 JUMP JUMPDEST PUSH2 0x4E1 PUSH1 0x4 DUP1 CALLDATASIZE SUB PUSH1 0x20 DUP2 LT ISZERO PUSH2 0x9E9 JUMPI PUSH1 0x0 DUP1 REVERT JUMPDEST POP CALLDATALOAD PUSH2 0x2D07 JUMP JUMPDEST PUSH2 0x45F PUSH1 0x4 DUP1 CALLDATASIZE SUB PUSH1 0x40 DUP2 LT ISZERO PUSH2 0xA06 JUMPI PUSH1 0x0 DUP1 REVERT JUMPDEST POP DUP1 CALLDATALOAD SWAP1 PUSH1 0x20 ADD CALLDATALOAD PUSH1 0x1 PUSH1 0x1 PUSH1 0xA0 SHL SUB AND PUSH2 0x2D1E JUMP JUMPDEST PUSH2 0x53E PUSH2 0x2D77 JUMP JUMPDEST PUSH2 0x4E1 PUSH2 0x2D8A JUMP JUMPDEST PUSH2 0x6AD PUSH2 0x2DAA JUMP JUMPDEST PUSH2 0x45F PUSH1 0x4 DUP1 CALLDATASIZE SUB PUSH1 0x20 DUP2 LT ISZERO PUSH2 0xA4A JUMPI PUSH1 0x0 DUP1 REVERT JUMPDEST POP CALLDATALOAD PUSH1 0x1 PUSH1 0x1 PUSH1 0xA0 SHL SUB AND PUSH2 0x2DB8 JUMP JUMPDEST PUSH2 0x45F PUSH1 0x4 DUP1 CALLDATASIZE SUB PUSH1 0x20 DUP2 LT ISZERO PUSH2 0xA70 JUMPI PUSH1 0x0 DUP1 REVERT JUMPDEST POP CALLDATALOAD PUSH1 0x1 PUSH1 0x1 PUSH1 0xA0 SHL SUB AND PUSH2 0x2EBB JUMP JUMPDEST PUSH2 0x4E1 PUSH2 0x2F3F JUMP JUMPDEST PUSH2 0x4E1 PUSH2 0x2F45 JUMP JUMPDEST PUSH5 0xE8D4A51000 DUP2 JUMP JUMPDEST PUSH2 0xAA1 PUSH2 0x2F4B JUMP JUMPDEST PUSH1 0x1 PUSH1 0x1 PUSH1 0xA0 SHL SUB AND PUSH2 0xAB2 PUSH2 0x1D18 JUMP JUMPDEST PUSH1 0x1 PUSH1 0x1 PUSH1 0xA0 SHL SUB AND EQ PUSH2 0xAFB JUMPI PUSH1 0x40 DUP1 MLOAD PUSH3 0x461BCD PUSH1 0xE5 SHL DUP2 MSTORE PUSH1 0x20 PUSH1 0x4 DUP3 ADD DUP2 SWAP1 MSTORE PUSH1 0x24 DUP3 ADD MSTORE PUSH1 0x0 DUP1 MLOAD PUSH1 0x20 PUSH2 0x531F DUP4 CODECOPY DUP2 MLOAD SWAP2 MSTORE PUSH1 0x44 DUP3 ADD MSTORE SWAP1 MLOAD SWAP1 DUP2 SWAP1 SUB PUSH1 0x64 ADD SWAP1 REVERT JUMPDEST PUSH1 0x1 PUSH1 0x1 PUSH1 0xA0 SHL SUB DUP7 AND PUSH1 0x0 SWAP1 DUP2 MSTORE PUSH1 0xD5 PUSH1 0x20 MSTORE PUSH1 0x40 SWAP1 KECCAK256 SLOAD PUSH1 0x1 PUSH1 0xA0 SHL SWAP1 DIV PUSH1 0xFF AND ISZERO PUSH2 0xB63 JUMPI PUSH1 0x40 DUP1 MLOAD PUSH3 0x461BCD PUSH1 0xE5 SHL DUP2 MSTORE PUSH1 0x20 PUSH1 0x4 DUP3 ADD MSTORE PUSH1 0x10 PUSH1 0x24 DUP3 ADD MSTORE PUSH16 0x10DBDB1B185D195C985B081859191959 PUSH1 0x82 SHL PUSH1 0x44 DUP3 ADD MSTORE SWAP1 MLOAD SWAP1 DUP2 SWAP1 SUB PUSH1 0x64 ADD SWAP1 REVERT JUMPDEST PUSH1 0x12 DUP7 PUSH1 0x1 PUSH1 0x1 PUSH1 0xA0 SHL SUB AND PUSH4 0x313CE567 PUSH1 0x40 MLOAD DUP2 PUSH4 0xFFFFFFFF AND PUSH1 0xE0 SHL DUP2 MSTORE PUSH1 0x4 ADD PUSH1 0x20 PUSH1 0x40 MLOAD DUP1 DUP4 SUB DUP2 DUP7 DUP1 EXTCODESIZE ISZERO DUP1 ISZERO PUSH2 0xB9E JUMPI PUSH1 0x0 DUP1 REVERT JUMPDEST POP GAS STATICCALL ISZERO DUP1 ISZERO PUSH2 0xBB2 JUMPI RETURNDATASIZE PUSH1 0x0 DUP1 RETURNDATACOPY RETURNDATASIZE PUSH1 0x0 REVERT JUMPDEST POP POP POP POP PUSH1 0x40 MLOAD RETURNDATASIZE PUSH1 0x20 DUP2 LT ISZERO PUSH2 0xBC8 JUMPI PUSH1 0x0 DUP1 REVERT JUMPDEST POP MLOAD PUSH1 0xFF AND GT ISZERO PUSH2 0xC0A JUMPI PUSH1 0x40 MLOAD PUSH3 0x461BCD PUSH1 0xE5 SHL DUP2 MSTORE PUSH1 0x4 ADD DUP1 DUP1 PUSH1 0x20 ADD DUP3 DUP2 SUB DUP3 MSTORE PUSH1 0x2C DUP2 MSTORE PUSH1 0x20 ADD DUP1 PUSH2 0x536D PUSH1 0x2C SWAP2 CODECOPY PUSH1 0x40 ADD SWAP2 POP POP PUSH1 0x40 MLOAD DUP1 SWAP2 SUB SWAP1 REVERT JUMPDEST PUSH1 0x0 PUSH1 0xD5 PUSH1 0x0 DUP9 PUSH1 0x1 PUSH1 0x1 PUSH1 0xA0 SHL SUB AND PUSH1 0x1 PUSH1 0x1 PUSH1 0xA0 SHL SUB AND DUP2 MSTORE PUSH1 0x20 ADD SWAP1 DUP2 MSTORE PUSH1 0x20 ADD PUSH1 0x0 KECCAK256 SWAP1 POP DUP7 DUP2 PUSH1 0x0 ADD PUSH1 0x0 PUSH2 0x100 EXP DUP2 SLOAD DUP2 PUSH1 0x1 PUSH1 0x1 PUSH1 0xA0 SHL SUB MUL NOT AND SWAP1 DUP4 PUSH1 0x1 PUSH1 0x1 PUSH1 0xA0 SHL SUB AND MUL OR SWAP1 SSTORE POP PUSH1 0x1 DUP2 PUSH1 0x0 ADD PUSH1 0x14 PUSH2 0x100 EXP DUP2 SLOAD DUP2 PUSH1 0xFF MUL NOT AND SWAP1 DUP4 ISZERO ISZERO MUL OR SWAP1 SSTORE POP DUP6 DUP2 PUSH1 0x1 ADD PUSH1 0x0 PUSH2 0x100 EXP DUP2 SLOAD DUP2 PUSH1 0x1 PUSH1 0x1 PUSH1 0xA0 SHL SUB MUL NOT AND SWAP1 DUP4 PUSH1 0x1 PUSH1 0x1 PUSH1 0xA0 SHL SUB AND MUL OR SWAP1 SSTORE POP DUP5 DUP2 PUSH1 0x1 ADD PUSH1 0x14 PUSH2 0x100 EXP DUP2 SLOAD DUP2 PUSH1 0xFF MUL NOT AND SWAP1 DUP4 ISZERO ISZERO MUL OR SWAP1 SSTORE POP DUP4 DUP2 PUSH1 0x1 ADD PUSH1 0x15 PUSH2 0x100 EXP DUP2 SLOAD DUP2 PUSH1 0xFF MUL NOT AND SWAP1 DUP4 PUSH1 0xFF AND MUL OR SWAP1 SSTORE POP DUP3 DUP2 PUSH1 0x2 ADD PUSH1 0x0 PUSH2 0x100 EXP DUP2 SLOAD DUP2 PUSH1 0x1 PUSH1 0x1 PUSH1 0xA0 SHL SUB MUL NOT AND SWAP1 DUP4 PUSH1 0x1 PUSH1 0x1 PUSH1 0xA0 SHL SUB AND MUL OR SWAP1 SSTORE POP DUP2 DUP2 PUSH1 0x2 ADD PUSH1 0x14 PUSH2 0x100 EXP DUP2 SLOAD DUP2 PUSH1 0xFF MUL NOT AND SWAP1 DUP4 ISZERO ISZERO MUL OR SWAP1 SSTORE POP PUSH1 0xD7 DUP2 SWAP1 DUP1 PUSH1 0x1 DUP2 SLOAD ADD DUP1 DUP3 SSTORE DUP1 SWAP2 POP POP PUSH1 0x1 SWAP1 SUB SWAP1 PUSH1 0x0 MSTORE PUSH1 0x20 PUSH1 0x0 KECCAK256 SWAP1 PUSH1 0x3 MUL ADD PUSH1 0x0 SWAP1 SWAP2 SWAP1 SWAP2 SWAP1 SWAP2 POP PUSH1 0x0 DUP3 ADD PUSH1 0x0 SWAP1 SLOAD SWAP1 PUSH2 0x100 EXP SWAP1 DIV PUSH1 0x1 PUSH1 0x1 PUSH1 0xA0 SHL SUB AND DUP2 PUSH1 0x0 ADD PUSH1 0x0 PUSH2 0x100 EXP DUP2 SLOAD DUP2 PUSH1 0x1 PUSH1 0x1 PUSH1 0xA0 SHL SUB MUL NOT AND SWAP1 DUP4 PUSH1 0x1 PUSH1 0x1 PUSH1 0xA0 SHL SUB AND MUL OR SWAP1 SSTORE POP PUSH1 0x0 DUP3 ADD PUSH1 0x14 SWAP1 SLOAD SWAP1 PUSH2 0x100 EXP SWAP1 DIV PUSH1 0xFF AND DUP2 PUSH1 0x0 ADD PUSH1 0x14 PUSH2 0x100 EXP DUP2 SLOAD DUP2 PUSH1 0xFF MUL NOT AND SWAP1 DUP4 ISZERO ISZERO MUL OR SWAP1 SSTORE POP PUSH1 0x1 DUP3 ADD PUSH1 0x0 SWAP1 SLOAD SWAP1 PUSH2 0x100 EXP SWAP1 DIV PUSH1 0x1 PUSH1 0x1 PUSH1 0xA0 SHL SUB AND DUP2 PUSH1 0x1 ADD PUSH1 0x0 PUSH2 0x100 EXP DUP2 SLOAD DUP2 PUSH1 0x1 PUSH1 0x1 PUSH1 0xA0 SHL SUB MUL NOT AND SWAP1 DUP4 PUSH1 0x1 PUSH1 0x1 PUSH1 0xA0 SHL SUB AND MUL OR SWAP1 SSTORE POP PUSH1 0x1 DUP3 ADD PUSH1 0x14 SWAP1 SLOAD SWAP1 PUSH2 0x100 EXP SWAP1 DIV PUSH1 0xFF AND DUP2 PUSH1 0x1 ADD PUSH1 0x14 PUSH2 0x100 EXP DUP2 SLOAD DUP2 PUSH1 0xFF MUL NOT AND SWAP1 DUP4 ISZERO ISZERO MUL OR SWAP1 SSTORE POP PUSH1 0x1 DUP3 ADD PUSH1 0x15 SWAP1 SLOAD SWAP1 PUSH2 0x100 EXP SWAP1 DIV PUSH1 0xFF AND DUP2 PUSH1 0x1 ADD PUSH1 0x15 PUSH2 0x100 EXP DUP2 SLOAD DUP2 PUSH1 0xFF MUL NOT AND SWAP1 DUP4 PUSH1 0xFF AND MUL OR SWAP1 SSTORE POP PUSH1 0x2 DUP3 ADD PUSH1 0x0 SWAP1 SLOAD SWAP1 PUSH2 0x100 EXP SWAP1 DIV PUSH1 0x1 PUSH1 0x1 PUSH1 0xA0 SHL SUB AND DUP2 PUSH1 0x2 ADD PUSH1 0x0 PUSH2 0x100 EXP DUP2 SLOAD DUP2 PUSH1 0x1 PUSH1 0x1 PUSH1 0xA0 SHL SUB MUL NOT AND SWAP1 DUP4 PUSH1 0x1 PUSH1 0x1 PUSH1 0xA0 SHL SUB AND MUL OR SWAP1 SSTORE POP PUSH1 0x2 DUP3 ADD PUSH1 0x14 SWAP1 SLOAD SWAP1 PUSH2 0x100 EXP SWAP1 DIV PUSH1 0xFF AND DUP2 PUSH1 0x2 ADD PUSH1 0x14 PUSH2 0x100 EXP DUP2 SLOAD DUP2 PUSH1 0xFF MUL NOT AND SWAP1 DUP4 ISZERO ISZERO MUL OR SWAP1 SSTORE POP POP POP DUP7 PUSH1 0x1 PUSH1 0x1 PUSH1 0xA0 SHL SUB AND PUSH32 0xB74901440F0E5D23BD60355BF8D84403DF003DC885BA6E8759712F8A34DB5E59 DUP3 PUSH1 0x0 ADD PUSH1 0x14 SWAP1 SLOAD SWAP1 PUSH2 0x100 EXP SWAP1 DIV PUSH1 0xFF AND DUP9 DUP9 DUP9 DUP9 DUP9 PUSH1 0x40 MLOAD DUP1 DUP8 ISZERO ISZERO DUP2 MSTORE PUSH1 0x20 ADD DUP7 PUSH1 0x1 PUSH1 0x1 PUSH1 0xA0 SHL SUB AND DUP2 MSTORE PUSH1 0x20 ADD DUP6 ISZERO ISZERO DUP2 MSTORE PUSH1 0x20 ADD DUP5 PUSH1 0xFF AND DUP2 MSTORE PUSH1 0x20 ADD DUP4 PUSH1 0x1 PUSH1 0x1 PUSH1 0xA0 SHL SUB AND DUP2 MSTORE PUSH1 0x20 ADD DUP3 ISZERO ISZERO DUP2 MSTORE PUSH1 0x20 ADD SWAP7 POP POP POP POP POP POP POP PUSH1 0x40 MLOAD DUP1 SWAP2 SUB SWAP1 LOG2 POP POP POP POP POP POP POP JUMP JUMPDEST PUSH2 0xF69 PUSH2 0x2F4B JUMP JUMPDEST PUSH1 0x1 PUSH1 0x1 PUSH1 0xA0 SHL SUB AND PUSH2 0xF7A PUSH2 0x1D18 JUMP JUMPDEST PUSH1 0x1 PUSH1 0x1 PUSH1 0xA0 SHL SUB AND EQ PUSH2 0xFC3 JUMPI PUSH1 0x40 DUP1 MLOAD PUSH3 0x461BCD PUSH1 0xE5 SHL DUP2 MSTORE PUSH1 0x20 PUSH1 0x4 DUP3 ADD DUP2 SWAP1 MSTORE PUSH1 0x24 DUP3 ADD MSTORE PUSH1 0x0 DUP1 MLOAD PUSH1 0x20 PUSH2 0x531F DUP4 CODECOPY DUP2 MLOAD SWAP2 MSTORE PUSH1 0x44 DUP3 ADD MSTORE SWAP1 MLOAD SWAP1 DUP2 SWAP1 SUB PUSH1 0x64 ADD SWAP1 REVERT JUMPDEST PUSH1 0xC9 DUP1 SLOAD PUSH4 0xFF000000 NOT AND PUSH4 0x1000000 DUP5 ISZERO ISZERO DUP2 MUL SWAP2 SWAP1 SWAP2 OR PUSH5 0xFF00000000 NOT AND PUSH5 0x100000000 DUP5 ISZERO ISZERO DUP2 MUL SWAP2 SWAP1 SWAP2 OR SWAP3 DUP4 SWAP1 SSTORE PUSH1 0x40 MLOAD PUSH1 0xFF SWAP2 DUP5 DIV DUP3 AND ISZERO ISZERO SWAP4 SWAP3 SWAP1 SWAP3 DIV AND ISZERO ISZERO SWAP1 PUSH32 0x8E363288229795661DC4CD7765BB22AF3B1DDB395A07CD4894D365D6EBD5D671 SWAP1 PUSH1 0x0 SWAP1 LOG3 POP POP JUMP JUMPDEST PUSH2 0x103E PUSH2 0x2F4B JUMP JUMPDEST PUSH1 0x1 PUSH1 0x1 PUSH1 0xA0 SHL SUB AND PUSH2 0x104F PUSH2 0x1D18 JUMP JUMPDEST PUSH1 0x1 PUSH1 0x1 PUSH1 0xA0 SHL SUB AND EQ PUSH2 0x1098 JUMPI PUSH1 0x40 DUP1 MLOAD PUSH3 0x461BCD PUSH1 0xE5 SHL DUP2 MSTORE PUSH1 0x20 PUSH1 0x4 DUP3 ADD DUP2 SWAP1 MSTORE PUSH1 0x24 DUP3 ADD MSTORE PUSH1 0x0 DUP1 MLOAD PUSH1 0x20 PUSH2 0x531F DUP4 CODECOPY DUP2 MLOAD SWAP2 MSTORE PUSH1 0x44 DUP3 ADD MSTORE SWAP1 MLOAD SWAP1 DUP2 SWAP1 SUB PUSH1 0x64 ADD SWAP1 REVERT JUMPDEST DUP7 PUSH1 0xD3 DUP2 SWAP1 SSTORE POP DUP6 PUSH1 0xD4 PUSH1 0x0 PUSH2 0x100 EXP DUP2 SLOAD DUP2 PUSH4 0xFFFFFFFF MUL NOT AND SWAP1 DUP4 PUSH4 0xFFFFFFFF AND MUL OR SWAP1 SSTORE POP DUP5 PUSH1 0xD4 PUSH1 0x4 PUSH2 0x100 EXP DUP2 SLOAD DUP2 PUSH4 0xFFFFFFFF MUL NOT AND SWAP1 DUP4 PUSH4 0xFFFFFFFF AND MUL OR SWAP1 SSTORE POP DUP4 PUSH1 0xD4 PUSH1 0x8 PUSH2 0x100 EXP DUP2 SLOAD DUP2 PUSH4 0xFFFFFFFF MUL NOT AND SWAP1 DUP4 PUSH4 0xFFFFFFFF AND MUL OR SWAP1 SSTORE POP DUP3 PUSH1 0xD4 PUSH1 0xC PUSH2 0x100 EXP DUP2 SLOAD DUP2 PUSH4 0xFFFFFFFF MUL NOT AND SWAP1 DUP4 PUSH4 0xFFFFFFFF AND MUL OR SWAP1 SSTORE POP DUP2 PUSH1 0xD4 PUSH1 0x10 PUSH2 0x100 EXP DUP2 SLOAD DUP2 PUSH4 0xFFFFFFFF MUL NOT AND SWAP1 DUP4 PUSH4 0xFFFFFFFF AND MUL OR SWAP1 SSTORE POP DUP1 PUSH1 0xD4 PUSH1 0x14 PUSH2 0x100 EXP DUP2 SLOAD DUP2 PUSH4 0xFFFFFFFF MUL NOT AND SWAP1 DUP4 PUSH4 0xFFFFFFFF AND MUL OR SWAP1 SSTORE POP PUSH32 0x54CE0B11EF28E3402C63CFC90282C636BB07CCE2EC4A737DBD0B2FB60B7158F7 PUSH1 0xD3 SLOAD PUSH1 0xD4 PUSH1 0x0 SWAP1 SLOAD SWAP1 PUSH2 0x100 EXP SWAP1 DIV PUSH4 0xFFFFFFFF AND PUSH1 0xD4 PUSH1 0x4 SWAP1 SLOAD SWAP1 PUSH2 0x100 EXP SWAP1 DIV PUSH4 0xFFFFFFFF AND PUSH1 0xD4 PUSH1 0x8 SWAP1 SLOAD SWAP1 PUSH2 0x100 EXP SWAP1 DIV PUSH4 0xFFFFFFFF AND PUSH1 0xD4 PUSH1 0xC SWAP1 SLOAD SWAP1 PUSH2 0x100 EXP SWAP1 DIV PUSH4 0xFFFFFFFF AND PUSH1 0xD4 PUSH1 0x10 SWAP1 SLOAD SWAP1 PUSH2 0x100 EXP SWAP1 DIV PUSH4 0xFFFFFFFF AND PUSH1 0xD4 PUSH1 0x14 SWAP1 SLOAD SWAP1 PUSH2 0x100 EXP SWAP1 DIV PUSH4 0xFFFFFFFF AND PUSH1 0x40 MLOAD DUP1 DUP9 DUP2 MSTORE PUSH1 0x20 ADD DUP8 PUSH4 0xFFFFFFFF AND DUP2 MSTORE PUSH1 0x20 ADD DUP7 PUSH4 0xFFFFFFFF AND DUP2 MSTORE PUSH1 0x20 ADD DUP6 PUSH4 0xFFFFFFFF AND DUP2 MSTORE PUSH1 0x20 ADD DUP5 PUSH4 0xFFFFFFFF AND DUP2 MSTORE PUSH1 0x20 ADD DUP4 PUSH4 0xFFFFFFFF AND DUP2 MSTORE PUSH1 0x20 ADD DUP3 PUSH4 0xFFFFFFFF AND DUP2 MSTORE PUSH1 0x20 ADD SWAP8 POP POP POP POP POP POP POP POP PUSH1 0x40 MLOAD DUP1 SWAP2 SUB SWAP1 LOG1 POP POP POP POP POP POP POP JUMP JUMPDEST PUSH1 0x0 DUP1 JUMPDEST PUSH1 0xD7 SLOAD DUP2 LT ISZERO PUSH2 0x1332 JUMPI PUSH2 0x127D PUSH2 0x509C JUMP JUMPDEST PUSH1 0xD7 DUP3 DUP2 SLOAD DUP2 LT PUSH2 0x128A JUMPI INVALID JUMPDEST PUSH1 0x0 SWAP2 DUP3 MSTORE PUSH1 0x20 SWAP2 DUP3 SWAP1 KECCAK256 PUSH1 0x40 DUP1 MLOAD PUSH1 0xE0 DUP2 ADD DUP3 MSTORE PUSH1 0x3 SWAP1 SWAP4 MUL SWAP1 SWAP2 ADD DUP1 SLOAD PUSH1 0x1 PUSH1 0x1 PUSH1 0xA0 SHL SUB DUP1 DUP3 AND DUP1 DUP7 MSTORE PUSH1 0xFF PUSH1 0x1 PUSH1 0xA0 SHL SWAP4 DUP5 SWAP1 DIV DUP2 AND ISZERO ISZERO SWAP8 DUP8 ADD SWAP8 SWAP1 SWAP8 MSTORE PUSH1 0x1 DUP5 ADD SLOAD DUP1 DUP4 AND SWAP6 DUP8 ADD SWAP6 SWAP1 SWAP6 MSTORE DUP3 DUP6 DIV DUP8 AND ISZERO ISZERO PUSH1 0x60 DUP8 ADD MSTORE PUSH1 0x1 PUSH1 0xA8 SHL SWAP1 SWAP5 DIV DUP7 AND PUSH1 0x80 DUP7 ADD MSTORE PUSH1 0x2 SWAP1 SWAP3 ADD SLOAD SWAP2 DUP3 AND PUSH1 0xA0 DUP6 ADD MSTORE SWAP1 DIV SWAP1 SWAP3 AND ISZERO ISZERO PUSH1 0xC0 DUP3 ADD MSTORE SWAP2 POP PUSH2 0x1327 SWAP1 PUSH2 0x1320 SWAP1 PUSH2 0x2F4F JUMP JUMPDEST DUP5 SWAP1 PUSH2 0x328A JUMP JUMPDEST SWAP3 POP POP PUSH1 0x1 ADD PUSH2 0x126B JUMP JUMPDEST POP SWAP1 JUMP JUMPDEST PUSH2 0x133E PUSH2 0x2F4B JUMP JUMPDEST PUSH1 0x1 PUSH1 0x1 PUSH1 0xA0 SHL SUB AND PUSH2 0x134F PUSH2 0x1D18 JUMP JUMPDEST PUSH1 0x1 PUSH1 0x1 PUSH1 0xA0 SHL SUB AND EQ PUSH2 0x1398 JUMPI PUSH1 0x40 DUP1 MLOAD PUSH3 0x461BCD PUSH1 0xE5 SHL DUP2 MSTORE PUSH1 0x20 PUSH1 0x4 DUP3 ADD DUP2 SWAP1 MSTORE PUSH1 0x24 DUP3 ADD MSTORE PUSH1 0x0 DUP1 MLOAD PUSH1 0x20 PUSH2 0x531F DUP4 CODECOPY DUP2 MLOAD SWAP2 MSTORE PUSH1 0x44 DUP3 ADD MSTORE SWAP1 MLOAD SWAP1 DUP2 SWAP1 SUB PUSH1 0x64 ADD SWAP1 REVERT JUMPDEST PUSH1 0x1 PUSH1 0x1 PUSH1 0xA0 SHL SUB DUP2 AND PUSH1 0x0 SWAP1 DUP2 MSTORE PUSH1 0xD6 PUSH1 0x20 MSTORE PUSH1 0x40 SWAP1 KECCAK256 SLOAD PUSH1 0x1 PUSH1 0xA0 SHL SWAP1 DIV PUSH1 0xFF AND ISZERO PUSH2 0x13FE JUMPI PUSH1 0x40 DUP1 MLOAD PUSH3 0x461BCD PUSH1 0xE5 SHL DUP2 MSTORE PUSH1 0x20 PUSH1 0x4 DUP3 ADD MSTORE PUSH1 0xE PUSH1 0x24 DUP3 ADD MSTORE PUSH14 0x14DD1C985D1959DE481859191959 PUSH1 0x92 SHL PUSH1 0x44 DUP3 ADD MSTORE SWAP1 MLOAD SWAP1 DUP2 SWAP1 SUB PUSH1 0x64 ADD SWAP1 REVERT JUMPDEST PUSH1 0x1 PUSH1 0x1 PUSH1 0xA0 SHL SUB DUP1 DUP3 AND PUSH1 0x0 DUP2 DUP2 MSTORE PUSH1 0xD6 PUSH1 0x20 SWAP1 DUP2 MSTORE PUSH1 0x40 DUP1 DUP4 KECCAK256 DUP1 SLOAD PUSH1 0xFF PUSH1 0xA0 SHL NOT PUSH1 0x1 PUSH1 0x1 PUSH1 0xA0 SHL SUB NOT SWAP2 DUP3 AND DUP8 OR DUP2 AND PUSH1 0x1 PUSH1 0xA0 SHL SWAP1 DUP2 OR DUP5 SSTORE PUSH1 0xD8 DUP1 SLOAD PUSH1 0x1 DUP2 DUP2 ADD DUP4 SSTORE SWAP2 SWAP1 SWAP9 MSTORE DUP5 SLOAD PUSH32 0x5320AD99A619A90804CD2EFE3A5CF0AC1AC5C41AD9FF2C61CF699EFDAD771096 SWAP1 SWAP9 ADD DUP1 SLOAD SWAP1 SWAP5 AND SWAP8 SWAP1 SWAP10 AND SWAP7 SWAP1 SWAP7 OR DUP1 DUP4 SSTORE DUP4 SLOAD DUP8 SWAP1 DIV PUSH1 0xFF AND ISZERO ISZERO SWAP1 SWAP7 MUL SWAP6 AND SWAP5 SWAP1 SWAP5 OR SWAP1 SWAP4 SSTORE DUP1 MLOAD SWAP4 DUP5 MSTORE SWAP1 DUP4 ADD SWAP4 SWAP1 SWAP4 MSTORE DUP3 MLOAD SWAP1 SWAP3 PUSH32 0x835A6C4FC865A810F7943CFCA478CADA6BF307D7DBD75892A046AEE7EA3CC214 SWAP3 DUP3 SWAP1 SUB ADD SWAP1 LOG1 POP POP JUMP JUMPDEST PUSH1 0x0 SWAP1 DUP2 MSTORE PUSH1 0x65 PUSH1 0x20 MSTORE PUSH1 0x40 SWAP1 KECCAK256 PUSH1 0x2 ADD SLOAD SWAP1 JUMP JUMPDEST PUSH1 0xD4 SLOAD PUSH9 0x10000000000000000 SWAP1 DIV PUSH4 0xFFFFFFFF AND DUP2 JUMP JUMPDEST PUSH1 0x0 DUP3 DUP2 MSTORE PUSH1 0x65 PUSH1 0x20 MSTORE PUSH1 0x40 SWAP1 KECCAK256 PUSH1 0x2 ADD SLOAD PUSH2 0x1523 SWAP1 PUSH2 0x151E PUSH2 0x2F4B JUMP JUMPDEST PUSH2 0x1DF9 JUMP JUMPDEST PUSH2 0x155E JUMPI PUSH1 0x40 MLOAD PUSH3 0x461BCD PUSH1 0xE5 SHL DUP2 MSTORE PUSH1 0x4 ADD DUP1 DUP1 PUSH1 0x20 ADD DUP3 DUP2 SUB DUP3 MSTORE PUSH1 0x2F DUP2 MSTORE PUSH1 0x20 ADD DUP1 PUSH2 0x50FB PUSH1 0x2F SWAP2 CODECOPY PUSH1 0x40 ADD SWAP2 POP POP PUSH1 0x40 MLOAD DUP1 SWAP2 SUB SWAP1 REVERT JUMPDEST PUSH2 0x1568 DUP3 DUP3 PUSH2 0x32E4 JUMP JUMPDEST POP POP JUMP JUMPDEST PUSH2 0x1574 PUSH2 0x2F4B JUMP JUMPDEST PUSH1 0x1 PUSH1 0x1 PUSH1 0xA0 SHL SUB AND DUP2 PUSH1 0x1 PUSH1 0x1 PUSH1 0xA0 SHL SUB AND EQ PUSH2 0x15C3 JUMPI PUSH1 0x40 MLOAD PUSH3 0x461BCD PUSH1 0xE5 SHL DUP2 MSTORE PUSH1 0x4 ADD DUP1 DUP1 PUSH1 0x20 ADD DUP3 DUP2 SUB DUP3 MSTORE PUSH1 0x2F DUP2 MSTORE PUSH1 0x20 ADD DUP1 PUSH2 0x53C3 PUSH1 0x2F SWAP2 CODECOPY PUSH1 0x40 ADD SWAP2 POP POP PUSH1 0x40 MLOAD DUP1 SWAP2 SUB SWAP1 REVERT JUMPDEST PUSH2 0x1568 DUP3 DUP3 PUSH2 0x334D JUMP JUMPDEST PUSH1 0xD4 SLOAD PUSH1 0x1 PUSH1 0x80 SHL SWAP1 DIV PUSH4 0xFFFFFFFF AND DUP2 JUMP JUMPDEST PUSH1 0xC9 SLOAD PUSH1 0xFF AND PUSH2 0x162E JUMPI PUSH1 0x40 DUP1 MLOAD PUSH3 0x461BCD PUSH1 0xE5 SHL DUP2 MSTORE PUSH1 0x20 PUSH1 0x4 DUP3 ADD MSTORE PUSH1 0x14 PUSH1 0x24 DUP3 ADD MSTORE PUSH20 0x135A5B9D0809881C995919595B481C185D5CD959 PUSH1 0x62 SHL PUSH1 0x44 DUP3 ADD MSTORE SWAP1 MLOAD SWAP1 DUP2 SWAP1 SUB PUSH1 0x64 ADD SWAP1 REVERT JUMPDEST PUSH1 0x2 PUSH1 0x97 SLOAD EQ ISZERO PUSH2 0x1674 JUMPI PUSH1 0x40 DUP1 MLOAD PUSH3 0x461BCD PUSH1 0xE5 SHL DUP2 MSTORE PUSH1 0x20 PUSH1 0x4 DUP3 ADD MSTORE PUSH1 0x1F PUSH1 0x24 DUP3 ADD MSTORE PUSH1 0x0 DUP1 MLOAD PUSH1 0x20 PUSH2 0x512A DUP4 CODECOPY DUP2 MLOAD SWAP2 MSTORE PUSH1 0x44 DUP3 ADD MSTORE SWAP1 MLOAD SWAP1 DUP2 SWAP1 SUB PUSH1 0x64 ADD SWAP1 REVERT JUMPDEST PUSH1 0x2 PUSH1 0x97 SSTORE PUSH1 0x1 PUSH1 0x1 PUSH1 0xA0 SHL SUB DUP6 AND PUSH1 0x0 SWAP1 DUP2 MSTORE PUSH1 0xD5 PUSH1 0x20 MSTORE PUSH1 0x40 SWAP1 KECCAK256 SLOAD PUSH1 0x1 PUSH1 0xA0 SHL SWAP1 DIV PUSH1 0xFF AND PUSH2 0x16E4 JUMPI PUSH1 0x40 DUP1 MLOAD PUSH3 0x461BCD PUSH1 0xE5 SHL DUP2 MSTORE PUSH1 0x20 PUSH1 0x4 DUP3 ADD MSTORE PUSH1 0x14 PUSH1 0x24 DUP3 ADD MSTORE PUSH20 0x10DBDB1B185D195C985B081B9BDD081859191959 PUSH1 0x62 SHL PUSH1 0x44 DUP3 ADD MSTORE SWAP1 MLOAD SWAP1 DUP2 SWAP1 SUB PUSH1 0x64 ADD SWAP1 REVERT JUMPDEST PUSH1 0x0 DUP5 GT PUSH2 0x1723 JUMPI PUSH1 0x40 MLOAD PUSH3 0x461BCD PUSH1 0xE5 SHL DUP2 MSTORE PUSH1 0x4 ADD DUP1 DUP1 PUSH1 0x20 ADD DUP3 DUP2 SUB DUP3 MSTORE PUSH1 0x21 DUP2 MSTORE PUSH1 0x20 ADD DUP1 PUSH2 0x51D0 PUSH1 0x21 SWAP2 CODECOPY PUSH1 0x40 ADD SWAP2 POP POP PUSH1 0x40 MLOAD DUP1 SWAP2 SUB SWAP1 REVERT JUMPDEST PUSH2 0x1733 DUP6 DUP6 PUSH1 0x0 DUP8 DUP8 DUP8 DUP8 PUSH2 0x33B6 JUMP JUMPDEST POP POP PUSH1 0x1 PUSH1 0x97 SSTORE POP POP POP JUMP JUMPDEST PUSH2 0x1747 PUSH2 0x2F4B JUMP JUMPDEST PUSH1 0x1 PUSH1 0x1 PUSH1 0xA0 SHL SUB AND PUSH2 0x1758 PUSH2 0x1D18 JUMP JUMPDEST PUSH1 0x1 PUSH1 0x1 PUSH1 0xA0 SHL SUB AND EQ PUSH2 0x17A1 JUMPI PUSH1 0x40 DUP1 MLOAD PUSH3 0x461BCD PUSH1 0xE5 SHL DUP2 MSTORE PUSH1 0x20 PUSH1 0x4 DUP3 ADD DUP2 SWAP1 MSTORE PUSH1 0x24 DUP3 ADD MSTORE PUSH1 0x0 DUP1 MLOAD PUSH1 0x20 PUSH2 0x531F DUP4 CODECOPY DUP2 MLOAD SWAP2 MSTORE PUSH1 0x44 DUP3 ADD MSTORE SWAP1 MLOAD SWAP1 DUP2 SWAP1 SUB PUSH1 0x64 ADD SWAP1 REVERT JUMPDEST PUSH1 0xC9 DUP1 SLOAD PUSH1 0xFF NOT AND DUP3 ISZERO ISZERO OR SWAP1 DUP2 SWAP1 SSTORE PUSH1 0x40 MLOAD PUSH1 0xFF SWAP1 SWAP2 AND ISZERO ISZERO SWAP1 PUSH32 0x4AA2F044C925EC4AD9AC60A30B437E605BA4B7C4827D423BE239B10228DF4A4D SWAP1 PUSH1 0x0 SWAP1 LOG2 POP JUMP JUMPDEST PUSH1 0xD4 SLOAD PUSH5 0x100000000 SWAP1 DIV PUSH4 0xFFFFFFFF AND DUP2 JUMP JUMPDEST PUSH1 0xCD SLOAD PUSH1 0x1 PUSH1 0x1 PUSH1 0xA0 SHL SUB AND DUP2 JUMP JUMPDEST PUSH2 0x2710 DUP2 JUMP JUMPDEST PUSH1 0xC9 SLOAD PUSH1 0xFF AND PUSH2 0x185C JUMPI PUSH1 0x40 DUP1 MLOAD PUSH3 0x461BCD PUSH1 0xE5 SHL DUP2 MSTORE PUSH1 0x20 PUSH1 0x4 DUP3 ADD MSTORE PUSH1 0x14 PUSH1 0x24 DUP3 ADD MSTORE PUSH20 0x135A5B9D0809881C995919595B481C185D5CD959 PUSH1 0x62 SHL PUSH1 0x44 DUP3 ADD MSTORE SWAP1 MLOAD SWAP1 DUP2 SWAP1 SUB PUSH1 0x64 ADD SWAP1 REVERT JUMPDEST PUSH1 0x2 PUSH1 0x97 SLOAD EQ ISZERO PUSH2 0x18A2 JUMPI PUSH1 0x40 DUP1 MLOAD PUSH3 0x461BCD PUSH1 0xE5 SHL DUP2 MSTORE PUSH1 0x20 PUSH1 0x4 DUP3 ADD MSTORE PUSH1 0x1F PUSH1 0x24 DUP3 ADD MSTORE PUSH1 0x0 DUP1 MLOAD PUSH1 0x20 PUSH2 0x512A DUP4 CODECOPY DUP2 MLOAD SWAP2 MSTORE PUSH1 0x44 DUP3 ADD MSTORE SWAP1 MLOAD SWAP1 DUP2 SWAP1 SUB PUSH1 0x64 ADD SWAP1 REVERT JUMPDEST PUSH1 0x2 PUSH1 0x97 SSTORE PUSH1 0x1 PUSH1 0x1 PUSH1 0xA0 SHL SUB DUP6 AND PUSH1 0x0 SWAP1 DUP2 MSTORE PUSH1 0xD5 PUSH1 0x20 MSTORE PUSH1 0x40 SWAP1 KECCAK256 SLOAD PUSH1 0x1 PUSH1 0xA0 SHL SWAP1 DIV PUSH1 0xFF AND PUSH2 0x1912 JUMPI PUSH1 0x40 DUP1 MLOAD PUSH3 0x461BCD PUSH1 0xE5 SHL DUP2 MSTORE PUSH1 0x20 PUSH1 0x4 DUP3 ADD MSTORE PUSH1 0x14 PUSH1 0x24 DUP3 ADD MSTORE PUSH20 0x10DBDB1B185D195C985B081B9BDD081859191959 PUSH1 0x62 SHL PUSH1 0x44 DUP3 ADD MSTORE SWAP1 MLOAD SWAP1 DUP2 SWAP1 SUB PUSH1 0x64 ADD SWAP1 REVERT JUMPDEST PUSH1 0x0 DUP5 GT PUSH2 0x1951 JUMPI PUSH1 0x40 MLOAD PUSH3 0x461BCD PUSH1 0xE5 SHL DUP2 MSTORE PUSH1 0x4 ADD DUP1 DUP1 PUSH1 0x20 ADD DUP3 DUP2 SUB DUP3 MSTORE PUSH1 0x21 DUP2 MSTORE PUSH1 0x20 ADD DUP1 PUSH2 0x51D0 PUSH1 0x21 SWAP2 CODECOPY PUSH1 0x40 ADD SWAP2 POP POP PUSH1 0x40 MLOAD DUP1 SWAP2 SUB SWAP1 REVERT JUMPDEST PUSH2 0x1733 DUP6 DUP6 PUSH1 0x1 DUP7 DUP7 DUP10 DUP8 PUSH2 0x33B6 JUMP JUMPDEST PUSH1 0xD0 SLOAD DUP2 JUMP JUMPDEST PUSH1 0xC9 SLOAD PUSH1 0xFF AND DUP2 JUMP JUMPDEST PUSH1 0xCA SLOAD PUSH1 0x1 PUSH1 0x1 PUSH1 0xA0 SHL SUB AND DUP2 JUMP JUMPDEST PUSH1 0xCC SLOAD PUSH1 0x1 PUSH1 0x1 PUSH1 0xA0 SHL SUB AND DUP2 JUMP JUMPDEST PUSH1 0xC9 SLOAD PUSH1 0xFF AND PUSH2 0x19DC JUMPI PUSH1 0x40 DUP1 MLOAD PUSH3 0x461BCD PUSH1 0xE5 SHL DUP2 MSTORE PUSH1 0x20 PUSH1 0x4 DUP3 ADD MSTORE PUSH1 0x14 PUSH1 0x24 DUP3 ADD MSTORE PUSH20 0x135A5B9D0809881C995919595B481C185D5CD959 PUSH1 0x62 SHL PUSH1 0x44 DUP3 ADD MSTORE SWAP1 MLOAD SWAP1 DUP2 SWAP1 SUB PUSH1 0x64 ADD SWAP1 REVERT JUMPDEST PUSH1 0x2 PUSH1 0x97 SLOAD EQ ISZERO PUSH2 0x1A22 JUMPI PUSH1 0x40 DUP1 MLOAD PUSH3 0x461BCD PUSH1 0xE5 SHL DUP2 MSTORE PUSH1 0x20 PUSH1 0x4 DUP3 ADD MSTORE PUSH1 0x1F PUSH1 0x24 DUP3 ADD MSTORE PUSH1 0x0 DUP1 MLOAD PUSH1 0x20 PUSH2 0x512A DUP4 CODECOPY DUP2 MLOAD SWAP2 MSTORE PUSH1 0x44 DUP3 ADD MSTORE SWAP1 MLOAD SWAP1 DUP2 SWAP1 SUB PUSH1 0x64 ADD SWAP1 REVERT JUMPDEST PUSH1 0x2 PUSH1 0x97 SSTORE PUSH1 0x1 PUSH1 0x1 PUSH1 0xA0 SHL SUB DUP6 AND PUSH1 0x0 SWAP1 DUP2 MSTORE PUSH1 0xD5 PUSH1 0x20 MSTORE PUSH1 0x40 SWAP1 KECCAK256 SLOAD PUSH1 0x1 PUSH1 0xA0 SHL SWAP1 DIV PUSH1 0xFF AND PUSH2 0x1A92 JUMPI PUSH1 0x40 DUP1 MLOAD PUSH3 0x461BCD PUSH1 0xE5 SHL DUP2 MSTORE PUSH1 0x20 PUSH1 0x4 DUP3 ADD MSTORE PUSH1 0x14 PUSH1 0x24 DUP3 ADD MSTORE PUSH20 0x10DBDB1B185D195C985B081B9BDD081859191959 PUSH1 0x62 SHL PUSH1 0x44 DUP3 ADD MSTORE SWAP1 MLOAD SWAP1 DUP2 SWAP1 SUB PUSH1 0x64 ADD SWAP1 REVERT JUMPDEST PUSH1 0x0 DUP5 GT PUSH2 0x1AD1 JUMPI PUSH1 0x40 MLOAD PUSH3 0x461BCD PUSH1 0xE5 SHL DUP2 MSTORE PUSH1 0x4 ADD DUP1 DUP1 PUSH1 0x20 ADD DUP3 DUP2 SUB DUP3 MSTORE PUSH1 0x21 DUP2 MSTORE PUSH1 0x20 ADD DUP1 PUSH2 0x51D0 PUSH1 0x21 SWAP2 CODECOPY PUSH1 0x40 ADD SWAP2 POP POP PUSH1 0x40 MLOAD DUP1 SWAP2 SUB SWAP1 REVERT JUMPDEST PUSH2 0x1733 DUP6 DUP6 PUSH1 0x2 DUP7 DUP9 DUP8 DUP8 PUSH2 0x33B6 JUMP JUMPDEST PUSH1 0x64 DUP2 JUMP JUMPDEST PUSH1 0xC9 SLOAD PUSH5 0x100000000 SWAP1 DIV PUSH1 0xFF AND DUP2 JUMP JUMPDEST PUSH2 0x1AFF PUSH2 0x2F4B JUMP JUMPDEST PUSH1 0x1 PUSH1 0x1 PUSH1 0xA0 SHL SUB AND PUSH2 0x1B10 PUSH2 0x1D18 JUMP JUMPDEST PUSH1 0x1 PUSH1 0x1 PUSH1 0xA0 SHL SUB AND EQ PUSH2 0x1B59 JUMPI PUSH1 0x40 DUP1 MLOAD PUSH3 0x461BCD PUSH1 0xE5 SHL DUP2 MSTORE PUSH1 0x20 PUSH1 0x4 DUP3 ADD DUP2 SWAP1 MSTORE PUSH1 0x24 DUP3 ADD MSTORE PUSH1 0x0 DUP1 MLOAD PUSH1 0x20 PUSH2 0x531F DUP4 CODECOPY DUP2 MLOAD SWAP2 MSTORE PUSH1 0x44 DUP3 ADD MSTORE SWAP1 MLOAD SWAP1 DUP2 SWAP1 SUB PUSH1 0x64 ADD SWAP1 REVERT JUMPDEST PUSH1 0x33 SLOAD PUSH1 0x40 MLOAD PUSH1 0x0 SWAP2 PUSH1 0x1 PUSH1 0x1 PUSH1 0xA0 SHL SUB AND SWAP1 PUSH32 0x8BE0079C531659141344CD1FD0A4F28419497F9722A3DAAFE3B4186F6B6457E0 SWAP1 DUP4 SWAP1 LOG3 PUSH1 0x33 DUP1 SLOAD PUSH1 0x1 PUSH1 0x1 PUSH1 0xA0 SHL SUB NOT AND SWAP1 SSTORE JUMP JUMPDEST PUSH1 0xD2 SLOAD PUSH4 0xFFFFFFFF AND DUP2 JUMP JUMPDEST PUSH1 0xC9 SLOAD PUSH3 0x10000 SWAP1 DIV PUSH1 0xFF AND DUP2 JUMP JUMPDEST PUSH1 0xCE SLOAD PUSH1 0x1 PUSH1 0x1 PUSH1 0xA0 SHL SUB AND DUP2 JUMP JUMPDEST PUSH1 0x0 DUP1 JUMPDEST PUSH1 0xD7 SLOAD DUP2 LT ISZERO PUSH2 0x1332 JUMPI PUSH2 0x1BE3 PUSH2 0x509C JUMP JUMPDEST PUSH1 0xD7 DUP3 DUP2 SLOAD DUP2 LT PUSH2 0x1BF0 JUMPI INVALID JUMPDEST PUSH1 0x0 SWAP2 DUP3 MSTORE PUSH1 0x20 SWAP2 DUP3 SWAP1 KECCAK256 PUSH1 0x40 DUP1 MLOAD PUSH1 0xE0 DUP2 ADD DUP3 MSTORE PUSH1 0x3 SWAP1 SWAP4 MUL SWAP1 SWAP2 ADD DUP1 SLOAD PUSH1 0x1 PUSH1 0x1 PUSH1 0xA0 SHL SUB DUP1 DUP3 AND DUP1 DUP7 MSTORE PUSH1 0xFF PUSH1 0x1 PUSH1 0xA0 SHL SWAP4 DUP5 SWAP1 DIV DUP2 AND ISZERO ISZERO SWAP8 DUP8 ADD SWAP8 SWAP1 SWAP8 MSTORE PUSH1 0x1 DUP5 ADD SLOAD DUP1 DUP4 AND SWAP6 DUP8 ADD SWAP6 SWAP1 SWAP6 MSTORE DUP3 DUP6 DIV DUP8 AND ISZERO ISZERO PUSH1 0x60 DUP8 ADD MSTORE PUSH1 0x1 PUSH1 0xA8 SHL SWAP1 SWAP5 DIV DUP7 AND PUSH1 0x80 DUP7 ADD MSTORE PUSH1 0x2 SWAP1 SWAP3 ADD SLOAD SWAP2 DUP3 AND PUSH1 0xA0 DUP6 ADD MSTORE SWAP1 DIV SWAP1 SWAP3 AND ISZERO ISZERO PUSH1 0xC0 DUP3 ADD MSTORE SWAP2 POP PUSH2 0x1C86 SWAP1 PUSH2 0x1320 SWAP1 PUSH2 0x377F JUMP JUMPDEST SWAP3 POP POP PUSH1 0x1 ADD PUSH2 0x1BD1 JUMP JUMPDEST PUSH1 0xCB SLOAD PUSH1 0x1 PUSH1 0x1 PUSH1 0xA0 SHL SUB AND DUP2 JUMP JUMPDEST PUSH32 0x5FDE63B561377D1441AFA201FF619FAAC2FF8FED70A7FBDBE7A5CB07768C0B75 DUP2 JUMP JUMPDEST PUSH1 0xD5 PUSH1 0x20 MSTORE PUSH1 0x0 SWAP1 DUP2 MSTORE PUSH1 0x40 SWAP1 KECCAK256 DUP1 SLOAD PUSH1 0x1 DUP3 ADD SLOAD PUSH1 0x2 SWAP1 SWAP3 ADD SLOAD PUSH1 0x1 PUSH1 0x1 PUSH1 0xA0 SHL SUB DUP1 DUP4 AND SWAP4 PUSH1 0xFF PUSH1 0x1 PUSH1 0xA0 SHL SWAP5 DUP6 SWAP1 DIV DUP2 AND SWAP5 DUP3 DUP5 AND SWAP5 DUP2 DUP5 DIV DUP4 AND SWAP5 PUSH1 0x1 PUSH1 0xA8 SHL SWAP1 SWAP5 DIV DUP4 AND SWAP4 DUP2 AND SWAP3 SWAP2 SWAP1 DIV AND DUP8 JUMP JUMPDEST PUSH1 0x33 SLOAD PUSH1 0x1 PUSH1 0x1 PUSH1 0xA0 SHL SUB AND SWAP1 JUMP JUMPDEST PUSH2 0x1D2F PUSH2 0x2F4B JUMP JUMPDEST PUSH1 0x1 PUSH1 0x1 PUSH1 0xA0 SHL SUB AND PUSH2 0x1D40 PUSH2 0x1D18 JUMP JUMPDEST PUSH1 0x1 PUSH1 0x1 PUSH1 0xA0 SHL SUB AND EQ PUSH2 0x1D89 JUMPI PUSH1 0x40 DUP1 MLOAD PUSH3 0x461BCD PUSH1 0xE5 SHL DUP2 MSTORE PUSH1 0x20 PUSH1 0x4 DUP3 ADD DUP2 SWAP1 MSTORE PUSH1 0x24 DUP3 ADD MSTORE PUSH1 0x0 DUP1 MLOAD PUSH1 0x20 PUSH2 0x531F DUP4 CODECOPY DUP2 MLOAD SWAP2 MSTORE PUSH1 0x44 DUP3 ADD MSTORE SWAP1 MLOAD SWAP1 DUP2 SWAP1 SUB PUSH1 0x64 ADD SWAP1 REVERT JUMPDEST PUSH1 0xC9 DUP1 SLOAD PUSH2 0xFF00 NOT AND PUSH2 0x100 DUP4 ISZERO ISZERO DUP2 MUL SWAP2 SWAP1 SWAP2 OR SWAP2 DUP3 SWAP1 SSTORE PUSH1 0x40 MLOAD PUSH1 0xFF SWAP2 SWAP1 SWAP3 DIV AND ISZERO ISZERO SWAP1 PUSH32 0x7304ED846A7DA817E311F225ED0DF7C4B621C484DA0AB3E633BD5AD083F2C3AE SWAP1 PUSH1 0x0 SWAP1 LOG2 POP JUMP JUMPDEST PUSH1 0x0 DUP3 DUP2 MSTORE PUSH1 0x65 PUSH1 0x20 MSTORE PUSH1 0x40 DUP2 KECCAK256 PUSH2 0x1DF0 SWAP1 DUP4 PUSH2 0x39E9 JUMP JUMPDEST SWAP1 POP JUMPDEST SWAP3 SWAP2 POP POP JUMP JUMPDEST PUSH1 0x0 DUP3 DUP2 MSTORE PUSH1 0x65 PUSH1 0x20 MSTORE PUSH1 0x40 DUP2 KECCAK256 PUSH2 0x1DF0 SWAP1 DUP4 PUSH2 0x39F5 JUMP JUMPDEST PUSH1 0xD6 PUSH1 0x20 MSTORE PUSH1 0x0 SWAP1 DUP2 MSTORE PUSH1 0x40 SWAP1 KECCAK256 SLOAD PUSH1 0x1 PUSH1 0x1 PUSH1 0xA0 SHL SUB DUP2 AND SWAP1 PUSH1 0x1 PUSH1 0xA0 SHL SWAP1 DIV PUSH1 0xFF AND DUP3 JUMP JUMPDEST PUSH1 0xD4 SLOAD PUSH4 0xFFFFFFFF AND DUP2 JUMP JUMPDEST PUSH1 0xC9 SLOAD PUSH4 0x1000000 SWAP1 DIV PUSH1 0xFF AND DUP2 JUMP JUMPDEST PUSH1 0xD4 SLOAD PUSH1 0x1 PUSH1 0xA0 SHL SWAP1 DIV PUSH4 0xFFFFFFFF AND DUP2 JUMP JUMPDEST PUSH1 0x0 DUP2 JUMP JUMPDEST PUSH1 0xC9 SLOAD PUSH1 0xFF AND PUSH2 0x1EBA JUMPI PUSH1 0x40 DUP1 MLOAD PUSH3 0x461BCD PUSH1 0xE5 SHL DUP2 MSTORE PUSH1 0x20 PUSH1 0x4 DUP3 ADD MSTORE PUSH1 0x14 PUSH1 0x24 DUP3 ADD MSTORE PUSH20 0x135A5B9D0809881C995919595B481C185D5CD959 PUSH1 0x62 SHL PUSH1 0x44 DUP3 ADD MSTORE SWAP1 MLOAD SWAP1 DUP2 SWAP1 SUB PUSH1 0x64 ADD SWAP1 REVERT JUMPDEST PUSH1 0x2 PUSH1 0x97 SLOAD EQ ISZERO PUSH2 0x1F00 JUMPI PUSH1 0x40 DUP1 MLOAD PUSH3 0x461BCD PUSH1 0xE5 SHL DUP2 MSTORE PUSH1 0x20 PUSH1 0x4 DUP3 ADD MSTORE PUSH1 0x1F PUSH1 0x24 DUP3 ADD MSTORE PUSH1 0x0 DUP1 MLOAD PUSH1 0x20 PUSH2 0x512A DUP4 CODECOPY DUP2 MLOAD SWAP2 MSTORE PUSH1 0x44 DUP3 ADD MSTORE SWAP1 MLOAD SWAP1 DUP2 SWAP1 SUB PUSH1 0x64 ADD SWAP1 REVERT JUMPDEST PUSH1 0x2 PUSH1 0x97 SSTORE PUSH1 0x1 PUSH1 0x1 PUSH1 0xA0 SHL SUB DUP6 AND PUSH1 0x0 SWAP1 DUP2 MSTORE PUSH1 0xD5 PUSH1 0x20 MSTORE PUSH1 0x40 SWAP1 KECCAK256 SLOAD PUSH1 0x1 PUSH1 0xA0 SHL SWAP1 DIV PUSH1 0xFF AND PUSH2 0x1F70 JUMPI PUSH1 0x40 DUP1 MLOAD PUSH3 0x461BCD PUSH1 0xE5 SHL DUP2 MSTORE PUSH1 0x20 PUSH1 0x4 DUP3 ADD MSTORE PUSH1 0x14 PUSH1 0x24 DUP3 ADD MSTORE PUSH20 0x10DBDB1B185D195C985B081B9BDD081859191959 PUSH1 0x62 SHL PUSH1 0x44 DUP3 ADD MSTORE SWAP1 MLOAD SWAP1 DUP2 SWAP1 SUB PUSH1 0x64 ADD SWAP1 REVERT JUMPDEST PUSH1 0x0 DUP5 GT PUSH2 0x1FAF JUMPI PUSH1 0x40 MLOAD PUSH3 0x461BCD PUSH1 0xE5 SHL DUP2 MSTORE PUSH1 0x4 ADD DUP1 DUP1 PUSH1 0x20 ADD DUP3 DUP2 SUB DUP3 MSTORE PUSH1 0x21 DUP2 MSTORE PUSH1 0x20 ADD DUP1 PUSH2 0x51D0 PUSH1 0x21 SWAP2 CODECOPY PUSH1 0x40 ADD SWAP2 POP POP PUSH1 0x40 MLOAD DUP1 SWAP2 SUB SWAP1 REVERT JUMPDEST PUSH2 0x1733 DUP6 DUP6 DUP6 DUP6 DUP6 PUSH2 0x3A0A JUMP JUMPDEST PUSH1 0xD1 SLOAD DUP2 JUMP JUMPDEST PUSH2 0x1FCA PUSH2 0x2F4B JUMP JUMPDEST PUSH1 0x1 PUSH1 0x1 PUSH1 0xA0 SHL SUB AND PUSH2 0x1FDB PUSH2 0x1D18 JUMP JUMPDEST PUSH1 0x1 PUSH1 0x1 PUSH1 0xA0 SHL SUB AND EQ PUSH2 0x2024 JUMPI PUSH1 0x40 DUP1 MLOAD PUSH3 0x461BCD PUSH1 0xE5 SHL DUP2 MSTORE PUSH1 0x20 PUSH1 0x4 DUP3 ADD DUP2 SWAP1 MSTORE PUSH1 0x24 DUP3 ADD MSTORE PUSH1 0x0 DUP1 MLOAD PUSH1 0x20 PUSH2 0x531F DUP4 CODECOPY DUP2 MLOAD SWAP2 MSTORE PUSH1 0x44 DUP3 ADD MSTORE SWAP1 MLOAD SWAP1 DUP2 SWAP1 SUB PUSH1 0x64 ADD SWAP1 REVERT JUMPDEST PUSH1 0x1 PUSH1 0x1 PUSH1 0xA0 SHL SUB DUP7 AND PUSH1 0x0 SWAP1 DUP2 MSTORE PUSH1 0xD5 PUSH1 0x20 MSTORE PUSH1 0x40 SWAP1 KECCAK256 SLOAD PUSH1 0x1 PUSH1 0xA0 SHL SWAP1 DIV PUSH1 0xFF AND PUSH2 0x208F JUMPI PUSH1 0x40 DUP1 MLOAD PUSH3 0x461BCD PUSH1 0xE5 SHL DUP2 MSTORE PUSH1 0x20 PUSH1 0x4 DUP3 ADD MSTORE PUSH1 0x14 PUSH1 0x24 DUP3 ADD MSTORE PUSH20 0x10DBDB1B185D195C985B081B9BDD081859191959 PUSH1 0x62 SHL PUSH1 0x44 DUP3 ADD MSTORE SWAP1 MLOAD SWAP1 DUP2 SWAP1 SUB PUSH1 0x64 ADD SWAP1 REVERT JUMPDEST PUSH1 0x0 PUSH1 0xD5 PUSH1 0x0 DUP9 PUSH1 0x1 PUSH1 0x1 PUSH1 0xA0 SHL SUB AND PUSH1 0x1 PUSH1 0x1 PUSH1 0xA0 SHL SUB AND DUP2 MSTORE PUSH1 0x20 ADD SWAP1 DUP2 MSTORE PUSH1 0x20 ADD PUSH1 0x0 KECCAK256 SWAP1 POP DUP7 DUP2 PUSH1 0x0 ADD PUSH1 0x0 PUSH2 0x100 EXP DUP2 SLOAD DUP2 PUSH1 0x1 PUSH1 0x1 PUSH1 0xA0 SHL SUB MUL NOT AND SWAP1 DUP4 PUSH1 0x1 PUSH1 0x1 PUSH1 0xA0 SHL SUB AND MUL OR SWAP1 SSTORE POP DUP6 DUP2 PUSH1 0x1 ADD PUSH1 0x0 PUSH2 0x100 EXP DUP2 SLOAD DUP2 PUSH1 0x1 PUSH1 0x1 PUSH1 0xA0 SHL SUB MUL NOT AND SWAP1 DUP4 PUSH1 0x1 PUSH1 0x1 PUSH1 0xA0 SHL SUB AND MUL OR SWAP1 SSTORE POP DUP5 DUP2 PUSH1 0x1 ADD PUSH1 0x14 PUSH2 0x100 EXP DUP2 SLOAD DUP2 PUSH1 0xFF MUL NOT AND SWAP1 DUP4 ISZERO ISZERO MUL OR SWAP1 SSTORE POP DUP3 DUP2 PUSH1 0x2 ADD PUSH1 0x0 PUSH2 0x100 EXP DUP2 SLOAD DUP2 PUSH1 0x1 PUSH1 0x1 PUSH1 0xA0 SHL SUB MUL NOT AND SWAP1 DUP4 PUSH1 0x1 PUSH1 0x1 PUSH1 0xA0 SHL SUB AND MUL OR SWAP1 SSTORE POP DUP7 PUSH1 0x1 PUSH1 0x1 PUSH1 0xA0 SHL SUB AND PUSH32 0x4373C9397F82B63EC1404E609E257362B37C078B682BCE6B7727D21FCE4D1594 DUP3 PUSH1 0x0 ADD PUSH1 0x14 SWAP1 SLOAD SWAP1 PUSH2 0x100 EXP SWAP1 DIV PUSH1 0xFF AND DUP9 DUP9 DUP9 DUP9 DUP9 PUSH1 0x40 MLOAD DUP1 DUP8 ISZERO ISZERO DUP2 MSTORE PUSH1 0x20 ADD DUP7 PUSH1 0x1 PUSH1 0x1 PUSH1 0xA0 SHL SUB AND DUP2 MSTORE PUSH1 0x20 ADD DUP6 ISZERO ISZERO DUP2 MSTORE PUSH1 0x20 ADD DUP5 PUSH1 0xFF AND DUP2 MSTORE PUSH1 0x20 ADD DUP4 PUSH1 0x1 PUSH1 0x1 PUSH1 0xA0 SHL SUB AND DUP2 MSTORE PUSH1 0x20 ADD DUP3 ISZERO ISZERO DUP2 MSTORE PUSH1 0x20 ADD SWAP7 POP POP POP POP POP POP POP PUSH1 0x40 MLOAD DUP1 SWAP2 SUB SWAP1 LOG2 POP POP POP POP POP POP POP JUMP JUMPDEST PUSH1 0xC9 SLOAD PUSH2 0x100 SWAP1 DIV PUSH1 0xFF AND PUSH2 0x223B JUMPI PUSH1 0x40 DUP1 MLOAD PUSH3 0x461BCD PUSH1 0xE5 SHL DUP2 MSTORE PUSH1 0x20 PUSH1 0x4 DUP3 ADD MSTORE PUSH1 0xF PUSH1 0x24 DUP3 ADD MSTORE PUSH15 0x105B1B1BD8D85D19481C185D5CD959 PUSH1 0x8A SHL PUSH1 0x44 DUP3 ADD MSTORE SWAP1 MLOAD SWAP1 DUP2 SWAP1 SUB PUSH1 0x64 ADD SWAP1 REVERT JUMPDEST PUSH2 0x2243 PUSH2 0x2F4B JUMP JUMPDEST PUSH1 0x1 PUSH1 0x1 PUSH1 0xA0 SHL SUB AND PUSH2 0x2254 PUSH2 0x1D18 JUMP JUMPDEST PUSH1 0x1 PUSH1 0x1 PUSH1 0xA0 SHL SUB AND EQ PUSH2 0x229D JUMPI PUSH1 0x40 DUP1 MLOAD PUSH3 0x461BCD PUSH1 0xE5 SHL DUP2 MSTORE PUSH1 0x20 PUSH1 0x4 DUP3 ADD DUP2 SWAP1 MSTORE PUSH1 0x24 DUP3 ADD MSTORE PUSH1 0x0 DUP1 MLOAD PUSH1 0x20 PUSH2 0x531F DUP4 CODECOPY DUP2 MLOAD SWAP2 MSTORE PUSH1 0x44 DUP3 ADD MSTORE SWAP1 MLOAD SWAP1 DUP2 SWAP1 SUB PUSH1 0x64 ADD SWAP1 REVERT JUMPDEST PUSH1 0x2 PUSH1 0x97 SLOAD EQ ISZERO PUSH2 0x22E3 JUMPI PUSH1 0x40 DUP1 MLOAD PUSH3 0x461BCD PUSH1 0xE5 SHL DUP2 MSTORE PUSH1 0x20 PUSH1 0x4 DUP3 ADD MSTORE PUSH1 0x1F PUSH1 0x24 DUP3 ADD MSTORE PUSH1 0x0 DUP1 MLOAD PUSH1 0x20 PUSH2 0x512A DUP4 CODECOPY DUP2 MLOAD SWAP2 MSTORE PUSH1 0x44 DUP3 ADD MSTORE SWAP1 MLOAD SWAP1 DUP2 SWAP1 SUB PUSH1 0x64 ADD SWAP1 REVERT JUMPDEST PUSH1 0x2 PUSH1 0x97 SSTORE PUSH1 0x0 PUSH2 0x22F2 PUSH2 0x509C JUMP JUMPDEST PUSH1 0x0 JUMPDEST PUSH1 0xD7 SLOAD DUP2 LT ISZERO PUSH2 0x2599 JUMPI PUSH1 0xD7 DUP2 DUP2 SLOAD DUP2 LT PUSH2 0x230C JUMPI INVALID JUMPDEST PUSH1 0x0 SWAP2 DUP3 MSTORE PUSH1 0x20 SWAP2 DUP3 SWAP1 KECCAK256 PUSH1 0x40 DUP1 MLOAD PUSH1 0xE0 DUP2 ADD DUP3 MSTORE PUSH1 0x3 SWAP1 SWAP4 MUL SWAP1 SWAP2 ADD DUP1 SLOAD PUSH1 0x1 PUSH1 0x1 PUSH1 0xA0 SHL SUB DUP1 DUP3 AND DUP6 MSTORE PUSH1 0xFF PUSH1 0x1 PUSH1 0xA0 SHL SWAP3 DUP4 SWAP1 DIV DUP2 AND ISZERO ISZERO SWAP7 DUP7 ADD SWAP7 SWAP1 SWAP7 MSTORE PUSH1 0x1 DUP4 ADD SLOAD DUP1 DUP3 AND SWAP5 DUP7 ADD DUP6 SWAP1 MSTORE DUP3 DUP2 DIV DUP8 AND ISZERO DUP1 ISZERO PUSH1 0x60 DUP9 ADD DUP2 SWAP1 MSTORE PUSH1 0x1 PUSH1 0xA8 SHL SWAP1 SWAP3 DIV DUP9 AND PUSH1 0x80 DUP9 ADD MSTORE PUSH1 0x2 SWAP1 SWAP5 ADD SLOAD SWAP2 DUP3 AND PUSH1 0xA0 DUP8 ADD MSTORE SWAP2 SWAP1 DIV SWAP1 SWAP5 AND ISZERO ISZERO PUSH1 0xC0 DUP5 ADD MSTORE SWAP1 SWAP6 POP SWAP1 SWAP4 POP PUSH2 0x23B1 JUMPI POP PUSH1 0x40 DUP3 ADD MLOAD PUSH1 0x1 PUSH1 0x1 PUSH1 0xA0 SHL SUB AND ISZERO ISZERO JUMPDEST DUP1 ISZERO PUSH2 0x2436 JUMPI POP DUP3 PUSH1 0x1 PUSH1 0x1 PUSH1 0xA0 SHL SUB AND PUSH4 0xA400326F DUP4 PUSH1 0x0 ADD MLOAD PUSH1 0x40 MLOAD DUP3 PUSH4 0xFFFFFFFF AND PUSH1 0xE0 SHL DUP2 MSTORE PUSH1 0x4 ADD DUP1 DUP3 PUSH1 0x1 PUSH1 0x1 PUSH1 0xA0 SHL SUB AND DUP2 MSTORE PUSH1 0x20 ADD SWAP2 POP POP PUSH1 0x20 PUSH1 0x40 MLOAD DUP1 DUP4 SUB DUP2 DUP7 DUP1 EXTCODESIZE ISZERO DUP1 ISZERO PUSH2 0x2409 JUMPI PUSH1 0x0 DUP1 REVERT JUMPDEST POP GAS STATICCALL ISZERO DUP1 ISZERO PUSH2 0x241D JUMPI RETURNDATASIZE PUSH1 0x0 DUP1 RETURNDATACOPY RETURNDATASIZE PUSH1 0x0 REVERT JUMPDEST POP POP POP POP PUSH1 0x40 MLOAD RETURNDATASIZE PUSH1 0x20 DUP2 LT ISZERO PUSH2 0x2433 JUMPI PUSH1 0x0 DUP1 REVERT JUMPDEST POP MLOAD JUMPDEST ISZERO PUSH2 0x2591 JUMPI PUSH1 0x0 PUSH2 0x244A DUP4 PUSH1 0x0 ADD MLOAD PUSH2 0x2F4F JUMP JUMPDEST SWAP1 POP PUSH1 0x0 PUSH2 0x245B DUP5 PUSH1 0x0 ADD MLOAD PUSH2 0x377F JUMP JUMPDEST SWAP1 POP PUSH1 0x0 PUSH2 0x2491 PUSH1 0x64 PUSH1 0xFF AND PUSH2 0x248B DUP8 PUSH1 0x80 ADD MLOAD PUSH1 0xFF AND PUSH2 0x2485 DUP7 DUP9 PUSH2 0x328A SWAP1 SWAP2 SWAP1 PUSH4 0xFFFFFFFF AND JUMP JUMPDEST SWAP1 PUSH2 0x3F88 JUMP JUMPDEST SWAP1 PUSH2 0x3FE1 JUMP JUMPDEST SWAP1 POP DUP3 DUP2 GT ISZERO PUSH2 0x258D JUMPI PUSH1 0x0 PUSH2 0x24A7 DUP3 DUP6 PUSH2 0x4048 JUMP JUMPDEST PUSH1 0x40 DUP8 ADD MLOAD DUP8 MLOAD SWAP2 SWAP3 POP PUSH2 0x24C5 SWAP2 PUSH1 0x1 PUSH1 0x1 PUSH1 0xA0 SHL SUB AND SWAP1 DUP4 PUSH2 0x40A5 JUMP JUMPDEST DUP7 PUSH1 0x1 PUSH1 0x1 PUSH1 0xA0 SHL SUB AND PUSH4 0x47E7EF24 DUP8 PUSH1 0x0 ADD MLOAD DUP4 PUSH1 0x40 MLOAD DUP4 PUSH4 0xFFFFFFFF AND PUSH1 0xE0 SHL DUP2 MSTORE PUSH1 0x4 ADD DUP1 DUP4 PUSH1 0x1 PUSH1 0x1 PUSH1 0xA0 SHL SUB AND DUP2 MSTORE PUSH1 0x20 ADD DUP3 DUP2 MSTORE PUSH1 0x20 ADD SWAP3 POP POP POP PUSH1 0x0 PUSH1 0x40 MLOAD DUP1 DUP4 SUB DUP2 PUSH1 0x0 DUP8 DUP1 EXTCODESIZE ISZERO DUP1 ISZERO PUSH2 0x2520 JUMPI PUSH1 0x0 DUP1 REVERT JUMPDEST POP GAS CALL ISZERO DUP1 ISZERO PUSH2 0x2534 JUMPI RETURNDATASIZE PUSH1 0x0 DUP1 RETURNDATACOPY RETURNDATASIZE PUSH1 0x0 REVERT JUMPDEST POP POP POP POP DUP6 PUSH1 0x40 ADD MLOAD PUSH1 0x1 PUSH1 0x1 PUSH1 0xA0 SHL SUB AND DUP7 PUSH1 0x0 ADD MLOAD PUSH1 0x1 PUSH1 0x1 PUSH1 0xA0 SHL SUB AND PUSH32 0x290D3382F5CB307945388C5A4AB3A9E3695C8706927C11C35EB329620A310961 DUP4 PUSH1 0x40 MLOAD DUP1 DUP3 DUP2 MSTORE PUSH1 0x20 ADD SWAP2 POP POP PUSH1 0x40 MLOAD DUP1 SWAP2 SUB SWAP1 LOG3 POP JUMPDEST POP POP POP JUMPDEST PUSH1 0x1 ADD PUSH2 0x22F5 JUMP JUMPDEST POP POP PUSH1 0x1 PUSH1 0x97 SSTORE POP JUMP JUMPDEST PUSH1 0xC9 SLOAD PUSH3 0x10000 SWAP1 DIV PUSH1 0xFF AND PUSH2 0x25F0 JUMPI PUSH1 0x40 DUP1 MLOAD PUSH3 0x461BCD PUSH1 0xE5 SHL DUP2 MSTORE PUSH1 0x20 PUSH1 0x4 DUP3 ADD MSTORE PUSH1 0xD PUSH1 0x24 DUP3 ADD MSTORE PUSH13 0x149958985CD9481C185D5CD959 PUSH1 0x9A SHL PUSH1 0x44 DUP3 ADD MSTORE SWAP1 MLOAD SWAP1 DUP2 SWAP1 SUB PUSH1 0x64 ADD SWAP1 REVERT JUMPDEST PUSH1 0x2 PUSH1 0x97 SLOAD EQ ISZERO PUSH2 0x2636 JUMPI PUSH1 0x40 DUP1 MLOAD PUSH3 0x461BCD PUSH1 0xE5 SHL DUP2 MSTORE PUSH1 0x20 PUSH1 0x4 DUP3 ADD MSTORE PUSH1 0x1F PUSH1 0x24 DUP3 ADD MSTORE PUSH1 0x0 DUP1 MLOAD PUSH1 0x20 PUSH2 0x512A DUP4 CODECOPY DUP2 MLOAD SWAP2 MSTORE PUSH1 0x44 DUP3 ADD MSTORE SWAP1 MLOAD SWAP1 DUP2 SWAP1 SUB PUSH1 0x64 ADD SWAP1 REVERT JUMPDEST PUSH1 0x2 PUSH1 0x97 SSTORE PUSH2 0x2665 PUSH32 0x5FDE63B561377D1441AFA201FF619FAAC2FF8FED70A7FBDBE7A5CB07768C0B75 CALLER PUSH2 0x1DF9 JUMP JUMPDEST PUSH2 0x26B6 JUMPI PUSH1 0x40 DUP1 MLOAD PUSH3 0x461BCD PUSH1 0xE5 SHL DUP2 MSTORE PUSH1 0x20 PUSH1 0x4 DUP3 ADD MSTORE PUSH1 0x17 PUSH1 0x24 DUP3 ADD MSTORE PUSH32 0x43616C6C6572206973206E6F7420612072656261736572000000000000000000 PUSH1 0x44 DUP3 ADD MSTORE SWAP1 MLOAD SWAP1 DUP2 SWAP1 SUB PUSH1 0x64 ADD SWAP1 REVERT JUMPDEST PUSH1 0x0 PUSH2 0x26C0 PUSH2 0x40FC JUMP JUMPDEST SWAP1 POP PUSH1 0x0 PUSH1 0xCA PUSH1 0x0 SWAP1 SLOAD SWAP1 PUSH2 0x100 EXP SWAP1 DIV PUSH1 0x1 PUSH1 0x1 PUSH1 0xA0 SHL SUB AND PUSH1 0x1 PUSH1 0x1 PUSH1 0xA0 SHL SUB AND PUSH4 0x18160DDD PUSH1 0x40 MLOAD DUP2 PUSH4 0xFFFFFFFF AND PUSH1 0xE0 SHL DUP2 MSTORE PUSH1 0x4 ADD PUSH1 0x20 PUSH1 0x40 MLOAD DUP1 DUP4 SUB DUP2 DUP7 DUP1 EXTCODESIZE ISZERO DUP1 ISZERO PUSH2 0x2712 JUMPI PUSH1 0x0 DUP1 REVERT JUMPDEST POP GAS STATICCALL ISZERO DUP1 ISZERO PUSH2 0x2726 JUMPI RETURNDATASIZE PUSH1 0x0 DUP1 RETURNDATACOPY RETURNDATASIZE PUSH1 0x0 REVERT JUMPDEST POP POP POP POP PUSH1 0x40 MLOAD RETURNDATASIZE PUSH1 0x20 DUP2 LT ISZERO PUSH2 0x273C JUMPI PUSH1 0x0 DUP1 REVERT JUMPDEST POP MLOAD SWAP1 POP DUP2 ISZERO PUSH2 0x28D2 JUMPI PUSH1 0x0 PUSH2 0x27CC DUP4 PUSH1 0xCA PUSH1 0x0 SWAP1 SLOAD SWAP1 PUSH2 0x100 EXP SWAP1 DIV PUSH1 0x1 PUSH1 0x1 PUSH1 0xA0 SHL SUB AND PUSH1 0x1 PUSH1 0x1 PUSH1 0xA0 SHL SUB AND PUSH4 0x18160DDD PUSH1 0x40 MLOAD DUP2 PUSH4 0xFFFFFFFF AND PUSH1 0xE0 SHL DUP2 MSTORE PUSH1 0x4 ADD PUSH1 0x20 PUSH1 0x40 MLOAD DUP1 DUP4 SUB DUP2 DUP7 DUP1 EXTCODESIZE ISZERO DUP1 ISZERO PUSH2 0x279A JUMPI PUSH1 0x0 DUP1 REVERT JUMPDEST POP GAS STATICCALL ISZERO DUP1 ISZERO PUSH2 0x27AE JUMPI RETURNDATASIZE PUSH1 0x0 DUP1 RETURNDATACOPY RETURNDATASIZE PUSH1 0x0 REVERT JUMPDEST POP POP POP POP PUSH1 0x40 MLOAD RETURNDATASIZE PUSH1 0x20 DUP2 LT ISZERO PUSH2 0x27C4 JUMPI PUSH1 0x0 DUP1 REVERT JUMPDEST POP MLOAD SWAP1 PUSH2 0x328A JUMP JUMPDEST PUSH1 0xCA SLOAD PUSH1 0x40 DUP1 MLOAD PUSH4 0x2770A7EB PUSH1 0xE2 SHL DUP2 MSTORE ADDRESS PUSH1 0x4 DUP3 ADD MSTORE PUSH1 0x24 DUP2 ADD DUP8 SWAP1 MSTORE SWAP1 MLOAD SWAP3 SWAP4 POP PUSH1 0x1 PUSH1 0x1 PUSH1 0xA0 SHL SUB SWAP1 SWAP2 AND SWAP2 PUSH4 0x9DC29FAC SWAP2 PUSH1 0x44 DUP1 DUP3 ADD SWAP3 PUSH1 0x0 SWAP3 SWAP1 SWAP2 SWAP1 DUP3 SWAP1 SUB ADD DUP2 DUP4 DUP8 DUP1 EXTCODESIZE ISZERO DUP1 ISZERO PUSH2 0x2822 JUMPI PUSH1 0x0 DUP1 REVERT JUMPDEST POP GAS CALL ISZERO DUP1 ISZERO PUSH2 0x2836 JUMPI RETURNDATASIZE PUSH1 0x0 DUP1 RETURNDATACOPY RETURNDATASIZE PUSH1 0x0 REVERT JUMPDEST POP POP PUSH1 0xCA SLOAD PUSH1 0x40 DUP1 MLOAD PUSH4 0x39A7919F PUSH1 0xE0 SHL DUP2 MSTORE PUSH1 0x4 DUP2 ADD DUP7 SWAP1 MSTORE SWAP1 MLOAD PUSH1 0x1 PUSH1 0x1 PUSH1 0xA0 SHL SUB SWAP1 SWAP3 AND SWAP4 POP PUSH4 0x39A7919F SWAP3 POP PUSH1 0x24 DUP1 DUP3 ADD SWAP3 PUSH1 0x0 SWAP3 SWAP1 SWAP2 SWAP1 DUP3 SWAP1 SUB ADD DUP2 DUP4 DUP8 DUP1 EXTCODESIZE ISZERO DUP1 ISZERO PUSH2 0x2887 JUMPI PUSH1 0x0 DUP1 REVERT JUMPDEST POP GAS CALL ISZERO DUP1 ISZERO PUSH2 0x289B JUMPI RETURNDATASIZE PUSH1 0x0 DUP1 RETURNDATACOPY RETURNDATASIZE PUSH1 0x0 REVERT JUMPDEST POP POP PUSH1 0x40 MLOAD DUP4 SWAP3 POP DUP5 SWAP2 POP PUSH32 0x11C6BF55864FF83827DF712625D7A80E5583EEF0264921025E7CD22003A21511 SWAP1 PUSH1 0x0 SWAP1 LOG3 POP PUSH2 0x2900 JUMP JUMPDEST PUSH1 0x40 MLOAD DUP2 SWAP1 DUP2 SWAP1 PUSH32 0x11C6BF55864FF83827DF712625D7A80E5583EEF0264921025E7CD22003A21511 SWAP1 PUSH1 0x0 SWAP1 LOG3 JUMPDEST POP POP PUSH1 0x1 PUSH1 0x97 SSTORE JUMP JUMPDEST PUSH1 0x0 DUP1 PUSH2 0x2914 PUSH2 0x2D8A JUMP JUMPDEST SWAP1 POP PUSH1 0x0 PUSH1 0xCA PUSH1 0x0 SWAP1 SLOAD SWAP1 PUSH2 0x100 EXP SWAP1 DIV PUSH1 0x1 PUSH1 0x1 PUSH1 0xA0 SHL SUB AND PUSH1 0x1 PUSH1 0x1 PUSH1 0xA0 SHL SUB AND PUSH4 0x18160DDD PUSH1 0x40 MLOAD DUP2 PUSH4 0xFFFFFFFF AND PUSH1 0xE0 SHL DUP2 MSTORE PUSH1 0x4 ADD PUSH1 0x20 PUSH1 0x40 MLOAD DUP1 DUP4 SUB DUP2 DUP7 DUP1 EXTCODESIZE ISZERO DUP1 ISZERO PUSH2 0x2966 JUMPI PUSH1 0x0 DUP1 REVERT JUMPDEST POP GAS STATICCALL ISZERO DUP1 ISZERO PUSH2 0x297A JUMPI RETURNDATASIZE PUSH1 0x0 DUP1 RETURNDATACOPY RETURNDATASIZE PUSH1 0x0 REVERT JUMPDEST POP POP POP POP PUSH1 0x40 MLOAD RETURNDATASIZE PUSH1 0x20 DUP2 LT ISZERO PUSH2 0x2990 JUMPI PUSH1 0x0 DUP1 REVERT JUMPDEST POP MLOAD PUSH1 0xCB SLOAD PUSH1 0x40 DUP1 MLOAD PUSH4 0x4219775 PUSH1 0xE1 SHL DUP2 MSTORE SWAP1 MLOAD SWAP3 SWAP4 POP PUSH1 0x0 SWAP3 PUSH1 0x1 PUSH1 0x1 PUSH1 0xA0 SHL SUB SWAP1 SWAP3 AND SWAP2 PUSH4 0x8432EEA SWAP2 PUSH1 0x4 DUP1 DUP3 ADD SWAP3 PUSH1 0x20 SWAP3 SWAP1 SWAP2 SWAP1 DUP3 SWAP1 SUB ADD DUP2 DUP7 DUP1 EXTCODESIZE ISZERO DUP1 ISZERO PUSH2 0x29DD JUMPI PUSH1 0x0 DUP1 REVERT JUMPDEST POP GAS STATICCALL ISZERO DUP1 ISZERO PUSH2 0x29F1 JUMPI RETURNDATASIZE PUSH1 0x0 DUP1 RETURNDATACOPY RETURNDATASIZE PUSH1 0x0 REVERT JUMPDEST POP POP POP POP PUSH1 0x40 MLOAD RETURNDATASIZE PUSH1 0x20 DUP2 LT ISZERO PUSH2 0x2A07 JUMPI PUSH1 0x0 DUP1 REVERT JUMPDEST POP MLOAD PUSH1 0xCB SLOAD PUSH1 0x40 DUP1 MLOAD PUSH4 0x6F2A2B0F PUSH1 0xE0 SHL DUP2 MSTORE SWAP1 MLOAD SWAP3 SWAP4 POP PUSH1 0x0 SWAP3 PUSH1 0x1 PUSH1 0x1 PUSH1 0xA0 SHL SUB SWAP1 SWAP3 AND SWAP2 PUSH4 0x6F2A2B0F SWAP2 PUSH1 0x4 DUP1 DUP3 ADD SWAP3 PUSH1 0x20 SWAP3 SWAP1 SWAP2 SWAP1 DUP3 SWAP1 SUB ADD DUP2 DUP7 DUP1 EXTCODESIZE ISZERO DUP1 ISZERO PUSH2 0x2A54 JUMPI PUSH1 0x0 DUP1 REVERT JUMPDEST POP GAS STATICCALL ISZERO DUP1 ISZERO PUSH2 0x2A68 JUMPI RETURNDATASIZE PUSH1 0x0 DUP1 RETURNDATACOPY RETURNDATASIZE PUSH1 0x0 REVERT JUMPDEST POP POP POP POP PUSH1 0x40 MLOAD RETURNDATASIZE PUSH1 0x20 DUP2 LT ISZERO PUSH2 0x2A7E JUMPI PUSH1 0x0 DUP1 REVERT JUMPDEST POP MLOAD SWAP1 POP PUSH1 0x0 PUSH2 0x2A92 DUP3 PUSH2 0x248B DUP7 DUP7 PUSH2 0x3F88 JUMP JUMPDEST SWAP1 POP PUSH2 0x2AA7 DUP2 PUSH2 0x248B DUP8 PUSH5 0xE8D4A51000 PUSH2 0x3F88 JUMP JUMPDEST SWAP6 POP POP POP POP POP POP SWAP1 JUMP JUMPDEST PUSH1 0xC9 SLOAD PUSH1 0x1 PUSH1 0x28 SHL SWAP1 DIV PUSH1 0x1 PUSH1 0x1 PUSH1 0xA0 SHL SUB AND DUP2 JUMP JUMPDEST PUSH1 0x0 SLOAD PUSH2 0x100 SWAP1 DIV PUSH1 0xFF AND DUP1 PUSH2 0x2AE0 JUMPI POP PUSH2 0x2AE0 PUSH2 0x4262 JUMP JUMPDEST DUP1 PUSH2 0x2AEE JUMPI POP PUSH1 0x0 SLOAD PUSH1 0xFF AND ISZERO JUMPDEST PUSH2 0x2B29 JUMPI PUSH1 0x40 MLOAD PUSH3 0x461BCD PUSH1 0xE5 SHL DUP2 MSTORE PUSH1 0x4 ADD DUP1 DUP1 PUSH1 0x20 ADD DUP3 DUP2 SUB DUP3 MSTORE PUSH1 0x2E DUP2 MSTORE PUSH1 0x20 ADD DUP1 PUSH2 0x5274 PUSH1 0x2E SWAP2 CODECOPY PUSH1 0x40 ADD SWAP2 POP POP PUSH1 0x40 MLOAD DUP1 SWAP2 SUB SWAP1 REVERT JUMPDEST PUSH1 0x0 SLOAD PUSH2 0x100 SWAP1 DIV PUSH1 0xFF AND ISZERO DUP1 ISZERO PUSH2 0x2B54 JUMPI PUSH1 0x0 DUP1 SLOAD PUSH1 0xFF NOT PUSH2 0xFF00 NOT SWAP1 SWAP2 AND PUSH2 0x100 OR AND PUSH1 0x1 OR SWAP1 SSTORE JUMPDEST PUSH2 0x2B5C PUSH2 0x4273 JUMP JUMPDEST PUSH2 0x2B64 PUSH2 0x4325 JUMP JUMPDEST PUSH2 0x2B6C PUSH2 0x43C2 JUMP JUMPDEST PUSH1 0xC9 DUP1 SLOAD PUSH1 0x1 PUSH1 0x1 PUSH1 0xA0 SHL SUB DUP7 DUP2 AND PUSH1 0x1 PUSH1 0x28 SHL MUL PUSH3 0xFF0100 PUSH1 0x1 PUSH1 0xC8 SHL SUB NOT PUSH1 0xFF NOT SWAP1 SWAP4 AND PUSH1 0x1 OR SWAP3 SWAP1 SWAP3 AND SWAP2 SWAP1 SWAP2 OR SWAP1 SWAP2 SSTORE PUSH1 0xCE DUP1 SLOAD DUP6 DUP4 AND PUSH1 0x1 PUSH1 0x1 PUSH1 0xA0 SHL SUB NOT SWAP2 DUP3 AND OR SWAP1 SWAP2 SSTORE PUSH1 0xCC DUP1 SLOAD DUP3 AND ADDRESS OR SWAP1 SSTORE NUMBER PUSH1 0xCF SSTORE PUSH1 0xD2 DUP1 SLOAD PUSH4 0xFFFFFFFF NOT SWAP1 DUP2 AND PUSH2 0x3DB8 OR SWAP1 SWAP2 SSTORE PUSH5 0xDD30699C00 PUSH1 0xD3 SSTORE PUSH1 0xD4 DUP1 SLOAD PUSH2 0x5F90 SWAP3 AND SWAP2 SWAP1 SWAP2 OR PUSH8 0xFFFFFFFF00000000 NOT AND PUSH6 0x271000000000 OR PUSH12 0xFFFFFFFF0000000000000000 NOT AND PUSH9 0x450000000000000000 OR PUSH4 0xFFFFFFFF PUSH1 0x60 SHL NOT AND PUSH2 0x509 PUSH1 0x65 SHL OR PUSH4 0xFFFFFFFF PUSH1 0x80 SHL NOT AND PUSH2 0xAA3 PUSH1 0x81 SHL OR PUSH4 0xFFFFFFFF PUSH1 0xA0 SHL NOT AND PUSH1 0x35 PUSH1 0xA6 SHL OR SWAP1 SSTORE PUSH1 0xCD DUP1 SLOAD SWAP1 SWAP2 AND SWAP2 DUP5 AND SWAP2 SWAP1 SWAP2 OR SWAP1 SSTORE PUSH2 0x2C6B PUSH1 0x0 CALLER PUSH2 0x155E JUMP JUMPDEST DUP1 ISZERO PUSH2 0x2C7D JUMPI PUSH1 0x0 DUP1 SLOAD PUSH2 0xFF00 NOT AND SWAP1 SSTORE JUMPDEST POP POP POP POP JUMP JUMPDEST PUSH2 0x2C8B PUSH2 0x2F4B JUMP JUMPDEST PUSH1 0x1 PUSH1 0x1 PUSH1 0xA0 SHL SUB AND PUSH2 0x2C9C PUSH2 0x1D18 JUMP JUMPDEST PUSH1 0x1 PUSH1 0x1 PUSH1 0xA0 SHL SUB AND EQ PUSH2 0x2CE5 JUMPI PUSH1 0x40 DUP1 MLOAD PUSH3 0x461BCD PUSH1 0xE5 SHL DUP2 MSTORE PUSH1 0x20 PUSH1 0x4 DUP3 ADD DUP2 SWAP1 MSTORE PUSH1 0x24 DUP3 ADD MSTORE PUSH1 0x0 DUP1 MLOAD PUSH1 0x20 PUSH2 0x531F DUP4 CODECOPY DUP2 MLOAD SWAP2 MSTORE PUSH1 0x44 DUP3 ADD MSTORE SWAP1 MLOAD SWAP1 DUP2 SWAP1 SUB PUSH1 0x64 ADD SWAP1 REVERT JUMPDEST PUSH1 0xCA DUP1 SLOAD PUSH1 0x1 PUSH1 0x1 PUSH1 0xA0 SHL SUB NOT AND PUSH1 0x1 PUSH1 0x1 PUSH1 0xA0 SHL SUB SWAP3 SWAP1 SWAP3 AND SWAP2 SWAP1 SWAP2 OR SWAP1 SSTORE JUMP JUMPDEST PUSH1 0x0 DUP2 DUP2 MSTORE PUSH1 0x65 PUSH1 0x20 MSTORE PUSH1 0x40 DUP2 KECCAK256 PUSH2 0x1DF3 SWAP1 PUSH2 0x4457 JUMP JUMPDEST PUSH1 0x0 DUP3 DUP2 MSTORE PUSH1 0x65 PUSH1 0x20 MSTORE PUSH1 0x40 SWAP1 KECCAK256 PUSH1 0x2 ADD SLOAD PUSH2 0x2D3C SWAP1 PUSH2 0x151E PUSH2 0x2F4B JUMP JUMPDEST PUSH2 0x15C3 JUMPI PUSH1 0x40 MLOAD PUSH3 0x461BCD PUSH1 0xE5 SHL DUP2 MSTORE PUSH1 0x4 ADD DUP1 DUP1 PUSH1 0x20 ADD DUP3 DUP2 SUB DUP3 MSTORE PUSH1 0x30 DUP2 MSTORE PUSH1 0x20 ADD DUP1 PUSH2 0x5244 PUSH1 0x30 SWAP2 CODECOPY PUSH1 0x40 ADD SWAP2 POP POP PUSH1 0x40 MLOAD DUP1 SWAP2 SUB SWAP1 REVERT JUMPDEST PUSH1 0xD4 SLOAD PUSH1 0x1 PUSH1 0x60 SHL SWAP1 DIV PUSH4 0xFFFFFFFF AND DUP2 JUMP JUMPDEST PUSH1 0x0 PUSH2 0x2DA5 PUSH2 0x2D97 PUSH2 0x1267 JUMP JUMPDEST PUSH2 0x2D9F PUSH2 0x1BCD JUMP JUMPDEST SWAP1 PUSH2 0x328A JUMP JUMPDEST SWAP1 POP SWAP1 JUMP JUMPDEST PUSH1 0xC9 SLOAD PUSH2 0x100 SWAP1 DIV PUSH1 0xFF AND DUP2 JUMP JUMPDEST PUSH2 0x2DC0 PUSH2 0x2F4B JUMP JUMPDEST PUSH1 0x1 PUSH1 0x1 PUSH1 0xA0 SHL SUB AND PUSH2 0x2DD1 PUSH2 0x1D18 JUMP JUMPDEST PUSH1 0x1 PUSH1 0x1 PUSH1 0xA0 SHL SUB AND EQ PUSH2 0x2E1A JUMPI PUSH1 0x40 DUP1 MLOAD PUSH3 0x461BCD PUSH1 0xE5 SHL DUP2 MSTORE PUSH1 0x20 PUSH1 0x4 DUP3 ADD DUP2 SWAP1 MSTORE PUSH1 0x24 DUP3 ADD MSTORE PUSH1 0x0 DUP1 MLOAD PUSH1 0x20 PUSH2 0x531F DUP4 CODECOPY DUP2 MLOAD SWAP2 MSTORE PUSH1 0x44 DUP3 ADD MSTORE SWAP1 MLOAD SWAP1 DUP2 SWAP1 SUB PUSH1 0x64 ADD SWAP1 REVERT JUMPDEST PUSH1 0x1 PUSH1 0x1 PUSH1 0xA0 SHL SUB DUP2 AND PUSH2 0x2E5F JUMPI PUSH1 0x40 MLOAD PUSH3 0x461BCD PUSH1 0xE5 SHL DUP2 MSTORE PUSH1 0x4 ADD DUP1 DUP1 PUSH1 0x20 ADD DUP3 DUP2 SUB DUP3 MSTORE PUSH1 0x26 DUP2 MSTORE PUSH1 0x20 ADD DUP1 PUSH2 0x514A PUSH1 0x26 SWAP2 CODECOPY PUSH1 0x40 ADD SWAP2 POP POP PUSH1 0x40 MLOAD DUP1 SWAP2 SUB SWAP1 REVERT JUMPDEST PUSH1 0x33 SLOAD PUSH1 0x40 MLOAD PUSH1 0x1 PUSH1 0x1 PUSH1 0xA0 SHL SUB DUP1 DUP5 AND SWAP3 AND SWAP1 PUSH32 0x8BE0079C531659141344CD1FD0A4F28419497F9722A3DAAFE3B4186F6B6457E0 SWAP1 PUSH1 0x0 SWAP1 LOG3 PUSH1 0x33 DUP1 SLOAD PUSH1 0x1 PUSH1 0x1 PUSH1 0xA0 SHL SUB NOT AND PUSH1 0x1 PUSH1 0x1 PUSH1 0xA0 SHL SUB SWAP3 SWAP1 SWAP3 AND SWAP2 SWAP1 SWAP2 OR SWAP1 SSTORE JUMP JUMPDEST PUSH2 0x2EC3 PUSH2 0x2F4B JUMP JUMPDEST PUSH1 0x1 PUSH1 0x1 PUSH1 0xA0 SHL SUB AND PUSH2 0x2ED4 PUSH2 0x1D18 JUMP JUMPDEST PUSH1 0x1 PUSH1 0x1 PUSH1 0xA0 SHL SUB AND EQ PUSH2 0x2F1D JUMPI PUSH1 0x40 DUP1 MLOAD PUSH3 0x461BCD PUSH1 0xE5 SHL DUP2 MSTORE PUSH1 0x20 PUSH1 0x4 DUP3 ADD DUP2 SWAP1 MSTORE PUSH1 0x24 DUP3 ADD MSTORE PUSH1 0x0 DUP1 MLOAD PUSH1 0x20 PUSH2 0x531F DUP4 CODECOPY DUP2 MLOAD SWAP2 MSTORE PUSH1 0x44 DUP3 ADD MSTORE SWAP1 MLOAD SWAP1 DUP2 SWAP1 SUB PUSH1 0x64 ADD SWAP1 REVERT JUMPDEST PUSH1 0xCB DUP1 SLOAD PUSH1 0x1 PUSH1 0x1 PUSH1 0xA0 SHL SUB NOT AND PUSH1 0x1 PUSH1 0x1 PUSH1 0xA0 SHL SUB SWAP3 SWAP1 SWAP3 AND SWAP2 SWAP1 SWAP2 OR SWAP1 SSTORE JUMP JUMPDEST PUSH1 0xD3 SLOAD DUP2 JUMP JUMPDEST PUSH1 0xCF SLOAD DUP2 JUMP JUMPDEST CALLER SWAP1 JUMP JUMPDEST PUSH1 0x0 PUSH2 0x2F59 PUSH2 0x509C JUMP JUMPDEST POP PUSH1 0x1 PUSH1 0x1 PUSH1 0xA0 SHL SUB DUP1 DUP4 AND PUSH1 0x0 SWAP1 DUP2 MSTORE PUSH1 0xD5 PUSH1 0x20 SWAP1 DUP2 MSTORE PUSH1 0x40 DUP1 DUP4 KECCAK256 DUP2 MLOAD PUSH1 0xE0 DUP2 ADD DUP4 MSTORE DUP2 SLOAD DUP1 DUP8 AND DUP1 DUP4 MSTORE PUSH1 0xFF PUSH1 0x1 PUSH1 0xA0 SHL SWAP3 DUP4 SWAP1 DIV DUP2 AND ISZERO ISZERO DUP5 DUP9 ADD MSTORE PUSH1 0x1 DUP6 ADD SLOAD DUP1 DUP11 AND DUP6 DUP9 ADD DUP2 SWAP1 MSTORE DUP5 DUP3 DIV DUP4 AND ISZERO ISZERO PUSH1 0x60 DUP8 ADD MSTORE PUSH1 0x1 PUSH1 0xA8 SHL SWAP1 SWAP2 DIV DUP3 AND PUSH1 0x80 DUP7 ADD MSTORE PUSH1 0x2 SWAP1 SWAP6 ADD SLOAD DUP1 DUP11 AND PUSH1 0xA0 DUP7 ADD MSTORE SWAP3 SWAP1 SWAP3 DIV SWAP1 SWAP2 AND ISZERO ISZERO PUSH1 0xC0 DUP4 ADD MSTORE PUSH1 0xCB SLOAD DUP5 MLOAD PUSH4 0x14690265 PUSH1 0xE2 SHL DUP2 MSTORE PUSH1 0x4 DUP2 ADD SWAP3 SWAP1 SWAP3 MSTORE SWAP4 MLOAD SWAP2 SWAP7 SWAP3 SWAP6 SWAP5 SWAP4 SWAP1 SWAP3 AND SWAP3 PUSH4 0x51A40994 SWAP3 PUSH1 0x24 DUP1 DUP3 ADD SWAP4 SWAP2 DUP3 SWAP1 SUB ADD DUP2 DUP7 DUP1 EXTCODESIZE ISZERO DUP1 ISZERO PUSH2 0x3022 JUMPI PUSH1 0x0 DUP1 REVERT JUMPDEST POP GAS STATICCALL ISZERO DUP1 ISZERO PUSH2 0x3036 JUMPI RETURNDATASIZE PUSH1 0x0 DUP1 RETURNDATACOPY RETURNDATASIZE PUSH1 0x0 REVERT JUMPDEST POP POP POP POP PUSH1 0x40 MLOAD RETURNDATASIZE PUSH1 0x20 DUP2 LT ISZERO PUSH2 0x304C JUMPI PUSH1 0x0 DUP1 REVERT JUMPDEST POP MLOAD PUSH1 0xCB SLOAD DUP5 MLOAD PUSH1 0x40 DUP1 MLOAD PUSH4 0x3F153279 PUSH1 0xE0 SHL DUP2 MSTORE PUSH1 0x1 PUSH1 0x1 PUSH1 0xA0 SHL SUB SWAP3 DUP4 AND PUSH1 0x4 DUP3 ADD MSTORE SWAP1 MLOAD SWAP4 SWAP5 POP PUSH1 0x0 SWAP4 SWAP2 SWAP1 SWAP3 AND SWAP2 PUSH4 0x3F153279 SWAP2 PUSH1 0x24 DUP1 DUP4 ADD SWAP3 PUSH1 0x20 SWAP3 SWAP2 SWAP1 DUP3 SWAP1 SUB ADD DUP2 DUP7 DUP1 EXTCODESIZE ISZERO DUP1 ISZERO PUSH2 0x30A3 JUMPI PUSH1 0x0 DUP1 REVERT JUMPDEST POP GAS STATICCALL ISZERO DUP1 ISZERO PUSH2 0x30B7 JUMPI RETURNDATASIZE PUSH1 0x0 DUP1 RETURNDATACOPY RETURNDATASIZE PUSH1 0x0 REVERT JUMPDEST POP POP POP POP PUSH1 0x40 MLOAD RETURNDATASIZE PUSH1 0x20 DUP2 LT ISZERO PUSH2 0x30CD JUMPI PUSH1 0x0 DUP1 REVERT JUMPDEST POP MLOAD DUP5 MLOAD PUSH1 0x40 DUP1 MLOAD PUSH4 0x313CE567 PUSH1 0xE0 SHL DUP2 MSTORE SWAP1 MLOAD SWAP3 SWAP4 POP PUSH1 0x0 SWAP3 PUSH1 0x1 PUSH1 0x1 PUSH1 0xA0 SHL SUB SWAP1 SWAP3 AND SWAP2 PUSH4 0x313CE567 SWAP2 PUSH1 0x4 DUP1 DUP3 ADD SWAP3 PUSH1 0x20 SWAP3 SWAP1 SWAP2 SWAP1 DUP3 SWAP1 SUB ADD DUP2 DUP7 DUP1 EXTCODESIZE ISZERO DUP1 ISZERO PUSH2 0x3119 JUMPI PUSH1 0x0 DUP1 REVERT JUMPDEST POP GAS STATICCALL ISZERO DUP1 ISZERO PUSH2 0x312D JUMPI RETURNDATASIZE PUSH1 0x0 DUP1 RETURNDATACOPY RETURNDATASIZE PUSH1 0x0 REVERT JUMPDEST POP POP POP POP PUSH1 0x40 MLOAD RETURNDATASIZE PUSH1 0x20 DUP2 LT ISZERO PUSH2 0x3143 JUMPI PUSH1 0x0 DUP1 REVERT JUMPDEST POP MLOAD DUP6 MLOAD PUSH1 0x40 DUP1 MLOAD PUSH4 0x2FA8A913 PUSH1 0xE1 SHL DUP2 MSTORE PUSH1 0x1 PUSH1 0x1 PUSH1 0xA0 SHL SUB SWAP3 DUP4 AND PUSH1 0x4 DUP3 ADD MSTORE SWAP1 MLOAD PUSH1 0xFF SWAP1 SWAP4 AND SWAP4 POP PUSH1 0x0 SWAP3 PUSH2 0x31D7 SWAP3 DUP7 SWAP3 PUSH2 0x248B SWAP3 DUP10 SWAP3 DUP12 AND SWAP2 PUSH4 0x5F515226 SWAP2 PUSH1 0x24 DUP1 DUP4 ADD SWAP3 PUSH1 0x20 SWAP3 SWAP2 SWAP1 DUP3 SWAP1 SUB ADD DUP2 DUP7 DUP1 EXTCODESIZE ISZERO DUP1 ISZERO PUSH2 0x31A5 JUMPI PUSH1 0x0 DUP1 REVERT JUMPDEST POP GAS STATICCALL ISZERO DUP1 ISZERO PUSH2 0x31B9 JUMPI RETURNDATASIZE PUSH1 0x0 DUP1 RETURNDATACOPY RETURNDATASIZE PUSH1 0x0 REVERT JUMPDEST POP POP POP POP PUSH1 0x40 MLOAD RETURNDATASIZE PUSH1 0x20 DUP2 LT ISZERO PUSH2 0x31CF JUMPI PUSH1 0x0 DUP1 REVERT JUMPDEST POP MLOAD SWAP1 PUSH2 0x3F88 JUMP JUMPDEST SWAP1 POP PUSH1 0x0 PUSH2 0x31F3 PUSH2 0x31E9 PUSH1 0x12 DUP6 PUSH2 0x4048 JUMP JUMPDEST DUP4 SWAP1 PUSH1 0xA EXP PUSH2 0x3F88 JUMP JUMPDEST SWAP1 POP DUP1 SWAP8 POP DUP6 PUSH1 0x1 PUSH1 0x1 PUSH1 0xA0 SHL SUB AND PUSH4 0xA400326F DUP9 PUSH1 0x0 ADD MLOAD PUSH1 0x40 MLOAD DUP3 PUSH4 0xFFFFFFFF AND PUSH1 0xE0 SHL DUP2 MSTORE PUSH1 0x4 ADD DUP1 DUP3 PUSH1 0x1 PUSH1 0x1 PUSH1 0xA0 SHL SUB AND DUP2 MSTORE PUSH1 0x20 ADD SWAP2 POP POP PUSH1 0x20 PUSH1 0x40 MLOAD DUP1 DUP4 SUB DUP2 DUP7 DUP1 EXTCODESIZE ISZERO DUP1 ISZERO PUSH2 0x3249 JUMPI PUSH1 0x0 DUP1 REVERT JUMPDEST POP GAS STATICCALL ISZERO DUP1 ISZERO PUSH2 0x325D JUMPI RETURNDATASIZE PUSH1 0x0 DUP1 RETURNDATACOPY RETURNDATASIZE PUSH1 0x0 REVERT JUMPDEST POP POP POP POP PUSH1 0x40 MLOAD RETURNDATASIZE PUSH1 0x20 DUP2 LT ISZERO PUSH2 0x3273 JUMPI PUSH1 0x0 DUP1 REVERT JUMPDEST POP MLOAD PUSH2 0x327E JUMPI PUSH1 0x0 SWAP8 POP JUMPDEST POP POP POP POP POP POP POP SWAP2 SWAP1 POP JUMP JUMPDEST PUSH1 0x0 DUP3 DUP3 ADD DUP4 DUP2 LT ISZERO PUSH2 0x1DF0 JUMPI PUSH1 0x40 DUP1 MLOAD PUSH3 0x461BCD PUSH1 0xE5 SHL DUP2 MSTORE PUSH1 0x20 PUSH1 0x4 DUP3 ADD MSTORE PUSH1 0x1B PUSH1 0x24 DUP3 ADD MSTORE PUSH32 0x536166654D6174683A206164646974696F6E206F766572666C6F770000000000 PUSH1 0x44 DUP3 ADD MSTORE SWAP1 MLOAD SWAP1 DUP2 SWAP1 SUB PUSH1 0x64 ADD SWAP1 REVERT JUMPDEST PUSH1 0x0 DUP3 DUP2 MSTORE PUSH1 0x65 PUSH1 0x20 MSTORE PUSH1 0x40 SWAP1 KECCAK256 PUSH2 0x32FC SWAP1 DUP3 PUSH2 0x4462 JUMP JUMPDEST ISZERO PUSH2 0x1568 JUMPI PUSH2 0x3309 PUSH2 0x2F4B JUMP JUMPDEST PUSH1 0x1 PUSH1 0x1 PUSH1 0xA0 SHL SUB AND DUP2 PUSH1 0x1 PUSH1 0x1 PUSH1 0xA0 SHL SUB AND DUP4 PUSH32 0x2F8788117E7EFF1D82E926EC794901D17C78024A50270940304540A733656F0D PUSH1 0x40 MLOAD PUSH1 0x40 MLOAD DUP1 SWAP2 SUB SWAP1 LOG4 POP POP JUMP JUMPDEST PUSH1 0x0 DUP3 DUP2 MSTORE PUSH1 0x65 PUSH1 0x20 MSTORE PUSH1 0x40 SWAP1 KECCAK256 PUSH2 0x3365 SWAP1 DUP3 PUSH2 0x4477 JUMP JUMPDEST ISZERO PUSH2 0x1568 JUMPI PUSH2 0x3372 PUSH2 0x2F4B JUMP JUMPDEST PUSH1 0x1 PUSH1 0x1 PUSH1 0xA0 SHL SUB AND DUP2 PUSH1 0x1 PUSH1 0x1 PUSH1 0xA0 SHL SUB AND DUP4 PUSH32 0xF6391F5C32D9C69D2A47EA670B442974B53935D1EDC7FD64EB21E047A839171B PUSH1 0x40 MLOAD PUSH1 0x40 MLOAD DUP1 SWAP2 SUB SWAP1 LOG4 POP POP JUMP JUMPDEST PUSH1 0xC9 SLOAD PUSH1 0xFF AND PUSH2 0x3404 JUMPI PUSH1 0x40 DUP1 MLOAD PUSH3 0x461BCD PUSH1 0xE5 SHL DUP2 MSTORE PUSH1 0x20 PUSH1 0x4 DUP3 ADD MSTORE PUSH1 0x14 PUSH1 0x24 DUP3 ADD MSTORE PUSH20 0x135A5B9D0809881C995919595B481C185D5CD959 PUSH1 0x62 SHL PUSH1 0x44 DUP3 ADD MSTORE SWAP1 MLOAD SWAP1 DUP2 SWAP1 SUB PUSH1 0x64 ADD SWAP1 REVERT JUMPDEST PUSH1 0xCE SLOAD PUSH1 0x40 DUP1 MLOAD PUSH4 0x63B09FDB PUSH1 0xE0 SHL DUP2 MSTORE PUSH1 0x1 PUSH1 0x1 PUSH1 0xA0 SHL SUB DUP11 DUP2 AND PUSH1 0x4 DUP4 ADD MSTORE PUSH1 0x24 DUP3 ADD DUP11 SWAP1 MSTORE PUSH1 0xFF DUP10 AND PUSH1 0x44 DUP4 ADD MSTORE ADDRESS PUSH1 0x64 DUP4 ADD MSTORE SWAP2 MLOAD PUSH1 0x0 SWAP4 DUP5 SWAP4 DUP5 SWAP4 DUP5 SWAP4 SWAP2 SWAP1 SWAP3 AND SWAP2 PUSH4 0x63B09FDB SWAP2 PUSH1 0x84 DUP1 DUP4 ADD SWAP3 PUSH1 0x80 SWAP3 SWAP2 SWAP1 DUP3 SWAP1 SUB ADD DUP2 DUP7 DUP1 EXTCODESIZE ISZERO DUP1 ISZERO PUSH2 0x3470 JUMPI PUSH1 0x0 DUP1 REVERT JUMPDEST POP GAS STATICCALL ISZERO DUP1 ISZERO PUSH2 0x3484 JUMPI RETURNDATASIZE PUSH1 0x0 DUP1 RETURNDATACOPY RETURNDATASIZE PUSH1 0x0 REVERT JUMPDEST POP POP POP POP PUSH1 0x40 MLOAD RETURNDATASIZE PUSH1 0x80 DUP2 LT ISZERO PUSH2 0x349A JUMPI PUSH1 0x0 DUP1 REVERT JUMPDEST POP DUP1 MLOAD PUSH1 0x20 DUP3 ADD MLOAD PUSH1 0x40 DUP4 ADD MLOAD PUSH1 0x60 SWAP1 SWAP4 ADD MLOAD SWAP2 SWAP7 POP SWAP5 POP SWAP1 SWAP3 POP SWAP1 POP DUP8 DUP3 LT ISZERO PUSH2 0x34F6 JUMPI PUSH1 0x40 MLOAD PUSH3 0x461BCD PUSH1 0xE5 SHL DUP2 MSTORE PUSH1 0x4 ADD DUP1 DUP1 PUSH1 0x20 ADD DUP3 DUP2 SUB DUP3 MSTORE PUSH1 0x2E DUP2 MSTORE PUSH1 0x20 ADD DUP1 PUSH2 0x533F PUSH1 0x2E SWAP2 CODECOPY PUSH1 0x40 ADD SWAP2 POP POP PUSH1 0x40 MLOAD DUP1 SWAP2 SUB SWAP1 REVERT JUMPDEST DUP7 DUP4 GT ISZERO PUSH2 0x3535 JUMPI PUSH1 0x40 MLOAD PUSH3 0x461BCD PUSH1 0xE5 SHL DUP2 MSTORE PUSH1 0x4 ADD DUP1 DUP1 PUSH1 0x20 ADD DUP3 DUP2 SUB DUP3 MSTORE PUSH1 0x33 DUP2 MSTORE PUSH1 0x20 ADD DUP1 PUSH2 0x52A2 PUSH1 0x33 SWAP2 CODECOPY PUSH1 0x40 ADD SWAP2 POP POP PUSH1 0x40 MLOAD DUP1 SWAP2 SUB SWAP1 REVERT JUMPDEST DUP6 DUP5 GT ISZERO PUSH2 0x3574 JUMPI PUSH1 0x40 MLOAD PUSH3 0x461BCD PUSH1 0xE5 SHL DUP2 MSTORE PUSH1 0x4 ADD DUP1 DUP1 PUSH1 0x20 ADD DUP3 DUP2 SUB DUP3 MSTORE PUSH1 0x2C DUP2 MSTORE PUSH1 0x20 ADD DUP1 PUSH2 0x51A4 PUSH1 0x2C SWAP2 CODECOPY PUSH1 0x40 ADD SWAP2 POP POP PUSH1 0x40 MLOAD DUP1 SWAP2 SUB SWAP1 REVERT JUMPDEST DUP5 TIMESTAMP GT ISZERO PUSH2 0x35BC JUMPI PUSH1 0x40 DUP1 MLOAD PUSH3 0x461BCD PUSH1 0xE5 SHL DUP2 MSTORE PUSH1 0x20 PUSH1 0x4 DUP3 ADD MSTORE PUSH1 0x10 PUSH1 0x24 DUP3 ADD MSTORE PUSH16 0x111958591B1A5B9948195E1C1A5C9959 PUSH1 0x82 SHL PUSH1 0x44 DUP3 ADD MSTORE SWAP1 MLOAD SWAP1 DUP2 SWAP1 SUB PUSH1 0x64 ADD SWAP1 REVERT JUMPDEST PUSH1 0xC9 SLOAD PUSH1 0x40 DUP1 MLOAD PUSH4 0x79CC679 PUSH1 0xE4 SHL DUP2 MSTORE CALLER PUSH1 0x4 DUP3 ADD MSTORE PUSH1 0x24 DUP2 ADD DUP8 SWAP1 MSTORE SWAP1 MLOAD PUSH1 0x1 PUSH1 0x28 SHL SWAP1 SWAP3 DIV PUSH1 0x1 PUSH1 0x1 PUSH1 0xA0 SHL SUB AND SWAP2 PUSH4 0x79CC6790 SWAP2 PUSH1 0x44 DUP1 DUP3 ADD SWAP3 PUSH1 0x0 SWAP3 SWAP1 SWAP2 SWAP1 DUP3 SWAP1 SUB ADD DUP2 DUP4 DUP8 DUP1 EXTCODESIZE ISZERO DUP1 ISZERO PUSH2 0x3615 JUMPI PUSH1 0x0 DUP1 REVERT JUMPDEST POP GAS CALL ISZERO DUP1 ISZERO PUSH2 0x3629 JUMPI RETURNDATASIZE PUSH1 0x0 DUP1 RETURNDATACOPY RETURNDATASIZE PUSH1 0x0 REVERT JUMPDEST POP POP PUSH1 0xD1 SLOAD PUSH2 0x363B SWAP3 POP SWAP1 POP DUP6 PUSH2 0x328A JUMP JUMPDEST PUSH1 0xD1 SSTORE PUSH2 0x3653 PUSH1 0x1 PUSH1 0x1 PUSH1 0xA0 SHL SUB DUP13 AND CALLER ADDRESS DUP7 PUSH2 0x448C JUMP JUMPDEST PUSH1 0xCA SLOAD PUSH1 0x40 DUP1 MLOAD PUSH4 0x40C10F19 PUSH1 0xE0 SHL DUP2 MSTORE CALLER PUSH1 0x4 DUP3 ADD MSTORE PUSH1 0x24 DUP2 ADD DUP6 SWAP1 MSTORE SWAP1 MLOAD PUSH1 0x1 PUSH1 0x1 PUSH1 0xA0 SHL SUB SWAP1 SWAP3 AND SWAP2 PUSH4 0x40C10F19 SWAP2 PUSH1 0x44 DUP1 DUP3 ADD SWAP3 PUSH1 0x0 SWAP3 SWAP1 SWAP2 SWAP1 DUP3 SWAP1 SUB ADD DUP2 DUP4 DUP8 DUP1 EXTCODESIZE ISZERO DUP1 ISZERO PUSH2 0x36A6 JUMPI PUSH1 0x0 DUP1 REVERT JUMPDEST POP GAS CALL ISZERO DUP1 ISZERO PUSH2 0x36BA JUMPI RETURNDATASIZE PUSH1 0x0 DUP1 RETURNDATACOPY RETURNDATASIZE PUSH1 0x0 REVERT JUMPDEST POP POP PUSH1 0xCA SLOAD PUSH1 0xCD SLOAD PUSH1 0x40 DUP1 MLOAD PUSH4 0x40C10F19 PUSH1 0xE0 SHL DUP2 MSTORE PUSH1 0x1 PUSH1 0x1 PUSH1 0xA0 SHL SUB SWAP3 DUP4 AND PUSH1 0x4 DUP3 ADD MSTORE PUSH1 0x24 DUP2 ADD DUP8 SWAP1 MSTORE SWAP1 MLOAD SWAP2 SWAP1 SWAP3 AND SWAP4 POP PUSH4 0x40C10F19 SWAP3 POP PUSH1 0x44 DUP1 DUP4 ADD SWAP3 PUSH1 0x0 SWAP3 SWAP2 SWAP1 DUP3 SWAP1 SUB ADD DUP2 DUP4 DUP8 DUP1 EXTCODESIZE ISZERO DUP1 ISZERO PUSH2 0x3716 JUMPI PUSH1 0x0 DUP1 REVERT JUMPDEST POP GAS CALL ISZERO DUP1 ISZERO PUSH2 0x372A JUMPI RETURNDATASIZE PUSH1 0x0 DUP1 RETURNDATACOPY RETURNDATASIZE PUSH1 0x0 REVERT JUMPDEST POP POP PUSH1 0x40 DUP1 MLOAD DUP7 DUP2 MSTORE PUSH1 0x20 DUP2 ADD DUP9 SWAP1 MSTORE DUP1 DUP3 ADD DUP6 SWAP1 MSTORE SWAP1 MLOAD DUP6 SWAP4 POP CALLER SWAP3 POP PUSH32 0x473211CA1F39DE50CBD3CC7E9F63F97251AFB1A528E8164F279BF67DAB4F952D SWAP2 DUP2 SWAP1 SUB PUSH1 0x60 ADD SWAP1 LOG3 POP POP POP POP POP POP POP POP POP POP POP JUMP JUMPDEST PUSH1 0x0 PUSH2 0x3789 PUSH2 0x509C JUMP JUMPDEST POP PUSH1 0x1 PUSH1 0x1 PUSH1 0xA0 SHL SUB DUP1 DUP4 AND PUSH1 0x0 SWAP1 DUP2 MSTORE PUSH1 0xD5 PUSH1 0x20 SWAP1 DUP2 MSTORE PUSH1 0x40 DUP1 DUP4 KECCAK256 DUP2 MLOAD PUSH1 0xE0 DUP2 ADD DUP4 MSTORE DUP2 SLOAD DUP1 DUP8 AND DUP1 DUP4 MSTORE PUSH1 0xFF PUSH1 0x1 PUSH1 0xA0 SHL SWAP3 DUP4 SWAP1 DIV DUP2 AND ISZERO ISZERO DUP5 DUP9 ADD MSTORE PUSH1 0x1 DUP6 ADD SLOAD DUP1 DUP11 AND DUP6 DUP9 ADD MSTORE DUP4 DUP2 DIV DUP3 AND ISZERO ISZERO PUSH1 0x60 DUP7 ADD MSTORE PUSH1 0x1 PUSH1 0xA8 SHL SWAP1 DIV DUP2 AND PUSH1 0x80 DUP6 ADD MSTORE PUSH1 0x2 SWAP1 SWAP5 ADD SLOAD DUP1 DUP10 AND PUSH1 0xA0 DUP6 ADD MSTORE SWAP2 SWAP1 SWAP2 DIV SWAP1 SWAP3 AND ISZERO ISZERO PUSH1 0xC0 DUP3 ADD MSTORE PUSH1 0xCB SLOAD DUP4 MLOAD PUSH4 0x14690265 PUSH1 0xE2 SHL DUP2 MSTORE PUSH1 0x4 DUP2 ADD SWAP4 SWAP1 SWAP4 MSTORE SWAP3 MLOAD SWAP1 SWAP6 SWAP3 SWAP1 SWAP3 AND SWAP3 PUSH4 0x51A40994 SWAP3 PUSH1 0x24 DUP1 DUP5 ADD SWAP4 DUP3 SWAP1 SUB ADD DUP2 DUP7 DUP1 EXTCODESIZE ISZERO DUP1 ISZERO PUSH2 0x384B JUMPI PUSH1 0x0 DUP1 REVERT JUMPDEST POP GAS STATICCALL ISZERO DUP1 ISZERO PUSH2 0x385F JUMPI RETURNDATASIZE PUSH1 0x0 DUP1 RETURNDATACOPY RETURNDATASIZE PUSH1 0x0 REVERT JUMPDEST POP POP POP POP PUSH1 0x40 MLOAD RETURNDATASIZE PUSH1 0x20 DUP2 LT ISZERO PUSH2 0x3875 JUMPI PUSH1 0x0 DUP1 REVERT JUMPDEST POP MLOAD PUSH1 0xCB SLOAD DUP4 MLOAD PUSH1 0x40 DUP1 MLOAD PUSH4 0x3F153279 PUSH1 0xE0 SHL DUP2 MSTORE PUSH1 0x1 PUSH1 0x1 PUSH1 0xA0 SHL SUB SWAP3 DUP4 AND PUSH1 0x4 DUP3 ADD MSTORE SWAP1 MLOAD SWAP4 SWAP5 POP PUSH1 0x0 SWAP4 SWAP2 SWAP1 SWAP3 AND SWAP2 PUSH4 0x3F153279 SWAP2 PUSH1 0x24 DUP1 DUP4 ADD SWAP3 PUSH1 0x20 SWAP3 SWAP2 SWAP1 DUP3 SWAP1 SUB ADD DUP2 DUP7 DUP1 EXTCODESIZE ISZERO DUP1 ISZERO PUSH2 0x38CC JUMPI PUSH1 0x0 DUP1 REVERT JUMPDEST POP GAS STATICCALL ISZERO DUP1 ISZERO PUSH2 0x38E0 JUMPI RETURNDATASIZE PUSH1 0x0 DUP1 RETURNDATACOPY RETURNDATASIZE PUSH1 0x0 REVERT JUMPDEST POP POP POP POP PUSH1 0x40 MLOAD RETURNDATASIZE PUSH1 0x20 DUP2 LT ISZERO PUSH2 0x38F6 JUMPI PUSH1 0x0 DUP1 REVERT JUMPDEST POP MLOAD DUP4 MLOAD PUSH1 0x40 DUP1 MLOAD PUSH4 0x313CE567 PUSH1 0xE0 SHL DUP2 MSTORE SWAP1 MLOAD SWAP3 SWAP4 POP PUSH1 0x0 SWAP3 PUSH1 0x1 PUSH1 0x1 PUSH1 0xA0 SHL SUB SWAP1 SWAP3 AND SWAP2 PUSH4 0x313CE567 SWAP2 PUSH1 0x4 DUP1 DUP3 ADD SWAP3 PUSH1 0x20 SWAP3 SWAP1 SWAP2 SWAP1 DUP3 SWAP1 SUB ADD DUP2 DUP7 DUP1 EXTCODESIZE ISZERO DUP1 ISZERO PUSH2 0x3942 JUMPI PUSH1 0x0 DUP1 REVERT JUMPDEST POP GAS STATICCALL ISZERO DUP1 ISZERO PUSH2 0x3956 JUMPI RETURNDATASIZE PUSH1 0x0 DUP1 RETURNDATACOPY RETURNDATASIZE PUSH1 0x0 REVERT JUMPDEST POP POP POP POP PUSH1 0x40 MLOAD RETURNDATASIZE PUSH1 0x20 DUP2 LT ISZERO PUSH2 0x396C JUMPI PUSH1 0x0 DUP1 REVERT JUMPDEST POP MLOAD DUP5 MLOAD PUSH1 0x40 DUP1 MLOAD PUSH4 0x70A08231 PUSH1 0xE0 SHL DUP2 MSTORE ADDRESS PUSH1 0x4 DUP3 ADD MSTORE SWAP1 MLOAD PUSH1 0xFF SWAP1 SWAP4 AND SWAP4 POP PUSH1 0x0 SWAP3 PUSH2 0x39CB SWAP3 DUP7 SWAP3 PUSH2 0x248B SWAP3 DUP10 SWAP3 PUSH1 0x1 PUSH1 0x1 PUSH1 0xA0 SHL SUB AND SWAP2 PUSH4 0x70A08231 SWAP2 PUSH1 0x24 DUP1 DUP4 ADD SWAP3 PUSH1 0x20 SWAP3 SWAP2 SWAP1 DUP3 SWAP1 SUB ADD DUP2 DUP7 DUP1 EXTCODESIZE ISZERO DUP1 ISZERO PUSH2 0x31A5 JUMPI PUSH1 0x0 DUP1 REVERT JUMPDEST SWAP1 POP PUSH1 0x0 PUSH2 0x39DD PUSH2 0x31E9 PUSH1 0x12 DUP6 PUSH2 0x4048 JUMP JUMPDEST SWAP9 SWAP8 POP POP POP POP POP POP POP POP JUMP JUMPDEST PUSH1 0x0 PUSH2 0x1DF0 DUP4 DUP4 PUSH2 0x44E6 JUMP JUMPDEST PUSH1 0x0 PUSH2 0x1DF0 DUP4 PUSH1 0x1 PUSH1 0x1 PUSH1 0xA0 SHL SUB DUP5 AND PUSH2 0x454A JUMP JUMPDEST PUSH1 0xC9 SLOAD PUSH1 0xFF AND PUSH2 0x3A58 JUMPI PUSH1 0x40 DUP1 MLOAD PUSH3 0x461BCD PUSH1 0xE5 SHL DUP2 MSTORE PUSH1 0x20 PUSH1 0x4 DUP3 ADD MSTORE PUSH1 0x14 PUSH1 0x24 DUP3 ADD MSTORE PUSH20 0x135A5B9D0809881C995919595B481C185D5CD959 PUSH1 0x62 SHL PUSH1 0x44 DUP3 ADD MSTORE SWAP1 MLOAD SWAP1 DUP2 SWAP1 SUB PUSH1 0x64 ADD SWAP1 REVERT JUMPDEST PUSH1 0xCE SLOAD PUSH1 0xCB SLOAD PUSH1 0x40 DUP1 MLOAD PUSH4 0x7A9ACAD3 PUSH1 0xE1 SHL DUP2 MSTORE PUSH1 0x1 PUSH1 0x1 PUSH1 0xA0 SHL SUB DUP10 DUP2 AND PUSH1 0x4 DUP4 ADD MSTORE PUSH1 0x24 DUP3 ADD DUP10 SWAP1 MSTORE ADDRESS PUSH1 0x44 DUP4 ADD MSTORE SWAP3 DUP4 AND PUSH1 0x64 DUP3 ADD MSTORE SWAP1 MLOAD PUSH1 0x0 SWAP4 DUP5 SWAP4 DUP5 SWAP4 DUP5 SWAP4 SWAP2 SWAP1 SWAP3 AND SWAP2 PUSH4 0xF53595A6 SWAP2 PUSH1 0x84 DUP1 DUP4 ADD SWAP3 PUSH1 0x80 SWAP3 SWAP2 SWAP1 DUP3 SWAP1 SUB ADD DUP2 DUP7 DUP1 EXTCODESIZE ISZERO DUP1 ISZERO PUSH2 0x3AC6 JUMPI PUSH1 0x0 DUP1 REVERT JUMPDEST POP GAS STATICCALL ISZERO DUP1 ISZERO PUSH2 0x3ADA JUMPI RETURNDATASIZE PUSH1 0x0 DUP1 RETURNDATACOPY RETURNDATASIZE PUSH1 0x0 REVERT JUMPDEST POP POP POP POP PUSH1 0x40 MLOAD RETURNDATASIZE PUSH1 0x80 DUP2 LT ISZERO PUSH2 0x3AF0 JUMPI PUSH1 0x0 DUP1 REVERT JUMPDEST POP DUP1 MLOAD PUSH1 0x20 DUP3 ADD MLOAD PUSH1 0x40 DUP4 ADD MLOAD PUSH1 0x60 SWAP1 SWAP4 ADD MLOAD SWAP2 SWAP7 POP SWAP5 POP SWAP1 SWAP3 POP SWAP1 POP DUP7 DUP4 LT ISZERO PUSH2 0x3B4C JUMPI PUSH1 0x40 MLOAD PUSH3 0x461BCD PUSH1 0xE5 SHL DUP2 MSTORE PUSH1 0x4 ADD DUP1 DUP1 PUSH1 0x20 ADD DUP3 DUP2 SUB DUP3 MSTORE PUSH1 0x34 DUP2 MSTORE PUSH1 0x20 ADD DUP1 PUSH2 0x5170 PUSH1 0x34 SWAP2 CODECOPY PUSH1 0x40 ADD SWAP2 POP POP PUSH1 0x40 MLOAD DUP1 SWAP2 SUB SWAP1 REVERT JUMPDEST DUP6 DUP5 LT ISZERO PUSH2 0x3B8B JUMPI PUSH1 0x40 MLOAD PUSH3 0x461BCD PUSH1 0xE5 SHL DUP2 MSTORE PUSH1 0x4 ADD DUP1 DUP1 PUSH1 0x20 ADD DUP3 DUP2 SUB DUP3 MSTORE PUSH1 0x2D DUP2 MSTORE PUSH1 0x20 ADD DUP1 PUSH2 0x5217 PUSH1 0x2D SWAP2 CODECOPY PUSH1 0x40 ADD SWAP2 POP POP PUSH1 0x40 MLOAD DUP1 SWAP2 SUB SWAP1 REVERT JUMPDEST DUP5 TIMESTAMP GT ISZERO PUSH2 0x3BD3 JUMPI PUSH1 0x40 DUP1 MLOAD PUSH3 0x461BCD PUSH1 0xE5 SHL DUP2 MSTORE PUSH1 0x20 PUSH1 0x4 DUP3 ADD MSTORE PUSH1 0x10 PUSH1 0x24 DUP3 ADD MSTORE PUSH16 0x111958591B1A5B9948195E1C1A5C9959 PUSH1 0x82 SHL PUSH1 0x44 DUP3 ADD MSTORE SWAP1 MLOAD SWAP1 DUP2 SWAP1 SUB PUSH1 0x64 ADD SWAP1 REVERT JUMPDEST PUSH2 0x3BDB PUSH2 0x509C JUMP JUMPDEST POP PUSH1 0x1 PUSH1 0x1 PUSH1 0xA0 SHL SUB DUP1 DUP11 AND PUSH1 0x0 SWAP1 DUP2 MSTORE PUSH1 0xD5 PUSH1 0x20 SWAP1 DUP2 MSTORE PUSH1 0x40 DUP1 DUP4 KECCAK256 DUP2 MLOAD PUSH1 0xE0 DUP2 ADD DUP4 MSTORE DUP2 SLOAD DUP1 DUP8 AND DUP3 MSTORE PUSH1 0xFF PUSH1 0x1 PUSH1 0xA0 SHL SWAP2 DUP3 SWAP1 DIV DUP2 AND ISZERO ISZERO SWAP6 DUP4 ADD SWAP6 SWAP1 SWAP6 MSTORE PUSH1 0x1 DUP4 ADD SLOAD DUP1 DUP9 AND DUP4 DUP7 ADD MSTORE DUP2 DUP2 DIV DUP7 AND ISZERO ISZERO PUSH1 0x60 DUP5 ADD MSTORE PUSH1 0x1 PUSH1 0xA8 SHL SWAP1 DIV DUP6 AND PUSH1 0x80 DUP4 ADD MSTORE PUSH1 0x2 SWAP1 SWAP3 ADD SLOAD DUP1 DUP8 AND PUSH1 0xA0 DUP4 ADD MSTORE SWAP2 SWAP1 SWAP2 DIV SWAP1 SWAP3 AND ISZERO ISZERO PUSH1 0xC0 DUP4 ADD MSTORE PUSH1 0xC9 SLOAD DUP2 MLOAD PUSH4 0xEDB561C3 PUSH1 0xE0 SHL DUP2 MSTORE CALLER PUSH1 0x4 DUP3 ADD MSTORE PUSH1 0x24 DUP2 ADD DUP11 SWAP1 MSTORE SWAP2 MLOAD SWAP3 SWAP5 PUSH1 0x1 PUSH1 0x28 SHL SWAP1 SWAP2 DIV AND SWAP3 PUSH4 0xEDB561C3 SWAP3 PUSH1 0x44 DUP1 DUP5 ADD SWAP4 DUP3 SWAP1 SUB ADD DUP2 DUP4 DUP8 DUP1 EXTCODESIZE ISZERO DUP1 ISZERO PUSH2 0x3CAA JUMPI PUSH1 0x0 DUP1 REVERT JUMPDEST POP GAS CALL ISZERO DUP1 ISZERO PUSH2 0x3CBE JUMPI RETURNDATASIZE PUSH1 0x0 DUP1 RETURNDATACOPY RETURNDATASIZE PUSH1 0x0 REVERT JUMPDEST POP POP PUSH1 0xD0 SLOAD PUSH2 0x3CD0 SWAP3 POP SWAP1 POP DUP7 PUSH2 0x328A JUMP JUMPDEST PUSH1 0xD0 SSTORE PUSH1 0x40 DUP1 MLOAD PUSH4 0x70A08231 PUSH1 0xE0 SHL DUP2 MSTORE ADDRESS PUSH1 0x4 DUP3 ADD MSTORE SWAP1 MLOAD DUP6 SWAP2 PUSH1 0x1 PUSH1 0x1 PUSH1 0xA0 SHL SUB DUP14 AND SWAP2 PUSH4 0x70A08231 SWAP2 PUSH1 0x24 DUP1 DUP3 ADD SWAP3 PUSH1 0x20 SWAP3 SWAP1 SWAP2 SWAP1 DUP3 SWAP1 SUB ADD DUP2 DUP7 DUP1 EXTCODESIZE ISZERO DUP1 ISZERO PUSH2 0x3D1C JUMPI PUSH1 0x0 DUP1 REVERT JUMPDEST POP GAS STATICCALL ISZERO DUP1 ISZERO PUSH2 0x3D30 JUMPI RETURNDATASIZE PUSH1 0x0 DUP1 RETURNDATACOPY RETURNDATASIZE PUSH1 0x0 REVERT JUMPDEST POP POP POP POP PUSH1 0x40 MLOAD RETURNDATASIZE PUSH1 0x20 DUP2 LT ISZERO PUSH2 0x3D46 JUMPI PUSH1 0x0 DUP1 REVERT JUMPDEST POP MLOAD LT PUSH2 0x3D66 JUMPI PUSH2 0x3D61 PUSH1 0x1 PUSH1 0x1 PUSH1 0xA0 SHL SUB DUP12 AND CALLER DUP7 PUSH2 0x40A5 JUMP JUMPDEST PUSH2 0x3EAE JUMP JUMPDEST PUSH1 0x40 DUP2 ADD MLOAD PUSH1 0x1 PUSH1 0x1 PUSH1 0xA0 SHL SUB AND ISZERO PUSH2 0x3E77 JUMPI PUSH1 0x0 DUP2 PUSH1 0x40 ADD MLOAD SWAP1 POP DUP1 PUSH1 0x1 PUSH1 0x1 PUSH1 0xA0 SHL SUB AND PUSH4 0xA400326F DUP13 PUSH1 0x40 MLOAD DUP3 PUSH4 0xFFFFFFFF AND PUSH1 0xE0 SHL DUP2 MSTORE PUSH1 0x4 ADD DUP1 DUP3 PUSH1 0x1 PUSH1 0x1 PUSH1 0xA0 SHL SUB AND DUP2 MSTORE PUSH1 0x20 ADD SWAP2 POP POP PUSH1 0x20 PUSH1 0x40 MLOAD DUP1 DUP4 SUB DUP2 DUP7 DUP1 EXTCODESIZE ISZERO DUP1 ISZERO PUSH2 0x3DCF JUMPI PUSH1 0x0 DUP1 REVERT JUMPDEST POP GAS STATICCALL ISZERO DUP1 ISZERO PUSH2 0x3DE3 JUMPI RETURNDATASIZE PUSH1 0x0 DUP1 RETURNDATACOPY RETURNDATASIZE PUSH1 0x0 REVERT JUMPDEST POP POP POP POP PUSH1 0x40 MLOAD RETURNDATASIZE PUSH1 0x20 DUP2 LT ISZERO PUSH2 0x3DF9 JUMPI PUSH1 0x0 DUP1 REVERT JUMPDEST POP MLOAD ISZERO PUSH2 0x3E71 JUMPI PUSH1 0x40 DUP1 MLOAD PUSH4 0x6CE57689 PUSH1 0xE1 SHL DUP2 MSTORE CALLER PUSH1 0x4 DUP3 ADD MSTORE PUSH1 0x1 PUSH1 0x1 PUSH1 0xA0 SHL SUB DUP14 DUP2 AND PUSH1 0x24 DUP4 ADD MSTORE PUSH1 0x44 DUP3 ADD DUP9 SWAP1 MSTORE SWAP2 MLOAD SWAP2 DUP4 AND SWAP2 PUSH4 0xD9CAED12 SWAP2 PUSH1 0x64 DUP1 DUP3 ADD SWAP3 PUSH1 0x0 SWAP3 SWAP1 SWAP2 SWAP1 DUP3 SWAP1 SUB ADD DUP2 DUP4 DUP8 DUP1 EXTCODESIZE ISZERO DUP1 ISZERO PUSH2 0x3E58 JUMPI PUSH1 0x0 DUP1 REVERT JUMPDEST POP GAS CALL ISZERO DUP1 ISZERO PUSH2 0x3E6C JUMPI RETURNDATASIZE PUSH1 0x0 DUP1 RETURNDATACOPY RETURNDATASIZE PUSH1 0x0 REVERT JUMPDEST POP POP POP POP JUMPDEST POP PUSH2 0x3EAE JUMP JUMPDEST PUSH1 0x40 MLOAD PUSH3 0x461BCD PUSH1 0xE5 SHL DUP2 MSTORE PUSH1 0x4 ADD DUP1 DUP1 PUSH1 0x20 ADD DUP3 DUP2 SUB DUP3 MSTORE PUSH1 0x29 DUP2 MSTORE PUSH1 0x20 ADD DUP1 PUSH2 0x52D5 PUSH1 0x29 SWAP2 CODECOPY PUSH1 0x40 ADD SWAP2 POP POP PUSH1 0x40 MLOAD DUP1 SWAP2 SUB SWAP1 REVERT JUMPDEST PUSH1 0xCA SLOAD PUSH1 0x40 DUP1 MLOAD PUSH4 0x2770A7EB PUSH1 0xE2 SHL DUP2 MSTORE CALLER PUSH1 0x4 DUP3 ADD MSTORE PUSH1 0x24 DUP2 ADD DUP7 SWAP1 MSTORE SWAP1 MLOAD PUSH1 0x1 PUSH1 0x1 PUSH1 0xA0 SHL SUB SWAP1 SWAP3 AND SWAP2 PUSH4 0x9DC29FAC SWAP2 PUSH1 0x44 DUP1 DUP3 ADD SWAP3 PUSH1 0x0 SWAP3 SWAP1 SWAP2 SWAP1 DUP3 SWAP1 SUB ADD DUP2 DUP4 DUP8 DUP1 EXTCODESIZE ISZERO DUP1 ISZERO PUSH2 0x3F01 JUMPI PUSH1 0x0 DUP1 REVERT JUMPDEST POP GAS CALL ISZERO DUP1 ISZERO PUSH2 0x3F15 JUMPI RETURNDATASIZE PUSH1 0x0 DUP1 RETURNDATACOPY RETURNDATASIZE PUSH1 0x0 REVERT JUMPDEST POP POP PUSH1 0xCD SLOAD PUSH1 0xCA SLOAD PUSH2 0x3F38 SWAP4 POP PUSH1 0x1 PUSH1 0x1 PUSH1 0xA0 SHL SUB SWAP1 DUP2 AND SWAP3 POP CALLER SWAP2 AND DUP6 PUSH2 0x448C JUMP JUMPDEST PUSH1 0x40 DUP1 MLOAD DUP6 DUP2 MSTORE PUSH1 0x20 DUP2 ADD DUP8 SWAP1 MSTORE DUP1 DUP3 ADD DUP5 SWAP1 MSTORE SWAP1 MLOAD DUP5 SWAP2 CALLER SWAP2 PUSH32 0x7A7FA876A9A577092F57D3C1DEEDDC4025FB563AAB144154B355EDE4FB9F3DED SWAP2 DUP2 SWAP1 SUB PUSH1 0x60 ADD SWAP1 LOG3 POP POP POP POP POP POP POP POP POP POP JUMP JUMPDEST PUSH1 0x0 DUP3 PUSH2 0x3F97 JUMPI POP PUSH1 0x0 PUSH2 0x1DF3 JUMP JUMPDEST DUP3 DUP3 MUL DUP3 DUP5 DUP3 DUP2 PUSH2 0x3FA4 JUMPI INVALID JUMPDEST DIV EQ PUSH2 0x1DF0 JUMPI PUSH1 0x40 MLOAD PUSH3 0x461BCD PUSH1 0xE5 SHL DUP2 MSTORE PUSH1 0x4 ADD DUP1 DUP1 PUSH1 0x20 ADD DUP3 DUP2 SUB DUP3 MSTORE PUSH1 0x21 DUP2 MSTORE PUSH1 0x20 ADD DUP1 PUSH2 0x52FE PUSH1 0x21 SWAP2 CODECOPY PUSH1 0x40 ADD SWAP2 POP POP PUSH1 0x40 MLOAD DUP1 SWAP2 SUB SWAP1 REVERT JUMPDEST PUSH1 0x0 DUP1 DUP3 GT PUSH2 0x4037 JUMPI PUSH1 0x40 DUP1 MLOAD PUSH3 0x461BCD PUSH1 0xE5 SHL DUP2 MSTORE PUSH1 0x20 PUSH1 0x4 DUP3 ADD MSTORE PUSH1 0x1A PUSH1 0x24 DUP3 ADD MSTORE PUSH32 0x536166654D6174683A206469766973696F6E206279207A65726F000000000000 PUSH1 0x44 DUP3 ADD MSTORE SWAP1 MLOAD SWAP1 DUP2 SWAP1 SUB PUSH1 0x64 ADD SWAP1 REVERT JUMPDEST DUP2 DUP4 DUP2 PUSH2 0x4040 JUMPI INVALID JUMPDEST DIV SWAP4 SWAP3 POP POP POP JUMP JUMPDEST PUSH1 0x0 DUP3 DUP3 GT ISZERO PUSH2 0x409F JUMPI PUSH1 0x40 DUP1 MLOAD PUSH3 0x461BCD PUSH1 0xE5 SHL DUP2 MSTORE PUSH1 0x20 PUSH1 0x4 DUP3 ADD MSTORE PUSH1 0x1E PUSH1 0x24 DUP3 ADD MSTORE PUSH32 0x536166654D6174683A207375627472616374696F6E206F766572666C6F770000 PUSH1 0x44 DUP3 ADD MSTORE SWAP1 MLOAD SWAP1 DUP2 SWAP1 SUB PUSH1 0x64 ADD SWAP1 REVERT JUMPDEST POP SWAP1 SUB SWAP1 JUMP JUMPDEST PUSH1 0x40 DUP1 MLOAD PUSH1 0x1 PUSH1 0x1 PUSH1 0xA0 SHL SUB DUP5 AND PUSH1 0x24 DUP3 ADD MSTORE PUSH1 0x44 DUP1 DUP3 ADD DUP5 SWAP1 MSTORE DUP3 MLOAD DUP1 DUP4 SUB SWAP1 SWAP2 ADD DUP2 MSTORE PUSH1 0x64 SWAP1 SWAP2 ADD SWAP1 SWAP2 MSTORE PUSH1 0x20 DUP2 ADD DUP1 MLOAD PUSH1 0x1 PUSH1 0x1 PUSH1 0xE0 SHL SUB AND PUSH4 0xA9059CBB PUSH1 0xE0 SHL OR SWAP1 MSTORE PUSH2 0x40F7 SWAP1 DUP5 SWAP1 PUSH2 0x4562 JUMP JUMPDEST POP POP POP JUMP JUMPDEST PUSH1 0x0 DUP1 PUSH2 0x4107 PUSH2 0x509C JUMP JUMPDEST PUSH1 0x0 JUMPDEST PUSH1 0xD7 SLOAD DUP2 LT ISZERO PUSH2 0x425C JUMPI PUSH1 0xD7 DUP2 DUP2 SLOAD DUP2 LT PUSH2 0x4121 JUMPI INVALID JUMPDEST PUSH1 0x0 SWAP2 DUP3 MSTORE PUSH1 0x20 SWAP2 DUP3 SWAP1 KECCAK256 PUSH1 0x40 DUP1 MLOAD PUSH1 0xE0 DUP2 ADD DUP3 MSTORE PUSH1 0x3 SWAP1 SWAP4 MUL SWAP1 SWAP2 ADD DUP1 SLOAD PUSH1 0x1 PUSH1 0x1 PUSH1 0xA0 SHL SUB DUP1 DUP3 AND DUP1 DUP7 MSTORE PUSH1 0xFF PUSH1 0x1 PUSH1 0xA0 SHL SWAP4 DUP5 SWAP1 DIV DUP2 AND ISZERO ISZERO DUP8 DUP10 ADD MSTORE PUSH1 0x1 DUP6 ADD SLOAD DUP1 DUP5 AND DUP9 DUP9 ADD DUP2 SWAP1 MSTORE DUP6 DUP3 DIV DUP4 AND ISZERO ISZERO PUSH1 0x60 DUP11 ADD MSTORE PUSH1 0x1 PUSH1 0xA8 SHL SWAP1 SWAP2 DIV DUP3 AND PUSH1 0x80 DUP10 ADD MSTORE PUSH1 0x2 SWAP1 SWAP6 ADD SLOAD SWAP3 DUP4 AND PUSH1 0xA0 DUP9 ADD MSTORE SWAP3 SWAP1 SWAP2 DIV SWAP1 SWAP2 AND ISZERO ISZERO PUSH1 0xC0 DUP6 ADD MSTORE DUP3 MLOAD PUSH4 0xA400326F PUSH1 0xE0 SHL DUP2 MSTORE PUSH1 0x4 DUP2 ADD SWAP2 SWAP1 SWAP2 MSTORE SWAP2 MLOAD SWAP1 SWAP7 POP SWAP2 SWAP5 POP DUP6 SWAP3 PUSH4 0xA400326F SWAP3 PUSH1 0x24 DUP1 DUP5 ADD SWAP4 DUP3 SWAP1 SUB ADD DUP2 DUP7 DUP1 EXTCODESIZE ISZERO DUP1 ISZERO PUSH2 0x41E4 JUMPI PUSH1 0x0 DUP1 REVERT JUMPDEST POP GAS STATICCALL ISZERO DUP1 ISZERO PUSH2 0x41F8 JUMPI RETURNDATASIZE PUSH1 0x0 DUP1 RETURNDATACOPY RETURNDATASIZE PUSH1 0x0 REVERT JUMPDEST POP POP POP POP PUSH1 0x40 MLOAD RETURNDATASIZE PUSH1 0x20 DUP2 LT ISZERO PUSH2 0x420E JUMPI PUSH1 0x0 DUP1 REVERT JUMPDEST POP MLOAD DUP1 ISZERO PUSH2 0x421D JUMPI POP DUP2 PUSH1 0xC0 ADD MLOAD JUMPDEST ISZERO PUSH2 0x4254 JUMPI PUSH1 0x0 PUSH2 0x422D DUP5 PUSH2 0x4613 JUMP JUMPDEST SWAP1 POP PUSH1 0x0 PUSH2 0x423F DUP6 DUP6 PUSH1 0x0 ADD MLOAD PUSH2 0x493B JUMP JUMPDEST SWAP1 POP PUSH2 0x424F DUP2 PUSH2 0x2D9F DUP9 DUP6 PUSH2 0x328A JUMP JUMPDEST SWAP6 POP POP POP JUMPDEST PUSH1 0x1 ADD PUSH2 0x410A JUMP JUMPDEST POP POP POP SWAP1 JUMP JUMPDEST PUSH1 0x0 PUSH2 0x426D ADDRESS PUSH2 0x4B2A JUMP JUMPDEST ISZERO SWAP1 POP SWAP1 JUMP JUMPDEST PUSH1 0x0 SLOAD PUSH2 0x100 SWAP1 DIV PUSH1 0xFF AND DUP1 PUSH2 0x428C JUMPI POP PUSH2 0x428C PUSH2 0x4262 JUMP JUMPDEST DUP1 PUSH2 0x429A JUMPI POP PUSH1 0x0 SLOAD PUSH1 0xFF AND ISZERO JUMPDEST PUSH2 0x42D5 JUMPI PUSH1 0x40 MLOAD PUSH3 0x461BCD PUSH1 0xE5 SHL DUP2 MSTORE PUSH1 0x4 ADD DUP1 DUP1 PUSH1 0x20 ADD DUP3 DUP2 SUB DUP3 MSTORE PUSH1 0x2E DUP2 MSTORE PUSH1 0x20 ADD DUP1 PUSH2 0x5274 PUSH1 0x2E SWAP2 CODECOPY PUSH1 0x40 ADD SWAP2 POP POP PUSH1 0x40 MLOAD DUP1 SWAP2 SUB SWAP1 REVERT JUMPDEST PUSH1 0x0 SLOAD PUSH2 0x100 SWAP1 DIV PUSH1 0xFF AND ISZERO DUP1 ISZERO PUSH2 0x4300 JUMPI PUSH1 0x0 DUP1 SLOAD PUSH1 0xFF NOT PUSH2 0xFF00 NOT SWAP1 SWAP2 AND PUSH2 0x100 OR AND PUSH1 0x1 OR SWAP1 SSTORE JUMPDEST PUSH2 0x4308 PUSH2 0x4B30 JUMP JUMPDEST PUSH2 0x4310 PUSH2 0x4BD0 JUMP JUMPDEST DUP1 ISZERO PUSH2 0x4322 JUMPI PUSH1 0x0 DUP1 SLOAD PUSH2 0xFF00 NOT AND SWAP1 SSTORE JUMPDEST POP JUMP JUMPDEST PUSH1 0x0 SLOAD PUSH2 0x100 SWAP1 DIV PUSH1 0xFF AND DUP1 PUSH2 0x433E JUMPI POP PUSH2 0x433E PUSH2 0x4262 JUMP JUMPDEST DUP1 PUSH2 0x434C JUMPI POP PUSH1 0x0 SLOAD PUSH1 0xFF AND ISZERO JUMPDEST PUSH2 0x4387 JUMPI PUSH1 0x40 MLOAD PUSH3 0x461BCD PUSH1 0xE5 SHL DUP2 MSTORE PUSH1 0x4 ADD DUP1 DUP1 PUSH1 0x20 ADD DUP3 DUP2 SUB DUP3 MSTORE PUSH1 0x2E DUP2 MSTORE PUSH1 0x20 ADD DUP1 PUSH2 0x5274 PUSH1 0x2E SWAP2 CODECOPY PUSH1 0x40 ADD SWAP2 POP POP PUSH1 0x40 MLOAD DUP1 SWAP2 SUB SWAP1 REVERT JUMPDEST PUSH1 0x0 SLOAD PUSH2 0x100 SWAP1 DIV PUSH1 0xFF AND ISZERO DUP1 ISZERO PUSH2 0x43B2 JUMPI PUSH1 0x0 DUP1 SLOAD PUSH1 0xFF NOT PUSH2 0xFF00 NOT SWAP1 SWAP2 AND PUSH2 0x100 OR AND PUSH1 0x1 OR SWAP1 SSTORE JUMPDEST PUSH2 0x43BA PUSH2 0x4B30 JUMP JUMPDEST PUSH2 0x4310 PUSH2 0x4B30 JUMP JUMPDEST PUSH1 0x0 SLOAD PUSH2 0x100 SWAP1 DIV PUSH1 0xFF AND DUP1 PUSH2 0x43DB JUMPI POP PUSH2 0x43DB PUSH2 0x4262 JUMP JUMPDEST DUP1 PUSH2 0x43E9 JUMPI POP PUSH1 0x0 SLOAD PUSH1 0xFF AND ISZERO JUMPDEST PUSH2 0x4424 JUMPI PUSH1 0x40 MLOAD PUSH3 0x461BCD PUSH1 0xE5 SHL DUP2 MSTORE PUSH1 0x4 ADD DUP1 DUP1 PUSH1 0x20 ADD DUP3 DUP2 SUB DUP3 MSTORE PUSH1 0x2E DUP2 MSTORE PUSH1 0x20 ADD DUP1 PUSH2 0x5274 PUSH1 0x2E SWAP2 CODECOPY PUSH1 0x40 ADD SWAP2 POP POP PUSH1 0x40 MLOAD DUP1 SWAP2 SUB SWAP1 REVERT JUMPDEST PUSH1 0x0 SLOAD PUSH2 0x100 SWAP1 DIV PUSH1 0xFF AND ISZERO DUP1 ISZERO PUSH2 0x444F JUMPI PUSH1 0x0 DUP1 SLOAD PUSH1 0xFF NOT PUSH2 0xFF00 NOT SWAP1 SWAP2 AND PUSH2 0x100 OR AND PUSH1 0x1 OR SWAP1 SSTORE JUMPDEST PUSH2 0x4310 PUSH2 0x4CC9 JUMP JUMPDEST PUSH1 0x0 PUSH2 0x1DF3 DUP3 PUSH2 0x4D6F JUMP JUMPDEST PUSH1 0x0 PUSH2 0x1DF0 DUP4 PUSH1 0x1 PUSH1 0x1 PUSH1 0xA0 SHL SUB DUP5 AND PUSH2 0x4D73 JUMP JUMPDEST PUSH1 0x0 PUSH2 0x1DF0 DUP4 PUSH1 0x1 PUSH1 0x1 PUSH1 0xA0 SHL SUB DUP5 AND PUSH2 0x4DBD JUMP JUMPDEST PUSH1 0x40 DUP1 MLOAD PUSH1 0x1 PUSH1 0x1 PUSH1 0xA0 SHL SUB DUP1 DUP7 AND PUSH1 0x24 DUP4 ADD MSTORE DUP5 AND PUSH1 0x44 DUP3 ADD MSTORE PUSH1 0x64 DUP1 DUP3 ADD DUP5 SWAP1 MSTORE DUP3 MLOAD DUP1 DUP4 SUB SWAP1 SWAP2 ADD DUP2 MSTORE PUSH1 0x84 SWAP1 SWAP2 ADD SWAP1 SWAP2 MSTORE PUSH1 0x20 DUP2 ADD DUP1 MLOAD PUSH1 0x1 PUSH1 0x1 PUSH1 0xE0 SHL SUB AND PUSH4 0x23B872DD PUSH1 0xE0 SHL OR SWAP1 MSTORE PUSH2 0x2C7D SWAP1 DUP6 SWAP1 PUSH2 0x4562 JUMP JUMPDEST DUP2 SLOAD PUSH1 0x0 SWAP1 DUP3 LT PUSH2 0x4528 JUMPI PUSH1 0x40 MLOAD PUSH3 0x461BCD PUSH1 0xE5 SHL DUP2 MSTORE PUSH1 0x4 ADD DUP1 DUP1 PUSH1 0x20 ADD DUP3 DUP2 SUB DUP3 MSTORE PUSH1 0x22 DUP2 MSTORE PUSH1 0x20 ADD DUP1 PUSH2 0x50D9 PUSH1 0x22 SWAP2 CODECOPY PUSH1 0x40 ADD SWAP2 POP POP PUSH1 0x40 MLOAD DUP1 SWAP2 SUB SWAP1 REVERT JUMPDEST DUP3 PUSH1 0x0 ADD DUP3 DUP2 SLOAD DUP2 LT PUSH2 0x4537 JUMPI INVALID JUMPDEST SWAP1 PUSH1 0x0 MSTORE PUSH1 0x20 PUSH1 0x0 KECCAK256 ADD SLOAD SWAP1 POP SWAP3 SWAP2 POP POP JUMP JUMPDEST PUSH1 0x0 SWAP1 DUP2 MSTORE PUSH1 0x1 SWAP2 SWAP1 SWAP2 ADD PUSH1 0x20 MSTORE PUSH1 0x40 SWAP1 KECCAK256 SLOAD ISZERO ISZERO SWAP1 JUMP JUMPDEST PUSH1 0x60 PUSH2 0x45B7 DUP3 PUSH1 0x40 MLOAD DUP1 PUSH1 0x40 ADD PUSH1 0x40 MSTORE DUP1 PUSH1 0x20 DUP2 MSTORE PUSH1 0x20 ADD PUSH32 0x5361666545524332303A206C6F772D6C6576656C2063616C6C206661696C6564 DUP2 MSTORE POP DUP6 PUSH1 0x1 PUSH1 0x1 PUSH1 0xA0 SHL SUB AND PUSH2 0x4E83 SWAP1 SWAP3 SWAP2 SWAP1 PUSH4 0xFFFFFFFF AND JUMP JUMPDEST DUP1 MLOAD SWAP1 SWAP2 POP ISZERO PUSH2 0x40F7 JUMPI DUP1 DUP1 PUSH1 0x20 ADD SWAP1 MLOAD PUSH1 0x20 DUP2 LT ISZERO PUSH2 0x45D6 JUMPI PUSH1 0x0 DUP1 REVERT JUMPDEST POP MLOAD PUSH2 0x40F7 JUMPI PUSH1 0x40 MLOAD PUSH3 0x461BCD PUSH1 0xE5 SHL DUP2 MSTORE PUSH1 0x4 ADD DUP1 DUP1 PUSH1 0x20 ADD DUP3 DUP2 SUB DUP3 MSTORE PUSH1 0x2A DUP2 MSTORE PUSH1 0x20 ADD DUP1 PUSH2 0x5399 PUSH1 0x2A SWAP2 CODECOPY PUSH1 0x40 ADD SWAP2 POP POP PUSH1 0x40 MLOAD DUP1 SWAP2 SUB SWAP1 REVERT JUMPDEST PUSH1 0x0 DUP1 DUP3 PUSH1 0x1 PUSH1 0x1 PUSH1 0xA0 SHL SUB AND PUSH4 0x125F9E33 PUSH1 0x40 MLOAD DUP2 PUSH4 0xFFFFFFFF AND PUSH1 0xE0 SHL DUP2 MSTORE PUSH1 0x4 ADD PUSH1 0x20 PUSH1 0x40 MLOAD DUP1 DUP4 SUB DUP2 DUP7 DUP1 EXTCODESIZE ISZERO DUP1 ISZERO PUSH2 0x464F JUMPI PUSH1 0x0 DUP1 REVERT JUMPDEST POP GAS STATICCALL ISZERO DUP1 ISZERO PUSH2 0x4663 JUMPI RETURNDATASIZE PUSH1 0x0 DUP1 RETURNDATACOPY RETURNDATASIZE PUSH1 0x0 REVERT JUMPDEST POP POP POP POP PUSH1 0x40 MLOAD RETURNDATASIZE PUSH1 0x20 DUP2 LT ISZERO PUSH2 0x4679 JUMPI PUSH1 0x0 DUP1 REVERT JUMPDEST POP MLOAD SWAP1 POP PUSH1 0x1 PUSH1 0x1 PUSH1 0xA0 SHL SUB DUP2 AND ISZERO PUSH2 0x4935 JUMPI PUSH1 0x0 DUP4 PUSH1 0x1 PUSH1 0x1 PUSH1 0xA0 SHL SUB AND PUSH4 0x5653B414 PUSH1 0x40 MLOAD DUP2 PUSH4 0xFFFFFFFF AND PUSH1 0xE0 SHL DUP2 MSTORE PUSH1 0x4 ADD PUSH1 0x20 PUSH1 0x40 MLOAD DUP1 DUP4 SUB DUP2 DUP7 DUP1 EXTCODESIZE ISZERO DUP1 ISZERO PUSH2 0x46C7 JUMPI PUSH1 0x0 DUP1 REVERT JUMPDEST POP GAS STATICCALL ISZERO DUP1 ISZERO PUSH2 0x46DB JUMPI RETURNDATASIZE PUSH1 0x0 DUP1 RETURNDATACOPY RETURNDATASIZE PUSH1 0x0 REVERT JUMPDEST POP POP POP POP PUSH1 0x40 MLOAD RETURNDATASIZE PUSH1 0x20 DUP2 LT ISZERO PUSH2 0x46F1 JUMPI PUSH1 0x0 DUP1 REVERT JUMPDEST POP MLOAD PUSH1 0x40 DUP1 MLOAD PUSH4 0x70A08231 PUSH1 0xE0 SHL DUP2 MSTORE ADDRESS PUSH1 0x4 DUP3 ADD MSTORE SWAP1 MLOAD SWAP2 SWAP3 POP PUSH1 0x0 SWAP2 PUSH1 0x1 PUSH1 0x1 PUSH1 0xA0 SHL SUB DUP6 AND SWAP2 PUSH4 0x70A08231 SWAP2 PUSH1 0x24 DUP1 DUP4 ADD SWAP3 PUSH1 0x20 SWAP3 SWAP2 SWAP1 DUP3 SWAP1 SUB ADD DUP2 DUP7 DUP1 EXTCODESIZE ISZERO DUP1 ISZERO PUSH2 0x473F JUMPI PUSH1 0x0 DUP1 REVERT JUMPDEST POP GAS STATICCALL ISZERO DUP1 ISZERO PUSH2 0x4753 JUMPI RETURNDATASIZE PUSH1 0x0 DUP1 RETURNDATACOPY RETURNDATASIZE PUSH1 0x0 REVERT JUMPDEST POP POP POP POP PUSH1 0x40 MLOAD RETURNDATASIZE PUSH1 0x20 DUP2 LT ISZERO PUSH2 0x4769 JUMPI PUSH1 0x0 DUP1 REVERT JUMPDEST POP MLOAD SWAP1 POP DUP2 PUSH2 0x4932 JUMPI DUP5 PUSH1 0x1 PUSH1 0x1 PUSH1 0xA0 SHL SUB AND PUSH4 0x242241D PUSH1 0x40 MLOAD DUP2 PUSH4 0xFFFFFFFF AND PUSH1 0xE0 SHL DUP2 MSTORE PUSH1 0x4 ADD PUSH1 0x0 PUSH1 0x40 MLOAD DUP1 DUP4 SUB DUP2 PUSH1 0x0 DUP8 DUP1 EXTCODESIZE ISZERO DUP1 ISZERO PUSH2 0x47AD JUMPI PUSH1 0x0 DUP1 REVERT JUMPDEST POP GAS CALL ISZERO DUP1 ISZERO PUSH2 0x47C1 JUMPI RETURNDATASIZE PUSH1 0x0 DUP1 RETURNDATACOPY RETURNDATASIZE PUSH1 0x0 REVERT JUMPDEST POP POP POP POP PUSH1 0x0 DUP4 PUSH1 0x1 PUSH1 0x1 PUSH1 0xA0 SHL SUB AND PUSH4 0x70A08231 ADDRESS PUSH1 0x40 MLOAD DUP3 PUSH4 0xFFFFFFFF AND PUSH1 0xE0 SHL DUP2 MSTORE PUSH1 0x4 ADD DUP1 DUP3 PUSH1 0x1 PUSH1 0x1 PUSH1 0xA0 SHL SUB AND DUP2 MSTORE PUSH1 0x20 ADD SWAP2 POP POP PUSH1 0x20 PUSH1 0x40 MLOAD DUP1 DUP4 SUB DUP2 DUP7 DUP1 EXTCODESIZE ISZERO DUP1 ISZERO PUSH2 0x4814 JUMPI PUSH1 0x0 DUP1 REVERT JUMPDEST POP GAS STATICCALL ISZERO DUP1 ISZERO PUSH2 0x4828 JUMPI RETURNDATASIZE PUSH1 0x0 DUP1 RETURNDATACOPY RETURNDATASIZE PUSH1 0x0 REVERT JUMPDEST POP POP POP POP PUSH1 0x40 MLOAD RETURNDATASIZE PUSH1 0x20 DUP2 LT ISZERO PUSH2 0x483E JUMPI PUSH1 0x0 DUP1 REVERT JUMPDEST POP MLOAD PUSH1 0x40 DUP1 MLOAD PUSH4 0x35BB18E9 PUSH1 0xE2 SHL DUP2 MSTORE SWAP1 MLOAD SWAP2 SWAP3 POP PUSH1 0x1 PUSH1 0x1 PUSH1 0xA0 SHL SUB DUP9 AND SWAP2 PUSH4 0xD6EC63A4 SWAP2 PUSH1 0x4 DUP1 DUP3 ADD SWAP3 PUSH1 0x20 SWAP3 SWAP1 SWAP2 SWAP1 DUP3 SWAP1 SUB ADD DUP2 PUSH1 0x0 DUP8 DUP1 EXTCODESIZE ISZERO DUP1 ISZERO PUSH2 0x4886 JUMPI PUSH1 0x0 DUP1 REVERT JUMPDEST POP GAS CALL ISZERO DUP1 ISZERO PUSH2 0x489A JUMPI RETURNDATASIZE PUSH1 0x0 DUP1 RETURNDATACOPY RETURNDATASIZE PUSH1 0x0 REVERT JUMPDEST POP POP POP POP PUSH1 0x40 MLOAD RETURNDATASIZE PUSH1 0x20 DUP2 LT ISZERO PUSH2 0x48B0 JUMPI PUSH1 0x0 DUP1 REVERT JUMPDEST POP MLOAD PUSH1 0x40 DUP1 MLOAD PUSH4 0x4A5C8C6F PUSH1 0xE1 SHL DUP2 MSTORE PUSH1 0x4 DUP2 ADD DUP5 SWAP1 MSTORE SWAP1 MLOAD PUSH1 0x1 PUSH1 0x1 PUSH1 0xA0 SHL SUB SWAP1 SWAP3 AND SWAP2 PUSH4 0x94B918DE SWAP2 PUSH1 0x24 DUP1 DUP3 ADD SWAP3 PUSH1 0x20 SWAP3 SWAP1 SWAP2 SWAP1 DUP3 SWAP1 SUB ADD DUP2 PUSH1 0x0 DUP8 DUP1 EXTCODESIZE ISZERO DUP1 ISZERO PUSH2 0x48FD JUMPI PUSH1 0x0 DUP1 REVERT JUMPDEST POP GAS CALL ISZERO DUP1 ISZERO PUSH2 0x4911 JUMPI RETURNDATASIZE PUSH1 0x0 DUP1 RETURNDATACOPY RETURNDATASIZE PUSH1 0x0 REVERT JUMPDEST POP POP POP POP PUSH1 0x40 MLOAD RETURNDATASIZE PUSH1 0x20 DUP2 LT ISZERO PUSH2 0x4927 JUMPI PUSH1 0x0 DUP1 REVERT JUMPDEST POP MLOAD SWAP5 POP PUSH2 0x4932 SWAP1 POP JUMP JUMPDEST POP POP JUMPDEST POP SWAP2 SWAP1 POP JUMP JUMPDEST PUSH1 0x0 PUSH2 0x4945 PUSH2 0x509C JUMP JUMPDEST POP PUSH1 0x1 PUSH1 0x1 PUSH1 0xA0 SHL SUB DUP1 DUP4 AND PUSH1 0x0 DUP2 DUP2 MSTORE PUSH1 0xD5 PUSH1 0x20 SWAP1 DUP2 MSTORE PUSH1 0x40 DUP1 DUP4 KECCAK256 DUP2 MLOAD PUSH1 0xE0 DUP2 ADD DUP4 MSTORE DUP2 SLOAD DUP1 DUP9 AND DUP3 MSTORE PUSH1 0xFF PUSH1 0x1 PUSH1 0xA0 SHL SWAP2 DUP3 SWAP1 DIV DUP2 AND ISZERO ISZERO DUP4 DUP8 ADD MSTORE PUSH1 0x1 DUP5 ADD SLOAD DUP1 DUP11 AND DUP5 DUP8 ADD MSTORE DUP3 DUP2 DIV DUP3 AND ISZERO ISZERO PUSH1 0x60 DUP6 ADD MSTORE PUSH1 0x1 PUSH1 0xA8 SHL SWAP1 DIV DUP2 AND PUSH1 0x80 DUP5 ADD MSTORE PUSH1 0x2 SWAP1 SWAP4 ADD SLOAD DUP1 DUP10 AND PUSH1 0xA0 DUP5 ADD MSTORE DIV SWAP1 SWAP2 AND ISZERO ISZERO PUSH1 0xC0 DUP3 ADD MSTORE DUP2 MLOAD PUSH4 0x8D2C8727 PUSH1 0xE0 SHL DUP2 MSTORE PUSH1 0x4 DUP2 ADD SWAP6 SWAP1 SWAP6 MSTORE SWAP1 MLOAD SWAP1 SWAP5 SWAP3 SWAP4 SWAP3 DUP9 AND SWAP3 PUSH4 0x8D2C8727 SWAP3 PUSH1 0x24 DUP1 DUP4 ADD SWAP4 SWAP2 SWAP3 DUP3 SWAP1 SUB ADD DUP2 DUP7 DUP1 EXTCODESIZE ISZERO DUP1 ISZERO PUSH2 0x4A03 JUMPI PUSH1 0x0 DUP1 REVERT JUMPDEST POP GAS STATICCALL ISZERO DUP1 ISZERO PUSH2 0x4A17 JUMPI RETURNDATASIZE PUSH1 0x0 DUP1 RETURNDATACOPY RETURNDATASIZE PUSH1 0x0 REVERT JUMPDEST POP POP POP POP PUSH1 0x40 MLOAD RETURNDATASIZE PUSH1 0x20 DUP2 LT ISZERO PUSH2 0x4A2D JUMPI PUSH1 0x0 DUP1 REVERT JUMPDEST POP MLOAD SWAP1 POP DUP1 ISZERO PUSH2 0x4B22 JUMPI DUP2 MLOAD PUSH1 0x40 DUP1 MLOAD PUSH4 0x6CE57689 PUSH1 0xE1 SHL DUP2 MSTORE ADDRESS PUSH1 0x4 DUP3 ADD MSTORE PUSH1 0x1 PUSH1 0x1 PUSH1 0xA0 SHL SUB SWAP3 DUP4 AND PUSH1 0x24 DUP3 ADD MSTORE PUSH1 0x44 DUP2 ADD DUP5 SWAP1 MSTORE SWAP1 MLOAD SWAP2 DUP8 AND SWAP2 PUSH4 0xD9CAED12 SWAP2 PUSH1 0x64 DUP1 DUP3 ADD SWAP3 PUSH1 0x0 SWAP3 SWAP1 SWAP2 SWAP1 DUP3 SWAP1 SUB ADD DUP2 DUP4 DUP8 DUP1 EXTCODESIZE ISZERO DUP1 ISZERO PUSH2 0x4A91 JUMPI PUSH1 0x0 DUP1 REVERT JUMPDEST POP GAS CALL ISZERO DUP1 ISZERO PUSH2 0x4AA5 JUMPI RETURNDATASIZE PUSH1 0x0 DUP1 RETURNDATACOPY RETURNDATASIZE PUSH1 0x0 REVERT JUMPDEST POP POP POP POP DUP2 PUSH1 0xA0 ADD MLOAD PUSH1 0x1 PUSH1 0x1 PUSH1 0xA0 SHL SUB AND PUSH4 0x94B918DE DUP3 PUSH1 0x40 MLOAD DUP3 PUSH4 0xFFFFFFFF AND PUSH1 0xE0 SHL DUP2 MSTORE PUSH1 0x4 ADD DUP1 DUP3 DUP2 MSTORE PUSH1 0x20 ADD SWAP2 POP POP PUSH1 0x20 PUSH1 0x40 MLOAD DUP1 DUP4 SUB DUP2 PUSH1 0x0 DUP8 DUP1 EXTCODESIZE ISZERO DUP1 ISZERO PUSH2 0x4AF3 JUMPI PUSH1 0x0 DUP1 REVERT JUMPDEST POP GAS CALL ISZERO DUP1 ISZERO PUSH2 0x4B07 JUMPI RETURNDATASIZE PUSH1 0x0 DUP1 RETURNDATACOPY RETURNDATASIZE PUSH1 0x0 REVERT JUMPDEST POP POP POP POP PUSH1 0x40 MLOAD RETURNDATASIZE PUSH1 0x20 DUP2 LT ISZERO PUSH2 0x4B1D JUMPI PUSH1 0x0 DUP1 REVERT JUMPDEST POP MLOAD SWAP3 POP JUMPDEST POP POP SWAP3 SWAP2 POP POP JUMP JUMPDEST EXTCODESIZE ISZERO ISZERO SWAP1 JUMP JUMPDEST PUSH1 0x0 SLOAD PUSH2 0x100 SWAP1 DIV PUSH1 0xFF AND DUP1 PUSH2 0x4B49 JUMPI POP PUSH2 0x4B49 PUSH2 0x4262 JUMP JUMPDEST DUP1 PUSH2 0x4B57 JUMPI POP PUSH1 0x0 SLOAD PUSH1 0xFF AND ISZERO JUMPDEST PUSH2 0x4B92 JUMPI PUSH1 0x40 MLOAD PUSH3 0x461BCD PUSH1 0xE5 SHL DUP2 MSTORE PUSH1 0x4 ADD DUP1 DUP1 PUSH1 0x20 ADD DUP3 DUP2 SUB DUP3 MSTORE PUSH1 0x2E DUP2 MSTORE PUSH1 0x20 ADD DUP1 PUSH2 0x5274 PUSH1 0x2E SWAP2 CODECOPY PUSH1 0x40 ADD SWAP2 POP POP PUSH1 0x40 MLOAD DUP1 SWAP2 SUB SWAP1 REVERT JUMPDEST PUSH1 0x0 SLOAD PUSH2 0x100 SWAP1 DIV PUSH1 0xFF AND ISZERO DUP1 ISZERO PUSH2 0x4310 JUMPI PUSH1 0x0 DUP1 SLOAD PUSH1 0xFF NOT PUSH2 0xFF00 NOT SWAP1 SWAP2 AND PUSH2 0x100 OR AND PUSH1 0x1 OR SWAP1 SSTORE DUP1 ISZERO PUSH2 0x4322 JUMPI PUSH1 0x0 DUP1 SLOAD PUSH2 0xFF00 NOT AND SWAP1 SSTORE POP JUMP JUMPDEST PUSH1 0x0 SLOAD PUSH2 0x100 SWAP1 DIV PUSH1 0xFF AND DUP1 PUSH2 0x4BE9 JUMPI POP PUSH2 0x4BE9 PUSH2 0x4262 JUMP JUMPDEST DUP1 PUSH2 0x4BF7 JUMPI POP PUSH1 0x0 SLOAD PUSH1 0xFF AND ISZERO JUMPDEST PUSH2 0x4C32 JUMPI PUSH1 0x40 MLOAD PUSH3 0x461BCD PUSH1 0xE5 SHL DUP2 MSTORE PUSH1 0x4 ADD DUP1 DUP1 PUSH1 0x20 ADD DUP3 DUP2 SUB DUP3 MSTORE PUSH1 0x2E DUP2 MSTORE PUSH1 0x20 ADD DUP1 PUSH2 0x5274 PUSH1 0x2E SWAP2 CODECOPY PUSH1 0x40 ADD SWAP2 POP POP PUSH1 0x40 MLOAD DUP1 SWAP2 SUB SWAP1 REVERT JUMPDEST PUSH1 0x0 SLOAD PUSH2 0x100 SWAP1 DIV PUSH1 0xFF AND ISZERO DUP1 ISZERO PUSH2 0x4C5D JUMPI PUSH1 0x0 DUP1 SLOAD PUSH1 0xFF NOT PUSH2 0xFF00 NOT SWAP1 SWAP2 AND PUSH2 0x100 OR AND PUSH1 0x1 OR SWAP1 SSTORE JUMPDEST PUSH1 0x0 PUSH2 0x4C67 PUSH2 0x2F4B JUMP JUMPDEST PUSH1 0x33 DUP1 SLOAD PUSH1 0x1 PUSH1 0x1 PUSH1 0xA0 SHL SUB NOT AND PUSH1 0x1 PUSH1 0x1 PUSH1 0xA0 SHL SUB DUP4 AND SWAP1 DUP2 OR SWAP1 SWAP2 SSTORE PUSH1 0x40 MLOAD SWAP2 SWAP3 POP SWAP1 PUSH1 0x0 SWAP1 PUSH32 0x8BE0079C531659141344CD1FD0A4F28419497F9722A3DAAFE3B4186F6B6457E0 SWAP1 DUP3 SWAP1 LOG3 POP DUP1 ISZERO PUSH2 0x4322 JUMPI PUSH1 0x0 DUP1 SLOAD PUSH2 0xFF00 NOT AND SWAP1 SSTORE POP JUMP JUMPDEST PUSH1 0x0 SLOAD PUSH2 0x100 SWAP1 DIV PUSH1 0xFF AND DUP1 PUSH2 0x4CE2 JUMPI POP PUSH2 0x4CE2 PUSH2 0x4262 JUMP JUMPDEST DUP1 PUSH2 0x4CF0 JUMPI POP PUSH1 0x0 SLOAD PUSH1 0xFF AND ISZERO JUMPDEST PUSH2 0x4D2B JUMPI PUSH1 0x40 MLOAD PUSH3 0x461BCD PUSH1 0xE5 SHL DUP2 MSTORE PUSH1 0x4 ADD DUP1 DUP1 PUSH1 0x20 ADD DUP3 DUP2 SUB DUP3 MSTORE PUSH1 0x2E DUP2 MSTORE PUSH1 0x20 ADD DUP1 PUSH2 0x5274 PUSH1 0x2E SWAP2 CODECOPY PUSH1 0x40 ADD SWAP2 POP POP PUSH1 0x40 MLOAD DUP1 SWAP2 SUB SWAP1 REVERT JUMPDEST PUSH1 0x0 SLOAD PUSH2 0x100 SWAP1 DIV PUSH1 0xFF AND ISZERO DUP1 ISZERO PUSH2 0x4D56 JUMPI PUSH1 0x0 DUP1 SLOAD PUSH1 0xFF NOT PUSH2 0xFF00 NOT SWAP1 SWAP2 AND PUSH2 0x100 OR AND PUSH1 0x1 OR SWAP1 SSTORE JUMPDEST PUSH1 0x1 PUSH1 0x97 SSTORE DUP1 ISZERO PUSH2 0x4322 JUMPI PUSH1 0x0 DUP1 SLOAD PUSH2 0xFF00 NOT AND SWAP1 SSTORE POP JUMP JUMPDEST SLOAD SWAP1 JUMP JUMPDEST PUSH1 0x0 PUSH2 0x4D7F DUP4 DUP4 PUSH2 0x454A JUMP JUMPDEST PUSH2 0x4DB5 JUMPI POP DUP2 SLOAD PUSH1 0x1 DUP2 DUP2 ADD DUP5 SSTORE PUSH1 0x0 DUP5 DUP2 MSTORE PUSH1 0x20 DUP1 DUP3 KECCAK256 SWAP1 SWAP4 ADD DUP5 SWAP1 SSTORE DUP5 SLOAD DUP5 DUP3 MSTORE DUP3 DUP7 ADD SWAP1 SWAP4 MSTORE PUSH1 0x40 SWAP1 KECCAK256 SWAP2 SWAP1 SWAP2 SSTORE PUSH2 0x1DF3 JUMP JUMPDEST POP PUSH1 0x0 PUSH2 0x1DF3 JUMP JUMPDEST PUSH1 0x0 DUP2 DUP2 MSTORE PUSH1 0x1 DUP4 ADD PUSH1 0x20 MSTORE PUSH1 0x40 DUP2 KECCAK256 SLOAD DUP1 ISZERO PUSH2 0x4E79 JUMPI DUP4 SLOAD PUSH1 0x0 NOT DUP1 DUP4 ADD SWAP2 SWAP1 DUP2 ADD SWAP1 PUSH1 0x0 SWAP1 DUP8 SWAP1 DUP4 SWAP1 DUP2 LT PUSH2 0x4DF0 JUMPI INVALID JUMPDEST SWAP1 PUSH1 0x0 MSTORE PUSH1 0x20 PUSH1 0x0 KECCAK256 ADD SLOAD SWAP1 POP DUP1 DUP8 PUSH1 0x0 ADD DUP5 DUP2 SLOAD DUP2 LT PUSH2 0x4E0D JUMPI INVALID JUMPDEST PUSH1 0x0 SWAP2 DUP3 MSTORE PUSH1 0x20 DUP1 DUP4 KECCAK256 SWAP1 SWAP2 ADD SWAP3 SWAP1 SWAP3 SSTORE DUP3 DUP2 MSTORE PUSH1 0x1 DUP10 DUP2 ADD SWAP1 SWAP3 MSTORE PUSH1 0x40 SWAP1 KECCAK256 SWAP1 DUP5 ADD SWAP1 SSTORE DUP7 SLOAD DUP8 SWAP1 DUP1 PUSH2 0x4E3D JUMPI INVALID JUMPDEST PUSH1 0x1 SWAP1 SUB DUP2 DUP2 SWAP1 PUSH1 0x0 MSTORE PUSH1 0x20 PUSH1 0x0 KECCAK256 ADD PUSH1 0x0 SWAP1 SSTORE SWAP1 SSTORE DUP7 PUSH1 0x1 ADD PUSH1 0x0 DUP8 DUP2 MSTORE PUSH1 0x20 ADD SWAP1 DUP2 MSTORE PUSH1 0x20 ADD PUSH1 0x0 KECCAK256 PUSH1 0x0 SWAP1 SSTORE PUSH1 0x1 SWAP5 POP POP POP POP POP PUSH2 0x1DF3 JUMP JUMPDEST PUSH1 0x0 SWAP2 POP POP PUSH2 0x1DF3 JUMP JUMPDEST PUSH1 0x60 PUSH2 0x4E92 DUP5 DUP5 PUSH1 0x0 DUP6 PUSH2 0x4E9C JUMP JUMPDEST SWAP1 POP JUMPDEST SWAP4 SWAP3 POP POP POP JUMP JUMPDEST PUSH1 0x60 DUP3 SELFBALANCE LT ISZERO PUSH2 0x4EDD JUMPI PUSH1 0x40 MLOAD PUSH3 0x461BCD PUSH1 0xE5 SHL DUP2 MSTORE PUSH1 0x4 ADD DUP1 DUP1 PUSH1 0x20 ADD DUP3 DUP2 SUB DUP3 MSTORE PUSH1 0x26 DUP2 MSTORE PUSH1 0x20 ADD DUP1 PUSH2 0x51F1 PUSH1 0x26 SWAP2 CODECOPY PUSH1 0x40 ADD SWAP2 POP POP PUSH1 0x40 MLOAD DUP1 SWAP2 SUB SWAP1 REVERT JUMPDEST PUSH2 0x4EE6 DUP6 PUSH2 0x4B2A JUMP JUMPDEST PUSH2 0x4F37 JUMPI PUSH1 0x40 DUP1 MLOAD PUSH3 0x461BCD PUSH1 0xE5 SHL DUP2 MSTORE PUSH1 0x20 PUSH1 0x4 DUP3 ADD MSTORE PUSH1 0x1D PUSH1 0x24 DUP3 ADD MSTORE PUSH32 0x416464726573733A2063616C6C20746F206E6F6E2D636F6E7472616374000000 PUSH1 0x44 DUP3 ADD MSTORE SWAP1 MLOAD SWAP1 DUP2 SWAP1 SUB PUSH1 0x64 ADD SWAP1 REVERT JUMPDEST PUSH1 0x0 PUSH1 0x60 DUP7 PUSH1 0x1 PUSH1 0x1 PUSH1 0xA0 SHL SUB AND DUP6 DUP8 PUSH1 0x40 MLOAD DUP1 DUP3 DUP1 MLOAD SWAP1 PUSH1 0x20 ADD SWAP1 DUP1 DUP4 DUP4 JUMPDEST PUSH1 0x20 DUP4 LT PUSH2 0x4F76 JUMPI DUP1 MLOAD DUP3 MSTORE PUSH1 0x1F NOT SWAP1 SWAP3 ADD SWAP2 PUSH1 0x20 SWAP2 DUP3 ADD SWAP2 ADD PUSH2 0x4F57 JUMP JUMPDEST PUSH1 0x1 DUP4 PUSH1 0x20 SUB PUSH2 0x100 EXP SUB DUP1 NOT DUP3 MLOAD AND DUP2 DUP5 MLOAD AND DUP1 DUP3 OR DUP6 MSTORE POP POP POP POP POP POP SWAP1 POP ADD SWAP2 POP POP PUSH1 0x0 PUSH1 0x40 MLOAD DUP1 DUP4 SUB DUP2 DUP6 DUP8 GAS CALL SWAP3 POP POP POP RETURNDATASIZE DUP1 PUSH1 0x0 DUP2 EQ PUSH2 0x4FD8 JUMPI PUSH1 0x40 MLOAD SWAP2 POP PUSH1 0x1F NOT PUSH1 0x3F RETURNDATASIZE ADD AND DUP3 ADD PUSH1 0x40 MSTORE RETURNDATASIZE DUP3 MSTORE RETURNDATASIZE PUSH1 0x0 PUSH1 0x20 DUP5 ADD RETURNDATACOPY PUSH2 0x4FDD JUMP JUMPDEST PUSH1 0x60 SWAP2 POP JUMPDEST POP SWAP2 POP SWAP2 POP PUSH2 0x4FED DUP3 DUP3 DUP7 PUSH2 0x4FF8 JUMP JUMPDEST SWAP8 SWAP7 POP POP POP POP POP POP POP JUMP JUMPDEST PUSH1 0x60 DUP4 ISZERO PUSH2 0x5007 JUMPI POP DUP2 PUSH2 0x4E95 JUMP JUMPDEST DUP3 MLOAD ISZERO PUSH2 0x5017 JUMPI DUP3 MLOAD DUP1 DUP5 PUSH1 0x20 ADD REVERT JUMPDEST DUP2 PUSH1 0x40 MLOAD PUSH3 0x461BCD PUSH1 0xE5 SHL DUP2 MSTORE PUSH1 0x4 ADD DUP1 DUP1 PUSH1 0x20 ADD DUP3 DUP2 SUB DUP3 MSTORE DUP4 DUP2 DUP2 MLOAD DUP2 MSTORE PUSH1 0x20 ADD SWAP2 POP DUP1 MLOAD SWAP1 PUSH1 0x20 ADD SWAP1 DUP1 DUP4 DUP4 PUSH1 0x0 JUMPDEST DUP4 DUP2 LT ISZERO PUSH2 0x5061 JUMPI DUP2 DUP2 ADD MLOAD DUP4 DUP3 ADD MSTORE PUSH1 0x20 ADD PUSH2 0x5049 JUMP JUMPDEST POP POP POP POP SWAP1 POP SWAP1 DUP2 ADD SWAP1 PUSH1 0x1F AND DUP1 ISZERO PUSH2 0x508E JUMPI DUP1 DUP3 SUB DUP1 MLOAD PUSH1 0x1 DUP4 PUSH1 0x20 SUB PUSH2 0x100 EXP SUB NOT AND DUP2 MSTORE PUSH1 0x20 ADD SWAP2 POP JUMPDEST POP SWAP3 POP POP POP PUSH1 0x40 MLOAD DUP1 SWAP2 SUB SWAP1 REVERT JUMPDEST PUSH1 0x40 DUP1 MLOAD PUSH1 0xE0 DUP2 ADD DUP3 MSTORE PUSH1 0x0 DUP1 DUP3 MSTORE PUSH1 0x20 DUP3 ADD DUP2 SWAP1 MSTORE SWAP2 DUP2 ADD DUP3 SWAP1 MSTORE PUSH1 0x60 DUP2 ADD DUP3 SWAP1 MSTORE PUSH1 0x80 DUP2 ADD DUP3 SWAP1 MSTORE PUSH1 0xA0 DUP2 ADD DUP3 SWAP1 MSTORE PUSH1 0xC0 DUP2 ADD SWAP2 SWAP1 SWAP2 MSTORE SWAP1 JUMP INVALID GASLIMIT PUSH15 0x756D657261626C655365743A20696E PUSH5 0x6578206F75 PUSH21 0x206F6620626F756E6473416363657373436F6E7472 PUSH16 0x6C3A2073656E646572206D7573742062 PUSH6 0x20616E206164 PUSH14 0x696E20746F206772616E74526565 PUSH15 0x7472616E637947756172643A207265 PUSH6 0x6E7472616E74 KECCAK256 PUSH4 0x616C6C00 0x4F PUSH24 0x6E61626C653A206E6577206F776E65722069732074686520 PUSH27 0x65726F2061646472657373436F6C6C61746572616C20616D6F756E PUSH21 0x206973206C6F776572207468616E20746865206D61 PUSH25 0x696D756D20736C69707061676553504120616D6F756E742069 PUSH20 0x206D6F7265207468616E20746865206D6178696D PUSH22 0x6D20736C697070616765416D6F756E74206E65656473 KECCAK256 PUSH21 0x6F2062652067726561746572207468616E20304164 PUSH5 0x726573733A KECCAK256 PUSH10 0x6E73756666696369656E PUSH21 0x2062616C616E636520666F722063616C6C53504120 PUSH2 0x6D6F PUSH22 0x6E74206973206C6F776572207468616E20746865206D PUSH2 0x7869 PUSH14 0x756D20736C697070616765416363 PUSH6 0x7373436F6E74 PUSH19 0x6F6C3A2073656E646572206D75737420626520 PUSH2 0x6E20 PUSH2 0x646D PUSH10 0x6E20746F207265766F6B PUSH6 0x496E69746961 PUSH13 0x697A61626C653A20636F6E7472 PUSH2 0x6374 KECCAK256 PUSH10 0x7320616C726561647920 PUSH10 0x6E697469616C697A6564 NUMBER PUSH16 0x6C6C61746572616C20616D6F756E7420 PUSH10 0x73206D6F726520746861 PUSH15 0x20746865206D6178696D756D20736C PUSH10 0x70706167654E6F20656E PUSH16 0x75676820636F6C6C61746572616C2069 PUSH15 0x205661756C74206F72205374726174 PUSH6 0x677953616665 0x4D PUSH2 0x7468 GASPRICE KECCAK256 PUSH14 0x756C7469706C69636174696F6E20 PUSH16 0x766572666C6F774F776E61626C653A20 PUSH4 0x616C6C65 PUSH19 0x206973206E6F7420746865206F776E65725553 DIFFICULTY PUSH20 0x20616D6F756E74206973206C6F77657220746861 PUSH15 0x20746865206D6178696D756D20736C PUSH10 0x7070616765436F6C6C61 PUSH21 0x6572616C7320646563696D616C73206E6565642074 PUSH16 0x206265206C657373207468616E203138 MSTORE8 PUSH2 0x6665 GASLIMIT MSTORE NUMBER ORIGIN ADDRESS GASPRICE KECCAK256 GASLIMIT MSTORE NUMBER ORIGIN ADDRESS KECCAK256 PUSH16 0x7065726174696F6E20646964206E6F74 KECCAK256 PUSH20 0x756363656564416363657373436F6E74726F6C3A KECCAK256 PUSH4 0x616E206F PUSH15 0x6C792072656E6F756E636520726F6C PUSH6 0x7320666F7220 PUSH20 0x656C66A26469706673582212204DF21FD033A48E SWAP2 DUP15 0x2D 0xB9 0x23 0xA9 0xFC 0xEA 0x4D PUSH26 0xA3D87A0DA961CD4F6E13677E97CA2164736F6C634300060C0033 ",
  "sha1": "9a4af70fb0f74d6b2ecc2b30cee652c8b76a7141",
  "source": "// SPDX-License-Identifier: MIT\npragma solidity >=0.6.12;\nimport \"@openzeppelin/contracts-upgradeable/access/AccessControlUpgradeable.sol\";\nimport \"@openzeppelin/contracts-upgradeable/access/OwnableUpgradeable.sol\";\nimport \"@openzeppelin/contracts-upgradeable/token/ERC20/SafeERC20Upgradeable.sol\";\nimport \"@openzeppelin/contracts-upgradeable/token/ERC20/ERC20Upgradeable.sol\";\nimport \"@openzeppelin/contracts-upgradeable/utils/ReentrancyGuardUpgradeable.sol\";\nimport \"../interfaces/ISperaxToken.sol\";\nimport \"../interfaces/IStrategy.sol\";\nimport \"../interfaces/IVaultCore.sol\";\nimport \"../interfaces/IUSDs.sol\";\nimport \"../interfaces/IBuyback.sol\";\nimport \"./VaultCoreTools.sol\";\n\ncontract VaultCore is Initializable, OwnableUpgradeable, AccessControlUpgradeable, ReentrancyGuardUpgradeable, IVaultCore {\n\tusing SafeERC20Upgradeable for IERC20Upgradeable;\n\tusing SafeMathUpgradeable for uint;\n\tusing StableMath for uint;\n\n\tbytes32 public constant REBASER_ROLE = keccak256(\"REBASER_ROLE\");\n\n\tbool public override mintRedeemAllowed;\n\tbool public override allocationAllowed;\n\tbool public override rebaseAllowed;\n\tbool public override swapfeeInAllowed;\n\tbool public override swapfeeOutAllowed;\n\taddress public SPAaddr;\n\taddress public USDsAddr;\n\taddress public override oracleAddr;\n\taddress public SPAvault;\n\taddress public feeVault;\n\taddress public vaultCoreToolsAddr;\n\tuint public override startBlockHeight;\n\tuint public SPAminted;\n\tuint public SPAburnt;\n\tuint32 public override chi_alpha;\n\tuint64 public override constant chi_alpha_prec = 10**12;\n\tuint64 public override constant chi_prec = chi_alpha_prec;\n\tuint public override chiInit;\n\tuint32 public override chi_beta;\n\tuint16 public override constant chi_beta_prec = 10**4;\n\tuint32 public override chi_gamma;\n\tuint16 public override constant chi_gamma_prec = 10**4;\n\tuint64 public override constant swapFee_prec = 10**12;\n\tuint32 public override swapFee_p;\n\tuint16 public override constant swapFee_p_prec = 10**4;\n\tuint32 public override swapFee_theta;\n\tuint16 public override constant swapFee_theta_prec = 10**4;\n\tuint32 public override swapFee_a;\n\tuint16 public override constant swapFee_a_prec = 10**4;\n\tuint32 public override swapFee_A;\n\tuint16 public override constant swapFee_A_prec = 10**4;\n\tuint8 public override constant allocatePercentage_prec = 10**2;\n\n\tevent parametersUpdated(uint _chiInit, uint32 _chi_beta, uint32 _chi_gamma, uint32 _swapFee_p, uint32 _swapFee_theta, uint32 _swapFee_a, uint32 _swapFee_A);\n\tevent USDsMinted(address indexed wallet, uint indexed USDsAmt, uint collateralAmt, uint SPAsAmt, uint feeAmt);\n\tevent USDsRedeemed(address indexed wallet, uint indexed USDsAmt, uint collateralAmt, uint SPAsAmt, uint feeAmt);\n\tevent Rebase(uint indexed oldSupply, uint indexed newSupply);\n\tevent CollateralAdded(address indexed collateralAddr, bool addded, address defaultStrategyAddr, bool allocationAllowed, uint8 allocatePercentage, address buyBackAddr, bool rebaseAllowed);\n\tevent CollateralChanged(address indexed collateralAddr, bool addded, address defaultStrategyAddr, bool allocationAllowed, uint8 allocatePercentage, address buyBackAddr, bool rebaseAllowed);\n\tevent StrategyAdded(address strategyAddr, bool added);\n\tevent MintRedeemPermssionChanged(bool indexed permission);\n\tevent AllocationPermssionChanged(bool indexed permission);\n\tevent SwapFeeInOutPermissionChanged(bool indexed swapfeeInAllowed, bool indexed swapfeeOutAllowed);\n\tevent CollateralAllocated(address indexed collateralAddr, address indexed depositStrategyAddr, uint allocateAmount);\n\n\t/**\n\t * @dev check if USDs mint & redeem are both allowed\n\t */\n\tmodifier whenMintRedeemAllowed {\n\t\trequire(mintRedeemAllowed, \"Mint & redeem paused\");\n\t\t_;\n\t}\n\t/**\n\t * @dev check if re-investment of collaterals is allowed\n\t */\n\tmodifier whenAllocationAllowed {\n\t\trequire(allocationAllowed, \"Allocate paused\");\n\t\t_;\n\t}\n\t/**\n\t * @dev check if rebase is allowed\n\t */\n\tmodifier whenRebaseAllowed {\n\t\trequire(rebaseAllowed, \"Rebase paused\");\n\t\t_;\n\t}\n\n\tstruct collateralStruct {\n\t\taddress collateralAddr;\n\t\tbool added;\n\t\taddress defaultStrategyAddr;\n\t\tbool allocationAllowed;\n\t\tuint8 allocatePercentage;\n\t\taddress buyBackAddr;\n\t\tbool rebaseAllowed;\n\t}\n\tstruct strategyStruct {\n\t\taddress strategyAddr;\n\t\tbool added;\n\t}\n\tmapping(address => collateralStruct) public collateralsInfo;\n\tmapping(address => strategyStruct) public strategiesInfo;\n\tcollateralStruct[] allCollaterals;\t// the list of all added collaterals\n\tstrategyStruct[] allStrategies;\t// the list of all strategy addresses\n\n\tfunction initialize(address _SPAaddr, address _vaultCoreToolsAddr, address _feeVault) public initializer {\n\t\tOwnableUpgradeable.__Ownable_init();\n\t\tAccessControlUpgradeable.__AccessControl_init();\n\t\tReentrancyGuardUpgradeable.__ReentrancyGuard_init();\n\t\tmintRedeemAllowed = true;\n\t\tswapfeeInAllowed = false;\n\t\tswapfeeOutAllowed = false;\n\t\tallocationAllowed = false;\n\t\tSPAaddr = _SPAaddr;\n\t\tvaultCoreToolsAddr = _vaultCoreToolsAddr;\n\t\tSPAvault = address(this);\n\t\tstartBlockHeight = block.number;\n\t\tchi_alpha = uint32(chi_alpha_prec * 158 / 10**10);\n\t\tchiInit = uint(chi_prec * 95 / 100);\n\t\tchi_beta = chi_beta_prec * 9;\n\t\tchi_gamma = chi_gamma_prec;\n\t\tswapFee_p = swapFee_p_prec * 99 / 100;\n\t\tswapFee_theta = swapFee_theta_prec * 50;\n\t\tswapFee_a = swapFee_a_prec * 12 / 10;\n\t\tswapFee_A = swapFee_A_prec * 20;\n\t\tfeeVault = _feeVault;\n\t\t_setupRole(DEFAULT_ADMIN_ROLE, msg.sender);\n\t}\n\n\t//for testing purpose\n\tfunction updateUSDsAddress(address _USDsAddr) external onlyOwner {\n\t\tUSDsAddr = _USDsAddr;\n\t}\n\n\tfunction updateOracleAddress(address _oracleAddr) external onlyOwner {\n\t\toracleAddr =  _oracleAddr;\n\t}\n\n\tfunction updateParameters(uint _chiInit, uint32 _chi_beta, uint32 _chi_gamma, uint32 _swapFee_p, uint32 _swapFee_theta, uint32 _swapFee_a, uint32 _swapFee_A) external onlyOwner {\n\t\tchiInit = _chiInit;\n\t\tchi_beta = _chi_beta;\n\t\tchi_gamma = _chi_gamma;\n\t\tswapFee_p = _swapFee_p;\n\t\tswapFee_theta = _swapFee_theta;\n\t\tswapFee_a = _swapFee_a;\n\t\tswapFee_A = _swapFee_A;\n\t\temit parametersUpdated(chiInit, chi_beta, chi_gamma, swapFee_p, swapFee_theta, swapFee_a, swapFee_A);\n\t}\n\n\t/**\n\t * @dev disable USDs mint & redeem\n\t */\n\tfunction updateMintBurnPermission(bool _mintRedeemAllowed) external onlyOwner {\n\t\tmintRedeemAllowed = _mintRedeemAllowed;\n\t\temit MintRedeemPermssionChanged(mintRedeemAllowed);\n\t}\n\t/**\n\t * @dev disable collateral re-investment\n\t */\n\tfunction updateAllocationPermission(bool _allocationAllowed) external onlyOwner {\n\t\tallocationAllowed = _allocationAllowed;\n\t\temit AllocationPermssionChanged(allocationAllowed);\n\t}\n\t/**\n\t * @dev disable swapInFee, i.e. mint becomes free\n\t */\n\tfunction updateSwapInOutFeePermission(bool _swapfeeInAllowed, bool _swapfeeOutAllowed) external onlyOwner {\n\t\tswapfeeInAllowed = _swapfeeInAllowed;\n\t\tswapfeeOutAllowed = _swapfeeOutAllowed;\n\t\temit SwapFeeInOutPermissionChanged(swapfeeInAllowed, swapfeeOutAllowed);\n\t}\n\n\tfunction addCollateral(address _collateralAddr, address _defaultStrategyAddr, bool _allocationAllowed, uint8 _allocatePercentage, address _buyBackAddr, bool _rebaseAllowed) external onlyOwner {\n\t\trequire(!collateralsInfo[_collateralAddr].added, \"Collateral added\");\n\t\trequire(ERC20Upgradeable(_collateralAddr).decimals() <= 18, \"Collaterals decimals need to be less than 18\");\n\t\tcollateralStruct storage addingCollateral = collateralsInfo[_collateralAddr];\n\t\taddingCollateral.collateralAddr = _collateralAddr;\n\t\taddingCollateral.added = true;\n\t\taddingCollateral.defaultStrategyAddr = _defaultStrategyAddr;\n\t\taddingCollateral.allocationAllowed = _allocationAllowed;\n\t\taddingCollateral.allocatePercentage = _allocatePercentage;\n\t\taddingCollateral.buyBackAddr = _buyBackAddr;\n\t\taddingCollateral.rebaseAllowed = _rebaseAllowed;\n\t\tallCollaterals.push(addingCollateral);\n\t\temit CollateralAdded(_collateralAddr, addingCollateral.added, _defaultStrategyAddr, _allocationAllowed, _allocatePercentage, _buyBackAddr, _rebaseAllowed);\n\t}\n\n\tfunction updateCollateralInfo(address _collateralAddr, address _defaultStrategyAddr, bool _allocationAllowed, uint8 _allocatePercentage, address _buyBackAddr, bool _rebaseAllowed) external onlyOwner {\n\t\trequire(collateralsInfo[_collateralAddr].added, \"Collateral not added\");\n\t\tcollateralStruct storage updatedCollateral = collateralsInfo[_collateralAddr];\n\t\tupdatedCollateral.collateralAddr = _collateralAddr;\n\t\tupdatedCollateral.defaultStrategyAddr = _defaultStrategyAddr;\n\t\tupdatedCollateral.allocationAllowed = _allocationAllowed;\n\t\tupdatedCollateral.buyBackAddr = _buyBackAddr;\n\t\temit CollateralChanged(_collateralAddr, updatedCollateral.added, _defaultStrategyAddr, _allocationAllowed, _allocatePercentage, _buyBackAddr, _rebaseAllowed);\n\t}\n\n\tfunction addStrategy(address _strategyAddr) external onlyOwner {\n\t\trequire(!strategiesInfo[_strategyAddr].added, \"Strategy added\");\n\t\tstrategyStruct storage addingStrategy = strategiesInfo[_strategyAddr];\n\t\taddingStrategy.strategyAddr = _strategyAddr;\n\t\taddingStrategy.added = true;\n\t\tallStrategies.push(addingStrategy);\n\t\temit StrategyAdded(_strategyAddr, true);\n\t}\n\n\t/**\n\t * @dev mint USDs by entering USDs amount\n\t * @param collateralAddr the address of user's chosen collateral\n\t * @param USDsMintAmt the amount of USDs to be minted\n\t */\n\tfunction mintWithUSDs(address collateralAddr, uint USDsMintAmt, uint slippageCollateral, uint slippageSPA, uint deadline)\n\t\tpublic\n\t\twhenMintRedeemAllowed\n\t\tnonReentrant\n\t{\n\t\trequire(collateralsInfo[collateralAddr].added, \"Collateral not added\");\n\t\trequire(USDsMintAmt > 0, \"Amount needs to be greater than 0\");\n\t\t_mint(collateralAddr, USDsMintAmt, 0, USDsMintAmt, slippageCollateral, slippageSPA, deadline);\n\t}\n\n\t/**\n\t * @dev mint USDs by entering SPA amount\n\t * @param collateralAddr the address of user's chosen collateral\n\t * @param SPAamt the amount of SPA to burn\n\t */\n\n\tfunction mintWithSPA(address collateralAddr, uint SPAamt, uint slippageUSDs, uint slippageCollateral, uint deadline)\n\t\tpublic\n\t\twhenMintRedeemAllowed\n\t\tnonReentrant\n\t{\n\t\trequire(collateralsInfo[collateralAddr].added, \"Collateral not added\");\n\t\trequire(SPAamt > 0, \"Amount needs to be greater than 0\");\n\t\t_mint(collateralAddr, SPAamt, 1, slippageUSDs, slippageCollateral, SPAamt, deadline);\n\t}\n\n\t/**\n\t * @dev mint USDs by entering collateral amount (excluding ETH)\n\t * @param collateralAddr the address of user's chosen collateral\n\t * @param collateralAmt the amount of collateral to stake\n\t */\n\tfunction mintWithColla(address collateralAddr, uint collateralAmt, uint slippageUSDs, uint slippageSPA, uint deadline)\n\t\tpublic\n\t\twhenMintRedeemAllowed\n\t\tnonReentrant\n\t{\n\t\trequire(collateralsInfo[collateralAddr].added, \"Collateral not added\");\n\t\trequire(collateralAmt > 0, \"Amount needs to be greater than 0\");\n\t\t_mint(collateralAddr, collateralAmt, 2, slippageUSDs, collateralAmt, slippageSPA, deadline);\n\t}\n\n\t/**\n\t * @dev the generic, internal mint function\n\t * @param collateralAddr the address of the collateral\n\t * @param valueAmt the amount of tokens (the specific meaning depends on valueType)\n\t * @param valueType the type of tokens (specific meanings are listed lower)\n\t *\t\tvalueType = 0: mintWithUSDs\n\t *\t\tvalueType = 1: mintWithSPA\n\t *\t\tvalueType = 2: mintWithColla\n\t */\n\tfunction _mint(\n\t\taddress collateralAddr,\n\t\tuint valueAmt,\n\t\tuint8 valueType,\n\t\tuint slippageUSDs,\n\t\tuint slippageCollat,\n\t\tuint slippageSPA,\n\t\tuint deadline\n\t) internal whenMintRedeemAllowed {\n\t\t// calculate all necessary related quantities based on user inputs\n\t\t(uint SPABurnAmt, uint collateralDepAmt, uint USDsAmt, uint swapFeeAmount) = VaultCoreTools(vaultCoreToolsAddr).mintView(collateralAddr, valueAmt, valueType, address(this));\n\n\t\t// slippageUSDs is the minimum value of the minted USDs\n\t\t// slippageCollat is the maximum value of the required collateral\n\t\t// slippageSPA is the maximum value of the required spa\n\t\trequire(USDsAmt >= slippageUSDs, \"USDs amount is lower than the maximum slippage\");\n\t\trequire(collateralDepAmt <= slippageCollat, \"Collateral amount is more than the maximum slippage\");\n\t\trequire(SPABurnAmt <= slippageSPA, \"SPA amount is more than the maximum slippage\");\n\t\trequire(block.timestamp <= deadline, \"Deadline expired\");\n\n\t\t// burn SPA tokens\n\t\tISperaxToken(SPAaddr).burnFrom(msg.sender, SPABurnAmt);\n\t\tSPAburnt = SPAburnt.add(SPABurnAmt);\n\t\t// if it it not mintWithETH, stake collaterals\n\t\tIERC20Upgradeable(collateralAddr).safeTransferFrom(msg.sender, address(this), collateralDepAmt);\n\n\t\t// mint USDs and collect swapIn fees\n\t\tIUSDs(USDsAddr).mint(msg.sender, USDsAmt);\n\t\tIUSDs(USDsAddr).mint(feeVault, swapFeeAmount);\n\t\temit USDsMinted(msg.sender, USDsAmt, collateralDepAmt, SPABurnAmt, swapFeeAmount);\n\t}\n\n\t/**\n\t *\n\t */\n\tfunction redeem(address collateralAddr, uint USDsAmt, uint slippageCollat, uint slippageSPA, uint deadline)\n\t\tpublic\n\t\twhenMintRedeemAllowed\n\t\tnonReentrant\n\t{\n\t\trequire(collateralsInfo[collateralAddr].added, \"Collateral not added\");\n\t\trequire(USDsAmt > 0, \"Amount needs to be greater than 0\");\n\t\t_redeem(collateralAddr, USDsAmt, slippageCollat, slippageSPA, deadline);\n\t}\n\n\tfunction _redeem(\n\t\taddress collateralAddr,\n\t\tuint USDsAmt,\n\t\tuint slippageCollat,\n\t\tuint slippageSPA,\n\t\tuint deadline\n\t) internal whenMintRedeemAllowed {\n\t\t(uint SPAMintAmt, uint collateralUnlockedAmt, uint USDsBurntAmt, uint swapFeeAmount) = VaultCoreTools(vaultCoreToolsAddr).redeemView(collateralAddr, USDsAmt, address(this), oracleAddr);\n\t\t// slippageCollat is the minimum value of the unlocked collateral\n\t\t// slippageSPA is the minimum value of the minted spa\n\t\trequire(collateralUnlockedAmt >= slippageCollat, \"Collateral amount is lower than the maximum slippage\");\n\t\trequire(SPAMintAmt >= slippageSPA, \"SPA amount is lower than the maximum slippage\");\n\t\trequire(block.timestamp <= deadline, \"Deadline expired\");\n\t\tcollateralStruct memory collateral = collateralsInfo[collateralAddr];\n\n\t\tISperaxToken(SPAaddr).mintForUSDs(msg.sender, SPAMintAmt);\n\t\tSPAminted = SPAminted.add(SPAMintAmt);\n\n\t\tif (IERC20Upgradeable(collateralAddr).balanceOf(address(this)) >= collateralUnlockedAmt) {\n\t\t\tIERC20Upgradeable(collateralAddr).safeTransfer(msg.sender, collateralUnlockedAmt);\n\t\t} else if (collateral.defaultStrategyAddr != address(0)) {\n\t\t\tIStrategy strategy = IStrategy(collateral.defaultStrategyAddr);\n\t\t\tif (strategy.supportsCollateral(collateralAddr)) {\n\t\t\t\tstrategy.withdraw(msg.sender, collateralAddr, collateralUnlockedAmt);\n\t\t\t}\n\t\t} else {\n\t\t\trevert(\"No enough collateral in Vault or Strategy\");\n\t\t}\n\t\tIUSDs(USDsAddr).burn(msg.sender, USDsBurntAmt);\n\t\tIERC20Upgradeable(USDsAddr).safeTransferFrom(msg.sender, feeVault, swapFeeAmount);\n\n\t\temit USDsRedeemed(msg.sender, USDsBurntAmt, collateralUnlockedAmt, SPAMintAmt, swapFeeAmount);\n\t}\n\n\tfunction rebase() external whenRebaseAllowed nonReentrant {\n\t\trequire(hasRole(REBASER_ROLE, msg.sender), \"Caller is not a rebaser\");\n\t\tuint USDsIncrement = _harvest();\n\t\tuint USDsOldSupply = IERC20Upgradeable(USDsAddr).totalSupply();\n\t\tif (USDsIncrement > 0) {\n\t\t\tuint USDsNewSupply = IERC20Upgradeable(USDsAddr).totalSupply().add(USDsIncrement);\n\t\t\tIUSDs(USDsAddr).burn(address(this), USDsIncrement);\n\t\t\tIUSDs(USDsAddr).changeSupply(USDsNewSupply);\n\t\t\temit Rebase(USDsOldSupply, USDsNewSupply);\n\t\t} else {\n\t\t\temit Rebase(USDsOldSupply, USDsOldSupply);\n\t\t}\n\t}\n\n\tfunction _harvest() internal returns (uint USDsIncrement) {\n\t\tIStrategy strategy;\n\t\tcollateralStruct memory collateral;\n\t\tfor (uint y = 0; y < allCollaterals.length; y++) {\n\t\t\tcollateral = allCollaterals[y];\n\t\t\tstrategy = IStrategy(collateral.defaultStrategyAddr);\n\t\t\tif (strategy.supportsCollateral(collateral.collateralAddr) && collateral.rebaseAllowed) {\n\t\t\t\tuint USDsIncrement_viaReward = _harvestReward(strategy);\n\t\t\t\tuint USDsIncrement_viaInterest = _harvestInterest(strategy, collateral.collateralAddr);\n\t\t\t\tUSDsIncrement = USDsIncrement.add(USDsIncrement_viaReward).add(USDsIncrement_viaInterest);\n\t\t\t}\n\t\t}\n\t}\n\n\tfunction _harvestReward(IStrategy strategy) internal returns (uint USDsIncrement_viaReward) {\n\t\taddress rewardTokenAddress = strategy.rewardTokenAddress();\n        if (rewardTokenAddress != address(0)) {\n            uint liquidationThreshold = strategy.rewardLiquidationThreshold();\n\t\t\tuint rewardTokenAmount = IERC20Upgradeable(rewardTokenAddress).balanceOf(address(this));\n\t\t\tif (liquidationThreshold == 0) {\n\t\t\t\tstrategy.collectRewardToken();\n\t\t\t\tuint rewardAmt = IERC20Upgradeable(rewardTokenAddress).balanceOf(address(this));\n\t\t\t\tUSDsIncrement_viaReward = IBuyback(strategy.rewardTokenBuybackAddress()).swap(rewardAmt);\n\t\t\t} else if (rewardTokenAmount >= liquidationThreshold)\n            if (rewardTokenAmount >= liquidationThreshold) {\n\n            }\n\t\t}\n\t}\n\n\tfunction _harvestInterest(IStrategy strategy, address collateralAddr) internal returns (uint USDsIncrement_viaInterest) {\n\t\tcollateralStruct memory collateral = collateralsInfo[collateralAddr];\n\t\tuint interestEarned = strategy.checkInterestEarned(collateralAddr);\n\t\tif (interestEarned > 0) {\n\t\t\tstrategy.withdraw(address(this), collateral.collateralAddr, interestEarned);\n\t\t\tUSDsIncrement_viaInterest = IBuyback(collateral.buyBackAddr).swap(interestEarned);\n\t\t}\n\t}\n\n\t/**\n\t* @notice Allocate unallocated funds on Vault to strategies.\n\t* @dev Allocate unallocated funds on Vault to strategies.\n\t**/\n\tfunction allocate() external whenAllocationAllowed onlyOwner nonReentrant {\n\t\tIStrategy strategy;\n\t\tcollateralStruct memory collateral;\n\t\tfor (uint y = 0; y < allCollaterals.length; y++) {\n\t\t\tcollateral = allCollaterals[y];\n\t\t\tstrategy = IStrategy(collateral.defaultStrategyAddr);\n\t\t\tif (collateral.allocationAllowed && collateral.defaultStrategyAddr != address(0) && strategy.supportsCollateral(collateral.collateralAddr)) {\n\t\t\t\tuint valueInStrategy = _valueInStrategy(collateral.collateralAddr);\n\t\t\t\tuint valueInVault = _valueInVault(collateral.collateralAddr);\n\t\t\t\tuint valueInStrategy_optimal = valueInStrategy.add(valueInVault).mul(collateral.allocatePercentage).div(allocatePercentage_prec);\n\t\t\t\tif (valueInStrategy_optimal > valueInStrategy) {\n\t\t\t\t\tuint amtToAllocate = valueInStrategy_optimal.sub(valueInStrategy);\n\t\t\t\t\tIERC20Upgradeable(collateral.collateralAddr).safeTransfer(collateral.defaultStrategyAddr, amtToAllocate);\n\t\t\t\t\tstrategy.deposit(collateral.collateralAddr, amtToAllocate);\n\t\t\t\t\temit CollateralAllocated(collateral.collateralAddr, collateral.defaultStrategyAddr, amtToAllocate);\n\t\t\t\t}\n\t\t\t}\n\t\t}\n\t}\n\n\tfunction collateralRatio() public view override returns (uint ratio) {\n\t\tuint totalValueLocked = totalValueLocked();\n\t\tuint USDsSupply = IERC20Upgradeable(USDsAddr).totalSupply();\n\t\tuint priceUSDs = uint(IOracle(oracleAddr).getUSDsPrice());\n\t\tuint precisionUSDs = IOracle(oracleAddr).getUSDsPrice_prec();\n\t\tuint USDsValue = USDsSupply.mul(priceUSDs).div(precisionUSDs);\n\t\tratio = totalValueLocked.mul(chi_prec).div(USDsValue);\n\t}\n\n\tfunction totalValueLocked() public view returns (uint value) {\n\t\tvalue = totalValueInVault().add(totalValueInStrategies());\n\t}\n\n\tfunction totalValueInVault() public view returns (uint value) {\n\t\tfor (uint y = 0; y < allCollaterals.length; y++) {\n\t\t\tcollateralStruct memory collateral = allCollaterals[y];\n\t\t\tvalue = value.add(_valueInVault(collateral.collateralAddr));\n\t\t}\n\t}\n\n\tfunction _valueInVault(address _collateralAddr) internal view returns (uint value) {\n\t\tcollateralStruct memory collateral = collateralsInfo[_collateralAddr];\n\t\tuint priceColla = IOracle(oracleAddr).getCollateralPrice(collateral.collateralAddr);\n\t\tuint precisionColla = IOracle(oracleAddr).getCollateralPrice_prec(collateral.collateralAddr);\n\t\tuint collateralAddrDecimal = uint(ERC20Upgradeable(collateral.collateralAddr).decimals());\n\t\tuint collateralTotalValueInVault = IERC20Upgradeable(collateral.collateralAddr).balanceOf(address(this)).mul(priceColla).div(precisionColla);\n\t\tuint collateralTotalValueInVault_18 = collateralTotalValueInVault.mul(10**(uint(18).sub(collateralAddrDecimal)));\n\t\tvalue = collateralTotalValueInVault_18;\n\t}\n\n\tfunction totalValueInStrategies() public view returns (uint value) {\n\t\tfor (uint y = 0; y < allCollaterals.length; y++) {\n\t\t\tcollateralStruct memory collateral = allCollaterals[y];\n\t\t\tvalue = value.add(_valueInStrategy(collateral.collateralAddr));\n\t\t}\n\t}\n\n\tfunction _valueInStrategy(address _collateralAddr) internal view returns (uint value) {\n\t\tcollateralStruct memory collateral = collateralsInfo[_collateralAddr];\n\t\tIStrategy strategy = IStrategy(collateral.defaultStrategyAddr);\n\t\tuint priceColla = IOracle(oracleAddr).getCollateralPrice(collateral.collateralAddr);\n\t\tuint precisionColla = IOracle(oracleAddr).getCollateralPrice_prec(collateral.collateralAddr);\n\t\tuint collateralAddrDecimal = uint(ERC20Upgradeable(collateral.collateralAddr).decimals());\n\t\tuint collateralTotalValueInStrategy = strategy.checkBalance(collateral.collateralAddr).mul(priceColla).div(precisionColla);\n\t\tuint collateralTotalValueInStrategy_18 = collateralTotalValueInStrategy.mul(10**(uint(18).sub(collateralAddrDecimal)));\n\t\tvalue = collateralTotalValueInStrategy_18;\n\t\tif (!strategy.supportsCollateral(collateral.collateralAddr)) {\n\t\t\tvalue = 0;\n\t\t}\n\t}\n}\n",
  "sourcePath": "contracts/vault/VaultCore.sol",
  "type": "contract"
}