{
  "contractName": "VaultStorage",
  "abi": [
    {
      "inputs": [],
      "name": "SPATokenAddr",
      "outputs": [
        {
          "internalType": "address",
          "name": "",
          "type": "address"
        }
      ],
      "stateMutability": "view",
      "type": "function"
    },
    {
      "inputs": [],
      "name": "SPAValut",
      "outputs": [
        {
          "internalType": "address",
          "name": "",
          "type": "address"
        }
      ],
      "stateMutability": "view",
      "type": "function"
    },
    {
      "inputs": [],
      "name": "USDsFeeValut",
      "outputs": [
        {
          "internalType": "address",
          "name": "",
          "type": "address"
        }
      ],
      "stateMutability": "view",
      "type": "function"
    },
    {
      "inputs": [],
      "name": "USDsYieldValut",
      "outputs": [
        {
          "internalType": "address",
          "name": "",
          "type": "address"
        }
      ],
      "stateMutability": "view",
      "type": "function"
    },
    {
      "inputs": [],
      "name": "chiAlpha",
      "outputs": [
        {
          "internalType": "uint256",
          "name": "",
          "type": "uint256"
        }
      ],
      "stateMutability": "view",
      "type": "function"
    },
    {
      "inputs": [],
      "name": "chiAlpha_Presion",
      "outputs": [
        {
          "internalType": "uint256",
          "name": "",
          "type": "uint256"
        }
      ],
      "stateMutability": "view",
      "type": "function"
    },
    {
      "inputs": [],
      "name": "chiBeta",
      "outputs": [
        {
          "internalType": "uint256",
          "name": "",
          "type": "uint256"
        }
      ],
      "stateMutability": "view",
      "type": "function"
    },
    {
      "inputs": [],
      "name": "chiGamma",
      "outputs": [
        {
          "internalType": "uint256",
          "name": "",
          "type": "uint256"
        }
      ],
      "stateMutability": "view",
      "type": "function"
    },
    {
      "inputs": [],
      "name": "chiInit",
      "outputs": [
        {
          "internalType": "uint256",
          "name": "",
          "type": "uint256"
        }
      ],
      "stateMutability": "view",
      "type": "function"
    },
    {
      "inputs": [],
      "name": "chiPresion",
      "outputs": [
        {
          "internalType": "uint256",
          "name": "",
          "type": "uint256"
        }
      ],
      "stateMutability": "view",
      "type": "function"
    },
    {
      "inputs": [],
      "name": "collaValut",
      "outputs": [
        {
          "internalType": "address",
          "name": "",
          "type": "address"
        }
      ],
      "stateMutability": "view",
      "type": "function"
    },
    {
      "inputs": [],
      "name": "mintRedeemAllowed",
      "outputs": [
        {
          "internalType": "bool",
          "name": "",
          "type": "bool"
        }
      ],
      "stateMutability": "view",
      "type": "function"
    },
    {
      "inputs": [],
      "name": "oracleAddr",
      "outputs": [
        {
          "internalType": "address",
          "name": "",
          "type": "address"
        }
      ],
      "stateMutability": "view",
      "type": "function"
    },
    {
      "inputs": [],
      "name": "swapFeePresion",
      "outputs": [
        {
          "internalType": "uint256",
          "name": "",
          "type": "uint256"
        }
      ],
      "stateMutability": "view",
      "type": "function"
    },
    {
      "inputs": [],
      "name": "swapFeeTheta",
      "outputs": [
        {
          "internalType": "uint256",
          "name": "",
          "type": "uint256"
        }
      ],
      "stateMutability": "view",
      "type": "function"
    },
    {
      "inputs": [],
      "name": "swapFee_P",
      "outputs": [
        {
          "internalType": "uint256",
          "name": "",
          "type": "uint256"
        }
      ],
      "stateMutability": "view",
      "type": "function"
    },
    {
      "inputs": [],
      "name": "swapFee_PPresion",
      "outputs": [
        {
          "internalType": "uint256",
          "name": "",
          "type": "uint256"
        }
      ],
      "stateMutability": "view",
      "type": "function"
    },
    {
      "inputs": [],
      "name": "swapfeeInAllowed",
      "outputs": [
        {
          "internalType": "bool",
          "name": "",
          "type": "bool"
        }
      ],
      "stateMutability": "view",
      "type": "function"
    },
    {
      "inputs": [],
      "name": "swapfeeOutAllowed",
      "outputs": [
        {
          "internalType": "bool",
          "name": "",
          "type": "bool"
        }
      ],
      "stateMutability": "view",
      "type": "function"
    }
  ],
  "bytecode": "0x608060405234801561001057600080fd5b50610575806100206000396000f3fe608060405234801561001057600080fd5b50600436106101215760003560e01c806380e18135116100ad578063ceee77ed11610071578063ceee77ed14610328578063e66113371461035c578063f62f84301461037a578063faeddc90146103ae578063fff4bad1146103cc57610121565b806380e18135146102645780639145e08814610282578063a09caa18146102a0578063be002f6e146102c0578063cc31fccb146102f457610121565b806358ef165e116100f457806358ef165e146101b65780635b912051146101d4578063638372c1146101f25780637080460f146102105780637e4e61d71461023057610121565b806316e63e3014610126578063356c61ea1461015a5780634b5214991461017857806357635e9114610196575b600080fd5b61012e6103ea565b604051808273ffffffffffffffffffffffffffffffffffffffff16815260200191505060405180910390f35b610162610410565b6040518082815260200191505060405180910390f35b610180610416565b6040518082815260200191505060405180910390f35b61019e61041d565b60405180821515815260200191505060405180910390f35b6101be61042e565b6040518082815260200191505060405180910390f35b6101dc610435565b6040518082815260200191505060405180910390f35b6101fa61043a565b6040518082815260200191505060405180910390f35b610218610440565b60405180821515815260200191505060405180910390f35b610238610453565b604051808273ffffffffffffffffffffffffffffffffffffffff16815260200191505060405180910390f35b61026c610479565b6040518082815260200191505060405180910390f35b61028a61047f565b6040518082815260200191505060405180910390f35b6102a8610484565b60405180821515815260200191505060405180910390f35b6102c8610497565b604051808273ffffffffffffffffffffffffffffffffffffffff16815260200191505060405180910390f35b6102fc6104bd565b604051808273ffffffffffffffffffffffffffffffffffffffff16815260200191505060405180910390f35b6103306104e3565b604051808273ffffffffffffffffffffffffffffffffffffffff16815260200191505060405180910390f35b610364610509565b6040518082815260200191505060405180910390f35b61038261050e565b604051808273ffffffffffffffffffffffffffffffffffffffff16815260200191505060405180910390f35b6103b6610534565b6040518082815260200191505060405180910390f35b6103d461053a565b6040518082815260200191505060405180910390f35b600460009054906101000a900473ffffffffffffffffffffffffffffffffffffffff1681565b6103e381565b620f424081565b60008054906101000a900460ff1681565b620186a081565b600181565b61271081565b600060029054906101000a900460ff1681565b600560009054906101000a900473ffffffffffffffffffffffffffffffffffffffff1681565b6103e881565b600181565b600060019054906101000a900460ff1681565b600860009054906101000a900473ffffffffffffffffffffffffffffffffffffffff1681565b600960009054906101000a900473ffffffffffffffffffffffffffffffffffffffff1681565b600660009054906101000a900473ffffffffffffffffffffffffffffffffffffffff1681565b603281565b600760009054906101000a900473ffffffffffffffffffffffffffffffffffffffff1681565b600a5481565b60c88156fea26469706673582212202d1aebd21715eb3f282daa643c8624a2a73610f7eed7c9938e63722067dfddb364736f6c634300060c0033",
  "immutableReferences": {},
  "source": "pragma solidity ^0.6.12;\n\nimport { USDs } from \"../token/USDs.sol\";\nimport { BancorFormula } from \"../libraries/BancorFormula.sol\";\n\ncontract VaultStorage {\n\tbool public mintRedeemAllowed;\n\n\tbool public swapfeeInAllowed;\n\tbool public swapfeeOutAllowed;\n\n\tmapping(address => bool) supportedCollat;\n\taddress[] allCollat;\n\taddress[] allStrategies;\n\n\taddress public SPATokenAddr;\n\taddress public oracleAddr;\n\taddress public collaValut;\n\taddress public SPAValut;\n\taddress public USDsFeeValut;\n\taddress public USDsYieldValut;\n\n\tuint public chiInit;\n\tuint public constant chiPresion = 100000;\n\tuint public constant chiAlpha = 200;\n\tuint public constant chiAlpha_Presion = 10000;\n\tuint public constant chiBeta = 1;\n\tuint public constant chiGamma = 1;\n\n\tuint public constant swapFeePresion = 1000000;\n\tuint public constant swapFee_P = 995;\n\tuint public constant swapFee_PPresion = 1000;\n\tuint public constant swapFeeTheta = 50;\n\n\tUSDs USDsInstance;\n\tBancorFormula BancorInstance;\n\n}\n",
  "sourcePath": "/Volumes/Work/Sperax/USDs/contracts/vault/VaultStorage.sol",
  "compiler": {
    "name": "solc",
    "version": "0.6.12+commit.27d51765.Emscripten.clang"
  },
  "schemaVersion": "3.4.0",
  "updatedAt": "2021-07-20T14:26:55.124Z",
  "devdoc": {
    "kind": "dev",
    "methods": {},
    "version": 1
  },
  "userdoc": {
    "kind": "user",
    "methods": {},
    "version": 1
  }
}