{
  "contractName": "VaultCore",
  "abi": [
    {
      "anonymous": false,
      "inputs": [
        {
          "indexed": true,
          "internalType": "address",
          "name": "token",
          "type": "address"
        },
        {
          "indexed": true,
          "internalType": "bool",
          "name": "allowance",
          "type": "bool"
        }
      ],
      "name": "CollateralUpdated",
      "type": "event"
    },
    {
      "anonymous": false,
      "inputs": [
        {
          "indexed": true,
          "internalType": "address",
          "name": "previousOwner",
          "type": "address"
        },
        {
          "indexed": true,
          "internalType": "address",
          "name": "newOwner",
          "type": "address"
        }
      ],
      "name": "OwnershipTransferred",
      "type": "event"
    },
    {
      "anonymous": false,
      "inputs": [
        {
          "indexed": true,
          "internalType": "bool",
          "name": "allowance",
          "type": "bool"
        },
        {
          "indexed": false,
          "internalType": "uint256",
          "name": "time",
          "type": "uint256"
        }
      ],
      "name": "SwapFeeInAllowed",
      "type": "event"
    },
    {
      "anonymous": false,
      "inputs": [
        {
          "indexed": true,
          "internalType": "bool",
          "name": "allowance",
          "type": "bool"
        },
        {
          "indexed": false,
          "internalType": "uint256",
          "name": "time",
          "type": "uint256"
        }
      ],
      "name": "SwapFeeOutAllowed",
      "type": "event"
    },
    {
      "anonymous": false,
      "inputs": [
        {
          "indexed": true,
          "internalType": "uint256",
          "name": "oldSupply",
          "type": "uint256"
        },
        {
          "indexed": true,
          "internalType": "uint256",
          "name": "newSupply",
          "type": "uint256"
        }
      ],
      "name": "TotalSupplyChanged",
      "type": "event"
    },
    {
      "anonymous": false,
      "inputs": [
        {
          "indexed": true,
          "internalType": "address",
          "name": "wallet",
          "type": "address"
        },
        {
          "indexed": true,
          "internalType": "uint256",
          "name": "USDsAmt",
          "type": "uint256"
        },
        {
          "indexed": true,
          "internalType": "uint256",
          "name": "SPAsAmt",
          "type": "uint256"
        },
        {
          "indexed": false,
          "internalType": "uint256",
          "name": "feeAmt",
          "type": "uint256"
        }
      ],
      "name": "USDSMinted",
      "type": "event"
    },
    {
      "anonymous": false,
      "inputs": [
        {
          "indexed": true,
          "internalType": "address",
          "name": "wallet",
          "type": "address"
        },
        {
          "indexed": true,
          "internalType": "uint256",
          "name": "USDsAmt",
          "type": "uint256"
        },
        {
          "indexed": true,
          "internalType": "uint256",
          "name": "SPAsAmt",
          "type": "uint256"
        },
        {
          "indexed": false,
          "internalType": "uint256",
          "name": "feeAmt",
          "type": "uint256"
        }
      ],
      "name": "USDSRedeemed",
      "type": "event"
    },
    {
      "inputs": [],
      "name": "SPATokenAddr",
      "outputs": [
        {
          "internalType": "address",
          "name": "",
          "type": "address"
        }
      ],
      "stateMutability": "view",
      "type": "function"
    },
    {
      "inputs": [],
      "name": "SPAValut",
      "outputs": [
        {
          "internalType": "address",
          "name": "",
          "type": "address"
        }
      ],
      "stateMutability": "view",
      "type": "function"
    },
    {
      "inputs": [],
      "name": "USDsFeeValut",
      "outputs": [
        {
          "internalType": "address",
          "name": "",
          "type": "address"
        }
      ],
      "stateMutability": "view",
      "type": "function"
    },
    {
      "inputs": [],
      "name": "USDsYieldValut",
      "outputs": [
        {
          "internalType": "address",
          "name": "",
          "type": "address"
        }
      ],
      "stateMutability": "view",
      "type": "function"
    },
    {
      "inputs": [],
      "name": "chiInit",
      "outputs": [
        {
          "internalType": "uint256",
          "name": "",
          "type": "uint256"
        }
      ],
      "stateMutability": "view",
      "type": "function"
    },
    {
      "inputs": [],
      "name": "chiPrec",
      "outputs": [
        {
          "internalType": "uint256",
          "name": "",
          "type": "uint256"
        }
      ],
      "stateMutability": "view",
      "type": "function"
    },
    {
      "inputs": [],
      "name": "chi_alpha",
      "outputs": [
        {
          "internalType": "uint256",
          "name": "",
          "type": "uint256"
        }
      ],
      "stateMutability": "view",
      "type": "function"
    },
    {
      "inputs": [],
      "name": "chi_alpha_Prec",
      "outputs": [
        {
          "internalType": "uint256",
          "name": "",
          "type": "uint256"
        }
      ],
      "stateMutability": "view",
      "type": "function"
    },
    {
      "inputs": [],
      "name": "chi_beta",
      "outputs": [
        {
          "internalType": "uint256",
          "name": "",
          "type": "uint256"
        }
      ],
      "stateMutability": "view",
      "type": "function"
    },
    {
      "inputs": [],
      "name": "chi_beta_Prec",
      "outputs": [
        {
          "internalType": "uint256",
          "name": "",
          "type": "uint256"
        }
      ],
      "stateMutability": "view",
      "type": "function"
    },
    {
      "inputs": [],
      "name": "chi_gamma",
      "outputs": [
        {
          "internalType": "uint256",
          "name": "",
          "type": "uint256"
        }
      ],
      "stateMutability": "view",
      "type": "function"
    },
    {
      "inputs": [],
      "name": "chi_gamma_Prec",
      "outputs": [
        {
          "internalType": "uint256",
          "name": "",
          "type": "uint256"
        }
      ],
      "stateMutability": "view",
      "type": "function"
    },
    {
      "inputs": [],
      "name": "collaValut",
      "outputs": [
        {
          "internalType": "address",
          "name": "",
          "type": "address"
        }
      ],
      "stateMutability": "view",
      "type": "function"
    },
    {
      "inputs": [],
      "name": "mintRedeemAllowed",
      "outputs": [
        {
          "internalType": "bool",
          "name": "",
          "type": "bool"
        }
      ],
      "stateMutability": "view",
      "type": "function"
    },
    {
      "inputs": [],
      "name": "oracleAddr",
      "outputs": [
        {
          "internalType": "address",
          "name": "",
          "type": "address"
        }
      ],
      "stateMutability": "view",
      "type": "function"
    },
    {
      "inputs": [],
      "name": "owner",
      "outputs": [
        {
          "internalType": "address",
          "name": "",
          "type": "address"
        }
      ],
      "stateMutability": "view",
      "type": "function"
    },
    {
      "inputs": [],
      "name": "renounceOwnership",
      "outputs": [],
      "stateMutability": "nonpayable",
      "type": "function"
    },
    {
      "inputs": [],
      "name": "startBlockHeight",
      "outputs": [
        {
          "internalType": "uint256",
          "name": "",
          "type": "uint256"
        }
      ],
      "stateMutability": "view",
      "type": "function"
    },
    {
      "inputs": [],
      "name": "swapFeePresion",
      "outputs": [
        {
          "internalType": "uint256",
          "name": "",
          "type": "uint256"
        }
      ],
      "stateMutability": "view",
      "type": "function"
    },
    {
      "inputs": [],
      "name": "swapFee_A",
      "outputs": [
        {
          "internalType": "uint256",
          "name": "",
          "type": "uint256"
        }
      ],
      "stateMutability": "view",
      "type": "function"
    },
    {
      "inputs": [],
      "name": "swapFee_A_Prec",
      "outputs": [
        {
          "internalType": "uint256",
          "name": "",
          "type": "uint256"
        }
      ],
      "stateMutability": "view",
      "type": "function"
    },
    {
      "inputs": [],
      "name": "swapFee_a",
      "outputs": [
        {
          "internalType": "uint32",
          "name": "",
          "type": "uint32"
        }
      ],
      "stateMutability": "view",
      "type": "function"
    },
    {
      "inputs": [],
      "name": "swapFee_a_Prec",
      "outputs": [
        {
          "internalType": "uint32",
          "name": "",
          "type": "uint32"
        }
      ],
      "stateMutability": "view",
      "type": "function"
    },
    {
      "inputs": [],
      "name": "swapFee_p",
      "outputs": [
        {
          "internalType": "uint256",
          "name": "",
          "type": "uint256"
        }
      ],
      "stateMutability": "view",
      "type": "function"
    },
    {
      "inputs": [],
      "name": "swapFee_p_Prec",
      "outputs": [
        {
          "internalType": "uint256",
          "name": "",
          "type": "uint256"
        }
      ],
      "stateMutability": "view",
      "type": "function"
    },
    {
      "inputs": [],
      "name": "swapFee_theta",
      "outputs": [
        {
          "internalType": "uint256",
          "name": "",
          "type": "uint256"
        }
      ],
      "stateMutability": "view",
      "type": "function"
    },
    {
      "inputs": [],
      "name": "swapFee_theta_Prec",
      "outputs": [
        {
          "internalType": "uint256",
          "name": "",
          "type": "uint256"
        }
      ],
      "stateMutability": "view",
      "type": "function"
    },
    {
      "inputs": [],
      "name": "swapfeeInAllowed",
      "outputs": [
        {
          "internalType": "bool",
          "name": "",
          "type": "bool"
        }
      ],
      "stateMutability": "view",
      "type": "function"
    },
    {
      "inputs": [],
      "name": "swapfeeOutAllowed",
      "outputs": [
        {
          "internalType": "bool",
          "name": "",
          "type": "bool"
        }
      ],
      "stateMutability": "view",
      "type": "function"
    },
    {
      "inputs": [
        {
          "internalType": "address",
          "name": "newOwner",
          "type": "address"
        }
      ],
      "name": "transferOwnership",
      "outputs": [],
      "stateMutability": "nonpayable",
      "type": "function"
    },
    {
      "inputs": [
        {
          "internalType": "address",
          "name": "USDsToken_",
          "type": "address"
        },
        {
          "internalType": "address",
          "name": "oracleAddr_",
          "type": "address"
        },
        {
          "internalType": "address",
          "name": "BancorFormulaAddr_",
          "type": "address"
        }
      ],
      "name": "initialize",
      "outputs": [],
      "stateMutability": "nonpayable",
      "type": "function"
    },
    {
      "inputs": [],
      "name": "calculateSwapFeeIn",
      "outputs": [
        {
          "internalType": "uint256",
          "name": "",
          "type": "uint256"
        }
      ],
      "stateMutability": "nonpayable",
      "type": "function"
    },
    {
      "inputs": [],
      "name": "calculateSwapFeeOut",
      "outputs": [
        {
          "internalType": "uint256",
          "name": "",
          "type": "uint256"
        }
      ],
      "stateMutability": "view",
      "type": "function"
    },
    {
      "inputs": [
        {
          "internalType": "uint256",
          "name": "chiInit_",
          "type": "uint256"
        },
        {
          "internalType": "uint256",
          "name": "blockPassed",
          "type": "uint256"
        },
        {
          "internalType": "uint256",
          "name": "priceUSDs",
          "type": "uint256"
        },
        {
          "internalType": "uint256",
          "name": "precisionUSDs",
          "type": "uint256"
        }
      ],
      "name": "chiTarget",
      "outputs": [
        {
          "internalType": "uint256",
          "name": "chiTarget_",
          "type": "uint256"
        }
      ],
      "stateMutability": "view",
      "type": "function"
    },
    {
      "inputs": [],
      "name": "chiMint",
      "outputs": [
        {
          "internalType": "uint256",
          "name": "",
          "type": "uint256"
        }
      ],
      "stateMutability": "nonpayable",
      "type": "function"
    },
    {
      "inputs": [],
      "name": "chiRedeem",
      "outputs": [
        {
          "internalType": "uint256",
          "name": "chiRedeem_",
          "type": "uint256"
        }
      ],
      "stateMutability": "nonpayable",
      "type": "function"
    },
    {
      "inputs": [
        {
          "internalType": "address",
          "name": "collaAddr",
          "type": "address"
        },
        {
          "internalType": "uint256",
          "name": "USDsMintAmt",
          "type": "uint256"
        }
      ],
      "name": "mintWithUSDs",
      "outputs": [],
      "stateMutability": "nonpayable",
      "type": "function"
    },
    {
      "inputs": [
        {
          "internalType": "address",
          "name": "collaAddr",
          "type": "address"
        },
        {
          "internalType": "uint256",
          "name": "SPAAmt",
          "type": "uint256"
        }
      ],
      "name": "mintWithSPA",
      "outputs": [],
      "stateMutability": "nonpayable",
      "type": "function"
    },
    {
      "inputs": [
        {
          "internalType": "address",
          "name": "collaAddr",
          "type": "address"
        },
        {
          "internalType": "uint256",
          "name": "CollaAmt",
          "type": "uint256"
        }
      ],
      "name": "mintWithColla",
      "outputs": [],
      "stateMutability": "nonpayable",
      "type": "function"
    },
    {
      "inputs": [],
      "name": "mintWithEth",
      "outputs": [],
      "stateMutability": "payable",
      "type": "function"
    },
    {
      "inputs": [
        {
          "internalType": "address",
          "name": "collaAddr",
          "type": "address"
        },
        {
          "internalType": "uint256",
          "name": "USDsMintAmt",
          "type": "uint256"
        }
      ],
      "name": "mintWithUSDsView",
      "outputs": [
        {
          "internalType": "uint256",
          "name": "SPABurnAmt",
          "type": "uint256"
        },
        {
          "internalType": "uint256",
          "name": "CollaDepAmt",
          "type": "uint256"
        },
        {
          "internalType": "uint256",
          "name": "USDsAmt",
          "type": "uint256"
        },
        {
          "internalType": "uint256",
          "name": "swapFeeAmount",
          "type": "uint256"
        }
      ],
      "stateMutability": "nonpayable",
      "type": "function"
    },
    {
      "inputs": [
        {
          "internalType": "address",
          "name": "collaAddr",
          "type": "address"
        },
        {
          "internalType": "uint256",
          "name": "SPAAmt",
          "type": "uint256"
        }
      ],
      "name": "mintWithSPAView",
      "outputs": [
        {
          "internalType": "uint256",
          "name": "SPABurnAmt",
          "type": "uint256"
        },
        {
          "internalType": "uint256",
          "name": "CollaDepAmt",
          "type": "uint256"
        },
        {
          "internalType": "uint256",
          "name": "USDsAmt",
          "type": "uint256"
        },
        {
          "internalType": "uint256",
          "name": "swapFeeAmount",
          "type": "uint256"
        }
      ],
      "stateMutability": "nonpayable",
      "type": "function"
    },
    {
      "inputs": [
        {
          "internalType": "address",
          "name": "collaAddr",
          "type": "address"
        },
        {
          "internalType": "uint256",
          "name": "CollaAmt",
          "type": "uint256"
        }
      ],
      "name": "mintWithCollaView",
      "outputs": [
        {
          "internalType": "uint256",
          "name": "SPABurnAmt",
          "type": "uint256"
        },
        {
          "internalType": "uint256",
          "name": "CollaDepAmt",
          "type": "uint256"
        },
        {
          "internalType": "uint256",
          "name": "USDsAmt",
          "type": "uint256"
        },
        {
          "internalType": "uint256",
          "name": "swapFeeAmount",
          "type": "uint256"
        }
      ],
      "stateMutability": "nonpayable",
      "type": "function"
    },
    {
      "inputs": [
        {
          "internalType": "uint256",
          "name": "CollaAmt",
          "type": "uint256"
        }
      ],
      "name": "mintWithEthView",
      "outputs": [
        {
          "internalType": "uint256",
          "name": "SPABurnAmt",
          "type": "uint256"
        },
        {
          "internalType": "uint256",
          "name": "CollaDepAmt",
          "type": "uint256"
        },
        {
          "internalType": "uint256",
          "name": "USDsAmt",
          "type": "uint256"
        },
        {
          "internalType": "uint256",
          "name": "swapFeeAmount",
          "type": "uint256"
        }
      ],
      "stateMutability": "nonpayable",
      "type": "function"
    },
    {
      "inputs": [
        {
          "internalType": "address",
          "name": "collaAddr",
          "type": "address"
        },
        {
          "internalType": "uint256",
          "name": "valueAmt",
          "type": "uint256"
        },
        {
          "internalType": "uint8",
          "name": "valueType",
          "type": "uint8"
        }
      ],
      "name": "mintView",
      "outputs": [
        {
          "internalType": "uint256",
          "name": "SPABurnAmt",
          "type": "uint256"
        },
        {
          "internalType": "uint256",
          "name": "CollaDepAmt",
          "type": "uint256"
        },
        {
          "internalType": "uint256",
          "name": "USDsAmt",
          "type": "uint256"
        },
        {
          "internalType": "uint256",
          "name": "swapFeeAmount",
          "type": "uint256"
        }
      ],
      "stateMutability": "nonpayable",
      "type": "function"
    },
    {
      "inputs": [
        {
          "internalType": "address",
          "name": "collaAddr",
          "type": "address"
        },
        {
          "internalType": "uint256",
          "name": "USDsAmt",
          "type": "uint256"
        }
      ],
      "name": "redeem",
      "outputs": [],
      "stateMutability": "nonpayable",
      "type": "function"
    },
    {
      "inputs": [
        {
          "internalType": "address",
          "name": "collaAddr",
          "type": "address"
        },
        {
          "internalType": "uint256",
          "name": "USDsAmt",
          "type": "uint256"
        }
      ],
      "name": "redeemView",
      "outputs": [
        {
          "internalType": "uint256",
          "name": "SPAMintAmt",
          "type": "uint256"
        },
        {
          "internalType": "uint256",
          "name": "CollaUnlockAmtCorrect",
          "type": "uint256"
        },
        {
          "internalType": "uint256",
          "name": "USDsBurntAmt",
          "type": "uint256"
        },
        {
          "internalType": "uint256",
          "name": "swapFeeAmount",
          "type": "uint256"
        }
      ],
      "stateMutability": "nonpayable",
      "type": "function"
    },
    {
      "inputs": [],
      "name": "rebase",
      "outputs": [],
      "stateMutability": "nonpayable",
      "type": "function"
    },
    {
      "inputs": [],
      "name": "collateralRatio",
      "outputs": [
        {
          "internalType": "uint256",
          "name": "ratio",
          "type": "uint256"
        }
      ],
      "stateMutability": "view",
      "type": "function"
    },
    {
      "inputs": [],
      "name": "totalValue",
      "outputs": [
        {
          "internalType": "uint256",
          "name": "value",
          "type": "uint256"
        }
      ],
      "stateMutability": "view",
      "type": "function"
    },
    {
      "inputs": [
        {
          "internalType": "address",
          "name": "_asset",
          "type": "address"
        }
      ],
      "name": "checkBalance",
      "outputs": [
        {
          "internalType": "uint256",
          "name": "",
          "type": "uint256"
        }
      ],
      "stateMutability": "view",
      "type": "function"
    },
    {
      "inputs": [
        {
          "internalType": "bool",
          "name": "newAllowance",
          "type": "bool"
        }
      ],
      "name": "toggleSwapfeeInAllowed",
      "outputs": [],
      "stateMutability": "nonpayable",
      "type": "function"
    },
    {
      "inputs": [
        {
          "internalType": "bool",
          "name": "newAllowance",
          "type": "bool"
        }
      ],
      "name": "toggleSwapfeeOutAllowed",
      "outputs": [],
      "stateMutability": "nonpayable",
      "type": "function"
    },
    {
      "inputs": [
        {
          "internalType": "address",
          "name": "collatAddress",
          "type": "address"
        },
        {
          "internalType": "bool",
          "name": "allowance",
          "type": "bool"
        }
      ],
      "name": "updateCollateralList",
      "outputs": [],
      "stateMutability": "nonpayable",
      "type": "function"
    }
  ],
  "bytecode": "0x608060405234801561001057600080fd5b50615af380620000216000396000f3fe6080604052600436106103355760003560e01c80639f8fdafe116101ab578063c290817f116100f7578063e4a584a711610095578063faa5f34b1161006f578063faa5f34b14611024578063faeddc901461104f578063fc703aa61461107a578063fc9dc4ff146110a557610335565b8063e4a584a714610f67578063f2fde38b14610f92578063f62f843014610fe357610335565b8063d4c3eea0116100d1578063d4c3eea014610e20578063df1750cb14610e4b578063dfab838d14610ecf578063e1da538014610f3c57610335565b8063c290817f14610d43578063cc31fccb14610d9e578063ceee77ed14610ddf57610335565b8063ae67fbb111610164578063bbf274be1161013e578063bbf274be14610c09578063bbfd838114610c34578063be002f6e14610c71578063c0c53b8b14610cb257610335565b8063ae67fbb114610b8a578063af14052c14610bc7578063b4eae1cb14610bde57610335565b80639f8fdafe1461098e578063a09caa18146109b9578063a0fda95e146109e6578063a7a63b0a14610a11578063aa97120114610a95578063ab5d97f414610af957610335565b80635e0d5f13116102855780637e4e61d7116102235780638da5cb5b116101fd5780638da5cb5b1461087357806395bb5e37146108b457806396fd7db6146109385780639c11ca731461096357610335565b80637e4e61d7146107dc57806382dd391c1461081d5780638714a6d31461084857610335565b806363a018e31161025f57806363a018e3146107125780637080460f1461076d578063715018a61461079a57806372386371146107b157610335565b80635e0d5f13146106215780635f515226146106525780635f587895146106b757610335565b806332ad97ab116102f25780633f521f8c116102cc5780633f521f8c1461057357806343ee5cdc1461059e5780634b521499146105c957806357635e91146105f457610335565b806332ad97ab146104ec57806333f8bdfe1461051757806337d87d701461054257610335565b80630314e80c1461033a5780630ad641f11461039757806316e63e30146103a15780631e9a6950146103e25780631f207d081461043d578063276545fe146104c1575b600080fd5b34801561034657600080fd5b506103956004803603604081101561035d57600080fd5b81019080803573ffffffffffffffffffffffffffffffffffffffff1690602001909291908035151590602001909291905050506110d0565b005b61039f611544565b005b3480156103ad57600080fd5b506103b661164b565b604051808273ffffffffffffffffffffffffffffffffffffffff16815260200191505060405180910390f35b3480156103ee57600080fd5b5061043b6004803603604081101561040557600080fd5b81019080803573ffffffffffffffffffffffffffffffffffffffff16906020019092919080359060200190929190505050611671565b005b34801561044957600080fd5b506104966004803603604081101561046057600080fd5b81019080803573ffffffffffffffffffffffffffffffffffffffff1690602001909291908035906020019092919050505061180f565b6040518085815260200184815260200183815260200182815260200194505050505060405180910390f35b3480156104cd57600080fd5b506104d6611948565b6040518082815260200191505060405180910390f35b3480156104f857600080fd5b5061050161194d565b6040518082815260200191505060405180910390f35b34801561052357600080fd5b5061052c61195b565b6040518082815260200191505060405180910390f35b34801561054e57600080fd5b50610557611962565b604051808263ffffffff16815260200191505060405180910390f35b34801561057f57600080fd5b50610588611967565b6040518082815260200191505060405180910390f35b3480156105aa57600080fd5b506105b361196c565b6040518082815260200191505060405180910390f35b3480156105d557600080fd5b506105de611bde565b6040518082815260200191505060405180910390f35b34801561060057600080fd5b50610609611be5565b60405180821515815260200191505060405180910390f35b34801561062d57600080fd5b50610636611bf8565b604051808263ffffffff16815260200191505060405180910390f35b34801561065e57600080fd5b506106a16004803603602081101561067557600080fd5b81019080803573ffffffffffffffffffffffffffffffffffffffff169060200190929190505050611bfd565b6040518082815260200191505060405180910390f35b3480156106c357600080fd5b50610710600480360360408110156106da57600080fd5b81019080803573ffffffffffffffffffffffffffffffffffffffff16906020019092919080359060200190929190505050611c0f565b005b34801561071e57600080fd5b5061076b6004803603604081101561073557600080fd5b81019080803573ffffffffffffffffffffffffffffffffffffffff16906020019092919080359060200190929190505050611daf565b005b34801561077957600080fd5b50610782611f4f565b60405180821515815260200191505060405180910390f35b3480156107a657600080fd5b506107af611f62565b005b3480156107bd57600080fd5b506107c66120d2565b6040518082815260200191505060405180910390f35b3480156107e857600080fd5b506107f16120dd565b604051808273ffffffffffffffffffffffffffffffffffffffff16815260200191505060405180910390f35b34801561082957600080fd5b50610832612103565b6040518082815260200191505060405180910390f35b34801561085457600080fd5b5061085d6123b3565b6040518082815260200191505060405180910390f35b34801561087f57600080fd5b5061088861258a565b604051808273ffffffffffffffffffffffffffffffffffffffff16815260200191505060405180910390f35b3480156108c057600080fd5b5061090d600480360360408110156108d757600080fd5b81019080803573ffffffffffffffffffffffffffffffffffffffff169060200190929190803590602001909291905050506125b4565b6040518085815260200184815260200183815260200182815260200194505050505060405180910390f35b34801561094457600080fd5b5061094d6126ed565b6040518082815260200191505060405180910390f35b34801561096f57600080fd5b506109786126f2565b6040518082815260200191505060405180910390f35b34801561099a57600080fd5b506109a36126f7565b6040518082815260200191505060405180910390f35b3480156109c557600080fd5b506109ce6126fc565b60405180821515815260200191505060405180910390f35b3480156109f257600080fd5b506109fb61270f565b6040518082815260200191505060405180910390f35b348015610a1d57600080fd5b50610a6a60048036036040811015610a3457600080fd5b81019080803573ffffffffffffffffffffffffffffffffffffffff16906020019092919080359060200190929190505050612714565b6040518085815260200184815260200183815260200182815260200194505050505060405180910390f35b348015610aa157600080fd5b50610ace60048036036020811015610ab857600080fd5b810190808035906020019092919050505061284d565b6040518085815260200184815260200183815260200182815260200194505050505060405180910390f35b348015610b0557600080fd5b50610b5f60048036036060811015610b1c57600080fd5b81019080803573ffffffffffffffffffffffffffffffffffffffff16906020019092919080359060200190929190803560ff1690602001909291905050506128d0565b6040518085815260200184815260200183815260200182815260200194505050505060405180910390f35b348015610b9657600080fd5b50610bc560048036036020811015610bad57600080fd5b81019080803515159060200190929190505050613261565b005b348015610bd357600080fd5b50610bdc613367565b005b348015610bea57600080fd5b50610bf3613371565b6040518082815260200191505060405180910390f35b348015610c1557600080fd5b50610c1e613454565b6040518082815260200191505060405180910390f35b348015610c4057600080fd5b50610c6f60048036036020811015610c5757600080fd5b81019080803515159060200190929190505050613459565b005b348015610c7d57600080fd5b50610c8661355f565b604051808273ffffffffffffffffffffffffffffffffffffffff16815260200191505060405180910390f35b348015610cbe57600080fd5b50610d4160048036036060811015610cd557600080fd5b81019080803573ffffffffffffffffffffffffffffffffffffffff169060200190929190803573ffffffffffffffffffffffffffffffffffffffff169060200190929190803573ffffffffffffffffffffffffffffffffffffffff169060200190929190505050613585565b005b348015610d4f57600080fd5b50610d9c60048036036040811015610d6657600080fd5b81019080803573ffffffffffffffffffffffffffffffffffffffff169060200190929190803590602001909291905050506139db565b005b348015610daa57600080fd5b50610db3613b7b565b604051808273ffffffffffffffffffffffffffffffffffffffff16815260200191505060405180910390f35b348015610deb57600080fd5b50610df4613ba1565b604051808273ffffffffffffffffffffffffffffffffffffffff16815260200191505060405180910390f35b348015610e2c57600080fd5b50610e35613bc7565b6040518082815260200191505060405180910390f35b348015610e5757600080fd5b50610ea460048036036040811015610e6e57600080fd5b81019080803573ffffffffffffffffffffffffffffffffffffffff16906020019092919080359060200190929190505050613bd6565b6040518085815260200184815260200183815260200182815260200194505050505060405180910390f35b348015610edb57600080fd5b50610f2660048036036080811015610ef257600080fd5b8101908080359060200190929190803590602001909291908035906020019092919080359060200190929190505050614105565b6040518082815260200191505060405180910390f35b348015610f4857600080fd5b50610f51614249565b6040518082815260200191505060405180910390f35b348015610f7357600080fd5b50610f7c61424e565b6040518082815260200191505060405180910390f35b348015610f9e57600080fd5b50610fe160048036036020811015610fb557600080fd5b81019080803573ffffffffffffffffffffffffffffffffffffffff1690602001909291905050506143ce565b005b348015610fef57600080fd5b50610ff86145c3565b604051808273ffffffffffffffffffffffffffffffffffffffff16815260200191505060405180910390f35b34801561103057600080fd5b506110396145e9565b6040518082815260200191505060405180910390f35b34801561105b57600080fd5b506110646145ee565b6040518082815260200191505060405180910390f35b34801561108657600080fd5b5061108f6145f4565b6040518082815260200191505060405180910390f35b3480156110b157600080fd5b506110ba6145f9565b6040518082815260200191505060405180910390f35b6110d86145ff565b73ffffffffffffffffffffffffffffffffffffffff166110f661258a565b73ffffffffffffffffffffffffffffffffffffffff161461117f576040517f08c379a00000000000000000000000000000000000000000000000000000000081526004018080602001828103825260208152602001807f4f776e61626c653a2063616c6c6572206973206e6f7420746865206f776e657281525060200191505060405180910390fd5b80156112eb576000600160008473ffffffffffffffffffffffffffffffffffffffff1673ffffffffffffffffffffffffffffffffffffffff168152602001908152602001600020541461123a576040517f08c379a000000000000000000000000000000000000000000000000000000000815260040180806020018281038252601a8152602001807f436f6c6c61746572616c20616c726561647920616c6c6f77656400000000000081525060200191505060405180910390fd5b6002829080600181540180825580915050600190039060005260206000200160009091909190916101000a81548173ffffffffffffffffffffffffffffffffffffffff021916908373ffffffffffffffffffffffffffffffffffffffff160217905550600280549050600160008473ffffffffffffffffffffffffffffffffffffffff1673ffffffffffffffffffffffffffffffffffffffff168152602001908152602001600020819055506114fa565b6000600160008473ffffffffffffffffffffffffffffffffffffffff1673ffffffffffffffffffffffffffffffffffffffff16815260200190815260200160002054116113a0576040517f08c379a00000000000000000000000000000000000000000000000000000000081526004018080602001828103825260168152602001807f436f6c6c61746572616c206e6f7420616c6c6f7765640000000000000000000081525060200191505060405180910390fd5b6002600160028054905003815481106113b557fe5b9060005260206000200160009054906101000a900473ffffffffffffffffffffffffffffffffffffffff16600260018060008673ffffffffffffffffffffffffffffffffffffffff1673ffffffffffffffffffffffffffffffffffffffff16815260200190815260200160002054038154811061142e57fe5b9060005260206000200160006101000a81548173ffffffffffffffffffffffffffffffffffffffff021916908373ffffffffffffffffffffffffffffffffffffffff160217905550600280548061148157fe5b6001900381819060005260206000200160006101000a81549073ffffffffffffffffffffffffffffffffffffffff02191690559055600160008373ffffffffffffffffffffffffffffffffffffffff1673ffffffffffffffffffffffffffffffffffffffff168152602001908152602001600020600090555b8015158273ffffffffffffffffffffffffffffffffffffffff167f194ee1162509dc75800c4d03639ea5ff5eb235afd295634c7552f230421d0a9260405160405180910390a35050565b600060029054906101000a900460ff166115c6576040517f08c379a00000000000000000000000000000000000000000000000000000000081526004018080602001828103825260148152602001807f4d696e7420262072656465656d2070617573656400000000000000000000000081525060200191505060405180910390fd5b6000341161163c576040517f08c379a00000000000000000000000000000000000000000000000000000000081526004018080602001828103825260118152602001807f4e65656420746f2070617920457468657200000000000000000000000000000081525060200191505060405180910390fd5b6116496000346003614607565b565b600460009054906101000a900473ffffffffffffffffffffffffffffffffffffffff1681565b600060029054906101000a900460ff166116f3576040517f08c379a00000000000000000000000000000000000000000000000000000000081526004018080602001828103825260148152602001807f4d696e7420262072656465656d2070617573656400000000000000000000000081525060200191505060405180910390fd5b6000600160008473ffffffffffffffffffffffffffffffffffffffff1673ffffffffffffffffffffffffffffffffffffffff16815260200190815260200160002054116117a8576040517f08c379a00000000000000000000000000000000000000000000000000000000081526004018080602001828103825260188152602001807f436f6c6c61746572616c206e6f7420737570706f72746564000000000000000081525060200191505060405180910390fd5b60008111611801576040517f08c379a00000000000000000000000000000000000000000000000000000000081526004018080602001828103825260218152602001806159fe6021913960400191505060405180910390fd5b61180b8282614979565b5050565b6000806000806000600160008873ffffffffffffffffffffffffffffffffffffffff1673ffffffffffffffffffffffffffffffffffffffff16815260200190815260200160002054116118ca576040517f08c379a00000000000000000000000000000000000000000000000000000000081526004018080602001828103825260188152602001807f436f6c6c61746572616c206e6f7420737570706f72746564000000000000000081525060200191505060405180910390fd5b60008511611923576040517f08c379a00000000000000000000000000000000000000000000000000000000081526004018080602001828103825260218152602001806159fe6021913960400191505060405180910390fd5b61192f868660016128d0565b8094508195508296508397505050505092959194509250565b606381565b69152d02c7e14af680000081565b620186a081565b600c81565b600181565b60008060039054906101000a900460ff1661198a5760009050611bdb565b6000600560009054906101000a900473ffffffffffffffffffffffffffffffffffffffff1673ffffffffffffffffffffffffffffffffffffffff166308432eea6040518163ffffffff1660e01b8152600401602060405180830381600087803b1580156119f657600080fd5b505af1158015611a0a573d6000803e3d6000fd5b505050506040513d6020811015611a2057600080fd5b810190808051906020019092919050505090506000600560009054906101000a900473ffffffffffffffffffffffffffffffffffffffff1673ffffffffffffffffffffffffffffffffffffffff1663c36d74976040518163ffffffff1660e01b815260040160206040518083038186803b158015611a9d57600080fd5b505afa158015611ab1573d6000803e3d6000fd5b505050506040513d6020811015611ac757600080fd5b810190808051906020019092919050505090506000611b036064611af5846063614cc390919063ffffffff16565b614d4990919063ffffffff16565b905082811015611b26576103e8620f424081611b1b57fe5b049350505050611bdb565b6000611b516001611b436032878603614cc390919063ffffffff16565b614d4990919063ffffffff16565b90506000611b688283614cc390919063ffffffff16565b90506000611ba685611b9887611b8a620f424087614cc390919063ffffffff16565b614d4990919063ffffffff16565b614d4990919063ffffffff16565b90506000611bbe606483614d4990919063ffffffff16565b9050806103e8620f424081611bcf57fe5b04019750505050505050505b90565b620f424081565b600060029054906101000a900460ff1681565b600a81565b6000611c0882614dd2565b9050919050565b600060029054906101000a900460ff16611c91576040517f08c379a00000000000000000000000000000000000000000000000000000000081526004018080602001828103825260148152602001807f4d696e7420262072656465656d2070617573656400000000000000000000000081525060200191505060405180910390fd5b6000600160008473ffffffffffffffffffffffffffffffffffffffff1673ffffffffffffffffffffffffffffffffffffffff1681526020019081526020016000205411611d46576040517f08c379a00000000000000000000000000000000000000000000000000000000081526004018080602001828103825260188152602001807f436f6c6c61746572616c206e6f7420737570706f72746564000000000000000081525060200191505060405180910390fd5b60008111611d9f576040517f08c379a00000000000000000000000000000000000000000000000000000000081526004018080602001828103825260218152602001806159fe6021913960400191505060405180910390fd5b611dab82826000614607565b5050565b600060029054906101000a900460ff16611e31576040517f08c379a00000000000000000000000000000000000000000000000000000000081526004018080602001828103825260148152602001807f4d696e7420262072656465656d2070617573656400000000000000000000000081525060200191505060405180910390fd5b6000600160008473ffffffffffffffffffffffffffffffffffffffff1673ffffffffffffffffffffffffffffffffffffffff1681526020019081526020016000205411611ee6576040517f08c379a00000000000000000000000000000000000000000000000000000000081526004018080602001828103825260188152602001807f436f6c6c61746572616c206e6f7420737570706f72746564000000000000000081525060200191505060405180910390fd5b60008111611f3f576040517f08c379a00000000000000000000000000000000000000000000000000000000081526004018080602001828103825260218152602001806159fe6021913960400191505060405180910390fd5b611f4b82826002614607565b5050565b600060049054906101000a900460ff1681565b611f6a6145ff565b73ffffffffffffffffffffffffffffffffffffffff16611f8861258a565b73ffffffffffffffffffffffffffffffffffffffff1614612011576040517f08c379a00000000000000000000000000000000000000000000000000000000081526004018080602001828103825260208152602001807f4f776e61626c653a2063616c6c6572206973206e6f7420746865206f776e657281525060200191505060405180910390fd5b600073ffffffffffffffffffffffffffffffffffffffff16604060009054906101000a900473ffffffffffffffffffffffffffffffffffffffff1673ffffffffffffffffffffffffffffffffffffffff167f8be0079c531659141344cd1fd0a4f28419497f9722a3daafe3b4186f6b6457e060405160405180910390a36000604060006101000a81548173ffffffffffffffffffffffffffffffffffffffff021916908373ffffffffffffffffffffffffffffffffffffffff160217905550565b66123a3aa239f65c81565b600560009054906101000a900473ffffffffffffffffffffffffffffffffffffffff1681565b60008060049054906101000a900460ff1661212157600090506123b0565b6000600560009054906101000a900473ffffffffffffffffffffffffffffffffffffffff1673ffffffffffffffffffffffffffffffffffffffff16630b71f2166040518163ffffffff1660e01b815260040160206040518083038186803b15801561218b57600080fd5b505afa15801561219f573d6000803e3d6000fd5b505050506040513d60208110156121b557600080fd5b810190808051906020019092919050505090506000600560009054906101000a900473ffffffffffffffffffffffffffffffffffffffff1673ffffffffffffffffffffffffffffffffffffffff16631f58c4416040518163ffffffff1660e01b815260040160206040518083038186803b15801561223257600080fd5b505afa158015612246573d6000803e3d6000fd5b505050506040513d602081101561225c57600080fd5b81019080805190602001909291905050509050612296600a61228883600c614cc390919063ffffffff16565b614d4990919063ffffffff16565b82116122a8576103e8925050506123b0565b600080600d60009054906101000a900473ffffffffffffffffffffffffffffffffffffffff1673ffffffffffffffffffffffffffffffffffffffff166332833d5160146001600c600a6040518563ffffffff1660e01b8152600401808581526020018481526020018363ffffffff1681526020018263ffffffff168152602001945050505050604080518083038186803b15801561234557600080fd5b505afa158015612359573d6000803e3d6000fd5b505050506040513d604081101561236f57600080fd5b810190808051906020019092919080519060200190929190505050915091506123a96127108260ff1684901c614cc390919063ffffffff16565b9450505050505b90565b600080600560009054906101000a900473ffffffffffffffffffffffffffffffffffffffff1673ffffffffffffffffffffffffffffffffffffffff166308432eea6040518163ffffffff1660e01b8152600401602060405180830381600087803b15801561242057600080fd5b505af1158015612434573d6000803e3d6000fd5b505050506040513d602081101561244a57600080fd5b810190808051906020019092919050505090506000600560009054906101000a900473ffffffffffffffffffffffffffffffffffffffff1673ffffffffffffffffffffffffffffffffffffffff1663c36d74976040518163ffffffff1660e01b815260040160206040518083038186803b1580156124c757600080fd5b505afa1580156124db573d6000803e3d6000fd5b505050506040513d60208110156124f157600080fd5b81019080805190602001909291905050509050600061251b600a5443614e8290919063ffffffff16565b9050600061252d600b54838686614105565b905060008190508082111561257e57612577612568600161255a8486036001614cc390919063ffffffff16565b614d4990919063ffffffff16565b83614f0590919063ffffffff16565b9550612582565b8195505b505050505090565b6000604060009054906101000a900473ffffffffffffffffffffffffffffffffffffffff16905090565b6000806000806000600160008873ffffffffffffffffffffffffffffffffffffffff1673ffffffffffffffffffffffffffffffffffffffff168152602001908152602001600020541161266f576040517f08c379a00000000000000000000000000000000000000000000000000000000081526004018080602001828103825260188152602001807f436f6c6c61746572616c206e6f7420737570706f72746564000000000000000081525060200191505060405180910390fd5b600085116126c8576040517f08c379a00000000000000000000000000000000000000000000000000000000081526004018080602001828103825260218152602001806159fe6021913960400191505060405180910390fd5b6126d4868660006128d0565b8094508195508296508397505050505092959194509250565b600981565b600181565b600181565b600060039054906101000a900460ff1681565b601481565b6000806000806000600160008873ffffffffffffffffffffffffffffffffffffffff1673ffffffffffffffffffffffffffffffffffffffff16815260200190815260200160002054116127cf576040517f08c379a00000000000000000000000000000000000000000000000000000000081526004018080602001828103825260188152602001807f436f6c6c61746572616c206e6f7420737570706f72746564000000000000000081525060200191505060405180910390fd5b60008511612828576040517f08c379a00000000000000000000000000000000000000000000000000000000081526004018080602001828103825260218152602001806159fe6021913960400191505060405180910390fd5b612834868660026128d0565b8094508195508296508397505050505092959194509250565b600080600080600085116128ac576040517f08c379a00000000000000000000000000000000000000000000000000000000081526004018080602001828103825260218152602001806159fe6021913960400191505060405180910390fd5b6128b960008660026128d0565b809450819550829650839750505050509193509193565b60008060008060008060038760ff161415612a3457600560009054906101000a900473ffffffffffffffffffffffffffffffffffffffff1673ffffffffffffffffffffffffffffffffffffffff1663a607a8d96040518163ffffffff1660e01b815260040160206040518083038186803b15801561294d57600080fd5b505afa158015612961573d6000803e3d6000fd5b505050506040513d602081101561297757600080fd5b81019080805190602001909291905050509150600560009054906101000a900473ffffffffffffffffffffffffffffffffffffffff1673ffffffffffffffffffffffffffffffffffffffff1663d5b01d436040518163ffffffff1660e01b815260040160206040518083038186803b1580156129f257600080fd5b505afa158015612a06573d6000803e3d6000fd5b505050506040513d6020811015612a1c57600080fd5b81019080805190602001909291905050509050612bc1565b600560009054906101000a900473ffffffffffffffffffffffffffffffffffffffff1673ffffffffffffffffffffffffffffffffffffffff16639f1a442e8a6040518263ffffffff1660e01b8152600401808273ffffffffffffffffffffffffffffffffffffffff16815260200191505060206040518083038186803b158015612abd57600080fd5b505afa158015612ad1573d6000803e3d6000fd5b505050506040513d6020811015612ae757600080fd5b81019080805190602001909291905050509150600560009054906101000a900473ffffffffffffffffffffffffffffffffffffffff1673ffffffffffffffffffffffffffffffffffffffff16637d1489fe8a6040518263ffffffff1660e01b8152600401808273ffffffffffffffffffffffffffffffffffffffff16815260200191505060206040518083038186803b158015612b8357600080fd5b505afa158015612b97573d6000803e3d6000fd5b505050506040513d6020811015612bad57600080fd5b810190808051906020019092919050505090505b6000600560009054906101000a900473ffffffffffffffffffffffffffffffffffffffff1673ffffffffffffffffffffffffffffffffffffffff166312dd85ee6040518163ffffffff1660e01b815260040160206040518083038186803b158015612c2b57600080fd5b505afa158015612c3f573d6000803e3d6000fd5b505050506040513d6020811015612c5557600080fd5b810190808051906020019092919050505090506000600560009054906101000a900473ffffffffffffffffffffffffffffffffffffffff1673ffffffffffffffffffffffffffffffffffffffff1663743db8276040518163ffffffff1660e01b815260040160206040518083038186803b158015612cd257600080fd5b505afa158015612ce6573d6000803e3d6000fd5b505050506040513d6020811015612cfc57600080fd5b810190808051906020019092919050505090506000612d1961196c565b905060008c73ffffffffffffffffffffffffffffffffffffffff1663313ce5676040518163ffffffff1660e01b815260040160206040518083038186803b158015612d6357600080fd5b505afa158015612d77573d6000803e3d6000fd5b505050506040513d6020811015612d8d57600080fd5b810190808051906020019092919050505060ff16905060008b60ff161415612f4a578b9750612e0a612dcb620186a086614cc390919063ffffffff16565b612dfc85612dee612dda61424e565b620186a0038d614cc390919063ffffffff16565b614cc390919063ffffffff16565b614d4990919063ffffffff16565b99506000821115612e5257612e4f612e40620f4240612e32858e614cc390919063ffffffff16565b614d4990919063ffffffff16565b8b614f0590919063ffffffff16565b99505b6000612ea7612e6d88620186a0614cc390919063ffffffff16565b612e9988612e8b612e7c61424e565b8e614cc390919063ffffffff16565b614cc390919063ffffffff16565b614d4990919063ffffffff16565b9050612ed2612ec0836012614e8290919063ffffffff16565b600a0a82614d4990919063ffffffff16565b99506000831115612f1a57612f17612f08620f4240612efa868e614cc390919063ffffffff16565b614d4990919063ffffffff16565b8b614f0590919063ffffffff16565b99505b612f42620f4240612f34858c614cc390919063ffffffff16565b614d4990919063ffffffff16565b975050613252565b60018b60ff1614156130e5578b99508997506000821115612f9357612f90612f7e620f424084614d4990919063ffffffff16565b60010189614d4990919063ffffffff16565b97505b612feb612fb5612fa161424e565b620186a00385614cc390919063ffffffff16565b612fdd86612fcf620186a08d614cc390919063ffffffff16565b614cc390919063ffffffff16565b614d4990919063ffffffff16565b9750600061304261300888620186a0614cc390919063ffffffff16565b6130348861302661301761424e565b8e614cc390919063ffffffff16565b614cc390919063ffffffff16565b614d4990919063ffffffff16565b905061306d61305b836012614e8290919063ffffffff16565b600a0a82614d4990919063ffffffff16565b995060008311156130b5576130b26130a3620f4240613095868e614cc390919063ffffffff16565b614d4990919063ffffffff16565b8b614f0590919063ffffffff16565b99505b6130dd620f42406130cf858c614cc390919063ffffffff16565b614d4990919063ffffffff16565b975050613251565b60028b60ff1614806130fa575060038b60ff16145b15613250578b9850600061312d61311b836012614e8290919063ffffffff16565b600a0a8b614cc390919063ffffffff16565b905061318261313a61424e565b613174886131666131578c620186a0614cc390919063ffffffff16565b86614cc390919063ffffffff16565b614d4990919063ffffffff16565b614d4990919063ffffffff16565b98506131dc61319d620186a087614cc390919063ffffffff16565b6131ce866131c06131ac61424e565b620186a0038e614cc390919063ffffffff16565b614cc390919063ffffffff16565b614d4990919063ffffffff16565b9a50600083111561322457613221613212620f4240613204868f614cc390919063ffffffff16565b614d4990919063ffffffff16565b8c614f0590919063ffffffff16565b9a505b61324c620f424061323e858c614cc390919063ffffffff16565b614d4990919063ffffffff16565b9750505b5b5b50505050505093509350935093565b6132696145ff565b73ffffffffffffffffffffffffffffffffffffffff1661328761258a565b73ffffffffffffffffffffffffffffffffffffffff1614613310576040517f08c379a00000000000000000000000000000000000000000000000000000000081526004018080602001828103825260208152602001807f4f776e61626c653a2063616c6c6572206973206e6f7420746865206f776e657281525060200191505060405180910390fd5b80600060036101000a81548160ff0219169083151502179055508015157fa718abb01489e804e466b638c238f6675e3ab30d43d13dfba068a9e5f459ce4a426040518082815260200191505060405180910390a250565b61336f614f8d565b565b60008061337c615115565b90506000600c60009054906101000a900473ffffffffffffffffffffffffffffffffffffffff1673ffffffffffffffffffffffffffffffffffffffff166318160ddd6040518163ffffffff1660e01b815260040160206040518083038186803b1580156133e857600080fd5b505afa1580156133fc573d6000803e3d6000fd5b505050506040513d602081101561341257600080fd5b8101908080519060200190929190505050905061344d8161343f620186a085614cc390919063ffffffff16565b614d4990919063ffffffff16565b9250505090565b606481565b6134616145ff565b73ffffffffffffffffffffffffffffffffffffffff1661347f61258a565b73ffffffffffffffffffffffffffffffffffffffff1614613508576040517f08c379a00000000000000000000000000000000000000000000000000000000081526004018080602001828103825260208152602001807f4f776e61626c653a2063616c6c6572206973206e6f7420746865206f776e657281525060200191505060405180910390fd5b80600060046101000a81548160ff0219169083151502179055508015157f1b919d23402dee431d44c93307f7acb13b0b4e5baa3f898b8a881ede055812c9426040518082815260200191505060405180910390a250565b600860009054906101000a900473ffffffffffffffffffffffffffffffffffffffff1681565b600060019054906101000a900460ff16806135a457506135a361513d565b5b806135ba575060008054906101000a900460ff16155b61360f576040517f08c379a000000000000000000000000000000000000000000000000000000000815260040180806020018281038252602e815260200180615a45602e913960400191505060405180910390fd5b60008060019054906101000a900460ff16159050801561365f576001600060016101000a81548160ff02191690831515021790555060016000806101000a81548160ff0219169083151502179055505b61366761514e565b6001600060026101000a81548160ff0219169083151502179055506001600060036101000a81548160ff0219169083151502179055506001600060046101000a81548160ff02191690831515021790555073fb931d41a744be590e8b51e2e343bbe030ac4f93600460006101000a81548173ffffffffffffffffffffffffffffffffffffffff021916908373ffffffffffffffffffffffffffffffffffffffff16021790555062017318600b8190555030600660006101000a81548173ffffffffffffffffffffffffffffffffffffffff021916908373ffffffffffffffffffffffffffffffffffffffff16021790555030600760006101000a81548173ffffffffffffffffffffffffffffffffffffffff021916908373ffffffffffffffffffffffffffffffffffffffff16021790555030600860006101000a81548173ffffffffffffffffffffffffffffffffffffffff021916908373ffffffffffffffffffffffffffffffffffffffff16021790555030600960006101000a81548173ffffffffffffffffffffffffffffffffffffffff021916908373ffffffffffffffffffffffffffffffffffffffff160217905550600180600073b7a4f3e9097c08da09517b5ab877f7a917224ede73ffffffffffffffffffffffffffffffffffffffff1673ffffffffffffffffffffffffffffffffffffffff16815260200190815260200160002081905550600273b7a4f3e9097c08da09517b5ab877f7a917224ede9080600181540180825580915050600190039060005260206000200160009091909190916101000a81548173ffffffffffffffffffffffffffffffffffffffff021916908373ffffffffffffffffffffffffffffffffffffffff16021790555083600c60006101000a81548173ffffffffffffffffffffffffffffffffffffffff021916908373ffffffffffffffffffffffffffffffffffffffff16021790555082600560006101000a81548173ffffffffffffffffffffffffffffffffffffffff021916908373ffffffffffffffffffffffffffffffffffffffff16021790555081600d60006101000a81548173ffffffffffffffffffffffffffffffffffffffff021916908373ffffffffffffffffffffffffffffffffffffffff16021790555043600a8190555080156139d55760008060016101000a81548160ff0219169083151502179055505b50505050565b600060029054906101000a900460ff16613a5d576040517f08c379a00000000000000000000000000000000000000000000000000000000081526004018080602001828103825260148152602001807f4d696e7420262072656465656d2070617573656400000000000000000000000081525060200191505060405180910390fd5b6000600160008473ffffffffffffffffffffffffffffffffffffffff1673ffffffffffffffffffffffffffffffffffffffff1681526020019081526020016000205411613b12576040517f08c379a00000000000000000000000000000000000000000000000000000000081526004018080602001828103825260188152602001807f436f6c6c61746572616c206e6f7420737570706f72746564000000000000000081525060200191505060405180910390fd5b60008111613b6b576040517f08c379a00000000000000000000000000000000000000000000000000000000081526004018080602001828103825260218152602001806159fe6021913960400191505060405180910390fd5b613b7782826001614607565b5050565b600960009054906101000a900473ffffffffffffffffffffffffffffffffffffffff1681565b600660009054906101000a900473ffffffffffffffffffffffffffffffffffffffff1681565b6000613bd1615115565b905090565b6000806000806000600560009054906101000a900473ffffffffffffffffffffffffffffffffffffffff1673ffffffffffffffffffffffffffffffffffffffff16639f1a442e886040518263ffffffff1660e01b8152600401808273ffffffffffffffffffffffffffffffffffffffff16815260200191505060206040518083038186803b158015613c6757600080fd5b505afa158015613c7b573d6000803e3d6000fd5b505050506040513d6020811015613c9157600080fd5b810190808051906020019092919050505090506000600560009054906101000a900473ffffffffffffffffffffffffffffffffffffffff1673ffffffffffffffffffffffffffffffffffffffff16637d1489fe896040518263ffffffff1660e01b8152600401808273ffffffffffffffffffffffffffffffffffffffff16815260200191505060206040518083038186803b158015613d2f57600080fd5b505afa158015613d43573d6000803e3d6000fd5b505050506040513d6020811015613d5957600080fd5b810190808051906020019092919050505090506000600560009054906101000a900473ffffffffffffffffffffffffffffffffffffffff1673ffffffffffffffffffffffffffffffffffffffff166312dd85ee6040518163ffffffff1660e01b815260040160206040518083038186803b158015613dd657600080fd5b505afa158015613dea573d6000803e3d6000fd5b505050506040513d6020811015613e0057600080fd5b810190808051906020019092919050505090506000600560009054906101000a900473ffffffffffffffffffffffffffffffffffffffff1673ffffffffffffffffffffffffffffffffffffffff1663743db8276040518163ffffffff1660e01b815260040160206040518083038186803b158015613e7d57600080fd5b505afa158015613e91573d6000803e3d6000fd5b505050506040513d6020811015613ea757600080fd5b810190808051906020019092919050505090506000613ec4612103565b9050613f1e613edf620186a085614cc390919063ffffffff16565b613f1084613f02613eee6123b3565b620186a0038f614cc390919063ffffffff16565b614cc390919063ffffffff16565b614d4990919063ffffffff16565b98506000811115613f6657613f63613f54620f4240613f46848d614cc390919063ffffffff16565b614d4990919063ffffffff16565b8a614e8290919063ffffffff16565b98505b6000613fbb613f8187620186a0614cc390919063ffffffff16565b613fad613f9e88613f906123b3565b614cc390919063ffffffff16565b8e614cc390919063ffffffff16565b614d4990919063ffffffff16565b9050600082111561400357614000613ff1620f4240613fe38585614cc390919063ffffffff16565b614d4990919063ffffffff16565b82614e8290919063ffffffff16565b90505b60008c73ffffffffffffffffffffffffffffffffffffffff1663313ce5676040518163ffffffff1660e01b815260040160206040518083038186803b15801561404b57600080fd5b505afa15801561405f573d6000803e3d6000fd5b505050506040513d602081101561407557600080fd5b810190808051906020019092919050505060ff1690506140b46140a2826012614e8290919063ffffffff16565b600a0a83614d4990919063ffffffff16565b99506140de620f42406140d0858f614cc390919063ffffffff16565b614d4990919063ffffffff16565b97506140f3888d614e8290919063ffffffff16565b98505050505050505092959194509250565b60008061413e69152d02c7e14af680000061413066123a3aa239f65c88614cc390919063ffffffff16565b614d4990919063ffffffff16565b90506000838511156141b557614187600161417986880361416b888a036009614cc390919063ffffffff16565b614cc390919063ffffffff16565b614d4990919063ffffffff16565b90506141ae816141a0848a614e8290919063ffffffff16565b614f0590919063ffffffff16565b925061423f565b83851015614228576141fa60016141ec8787036141de8989036009614cc390919063ffffffff16565b614cc390919063ffffffff16565b614d4990919063ffffffff16565b905061422181614213848a614e8290919063ffffffff16565b614e8290919063ffffffff16565b925061423e565b61423b8288614e8290919063ffffffff16565b92505b5b5050949350505050565b603281565b600080600560009054906101000a900473ffffffffffffffffffffffffffffffffffffffff1673ffffffffffffffffffffffffffffffffffffffff166308432eea6040518163ffffffff1660e01b8152600401602060405180830381600087803b1580156142bb57600080fd5b505af11580156142cf573d6000803e3d6000fd5b505050506040513d60208110156142e557600080fd5b810190808051906020019092919050505090506000600560009054906101000a900473ffffffffffffffffffffffffffffffffffffffff1673ffffffffffffffffffffffffffffffffffffffff1663c36d74976040518163ffffffff1660e01b815260040160206040518083038186803b15801561436257600080fd5b505afa158015614376573d6000803e3d6000fd5b505050506040513d602081101561438c57600080fd5b8101908080519060200190929190505050905060006143b6600a5443614e8290919063ffffffff16565b90506143c6600b54828585614105565b935050505090565b6143d66145ff565b73ffffffffffffffffffffffffffffffffffffffff166143f461258a565b73ffffffffffffffffffffffffffffffffffffffff161461447d576040517f08c379a00000000000000000000000000000000000000000000000000000000081526004018080602001828103825260208152602001807f4f776e61626c653a2063616c6c6572206973206e6f7420746865206f776e657281525060200191505060405180910390fd5b600073ffffffffffffffffffffffffffffffffffffffff168173ffffffffffffffffffffffffffffffffffffffff161415614503576040517f08c379a00000000000000000000000000000000000000000000000000000000081526004018080602001828103825260268152602001806159d86026913960400191505060405180910390fd5b8073ffffffffffffffffffffffffffffffffffffffff16604060009054906101000a900473ffffffffffffffffffffffffffffffffffffffff1673ffffffffffffffffffffffffffffffffffffffff167f8be0079c531659141344cd1fd0a4f28419497f9722a3daafe3b4186f6b6457e060405160405180910390a380604060006101000a81548173ffffffffffffffffffffffffffffffffffffffff021916908373ffffffffffffffffffffffffffffffffffffffff16021790555050565b600760009054906101000a900473ffffffffffffffffffffffffffffffffffffffff1681565b600181565b600b5481565b600181565b600a5481565b600033905090565b600060029054906101000a900460ff16614689576040517f08c379a00000000000000000000000000000000000000000000000000000000081526004018080602001828103825260148152602001807f4d696e7420262072656465656d2070617573656400000000000000000000000081525060200191505060405180910390fd5b60008060008061469a8787876128d0565b9350935093509350600460009054906101000a900473ffffffffffffffffffffffffffffffffffffffff1673ffffffffffffffffffffffffffffffffffffffff166379cc679033866040518363ffffffff1660e01b8152600401808373ffffffffffffffffffffffffffffffffffffffff16815260200182815260200192505050600060405180830381600087803b15801561473557600080fd5b505af1158015614749573d6000803e3d6000fd5b5050505060038560ff16146147a8576147a733600660009054906101000a900473ffffffffffffffffffffffffffffffffffffffff16858a73ffffffffffffffffffffffffffffffffffffffff1661525c909392919063ffffffff16565b5b600c60009054906101000a900473ffffffffffffffffffffffffffffffffffffffff1673ffffffffffffffffffffffffffffffffffffffff166340c10f1933846040518363ffffffff1660e01b8152600401808373ffffffffffffffffffffffffffffffffffffffff16815260200182815260200192505050600060405180830381600087803b15801561483b57600080fd5b505af115801561484f573d6000803e3d6000fd5b50505050600c60009054906101000a900473ffffffffffffffffffffffffffffffffffffffff1673ffffffffffffffffffffffffffffffffffffffff166340c10f19600860009054906101000a900473ffffffffffffffffffffffffffffffffffffffff16836040518363ffffffff1660e01b8152600401808373ffffffffffffffffffffffffffffffffffffffff16815260200182815260200192505050600060405180830381600087803b15801561490857600080fd5b505af115801561491c573d6000803e3d6000fd5b5050505083823373ffffffffffffffffffffffffffffffffffffffff167f35e978aeacd9578966144709a1d898ba60deca4563efda7646b6837beeda868f846040518082815260200191505060405180910390a450505050505050565b600060029054906101000a900460ff166149fb576040517f08c379a00000000000000000000000000000000000000000000000000000000081526004018080602001828103825260148152602001807f4d696e7420262072656465656d2070617573656400000000000000000000000081525060200191505060405180910390fd5b600080600080614a0b8686613bd6565b9350935093509350614a62600760009054906101000a900473ffffffffffffffffffffffffffffffffffffffff1633868973ffffffffffffffffffffffffffffffffffffffff1661525c909392919063ffffffff16565b614ab1600660009054906101000a900473ffffffffffffffffffffffffffffffffffffffff1633858973ffffffffffffffffffffffffffffffffffffffff1661525c909392919063ffffffff16565b600c60009054906101000a900473ffffffffffffffffffffffffffffffffffffffff1673ffffffffffffffffffffffffffffffffffffffff16639dc29fac33846040518363ffffffff1660e01b8152600401808373ffffffffffffffffffffffffffffffffffffffff16815260200182815260200192505050600060405180830381600087803b158015614b4457600080fd5b505af1158015614b58573d6000803e3d6000fd5b50505050600c60009054906101000a900473ffffffffffffffffffffffffffffffffffffffff1673ffffffffffffffffffffffffffffffffffffffff166323b872dd33600860009054906101000a900473ffffffffffffffffffffffffffffffffffffffff16846040518463ffffffff1660e01b8152600401808473ffffffffffffffffffffffffffffffffffffffff1681526020018373ffffffffffffffffffffffffffffffffffffffff1681526020018281526020019350505050602060405180830381600087803b158015614c2f57600080fd5b505af1158015614c43573d6000803e3d6000fd5b505050506040513d6020811015614c5957600080fd5b81019080805190602001909291905050505083823373ffffffffffffffffffffffffffffffffffffffff167fa44ec3ec8cbe71b417f9d2135d21df41e5adbf6e17bf56527f1b2879d4db8914846040518082815260200191505060405180910390a4505050505050565b600080831415614cd65760009050614d43565b6000828402905082848281614ce757fe5b0414614d3e576040517f08c379a0000000000000000000000000000000000000000000000000000000008152600401808060200182810382526021815260200180615a736021913960400191505060405180910390fd5b809150505b92915050565b6000808211614dc0576040517f08c379a000000000000000000000000000000000000000000000000000000000815260040180806020018281038252601a8152602001807f536166654d6174683a206469766973696f6e206279207a65726f00000000000081525060200191505060405180910390fd5b818381614dc957fe5b04905092915050565b6000808290508073ffffffffffffffffffffffffffffffffffffffff166370a08231306040518263ffffffff1660e01b8152600401808273ffffffffffffffffffffffffffffffffffffffff16815260200191505060206040518083038186803b158015614e3f57600080fd5b505afa158015614e53573d6000803e3d6000fd5b505050506040513d6020811015614e6957600080fd5b8101908080519060200190929190505050915050919050565b600082821115614efa576040517f08c379a000000000000000000000000000000000000000000000000000000000815260040180806020018281038252601e8152602001807f536166654d6174683a207375627472616374696f6e206f766572666c6f77000081525060200191505060405180910390fd5b818303905092915050565b600080828401905083811015614f83576040517f08c379a000000000000000000000000000000000000000000000000000000000815260040180806020018281038252601b8152602001807f536166654d6174683a206164646974696f6e206f766572666c6f77000000000081525060200191505060405180910390fd5b8091505092915050565b6000600c60009054906101000a900473ffffffffffffffffffffffffffffffffffffffff1673ffffffffffffffffffffffffffffffffffffffff166318160ddd6040518163ffffffff1660e01b815260040160206040518083038186803b158015614ff757600080fd5b505afa15801561500b573d6000803e3d6000fd5b505050506040513d602081101561502157600080fd5b81019080805190602001909291905050509050600061503e615115565b90508181118015615050575060008214155b1561511157600c60009054906101000a900473ffffffffffffffffffffffffffffffffffffffff1673ffffffffffffffffffffffffffffffffffffffff166339a7919f826040518263ffffffff1660e01b815260040180828152602001915050600060405180830381600087803b1580156150ca57600080fd5b505af11580156150de573d6000803e3d6000fd5b5050505080827fc16e0656e8c02e8cf4339f9e9d1c69f3ee797425ca30c7fc6692bbdaab52920360405160405180910390a35b5050565b600061513861512261531d565b61512a615397565b614f0590919063ffffffff16565b905090565b60006151483061539c565b15905090565b600060019054906101000a900460ff168061516d575061516c61513d565b5b80615183575060008054906101000a900460ff16155b6151d8576040517f08c379a000000000000000000000000000000000000000000000000000000000815260040180806020018281038252602e815260200180615a45602e913960400191505060405180910390fd5b60008060019054906101000a900460ff161590508015615228576001600060016101000a81548160ff02191690831515021790555060016000806101000a81548160ff0219169083151502179055505b6152306153af565b6152386154ad565b80156152595760008060016101000a81548160ff0219169083151502179055505b50565b615317846323b872dd60e01b858585604051602401808473ffffffffffffffffffffffffffffffffffffffff1681526020018373ffffffffffffffffffffffffffffffffffffffff1681526020018281526020019350505050604051602081830303815290604052907bffffffffffffffffffffffffffffffffffffffffffffffffffffffff19166020820180517bffffffffffffffffffffffffffffffffffffffffffffffffffffffff8381831617835250505050615654565b50505050565b600080600090505b600380549050811015615393576153846153756003838154811061534557fe5b9060005260206000200160009054906101000a900473ffffffffffffffffffffffffffffffffffffffff16615743565b83614f0590919063ffffffff16565b91508080600101915050615325565b5090565b600090565b600080823b905060008111915050919050565b600060019054906101000a900460ff16806153ce57506153cd61513d565b5b806153e4575060008054906101000a900460ff16155b615439576040517f08c379a000000000000000000000000000000000000000000000000000000000815260040180806020018281038252602e815260200180615a45602e913960400191505060405180910390fd5b60008060019054906101000a900460ff161590508015615489576001600060016101000a81548160ff02191690831515021790555060016000806101000a81548160ff0219169083151502179055505b80156154aa5760008060016101000a81548160ff0219169083151502179055505b50565b600060019054906101000a900460ff16806154cc57506154cb61513d565b5b806154e2575060008054906101000a900460ff16155b615537576040517f08c379a000000000000000000000000000000000000000000000000000000000815260040180806020018281038252602e815260200180615a45602e913960400191505060405180910390fd5b60008060019054906101000a900460ff161590508015615587576001600060016101000a81548160ff02191690831515021790555060016000806101000a81548160ff0219169083151502179055505b60006155916145ff565b905080604060006101000a81548173ffffffffffffffffffffffffffffffffffffffff021916908373ffffffffffffffffffffffffffffffffffffffff1602179055508073ffffffffffffffffffffffffffffffffffffffff16600073ffffffffffffffffffffffffffffffffffffffff167f8be0079c531659141344cd1fd0a4f28419497f9722a3daafe3b4186f6b6457e060405160405180910390a35080156156515760008060016101000a81548160ff0219169083151502179055505b50565b60606156b6826040518060400160405280602081526020017f5361666545524332303a206c6f772d6c6576656c2063616c6c206661696c65648152508573ffffffffffffffffffffffffffffffffffffffff1661574a9092919063ffffffff16565b905060008151111561573e578080602001905160208110156156d757600080fd5b810190808051906020019092919050505061573d576040517f08c379a000000000000000000000000000000000000000000000000000000000815260040180806020018281038252602a815260200180615a94602a913960400191505060405180910390fd5b5b505050565b6000919050565b60606157598484600085615762565b90509392505050565b6060824710156157bd576040517f08c379a0000000000000000000000000000000000000000000000000000000008152600401808060200182810382526026815260200180615a1f6026913960400191505060405180910390fd5b6157c68561539c565b615838576040517f08c379a000000000000000000000000000000000000000000000000000000000815260040180806020018281038252601d8152602001807f416464726573733a2063616c6c20746f206e6f6e2d636f6e747261637400000081525060200191505060405180910390fd5b600060608673ffffffffffffffffffffffffffffffffffffffff1685876040518082805190602001908083835b602083106158885780518252602082019150602081019050602083039250615865565b6001836020036101000a03801982511681845116808217855250505050505090500191505060006040518083038185875af1925050503d80600081146158ea576040519150601f19603f3d011682016040523d82523d6000602084013e6158ef565b606091505b50915091506158ff82828661590b565b92505050949350505050565b6060831561591b578290506159d0565b60008351111561592e5782518084602001fd5b816040517f08c379a00000000000000000000000000000000000000000000000000000000081526004018080602001828103825283818151815260200191508051906020019080838360005b8381101561599557808201518184015260208101905061597a565b50505050905090810190601f1680156159c25780820380516001836020036101000a031916815260200191505b509250505060405180910390fd5b939250505056fe4f776e61626c653a206e6577206f776e657220697320746865207a65726f2061646472657373416d6f756e74206e6565647320746f2062652067726561746572207468616e2030416464726573733a20696e73756666696369656e742062616c616e636520666f722063616c6c496e697469616c697a61626c653a20636f6e747261637420697320616c726561647920696e697469616c697a6564536166654d6174683a206d756c7469706c69636174696f6e206f766572666c6f775361666545524332303a204552433230206f7065726174696f6e20646964206e6f742073756363656564a2646970667358221220303d91dfbfb857e6907c0eee4b41aa4b6d1db1fb4efb4fad3108999ccd58b4dd64736f6c634300060c0033",
  "immutableReferences": {},
  "source": "//To-do: fix presion\n\npragma solidity ^0.6.12;\n\nimport \"@openzeppelin/contracts-upgradeable/proxy/Initializable.sol\";\nimport \"@openzeppelin/contracts-upgradeable/access/OwnableUpgradeable.sol\";\nimport \"@openzeppelin/contracts-upgradeable/math/SafeMathUpgradeable.sol\";\nimport \"@openzeppelin/contracts-upgradeable/utils/AddressUpgradeable.sol\";\nimport \"@openzeppelin/contracts-upgradeable/token/ERC20/SafeERC20Upgradeable.sol\";\nimport \"@openzeppelin/contracts-upgradeable/token/ERC20/ERC20Upgradeable.sol\";\n\nimport \"./VaultStorage.sol\";\nimport \"../libraries/MyMath.sol\";\nimport \"../libraries/Helpers.sol\";\nimport \"../interfaces/IOracle.sol\";\nimport \"../interfaces/ISperaxToken.sol\";\n\ncontract VaultCore is Initializable, VaultStorage, OwnableUpgradeable {\n\tusing SafeERC20Upgradeable for ERC20Upgradeable;\n\tusing SafeMathUpgradeable for uint;\n\tusing MyMath for uint;\n\n\tevent USDSMinted(\n\t\taddress indexed wallet,\n\t\tuint256 indexed USDsAmt,\n\t\tuint256 indexed SPAsAmt,\n\t\tuint256 feeAmt\n\t);\n\n\tevent USDSRedeemed(\n\t\taddress indexed wallet,\n\t\tuint256 indexed USDsAmt,\n\t\tuint256 indexed SPAsAmt,\n\t\tuint256 feeAmt\n\t);\n\n\tevent TotalSupplyChanged(\n\t\tuint256 indexed oldSupply,\n\t\tuint256 indexed newSupply\n\t);\n\n\tevent SwapFeeInAllowed(\n\t\tbool indexed allowance,\n\t\tuint256 time\n\t);\n\n\tevent SwapFeeOutAllowed(\n\t\tbool indexed allowance,\n\t\tuint256 time\n\t);\n\n\tevent CollateralUpdated(\n\t\taddress indexed token,\n\t\tbool indexed allowance\n\t);\n\n\tmodifier whenMintRedeemAllowed {\n\t\trequire(mintRedeemAllowed, \"Mint & redeem paused\");\n\t\t_;\n\t}\n\n\tfunction initialize(address USDsToken_, address oracleAddr_, address BancorFormulaAddr_) public initializer {\n\t\tOwnableUpgradeable.__Ownable_init();\n\t\t// Initialize variables\n\t\tmintRedeemAllowed = true;\n\t\tswapfeeInAllowed = true;\n\t\tswapfeeOutAllowed = true;\n\t\tSPATokenAddr = 0xFb931d41A744bE590E8B51e2e343bBE030aC4f93;\n\t\tchiInit = 95000;\n\n\t\tcollaValut = address(this);\n\t\tSPAValut = address(this);\n\t\tUSDsFeeValut = address(this);\n\t\tUSDsYieldValut = address(this);\n\t\tsupportedCollat[0xb7a4F3E9097C08dA09517b5aB877F7a917224ede] = 1;\n\t\tallCollat.push(0xb7a4F3E9097C08dA09517b5aB877F7a917224ede);\n\t\tUSDsInstance = USDs(USDsToken_);\n\t\toracleAddr = oracleAddr_;\n\t\tBancorInstance = BancorFormula(BancorFormulaAddr_);\n\t\tstartBlockHeight = block.number;\n\t\t// DAI\n\t\t// 0x4f96fe3b7a6cf9725f59d353f723c1bdb64ca6aa\n\t\t// 0x777A68032a88E5A84678A77Af2CD65A7b3c0775a\n\t\t// 8\n\t\t// USDC\n\t\t// 0xb7a4F3E9097C08dA09517b5aB877F7a917224ede\n\t\t// 0x9211c6b3BF41A10F78539810Cf5c64e1BB78Ec60\n\t\t// 8\n\t\t// USDT\n\t\t// 0x07de306ff27a2b630b1141956844eb1552b956b5\n\t\t// 0x2ca5A90D34cA333661083F89D831f757A9A50148\n\t\t// 8\n\t}\n\n\n\tfunction calculateSwapFeeIn() public returns (uint) {\n\t\tif (!swapfeeInAllowed) {\n\t\t\treturn 0;\n\t\t}\n\n\t\tuint priceUSDs = uint(IOracle(oracleAddr).getUSDsPrice()); //TODO: change to 3 days average\n\t\tuint precisionUSDs = IOracle(oracleAddr).USDsPricePrecision();\n\t\tuint smallPwithPrecision = swapFee_p.mul(precisionUSDs).div(swapFee_p_Prec);\n\t\tif (smallPwithPrecision < priceUSDs) {\n\t\t\treturn swapFeePresion / 1000; // 0.1%\n\t\t} else {\n\t\t\tuint temp = (smallPwithPrecision - priceUSDs).mul(swapFee_theta).div(swapFee_theta_Prec); //precision: precisionUSDs\n\t\t\tuint temp2 = temp.mul(temp); //precision: precisionUSDs^2\n\t\t\tuint temp3 = temp2.mul(swapFeePresion).div(precisionUSDs).div(precisionUSDs);\n\t\t\tuint temp4 = temp3.div(100);\n\t\t\treturn swapFeePresion / 1000 + temp4;\n\t\t}\n\n\t}\n\n\tfunction calculateSwapFeeOut() public view returns (uint) {\n\t\tif (!swapfeeOutAllowed) {\n\t\t\treturn 0;\n\t\t}\n\t\tuint USDsInOutRatio = IOracle(oracleAddr).USDsInOutRatio();\n\t\tuint USDsInOutRatioPrecision = IOracle(oracleAddr).USDsInOutRatioPrecision();\n\t\tif (USDsInOutRatio <= uint(12).mul(USDsInOutRatioPrecision).div(10)) {\n\t\t\treturn 1000; //0.1%\n\t\t} else {\n\n\t\t\t(uint powResWithPrec, uint8 powResPrec) = BancorInstance.power(uint(swapFee_A), uint(swapFee_A_Prec), swapFee_a, swapFee_a_Prec);\n\t\t\treturn uint(powResWithPrec >> powResPrec).mul(10**4);\n\t\t}\n\t}\n\n\tfunction chiTarget(uint chiInit_, uint blockPassed, uint priceUSDs, uint precisionUSDs) public view returns (uint chiTarget_) {\n\t\tuint chiAdjustmentA = blockPassed.mul(chi_alpha).div(chi_alpha_Prec);\n\t\tuint chiAdjustmentB;\n\t\tif (priceUSDs > precisionUSDs) {\n\t\t\tchiAdjustmentB = chi_beta.mul(priceUSDs - precisionUSDs).mul(priceUSDs - precisionUSDs).div(chi_beta_Prec);\n\t\t\tchiTarget_ = chiInit_.sub(chiAdjustmentA).add(chiAdjustmentB);\n\t\t} else if (priceUSDs < precisionUSDs) {\n\t\t\tchiAdjustmentB = chi_beta.mul(precisionUSDs - priceUSDs).mul(precisionUSDs - priceUSDs).div(chi_beta_Prec);\n\t\t\tchiTarget_ = chiInit_.sub(chiAdjustmentA).sub(chiAdjustmentB);\n\t\t} else {\n\t\t\tchiTarget_ = chiInit_.sub(chiAdjustmentA);\n\t\t}\n\t}\n\n\tfunction chiMint() public returns (uint)  {\n\t\tuint priceUSDs = uint(IOracle(oracleAddr).getUSDsPrice());\n\t\tuint precisionUSDs = IOracle(oracleAddr).USDsPricePrecision();\n\t\tuint blockPassed = uint(block.number).sub(startBlockHeight);\n\t\treturn chiTarget(chiInit, blockPassed, priceUSDs, precisionUSDs);\n\t}\n\n\tfunction chiRedeem() public returns (uint chiRedeem_) {\n\t\tuint priceUSDs = uint(IOracle(oracleAddr).getUSDsPrice());\n\t\tuint precisionUSDs = IOracle(oracleAddr).USDsPricePrecision();\n\t\tuint blockPassed = uint(block.number).sub(startBlockHeight);\n\t\tuint chiTarget_ = chiTarget(chiInit, blockPassed, priceUSDs, precisionUSDs);\n\t\t//uint collateralRatio_ = collateralRatio();\n\t\tuint collateralRatio_ = chiTarget_;\n\t\tif (chiTarget_ > collateralRatio_) {\n\t\t\tchiRedeem_ = chiTarget_.add(chi_gamma.mul(chiTarget_ - collateralRatio_).div(chi_gamma_Prec));\n\t\t} else {\n\t\t\tchiRedeem_ = chiTarget_;\n\t\t}\n\n\t}\n\n\tfunction mintWithUSDs(address collaAddr, uint USDsMintAmt)\n\t\tpublic\n\t\twhenMintRedeemAllowed\n\t{\n\t\trequire(supportedCollat[collaAddr] > 0, \"Collateral not supported\");\n\t\trequire(USDsMintAmt > 0, \"Amount needs to be greater than 0\");\n\t\t_mint(collaAddr, USDsMintAmt, 0);\n\t}\n\n\tfunction mintWithSPA(address collaAddr, uint SPAAmt)\n\t\tpublic\n\t\twhenMintRedeemAllowed\n\t{\n\t\trequire(supportedCollat[collaAddr] > 0, \"Collateral not supported\");\n\t\trequire(SPAAmt > 0, \"Amount needs to be greater than 0\");\n\t\t_mint(collaAddr, SPAAmt, 1);\n\t}\n\n\tfunction mintWithColla(address collaAddr, uint CollaAmt)\n\t\tpublic\n\t\twhenMintRedeemAllowed\n\t{\n\t\trequire(supportedCollat[collaAddr] > 0, \"Collateral not supported\");\n\t\trequire(CollaAmt > 0, \"Amount needs to be greater than 0\");\n\t\t_mint(collaAddr, CollaAmt, 2);\n\t}\n\n\tfunction mintWithEth() public payable whenMintRedeemAllowed {\n    require(msg.value > 0, \"Need to pay Ether\");\n\t\t_mint(address(0), msg.value, 3);\n\t}\n\n\t//View functions\n\n\tfunction mintWithUSDsView(address collaAddr, uint USDsMintAmt)\n\t\tpublic returns (uint SPABurnAmt, uint CollaDepAmt, uint USDsAmt, uint swapFeeAmount)\n\t{\n\t\trequire(supportedCollat[collaAddr] > 0, \"Collateral not supported\");\n\t\trequire(USDsMintAmt > 0, \"Amount needs to be greater than 0\");\n\t\t(SPABurnAmt, CollaDepAmt, USDsAmt, swapFeeAmount) = mintView(collaAddr, USDsMintAmt, 0);\n\t}\n\n\tfunction mintWithSPAView(address collaAddr, uint SPAAmt)\n\t\tpublic returns (uint SPABurnAmt, uint CollaDepAmt, uint USDsAmt, uint swapFeeAmount)\n\t{\n\t\trequire(supportedCollat[collaAddr] > 0, \"Collateral not supported\");\n\t\trequire(SPAAmt > 0, \"Amount needs to be greater than 0\");\n\t\t(SPABurnAmt, CollaDepAmt, USDsAmt, swapFeeAmount)  = mintView(collaAddr, SPAAmt, 1);\n\t}\n\n\tfunction mintWithCollaView(address collaAddr, uint CollaAmt)\n\t\tpublic returns (uint SPABurnAmt, uint CollaDepAmt, uint USDsAmt, uint swapFeeAmount)\n\t{\n\t\trequire(supportedCollat[collaAddr] > 0, \"Collateral not supported\");\n\t\trequire(CollaAmt > 0, \"Amount needs to be greater than 0\");\n\t\t(SPABurnAmt, CollaDepAmt, USDsAmt, swapFeeAmount) = mintView(collaAddr, CollaAmt, 2);\n\t}\n\n\t// SPABurnAmt precision: 10^18\n\t// CollaDepAmt precision: 10^collaAddrDecimal\n\t// USDsAmt precision: 10^18\n\t// swapFeeAmount precision: swapFeePresion\n\tfunction mintWithEthView(uint CollaAmt)\n\t\tpublic returns (uint SPABurnAmt, uint CollaDepAmt, uint USDsAmt, uint swapFeeAmount)\n\t{\n\t\trequire(CollaAmt > 0, \"Amount needs to be greater than 0\");\n\t\t(SPABurnAmt, CollaDepAmt, USDsAmt, swapFeeAmount) = mintView(address(0), CollaAmt, 2);\n\t}\n\n\tfunction mintView(\n\t\taddress collaAddr,\n\t\tuint valueAmt,\n\t\tuint8 valueType\n\t) public returns (uint SPABurnAmt, uint CollaDepAmt, uint USDsAmt, uint swapFeeAmount) {\n\t\tuint priceColla = 0;\n\t\tuint precisionColla = 0;\n\t\tif (valueType == 3) {\n\t\t\tpriceColla = IOracle(oracleAddr).getETHPrice();\n\t\t\tprecisionColla = IOracle(oracleAddr).ETHPricePrecision();\n\t\t} else {\n\t\t\tpriceColla = IOracle(oracleAddr).collatPrice(collaAddr);\n\t\t\tprecisionColla = IOracle(oracleAddr).collatPricePrecision(collaAddr);\n\t\t}\n\t\tuint priceSPA = IOracle(oracleAddr).getSPAPrice();\n\t\tuint precisionSPA = IOracle(oracleAddr).SPAPricePrecision();\n\t\tuint swapFee = calculateSwapFeeIn();\n\t\tuint collaAddrDecimal = uint(ERC20Upgradeable(collaAddr).decimals());\n\n\n\t\tif (valueType == 0) {\n\t\t\tUSDsAmt = valueAmt;\n\t\t\tSPABurnAmt = USDsAmt.mul(chiPrec - chiMint()).mul(precisionSPA).div(priceSPA.mul(chiPrec));\n\t\t\tif (swapFee > 0) {\n\t\t\t\tSPABurnAmt = SPABurnAmt.add(SPABurnAmt.mul(swapFee).div(swapFeePresion));\n\t\t\t}\n\n\t\t\t//Deposit collaeral\n\t\t\tuint CollaDepAmt_18 = USDsAmt.mul(chiMint()).mul(precisionColla).div(chiPrec.mul(priceColla));\n\t\t\tCollaDepAmt = CollaDepAmt_18.div(10**(uint(18).sub(collaAddrDecimal)));\n\t\t\tif (swapFee > 0) {\n\t\t\t\tCollaDepAmt = CollaDepAmt.add(CollaDepAmt.mul(swapFee).div(swapFeePresion));\n\t\t\t}\n\n\t\t\tswapFeeAmount = USDsAmt.mul(swapFee).div(swapFeePresion);\n\t\t} else if (valueType == 1) {\n\t\t\tSPABurnAmt = valueAmt;\n\n\t\t\tUSDsAmt = SPABurnAmt;\n\t\t\tif (swapFee > 0) {\n\t\t\t\tUSDsAmt = USDsAmt.div(1 + swapFee.div(swapFeePresion));\n\t\t\t}\n\t\t\tUSDsAmt = USDsAmt.mul(chiPrec).mul(priceSPA).div(precisionSPA.mul(chiPrec - chiMint()));\n\n\t\t\t//Deposit collaeral\n\t\t\tuint CollaDepAmt_18 = USDsAmt.mul(chiMint()).mul(precisionColla).div(chiPrec.mul(priceColla));\n\t\t\tCollaDepAmt = CollaDepAmt_18.div(10**(uint(18).sub(collaAddrDecimal)));\n\t\t\tif (swapFee > 0) {\n\t\t\t\tCollaDepAmt = CollaDepAmt.add(CollaDepAmt.mul(swapFee).div(swapFeePresion));\n\t\t\t}\n\n\t\t\tswapFeeAmount = USDsAmt.mul(swapFee).div(swapFeePresion);\n\t\t} else if (valueType == 2 || valueType == 3) {\n\t\t\tCollaDepAmt = valueAmt;\n\t\t\tuint CollaDepAmt_18 = CollaDepAmt.mul(10**(uint(18).sub(collaAddrDecimal)));\n\t\t\tUSDsAmt = CollaDepAmt_18.mul(chiPrec.mul(priceColla)).div(precisionColla).div(chiMint());\n\n\t\t\tSPABurnAmt = USDsAmt.mul(chiPrec - chiMint()).mul(precisionSPA).div(priceSPA.mul(chiPrec));\n\t\t\tif (swapFee > 0) {\n\t\t\t\tSPABurnAmt = SPABurnAmt.add(SPABurnAmt.mul(swapFee).div(swapFeePresion));\n\t\t\t}\n\n\t\t\tswapFeeAmount = USDsAmt.mul(swapFee).div(swapFeePresion);\n\t\t}\n\t}\n\n\tfunction _mint(\n\t\taddress collaAddr,\n\t\tuint valueAmt,\n\t\tuint8 valueType\n\t) internal whenMintRedeemAllowed {\n\t\t(uint SPABurnAmt, uint CollaDepAmt, uint USDsAmt, uint swapFeeAmount) = mintView(collaAddr, valueAmt, valueType);\n\t\tISperaxToken(SPATokenAddr).burnFrom(msg.sender, SPABurnAmt);\n\t\tif (valueType != 3) {\n\t\t\tERC20Upgradeable(collaAddr).safeTransferFrom(msg.sender, collaValut, CollaDepAmt);\n\t\t}\n\t\tUSDsInstance.mint(msg.sender, USDsAmt);\n\t\tUSDsInstance.mint(USDsFeeValut, swapFeeAmount);\n\n\t\temit USDSMinted(msg.sender, USDsAmt, SPABurnAmt, swapFeeAmount);\n\t}\n\n\tfunction redeem(address collaAddr, uint USDsAmt)\n\t\tpublic\n\t\twhenMintRedeemAllowed\n\t{\n\t\trequire(supportedCollat[collaAddr] > 0, \"Collateral not supported\");\n\t\trequire(USDsAmt > 0, \"Amount needs to be greater than 0\");\n\t\t_redeem(collaAddr, USDsAmt);\n\t}\n\n\n\tfunction redeemView(\n\t\taddress collaAddr,\n\t\tuint USDsAmt\n\t) public returns (uint SPAMintAmt, uint CollaUnlockAmtCorrect, uint USDsBurntAmt, uint swapFeeAmount) {\n\t\tuint priceColla = IOracle(oracleAddr).collatPrice(collaAddr);\n\t\tuint precisionColla = IOracle(oracleAddr).collatPricePrecision(collaAddr);\n\t\tuint priceSPA = IOracle(oracleAddr).getSPAPrice();\n\t\tuint precisionSPA = IOracle(oracleAddr).SPAPricePrecision();\n\t\tuint swapFee = calculateSwapFeeOut();\n\t\tSPAMintAmt = USDsAmt.mul(chiPrec - chiRedeem()).mul(precisionSPA).div(priceSPA.mul(chiPrec));\n\t\tif (swapFee > 0) {\n\t\t\tSPAMintAmt = SPAMintAmt.sub(SPAMintAmt.mul(swapFee).div(swapFeePresion));\n\t\t}\n\n\t\t//Unlock collaeral\n\t\tuint CollaUnlockAmt = USDsAmt.mul(chiRedeem().mul(precisionColla)).div(chiPrec.mul(priceColla));\n\t\tif (swapFee > 0) {\n\t\t\tCollaUnlockAmt = CollaUnlockAmt.sub(CollaUnlockAmt.mul(swapFee).div(swapFeePresion));\n\t\t}\n\t\tuint collaAddrDecimal = uint(ERC20Upgradeable(collaAddr).decimals());\n\t\tCollaUnlockAmtCorrect =  CollaUnlockAmt.div(10**(uint(18).sub(collaAddrDecimal)));\n\n\t\t//Burn USDs\n\t\tswapFeeAmount = USDsAmt.mul(swapFee).div(swapFeePresion);\n\t\tUSDsBurntAmt =  USDsAmt.sub(swapFeeAmount);\n\t}\n\n\tfunction _redeem(\n\t\taddress collaAddr,\n\t\tuint USDsAmt\n\t) internal whenMintRedeemAllowed {\n\t\t(uint SPAMintAmt, uint CollaUnlockAmtCorrect, uint USDsBurntAmt, uint swapFeeAmount) = redeemView(collaAddr, USDsAmt);\n\t\tERC20Upgradeable(collaAddr).safeTransferFrom(SPAValut, msg.sender, SPAMintAmt);\n\t\tERC20Upgradeable(collaAddr).safeTransferFrom(collaValut, msg.sender, CollaUnlockAmtCorrect);\n\t\tUSDsInstance.burn(msg.sender, USDsBurntAmt);\n\t\tUSDsInstance.transferFrom(msg.sender, USDsFeeValut, swapFeeAmount);\n\n\t\temit USDSRedeemed(msg.sender, USDsBurntAmt, SPAMintAmt, swapFeeAmount);\n\t}\n\n\t/**\n\t * @dev Calculate the total value of assets held by the Vault and all\n\t *      strategies and update the supply of USDs.\n\t */\n\tfunction rebase() public {\n\t\t_rebase();\n\t}\n\n\t/**\n\t * @dev Calculate the total value of assets held by the Vault and all\n\t *      strategies and update the supply of USDs, optionaly sending a\n\t *      portion of the yield to the trustee.\n\t */\n\tfunction _rebase() internal {\n\t\tuint256 totalSupply = USDsInstance.totalSupply();\n\t\tuint256 vaultValue = _totalValue();\n\n\t\tif (vaultValue > totalSupply && totalSupply != 0) {\n\t\t\tUSDsInstance.changeSupply(vaultValue);\n\n\t\t\temit TotalSupplyChanged(totalSupply, vaultValue);\n\t\t}\n\t}\n\n\t/**\n\t * @dev  Precision: same as chi\n\t */\n\n\tfunction collateralRatio() public view returns (uint256 ratio) {\n        uint totalValue = _totalValue();\n\t\tuint USDsSupply =  USDsInstance.totalSupply();\n\t\tratio = totalValue.mul(chiPrec).div(USDsSupply);\n    }\n\n\t/**\n     * @dev Determine the total value of assets held by the vault and its\n     *         strategies.\n     * @return value Total value in USD (1e18)\n     */\n    function totalValue() external view returns (uint256 value) {\n        value = _totalValue();\n    }\n\n    /**\n     * @dev Internal Calculate the total value of the assets held by the\n     *         vault and its strategies.\n     * @return value Total value in USD (1e18)\n     */\n    function _totalValue() internal view returns (uint256 value) {\n        return _totalValueInVault().add(_totalValueInStrategies());\n    }\n\n    /**\n     * @dev Internal to calculate total value of all assets held in Vault.\n     * @return value in ETH (1e18)\n     */\n    function _totalValueInVault() internal view returns (uint256 value) {\n        // for (uint256 y = 0; y < allCollat.length; y++) {\n        //     ERC20Upgradeable asset = ERC20Upgradeable(allCollat[y]);\n        //     uint256 assetDecimals = Helpers.getDecimals(allCollat[y]);\n        //     uint256 balance = asset.balanceOf(address(this));\n        //     if (balance > 0) {\n        //         value = value.add(balance.scaleBy(int8(18 - assetDecimals)));\n        //     }\n        // }\n    }\n\n    /**\n     * @dev Internal to calculate total value of all assets held in Strategies.\n     * @return value in ETH (1e18)\n     */\n    function _totalValueInStrategies() internal view returns (uint256 value) {\n        for (uint256 i = 0; i < allStrategies.length; i++) {\n            value = value.add(_totalValueInStrategy(allStrategies[i]));\n        }\n    }\n\n    /**\n     * @dev Internal to calculate total value of all assets held by strategy.\n     * @param _strategyAddr Address of the strategy\n     * @return value in ETH (1e18)\n     */\n    function _totalValueInStrategy(address _strategyAddr)\n        internal\n        view\n        returns (uint256 value)\n    {\n        value = 0;\n    }\n\n\t/**\n     * @notice Get the balance of an asset held in Vault and all strategies.\n     * @param _asset Address of asset\n     * @return uint256 Balance of asset in decimals of asset\n     */\n    function checkBalance(address _asset) external view returns (uint256) {\n        return _checkBalance(_asset);\n    }\n\n    /**\n     * @notice Get the balance of an asset held in Vault and all strategies.\n     * @param _asset Address of asset\n     * @return balance Balance of asset in decimals of asset\n     */\n    function _checkBalance(address _asset)\n        internal\n        view\n        returns (uint256 balance)\n    {\n        ERC20Upgradeable asset = ERC20Upgradeable(_asset);\n        balance = asset.balanceOf(address(this));\n        // for (uint256 i = 0; i < allStrategies.length; i++) {\n        //     IStrategy strategy = IStrategy(allStrategies[i]);\n        //     if (strategy.supportsAsset(_asset)) {\n        //         balance = balance.add(strategy.checkBalance(_asset));\n        //     }\n        // }\n    }\n\n    //\n    // Owner Only Function: change swap fee allowance\n    //\n\n    function toggleSwapfeeInAllowed(bool newAllowance) external onlyOwner {\n      swapfeeInAllowed = newAllowance;\n\n\t\t\temit SwapFeeInAllowed(newAllowance, block.timestamp);\n    }\n\n    function toggleSwapfeeOutAllowed(bool newAllowance) external onlyOwner {\n      swapfeeOutAllowed = newAllowance;\n\n\t\t\temit SwapFeeOutAllowed(newAllowance, block.timestamp);\n    }\n\n    function updateCollateralList(address collatAddress, bool allowance) external onlyOwner {\n\t\t\tif (allowance) {\n\t\t\t\trequire(supportedCollat[collatAddress] == 0, \"Collateral already allowed\");\n\t\t\t\tallCollat.push(collatAddress);\n\t\t\t\tsupportedCollat[collatAddress] = allCollat.length;\n\t\t\t} else {\n\t\t\t\trequire(supportedCollat[collatAddress] > 0, \"Collateral not allowed\");\n\t\t\t\tallCollat[supportedCollat[collatAddress] - 1] = allCollat[allCollat.length - 1];\n\t\t\t\tallCollat.pop();\n\t\t\t\tdelete supportedCollat[collatAddress];\n\t\t\t}\n\n\t\t\temit CollateralUpdated(collatAddress, allowance);\n    }\n}\n",
  "sourcePath": "/Volumes/Work/Sperax/USDs/contracts/vault/VaultCore.sol",
  "compiler": {
    "name": "solc",
    "version": "0.6.12+commit.27d51765.Emscripten.clang"
  },
  "schemaVersion": "3.4.0",
  "updatedAt": "2021-08-05T12:49:26.862Z",
  "devdoc": {
    "kind": "dev",
    "methods": {
      "checkBalance(address)": {
        "params": {
          "_asset": "Address of asset"
        },
        "returns": {
          "_0": "uint256 Balance of asset in decimals of asset"
        }
      },
      "collateralRatio()": {
        "details": "Precision: same as chi"
      },
      "owner()": {
        "details": "Returns the address of the current owner."
      },
      "rebase()": {
        "details": "Calculate the total value of assets held by the Vault and all      strategies and update the supply of USDs."
      },
      "renounceOwnership()": {
        "details": "Leaves the contract without owner. It will not be possible to call `onlyOwner` functions anymore. Can only be called by the current owner. NOTE: Renouncing ownership will leave the contract without an owner, thereby removing any functionality that is only available to the owner."
      },
      "totalValue()": {
        "details": "Determine the total value of assets held by the vault and its         strategies.",
        "returns": {
          "value": "Total value in USD (1e18)"
        }
      },
      "transferOwnership(address)": {
        "details": "Transfers ownership of the contract to a new account (`newOwner`). Can only be called by the current owner."
      }
    },
    "version": 1
  },
  "userdoc": {
    "kind": "user",
    "methods": {
      "checkBalance(address)": {
        "notice": "Get the balance of an asset held in Vault and all strategies."
      }
    },
    "version": 1
  }
}