{
  "contractName": "VaultAdmin",
  "abi": [
    {
      "anonymous": false,
      "inputs": [
        {
          "indexed": true,
          "internalType": "address",
          "name": "previousOwner",
          "type": "address"
        },
        {
          "indexed": true,
          "internalType": "address",
          "name": "newOwner",
          "type": "address"
        }
      ],
      "name": "OwnershipTransferred",
      "type": "event"
    },
    {
      "inputs": [],
      "name": "SPATokenAddr",
      "outputs": [
        {
          "internalType": "address",
          "name": "",
          "type": "address"
        }
      ],
      "stateMutability": "view",
      "type": "function"
    },
    {
      "inputs": [],
      "name": "SPAValut",
      "outputs": [
        {
          "internalType": "address",
          "name": "",
          "type": "address"
        }
      ],
      "stateMutability": "view",
      "type": "function"
    },
    {
      "inputs": [],
      "name": "USDsFeeValut",
      "outputs": [
        {
          "internalType": "address",
          "name": "",
          "type": "address"
        }
      ],
      "stateMutability": "view",
      "type": "function"
    },
    {
      "inputs": [],
      "name": "USDsYieldValut",
      "outputs": [
        {
          "internalType": "address",
          "name": "",
          "type": "address"
        }
      ],
      "stateMutability": "view",
      "type": "function"
    },
    {
      "inputs": [],
      "name": "chiInit",
      "outputs": [
        {
          "internalType": "uint256",
          "name": "",
          "type": "uint256"
        }
      ],
      "stateMutability": "view",
      "type": "function"
    },
    {
      "inputs": [],
      "name": "chiPrec",
      "outputs": [
        {
          "internalType": "uint256",
          "name": "",
          "type": "uint256"
        }
      ],
      "stateMutability": "view",
      "type": "function"
    },
    {
      "inputs": [],
      "name": "chi_alpha",
      "outputs": [
        {
          "internalType": "uint256",
          "name": "",
          "type": "uint256"
        }
      ],
      "stateMutability": "view",
      "type": "function"
    },
    {
      "inputs": [],
      "name": "chi_alpha_Prec",
      "outputs": [
        {
          "internalType": "uint256",
          "name": "",
          "type": "uint256"
        }
      ],
      "stateMutability": "view",
      "type": "function"
    },
    {
      "inputs": [],
      "name": "chi_beta",
      "outputs": [
        {
          "internalType": "uint256",
          "name": "",
          "type": "uint256"
        }
      ],
      "stateMutability": "view",
      "type": "function"
    },
    {
      "inputs": [],
      "name": "chi_beta_Prec",
      "outputs": [
        {
          "internalType": "uint256",
          "name": "",
          "type": "uint256"
        }
      ],
      "stateMutability": "view",
      "type": "function"
    },
    {
      "inputs": [],
      "name": "chi_gamma",
      "outputs": [
        {
          "internalType": "uint256",
          "name": "",
          "type": "uint256"
        }
      ],
      "stateMutability": "view",
      "type": "function"
    },
    {
      "inputs": [],
      "name": "chi_gamma_Prec",
      "outputs": [
        {
          "internalType": "uint256",
          "name": "",
          "type": "uint256"
        }
      ],
      "stateMutability": "view",
      "type": "function"
    },
    {
      "inputs": [],
      "name": "collaValut",
      "outputs": [
        {
          "internalType": "address",
          "name": "",
          "type": "address"
        }
      ],
      "stateMutability": "view",
      "type": "function"
    },
    {
      "inputs": [],
      "name": "mintRedeemAllowed",
      "outputs": [
        {
          "internalType": "bool",
          "name": "",
          "type": "bool"
        }
      ],
      "stateMutability": "view",
      "type": "function"
    },
    {
      "inputs": [],
      "name": "oracleAddr",
      "outputs": [
        {
          "internalType": "address",
          "name": "",
          "type": "address"
        }
      ],
      "stateMutability": "view",
      "type": "function"
    },
    {
      "inputs": [],
      "name": "owner",
      "outputs": [
        {
          "internalType": "address",
          "name": "",
          "type": "address"
        }
      ],
      "stateMutability": "view",
      "type": "function"
    },
    {
      "inputs": [],
      "name": "renounceOwnership",
      "outputs": [],
      "stateMutability": "nonpayable",
      "type": "function"
    },
    {
      "inputs": [],
      "name": "startBlockHeight",
      "outputs": [
        {
          "internalType": "uint256",
          "name": "",
          "type": "uint256"
        }
      ],
      "stateMutability": "view",
      "type": "function"
    },
    {
      "inputs": [],
      "name": "swapFeePresion",
      "outputs": [
        {
          "internalType": "uint256",
          "name": "",
          "type": "uint256"
        }
      ],
      "stateMutability": "view",
      "type": "function"
    },
    {
      "inputs": [],
      "name": "swapFee_A",
      "outputs": [
        {
          "internalType": "uint256",
          "name": "",
          "type": "uint256"
        }
      ],
      "stateMutability": "view",
      "type": "function"
    },
    {
      "inputs": [],
      "name": "swapFee_A_Prec",
      "outputs": [
        {
          "internalType": "uint256",
          "name": "",
          "type": "uint256"
        }
      ],
      "stateMutability": "view",
      "type": "function"
    },
    {
      "inputs": [],
      "name": "swapFee_a",
      "outputs": [
        {
          "internalType": "uint32",
          "name": "",
          "type": "uint32"
        }
      ],
      "stateMutability": "view",
      "type": "function"
    },
    {
      "inputs": [],
      "name": "swapFee_a_Prec",
      "outputs": [
        {
          "internalType": "uint32",
          "name": "",
          "type": "uint32"
        }
      ],
      "stateMutability": "view",
      "type": "function"
    },
    {
      "inputs": [],
      "name": "swapFee_p",
      "outputs": [
        {
          "internalType": "uint256",
          "name": "",
          "type": "uint256"
        }
      ],
      "stateMutability": "view",
      "type": "function"
    },
    {
      "inputs": [],
      "name": "swapFee_p_Prec",
      "outputs": [
        {
          "internalType": "uint256",
          "name": "",
          "type": "uint256"
        }
      ],
      "stateMutability": "view",
      "type": "function"
    },
    {
      "inputs": [],
      "name": "swapFee_theta",
      "outputs": [
        {
          "internalType": "uint256",
          "name": "",
          "type": "uint256"
        }
      ],
      "stateMutability": "view",
      "type": "function"
    },
    {
      "inputs": [],
      "name": "swapFee_theta_Prec",
      "outputs": [
        {
          "internalType": "uint256",
          "name": "",
          "type": "uint256"
        }
      ],
      "stateMutability": "view",
      "type": "function"
    },
    {
      "inputs": [],
      "name": "swapfeeInAllowed",
      "outputs": [
        {
          "internalType": "bool",
          "name": "",
          "type": "bool"
        }
      ],
      "stateMutability": "view",
      "type": "function"
    },
    {
      "inputs": [],
      "name": "swapfeeOutAllowed",
      "outputs": [
        {
          "internalType": "bool",
          "name": "",
          "type": "bool"
        }
      ],
      "stateMutability": "view",
      "type": "function"
    },
    {
      "inputs": [
        {
          "internalType": "address",
          "name": "newOwner",
          "type": "address"
        }
      ],
      "name": "transferOwnership",
      "outputs": [],
      "stateMutability": "nonpayable",
      "type": "function"
    },
    {
      "inputs": [],
      "name": "pauseMintBurn",
      "outputs": [],
      "stateMutability": "nonpayable",
      "type": "function"
    },
    {
      "inputs": [],
      "name": "unpauseMintBurn",
      "outputs": [],
      "stateMutability": "nonpayable",
      "type": "function"
    }
  ],
  "bytecode": "0x608060405234801561001057600080fd5b50610d5e806100206000396000f3fe608060405234801561001057600080fd5b50600436106101f05760003560e01c806396fd7db61161010f578063ceee77ed116100a2578063faa5f34b11610071578063faa5f34b146105d3578063faeddc90146105f1578063fc703aa61461060f578063fc9dc4ff1461062d576101f0565b8063ceee77ed14610509578063e1da53801461053d578063f2fde38b1461055b578063f62f84301461059f576101f0565b8063a0fda95e116100de578063a0fda95e14610465578063bbf274be14610483578063be002f6e146104a1578063cc31fccb146104d5576101f0565b806396fd7db6146103eb5780639c11ca73146104095780639f8fdafe14610427578063a09caa1814610445576101f0565b806357635e9111610187578063715018a611610156578063715018a61461035b57806372386371146103655780637e4e61d7146103835780638da5cb5b146103b7576101f0565b806357635e91146102ed5780635e0d5f131461030d5780636daf7dbc146103315780637080460f1461033b576101f0565b806333f8bdfe116101c357806333f8bdfe1461026f57806337d87d701461028d5780633f521f8c146102b15780634b521499146102cf576101f0565b806316e63e30146101f5578063276545fe146102295780632a309ef91461024757806332ad97ab14610251575b600080fd5b6101fd61064b565b604051808273ffffffffffffffffffffffffffffffffffffffff16815260200191505060405180910390f35b610231610671565b6040518082815260200191505060405180910390f35b61024f610676565b005b610259610741565b6040518082815260200191505060405180910390f35b61027761074f565b6040518082815260200191505060405180910390f35b610295610756565b604051808263ffffffff16815260200191505060405180910390f35b6102b961075b565b6040518082815260200191505060405180910390f35b6102d7610760565b6040518082815260200191505060405180910390f35b6102f5610767565b60405180821515815260200191505060405180910390f35b610315610778565b604051808263ffffffff16815260200191505060405180910390f35b61033961077d565b005b610343610848565b60405180821515815260200191505060405180910390f35b61036361085b565b005b61036d6109cb565b6040518082815260200191505060405180910390f35b61038b6109d6565b604051808273ffffffffffffffffffffffffffffffffffffffff16815260200191505060405180910390f35b6103bf6109fc565b604051808273ffffffffffffffffffffffffffffffffffffffff16815260200191505060405180910390f35b6103f3610a26565b6040518082815260200191505060405180910390f35b610411610a2b565b6040518082815260200191505060405180910390f35b61042f610a30565b6040518082815260200191505060405180910390f35b61044d610a35565b60405180821515815260200191505060405180910390f35b61046d610a48565b6040518082815260200191505060405180910390f35b61048b610a4d565b6040518082815260200191505060405180910390f35b6104a9610a52565b604051808273ffffffffffffffffffffffffffffffffffffffff16815260200191505060405180910390f35b6104dd610a78565b604051808273ffffffffffffffffffffffffffffffffffffffff16815260200191505060405180910390f35b610511610a9e565b604051808273ffffffffffffffffffffffffffffffffffffffff16815260200191505060405180910390f35b610545610ac4565b6040518082815260200191505060405180910390f35b61059d6004803603602081101561057157600080fd5b81019080803573ffffffffffffffffffffffffffffffffffffffff169060200190929190505050610ac9565b005b6105a7610cbe565b604051808273ffffffffffffffffffffffffffffffffffffffff16815260200191505060405180910390f35b6105db610ce4565b6040518082815260200191505060405180910390f35b6105f9610ce9565b6040518082815260200191505060405180910390f35b610617610cef565b6040518082815260200191505060405180910390f35b610635610cf4565b6040518082815260200191505060405180910390f35b600460009054906101000a900473ffffffffffffffffffffffffffffffffffffffff1681565b606381565b61067e610cfa565b73ffffffffffffffffffffffffffffffffffffffff1661069c6109fc565b73ffffffffffffffffffffffffffffffffffffffff1614610725576040517f08c379a00000000000000000000000000000000000000000000000000000000081526004018080602001828103825260208152602001807f4f776e61626c653a2063616c6c6572206973206e6f7420746865206f776e657281525060200191505060405180910390fd5b60016000806101000a81548160ff021916908315150217905550565b69152d02c7e14af680000081565b620186a081565b600c81565b600181565b620f424081565b60008054906101000a900460ff1681565b600a81565b610785610cfa565b73ffffffffffffffffffffffffffffffffffffffff166107a36109fc565b73ffffffffffffffffffffffffffffffffffffffff161461082c576040517f08c379a00000000000000000000000000000000000000000000000000000000081526004018080602001828103825260208152602001807f4f776e61626c653a2063616c6c6572206973206e6f7420746865206f776e657281525060200191505060405180910390fd5b60008060006101000a81548160ff021916908315150217905550565b600060029054906101000a900460ff1681565b610863610cfa565b73ffffffffffffffffffffffffffffffffffffffff166108816109fc565b73ffffffffffffffffffffffffffffffffffffffff161461090a576040517f08c379a00000000000000000000000000000000000000000000000000000000081526004018080602001828103825260208152602001807f4f776e61626c653a2063616c6c6572206973206e6f7420746865206f776e657281525060200191505060405180910390fd5b600073ffffffffffffffffffffffffffffffffffffffff16604060009054906101000a900473ffffffffffffffffffffffffffffffffffffffff1673ffffffffffffffffffffffffffffffffffffffff167f8be0079c531659141344cd1fd0a4f28419497f9722a3daafe3b4186f6b6457e060405160405180910390a36000604060006101000a81548173ffffffffffffffffffffffffffffffffffffffff021916908373ffffffffffffffffffffffffffffffffffffffff160217905550565b66123a3aa239f65c81565b600560009054906101000a900473ffffffffffffffffffffffffffffffffffffffff1681565b6000604060009054906101000a900473ffffffffffffffffffffffffffffffffffffffff16905090565b600981565b600181565b600181565b600060019054906101000a900460ff1681565b601481565b606481565b600860009054906101000a900473ffffffffffffffffffffffffffffffffffffffff1681565b600960009054906101000a900473ffffffffffffffffffffffffffffffffffffffff1681565b600660009054906101000a900473ffffffffffffffffffffffffffffffffffffffff1681565b603281565b610ad1610cfa565b73ffffffffffffffffffffffffffffffffffffffff16610aef6109fc565b73ffffffffffffffffffffffffffffffffffffffff1614610b78576040517f08c379a00000000000000000000000000000000000000000000000000000000081526004018080602001828103825260208152602001807f4f776e61626c653a2063616c6c6572206973206e6f7420746865206f776e657281525060200191505060405180910390fd5b600073ffffffffffffffffffffffffffffffffffffffff168173ffffffffffffffffffffffffffffffffffffffff161415610bfe576040517f08c379a0000000000000000000000000000000000000000000000000000000008152600401808060200182810382526026815260200180610d036026913960400191505060405180910390fd5b8073ffffffffffffffffffffffffffffffffffffffff16604060009054906101000a900473ffffffffffffffffffffffffffffffffffffffff1673ffffffffffffffffffffffffffffffffffffffff167f8be0079c531659141344cd1fd0a4f28419497f9722a3daafe3b4186f6b6457e060405160405180910390a380604060006101000a81548173ffffffffffffffffffffffffffffffffffffffff021916908373ffffffffffffffffffffffffffffffffffffffff16021790555050565b600760009054906101000a900473ffffffffffffffffffffffffffffffffffffffff1681565b600181565b600b5481565b600181565b600a5481565b60003390509056fe4f776e61626c653a206e6577206f776e657220697320746865207a65726f2061646472657373a2646970667358221220d7a835ffbf981045771a8cc87dab01db1f0e0f26e4ff2a7d8074ba256872329864736f6c634300060c0033",
  "immutableReferences": {},
  "source": "pragma solidity ^0.6.12;\n\nimport \"./VaultStorage.sol\";\nimport \"@openzeppelin/contracts-upgradeable/access/OwnableUpgradeable.sol\";\n\ncontract VaultAdmin is VaultStorage, OwnableUpgradeable {\n\tfunction pauseMintBurn() external onlyOwner {\n\t\tmintRedeemAllowed = false;\n\t}\n\tfunction unpauseMintBurn() external onlyOwner {\n\t\tmintRedeemAllowed = true;\n\t}\n}\n",
  "sourcePath": "/Volumes/Work/Sperax/USDs/contracts/vault/VaultAdmin.sol",
  "compiler": {
    "name": "solc",
    "version": "0.6.12+commit.27d51765.Emscripten.clang"
  },
  "schemaVersion": "3.4.0",
  "updatedAt": "2021-07-23T14:10:31.078Z",
  "devdoc": {
    "kind": "dev",
    "methods": {
      "owner()": {
        "details": "Returns the address of the current owner."
      },
      "renounceOwnership()": {
        "details": "Leaves the contract without owner. It will not be possible to call `onlyOwner` functions anymore. Can only be called by the current owner. NOTE: Renouncing ownership will leave the contract without an owner, thereby removing any functionality that is only available to the owner."
      },
      "transferOwnership(address)": {
        "details": "Transfers ownership of the contract to a new account (`newOwner`). Can only be called by the current owner."
      }
    },
    "version": 1
  },
  "userdoc": {
    "kind": "user",
    "methods": {},
    "version": 1
  }
}