{
  "contractName": "VaultCore",
  "abi": [
    {
      "inputs": [
        {
          "internalType": "address",
          "name": "USDsToken_",
          "type": "address"
        },
        {
          "internalType": "address",
          "name": "oracleAddr_",
          "type": "address"
        },
        {
          "internalType": "address",
          "name": "BancorFormulaAddr_",
          "type": "address"
        }
      ],
      "stateMutability": "nonpayable",
      "type": "constructor"
    },
    {
      "anonymous": false,
      "inputs": [
        {
          "indexed": true,
          "internalType": "address",
          "name": "previousOwner",
          "type": "address"
        },
        {
          "indexed": true,
          "internalType": "address",
          "name": "newOwner",
          "type": "address"
        }
      ],
      "name": "OwnershipTransferred",
      "type": "event"
    },
    {
      "inputs": [],
      "name": "Q112",
      "outputs": [
        {
          "internalType": "uint256",
          "name": "",
          "type": "uint256"
        }
      ],
      "stateMutability": "view",
      "type": "function",
      "constant": true
    },
    {
      "inputs": [],
      "name": "SPATokenAddr",
      "outputs": [
        {
          "internalType": "address",
          "name": "",
          "type": "address"
        }
      ],
      "stateMutability": "view",
      "type": "function",
      "constant": true
    },
    {
      "inputs": [],
      "name": "SPAValut",
      "outputs": [
        {
          "internalType": "address",
          "name": "",
          "type": "address"
        }
      ],
      "stateMutability": "view",
      "type": "function",
      "constant": true
    },
    {
      "inputs": [],
      "name": "USDsFeeValut",
      "outputs": [
        {
          "internalType": "address",
          "name": "",
          "type": "address"
        }
      ],
      "stateMutability": "view",
      "type": "function",
      "constant": true
    },
    {
      "inputs": [],
      "name": "USDsYieldValut",
      "outputs": [
        {
          "internalType": "address",
          "name": "",
          "type": "address"
        }
      ],
      "stateMutability": "view",
      "type": "function",
      "constant": true
    },
    {
      "inputs": [],
      "name": "chiAlpha",
      "outputs": [
        {
          "internalType": "uint256",
          "name": "",
          "type": "uint256"
        }
      ],
      "stateMutability": "view",
      "type": "function",
      "constant": true
    },
    {
      "inputs": [],
      "name": "chiAlpha_Presion",
      "outputs": [
        {
          "internalType": "uint256",
          "name": "",
          "type": "uint256"
        }
      ],
      "stateMutability": "view",
      "type": "function",
      "constant": true
    },
    {
      "inputs": [],
      "name": "chiBeta",
      "outputs": [
        {
          "internalType": "uint256",
          "name": "",
          "type": "uint256"
        }
      ],
      "stateMutability": "view",
      "type": "function",
      "constant": true
    },
    {
      "inputs": [],
      "name": "chiGamma",
      "outputs": [
        {
          "internalType": "uint256",
          "name": "",
          "type": "uint256"
        }
      ],
      "stateMutability": "view",
      "type": "function",
      "constant": true
    },
    {
      "inputs": [],
      "name": "chiInit",
      "outputs": [
        {
          "internalType": "uint256",
          "name": "",
          "type": "uint256"
        }
      ],
      "stateMutability": "view",
      "type": "function",
      "constant": true
    },
    {
      "inputs": [],
      "name": "chiPresion",
      "outputs": [
        {
          "internalType": "uint256",
          "name": "",
          "type": "uint256"
        }
      ],
      "stateMutability": "view",
      "type": "function",
      "constant": true
    },
    {
      "inputs": [],
      "name": "collaValut",
      "outputs": [
        {
          "internalType": "address",
          "name": "",
          "type": "address"
        }
      ],
      "stateMutability": "view",
      "type": "function",
      "constant": true
    },
    {
      "inputs": [],
      "name": "isOwner",
      "outputs": [
        {
          "internalType": "bool",
          "name": "",
          "type": "bool"
        }
      ],
      "stateMutability": "view",
      "type": "function",
      "constant": true
    },
    {
      "inputs": [],
      "name": "mintRedeemAllowed",
      "outputs": [
        {
          "internalType": "bool",
          "name": "",
          "type": "bool"
        }
      ],
      "stateMutability": "view",
      "type": "function",
      "constant": true
    },
    {
      "inputs": [],
      "name": "oracleAddr",
      "outputs": [
        {
          "internalType": "address",
          "name": "",
          "type": "address"
        }
      ],
      "stateMutability": "view",
      "type": "function",
      "constant": true
    },
    {
      "inputs": [],
      "name": "owner",
      "outputs": [
        {
          "internalType": "address",
          "name": "",
          "type": "address"
        }
      ],
      "stateMutability": "view",
      "type": "function",
      "constant": true
    },
    {
      "inputs": [],
      "name": "renounceOwnership",
      "outputs": [],
      "stateMutability": "nonpayable",
      "type": "function"
    },
    {
      "inputs": [],
      "name": "swapFeePresion",
      "outputs": [
        {
          "internalType": "uint256",
          "name": "",
          "type": "uint256"
        }
      ],
      "stateMutability": "view",
      "type": "function",
      "constant": true
    },
    {
      "inputs": [],
      "name": "swapFeeTheta",
      "outputs": [
        {
          "internalType": "uint256",
          "name": "",
          "type": "uint256"
        }
      ],
      "stateMutability": "view",
      "type": "function",
      "constant": true
    },
    {
      "inputs": [],
      "name": "swapFee_P",
      "outputs": [
        {
          "internalType": "uint256",
          "name": "",
          "type": "uint256"
        }
      ],
      "stateMutability": "view",
      "type": "function",
      "constant": true
    },
    {
      "inputs": [],
      "name": "swapFee_PPresion",
      "outputs": [
        {
          "internalType": "uint256",
          "name": "",
          "type": "uint256"
        }
      ],
      "stateMutability": "view",
      "type": "function",
      "constant": true
    },
    {
      "inputs": [],
      "name": "swapfeeInAllowed",
      "outputs": [
        {
          "internalType": "bool",
          "name": "",
          "type": "bool"
        }
      ],
      "stateMutability": "view",
      "type": "function",
      "constant": true
    },
    {
      "inputs": [],
      "name": "swapfeeOutAllowed",
      "outputs": [
        {
          "internalType": "bool",
          "name": "",
          "type": "bool"
        }
      ],
      "stateMutability": "view",
      "type": "function",
      "constant": true
    },
    {
      "inputs": [
        {
          "internalType": "address",
          "name": "newOwner",
          "type": "address"
        }
      ],
      "name": "transferOwnership",
      "outputs": [],
      "stateMutability": "nonpayable",
      "type": "function"
    },
    {
      "inputs": [],
      "name": "calculateSwapFeeIn",
      "outputs": [
        {
          "internalType": "uint256",
          "name": "",
          "type": "uint256"
        }
      ],
      "stateMutability": "view",
      "type": "function",
      "constant": true
    },
    {
      "inputs": [],
      "name": "calculateSwapFeeOut",
      "outputs": [
        {
          "internalType": "uint256",
          "name": "",
          "type": "uint256"
        }
      ],
      "stateMutability": "view",
      "type": "function",
      "constant": true
    },
    {
      "inputs": [
        {
          "internalType": "uint256",
          "name": "chiInit_",
          "type": "uint256"
        },
        {
          "internalType": "uint256",
          "name": "blockHeight",
          "type": "uint256"
        },
        {
          "internalType": "uint256",
          "name": "priceUSDs",
          "type": "uint256"
        },
        {
          "internalType": "uint256",
          "name": "precisionUSDs",
          "type": "uint256"
        }
      ],
      "name": "chiTarget",
      "outputs": [
        {
          "internalType": "uint256",
          "name": "chiTarget_",
          "type": "uint256"
        }
      ],
      "stateMutability": "view",
      "type": "function",
      "constant": true
    },
    {
      "inputs": [],
      "name": "chiMint",
      "outputs": [
        {
          "internalType": "uint256",
          "name": "",
          "type": "uint256"
        }
      ],
      "stateMutability": "view",
      "type": "function",
      "constant": true
    },
    {
      "inputs": [],
      "name": "chiRedeem",
      "outputs": [
        {
          "internalType": "uint256",
          "name": "chiRedeem_",
          "type": "uint256"
        }
      ],
      "stateMutability": "view",
      "type": "function",
      "constant": true
    },
    {
      "inputs": [
        {
          "internalType": "address",
          "name": "collaAddr",
          "type": "address"
        },
        {
          "internalType": "uint256",
          "name": "USDsAmt",
          "type": "uint256"
        }
      ],
      "name": "mint",
      "outputs": [],
      "stateMutability": "nonpayable",
      "type": "function"
    },
    {
      "inputs": [
        {
          "internalType": "address",
          "name": "collaAddr",
          "type": "address"
        },
        {
          "internalType": "uint256",
          "name": "SPAAmt",
          "type": "uint256"
        }
      ],
      "name": "mintWithSPA",
      "outputs": [],
      "stateMutability": "nonpayable",
      "type": "function"
    },
    {
      "inputs": [
        {
          "internalType": "address",
          "name": "collaAddr",
          "type": "address"
        },
        {
          "internalType": "uint256",
          "name": "CollaAmt",
          "type": "uint256"
        }
      ],
      "name": "mintWithColla",
      "outputs": [],
      "stateMutability": "nonpayable",
      "type": "function"
    },
    {
      "inputs": [
        {
          "internalType": "address",
          "name": "collaAddr",
          "type": "address"
        },
        {
          "internalType": "uint256",
          "name": "USDsAmt",
          "type": "uint256"
        }
      ],
      "name": "redeem",
      "outputs": [],
      "stateMutability": "nonpayable",
      "type": "function"
    },
    {
      "inputs": [],
      "name": "rebase",
      "outputs": [],
      "stateMutability": "nonpayable",
      "type": "function"
    },
    {
      "inputs": [],
      "name": "collateralRatio",
      "outputs": [
        {
          "internalType": "uint256",
          "name": "ratio",
          "type": "uint256"
        }
      ],
      "stateMutability": "view",
      "type": "function",
      "constant": true
    },
    {
      "inputs": [],
      "name": "totalValue",
      "outputs": [
        {
          "internalType": "uint256",
          "name": "value",
          "type": "uint256"
        }
      ],
      "stateMutability": "view",
      "type": "function",
      "constant": true
    },
    {
      "inputs": [
        {
          "internalType": "address",
          "name": "_asset",
          "type": "address"
        }
      ],
      "name": "checkBalance",
      "outputs": [
        {
          "internalType": "uint256",
          "name": "",
          "type": "uint256"
        }
      ],
      "stateMutability": "view",
      "type": "function",
      "constant": true
    },
    {
      "inputs": [
        {
          "internalType": "bool",
          "name": "newAllowance",
          "type": "bool"
        }
      ],
      "name": "toggleSwapfeeInAllowed",
      "outputs": [],
      "stateMutability": "nonpayable",
      "type": "function"
    },
    {
      "inputs": [
        {
          "internalType": "bool",
          "name": "newAllowance",
          "type": "bool"
        }
      ],
      "name": "toggleSwapfeeOutAllowed",
      "outputs": [],
      "stateMutability": "nonpayable",
      "type": "function"
    }
  ],
  "bytecode": "0x608060405260016000806101000a81548160ff0219169083151502179055506001600060016101000a81548160ff0219169083151502179055506001600060026101000a81548160ff02191690831515021790555073fb931d41a744be590e8b51e2e343bbe030ac4f93600460006101000a81548173ffffffffffffffffffffffffffffffffffffffff021916908373ffffffffffffffffffffffffffffffffffffffff16021790555062017318600a55348015620000bd57600080fd5b5060405162003fa438038062003fa483398181016040526060811015620000e357600080fd5b81019080805190602001909291908051906020019092919080519060200190929190505050620001186200041060201b60201c565b600d60006101000a81548173ffffffffffffffffffffffffffffffffffffffff021916908373ffffffffffffffffffffffffffffffffffffffff160217905550600d60009054906101000a900473ffffffffffffffffffffffffffffffffffffffff1673ffffffffffffffffffffffffffffffffffffffff16600073ffffffffffffffffffffffffffffffffffffffff167f8be0079c531659141344cd1fd0a4f28419497f9722a3daafe3b4186f6b6457e060405160405180910390a330600660006101000a81548173ffffffffffffffffffffffffffffffffffffffff021916908373ffffffffffffffffffffffffffffffffffffffff16021790555030600760006101000a81548173ffffffffffffffffffffffffffffffffffffffff021916908373ffffffffffffffffffffffffffffffffffffffff16021790555030600860006101000a81548173ffffffffffffffffffffffffffffffffffffffff021916908373ffffffffffffffffffffffffffffffffffffffff16021790555030600960006101000a81548173ffffffffffffffffffffffffffffffffffffffff021916908373ffffffffffffffffffffffffffffffffffffffff160217905550600180600073b7a4f3e9097c08da09517b5ab877f7a917224ede73ffffffffffffffffffffffffffffffffffffffff1673ffffffffffffffffffffffffffffffffffffffff16815260200190815260200160002060006101000a81548160ff02191690831515021790555082600b60006101000a81548173ffffffffffffffffffffffffffffffffffffffff021916908373ffffffffffffffffffffffffffffffffffffffff16021790555081600560006101000a81548173ffffffffffffffffffffffffffffffffffffffff021916908373ffffffffffffffffffffffffffffffffffffffff16021790555080600c60006101000a81548173ffffffffffffffffffffffffffffffffffffffff021916908373ffffffffffffffffffffffffffffffffffffffff16021790555050505062000418565b600033905090565b613b7c80620004286000396000f3fe608060405234801561001057600080fd5b506004361061023d5760003560e01c80638da5cb5b1161013b578063cc31fccb116100b8578063e66113371161007c578063e661133714610802578063f2fde38b14610820578063f62f843014610864578063faeddc9014610898578063fff4bad1146108b65761023d565b8063cc31fccb146106fe578063ceee77ed14610732578063d4c3eea014610766578063dfab838d14610784578063e4a584a7146107e45761023d565b8063af14052c116100ff578063af14052c14610624578063b4eae1cb1461062e578063bbfd83811461064c578063be002f6e1461067c578063c290817f146106b05761023d565b80638da5cb5b146105625780638f32d59b146105965780639145e088146105b6578063a09caa18146105d4578063ae67fbb1146105f45761023d565b80635b912051116101c9578063715018a61161018d578063715018a6146104ca5780637e4e61d7146104d457806380e181351461050857806382dd391c146105265780638714a6d3146105445761023d565b80635b912051146103c85780635f515226146103e6578063638372c11461043e57806363a018e31461045c5780637080460f146104aa5761023d565b806340c10f191161021057806340c10f191461030057806343ee5cdc1461034e5780634b5214991461036c57806357635e911461038a57806358ef165e146103aa5761023d565b806316e63e30146102425780631e9a695014610276578063356c61ea146102c45780633bf7a83e146102e2575b600080fd5b61024a6108d4565b604051808273ffffffffffffffffffffffffffffffffffffffff16815260200191505060405180910390f35b6102c26004803603604081101561028c57600080fd5b81019080803573ffffffffffffffffffffffffffffffffffffffff169060200190929190803590602001909291905050506108fa565b005b6102cc610aa0565b6040518082815260200191505060405180910390f35b6102ea610aa6565b6040518082815260200191505060405180910390f35b61034c6004803603604081101561031657600080fd5b81019080803573ffffffffffffffffffffffffffffffffffffffff16906020019092919080359060200190929190505050610ab9565b005b610356610c61565b6040518082815260200191505060405180910390f35b610374610ec0565b6040518082815260200191505060405180910390f35b610392610ec7565b60405180821515815260200191505060405180910390f35b6103b2610ed8565b6040518082815260200191505060405180910390f35b6103d0610edf565b6040518082815260200191505060405180910390f35b610428600480360360208110156103fc57600080fd5b81019080803573ffffffffffffffffffffffffffffffffffffffff169060200190929190505050610ee4565b6040518082815260200191505060405180910390f35b610446610ef6565b6040518082815260200191505060405180910390f35b6104a86004803603604081101561047257600080fd5b81019080803573ffffffffffffffffffffffffffffffffffffffff16906020019092919080359060200190929190505050610efc565b005b6104b26110a4565b60405180821515815260200191505060405180910390f35b6104d26110b7565b005b6104dc6111f2565b604051808273ffffffffffffffffffffffffffffffffffffffff16815260200191505060405180910390f35b610510611218565b6040518082815260200191505060405180910390f35b61052e61121e565b6040518082815260200191505060405180910390f35b61054c6114ce565b6040518082815260200191505060405180910390f35b61056a61167d565b604051808273ffffffffffffffffffffffffffffffffffffffff16815260200191505060405180910390f35b61059e6116a7565b60405180821515815260200191505060405180910390f35b6105be611706565b6040518082815260200191505060405180910390f35b6105dc61170b565b60405180821515815260200191505060405180910390f35b6106226004803603602081101561060a57600080fd5b8101908080351515906020019092919050505061171e565b005b61062c6117b5565b005b6106366117bf565b6040518082815260200191505060405180910390f35b61067a6004803603602081101561066257600080fd5b810190808035151590602001909291905050506118a2565b005b610684611939565b604051808273ffffffffffffffffffffffffffffffffffffffff16815260200191505060405180910390f35b6106fc600480360360408110156106c657600080fd5b81019080803573ffffffffffffffffffffffffffffffffffffffff1690602001909291908035906020019092919050505061195f565b005b610706611b07565b604051808273ffffffffffffffffffffffffffffffffffffffff16815260200191505060405180910390f35b61073a611b2d565b604051808273ffffffffffffffffffffffffffffffffffffffff16815260200191505060405180910390f35b61076e611b53565b6040518082815260200191505060405180910390f35b6107ce6004803603608081101561079a57600080fd5b8101908080359060200190929190803590602001909291908035906020019092919080359060200190929190505050611b62565b6040518082815260200191505060405180910390f35b6107ec611c72565b6040518082815260200191505060405180910390f35b61080a611dd6565b6040518082815260200191505060405180910390f35b6108626004803603602081101561083657600080fd5b81019080803573ffffffffffffffffffffffffffffffffffffffff169060200190929190505050611ddb565b005b61086c611e61565b604051808273ffffffffffffffffffffffffffffffffffffffff16815260200191505060405180910390f35b6108a0611e87565b6040518082815260200191505060405180910390f35b6108be611e8d565b6040518082815260200191505060405180910390f35b600460009054906101000a900473ffffffffffffffffffffffffffffffffffffffff1681565b60008054906101000a900460ff1661097a576040517f08c379a00000000000000000000000000000000000000000000000000000000081526004018080602001828103825260148152602001807f4d696e7420262072656465656d2070617573656400000000000000000000000081525060200191505060405180910390fd5b600160008373ffffffffffffffffffffffffffffffffffffffff1673ffffffffffffffffffffffffffffffffffffffff16815260200190815260200160002060009054906101000a900460ff16610a39576040517f08c379a00000000000000000000000000000000000000000000000000000000081526004018080602001828103825260188152602001807f436f6c6c61746572616c206e6f7420737570706f72746564000000000000000081525060200191505060405180910390fd5b60008111610a92576040517f08c379a0000000000000000000000000000000000000000000000000000000008152600401808060200182810382526021815260200180613ab56021913960400191505060405180910390fd5b610a9c8282611e92565b5050565b6103e381565b6e01000000000000000000000000000081565b60008054906101000a900460ff16610b39576040517f08c379a00000000000000000000000000000000000000000000000000000000081526004018080602001828103825260148152602001807f4d696e7420262072656465656d2070617573656400000000000000000000000081525060200191505060405180910390fd5b600160008373ffffffffffffffffffffffffffffffffffffffff1673ffffffffffffffffffffffffffffffffffffffff16815260200190815260200160002060009054906101000a900460ff16610bf8576040517f08c379a00000000000000000000000000000000000000000000000000000000081526004018080602001828103825260188152602001807f436f6c6c61746572616c206e6f7420737570706f72746564000000000000000081525060200191505060405180910390fd5b60008111610c51576040517f08c379a0000000000000000000000000000000000000000000000000000000008152600401808060200182810382526021815260200180613ab56021913960400191505060405180910390fd5b610c5d828260006125c4565b5050565b60008060019054906101000a900460ff16610c7f5760009050610ebd565b6000600560009054906101000a900473ffffffffffffffffffffffffffffffffffffffff1673ffffffffffffffffffffffffffffffffffffffff166308432eea6040518163ffffffff1660e01b815260040160206040518083038186803b158015610ce957600080fd5b505afa158015610cfd573d6000803e3d6000fd5b505050506040513d6020811015610d1357600080fd5b810190808051906020019092919050505090506000600560009054906101000a900473ffffffffffffffffffffffffffffffffffffffff1673ffffffffffffffffffffffffffffffffffffffff1663c36d74976040518163ffffffff1660e01b815260040160206040518083038186803b158015610d9057600080fd5b505afa158015610da4573d6000803e3d6000fd5b505050506040513d6020811015610dba57600080fd5b810190808051906020019092919050505090506000610df86103e8610dea846103e3612f1090919063ffffffff16565b612f9690919063ffffffff16565b905082811015610e1b576103e8620f424081610e1057fe5b049350505050610ebd565b6000610e336032858403612f1090919063ffffffff16565b90506000610e4a8283612f1090919063ffffffff16565b90506000610e8885610e7a87610e6c620f424087612f1090919063ffffffff16565b612f9690919063ffffffff16565b612f9690919063ffffffff16565b90506000610ea0606483612f9690919063ffffffff16565b9050806103e8620f424081610eb157fe5b04019750505050505050505b90565b620f424081565b60008054906101000a900460ff1681565b620186a081565b600181565b6000610eef82612fe0565b9050919050565b61271081565b60008054906101000a900460ff16610f7c576040517f08c379a00000000000000000000000000000000000000000000000000000000081526004018080602001828103825260148152602001807f4d696e7420262072656465656d2070617573656400000000000000000000000081525060200191505060405180910390fd5b600160008373ffffffffffffffffffffffffffffffffffffffff1673ffffffffffffffffffffffffffffffffffffffff16815260200190815260200160002060009054906101000a900460ff1661103b576040517f08c379a00000000000000000000000000000000000000000000000000000000081526004018080602001828103825260188152602001807f436f6c6c61746572616c206e6f7420737570706f72746564000000000000000081525060200191505060405180910390fd5b60008111611094576040517f08c379a0000000000000000000000000000000000000000000000000000000008152600401808060200182810382526021815260200180613ab56021913960400191505060405180910390fd5b6110a0828260026125c4565b5050565b600060029054906101000a900460ff1681565b6110bf6116a7565b611131576040517f08c379a00000000000000000000000000000000000000000000000000000000081526004018080602001828103825260208152602001807f4f776e61626c653a2063616c6c6572206973206e6f7420746865206f776e657281525060200191505060405180910390fd5b600073ffffffffffffffffffffffffffffffffffffffff16600d60009054906101000a900473ffffffffffffffffffffffffffffffffffffffff1673ffffffffffffffffffffffffffffffffffffffff167f8be0079c531659141344cd1fd0a4f28419497f9722a3daafe3b4186f6b6457e060405160405180910390a36000600d60006101000a81548173ffffffffffffffffffffffffffffffffffffffff021916908373ffffffffffffffffffffffffffffffffffffffff160217905550565b600560009054906101000a900473ffffffffffffffffffffffffffffffffffffffff1681565b6103e881565b60008060029054906101000a900460ff1661123c57600090506114cb565b6000600560009054906101000a900473ffffffffffffffffffffffffffffffffffffffff1673ffffffffffffffffffffffffffffffffffffffff16630b71f2166040518163ffffffff1660e01b815260040160206040518083038186803b1580156112a657600080fd5b505afa1580156112ba573d6000803e3d6000fd5b505050506040513d60208110156112d057600080fd5b810190808051906020019092919050505090506000600560009054906101000a900473ffffffffffffffffffffffffffffffffffffffff1673ffffffffffffffffffffffffffffffffffffffff16631f58c4416040518163ffffffff1660e01b815260040160206040518083038186803b15801561134d57600080fd5b505afa158015611361573d6000803e3d6000fd5b505050506040513d602081101561137757600080fd5b810190808051906020019092919050505090506113b1600a6113a383600c612f1090919063ffffffff16565b612f9690919063ffffffff16565b82116113c3576103e8925050506114cb565b600080600c60009054906101000a900473ffffffffffffffffffffffffffffffffffffffff1673ffffffffffffffffffffffffffffffffffffffff166332833d5160146001600c600a6040518563ffffffff1660e01b8152600401808581526020018481526020018363ffffffff1681526020018263ffffffff168152602001945050505050604080518083038186803b15801561146057600080fd5b505afa158015611474573d6000803e3d6000fd5b505050506040513d604081101561148a57600080fd5b810190808051906020019092919080519060200190929190505050915091506114c46127108260ff1684901c612f1090919063ffffffff16565b9450505050505b90565b600080600560009054906101000a900473ffffffffffffffffffffffffffffffffffffffff1673ffffffffffffffffffffffffffffffffffffffff166308432eea6040518163ffffffff1660e01b815260040160206040518083038186803b15801561153957600080fd5b505afa15801561154d573d6000803e3d6000fd5b505050506040513d602081101561156357600080fd5b810190808051906020019092919050505090506000600560009054906101000a900473ffffffffffffffffffffffffffffffffffffffff1673ffffffffffffffffffffffffffffffffffffffff1663c36d74976040518163ffffffff1660e01b815260040160206040518083038186803b1580156115e057600080fd5b505afa1580156115f4573d6000803e3d6000fd5b505050506040513d602081101561160a57600080fd5b81019080805190602001909291905050509050600061162d600a54438585611b62565b905060006116396117bf565b9050808211156116725761166b61165c8284036001612f1090919063ffffffff16565b8361309090919063ffffffff16565b9450611676565b8194505b5050505090565b6000600d60009054906101000a900473ffffffffffffffffffffffffffffffffffffffff16905090565b6000600d60009054906101000a900473ffffffffffffffffffffffffffffffffffffffff1673ffffffffffffffffffffffffffffffffffffffff166116ea613118565b73ffffffffffffffffffffffffffffffffffffffff1614905090565b600181565b600060019054906101000a900460ff1681565b6117266116a7565b611798576040517f08c379a00000000000000000000000000000000000000000000000000000000081526004018080602001828103825260208152602001807f4f776e61626c653a2063616c6c6572206973206e6f7420746865206f776e657281525060200191505060405180910390fd5b80600060016101000a81548160ff02191690831515021790555050565b6117bd613120565b565b6000806117ca61327a565b90506000600b60009054906101000a900473ffffffffffffffffffffffffffffffffffffffff1673ffffffffffffffffffffffffffffffffffffffff166318160ddd6040518163ffffffff1660e01b815260040160206040518083038186803b15801561183657600080fd5b505afa15801561184a573d6000803e3d6000fd5b505050506040513d602081101561186057600080fd5b8101908080519060200190929190505050905061189b8161188d620186a085612f1090919063ffffffff16565b612f9690919063ffffffff16565b9250505090565b6118aa6116a7565b61191c576040517f08c379a00000000000000000000000000000000000000000000000000000000081526004018080602001828103825260208152602001807f4f776e61626c653a2063616c6c6572206973206e6f7420746865206f776e657281525060200191505060405180910390fd5b80600060026101000a81548160ff02191690831515021790555050565b600860009054906101000a900473ffffffffffffffffffffffffffffffffffffffff1681565b60008054906101000a900460ff166119df576040517f08c379a00000000000000000000000000000000000000000000000000000000081526004018080602001828103825260148152602001807f4d696e7420262072656465656d2070617573656400000000000000000000000081525060200191505060405180910390fd5b600160008373ffffffffffffffffffffffffffffffffffffffff1673ffffffffffffffffffffffffffffffffffffffff16815260200190815260200160002060009054906101000a900460ff16611a9e576040517f08c379a00000000000000000000000000000000000000000000000000000000081526004018080602001828103825260188152602001807f436f6c6c61746572616c206e6f7420737570706f72746564000000000000000081525060200191505060405180910390fd5b60008111611af7576040517f08c379a0000000000000000000000000000000000000000000000000000000008152600401808060200182810382526021815260200180613ab56021913960400191505060405180910390fd5b611b03828260016125c4565b5050565b600960009054906101000a900473ffffffffffffffffffffffffffffffffffffffff1681565b600660009054906101000a900473ffffffffffffffffffffffffffffffffffffffff1681565b6000611b5d61327a565b905090565b600080611b8d612710611b7f60c888612f1090919063ffffffff16565b612f9690919063ffffffff16565b9050600083851115611bf157611bc3848603611bb58688036001612f1090919063ffffffff16565b612f1090919063ffffffff16565b9050611bea81611bdc848a6132a290919063ffffffff16565b61309090919063ffffffff16565b9250611c68565b83851015611c5157611c23858503611c158787036001612f1090919063ffffffff16565b612f1090919063ffffffff16565b9050611c4a81611c3c848a6132a290919063ffffffff16565b6132a290919063ffffffff16565b9250611c67565b611c6482886132a290919063ffffffff16565b92505b5b5050949350505050565b600080600560009054906101000a900473ffffffffffffffffffffffffffffffffffffffff1673ffffffffffffffffffffffffffffffffffffffff166308432eea6040518163ffffffff1660e01b815260040160206040518083038186803b158015611cdd57600080fd5b505afa158015611cf1573d6000803e3d6000fd5b505050506040513d6020811015611d0757600080fd5b810190808051906020019092919050505090506000600560009054906101000a900473ffffffffffffffffffffffffffffffffffffffff1673ffffffffffffffffffffffffffffffffffffffff1663c36d74976040518163ffffffff1660e01b815260040160206040518083038186803b158015611d8457600080fd5b505afa158015611d98573d6000803e3d6000fd5b505050506040513d6020811015611dae57600080fd5b81019080805190602001909291905050509050611dcf600a54438484611b62565b9250505090565b603281565b611de36116a7565b611e55576040517f08c379a00000000000000000000000000000000000000000000000000000000081526004018080602001828103825260208152602001807f4f776e61626c653a2063616c6c6572206973206e6f7420746865206f776e657281525060200191505060405180910390fd5b611e5e816132ec565b50565b600760009054906101000a900473ffffffffffffffffffffffffffffffffffffffff1681565b600a5481565b60c881565b60008054906101000a900460ff16611f12576040517f08c379a00000000000000000000000000000000000000000000000000000000081526004018080602001828103825260148152602001807f4d696e7420262072656465656d2070617573656400000000000000000000000081525060200191505060405180910390fd5b6000600560009054906101000a900473ffffffffffffffffffffffffffffffffffffffff1673ffffffffffffffffffffffffffffffffffffffff16639f1a442e846040518263ffffffff1660e01b8152600401808273ffffffffffffffffffffffffffffffffffffffff16815260200191505060206040518083038186803b158015611f9d57600080fd5b505afa158015611fb1573d6000803e3d6000fd5b505050506040513d6020811015611fc757600080fd5b810190808051906020019092919050505090506000600560009054906101000a900473ffffffffffffffffffffffffffffffffffffffff1673ffffffffffffffffffffffffffffffffffffffff16637d1489fe856040518263ffffffff1660e01b8152600401808273ffffffffffffffffffffffffffffffffffffffff16815260200191505060206040518083038186803b15801561206557600080fd5b505afa158015612079573d6000803e3d6000fd5b505050506040513d602081101561208f57600080fd5b810190808051906020019092919050505090506000600560009054906101000a900473ffffffffffffffffffffffffffffffffffffffff1673ffffffffffffffffffffffffffffffffffffffff166312dd85ee6040518163ffffffff1660e01b815260040160206040518083038186803b15801561210c57600080fd5b505afa158015612120573d6000803e3d6000fd5b505050506040513d602081101561213657600080fd5b810190808051906020019092919050505090506000600560009054906101000a900473ffffffffffffffffffffffffffffffffffffffff1673ffffffffffffffffffffffffffffffffffffffff1663743db8276040518163ffffffff1660e01b815260040160206040518083038186803b1580156121b357600080fd5b505afa1580156121c7573d6000803e3d6000fd5b505050506040513d60208110156121dd57600080fd5b8101908080519060200190929190505050905060006121fa61121e565b905060006122066114ce565b90506000612256856122488661223a620186a061222c888f612f1090919063ffffffff16565b612f9690919063ffffffff16565b612f1090919063ffffffff16565b612f9690919063ffffffff16565b9050600083111561229e5761229b61228c620f424061227e8685612f1090919063ffffffff16565b612f9690919063ffffffff16565b826132a290919063ffffffff16565b90505b6122ed600760009054906101000a900473ffffffffffffffffffffffffffffffffffffffff1633838c73ffffffffffffffffffffffffffffffffffffffff16613432909392919063ffffffff16565b600061230588620186a0612f1090919063ffffffff16565b90506000612345826123378a61232988620186a0038f612f1090919063ffffffff16565b612f1090919063ffffffff16565b612f9690919063ffffffff16565b9050600085111561238d5761238a61237b620f424061236d8885612f1090919063ffffffff16565b612f9690919063ffffffff16565b826132a290919063ffffffff16565b90505b6123dc600660009054906101000a900473ffffffffffffffffffffffffffffffffffffffff1633838e73ffffffffffffffffffffffffffffffffffffffff16613432909392919063ffffffff16565b6000612406620f42406123f8888e612f1090919063ffffffff16565b612f9690919063ffffffff16565b9050600b60009054906101000a900473ffffffffffffffffffffffffffffffffffffffff1673ffffffffffffffffffffffffffffffffffffffff16639dc29fac3361245a848f6132a290919063ffffffff16565b6040518363ffffffff1660e01b8152600401808373ffffffffffffffffffffffffffffffffffffffff16815260200182815260200192505050600060405180830381600087803b1580156124ad57600080fd5b505af11580156124c1573d6000803e3d6000fd5b50505050600b60009054906101000a900473ffffffffffffffffffffffffffffffffffffffff1673ffffffffffffffffffffffffffffffffffffffff1663a9059cbb600860009054906101000a900473ffffffffffffffffffffffffffffffffffffffff16836040518363ffffffff1660e01b8152600401808373ffffffffffffffffffffffffffffffffffffffff16815260200182815260200192505050602060405180830381600087803b15801561257a57600080fd5b505af115801561258e573d6000803e3d6000fd5b505050506040513d60208110156125a457600080fd5b810190808051906020019092919050505050505050505050505050505050565b6000600560009054906101000a900473ffffffffffffffffffffffffffffffffffffffff1673ffffffffffffffffffffffffffffffffffffffff16639f1a442e856040518263ffffffff1660e01b8152600401808273ffffffffffffffffffffffffffffffffffffffff16815260200191505060206040518083038186803b15801561264f57600080fd5b505afa158015612663573d6000803e3d6000fd5b505050506040513d602081101561267957600080fd5b810190808051906020019092919050505090506000600560009054906101000a900473ffffffffffffffffffffffffffffffffffffffff1673ffffffffffffffffffffffffffffffffffffffff16637d1489fe866040518263ffffffff1660e01b8152600401808273ffffffffffffffffffffffffffffffffffffffff16815260200191505060206040518083038186803b15801561271757600080fd5b505afa15801561272b573d6000803e3d6000fd5b505050506040513d602081101561274157600080fd5b810190808051906020019092919050505090506000600560009054906101000a900473ffffffffffffffffffffffffffffffffffffffff1673ffffffffffffffffffffffffffffffffffffffff166312dd85ee6040518163ffffffff1660e01b815260040160206040518083038186803b1580156127be57600080fd5b505afa1580156127d2573d6000803e3d6000fd5b505050506040513d60208110156127e857600080fd5b810190808051906020019092919050505090506000600560009054906101000a900473ffffffffffffffffffffffffffffffffffffffff1673ffffffffffffffffffffffffffffffffffffffff1663743db8276040518163ffffffff1660e01b815260040160206040518083038186803b15801561286557600080fd5b505afa158015612879573d6000803e3d6000fd5b505050506040513d602081101561288f57600080fd5b8101908080519060200190929190505050905060006128ac610c61565b905060006128b8611c72565b905060008060008060006128d88b620186a0612f1090919063ffffffff16565b905060008c60ff161415612a30578c9250612935896129278a612919620186a061290b8c8a612f1090919063ffffffff16565b612f9690919063ffffffff16565b612f1090919063ffffffff16565b612f9690919063ffffffff16565b9450600087111561297d5761297a61296b620f424061295d8a89612f1090919063ffffffff16565b612f9690919063ffffffff16565b8661309090919063ffffffff16565b94505b6129b9816129ab8c61299d8a620186a00388612f1090919063ffffffff16565b612f1090919063ffffffff16565b612f9690919063ffffffff16565b93506000871115612a01576129fe6129ef620f42406129e18a88612f1090919063ffffffff16565b612f9690919063ffffffff16565b8561309090919063ffffffff16565b93505b612a29620f4240612a1b8986612f1090919063ffffffff16565b612f9690919063ffffffff16565b9150612c88565b60018c60ff161415612b7a578c94508492506000871115612a7957612a76612a64620f424089612f9690919063ffffffff16565b60010184612f9690919063ffffffff16565b92505b612ac588612ab78b612aa98a612a9b620186a08a612f1090919063ffffffff16565b612f9690919063ffffffff16565b612f1090919063ffffffff16565b612f9690919063ffffffff16565b9250612b0381612af58c612ae78a620186a00388612f1090919063ffffffff16565b612f1090919063ffffffff16565b612f9690919063ffffffff16565b93506000871115612b4b57612b48612b39620f4240612b2b8a88612f1090919063ffffffff16565b612f9690919063ffffffff16565b8561309090919063ffffffff16565b93505b612b73620f4240612b658986612f1090919063ffffffff16565b612f9690919063ffffffff16565b9150612c87565b60028c60ff161415612c86578c9350612bc586620186a003612bb78c612ba98589612f1090919063ffffffff16565b612f9690919063ffffffff16565b612f9690919063ffffffff16565b9250612c1389612c058a612bf7620186a0612be98c8a612f1090919063ffffffff16565b612f9690919063ffffffff16565b612f1090919063ffffffff16565b612f9690919063ffffffff16565b94506000871115612c5b57612c58612c49620f4240612c3b8a89612f1090919063ffffffff16565b612f9690919063ffffffff16565b8661309090919063ffffffff16565b94505b612c83620f4240612c758986612f1090919063ffffffff16565b612f9690919063ffffffff16565b91505b5b5b600460009054906101000a900473ffffffffffffffffffffffffffffffffffffffff1673ffffffffffffffffffffffffffffffffffffffff166379cc679033876040518363ffffffff1660e01b8152600401808373ffffffffffffffffffffffffffffffffffffffff16815260200182815260200192505050600060405180830381600087803b158015612d1b57600080fd5b505af1158015612d2f573d6000803e3d6000fd5b5050505060008e9050612d8733600660009054906101000a900473ffffffffffffffffffffffffffffffffffffffff16878473ffffffffffffffffffffffffffffffffffffffff16613432909392919063ffffffff16565b600b60009054906101000a900473ffffffffffffffffffffffffffffffffffffffff1673ffffffffffffffffffffffffffffffffffffffff166340c10f1933866040518363ffffffff1660e01b8152600401808373ffffffffffffffffffffffffffffffffffffffff16815260200182815260200192505050600060405180830381600087803b158015612e1a57600080fd5b505af1158015612e2e573d6000803e3d6000fd5b50505050600b60009054906101000a900473ffffffffffffffffffffffffffffffffffffffff1673ffffffffffffffffffffffffffffffffffffffff166340c10f19600860009054906101000a900473ffffffffffffffffffffffffffffffffffffffff16856040518363ffffffff1660e01b8152600401808373ffffffffffffffffffffffffffffffffffffffff16815260200182815260200192505050600060405180830381600087803b158015612ee757600080fd5b505af1158015612efb573d6000803e3d6000fd5b50505050505050505050505050505050505050565b600080831415612f235760009050612f90565b6000828402905082848281612f3457fe5b0414612f8b576040517f08c379a0000000000000000000000000000000000000000000000000000000008152600401808060200182810382526021815260200180613afc6021913960400191505060405180910390fd5b809150505b92915050565b6000612fd883836040518060400160405280601a81526020017f536166654d6174683a206469766973696f6e206279207a65726f0000000000008152506134f3565b905092915050565b6000808290508073ffffffffffffffffffffffffffffffffffffffff166370a08231306040518263ffffffff1660e01b8152600401808273ffffffffffffffffffffffffffffffffffffffff16815260200191505060206040518083038186803b15801561304d57600080fd5b505afa158015613061573d6000803e3d6000fd5b505050506040513d602081101561307757600080fd5b8101908080519060200190929190505050915050919050565b60008082840190508381101561310e576040517f08c379a000000000000000000000000000000000000000000000000000000000815260040180806020018281038252601b8152602001807f536166654d6174683a206164646974696f6e206f766572666c6f77000000000081525060200191505060405180910390fd5b8091505092915050565b600033905090565b6000600b60009054906101000a900473ffffffffffffffffffffffffffffffffffffffff1673ffffffffffffffffffffffffffffffffffffffff166318160ddd6040518163ffffffff1660e01b815260040160206040518083038186803b15801561318a57600080fd5b505afa15801561319e573d6000803e3d6000fd5b505050506040513d60208110156131b457600080fd5b8101908080519060200190929190505050905060006131d161327a565b905081811180156131e3575060008214155b1561327657600b60009054906101000a900473ffffffffffffffffffffffffffffffffffffffff1673ffffffffffffffffffffffffffffffffffffffff166339a7919f826040518263ffffffff1660e01b815260040180828152602001915050600060405180830381600087803b15801561325d57600080fd5b505af1158015613271573d6000803e3d6000fd5b505050505b5050565b600061329d6132876135b9565b61328f613633565b61309090919063ffffffff16565b905090565b60006132e483836040518060400160405280601e81526020017f536166654d6174683a207375627472616374696f6e206f766572666c6f770000815250613638565b905092915050565b600073ffffffffffffffffffffffffffffffffffffffff168173ffffffffffffffffffffffffffffffffffffffff161415613372576040517f08c379a0000000000000000000000000000000000000000000000000000000008152600401808060200182810382526026815260200180613a8f6026913960400191505060405180910390fd5b8073ffffffffffffffffffffffffffffffffffffffff16600d60009054906101000a900473ffffffffffffffffffffffffffffffffffffffff1673ffffffffffffffffffffffffffffffffffffffff167f8be0079c531659141344cd1fd0a4f28419497f9722a3daafe3b4186f6b6457e060405160405180910390a380600d60006101000a81548173ffffffffffffffffffffffffffffffffffffffff021916908373ffffffffffffffffffffffffffffffffffffffff16021790555050565b6134ed846323b872dd60e01b858585604051602401808473ffffffffffffffffffffffffffffffffffffffff1681526020018373ffffffffffffffffffffffffffffffffffffffff1681526020018281526020019350505050604051602081830303815290604052907bffffffffffffffffffffffffffffffffffffffffffffffffffffffff19166020820180517bffffffffffffffffffffffffffffffffffffffffffffffffffffffff83818316178352505050506136f8565b50505050565b6000808311829061359f576040517f08c379a00000000000000000000000000000000000000000000000000000000081526004018080602001828103825283818151815260200191508051906020019080838360005b83811015613564578082015181840152602081019050613549565b50505050905090810190601f1680156135915780820380516001836020036101000a031916815260200191505b509250505060405180910390fd5b5060008385816135ab57fe5b049050809150509392505050565b600080600090505b60038054905081101561362f57613620613611600383815481106135e157fe5b9060005260206000200160009054906101000a900473ffffffffffffffffffffffffffffffffffffffff166137e7565b8361309090919063ffffffff16565b915080806001019150506135c1565b5090565b600090565b60008383111582906136e5576040517f08c379a00000000000000000000000000000000000000000000000000000000081526004018080602001828103825283818151815260200191508051906020019080838360005b838110156136aa57808201518184015260208101905061368f565b50505050905090810190601f1680156136d75780820380516001836020036101000a031916815260200191505b509250505060405180910390fd5b5060008385039050809150509392505050565b606061375a826040518060400160405280602081526020017f5361666545524332303a206c6f772d6c6576656c2063616c6c206661696c65648152508573ffffffffffffffffffffffffffffffffffffffff166137ee9092919063ffffffff16565b90506000815111156137e25780806020019051602081101561377b57600080fd5b81019080805190602001909291905050506137e1576040517f08c379a000000000000000000000000000000000000000000000000000000000815260040180806020018281038252602a815260200180613b1d602a913960400191505060405180910390fd5b5b505050565b6000919050565b60606137fd8484600085613806565b90509392505050565b606082471015613861576040517f08c379a0000000000000000000000000000000000000000000000000000000008152600401808060200182810382526026815260200180613ad66026913960400191505060405180910390fd5b61386a856139af565b6138dc576040517f08c379a000000000000000000000000000000000000000000000000000000000815260040180806020018281038252601d8152602001807f416464726573733a2063616c6c20746f206e6f6e2d636f6e747261637400000081525060200191505060405180910390fd5b600060608673ffffffffffffffffffffffffffffffffffffffff1685876040518082805190602001908083835b6020831061392c5780518252602082019150602081019050602083039250613909565b6001836020036101000a03801982511681845116808217855250505050505090500191505060006040518083038185875af1925050503d806000811461398e576040519150601f19603f3d011682016040523d82523d6000602084013e613993565b606091505b50915091506139a38282866139c2565b92505050949350505050565b600080823b905060008111915050919050565b606083156139d257829050613a87565b6000835111156139e55782518084602001fd5b816040517f08c379a00000000000000000000000000000000000000000000000000000000081526004018080602001828103825283818151815260200191508051906020019080838360005b83811015613a4c578082015181840152602081019050613a31565b50505050905090810190601f168015613a795780820380516001836020036101000a031916815260200191505b509250505060405180910390fd5b939250505056fe4f776e61626c653a206e6577206f776e657220697320746865207a65726f2061646472657373416d6f756e74206e6565647320746f2062652067726561746572207468616e2030416464726573733a20696e73756666696369656e742062616c616e636520666f722063616c6c536166654d6174683a206d756c7469706c69636174696f6e206f766572666c6f775361666545524332303a204552433230206f7065726174696f6e20646964206e6f742073756363656564a26469706673582212206aa6dbf8476417e7a55cf41477c403fe0c1f7cedac7cd755ac87e1a687db333764736f6c634300060c0033",
  "immutableReferences": {},
  "source": "//To-do: fix presion\n\npragma solidity ^0.6.12;\nimport \"./VaultStorage.sol\";\nimport \"../libraries/Ownable.sol\";\nimport \"../libraries/SafeERC20.sol\";\nimport \"../libraries/MyMath.sol\";\nimport \"../libraries/Helpers.sol\";\nimport \"../interfaces/IOracle.sol\";\nimport \"../interfaces/ISperaxToken.sol\";\n\ncontract VaultCore is VaultStorage, Ownable {\n\tusing SafeERC20 for IERC20;\n\tusing SafeMath for uint;\n\tusing MyMath for uint;\n\n\tmodifier whenMintRedeemAllowed {\n\t\trequire(mintRedeemAllowed, \"Mint & redeem paused\");\n\t\t_;\n\t}\n\n\tconstructor(address USDsToken_, address oracleAddr_, address BancorFormulaAddr_) public {\n\t\tcollaValut = address(this);\n\t\tSPAValut = address(this);\n\t\tUSDsFeeValut = address(this);\n\t\tUSDsYieldValut = address(this);\n\t\tsupportedCollat[0xb7a4F3E9097C08dA09517b5aB877F7a917224ede] = true;\n\t\tUSDsInstance = USDs(USDsToken_);\n\t\toracleAddr = oracleAddr_;\n\t\tBancorInstance = BancorFormula(BancorFormulaAddr_);\n\t}\n\n\n\t/**\n\t * @dev swapFeePresion = 1000000\n\t */\n\n\tfunction calculateSwapFeeIn() public view returns (uint) {\n\t\tif (!swapfeeInAllowed) {\n\t\t\treturn 0;\n\t\t}\n\n\t\tuint priceUSDs = uint(IOracle(oracleAddr).getUSDsPrice()); //TODO: change to 3 days average\n\t\tuint precisionUSDs = IOracle(oracleAddr).USDsPricePrecision();\n\t\tuint smallPwithPrecision = swapFee_P.mul(precisionUSDs).div(swapFee_PPresion);\n\t\tif (smallPwithPrecision < priceUSDs) {\n\t\t\treturn swapFeePresion / 1000; // 0.1%\n\t\t} else {\n\t\t\tuint temp = (smallPwithPrecision - priceUSDs).mul(swapFeeTheta); //precision: precisionUSDs\n\t\t\tuint temp2 = temp.mul(temp); //precision: precisionUSDs^2\n\t\t\tuint temp3 = temp2.mul(swapFeePresion).div(precisionUSDs).div(precisionUSDs);\n\t\t\tuint temp4 = temp3.div(100);\n\t\t\treturn swapFeePresion / 1000 + temp4;\n\t\t}\n\n\t}\n\n\tfunction calculateSwapFeeOut() public view returns (uint) {\n\t\tif (!swapfeeOutAllowed) {\n\t\t\treturn 0;\n\t\t}\n\t\tuint USDsInOutRatio = IOracle(oracleAddr).USDsInOutRatio();\n\t\tuint USDsInOutRatioPrecision = IOracle(oracleAddr).USDsInOutRatioPrecision();\n\t\tif (USDsInOutRatio <= uint(12).mul(USDsInOutRatioPrecision).div(10)) {\n\t\t\treturn 1000; //0.1%\n\t\t} else {\n\n\t\t\t(uint powResWithPrec, uint8 powResPrec) = BancorInstance.power(uint(20), uint(1), uint32(12),uint32(10));\n\t\t\treturn uint(powResWithPrec >> powResPrec).mul(10**4);\n\t\t}\n\t}\n\n\tfunction chiTarget(uint chiInit_, uint blockHeight, uint priceUSDs, uint precisionUSDs) public view returns (uint chiTarget_) {\n\t\tuint chiAdjustmentA = blockHeight.mul(chiAlpha).div(chiAlpha_Presion);\n\t\tuint chiAdjustmentB;\n\t\tif (priceUSDs > precisionUSDs) {\n\t\t\tchiAdjustmentB = chiBeta.mul(priceUSDs - precisionUSDs).mul(priceUSDs - precisionUSDs);\n\t\t\tchiTarget_ = chiInit_.sub(chiAdjustmentA).add(chiAdjustmentB);\n\t\t} else if (priceUSDs < precisionUSDs) {\n\t\t\tchiAdjustmentB = chiBeta.mul(precisionUSDs - priceUSDs).mul(precisionUSDs - priceUSDs);\n\t\t\tchiTarget_ = chiInit_.sub(chiAdjustmentA).sub(chiAdjustmentB);\n\t\t} else {\n\t\t\tchiTarget_ = chiInit_.sub(chiAdjustmentA);\n\t\t}\n\t}\n\n\tfunction chiMint() public view returns (uint)  {\n\t\tuint priceUSDs = uint(IOracle(oracleAddr).getUSDsPrice());\n\t\tuint precisionUSDs = IOracle(oracleAddr).USDsPricePrecision();\n\t\treturn chiTarget(chiInit, block.number, priceUSDs, precisionUSDs);\n\t}\n\n\tfunction chiRedeem() public view returns (uint chiRedeem_) {\n\t\tuint priceUSDs = uint(IOracle(oracleAddr).getUSDsPrice());\n\t\tuint precisionUSDs = IOracle(oracleAddr).USDsPricePrecision();\n\t\tuint chiTarget_ = chiTarget(chiInit, block.number, priceUSDs, precisionUSDs);\n\t\tuint collateralRatio_ = collateralRatio();\n\t\tif (chiTarget_ > collateralRatio_) {\n\t\t\tchiRedeem_ = chiTarget_.add(chiGamma.mul(chiTarget_ - collateralRatio_));\n\t\t} else {\n\t\t\tchiRedeem_ = chiTarget_;\n\t\t}\n\n\t}\n\n\tfunction mint(address collaAddr, uint USDsAmt)\n\t\tpublic\n\t\twhenMintRedeemAllowed\n\t{\n\t\trequire(supportedCollat[collaAddr], \"Collateral not supported\");\n\t\trequire(USDsAmt > 0, \"Amount needs to be greater than 0\");\n\t\t_mint(collaAddr, USDsAmt, 0);\n\t}\n\n\tfunction mintWithSPA(address collaAddr, uint SPAAmt)\n\t\tpublic\n\t\twhenMintRedeemAllowed\n\t{\n\t\trequire(supportedCollat[collaAddr], \"Collateral not supported\");\n\t\trequire(SPAAmt > 0, \"Amount needs to be greater than 0\");\n\t\t_mint(collaAddr, SPAAmt, 1);\n\t}\n\n\tfunction mintWithColla(address collaAddr, uint CollaAmt)\n\t\tpublic\n\t\twhenMintRedeemAllowed\n\t{\n\t\trequire(supportedCollat[collaAddr], \"Collateral not supported\");\n\t\trequire(CollaAmt > 0, \"Amount needs to be greater than 0\");\n\t\t_mint(collaAddr, CollaAmt, 2);\n\t}\n\n\tfunction _mint(\n\t\taddress collaAddr,\n\t\tuint valueAmt,\n\t\tuint8 valueType\n\t) internal {\n\t\tuint priceColla = uint(IOracle(oracleAddr).collatPrice(collaAddr));\n\t\tuint precisionColla = IOracle(oracleAddr).collatPricePrecision(collaAddr);\n\t\tuint priceSPA = uint(IOracle(oracleAddr).getSPAPrice());\n\t\tuint precisionSPA = IOracle(oracleAddr).SPAPricePrecision();\n\t\tuint swapFee = calculateSwapFeeIn();\n\t\tuint chi = chiMint();\n\t\tuint SPABurnAmt;\n\t\tuint CollaDepAmt;\n\t\tuint USDsAmt;\n\t\tuint swapFeeAmount;\n\t\tuint CollaDepAmtDiv = chiPresion.mul(priceColla);\n\n\t\tif (valueType == 0) {\n\t\t\tUSDsAmt = valueAmt;\n\n\t\t\tSPABurnAmt = USDsAmt.mul(chi).div(chiPresion).mul(precisionSPA).div(priceSPA);\n\t\t\tif (swapFee > 0) {\n\t\t\t\tSPABurnAmt = SPABurnAmt.add(SPABurnAmt.mul(swapFee).div(swapFeePresion));\n\t\t\t}\n\n\t\t\t//Deposit collaeral\n\t\t\tCollaDepAmt = USDsAmt.mul(chiPresion - chi).mul(precisionColla).div(CollaDepAmtDiv);\n\t\t\tif (swapFee > 0) {\n\t\t\t\tCollaDepAmt = CollaDepAmt.add(CollaDepAmt.mul(swapFee).div(swapFeePresion));\n\t\t\t}\n\n\t\t\tswapFeeAmount = USDsAmt.mul(swapFee).div(swapFeePresion);\n\t\t} else if (valueType == 1) {\n\t\t\tSPABurnAmt = valueAmt;\n\n\t\t\tUSDsAmt = SPABurnAmt;\n\t\t\tif (swapFee > 0) {\n\t\t\t\tUSDsAmt = USDsAmt.div(1 + swapFee.div(swapFeePresion));\n\t\t\t}\n\t\t\tUSDsAmt = USDsAmt.mul(chiPresion).div(chi).mul(priceSPA).div(precisionSPA);\n\n\t\t\t//Deposit collaeral\n\t\t\tCollaDepAmt = USDsAmt.mul(chiPresion - chi).mul(precisionColla).div(CollaDepAmtDiv);\n\t\t\tif (swapFee > 0) {\n\t\t\t\tCollaDepAmt = CollaDepAmt.add(CollaDepAmt.mul(swapFee).div(swapFeePresion));\n\t\t\t}\n\n\t\t\tswapFeeAmount = USDsAmt.mul(swapFee).div(swapFeePresion);\n\t\t} else if (valueType == 2) {\n\t\t\tCollaDepAmt = valueAmt;\n\n\t\t\tUSDsAmt = CollaDepAmt.mul(CollaDepAmtDiv).div(precisionColla).div(chiPresion - chi);\n\n\t\t\tSPABurnAmt = USDsAmt.mul(chi).div(chiPresion).mul(precisionSPA).div(priceSPA);\n\t\t\tif (swapFee > 0) {\n\t\t\t\tSPABurnAmt = SPABurnAmt.add(SPABurnAmt.mul(swapFee).div(swapFeePresion));\n\t\t\t}\n\n\t\t\tswapFeeAmount = USDsAmt.mul(swapFee).div(swapFeePresion);\n\t\t}\n\t\tISperaxToken(SPATokenAddr).burnFrom(msg.sender, SPABurnAmt);\n\n\t\tIERC20 collaAddrERC20 = IERC20(collaAddr);\n\t\tcollaAddrERC20.safeTransferFrom(msg.sender, collaValut, CollaDepAmt);\n\n\t\t//Mint USDs\n\t\tUSDsInstance.mint(msg.sender, USDsAmt);\n\t\tUSDsInstance.mint(USDsFeeValut, swapFeeAmount);\n\t}\n\n\tfunction redeem(address collaAddr, uint USDsAmt)\n\t\tpublic\n\t\twhenMintRedeemAllowed\n\t{\n\t\trequire(supportedCollat[collaAddr], \"Collateral not supported\");\n\t\trequire(USDsAmt > 0, \"Amount needs to be greater than 0\");\n\t\t_redeem(collaAddr, USDsAmt);\n\t}\n\n\n\tfunction _redeem(\n\t\taddress collaAddr,\n\t\tuint USDsAmt\n\t) internal whenMintRedeemAllowed {\n\t\tuint priceColla = uint(IOracle(oracleAddr).collatPrice(collaAddr));\n\t\tuint precisionColla = IOracle(oracleAddr).collatPricePrecision(collaAddr);\n\t\t//FixedPoint.uq112x112 priceSPAuq = IOracle(oracleAddr).priceSPAuq();\n\t\tuint priceSPA = uint(IOracle(oracleAddr).getSPAPrice());\n\t\tuint precisionSPA = IOracle(oracleAddr).SPAPricePrecision();\n\t\tuint swapFee = calculateSwapFeeOut();\n\t\tuint chi = chiRedeem();\n\t\tuint SPAMintAmt = USDsAmt.mul(chi).div(chiPresion).mul(precisionSPA).div(priceSPA);\n\t\tif (swapFee > 0) {\n\t\t\tSPAMintAmt = SPAMintAmt.sub(SPAMintAmt.mul(swapFee).div(swapFeePresion));\n\t\t}\n\t\tIERC20(collaAddr).safeTransferFrom(SPAValut, msg.sender, SPAMintAmt);\n\n\t\t//Unlock collaeral\n\t\tuint CollaUnlockAmtDiv = chiPresion.mul(priceColla);\n\t\tuint CollaUnlockAmt = USDsAmt.mul(chiPresion - chi).mul(precisionColla).div(CollaUnlockAmtDiv);\n\t\tif (swapFee > 0) {\n\t\t\tCollaUnlockAmt = CollaUnlockAmt.sub(CollaUnlockAmt.mul(swapFee).div(swapFeePresion));\n\t\t}\n\t\tIERC20(collaAddr).safeTransferFrom(collaValut, msg.sender, CollaUnlockAmt);\n\n\t\t//Burn USDs\n\t\tuint swapFeeAmount = USDsAmt.mul(swapFee).div(swapFeePresion);\n\t\tUSDsInstance.burn(msg.sender, USDsAmt.sub(swapFeeAmount));\n\t\tUSDsInstance.transfer(USDsFeeValut, swapFeeAmount);\n\t}\n\n\t/**\n\t * @dev Calculate the total value of assets held by the Vault and all\n\t *      strategies and update the supply of USDs.\n\t */\n\tfunction rebase() public {\n\t\t_rebase();\n\t}\n\n\t/**\n\t * @dev Calculate the total value of assets held by the Vault and all\n\t *      strategies and update the supply of USDs, optionaly sending a\n\t *      portion of the yield to the trustee.\n\t */\n\tfunction _rebase() internal {\n\t\tuint256 totalSupply = USDsInstance.totalSupply();\n\t\tuint256 vaultValue = _totalValue();\n\n\t\tif (vaultValue > totalSupply && totalSupply != 0) {\n\t\t\tUSDsInstance.changeSupply(vaultValue);\n\t\t}\n\t}\n\n\t/**\n\t * @dev  Precision: same as chi\n\t */\n\n\tfunction collateralRatio() public view returns (uint256 ratio) {\n        uint totalValue = _totalValue();\n\t\tuint USDsSupply =  USDsInstance.totalSupply();\n\t\tratio = totalValue.mul(chiPresion).div(USDsSupply);\n    }\n\n\t/**\n     * @dev Determine the total value of assets held by the vault and its\n     *         strategies.\n     * @return value Total value in USD (1e18)\n     */\n    function totalValue() external view returns (uint256 value) {\n        value = _totalValue();\n    }\n\n    /**\n     * @dev Internal Calculate the total value of the assets held by the\n     *         vault and its strategies.\n     * @return value Total value in USD (1e18)\n     */\n    function _totalValue() internal view returns (uint256 value) {\n        return _totalValueInVault().add(_totalValueInStrategies());\n    }\n\n    /**\n     * @dev Internal to calculate total value of all assets held in Vault.\n     * @return value in ETH (1e18)\n     */\n    function _totalValueInVault() internal view returns (uint256 value) {\n        // for (uint256 y = 0; y < allCollat.length; y++) {\n        //     IERC20 asset = IERC20(allCollat[y]);\n        //     uint256 assetDecimals = Helpers.getDecimals(allCollat[y]);\n        //     uint256 balance = asset.balanceOf(address(this));\n        //     if (balance > 0) {\n        //         value = value.add(balance.scaleBy(int8(18 - assetDecimals)));\n        //     }\n        // }\n    }\n\n    /**\n     * @dev Internal to calculate total value of all assets held in Strategies.\n     * @return value in ETH (1e18)\n     */\n    function _totalValueInStrategies() internal view returns (uint256 value) {\n        for (uint256 i = 0; i < allStrategies.length; i++) {\n            value = value.add(_totalValueInStrategy(allStrategies[i]));\n        }\n    }\n\n    /**\n     * @dev Internal to calculate total value of all assets held by strategy.\n     * @param _strategyAddr Address of the strategy\n     * @return value in ETH (1e18)\n     */\n    function _totalValueInStrategy(address _strategyAddr)\n        internal\n        view\n        returns (uint256 value)\n    {\n        value = 0;\n    }\n\n\t/**\n     * @notice Get the balance of an asset held in Vault and all strategies.\n     * @param _asset Address of asset\n     * @return uint256 Balance of asset in decimals of asset\n     */\n    function checkBalance(address _asset) external view returns (uint256) {\n        return _checkBalance(_asset);\n    }\n\n    /**\n     * @notice Get the balance of an asset held in Vault and all strategies.\n     * @param _asset Address of asset\n     * @return balance Balance of asset in decimals of asset\n     */\n    function _checkBalance(address _asset)\n        internal\n        view\n        returns (uint256 balance)\n    {\n        IERC20 asset = IERC20(_asset);\n        balance = asset.balanceOf(address(this));\n        // for (uint256 i = 0; i < allStrategies.length; i++) {\n        //     IStrategy strategy = IStrategy(allStrategies[i]);\n        //     if (strategy.supportsAsset(_asset)) {\n        //         balance = balance.add(strategy.checkBalance(_asset));\n        //     }\n        // }\n    }\n\n    //\n    // Owner Only Function: change swap fee allowance\n    //\n\n    function toggleSwapfeeInAllowed(bool newAllowance) external onlyOwner {\n      swapfeeInAllowed = newAllowance;\n    }\n\n    function toggleSwapfeeOutAllowed(bool newAllowance) external onlyOwner {\n      swapfeeOutAllowed = newAllowance;\n    }\n}\n",
  "sourcePath": "/Users/daweizhao/Documents/Sperax/USDs/USDs github/USDs/contracts/vault/VaultCore.sol",
  "compiler": {
    "name": "solc",
    "version": "0.6.12+commit.27d51765.Emscripten.clang"
  },
  "schemaVersion": "3.3.4",
  "updatedAt": "2021-07-11T23:56:44.368Z",
  "networkType": "ethereum",
  "devdoc": {
    "kind": "dev",
    "methods": {
      "calculateSwapFeeIn()": {
        "details": "swapFeePresion = 1000000"
      },
      "checkBalance(address)": {
        "params": {
          "_asset": "Address of asset"
        },
        "returns": {
          "_0": "uint256 Balance of asset in decimals of asset"
        }
      },
      "collateralRatio()": {
        "details": "Precision: same as chi"
      },
      "isOwner()": {
        "details": "Returns true if the caller is the current owner."
      },
      "owner()": {
        "details": "Returns the address of the current owner."
      },
      "rebase()": {
        "details": "Calculate the total value of assets held by the Vault and all      strategies and update the supply of USDs."
      },
      "renounceOwnership()": {
        "details": "Leaves the contract without owner. It will not be possible to call `onlyOwner` functions anymore. Can only be called by the current owner. NOTE: Renouncing ownership will leave the contract without an owner, thereby removing any functionality that is only available to the owner."
      },
      "totalValue()": {
        "details": "Determine the total value of assets held by the vault and its         strategies.",
        "returns": {
          "value": "Total value in USD (1e18)"
        }
      },
      "transferOwnership(address)": {
        "details": "Transfers ownership of the contract to a new account (`newOwner`). Can only be called by the current owner."
      }
    },
    "version": 1
  },
  "userdoc": {
    "kind": "user",
    "methods": {
      "checkBalance(address)": {
        "notice": "Get the balance of an asset held in Vault and all strategies."
      }
    },
    "version": 1
  }
}