{
  "abi": [
    {
      "anonymous": false,
      "inputs": [
        {
          "indexed": true,
          "internalType": "bool",
          "name": "permission",
          "type": "bool"
        }
      ],
      "name": "AllocationPermssionChanged",
      "type": "event"
    },
    {
      "anonymous": false,
      "inputs": [
        {
          "indexed": true,
          "internalType": "address",
          "name": "collateralAddr",
          "type": "address"
        },
        {
          "indexed": false,
          "internalType": "bool",
          "name": "addded",
          "type": "bool"
        },
        {
          "indexed": false,
          "internalType": "address",
          "name": "defaultStrategyAddr",
          "type": "address"
        },
        {
          "indexed": false,
          "internalType": "bool",
          "name": "allocationAllowed",
          "type": "bool"
        },
        {
          "indexed": false,
          "internalType": "uint8",
          "name": "allocatePrecentage",
          "type": "uint8"
        },
        {
          "indexed": false,
          "internalType": "address",
          "name": "buyBackAddr",
          "type": "address"
        },
        {
          "indexed": false,
          "internalType": "bool",
          "name": "rebaseAllowed",
          "type": "bool"
        }
      ],
      "name": "CollateralAdded",
      "type": "event"
    },
    {
      "anonymous": false,
      "inputs": [
        {
          "indexed": true,
          "internalType": "address",
          "name": "collateralAddr",
          "type": "address"
        },
        {
          "indexed": true,
          "internalType": "address",
          "name": "depositStrategyAddr",
          "type": "address"
        },
        {
          "indexed": false,
          "internalType": "uint256",
          "name": "allocateAmount",
          "type": "uint256"
        }
      ],
      "name": "CollateralAllocated",
      "type": "event"
    },
    {
      "anonymous": false,
      "inputs": [
        {
          "indexed": true,
          "internalType": "address",
          "name": "collateralAddr",
          "type": "address"
        },
        {
          "indexed": false,
          "internalType": "bool",
          "name": "addded",
          "type": "bool"
        },
        {
          "indexed": false,
          "internalType": "address",
          "name": "defaultStrategyAddr",
          "type": "address"
        },
        {
          "indexed": false,
          "internalType": "bool",
          "name": "allocationAllowed",
          "type": "bool"
        },
        {
          "indexed": false,
          "internalType": "uint8",
          "name": "allocatePrecentage",
          "type": "uint8"
        },
        {
          "indexed": false,
          "internalType": "address",
          "name": "buyBackAddr",
          "type": "address"
        },
        {
          "indexed": false,
          "internalType": "bool",
          "name": "rebaseAllowed",
          "type": "bool"
        }
      ],
      "name": "CollateralChanged",
      "type": "event"
    },
    {
      "anonymous": false,
      "inputs": [
        {
          "indexed": true,
          "internalType": "bool",
          "name": "permission",
          "type": "bool"
        }
      ],
      "name": "MintRedeemPermssionChanged",
      "type": "event"
    },
    {
      "anonymous": false,
      "inputs": [
        {
          "indexed": true,
          "internalType": "address",
          "name": "previousOwner",
          "type": "address"
        },
        {
          "indexed": true,
          "internalType": "address",
          "name": "newOwner",
          "type": "address"
        }
      ],
      "name": "OwnershipTransferred",
      "type": "event"
    },
    {
      "anonymous": false,
      "inputs": [
        {
          "indexed": true,
          "internalType": "uint256",
          "name": "oldSupply",
          "type": "uint256"
        },
        {
          "indexed": true,
          "internalType": "uint256",
          "name": "newSupply",
          "type": "uint256"
        }
      ],
      "name": "Rebase",
      "type": "event"
    },
    {
      "anonymous": false,
      "inputs": [
        {
          "indexed": true,
          "internalType": "bytes32",
          "name": "role",
          "type": "bytes32"
        },
        {
          "indexed": true,
          "internalType": "bytes32",
          "name": "previousAdminRole",
          "type": "bytes32"
        },
        {
          "indexed": true,
          "internalType": "bytes32",
          "name": "newAdminRole",
          "type": "bytes32"
        }
      ],
      "name": "RoleAdminChanged",
      "type": "event"
    },
    {
      "anonymous": false,
      "inputs": [
        {
          "indexed": true,
          "internalType": "bytes32",
          "name": "role",
          "type": "bytes32"
        },
        {
          "indexed": true,
          "internalType": "address",
          "name": "account",
          "type": "address"
        },
        {
          "indexed": true,
          "internalType": "address",
          "name": "sender",
          "type": "address"
        }
      ],
      "name": "RoleGranted",
      "type": "event"
    },
    {
      "anonymous": false,
      "inputs": [
        {
          "indexed": true,
          "internalType": "bytes32",
          "name": "role",
          "type": "bytes32"
        },
        {
          "indexed": true,
          "internalType": "address",
          "name": "account",
          "type": "address"
        },
        {
          "indexed": true,
          "internalType": "address",
          "name": "sender",
          "type": "address"
        }
      ],
      "name": "RoleRevoked",
      "type": "event"
    },
    {
      "anonymous": false,
      "inputs": [
        {
          "indexed": false,
          "internalType": "address",
          "name": "strategyAddr",
          "type": "address"
        },
        {
          "indexed": false,
          "internalType": "bool",
          "name": "added",
          "type": "bool"
        }
      ],
      "name": "StrategyAdded",
      "type": "event"
    },
    {
      "anonymous": false,
      "inputs": [
        {
          "indexed": true,
          "internalType": "bool",
          "name": "swapfeeInAllowed",
          "type": "bool"
        },
        {
          "indexed": true,
          "internalType": "bool",
          "name": "swapfeeOutAllowed",
          "type": "bool"
        }
      ],
      "name": "SwapFeeInOutPermissionChanged",
      "type": "event"
    },
    {
      "anonymous": false,
      "inputs": [
        {
          "indexed": true,
          "internalType": "address",
          "name": "wallet",
          "type": "address"
        },
        {
          "indexed": true,
          "internalType": "uint256",
          "name": "USDsAmt",
          "type": "uint256"
        },
        {
          "indexed": false,
          "internalType": "uint256",
          "name": "collateralAmt",
          "type": "uint256"
        },
        {
          "indexed": false,
          "internalType": "uint256",
          "name": "SPAsAmt",
          "type": "uint256"
        },
        {
          "indexed": false,
          "internalType": "uint256",
          "name": "feeAmt",
          "type": "uint256"
        }
      ],
      "name": "USDsMinted",
      "type": "event"
    },
    {
      "anonymous": false,
      "inputs": [
        {
          "indexed": true,
          "internalType": "address",
          "name": "wallet",
          "type": "address"
        },
        {
          "indexed": true,
          "internalType": "uint256",
          "name": "USDsAmt",
          "type": "uint256"
        },
        {
          "indexed": false,
          "internalType": "uint256",
          "name": "collateralAmt",
          "type": "uint256"
        },
        {
          "indexed": false,
          "internalType": "uint256",
          "name": "SPAsAmt",
          "type": "uint256"
        },
        {
          "indexed": false,
          "internalType": "uint256",
          "name": "feeAmt",
          "type": "uint256"
        }
      ],
      "name": "USDsRedeemed",
      "type": "event"
    },
    {
      "anonymous": false,
      "inputs": [
        {
          "indexed": false,
          "internalType": "uint256",
          "name": "_chiInit",
          "type": "uint256"
        },
        {
          "indexed": false,
          "internalType": "uint32",
          "name": "_chi_beta",
          "type": "uint32"
        },
        {
          "indexed": false,
          "internalType": "uint32",
          "name": "_chi_gamma",
          "type": "uint32"
        },
        {
          "indexed": false,
          "internalType": "uint32",
          "name": "_swapFee_p",
          "type": "uint32"
        },
        {
          "indexed": false,
          "internalType": "uint32",
          "name": "_swapFee_theta",
          "type": "uint32"
        },
        {
          "indexed": false,
          "internalType": "uint32",
          "name": "_swapFee_a",
          "type": "uint32"
        },
        {
          "indexed": false,
          "internalType": "uint32",
          "name": "_swapFee_A",
          "type": "uint32"
        }
      ],
      "name": "parametersUpdated",
      "type": "event"
    },
    {
      "inputs": [],
      "name": "DEFAULT_ADMIN_ROLE",
      "outputs": [
        {
          "internalType": "bytes32",
          "name": "",
          "type": "bytes32"
        }
      ],
      "stateMutability": "view",
      "type": "function"
    },
    {
      "inputs": [],
      "name": "REBASER_ROLE",
      "outputs": [
        {
          "internalType": "bytes32",
          "name": "",
          "type": "bytes32"
        }
      ],
      "stateMutability": "view",
      "type": "function"
    },
    {
      "inputs": [],
      "name": "SPAaddr",
      "outputs": [
        {
          "internalType": "address",
          "name": "",
          "type": "address"
        }
      ],
      "stateMutability": "view",
      "type": "function"
    },
    {
      "inputs": [],
      "name": "SPAburnt",
      "outputs": [
        {
          "internalType": "uint256",
          "name": "",
          "type": "uint256"
        }
      ],
      "stateMutability": "view",
      "type": "function"
    },
    {
      "inputs": [],
      "name": "SPAminted",
      "outputs": [
        {
          "internalType": "uint256",
          "name": "",
          "type": "uint256"
        }
      ],
      "stateMutability": "view",
      "type": "function"
    },
    {
      "inputs": [],
      "name": "SPAvault",
      "outputs": [
        {
          "internalType": "address",
          "name": "",
          "type": "address"
        }
      ],
      "stateMutability": "view",
      "type": "function"
    },
    {
      "inputs": [],
      "name": "USDsAddr",
      "outputs": [
        {
          "internalType": "address",
          "name": "",
          "type": "address"
        }
      ],
      "stateMutability": "view",
      "type": "function"
    },
    {
      "inputs": [
        {
          "internalType": "address",
          "name": "_collateralAddr",
          "type": "address"
        },
        {
          "internalType": "address",
          "name": "_defaultStrategyAddr",
          "type": "address"
        },
        {
          "internalType": "bool",
          "name": "_allocationAllowed",
          "type": "bool"
        },
        {
          "internalType": "uint8",
          "name": "_allocatePercentage",
          "type": "uint8"
        },
        {
          "internalType": "address",
          "name": "_buyBackAddr",
          "type": "address"
        },
        {
          "internalType": "bool",
          "name": "_rebaseAllowed",
          "type": "bool"
        }
      ],
      "name": "addCollateral",
      "outputs": [],
      "stateMutability": "nonpayable",
      "type": "function"
    },
    {
      "inputs": [
        {
          "internalType": "address",
          "name": "_strategyAddr",
          "type": "address"
        }
      ],
      "name": "addStrategy",
      "outputs": [],
      "stateMutability": "nonpayable",
      "type": "function"
    },
    {
      "inputs": [],
      "name": "allocatePrecentage_prec",
      "outputs": [
        {
          "internalType": "uint8",
          "name": "",
          "type": "uint8"
        }
      ],
      "stateMutability": "view",
      "type": "function"
    },
    {
      "inputs": [],
      "name": "allocationAllowed",
      "outputs": [
        {
          "internalType": "bool",
          "name": "",
          "type": "bool"
        }
      ],
      "stateMutability": "view",
      "type": "function"
    },
    {
      "inputs": [],
      "name": "chiInit",
      "outputs": [
        {
          "internalType": "uint256",
          "name": "",
          "type": "uint256"
        }
      ],
      "stateMutability": "view",
      "type": "function"
    },
    {
      "inputs": [],
      "name": "chi_alpha",
      "outputs": [
        {
          "internalType": "uint32",
          "name": "",
          "type": "uint32"
        }
      ],
      "stateMutability": "view",
      "type": "function"
    },
    {
      "inputs": [],
      "name": "chi_alpha_prec",
      "outputs": [
        {
          "internalType": "uint64",
          "name": "",
          "type": "uint64"
        }
      ],
      "stateMutability": "view",
      "type": "function"
    },
    {
      "inputs": [],
      "name": "chi_beta",
      "outputs": [
        {
          "internalType": "uint32",
          "name": "",
          "type": "uint32"
        }
      ],
      "stateMutability": "view",
      "type": "function"
    },
    {
      "inputs": [],
      "name": "chi_beta_prec",
      "outputs": [
        {
          "internalType": "uint16",
          "name": "",
          "type": "uint16"
        }
      ],
      "stateMutability": "view",
      "type": "function"
    },
    {
      "inputs": [],
      "name": "chi_gamma",
      "outputs": [
        {
          "internalType": "uint32",
          "name": "",
          "type": "uint32"
        }
      ],
      "stateMutability": "view",
      "type": "function"
    },
    {
      "inputs": [],
      "name": "chi_gamma_prec",
      "outputs": [
        {
          "internalType": "uint16",
          "name": "",
          "type": "uint16"
        }
      ],
      "stateMutability": "view",
      "type": "function"
    },
    {
      "inputs": [],
      "name": "chi_prec",
      "outputs": [
        {
          "internalType": "uint64",
          "name": "",
          "type": "uint64"
        }
      ],
      "stateMutability": "view",
      "type": "function"
    },
    {
      "inputs": [],
      "name": "collateralRatio",
      "outputs": [
        {
          "internalType": "uint256",
          "name": "ratio",
          "type": "uint256"
        }
      ],
      "stateMutability": "view",
      "type": "function"
    },
    {
      "inputs": [],
      "name": "feeVault",
      "outputs": [
        {
          "internalType": "address",
          "name": "",
          "type": "address"
        }
      ],
      "stateMutability": "view",
      "type": "function"
    },
    {
      "inputs": [
        {
          "internalType": "bytes32",
          "name": "role",
          "type": "bytes32"
        }
      ],
      "name": "getRoleAdmin",
      "outputs": [
        {
          "internalType": "bytes32",
          "name": "",
          "type": "bytes32"
        }
      ],
      "stateMutability": "view",
      "type": "function"
    },
    {
      "inputs": [
        {
          "internalType": "bytes32",
          "name": "role",
          "type": "bytes32"
        },
        {
          "internalType": "uint256",
          "name": "index",
          "type": "uint256"
        }
      ],
      "name": "getRoleMember",
      "outputs": [
        {
          "internalType": "address",
          "name": "",
          "type": "address"
        }
      ],
      "stateMutability": "view",
      "type": "function"
    },
    {
      "inputs": [
        {
          "internalType": "bytes32",
          "name": "role",
          "type": "bytes32"
        }
      ],
      "name": "getRoleMemberCount",
      "outputs": [
        {
          "internalType": "uint256",
          "name": "",
          "type": "uint256"
        }
      ],
      "stateMutability": "view",
      "type": "function"
    },
    {
      "inputs": [
        {
          "internalType": "bytes32",
          "name": "role",
          "type": "bytes32"
        },
        {
          "internalType": "address",
          "name": "account",
          "type": "address"
        }
      ],
      "name": "grantRole",
      "outputs": [],
      "stateMutability": "nonpayable",
      "type": "function"
    },
    {
      "inputs": [
        {
          "internalType": "bytes32",
          "name": "role",
          "type": "bytes32"
        },
        {
          "internalType": "address",
          "name": "account",
          "type": "address"
        }
      ],
      "name": "hasRole",
      "outputs": [
        {
          "internalType": "bool",
          "name": "",
          "type": "bool"
        }
      ],
      "stateMutability": "view",
      "type": "function"
    },
    {
      "inputs": [
        {
          "internalType": "address",
          "name": "_SPAaddr",
          "type": "address"
        },
        {
          "internalType": "address",
          "name": "_vaultCoreToolsAddr",
          "type": "address"
        },
        {
          "internalType": "address",
          "name": "_feeVault",
          "type": "address"
        }
      ],
      "name": "initialize",
      "outputs": [],
      "stateMutability": "nonpayable",
      "type": "function"
    },
    {
      "inputs": [],
      "name": "mintRedeemAllowed",
      "outputs": [
        {
          "internalType": "bool",
          "name": "",
          "type": "bool"
        }
      ],
      "stateMutability": "view",
      "type": "function"
    },
    {
      "inputs": [
        {
          "internalType": "address",
          "name": "collateralAddr",
          "type": "address"
        },
        {
          "internalType": "uint256",
          "name": "collateralAmt",
          "type": "uint256"
        },
        {
          "internalType": "uint256",
          "name": "slippageUSDs",
          "type": "uint256"
        },
        {
          "internalType": "uint256",
          "name": "slippageSPA",
          "type": "uint256"
        },
        {
          "internalType": "uint256",
          "name": "deadline",
          "type": "uint256"
        }
      ],
      "name": "mintWithColla",
      "outputs": [],
      "stateMutability": "nonpayable",
      "type": "function"
    },
    {
      "inputs": [
        {
          "internalType": "uint256",
          "name": "slippageUSDs",
          "type": "uint256"
        },
        {
          "internalType": "uint256",
          "name": "slippageSPA",
          "type": "uint256"
        },
        {
          "internalType": "uint256",
          "name": "deadline",
          "type": "uint256"
        }
      ],
      "name": "mintWithEth",
      "outputs": [],
      "stateMutability": "payable",
      "type": "function"
    },
    {
      "inputs": [
        {
          "internalType": "address",
          "name": "collateralAddr",
          "type": "address"
        },
        {
          "internalType": "uint256",
          "name": "SPAamt",
          "type": "uint256"
        },
        {
          "internalType": "uint256",
          "name": "slippageUSDs",
          "type": "uint256"
        },
        {
          "internalType": "uint256",
          "name": "slippageCollateral",
          "type": "uint256"
        },
        {
          "internalType": "uint256",
          "name": "deadline",
          "type": "uint256"
        }
      ],
      "name": "mintWithSPA",
      "outputs": [],
      "stateMutability": "nonpayable",
      "type": "function"
    },
    {
      "inputs": [
        {
          "internalType": "address",
          "name": "collateralAddr",
          "type": "address"
        },
        {
          "internalType": "uint256",
          "name": "USDsMintAmt",
          "type": "uint256"
        },
        {
          "internalType": "uint256",
          "name": "slippageCollateral",
          "type": "uint256"
        },
        {
          "internalType": "uint256",
          "name": "slippageSPA",
          "type": "uint256"
        },
        {
          "internalType": "uint256",
          "name": "deadline",
          "type": "uint256"
        }
      ],
      "name": "mintWithUSDs",
      "outputs": [],
      "stateMutability": "nonpayable",
      "type": "function"
    },
    {
      "inputs": [],
      "name": "oracleAddr",
      "outputs": [
        {
          "internalType": "address",
          "name": "",
          "type": "address"
        }
      ],
      "stateMutability": "view",
      "type": "function"
    },
    {
      "inputs": [],
      "name": "owner",
      "outputs": [
        {
          "internalType": "address",
          "name": "",
          "type": "address"
        }
      ],
      "stateMutability": "view",
      "type": "function"
    },
    {
      "inputs": [],
      "name": "rebaseAllowed",
      "outputs": [
        {
          "internalType": "bool",
          "name": "",
          "type": "bool"
        }
      ],
      "stateMutability": "view",
      "type": "function"
    },
    {
      "inputs": [
        {
          "internalType": "address",
          "name": "collateralAddr",
          "type": "address"
        },
        {
          "internalType": "uint256",
          "name": "USDsAmt",
          "type": "uint256"
        },
        {
          "internalType": "uint256",
          "name": "slippageCollat",
          "type": "uint256"
        },
        {
          "internalType": "uint256",
          "name": "slippageSPA",
          "type": "uint256"
        },
        {
          "internalType": "uint256",
          "name": "deadline",
          "type": "uint256"
        }
      ],
      "name": "redeem",
      "outputs": [],
      "stateMutability": "nonpayable",
      "type": "function"
    },
    {
      "inputs": [
        {
          "internalType": "uint256",
          "name": "USDsAmt",
          "type": "uint256"
        },
        {
          "internalType": "uint256",
          "name": "slippageEth",
          "type": "uint256"
        },
        {
          "internalType": "uint256",
          "name": "slippageSPA",
          "type": "uint256"
        },
        {
          "internalType": "uint256",
          "name": "deadline",
          "type": "uint256"
        }
      ],
      "name": "redeemWithEth",
      "outputs": [],
      "stateMutability": "nonpayable",
      "type": "function"
    },
    {
      "inputs": [],
      "name": "renounceOwnership",
      "outputs": [],
      "stateMutability": "nonpayable",
      "type": "function"
    },
    {
      "inputs": [
        {
          "internalType": "bytes32",
          "name": "role",
          "type": "bytes32"
        },
        {
          "internalType": "address",
          "name": "account",
          "type": "address"
        }
      ],
      "name": "renounceRole",
      "outputs": [],
      "stateMutability": "nonpayable",
      "type": "function"
    },
    {
      "inputs": [
        {
          "internalType": "bytes32",
          "name": "role",
          "type": "bytes32"
        },
        {
          "internalType": "address",
          "name": "account",
          "type": "address"
        }
      ],
      "name": "revokeRole",
      "outputs": [],
      "stateMutability": "nonpayable",
      "type": "function"
    },
    {
      "inputs": [],
      "name": "startBlockHeight",
      "outputs": [
        {
          "internalType": "uint256",
          "name": "",
          "type": "uint256"
        }
      ],
      "stateMutability": "view",
      "type": "function"
    },
    {
      "inputs": [],
      "name": "swapFee_A",
      "outputs": [
        {
          "internalType": "uint32",
          "name": "",
          "type": "uint32"
        }
      ],
      "stateMutability": "view",
      "type": "function"
    },
    {
      "inputs": [],
      "name": "swapFee_A_prec",
      "outputs": [
        {
          "internalType": "uint16",
          "name": "",
          "type": "uint16"
        }
      ],
      "stateMutability": "view",
      "type": "function"
    },
    {
      "inputs": [],
      "name": "swapFee_a",
      "outputs": [
        {
          "internalType": "uint32",
          "name": "",
          "type": "uint32"
        }
      ],
      "stateMutability": "view",
      "type": "function"
    },
    {
      "inputs": [],
      "name": "swapFee_a_prec",
      "outputs": [
        {
          "internalType": "uint16",
          "name": "",
          "type": "uint16"
        }
      ],
      "stateMutability": "view",
      "type": "function"
    },
    {
      "inputs": [],
      "name": "swapFee_p",
      "outputs": [
        {
          "internalType": "uint32",
          "name": "",
          "type": "uint32"
        }
      ],
      "stateMutability": "view",
      "type": "function"
    },
    {
      "inputs": [],
      "name": "swapFee_p_prec",
      "outputs": [
        {
          "internalType": "uint16",
          "name": "",
          "type": "uint16"
        }
      ],
      "stateMutability": "view",
      "type": "function"
    },
    {
      "inputs": [],
      "name": "swapFee_prec",
      "outputs": [
        {
          "internalType": "uint64",
          "name": "",
          "type": "uint64"
        }
      ],
      "stateMutability": "view",
      "type": "function"
    },
    {
      "inputs": [],
      "name": "swapFee_theta",
      "outputs": [
        {
          "internalType": "uint32",
          "name": "",
          "type": "uint32"
        }
      ],
      "stateMutability": "view",
      "type": "function"
    },
    {
      "inputs": [],
      "name": "swapFee_theta_prec",
      "outputs": [
        {
          "internalType": "uint16",
          "name": "",
          "type": "uint16"
        }
      ],
      "stateMutability": "view",
      "type": "function"
    },
    {
      "inputs": [],
      "name": "swapfeeInAllowed",
      "outputs": [
        {
          "internalType": "bool",
          "name": "",
          "type": "bool"
        }
      ],
      "stateMutability": "view",
      "type": "function"
    },
    {
      "inputs": [],
      "name": "swapfeeOutAllowed",
      "outputs": [
        {
          "internalType": "bool",
          "name": "",
          "type": "bool"
        }
      ],
      "stateMutability": "view",
      "type": "function"
    },
    {
      "inputs": [],
      "name": "totalValueInVault",
      "outputs": [
        {
          "internalType": "uint256",
          "name": "value",
          "type": "uint256"
        }
      ],
      "stateMutability": "view",
      "type": "function"
    },
    {
      "inputs": [],
      "name": "totalValueLocked",
      "outputs": [
        {
          "internalType": "uint256",
          "name": "value",
          "type": "uint256"
        }
      ],
      "stateMutability": "view",
      "type": "function"
    },
    {
      "inputs": [
        {
          "internalType": "address",
          "name": "newOwner",
          "type": "address"
        }
      ],
      "name": "transferOwnership",
      "outputs": [],
      "stateMutability": "nonpayable",
      "type": "function"
    },
    {
      "inputs": [
        {
          "internalType": "bool",
          "name": "_allocationAllowed",
          "type": "bool"
        }
      ],
      "name": "updateAllocationPermission",
      "outputs": [],
      "stateMutability": "nonpayable",
      "type": "function"
    },
    {
      "inputs": [
        {
          "internalType": "address",
          "name": "_collateralAddr",
          "type": "address"
        },
        {
          "internalType": "address",
          "name": "_defaultStrategyAddr",
          "type": "address"
        },
        {
          "internalType": "bool",
          "name": "_allocationAllowed",
          "type": "bool"
        },
        {
          "internalType": "uint8",
          "name": "_allocatePercentage",
          "type": "uint8"
        },
        {
          "internalType": "address",
          "name": "_buyBackAddr",
          "type": "address"
        },
        {
          "internalType": "bool",
          "name": "_rebaseAllowed",
          "type": "bool"
        }
      ],
      "name": "updateCollateralInfo",
      "outputs": [],
      "stateMutability": "nonpayable",
      "type": "function"
    },
    {
      "inputs": [
        {
          "internalType": "bool",
          "name": "_mintRedeemAllowed",
          "type": "bool"
        }
      ],
      "name": "updateMintBurnPermission",
      "outputs": [],
      "stateMutability": "nonpayable",
      "type": "function"
    },
    {
      "inputs": [
        {
          "internalType": "address",
          "name": "_oracleAddr",
          "type": "address"
        }
      ],
      "name": "updateOracleAddress",
      "outputs": [],
      "stateMutability": "nonpayable",
      "type": "function"
    },
    {
      "inputs": [
        {
          "internalType": "uint256",
          "name": "_chiInit",
          "type": "uint256"
        },
        {
          "internalType": "uint32",
          "name": "_chi_beta",
          "type": "uint32"
        },
        {
          "internalType": "uint32",
          "name": "_chi_gamma",
          "type": "uint32"
        },
        {
          "internalType": "uint32",
          "name": "_swapFee_p",
          "type": "uint32"
        },
        {
          "internalType": "uint32",
          "name": "_swapFee_theta",
          "type": "uint32"
        },
        {
          "internalType": "uint32",
          "name": "_swapFee_a",
          "type": "uint32"
        },
        {
          "internalType": "uint32",
          "name": "_swapFee_A",
          "type": "uint32"
        }
      ],
      "name": "updateParameters",
      "outputs": [],
      "stateMutability": "nonpayable",
      "type": "function"
    },
    {
      "inputs": [
        {
          "internalType": "bool",
          "name": "_swapfeeInAllowed",
          "type": "bool"
        },
        {
          "internalType": "bool",
          "name": "_swapfeeOutAllowed",
          "type": "bool"
        }
      ],
      "name": "updateSwapInOutFeePermission",
      "outputs": [],
      "stateMutability": "nonpayable",
      "type": "function"
    },
    {
      "inputs": [
        {
          "internalType": "address",
          "name": "_USDsAddr",
          "type": "address"
        }
      ],
      "name": "updateUSDsAddress",
      "outputs": [],
      "stateMutability": "nonpayable",
      "type": "function"
    },
    {
      "inputs": [],
      "name": "vaultCoreToolsAddr",
      "outputs": [
        {
          "internalType": "address",
          "name": "",
          "type": "address"
        }
      ],
      "stateMutability": "view",
      "type": "function"
    }
  ],
  "bytecode": "608060405234801561001057600080fd5b50614430806100206000396000f3fe6080604052600436106103b85760003560e01c80637bd14e32116101f2578063b4eae1cb1161010d578063e1da5380116100a0578063f7023bb61161006f578063f7023bb614610c17578063faeddc9014610c4a578063fc9dc4ff14610c5f578063fcf4535214610c74576103b8565b8063e1da538014610ba5578063ec18154e14610bba578063edbbdb9714610bcf578063f2fde38b14610be4576103b8565b8063c6d15e1b116100dc578063c6d15e1b14610b0f578063ca15c87314610b42578063d547741f14610b6c578063d8ea64d614610714576103b8565b8063b4eae1cb14610aa0578063b845a129146103bd578063bcb083c114610ab5578063c0c53b8b14610aca576103b8565b806391d1485411610185578063a217fddf11610154578063a217fddf146109cf578063a49fdb49146109e4578063a9e3458c14610a2f578063ab1f37fa14610a44576103b8565b806391d148541461095757806396fd7db614610990578063a09caa18146109a5578063a0fda95e146109ba576103b8565b806383eb70e5116101c157806383eb70e5146108d15780638da5cb5b146108e65780638e5f2898146108fb5780639010d07c14610927576103b8565b80637bd14e32146108925780637e428dac146108a75780637e4e61d7146108bc5780638177b4a614610714576103b8565b80633f521f8c116102e25780635953e197116102755780637080460f116102445780637080460f1461083e578063715018a614610853578063723863711461086857806377f0c6151461087d576103b8565b80635953e197146107c95780635c68308d146107de5780636707d12e146107f357806368ee359114610714576103b8565b80634b24e3d3116102b15780634b24e3d3146107405780635109ef1c1461078b57806357635e91146107a057806358d7be8f14610714576103b8565b80633f521f8c146106ce578063478222c2146106e357806347be1c3e146107145780634aba312114610714576103b8565b8063248a9ca31161035a57806336568abe1161032957806336568abe1461060957806337d87d70146106425780633881d70c146106575780633c533b56146106a2576103b8565b8063248a9ca314610566578063276545fe146105a25780632f2ff15d146105d057806332e197f4146103bd576103b8565b80630d4b927f116103965780630d4b927f1461047657806314f4e974146104aa5780632206ccbc14610508578063223e547914610533576103b8565b806306ec8cd7146103bd57806309f2cdcd146103ef5780630d170b031461044d575b600080fd5b3480156103c957600080fd5b506103d2610cb0565b6040805167ffffffffffffffff9092168252519081900360200190f35b3480156103fb57600080fd5b5061044b600480360360c081101561041257600080fd5b506001600160a01b0381358116916020810135821691604082013515159160ff606082013516916080820135169060a001351515610cb9565b005b61044b6004803603606081101561046357600080fd5b5080359060208101359060400135611148565b34801561048257600080fd5b5061044b6004803603604081101561049957600080fd5b508035151590602001351515611239565b3480156104b657600080fd5b5061044b600480360360e08110156104cd57600080fd5b5080359063ffffffff602082013581169160408101358216916060820135811691608081013582169160a082013581169160c001351661130e565b34801561051457600080fd5b5061051d61153f565b6040805160ff9092168252519081900360200190f35b34801561053f57600080fd5b5061044b6004803603602081101561055657600080fd5b50356001600160a01b0316611544565b34801561057257600080fd5b506105906004803603602081101561058957600080fd5b50356116e1565b60408051918252519081900360200190f35b3480156105ae57600080fd5b506105b76116f6565b6040805163ffffffff9092168252519081900360200190f35b3480156105dc57600080fd5b5061044b600480360360408110156105f357600080fd5b50803590602001356001600160a01b031661170e565b34801561061557600080fd5b5061044b6004803603604081101561062c57600080fd5b50803590602001356001600160a01b031661177a565b34801561064e57600080fd5b506105b76117db565b34801561066357600080fd5b5061044b600480360360a081101561067a57600080fd5b506001600160a01b0381351690602081013590604081013590606081013590608001356117ee565b3480156106ae57600080fd5b5061044b600480360360208110156106c557600080fd5b50351515611944565b3480156106da57600080fd5b506105b76119ea565b3480156106ef57600080fd5b506106f86119fe565b604080516001600160a01b039092168252519081900360200190f35b34801561072057600080fd5b50610729611a0d565b6040805161ffff9092168252519081900360200190f35b34801561074c57600080fd5b5061044b600480360360a081101561076357600080fd5b506001600160a01b038135169060208101359060408101359060608101359060800135611a13565b34801561079757600080fd5b50610590611b5d565b3480156107ac57600080fd5b506107b5611b63565b604080519115158252519081900360200190f35b3480156107d557600080fd5b506106f8611b6c565b3480156107ea57600080fd5b506106f8611b7b565b3480156107ff57600080fd5b5061044b600480360360a081101561081657600080fd5b506001600160a01b038135169060208101359060408101359060608101359060800135611b8a565b34801561084a57600080fd5b506107b5611cd4565b34801561085f57600080fd5b5061044b611ce5565b34801561087457600080fd5b506105b7611d91565b34801561088957600080fd5b506107b5611d9d565b34801561089e57600080fd5b506106f8611dac565b3480156108b357600080fd5b50610590611dbb565b3480156108c857600080fd5b506106f8611e8a565b3480156108dd57600080fd5b50610590611e99565b3480156108f257600080fd5b506106f8611ebd565b34801561090757600080fd5b5061044b6004803603602081101561091e57600080fd5b50351515611ecc565b34801561093357600080fd5b506106f86004803603604081101561094a57600080fd5b5080359060200135611f7d565b34801561096357600080fd5b506107b56004803603604081101561097a57600080fd5b50803590602001356001600160a01b0316611f9e565b34801561099c57600080fd5b506105b7611fb6565b3480156109b157600080fd5b506107b5611fc2565b3480156109c657600080fd5b506105b7611fd2565b3480156109db57600080fd5b50610590611fe5565b3480156109f057600080fd5b5061044b600480360360a0811015610a0757600080fd5b506001600160a01b038135169060208101359060408101359060608101359060800135611fea565b348015610a3b57600080fd5b50610590612131565b348015610a5057600080fd5b5061044b600480360360c0811015610a6757600080fd5b506001600160a01b0381358116916020810135821691604082013515159160ff606082013516916080820135169060a001351515612137565b348015610aac57600080fd5b50610590612362565b348015610ac157600080fd5b506106f8612510565b348015610ad657600080fd5b5061044b60048036036060811015610aed57600080fd5b506001600160a01b038135811691602081013582169160409091013516612526565b348015610b1b57600080fd5b5061044b60048036036020811015610b3257600080fd5b50356001600160a01b03166126e2565b348015610b4e57600080fd5b5061059060048036036020811015610b6557600080fd5b5035612766565b348015610b7857600080fd5b5061044b60048036036040811015610b8f57600080fd5b50803590602001356001600160a01b031661277d565b348015610bb157600080fd5b506105b76127d6565b348015610bc657600080fd5b506105906127e9565b348015610bdb57600080fd5b506107b56127f8565b348015610bf057600080fd5b5061044b60048036036020811015610c0757600080fd5b50356001600160a01b0316612806565b348015610c2357600080fd5b5061044b60048036036020811015610c3a57600080fd5b50356001600160a01b0316612909565b348015610c5657600080fd5b5061059061298d565b348015610c6b57600080fd5b50610590612993565b348015610c8057600080fd5b5061044b60048036036080811015610c9757600080fd5b5080359060208101359060408101359060600135612999565b64e8d4a5100081565b610cc1612a7e565b6001600160a01b0316610cd2611ebd565b6001600160a01b031614610d1b576040805162461bcd60e51b81526020600482018190526024820152600080516020614354833981519152604482015290519081900360640190fd5b6001600160a01b038616600090815260d56020526040902054600160a01b900460ff1615610d83576040805162461bcd60e51b815260206004820152601060248201526f10dbdb1b185d195c985b08185919195960821b604482015290519081900360640190fd5b6012866001600160a01b031663313ce5676040518163ffffffff1660e01b815260040160206040518083038186803b158015610dbe57600080fd5b505afa158015610dd2573d6000803e3d6000fd5b505050506040513d6020811015610de857600080fd5b505160ff161115610e2a5760405162461bcd60e51b815260040180806020018281038252602c8152602001806142a6602c913960400191505060405180910390fd5b600060d56000886001600160a01b03166001600160a01b031681526020019081526020016000209050868160000160006101000a8154816001600160a01b0302191690836001600160a01b0316021790555060018160000160146101000a81548160ff021916908315150217905550858160010160006101000a8154816001600160a01b0302191690836001600160a01b03160217905550848160010160146101000a81548160ff021916908315150217905550828160020160006101000a8154816001600160a01b0302191690836001600160a01b0316021790555060d78190806001815401808255809150506001900390600052602060002090600302016000909190919091506000820160009054906101000a90046001600160a01b03168160000160006101000a8154816001600160a01b0302191690836001600160a01b031602179055506000820160149054906101000a900460ff168160000160146101000a81548160ff0219169083151502179055506001820160009054906101000a90046001600160a01b03168160010160006101000a8154816001600160a01b0302191690836001600160a01b031602179055506001820160149054906101000a900460ff168160010160146101000a81548160ff0219169083151502179055506001820160159054906101000a900460ff168160010160156101000a81548160ff021916908360ff1602179055506002820160009054906101000a90046001600160a01b03168160020160006101000a8154816001600160a01b0302191690836001600160a01b031602179055506002820160149054906101000a900460ff168160020160146101000a81548160ff0219169083151502179055505050866001600160a01b03167fb74901440f0e5d23bd60355bf8d84403df003dc885ba6e8759712f8a34db5e598260000160149054906101000a900460ff168888888888604051808715158152602001866001600160a01b0316815260200185151581526020018460ff168152602001836001600160a01b031681526020018215158152602001965050505050505060405180910390a250505050505050565b60c95460ff1661118d576040805162461bcd60e51b81526020600482015260146024820152600080516020614256833981519152604482015290519081900360640190fd5b600260975414156111d3576040805162461bcd60e51b815260206004820152601f602482015260008051602061413c833981519152604482015290519081900360640190fd5b60026097553461121e576040805162461bcd60e51b81526020600482015260116024820152702732b2b2103a37903830bc9022ba3432b960791b604482015290519081900360640190fd5b61122f600034600386348787612a82565b5050600160975550565b611241612a7e565b6001600160a01b0316611252611ebd565b6001600160a01b03161461129b576040805162461bcd60e51b81526020600482018190526024820152600080516020614354833981519152604482015290519081900360640190fd5b60c9805463ff0000001916630100000084151581029190911764ff0000000019166401000000008415158102919091179283905560405160ff918404821615159392909204161515907f8e363288229795661dc4cd7765bb22af3b1ddb395a07cd4894d365d6ebd5d67190600090a35050565b611316612a7e565b6001600160a01b0316611327611ebd565b6001600160a01b031614611370576040805162461bcd60e51b81526020600482018190526024820152600080516020614354833981519152604482015290519081900360640190fd5b8660d3819055508560d460006101000a81548163ffffffff021916908363ffffffff1602179055508460d460046101000a81548163ffffffff021916908363ffffffff1602179055508360d460086101000a81548163ffffffff021916908363ffffffff1602179055508260d4600c6101000a81548163ffffffff021916908363ffffffff1602179055508160d460106101000a81548163ffffffff021916908363ffffffff1602179055508060d460146101000a81548163ffffffff021916908363ffffffff1602179055507f54ce0b11ef28e3402c63cfc90282c636bb07cce2ec4a737dbd0b2fb60b7158f760d35460d460009054906101000a900463ffffffff1660d460049054906101000a900463ffffffff1660d460089054906101000a900463ffffffff1660d4600c9054906101000a900463ffffffff1660d460109054906101000a900463ffffffff1660d460149054906101000a900463ffffffff16604051808881526020018763ffffffff1681526020018663ffffffff1681526020018563ffffffff1681526020018463ffffffff1681526020018363ffffffff1681526020018263ffffffff16815260200197505050505050505060405180910390a150505050505050565b606481565b61154c612a7e565b6001600160a01b031661155d611ebd565b6001600160a01b0316146115a6576040805162461bcd60e51b81526020600482018190526024820152600080516020614354833981519152604482015290519081900360640190fd5b6001600160a01b038116600090815260d66020526040902054600160a01b900460ff161561160c576040805162461bcd60e51b815260206004820152600e60248201526d14dd1c985d1959de48185919195960921b604482015290519081900360640190fd5b6001600160a01b03808216600081815260d660209081526040808320805460ff60a01b196001600160a01b031991821687178116600160a01b908117845560d88054600181810183559190985284547f5320ad99a619a90804cd2efe3a5cf0ac1ac5c41ad9ff2c61cf699efdad77109690980180549094169790991696909617808355835487900460ff161515909602951694909417909355805193845290830193909352825190927f835a6c4fc865a810f7943cfca478cada6bf307d7dbd75892a046aee7ea3cc214928290030190a15050565b60009081526065602052604090206002015490565b60d45468010000000000000000900463ffffffff1681565b6000828152606560205260409020600201546117319061172c612a7e565b611f9e565b61176c5760405162461bcd60e51b815260040180806020018281038252602f81526020018061410d602f913960400191505060405180910390fd5b6117768282612e4d565b5050565b611782612a7e565b6001600160a01b0316816001600160a01b0316146117d15760405162461bcd60e51b815260040180806020018281038252602f8152602001806143cc602f913960400191505060405180910390fd5b6117768282612eb6565b60d454600160801b900463ffffffff1681565b60c95460ff16611833576040805162461bcd60e51b81526020600482015260146024820152600080516020614256833981519152604482015290519081900360640190fd5b60026097541415611879576040805162461bcd60e51b815260206004820152601f602482015260008051602061413c833981519152604482015290519081900360640190fd5b60026097556001600160a01b038516600090815260d56020526040902054600160a01b900460ff166118e9576040805162461bcd60e51b815260206004820152601460248201527310dbdb1b185d195c985b081b9bdd08185919195960621b604482015290519081900360640190fd5b600084116119285760405162461bcd60e51b81526004018080602001828103825260218152602001806141e26021913960400191505060405180910390fd5b6119388585600087878787612a82565b50506001609755505050565b61194c612a7e565b6001600160a01b031661195d611ebd565b6001600160a01b0316146119a6576040805162461bcd60e51b81526020600482018190526024820152600080516020614354833981519152604482015290519081900360640190fd5b60c9805460ff1916821515179081905560405160ff9091161515907f4aa2f044c925ec4ad9ac60a30b437e605ba4b7c4827d423be239b10228df4a4d90600090a250565b60d454640100000000900463ffffffff1681565b60cd546001600160a01b031681565b61271081565b60c95460ff16611a58576040805162461bcd60e51b81526020600482015260146024820152600080516020614256833981519152604482015290519081900360640190fd5b60026097541415611a9e576040805162461bcd60e51b815260206004820152601f602482015260008051602061413c833981519152604482015290519081900360640190fd5b60026097556001600160a01b038516600090815260d56020526040902054600160a01b900460ff16611b0e576040805162461bcd60e51b815260206004820152601460248201527310dbdb1b185d195c985b081b9bdd08185919195960621b604482015290519081900360640190fd5b60008411611b4d5760405162461bcd60e51b81526004018080602001828103825260218152602001806141e26021913960400191505060405180910390fd5b6119388585600186868987612a82565b60d05481565b60c95460ff1681565b60ca546001600160a01b031681565b60cc546001600160a01b031681565b60c95460ff16611bcf576040805162461bcd60e51b81526020600482015260146024820152600080516020614256833981519152604482015290519081900360640190fd5b60026097541415611c15576040805162461bcd60e51b815260206004820152601f602482015260008051602061413c833981519152604482015290519081900360640190fd5b60026097556001600160a01b038516600090815260d56020526040902054600160a01b900460ff16611c85576040805162461bcd60e51b815260206004820152601460248201527310dbdb1b185d195c985b081b9bdd08185919195960621b604482015290519081900360640190fd5b60008411611cc45760405162461bcd60e51b81526004018080602001828103825260218152602001806141e26021913960400191505060405180910390fd5b6119388585600286888787612a82565b60c954640100000000900460ff1681565b611ced612a7e565b6001600160a01b0316611cfe611ebd565b6001600160a01b031614611d47576040805162461bcd60e51b81526020600482018190526024820152600080516020614354833981519152604482015290519081900360640190fd5b6033546040516000916001600160a01b0316907f8be0079c531659141344cd1fd0a4f28419497f9722a3daafe3b4186f6b6457e0908390a3603380546001600160a01b0319169055565b60d25463ffffffff1681565b60c95462010000900460ff1681565b60ce546001600160a01b031681565b6000805b60d754811015611e8657611dd16140ae565b60d78281548110611dde57fe5b60009182526020918290206040805160e081018252600390930290910180546001600160a01b0380821680865260ff600160a01b938490048116151597870197909752600184015480831695870195909552828504871615156060870152600160a81b9094048616608086015260029092015491821660a08501529004909216151560c08201529150611e7b90611e7490612f1f565b84906131c5565b925050600101611dbf565b5090565b60cb546001600160a01b031681565b7f5fde63b561377d1441afa201ff619faac2ff8fed70a7fbdbe7a5cb07768c0b7581565b6033546001600160a01b031690565b611ed4612a7e565b6001600160a01b0316611ee5611ebd565b6001600160a01b031614611f2e576040805162461bcd60e51b81526020600482018190526024820152600080516020614354833981519152604482015290519081900360640190fd5b60c9805461ff0019166101008315158102919091179182905560405160ff91909204161515907f7304ed846a7da817e311f225ed0df7c4b621c484da0ab3e633bd5ad083f2c3ae90600090a250565b6000828152606560205260408120611f95908361321f565b90505b92915050565b6000828152606560205260408120611f95908361322b565b60d45463ffffffff1681565b60c9546301000000900460ff1681565b60d454600160a01b900463ffffffff1681565b600081565b60c95460ff1661202f576040805162461bcd60e51b81526020600482015260146024820152600080516020614256833981519152604482015290519081900360640190fd5b60026097541415612075576040805162461bcd60e51b815260206004820152601f602482015260008051602061413c833981519152604482015290519081900360640190fd5b60026097556001600160a01b038516600090815260d56020526040902054600160a01b900460ff166120e5576040805162461bcd60e51b815260206004820152601460248201527310dbdb1b185d195c985b081b9bdd08185919195960621b604482015290519081900360640190fd5b600084116121245760405162461bcd60e51b81526004018080602001828103825260218152602001806141e26021913960400191505060405180910390fd5b6119388585858585613240565b60d15481565b61213f612a7e565b6001600160a01b0316612150611ebd565b6001600160a01b031614612199576040805162461bcd60e51b81526020600482018190526024820152600080516020614354833981519152604482015290519081900360640190fd5b6001600160a01b038616600090815260d56020526040902054600160a01b900460ff16612204576040805162461bcd60e51b815260206004820152601460248201527310dbdb1b185d195c985b081b9bdd08185919195960621b604482015290519081900360640190fd5b600060d56000886001600160a01b03166001600160a01b031681526020019081526020016000209050868160000160006101000a8154816001600160a01b0302191690836001600160a01b03160217905550858160010160006101000a8154816001600160a01b0302191690836001600160a01b03160217905550848160010160146101000a81548160ff021916908315150217905550828160020160006101000a8154816001600160a01b0302191690836001600160a01b03160217905550866001600160a01b03167f4373c9397f82b63ec1404e609e257362b37c078b682bce6b7727d21fce4d15948260000160149054906101000a900460ff168888888888604051808715158152602001866001600160a01b0316815260200185151581526020018460ff168152602001836001600160a01b031681526020018215158152602001965050505050505060405180910390a250505050505050565b60008061236d6127e9565b9050600060ca60009054906101000a90046001600160a01b03166001600160a01b03166318160ddd6040518163ffffffff1660e01b815260040160206040518083038186803b1580156123bf57600080fd5b505afa1580156123d3573d6000803e3d6000fd5b505050506040513d60208110156123e957600080fd5b505160cb5460408051630421977560e11b815290519293506000926001600160a01b03909216916308432eea91600480820192602092909190829003018186803b15801561243657600080fd5b505afa15801561244a573d6000803e3d6000fd5b505050506040513d602081101561246057600080fd5b505160cb5460408051636f2a2b0f60e01b815290519293506000926001600160a01b0390921691636f2a2b0f91600480820192602092909190829003018186803b1580156124ad57600080fd5b505afa1580156124c1573d6000803e3d6000fd5b505050506040513d60208110156124d757600080fd5b5051905060006124f1826124eb8686613617565b90613670565b9050612506816124eb8764e8d4a51000613617565b9550505050505090565b60c954600160281b90046001600160a01b031681565b600054610100900460ff168061253f575061253f6136d7565b8061254d575060005460ff16155b6125885760405162461bcd60e51b815260040180806020018281038252602e8152602001806142d2602e913960400191505060405180910390fd5b600054610100900460ff161580156125b3576000805460ff1961ff0019909116610100171660011790555b6125bb6136e8565b6125c361379a565b6125cb613837565b60c980546001600160a01b03868116600160281b0262ff0100600160c81b031960ff19909316600117929092169190911790915560ce80548583166001600160a01b03199182161790915560cc80548216301790554360cf5560d2805463ffffffff19908116613db81790915564dd30699c0060d35560d48054615f9092169190911767ffffffff00000000191665271000000000176bffffffff00000000000000001916684500000000000000001763ffffffff60601b191661050960651b1763ffffffff60801b1916610aa360811b1763ffffffff60a01b1916603560a61b17905560cd80549091169184169190911790556126ca60003361176c565b80156126dc576000805461ff00191690555b50505050565b6126ea612a7e565b6001600160a01b03166126fb611ebd565b6001600160a01b031614612744576040805162461bcd60e51b81526020600482018190526024820152600080516020614354833981519152604482015290519081900360640190fd5b60ca80546001600160a01b0319166001600160a01b0392909216919091179055565b6000818152606560205260408120611f98906138cc565b60008281526065602052604090206002015461279b9061172c612a7e565b6117d15760405162461bcd60e51b81526004018080602001828103825260308152602001806142766030913960400191505060405180910390fd5b60d454600160601b900463ffffffff1681565b60006127f3611dbb565b905090565b60c954610100900460ff1681565b61280e612a7e565b6001600160a01b031661281f611ebd565b6001600160a01b031614612868576040805162461bcd60e51b81526020600482018190526024820152600080516020614354833981519152604482015290519081900360640190fd5b6001600160a01b0381166128ad5760405162461bcd60e51b815260040180806020018281038252602681526020018061415c6026913960400191505060405180910390fd5b6033546040516001600160a01b038084169216907f8be0079c531659141344cd1fd0a4f28419497f9722a3daafe3b4186f6b6457e090600090a3603380546001600160a01b0319166001600160a01b0392909216919091179055565b612911612a7e565b6001600160a01b0316612922611ebd565b6001600160a01b03161461296b576040805162461bcd60e51b81526020600482018190526024820152600080516020614354833981519152604482015290519081900360640190fd5b60cb80546001600160a01b0319166001600160a01b0392909216919091179055565b60d35481565b60cf5481565b60c95460ff166129de576040805162461bcd60e51b81526020600482015260146024820152600080516020614256833981519152604482015290519081900360640190fd5b60026097541415612a24576040805162461bcd60e51b815260206004820152601f602482015260008051602061413c833981519152604482015290519081900360640190fd5b600260975583612a655760405162461bcd60e51b81526004018080602001828103825260218152602001806141e26021913960400191505060405180910390fd5b612a73600085858585613240565b505060016097555050565b3390565b60c95460ff16612ac7576040805162461bcd60e51b81526020600482015260146024820152600080516020614256833981519152604482015290519081900360640190fd5b60ce54604080516363b09fdb60e01b81526001600160a01b038a81166004830152602482018a905260ff89166044830152306064830152915160009384938493849391909216916363b09fdb916084808301926080929190829003018186803b158015612b3357600080fd5b505afa158015612b47573d6000803e3d6000fd5b505050506040513d6080811015612b5d57600080fd5b508051602082015160408301516060909301519196509450909250905087821015612bb95760405162461bcd60e51b815260040180806020018281038252602e815260200180614374602e913960400191505060405180910390fd5b86831115612bf85760405162461bcd60e51b81526004018080602001828103825260338152602001806143006033913960400191505060405180910390fd5b85841115612c375760405162461bcd60e51b815260040180806020018281038252602c8152602001806141b6602c913960400191505060405180910390fd5b84421115612c7f576040805162461bcd60e51b815260206004820152601060248201526f111958591b1a5b9948195e1c1a5c995960821b604482015290519081900360640190fd5b60c9546040805163079cc67960e41b8152336004820152602481018790529051600160281b9092046001600160a01b0316916379cc67909160448082019260009290919082900301818387803b158015612cd857600080fd5b505af1158015612cec573d6000803e3d6000fd5b505060d154612cfe92509050856131c5565b60d155600360ff8a1614612d2157612d216001600160a01b038c163330866138d7565b60ca54604080516340c10f1960e01b81523360048201526024810185905290516001600160a01b03909216916340c10f199160448082019260009290919082900301818387803b158015612d7457600080fd5b505af1158015612d88573d6000803e3d6000fd5b505060ca5460cd54604080516340c10f1960e01b81526001600160a01b0392831660048201526024810187905290519190921693506340c10f199250604480830192600092919082900301818387803b158015612de457600080fd5b505af1158015612df8573d6000803e3d6000fd5b5050604080518681526020810188905280820185905290518593503392507f473211ca1f39de50cbd3cc7e9f63f97251afb1a528e8164f279bf67dab4f952d9181900360600190a35050505050505050505050565b6000828152606560205260409020612e659082613931565b1561177657612e72612a7e565b6001600160a01b0316816001600160a01b0316837f2f8788117e7eff1d82e926ec794901d17c78024a50270940304540a733656f0d60405160405180910390a45050565b6000828152606560205260409020612ece9082613946565b1561177657612edb612a7e565b6001600160a01b0316816001600160a01b0316837ff6391f5c32d9c69d2a47ea670b442974b53935d1edc7fd64eb21e047a839171b60405160405180910390a45050565b6000612f296140ae565b506001600160a01b03808316600090815260d560209081526040808320815160e081018352815480871680835260ff600160a01b9283900481161515848801526001850154808a1685880152838104821615156060860152600160a81b90048116608085015260029094015480891660a085015291909104909216151560c082015260cb548351631469026560e21b815260048101939093529251909592909216926351a4099492602480840193829003018186803b158015612feb57600080fd5b505afa158015612fff573d6000803e3d6000fd5b505050506040513d602081101561301557600080fd5b505160cb54835160408051633f15327960e01b81526001600160a01b03928316600482015290519394506000939190921691633f153279916024808301926020929190829003018186803b15801561306c57600080fd5b505afa158015613080573d6000803e3d6000fd5b505050506040513d602081101561309657600080fd5b505183516040805163313ce56760e01b815290519293506000926001600160a01b039092169163313ce56791600480820192602092909190829003018186803b1580156130e257600080fd5b505afa1580156130f6573d6000803e3d6000fd5b505050506040513d602081101561310c57600080fd5b50518451604080516370a0823160e01b8152306004820152905160ff909316935060009261319d9286926124eb9289926001600160a01b0316916370a08231916024808301926020929190829003018186803b15801561316b57600080fd5b505afa15801561317f573d6000803e3d6000fd5b505050506040513d602081101561319557600080fd5b505190613617565b905060006131b96131af60128561395b565b8390600a0a613617565b98975050505050505050565b600082820183811015611f95576040805162461bcd60e51b815260206004820152601b60248201527f536166654d6174683a206164646974696f6e206f766572666c6f770000000000604482015290519081900360640190fd5b6000611f9583836139b8565b6000611f95836001600160a01b038416613a1c565b60c95460ff16613285576040805162461bcd60e51b81526020600482015260146024820152600080516020614256833981519152604482015290519081900360640190fd5b60ce5460cb5460408051637a9acad360e11b81526001600160a01b0389811660048301526024820189905230604483015292831660648201529051600093849384938493919092169163f53595a6916084808301926080929190829003018186803b1580156132f357600080fd5b505afa158015613307573d6000803e3d6000fd5b505050506040513d608081101561331d57600080fd5b5080516020820151604083015160609093015191965094509092509050868310156133795760405162461bcd60e51b81526004018080602001828103825260348152602001806141826034913960400191505060405180910390fd5b858410156133b85760405162461bcd60e51b815260040180806020018281038252602d815260200180614229602d913960400191505060405180910390fd5b84421115613400576040805162461bcd60e51b815260206004820152601060248201526f111958591b1a5b9948195e1c1a5c995960821b604482015290519081900360640190fd5b60c9546040805163edb561c360e01b8152336004820152602481018790529051600160281b9092046001600160a01b03169163edb561c39160448082019260009290919082900301818387803b15801561345957600080fd5b505af115801561346d573d6000803e3d6000fd5b505060d05461347f92509050856131c5565b60d0556001600160a01b03891661352a57604051600090339085908381818185875af1925050503d80600081146134d2576040519150601f19603f3d011682016040523d82523d6000602084013e6134d7565b606091505b5050905080613524576040805162461bcd60e51b81526020600482015260146024820152732330b4b632b2103a379039b2b7321022ba3432b960611b604482015290519081900360640190fd5b5061353e565b61353e6001600160a01b038a163385613a34565b60ca5460408051632770a7eb60e21b81523360048201526024810185905290516001600160a01b0390921691639dc29fac9160448082019260009290919082900301818387803b15801561359157600080fd5b505af11580156135a5573d6000803e3d6000fd5b505060cd5460ca546135c893506001600160a01b039081169250339116846138d7565b60408051848152602081018690528082018390529051839133917f7a7fa876a9a577092f57d3c1deeddc4025fb563aab144154b355ede4fb9f3ded9181900360600190a3505050505050505050565b60008261362657506000611f98565b8282028284828161363357fe5b0414611f955760405162461bcd60e51b81526004018080602001828103825260218152602001806143336021913960400191505060405180910390fd5b60008082116136c6576040805162461bcd60e51b815260206004820152601a60248201527f536166654d6174683a206469766973696f6e206279207a65726f000000000000604482015290519081900360640190fd5b8183816136cf57fe5b049392505050565b60006136e230613a8b565b15905090565b600054610100900460ff168061370157506137016136d7565b8061370f575060005460ff16155b61374a5760405162461bcd60e51b815260040180806020018281038252602e8152602001806142d2602e913960400191505060405180910390fd5b600054610100900460ff16158015613775576000805460ff1961ff0019909116610100171660011790555b61377d613a91565b613785613b31565b8015613797576000805461ff00191690555b50565b600054610100900460ff16806137b357506137b36136d7565b806137c1575060005460ff16155b6137fc5760405162461bcd60e51b815260040180806020018281038252602e8152602001806142d2602e913960400191505060405180910390fd5b600054610100900460ff16158015613827576000805460ff1961ff0019909116610100171660011790555b61382f613a91565b613785613a91565b600054610100900460ff168061385057506138506136d7565b8061385e575060005460ff16155b6138995760405162461bcd60e51b815260040180806020018281038252602e8152602001806142d2602e913960400191505060405180910390fd5b600054610100900460ff161580156138c4576000805460ff1961ff0019909116610100171660011790555b613785613c2a565b6000611f9882613cd0565b604080516001600160a01b0380861660248301528416604482015260648082018490528251808303909101815260849091019091526020810180516001600160e01b03166323b872dd60e01b1790526126dc908590613cd4565b6000611f95836001600160a01b038416613d85565b6000611f95836001600160a01b038416613dcf565b6000828211156139b2576040805162461bcd60e51b815260206004820152601e60248201527f536166654d6174683a207375627472616374696f6e206f766572666c6f770000604482015290519081900360640190fd5b50900390565b815460009082106139fa5760405162461bcd60e51b81526004018080602001828103825260228152602001806140eb6022913960400191505060405180910390fd5b826000018281548110613a0957fe5b9060005260206000200154905092915050565b60009081526001919091016020526040902054151590565b604080516001600160a01b038416602482015260448082018490528251808303909101815260649091019091526020810180516001600160e01b031663a9059cbb60e01b179052613a86908490613cd4565b505050565b3b151590565b600054610100900460ff1680613aaa5750613aaa6136d7565b80613ab8575060005460ff16155b613af35760405162461bcd60e51b815260040180806020018281038252602e8152602001806142d2602e913960400191505060405180910390fd5b600054610100900460ff16158015613785576000805460ff1961ff0019909116610100171660011790558015613797576000805461ff001916905550565b600054610100900460ff1680613b4a5750613b4a6136d7565b80613b58575060005460ff16155b613b935760405162461bcd60e51b815260040180806020018281038252602e8152602001806142d2602e913960400191505060405180910390fd5b600054610100900460ff16158015613bbe576000805460ff1961ff0019909116610100171660011790555b6000613bc8612a7e565b603380546001600160a01b0319166001600160a01b038316908117909155604051919250906000907f8be0079c531659141344cd1fd0a4f28419497f9722a3daafe3b4186f6b6457e0908290a3508015613797576000805461ff001916905550565b600054610100900460ff1680613c435750613c436136d7565b80613c51575060005460ff16155b613c8c5760405162461bcd60e51b815260040180806020018281038252602e8152602001806142d2602e913960400191505060405180910390fd5b600054610100900460ff16158015613cb7576000805460ff1961ff0019909116610100171660011790555b60016097558015613797576000805461ff001916905550565b5490565b6060613d29826040518060400160405280602081526020017f5361666545524332303a206c6f772d6c6576656c2063616c6c206661696c6564815250856001600160a01b0316613e959092919063ffffffff16565b805190915015613a8657808060200190516020811015613d4857600080fd5b5051613a865760405162461bcd60e51b815260040180806020018281038252602a8152602001806143a2602a913960400191505060405180910390fd5b6000613d918383613a1c565b613dc757508154600181810184556000848152602080822090930184905584548482528286019093526040902091909155611f98565b506000611f98565b60008181526001830160205260408120548015613e8b5783546000198083019190810190600090879083908110613e0257fe5b9060005260206000200154905080876000018481548110613e1f57fe5b600091825260208083209091019290925582815260018981019092526040902090840190558654879080613e4f57fe5b60019003818190600052602060002001600090559055866001016000878152602001908152602001600020600090556001945050505050611f98565b6000915050611f98565b6060613ea48484600085613eae565b90505b9392505050565b606082471015613eef5760405162461bcd60e51b81526004018080602001828103825260268152602001806142036026913960400191505060405180910390fd5b613ef885613a8b565b613f49576040805162461bcd60e51b815260206004820152601d60248201527f416464726573733a2063616c6c20746f206e6f6e2d636f6e7472616374000000604482015290519081900360640190fd5b60006060866001600160a01b031685876040518082805190602001908083835b60208310613f885780518252601f199092019160209182019101613f69565b6001836020036101000a03801982511681845116808217855250505050505090500191505060006040518083038185875af1925050503d8060008114613fea576040519150601f19603f3d011682016040523d82523d6000602084013e613fef565b606091505b5091509150613fff82828661400a565b979650505050505050565b60608315614019575081613ea7565b8251156140295782518084602001fd5b8160405162461bcd60e51b81526004018080602001828103825283818151815260200191508051906020019080838360005b8381101561407357818101518382015260200161405b565b50505050905090810190601f1680156140a05780820380516001836020036101000a031916815260200191505b509250505060405180910390fd5b6040805160e081018252600080825260208201819052918101829052606081018290526080810182905260a0810182905260c08101919091529056fe456e756d657261626c655365743a20696e646578206f7574206f6620626f756e6473416363657373436f6e74726f6c3a2073656e646572206d75737420626520616e2061646d696e20746f206772616e745265656e7472616e637947756172643a207265656e7472616e742063616c6c004f776e61626c653a206e6577206f776e657220697320746865207a65726f2061646472657373436f6c6c61746572616c20616d6f756e74206973206c6f776572207468616e20746865206d6178696d756d20736c69707061676553504120616d6f756e74206973206d6f7265207468616e20746865206d6178696d756d20736c697070616765416d6f756e74206e6565647320746f2062652067726561746572207468616e2030416464726573733a20696e73756666696369656e742062616c616e636520666f722063616c6c53504120616d6f756e74206973206c6f776572207468616e20746865206d6178696d756d20736c6970706167654d696e7420262072656465656d20706175736564000000000000000000000000416363657373436f6e74726f6c3a2073656e646572206d75737420626520616e2061646d696e20746f207265766f6b65436f6c6c61746572616c7320646563696d616c73206e65656420746f206265206c657373207465686e203138496e697469616c697a61626c653a20636f6e747261637420697320616c726561647920696e697469616c697a6564436f6c6c61746572616c20616d6f756e74206973206d6f7265207468616e20746865206d6178696d756d20736c697070616765536166654d6174683a206d756c7469706c69636174696f6e206f766572666c6f774f776e61626c653a2063616c6c6572206973206e6f7420746865206f776e65725553447320616d6f756e74206973206c6f776572207468616e20746865206d6178696d756d20736c6970706167655361666545524332303a204552433230206f7065726174696f6e20646964206e6f742073756363656564416363657373436f6e74726f6c3a2063616e206f6e6c792072656e6f756e636520726f6c657320666f722073656c66a26469706673582212208dcdb97fe9275eb51f44083ce4f4b916f8dac1bf13fcef497108d3b2672d3e0d64736f6c634300060c0033",
  "bytecodeSha1": "3521d75c20442d876fc0aea61a136d46515b0f1b",
  "compiler": {
    "evm_version": "istanbul",
    "optimizer": {
      "enabled": true,
      "runs": 200
    },
    "version": "0.6.12+commit.27d51765"
  },
  "contractName": "VaultCore",
  "language": "Solidity",
  "natspec": {
    "kind": "dev",
    "methods": {
      "getRoleAdmin(bytes32)": {
        "details": "Returns the admin role that controls `role`. See {grantRole} and {revokeRole}. To change a role's admin, use {_setRoleAdmin}."
      },
      "getRoleMember(bytes32,uint256)": {
        "details": "Returns one of the accounts that have `role`. `index` must be a value between 0 and {getRoleMemberCount}, non-inclusive. Role bearers are not sorted in any particular way, and their ordering may change at any point. WARNING: When using {getRoleMember} and {getRoleMemberCount}, make sure you perform all queries on the same block. See the following https://forum.openzeppelin.com/t/iterating-over-elements-on-enumerableset-in-openzeppelin-contracts/2296[forum post] for more information."
      },
      "getRoleMemberCount(bytes32)": {
        "details": "Returns the number of accounts that have `role`. Can be used together with {getRoleMember} to enumerate all bearers of a role."
      },
      "grantRole(bytes32,address)": {
        "details": "Grants `role` to `account`. If `account` had not been already granted `role`, emits a {RoleGranted} event. Requirements: - the caller must have ``role``'s admin role."
      },
      "hasRole(bytes32,address)": {
        "details": "Returns `true` if `account` has been granted `role`."
      },
      "mintWithColla(address,uint256,uint256,uint256,uint256)": {
        "details": "mint USDs by entering collateral amount (excluding ETH)",
        "params": {
          "collateralAddr": "the address of user's chosen collateral",
          "collateralAmt": "the amount of collateral to stake"
        }
      },
      "mintWithEth(uint256,uint256,uint256)": {
        "details": "mint USDs by ETH note: this function needs changes when USDs is deployed on other blockchain platform"
      },
      "mintWithSPA(address,uint256,uint256,uint256,uint256)": {
        "details": "mint USDs by entering SPA amount",
        "params": {
          "SPAamt": "the amount of SPA to burn",
          "collateralAddr": "the address of user's chosen collateral"
        }
      },
      "mintWithUSDs(address,uint256,uint256,uint256,uint256)": {
        "details": "mint USDs by entering USDs amount",
        "params": {
          "USDsMintAmt": "the amount of USDs to be minted",
          "collateralAddr": "the address of user's chosen collateral"
        }
      },
      "owner()": {
        "details": "Returns the address of the current owner."
      },
      "renounceOwnership()": {
        "details": "Leaves the contract without owner. It will not be possible to call `onlyOwner` functions anymore. Can only be called by the current owner. NOTE: Renouncing ownership will leave the contract without an owner, thereby removing any functionality that is only available to the owner."
      },
      "renounceRole(bytes32,address)": {
        "details": "Revokes `role` from the calling account. Roles are often managed via {grantRole} and {revokeRole}: this function's purpose is to provide a mechanism for accounts to lose their privileges if they are compromised (such as when a trusted device is misplaced). If the calling account had been granted `role`, emits a {RoleRevoked} event. Requirements: - the caller must be `account`."
      },
      "revokeRole(bytes32,address)": {
        "details": "Revokes `role` from `account`. If `account` had been granted `role`, emits a {RoleRevoked} event. Requirements: - the caller must have ``role``'s admin role."
      },
      "transferOwnership(address)": {
        "details": "Transfers ownership of the contract to a new account (`newOwner`). Can only be called by the current owner."
      },
      "updateAllocationPermission(bool)": {
        "details": "disable collateral re-investment"
      },
      "updateMintBurnPermission(bool)": {
        "details": "disable USDs mint & redeem"
      },
      "updateSwapInOutFeePermission(bool,bool)": {
        "details": "disable swapInFee, i.e. mint becomes free"
      }
    },
    "version": 1
  },
  "opcodes": "PUSH1 0x80 PUSH1 0x40 MSTORE PUSH1 0x4 CALLDATASIZE LT PUSH2 0x3B8 JUMPI PUSH1 0x0 CALLDATALOAD PUSH1 0xE0 SHR DUP1 PUSH4 0x7BD14E32 GT PUSH2 0x1F2 JUMPI DUP1 PUSH4 0xB4EAE1CB GT PUSH2 0x10D JUMPI DUP1 PUSH4 0xE1DA5380 GT PUSH2 0xA0 JUMPI DUP1 PUSH4 0xF7023BB6 GT PUSH2 0x6F JUMPI DUP1 PUSH4 0xF7023BB6 EQ PUSH2 0xC17 JUMPI DUP1 PUSH4 0xFAEDDC90 EQ PUSH2 0xC4A JUMPI DUP1 PUSH4 0xFC9DC4FF EQ PUSH2 0xC5F JUMPI DUP1 PUSH4 0xFCF45352 EQ PUSH2 0xC74 JUMPI PUSH2 0x3B8 JUMP JUMPDEST DUP1 PUSH4 0xE1DA5380 EQ PUSH2 0xBA5 JUMPI DUP1 PUSH4 0xEC18154E EQ PUSH2 0xBBA JUMPI DUP1 PUSH4 0xEDBBDB97 EQ PUSH2 0xBCF JUMPI DUP1 PUSH4 0xF2FDE38B EQ PUSH2 0xBE4 JUMPI PUSH2 0x3B8 JUMP JUMPDEST DUP1 PUSH4 0xC6D15E1B GT PUSH2 0xDC JUMPI DUP1 PUSH4 0xC6D15E1B EQ PUSH2 0xB0F JUMPI DUP1 PUSH4 0xCA15C873 EQ PUSH2 0xB42 JUMPI DUP1 PUSH4 0xD547741F EQ PUSH2 0xB6C JUMPI DUP1 PUSH4 0xD8EA64D6 EQ PUSH2 0x714 JUMPI PUSH2 0x3B8 JUMP JUMPDEST DUP1 PUSH4 0xB4EAE1CB EQ PUSH2 0xAA0 JUMPI DUP1 PUSH4 0xB845A129 EQ PUSH2 0x3BD JUMPI DUP1 PUSH4 0xBCB083C1 EQ PUSH2 0xAB5 JUMPI DUP1 PUSH4 0xC0C53B8B EQ PUSH2 0xACA JUMPI PUSH2 0x3B8 JUMP JUMPDEST DUP1 PUSH4 0x91D14854 GT PUSH2 0x185 JUMPI DUP1 PUSH4 0xA217FDDF GT PUSH2 0x154 JUMPI DUP1 PUSH4 0xA217FDDF EQ PUSH2 0x9CF JUMPI DUP1 PUSH4 0xA49FDB49 EQ PUSH2 0x9E4 JUMPI DUP1 PUSH4 0xA9E3458C EQ PUSH2 0xA2F JUMPI DUP1 PUSH4 0xAB1F37FA EQ PUSH2 0xA44 JUMPI PUSH2 0x3B8 JUMP JUMPDEST DUP1 PUSH4 0x91D14854 EQ PUSH2 0x957 JUMPI DUP1 PUSH4 0x96FD7DB6 EQ PUSH2 0x990 JUMPI DUP1 PUSH4 0xA09CAA18 EQ PUSH2 0x9A5 JUMPI DUP1 PUSH4 0xA0FDA95E EQ PUSH2 0x9BA JUMPI PUSH2 0x3B8 JUMP JUMPDEST DUP1 PUSH4 0x83EB70E5 GT PUSH2 0x1C1 JUMPI DUP1 PUSH4 0x83EB70E5 EQ PUSH2 0x8D1 JUMPI DUP1 PUSH4 0x8DA5CB5B EQ PUSH2 0x8E6 JUMPI DUP1 PUSH4 0x8E5F2898 EQ PUSH2 0x8FB JUMPI DUP1 PUSH4 0x9010D07C EQ PUSH2 0x927 JUMPI PUSH2 0x3B8 JUMP JUMPDEST DUP1 PUSH4 0x7BD14E32 EQ PUSH2 0x892 JUMPI DUP1 PUSH4 0x7E428DAC EQ PUSH2 0x8A7 JUMPI DUP1 PUSH4 0x7E4E61D7 EQ PUSH2 0x8BC JUMPI DUP1 PUSH4 0x8177B4A6 EQ PUSH2 0x714 JUMPI PUSH2 0x3B8 JUMP JUMPDEST DUP1 PUSH4 0x3F521F8C GT PUSH2 0x2E2 JUMPI DUP1 PUSH4 0x5953E197 GT PUSH2 0x275 JUMPI DUP1 PUSH4 0x7080460F GT PUSH2 0x244 JUMPI DUP1 PUSH4 0x7080460F EQ PUSH2 0x83E JUMPI DUP1 PUSH4 0x715018A6 EQ PUSH2 0x853 JUMPI DUP1 PUSH4 0x72386371 EQ PUSH2 0x868 JUMPI DUP1 PUSH4 0x77F0C615 EQ PUSH2 0x87D JUMPI PUSH2 0x3B8 JUMP JUMPDEST DUP1 PUSH4 0x5953E197 EQ PUSH2 0x7C9 JUMPI DUP1 PUSH4 0x5C68308D EQ PUSH2 0x7DE JUMPI DUP1 PUSH4 0x6707D12E EQ PUSH2 0x7F3 JUMPI DUP1 PUSH4 0x68EE3591 EQ PUSH2 0x714 JUMPI PUSH2 0x3B8 JUMP JUMPDEST DUP1 PUSH4 0x4B24E3D3 GT PUSH2 0x2B1 JUMPI DUP1 PUSH4 0x4B24E3D3 EQ PUSH2 0x740 JUMPI DUP1 PUSH4 0x5109EF1C EQ PUSH2 0x78B JUMPI DUP1 PUSH4 0x57635E91 EQ PUSH2 0x7A0 JUMPI DUP1 PUSH4 0x58D7BE8F EQ PUSH2 0x714 JUMPI PUSH2 0x3B8 JUMP JUMPDEST DUP1 PUSH4 0x3F521F8C EQ PUSH2 0x6CE JUMPI DUP1 PUSH4 0x478222C2 EQ PUSH2 0x6E3 JUMPI DUP1 PUSH4 0x47BE1C3E EQ PUSH2 0x714 JUMPI DUP1 PUSH4 0x4ABA3121 EQ PUSH2 0x714 JUMPI PUSH2 0x3B8 JUMP JUMPDEST DUP1 PUSH4 0x248A9CA3 GT PUSH2 0x35A JUMPI DUP1 PUSH4 0x36568ABE GT PUSH2 0x329 JUMPI DUP1 PUSH4 0x36568ABE EQ PUSH2 0x609 JUMPI DUP1 PUSH4 0x37D87D70 EQ PUSH2 0x642 JUMPI DUP1 PUSH4 0x3881D70C EQ PUSH2 0x657 JUMPI DUP1 PUSH4 0x3C533B56 EQ PUSH2 0x6A2 JUMPI PUSH2 0x3B8 JUMP JUMPDEST DUP1 PUSH4 0x248A9CA3 EQ PUSH2 0x566 JUMPI DUP1 PUSH4 0x276545FE EQ PUSH2 0x5A2 JUMPI DUP1 PUSH4 0x2F2FF15D EQ PUSH2 0x5D0 JUMPI DUP1 PUSH4 0x32E197F4 EQ PUSH2 0x3BD JUMPI PUSH2 0x3B8 JUMP JUMPDEST DUP1 PUSH4 0xD4B927F GT PUSH2 0x396 JUMPI DUP1 PUSH4 0xD4B927F EQ PUSH2 0x476 JUMPI DUP1 PUSH4 0x14F4E974 EQ PUSH2 0x4AA JUMPI DUP1 PUSH4 0x2206CCBC EQ PUSH2 0x508 JUMPI DUP1 PUSH4 0x223E5479 EQ PUSH2 0x533 JUMPI PUSH2 0x3B8 JUMP JUMPDEST DUP1 PUSH4 0x6EC8CD7 EQ PUSH2 0x3BD JUMPI DUP1 PUSH4 0x9F2CDCD EQ PUSH2 0x3EF JUMPI DUP1 PUSH4 0xD170B03 EQ PUSH2 0x44D JUMPI JUMPDEST PUSH1 0x0 DUP1 REVERT JUMPDEST CALLVALUE DUP1 ISZERO PUSH2 0x3C9 JUMPI PUSH1 0x0 DUP1 REVERT JUMPDEST POP PUSH2 0x3D2 PUSH2 0xCB0 JUMP JUMPDEST PUSH1 0x40 DUP1 MLOAD PUSH8 0xFFFFFFFFFFFFFFFF SWAP1 SWAP3 AND DUP3 MSTORE MLOAD SWAP1 DUP2 SWAP1 SUB PUSH1 0x20 ADD SWAP1 RETURN JUMPDEST CALLVALUE DUP1 ISZERO PUSH2 0x3FB JUMPI PUSH1 0x0 DUP1 REVERT JUMPDEST POP PUSH2 0x44B PUSH1 0x4 DUP1 CALLDATASIZE SUB PUSH1 0xC0 DUP2 LT ISZERO PUSH2 0x412 JUMPI PUSH1 0x0 DUP1 REVERT JUMPDEST POP PUSH1 0x1 PUSH1 0x1 PUSH1 0xA0 SHL SUB DUP2 CALLDATALOAD DUP2 AND SWAP2 PUSH1 0x20 DUP2 ADD CALLDATALOAD DUP3 AND SWAP2 PUSH1 0x40 DUP3 ADD CALLDATALOAD ISZERO ISZERO SWAP2 PUSH1 0xFF PUSH1 0x60 DUP3 ADD CALLDATALOAD AND SWAP2 PUSH1 0x80 DUP3 ADD CALLDATALOAD AND SWAP1 PUSH1 0xA0 ADD CALLDATALOAD ISZERO ISZERO PUSH2 0xCB9 JUMP JUMPDEST STOP JUMPDEST PUSH2 0x44B PUSH1 0x4 DUP1 CALLDATASIZE SUB PUSH1 0x60 DUP2 LT ISZERO PUSH2 0x463 JUMPI PUSH1 0x0 DUP1 REVERT JUMPDEST POP DUP1 CALLDATALOAD SWAP1 PUSH1 0x20 DUP2 ADD CALLDATALOAD SWAP1 PUSH1 0x40 ADD CALLDATALOAD PUSH2 0x1148 JUMP JUMPDEST CALLVALUE DUP1 ISZERO PUSH2 0x482 JUMPI PUSH1 0x0 DUP1 REVERT JUMPDEST POP PUSH2 0x44B PUSH1 0x4 DUP1 CALLDATASIZE SUB PUSH1 0x40 DUP2 LT ISZERO PUSH2 0x499 JUMPI PUSH1 0x0 DUP1 REVERT JUMPDEST POP DUP1 CALLDATALOAD ISZERO ISZERO SWAP1 PUSH1 0x20 ADD CALLDATALOAD ISZERO ISZERO PUSH2 0x1239 JUMP JUMPDEST CALLVALUE DUP1 ISZERO PUSH2 0x4B6 JUMPI PUSH1 0x0 DUP1 REVERT JUMPDEST POP PUSH2 0x44B PUSH1 0x4 DUP1 CALLDATASIZE SUB PUSH1 0xE0 DUP2 LT ISZERO PUSH2 0x4CD JUMPI PUSH1 0x0 DUP1 REVERT JUMPDEST POP DUP1 CALLDATALOAD SWAP1 PUSH4 0xFFFFFFFF PUSH1 0x20 DUP3 ADD CALLDATALOAD DUP2 AND SWAP2 PUSH1 0x40 DUP2 ADD CALLDATALOAD DUP3 AND SWAP2 PUSH1 0x60 DUP3 ADD CALLDATALOAD DUP2 AND SWAP2 PUSH1 0x80 DUP2 ADD CALLDATALOAD DUP3 AND SWAP2 PUSH1 0xA0 DUP3 ADD CALLDATALOAD DUP2 AND SWAP2 PUSH1 0xC0 ADD CALLDATALOAD AND PUSH2 0x130E JUMP JUMPDEST CALLVALUE DUP1 ISZERO PUSH2 0x514 JUMPI PUSH1 0x0 DUP1 REVERT JUMPDEST POP PUSH2 0x51D PUSH2 0x153F JUMP JUMPDEST PUSH1 0x40 DUP1 MLOAD PUSH1 0xFF SWAP1 SWAP3 AND DUP3 MSTORE MLOAD SWAP1 DUP2 SWAP1 SUB PUSH1 0x20 ADD SWAP1 RETURN JUMPDEST CALLVALUE DUP1 ISZERO PUSH2 0x53F JUMPI PUSH1 0x0 DUP1 REVERT JUMPDEST POP PUSH2 0x44B PUSH1 0x4 DUP1 CALLDATASIZE SUB PUSH1 0x20 DUP2 LT ISZERO PUSH2 0x556 JUMPI PUSH1 0x0 DUP1 REVERT JUMPDEST POP CALLDATALOAD PUSH1 0x1 PUSH1 0x1 PUSH1 0xA0 SHL SUB AND PUSH2 0x1544 JUMP JUMPDEST CALLVALUE DUP1 ISZERO PUSH2 0x572 JUMPI PUSH1 0x0 DUP1 REVERT JUMPDEST POP PUSH2 0x590 PUSH1 0x4 DUP1 CALLDATASIZE SUB PUSH1 0x20 DUP2 LT ISZERO PUSH2 0x589 JUMPI PUSH1 0x0 DUP1 REVERT JUMPDEST POP CALLDATALOAD PUSH2 0x16E1 JUMP JUMPDEST PUSH1 0x40 DUP1 MLOAD SWAP2 DUP3 MSTORE MLOAD SWAP1 DUP2 SWAP1 SUB PUSH1 0x20 ADD SWAP1 RETURN JUMPDEST CALLVALUE DUP1 ISZERO PUSH2 0x5AE JUMPI PUSH1 0x0 DUP1 REVERT JUMPDEST POP PUSH2 0x5B7 PUSH2 0x16F6 JUMP JUMPDEST PUSH1 0x40 DUP1 MLOAD PUSH4 0xFFFFFFFF SWAP1 SWAP3 AND DUP3 MSTORE MLOAD SWAP1 DUP2 SWAP1 SUB PUSH1 0x20 ADD SWAP1 RETURN JUMPDEST CALLVALUE DUP1 ISZERO PUSH2 0x5DC JUMPI PUSH1 0x0 DUP1 REVERT JUMPDEST POP PUSH2 0x44B PUSH1 0x4 DUP1 CALLDATASIZE SUB PUSH1 0x40 DUP2 LT ISZERO PUSH2 0x5F3 JUMPI PUSH1 0x0 DUP1 REVERT JUMPDEST POP DUP1 CALLDATALOAD SWAP1 PUSH1 0x20 ADD CALLDATALOAD PUSH1 0x1 PUSH1 0x1 PUSH1 0xA0 SHL SUB AND PUSH2 0x170E JUMP JUMPDEST CALLVALUE DUP1 ISZERO PUSH2 0x615 JUMPI PUSH1 0x0 DUP1 REVERT JUMPDEST POP PUSH2 0x44B PUSH1 0x4 DUP1 CALLDATASIZE SUB PUSH1 0x40 DUP2 LT ISZERO PUSH2 0x62C JUMPI PUSH1 0x0 DUP1 REVERT JUMPDEST POP DUP1 CALLDATALOAD SWAP1 PUSH1 0x20 ADD CALLDATALOAD PUSH1 0x1 PUSH1 0x1 PUSH1 0xA0 SHL SUB AND PUSH2 0x177A JUMP JUMPDEST CALLVALUE DUP1 ISZERO PUSH2 0x64E JUMPI PUSH1 0x0 DUP1 REVERT JUMPDEST POP PUSH2 0x5B7 PUSH2 0x17DB JUMP JUMPDEST CALLVALUE DUP1 ISZERO PUSH2 0x663 JUMPI PUSH1 0x0 DUP1 REVERT JUMPDEST POP PUSH2 0x44B PUSH1 0x4 DUP1 CALLDATASIZE SUB PUSH1 0xA0 DUP2 LT ISZERO PUSH2 0x67A JUMPI PUSH1 0x0 DUP1 REVERT JUMPDEST POP PUSH1 0x1 PUSH1 0x1 PUSH1 0xA0 SHL SUB DUP2 CALLDATALOAD AND SWAP1 PUSH1 0x20 DUP2 ADD CALLDATALOAD SWAP1 PUSH1 0x40 DUP2 ADD CALLDATALOAD SWAP1 PUSH1 0x60 DUP2 ADD CALLDATALOAD SWAP1 PUSH1 0x80 ADD CALLDATALOAD PUSH2 0x17EE JUMP JUMPDEST CALLVALUE DUP1 ISZERO PUSH2 0x6AE JUMPI PUSH1 0x0 DUP1 REVERT JUMPDEST POP PUSH2 0x44B PUSH1 0x4 DUP1 CALLDATASIZE SUB PUSH1 0x20 DUP2 LT ISZERO PUSH2 0x6C5 JUMPI PUSH1 0x0 DUP1 REVERT JUMPDEST POP CALLDATALOAD ISZERO ISZERO PUSH2 0x1944 JUMP JUMPDEST CALLVALUE DUP1 ISZERO PUSH2 0x6DA JUMPI PUSH1 0x0 DUP1 REVERT JUMPDEST POP PUSH2 0x5B7 PUSH2 0x19EA JUMP JUMPDEST CALLVALUE DUP1 ISZERO PUSH2 0x6EF JUMPI PUSH1 0x0 DUP1 REVERT JUMPDEST POP PUSH2 0x6F8 PUSH2 0x19FE JUMP JUMPDEST PUSH1 0x40 DUP1 MLOAD PUSH1 0x1 PUSH1 0x1 PUSH1 0xA0 SHL SUB SWAP1 SWAP3 AND DUP3 MSTORE MLOAD SWAP1 DUP2 SWAP1 SUB PUSH1 0x20 ADD SWAP1 RETURN JUMPDEST CALLVALUE DUP1 ISZERO PUSH2 0x720 JUMPI PUSH1 0x0 DUP1 REVERT JUMPDEST POP PUSH2 0x729 PUSH2 0x1A0D JUMP JUMPDEST PUSH1 0x40 DUP1 MLOAD PUSH2 0xFFFF SWAP1 SWAP3 AND DUP3 MSTORE MLOAD SWAP1 DUP2 SWAP1 SUB PUSH1 0x20 ADD SWAP1 RETURN JUMPDEST CALLVALUE DUP1 ISZERO PUSH2 0x74C JUMPI PUSH1 0x0 DUP1 REVERT JUMPDEST POP PUSH2 0x44B PUSH1 0x4 DUP1 CALLDATASIZE SUB PUSH1 0xA0 DUP2 LT ISZERO PUSH2 0x763 JUMPI PUSH1 0x0 DUP1 REVERT JUMPDEST POP PUSH1 0x1 PUSH1 0x1 PUSH1 0xA0 SHL SUB DUP2 CALLDATALOAD AND SWAP1 PUSH1 0x20 DUP2 ADD CALLDATALOAD SWAP1 PUSH1 0x40 DUP2 ADD CALLDATALOAD SWAP1 PUSH1 0x60 DUP2 ADD CALLDATALOAD SWAP1 PUSH1 0x80 ADD CALLDATALOAD PUSH2 0x1A13 JUMP JUMPDEST CALLVALUE DUP1 ISZERO PUSH2 0x797 JUMPI PUSH1 0x0 DUP1 REVERT JUMPDEST POP PUSH2 0x590 PUSH2 0x1B5D JUMP JUMPDEST CALLVALUE DUP1 ISZERO PUSH2 0x7AC JUMPI PUSH1 0x0 DUP1 REVERT JUMPDEST POP PUSH2 0x7B5 PUSH2 0x1B63 JUMP JUMPDEST PUSH1 0x40 DUP1 MLOAD SWAP2 ISZERO ISZERO DUP3 MSTORE MLOAD SWAP1 DUP2 SWAP1 SUB PUSH1 0x20 ADD SWAP1 RETURN JUMPDEST CALLVALUE DUP1 ISZERO PUSH2 0x7D5 JUMPI PUSH1 0x0 DUP1 REVERT JUMPDEST POP PUSH2 0x6F8 PUSH2 0x1B6C JUMP JUMPDEST CALLVALUE DUP1 ISZERO PUSH2 0x7EA JUMPI PUSH1 0x0 DUP1 REVERT JUMPDEST POP PUSH2 0x6F8 PUSH2 0x1B7B JUMP JUMPDEST CALLVALUE DUP1 ISZERO PUSH2 0x7FF JUMPI PUSH1 0x0 DUP1 REVERT JUMPDEST POP PUSH2 0x44B PUSH1 0x4 DUP1 CALLDATASIZE SUB PUSH1 0xA0 DUP2 LT ISZERO PUSH2 0x816 JUMPI PUSH1 0x0 DUP1 REVERT JUMPDEST POP PUSH1 0x1 PUSH1 0x1 PUSH1 0xA0 SHL SUB DUP2 CALLDATALOAD AND SWAP1 PUSH1 0x20 DUP2 ADD CALLDATALOAD SWAP1 PUSH1 0x40 DUP2 ADD CALLDATALOAD SWAP1 PUSH1 0x60 DUP2 ADD CALLDATALOAD SWAP1 PUSH1 0x80 ADD CALLDATALOAD PUSH2 0x1B8A JUMP JUMPDEST CALLVALUE DUP1 ISZERO PUSH2 0x84A JUMPI PUSH1 0x0 DUP1 REVERT JUMPDEST POP PUSH2 0x7B5 PUSH2 0x1CD4 JUMP JUMPDEST CALLVALUE DUP1 ISZERO PUSH2 0x85F JUMPI PUSH1 0x0 DUP1 REVERT JUMPDEST POP PUSH2 0x44B PUSH2 0x1CE5 JUMP JUMPDEST CALLVALUE DUP1 ISZERO PUSH2 0x874 JUMPI PUSH1 0x0 DUP1 REVERT JUMPDEST POP PUSH2 0x5B7 PUSH2 0x1D91 JUMP JUMPDEST CALLVALUE DUP1 ISZERO PUSH2 0x889 JUMPI PUSH1 0x0 DUP1 REVERT JUMPDEST POP PUSH2 0x7B5 PUSH2 0x1D9D JUMP JUMPDEST CALLVALUE DUP1 ISZERO PUSH2 0x89E JUMPI PUSH1 0x0 DUP1 REVERT JUMPDEST POP PUSH2 0x6F8 PUSH2 0x1DAC JUMP JUMPDEST CALLVALUE DUP1 ISZERO PUSH2 0x8B3 JUMPI PUSH1 0x0 DUP1 REVERT JUMPDEST POP PUSH2 0x590 PUSH2 0x1DBB JUMP JUMPDEST CALLVALUE DUP1 ISZERO PUSH2 0x8C8 JUMPI PUSH1 0x0 DUP1 REVERT JUMPDEST POP PUSH2 0x6F8 PUSH2 0x1E8A JUMP JUMPDEST CALLVALUE DUP1 ISZERO PUSH2 0x8DD JUMPI PUSH1 0x0 DUP1 REVERT JUMPDEST POP PUSH2 0x590 PUSH2 0x1E99 JUMP JUMPDEST CALLVALUE DUP1 ISZERO PUSH2 0x8F2 JUMPI PUSH1 0x0 DUP1 REVERT JUMPDEST POP PUSH2 0x6F8 PUSH2 0x1EBD JUMP JUMPDEST CALLVALUE DUP1 ISZERO PUSH2 0x907 JUMPI PUSH1 0x0 DUP1 REVERT JUMPDEST POP PUSH2 0x44B PUSH1 0x4 DUP1 CALLDATASIZE SUB PUSH1 0x20 DUP2 LT ISZERO PUSH2 0x91E JUMPI PUSH1 0x0 DUP1 REVERT JUMPDEST POP CALLDATALOAD ISZERO ISZERO PUSH2 0x1ECC JUMP JUMPDEST CALLVALUE DUP1 ISZERO PUSH2 0x933 JUMPI PUSH1 0x0 DUP1 REVERT JUMPDEST POP PUSH2 0x6F8 PUSH1 0x4 DUP1 CALLDATASIZE SUB PUSH1 0x40 DUP2 LT ISZERO PUSH2 0x94A JUMPI PUSH1 0x0 DUP1 REVERT JUMPDEST POP DUP1 CALLDATALOAD SWAP1 PUSH1 0x20 ADD CALLDATALOAD PUSH2 0x1F7D JUMP JUMPDEST CALLVALUE DUP1 ISZERO PUSH2 0x963 JUMPI PUSH1 0x0 DUP1 REVERT JUMPDEST POP PUSH2 0x7B5 PUSH1 0x4 DUP1 CALLDATASIZE SUB PUSH1 0x40 DUP2 LT ISZERO PUSH2 0x97A JUMPI PUSH1 0x0 DUP1 REVERT JUMPDEST POP DUP1 CALLDATALOAD SWAP1 PUSH1 0x20 ADD CALLDATALOAD PUSH1 0x1 PUSH1 0x1 PUSH1 0xA0 SHL SUB AND PUSH2 0x1F9E JUMP JUMPDEST CALLVALUE DUP1 ISZERO PUSH2 0x99C JUMPI PUSH1 0x0 DUP1 REVERT JUMPDEST POP PUSH2 0x5B7 PUSH2 0x1FB6 JUMP JUMPDEST CALLVALUE DUP1 ISZERO PUSH2 0x9B1 JUMPI PUSH1 0x0 DUP1 REVERT JUMPDEST POP PUSH2 0x7B5 PUSH2 0x1FC2 JUMP JUMPDEST CALLVALUE DUP1 ISZERO PUSH2 0x9C6 JUMPI PUSH1 0x0 DUP1 REVERT JUMPDEST POP PUSH2 0x5B7 PUSH2 0x1FD2 JUMP JUMPDEST CALLVALUE DUP1 ISZERO PUSH2 0x9DB JUMPI PUSH1 0x0 DUP1 REVERT JUMPDEST POP PUSH2 0x590 PUSH2 0x1FE5 JUMP JUMPDEST CALLVALUE DUP1 ISZERO PUSH2 0x9F0 JUMPI PUSH1 0x0 DUP1 REVERT JUMPDEST POP PUSH2 0x44B PUSH1 0x4 DUP1 CALLDATASIZE SUB PUSH1 0xA0 DUP2 LT ISZERO PUSH2 0xA07 JUMPI PUSH1 0x0 DUP1 REVERT JUMPDEST POP PUSH1 0x1 PUSH1 0x1 PUSH1 0xA0 SHL SUB DUP2 CALLDATALOAD AND SWAP1 PUSH1 0x20 DUP2 ADD CALLDATALOAD SWAP1 PUSH1 0x40 DUP2 ADD CALLDATALOAD SWAP1 PUSH1 0x60 DUP2 ADD CALLDATALOAD SWAP1 PUSH1 0x80 ADD CALLDATALOAD PUSH2 0x1FEA JUMP JUMPDEST CALLVALUE DUP1 ISZERO PUSH2 0xA3B JUMPI PUSH1 0x0 DUP1 REVERT JUMPDEST POP PUSH2 0x590 PUSH2 0x2131 JUMP JUMPDEST CALLVALUE DUP1 ISZERO PUSH2 0xA50 JUMPI PUSH1 0x0 DUP1 REVERT JUMPDEST POP PUSH2 0x44B PUSH1 0x4 DUP1 CALLDATASIZE SUB PUSH1 0xC0 DUP2 LT ISZERO PUSH2 0xA67 JUMPI PUSH1 0x0 DUP1 REVERT JUMPDEST POP PUSH1 0x1 PUSH1 0x1 PUSH1 0xA0 SHL SUB DUP2 CALLDATALOAD DUP2 AND SWAP2 PUSH1 0x20 DUP2 ADD CALLDATALOAD DUP3 AND SWAP2 PUSH1 0x40 DUP3 ADD CALLDATALOAD ISZERO ISZERO SWAP2 PUSH1 0xFF PUSH1 0x60 DUP3 ADD CALLDATALOAD AND SWAP2 PUSH1 0x80 DUP3 ADD CALLDATALOAD AND SWAP1 PUSH1 0xA0 ADD CALLDATALOAD ISZERO ISZERO PUSH2 0x2137 JUMP JUMPDEST CALLVALUE DUP1 ISZERO PUSH2 0xAAC JUMPI PUSH1 0x0 DUP1 REVERT JUMPDEST POP PUSH2 0x590 PUSH2 0x2362 JUMP JUMPDEST CALLVALUE DUP1 ISZERO PUSH2 0xAC1 JUMPI PUSH1 0x0 DUP1 REVERT JUMPDEST POP PUSH2 0x6F8 PUSH2 0x2510 JUMP JUMPDEST CALLVALUE DUP1 ISZERO PUSH2 0xAD6 JUMPI PUSH1 0x0 DUP1 REVERT JUMPDEST POP PUSH2 0x44B PUSH1 0x4 DUP1 CALLDATASIZE SUB PUSH1 0x60 DUP2 LT ISZERO PUSH2 0xAED JUMPI PUSH1 0x0 DUP1 REVERT JUMPDEST POP PUSH1 0x1 PUSH1 0x1 PUSH1 0xA0 SHL SUB DUP2 CALLDATALOAD DUP2 AND SWAP2 PUSH1 0x20 DUP2 ADD CALLDATALOAD DUP3 AND SWAP2 PUSH1 0x40 SWAP1 SWAP2 ADD CALLDATALOAD AND PUSH2 0x2526 JUMP JUMPDEST CALLVALUE DUP1 ISZERO PUSH2 0xB1B JUMPI PUSH1 0x0 DUP1 REVERT JUMPDEST POP PUSH2 0x44B PUSH1 0x4 DUP1 CALLDATASIZE SUB PUSH1 0x20 DUP2 LT ISZERO PUSH2 0xB32 JUMPI PUSH1 0x0 DUP1 REVERT JUMPDEST POP CALLDATALOAD PUSH1 0x1 PUSH1 0x1 PUSH1 0xA0 SHL SUB AND PUSH2 0x26E2 JUMP JUMPDEST CALLVALUE DUP1 ISZERO PUSH2 0xB4E JUMPI PUSH1 0x0 DUP1 REVERT JUMPDEST POP PUSH2 0x590 PUSH1 0x4 DUP1 CALLDATASIZE SUB PUSH1 0x20 DUP2 LT ISZERO PUSH2 0xB65 JUMPI PUSH1 0x0 DUP1 REVERT JUMPDEST POP CALLDATALOAD PUSH2 0x2766 JUMP JUMPDEST CALLVALUE DUP1 ISZERO PUSH2 0xB78 JUMPI PUSH1 0x0 DUP1 REVERT JUMPDEST POP PUSH2 0x44B PUSH1 0x4 DUP1 CALLDATASIZE SUB PUSH1 0x40 DUP2 LT ISZERO PUSH2 0xB8F JUMPI PUSH1 0x0 DUP1 REVERT JUMPDEST POP DUP1 CALLDATALOAD SWAP1 PUSH1 0x20 ADD CALLDATALOAD PUSH1 0x1 PUSH1 0x1 PUSH1 0xA0 SHL SUB AND PUSH2 0x277D JUMP JUMPDEST CALLVALUE DUP1 ISZERO PUSH2 0xBB1 JUMPI PUSH1 0x0 DUP1 REVERT JUMPDEST POP PUSH2 0x5B7 PUSH2 0x27D6 JUMP JUMPDEST CALLVALUE DUP1 ISZERO PUSH2 0xBC6 JUMPI PUSH1 0x0 DUP1 REVERT JUMPDEST POP PUSH2 0x590 PUSH2 0x27E9 JUMP JUMPDEST CALLVALUE DUP1 ISZERO PUSH2 0xBDB JUMPI PUSH1 0x0 DUP1 REVERT JUMPDEST POP PUSH2 0x7B5 PUSH2 0x27F8 JUMP JUMPDEST CALLVALUE DUP1 ISZERO PUSH2 0xBF0 JUMPI PUSH1 0x0 DUP1 REVERT JUMPDEST POP PUSH2 0x44B PUSH1 0x4 DUP1 CALLDATASIZE SUB PUSH1 0x20 DUP2 LT ISZERO PUSH2 0xC07 JUMPI PUSH1 0x0 DUP1 REVERT JUMPDEST POP CALLDATALOAD PUSH1 0x1 PUSH1 0x1 PUSH1 0xA0 SHL SUB AND PUSH2 0x2806 JUMP JUMPDEST CALLVALUE DUP1 ISZERO PUSH2 0xC23 JUMPI PUSH1 0x0 DUP1 REVERT JUMPDEST POP PUSH2 0x44B PUSH1 0x4 DUP1 CALLDATASIZE SUB PUSH1 0x20 DUP2 LT ISZERO PUSH2 0xC3A JUMPI PUSH1 0x0 DUP1 REVERT JUMPDEST POP CALLDATALOAD PUSH1 0x1 PUSH1 0x1 PUSH1 0xA0 SHL SUB AND PUSH2 0x2909 JUMP JUMPDEST CALLVALUE DUP1 ISZERO PUSH2 0xC56 JUMPI PUSH1 0x0 DUP1 REVERT JUMPDEST POP PUSH2 0x590 PUSH2 0x298D JUMP JUMPDEST CALLVALUE DUP1 ISZERO PUSH2 0xC6B JUMPI PUSH1 0x0 DUP1 REVERT JUMPDEST POP PUSH2 0x590 PUSH2 0x2993 JUMP JUMPDEST CALLVALUE DUP1 ISZERO PUSH2 0xC80 JUMPI PUSH1 0x0 DUP1 REVERT JUMPDEST POP PUSH2 0x44B PUSH1 0x4 DUP1 CALLDATASIZE SUB PUSH1 0x80 DUP2 LT ISZERO PUSH2 0xC97 JUMPI PUSH1 0x0 DUP1 REVERT JUMPDEST POP DUP1 CALLDATALOAD SWAP1 PUSH1 0x20 DUP2 ADD CALLDATALOAD SWAP1 PUSH1 0x40 DUP2 ADD CALLDATALOAD SWAP1 PUSH1 0x60 ADD CALLDATALOAD PUSH2 0x2999 JUMP JUMPDEST PUSH5 0xE8D4A51000 DUP2 JUMP JUMPDEST PUSH2 0xCC1 PUSH2 0x2A7E JUMP JUMPDEST PUSH1 0x1 PUSH1 0x1 PUSH1 0xA0 SHL SUB AND PUSH2 0xCD2 PUSH2 0x1EBD JUMP JUMPDEST PUSH1 0x1 PUSH1 0x1 PUSH1 0xA0 SHL SUB AND EQ PUSH2 0xD1B JUMPI PUSH1 0x40 DUP1 MLOAD PUSH3 0x461BCD PUSH1 0xE5 SHL DUP2 MSTORE PUSH1 0x20 PUSH1 0x4 DUP3 ADD DUP2 SWAP1 MSTORE PUSH1 0x24 DUP3 ADD MSTORE PUSH1 0x0 DUP1 MLOAD PUSH1 0x20 PUSH2 0x4354 DUP4 CODECOPY DUP2 MLOAD SWAP2 MSTORE PUSH1 0x44 DUP3 ADD MSTORE SWAP1 MLOAD SWAP1 DUP2 SWAP1 SUB PUSH1 0x64 ADD SWAP1 REVERT JUMPDEST PUSH1 0x1 PUSH1 0x1 PUSH1 0xA0 SHL SUB DUP7 AND PUSH1 0x0 SWAP1 DUP2 MSTORE PUSH1 0xD5 PUSH1 0x20 MSTORE PUSH1 0x40 SWAP1 KECCAK256 SLOAD PUSH1 0x1 PUSH1 0xA0 SHL SWAP1 DIV PUSH1 0xFF AND ISZERO PUSH2 0xD83 JUMPI PUSH1 0x40 DUP1 MLOAD PUSH3 0x461BCD PUSH1 0xE5 SHL DUP2 MSTORE PUSH1 0x20 PUSH1 0x4 DUP3 ADD MSTORE PUSH1 0x10 PUSH1 0x24 DUP3 ADD MSTORE PUSH16 0x10DBDB1B185D195C985B081859191959 PUSH1 0x82 SHL PUSH1 0x44 DUP3 ADD MSTORE SWAP1 MLOAD SWAP1 DUP2 SWAP1 SUB PUSH1 0x64 ADD SWAP1 REVERT JUMPDEST PUSH1 0x12 DUP7 PUSH1 0x1 PUSH1 0x1 PUSH1 0xA0 SHL SUB AND PUSH4 0x313CE567 PUSH1 0x40 MLOAD DUP2 PUSH4 0xFFFFFFFF AND PUSH1 0xE0 SHL DUP2 MSTORE PUSH1 0x4 ADD PUSH1 0x20 PUSH1 0x40 MLOAD DUP1 DUP4 SUB DUP2 DUP7 DUP1 EXTCODESIZE ISZERO DUP1 ISZERO PUSH2 0xDBE JUMPI PUSH1 0x0 DUP1 REVERT JUMPDEST POP GAS STATICCALL ISZERO DUP1 ISZERO PUSH2 0xDD2 JUMPI RETURNDATASIZE PUSH1 0x0 DUP1 RETURNDATACOPY RETURNDATASIZE PUSH1 0x0 REVERT JUMPDEST POP POP POP POP PUSH1 0x40 MLOAD RETURNDATASIZE PUSH1 0x20 DUP2 LT ISZERO PUSH2 0xDE8 JUMPI PUSH1 0x0 DUP1 REVERT JUMPDEST POP MLOAD PUSH1 0xFF AND GT ISZERO PUSH2 0xE2A JUMPI PUSH1 0x40 MLOAD PUSH3 0x461BCD PUSH1 0xE5 SHL DUP2 MSTORE PUSH1 0x4 ADD DUP1 DUP1 PUSH1 0x20 ADD DUP3 DUP2 SUB DUP3 MSTORE PUSH1 0x2C DUP2 MSTORE PUSH1 0x20 ADD DUP1 PUSH2 0x42A6 PUSH1 0x2C SWAP2 CODECOPY PUSH1 0x40 ADD SWAP2 POP POP PUSH1 0x40 MLOAD DUP1 SWAP2 SUB SWAP1 REVERT JUMPDEST PUSH1 0x0 PUSH1 0xD5 PUSH1 0x0 DUP9 PUSH1 0x1 PUSH1 0x1 PUSH1 0xA0 SHL SUB AND PUSH1 0x1 PUSH1 0x1 PUSH1 0xA0 SHL SUB AND DUP2 MSTORE PUSH1 0x20 ADD SWAP1 DUP2 MSTORE PUSH1 0x20 ADD PUSH1 0x0 KECCAK256 SWAP1 POP DUP7 DUP2 PUSH1 0x0 ADD PUSH1 0x0 PUSH2 0x100 EXP DUP2 SLOAD DUP2 PUSH1 0x1 PUSH1 0x1 PUSH1 0xA0 SHL SUB MUL NOT AND SWAP1 DUP4 PUSH1 0x1 PUSH1 0x1 PUSH1 0xA0 SHL SUB AND MUL OR SWAP1 SSTORE POP PUSH1 0x1 DUP2 PUSH1 0x0 ADD PUSH1 0x14 PUSH2 0x100 EXP DUP2 SLOAD DUP2 PUSH1 0xFF MUL NOT AND SWAP1 DUP4 ISZERO ISZERO MUL OR SWAP1 SSTORE POP DUP6 DUP2 PUSH1 0x1 ADD PUSH1 0x0 PUSH2 0x100 EXP DUP2 SLOAD DUP2 PUSH1 0x1 PUSH1 0x1 PUSH1 0xA0 SHL SUB MUL NOT AND SWAP1 DUP4 PUSH1 0x1 PUSH1 0x1 PUSH1 0xA0 SHL SUB AND MUL OR SWAP1 SSTORE POP DUP5 DUP2 PUSH1 0x1 ADD PUSH1 0x14 PUSH2 0x100 EXP DUP2 SLOAD DUP2 PUSH1 0xFF MUL NOT AND SWAP1 DUP4 ISZERO ISZERO MUL OR SWAP1 SSTORE POP DUP3 DUP2 PUSH1 0x2 ADD PUSH1 0x0 PUSH2 0x100 EXP DUP2 SLOAD DUP2 PUSH1 0x1 PUSH1 0x1 PUSH1 0xA0 SHL SUB MUL NOT AND SWAP1 DUP4 PUSH1 0x1 PUSH1 0x1 PUSH1 0xA0 SHL SUB AND MUL OR SWAP1 SSTORE POP PUSH1 0xD7 DUP2 SWAP1 DUP1 PUSH1 0x1 DUP2 SLOAD ADD DUP1 DUP3 SSTORE DUP1 SWAP2 POP POP PUSH1 0x1 SWAP1 SUB SWAP1 PUSH1 0x0 MSTORE PUSH1 0x20 PUSH1 0x0 KECCAK256 SWAP1 PUSH1 0x3 MUL ADD PUSH1 0x0 SWAP1 SWAP2 SWAP1 SWAP2 SWAP1 SWAP2 POP PUSH1 0x0 DUP3 ADD PUSH1 0x0 SWAP1 SLOAD SWAP1 PUSH2 0x100 EXP SWAP1 DIV PUSH1 0x1 PUSH1 0x1 PUSH1 0xA0 SHL SUB AND DUP2 PUSH1 0x0 ADD PUSH1 0x0 PUSH2 0x100 EXP DUP2 SLOAD DUP2 PUSH1 0x1 PUSH1 0x1 PUSH1 0xA0 SHL SUB MUL NOT AND SWAP1 DUP4 PUSH1 0x1 PUSH1 0x1 PUSH1 0xA0 SHL SUB AND MUL OR SWAP1 SSTORE POP PUSH1 0x0 DUP3 ADD PUSH1 0x14 SWAP1 SLOAD SWAP1 PUSH2 0x100 EXP SWAP1 DIV PUSH1 0xFF AND DUP2 PUSH1 0x0 ADD PUSH1 0x14 PUSH2 0x100 EXP DUP2 SLOAD DUP2 PUSH1 0xFF MUL NOT AND SWAP1 DUP4 ISZERO ISZERO MUL OR SWAP1 SSTORE POP PUSH1 0x1 DUP3 ADD PUSH1 0x0 SWAP1 SLOAD SWAP1 PUSH2 0x100 EXP SWAP1 DIV PUSH1 0x1 PUSH1 0x1 PUSH1 0xA0 SHL SUB AND DUP2 PUSH1 0x1 ADD PUSH1 0x0 PUSH2 0x100 EXP DUP2 SLOAD DUP2 PUSH1 0x1 PUSH1 0x1 PUSH1 0xA0 SHL SUB MUL NOT AND SWAP1 DUP4 PUSH1 0x1 PUSH1 0x1 PUSH1 0xA0 SHL SUB AND MUL OR SWAP1 SSTORE POP PUSH1 0x1 DUP3 ADD PUSH1 0x14 SWAP1 SLOAD SWAP1 PUSH2 0x100 EXP SWAP1 DIV PUSH1 0xFF AND DUP2 PUSH1 0x1 ADD PUSH1 0x14 PUSH2 0x100 EXP DUP2 SLOAD DUP2 PUSH1 0xFF MUL NOT AND SWAP1 DUP4 ISZERO ISZERO MUL OR SWAP1 SSTORE POP PUSH1 0x1 DUP3 ADD PUSH1 0x15 SWAP1 SLOAD SWAP1 PUSH2 0x100 EXP SWAP1 DIV PUSH1 0xFF AND DUP2 PUSH1 0x1 ADD PUSH1 0x15 PUSH2 0x100 EXP DUP2 SLOAD DUP2 PUSH1 0xFF MUL NOT AND SWAP1 DUP4 PUSH1 0xFF AND MUL OR SWAP1 SSTORE POP PUSH1 0x2 DUP3 ADD PUSH1 0x0 SWAP1 SLOAD SWAP1 PUSH2 0x100 EXP SWAP1 DIV PUSH1 0x1 PUSH1 0x1 PUSH1 0xA0 SHL SUB AND DUP2 PUSH1 0x2 ADD PUSH1 0x0 PUSH2 0x100 EXP DUP2 SLOAD DUP2 PUSH1 0x1 PUSH1 0x1 PUSH1 0xA0 SHL SUB MUL NOT AND SWAP1 DUP4 PUSH1 0x1 PUSH1 0x1 PUSH1 0xA0 SHL SUB AND MUL OR SWAP1 SSTORE POP PUSH1 0x2 DUP3 ADD PUSH1 0x14 SWAP1 SLOAD SWAP1 PUSH2 0x100 EXP SWAP1 DIV PUSH1 0xFF AND DUP2 PUSH1 0x2 ADD PUSH1 0x14 PUSH2 0x100 EXP DUP2 SLOAD DUP2 PUSH1 0xFF MUL NOT AND SWAP1 DUP4 ISZERO ISZERO MUL OR SWAP1 SSTORE POP POP POP DUP7 PUSH1 0x1 PUSH1 0x1 PUSH1 0xA0 SHL SUB AND PUSH32 0xB74901440F0E5D23BD60355BF8D84403DF003DC885BA6E8759712F8A34DB5E59 DUP3 PUSH1 0x0 ADD PUSH1 0x14 SWAP1 SLOAD SWAP1 PUSH2 0x100 EXP SWAP1 DIV PUSH1 0xFF AND DUP9 DUP9 DUP9 DUP9 DUP9 PUSH1 0x40 MLOAD DUP1 DUP8 ISZERO ISZERO DUP2 MSTORE PUSH1 0x20 ADD DUP7 PUSH1 0x1 PUSH1 0x1 PUSH1 0xA0 SHL SUB AND DUP2 MSTORE PUSH1 0x20 ADD DUP6 ISZERO ISZERO DUP2 MSTORE PUSH1 0x20 ADD DUP5 PUSH1 0xFF AND DUP2 MSTORE PUSH1 0x20 ADD DUP4 PUSH1 0x1 PUSH1 0x1 PUSH1 0xA0 SHL SUB AND DUP2 MSTORE PUSH1 0x20 ADD DUP3 ISZERO ISZERO DUP2 MSTORE PUSH1 0x20 ADD SWAP7 POP POP POP POP POP POP POP PUSH1 0x40 MLOAD DUP1 SWAP2 SUB SWAP1 LOG2 POP POP POP POP POP POP POP JUMP JUMPDEST PUSH1 0xC9 SLOAD PUSH1 0xFF AND PUSH2 0x118D JUMPI PUSH1 0x40 DUP1 MLOAD PUSH3 0x461BCD PUSH1 0xE5 SHL DUP2 MSTORE PUSH1 0x20 PUSH1 0x4 DUP3 ADD MSTORE PUSH1 0x14 PUSH1 0x24 DUP3 ADD MSTORE PUSH1 0x0 DUP1 MLOAD PUSH1 0x20 PUSH2 0x4256 DUP4 CODECOPY DUP2 MLOAD SWAP2 MSTORE PUSH1 0x44 DUP3 ADD MSTORE SWAP1 MLOAD SWAP1 DUP2 SWAP1 SUB PUSH1 0x64 ADD SWAP1 REVERT JUMPDEST PUSH1 0x2 PUSH1 0x97 SLOAD EQ ISZERO PUSH2 0x11D3 JUMPI PUSH1 0x40 DUP1 MLOAD PUSH3 0x461BCD PUSH1 0xE5 SHL DUP2 MSTORE PUSH1 0x20 PUSH1 0x4 DUP3 ADD MSTORE PUSH1 0x1F PUSH1 0x24 DUP3 ADD MSTORE PUSH1 0x0 DUP1 MLOAD PUSH1 0x20 PUSH2 0x413C DUP4 CODECOPY DUP2 MLOAD SWAP2 MSTORE PUSH1 0x44 DUP3 ADD MSTORE SWAP1 MLOAD SWAP1 DUP2 SWAP1 SUB PUSH1 0x64 ADD SWAP1 REVERT JUMPDEST PUSH1 0x2 PUSH1 0x97 SSTORE CALLVALUE PUSH2 0x121E JUMPI PUSH1 0x40 DUP1 MLOAD PUSH3 0x461BCD PUSH1 0xE5 SHL DUP2 MSTORE PUSH1 0x20 PUSH1 0x4 DUP3 ADD MSTORE PUSH1 0x11 PUSH1 0x24 DUP3 ADD MSTORE PUSH17 0x2732B2B2103A37903830BC9022BA3432B9 PUSH1 0x79 SHL PUSH1 0x44 DUP3 ADD MSTORE SWAP1 MLOAD SWAP1 DUP2 SWAP1 SUB PUSH1 0x64 ADD SWAP1 REVERT JUMPDEST PUSH2 0x122F PUSH1 0x0 CALLVALUE PUSH1 0x3 DUP7 CALLVALUE DUP8 DUP8 PUSH2 0x2A82 JUMP JUMPDEST POP POP PUSH1 0x1 PUSH1 0x97 SSTORE POP JUMP JUMPDEST PUSH2 0x1241 PUSH2 0x2A7E JUMP JUMPDEST PUSH1 0x1 PUSH1 0x1 PUSH1 0xA0 SHL SUB AND PUSH2 0x1252 PUSH2 0x1EBD JUMP JUMPDEST PUSH1 0x1 PUSH1 0x1 PUSH1 0xA0 SHL SUB AND EQ PUSH2 0x129B JUMPI PUSH1 0x40 DUP1 MLOAD PUSH3 0x461BCD PUSH1 0xE5 SHL DUP2 MSTORE PUSH1 0x20 PUSH1 0x4 DUP3 ADD DUP2 SWAP1 MSTORE PUSH1 0x24 DUP3 ADD MSTORE PUSH1 0x0 DUP1 MLOAD PUSH1 0x20 PUSH2 0x4354 DUP4 CODECOPY DUP2 MLOAD SWAP2 MSTORE PUSH1 0x44 DUP3 ADD MSTORE SWAP1 MLOAD SWAP1 DUP2 SWAP1 SUB PUSH1 0x64 ADD SWAP1 REVERT JUMPDEST PUSH1 0xC9 DUP1 SLOAD PUSH4 0xFF000000 NOT AND PUSH4 0x1000000 DUP5 ISZERO ISZERO DUP2 MUL SWAP2 SWAP1 SWAP2 OR PUSH5 0xFF00000000 NOT AND PUSH5 0x100000000 DUP5 ISZERO ISZERO DUP2 MUL SWAP2 SWAP1 SWAP2 OR SWAP3 DUP4 SWAP1 SSTORE PUSH1 0x40 MLOAD PUSH1 0xFF SWAP2 DUP5 DIV DUP3 AND ISZERO ISZERO SWAP4 SWAP3 SWAP1 SWAP3 DIV AND ISZERO ISZERO SWAP1 PUSH32 0x8E363288229795661DC4CD7765BB22AF3B1DDB395A07CD4894D365D6EBD5D671 SWAP1 PUSH1 0x0 SWAP1 LOG3 POP POP JUMP JUMPDEST PUSH2 0x1316 PUSH2 0x2A7E JUMP JUMPDEST PUSH1 0x1 PUSH1 0x1 PUSH1 0xA0 SHL SUB AND PUSH2 0x1327 PUSH2 0x1EBD JUMP JUMPDEST PUSH1 0x1 PUSH1 0x1 PUSH1 0xA0 SHL SUB AND EQ PUSH2 0x1370 JUMPI PUSH1 0x40 DUP1 MLOAD PUSH3 0x461BCD PUSH1 0xE5 SHL DUP2 MSTORE PUSH1 0x20 PUSH1 0x4 DUP3 ADD DUP2 SWAP1 MSTORE PUSH1 0x24 DUP3 ADD MSTORE PUSH1 0x0 DUP1 MLOAD PUSH1 0x20 PUSH2 0x4354 DUP4 CODECOPY DUP2 MLOAD SWAP2 MSTORE PUSH1 0x44 DUP3 ADD MSTORE SWAP1 MLOAD SWAP1 DUP2 SWAP1 SUB PUSH1 0x64 ADD SWAP1 REVERT JUMPDEST DUP7 PUSH1 0xD3 DUP2 SWAP1 SSTORE POP DUP6 PUSH1 0xD4 PUSH1 0x0 PUSH2 0x100 EXP DUP2 SLOAD DUP2 PUSH4 0xFFFFFFFF MUL NOT AND SWAP1 DUP4 PUSH4 0xFFFFFFFF AND MUL OR SWAP1 SSTORE POP DUP5 PUSH1 0xD4 PUSH1 0x4 PUSH2 0x100 EXP DUP2 SLOAD DUP2 PUSH4 0xFFFFFFFF MUL NOT AND SWAP1 DUP4 PUSH4 0xFFFFFFFF AND MUL OR SWAP1 SSTORE POP DUP4 PUSH1 0xD4 PUSH1 0x8 PUSH2 0x100 EXP DUP2 SLOAD DUP2 PUSH4 0xFFFFFFFF MUL NOT AND SWAP1 DUP4 PUSH4 0xFFFFFFFF AND MUL OR SWAP1 SSTORE POP DUP3 PUSH1 0xD4 PUSH1 0xC PUSH2 0x100 EXP DUP2 SLOAD DUP2 PUSH4 0xFFFFFFFF MUL NOT AND SWAP1 DUP4 PUSH4 0xFFFFFFFF AND MUL OR SWAP1 SSTORE POP DUP2 PUSH1 0xD4 PUSH1 0x10 PUSH2 0x100 EXP DUP2 SLOAD DUP2 PUSH4 0xFFFFFFFF MUL NOT AND SWAP1 DUP4 PUSH4 0xFFFFFFFF AND MUL OR SWAP1 SSTORE POP DUP1 PUSH1 0xD4 PUSH1 0x14 PUSH2 0x100 EXP DUP2 SLOAD DUP2 PUSH4 0xFFFFFFFF MUL NOT AND SWAP1 DUP4 PUSH4 0xFFFFFFFF AND MUL OR SWAP1 SSTORE POP PUSH32 0x54CE0B11EF28E3402C63CFC90282C636BB07CCE2EC4A737DBD0B2FB60B7158F7 PUSH1 0xD3 SLOAD PUSH1 0xD4 PUSH1 0x0 SWAP1 SLOAD SWAP1 PUSH2 0x100 EXP SWAP1 DIV PUSH4 0xFFFFFFFF AND PUSH1 0xD4 PUSH1 0x4 SWAP1 SLOAD SWAP1 PUSH2 0x100 EXP SWAP1 DIV PUSH4 0xFFFFFFFF AND PUSH1 0xD4 PUSH1 0x8 SWAP1 SLOAD SWAP1 PUSH2 0x100 EXP SWAP1 DIV PUSH4 0xFFFFFFFF AND PUSH1 0xD4 PUSH1 0xC SWAP1 SLOAD SWAP1 PUSH2 0x100 EXP SWAP1 DIV PUSH4 0xFFFFFFFF AND PUSH1 0xD4 PUSH1 0x10 SWAP1 SLOAD SWAP1 PUSH2 0x100 EXP SWAP1 DIV PUSH4 0xFFFFFFFF AND PUSH1 0xD4 PUSH1 0x14 SWAP1 SLOAD SWAP1 PUSH2 0x100 EXP SWAP1 DIV PUSH4 0xFFFFFFFF AND PUSH1 0x40 MLOAD DUP1 DUP9 DUP2 MSTORE PUSH1 0x20 ADD DUP8 PUSH4 0xFFFFFFFF AND DUP2 MSTORE PUSH1 0x20 ADD DUP7 PUSH4 0xFFFFFFFF AND DUP2 MSTORE PUSH1 0x20 ADD DUP6 PUSH4 0xFFFFFFFF AND DUP2 MSTORE PUSH1 0x20 ADD DUP5 PUSH4 0xFFFFFFFF AND DUP2 MSTORE PUSH1 0x20 ADD DUP4 PUSH4 0xFFFFFFFF AND DUP2 MSTORE PUSH1 0x20 ADD DUP3 PUSH4 0xFFFFFFFF AND DUP2 MSTORE PUSH1 0x20 ADD SWAP8 POP POP POP POP POP POP POP POP PUSH1 0x40 MLOAD DUP1 SWAP2 SUB SWAP1 LOG1 POP POP POP POP POP POP POP JUMP JUMPDEST PUSH1 0x64 DUP2 JUMP JUMPDEST PUSH2 0x154C PUSH2 0x2A7E JUMP JUMPDEST PUSH1 0x1 PUSH1 0x1 PUSH1 0xA0 SHL SUB AND PUSH2 0x155D PUSH2 0x1EBD JUMP JUMPDEST PUSH1 0x1 PUSH1 0x1 PUSH1 0xA0 SHL SUB AND EQ PUSH2 0x15A6 JUMPI PUSH1 0x40 DUP1 MLOAD PUSH3 0x461BCD PUSH1 0xE5 SHL DUP2 MSTORE PUSH1 0x20 PUSH1 0x4 DUP3 ADD DUP2 SWAP1 MSTORE PUSH1 0x24 DUP3 ADD MSTORE PUSH1 0x0 DUP1 MLOAD PUSH1 0x20 PUSH2 0x4354 DUP4 CODECOPY DUP2 MLOAD SWAP2 MSTORE PUSH1 0x44 DUP3 ADD MSTORE SWAP1 MLOAD SWAP1 DUP2 SWAP1 SUB PUSH1 0x64 ADD SWAP1 REVERT JUMPDEST PUSH1 0x1 PUSH1 0x1 PUSH1 0xA0 SHL SUB DUP2 AND PUSH1 0x0 SWAP1 DUP2 MSTORE PUSH1 0xD6 PUSH1 0x20 MSTORE PUSH1 0x40 SWAP1 KECCAK256 SLOAD PUSH1 0x1 PUSH1 0xA0 SHL SWAP1 DIV PUSH1 0xFF AND ISZERO PUSH2 0x160C JUMPI PUSH1 0x40 DUP1 MLOAD PUSH3 0x461BCD PUSH1 0xE5 SHL DUP2 MSTORE PUSH1 0x20 PUSH1 0x4 DUP3 ADD MSTORE PUSH1 0xE PUSH1 0x24 DUP3 ADD MSTORE PUSH14 0x14DD1C985D1959DE481859191959 PUSH1 0x92 SHL PUSH1 0x44 DUP3 ADD MSTORE SWAP1 MLOAD SWAP1 DUP2 SWAP1 SUB PUSH1 0x64 ADD SWAP1 REVERT JUMPDEST PUSH1 0x1 PUSH1 0x1 PUSH1 0xA0 SHL SUB DUP1 DUP3 AND PUSH1 0x0 DUP2 DUP2 MSTORE PUSH1 0xD6 PUSH1 0x20 SWAP1 DUP2 MSTORE PUSH1 0x40 DUP1 DUP4 KECCAK256 DUP1 SLOAD PUSH1 0xFF PUSH1 0xA0 SHL NOT PUSH1 0x1 PUSH1 0x1 PUSH1 0xA0 SHL SUB NOT SWAP2 DUP3 AND DUP8 OR DUP2 AND PUSH1 0x1 PUSH1 0xA0 SHL SWAP1 DUP2 OR DUP5 SSTORE PUSH1 0xD8 DUP1 SLOAD PUSH1 0x1 DUP2 DUP2 ADD DUP4 SSTORE SWAP2 SWAP1 SWAP9 MSTORE DUP5 SLOAD PUSH32 0x5320AD99A619A90804CD2EFE3A5CF0AC1AC5C41AD9FF2C61CF699EFDAD771096 SWAP1 SWAP9 ADD DUP1 SLOAD SWAP1 SWAP5 AND SWAP8 SWAP1 SWAP10 AND SWAP7 SWAP1 SWAP7 OR DUP1 DUP4 SSTORE DUP4 SLOAD DUP8 SWAP1 DIV PUSH1 0xFF AND ISZERO ISZERO SWAP1 SWAP7 MUL SWAP6 AND SWAP5 SWAP1 SWAP5 OR SWAP1 SWAP4 SSTORE DUP1 MLOAD SWAP4 DUP5 MSTORE SWAP1 DUP4 ADD SWAP4 SWAP1 SWAP4 MSTORE DUP3 MLOAD SWAP1 SWAP3 PUSH32 0x835A6C4FC865A810F7943CFCA478CADA6BF307D7DBD75892A046AEE7EA3CC214 SWAP3 DUP3 SWAP1 SUB ADD SWAP1 LOG1 POP POP JUMP JUMPDEST PUSH1 0x0 SWAP1 DUP2 MSTORE PUSH1 0x65 PUSH1 0x20 MSTORE PUSH1 0x40 SWAP1 KECCAK256 PUSH1 0x2 ADD SLOAD SWAP1 JUMP JUMPDEST PUSH1 0xD4 SLOAD PUSH9 0x10000000000000000 SWAP1 DIV PUSH4 0xFFFFFFFF AND DUP2 JUMP JUMPDEST PUSH1 0x0 DUP3 DUP2 MSTORE PUSH1 0x65 PUSH1 0x20 MSTORE PUSH1 0x40 SWAP1 KECCAK256 PUSH1 0x2 ADD SLOAD PUSH2 0x1731 SWAP1 PUSH2 0x172C PUSH2 0x2A7E JUMP JUMPDEST PUSH2 0x1F9E JUMP JUMPDEST PUSH2 0x176C JUMPI PUSH1 0x40 MLOAD PUSH3 0x461BCD PUSH1 0xE5 SHL DUP2 MSTORE PUSH1 0x4 ADD DUP1 DUP1 PUSH1 0x20 ADD DUP3 DUP2 SUB DUP3 MSTORE PUSH1 0x2F DUP2 MSTORE PUSH1 0x20 ADD DUP1 PUSH2 0x410D PUSH1 0x2F SWAP2 CODECOPY PUSH1 0x40 ADD SWAP2 POP POP PUSH1 0x40 MLOAD DUP1 SWAP2 SUB SWAP1 REVERT JUMPDEST PUSH2 0x1776 DUP3 DUP3 PUSH2 0x2E4D JUMP JUMPDEST POP POP JUMP JUMPDEST PUSH2 0x1782 PUSH2 0x2A7E JUMP JUMPDEST PUSH1 0x1 PUSH1 0x1 PUSH1 0xA0 SHL SUB AND DUP2 PUSH1 0x1 PUSH1 0x1 PUSH1 0xA0 SHL SUB AND EQ PUSH2 0x17D1 JUMPI PUSH1 0x40 MLOAD PUSH3 0x461BCD PUSH1 0xE5 SHL DUP2 MSTORE PUSH1 0x4 ADD DUP1 DUP1 PUSH1 0x20 ADD DUP3 DUP2 SUB DUP3 MSTORE PUSH1 0x2F DUP2 MSTORE PUSH1 0x20 ADD DUP1 PUSH2 0x43CC PUSH1 0x2F SWAP2 CODECOPY PUSH1 0x40 ADD SWAP2 POP POP PUSH1 0x40 MLOAD DUP1 SWAP2 SUB SWAP1 REVERT JUMPDEST PUSH2 0x1776 DUP3 DUP3 PUSH2 0x2EB6 JUMP JUMPDEST PUSH1 0xD4 SLOAD PUSH1 0x1 PUSH1 0x80 SHL SWAP1 DIV PUSH4 0xFFFFFFFF AND DUP2 JUMP JUMPDEST PUSH1 0xC9 SLOAD PUSH1 0xFF AND PUSH2 0x1833 JUMPI PUSH1 0x40 DUP1 MLOAD PUSH3 0x461BCD PUSH1 0xE5 SHL DUP2 MSTORE PUSH1 0x20 PUSH1 0x4 DUP3 ADD MSTORE PUSH1 0x14 PUSH1 0x24 DUP3 ADD MSTORE PUSH1 0x0 DUP1 MLOAD PUSH1 0x20 PUSH2 0x4256 DUP4 CODECOPY DUP2 MLOAD SWAP2 MSTORE PUSH1 0x44 DUP3 ADD MSTORE SWAP1 MLOAD SWAP1 DUP2 SWAP1 SUB PUSH1 0x64 ADD SWAP1 REVERT JUMPDEST PUSH1 0x2 PUSH1 0x97 SLOAD EQ ISZERO PUSH2 0x1879 JUMPI PUSH1 0x40 DUP1 MLOAD PUSH3 0x461BCD PUSH1 0xE5 SHL DUP2 MSTORE PUSH1 0x20 PUSH1 0x4 DUP3 ADD MSTORE PUSH1 0x1F PUSH1 0x24 DUP3 ADD MSTORE PUSH1 0x0 DUP1 MLOAD PUSH1 0x20 PUSH2 0x413C DUP4 CODECOPY DUP2 MLOAD SWAP2 MSTORE PUSH1 0x44 DUP3 ADD MSTORE SWAP1 MLOAD SWAP1 DUP2 SWAP1 SUB PUSH1 0x64 ADD SWAP1 REVERT JUMPDEST PUSH1 0x2 PUSH1 0x97 SSTORE PUSH1 0x1 PUSH1 0x1 PUSH1 0xA0 SHL SUB DUP6 AND PUSH1 0x0 SWAP1 DUP2 MSTORE PUSH1 0xD5 PUSH1 0x20 MSTORE PUSH1 0x40 SWAP1 KECCAK256 SLOAD PUSH1 0x1 PUSH1 0xA0 SHL SWAP1 DIV PUSH1 0xFF AND PUSH2 0x18E9 JUMPI PUSH1 0x40 DUP1 MLOAD PUSH3 0x461BCD PUSH1 0xE5 SHL DUP2 MSTORE PUSH1 0x20 PUSH1 0x4 DUP3 ADD MSTORE PUSH1 0x14 PUSH1 0x24 DUP3 ADD MSTORE PUSH20 0x10DBDB1B185D195C985B081B9BDD081859191959 PUSH1 0x62 SHL PUSH1 0x44 DUP3 ADD MSTORE SWAP1 MLOAD SWAP1 DUP2 SWAP1 SUB PUSH1 0x64 ADD SWAP1 REVERT JUMPDEST PUSH1 0x0 DUP5 GT PUSH2 0x1928 JUMPI PUSH1 0x40 MLOAD PUSH3 0x461BCD PUSH1 0xE5 SHL DUP2 MSTORE PUSH1 0x4 ADD DUP1 DUP1 PUSH1 0x20 ADD DUP3 DUP2 SUB DUP3 MSTORE PUSH1 0x21 DUP2 MSTORE PUSH1 0x20 ADD DUP1 PUSH2 0x41E2 PUSH1 0x21 SWAP2 CODECOPY PUSH1 0x40 ADD SWAP2 POP POP PUSH1 0x40 MLOAD DUP1 SWAP2 SUB SWAP1 REVERT JUMPDEST PUSH2 0x1938 DUP6 DUP6 PUSH1 0x0 DUP8 DUP8 DUP8 DUP8 PUSH2 0x2A82 JUMP JUMPDEST POP POP PUSH1 0x1 PUSH1 0x97 SSTORE POP POP POP JUMP JUMPDEST PUSH2 0x194C PUSH2 0x2A7E JUMP JUMPDEST PUSH1 0x1 PUSH1 0x1 PUSH1 0xA0 SHL SUB AND PUSH2 0x195D PUSH2 0x1EBD JUMP JUMPDEST PUSH1 0x1 PUSH1 0x1 PUSH1 0xA0 SHL SUB AND EQ PUSH2 0x19A6 JUMPI PUSH1 0x40 DUP1 MLOAD PUSH3 0x461BCD PUSH1 0xE5 SHL DUP2 MSTORE PUSH1 0x20 PUSH1 0x4 DUP3 ADD DUP2 SWAP1 MSTORE PUSH1 0x24 DUP3 ADD MSTORE PUSH1 0x0 DUP1 MLOAD PUSH1 0x20 PUSH2 0x4354 DUP4 CODECOPY DUP2 MLOAD SWAP2 MSTORE PUSH1 0x44 DUP3 ADD MSTORE SWAP1 MLOAD SWAP1 DUP2 SWAP1 SUB PUSH1 0x64 ADD SWAP1 REVERT JUMPDEST PUSH1 0xC9 DUP1 SLOAD PUSH1 0xFF NOT AND DUP3 ISZERO ISZERO OR SWAP1 DUP2 SWAP1 SSTORE PUSH1 0x40 MLOAD PUSH1 0xFF SWAP1 SWAP2 AND ISZERO ISZERO SWAP1 PUSH32 0x4AA2F044C925EC4AD9AC60A30B437E605BA4B7C4827D423BE239B10228DF4A4D SWAP1 PUSH1 0x0 SWAP1 LOG2 POP JUMP JUMPDEST PUSH1 0xD4 SLOAD PUSH5 0x100000000 SWAP1 DIV PUSH4 0xFFFFFFFF AND DUP2 JUMP JUMPDEST PUSH1 0xCD SLOAD PUSH1 0x1 PUSH1 0x1 PUSH1 0xA0 SHL SUB AND DUP2 JUMP JUMPDEST PUSH2 0x2710 DUP2 JUMP JUMPDEST PUSH1 0xC9 SLOAD PUSH1 0xFF AND PUSH2 0x1A58 JUMPI PUSH1 0x40 DUP1 MLOAD PUSH3 0x461BCD PUSH1 0xE5 SHL DUP2 MSTORE PUSH1 0x20 PUSH1 0x4 DUP3 ADD MSTORE PUSH1 0x14 PUSH1 0x24 DUP3 ADD MSTORE PUSH1 0x0 DUP1 MLOAD PUSH1 0x20 PUSH2 0x4256 DUP4 CODECOPY DUP2 MLOAD SWAP2 MSTORE PUSH1 0x44 DUP3 ADD MSTORE SWAP1 MLOAD SWAP1 DUP2 SWAP1 SUB PUSH1 0x64 ADD SWAP1 REVERT JUMPDEST PUSH1 0x2 PUSH1 0x97 SLOAD EQ ISZERO PUSH2 0x1A9E JUMPI PUSH1 0x40 DUP1 MLOAD PUSH3 0x461BCD PUSH1 0xE5 SHL DUP2 MSTORE PUSH1 0x20 PUSH1 0x4 DUP3 ADD MSTORE PUSH1 0x1F PUSH1 0x24 DUP3 ADD MSTORE PUSH1 0x0 DUP1 MLOAD PUSH1 0x20 PUSH2 0x413C DUP4 CODECOPY DUP2 MLOAD SWAP2 MSTORE PUSH1 0x44 DUP3 ADD MSTORE SWAP1 MLOAD SWAP1 DUP2 SWAP1 SUB PUSH1 0x64 ADD SWAP1 REVERT JUMPDEST PUSH1 0x2 PUSH1 0x97 SSTORE PUSH1 0x1 PUSH1 0x1 PUSH1 0xA0 SHL SUB DUP6 AND PUSH1 0x0 SWAP1 DUP2 MSTORE PUSH1 0xD5 PUSH1 0x20 MSTORE PUSH1 0x40 SWAP1 KECCAK256 SLOAD PUSH1 0x1 PUSH1 0xA0 SHL SWAP1 DIV PUSH1 0xFF AND PUSH2 0x1B0E JUMPI PUSH1 0x40 DUP1 MLOAD PUSH3 0x461BCD PUSH1 0xE5 SHL DUP2 MSTORE PUSH1 0x20 PUSH1 0x4 DUP3 ADD MSTORE PUSH1 0x14 PUSH1 0x24 DUP3 ADD MSTORE PUSH20 0x10DBDB1B185D195C985B081B9BDD081859191959 PUSH1 0x62 SHL PUSH1 0x44 DUP3 ADD MSTORE SWAP1 MLOAD SWAP1 DUP2 SWAP1 SUB PUSH1 0x64 ADD SWAP1 REVERT JUMPDEST PUSH1 0x0 DUP5 GT PUSH2 0x1B4D JUMPI PUSH1 0x40 MLOAD PUSH3 0x461BCD PUSH1 0xE5 SHL DUP2 MSTORE PUSH1 0x4 ADD DUP1 DUP1 PUSH1 0x20 ADD DUP3 DUP2 SUB DUP3 MSTORE PUSH1 0x21 DUP2 MSTORE PUSH1 0x20 ADD DUP1 PUSH2 0x41E2 PUSH1 0x21 SWAP2 CODECOPY PUSH1 0x40 ADD SWAP2 POP POP PUSH1 0x40 MLOAD DUP1 SWAP2 SUB SWAP1 REVERT JUMPDEST PUSH2 0x1938 DUP6 DUP6 PUSH1 0x1 DUP7 DUP7 DUP10 DUP8 PUSH2 0x2A82 JUMP JUMPDEST PUSH1 0xD0 SLOAD DUP2 JUMP JUMPDEST PUSH1 0xC9 SLOAD PUSH1 0xFF AND DUP2 JUMP JUMPDEST PUSH1 0xCA SLOAD PUSH1 0x1 PUSH1 0x1 PUSH1 0xA0 SHL SUB AND DUP2 JUMP JUMPDEST PUSH1 0xCC SLOAD PUSH1 0x1 PUSH1 0x1 PUSH1 0xA0 SHL SUB AND DUP2 JUMP JUMPDEST PUSH1 0xC9 SLOAD PUSH1 0xFF AND PUSH2 0x1BCF JUMPI PUSH1 0x40 DUP1 MLOAD PUSH3 0x461BCD PUSH1 0xE5 SHL DUP2 MSTORE PUSH1 0x20 PUSH1 0x4 DUP3 ADD MSTORE PUSH1 0x14 PUSH1 0x24 DUP3 ADD MSTORE PUSH1 0x0 DUP1 MLOAD PUSH1 0x20 PUSH2 0x4256 DUP4 CODECOPY DUP2 MLOAD SWAP2 MSTORE PUSH1 0x44 DUP3 ADD MSTORE SWAP1 MLOAD SWAP1 DUP2 SWAP1 SUB PUSH1 0x64 ADD SWAP1 REVERT JUMPDEST PUSH1 0x2 PUSH1 0x97 SLOAD EQ ISZERO PUSH2 0x1C15 JUMPI PUSH1 0x40 DUP1 MLOAD PUSH3 0x461BCD PUSH1 0xE5 SHL DUP2 MSTORE PUSH1 0x20 PUSH1 0x4 DUP3 ADD MSTORE PUSH1 0x1F PUSH1 0x24 DUP3 ADD MSTORE PUSH1 0x0 DUP1 MLOAD PUSH1 0x20 PUSH2 0x413C DUP4 CODECOPY DUP2 MLOAD SWAP2 MSTORE PUSH1 0x44 DUP3 ADD MSTORE SWAP1 MLOAD SWAP1 DUP2 SWAP1 SUB PUSH1 0x64 ADD SWAP1 REVERT JUMPDEST PUSH1 0x2 PUSH1 0x97 SSTORE PUSH1 0x1 PUSH1 0x1 PUSH1 0xA0 SHL SUB DUP6 AND PUSH1 0x0 SWAP1 DUP2 MSTORE PUSH1 0xD5 PUSH1 0x20 MSTORE PUSH1 0x40 SWAP1 KECCAK256 SLOAD PUSH1 0x1 PUSH1 0xA0 SHL SWAP1 DIV PUSH1 0xFF AND PUSH2 0x1C85 JUMPI PUSH1 0x40 DUP1 MLOAD PUSH3 0x461BCD PUSH1 0xE5 SHL DUP2 MSTORE PUSH1 0x20 PUSH1 0x4 DUP3 ADD MSTORE PUSH1 0x14 PUSH1 0x24 DUP3 ADD MSTORE PUSH20 0x10DBDB1B185D195C985B081B9BDD081859191959 PUSH1 0x62 SHL PUSH1 0x44 DUP3 ADD MSTORE SWAP1 MLOAD SWAP1 DUP2 SWAP1 SUB PUSH1 0x64 ADD SWAP1 REVERT JUMPDEST PUSH1 0x0 DUP5 GT PUSH2 0x1CC4 JUMPI PUSH1 0x40 MLOAD PUSH3 0x461BCD PUSH1 0xE5 SHL DUP2 MSTORE PUSH1 0x4 ADD DUP1 DUP1 PUSH1 0x20 ADD DUP3 DUP2 SUB DUP3 MSTORE PUSH1 0x21 DUP2 MSTORE PUSH1 0x20 ADD DUP1 PUSH2 0x41E2 PUSH1 0x21 SWAP2 CODECOPY PUSH1 0x40 ADD SWAP2 POP POP PUSH1 0x40 MLOAD DUP1 SWAP2 SUB SWAP1 REVERT JUMPDEST PUSH2 0x1938 DUP6 DUP6 PUSH1 0x2 DUP7 DUP9 DUP8 DUP8 PUSH2 0x2A82 JUMP JUMPDEST PUSH1 0xC9 SLOAD PUSH5 0x100000000 SWAP1 DIV PUSH1 0xFF AND DUP2 JUMP JUMPDEST PUSH2 0x1CED PUSH2 0x2A7E JUMP JUMPDEST PUSH1 0x1 PUSH1 0x1 PUSH1 0xA0 SHL SUB AND PUSH2 0x1CFE PUSH2 0x1EBD JUMP JUMPDEST PUSH1 0x1 PUSH1 0x1 PUSH1 0xA0 SHL SUB AND EQ PUSH2 0x1D47 JUMPI PUSH1 0x40 DUP1 MLOAD PUSH3 0x461BCD PUSH1 0xE5 SHL DUP2 MSTORE PUSH1 0x20 PUSH1 0x4 DUP3 ADD DUP2 SWAP1 MSTORE PUSH1 0x24 DUP3 ADD MSTORE PUSH1 0x0 DUP1 MLOAD PUSH1 0x20 PUSH2 0x4354 DUP4 CODECOPY DUP2 MLOAD SWAP2 MSTORE PUSH1 0x44 DUP3 ADD MSTORE SWAP1 MLOAD SWAP1 DUP2 SWAP1 SUB PUSH1 0x64 ADD SWAP1 REVERT JUMPDEST PUSH1 0x33 SLOAD PUSH1 0x40 MLOAD PUSH1 0x0 SWAP2 PUSH1 0x1 PUSH1 0x1 PUSH1 0xA0 SHL SUB AND SWAP1 PUSH32 0x8BE0079C531659141344CD1FD0A4F28419497F9722A3DAAFE3B4186F6B6457E0 SWAP1 DUP4 SWAP1 LOG3 PUSH1 0x33 DUP1 SLOAD PUSH1 0x1 PUSH1 0x1 PUSH1 0xA0 SHL SUB NOT AND SWAP1 SSTORE JUMP JUMPDEST PUSH1 0xD2 SLOAD PUSH4 0xFFFFFFFF AND DUP2 JUMP JUMPDEST PUSH1 0xC9 SLOAD PUSH3 0x10000 SWAP1 DIV PUSH1 0xFF AND DUP2 JUMP JUMPDEST PUSH1 0xCE SLOAD PUSH1 0x1 PUSH1 0x1 PUSH1 0xA0 SHL SUB AND DUP2 JUMP JUMPDEST PUSH1 0x0 DUP1 JUMPDEST PUSH1 0xD7 SLOAD DUP2 LT ISZERO PUSH2 0x1E86 JUMPI PUSH2 0x1DD1 PUSH2 0x40AE JUMP JUMPDEST PUSH1 0xD7 DUP3 DUP2 SLOAD DUP2 LT PUSH2 0x1DDE JUMPI INVALID JUMPDEST PUSH1 0x0 SWAP2 DUP3 MSTORE PUSH1 0x20 SWAP2 DUP3 SWAP1 KECCAK256 PUSH1 0x40 DUP1 MLOAD PUSH1 0xE0 DUP2 ADD DUP3 MSTORE PUSH1 0x3 SWAP1 SWAP4 MUL SWAP1 SWAP2 ADD DUP1 SLOAD PUSH1 0x1 PUSH1 0x1 PUSH1 0xA0 SHL SUB DUP1 DUP3 AND DUP1 DUP7 MSTORE PUSH1 0xFF PUSH1 0x1 PUSH1 0xA0 SHL SWAP4 DUP5 SWAP1 DIV DUP2 AND ISZERO ISZERO SWAP8 DUP8 ADD SWAP8 SWAP1 SWAP8 MSTORE PUSH1 0x1 DUP5 ADD SLOAD DUP1 DUP4 AND SWAP6 DUP8 ADD SWAP6 SWAP1 SWAP6 MSTORE DUP3 DUP6 DIV DUP8 AND ISZERO ISZERO PUSH1 0x60 DUP8 ADD MSTORE PUSH1 0x1 PUSH1 0xA8 SHL SWAP1 SWAP5 DIV DUP7 AND PUSH1 0x80 DUP7 ADD MSTORE PUSH1 0x2 SWAP1 SWAP3 ADD SLOAD SWAP2 DUP3 AND PUSH1 0xA0 DUP6 ADD MSTORE SWAP1 DIV SWAP1 SWAP3 AND ISZERO ISZERO PUSH1 0xC0 DUP3 ADD MSTORE SWAP2 POP PUSH2 0x1E7B SWAP1 PUSH2 0x1E74 SWAP1 PUSH2 0x2F1F JUMP JUMPDEST DUP5 SWAP1 PUSH2 0x31C5 JUMP JUMPDEST SWAP3 POP POP PUSH1 0x1 ADD PUSH2 0x1DBF JUMP JUMPDEST POP SWAP1 JUMP JUMPDEST PUSH1 0xCB SLOAD PUSH1 0x1 PUSH1 0x1 PUSH1 0xA0 SHL SUB AND DUP2 JUMP JUMPDEST PUSH32 0x5FDE63B561377D1441AFA201FF619FAAC2FF8FED70A7FBDBE7A5CB07768C0B75 DUP2 JUMP JUMPDEST PUSH1 0x33 SLOAD PUSH1 0x1 PUSH1 0x1 PUSH1 0xA0 SHL SUB AND SWAP1 JUMP JUMPDEST PUSH2 0x1ED4 PUSH2 0x2A7E JUMP JUMPDEST PUSH1 0x1 PUSH1 0x1 PUSH1 0xA0 SHL SUB AND PUSH2 0x1EE5 PUSH2 0x1EBD JUMP JUMPDEST PUSH1 0x1 PUSH1 0x1 PUSH1 0xA0 SHL SUB AND EQ PUSH2 0x1F2E JUMPI PUSH1 0x40 DUP1 MLOAD PUSH3 0x461BCD PUSH1 0xE5 SHL DUP2 MSTORE PUSH1 0x20 PUSH1 0x4 DUP3 ADD DUP2 SWAP1 MSTORE PUSH1 0x24 DUP3 ADD MSTORE PUSH1 0x0 DUP1 MLOAD PUSH1 0x20 PUSH2 0x4354 DUP4 CODECOPY DUP2 MLOAD SWAP2 MSTORE PUSH1 0x44 DUP3 ADD MSTORE SWAP1 MLOAD SWAP1 DUP2 SWAP1 SUB PUSH1 0x64 ADD SWAP1 REVERT JUMPDEST PUSH1 0xC9 DUP1 SLOAD PUSH2 0xFF00 NOT AND PUSH2 0x100 DUP4 ISZERO ISZERO DUP2 MUL SWAP2 SWAP1 SWAP2 OR SWAP2 DUP3 SWAP1 SSTORE PUSH1 0x40 MLOAD PUSH1 0xFF SWAP2 SWAP1 SWAP3 DIV AND ISZERO ISZERO SWAP1 PUSH32 0x7304ED846A7DA817E311F225ED0DF7C4B621C484DA0AB3E633BD5AD083F2C3AE SWAP1 PUSH1 0x0 SWAP1 LOG2 POP JUMP JUMPDEST PUSH1 0x0 DUP3 DUP2 MSTORE PUSH1 0x65 PUSH1 0x20 MSTORE PUSH1 0x40 DUP2 KECCAK256 PUSH2 0x1F95 SWAP1 DUP4 PUSH2 0x321F JUMP JUMPDEST SWAP1 POP JUMPDEST SWAP3 SWAP2 POP POP JUMP JUMPDEST PUSH1 0x0 DUP3 DUP2 MSTORE PUSH1 0x65 PUSH1 0x20 MSTORE PUSH1 0x40 DUP2 KECCAK256 PUSH2 0x1F95 SWAP1 DUP4 PUSH2 0x322B JUMP JUMPDEST PUSH1 0xD4 SLOAD PUSH4 0xFFFFFFFF AND DUP2 JUMP JUMPDEST PUSH1 0xC9 SLOAD PUSH4 0x1000000 SWAP1 DIV PUSH1 0xFF AND DUP2 JUMP JUMPDEST PUSH1 0xD4 SLOAD PUSH1 0x1 PUSH1 0xA0 SHL SWAP1 DIV PUSH4 0xFFFFFFFF AND DUP2 JUMP JUMPDEST PUSH1 0x0 DUP2 JUMP JUMPDEST PUSH1 0xC9 SLOAD PUSH1 0xFF AND PUSH2 0x202F JUMPI PUSH1 0x40 DUP1 MLOAD PUSH3 0x461BCD PUSH1 0xE5 SHL DUP2 MSTORE PUSH1 0x20 PUSH1 0x4 DUP3 ADD MSTORE PUSH1 0x14 PUSH1 0x24 DUP3 ADD MSTORE PUSH1 0x0 DUP1 MLOAD PUSH1 0x20 PUSH2 0x4256 DUP4 CODECOPY DUP2 MLOAD SWAP2 MSTORE PUSH1 0x44 DUP3 ADD MSTORE SWAP1 MLOAD SWAP1 DUP2 SWAP1 SUB PUSH1 0x64 ADD SWAP1 REVERT JUMPDEST PUSH1 0x2 PUSH1 0x97 SLOAD EQ ISZERO PUSH2 0x2075 JUMPI PUSH1 0x40 DUP1 MLOAD PUSH3 0x461BCD PUSH1 0xE5 SHL DUP2 MSTORE PUSH1 0x20 PUSH1 0x4 DUP3 ADD MSTORE PUSH1 0x1F PUSH1 0x24 DUP3 ADD MSTORE PUSH1 0x0 DUP1 MLOAD PUSH1 0x20 PUSH2 0x413C DUP4 CODECOPY DUP2 MLOAD SWAP2 MSTORE PUSH1 0x44 DUP3 ADD MSTORE SWAP1 MLOAD SWAP1 DUP2 SWAP1 SUB PUSH1 0x64 ADD SWAP1 REVERT JUMPDEST PUSH1 0x2 PUSH1 0x97 SSTORE PUSH1 0x1 PUSH1 0x1 PUSH1 0xA0 SHL SUB DUP6 AND PUSH1 0x0 SWAP1 DUP2 MSTORE PUSH1 0xD5 PUSH1 0x20 MSTORE PUSH1 0x40 SWAP1 KECCAK256 SLOAD PUSH1 0x1 PUSH1 0xA0 SHL SWAP1 DIV PUSH1 0xFF AND PUSH2 0x20E5 JUMPI PUSH1 0x40 DUP1 MLOAD PUSH3 0x461BCD PUSH1 0xE5 SHL DUP2 MSTORE PUSH1 0x20 PUSH1 0x4 DUP3 ADD MSTORE PUSH1 0x14 PUSH1 0x24 DUP3 ADD MSTORE PUSH20 0x10DBDB1B185D195C985B081B9BDD081859191959 PUSH1 0x62 SHL PUSH1 0x44 DUP3 ADD MSTORE SWAP1 MLOAD SWAP1 DUP2 SWAP1 SUB PUSH1 0x64 ADD SWAP1 REVERT JUMPDEST PUSH1 0x0 DUP5 GT PUSH2 0x2124 JUMPI PUSH1 0x40 MLOAD PUSH3 0x461BCD PUSH1 0xE5 SHL DUP2 MSTORE PUSH1 0x4 ADD DUP1 DUP1 PUSH1 0x20 ADD DUP3 DUP2 SUB DUP3 MSTORE PUSH1 0x21 DUP2 MSTORE PUSH1 0x20 ADD DUP1 PUSH2 0x41E2 PUSH1 0x21 SWAP2 CODECOPY PUSH1 0x40 ADD SWAP2 POP POP PUSH1 0x40 MLOAD DUP1 SWAP2 SUB SWAP1 REVERT JUMPDEST PUSH2 0x1938 DUP6 DUP6 DUP6 DUP6 DUP6 PUSH2 0x3240 JUMP JUMPDEST PUSH1 0xD1 SLOAD DUP2 JUMP JUMPDEST PUSH2 0x213F PUSH2 0x2A7E JUMP JUMPDEST PUSH1 0x1 PUSH1 0x1 PUSH1 0xA0 SHL SUB AND PUSH2 0x2150 PUSH2 0x1EBD JUMP JUMPDEST PUSH1 0x1 PUSH1 0x1 PUSH1 0xA0 SHL SUB AND EQ PUSH2 0x2199 JUMPI PUSH1 0x40 DUP1 MLOAD PUSH3 0x461BCD PUSH1 0xE5 SHL DUP2 MSTORE PUSH1 0x20 PUSH1 0x4 DUP3 ADD DUP2 SWAP1 MSTORE PUSH1 0x24 DUP3 ADD MSTORE PUSH1 0x0 DUP1 MLOAD PUSH1 0x20 PUSH2 0x4354 DUP4 CODECOPY DUP2 MLOAD SWAP2 MSTORE PUSH1 0x44 DUP3 ADD MSTORE SWAP1 MLOAD SWAP1 DUP2 SWAP1 SUB PUSH1 0x64 ADD SWAP1 REVERT JUMPDEST PUSH1 0x1 PUSH1 0x1 PUSH1 0xA0 SHL SUB DUP7 AND PUSH1 0x0 SWAP1 DUP2 MSTORE PUSH1 0xD5 PUSH1 0x20 MSTORE PUSH1 0x40 SWAP1 KECCAK256 SLOAD PUSH1 0x1 PUSH1 0xA0 SHL SWAP1 DIV PUSH1 0xFF AND PUSH2 0x2204 JUMPI PUSH1 0x40 DUP1 MLOAD PUSH3 0x461BCD PUSH1 0xE5 SHL DUP2 MSTORE PUSH1 0x20 PUSH1 0x4 DUP3 ADD MSTORE PUSH1 0x14 PUSH1 0x24 DUP3 ADD MSTORE PUSH20 0x10DBDB1B185D195C985B081B9BDD081859191959 PUSH1 0x62 SHL PUSH1 0x44 DUP3 ADD MSTORE SWAP1 MLOAD SWAP1 DUP2 SWAP1 SUB PUSH1 0x64 ADD SWAP1 REVERT JUMPDEST PUSH1 0x0 PUSH1 0xD5 PUSH1 0x0 DUP9 PUSH1 0x1 PUSH1 0x1 PUSH1 0xA0 SHL SUB AND PUSH1 0x1 PUSH1 0x1 PUSH1 0xA0 SHL SUB AND DUP2 MSTORE PUSH1 0x20 ADD SWAP1 DUP2 MSTORE PUSH1 0x20 ADD PUSH1 0x0 KECCAK256 SWAP1 POP DUP7 DUP2 PUSH1 0x0 ADD PUSH1 0x0 PUSH2 0x100 EXP DUP2 SLOAD DUP2 PUSH1 0x1 PUSH1 0x1 PUSH1 0xA0 SHL SUB MUL NOT AND SWAP1 DUP4 PUSH1 0x1 PUSH1 0x1 PUSH1 0xA0 SHL SUB AND MUL OR SWAP1 SSTORE POP DUP6 DUP2 PUSH1 0x1 ADD PUSH1 0x0 PUSH2 0x100 EXP DUP2 SLOAD DUP2 PUSH1 0x1 PUSH1 0x1 PUSH1 0xA0 SHL SUB MUL NOT AND SWAP1 DUP4 PUSH1 0x1 PUSH1 0x1 PUSH1 0xA0 SHL SUB AND MUL OR SWAP1 SSTORE POP DUP5 DUP2 PUSH1 0x1 ADD PUSH1 0x14 PUSH2 0x100 EXP DUP2 SLOAD DUP2 PUSH1 0xFF MUL NOT AND SWAP1 DUP4 ISZERO ISZERO MUL OR SWAP1 SSTORE POP DUP3 DUP2 PUSH1 0x2 ADD PUSH1 0x0 PUSH2 0x100 EXP DUP2 SLOAD DUP2 PUSH1 0x1 PUSH1 0x1 PUSH1 0xA0 SHL SUB MUL NOT AND SWAP1 DUP4 PUSH1 0x1 PUSH1 0x1 PUSH1 0xA0 SHL SUB AND MUL OR SWAP1 SSTORE POP DUP7 PUSH1 0x1 PUSH1 0x1 PUSH1 0xA0 SHL SUB AND PUSH32 0x4373C9397F82B63EC1404E609E257362B37C078B682BCE6B7727D21FCE4D1594 DUP3 PUSH1 0x0 ADD PUSH1 0x14 SWAP1 SLOAD SWAP1 PUSH2 0x100 EXP SWAP1 DIV PUSH1 0xFF AND DUP9 DUP9 DUP9 DUP9 DUP9 PUSH1 0x40 MLOAD DUP1 DUP8 ISZERO ISZERO DUP2 MSTORE PUSH1 0x20 ADD DUP7 PUSH1 0x1 PUSH1 0x1 PUSH1 0xA0 SHL SUB AND DUP2 MSTORE PUSH1 0x20 ADD DUP6 ISZERO ISZERO DUP2 MSTORE PUSH1 0x20 ADD DUP5 PUSH1 0xFF AND DUP2 MSTORE PUSH1 0x20 ADD DUP4 PUSH1 0x1 PUSH1 0x1 PUSH1 0xA0 SHL SUB AND DUP2 MSTORE PUSH1 0x20 ADD DUP3 ISZERO ISZERO DUP2 MSTORE PUSH1 0x20 ADD SWAP7 POP POP POP POP POP POP POP PUSH1 0x40 MLOAD DUP1 SWAP2 SUB SWAP1 LOG2 POP POP POP POP POP POP POP JUMP JUMPDEST PUSH1 0x0 DUP1 PUSH2 0x236D PUSH2 0x27E9 JUMP JUMPDEST SWAP1 POP PUSH1 0x0 PUSH1 0xCA PUSH1 0x0 SWAP1 SLOAD SWAP1 PUSH2 0x100 EXP SWAP1 DIV PUSH1 0x1 PUSH1 0x1 PUSH1 0xA0 SHL SUB AND PUSH1 0x1 PUSH1 0x1 PUSH1 0xA0 SHL SUB AND PUSH4 0x18160DDD PUSH1 0x40 MLOAD DUP2 PUSH4 0xFFFFFFFF AND PUSH1 0xE0 SHL DUP2 MSTORE PUSH1 0x4 ADD PUSH1 0x20 PUSH1 0x40 MLOAD DUP1 DUP4 SUB DUP2 DUP7 DUP1 EXTCODESIZE ISZERO DUP1 ISZERO PUSH2 0x23BF JUMPI PUSH1 0x0 DUP1 REVERT JUMPDEST POP GAS STATICCALL ISZERO DUP1 ISZERO PUSH2 0x23D3 JUMPI RETURNDATASIZE PUSH1 0x0 DUP1 RETURNDATACOPY RETURNDATASIZE PUSH1 0x0 REVERT JUMPDEST POP POP POP POP PUSH1 0x40 MLOAD RETURNDATASIZE PUSH1 0x20 DUP2 LT ISZERO PUSH2 0x23E9 JUMPI PUSH1 0x0 DUP1 REVERT JUMPDEST POP MLOAD PUSH1 0xCB SLOAD PUSH1 0x40 DUP1 MLOAD PUSH4 0x4219775 PUSH1 0xE1 SHL DUP2 MSTORE SWAP1 MLOAD SWAP3 SWAP4 POP PUSH1 0x0 SWAP3 PUSH1 0x1 PUSH1 0x1 PUSH1 0xA0 SHL SUB SWAP1 SWAP3 AND SWAP2 PUSH4 0x8432EEA SWAP2 PUSH1 0x4 DUP1 DUP3 ADD SWAP3 PUSH1 0x20 SWAP3 SWAP1 SWAP2 SWAP1 DUP3 SWAP1 SUB ADD DUP2 DUP7 DUP1 EXTCODESIZE ISZERO DUP1 ISZERO PUSH2 0x2436 JUMPI PUSH1 0x0 DUP1 REVERT JUMPDEST POP GAS STATICCALL ISZERO DUP1 ISZERO PUSH2 0x244A JUMPI RETURNDATASIZE PUSH1 0x0 DUP1 RETURNDATACOPY RETURNDATASIZE PUSH1 0x0 REVERT JUMPDEST POP POP POP POP PUSH1 0x40 MLOAD RETURNDATASIZE PUSH1 0x20 DUP2 LT ISZERO PUSH2 0x2460 JUMPI PUSH1 0x0 DUP1 REVERT JUMPDEST POP MLOAD PUSH1 0xCB SLOAD PUSH1 0x40 DUP1 MLOAD PUSH4 0x6F2A2B0F PUSH1 0xE0 SHL DUP2 MSTORE SWAP1 MLOAD SWAP3 SWAP4 POP PUSH1 0x0 SWAP3 PUSH1 0x1 PUSH1 0x1 PUSH1 0xA0 SHL SUB SWAP1 SWAP3 AND SWAP2 PUSH4 0x6F2A2B0F SWAP2 PUSH1 0x4 DUP1 DUP3 ADD SWAP3 PUSH1 0x20 SWAP3 SWAP1 SWAP2 SWAP1 DUP3 SWAP1 SUB ADD DUP2 DUP7 DUP1 EXTCODESIZE ISZERO DUP1 ISZERO PUSH2 0x24AD JUMPI PUSH1 0x0 DUP1 REVERT JUMPDEST POP GAS STATICCALL ISZERO DUP1 ISZERO PUSH2 0x24C1 JUMPI RETURNDATASIZE PUSH1 0x0 DUP1 RETURNDATACOPY RETURNDATASIZE PUSH1 0x0 REVERT JUMPDEST POP POP POP POP PUSH1 0x40 MLOAD RETURNDATASIZE PUSH1 0x20 DUP2 LT ISZERO PUSH2 0x24D7 JUMPI PUSH1 0x0 DUP1 REVERT JUMPDEST POP MLOAD SWAP1 POP PUSH1 0x0 PUSH2 0x24F1 DUP3 PUSH2 0x24EB DUP7 DUP7 PUSH2 0x3617 JUMP JUMPDEST SWAP1 PUSH2 0x3670 JUMP JUMPDEST SWAP1 POP PUSH2 0x2506 DUP2 PUSH2 0x24EB DUP8 PUSH5 0xE8D4A51000 PUSH2 0x3617 JUMP JUMPDEST SWAP6 POP POP POP POP POP POP SWAP1 JUMP JUMPDEST PUSH1 0xC9 SLOAD PUSH1 0x1 PUSH1 0x28 SHL SWAP1 DIV PUSH1 0x1 PUSH1 0x1 PUSH1 0xA0 SHL SUB AND DUP2 JUMP JUMPDEST PUSH1 0x0 SLOAD PUSH2 0x100 SWAP1 DIV PUSH1 0xFF AND DUP1 PUSH2 0x253F JUMPI POP PUSH2 0x253F PUSH2 0x36D7 JUMP JUMPDEST DUP1 PUSH2 0x254D JUMPI POP PUSH1 0x0 SLOAD PUSH1 0xFF AND ISZERO JUMPDEST PUSH2 0x2588 JUMPI PUSH1 0x40 MLOAD PUSH3 0x461BCD PUSH1 0xE5 SHL DUP2 MSTORE PUSH1 0x4 ADD DUP1 DUP1 PUSH1 0x20 ADD DUP3 DUP2 SUB DUP3 MSTORE PUSH1 0x2E DUP2 MSTORE PUSH1 0x20 ADD DUP1 PUSH2 0x42D2 PUSH1 0x2E SWAP2 CODECOPY PUSH1 0x40 ADD SWAP2 POP POP PUSH1 0x40 MLOAD DUP1 SWAP2 SUB SWAP1 REVERT JUMPDEST PUSH1 0x0 SLOAD PUSH2 0x100 SWAP1 DIV PUSH1 0xFF AND ISZERO DUP1 ISZERO PUSH2 0x25B3 JUMPI PUSH1 0x0 DUP1 SLOAD PUSH1 0xFF NOT PUSH2 0xFF00 NOT SWAP1 SWAP2 AND PUSH2 0x100 OR AND PUSH1 0x1 OR SWAP1 SSTORE JUMPDEST PUSH2 0x25BB PUSH2 0x36E8 JUMP JUMPDEST PUSH2 0x25C3 PUSH2 0x379A JUMP JUMPDEST PUSH2 0x25CB PUSH2 0x3837 JUMP JUMPDEST PUSH1 0xC9 DUP1 SLOAD PUSH1 0x1 PUSH1 0x1 PUSH1 0xA0 SHL SUB DUP7 DUP2 AND PUSH1 0x1 PUSH1 0x28 SHL MUL PUSH3 0xFF0100 PUSH1 0x1 PUSH1 0xC8 SHL SUB NOT PUSH1 0xFF NOT SWAP1 SWAP4 AND PUSH1 0x1 OR SWAP3 SWAP1 SWAP3 AND SWAP2 SWAP1 SWAP2 OR SWAP1 SWAP2 SSTORE PUSH1 0xCE DUP1 SLOAD DUP6 DUP4 AND PUSH1 0x1 PUSH1 0x1 PUSH1 0xA0 SHL SUB NOT SWAP2 DUP3 AND OR SWAP1 SWAP2 SSTORE PUSH1 0xCC DUP1 SLOAD DUP3 AND ADDRESS OR SWAP1 SSTORE NUMBER PUSH1 0xCF SSTORE PUSH1 0xD2 DUP1 SLOAD PUSH4 0xFFFFFFFF NOT SWAP1 DUP2 AND PUSH2 0x3DB8 OR SWAP1 SWAP2 SSTORE PUSH5 0xDD30699C00 PUSH1 0xD3 SSTORE PUSH1 0xD4 DUP1 SLOAD PUSH2 0x5F90 SWAP3 AND SWAP2 SWAP1 SWAP2 OR PUSH8 0xFFFFFFFF00000000 NOT AND PUSH6 0x271000000000 OR PUSH12 0xFFFFFFFF0000000000000000 NOT AND PUSH9 0x450000000000000000 OR PUSH4 0xFFFFFFFF PUSH1 0x60 SHL NOT AND PUSH2 0x509 PUSH1 0x65 SHL OR PUSH4 0xFFFFFFFF PUSH1 0x80 SHL NOT AND PUSH2 0xAA3 PUSH1 0x81 SHL OR PUSH4 0xFFFFFFFF PUSH1 0xA0 SHL NOT AND PUSH1 0x35 PUSH1 0xA6 SHL OR SWAP1 SSTORE PUSH1 0xCD DUP1 SLOAD SWAP1 SWAP2 AND SWAP2 DUP5 AND SWAP2 SWAP1 SWAP2 OR SWAP1 SSTORE PUSH2 0x26CA PUSH1 0x0 CALLER PUSH2 0x176C JUMP JUMPDEST DUP1 ISZERO PUSH2 0x26DC JUMPI PUSH1 0x0 DUP1 SLOAD PUSH2 0xFF00 NOT AND SWAP1 SSTORE JUMPDEST POP POP POP POP JUMP JUMPDEST PUSH2 0x26EA PUSH2 0x2A7E JUMP JUMPDEST PUSH1 0x1 PUSH1 0x1 PUSH1 0xA0 SHL SUB AND PUSH2 0x26FB PUSH2 0x1EBD JUMP JUMPDEST PUSH1 0x1 PUSH1 0x1 PUSH1 0xA0 SHL SUB AND EQ PUSH2 0x2744 JUMPI PUSH1 0x40 DUP1 MLOAD PUSH3 0x461BCD PUSH1 0xE5 SHL DUP2 MSTORE PUSH1 0x20 PUSH1 0x4 DUP3 ADD DUP2 SWAP1 MSTORE PUSH1 0x24 DUP3 ADD MSTORE PUSH1 0x0 DUP1 MLOAD PUSH1 0x20 PUSH2 0x4354 DUP4 CODECOPY DUP2 MLOAD SWAP2 MSTORE PUSH1 0x44 DUP3 ADD MSTORE SWAP1 MLOAD SWAP1 DUP2 SWAP1 SUB PUSH1 0x64 ADD SWAP1 REVERT JUMPDEST PUSH1 0xCA DUP1 SLOAD PUSH1 0x1 PUSH1 0x1 PUSH1 0xA0 SHL SUB NOT AND PUSH1 0x1 PUSH1 0x1 PUSH1 0xA0 SHL SUB SWAP3 SWAP1 SWAP3 AND SWAP2 SWAP1 SWAP2 OR SWAP1 SSTORE JUMP JUMPDEST PUSH1 0x0 DUP2 DUP2 MSTORE PUSH1 0x65 PUSH1 0x20 MSTORE PUSH1 0x40 DUP2 KECCAK256 PUSH2 0x1F98 SWAP1 PUSH2 0x38CC JUMP JUMPDEST PUSH1 0x0 DUP3 DUP2 MSTORE PUSH1 0x65 PUSH1 0x20 MSTORE PUSH1 0x40 SWAP1 KECCAK256 PUSH1 0x2 ADD SLOAD PUSH2 0x279B SWAP1 PUSH2 0x172C PUSH2 0x2A7E JUMP JUMPDEST PUSH2 0x17D1 JUMPI PUSH1 0x40 MLOAD PUSH3 0x461BCD PUSH1 0xE5 SHL DUP2 MSTORE PUSH1 0x4 ADD DUP1 DUP1 PUSH1 0x20 ADD DUP3 DUP2 SUB DUP3 MSTORE PUSH1 0x30 DUP2 MSTORE PUSH1 0x20 ADD DUP1 PUSH2 0x4276 PUSH1 0x30 SWAP2 CODECOPY PUSH1 0x40 ADD SWAP2 POP POP PUSH1 0x40 MLOAD DUP1 SWAP2 SUB SWAP1 REVERT JUMPDEST PUSH1 0xD4 SLOAD PUSH1 0x1 PUSH1 0x60 SHL SWAP1 DIV PUSH4 0xFFFFFFFF AND DUP2 JUMP JUMPDEST PUSH1 0x0 PUSH2 0x27F3 PUSH2 0x1DBB JUMP JUMPDEST SWAP1 POP SWAP1 JUMP JUMPDEST PUSH1 0xC9 SLOAD PUSH2 0x100 SWAP1 DIV PUSH1 0xFF AND DUP2 JUMP JUMPDEST PUSH2 0x280E PUSH2 0x2A7E JUMP JUMPDEST PUSH1 0x1 PUSH1 0x1 PUSH1 0xA0 SHL SUB AND PUSH2 0x281F PUSH2 0x1EBD JUMP JUMPDEST PUSH1 0x1 PUSH1 0x1 PUSH1 0xA0 SHL SUB AND EQ PUSH2 0x2868 JUMPI PUSH1 0x40 DUP1 MLOAD PUSH3 0x461BCD PUSH1 0xE5 SHL DUP2 MSTORE PUSH1 0x20 PUSH1 0x4 DUP3 ADD DUP2 SWAP1 MSTORE PUSH1 0x24 DUP3 ADD MSTORE PUSH1 0x0 DUP1 MLOAD PUSH1 0x20 PUSH2 0x4354 DUP4 CODECOPY DUP2 MLOAD SWAP2 MSTORE PUSH1 0x44 DUP3 ADD MSTORE SWAP1 MLOAD SWAP1 DUP2 SWAP1 SUB PUSH1 0x64 ADD SWAP1 REVERT JUMPDEST PUSH1 0x1 PUSH1 0x1 PUSH1 0xA0 SHL SUB DUP2 AND PUSH2 0x28AD JUMPI PUSH1 0x40 MLOAD PUSH3 0x461BCD PUSH1 0xE5 SHL DUP2 MSTORE PUSH1 0x4 ADD DUP1 DUP1 PUSH1 0x20 ADD DUP3 DUP2 SUB DUP3 MSTORE PUSH1 0x26 DUP2 MSTORE PUSH1 0x20 ADD DUP1 PUSH2 0x415C PUSH1 0x26 SWAP2 CODECOPY PUSH1 0x40 ADD SWAP2 POP POP PUSH1 0x40 MLOAD DUP1 SWAP2 SUB SWAP1 REVERT JUMPDEST PUSH1 0x33 SLOAD PUSH1 0x40 MLOAD PUSH1 0x1 PUSH1 0x1 PUSH1 0xA0 SHL SUB DUP1 DUP5 AND SWAP3 AND SWAP1 PUSH32 0x8BE0079C531659141344CD1FD0A4F28419497F9722A3DAAFE3B4186F6B6457E0 SWAP1 PUSH1 0x0 SWAP1 LOG3 PUSH1 0x33 DUP1 SLOAD PUSH1 0x1 PUSH1 0x1 PUSH1 0xA0 SHL SUB NOT AND PUSH1 0x1 PUSH1 0x1 PUSH1 0xA0 SHL SUB SWAP3 SWAP1 SWAP3 AND SWAP2 SWAP1 SWAP2 OR SWAP1 SSTORE JUMP JUMPDEST PUSH2 0x2911 PUSH2 0x2A7E JUMP JUMPDEST PUSH1 0x1 PUSH1 0x1 PUSH1 0xA0 SHL SUB AND PUSH2 0x2922 PUSH2 0x1EBD JUMP JUMPDEST PUSH1 0x1 PUSH1 0x1 PUSH1 0xA0 SHL SUB AND EQ PUSH2 0x296B JUMPI PUSH1 0x40 DUP1 MLOAD PUSH3 0x461BCD PUSH1 0xE5 SHL DUP2 MSTORE PUSH1 0x20 PUSH1 0x4 DUP3 ADD DUP2 SWAP1 MSTORE PUSH1 0x24 DUP3 ADD MSTORE PUSH1 0x0 DUP1 MLOAD PUSH1 0x20 PUSH2 0x4354 DUP4 CODECOPY DUP2 MLOAD SWAP2 MSTORE PUSH1 0x44 DUP3 ADD MSTORE SWAP1 MLOAD SWAP1 DUP2 SWAP1 SUB PUSH1 0x64 ADD SWAP1 REVERT JUMPDEST PUSH1 0xCB DUP1 SLOAD PUSH1 0x1 PUSH1 0x1 PUSH1 0xA0 SHL SUB NOT AND PUSH1 0x1 PUSH1 0x1 PUSH1 0xA0 SHL SUB SWAP3 SWAP1 SWAP3 AND SWAP2 SWAP1 SWAP2 OR SWAP1 SSTORE JUMP JUMPDEST PUSH1 0xD3 SLOAD DUP2 JUMP JUMPDEST PUSH1 0xCF SLOAD DUP2 JUMP JUMPDEST PUSH1 0xC9 SLOAD PUSH1 0xFF AND PUSH2 0x29DE JUMPI PUSH1 0x40 DUP1 MLOAD PUSH3 0x461BCD PUSH1 0xE5 SHL DUP2 MSTORE PUSH1 0x20 PUSH1 0x4 DUP3 ADD MSTORE PUSH1 0x14 PUSH1 0x24 DUP3 ADD MSTORE PUSH1 0x0 DUP1 MLOAD PUSH1 0x20 PUSH2 0x4256 DUP4 CODECOPY DUP2 MLOAD SWAP2 MSTORE PUSH1 0x44 DUP3 ADD MSTORE SWAP1 MLOAD SWAP1 DUP2 SWAP1 SUB PUSH1 0x64 ADD SWAP1 REVERT JUMPDEST PUSH1 0x2 PUSH1 0x97 SLOAD EQ ISZERO PUSH2 0x2A24 JUMPI PUSH1 0x40 DUP1 MLOAD PUSH3 0x461BCD PUSH1 0xE5 SHL DUP2 MSTORE PUSH1 0x20 PUSH1 0x4 DUP3 ADD MSTORE PUSH1 0x1F PUSH1 0x24 DUP3 ADD MSTORE PUSH1 0x0 DUP1 MLOAD PUSH1 0x20 PUSH2 0x413C DUP4 CODECOPY DUP2 MLOAD SWAP2 MSTORE PUSH1 0x44 DUP3 ADD MSTORE SWAP1 MLOAD SWAP1 DUP2 SWAP1 SUB PUSH1 0x64 ADD SWAP1 REVERT JUMPDEST PUSH1 0x2 PUSH1 0x97 SSTORE DUP4 PUSH2 0x2A65 JUMPI PUSH1 0x40 MLOAD PUSH3 0x461BCD PUSH1 0xE5 SHL DUP2 MSTORE PUSH1 0x4 ADD DUP1 DUP1 PUSH1 0x20 ADD DUP3 DUP2 SUB DUP3 MSTORE PUSH1 0x21 DUP2 MSTORE PUSH1 0x20 ADD DUP1 PUSH2 0x41E2 PUSH1 0x21 SWAP2 CODECOPY PUSH1 0x40 ADD SWAP2 POP POP PUSH1 0x40 MLOAD DUP1 SWAP2 SUB SWAP1 REVERT JUMPDEST PUSH2 0x2A73 PUSH1 0x0 DUP6 DUP6 DUP6 DUP6 PUSH2 0x3240 JUMP JUMPDEST POP POP PUSH1 0x1 PUSH1 0x97 SSTORE POP POP JUMP JUMPDEST CALLER SWAP1 JUMP JUMPDEST PUSH1 0xC9 SLOAD PUSH1 0xFF AND PUSH2 0x2AC7 JUMPI PUSH1 0x40 DUP1 MLOAD PUSH3 0x461BCD PUSH1 0xE5 SHL DUP2 MSTORE PUSH1 0x20 PUSH1 0x4 DUP3 ADD MSTORE PUSH1 0x14 PUSH1 0x24 DUP3 ADD MSTORE PUSH1 0x0 DUP1 MLOAD PUSH1 0x20 PUSH2 0x4256 DUP4 CODECOPY DUP2 MLOAD SWAP2 MSTORE PUSH1 0x44 DUP3 ADD MSTORE SWAP1 MLOAD SWAP1 DUP2 SWAP1 SUB PUSH1 0x64 ADD SWAP1 REVERT JUMPDEST PUSH1 0xCE SLOAD PUSH1 0x40 DUP1 MLOAD PUSH4 0x63B09FDB PUSH1 0xE0 SHL DUP2 MSTORE PUSH1 0x1 PUSH1 0x1 PUSH1 0xA0 SHL SUB DUP11 DUP2 AND PUSH1 0x4 DUP4 ADD MSTORE PUSH1 0x24 DUP3 ADD DUP11 SWAP1 MSTORE PUSH1 0xFF DUP10 AND PUSH1 0x44 DUP4 ADD MSTORE ADDRESS PUSH1 0x64 DUP4 ADD MSTORE SWAP2 MLOAD PUSH1 0x0 SWAP4 DUP5 SWAP4 DUP5 SWAP4 DUP5 SWAP4 SWAP2 SWAP1 SWAP3 AND SWAP2 PUSH4 0x63B09FDB SWAP2 PUSH1 0x84 DUP1 DUP4 ADD SWAP3 PUSH1 0x80 SWAP3 SWAP2 SWAP1 DUP3 SWAP1 SUB ADD DUP2 DUP7 DUP1 EXTCODESIZE ISZERO DUP1 ISZERO PUSH2 0x2B33 JUMPI PUSH1 0x0 DUP1 REVERT JUMPDEST POP GAS STATICCALL ISZERO DUP1 ISZERO PUSH2 0x2B47 JUMPI RETURNDATASIZE PUSH1 0x0 DUP1 RETURNDATACOPY RETURNDATASIZE PUSH1 0x0 REVERT JUMPDEST POP POP POP POP PUSH1 0x40 MLOAD RETURNDATASIZE PUSH1 0x80 DUP2 LT ISZERO PUSH2 0x2B5D JUMPI PUSH1 0x0 DUP1 REVERT JUMPDEST POP DUP1 MLOAD PUSH1 0x20 DUP3 ADD MLOAD PUSH1 0x40 DUP4 ADD MLOAD PUSH1 0x60 SWAP1 SWAP4 ADD MLOAD SWAP2 SWAP7 POP SWAP5 POP SWAP1 SWAP3 POP SWAP1 POP DUP8 DUP3 LT ISZERO PUSH2 0x2BB9 JUMPI PUSH1 0x40 MLOAD PUSH3 0x461BCD PUSH1 0xE5 SHL DUP2 MSTORE PUSH1 0x4 ADD DUP1 DUP1 PUSH1 0x20 ADD DUP3 DUP2 SUB DUP3 MSTORE PUSH1 0x2E DUP2 MSTORE PUSH1 0x20 ADD DUP1 PUSH2 0x4374 PUSH1 0x2E SWAP2 CODECOPY PUSH1 0x40 ADD SWAP2 POP POP PUSH1 0x40 MLOAD DUP1 SWAP2 SUB SWAP1 REVERT JUMPDEST DUP7 DUP4 GT ISZERO PUSH2 0x2BF8 JUMPI PUSH1 0x40 MLOAD PUSH3 0x461BCD PUSH1 0xE5 SHL DUP2 MSTORE PUSH1 0x4 ADD DUP1 DUP1 PUSH1 0x20 ADD DUP3 DUP2 SUB DUP3 MSTORE PUSH1 0x33 DUP2 MSTORE PUSH1 0x20 ADD DUP1 PUSH2 0x4300 PUSH1 0x33 SWAP2 CODECOPY PUSH1 0x40 ADD SWAP2 POP POP PUSH1 0x40 MLOAD DUP1 SWAP2 SUB SWAP1 REVERT JUMPDEST DUP6 DUP5 GT ISZERO PUSH2 0x2C37 JUMPI PUSH1 0x40 MLOAD PUSH3 0x461BCD PUSH1 0xE5 SHL DUP2 MSTORE PUSH1 0x4 ADD DUP1 DUP1 PUSH1 0x20 ADD DUP3 DUP2 SUB DUP3 MSTORE PUSH1 0x2C DUP2 MSTORE PUSH1 0x20 ADD DUP1 PUSH2 0x41B6 PUSH1 0x2C SWAP2 CODECOPY PUSH1 0x40 ADD SWAP2 POP POP PUSH1 0x40 MLOAD DUP1 SWAP2 SUB SWAP1 REVERT JUMPDEST DUP5 TIMESTAMP GT ISZERO PUSH2 0x2C7F JUMPI PUSH1 0x40 DUP1 MLOAD PUSH3 0x461BCD PUSH1 0xE5 SHL DUP2 MSTORE PUSH1 0x20 PUSH1 0x4 DUP3 ADD MSTORE PUSH1 0x10 PUSH1 0x24 DUP3 ADD MSTORE PUSH16 0x111958591B1A5B9948195E1C1A5C9959 PUSH1 0x82 SHL PUSH1 0x44 DUP3 ADD MSTORE SWAP1 MLOAD SWAP1 DUP2 SWAP1 SUB PUSH1 0x64 ADD SWAP1 REVERT JUMPDEST PUSH1 0xC9 SLOAD PUSH1 0x40 DUP1 MLOAD PUSH4 0x79CC679 PUSH1 0xE4 SHL DUP2 MSTORE CALLER PUSH1 0x4 DUP3 ADD MSTORE PUSH1 0x24 DUP2 ADD DUP8 SWAP1 MSTORE SWAP1 MLOAD PUSH1 0x1 PUSH1 0x28 SHL SWAP1 SWAP3 DIV PUSH1 0x1 PUSH1 0x1 PUSH1 0xA0 SHL SUB AND SWAP2 PUSH4 0x79CC6790 SWAP2 PUSH1 0x44 DUP1 DUP3 ADD SWAP3 PUSH1 0x0 SWAP3 SWAP1 SWAP2 SWAP1 DUP3 SWAP1 SUB ADD DUP2 DUP4 DUP8 DUP1 EXTCODESIZE ISZERO DUP1 ISZERO PUSH2 0x2CD8 JUMPI PUSH1 0x0 DUP1 REVERT JUMPDEST POP GAS CALL ISZERO DUP1 ISZERO PUSH2 0x2CEC JUMPI RETURNDATASIZE PUSH1 0x0 DUP1 RETURNDATACOPY RETURNDATASIZE PUSH1 0x0 REVERT JUMPDEST POP POP PUSH1 0xD1 SLOAD PUSH2 0x2CFE SWAP3 POP SWAP1 POP DUP6 PUSH2 0x31C5 JUMP JUMPDEST PUSH1 0xD1 SSTORE PUSH1 0x3 PUSH1 0xFF DUP11 AND EQ PUSH2 0x2D21 JUMPI PUSH2 0x2D21 PUSH1 0x1 PUSH1 0x1 PUSH1 0xA0 SHL SUB DUP13 AND CALLER ADDRESS DUP7 PUSH2 0x38D7 JUMP JUMPDEST PUSH1 0xCA SLOAD PUSH1 0x40 DUP1 MLOAD PUSH4 0x40C10F19 PUSH1 0xE0 SHL DUP2 MSTORE CALLER PUSH1 0x4 DUP3 ADD MSTORE PUSH1 0x24 DUP2 ADD DUP6 SWAP1 MSTORE SWAP1 MLOAD PUSH1 0x1 PUSH1 0x1 PUSH1 0xA0 SHL SUB SWAP1 SWAP3 AND SWAP2 PUSH4 0x40C10F19 SWAP2 PUSH1 0x44 DUP1 DUP3 ADD SWAP3 PUSH1 0x0 SWAP3 SWAP1 SWAP2 SWAP1 DUP3 SWAP1 SUB ADD DUP2 DUP4 DUP8 DUP1 EXTCODESIZE ISZERO DUP1 ISZERO PUSH2 0x2D74 JUMPI PUSH1 0x0 DUP1 REVERT JUMPDEST POP GAS CALL ISZERO DUP1 ISZERO PUSH2 0x2D88 JUMPI RETURNDATASIZE PUSH1 0x0 DUP1 RETURNDATACOPY RETURNDATASIZE PUSH1 0x0 REVERT JUMPDEST POP POP PUSH1 0xCA SLOAD PUSH1 0xCD SLOAD PUSH1 0x40 DUP1 MLOAD PUSH4 0x40C10F19 PUSH1 0xE0 SHL DUP2 MSTORE PUSH1 0x1 PUSH1 0x1 PUSH1 0xA0 SHL SUB SWAP3 DUP4 AND PUSH1 0x4 DUP3 ADD MSTORE PUSH1 0x24 DUP2 ADD DUP8 SWAP1 MSTORE SWAP1 MLOAD SWAP2 SWAP1 SWAP3 AND SWAP4 POP PUSH4 0x40C10F19 SWAP3 POP PUSH1 0x44 DUP1 DUP4 ADD SWAP3 PUSH1 0x0 SWAP3 SWAP2 SWAP1 DUP3 SWAP1 SUB ADD DUP2 DUP4 DUP8 DUP1 EXTCODESIZE ISZERO DUP1 ISZERO PUSH2 0x2DE4 JUMPI PUSH1 0x0 DUP1 REVERT JUMPDEST POP GAS CALL ISZERO DUP1 ISZERO PUSH2 0x2DF8 JUMPI RETURNDATASIZE PUSH1 0x0 DUP1 RETURNDATACOPY RETURNDATASIZE PUSH1 0x0 REVERT JUMPDEST POP POP PUSH1 0x40 DUP1 MLOAD DUP7 DUP2 MSTORE PUSH1 0x20 DUP2 ADD DUP9 SWAP1 MSTORE DUP1 DUP3 ADD DUP6 SWAP1 MSTORE SWAP1 MLOAD DUP6 SWAP4 POP CALLER SWAP3 POP PUSH32 0x473211CA1F39DE50CBD3CC7E9F63F97251AFB1A528E8164F279BF67DAB4F952D SWAP2 DUP2 SWAP1 SUB PUSH1 0x60 ADD SWAP1 LOG3 POP POP POP POP POP POP POP POP POP POP POP JUMP JUMPDEST PUSH1 0x0 DUP3 DUP2 MSTORE PUSH1 0x65 PUSH1 0x20 MSTORE PUSH1 0x40 SWAP1 KECCAK256 PUSH2 0x2E65 SWAP1 DUP3 PUSH2 0x3931 JUMP JUMPDEST ISZERO PUSH2 0x1776 JUMPI PUSH2 0x2E72 PUSH2 0x2A7E JUMP JUMPDEST PUSH1 0x1 PUSH1 0x1 PUSH1 0xA0 SHL SUB AND DUP2 PUSH1 0x1 PUSH1 0x1 PUSH1 0xA0 SHL SUB AND DUP4 PUSH32 0x2F8788117E7EFF1D82E926EC794901D17C78024A50270940304540A733656F0D PUSH1 0x40 MLOAD PUSH1 0x40 MLOAD DUP1 SWAP2 SUB SWAP1 LOG4 POP POP JUMP JUMPDEST PUSH1 0x0 DUP3 DUP2 MSTORE PUSH1 0x65 PUSH1 0x20 MSTORE PUSH1 0x40 SWAP1 KECCAK256 PUSH2 0x2ECE SWAP1 DUP3 PUSH2 0x3946 JUMP JUMPDEST ISZERO PUSH2 0x1776 JUMPI PUSH2 0x2EDB PUSH2 0x2A7E JUMP JUMPDEST PUSH1 0x1 PUSH1 0x1 PUSH1 0xA0 SHL SUB AND DUP2 PUSH1 0x1 PUSH1 0x1 PUSH1 0xA0 SHL SUB AND DUP4 PUSH32 0xF6391F5C32D9C69D2A47EA670B442974B53935D1EDC7FD64EB21E047A839171B PUSH1 0x40 MLOAD PUSH1 0x40 MLOAD DUP1 SWAP2 SUB SWAP1 LOG4 POP POP JUMP JUMPDEST PUSH1 0x0 PUSH2 0x2F29 PUSH2 0x40AE JUMP JUMPDEST POP PUSH1 0x1 PUSH1 0x1 PUSH1 0xA0 SHL SUB DUP1 DUP4 AND PUSH1 0x0 SWAP1 DUP2 MSTORE PUSH1 0xD5 PUSH1 0x20 SWAP1 DUP2 MSTORE PUSH1 0x40 DUP1 DUP4 KECCAK256 DUP2 MLOAD PUSH1 0xE0 DUP2 ADD DUP4 MSTORE DUP2 SLOAD DUP1 DUP8 AND DUP1 DUP4 MSTORE PUSH1 0xFF PUSH1 0x1 PUSH1 0xA0 SHL SWAP3 DUP4 SWAP1 DIV DUP2 AND ISZERO ISZERO DUP5 DUP9 ADD MSTORE PUSH1 0x1 DUP6 ADD SLOAD DUP1 DUP11 AND DUP6 DUP9 ADD MSTORE DUP4 DUP2 DIV DUP3 AND ISZERO ISZERO PUSH1 0x60 DUP7 ADD MSTORE PUSH1 0x1 PUSH1 0xA8 SHL SWAP1 DIV DUP2 AND PUSH1 0x80 DUP6 ADD MSTORE PUSH1 0x2 SWAP1 SWAP5 ADD SLOAD DUP1 DUP10 AND PUSH1 0xA0 DUP6 ADD MSTORE SWAP2 SWAP1 SWAP2 DIV SWAP1 SWAP3 AND ISZERO ISZERO PUSH1 0xC0 DUP3 ADD MSTORE PUSH1 0xCB SLOAD DUP4 MLOAD PUSH4 0x14690265 PUSH1 0xE2 SHL DUP2 MSTORE PUSH1 0x4 DUP2 ADD SWAP4 SWAP1 SWAP4 MSTORE SWAP3 MLOAD SWAP1 SWAP6 SWAP3 SWAP1 SWAP3 AND SWAP3 PUSH4 0x51A40994 SWAP3 PUSH1 0x24 DUP1 DUP5 ADD SWAP4 DUP3 SWAP1 SUB ADD DUP2 DUP7 DUP1 EXTCODESIZE ISZERO DUP1 ISZERO PUSH2 0x2FEB JUMPI PUSH1 0x0 DUP1 REVERT JUMPDEST POP GAS STATICCALL ISZERO DUP1 ISZERO PUSH2 0x2FFF JUMPI RETURNDATASIZE PUSH1 0x0 DUP1 RETURNDATACOPY RETURNDATASIZE PUSH1 0x0 REVERT JUMPDEST POP POP POP POP PUSH1 0x40 MLOAD RETURNDATASIZE PUSH1 0x20 DUP2 LT ISZERO PUSH2 0x3015 JUMPI PUSH1 0x0 DUP1 REVERT JUMPDEST POP MLOAD PUSH1 0xCB SLOAD DUP4 MLOAD PUSH1 0x40 DUP1 MLOAD PUSH4 0x3F153279 PUSH1 0xE0 SHL DUP2 MSTORE PUSH1 0x1 PUSH1 0x1 PUSH1 0xA0 SHL SUB SWAP3 DUP4 AND PUSH1 0x4 DUP3 ADD MSTORE SWAP1 MLOAD SWAP4 SWAP5 POP PUSH1 0x0 SWAP4 SWAP2 SWAP1 SWAP3 AND SWAP2 PUSH4 0x3F153279 SWAP2 PUSH1 0x24 DUP1 DUP4 ADD SWAP3 PUSH1 0x20 SWAP3 SWAP2 SWAP1 DUP3 SWAP1 SUB ADD DUP2 DUP7 DUP1 EXTCODESIZE ISZERO DUP1 ISZERO PUSH2 0x306C JUMPI PUSH1 0x0 DUP1 REVERT JUMPDEST POP GAS STATICCALL ISZERO DUP1 ISZERO PUSH2 0x3080 JUMPI RETURNDATASIZE PUSH1 0x0 DUP1 RETURNDATACOPY RETURNDATASIZE PUSH1 0x0 REVERT JUMPDEST POP POP POP POP PUSH1 0x40 MLOAD RETURNDATASIZE PUSH1 0x20 DUP2 LT ISZERO PUSH2 0x3096 JUMPI PUSH1 0x0 DUP1 REVERT JUMPDEST POP MLOAD DUP4 MLOAD PUSH1 0x40 DUP1 MLOAD PUSH4 0x313CE567 PUSH1 0xE0 SHL DUP2 MSTORE SWAP1 MLOAD SWAP3 SWAP4 POP PUSH1 0x0 SWAP3 PUSH1 0x1 PUSH1 0x1 PUSH1 0xA0 SHL SUB SWAP1 SWAP3 AND SWAP2 PUSH4 0x313CE567 SWAP2 PUSH1 0x4 DUP1 DUP3 ADD SWAP3 PUSH1 0x20 SWAP3 SWAP1 SWAP2 SWAP1 DUP3 SWAP1 SUB ADD DUP2 DUP7 DUP1 EXTCODESIZE ISZERO DUP1 ISZERO PUSH2 0x30E2 JUMPI PUSH1 0x0 DUP1 REVERT JUMPDEST POP GAS STATICCALL ISZERO DUP1 ISZERO PUSH2 0x30F6 JUMPI RETURNDATASIZE PUSH1 0x0 DUP1 RETURNDATACOPY RETURNDATASIZE PUSH1 0x0 REVERT JUMPDEST POP POP POP POP PUSH1 0x40 MLOAD RETURNDATASIZE PUSH1 0x20 DUP2 LT ISZERO PUSH2 0x310C JUMPI PUSH1 0x0 DUP1 REVERT JUMPDEST POP MLOAD DUP5 MLOAD PUSH1 0x40 DUP1 MLOAD PUSH4 0x70A08231 PUSH1 0xE0 SHL DUP2 MSTORE ADDRESS PUSH1 0x4 DUP3 ADD MSTORE SWAP1 MLOAD PUSH1 0xFF SWAP1 SWAP4 AND SWAP4 POP PUSH1 0x0 SWAP3 PUSH2 0x319D SWAP3 DUP7 SWAP3 PUSH2 0x24EB SWAP3 DUP10 SWAP3 PUSH1 0x1 PUSH1 0x1 PUSH1 0xA0 SHL SUB AND SWAP2 PUSH4 0x70A08231 SWAP2 PUSH1 0x24 DUP1 DUP4 ADD SWAP3 PUSH1 0x20 SWAP3 SWAP2 SWAP1 DUP3 SWAP1 SUB ADD DUP2 DUP7 DUP1 EXTCODESIZE ISZERO DUP1 ISZERO PUSH2 0x316B JUMPI PUSH1 0x0 DUP1 REVERT JUMPDEST POP GAS STATICCALL ISZERO DUP1 ISZERO PUSH2 0x317F JUMPI RETURNDATASIZE PUSH1 0x0 DUP1 RETURNDATACOPY RETURNDATASIZE PUSH1 0x0 REVERT JUMPDEST POP POP POP POP PUSH1 0x40 MLOAD RETURNDATASIZE PUSH1 0x20 DUP2 LT ISZERO PUSH2 0x3195 JUMPI PUSH1 0x0 DUP1 REVERT JUMPDEST POP MLOAD SWAP1 PUSH2 0x3617 JUMP JUMPDEST SWAP1 POP PUSH1 0x0 PUSH2 0x31B9 PUSH2 0x31AF PUSH1 0x12 DUP6 PUSH2 0x395B JUMP JUMPDEST DUP4 SWAP1 PUSH1 0xA EXP PUSH2 0x3617 JUMP JUMPDEST SWAP9 SWAP8 POP POP POP POP POP POP POP POP JUMP JUMPDEST PUSH1 0x0 DUP3 DUP3 ADD DUP4 DUP2 LT ISZERO PUSH2 0x1F95 JUMPI PUSH1 0x40 DUP1 MLOAD PUSH3 0x461BCD PUSH1 0xE5 SHL DUP2 MSTORE PUSH1 0x20 PUSH1 0x4 DUP3 ADD MSTORE PUSH1 0x1B PUSH1 0x24 DUP3 ADD MSTORE PUSH32 0x536166654D6174683A206164646974696F6E206F766572666C6F770000000000 PUSH1 0x44 DUP3 ADD MSTORE SWAP1 MLOAD SWAP1 DUP2 SWAP1 SUB PUSH1 0x64 ADD SWAP1 REVERT JUMPDEST PUSH1 0x0 PUSH2 0x1F95 DUP4 DUP4 PUSH2 0x39B8 JUMP JUMPDEST PUSH1 0x0 PUSH2 0x1F95 DUP4 PUSH1 0x1 PUSH1 0x1 PUSH1 0xA0 SHL SUB DUP5 AND PUSH2 0x3A1C JUMP JUMPDEST PUSH1 0xC9 SLOAD PUSH1 0xFF AND PUSH2 0x3285 JUMPI PUSH1 0x40 DUP1 MLOAD PUSH3 0x461BCD PUSH1 0xE5 SHL DUP2 MSTORE PUSH1 0x20 PUSH1 0x4 DUP3 ADD MSTORE PUSH1 0x14 PUSH1 0x24 DUP3 ADD MSTORE PUSH1 0x0 DUP1 MLOAD PUSH1 0x20 PUSH2 0x4256 DUP4 CODECOPY DUP2 MLOAD SWAP2 MSTORE PUSH1 0x44 DUP3 ADD MSTORE SWAP1 MLOAD SWAP1 DUP2 SWAP1 SUB PUSH1 0x64 ADD SWAP1 REVERT JUMPDEST PUSH1 0xCE SLOAD PUSH1 0xCB SLOAD PUSH1 0x40 DUP1 MLOAD PUSH4 0x7A9ACAD3 PUSH1 0xE1 SHL DUP2 MSTORE PUSH1 0x1 PUSH1 0x1 PUSH1 0xA0 SHL SUB DUP10 DUP2 AND PUSH1 0x4 DUP4 ADD MSTORE PUSH1 0x24 DUP3 ADD DUP10 SWAP1 MSTORE ADDRESS PUSH1 0x44 DUP4 ADD MSTORE SWAP3 DUP4 AND PUSH1 0x64 DUP3 ADD MSTORE SWAP1 MLOAD PUSH1 0x0 SWAP4 DUP5 SWAP4 DUP5 SWAP4 DUP5 SWAP4 SWAP2 SWAP1 SWAP3 AND SWAP2 PUSH4 0xF53595A6 SWAP2 PUSH1 0x84 DUP1 DUP4 ADD SWAP3 PUSH1 0x80 SWAP3 SWAP2 SWAP1 DUP3 SWAP1 SUB ADD DUP2 DUP7 DUP1 EXTCODESIZE ISZERO DUP1 ISZERO PUSH2 0x32F3 JUMPI PUSH1 0x0 DUP1 REVERT JUMPDEST POP GAS STATICCALL ISZERO DUP1 ISZERO PUSH2 0x3307 JUMPI RETURNDATASIZE PUSH1 0x0 DUP1 RETURNDATACOPY RETURNDATASIZE PUSH1 0x0 REVERT JUMPDEST POP POP POP POP PUSH1 0x40 MLOAD RETURNDATASIZE PUSH1 0x80 DUP2 LT ISZERO PUSH2 0x331D JUMPI PUSH1 0x0 DUP1 REVERT JUMPDEST POP DUP1 MLOAD PUSH1 0x20 DUP3 ADD MLOAD PUSH1 0x40 DUP4 ADD MLOAD PUSH1 0x60 SWAP1 SWAP4 ADD MLOAD SWAP2 SWAP7 POP SWAP5 POP SWAP1 SWAP3 POP SWAP1 POP DUP7 DUP4 LT ISZERO PUSH2 0x3379 JUMPI PUSH1 0x40 MLOAD PUSH3 0x461BCD PUSH1 0xE5 SHL DUP2 MSTORE PUSH1 0x4 ADD DUP1 DUP1 PUSH1 0x20 ADD DUP3 DUP2 SUB DUP3 MSTORE PUSH1 0x34 DUP2 MSTORE PUSH1 0x20 ADD DUP1 PUSH2 0x4182 PUSH1 0x34 SWAP2 CODECOPY PUSH1 0x40 ADD SWAP2 POP POP PUSH1 0x40 MLOAD DUP1 SWAP2 SUB SWAP1 REVERT JUMPDEST DUP6 DUP5 LT ISZERO PUSH2 0x33B8 JUMPI PUSH1 0x40 MLOAD PUSH3 0x461BCD PUSH1 0xE5 SHL DUP2 MSTORE PUSH1 0x4 ADD DUP1 DUP1 PUSH1 0x20 ADD DUP3 DUP2 SUB DUP3 MSTORE PUSH1 0x2D DUP2 MSTORE PUSH1 0x20 ADD DUP1 PUSH2 0x4229 PUSH1 0x2D SWAP2 CODECOPY PUSH1 0x40 ADD SWAP2 POP POP PUSH1 0x40 MLOAD DUP1 SWAP2 SUB SWAP1 REVERT JUMPDEST DUP5 TIMESTAMP GT ISZERO PUSH2 0x3400 JUMPI PUSH1 0x40 DUP1 MLOAD PUSH3 0x461BCD PUSH1 0xE5 SHL DUP2 MSTORE PUSH1 0x20 PUSH1 0x4 DUP3 ADD MSTORE PUSH1 0x10 PUSH1 0x24 DUP3 ADD MSTORE PUSH16 0x111958591B1A5B9948195E1C1A5C9959 PUSH1 0x82 SHL PUSH1 0x44 DUP3 ADD MSTORE SWAP1 MLOAD SWAP1 DUP2 SWAP1 SUB PUSH1 0x64 ADD SWAP1 REVERT JUMPDEST PUSH1 0xC9 SLOAD PUSH1 0x40 DUP1 MLOAD PUSH4 0xEDB561C3 PUSH1 0xE0 SHL DUP2 MSTORE CALLER PUSH1 0x4 DUP3 ADD MSTORE PUSH1 0x24 DUP2 ADD DUP8 SWAP1 MSTORE SWAP1 MLOAD PUSH1 0x1 PUSH1 0x28 SHL SWAP1 SWAP3 DIV PUSH1 0x1 PUSH1 0x1 PUSH1 0xA0 SHL SUB AND SWAP2 PUSH4 0xEDB561C3 SWAP2 PUSH1 0x44 DUP1 DUP3 ADD SWAP3 PUSH1 0x0 SWAP3 SWAP1 SWAP2 SWAP1 DUP3 SWAP1 SUB ADD DUP2 DUP4 DUP8 DUP1 EXTCODESIZE ISZERO DUP1 ISZERO PUSH2 0x3459 JUMPI PUSH1 0x0 DUP1 REVERT JUMPDEST POP GAS CALL ISZERO DUP1 ISZERO PUSH2 0x346D JUMPI RETURNDATASIZE PUSH1 0x0 DUP1 RETURNDATACOPY RETURNDATASIZE PUSH1 0x0 REVERT JUMPDEST POP POP PUSH1 0xD0 SLOAD PUSH2 0x347F SWAP3 POP SWAP1 POP DUP6 PUSH2 0x31C5 JUMP JUMPDEST PUSH1 0xD0 SSTORE PUSH1 0x1 PUSH1 0x1 PUSH1 0xA0 SHL SUB DUP10 AND PUSH2 0x352A JUMPI PUSH1 0x40 MLOAD PUSH1 0x0 SWAP1 CALLER SWAP1 DUP6 SWAP1 DUP4 DUP2 DUP2 DUP2 DUP6 DUP8 GAS CALL SWAP3 POP POP POP RETURNDATASIZE DUP1 PUSH1 0x0 DUP2 EQ PUSH2 0x34D2 JUMPI PUSH1 0x40 MLOAD SWAP2 POP PUSH1 0x1F NOT PUSH1 0x3F RETURNDATASIZE ADD AND DUP3 ADD PUSH1 0x40 MSTORE RETURNDATASIZE DUP3 MSTORE RETURNDATASIZE PUSH1 0x0 PUSH1 0x20 DUP5 ADD RETURNDATACOPY PUSH2 0x34D7 JUMP JUMPDEST PUSH1 0x60 SWAP2 POP JUMPDEST POP POP SWAP1 POP DUP1 PUSH2 0x3524 JUMPI PUSH1 0x40 DUP1 MLOAD PUSH3 0x461BCD PUSH1 0xE5 SHL DUP2 MSTORE PUSH1 0x20 PUSH1 0x4 DUP3 ADD MSTORE PUSH1 0x14 PUSH1 0x24 DUP3 ADD MSTORE PUSH20 0x2330B4B632B2103A379039B2B7321022BA3432B9 PUSH1 0x61 SHL PUSH1 0x44 DUP3 ADD MSTORE SWAP1 MLOAD SWAP1 DUP2 SWAP1 SUB PUSH1 0x64 ADD SWAP1 REVERT JUMPDEST POP PUSH2 0x353E JUMP JUMPDEST PUSH2 0x353E PUSH1 0x1 PUSH1 0x1 PUSH1 0xA0 SHL SUB DUP11 AND CALLER DUP6 PUSH2 0x3A34 JUMP JUMPDEST PUSH1 0xCA SLOAD PUSH1 0x40 DUP1 MLOAD PUSH4 0x2770A7EB PUSH1 0xE2 SHL DUP2 MSTORE CALLER PUSH1 0x4 DUP3 ADD MSTORE PUSH1 0x24 DUP2 ADD DUP6 SWAP1 MSTORE SWAP1 MLOAD PUSH1 0x1 PUSH1 0x1 PUSH1 0xA0 SHL SUB SWAP1 SWAP3 AND SWAP2 PUSH4 0x9DC29FAC SWAP2 PUSH1 0x44 DUP1 DUP3 ADD SWAP3 PUSH1 0x0 SWAP3 SWAP1 SWAP2 SWAP1 DUP3 SWAP1 SUB ADD DUP2 DUP4 DUP8 DUP1 EXTCODESIZE ISZERO DUP1 ISZERO PUSH2 0x3591 JUMPI PUSH1 0x0 DUP1 REVERT JUMPDEST POP GAS CALL ISZERO DUP1 ISZERO PUSH2 0x35A5 JUMPI RETURNDATASIZE PUSH1 0x0 DUP1 RETURNDATACOPY RETURNDATASIZE PUSH1 0x0 REVERT JUMPDEST POP POP PUSH1 0xCD SLOAD PUSH1 0xCA SLOAD PUSH2 0x35C8 SWAP4 POP PUSH1 0x1 PUSH1 0x1 PUSH1 0xA0 SHL SUB SWAP1 DUP2 AND SWAP3 POP CALLER SWAP2 AND DUP5 PUSH2 0x38D7 JUMP JUMPDEST PUSH1 0x40 DUP1 MLOAD DUP5 DUP2 MSTORE PUSH1 0x20 DUP2 ADD DUP7 SWAP1 MSTORE DUP1 DUP3 ADD DUP4 SWAP1 MSTORE SWAP1 MLOAD DUP4 SWAP2 CALLER SWAP2 PUSH32 0x7A7FA876A9A577092F57D3C1DEEDDC4025FB563AAB144154B355EDE4FB9F3DED SWAP2 DUP2 SWAP1 SUB PUSH1 0x60 ADD SWAP1 LOG3 POP POP POP POP POP POP POP POP POP JUMP JUMPDEST PUSH1 0x0 DUP3 PUSH2 0x3626 JUMPI POP PUSH1 0x0 PUSH2 0x1F98 JUMP JUMPDEST DUP3 DUP3 MUL DUP3 DUP5 DUP3 DUP2 PUSH2 0x3633 JUMPI INVALID JUMPDEST DIV EQ PUSH2 0x1F95 JUMPI PUSH1 0x40 MLOAD PUSH3 0x461BCD PUSH1 0xE5 SHL DUP2 MSTORE PUSH1 0x4 ADD DUP1 DUP1 PUSH1 0x20 ADD DUP3 DUP2 SUB DUP3 MSTORE PUSH1 0x21 DUP2 MSTORE PUSH1 0x20 ADD DUP1 PUSH2 0x4333 PUSH1 0x21 SWAP2 CODECOPY PUSH1 0x40 ADD SWAP2 POP POP PUSH1 0x40 MLOAD DUP1 SWAP2 SUB SWAP1 REVERT JUMPDEST PUSH1 0x0 DUP1 DUP3 GT PUSH2 0x36C6 JUMPI PUSH1 0x40 DUP1 MLOAD PUSH3 0x461BCD PUSH1 0xE5 SHL DUP2 MSTORE PUSH1 0x20 PUSH1 0x4 DUP3 ADD MSTORE PUSH1 0x1A PUSH1 0x24 DUP3 ADD MSTORE PUSH32 0x536166654D6174683A206469766973696F6E206279207A65726F000000000000 PUSH1 0x44 DUP3 ADD MSTORE SWAP1 MLOAD SWAP1 DUP2 SWAP1 SUB PUSH1 0x64 ADD SWAP1 REVERT JUMPDEST DUP2 DUP4 DUP2 PUSH2 0x36CF JUMPI INVALID JUMPDEST DIV SWAP4 SWAP3 POP POP POP JUMP JUMPDEST PUSH1 0x0 PUSH2 0x36E2 ADDRESS PUSH2 0x3A8B JUMP JUMPDEST ISZERO SWAP1 POP SWAP1 JUMP JUMPDEST PUSH1 0x0 SLOAD PUSH2 0x100 SWAP1 DIV PUSH1 0xFF AND DUP1 PUSH2 0x3701 JUMPI POP PUSH2 0x3701 PUSH2 0x36D7 JUMP JUMPDEST DUP1 PUSH2 0x370F JUMPI POP PUSH1 0x0 SLOAD PUSH1 0xFF AND ISZERO JUMPDEST PUSH2 0x374A JUMPI PUSH1 0x40 MLOAD PUSH3 0x461BCD PUSH1 0xE5 SHL DUP2 MSTORE PUSH1 0x4 ADD DUP1 DUP1 PUSH1 0x20 ADD DUP3 DUP2 SUB DUP3 MSTORE PUSH1 0x2E DUP2 MSTORE PUSH1 0x20 ADD DUP1 PUSH2 0x42D2 PUSH1 0x2E SWAP2 CODECOPY PUSH1 0x40 ADD SWAP2 POP POP PUSH1 0x40 MLOAD DUP1 SWAP2 SUB SWAP1 REVERT JUMPDEST PUSH1 0x0 SLOAD PUSH2 0x100 SWAP1 DIV PUSH1 0xFF AND ISZERO DUP1 ISZERO PUSH2 0x3775 JUMPI PUSH1 0x0 DUP1 SLOAD PUSH1 0xFF NOT PUSH2 0xFF00 NOT SWAP1 SWAP2 AND PUSH2 0x100 OR AND PUSH1 0x1 OR SWAP1 SSTORE JUMPDEST PUSH2 0x377D PUSH2 0x3A91 JUMP JUMPDEST PUSH2 0x3785 PUSH2 0x3B31 JUMP JUMPDEST DUP1 ISZERO PUSH2 0x3797 JUMPI PUSH1 0x0 DUP1 SLOAD PUSH2 0xFF00 NOT AND SWAP1 SSTORE JUMPDEST POP JUMP JUMPDEST PUSH1 0x0 SLOAD PUSH2 0x100 SWAP1 DIV PUSH1 0xFF AND DUP1 PUSH2 0x37B3 JUMPI POP PUSH2 0x37B3 PUSH2 0x36D7 JUMP JUMPDEST DUP1 PUSH2 0x37C1 JUMPI POP PUSH1 0x0 SLOAD PUSH1 0xFF AND ISZERO JUMPDEST PUSH2 0x37FC JUMPI PUSH1 0x40 MLOAD PUSH3 0x461BCD PUSH1 0xE5 SHL DUP2 MSTORE PUSH1 0x4 ADD DUP1 DUP1 PUSH1 0x20 ADD DUP3 DUP2 SUB DUP3 MSTORE PUSH1 0x2E DUP2 MSTORE PUSH1 0x20 ADD DUP1 PUSH2 0x42D2 PUSH1 0x2E SWAP2 CODECOPY PUSH1 0x40 ADD SWAP2 POP POP PUSH1 0x40 MLOAD DUP1 SWAP2 SUB SWAP1 REVERT JUMPDEST PUSH1 0x0 SLOAD PUSH2 0x100 SWAP1 DIV PUSH1 0xFF AND ISZERO DUP1 ISZERO PUSH2 0x3827 JUMPI PUSH1 0x0 DUP1 SLOAD PUSH1 0xFF NOT PUSH2 0xFF00 NOT SWAP1 SWAP2 AND PUSH2 0x100 OR AND PUSH1 0x1 OR SWAP1 SSTORE JUMPDEST PUSH2 0x382F PUSH2 0x3A91 JUMP JUMPDEST PUSH2 0x3785 PUSH2 0x3A91 JUMP JUMPDEST PUSH1 0x0 SLOAD PUSH2 0x100 SWAP1 DIV PUSH1 0xFF AND DUP1 PUSH2 0x3850 JUMPI POP PUSH2 0x3850 PUSH2 0x36D7 JUMP JUMPDEST DUP1 PUSH2 0x385E JUMPI POP PUSH1 0x0 SLOAD PUSH1 0xFF AND ISZERO JUMPDEST PUSH2 0x3899 JUMPI PUSH1 0x40 MLOAD PUSH3 0x461BCD PUSH1 0xE5 SHL DUP2 MSTORE PUSH1 0x4 ADD DUP1 DUP1 PUSH1 0x20 ADD DUP3 DUP2 SUB DUP3 MSTORE PUSH1 0x2E DUP2 MSTORE PUSH1 0x20 ADD DUP1 PUSH2 0x42D2 PUSH1 0x2E SWAP2 CODECOPY PUSH1 0x40 ADD SWAP2 POP POP PUSH1 0x40 MLOAD DUP1 SWAP2 SUB SWAP1 REVERT JUMPDEST PUSH1 0x0 SLOAD PUSH2 0x100 SWAP1 DIV PUSH1 0xFF AND ISZERO DUP1 ISZERO PUSH2 0x38C4 JUMPI PUSH1 0x0 DUP1 SLOAD PUSH1 0xFF NOT PUSH2 0xFF00 NOT SWAP1 SWAP2 AND PUSH2 0x100 OR AND PUSH1 0x1 OR SWAP1 SSTORE JUMPDEST PUSH2 0x3785 PUSH2 0x3C2A JUMP JUMPDEST PUSH1 0x0 PUSH2 0x1F98 DUP3 PUSH2 0x3CD0 JUMP JUMPDEST PUSH1 0x40 DUP1 MLOAD PUSH1 0x1 PUSH1 0x1 PUSH1 0xA0 SHL SUB DUP1 DUP7 AND PUSH1 0x24 DUP4 ADD MSTORE DUP5 AND PUSH1 0x44 DUP3 ADD MSTORE PUSH1 0x64 DUP1 DUP3 ADD DUP5 SWAP1 MSTORE DUP3 MLOAD DUP1 DUP4 SUB SWAP1 SWAP2 ADD DUP2 MSTORE PUSH1 0x84 SWAP1 SWAP2 ADD SWAP1 SWAP2 MSTORE PUSH1 0x20 DUP2 ADD DUP1 MLOAD PUSH1 0x1 PUSH1 0x1 PUSH1 0xE0 SHL SUB AND PUSH4 0x23B872DD PUSH1 0xE0 SHL OR SWAP1 MSTORE PUSH2 0x26DC SWAP1 DUP6 SWAP1 PUSH2 0x3CD4 JUMP JUMPDEST PUSH1 0x0 PUSH2 0x1F95 DUP4 PUSH1 0x1 PUSH1 0x1 PUSH1 0xA0 SHL SUB DUP5 AND PUSH2 0x3D85 JUMP JUMPDEST PUSH1 0x0 PUSH2 0x1F95 DUP4 PUSH1 0x1 PUSH1 0x1 PUSH1 0xA0 SHL SUB DUP5 AND PUSH2 0x3DCF JUMP JUMPDEST PUSH1 0x0 DUP3 DUP3 GT ISZERO PUSH2 0x39B2 JUMPI PUSH1 0x40 DUP1 MLOAD PUSH3 0x461BCD PUSH1 0xE5 SHL DUP2 MSTORE PUSH1 0x20 PUSH1 0x4 DUP3 ADD MSTORE PUSH1 0x1E PUSH1 0x24 DUP3 ADD MSTORE PUSH32 0x536166654D6174683A207375627472616374696F6E206F766572666C6F770000 PUSH1 0x44 DUP3 ADD MSTORE SWAP1 MLOAD SWAP1 DUP2 SWAP1 SUB PUSH1 0x64 ADD SWAP1 REVERT JUMPDEST POP SWAP1 SUB SWAP1 JUMP JUMPDEST DUP2 SLOAD PUSH1 0x0 SWAP1 DUP3 LT PUSH2 0x39FA JUMPI PUSH1 0x40 MLOAD PUSH3 0x461BCD PUSH1 0xE5 SHL DUP2 MSTORE PUSH1 0x4 ADD DUP1 DUP1 PUSH1 0x20 ADD DUP3 DUP2 SUB DUP3 MSTORE PUSH1 0x22 DUP2 MSTORE PUSH1 0x20 ADD DUP1 PUSH2 0x40EB PUSH1 0x22 SWAP2 CODECOPY PUSH1 0x40 ADD SWAP2 POP POP PUSH1 0x40 MLOAD DUP1 SWAP2 SUB SWAP1 REVERT JUMPDEST DUP3 PUSH1 0x0 ADD DUP3 DUP2 SLOAD DUP2 LT PUSH2 0x3A09 JUMPI INVALID JUMPDEST SWAP1 PUSH1 0x0 MSTORE PUSH1 0x20 PUSH1 0x0 KECCAK256 ADD SLOAD SWAP1 POP SWAP3 SWAP2 POP POP JUMP JUMPDEST PUSH1 0x0 SWAP1 DUP2 MSTORE PUSH1 0x1 SWAP2 SWAP1 SWAP2 ADD PUSH1 0x20 MSTORE PUSH1 0x40 SWAP1 KECCAK256 SLOAD ISZERO ISZERO SWAP1 JUMP JUMPDEST PUSH1 0x40 DUP1 MLOAD PUSH1 0x1 PUSH1 0x1 PUSH1 0xA0 SHL SUB DUP5 AND PUSH1 0x24 DUP3 ADD MSTORE PUSH1 0x44 DUP1 DUP3 ADD DUP5 SWAP1 MSTORE DUP3 MLOAD DUP1 DUP4 SUB SWAP1 SWAP2 ADD DUP2 MSTORE PUSH1 0x64 SWAP1 SWAP2 ADD SWAP1 SWAP2 MSTORE PUSH1 0x20 DUP2 ADD DUP1 MLOAD PUSH1 0x1 PUSH1 0x1 PUSH1 0xE0 SHL SUB AND PUSH4 0xA9059CBB PUSH1 0xE0 SHL OR SWAP1 MSTORE PUSH2 0x3A86 SWAP1 DUP5 SWAP1 PUSH2 0x3CD4 JUMP JUMPDEST POP POP POP JUMP JUMPDEST EXTCODESIZE ISZERO ISZERO SWAP1 JUMP JUMPDEST PUSH1 0x0 SLOAD PUSH2 0x100 SWAP1 DIV PUSH1 0xFF AND DUP1 PUSH2 0x3AAA JUMPI POP PUSH2 0x3AAA PUSH2 0x36D7 JUMP JUMPDEST DUP1 PUSH2 0x3AB8 JUMPI POP PUSH1 0x0 SLOAD PUSH1 0xFF AND ISZERO JUMPDEST PUSH2 0x3AF3 JUMPI PUSH1 0x40 MLOAD PUSH3 0x461BCD PUSH1 0xE5 SHL DUP2 MSTORE PUSH1 0x4 ADD DUP1 DUP1 PUSH1 0x20 ADD DUP3 DUP2 SUB DUP3 MSTORE PUSH1 0x2E DUP2 MSTORE PUSH1 0x20 ADD DUP1 PUSH2 0x42D2 PUSH1 0x2E SWAP2 CODECOPY PUSH1 0x40 ADD SWAP2 POP POP PUSH1 0x40 MLOAD DUP1 SWAP2 SUB SWAP1 REVERT JUMPDEST PUSH1 0x0 SLOAD PUSH2 0x100 SWAP1 DIV PUSH1 0xFF AND ISZERO DUP1 ISZERO PUSH2 0x3785 JUMPI PUSH1 0x0 DUP1 SLOAD PUSH1 0xFF NOT PUSH2 0xFF00 NOT SWAP1 SWAP2 AND PUSH2 0x100 OR AND PUSH1 0x1 OR SWAP1 SSTORE DUP1 ISZERO PUSH2 0x3797 JUMPI PUSH1 0x0 DUP1 SLOAD PUSH2 0xFF00 NOT AND SWAP1 SSTORE POP JUMP JUMPDEST PUSH1 0x0 SLOAD PUSH2 0x100 SWAP1 DIV PUSH1 0xFF AND DUP1 PUSH2 0x3B4A JUMPI POP PUSH2 0x3B4A PUSH2 0x36D7 JUMP JUMPDEST DUP1 PUSH2 0x3B58 JUMPI POP PUSH1 0x0 SLOAD PUSH1 0xFF AND ISZERO JUMPDEST PUSH2 0x3B93 JUMPI PUSH1 0x40 MLOAD PUSH3 0x461BCD PUSH1 0xE5 SHL DUP2 MSTORE PUSH1 0x4 ADD DUP1 DUP1 PUSH1 0x20 ADD DUP3 DUP2 SUB DUP3 MSTORE PUSH1 0x2E DUP2 MSTORE PUSH1 0x20 ADD DUP1 PUSH2 0x42D2 PUSH1 0x2E SWAP2 CODECOPY PUSH1 0x40 ADD SWAP2 POP POP PUSH1 0x40 MLOAD DUP1 SWAP2 SUB SWAP1 REVERT JUMPDEST PUSH1 0x0 SLOAD PUSH2 0x100 SWAP1 DIV PUSH1 0xFF AND ISZERO DUP1 ISZERO PUSH2 0x3BBE JUMPI PUSH1 0x0 DUP1 SLOAD PUSH1 0xFF NOT PUSH2 0xFF00 NOT SWAP1 SWAP2 AND PUSH2 0x100 OR AND PUSH1 0x1 OR SWAP1 SSTORE JUMPDEST PUSH1 0x0 PUSH2 0x3BC8 PUSH2 0x2A7E JUMP JUMPDEST PUSH1 0x33 DUP1 SLOAD PUSH1 0x1 PUSH1 0x1 PUSH1 0xA0 SHL SUB NOT AND PUSH1 0x1 PUSH1 0x1 PUSH1 0xA0 SHL SUB DUP4 AND SWAP1 DUP2 OR SWAP1 SWAP2 SSTORE PUSH1 0x40 MLOAD SWAP2 SWAP3 POP SWAP1 PUSH1 0x0 SWAP1 PUSH32 0x8BE0079C531659141344CD1FD0A4F28419497F9722A3DAAFE3B4186F6B6457E0 SWAP1 DUP3 SWAP1 LOG3 POP DUP1 ISZERO PUSH2 0x3797 JUMPI PUSH1 0x0 DUP1 SLOAD PUSH2 0xFF00 NOT AND SWAP1 SSTORE POP JUMP JUMPDEST PUSH1 0x0 SLOAD PUSH2 0x100 SWAP1 DIV PUSH1 0xFF AND DUP1 PUSH2 0x3C43 JUMPI POP PUSH2 0x3C43 PUSH2 0x36D7 JUMP JUMPDEST DUP1 PUSH2 0x3C51 JUMPI POP PUSH1 0x0 SLOAD PUSH1 0xFF AND ISZERO JUMPDEST PUSH2 0x3C8C JUMPI PUSH1 0x40 MLOAD PUSH3 0x461BCD PUSH1 0xE5 SHL DUP2 MSTORE PUSH1 0x4 ADD DUP1 DUP1 PUSH1 0x20 ADD DUP3 DUP2 SUB DUP3 MSTORE PUSH1 0x2E DUP2 MSTORE PUSH1 0x20 ADD DUP1 PUSH2 0x42D2 PUSH1 0x2E SWAP2 CODECOPY PUSH1 0x40 ADD SWAP2 POP POP PUSH1 0x40 MLOAD DUP1 SWAP2 SUB SWAP1 REVERT JUMPDEST PUSH1 0x0 SLOAD PUSH2 0x100 SWAP1 DIV PUSH1 0xFF AND ISZERO DUP1 ISZERO PUSH2 0x3CB7 JUMPI PUSH1 0x0 DUP1 SLOAD PUSH1 0xFF NOT PUSH2 0xFF00 NOT SWAP1 SWAP2 AND PUSH2 0x100 OR AND PUSH1 0x1 OR SWAP1 SSTORE JUMPDEST PUSH1 0x1 PUSH1 0x97 SSTORE DUP1 ISZERO PUSH2 0x3797 JUMPI PUSH1 0x0 DUP1 SLOAD PUSH2 0xFF00 NOT AND SWAP1 SSTORE POP JUMP JUMPDEST SLOAD SWAP1 JUMP JUMPDEST PUSH1 0x60 PUSH2 0x3D29 DUP3 PUSH1 0x40 MLOAD DUP1 PUSH1 0x40 ADD PUSH1 0x40 MSTORE DUP1 PUSH1 0x20 DUP2 MSTORE PUSH1 0x20 ADD PUSH32 0x5361666545524332303A206C6F772D6C6576656C2063616C6C206661696C6564 DUP2 MSTORE POP DUP6 PUSH1 0x1 PUSH1 0x1 PUSH1 0xA0 SHL SUB AND PUSH2 0x3E95 SWAP1 SWAP3 SWAP2 SWAP1 PUSH4 0xFFFFFFFF AND JUMP JUMPDEST DUP1 MLOAD SWAP1 SWAP2 POP ISZERO PUSH2 0x3A86 JUMPI DUP1 DUP1 PUSH1 0x20 ADD SWAP1 MLOAD PUSH1 0x20 DUP2 LT ISZERO PUSH2 0x3D48 JUMPI PUSH1 0x0 DUP1 REVERT JUMPDEST POP MLOAD PUSH2 0x3A86 JUMPI PUSH1 0x40 MLOAD PUSH3 0x461BCD PUSH1 0xE5 SHL DUP2 MSTORE PUSH1 0x4 ADD DUP1 DUP1 PUSH1 0x20 ADD DUP3 DUP2 SUB DUP3 MSTORE PUSH1 0x2A DUP2 MSTORE PUSH1 0x20 ADD DUP1 PUSH2 0x43A2 PUSH1 0x2A SWAP2 CODECOPY PUSH1 0x40 ADD SWAP2 POP POP PUSH1 0x40 MLOAD DUP1 SWAP2 SUB SWAP1 REVERT JUMPDEST PUSH1 0x0 PUSH2 0x3D91 DUP4 DUP4 PUSH2 0x3A1C JUMP JUMPDEST PUSH2 0x3DC7 JUMPI POP DUP2 SLOAD PUSH1 0x1 DUP2 DUP2 ADD DUP5 SSTORE PUSH1 0x0 DUP5 DUP2 MSTORE PUSH1 0x20 DUP1 DUP3 KECCAK256 SWAP1 SWAP4 ADD DUP5 SWAP1 SSTORE DUP5 SLOAD DUP5 DUP3 MSTORE DUP3 DUP7 ADD SWAP1 SWAP4 MSTORE PUSH1 0x40 SWAP1 KECCAK256 SWAP2 SWAP1 SWAP2 SSTORE PUSH2 0x1F98 JUMP JUMPDEST POP PUSH1 0x0 PUSH2 0x1F98 JUMP JUMPDEST PUSH1 0x0 DUP2 DUP2 MSTORE PUSH1 0x1 DUP4 ADD PUSH1 0x20 MSTORE PUSH1 0x40 DUP2 KECCAK256 SLOAD DUP1 ISZERO PUSH2 0x3E8B JUMPI DUP4 SLOAD PUSH1 0x0 NOT DUP1 DUP4 ADD SWAP2 SWAP1 DUP2 ADD SWAP1 PUSH1 0x0 SWAP1 DUP8 SWAP1 DUP4 SWAP1 DUP2 LT PUSH2 0x3E02 JUMPI INVALID JUMPDEST SWAP1 PUSH1 0x0 MSTORE PUSH1 0x20 PUSH1 0x0 KECCAK256 ADD SLOAD SWAP1 POP DUP1 DUP8 PUSH1 0x0 ADD DUP5 DUP2 SLOAD DUP2 LT PUSH2 0x3E1F JUMPI INVALID JUMPDEST PUSH1 0x0 SWAP2 DUP3 MSTORE PUSH1 0x20 DUP1 DUP4 KECCAK256 SWAP1 SWAP2 ADD SWAP3 SWAP1 SWAP3 SSTORE DUP3 DUP2 MSTORE PUSH1 0x1 DUP10 DUP2 ADD SWAP1 SWAP3 MSTORE PUSH1 0x40 SWAP1 KECCAK256 SWAP1 DUP5 ADD SWAP1 SSTORE DUP7 SLOAD DUP8 SWAP1 DUP1 PUSH2 0x3E4F JUMPI INVALID JUMPDEST PUSH1 0x1 SWAP1 SUB DUP2 DUP2 SWAP1 PUSH1 0x0 MSTORE PUSH1 0x20 PUSH1 0x0 KECCAK256 ADD PUSH1 0x0 SWAP1 SSTORE SWAP1 SSTORE DUP7 PUSH1 0x1 ADD PUSH1 0x0 DUP8 DUP2 MSTORE PUSH1 0x20 ADD SWAP1 DUP2 MSTORE PUSH1 0x20 ADD PUSH1 0x0 KECCAK256 PUSH1 0x0 SWAP1 SSTORE PUSH1 0x1 SWAP5 POP POP POP POP POP PUSH2 0x1F98 JUMP JUMPDEST PUSH1 0x0 SWAP2 POP POP PUSH2 0x1F98 JUMP JUMPDEST PUSH1 0x60 PUSH2 0x3EA4 DUP5 DUP5 PUSH1 0x0 DUP6 PUSH2 0x3EAE JUMP JUMPDEST SWAP1 POP JUMPDEST SWAP4 SWAP3 POP POP POP JUMP JUMPDEST PUSH1 0x60 DUP3 SELFBALANCE LT ISZERO PUSH2 0x3EEF JUMPI PUSH1 0x40 MLOAD PUSH3 0x461BCD PUSH1 0xE5 SHL DUP2 MSTORE PUSH1 0x4 ADD DUP1 DUP1 PUSH1 0x20 ADD DUP3 DUP2 SUB DUP3 MSTORE PUSH1 0x26 DUP2 MSTORE PUSH1 0x20 ADD DUP1 PUSH2 0x4203 PUSH1 0x26 SWAP2 CODECOPY PUSH1 0x40 ADD SWAP2 POP POP PUSH1 0x40 MLOAD DUP1 SWAP2 SUB SWAP1 REVERT JUMPDEST PUSH2 0x3EF8 DUP6 PUSH2 0x3A8B JUMP JUMPDEST PUSH2 0x3F49 JUMPI PUSH1 0x40 DUP1 MLOAD PUSH3 0x461BCD PUSH1 0xE5 SHL DUP2 MSTORE PUSH1 0x20 PUSH1 0x4 DUP3 ADD MSTORE PUSH1 0x1D PUSH1 0x24 DUP3 ADD MSTORE PUSH32 0x416464726573733A2063616C6C20746F206E6F6E2D636F6E7472616374000000 PUSH1 0x44 DUP3 ADD MSTORE SWAP1 MLOAD SWAP1 DUP2 SWAP1 SUB PUSH1 0x64 ADD SWAP1 REVERT JUMPDEST PUSH1 0x0 PUSH1 0x60 DUP7 PUSH1 0x1 PUSH1 0x1 PUSH1 0xA0 SHL SUB AND DUP6 DUP8 PUSH1 0x40 MLOAD DUP1 DUP3 DUP1 MLOAD SWAP1 PUSH1 0x20 ADD SWAP1 DUP1 DUP4 DUP4 JUMPDEST PUSH1 0x20 DUP4 LT PUSH2 0x3F88 JUMPI DUP1 MLOAD DUP3 MSTORE PUSH1 0x1F NOT SWAP1 SWAP3 ADD SWAP2 PUSH1 0x20 SWAP2 DUP3 ADD SWAP2 ADD PUSH2 0x3F69 JUMP JUMPDEST PUSH1 0x1 DUP4 PUSH1 0x20 SUB PUSH2 0x100 EXP SUB DUP1 NOT DUP3 MLOAD AND DUP2 DUP5 MLOAD AND DUP1 DUP3 OR DUP6 MSTORE POP POP POP POP POP POP SWAP1 POP ADD SWAP2 POP POP PUSH1 0x0 PUSH1 0x40 MLOAD DUP1 DUP4 SUB DUP2 DUP6 DUP8 GAS CALL SWAP3 POP POP POP RETURNDATASIZE DUP1 PUSH1 0x0 DUP2 EQ PUSH2 0x3FEA JUMPI PUSH1 0x40 MLOAD SWAP2 POP PUSH1 0x1F NOT PUSH1 0x3F RETURNDATASIZE ADD AND DUP3 ADD PUSH1 0x40 MSTORE RETURNDATASIZE DUP3 MSTORE RETURNDATASIZE PUSH1 0x0 PUSH1 0x20 DUP5 ADD RETURNDATACOPY PUSH2 0x3FEF JUMP JUMPDEST PUSH1 0x60 SWAP2 POP JUMPDEST POP SWAP2 POP SWAP2 POP PUSH2 0x3FFF DUP3 DUP3 DUP7 PUSH2 0x400A JUMP JUMPDEST SWAP8 SWAP7 POP POP POP POP POP POP POP JUMP JUMPDEST PUSH1 0x60 DUP4 ISZERO PUSH2 0x4019 JUMPI POP DUP2 PUSH2 0x3EA7 JUMP JUMPDEST DUP3 MLOAD ISZERO PUSH2 0x4029 JUMPI DUP3 MLOAD DUP1 DUP5 PUSH1 0x20 ADD REVERT JUMPDEST DUP2 PUSH1 0x40 MLOAD PUSH3 0x461BCD PUSH1 0xE5 SHL DUP2 MSTORE PUSH1 0x4 ADD DUP1 DUP1 PUSH1 0x20 ADD DUP3 DUP2 SUB DUP3 MSTORE DUP4 DUP2 DUP2 MLOAD DUP2 MSTORE PUSH1 0x20 ADD SWAP2 POP DUP1 MLOAD SWAP1 PUSH1 0x20 ADD SWAP1 DUP1 DUP4 DUP4 PUSH1 0x0 JUMPDEST DUP4 DUP2 LT ISZERO PUSH2 0x4073 JUMPI DUP2 DUP2 ADD MLOAD DUP4 DUP3 ADD MSTORE PUSH1 0x20 ADD PUSH2 0x405B JUMP JUMPDEST POP POP POP POP SWAP1 POP SWAP1 DUP2 ADD SWAP1 PUSH1 0x1F AND DUP1 ISZERO PUSH2 0x40A0 JUMPI DUP1 DUP3 SUB DUP1 MLOAD PUSH1 0x1 DUP4 PUSH1 0x20 SUB PUSH2 0x100 EXP SUB NOT AND DUP2 MSTORE PUSH1 0x20 ADD SWAP2 POP JUMPDEST POP SWAP3 POP POP POP PUSH1 0x40 MLOAD DUP1 SWAP2 SUB SWAP1 REVERT JUMPDEST PUSH1 0x40 DUP1 MLOAD PUSH1 0xE0 DUP2 ADD DUP3 MSTORE PUSH1 0x0 DUP1 DUP3 MSTORE PUSH1 0x20 DUP3 ADD DUP2 SWAP1 MSTORE SWAP2 DUP2 ADD DUP3 SWAP1 MSTORE PUSH1 0x60 DUP2 ADD DUP3 SWAP1 MSTORE PUSH1 0x80 DUP2 ADD DUP3 SWAP1 MSTORE PUSH1 0xA0 DUP2 ADD DUP3 SWAP1 MSTORE PUSH1 0xC0 DUP2 ADD SWAP2 SWAP1 SWAP2 MSTORE SWAP1 JUMP INVALID GASLIMIT PUSH15 0x756D657261626C655365743A20696E PUSH5 0x6578206F75 PUSH21 0x206F6620626F756E6473416363657373436F6E7472 PUSH16 0x6C3A2073656E646572206D7573742062 PUSH6 0x20616E206164 PUSH14 0x696E20746F206772616E74526565 PUSH15 0x7472616E637947756172643A207265 PUSH6 0x6E7472616E74 KECCAK256 PUSH4 0x616C6C00 0x4F PUSH24 0x6E61626C653A206E6577206F776E65722069732074686520 PUSH27 0x65726F2061646472657373436F6C6C61746572616C20616D6F756E PUSH21 0x206973206C6F776572207468616E20746865206D61 PUSH25 0x696D756D20736C69707061676553504120616D6F756E742069 PUSH20 0x206D6F7265207468616E20746865206D6178696D PUSH22 0x6D20736C697070616765416D6F756E74206E65656473 KECCAK256 PUSH21 0x6F2062652067726561746572207468616E20304164 PUSH5 0x726573733A KECCAK256 PUSH10 0x6E73756666696369656E PUSH21 0x2062616C616E636520666F722063616C6C53504120 PUSH2 0x6D6F PUSH22 0x6E74206973206C6F776572207468616E20746865206D PUSH2 0x7869 PUSH14 0x756D20736C6970706167654D696E PUSH21 0x20262072656465656D207061757365640000000000 STOP STOP STOP STOP STOP STOP STOP COINBASE PUSH4 0x63657373 NUMBER PUSH16 0x6E74726F6C3A2073656E646572206D75 PUSH20 0x7420626520616E2061646D696E20746F20726576 PUSH16 0x6B65436F6C6C61746572616C73206465 PUSH4 0x696D616C PUSH20 0x206E65656420746F206265206C65737320746568 PUSH15 0x203138496E697469616C697A61626C PUSH6 0x3A20636F6E74 PUSH19 0x61637420697320616C726561647920696E6974 PUSH10 0x616C697A6564436F6C6C PUSH2 0x7465 PUSH19 0x616C20616D6F756E74206973206D6F72652074 PUSH9 0x616E20746865206D61 PUSH25 0x696D756D20736C697070616765536166654D6174683A206D75 PUSH13 0x7469706C69636174696F6E206F PUSH23 0x6572666C6F774F776E61626C653A2063616C6C65722069 PUSH20 0x206E6F7420746865206F776E6572555344732061 PUSH14 0x6F756E74206973206C6F77657220 PUSH21 0x68616E20746865206D6178696D756D20736C697070 PUSH2 0x6765 MSTORE8 PUSH2 0x6665 GASLIMIT MSTORE NUMBER ORIGIN ADDRESS GASPRICE KECCAK256 GASLIMIT MSTORE NUMBER ORIGIN ADDRESS KECCAK256 PUSH16 0x7065726174696F6E20646964206E6F74 KECCAK256 PUSH20 0x756363656564416363657373436F6E74726F6C3A KECCAK256 PUSH4 0x616E206F PUSH15 0x6C792072656E6F756E636520726F6C PUSH6 0x7320666F7220 PUSH20 0x656C66A26469706673582212208DCDB97FE9275E 0xB5 0x1F DIFFICULTY ADDMOD EXTCODECOPY 0xE4 DELEGATECALL 0xB9 AND 0xF8 0xDA 0xC1 0xBF SGT 0xFC 0xEF 0x49 PUSH18 0x8D3B2672D3E0D64736F6C634300060C0033 ",
  "sha1": "f5e67ed1b29fd56512e36425c754fa566b71a9ee",
  "source": "// SPDX-License-Identifier: MIT\npragma solidity >=0.6.12;\nimport \"@openzeppelin/contracts-upgradeable/access/AccessControlUpgradeable.sol\";\nimport \"@openzeppelin/contracts-upgradeable/access/OwnableUpgradeable.sol\";\nimport \"@openzeppelin/contracts-upgradeable/token/ERC20/SafeERC20Upgradeable.sol\";\nimport \"@openzeppelin/contracts-upgradeable/token/ERC20/ERC20Upgradeable.sol\";\nimport \"@openzeppelin/contracts-upgradeable/utils/ReentrancyGuardUpgradeable.sol\";\nimport \"../interfaces/ISperaxToken.sol\";\nimport \"../interfaces/IStrategy.sol\";\nimport \"../interfaces/IVaultCore.sol\";\nimport \"../interfaces/IUSDs.sol\";\nimport \"../interfaces/IBuyback.sol\";\nimport \"./VaultCoreTools.sol\";\n\ncontract VaultCore is Initializable, OwnableUpgradeable, AccessControlUpgradeable, ReentrancyGuardUpgradeable, IVaultCore {\n\tusing SafeERC20Upgradeable for IERC20Upgradeable;\n\tusing SafeMathUpgradeable for uint;\n\tusing StableMath for uint;\n\n\tbytes32 public constant REBASER_ROLE = keccak256(\"REBASER_ROLE\");\n\n\tbool public override mintRedeemAllowed;\n\tbool public override allocationAllowed;\n\tbool public override rebaseAllowed;\n\tbool public override swapfeeInAllowed;\n\tbool public override swapfeeOutAllowed;\n\taddress public SPAaddr;\n\taddress public USDsAddr;\n\taddress public override oracleAddr;\n\taddress public SPAvault;\n\taddress public feeVault;\n\taddress public vaultCoreToolsAddr;\n\tuint public override startBlockHeight;\n\tuint public SPAminted;\n\tuint public SPAburnt;\n\tuint32 public override chi_alpha;\n\tuint64 public override constant chi_alpha_prec = 10**12;\n\tuint64 public override constant chi_prec = chi_alpha_prec;\n\tuint public override chiInit;\n\tuint32 public override chi_beta;\n\tuint16 public override constant chi_beta_prec = 10**4;\n\tuint32 public override chi_gamma;\n\tuint16 public override constant chi_gamma_prec = 10**4;\n\tuint64 public override constant swapFee_prec = 10**12;\n\tuint32 public override swapFee_p;\n\tuint16 public override constant swapFee_p_prec = 10**4;\n\tuint32 public override swapFee_theta;\n\tuint16 public override constant swapFee_theta_prec = 10**4;\n\tuint32 public override swapFee_a;\n\tuint16 public override constant swapFee_a_prec = 10**4;\n\tuint32 public override swapFee_A;\n\tuint16 public override constant swapFee_A_prec = 10**4;\n\tuint8 public override constant allocatePrecentage_prec = 10**2;\n\n\tevent parametersUpdated(uint _chiInit, uint32 _chi_beta, uint32 _chi_gamma, uint32 _swapFee_p, uint32 _swapFee_theta, uint32 _swapFee_a, uint32 _swapFee_A);\n\tevent USDsMinted(address indexed wallet, uint indexed USDsAmt, uint collateralAmt, uint SPAsAmt, uint feeAmt);\n\tevent USDsRedeemed(address indexed wallet, uint indexed USDsAmt, uint collateralAmt, uint SPAsAmt, uint feeAmt);\n\tevent Rebase(uint indexed oldSupply, uint indexed newSupply);\n\tevent CollateralAdded(address indexed collateralAddr, bool addded, address defaultStrategyAddr, bool allocationAllowed, uint8 allocatePrecentage, address buyBackAddr, bool rebaseAllowed);\n\tevent CollateralChanged(address indexed collateralAddr, bool addded, address defaultStrategyAddr, bool allocationAllowed, uint8 allocatePrecentage, address buyBackAddr, bool rebaseAllowed);\n\tevent StrategyAdded(address strategyAddr, bool added);\n\tevent MintRedeemPermssionChanged(bool indexed permission);\n\tevent AllocationPermssionChanged(bool indexed permission);\n\tevent SwapFeeInOutPermissionChanged(bool indexed swapfeeInAllowed, bool indexed swapfeeOutAllowed);\n\tevent CollateralAllocated(address indexed collateralAddr, address indexed depositStrategyAddr, uint allocateAmount);\n\n\t/**\n\t * @dev check if USDs mint & redeem are both allowed\n\t */\n\tmodifier whenMintRedeemAllowed {\n\t\trequire(mintRedeemAllowed, \"Mint & redeem paused\");\n\t\t_;\n\t}\n\t/**\n\t * @dev check if re-investment of collaterals is allowed\n\t */\n\tmodifier whenAllocationAllowed {\n\t\trequire(allocationAllowed, \"Allocate paused\");\n\t\t_;\n\t}\n\t/**\n\t * @dev check if rebase is allowed\n\t */\n\tmodifier whenRebaseAllowed {\n\t\trequire(rebaseAllowed, \"Rebase paused\");\n\t\t_;\n\t}\n\n\tstruct collateralStruct {\n\t\taddress collateralAddr;\n\t\tbool added;\n\t\taddress defaultStrategyAddr;\n\t\tbool allocationAllowed;\n\t\tuint8 allocatePrecentage;\n\t\taddress buyBackAddr;\n\t\tbool rebaseAllowed;\n\t}\n\tstruct strategyStruct {\n\t\taddress strategyAddr;\n\t\tbool added;\n\t}\n\tmapping(address => collateralStruct) collateralsInfo;\n\tmapping(address => strategyStruct) strategiesInfo;\n\tcollateralStruct[] allCollaterals;\t// the list of all added collaterals\n\tstrategyStruct[] allStrategies;\t// the list of all strategy addresses\n\n\tfunction initialize(address _SPAaddr, address _vaultCoreToolsAddr, address _feeVault) public initializer {\n\t\tOwnableUpgradeable.__Ownable_init();\n\t\tAccessControlUpgradeable.__AccessControl_init();\n\t\tReentrancyGuardUpgradeable.__ReentrancyGuard_init();\n\t\tmintRedeemAllowed = true;\n\t\tswapfeeInAllowed = false;\n\t\tswapfeeOutAllowed = false;\n\t\tallocationAllowed = false;\n\t\tSPAaddr = _SPAaddr;\n\t\tvaultCoreToolsAddr = _vaultCoreToolsAddr;\n\t\tSPAvault = address(this);\n\t\tstartBlockHeight = block.number;\n\t\tchi_alpha = uint32(chi_alpha_prec * 158 / 10**10);\n\t\tchiInit = uint(chi_prec * 95 / 100);\n\t\tchi_beta = chi_beta_prec * 9;\n\t\tchi_gamma = chi_gamma_prec;\n\t\tswapFee_p = swapFee_p_prec * 99 / 100;\n\t\tswapFee_theta = swapFee_theta_prec * 50;\n\t\tswapFee_a = swapFee_a_prec * 12 / 10;\n\t\tswapFee_A = swapFee_A_prec * 20;\n\t\tfeeVault = _feeVault;\n\t\t_setupRole(DEFAULT_ADMIN_ROLE, msg.sender);\n\t}\n\n\t//for testing purpose\n\tfunction updateUSDsAddress(address _USDsAddr) external onlyOwner {\n\t\tUSDsAddr = _USDsAddr;\n\t}\n\n\tfunction updateOracleAddress(address _oracleAddr) external onlyOwner {\n\t\toracleAddr =  _oracleAddr;\n\t}\n\n\tfunction updateParameters(uint _chiInit, uint32 _chi_beta, uint32 _chi_gamma, uint32 _swapFee_p, uint32 _swapFee_theta, uint32 _swapFee_a, uint32 _swapFee_A) external onlyOwner {\n\t\tchiInit = _chiInit;\n\t\tchi_beta = _chi_beta;\n\t\tchi_gamma = _chi_gamma;\n\t\tswapFee_p = _swapFee_p;\n\t\tswapFee_theta = _swapFee_theta;\n\t\tswapFee_a = _swapFee_a;\n\t\tswapFee_A = _swapFee_A;\n\t\temit parametersUpdated(chiInit, chi_beta, chi_gamma, swapFee_p, swapFee_theta, swapFee_a, swapFee_A);\n\t}\n\n\t/**\n\t * @dev disable USDs mint & redeem\n\t */\n\tfunction updateMintBurnPermission(bool _mintRedeemAllowed) external onlyOwner {\n\t\tmintRedeemAllowed = _mintRedeemAllowed;\n\t\temit MintRedeemPermssionChanged(mintRedeemAllowed);\n\t}\n\t/**\n\t * @dev disable collateral re-investment\n\t */\n\tfunction updateAllocationPermission(bool _allocationAllowed) external onlyOwner {\n\t\tallocationAllowed = _allocationAllowed;\n\t\temit AllocationPermssionChanged(allocationAllowed);\n\t}\n\t/**\n\t * @dev disable swapInFee, i.e. mint becomes free\n\t */\n\tfunction updateSwapInOutFeePermission(bool _swapfeeInAllowed, bool _swapfeeOutAllowed) external onlyOwner {\n\t\tswapfeeInAllowed = _swapfeeInAllowed;\n\t\tswapfeeOutAllowed = _swapfeeOutAllowed;\n\t\temit SwapFeeInOutPermissionChanged(swapfeeInAllowed, swapfeeOutAllowed);\n\t}\n\n\tfunction addCollateral(address _collateralAddr, address _defaultStrategyAddr, bool _allocationAllowed, uint8 _allocatePercentage, address _buyBackAddr, bool _rebaseAllowed) external onlyOwner {\n\t\trequire(!collateralsInfo[_collateralAddr].added, \"Collateral added\");\n\t\trequire(ERC20Upgradeable(_collateralAddr).decimals() <= 18, \"Collaterals decimals need to be less tehn 18\");\n\t\tcollateralStruct storage addingCollateral = collateralsInfo[_collateralAddr];\n\t\taddingCollateral.collateralAddr = _collateralAddr;\n\t\taddingCollateral.added = true;\n\t\taddingCollateral.defaultStrategyAddr = _defaultStrategyAddr;\n\t\taddingCollateral.allocationAllowed = _allocationAllowed;\n\t\taddingCollateral.buyBackAddr = _buyBackAddr;\n\t\tallCollaterals.push(addingCollateral);\n\t\temit CollateralAdded(_collateralAddr, addingCollateral.added, _defaultStrategyAddr, _allocationAllowed, _allocatePercentage, _buyBackAddr, _rebaseAllowed);\n\t}\n\n\tfunction updateCollateralInfo(address _collateralAddr, address _defaultStrategyAddr, bool _allocationAllowed, uint8 _allocatePercentage, address _buyBackAddr, bool _rebaseAllowed) external onlyOwner {\n\t\trequire(collateralsInfo[_collateralAddr].added, \"Collateral not added\");\n\t\tcollateralStruct storage updatedCollateral = collateralsInfo[_collateralAddr];\n\t\tupdatedCollateral.collateralAddr = _collateralAddr;\n\t\tupdatedCollateral.defaultStrategyAddr = _defaultStrategyAddr;\n\t\tupdatedCollateral.allocationAllowed = _allocationAllowed;\n\t\tupdatedCollateral.buyBackAddr = _buyBackAddr;\n\t\temit CollateralChanged(_collateralAddr, updatedCollateral.added, _defaultStrategyAddr, _allocationAllowed, _allocatePercentage, _buyBackAddr, _rebaseAllowed);\n\t}\n\n\tfunction addStrategy(address _strategyAddr) external onlyOwner {\n\t\trequire(!strategiesInfo[_strategyAddr].added, \"Strategy added\");\n\t\tstrategyStruct storage addingStrategy = strategiesInfo[_strategyAddr];\n\t\taddingStrategy.strategyAddr = _strategyAddr;\n\t\taddingStrategy.added = true;\n\t\tallStrategies.push(addingStrategy);\n\t\temit StrategyAdded(_strategyAddr, true);\n\t}\n\n\t/**\n\t * @dev mint USDs by entering USDs amount\n\t * @param collateralAddr the address of user's chosen collateral\n\t * @param USDsMintAmt the amount of USDs to be minted\n\t */\n\tfunction mintWithUSDs(address collateralAddr, uint USDsMintAmt, uint slippageCollateral, uint slippageSPA, uint deadline)\n\t\tpublic\n\t\twhenMintRedeemAllowed\n\t\tnonReentrant\n\t{\n\t\trequire(collateralsInfo[collateralAddr].added, \"Collateral not added\");\n\t\trequire(USDsMintAmt > 0, \"Amount needs to be greater than 0\");\n\t\t_mint(collateralAddr, USDsMintAmt, 0, USDsMintAmt, slippageCollateral, slippageSPA, deadline);\n\t}\n\n\t/**\n\t * @dev mint USDs by entering SPA amount\n\t * @param collateralAddr the address of user's chosen collateral\n\t * @param SPAamt the amount of SPA to burn\n\t */\n\n\tfunction mintWithSPA(address collateralAddr, uint SPAamt, uint slippageUSDs, uint slippageCollateral, uint deadline)\n\t\tpublic\n\t\twhenMintRedeemAllowed\n\t\tnonReentrant\n\t{\n\t\trequire(collateralsInfo[collateralAddr].added, \"Collateral not added\");\n\t\trequire(SPAamt > 0, \"Amount needs to be greater than 0\");\n\t\t_mint(collateralAddr, SPAamt, 1, slippageUSDs, slippageCollateral, SPAamt, deadline);\n\t}\n\n\t/**\n\t * @dev mint USDs by entering collateral amount (excluding ETH)\n\t * @param collateralAddr the address of user's chosen collateral\n\t * @param collateralAmt the amount of collateral to stake\n\t */\n\tfunction mintWithColla(address collateralAddr, uint collateralAmt, uint slippageUSDs, uint slippageSPA, uint deadline)\n\t\tpublic\n\t\twhenMintRedeemAllowed\n\t\tnonReentrant\n\t{\n\t\trequire(collateralsInfo[collateralAddr].added, \"Collateral not added\");\n\t\trequire(collateralAmt > 0, \"Amount needs to be greater than 0\");\n\t\t_mint(collateralAddr, collateralAmt, 2, slippageUSDs, collateralAmt, slippageSPA, deadline);\n\t}\n\n\t/**\n\t * @dev mint USDs by ETH\n\t * note: this function needs changes when USDs is deployed on other blockchain platform\n\t */\n\tfunction mintWithEth(uint slippageUSDs, uint slippageSPA, uint deadline) public payable whenMintRedeemAllowed nonReentrant {\n\t\trequire(msg.value > 0, \"Need to pay Ether\");\n\t\t_mint(address(0), msg.value, 3, slippageUSDs, msg.value, slippageSPA, deadline);\n\t}\n\n\n\t/**\n\t * @dev the generic, internal mint function\n\t * @param collateralAddr the address of the collateral\n\t * @param valueAmt the amount of tokens (the specific meaning depends on valueType)\n\t * @param valueType the type of tokens (specific meanings are listed lower)\n\t *\t\tvalueType = 0: mintWithUSDs\n\t *\t\tvalueType = 1: mintWithSPA\n\t *\t\tvalueType = 2: mintWithColla\n\t *\t\tvalueType = 3: mintWithETH\n\t */\n\tfunction _mint(\n\t\taddress collateralAddr,\n\t\tuint valueAmt,\n\t\tuint8 valueType,\n\t\tuint slippageUSDs,\n\t\tuint slippageCollat,\n\t\tuint slippageSPA,\n\t\tuint deadline\n\t) internal whenMintRedeemAllowed {\n\t\t// calculate all necessary related quantities based on user inputs\n\t\t(uint SPABurnAmt, uint collateralDepAmt, uint USDsAmt, uint swapFeeAmount) = VaultCoreTools(vaultCoreToolsAddr).mintView(collateralAddr, valueAmt, valueType, address(this));\n\n\t\t// slippageUSDs is the minimum value of the minted USDs\n\t\t// slippageCollat is the maximum value of the required collateral\n\t\t// slippageSPA is the maximum value of the required spa\n\t\trequire(USDsAmt >= slippageUSDs, \"USDs amount is lower than the maximum slippage\");\n\t\trequire(collateralDepAmt <= slippageCollat, \"Collateral amount is more than the maximum slippage\");\n\t\trequire(SPABurnAmt <= slippageSPA, \"SPA amount is more than the maximum slippage\");\n\t\trequire(block.timestamp <= deadline, \"Deadline expired\");\n\n\t\t// burn SPA tokens\n\t\tISperaxToken(SPAaddr).burnFrom(msg.sender, SPABurnAmt);\n\t\tSPAburnt = SPAburnt.add(SPABurnAmt);\n\t\t// if it it not mintWithETH, stake collaterals\n\t\tif (valueType != 3) {\n\t\t\tIERC20Upgradeable(collateralAddr).safeTransferFrom(msg.sender, address(this), collateralDepAmt);\n\t\t}\n\t\t// mint USDs and collect swapIn fees\n\t\tIUSDs(USDsAddr).mint(msg.sender, USDsAmt);\n\t\tIUSDs(USDsAddr).mint(feeVault, swapFeeAmount);\n\t\temit USDsMinted(msg.sender, USDsAmt, collateralDepAmt, SPABurnAmt, swapFeeAmount);\n\t}\n\n\t/**\n\t *\n\t */\n\tfunction redeem(address collateralAddr, uint USDsAmt, uint slippageCollat, uint slippageSPA, uint deadline)\n\t\tpublic\n\t\twhenMintRedeemAllowed\n\t\tnonReentrant\n\t{\n\t\trequire(collateralsInfo[collateralAddr].added, \"Collateral not added\");\n\t\trequire(USDsAmt > 0, \"Amount needs to be greater than 0\");\n\t\t_redeem(collateralAddr, USDsAmt, slippageCollat, slippageSPA, deadline);\n\t}\n\n\t/**\n\t *\n\t */\n\tfunction redeemWithEth(uint USDsAmt, uint slippageEth, uint slippageSPA, uint deadline)\n\t\tpublic\n\t\twhenMintRedeemAllowed\n\t\tnonReentrant\n\t{\n\t\trequire(USDsAmt > 0, \"Amount needs to be greater than 0\");\n\t\t_redeem(address(0), USDsAmt, slippageEth, slippageSPA, deadline);\n\t}\n\n\tfunction _redeem(\n\t\taddress collateralAddr,\n\t\tuint USDsAmt,\n\t\tuint slippageCollat,\n\t\tuint slippageSPA,\n\t\tuint deadline\n\t) internal whenMintRedeemAllowed {\n\t\t(uint SPAMintAmt, uint collateralUnlockedAmt, uint USDsBurntAmt, uint swapFeeAmount) = VaultCoreTools(vaultCoreToolsAddr).redeemView(collateralAddr, USDsAmt, address(this), oracleAddr);\n\t\t// slippageCollat is the minimum value of the unlocked collateral\n\t\t// slippageSPA is the minimum value of the minted spa\n\t\trequire(collateralUnlockedAmt >= slippageCollat, \"Collateral amount is lower than the maximum slippage\");\n\t\trequire(SPAMintAmt >= slippageSPA, \"SPA amount is lower than the maximum slippage\");\n\t\trequire(block.timestamp <= deadline, \"Deadline expired\");\n\n\t\tISperaxToken(SPAaddr).mintForUSDs(msg.sender, SPAMintAmt);\n\t\tSPAminted = SPAminted.add(SPAMintAmt);\n\n\t\tif (collateralAddr == address(0)) {\n\t\t\t(bool sent, ) = msg.sender.call{value: collateralUnlockedAmt}(\"\");\n\t\t\trequire(sent, \"Failed to send Ether\");\n\t\t} else {\n\t\t\tIERC20Upgradeable(collateralAddr).safeTransfer(msg.sender, collateralUnlockedAmt);\n\t\t}\n\t\tIUSDs(USDsAddr).burn(msg.sender, USDsBurntAmt);\n\t\tIERC20Upgradeable(USDsAddr).safeTransferFrom(msg.sender, feeVault, swapFeeAmount);\n\n\t\temit USDsRedeemed(msg.sender, USDsBurntAmt, collateralUnlockedAmt,SPAMintAmt, swapFeeAmount);\n\t}\n\n\t// function rebase() external whenRebaseAllowed nonReentrant {\n\t// \trequire(hasRole(REBASER_ROLE, msg.sender), \"Caller is not a burner\");\n\t// \tuint USDsIncrement = _harvest();\n\t// \tuint USDsNewSupply = IERC20Upgradeable(USDsAddr).totalSupply().add(USDsIncrement);\n\t// \tIUSDs(USDsAddr).burn(address(this), USDsIncrement);\n\t// \tIUSDs(USDsAddr).changeSupply(USDsNewSupply);\n\t// \temit Rebase(IERC20Upgradeable(USDsAddr).totalSupply(), USDsNewSupply);\n\t// }\n\t//\n\t// function _harvest() internal returns (uint USDsIncrement) {\n\t// \tIStrategy strategy;\n\t// \tcollateralStruct memory collateral;\n\t// \tfor (uint y = 0; y < allCollaterals.length; y++) {\n\t// \t\tcollateral = allCollaterals[y];\n\t// \t\tstrategy = IStrategy(collateral.defaultStrategyAddr);\n\t// \t\tif (strategy.supportsCollateral(collateral.collateralAddr) && collateral.rebaseAllowed) {\n\t// \t\t\tuint interestEarned = strategy.checkInterestEarned(collateral.collateralAddr);\n\t// \t\t\tif (interestEarned > 0) {\n\t// \t\t\t\tstrategy.withdraw(address(this), collateral.collateralAddr, interestEarned);\n\t// \t\t\t\tuint USDsReceived = IBuyback(collateral.buyBackAddr).swap(interestEarned);\n\t// \t\t\t\tIUSDs(USDsAddr).burn(address(this), USDsReceived);\n\t// \t\t\t\tUSDsIncrement = USDsIncrement.add(USDsReceived);\n\t// \t\t\t}\n\t// \t\t}\n\t// \t}\n\t// }\n\n\t// /**\n\t// * @notice Allocate unallocated funds on Vault to strategies.\n\t// * @dev Allocate unallocated funds on Vault to strategies.\n\t// **/\n\t// function allocate() external whenAllocationAllowed nonReentrant {\n\t// \tIStrategy strategy;\n\t// \tcollateralStruct memory collateral;\n\t// \tfor (uint y = 0; y < allCollaterals.length; y++) {\n\t// \t\tcollateral = allCollaterals[y];\n\t// \t\tstrategy = IStrategy(collateral.defaultStrategyAddr);\n\t// \t\tif (collateral.allocationAllowed && collateral.defaultStrategyAddr != address(0) && strategy.supportsCollateral(collateral.collateralAddr)) {\n\t// \t\t\tuint valueInStrategy = _valueInStrategy(collateral.collateralAddr);\n\t// \t\t\tuint valueInVault = _valueInVault(collateral.collateralAddr);\n\t// \t\t\tuint valueInStrategy_optimal = valueInStrategy.add(valueInVault).mul(collateral.allocatePrecentage).div(allocatePrecentage_prec);\n\t// \t\t\tif (valueInStrategy_optimal < valueInStrategy) {\n\t// \t\t\t\tuint amtToAllocate = valueInStrategy.sub(valueInStrategy_optimal);\n\t// \t\t\t\tstrategy.deposit(collateral.collateralAddr, amtToAllocate);\n\t// \t\t\t\temit CollateralAllocated(collateral.collateralAddr, collateral.defaultStrategyAddr, amtToAllocate);\n\t// \t\t\t}\n\t// \t\t}\n\t// \t}\n\t// }\n\n\tfunction collateralRatio() public view override returns (uint ratio) {\n\t\tuint totalValueLocked = totalValueLocked();\n\t\tuint USDsSupply = IERC20Upgradeable(USDsAddr).totalSupply();\n\t\tuint priceUSDs = uint(IOracle(oracleAddr).getUSDsPrice());\n\t\tuint precisionUSDs = IOracle(oracleAddr).getUSDsPrice_prec();\n\t\tuint USDsValue = USDsSupply.mul(priceUSDs).div(precisionUSDs);\n\t\tratio = totalValueLocked.mul(chi_prec).div(USDsValue);\n\t}\n\n\tfunction totalValueLocked() public view returns (uint value) {\n\t\t//value = totalValueInVault().add(totalValueInStrategies());\n\t\tvalue = totalValueInVault();\n\t}\n\n\tfunction totalValueInVault() public view returns (uint value) {\n\t\tfor (uint y = 0; y < allCollaterals.length; y++) {\n\t\t\tcollateralStruct memory collateral = allCollaterals[y];\n\t\t\tvalue = value.add(_valueInVault(collateral.collateralAddr));\n\t\t}\n\t}\n\n\tfunction _valueInVault(address _collateralAddr) internal view returns (uint value) {\n\t\tcollateralStruct memory collateral = collateralsInfo[_collateralAddr];\n\t\tuint priceColla = IOracle(oracleAddr).getCollateralPrice(collateral.collateralAddr);\n\t\tuint precisionColla = IOracle(oracleAddr).getCollateralPrice_prec(collateral.collateralAddr);\n\t\tuint collateralAddrDecimal = uint(ERC20Upgradeable(collateral.collateralAddr).decimals());\n\t\tuint collateralTotalValueInVault = IERC20Upgradeable(collateral.collateralAddr).balanceOf(address(this)).mul(priceColla).div(precisionColla);\n\t\tuint collateralTotalValueInVault_18 = collateralTotalValueInVault.mul(10**(uint(18).sub(collateralAddrDecimal)));\n\t\tvalue = collateralTotalValueInVault_18;\n\t}\n\n\t// function totalValueInStrategies() public view returns (uint value) {\n\t// \tfor (uint y = 0; y < allCollaterals.length; y++) {\n\t// \t\tcollateralStruct memory collateral = allCollaterals[y];\n\t// \t\tvalue = value.add(_valueInStrategy(collateral.collateralAddr));\n\t// \t}\n\t// }\n\t//\n\t// function _valueInStrategy(address _collateralAddr) internal view returns (uint value) {\n\t// \tcollateralStruct memory collateral = collateralsInfo[_collateralAddr];\n\t// \tIStrategy strategy = IStrategy(collateral.defaultStrategyAddr);\n\t// \tuint priceColla = IOracle(oracleAddr).getCollateralPrice(collateral.collateralAddr);\n\t// \tuint precisionColla = IOracle(oracleAddr).getCollateralPrice_prec(collateral.collateralAddr);\n\t// \tuint collateralAddrDecimal = uint(ERC20Upgradeable(collateral.collateralAddr).decimals());\n\t// \tuint collateralTotalValueInStrategy = strategy.checkBalance(collateral.collateralAddr).mul(priceColla).div(precisionColla);\n\t// \tuint collateralTotalValueInStrategy_18 = collateralTotalValueInStrategy.mul(10**(uint(18).sub(collateralAddrDecimal)));\n\t// \tvalue = collateralTotalValueInStrategy_18;\n\t// \tif (!strategy.supportsCollateral(collateral.collateralAddr)) {\n\t// \t\tvalue = 0;\n\t// \t}\n\t// }\n}\n",
  "sourcePath": "contracts/vault/VaultCore.sol",
  "type": "contract"
}