{
  "contractName": "VaultCore",
  "abi": [
    {
      "anonymous": false,
      "inputs": [
        {
          "indexed": true,
          "internalType": "bool",
          "name": "permission",
          "type": "bool"
        }
      ],
      "name": "AllocationPermssionChanged",
      "type": "event"
    },
    {
      "anonymous": false,
      "inputs": [
        {
          "indexed": true,
          "internalType": "address",
          "name": "collateralAddr",
          "type": "address"
        },
        {
          "indexed": false,
          "internalType": "bool",
          "name": "supported",
          "type": "bool"
        },
        {
          "indexed": false,
          "internalType": "address",
          "name": "defaultStrategyAddr",
          "type": "address"
        },
        {
          "indexed": false,
          "internalType": "bool",
          "name": "allocationAllowed",
          "type": "bool"
        },
        {
          "indexed": false,
          "internalType": "address",
          "name": "buyBackAddr",
          "type": "address"
        },
        {
          "indexed": false,
          "internalType": "bool",
          "name": "rebaseAllowed",
          "type": "bool"
        }
      ],
      "name": "CollateralInfoChanged",
      "type": "event"
    },
    {
      "anonymous": false,
      "inputs": [
        {
          "indexed": true,
          "internalType": "bool",
          "name": "permission",
          "type": "bool"
        }
      ],
      "name": "MintRedeemPermssionChanged",
      "type": "event"
    },
    {
      "anonymous": false,
      "inputs": [
        {
          "indexed": true,
          "internalType": "address",
          "name": "previousOwner",
          "type": "address"
        },
        {
          "indexed": true,
          "internalType": "address",
          "name": "newOwner",
          "type": "address"
        }
      ],
      "name": "OwnershipTransferred",
      "type": "event"
    },
    {
      "anonymous": false,
      "inputs": [
        {
          "indexed": true,
          "internalType": "uint256",
          "name": "oldSupply",
          "type": "uint256"
        },
        {
          "indexed": true,
          "internalType": "uint256",
          "name": "newSupply",
          "type": "uint256"
        }
      ],
      "name": "Rebase",
      "type": "event"
    },
    {
      "anonymous": false,
      "inputs": [
        {
          "indexed": false,
          "internalType": "address",
          "name": "strategyAddr",
          "type": "address"
        },
        {
          "indexed": false,
          "internalType": "bool",
          "name": "enabled",
          "type": "bool"
        }
      ],
      "name": "StrategyInfoChanged",
      "type": "event"
    },
    {
      "anonymous": false,
      "inputs": [
        {
          "indexed": true,
          "internalType": "bool",
          "name": "swapfeeInAllowed",
          "type": "bool"
        },
        {
          "indexed": true,
          "internalType": "bool",
          "name": "swapfeeOutAllowed",
          "type": "bool"
        }
      ],
      "name": "SwapFeeInOutPermissionChanged",
      "type": "event"
    },
    {
      "anonymous": false,
      "inputs": [
        {
          "indexed": true,
          "internalType": "address",
          "name": "wallet",
          "type": "address"
        },
        {
          "indexed": true,
          "internalType": "uint256",
          "name": "USDsAmt",
          "type": "uint256"
        },
        {
          "indexed": false,
          "internalType": "uint256",
          "name": "collateralAmt",
          "type": "uint256"
        },
        {
          "indexed": false,
          "internalType": "uint256",
          "name": "SPAsAmt",
          "type": "uint256"
        },
        {
          "indexed": false,
          "internalType": "uint256",
          "name": "feeAmt",
          "type": "uint256"
        }
      ],
      "name": "USDsMinted",
      "type": "event"
    },
    {
      "anonymous": false,
      "inputs": [
        {
          "indexed": true,
          "internalType": "address",
          "name": "wallet",
          "type": "address"
        },
        {
          "indexed": true,
          "internalType": "uint256",
          "name": "USDsAmt",
          "type": "uint256"
        },
        {
          "indexed": false,
          "internalType": "uint256",
          "name": "collateralAmt",
          "type": "uint256"
        },
        {
          "indexed": false,
          "internalType": "uint256",
          "name": "SPAsAmt",
          "type": "uint256"
        },
        {
          "indexed": false,
          "internalType": "uint256",
          "name": "feeAmt",
          "type": "uint256"
        }
      ],
      "name": "USDsRedeemed",
      "type": "event"
    },
    {
      "anonymous": false,
      "inputs": [
        {
          "indexed": false,
          "internalType": "uint64",
          "name": "_chiInit",
          "type": "uint64"
        },
        {
          "indexed": false,
          "internalType": "uint32",
          "name": "_chi_beta",
          "type": "uint32"
        },
        {
          "indexed": false,
          "internalType": "uint32",
          "name": "_chi_gamma",
          "type": "uint32"
        },
        {
          "indexed": false,
          "internalType": "uint32",
          "name": "_swapFee_p",
          "type": "uint32"
        },
        {
          "indexed": false,
          "internalType": "uint32",
          "name": "_swapFee_theta",
          "type": "uint32"
        },
        {
          "indexed": false,
          "internalType": "uint32",
          "name": "_swapFee_a",
          "type": "uint32"
        },
        {
          "indexed": false,
          "internalType": "uint32",
          "name": "_swapFee_A",
          "type": "uint32"
        },
        {
          "indexed": false,
          "internalType": "uint32",
          "name": "_allocatePrecentage",
          "type": "uint32"
        }
      ],
      "name": "parametersUpdated",
      "type": "event"
    },
    {
      "inputs": [],
      "name": "BancorInstance",
      "outputs": [
        {
          "internalType": "contract BancorFormula",
          "name": "",
          "type": "address"
        }
      ],
      "stateMutability": "view",
      "type": "function"
    },
    {
      "inputs": [],
      "name": "SPAaddr",
      "outputs": [
        {
          "internalType": "address",
          "name": "",
          "type": "address"
        }
      ],
      "stateMutability": "view",
      "type": "function"
    },
    {
      "inputs": [],
      "name": "SPAburnt",
      "outputs": [
        {
          "internalType": "uint256",
          "name": "",
          "type": "uint256"
        }
      ],
      "stateMutability": "view",
      "type": "function"
    },
    {
      "inputs": [],
      "name": "SPAminted",
      "outputs": [
        {
          "internalType": "uint256",
          "name": "",
          "type": "uint256"
        }
      ],
      "stateMutability": "view",
      "type": "function"
    },
    {
      "inputs": [],
      "name": "SPAvault",
      "outputs": [
        {
          "internalType": "address",
          "name": "",
          "type": "address"
        }
      ],
      "stateMutability": "view",
      "type": "function"
    },
    {
      "inputs": [],
      "name": "allocatePrecentage",
      "outputs": [
        {
          "internalType": "uint32",
          "name": "",
          "type": "uint32"
        }
      ],
      "stateMutability": "view",
      "type": "function"
    },
    {
      "inputs": [],
      "name": "allocatePrecentage_prec",
      "outputs": [
        {
          "internalType": "uint16",
          "name": "",
          "type": "uint16"
        }
      ],
      "stateMutability": "view",
      "type": "function"
    },
    {
      "inputs": [],
      "name": "allocationAllowed",
      "outputs": [
        {
          "internalType": "bool",
          "name": "",
          "type": "bool"
        }
      ],
      "stateMutability": "view",
      "type": "function"
    },
    {
      "inputs": [],
      "name": "chiInit",
      "outputs": [
        {
          "internalType": "uint64",
          "name": "",
          "type": "uint64"
        }
      ],
      "stateMutability": "view",
      "type": "function"
    },
    {
      "inputs": [],
      "name": "chi_alpha",
      "outputs": [
        {
          "internalType": "uint32",
          "name": "",
          "type": "uint32"
        }
      ],
      "stateMutability": "view",
      "type": "function"
    },
    {
      "inputs": [],
      "name": "chi_alpha_prec",
      "outputs": [
        {
          "internalType": "uint64",
          "name": "",
          "type": "uint64"
        }
      ],
      "stateMutability": "view",
      "type": "function"
    },
    {
      "inputs": [],
      "name": "chi_beta",
      "outputs": [
        {
          "internalType": "uint32",
          "name": "",
          "type": "uint32"
        }
      ],
      "stateMutability": "view",
      "type": "function"
    },
    {
      "inputs": [],
      "name": "chi_beta_prec",
      "outputs": [
        {
          "internalType": "uint16",
          "name": "",
          "type": "uint16"
        }
      ],
      "stateMutability": "view",
      "type": "function"
    },
    {
      "inputs": [],
      "name": "chi_gamma",
      "outputs": [
        {
          "internalType": "uint32",
          "name": "",
          "type": "uint32"
        }
      ],
      "stateMutability": "view",
      "type": "function"
    },
    {
      "inputs": [],
      "name": "chi_gamma_prec",
      "outputs": [
        {
          "internalType": "uint16",
          "name": "",
          "type": "uint16"
        }
      ],
      "stateMutability": "view",
      "type": "function"
    },
    {
      "inputs": [],
      "name": "chi_prec",
      "outputs": [
        {
          "internalType": "uint64",
          "name": "",
          "type": "uint64"
        }
      ],
      "stateMutability": "view",
      "type": "function"
    },
    {
      "inputs": [],
      "name": "mintRedeemAllowed",
      "outputs": [
        {
          "internalType": "bool",
          "name": "",
          "type": "bool"
        }
      ],
      "stateMutability": "view",
      "type": "function"
    },
    {
      "inputs": [],
      "name": "oracleAddr",
      "outputs": [
        {
          "internalType": "address",
          "name": "",
          "type": "address"
        }
      ],
      "stateMutability": "view",
      "type": "function"
    },
    {
      "inputs": [],
      "name": "owner",
      "outputs": [
        {
          "internalType": "address",
          "name": "",
          "type": "address"
        }
      ],
      "stateMutability": "view",
      "type": "function"
    },
    {
      "inputs": [],
      "name": "rebaseAllowed",
      "outputs": [
        {
          "internalType": "bool",
          "name": "",
          "type": "bool"
        }
      ],
      "stateMutability": "view",
      "type": "function"
    },
    {
      "inputs": [],
      "name": "renounceOwnership",
      "outputs": [],
      "stateMutability": "nonpayable",
      "type": "function"
    },
    {
      "inputs": [],
      "name": "startBlockHeight",
      "outputs": [
        {
          "internalType": "uint256",
          "name": "",
          "type": "uint256"
        }
      ],
      "stateMutability": "view",
      "type": "function"
    },
    {
      "inputs": [
        {
          "internalType": "address",
          "name": "",
          "type": "address"
        }
      ],
      "name": "supportedCollateral",
      "outputs": [
        {
          "internalType": "uint256",
          "name": "",
          "type": "uint256"
        }
      ],
      "stateMutability": "view",
      "type": "function"
    },
    {
      "inputs": [],
      "name": "swapFee_A",
      "outputs": [
        {
          "internalType": "uint32",
          "name": "",
          "type": "uint32"
        }
      ],
      "stateMutability": "view",
      "type": "function"
    },
    {
      "inputs": [],
      "name": "swapFee_A_prec",
      "outputs": [
        {
          "internalType": "uint16",
          "name": "",
          "type": "uint16"
        }
      ],
      "stateMutability": "view",
      "type": "function"
    },
    {
      "inputs": [],
      "name": "swapFee_a",
      "outputs": [
        {
          "internalType": "uint32",
          "name": "",
          "type": "uint32"
        }
      ],
      "stateMutability": "view",
      "type": "function"
    },
    {
      "inputs": [],
      "name": "swapFee_a_prec",
      "outputs": [
        {
          "internalType": "uint16",
          "name": "",
          "type": "uint16"
        }
      ],
      "stateMutability": "view",
      "type": "function"
    },
    {
      "inputs": [],
      "name": "swapFee_p",
      "outputs": [
        {
          "internalType": "uint32",
          "name": "",
          "type": "uint32"
        }
      ],
      "stateMutability": "view",
      "type": "function"
    },
    {
      "inputs": [],
      "name": "swapFee_p_prec",
      "outputs": [
        {
          "internalType": "uint16",
          "name": "",
          "type": "uint16"
        }
      ],
      "stateMutability": "view",
      "type": "function"
    },
    {
      "inputs": [],
      "name": "swapFee_prec",
      "outputs": [
        {
          "internalType": "uint64",
          "name": "",
          "type": "uint64"
        }
      ],
      "stateMutability": "view",
      "type": "function"
    },
    {
      "inputs": [],
      "name": "swapFee_theta",
      "outputs": [
        {
          "internalType": "uint32",
          "name": "",
          "type": "uint32"
        }
      ],
      "stateMutability": "view",
      "type": "function"
    },
    {
      "inputs": [],
      "name": "swapFee_theta_prec",
      "outputs": [
        {
          "internalType": "uint16",
          "name": "",
          "type": "uint16"
        }
      ],
      "stateMutability": "view",
      "type": "function"
    },
    {
      "inputs": [],
      "name": "swapfeeInAllowed",
      "outputs": [
        {
          "internalType": "bool",
          "name": "",
          "type": "bool"
        }
      ],
      "stateMutability": "view",
      "type": "function"
    },
    {
      "inputs": [],
      "name": "swapfeeOutAllowed",
      "outputs": [
        {
          "internalType": "bool",
          "name": "",
          "type": "bool"
        }
      ],
      "stateMutability": "view",
      "type": "function"
    },
    {
      "inputs": [
        {
          "internalType": "address",
          "name": "newOwner",
          "type": "address"
        }
      ],
      "name": "transferOwnership",
      "outputs": [],
      "stateMutability": "nonpayable",
      "type": "function"
    },
    {
      "inputs": [],
      "name": "initialize",
      "outputs": [],
      "stateMutability": "nonpayable",
      "type": "function"
    },
    {
      "inputs": [
        {
          "internalType": "address",
          "name": "_USDsAddr",
          "type": "address"
        }
      ],
      "name": "updateUSDsAddress",
      "outputs": [],
      "stateMutability": "nonpayable",
      "type": "function"
    },
    {
      "inputs": [
        {
          "internalType": "address",
          "name": "_oracleAddr",
          "type": "address"
        }
      ],
      "name": "updateOracleAddress",
      "outputs": [],
      "stateMutability": "nonpayable",
      "type": "function"
    },
    {
      "inputs": [
        {
          "internalType": "uint64",
          "name": "_chiInit",
          "type": "uint64"
        },
        {
          "internalType": "uint32",
          "name": "_chi_beta",
          "type": "uint32"
        },
        {
          "internalType": "uint32",
          "name": "_chi_gamma",
          "type": "uint32"
        },
        {
          "internalType": "uint32",
          "name": "_swapFee_p",
          "type": "uint32"
        },
        {
          "internalType": "uint32",
          "name": "_swapFee_theta",
          "type": "uint32"
        },
        {
          "internalType": "uint32",
          "name": "_swapFee_a",
          "type": "uint32"
        },
        {
          "internalType": "uint32",
          "name": "_swapFee_A",
          "type": "uint32"
        },
        {
          "internalType": "uint32",
          "name": "_allocatePrecentage",
          "type": "uint32"
        }
      ],
      "name": "updateParameters",
      "outputs": [],
      "stateMutability": "nonpayable",
      "type": "function"
    },
    {
      "inputs": [
        {
          "internalType": "bool",
          "name": "_mintRedeemAllowed",
          "type": "bool"
        }
      ],
      "name": "updateMintBurnPermission",
      "outputs": [],
      "stateMutability": "nonpayable",
      "type": "function"
    },
    {
      "inputs": [
        {
          "internalType": "bool",
          "name": "_allocationAllowed",
          "type": "bool"
        }
      ],
      "name": "updateAllocationPermission",
      "outputs": [],
      "stateMutability": "nonpayable",
      "type": "function"
    },
    {
      "inputs": [
        {
          "internalType": "bool",
          "name": "_swapfeeInAllowed",
          "type": "bool"
        },
        {
          "internalType": "bool",
          "name": "_swapfeeOutAllowed",
          "type": "bool"
        }
      ],
      "name": "updateSwapInOutFeePermission",
      "outputs": [],
      "stateMutability": "nonpayable",
      "type": "function"
    },
    {
      "inputs": [
        {
          "internalType": "address",
          "name": "_collateralAddr",
          "type": "address"
        },
        {
          "internalType": "bool",
          "name": "_supported",
          "type": "bool"
        },
        {
          "internalType": "address",
          "name": "_defaultStrategyAddr",
          "type": "address"
        },
        {
          "internalType": "bool",
          "name": "_allocationAllowed",
          "type": "bool"
        },
        {
          "internalType": "address",
          "name": "_buyBackAddr",
          "type": "address"
        },
        {
          "internalType": "bool",
          "name": "_rebaseAllowed",
          "type": "bool"
        }
      ],
      "name": "updateCollateralInfo",
      "outputs": [],
      "stateMutability": "nonpayable",
      "type": "function"
    },
    {
      "inputs": [
        {
          "internalType": "address",
          "name": "_strategyAddr",
          "type": "address"
        },
        {
          "internalType": "bool",
          "name": "_enabled",
          "type": "bool"
        }
      ],
      "name": "updateStrategyInfo",
      "outputs": [],
      "stateMutability": "nonpayable",
      "type": "function"
    },
    {
      "inputs": [
        {
          "internalType": "address",
          "name": "collateralAddr",
          "type": "address"
        },
        {
          "internalType": "uint256",
          "name": "USDsMintAmt",
          "type": "uint256"
        },
        {
          "internalType": "uint256",
          "name": "slippageCollateral",
          "type": "uint256"
        },
        {
          "internalType": "uint256",
          "name": "slippageSPA",
          "type": "uint256"
        },
        {
          "internalType": "uint256",
          "name": "deadline",
          "type": "uint256"
        }
      ],
      "name": "mintWithUSDs",
      "outputs": [],
      "stateMutability": "nonpayable",
      "type": "function"
    },
    {
      "inputs": [
        {
          "internalType": "address",
          "name": "collateralAddr",
          "type": "address"
        },
        {
          "internalType": "uint256",
          "name": "SPAamt",
          "type": "uint256"
        },
        {
          "internalType": "uint256",
          "name": "slippageUSDs",
          "type": "uint256"
        },
        {
          "internalType": "uint256",
          "name": "slippageCollateral",
          "type": "uint256"
        },
        {
          "internalType": "uint256",
          "name": "deadline",
          "type": "uint256"
        }
      ],
      "name": "mintWithSPA",
      "outputs": [],
      "stateMutability": "nonpayable",
      "type": "function"
    },
    {
      "inputs": [
        {
          "internalType": "address",
          "name": "collateralAddr",
          "type": "address"
        },
        {
          "internalType": "uint256",
          "name": "collateralAmt",
          "type": "uint256"
        },
        {
          "internalType": "uint256",
          "name": "slippageUSDs",
          "type": "uint256"
        },
        {
          "internalType": "uint256",
          "name": "slippageSPA",
          "type": "uint256"
        },
        {
          "internalType": "uint256",
          "name": "deadline",
          "type": "uint256"
        }
      ],
      "name": "mintWithColla",
      "outputs": [],
      "stateMutability": "nonpayable",
      "type": "function"
    },
    {
      "inputs": [
        {
          "internalType": "uint256",
          "name": "slippageUSDs",
          "type": "uint256"
        },
        {
          "internalType": "uint256",
          "name": "slippageSPA",
          "type": "uint256"
        },
        {
          "internalType": "uint256",
          "name": "deadline",
          "type": "uint256"
        }
      ],
      "name": "mintWithEth",
      "outputs": [],
      "stateMutability": "payable",
      "type": "function"
    },
    {
      "inputs": [
        {
          "internalType": "address",
          "name": "collateralAddr",
          "type": "address"
        },
        {
          "internalType": "uint256",
          "name": "USDsAmt",
          "type": "uint256"
        },
        {
          "internalType": "uint256",
          "name": "slippageCollat",
          "type": "uint256"
        },
        {
          "internalType": "uint256",
          "name": "slippageSPA",
          "type": "uint256"
        },
        {
          "internalType": "uint256",
          "name": "deadline",
          "type": "uint256"
        }
      ],
      "name": "redeem",
      "outputs": [],
      "stateMutability": "nonpayable",
      "type": "function"
    },
    {
      "inputs": [
        {
          "internalType": "uint256",
          "name": "USDsAmt",
          "type": "uint256"
        },
        {
          "internalType": "uint256",
          "name": "slippageEth",
          "type": "uint256"
        },
        {
          "internalType": "uint256",
          "name": "slippageSPA",
          "type": "uint256"
        },
        {
          "internalType": "uint256",
          "name": "deadline",
          "type": "uint256"
        }
      ],
      "name": "redeemWithEth",
      "outputs": [],
      "stateMutability": "nonpayable",
      "type": "function"
    },
    {
      "inputs": [],
      "name": "rebase",
      "outputs": [],
      "stateMutability": "nonpayable",
      "type": "function"
    },
    {
      "inputs": [],
      "name": "collateralRatio",
      "outputs": [
        {
          "internalType": "uint256",
          "name": "ratio",
          "type": "uint256"
        }
      ],
      "stateMutability": "view",
      "type": "function"
    },
    {
      "inputs": [],
      "name": "totalValueLocked",
      "outputs": [
        {
          "internalType": "uint256",
          "name": "value",
          "type": "uint256"
        }
      ],
      "stateMutability": "view",
      "type": "function"
    },
    {
      "inputs": [],
      "name": "totalValueInVault",
      "outputs": [
        {
          "internalType": "uint256",
          "name": "value",
          "type": "uint256"
        }
      ],
      "stateMutability": "view",
      "type": "function"
    },
    {
      "inputs": [],
      "name": "totalValueInStrategies",
      "outputs": [
        {
          "internalType": "uint256",
          "name": "value",
          "type": "uint256"
        }
      ],
      "stateMutability": "view",
      "type": "function"
    },
    {
      "inputs": [],
      "name": "allocateAll",
      "outputs": [],
      "stateMutability": "nonpayable",
      "type": "function"
    },
    {
      "inputs": [
        {
          "internalType": "address",
          "name": "_collateralAddr",
          "type": "address"
        },
        {
          "internalType": "uint256",
          "name": "amtToAllocate",
          "type": "uint256"
        }
      ],
      "name": "allocate",
      "outputs": [],
      "stateMutability": "nonpayable",
      "type": "function"
    }
  ],
  "bytecode": "0x608060405234801561001057600080fd5b506142fe806100206000396000f3fe6080604052600436106103765760003560e01c80638129fc1c116101d1578063b78b52df11610102578063ec18154e116100a0578063fa550eba1161006f578063fa550eba14610a3e578063faeddc9014610a71578063fc9dc4ff14610a86578063fcf4535214610a9b57610376565b8063ec18154e146109ae578063edbbdb97146109c3578063f2fde38b146109d8578063f7023bb614610a0b57610376565b8063c6d15e1b116100dc578063c6d15e1b1461090b578063d8ea64d614610433578063dfeaedb81461093e578063e1da53801461099957610376565b8063b78b52df146108bd578063b845a1291461037b578063bcb083c1146108f657610376565b8063a09caa181161016f578063a9e3458c11610149578063a9e3458c1461080b578063aa7fdee514610820578063af14052c14610893578063b4eae1cb146108a857610376565b8063a09caa1814610796578063a0fda95e146107ab578063a49fdb49146107c057610376565b80638da5cb5b116101ab5780638da5cb5b1461072b5780638e5f2898146107405780638eb128141461076c57806396fd7db61461078157610376565b80638129fc1c146107015780638177b4a61461043357806381b67a301461071657610376565b80635109ef1c116102ab57806368ee359111610249578063723863711161022357806372386371146106ad57806377f0c615146106c25780637e428dac146106d75780637e4e61d7146106ec57610376565b806368ee3591146104335780637080460f14610683578063715018a61461069857610376565b8063598e6c0811610285578063598e6c08146105b75780635a9a9438146105f25780635c68308d146106075780636707d12e1461063857610376565b80635109ef1c1461057957806357635e911461058e57806358d7be8f1461043357610376565b806337d87d70116103185780633f521f8c116102f25780633f521f8c1461051957806347be1c3e146104335780634aba3121146104335780634b24e3d31461052e57610376565b806337d87d701461048d5780633881d70c146104a25780633c533b56146104ed57610376565b80631785226411610354578063178522641461040c5780632206ccbc14610433578063276545fe1461045f57806332e197f41461037b57610376565b806306ec8cd71461037b5780630d170b03146103ad5780630d4b927f146103d8575b600080fd5b34801561038757600080fd5b50610390610ad7565b6040805167ffffffffffffffff9092168252519081900360200190f35b6103d6600480360360608110156103c357600080fd5b5080359060208101359060400135610ae0565b005b3480156103e457600080fd5b506103d6600480360360408110156103fb57600080fd5b508035151590602001351515610b84565b34801561041857600080fd5b50610421610c59565b60408051918252519081900360200190f35b34801561043f57600080fd5b50610448610c68565b6040805161ffff9092168252519081900360200190f35b34801561046b57600080fd5b50610474610c6e565b6040805163ffffffff9092168252519081900360200190f35b34801561049957600080fd5b50610474610c81565b3480156104ae57600080fd5b506103d6600480360360a08110156104c557600080fd5b506001600160a01b038135169060208101359060408101359060608101359060800135610c94565b3480156104f957600080fd5b506103d66004803603602081101561051057600080fd5b50351515610d9e565b34801561052557600080fd5b50610474610e44565b34801561053a57600080fd5b506103d6600480360360a081101561055157600080fd5b506001600160a01b038135169060208101359060408101359060608101359060800135610e57565b34801561058557600080fd5b50610421610f5a565b34801561059a57600080fd5b506105a3610f60565b604080519115158252519081900360200190f35b3480156105c357600080fd5b506103d6600480360360408110156105da57600080fd5b506001600160a01b0381351690602001351515610f69565b3480156105fe57600080fd5b506103d6610fd9565b34801561061357600080fd5b5061061c6112ae565b604080516001600160a01b039092168252519081900360200190f35b34801561064457600080fd5b506103d6600480360360a081101561065b57600080fd5b506001600160a01b0381351690602081013590604081013590606081013590608001356112bd565b34801561068f57600080fd5b506105a36113c0565b3480156106a457600080fd5b506103d66113d1565b3480156106b957600080fd5b5061047461147d565b3480156106ce57600080fd5b506105a3611489565b3480156106e357600080fd5b50610421611498565b3480156106f857600080fd5b5061061c6114a2565b34801561070d57600080fd5b506103d66114b1565b34801561072257600080fd5b5061061c61166d565b34801561073757600080fd5b5061061c61167c565b34801561074c57600080fd5b506103d66004803603602081101561076357600080fd5b5035151561168b565b34801561077857600080fd5b5061047461173c565b34801561078d57600080fd5b50610474611750565b3480156107a257600080fd5b506105a3611763565b3480156107b757600080fd5b50610474611773565b3480156107cc57600080fd5b506103d6600480360360a08110156107e357600080fd5b506001600160a01b03813516906020810135906040810135906060810135906080013561177f565b34801561081757600080fd5b5061042161187f565b34801561082c57600080fd5b506103d6600480360361010081101561084457600080fd5b5067ffffffffffffffff8135169063ffffffff602082013581169160408101358216916060820135811691608081013582169160a082013581169160c081013582169160e09091013516611885565b34801561089f57600080fd5b506103d6611b38565b3480156108b457600080fd5b50610421611ba4565b3480156108c957600080fd5b506103d6600480360360408110156108e057600080fd5b506001600160a01b038135169060200135611d4c565b34801561090257600080fd5b5061061c611e06565b34801561091757600080fd5b506103d66004803603602081101561092e57600080fd5b50356001600160a01b0316611e1e565b34801561094a57600080fd5b506103d6600480360360c081101561096157600080fd5b506001600160a01b0381358116916020810135151591604082013581169160608101351515916080820135169060a001351515611ea2565b3480156109a557600080fd5b50610474611f1a565b3480156109ba57600080fd5b50610421611f2d565b3480156109cf57600080fd5b506105a3611f37565b3480156109e457600080fd5b506103d6600480360360208110156109fb57600080fd5b50356001600160a01b0316611f45565b348015610a1757600080fd5b506103d660048036036020811015610a2e57600080fd5b50356001600160a01b0316612048565b348015610a4a57600080fd5b5061042160048036036020811015610a6157600080fd5b50356001600160a01b03166120cc565b348015610a7d57600080fd5b506103906120de565b348015610a9257600080fd5b506104216120f6565b348015610aa757600080fd5b506103d660048036036080811015610abe57600080fd5b50803590602081013590604081013590606001356120fc565b64e8d4a5100081565b60655460ff16610b25576040805162461bcd60e51b815260206004820152601460248201526000805160206141af833981519152604482015290519081900360640190fd5b60003411610b6e576040805162461bcd60e51b81526020600482015260116024820152702732b2b2103a37903830bc9022ba3432b960791b604482015290519081900360640190fd5b610b7f600034600386348787612194565b505050565b610b8c612569565b6001600160a01b0316610b9d61167c565b6001600160a01b031614610be6576040805162461bcd60e51b81526020600482018190526024820152600080516020614251833981519152604482015290519081900360640190fd5b6065805463ff0000001916630100000084151581029190911764ff0000000019166401000000008415158102919091179283905560405160ff918404821615159392909204161515907f8e363288229795661dc4cd7765bb22af3b1ddb395a07cd4894d365d6ebd5d67190600090a35050565b6000610c6361256d565b905090565b61271081565b606d54600160a01b900463ffffffff1681565b606d54600160e01b900463ffffffff1681565b60655460ff16610cd9576040805162461bcd60e51b815260206004820152601460248201526000805160206141af833981519152604482015290519081900360640190fd5b6001600160a01b038516600090815260706020526040902054600160a01b900460ff16610d48576040805162461bcd60e51b815260206004820152601860248201527710dbdb1b185d195c985b081b9bdd081cdd5c1c1bdc9d195960421b604482015290519081900360640190fd5b60008411610d875760405162461bcd60e51b81526004018080602001828103825260218152602001806140c66021913960400191505060405180910390fd5b610d978585600087878787612194565b5050505050565b610da6612569565b6001600160a01b0316610db761167c565b6001600160a01b031614610e00576040805162461bcd60e51b81526020600482018190526024820152600080516020614251833981519152604482015290519081900360640190fd5b6065805460ff1916821515179081905560405160ff9091161515907f4aa2f044c925ec4ad9ac60a30b437e605ba4b7c4827d423be239b10228df4a4d90600090a250565b606d54600160801b900463ffffffff1681565b60655460ff16610e9c576040805162461bcd60e51b815260206004820152601460248201526000805160206141af833981519152604482015290519081900360640190fd5b6001600160a01b038516600090815260706020526040902054600160a01b900460ff16610f0b576040805162461bcd60e51b815260206004820152601860248201527710dbdb1b185d195c985b081b9bdd081cdd5c1c1bdc9d195960421b604482015290519081900360640190fd5b60008411610f4a5760405162461bcd60e51b81526004018080602001828103825260218152602001806140c66021913960400191505060405180910390fd5b610d978585600186868987612194565b606b5481565b60655460ff1681565b610f71612569565b6001600160a01b0316610f8261167c565b6001600160a01b031614610fcb576040805162461bcd60e51b81526020600482018190526024820152600080516020614251833981519152604482015290519081900360640190fd5b610fd582826125e6565b5050565b606554610100900460ff16611027576040805162461bcd60e51b815260206004820152600f60248201526e105b1b1bd8d85d19481c185d5cd959608a1b604482015290519081900360640190fd5b61102f612569565b6001600160a01b031661104061167c565b6001600160a01b031614611089576040805162461bcd60e51b81526020600482018190526024820152600080516020614251833981519152604482015290519081900360640190fd5b60005b6072548110156112ab5761109e613fd2565b607282815481106110ab57fe5b60009182526020918290206040805160c081018252600390930290910180546001600160a01b03808216855260ff600160a01b9283900481161580159787018890526001850154808416968801969096529483900481161515606087015260029093015490811660808601520416151560a083015290925061112e575080606001515b156112a257600081604001519050600082600001516001600160a01b03166370a08231306040518263ffffffff1660e01b815260040180826001600160a01b0316815260200191505060206040518083038186803b15801561118f57600080fd5b505afa1580156111a3573d6000803e3d6000fd5b505050506040513d60208110156111b957600080fd5b5051835160408051632fa8a91360e11b81526001600160a01b039283166004820152905192935060009291851691635f51522691602480820192602092909190829003018186803b15801561120d57600080fd5b505afa158015611221573d6000803e3d6000fd5b505050506040513d602081101561123757600080fd5b5051905060006112478383612666565b606e54909150600090611287908490611281906127109061127b90879063ffffffff6401000000009091048116906126c916565b90612722565b90612789565b915050801561129c57855161129c90826127af565b50505050505b5060010161108c565b50565b6067546001600160a01b031681565b60655460ff16611302576040805162461bcd60e51b815260206004820152601460248201526000805160206141af833981519152604482015290519081900360640190fd5b6001600160a01b038516600090815260706020526040902054600160a01b900460ff16611371576040805162461bcd60e51b815260206004820152601860248201527710dbdb1b185d195c985b081b9bdd081cdd5c1c1bdc9d195960421b604482015290519081900360640190fd5b600084116113b05760405162461bcd60e51b81526004018080602001828103825260218152602001806140c66021913960400191505060405180910390fd5b610d978585600286888787612194565b606554640100000000900460ff1681565b6113d9612569565b6001600160a01b03166113ea61167c565b6001600160a01b031614611433576040805162461bcd60e51b81526020600482018190526024820152600080516020614251833981519152604482015290519081900360640190fd5b6033546040516000916001600160a01b0316907f8be0079c531659141344cd1fd0a4f28419497f9722a3daafe3b4186f6b6457e0908390a3603380546001600160a01b0319169055565b606d5463ffffffff1681565b60655462010000900460ff1681565b6000610c63612add565b6066546001600160a01b031681565b600054610100900460ff16806114ca57506114ca612da3565b806114d8575060005460ff16155b6115135760405162461bcd60e51b815260040180806020018281038252602e8152602001806141cf602e913960400191505060405180910390fd5b600054610100900460ff1615801561153e576000805460ff1961ff0019909116610100171660011790555b611546612db4565b60658054600160ff199091161762ff0100600160c81b03191678bb5e27ae27a6a7d092b181fbddac1a1004e9adff000000000017905560678054306001600160a01b03199182161790915543606a5560698054730f27662a7e4033eb4549a4e6bd42a35a96979bdc9216919091179055606d805463ffffffff1990811661c864176bffffffffffffffff00000000191668dd30699c00000000001763ffffffff60601b19166105f960641b1763ffffffff60801b191661027160841b1763ffffffff60a01b1916604560a01b1763ffffffff60c01b191661050960c51b176001600160e01b0316610aa360e11b17909155606e8054610d4092169190911767ffffffff0000000019166505a60000000017905580156112ab576000805461ff001916905550565b6069546001600160a01b031681565b6033546001600160a01b031690565b611693612569565b6001600160a01b03166116a461167c565b6001600160a01b0316146116ed576040805162461bcd60e51b81526020600482018190526024820152600080516020614251833981519152604482015290519081900360640190fd5b6065805461ff0019166101008315158102919091179182905560405160ff91909204161515907f7304ed846a7da817e311f225ed0df7c4b621c484da0ab3e633bd5ad083f2c3ae90600090a250565b606e54640100000000900463ffffffff1681565b606d54600160601b900463ffffffff1681565b6065546301000000900460ff1681565b606e5463ffffffff1681565b60655460ff166117c4576040805162461bcd60e51b815260206004820152601460248201526000805160206141af833981519152604482015290519081900360640190fd5b6001600160a01b038516600090815260706020526040902054600160a01b900460ff16611833576040805162461bcd60e51b815260206004820152601860248201527710dbdb1b185d195c985b081b9bdd081cdd5c1c1bdc9d195960421b604482015290519081900360640190fd5b600084116118725760405162461bcd60e51b81526004018080602001828103825260218152602001806140c66021913960400191505060405180910390fd5b610d978585858585612e65565b606c5481565b61188d612569565b6001600160a01b031661189e61167c565b6001600160a01b0316146118e7576040805162461bcd60e51b81526020600482018190526024820152600080516020614251833981519152604482015290519081900360640190fd5b87606d60046101000a81548167ffffffffffffffff021916908367ffffffffffffffff16021790555086606d600c6101000a81548163ffffffff021916908363ffffffff16021790555085606d60106101000a81548163ffffffff021916908363ffffffff16021790555084606d60146101000a81548163ffffffff021916908363ffffffff16021790555083606d60186101000a81548163ffffffff021916908363ffffffff16021790555082606d601c6101000a81548163ffffffff021916908363ffffffff16021790555081606e60006101000a81548163ffffffff021916908363ffffffff16021790555080606e60046101000a81548163ffffffff021916908363ffffffff1602179055507f3dec55373127e31c7cc1d9e11374dbf6a604e0727cf87fa3687dd90ea53db6f0606d60049054906101000a900467ffffffffffffffff16606d600c9054906101000a900463ffffffff16606d60109054906101000a900463ffffffff16606d60149054906101000a900463ffffffff16606d60189054906101000a900463ffffffff16606d601c9054906101000a900463ffffffff16606e60009054906101000a900463ffffffff16606e60049054906101000a900463ffffffff16604051808967ffffffffffffffff1681526020018863ffffffff1681526020018763ffffffff1681526020018663ffffffff1681526020018563ffffffff1681526020018463ffffffff1681526020018363ffffffff1681526020018263ffffffff1681526020019850505050505050505060405180910390a15050505050505050565b611b40612569565b6001600160a01b0316611b5161167c565b6001600160a01b031614611b9a576040805162461bcd60e51b81526020600482018190526024820152600080516020614251833981519152604482015290519081900360640190fd5b611ba26132b2565b565b600080611baf61366e565b90506000606860009054906101000a90046001600160a01b03166001600160a01b03166318160ddd6040518163ffffffff1660e01b815260040160206040518083038186803b158015611c0157600080fd5b505afa158015611c15573d6000803e3d6000fd5b505050506040513d6020811015611c2b57600080fd5b505160665460408051630421977560e11b815290519293506000926001600160a01b03909216916308432eea91600480820192602092909190829003018186803b158015611c7857600080fd5b505afa158015611c8c573d6000803e3d6000fd5b505050506040513d6020811015611ca257600080fd5b505160665460408051636f2a2b0f60e01b815290519293506000926001600160a01b0390921691636f2a2b0f91600480820192602092909190829003018186803b158015611cef57600080fd5b505afa158015611d03573d6000803e3d6000fd5b505050506040513d6020811015611d1957600080fd5b505190506000611d2d8261127b86866126c9565b9050611d428161127b8764e8d4a510006126c9565b9550505050505090565b606554610100900460ff16611d9a576040805162461bcd60e51b815260206004820152600f60248201526e105b1b1bd8d85d19481c185d5cd959608a1b604482015290519081900360640190fd5b611da2612569565b6001600160a01b0316611db361167c565b6001600160a01b031614611dfc576040805162461bcd60e51b81526020600482018190526024820152600080516020614251833981519152604482015290519081900360640190fd5b610fd582826127af565b6065546501000000000090046001600160a01b031681565b611e26612569565b6001600160a01b0316611e3761167c565b6001600160a01b031614611e80576040805162461bcd60e51b81526020600482018190526024820152600080516020614251833981519152604482015290519081900360640190fd5b606880546001600160a01b0319166001600160a01b0392909216919091179055565b611eaa612569565b6001600160a01b0316611ebb61167c565b6001600160a01b031614611f04576040805162461bcd60e51b81526020600482018190526024820152600080516020614251833981519152604482015290519081900360640190fd5b611f12868686868686613689565b505050505050565b606d54600160c01b900463ffffffff1681565b6000610c6361366e565b606554610100900460ff1681565b611f4d612569565b6001600160a01b0316611f5e61167c565b6001600160a01b031614611fa7576040805162461bcd60e51b81526020600482018190526024820152600080516020614251833981519152604482015290519081900360640190fd5b6001600160a01b038116611fec5760405162461bcd60e51b81526004018080602001828103825260268152602001806140406026913960400191505060405180910390fd5b6033546040516001600160a01b038084169216907f8be0079c531659141344cd1fd0a4f28419497f9722a3daafe3b4186f6b6457e090600090a3603380546001600160a01b0319166001600160a01b0392909216919091179055565b612050612569565b6001600160a01b031661206161167c565b6001600160a01b0316146120aa576040805162461bcd60e51b81526020600482018190526024820152600080516020614251833981519152604482015290519081900360640190fd5b606680546001600160a01b0319166001600160a01b0392909216919091179055565b606f6020526000908152604090205481565b606d54640100000000900467ffffffffffffffff1681565b606a5481565b60655460ff16612141576040805162461bcd60e51b815260206004820152601460248201526000805160206141af833981519152604482015290519081900360640190fd5b600084116121805760405162461bcd60e51b81526004018080602001828103825260218152602001806140c66021913960400191505060405180910390fd5b61218e600085858585612e65565b50505050565b60655460ff166121d9576040805162461bcd60e51b815260206004820152601460248201526000805160206141af833981519152604482015290519081900360640190fd5b604080516363b09fdb60e01b81526001600160a01b03891660048201526024810188905260ff87166044820152306064820152905160009182918291829173__VaultCoreLibrary______________________916363b09fdb916084808301926080929190829003018186803b15801561225257600080fd5b505af4158015612266573d6000803e3d6000fd5b505050506040513d608081101561227c57600080fd5b5080516020820151604083015160609093015191965094509092509050878210156122d85760405162461bcd60e51b815260040180806020018281038252602e815260200180614271602e913960400191505060405180910390fd5b868311156123175760405162461bcd60e51b81526004018080602001828103825260338152602001806141fd6033913960400191505060405180910390fd5b858411156123565760405162461bcd60e51b815260040180806020018281038252602c81526020018061409a602c913960400191505060405180910390fd5b8442111561239e576040805162461bcd60e51b815260206004820152601060248201526f111958591b1a5b9948195e1c1a5c995960821b604482015290519081900360640190fd5b6065546040805163079cc67960e41b8152336004820152602481018790529051650100000000009092046001600160a01b0316916379cc67909160448082019260009290919082900301818387803b1580156123f957600080fd5b505af115801561240d573d6000803e3d6000fd5b5050606c5461241f9250905085612666565b606c55600360ff8a1614612442576124426001600160a01b038c1633308661374f565b606854604080516340c10f1960e01b81523360048201526024810185905290516001600160a01b03909216916340c10f199160448082019260009290919082900301818387803b15801561249557600080fd5b505af11580156124a9573d6000803e3d6000fd5b5050606854604080516340c10f1960e01b81523060048201526024810186905290516001600160a01b0390921693506340c10f19925060448082019260009290919082900301818387803b15801561250057600080fd5b505af1158015612514573d6000803e3d6000fd5b5050604080518681526020810188905280820185905290518593503392507f473211ca1f39de50cbd3cc7e9f63f97251afb1a528e8164f279bf67dab4f952d9181900360600190a35050505050505050505050565b3390565b6000805b6073548110156125e2576073818154811061258857fe5b600091825260209091200154600160a01b900460ff16156125da576125d76125d0607383815481106125b657fe5b6000918252602090912001546001600160a01b03166137a9565b8390612666565b91505b600101612571565b5090565b6001600160a01b03821660008181526071602090815260409182902080546001600160a01b031916841760ff60a01b1916600160a01b861515908102919091178255835194855291840191909152815190927f2c6e13ba0b47fcf1ee784f19401f9a9d63e134849552181df389442846de0d5192908290030190a1505050565b6000828201838110156126c0576040805162461bcd60e51b815260206004820152601b60248201527f536166654d6174683a206164646974696f6e206f766572666c6f770000000000604482015290519081900360640190fd5b90505b92915050565b6000826126d8575060006126c3565b828202828482816126e557fe5b04146126c05760405162461bcd60e51b81526004018080602001828103825260218152602001806142306021913960400191505060405180910390fd5b6000808211612778576040805162461bcd60e51b815260206004820152601a60248201527f536166654d6174683a206469766973696f6e206279207a65726f000000000000604482015290519081900360640190fd5b81838161278157fe5b049392505050565b6000808383111561279f575060009050806127a8565b50600190508183035b9250929050565b6127b7613fd2565b506001600160a01b03808316600090815260706020908152604091829020825160c0810184528154808616825260ff600160a01b91829004811615159483018590526001840154808816968401969096529481900485161515606083015260029092015494851660808201529304909116151560a083015261286a5760405162461bcd60e51b81526004018080602001828103825260258152602001806140e76025913960400191505060405180910390fd5b60408101516001600160a01b03166128c9576040805162461bcd60e51b815260206004820152601d60248201527f5f616c6c6f636174653a205374726174656779206e6f74207365742e20000000604482015290519081900360640190fd5b80606001516129095760405162461bcd60e51b815260040180806020018281038252602381526020018061410c6023913960400191505060405180910390fd5b6001600160a01b038084166000908152607060205260409020600101541661292f614007565b506001600160a01b03848116600090815260706020908152604080832060010154841683526071825291829020825180840190935254928316808352600160a01b90930460ff16151590820152906129ce576040805162461bcd60e51b815260206004820152601d60248201527f5f616c6c6f636174653a205374726174656779206e6f74207365742e20000000604482015290519081900360640190fd5b8060200151612a0e5760405162461bcd60e51b815260040180806020018281038252602181526020018061401f6021913960400191505060405180910390fd5b60008411612a4d5760405162461bcd60e51b815260040180806020018281038252602d81526020018061412f602d913960400191505060405180910390fd5b6040830151612a67906001600160a01b0387169086613aba565b816001600160a01b03166347e7ef2486866040518363ffffffff1660e01b815260040180836001600160a01b0316815260200182815260200192505050600060405180830381600087803b158015612abe57600080fd5b505af1158015612ad2573d6000803e3d6000fd5b505050505050505050565b6000805b6072548110156125e257612af3613fd2565b60728281548110612b0057fe5b600091825260208083206040805160c081018252600390940290910180546001600160a01b0380821680875260ff600160a01b938490048116151588880152600185015480841689880152849004811615156060890152600290940154808316608089015292909204909216151560a08601526066548351631469026560e21b8152600481019290925292519496509116926351a4099492602480840193919291829003018186803b158015612bb557600080fd5b505afa158015612bc9573d6000803e3d6000fd5b505050506040513d6020811015612bdf57600080fd5b5051606654835160408051633f15327960e01b81526001600160a01b03928316600482015290519394506000939190921691633f153279916024808301926020929190829003018186803b158015612c3657600080fd5b505afa158015612c4a573d6000803e3d6000fd5b505050506040513d6020811015612c6057600080fd5b505183516040805163313ce56760e01b815290519293506000926001600160a01b039092169163313ce56791600480820192602092909190829003018186803b158015612cac57600080fd5b505afa158015612cc0573d6000803e3d6000fd5b505050506040513d6020811015612cd657600080fd5b50518451604080516370a0823160e01b8152306004820152905160ff9093169350600092612d6792869261127b9289926001600160a01b0316916370a08231916024808301926020929190829003018186803b158015612d3557600080fd5b505afa158015612d49573d6000803e3d6000fd5b505050506040513d6020811015612d5f57600080fd5b5051906126c9565b90506000612d83612d79601285613b0c565b8390600a0a6126c9565b9050612d8f8882612666565b97505060019095019450612ae19350505050565b6000612dae30613b69565b15905090565b600054610100900460ff1680612dcd5750612dcd612da3565b80612ddb575060005460ff16155b612e165760405162461bcd60e51b815260040180806020018281038252602e8152602001806141cf602e913960400191505060405180910390fd5b600054610100900460ff16158015612e41576000805460ff1961ff0019909116610100171660011790555b612e49613b6f565b612e51613c0f565b80156112ab576000805461ff001916905550565b60655460ff16612eaa576040805162461bcd60e51b815260206004820152601460248201526000805160206141af833981519152604482015290519081900360640190fd5b60665460408051637a9acad360e11b81526001600160a01b0380891660048301526024820188905230604483015290921660648301525160009182918291829173__VaultCoreLibrary______________________9163f53595a6916084808301926080929190829003018186803b158015612f2557600080fd5b505af4158015612f39573d6000803e3d6000fd5b505050506040513d6080811015612f4f57600080fd5b508051602082015160408301516060909301519196509450909250905086831015612fab5760405162461bcd60e51b81526004018080602001828103825260348152602001806140666034913960400191505060405180910390fd5b85841015612fea5760405162461bcd60e51b815260040180806020018281038252602d815260200180614182602d913960400191505060405180910390fd5b84421115613032576040805162461bcd60e51b815260206004820152601060248201526f111958591b1a5b9948195e1c1a5c995960821b604482015290519081900360640190fd5b6065546040805163edb561c360e01b8152336004820152602481018790529051650100000000009092046001600160a01b03169163edb561c39160448082019260009290919082900301818387803b15801561308d57600080fd5b505af11580156130a1573d6000803e3d6000fd5b5050606b546130b39250905085612666565b606b556001600160a01b03891661315e57604051600090339085908381818185875af1925050503d8060008114613106576040519150601f19603f3d011682016040523d82523d6000602084013e61310b565b606091505b5050905080613158576040805162461bcd60e51b81526020600482015260146024820152732330b4b632b2103a379039b2b7321022ba3432b960611b604482015290519081900360640190fd5b50613172565b6131726001600160a01b038a163385613aba565b60685460408051632770a7eb60e21b81523360048201526024810185905290516001600160a01b0390921691639dc29fac9160448082019260009290919082900301818387803b1580156131c557600080fd5b505af11580156131d9573d6000803e3d6000fd5b5050606854604080516323b872dd60e01b81523360048201523060248201526044810186905290516001600160a01b0390921693506323b872dd92506064808201926020929091908290030181600087803b15801561323757600080fd5b505af115801561324b573d6000803e3d6000fd5b505050506040513d602081101561326157600080fd5b505060408051848152602081018690528082018390529051839133917f7a7fa876a9a577092f57d3c1deeddc4025fb563aab144154b355ede4fb9f3ded9181900360600190a3505050505050505050565b60006132bc613fd2565b600080606860009054906101000a90046001600160a01b03166001600160a01b0316633eaaf86b6040518163ffffffff1660e01b815260040160206040518083038186803b15801561330d57600080fd5b505afa158015613321573d6000803e3d6000fd5b505050506040513d602081101561333757600080fd5b50519050600080805b6072548110156135c3576072818154811061335757fe5b60009182526020918290206040805160c081018252600390930290910180546001600160a01b0380821680865260ff600160a01b938490048116151587890152600185015480841688880181905290859004821615156060890152600290950154928316608088015292909104909116151560a08501528251638d2c872760e01b815260048101919091529151909a509198508992638d2c872792602480840193829003018186803b15801561340c57600080fd5b505afa158015613420573d6000803e3d6000fd5b505050506040513d602081101561343657600080fd5b50519450841580159061344a57508560a001515b156135bb57855160408051636ce5768960e11b81523060048201526001600160a01b0392831660248201526044810188905290519189169163d9caed129160648082019260009290919082900301818387803b1580156134a957600080fd5b505af11580156134bd573d6000803e3d6000fd5b5050505085608001516001600160a01b03166373bd43ad866040518263ffffffff1660e01b815260040180828152602001915050602060405180830381600087803b15801561350b57600080fd5b505af115801561351f573d6000803e3d6000fd5b505050506040513d602081101561353557600080fd5b505160685460408051632770a7eb60e21b81523060048201526024810184905290519294506001600160a01b0390911691639dc29fac9160448082019260009290919082900301818387803b15801561358d57600080fd5b505af11580156135a1573d6000803e3d6000fd5b505050506135b8828461266690919063ffffffff16565b92505b600101613340565b5060006135d08484612666565b606854604080516339a7919f60e01b81526004810184905290519293506001600160a01b03909116916339a7919f9160248082019260009290919082900301818387803b15801561362057600080fd5b505af1158015613634573d6000803e3d6000fd5b50506040518392508691507f11c6bf55864ff83827df712625d7a80e5583eef0264921025e7cd22003a2151190600090a350505050505050565b6000610c6361367b61256d565b613683612add565b90612666565b6001600160a01b0386811660008181526070602090815260409182902080546001600160a01b0319908116851760ff60a01b19908116600160a01b8d151581810292909217855560018501805485168e8b169081179094168d1515928302179055600285018054909416988b16988917909355855190815293840152828401526060820194909452841515608082015290517f17829b659e9b6373b3f06a015f33261164011effe018eea960430225e3ba6c1e9160a0908290030190a250505050505050565b604080516001600160a01b0380861660248301528416604482015260648082018490528251808303909101815260849091019091526020810180516001600160e01b03166323b872dd60e01b17905261218e908590613d08565b600081815b607254811015613ab3576137c0613fd2565b607282815481106137cd57fe5b60009182526020918290206040805160c081018252600390930290910180546001600160a01b0380821680865260ff600160a01b938490048116151587890152600185015480841688880152849004811615156060880152600290940154808316608088015292909204909216151560a0850152825163a400326f60e01b81526004810191909152915192945086169263a400326f92602480840193829003018186803b15801561387d57600080fd5b505afa158015613891573d6000803e3d6000fd5b505050506040513d60208110156138a757600080fd5b505115613aaa57606654815160408051631469026560e21b81526001600160a01b039283166004820152905160009392909216916351a4099491602480820192602092909190829003018186803b15801561390157600080fd5b505afa158015613915573d6000803e3d6000fd5b505050506040513d602081101561392b57600080fd5b5051606654835160408051633f15327960e01b81526001600160a01b03928316600482015290519394506000939190921691633f153279916024808301926020929190829003018186803b15801561398257600080fd5b505afa158015613996573d6000803e3d6000fd5b505050506040513d60208110156139ac57600080fd5b505183516040805163313ce56760e01b815290519293506000926001600160a01b039092169163313ce56791600480820192602092909190829003018186803b1580156139f857600080fd5b505afa158015613a0c573d6000803e3d6000fd5b505050506040513d6020811015613a2257600080fd5b5051845160408051632fa8a91360e11b81526001600160a01b039283166004820152905160ff9093169350600092613a8492869261127b9289928d1691635f515226916024808301926020929190829003018186803b158015612d3557600080fd5b90506000613a96612d79601285613b0c565b9050613aa28982612666565b985050505050505b506001016137ae565b5050919050565b604080516001600160a01b038416602482015260448082018490528251808303909101815260649091019091526020810180516001600160e01b031663a9059cbb60e01b179052610b7f908490613d08565b600082821115613b63576040805162461bcd60e51b815260206004820152601e60248201527f536166654d6174683a207375627472616374696f6e206f766572666c6f770000604482015290519081900360640190fd5b50900390565b3b151590565b600054610100900460ff1680613b885750613b88612da3565b80613b96575060005460ff16155b613bd15760405162461bcd60e51b815260040180806020018281038252602e8152602001806141cf602e913960400191505060405180910390fd5b600054610100900460ff16158015612e51576000805460ff1961ff00199091166101001716600117905580156112ab576000805461ff001916905550565b600054610100900460ff1680613c285750613c28612da3565b80613c36575060005460ff16155b613c715760405162461bcd60e51b815260040180806020018281038252602e8152602001806141cf602e913960400191505060405180910390fd5b600054610100900460ff16158015613c9c576000805460ff1961ff0019909116610100171660011790555b6000613ca6612569565b603380546001600160a01b0319166001600160a01b038316908117909155604051919250906000907f8be0079c531659141344cd1fd0a4f28419497f9722a3daafe3b4186f6b6457e0908290a35080156112ab576000805461ff001916905550565b6060613d5d826040518060400160405280602081526020017f5361666545524332303a206c6f772d6c6576656c2063616c6c206661696c6564815250856001600160a01b0316613db99092919063ffffffff16565b805190915015610b7f57808060200190516020811015613d7c57600080fd5b5051610b7f5760405162461bcd60e51b815260040180806020018281038252602a81526020018061429f602a913960400191505060405180910390fd5b6060613dc88484600085613dd2565b90505b9392505050565b606082471015613e135760405162461bcd60e51b815260040180806020018281038252602681526020018061415c6026913960400191505060405180910390fd5b613e1c85613b69565b613e6d576040805162461bcd60e51b815260206004820152601d60248201527f416464726573733a2063616c6c20746f206e6f6e2d636f6e7472616374000000604482015290519081900360640190fd5b60006060866001600160a01b031685876040518082805190602001908083835b60208310613eac5780518252601f199092019160209182019101613e8d565b6001836020036101000a03801982511681845116808217855250505050505090500191505060006040518083038185875af1925050503d8060008114613f0e576040519150601f19603f3d011682016040523d82523d6000602084013e613f13565b606091505b5091509150613f23828286613f2e565b979650505050505050565b60608315613f3d575081613dcb565b825115613f4d5782518084602001fd5b8160405162461bcd60e51b81526004018080602001828103825283818151815260200191508051906020019080838360005b83811015613f97578181015183820152602001613f7f565b50505050905090810190601f168015613fc45780820380516001836020036101000a031916815260200191505b509250505060405180910390fd5b6040805160c081018252600080825260208201819052918101829052606081018290526080810182905260a081019190915290565b60408051808201909152600080825260208201529056fe5f616c6c6f636174653a205374726174656779206e6f7420656e61626c65642e204f776e61626c653a206e6577206f776e657220697320746865207a65726f2061646472657373436f6c6c61746572616c20616d6f756e74206973206c6f776572207468616e20746865206d6178696d756d20736c69707061676553504120616d6f756e74206973206d6f7265207468616e20746865206d6178696d756d20736c697070616765416d6f756e74206e6565647320746f2062652067726561746572207468616e20305f616c6c6f636174653a20436f6c6c61746572616c206e6f7420737570706f727465642e205f616c6c6f636174653a20416c6c6f636174696f6e206e6f7420616c6c6f7765642e205f616c6c6f636174653a20616d74546f416c6c6f636174652073686f756c6420626520706f7369746976652e20416464726573733a20696e73756666696369656e742062616c616e636520666f722063616c6c53504120616d6f756e74206973206c6f776572207468616e20746865206d6178696d756d20736c6970706167654d696e7420262072656465656d20706175736564000000000000000000000000496e697469616c697a61626c653a20636f6e747261637420697320616c726561647920696e697469616c697a6564436f6c6c61746572616c20616d6f756e74206973206d6f7265207468616e20746865206d6178696d756d20736c697070616765536166654d6174683a206d756c7469706c69636174696f6e206f766572666c6f774f776e61626c653a2063616c6c6572206973206e6f7420746865206f776e65725553447320616d6f756e74206973206c6f776572207468616e20746865206d6178696d756d20736c6970706167655361666545524332303a204552433230206f7065726174696f6e20646964206e6f742073756363656564a2646970667358221220aa4dc4bb85eb4d331337baa141b68b9cab499560adab88894cdc94f8324cc3ca64736f6c634300060c0033",
  "immutableReferences": {},
  "source": "//TO-DO: check source file of SafeMathUpgradeable regarding trySub() (and the usage of \"unchecked\")\n//TO-DO: check ERC20Upgradeable vs ERC20Upgradeable\n// Note: assuming when exponentWith_prec >= 2^32, toReturn >= swapFee_prec () (TO-DO: work out the number)\n//TO-DO: deal with collateralStrategies\n//TO-DO: what happen when we redeem aTokens\n//TO-DO: whether _redeem needs \"SafeTransferFrom\" and how\n//TO-DO: check all user inputs, especially mintView\n//TO-DO: remove for testing purposes files\npragma solidity ^0.6.12;\n\n//import \"@openzeppelin/contracts-upgradeable/access/OwnableUpgradeable.sol\";\n//import \"https://github.com/OpenZeppelin/openzeppelin-contracts-upgradeable/blob/v3.4.0/contracts/access/OwnableUpgradeable.sol\";\nimport \"../libraries/openzeppelin/OwnableUpgradeable.sol\";\n//import \"@openzeppelin/contracts-upgradeable/token/ERC20/SafeERC20Upgradeable.sol\";\n//import \"@openzeppelin/contracts-upgradeable/token/ERC20/ERC20Upgradeable.sol\";\n\nimport \"../libraries/Helpers.sol\";\n//import \"../interfaces/IOracle.sol\";\nimport \"../interfaces/ISperaxToken.sol\";\nimport \"../interfaces/IStrategy.sol\";\nimport \"../libraries/VaultCoreLibrary.sol\";\nimport \"../token/USDs.sol\";\n//import \"../libraries/BancorFormula.sol\";\nimport \"../interfaces/IBuyback.sol\";\nimport \"../interfaces/IVaultCore.sol\";\n\ncontract VaultCore is Initializable, OwnableUpgradeable, IVaultCore {\n\tusing SafeERC20Upgradeable for ERC20Upgradeable;\n\tusing SafeMathUpgradeable for uint;\n\tusing StableMath for uint;\n\n\tbool public override mintRedeemAllowed;\n\tbool public override allocationAllowed;\n\tbool public override rebaseAllowed;\n\tbool public override swapfeeInAllowed;\n\tbool public override swapfeeOutAllowed;\n\taddress public SPAaddr;\n\taddress public override oracleAddr;\n\taddress public SPAvault;\n\tUSDs USDsInstance;\n\tBancorFormula public override BancorInstance;\n\tuint public override startBlockHeight;\n\tuint public SPAminted;\n\tuint public SPAburnt;\n\tuint32 public override chi_alpha;\n\tuint64 public override constant chi_alpha_prec = 10**12;\n\tuint64 public override constant chi_prec = 10**12;\n\tuint64 public override chiInit;\n\tuint32 public override chi_beta;\n\tuint16 public override constant chi_beta_prec = 10**4;\n\tuint32 public override chi_gamma;\n\tuint16 public override constant chi_gamma_prec = 10**4;\n\tuint64 public override constant swapFee_prec = 10**12;\n\tuint32 public override swapFee_p;\n\tuint16 public override constant swapFee_p_prec = 10**4;\n\tuint32 public override swapFee_theta;\n\tuint16 public override constant swapFee_theta_prec = 10**4;\n\tuint32 public override swapFee_a;\n\tuint16 public override constant swapFee_a_prec = 10**4;\n\tuint32 public override swapFee_A;\n\tuint16 public override constant swapFee_A_prec = 10**4;\n\tuint32 public override allocatePrecentage;\n\tuint16 public override constant allocatePrecentage_prec = 10**4;\n\n\tevent parametersUpdated(uint64 _chiInit, uint32 _chi_beta, uint32 _chi_gamma, uint32 _swapFee_p, uint32 _swapFee_theta, uint32 _swapFee_a, uint32 _swapFee_A, uint32 _allocatePrecentage);\n\tevent USDsMinted(address indexed wallet, uint indexed USDsAmt, uint collateralAmt, uint SPAsAmt, uint feeAmt);\n\tevent USDsRedeemed(address indexed wallet, uint indexed USDsAmt, uint collateralAmt, uint SPAsAmt, uint feeAmt);\n\tevent Rebase(uint indexed oldSupply, uint indexed newSupply);\n\tevent CollateralInfoChanged(address indexed collateralAddr, bool supported, address defaultStrategyAddr, bool allocationAllowed, address buyBackAddr, bool rebaseAllowed);\n\tevent StrategyInfoChanged(address strategyAddr, bool enabled);\n\tevent MintRedeemPermssionChanged(bool indexed permission);\n\tevent AllocationPermssionChanged(bool indexed permission);\n\tevent SwapFeeInOutPermissionChanged(bool indexed swapfeeInAllowed, bool indexed swapfeeOutAllowed);\n\n\t/**\n\t * @dev check if USDs mint & redeem are both allowed\n\t */\n\tmodifier whenMintRedeemAllowed {\n\t\trequire(mintRedeemAllowed, \"Mint & redeem paused\");\n\t\t_;\n\t}\n\t/**\n\t * @dev check if re-investment of collaterals is allowed\n\t */\n\tmodifier whenAllocationAllowed {\n\t\trequire(allocationAllowed, \"Allocate paused\");\n\t\t_;\n\t}\n\t/**\n\t * @dev check if rebase is allowed\n\t */\n\tmodifier whenRebaseAllowed {\n\t\trequire(rebaseAllowed, \"Rebase paused\");\n\t\t_;\n\t}\n\n\tstruct collateralStruct {\n\t\taddress collateralAddr;\n\t\tbool supported;\n\t\taddress defaultStrategyAddr;\n\t\tbool allocationAllowed;\n\t\taddress buyBackAddr;\n\t\tbool rebaseAllowed;\n\t}\n\tstruct strategyStruct {\n\t\taddress strategyAddr;\n\t\tbool enabled;\n\t}\n\tmapping(address => uint) public supportedCollateral;\t\t// if it is 1, the collateral is supported; else it is 0, it is not supported\n\tmapping(address => collateralStruct) collateralsInfo;\n\tmapping(address => strategyStruct) strategiesInfo;\n\tcollateralStruct[] allCollaterals;\t// the list of all supported collaterals\n\tstrategyStruct[] allStrategies;\t// the list of all strategy addresses\n\n\tfunction initialize() public initializer {\n\t\tOwnableUpgradeable.__Ownable_init();\n\t\tmintRedeemAllowed = true;\n\t\tswapfeeInAllowed = false;\n\t\tswapfeeOutAllowed = false;\n\t\tallocationAllowed = false;\n\t\tSPAaddr = 0xbb5E27Ae27A6a7D092b181FbDdAc1A1004e9adff;\t// SPA on Kovan\n\t\tSPAvault = address(this);\n\t\tstartBlockHeight = block.number;\n\t\tBancorInstance = BancorFormula(0x0f27662A7e4033eB4549a4E6Bd42a35a96979BdC);\n\t\tchi_alpha = uint32(chi_alpha_prec * 513 / 10**10);\n\t\tchiInit = chi_prec * 95 / 100;\n\t\tchi_beta = chi_beta_prec * 9;\n\t\tchi_gamma = chi_gamma_prec;\n\t\tswapFee_p = swapFee_p_prec * 99 / 100;\n\t\tswapFee_theta = swapFee_theta_prec * 50;\n\t\tswapFee_a = swapFee_a_prec * 12 / 10;\n\t\tswapFee_A = swapFee_A_prec * 20;\n\t\tallocatePrecentage = allocatePrecentage_prec * 8 / 10;\n\t}\n\n\t//For testing purposes:\n\tfunction updateUSDsAddress(address _USDsAddr) external onlyOwner {\n\t\tUSDsInstance = USDs(_USDsAddr);\n\t}\n\n\tfunction updateOracleAddress(address _oracleAddr) external onlyOwner {\n\t\toracleAddr =  _oracleAddr;\n\t}\n\n\tfunction updateParameters(uint64 _chiInit, uint32 _chi_beta, uint32 _chi_gamma, uint32 _swapFee_p, uint32 _swapFee_theta, uint32 _swapFee_a, uint32 _swapFee_A, uint32 _allocatePrecentage) external onlyOwner {\n\t\tchiInit = _chiInit;\n\t\tchi_beta = _chi_beta;\n\t\tchi_gamma = _chi_gamma;\n\t\tswapFee_p = _swapFee_p;\n\t\tswapFee_theta = _swapFee_theta;\n\t\tswapFee_a = _swapFee_a;\n\t\tswapFee_A = _swapFee_A;\n\t\tallocatePrecentage = _allocatePrecentage;\n\t\temit parametersUpdated(chiInit, chi_beta, chi_gamma, swapFee_p, swapFee_theta, swapFee_a, swapFee_A, allocatePrecentage);\n\t}\n\n\t/**\n\t * @dev disable USDs mint & redeem\n\t */\n\tfunction updateMintBurnPermission(bool _mintRedeemAllowed) external onlyOwner {\n\t\tmintRedeemAllowed = _mintRedeemAllowed;\n\t\temit MintRedeemPermssionChanged(mintRedeemAllowed);\n\t}\n\t/**\n\t * @dev disable collateral re-investment\n\t */\n\tfunction updateAllocationPermission(bool _allocationAllowed) external onlyOwner {\n\t\tallocationAllowed = _allocationAllowed;\n\t\temit AllocationPermssionChanged(allocationAllowed);\n\t}\n\t/**\n\t * @dev disable swapInFee, i.e. mint becomes free\n\t */\n\tfunction updateSwapInOutFeePermission(bool _swapfeeInAllowed, bool _swapfeeOutAllowed) external onlyOwner {\n\t\tswapfeeInAllowed = _swapfeeInAllowed;\n\t\tswapfeeOutAllowed = _swapfeeOutAllowed;\n\t\temit SwapFeeInOutPermissionChanged(swapfeeInAllowed, swapfeeOutAllowed);\n\t}\n\n\tfunction updateCollateralInfo(address _collateralAddr, bool _supported, address _defaultStrategyAddr, bool _allocationAllowed, address _buyBackAddr, bool _rebaseAllowed) external onlyOwner {\n\t\t_updateCollateralInfo(_collateralAddr, _supported, _defaultStrategyAddr, _allocationAllowed, _buyBackAddr, _rebaseAllowed);\n\t}\n\n\tfunction _updateCollateralInfo(address _collateralAddr, bool _supported, address _defaultStrategyAddr, bool _allocationAllowed, address _buyBackAddr, bool _rebaseAllowed) internal {\n\t\tcollateralStruct storage updatedCollateral = collateralsInfo[_collateralAddr];\n\t\tupdatedCollateral.collateralAddr = _collateralAddr;\n\t\tupdatedCollateral.supported = _supported;\n\t\tupdatedCollateral.defaultStrategyAddr = _defaultStrategyAddr;\n\t\tupdatedCollateral.allocationAllowed = _allocationAllowed;\n\t\tupdatedCollateral.buyBackAddr = _buyBackAddr;\n\t\temit CollateralInfoChanged(_collateralAddr, _supported, _defaultStrategyAddr, _allocationAllowed, _buyBackAddr, _rebaseAllowed);\n\t}\n\n\tfunction updateStrategyInfo(address _strategyAddr, bool _enabled) external onlyOwner {\n\t\t_updateStrategyInfo(_strategyAddr, _enabled);\n\t}\n\n\tfunction _updateStrategyInfo(address _strategyAddr, bool _enabled) internal {\n\t\tstrategyStruct storage updatedStrategy = strategiesInfo[_strategyAddr];\n\t\tupdatedStrategy.strategyAddr = _strategyAddr;\n\t\tupdatedStrategy.enabled = _enabled;\n\t\temit StrategyInfoChanged(_strategyAddr, _enabled);\n\t}\n\n\t/**\n\t * @dev mint USDs by entering USDs amount\n\t * @param collateralAddr the address of user's chosen collateral\n\t * @param USDsMintAmt the amount of USDs to be minted\n\t */\n\tfunction mintWithUSDs(address collateralAddr, uint USDsMintAmt, uint slippageCollateral, uint slippageSPA, uint deadline)\n\t\tpublic\n\t\twhenMintRedeemAllowed\n\t{\n\t\trequire(collateralsInfo[collateralAddr].supported, \"Collateral not supported\");\n\t\trequire(USDsMintAmt > 0, \"Amount needs to be greater than 0\");\n\t\t_mint(collateralAddr, USDsMintAmt, 0, USDsMintAmt, slippageCollateral, slippageSPA, deadline);\n\t}\n\n\t/**\n\t * @dev mint USDs by entering SPA amount\n\t * @param collateralAddr the address of user's chosen collateral\n\t * @param SPAamt the amount of SPA to burn\n\t */\n\n\tfunction mintWithSPA(address collateralAddr, uint SPAamt, uint slippageUSDs, uint slippageCollateral, uint deadline)\n\t\tpublic\n\t\twhenMintRedeemAllowed\n\t{\n\t\trequire(collateralsInfo[collateralAddr].supported, \"Collateral not supported\");\n\t\trequire(SPAamt > 0, \"Amount needs to be greater than 0\");\n\t\t_mint(collateralAddr, SPAamt, 1, slippageUSDs, slippageCollateral, SPAamt, deadline);\n\t}\n\n\t/**\n\t * @dev mint USDs by entering collateral amount (excluding ETH)\n\t * @param collateralAddr the address of user's chosen collateral\n\t * @param collateralAmt the amount of collateral to stake\n\t */\n\tfunction mintWithColla(address collateralAddr, uint collateralAmt, uint slippageUSDs, uint slippageSPA, uint deadline)\n\t\tpublic\n\t\twhenMintRedeemAllowed\n\t{\n\t\trequire(collateralsInfo[collateralAddr].supported, \"Collateral not supported\");\n\t\trequire(collateralAmt > 0, \"Amount needs to be greater than 0\");\n\t\t_mint(collateralAddr, collateralAmt, 2, slippageUSDs, collateralAmt, slippageSPA, deadline);\n\t}\n\n\t/**\n\t * @dev mint USDs by ETH\n\t * note: this function needs changes when USDs is deployed on other blockchain platform\n\t */\n\tfunction mintWithEth(uint slippageUSDs, uint slippageSPA, uint deadline) public payable whenMintRedeemAllowed {\n\t\trequire(msg.value > 0, \"Need to pay Ether\");\n\t\t_mint(address(0), msg.value, 3, slippageUSDs, msg.value, slippageSPA, deadline);\n\t}\n\n\n\t/**\n\t * @dev the generic, internal mint function\n\t * @param collateralAddr the address of the collateral\n\t * @param valueAmt the amount of tokens (the specific meaning depends on valueType)\n\t * @param valueType the type of tokens (specific meanings are listed lower)\n\t *\t\tvalueType = 0: mintWithUSDs\n\t *\t\tvalueType = 1: mintWithSPA\n\t *\t\tvalueType = 2: mintWithColla\n\t *\t\tvalueType = 3: mintWithETH\n\t */\n\tfunction _mint(\n\t\taddress collateralAddr,\n\t\tuint valueAmt,\n\t\tuint8 valueType,\n\t\tuint slippageUSDs,\n\t\tuint slippageCollat,\n\t\tuint slippageSPA,\n\t\tuint deadline\n\t) internal whenMintRedeemAllowed {\n\t\t// calculate all necessary related quantities based on user inputs\n\t\t(uint SPABurnAmt, uint collateralDepAmt, uint USDsAmt, uint swapFeeAmount) = VaultCoreLibrary.mintView(collateralAddr, valueAmt, valueType, address(this));\n\n\t\t// slippageUSDs is the minimum value of the minted USDs\n\t\t// slippageCollat is the maximum value of the required collateral\n\t\t// slippageSPA is the maximum value of the required spa\n\t\trequire(USDsAmt >= slippageUSDs, \"USDs amount is lower than the maximum slippage\");\n\t\trequire(collateralDepAmt <= slippageCollat, \"Collateral amount is more than the maximum slippage\");\n\t\trequire(SPABurnAmt <= slippageSPA, \"SPA amount is more than the maximum slippage\");\n\t\trequire(block.timestamp <= deadline, \"Deadline expired\");\n\n\t\t// burn SPA tokens\n\t\tISperaxToken(SPAaddr).burnFrom(msg.sender, SPABurnAmt);\n\t\tSPAburnt = SPAburnt.add(SPABurnAmt);\n\t\t// if it it not mintWithETH, stake collaterals\n\t\tif (valueType != 3) {\n\t\t\tERC20Upgradeable(collateralAddr).safeTransferFrom(msg.sender, address(this), collateralDepAmt);\n\t\t}\n\t\t// mint USDs and collect swapIn fees\n\t\tUSDsInstance.mint(msg.sender, USDsAmt);\n\t\tUSDsInstance.mint(address(this), swapFeeAmount);\n\t\temit USDsMinted(msg.sender, USDsAmt, collateralDepAmt, SPABurnAmt, swapFeeAmount);\n\t}\n\n\t/**\n\t *\n\t */\n\tfunction redeem(address collateralAddr, uint USDsAmt, uint slippageCollat, uint slippageSPA, uint deadline)\n\t\tpublic\n\t\twhenMintRedeemAllowed\n\t{\n\t\trequire(collateralsInfo[collateralAddr].supported, \"Collateral not supported\");\n\t\trequire(USDsAmt > 0, \"Amount needs to be greater than 0\");\n\t\t_redeem(collateralAddr, USDsAmt, slippageCollat, slippageSPA, deadline);\n\t}\n\n\t/**\n\t *\n\t */\n\tfunction redeemWithEth(uint USDsAmt, uint slippageEth, uint slippageSPA, uint deadline)\n\t\tpublic\n\t\twhenMintRedeemAllowed\n\t{\n\t\trequire(USDsAmt > 0, \"Amount needs to be greater than 0\");\n\t\t_redeem(address(0), USDsAmt, slippageEth, slippageSPA, deadline);\n\t}\n\n\tfunction _redeem(\n\t\taddress collateralAddr,\n\t\tuint USDsAmt,\n\t\tuint slippageCollat,\n\t\tuint slippageSPA,\n\t\tuint deadline\n\t) internal whenMintRedeemAllowed {\n\t\t(uint SPAMintAmt, uint collateralUnlockedAmt, uint USDsBurntAmt, uint swapFeeAmount) = VaultCoreLibrary.redeemView(collateralAddr, USDsAmt, address(this), oracleAddr);\n\n\t\t// slippageCollat is the minimum value of the unlocked collateral\n\t\t// slippageSPA is the minimum value of the minted spa\n\t\trequire(collateralUnlockedAmt >= slippageCollat, \"Collateral amount is lower than the maximum slippage\");\n\t\trequire(SPAMintAmt >= slippageSPA, \"SPA amount is lower than the maximum slippage\");\n\t\trequire(block.timestamp <= deadline, \"Deadline expired\");\n\n\t\tISperaxToken(SPAaddr).mintForUSDs(msg.sender, SPAMintAmt);\n\t\tSPAminted = SPAminted.add(SPAMintAmt);\n\n\t\tif (collateralAddr == address(0)) {\n\t\t\t(bool sent, ) = msg.sender.call{value: collateralUnlockedAmt}(\"\");\n\t\t\trequire(sent, \"Failed to send Ether\");\n\t\t} else {\n\t\t\tERC20Upgradeable(collateralAddr).safeTransfer(msg.sender, collateralUnlockedAmt);\n\t\t}\n\t\tUSDsInstance.burn(msg.sender, USDsBurntAmt);\n\t\tUSDsInstance.transferFrom(msg.sender, address(this), swapFeeAmount);\n\n\t\temit USDsRedeemed(msg.sender, USDsBurntAmt, collateralUnlockedAmt,SPAMintAmt, swapFeeAmount);\n\t}\n\n\t/**\n\t * @dev Calculate the total value of collaterals held by the Vault and all\n\t *      strategies and update the supply of USDs.\n\t */\n\tfunction rebase() external onlyOwner {\n\t\t_rebase();\n\t}\n\n\t/**\n\t * @dev Calculate the total value of collaterals held by the Vault and all\n\t *      strategies and update the supply of USDs, optionaly sending a\n\t *      portion of the yield to the trustee.\n\t */\n\tfunction _rebase() internal {\n\t\tIStrategy strategy;\n\t\tcollateralStruct memory collateral;\n\t\tuint newTokensAmt;\n\t\tuint USDsSupply = USDsInstance._totalSupply();\n\t\tuint USDsSupplyIncrementTotal;\n\t\tuint USDsReceived;\n\t\tfor (uint y = 0; y < allCollaterals.length; y++) {\n\t\t\tcollateral = allCollaterals[y];\n\t\t\tstrategy = IStrategy(collateral.defaultStrategyAddr);\n\t\t\tnewTokensAmt = strategy.checkInterestEarned(collateral.collateralAddr);\n\t\t\tif (newTokensAmt > 0 && collateral.rebaseAllowed) {\n\t\t\t\tstrategy.withdraw(address(this), collateral.collateralAddr, newTokensAmt);\n\t\t\t\tUSDsReceived = IBuyback(collateral.buyBackAddr).swapExactInputSingle(newTokensAmt);\n\t\t\t\tUSDsInstance.burn(address(this), USDsReceived);\n\t\t\t\tUSDsSupplyIncrementTotal = USDsSupplyIncrementTotal.add(USDsReceived);\n\t\t\t}\n\t\t}\n\t\tuint USDsNewSupply = USDsSupply.add(USDsSupplyIncrementTotal);\n\t\tUSDsInstance.changeSupply(USDsNewSupply);\n\t\temit Rebase(USDsSupply, USDsNewSupply);\n\t}\n\t//\n\t// /**\n\t//  * @dev  _precision: same as chi (chi_prec)\n\t//  */\n\t//\n\tfunction collateralRatio() public view override returns (uint ratio) {\n\t\tuint totalValueLocked = _totalValueLocked();\n\t\tuint USDsSupply = USDsInstance.totalSupply();\n\t\tuint priceUSDs = uint(IOracle(oracleAddr).getUSDsPrice());\n\t\tuint precisionUSDs = IOracle(oracleAddr).getUSDsPrice_prec();\n\t\tuint USDsValue = USDsSupply.mul(priceUSDs).div(precisionUSDs);\n\t\tratio = totalValueLocked.mul(chi_prec).div(USDsValue);\n\t}\n\n\tfunction totalValueLocked() external view returns (uint value) {\n\t\tvalue = _totalValueLocked();\n\t}\n\n\tfunction _totalValueLocked() internal view returns (uint value) {\n\t\tvalue = _totalValueInVault().add(_totalValueInStrategies());\n\t}\n\n\tfunction totalValueInVault() external view returns (uint value) {\n\t\tvalue = _totalValueInVault();\n\t}\n\n\tfunction _totalValueInVault() internal view returns (uint value) {\n\t\tfor (uint y = 0; y < allCollaterals.length; y++) {\n\t\t\tcollateralStruct memory collateral = allCollaterals[y];\n\t\t\tuint priceColla = IOracle(oracleAddr).getCollateralPrice(collateral.collateralAddr);\n\t\t\tuint precisionColla = IOracle(oracleAddr).getCollateralPrice_prec(collateral.collateralAddr);\n\t\t\tuint collateralAddrDecimal = uint(ERC20Upgradeable(collateral.collateralAddr).decimals());\n\t\t\tuint collaTotalValueInVault = ERC20Upgradeable(collateral.collateralAddr).balanceOf(address(this)).mul(priceColla).div(precisionColla);\n\t\t\tuint collaTotalValueInVault_18 = collaTotalValueInVault.mul(10**(uint(18).sub(collateralAddrDecimal)));\n\t\t\tvalue = value.add(collaTotalValueInVault_18);\n\t\t}\n\t}\n\n\tfunction totalValueInStrategies() external view returns (uint value) {\n\t\tvalue = _totalValueInStrategies();\n\t}\n\n\tfunction _totalValueInStrategies() internal view returns (uint value) {\n\t\tfor (uint i = 0; i < allStrategies.length; i++) {\n\t\t\tif (allStrategies[i].enabled) {\n\t\t\t\tvalue = value.add(_totalValueInStrategy(allStrategies[i].strategyAddr));\n\t\t\t}\n\t\t}\n\t}\n\n\tfunction _totalValueInStrategy(address _strategyAddr) internal view returns (uint value) {\n\t\tIStrategy strategy = IStrategy(_strategyAddr);\n\t\tfor (uint y = 0; y < allCollaterals.length; y++) {\n\t\t\tcollateralStruct memory collateral = allCollaterals[y];\n\t\t\tif (strategy.supportsCollateral(collateral.collateralAddr)) {\n\t\t\t\tuint priceColla = IOracle(oracleAddr).getCollateralPrice(collateral.collateralAddr);\n\t\t\t\tuint precisionColla = IOracle(oracleAddr).getCollateralPrice_prec(collateral.collateralAddr);\n\t\t\t\tuint collateralAddrDecimal = uint(ERC20Upgradeable(collateral.collateralAddr).decimals());\n\t\t\t\tuint collaTotalValueInStrategy = strategy.checkBalance(collateral.collateralAddr).mul(priceColla).div(precisionColla);\n\t\t\t\tuint collaTotalValueInStrategy_18 = collaTotalValueInStrategy.mul(10**(uint(18).sub(collateralAddrDecimal)));\n\t\t\t\tvalue = value.add(collaTotalValueInStrategy_18);\n\t\t\t}\n\t\t}\n\t}\n\n\t/**\n\t\t* @notice Allocate unallocated funds on Vault to strategies.\n\t\t* @dev Allocate unallocated funds on Vault to strategies.\n\t\t**/\n\tfunction allocateAll() external whenAllocationAllowed onlyOwner {\n\t\tfor (uint i = 0; i < allCollaterals.length; i++) {\n\t\t\tcollateralStruct memory collateral = allCollaterals[i];\n\t\t\tif (collateral.supported && collateral.allocationAllowed) {\n\t\t\t\tIStrategy strategyInstance = IStrategy(collateral.defaultStrategyAddr);\n\t\t\t\tuint amtInVault = ERC20Upgradeable(collateral.collateralAddr).balanceOf(address(this));\n\t\t\t\tuint amtInStrategy = strategyInstance.checkBalance(collateral.collateralAddr);\n\t\t\t\tuint amtTotal = amtInVault.add(amtInStrategy);\n\t\t\t\t(, uint amtToAllocate) = amtTotal.mul(allocatePrecentage).div(allocatePrecentage_prec).trySub(amtInStrategy);\n\t\t\t\tif (amtToAllocate > 0) {\n\t\t\t\t\t_allocate(collateral.collateralAddr, amtToAllocate);\n\t\t\t\t}\n\t\t\t}\n\t\t}\n\t}\n\n\tfunction allocate(address _collateralAddr, uint amtToAllocate) external whenAllocationAllowed onlyOwner {\n\t\t_allocate(_collateralAddr, amtToAllocate);\n\t}\n\n\t/**\n\t* @notice Allocate unallocated funds on Vault to strategies.\n\t* @dev Allocate unallocated funds on Vault to strategies.\n\t**/\n\tfunction _allocate(address _collateralAddr, uint amtToAllocate) internal {\n\t\tcollateralStruct memory collateral = collateralsInfo[_collateralAddr];\n\t\trequire(collateral.supported, \"_allocate: Collateral not supported. \");\n\t\trequire(collateral.defaultStrategyAddr != address(0), \"_allocate: Strategy not set. \");\n\t\trequire(collateral.allocationAllowed, \"_allocate: Allocation not allowed. \");\n\t\tIStrategy strategyInstance = IStrategy(collateralsInfo[_collateralAddr].defaultStrategyAddr);\n\t\tstrategyStruct memory strategy = strategiesInfo[collateralsInfo[_collateralAddr].defaultStrategyAddr];\n\t\trequire(strategy.strategyAddr != address(0), \"_allocate: Strategy not set. \");\n\t\trequire(strategy.enabled, \"_allocate: Strategy not enabled. \");\n\t\trequire(amtToAllocate > 0, \"_allocate: amtToAllocate should be positive. \");\n\t\tERC20Upgradeable(_collateralAddr).safeTransfer(collateral.defaultStrategyAddr, amtToAllocate);\n\t\tstrategyInstance.deposit(_collateralAddr, amtToAllocate);\n\t}\n\n}\n",
  "sourcePath": "/Volumes/Work/Sperax/USDs/contracts/vault/VaultCore.sol",
  "compiler": {
    "name": "solc",
    "version": "0.6.12+commit.27d51765.Emscripten.clang"
  },
  "schemaVersion": "3.4.0",
  "updatedAt": "2021-10-15T18:31:41.692Z",
  "devdoc": {
    "kind": "dev",
    "methods": {
      "allocateAll()": {
        "details": "Allocate unallocated funds on Vault to strategies.*"
      },
      "mintWithColla(address,uint256,uint256,uint256,uint256)": {
        "details": "mint USDs by entering collateral amount (excluding ETH)",
        "params": {
          "collateralAddr": "the address of user's chosen collateral",
          "collateralAmt": "the amount of collateral to stake"
        }
      },
      "mintWithEth(uint256,uint256,uint256)": {
        "details": "mint USDs by ETH note: this function needs changes when USDs is deployed on other blockchain platform"
      },
      "mintWithSPA(address,uint256,uint256,uint256,uint256)": {
        "details": "mint USDs by entering SPA amount",
        "params": {
          "SPAamt": "the amount of SPA to burn",
          "collateralAddr": "the address of user's chosen collateral"
        }
      },
      "mintWithUSDs(address,uint256,uint256,uint256,uint256)": {
        "details": "mint USDs by entering USDs amount",
        "params": {
          "USDsMintAmt": "the amount of USDs to be minted",
          "collateralAddr": "the address of user's chosen collateral"
        }
      },
      "owner()": {
        "details": "Returns the address of the current owner."
      },
      "rebase()": {
        "details": "Calculate the total value of collaterals held by the Vault and all      strategies and update the supply of USDs."
      },
      "renounceOwnership()": {
        "details": "Leaves the contract without owner. It will not be possible to call `onlyOwner` functions anymore. Can only be called by the current owner. NOTE: Renouncing ownership will leave the contract without an owner, thereby removing any functionality that is only available to the owner."
      },
      "transferOwnership(address)": {
        "details": "Transfers ownership of the contract to a new account (`newOwner`). Can only be called by the current owner."
      },
      "updateAllocationPermission(bool)": {
        "details": "disable collateral re-investment"
      },
      "updateMintBurnPermission(bool)": {
        "details": "disable USDs mint & redeem"
      },
      "updateSwapInOutFeePermission(bool,bool)": {
        "details": "disable swapInFee, i.e. mint becomes free"
      }
    },
    "version": 1
  },
  "userdoc": {
    "kind": "user",
    "methods": {
      "allocateAll()": {
        "notice": "Allocate unallocated funds on Vault to strategies."
      }
    },
    "version": 1
  }
}