{
  "contractName": "VaultCore",
  "abi": [
    {
      "anonymous": false,
      "inputs": [
        {
          "indexed": true,
          "internalType": "address",
          "name": "previousOwner",
          "type": "address"
        },
        {
          "indexed": true,
          "internalType": "address",
          "name": "newOwner",
          "type": "address"
        }
      ],
      "name": "OwnershipTransferred",
      "type": "event"
    },
    {
      "inputs": [],
      "name": "Q112",
      "outputs": [
        {
          "internalType": "uint256",
          "name": "",
          "type": "uint256"
        }
      ],
      "stateMutability": "view",
      "type": "function"
    },
    {
      "inputs": [],
      "name": "SPATokenAddr",
      "outputs": [
        {
          "internalType": "address",
          "name": "",
          "type": "address"
        }
      ],
      "stateMutability": "view",
      "type": "function"
    },
    {
      "inputs": [],
      "name": "SPAValut",
      "outputs": [
        {
          "internalType": "address",
          "name": "",
          "type": "address"
        }
      ],
      "stateMutability": "view",
      "type": "function"
    },
    {
      "inputs": [],
      "name": "USDsFeeValut",
      "outputs": [
        {
          "internalType": "address",
          "name": "",
          "type": "address"
        }
      ],
      "stateMutability": "view",
      "type": "function"
    },
    {
      "inputs": [],
      "name": "USDsYieldValut",
      "outputs": [
        {
          "internalType": "address",
          "name": "",
          "type": "address"
        }
      ],
      "stateMutability": "view",
      "type": "function"
    },
    {
      "inputs": [],
      "name": "chi",
      "outputs": [
        {
          "internalType": "uint256",
          "name": "",
          "type": "uint256"
        }
      ],
      "stateMutability": "view",
      "type": "function"
    },
    {
      "inputs": [],
      "name": "chiPresion",
      "outputs": [
        {
          "internalType": "uint256",
          "name": "",
          "type": "uint256"
        }
      ],
      "stateMutability": "view",
      "type": "function"
    },
    {
      "inputs": [],
      "name": "collaValut",
      "outputs": [
        {
          "internalType": "address",
          "name": "",
          "type": "address"
        }
      ],
      "stateMutability": "view",
      "type": "function"
    },
    {
      "inputs": [],
      "name": "isOwner",
      "outputs": [
        {
          "internalType": "bool",
          "name": "",
          "type": "bool"
        }
      ],
      "stateMutability": "view",
      "type": "function"
    },
    {
      "inputs": [],
      "name": "mintRedeemAllowed",
      "outputs": [
        {
          "internalType": "bool",
          "name": "",
          "type": "bool"
        }
      ],
      "stateMutability": "view",
      "type": "function"
    },
    {
      "inputs": [],
      "name": "oracleAddr",
      "outputs": [
        {
          "internalType": "address",
          "name": "",
          "type": "address"
        }
      ],
      "stateMutability": "view",
      "type": "function"
    },
    {
      "inputs": [],
      "name": "owner",
      "outputs": [
        {
          "internalType": "address",
          "name": "",
          "type": "address"
        }
      ],
      "stateMutability": "view",
      "type": "function"
    },
    {
      "inputs": [],
      "name": "renounceOwnership",
      "outputs": [],
      "stateMutability": "nonpayable",
      "type": "function"
    },
    {
      "inputs": [],
      "name": "swapFeePresion",
      "outputs": [
        {
          "internalType": "uint256",
          "name": "",
          "type": "uint256"
        }
      ],
      "stateMutability": "view",
      "type": "function"
    },
    {
      "inputs": [
        {
          "internalType": "address",
          "name": "newOwner",
          "type": "address"
        }
      ],
      "name": "transferOwnership",
      "outputs": [],
      "stateMutability": "nonpayable",
      "type": "function"
    },
    {
      "inputs": [],
      "name": "calculateSwapFeeIn",
      "outputs": [
        {
          "internalType": "uint256",
          "name": "swapFeeIn",
          "type": "uint256"
        }
      ],
      "stateMutability": "nonpayable",
      "type": "function"
    },
    {
      "inputs": [],
      "name": "calculateSwapFeeOut",
      "outputs": [
        {
          "internalType": "uint256",
          "name": "swapFeeOut",
          "type": "uint256"
        }
      ],
      "stateMutability": "nonpayable",
      "type": "function"
    },
    {
      "inputs": [
        {
          "internalType": "address",
          "name": "collaAddr",
          "type": "address"
        },
        {
          "internalType": "uint256",
          "name": "USDsAmt",
          "type": "uint256"
        }
      ],
      "name": "mint",
      "outputs": [],
      "stateMutability": "nonpayable",
      "type": "function"
    },
    {
      "inputs": [
        {
          "internalType": "address",
          "name": "collaAddr",
          "type": "address"
        },
        {
          "internalType": "uint256",
          "name": "USDsAmt",
          "type": "uint256"
        }
      ],
      "name": "redeem",
      "outputs": [],
      "stateMutability": "nonpayable",
      "type": "function"
    },
    {
      "inputs": [],
      "name": "rebase",
      "outputs": [],
      "stateMutability": "nonpayable",
      "type": "function"
    },
    {
      "inputs": [],
      "name": "totalValue",
      "outputs": [
        {
          "internalType": "uint256",
          "name": "value",
          "type": "uint256"
        }
      ],
      "stateMutability": "view",
      "type": "function"
    },
    {
      "inputs": [
        {
          "internalType": "address",
          "name": "_asset",
          "type": "address"
        }
      ],
      "name": "checkBalance",
      "outputs": [
        {
          "internalType": "uint256",
          "name": "",
          "type": "uint256"
        }
      ],
      "stateMutability": "view",
      "type": "function"
    }
  ],
  "bytecode": "0x608060405260008060006101000a81548160ff02191690831515021790555062017318600a5534801561003157600080fd5b5061004061010260201b60201c565b600c60006101000a81548173ffffffffffffffffffffffffffffffffffffffff021916908373ffffffffffffffffffffffffffffffffffffffff160217905550600c60009054906101000a900473ffffffffffffffffffffffffffffffffffffffff1673ffffffffffffffffffffffffffffffffffffffff16600073ffffffffffffffffffffffffffffffffffffffff167f8be0079c531659141344cd1fd0a4f28419497f9722a3daafe3b4186f6b6457e060405160405180910390a361010a565b600033905090565b6123cb806101196000396000f3fe608060405234801561001057600080fd5b50600436106101425760003560e01c806382dd391c116100b8578063c92aecc41161007c578063c92aecc4146103f5578063cc31fccb14610413578063ceee77ed14610447578063d4c3eea01461047b578063f2fde38b14610499578063f62f8430146104dd57610142565b806382dd391c146103455780638da5cb5b146103635780638f32d59b14610397578063af14052c146103b7578063be002f6e146103c157610142565b80634b5214991161010a5780634b5214991461025357806357635e911461027157806358ef165e146102915780635f515226146102af578063715018a6146103075780637e4e61d71461031157610142565b806316e63e30146101475780631e9a69501461017b5780633bf7a83e146101c957806340c10f19146101e757806343ee5cdc14610235575b600080fd5b61014f610511565b604051808273ffffffffffffffffffffffffffffffffffffffff16815260200191505060405180910390f35b6101c76004803603604081101561019157600080fd5b81019080803573ffffffffffffffffffffffffffffffffffffffff16906020019092919080359060200190929190505050610537565b005b6101d16106dd565b6040518082815260200191505060405180910390f35b610233600480360360408110156101fd57600080fd5b81019080803573ffffffffffffffffffffffffffffffffffffffff169060200190929190803590602001909291905050506106f0565b005b61023d610896565b6040518082815260200191505060405180910390f35b61025b6108a0565b6040518082815260200191505060405180910390f35b6102796108a7565b60405180821515815260200191505060405180910390f35b6102996108b8565b6040518082815260200191505060405180910390f35b6102f1600480360360208110156102c557600080fd5b81019080803573ffffffffffffffffffffffffffffffffffffffff1690602001909291905050506108bf565b6040518082815260200191505060405180910390f35b61030f6108d1565b005b610319610a0c565b604051808273ffffffffffffffffffffffffffffffffffffffff16815260200191505060405180910390f35b61034d610a32565b6040518082815260200191505060405180910390f35b61036b610a3c565b604051808273ffffffffffffffffffffffffffffffffffffffff16815260200191505060405180910390f35b61039f610a66565b60405180821515815260200191505060405180910390f35b6103bf610ac5565b005b6103c9610acf565b604051808273ffffffffffffffffffffffffffffffffffffffff16815260200191505060405180910390f35b6103fd610af5565b6040518082815260200191505060405180910390f35b61041b610afb565b604051808273ffffffffffffffffffffffffffffffffffffffff16815260200191505060405180910390f35b61044f610b21565b604051808273ffffffffffffffffffffffffffffffffffffffff16815260200191505060405180910390f35b610483610b47565b6040518082815260200191505060405180910390f35b6104db600480360360208110156104af57600080fd5b81019080803573ffffffffffffffffffffffffffffffffffffffff169060200190929190505050610b56565b005b6104e5610bdc565b604051808273ffffffffffffffffffffffffffffffffffffffff16815260200191505060405180910390f35b600460009054906101000a900473ffffffffffffffffffffffffffffffffffffffff1681565b60008054906101000a900460ff166105b7576040517f08c379a00000000000000000000000000000000000000000000000000000000081526004018080602001828103825260148152602001807f4d696e7420262072656465656d2070617573656400000000000000000000000081525060200191505060405180910390fd5b600160008373ffffffffffffffffffffffffffffffffffffffff1673ffffffffffffffffffffffffffffffffffffffff16815260200190815260200160002060009054906101000a900460ff16610676576040517f08c379a00000000000000000000000000000000000000000000000000000000081526004018080602001828103825260188152602001807f436f6c6c61746572616c206e6f7420737570706f72746564000000000000000081525060200191505060405180910390fd5b600081116106cf576040517f08c379a00000000000000000000000000000000000000000000000000000000081526004018080602001828103825260218152602001806123046021913960400191505060405180910390fd5b6106d98282610c02565b5050565b6e01000000000000000000000000000081565b60008054906101000a900460ff16610770576040517f08c379a00000000000000000000000000000000000000000000000000000000081526004018080602001828103825260148152602001807f4d696e7420262072656465656d2070617573656400000000000000000000000081525060200191505060405180910390fd5b600160008373ffffffffffffffffffffffffffffffffffffffff1673ffffffffffffffffffffffffffffffffffffffff16815260200190815260200160002060009054906101000a900460ff1661082f576040517f08c379a00000000000000000000000000000000000000000000000000000000081526004018080602001828103825260188152602001807f436f6c6c61746572616c206e6f7420737570706f72746564000000000000000081525060200191505060405180910390fd5b60008111610888576040517f08c379a00000000000000000000000000000000000000000000000000000000081526004018080602001828103825260218152602001806123046021913960400191505060405180910390fd5b61089282826111b1565b5050565b60006103e8905090565b620f424081565b60008054906101000a900460ff1681565b620186a081565b60006108ca8261175f565b9050919050565b6108d9610a66565b61094b576040517f08c379a00000000000000000000000000000000000000000000000000000000081526004018080602001828103825260208152602001807f4f776e61626c653a2063616c6c6572206973206e6f7420746865206f776e657281525060200191505060405180910390fd5b600073ffffffffffffffffffffffffffffffffffffffff16600c60009054906101000a900473ffffffffffffffffffffffffffffffffffffffff1673ffffffffffffffffffffffffffffffffffffffff167f8be0079c531659141344cd1fd0a4f28419497f9722a3daafe3b4186f6b6457e060405160405180910390a36000600c60006101000a81548173ffffffffffffffffffffffffffffffffffffffff021916908373ffffffffffffffffffffffffffffffffffffffff160217905550565b600560009054906101000a900473ffffffffffffffffffffffffffffffffffffffff1681565b60006103e8905090565b6000600c60009054906101000a900473ffffffffffffffffffffffffffffffffffffffff16905090565b6000600c60009054906101000a900473ffffffffffffffffffffffffffffffffffffffff1673ffffffffffffffffffffffffffffffffffffffff16610aa961180f565b73ffffffffffffffffffffffffffffffffffffffff1614905090565b610acd611817565b565b600860009054906101000a900473ffffffffffffffffffffffffffffffffffffffff1681565b600a5481565b600960009054906101000a900473ffffffffffffffffffffffffffffffffffffffff1681565b600660009054906101000a900473ffffffffffffffffffffffffffffffffffffffff1681565b6000610b51611971565b905090565b610b5e610a66565b610bd0576040517f08c379a00000000000000000000000000000000000000000000000000000000081526004018080602001828103825260208152602001807f4f776e61626c653a2063616c6c6572206973206e6f7420746865206f776e657281525060200191505060405180910390fd5b610bd981611999565b50565b600760009054906101000a900473ffffffffffffffffffffffffffffffffffffffff1681565b60008054906101000a900460ff16610c82576040517f08c379a00000000000000000000000000000000000000000000000000000000081526004018080602001828103825260148152602001807f4d696e7420262072656465656d2070617573656400000000000000000000000081525060200191505060405180910390fd5b6000600560009054906101000a900473ffffffffffffffffffffffffffffffffffffffff1673ffffffffffffffffffffffffffffffffffffffff1663aea91078846040518263ffffffff1660e01b8152600401808273ffffffffffffffffffffffffffffffffffffffff16815260200191505060206040518083038186803b158015610d0d57600080fd5b505afa158015610d21573d6000803e3d6000fd5b505050506040513d6020811015610d3757600080fd5b810190808051906020019092919050505090506000600560009054906101000a900473ffffffffffffffffffffffffffffffffffffffff1673ffffffffffffffffffffffffffffffffffffffff166312dd85ee6040518163ffffffff1660e01b815260040160206040518083038186803b158015610db457600080fd5b505afa158015610dc8573d6000803e3d6000fd5b505050506040513d6020811015610dde57600080fd5b810190808051906020019092919050505090506000610dfb610a32565b90506000610e3b83610e2d620186a0610e1f600a548a611adf90919063ffffffff16565b611b6590919063ffffffff16565b611b6590919063ffffffff16565b90506000821115610e8357610e80610e71620f4240610e638585611adf90919063ffffffff16565b611b6590919063ffffffff16565b82611baf90919063ffffffff16565b90505b610ed2600760009054906101000a900473ffffffffffffffffffffffffffffffffffffffff1633838973ffffffffffffffffffffffffffffffffffffffff16611bf9909392919063ffffffff16565b6000610f1585610f07620186a0610ef9600a54620186a0038b611adf90919063ffffffff16565b611b6590919063ffffffff16565b611b6590919063ffffffff16565b90506000831115610f5d57610f5a610f4b620f4240610f3d8685611adf90919063ffffffff16565b611b6590919063ffffffff16565b82611baf90919063ffffffff16565b90505b610fac600660009054906101000a900473ffffffffffffffffffffffffffffffffffffffff1633838a73ffffffffffffffffffffffffffffffffffffffff16611bf9909392919063ffffffff16565b600b60009054906101000a900473ffffffffffffffffffffffffffffffffffffffff1673ffffffffffffffffffffffffffffffffffffffff16639dc29fac33611025611016620f4240611008898d611adf90919063ffffffff16565b611b6590919063ffffffff16565b8a611baf90919063ffffffff16565b6040518363ffffffff1660e01b8152600401808373ffffffffffffffffffffffffffffffffffffffff16815260200182815260200192505050600060405180830381600087803b15801561107857600080fd5b505af115801561108c573d6000803e3d6000fd5b50505050600b60009054906101000a900473ffffffffffffffffffffffffffffffffffffffff1673ffffffffffffffffffffffffffffffffffffffff1663a9059cbb600860009054906101000a900473ffffffffffffffffffffffffffffffffffffffff16611119620f424061110b888c611adf90919063ffffffff16565b611b6590919063ffffffff16565b6040518363ffffffff1660e01b8152600401808373ffffffffffffffffffffffffffffffffffffffff16815260200182815260200192505050602060405180830381600087803b15801561116c57600080fd5b505af1158015611180573d6000803e3d6000fd5b505050506040513d602081101561119657600080fd5b81019080805190602001909291905050505050505050505050565b60008054906101000a900460ff16611231576040517f08c379a00000000000000000000000000000000000000000000000000000000081526004018080602001828103825260148152602001807f4d696e7420262072656465656d2070617573656400000000000000000000000081525060200191505060405180910390fd5b6000600560009054906101000a900473ffffffffffffffffffffffffffffffffffffffff1673ffffffffffffffffffffffffffffffffffffffff1663aea91078846040518263ffffffff1660e01b8152600401808273ffffffffffffffffffffffffffffffffffffffff16815260200191505060206040518083038186803b1580156112bc57600080fd5b505afa1580156112d0573d6000803e3d6000fd5b505050506040513d60208110156112e657600080fd5b810190808051906020019092919050505090506000600560009054906101000a900473ffffffffffffffffffffffffffffffffffffffff1673ffffffffffffffffffffffffffffffffffffffff166312dd85ee6040518163ffffffff1660e01b815260040160206040518083038186803b15801561136357600080fd5b505afa158015611377573d6000803e3d6000fd5b505050506040513d602081101561138d57600080fd5b8101908080519060200190929190505050905060006113aa610896565b905060006113ea836113dc620186a06113ce600a548a611adf90919063ffffffff16565b611b6590919063ffffffff16565b611b6590919063ffffffff16565b905060008211156114325761142f611420620f42406114128585611adf90919063ffffffff16565b611b6590919063ffffffff16565b82611cba90919063ffffffff16565b90505b600460009054906101000a900473ffffffffffffffffffffffffffffffffffffffff1673ffffffffffffffffffffffffffffffffffffffff166379cc679033836040518363ffffffff1660e01b8152600401808373ffffffffffffffffffffffffffffffffffffffff16815260200182815260200192505050600060405180830381600087803b1580156114c557600080fd5b505af11580156114d9573d6000803e3d6000fd5b50505050600061152085611512620186a0611504600a54620186a0038b611adf90919063ffffffff16565b611b6590919063ffffffff16565b611b6590919063ffffffff16565b9050600083111561156857611565611556620f42406115488685611adf90919063ffffffff16565b611b6590919063ffffffff16565b82611cba90919063ffffffff16565b90505b6115b733600660009054906101000a900473ffffffffffffffffffffffffffffffffffffffff16838a73ffffffffffffffffffffffffffffffffffffffff16611bf9909392919063ffffffff16565b600b60009054906101000a900473ffffffffffffffffffffffffffffffffffffffff1673ffffffffffffffffffffffffffffffffffffffff166340c10f1933886040518363ffffffff1660e01b8152600401808373ffffffffffffffffffffffffffffffffffffffff16815260200182815260200192505050600060405180830381600087803b15801561164a57600080fd5b505af115801561165e573d6000803e3d6000fd5b50505050600b60009054906101000a900473ffffffffffffffffffffffffffffffffffffffff1673ffffffffffffffffffffffffffffffffffffffff166340c10f19600860009054906101000a900473ffffffffffffffffffffffffffffffffffffffff166116eb620f42406116dd888c611adf90919063ffffffff16565b611b6590919063ffffffff16565b6040518363ffffffff1660e01b8152600401808373ffffffffffffffffffffffffffffffffffffffff16815260200182815260200192505050600060405180830381600087803b15801561173e57600080fd5b505af1158015611752573d6000803e3d6000fd5b5050505050505050505050565b6000808290508073ffffffffffffffffffffffffffffffffffffffff166370a08231306040518263ffffffff1660e01b8152600401808273ffffffffffffffffffffffffffffffffffffffff16815260200191505060206040518083038186803b1580156117cc57600080fd5b505afa1580156117e0573d6000803e3d6000fd5b505050506040513d60208110156117f657600080fd5b8101908080519060200190929190505050915050919050565b600033905090565b6000600b60009054906101000a900473ffffffffffffffffffffffffffffffffffffffff1673ffffffffffffffffffffffffffffffffffffffff166318160ddd6040518163ffffffff1660e01b815260040160206040518083038186803b15801561188157600080fd5b505afa158015611895573d6000803e3d6000fd5b505050506040513d60208110156118ab57600080fd5b8101908080519060200190929190505050905060006118c8611971565b905081811180156118da575060008214155b1561196d57600b60009054906101000a900473ffffffffffffffffffffffffffffffffffffffff1673ffffffffffffffffffffffffffffffffffffffff166339a7919f826040518263ffffffff1660e01b815260040180828152602001915050600060405180830381600087803b15801561195457600080fd5b505af1158015611968573d6000803e3d6000fd5b505050505b5050565b600061199461197e611d42565b611986611dbc565b611cba90919063ffffffff16565b905090565b600073ffffffffffffffffffffffffffffffffffffffff168173ffffffffffffffffffffffffffffffffffffffff161415611a1f576040517f08c379a00000000000000000000000000000000000000000000000000000000081526004018080602001828103825260268152602001806122de6026913960400191505060405180910390fd5b8073ffffffffffffffffffffffffffffffffffffffff16600c60009054906101000a900473ffffffffffffffffffffffffffffffffffffffff1673ffffffffffffffffffffffffffffffffffffffff167f8be0079c531659141344cd1fd0a4f28419497f9722a3daafe3b4186f6b6457e060405160405180910390a380600c60006101000a81548173ffffffffffffffffffffffffffffffffffffffff021916908373ffffffffffffffffffffffffffffffffffffffff16021790555050565b600080831415611af25760009050611b5f565b6000828402905082848281611b0357fe5b0414611b5a576040517f08c379a000000000000000000000000000000000000000000000000000000000815260040180806020018281038252602181526020018061234b6021913960400191505060405180910390fd5b809150505b92915050565b6000611ba783836040518060400160405280601a81526020017f536166654d6174683a206469766973696f6e206279207a65726f000000000000815250611dc1565b905092915050565b6000611bf183836040518060400160405280601e81526020017f536166654d6174683a207375627472616374696f6e206f766572666c6f770000815250611e87565b905092915050565b611cb4846323b872dd60e01b858585604051602401808473ffffffffffffffffffffffffffffffffffffffff1681526020018373ffffffffffffffffffffffffffffffffffffffff1681526020018281526020019350505050604051602081830303815290604052907bffffffffffffffffffffffffffffffffffffffffffffffffffffffff19166020820180517bffffffffffffffffffffffffffffffffffffffffffffffffffffffff8381831617835250505050611f47565b50505050565b600080828401905083811015611d38576040517f08c379a000000000000000000000000000000000000000000000000000000000815260040180806020018281038252601b8152602001807f536166654d6174683a206164646974696f6e206f766572666c6f77000000000081525060200191505060405180910390fd5b8091505092915050565b600080600090505b600380549050811015611db857611da9611d9a60038381548110611d6a57fe5b9060005260206000200160009054906101000a900473ffffffffffffffffffffffffffffffffffffffff16612036565b83611cba90919063ffffffff16565b91508080600101915050611d4a565b5090565b600090565b60008083118290611e6d576040517f08c379a00000000000000000000000000000000000000000000000000000000081526004018080602001828103825283818151815260200191508051906020019080838360005b83811015611e32578082015181840152602081019050611e17565b50505050905090810190601f168015611e5f5780820380516001836020036101000a031916815260200191505b509250505060405180910390fd5b506000838581611e7957fe5b049050809150509392505050565b6000838311158290611f34576040517f08c379a00000000000000000000000000000000000000000000000000000000081526004018080602001828103825283818151815260200191508051906020019080838360005b83811015611ef9578082015181840152602081019050611ede565b50505050905090810190601f168015611f265780820380516001836020036101000a031916815260200191505b509250505060405180910390fd5b5060008385039050809150509392505050565b6060611fa9826040518060400160405280602081526020017f5361666545524332303a206c6f772d6c6576656c2063616c6c206661696c65648152508573ffffffffffffffffffffffffffffffffffffffff1661203d9092919063ffffffff16565b905060008151111561203157808060200190516020811015611fca57600080fd5b8101908080519060200190929190505050612030576040517f08c379a000000000000000000000000000000000000000000000000000000000815260040180806020018281038252602a81526020018061236c602a913960400191505060405180910390fd5b5b505050565b6000919050565b606061204c8484600085612055565b90509392505050565b6060824710156120b0576040517f08c379a00000000000000000000000000000000000000000000000000000000081526004018080602001828103825260268152602001806123256026913960400191505060405180910390fd5b6120b9856121fe565b61212b576040517f08c379a000000000000000000000000000000000000000000000000000000000815260040180806020018281038252601d8152602001807f416464726573733a2063616c6c20746f206e6f6e2d636f6e747261637400000081525060200191505060405180910390fd5b600060608673ffffffffffffffffffffffffffffffffffffffff1685876040518082805190602001908083835b6020831061217b5780518252602082019150602081019050602083039250612158565b6001836020036101000a03801982511681845116808217855250505050505090500191505060006040518083038185875af1925050503d80600081146121dd576040519150601f19603f3d011682016040523d82523d6000602084013e6121e2565b606091505b50915091506121f2828286612211565b92505050949350505050565b600080823b905060008111915050919050565b60608315612221578290506122d6565b6000835111156122345782518084602001fd5b816040517f08c379a00000000000000000000000000000000000000000000000000000000081526004018080602001828103825283818151815260200191508051906020019080838360005b8381101561229b578082015181840152602081019050612280565b50505050905090810190601f1680156122c85780820380516001836020036101000a031916815260200191505b509250505060405180910390fd5b939250505056fe4f776e61626c653a206e6577206f776e657220697320746865207a65726f2061646472657373416d6f756e74206e6565647320746f2062652067726561746572207468616e2030416464726573733a20696e73756666696369656e742062616c616e636520666f722063616c6c536166654d6174683a206d756c7469706c69636174696f6e206f766572666c6f775361666545524332303a204552433230206f7065726174696f6e20646964206e6f742073756363656564a2646970667358221220ad56e06107712c8cbe55671bdcfca18d1efe7e159133a31988d2daab7621a07c64736f6c634300060c0033",
  "immutableReferences": {},
  "source": "//To-do: fix presion\n\npragma solidity ^0.6.12;\nimport \"./VaultStorage.sol\";\nimport \"../libraries/Ownable.sol\";\nimport \"../libraries/SafeERC20.sol\";\nimport \"../libraries/MyMath.sol\";\nimport \"../libraries/Helpers.sol\";\nimport \"../interfaces/IOracle.sol\";\nimport \"../interfaces/ISperaxToken.sol\";\n\ncontract VaultCore is VaultStorage, Ownable {\n\tusing SafeERC20 for IERC20;\n\tusing SafeMath for uint;\n\tusing MyMath for uint;\n\n\tmodifier whenMintRedeemAllowed {\n\t\trequire(mintRedeemAllowed, \"Mint & redeem paused\");\n\t\t_;\n\t}\n\n\n\tfunction calculateSwapFeeIn() public returns (uint swapFeeIn) {\n\t\treturn 1000;\n\t}\n\tfunction calculateSwapFeeOut() public returns (uint swapFeeOut) {\n\t\treturn 1000;\n\t}\n\n\n\tfunction mint(address collaAddr, uint USDsAmt)\n\t\tpublic\n\t\twhenMintRedeemAllowed\n\t{\n\t\trequire(supportedCollat[collaAddr], \"Collateral not supported\");\n\t\trequire(USDsAmt > 0, \"Amount needs to be greater than 0\");\n\t\t_mint(collaAddr, USDsAmt);\n\t}\n\n\tfunction _mint(\n\t\taddress collaAddr,\n\t\tuint USDsAmt\n\t) internal whenMintRedeemAllowed {\n\t\tuint priceColla = uint(IOracle(oracleAddr).price(collaAddr));\n\t\tuint priceSPA = uint(IOracle(oracleAddr).getSPAPrice());\n\t\tuint swapFee = calculateSwapFeeIn();\n\t\tuint SPABurnAmt = USDsAmt.mul(chi).div(chiPresion).div(priceSPA);\n\t\tif (swapFee > 0) {\n\t\t\tSPABurnAmt = SPABurnAmt.add(SPABurnAmt.mul(swapFee).div(swapFeePresion));\n\t\t}\n\t\tISperaxToken(SPATokenAddr).burnFrom(msg.sender, SPABurnAmt);\n\n\t\t//Deposit collaeral\n\t\tuint CollaDepAmt = USDsAmt.mul(chiPresion - chi).div(chiPresion).div(priceColla);\n\t\tif (swapFee > 0) {\n\t\t\tCollaDepAmt = CollaDepAmt.add(CollaDepAmt.mul(swapFee).div(swapFeePresion));\n\t\t}\n\t\tIERC20(collaAddr).safeTransferFrom(msg.sender, collaValut, CollaDepAmt);\n\n\t\t//Mint USDs\n\t\tUSDsInstance.mint(msg.sender, USDsAmt);\n\t\tUSDsInstance.mint(USDsFeeValut, USDsAmt.mul(swapFee).div(swapFeePresion));\n\t}\n\n\tfunction redeem(address collaAddr, uint USDsAmt)\n\t\tpublic\n\t\twhenMintRedeemAllowed\n\t{\n\t\trequire(supportedCollat[collaAddr], \"Collateral not supported\");\n\t\trequire(USDsAmt > 0, \"Amount needs to be greater than 0\");\n\t\t_redeem(collaAddr, USDsAmt);\n\t}\n\n\n\tfunction _redeem(\n\t\taddress collaAddr,\n\t\tuint USDsAmt\n\t) internal whenMintRedeemAllowed {\n\t\tuint priceColla = uint(IOracle(oracleAddr).price(collaAddr));\n\t\t//FixedPoint.uq112x112 priceSPAuq = IOracle(oracleAddr).priceSPAuq();\n\t\tuint priceSPA = uint(IOracle(oracleAddr).getSPAPrice());\n\t\tuint swapFee = calculateSwapFeeOut();\n\t\tuint SPAMintAmt = USDsAmt.mul(chi).div(chiPresion).div(priceSPA);\n\t\tif (swapFee > 0) {\n\t\t\tSPAMintAmt = SPAMintAmt.sub(SPAMintAmt.mul(swapFee).div(swapFeePresion));\n\t\t}\n\t\tIERC20(collaAddr).safeTransferFrom(SPAValut, msg.sender, SPAMintAmt);\n\n\t\t//Unlock collaeral\n\t\tuint CollaUnlockAmt = USDsAmt.mul(chiPresion - chi).div(chiPresion).div(priceColla);\n\t\tif (swapFee > 0) {\n\t\t\tCollaUnlockAmt = CollaUnlockAmt.sub(CollaUnlockAmt.mul(swapFee).div(swapFeePresion));\n\t\t}\n\t\tIERC20(collaAddr).safeTransferFrom(collaValut, msg.sender, CollaUnlockAmt);\n\n\t\t//Burn USDs\n\t\tUSDsInstance.burn(msg.sender, USDsAmt.sub(USDsAmt.mul(swapFee).div(swapFeePresion)));\n\t\tUSDsInstance.transfer(USDsFeeValut, USDsAmt.mul(swapFee).div(swapFeePresion));\n\t}\n\n\t/**\n\t * @dev Calculate the total value of assets held by the Vault and all\n\t *      strategies and update the supply of USDs.\n\t */\n\tfunction rebase() public {\n\t\t_rebase();\n\t}\n\n\t/**\n\t * @dev Calculate the total value of assets held by the Vault and all\n\t *      strategies and update the supply of USDs, optionaly sending a\n\t *      portion of the yield to the trustee.\n\t */\n\tfunction _rebase() internal {\n\t\tuint256 totalSupply = USDsInstance.totalSupply();\n\t\tuint256 vaultValue = _totalValue();\n\n\t\tif (vaultValue > totalSupply && totalSupply != 0) {\n\t\t\tUSDsInstance.changeSupply(vaultValue);\n\t\t}\n\t}\n\n\t/**\n     * @dev Determine the total value of assets held by the vault and its\n     *         strategies.\n     * @return value Total value in USD (1e18)\n     */\n    function totalValue() external view returns (uint256 value) {\n        value = _totalValue();\n    }\n\n    /**\n     * @dev Internal Calculate the total value of the assets held by the\n     *         vault and its strategies.\n     * @return value Total value in USD (1e18)\n     */\n    function _totalValue() internal view returns (uint256 value) {\n        return _totalValueInVault().add(_totalValueInStrategies());\n    }\n\n    /**\n     * @dev Internal to calculate total value of all assets held in Vault.\n     * @return value in ETH (1e18)\n     */\n    function _totalValueInVault() internal view returns (uint256 value) {\n        // for (uint256 y = 0; y < allCollat.length; y++) {\n        //     IERC20 asset = IERC20(allCollat[y]);\n        //     uint256 assetDecimals = Helpers.getDecimals(allCollat[y]);\n        //     uint256 balance = asset.balanceOf(address(this));\n        //     if (balance > 0) {\n        //         value = value.add(balance.scaleBy(int8(18 - assetDecimals)));\n        //     }\n        // }\n    }\n\n    /**\n     * @dev Internal to calculate total value of all assets held in Strategies.\n     * @return value in ETH (1e18)\n     */\n    function _totalValueInStrategies() internal view returns (uint256 value) {\n        for (uint256 i = 0; i < allStrategies.length; i++) {\n            value = value.add(_totalValueInStrategy(allStrategies[i]));\n        }\n    }\n\n    /**\n     * @dev Internal to calculate total value of all assets held by strategy.\n     * @param _strategyAddr Address of the strategy\n     * @return value in ETH (1e18)\n     */\n    function _totalValueInStrategy(address _strategyAddr)\n        internal\n        view\n        returns (uint256 value)\n    {\n        value = 0;\n    }\n\n\t/**\n     * @notice Get the balance of an asset held in Vault and all strategies.\n     * @param _asset Address of asset\n     * @return uint256 Balance of asset in decimals of asset\n     */\n    function checkBalance(address _asset) external view returns (uint256) {\n        return _checkBalance(_asset);\n    }\n\n    /**\n     * @notice Get the balance of an asset held in Vault and all strategies.\n     * @param _asset Address of asset\n     * @return balance Balance of asset in decimals of asset\n     */\n    function _checkBalance(address _asset)\n        internal\n        view\n        returns (uint256 balance)\n    {\n        IERC20 asset = IERC20(_asset);\n        balance = asset.balanceOf(address(this));\n        // for (uint256 i = 0; i < allStrategies.length; i++) {\n        //     IStrategy strategy = IStrategy(allStrategies[i]);\n        //     if (strategy.supportsAsset(_asset)) {\n        //         balance = balance.add(strategy.checkBalance(_asset));\n        //     }\n        // }\n    }\n\n\n\n}\n",
  "sourcePath": "/Users/daweizhao/Documents/Sperax/USDs/USDs github/USDs/contracts/vault/VaultCore.sol",
  "compiler": {
    "name": "solc",
    "version": "0.6.12+commit.27d51765.Emscripten.clang"
  },
  "schemaVersion": "3.3.4",
  "updatedAt": "2021-06-11T16:34:24.730Z",
  "devdoc": {
    "kind": "dev",
    "methods": {
      "checkBalance(address)": {
        "params": {
          "_asset": "Address of asset"
        },
        "returns": {
          "_0": "uint256 Balance of asset in decimals of asset"
        }
      },
      "isOwner()": {
        "details": "Returns true if the caller is the current owner."
      },
      "owner()": {
        "details": "Returns the address of the current owner."
      },
      "rebase()": {
        "details": "Calculate the total value of assets held by the Vault and all      strategies and update the supply of USDs."
      },
      "renounceOwnership()": {
        "details": "Leaves the contract without owner. It will not be possible to call `onlyOwner` functions anymore. Can only be called by the current owner. NOTE: Renouncing ownership will leave the contract without an owner, thereby removing any functionality that is only available to the owner."
      },
      "totalValue()": {
        "details": "Determine the total value of assets held by the vault and its         strategies.",
        "returns": {
          "value": "Total value in USD (1e18)"
        }
      },
      "transferOwnership(address)": {
        "details": "Transfers ownership of the contract to a new account (`newOwner`). Can only be called by the current owner."
      }
    },
    "version": 1
  },
  "userdoc": {
    "kind": "user",
    "methods": {
      "checkBalance(address)": {
        "notice": "Get the balance of an asset held in Vault and all strategies."
      }
    },
    "version": 1
  }
}