{
  "contractName": "VaultStorage",
  "abi": [
    {
      "inputs": [],
      "name": "Q112",
      "outputs": [
        {
          "internalType": "uint256",
          "name": "",
          "type": "uint256"
        }
      ],
      "stateMutability": "view",
      "type": "function"
    },
    {
      "inputs": [],
      "name": "SPATokenAddr",
      "outputs": [
        {
          "internalType": "address",
          "name": "",
          "type": "address"
        }
      ],
      "stateMutability": "view",
      "type": "function"
    },
    {
      "inputs": [],
      "name": "SPAValut",
      "outputs": [
        {
          "internalType": "address",
          "name": "",
          "type": "address"
        }
      ],
      "stateMutability": "view",
      "type": "function"
    },
    {
      "inputs": [],
      "name": "USDsFeeValut",
      "outputs": [
        {
          "internalType": "address",
          "name": "",
          "type": "address"
        }
      ],
      "stateMutability": "view",
      "type": "function"
    },
    {
      "inputs": [],
      "name": "USDsYieldValut",
      "outputs": [
        {
          "internalType": "address",
          "name": "",
          "type": "address"
        }
      ],
      "stateMutability": "view",
      "type": "function"
    },
    {
      "inputs": [],
      "name": "chi",
      "outputs": [
        {
          "internalType": "uint256",
          "name": "",
          "type": "uint256"
        }
      ],
      "stateMutability": "view",
      "type": "function"
    },
    {
      "inputs": [],
      "name": "chiPresion",
      "outputs": [
        {
          "internalType": "uint256",
          "name": "",
          "type": "uint256"
        }
      ],
      "stateMutability": "view",
      "type": "function"
    },
    {
      "inputs": [],
      "name": "collaValut",
      "outputs": [
        {
          "internalType": "address",
          "name": "",
          "type": "address"
        }
      ],
      "stateMutability": "view",
      "type": "function"
    },
    {
      "inputs": [],
      "name": "mintRedeemAllowed",
      "outputs": [
        {
          "internalType": "bool",
          "name": "",
          "type": "bool"
        }
      ],
      "stateMutability": "view",
      "type": "function"
    },
    {
      "inputs": [],
      "name": "oracleAddr",
      "outputs": [
        {
          "internalType": "address",
          "name": "",
          "type": "address"
        }
      ],
      "stateMutability": "view",
      "type": "function"
    },
    {
      "inputs": [],
      "name": "swapFeePresion",
      "outputs": [
        {
          "internalType": "uint256",
          "name": "",
          "type": "uint256"
        }
      ],
      "stateMutability": "view",
      "type": "function"
    }
  ],
  "bytecode": "0x608060405260008060006101000a81548160ff02191690831515021790555062017318600a5534801561003157600080fd5b506103d0806100416000396000f3fe608060405234801561001057600080fd5b50600436106100a95760003560e01c80637e4e61d7116100715780637e4e61d71461015c578063be002f6e14610190578063c92aecc4146101c4578063cc31fccb146101e2578063ceee77ed14610216578063f62f84301461024a576100a9565b806316e63e30146100ae5780633bf7a83e146100e25780634b5214991461010057806357635e911461011e57806358ef165e1461013e575b600080fd5b6100b661027e565b604051808273ffffffffffffffffffffffffffffffffffffffff16815260200191505060405180910390f35b6100ea6102a4565b6040518082815260200191505060405180910390f35b6101086102b7565b6040518082815260200191505060405180910390f35b6101266102be565b60405180821515815260200191505060405180910390f35b6101466102cf565b6040518082815260200191505060405180910390f35b6101646102d6565b604051808273ffffffffffffffffffffffffffffffffffffffff16815260200191505060405180910390f35b6101986102fc565b604051808273ffffffffffffffffffffffffffffffffffffffff16815260200191505060405180910390f35b6101cc610322565b6040518082815260200191505060405180910390f35b6101ea610328565b604051808273ffffffffffffffffffffffffffffffffffffffff16815260200191505060405180910390f35b61021e61034e565b604051808273ffffffffffffffffffffffffffffffffffffffff16815260200191505060405180910390f35b610252610374565b604051808273ffffffffffffffffffffffffffffffffffffffff16815260200191505060405180910390f35b600460009054906101000a900473ffffffffffffffffffffffffffffffffffffffff1681565b6e01000000000000000000000000000081565b620f424081565b60008054906101000a900460ff1681565b620186a081565b600560009054906101000a900473ffffffffffffffffffffffffffffffffffffffff1681565b600860009054906101000a900473ffffffffffffffffffffffffffffffffffffffff1681565b600a5481565b600960009054906101000a900473ffffffffffffffffffffffffffffffffffffffff1681565b600660009054906101000a900473ffffffffffffffffffffffffffffffffffffffff1681565b600760009054906101000a900473ffffffffffffffffffffffffffffffffffffffff168156fea2646970667358221220e2dd822158a69c467a84c7d2fd776dd56891cc11461147618e698a5a3421e30f64736f6c634300060c0033",
  "immutableReferences": {},
  "source": "pragma solidity ^0.6.12;\n\nimport { USDs } from \"../token/USDs.sol\";\n\ncontract VaultStorage {\n\tuint256 public constant Q112 = 0x10000000000000000000000000000;\n\n\tbool public mintRedeemAllowed = false;\n\n\tmapping(address => bool) supportedCollat;\n\taddress[] allCollat;\n\taddress[] allStrategies;\n\n\taddress public SPATokenAddr;\n\taddress public oracleAddr;\n\taddress public collaValut;\n\taddress public SPAValut;\n\taddress public USDsFeeValut;\n\taddress public USDsYieldValut;\n\n\tuint public chi = 95000;\n\tuint public constant chiPresion = 100000;\n\tuint public constant swapFeePresion = 1000000;\n\n\tUSDs USDsInstance;\n\n}\n",
  "sourcePath": "/Users/daweizhao/Documents/Sperax/USDs/USDs github/USDs/contracts/vault/VaultStorage.sol",
  "compiler": {
    "name": "solc",
    "version": "0.6.12+commit.27d51765.Emscripten.clang"
  },
  "schemaVersion": "3.3.4",
  "updatedAt": "2021-06-11T16:34:24.834Z",
  "devdoc": {
    "kind": "dev",
    "methods": {},
    "version": 1
  },
  "userdoc": {
    "kind": "user",
    "methods": {},
    "version": 1
  }
}