{
  "contractName": "VaultCore",
  "abi": [
    {
      "anonymous": false,
      "inputs": [
        {
          "indexed": true,
          "internalType": "address",
          "name": "previousOwner",
          "type": "address"
        },
        {
          "indexed": true,
          "internalType": "address",
          "name": "newOwner",
          "type": "address"
        }
      ],
      "name": "OwnershipTransferred",
      "type": "event"
    },
    {
      "inputs": [],
      "name": "SPATokenAddr",
      "outputs": [
        {
          "internalType": "address",
          "name": "",
          "type": "address"
        }
      ],
      "stateMutability": "view",
      "type": "function"
    },
    {
      "inputs": [],
      "name": "SPAValut",
      "outputs": [
        {
          "internalType": "address",
          "name": "",
          "type": "address"
        }
      ],
      "stateMutability": "view",
      "type": "function"
    },
    {
      "inputs": [],
      "name": "USDsFeeValut",
      "outputs": [
        {
          "internalType": "address",
          "name": "",
          "type": "address"
        }
      ],
      "stateMutability": "view",
      "type": "function"
    },
    {
      "inputs": [],
      "name": "USDsYieldValut",
      "outputs": [
        {
          "internalType": "address",
          "name": "",
          "type": "address"
        }
      ],
      "stateMutability": "view",
      "type": "function"
    },
    {
      "inputs": [],
      "name": "chiAlpha",
      "outputs": [
        {
          "internalType": "uint256",
          "name": "",
          "type": "uint256"
        }
      ],
      "stateMutability": "view",
      "type": "function"
    },
    {
      "inputs": [],
      "name": "chiAlpha_Presion",
      "outputs": [
        {
          "internalType": "uint256",
          "name": "",
          "type": "uint256"
        }
      ],
      "stateMutability": "view",
      "type": "function"
    },
    {
      "inputs": [],
      "name": "chiBeta",
      "outputs": [
        {
          "internalType": "uint256",
          "name": "",
          "type": "uint256"
        }
      ],
      "stateMutability": "view",
      "type": "function"
    },
    {
      "inputs": [],
      "name": "chiGamma",
      "outputs": [
        {
          "internalType": "uint256",
          "name": "",
          "type": "uint256"
        }
      ],
      "stateMutability": "view",
      "type": "function"
    },
    {
      "inputs": [],
      "name": "chiInit",
      "outputs": [
        {
          "internalType": "uint256",
          "name": "",
          "type": "uint256"
        }
      ],
      "stateMutability": "view",
      "type": "function"
    },
    {
      "inputs": [],
      "name": "chiPresion",
      "outputs": [
        {
          "internalType": "uint256",
          "name": "",
          "type": "uint256"
        }
      ],
      "stateMutability": "view",
      "type": "function"
    },
    {
      "inputs": [],
      "name": "collaValut",
      "outputs": [
        {
          "internalType": "address",
          "name": "",
          "type": "address"
        }
      ],
      "stateMutability": "view",
      "type": "function"
    },
    {
      "inputs": [],
      "name": "mintRedeemAllowed",
      "outputs": [
        {
          "internalType": "bool",
          "name": "",
          "type": "bool"
        }
      ],
      "stateMutability": "view",
      "type": "function"
    },
    {
      "inputs": [],
      "name": "oracleAddr",
      "outputs": [
        {
          "internalType": "address",
          "name": "",
          "type": "address"
        }
      ],
      "stateMutability": "view",
      "type": "function"
    },
    {
      "inputs": [],
      "name": "owner",
      "outputs": [
        {
          "internalType": "address",
          "name": "",
          "type": "address"
        }
      ],
      "stateMutability": "view",
      "type": "function"
    },
    {
      "inputs": [],
      "name": "renounceOwnership",
      "outputs": [],
      "stateMutability": "nonpayable",
      "type": "function"
    },
    {
      "inputs": [],
      "name": "swapFeePresion",
      "outputs": [
        {
          "internalType": "uint256",
          "name": "",
          "type": "uint256"
        }
      ],
      "stateMutability": "view",
      "type": "function"
    },
    {
      "inputs": [],
      "name": "swapFeeTheta",
      "outputs": [
        {
          "internalType": "uint256",
          "name": "",
          "type": "uint256"
        }
      ],
      "stateMutability": "view",
      "type": "function"
    },
    {
      "inputs": [],
      "name": "swapFee_P",
      "outputs": [
        {
          "internalType": "uint256",
          "name": "",
          "type": "uint256"
        }
      ],
      "stateMutability": "view",
      "type": "function"
    },
    {
      "inputs": [],
      "name": "swapFee_PPresion",
      "outputs": [
        {
          "internalType": "uint256",
          "name": "",
          "type": "uint256"
        }
      ],
      "stateMutability": "view",
      "type": "function"
    },
    {
      "inputs": [],
      "name": "swapfeeInAllowed",
      "outputs": [
        {
          "internalType": "bool",
          "name": "",
          "type": "bool"
        }
      ],
      "stateMutability": "view",
      "type": "function"
    },
    {
      "inputs": [],
      "name": "swapfeeOutAllowed",
      "outputs": [
        {
          "internalType": "bool",
          "name": "",
          "type": "bool"
        }
      ],
      "stateMutability": "view",
      "type": "function"
    },
    {
      "inputs": [
        {
          "internalType": "address",
          "name": "newOwner",
          "type": "address"
        }
      ],
      "name": "transferOwnership",
      "outputs": [],
      "stateMutability": "nonpayable",
      "type": "function"
    },
    {
      "inputs": [
        {
          "internalType": "address",
          "name": "USDsToken_",
          "type": "address"
        },
        {
          "internalType": "address",
          "name": "oracleAddr_",
          "type": "address"
        },
        {
          "internalType": "address",
          "name": "BancorFormulaAddr_",
          "type": "address"
        }
      ],
      "name": "initialize",
      "outputs": [],
      "stateMutability": "nonpayable",
      "type": "function"
    },
    {
      "inputs": [],
      "name": "calculateSwapFeeIn",
      "outputs": [
        {
          "internalType": "uint256",
          "name": "",
          "type": "uint256"
        }
      ],
      "stateMutability": "view",
      "type": "function"
    },
    {
      "inputs": [],
      "name": "calculateSwapFeeOut",
      "outputs": [
        {
          "internalType": "uint256",
          "name": "",
          "type": "uint256"
        }
      ],
      "stateMutability": "view",
      "type": "function"
    },
    {
      "inputs": [
        {
          "internalType": "uint256",
          "name": "chiInit_",
          "type": "uint256"
        },
        {
          "internalType": "uint256",
          "name": "blockHeight",
          "type": "uint256"
        },
        {
          "internalType": "uint256",
          "name": "priceUSDs",
          "type": "uint256"
        },
        {
          "internalType": "uint256",
          "name": "precisionUSDs",
          "type": "uint256"
        }
      ],
      "name": "chiTarget",
      "outputs": [
        {
          "internalType": "uint256",
          "name": "chiTarget_",
          "type": "uint256"
        }
      ],
      "stateMutability": "view",
      "type": "function"
    },
    {
      "inputs": [],
      "name": "chiMint",
      "outputs": [
        {
          "internalType": "uint256",
          "name": "",
          "type": "uint256"
        }
      ],
      "stateMutability": "view",
      "type": "function"
    },
    {
      "inputs": [],
      "name": "chiRedeem",
      "outputs": [
        {
          "internalType": "uint256",
          "name": "chiRedeem_",
          "type": "uint256"
        }
      ],
      "stateMutability": "view",
      "type": "function"
    },
    {
      "inputs": [
        {
          "internalType": "address",
          "name": "collaAddr",
          "type": "address"
        },
        {
          "internalType": "uint256",
          "name": "USDsAmt",
          "type": "uint256"
        }
      ],
      "name": "mint",
      "outputs": [],
      "stateMutability": "nonpayable",
      "type": "function"
    },
    {
      "inputs": [
        {
          "internalType": "address",
          "name": "collaAddr",
          "type": "address"
        },
        {
          "internalType": "uint256",
          "name": "SPAAmt",
          "type": "uint256"
        }
      ],
      "name": "mintWithSPA",
      "outputs": [],
      "stateMutability": "nonpayable",
      "type": "function"
    },
    {
      "inputs": [
        {
          "internalType": "address",
          "name": "collaAddr",
          "type": "address"
        },
        {
          "internalType": "uint256",
          "name": "CollaAmt",
          "type": "uint256"
        }
      ],
      "name": "mintWithColla",
      "outputs": [],
      "stateMutability": "nonpayable",
      "type": "function"
    },
    {
      "inputs": [
        {
          "internalType": "address",
          "name": "collaAddr",
          "type": "address"
        },
        {
          "internalType": "uint256",
          "name": "USDsAmt",
          "type": "uint256"
        }
      ],
      "name": "redeem",
      "outputs": [],
      "stateMutability": "nonpayable",
      "type": "function"
    },
    {
      "inputs": [],
      "name": "rebase",
      "outputs": [],
      "stateMutability": "nonpayable",
      "type": "function"
    },
    {
      "inputs": [],
      "name": "collateralRatio",
      "outputs": [
        {
          "internalType": "uint256",
          "name": "ratio",
          "type": "uint256"
        }
      ],
      "stateMutability": "view",
      "type": "function"
    },
    {
      "inputs": [],
      "name": "totalValue",
      "outputs": [
        {
          "internalType": "uint256",
          "name": "value",
          "type": "uint256"
        }
      ],
      "stateMutability": "view",
      "type": "function"
    },
    {
      "inputs": [
        {
          "internalType": "address",
          "name": "_asset",
          "type": "address"
        }
      ],
      "name": "checkBalance",
      "outputs": [
        {
          "internalType": "uint256",
          "name": "",
          "type": "uint256"
        }
      ],
      "stateMutability": "view",
      "type": "function"
    },
    {
      "inputs": [
        {
          "internalType": "bool",
          "name": "newAllowance",
          "type": "bool"
        }
      ],
      "name": "toggleSwapfeeInAllowed",
      "outputs": [],
      "stateMutability": "nonpayable",
      "type": "function"
    },
    {
      "inputs": [
        {
          "internalType": "bool",
          "name": "newAllowance",
          "type": "bool"
        }
      ],
      "name": "toggleSwapfeeOutAllowed",
      "outputs": [],
      "stateMutability": "nonpayable",
      "type": "function"
    }
  ],
  "bytecode": "0x608060405234801561001057600080fd5b506142e8806100206000396000f3fe608060405234801561001057600080fd5b50600436106102325760003560e01c80639145e08811610130578063cc31fccb116100b8578063e66113371161007c578063e66113371461083d578063f2fde38b1461085b578063f62f84301461089f578063faeddc90146108d3578063fff4bad1146108f157610232565b8063cc31fccb14610739578063ceee77ed1461076d578063d4c3eea0146107a1578063dfab838d146107bf578063e4a584a71461081f57610232565b8063b4eae1cb116100ff578063b4eae1cb146105e5578063bbfd838114610603578063be002f6e14610633578063c0c53b8b14610667578063c290817f146106eb57610232565b80639145e0881461056d578063a09caa181461058b578063ae67fbb1146105ab578063af14052c146105db57610232565b80635f515226116101be5780637e4e61d7116101825780637e4e61d7146104ab57806380e18135146104df57806382dd391c146104fd5780638714a6d31461051b5780638da5cb5b1461053957610232565b80635f515226146103bd578063638372c11461041557806363a018e3146104335780637080460f14610481578063715018a6146104a157610232565b806343ee5cdc1161020557806343ee5cdc146103255780634b5214991461034357806357635e911461036157806358ef165e146103815780635b9120511461039f57610232565b806316e63e30146102375780631e9a69501461026b578063356c61ea146102b957806340c10f19146102d7575b600080fd5b61023f61090f565b604051808273ffffffffffffffffffffffffffffffffffffffff16815260200191505060405180910390f35b6102b76004803603604081101561028157600080fd5b81019080803573ffffffffffffffffffffffffffffffffffffffff16906020019092919080359060200190929190505050610935565b005b6102c1610add565b6040518082815260200191505060405180910390f35b610323600480360360408110156102ed57600080fd5b81019080803573ffffffffffffffffffffffffffffffffffffffff16906020019092919080359060200190929190505050610ae3565b005b61032d610c8d565b6040518082815260200191505060405180910390f35b61034b610eec565b6040518082815260200191505060405180910390f35b610369610ef3565b60405180821515815260200191505060405180910390f35b610389610f06565b6040518082815260200191505060405180910390f35b6103a7610f0d565b6040518082815260200191505060405180910390f35b6103ff600480360360208110156103d357600080fd5b81019080803573ffffffffffffffffffffffffffffffffffffffff169060200190929190505050610f12565b6040518082815260200191505060405180910390f35b61041d610f24565b6040518082815260200191505060405180910390f35b61047f6004803603604081101561044957600080fd5b81019080803573ffffffffffffffffffffffffffffffffffffffff16906020019092919080359060200190929190505050610f2a565b005b6104896110d4565b60405180821515815260200191505060405180910390f35b6104a96110e7565b005b6104b3611257565b604051808273ffffffffffffffffffffffffffffffffffffffff16815260200191505060405180910390f35b6104e761127d565b6040518082815260200191505060405180910390f35b610505611283565b6040518082815260200191505060405180910390f35b610523611533565b6040518082815260200191505060405180910390f35b6105416116e2565b604051808273ffffffffffffffffffffffffffffffffffffffff16815260200191505060405180910390f35b61057561170c565b6040518082815260200191505060405180910390f35b610593611711565b60405180821515815260200191505060405180910390f35b6105d9600480360360208110156105c157600080fd5b81019080803515159060200190929190505050611724565b005b6105e36117f0565b005b6105ed6117fa565b6040518082815260200191505060405180910390f35b6106316004803603602081101561061957600080fd5b810190808035151590602001909291905050506118dd565b005b61063b6119a9565b604051808273ffffffffffffffffffffffffffffffffffffffff16815260200191505060405180910390f35b6106e96004803603606081101561067d57600080fd5b81019080803573ffffffffffffffffffffffffffffffffffffffff169060200190929190803573ffffffffffffffffffffffffffffffffffffffff169060200190929190803573ffffffffffffffffffffffffffffffffffffffff1690602001909291905050506119cf565b005b6107376004803603604081101561070157600080fd5b81019080803573ffffffffffffffffffffffffffffffffffffffff16906020019092919080359060200190929190505050611dba565b005b610741611f64565b604051808273ffffffffffffffffffffffffffffffffffffffff16815260200191505060405180910390f35b610775611f8a565b604051808273ffffffffffffffffffffffffffffffffffffffff16815260200191505060405180910390f35b6107a9611fb0565b6040518082815260200191505060405180910390f35b610809600480360360808110156107d557600080fd5b8101908080359060200190929190803590602001909291908035906020019092919080359060200190929190505050611fbf565b6040518082815260200191505060405180910390f35b6108276120cf565b6040518082815260200191505060405180910390f35b610845612233565b6040518082815260200191505060405180910390f35b61089d6004803603602081101561087157600080fd5b81019080803573ffffffffffffffffffffffffffffffffffffffff169060200190929190505050612238565b005b6108a761242d565b604051808273ffffffffffffffffffffffffffffffffffffffff16815260200191505060405180910390f35b6108db612453565b6040518082815260200191505060405180910390f35b6108f9612459565b6040518082815260200191505060405180910390f35b600460009054906101000a900473ffffffffffffffffffffffffffffffffffffffff1681565b600060029054906101000a900460ff166109b7576040517f08c379a00000000000000000000000000000000000000000000000000000000081526004018080602001828103825260148152602001807f4d696e7420262072656465656d2070617573656400000000000000000000000081525060200191505060405180910390fd5b600160008373ffffffffffffffffffffffffffffffffffffffff1673ffffffffffffffffffffffffffffffffffffffff16815260200190815260200160002060009054906101000a900460ff16610a76576040517f08c379a00000000000000000000000000000000000000000000000000000000081526004018080602001828103825260188152602001807f436f6c6c61746572616c206e6f7420737570706f72746564000000000000000081525060200191505060405180910390fd5b60008111610acf576040517f08c379a00000000000000000000000000000000000000000000000000000000081526004018080602001828103825260218152602001806141f36021913960400191505060405180910390fd5b610ad9828261245e565b5050565b6103e381565b600060029054906101000a900460ff16610b65576040517f08c379a00000000000000000000000000000000000000000000000000000000081526004018080602001828103825260148152602001807f4d696e7420262072656465656d2070617573656400000000000000000000000081525060200191505060405180910390fd5b600160008373ffffffffffffffffffffffffffffffffffffffff1673ffffffffffffffffffffffffffffffffffffffff16815260200190815260200160002060009054906101000a900460ff16610c24576040517f08c379a00000000000000000000000000000000000000000000000000000000081526004018080602001828103825260188152602001807f436f6c6c61746572616c206e6f7420737570706f72746564000000000000000081525060200191505060405180910390fd5b60008111610c7d576040517f08c379a00000000000000000000000000000000000000000000000000000000081526004018080602001828103825260218152602001806141f36021913960400191505060405180910390fd5b610c8982826000612b92565b5050565b60008060039054906101000a900460ff16610cab5760009050610ee9565b6000600560009054906101000a900473ffffffffffffffffffffffffffffffffffffffff1673ffffffffffffffffffffffffffffffffffffffff166308432eea6040518163ffffffff1660e01b815260040160206040518083038186803b158015610d1557600080fd5b505afa158015610d29573d6000803e3d6000fd5b505050506040513d6020811015610d3f57600080fd5b810190808051906020019092919050505090506000600560009054906101000a900473ffffffffffffffffffffffffffffffffffffffff1673ffffffffffffffffffffffffffffffffffffffff1663c36d74976040518163ffffffff1660e01b815260040160206040518083038186803b158015610dbc57600080fd5b505afa158015610dd0573d6000803e3d6000fd5b505050506040513d6020811015610de657600080fd5b810190808051906020019092919050505090506000610e246103e8610e16846103e36134de90919063ffffffff16565b61356490919063ffffffff16565b905082811015610e47576103e8620f424081610e3c57fe5b049350505050610ee9565b6000610e5f60328584036134de90919063ffffffff16565b90506000610e7682836134de90919063ffffffff16565b90506000610eb485610ea687610e98620f4240876134de90919063ffffffff16565b61356490919063ffffffff16565b61356490919063ffffffff16565b90506000610ecc60648361356490919063ffffffff16565b9050806103e8620f424081610edd57fe5b04019750505050505050505b90565b620f424081565b600060029054906101000a900460ff1681565b620186a081565b600181565b6000610f1d826135ed565b9050919050565b61271081565b600060029054906101000a900460ff16610fac576040517f08c379a00000000000000000000000000000000000000000000000000000000081526004018080602001828103825260148152602001807f4d696e7420262072656465656d2070617573656400000000000000000000000081525060200191505060405180910390fd5b600160008373ffffffffffffffffffffffffffffffffffffffff1673ffffffffffffffffffffffffffffffffffffffff16815260200190815260200160002060009054906101000a900460ff1661106b576040517f08c379a00000000000000000000000000000000000000000000000000000000081526004018080602001828103825260188152602001807f436f6c6c61746572616c206e6f7420737570706f72746564000000000000000081525060200191505060405180910390fd5b600081116110c4576040517f08c379a00000000000000000000000000000000000000000000000000000000081526004018080602001828103825260218152602001806141f36021913960400191505060405180910390fd5b6110d082826002612b92565b5050565b600060049054906101000a900460ff1681565b6110ef61369d565b73ffffffffffffffffffffffffffffffffffffffff1661110d6116e2565b73ffffffffffffffffffffffffffffffffffffffff1614611196576040517f08c379a00000000000000000000000000000000000000000000000000000000081526004018080602001828103825260208152602001807f4f776e61626c653a2063616c6c6572206973206e6f7420746865206f776e657281525060200191505060405180910390fd5b600073ffffffffffffffffffffffffffffffffffffffff16603f60009054906101000a900473ffffffffffffffffffffffffffffffffffffffff1673ffffffffffffffffffffffffffffffffffffffff167f8be0079c531659141344cd1fd0a4f28419497f9722a3daafe3b4186f6b6457e060405160405180910390a36000603f60006101000a81548173ffffffffffffffffffffffffffffffffffffffff021916908373ffffffffffffffffffffffffffffffffffffffff160217905550565b600560009054906101000a900473ffffffffffffffffffffffffffffffffffffffff1681565b6103e881565b60008060049054906101000a900460ff166112a15760009050611530565b6000600560009054906101000a900473ffffffffffffffffffffffffffffffffffffffff1673ffffffffffffffffffffffffffffffffffffffff16630b71f2166040518163ffffffff1660e01b815260040160206040518083038186803b15801561130b57600080fd5b505afa15801561131f573d6000803e3d6000fd5b505050506040513d602081101561133557600080fd5b810190808051906020019092919050505090506000600560009054906101000a900473ffffffffffffffffffffffffffffffffffffffff1673ffffffffffffffffffffffffffffffffffffffff16631f58c4416040518163ffffffff1660e01b815260040160206040518083038186803b1580156113b257600080fd5b505afa1580156113c6573d6000803e3d6000fd5b505050506040513d60208110156113dc57600080fd5b81019080805190602001909291905050509050611416600a61140883600c6134de90919063ffffffff16565b61356490919063ffffffff16565b8211611428576103e892505050611530565b600080600c60009054906101000a900473ffffffffffffffffffffffffffffffffffffffff1673ffffffffffffffffffffffffffffffffffffffff166332833d5160146001600c600a6040518563ffffffff1660e01b8152600401808581526020018481526020018363ffffffff1681526020018263ffffffff168152602001945050505050604080518083038186803b1580156114c557600080fd5b505afa1580156114d9573d6000803e3d6000fd5b505050506040513d60408110156114ef57600080fd5b810190808051906020019092919080519060200190929190505050915091506115296127108260ff1684901c6134de90919063ffffffff16565b9450505050505b90565b600080600560009054906101000a900473ffffffffffffffffffffffffffffffffffffffff1673ffffffffffffffffffffffffffffffffffffffff166308432eea6040518163ffffffff1660e01b815260040160206040518083038186803b15801561159e57600080fd5b505afa1580156115b2573d6000803e3d6000fd5b505050506040513d60208110156115c857600080fd5b810190808051906020019092919050505090506000600560009054906101000a900473ffffffffffffffffffffffffffffffffffffffff1673ffffffffffffffffffffffffffffffffffffffff1663c36d74976040518163ffffffff1660e01b815260040160206040518083038186803b15801561164557600080fd5b505afa158015611659573d6000803e3d6000fd5b505050506040513d602081101561166f57600080fd5b810190808051906020019092919050505090506000611692600a54438585611fbf565b9050600061169e6117fa565b9050808211156116d7576116d06116c182840360016134de90919063ffffffff16565b836136a590919063ffffffff16565b94506116db565b8194505b5050505090565b6000603f60009054906101000a900473ffffffffffffffffffffffffffffffffffffffff16905090565b600181565b600060039054906101000a900460ff1681565b61172c61369d565b73ffffffffffffffffffffffffffffffffffffffff1661174a6116e2565b73ffffffffffffffffffffffffffffffffffffffff16146117d3576040517f08c379a00000000000000000000000000000000000000000000000000000000081526004018080602001828103825260208152602001807f4f776e61626c653a2063616c6c6572206973206e6f7420746865206f776e657281525060200191505060405180910390fd5b80600060036101000a81548160ff02191690831515021790555050565b6117f861372d565b565b600080611805613887565b90506000600b60009054906101000a900473ffffffffffffffffffffffffffffffffffffffff1673ffffffffffffffffffffffffffffffffffffffff166318160ddd6040518163ffffffff1660e01b815260040160206040518083038186803b15801561187157600080fd5b505afa158015611885573d6000803e3d6000fd5b505050506040513d602081101561189b57600080fd5b810190808051906020019092919050505090506118d6816118c8620186a0856134de90919063ffffffff16565b61356490919063ffffffff16565b9250505090565b6118e561369d565b73ffffffffffffffffffffffffffffffffffffffff166119036116e2565b73ffffffffffffffffffffffffffffffffffffffff161461198c576040517f08c379a00000000000000000000000000000000000000000000000000000000081526004018080602001828103825260208152602001807f4f776e61626c653a2063616c6c6572206973206e6f7420746865206f776e657281525060200191505060405180910390fd5b80600060046101000a81548160ff02191690831515021790555050565b600860009054906101000a900473ffffffffffffffffffffffffffffffffffffffff1681565b600060019054906101000a900460ff16806119ee57506119ed6138af565b5b80611a04575060008054906101000a900460ff16155b611a59576040517f08c379a000000000000000000000000000000000000000000000000000000000815260040180806020018281038252602e81526020018061423a602e913960400191505060405180910390fd5b60008060019054906101000a900460ff161590508015611aa9576001600060016101000a81548160ff02191690831515021790555060016000806101000a81548160ff0219169083151502179055505b611ab16138c0565b6001600060026101000a81548160ff0219169083151502179055506001600060036101000a81548160ff0219169083151502179055506001600060046101000a81548160ff02191690831515021790555073fb931d41a744be590e8b51e2e343bbe030ac4f93600460006101000a81548173ffffffffffffffffffffffffffffffffffffffff021916908373ffffffffffffffffffffffffffffffffffffffff16021790555062017318600a8190555030600660006101000a81548173ffffffffffffffffffffffffffffffffffffffff021916908373ffffffffffffffffffffffffffffffffffffffff16021790555030600760006101000a81548173ffffffffffffffffffffffffffffffffffffffff021916908373ffffffffffffffffffffffffffffffffffffffff16021790555030600860006101000a81548173ffffffffffffffffffffffffffffffffffffffff021916908373ffffffffffffffffffffffffffffffffffffffff16021790555030600960006101000a81548173ffffffffffffffffffffffffffffffffffffffff021916908373ffffffffffffffffffffffffffffffffffffffff160217905550600180600073b7a4f3e9097c08da09517b5ab877f7a917224ede73ffffffffffffffffffffffffffffffffffffffff1673ffffffffffffffffffffffffffffffffffffffff16815260200190815260200160002060006101000a81548160ff02191690831515021790555083600b60006101000a81548173ffffffffffffffffffffffffffffffffffffffff021916908373ffffffffffffffffffffffffffffffffffffffff16021790555082600560006101000a81548173ffffffffffffffffffffffffffffffffffffffff021916908373ffffffffffffffffffffffffffffffffffffffff16021790555081600c60006101000a81548173ffffffffffffffffffffffffffffffffffffffff021916908373ffffffffffffffffffffffffffffffffffffffff1602179055508015611db45760008060016101000a81548160ff0219169083151502179055505b50505050565b600060029054906101000a900460ff16611e3c576040517f08c379a00000000000000000000000000000000000000000000000000000000081526004018080602001828103825260148152602001807f4d696e7420262072656465656d2070617573656400000000000000000000000081525060200191505060405180910390fd5b600160008373ffffffffffffffffffffffffffffffffffffffff1673ffffffffffffffffffffffffffffffffffffffff16815260200190815260200160002060009054906101000a900460ff16611efb576040517f08c379a00000000000000000000000000000000000000000000000000000000081526004018080602001828103825260188152602001807f436f6c6c61746572616c206e6f7420737570706f72746564000000000000000081525060200191505060405180910390fd5b60008111611f54576040517f08c379a00000000000000000000000000000000000000000000000000000000081526004018080602001828103825260218152602001806141f36021913960400191505060405180910390fd5b611f6082826001612b92565b5050565b600960009054906101000a900473ffffffffffffffffffffffffffffffffffffffff1681565b600660009054906101000a900473ffffffffffffffffffffffffffffffffffffffff1681565b6000611fba613887565b905090565b600080611fea612710611fdc60c8886134de90919063ffffffff16565b61356490919063ffffffff16565b905060008385111561204e5761202084860361201286880360016134de90919063ffffffff16565b6134de90919063ffffffff16565b905061204781612039848a6139ce90919063ffffffff16565b6136a590919063ffffffff16565b92506120c5565b838510156120ae5761208085850361207287870360016134de90919063ffffffff16565b6134de90919063ffffffff16565b90506120a781612099848a6139ce90919063ffffffff16565b6139ce90919063ffffffff16565b92506120c4565b6120c182886139ce90919063ffffffff16565b92505b5b5050949350505050565b600080600560009054906101000a900473ffffffffffffffffffffffffffffffffffffffff1673ffffffffffffffffffffffffffffffffffffffff166308432eea6040518163ffffffff1660e01b815260040160206040518083038186803b15801561213a57600080fd5b505afa15801561214e573d6000803e3d6000fd5b505050506040513d602081101561216457600080fd5b810190808051906020019092919050505090506000600560009054906101000a900473ffffffffffffffffffffffffffffffffffffffff1673ffffffffffffffffffffffffffffffffffffffff1663c36d74976040518163ffffffff1660e01b815260040160206040518083038186803b1580156121e157600080fd5b505afa1580156121f5573d6000803e3d6000fd5b505050506040513d602081101561220b57600080fd5b8101908080519060200190929190505050905061222c600a54438484611fbf565b9250505090565b603281565b61224061369d565b73ffffffffffffffffffffffffffffffffffffffff1661225e6116e2565b73ffffffffffffffffffffffffffffffffffffffff16146122e7576040517f08c379a00000000000000000000000000000000000000000000000000000000081526004018080602001828103825260208152602001807f4f776e61626c653a2063616c6c6572206973206e6f7420746865206f776e657281525060200191505060405180910390fd5b600073ffffffffffffffffffffffffffffffffffffffff168173ffffffffffffffffffffffffffffffffffffffff16141561236d576040517f08c379a00000000000000000000000000000000000000000000000000000000081526004018080602001828103825260268152602001806141cd6026913960400191505060405180910390fd5b8073ffffffffffffffffffffffffffffffffffffffff16603f60009054906101000a900473ffffffffffffffffffffffffffffffffffffffff1673ffffffffffffffffffffffffffffffffffffffff167f8be0079c531659141344cd1fd0a4f28419497f9722a3daafe3b4186f6b6457e060405160405180910390a380603f60006101000a81548173ffffffffffffffffffffffffffffffffffffffff021916908373ffffffffffffffffffffffffffffffffffffffff16021790555050565b600760009054906101000a900473ffffffffffffffffffffffffffffffffffffffff1681565b600a5481565b60c881565b600060029054906101000a900460ff166124e0576040517f08c379a00000000000000000000000000000000000000000000000000000000081526004018080602001828103825260148152602001807f4d696e7420262072656465656d2070617573656400000000000000000000000081525060200191505060405180910390fd5b6000600560009054906101000a900473ffffffffffffffffffffffffffffffffffffffff1673ffffffffffffffffffffffffffffffffffffffff16639f1a442e846040518263ffffffff1660e01b8152600401808273ffffffffffffffffffffffffffffffffffffffff16815260200191505060206040518083038186803b15801561256b57600080fd5b505afa15801561257f573d6000803e3d6000fd5b505050506040513d602081101561259557600080fd5b810190808051906020019092919050505090506000600560009054906101000a900473ffffffffffffffffffffffffffffffffffffffff1673ffffffffffffffffffffffffffffffffffffffff16637d1489fe856040518263ffffffff1660e01b8152600401808273ffffffffffffffffffffffffffffffffffffffff16815260200191505060206040518083038186803b15801561263357600080fd5b505afa158015612647573d6000803e3d6000fd5b505050506040513d602081101561265d57600080fd5b810190808051906020019092919050505090506000600560009054906101000a900473ffffffffffffffffffffffffffffffffffffffff1673ffffffffffffffffffffffffffffffffffffffff166312dd85ee6040518163ffffffff1660e01b815260040160206040518083038186803b1580156126da57600080fd5b505afa1580156126ee573d6000803e3d6000fd5b505050506040513d602081101561270457600080fd5b810190808051906020019092919050505090506000600560009054906101000a900473ffffffffffffffffffffffffffffffffffffffff1673ffffffffffffffffffffffffffffffffffffffff1663743db8276040518163ffffffff1660e01b815260040160206040518083038186803b15801561278157600080fd5b505afa158015612795573d6000803e3d6000fd5b505050506040513d60208110156127ab57600080fd5b8101908080519060200190929190505050905060006127c8611283565b905060006127d4611533565b905060006128248561281686612808620186a06127fa888f6134de90919063ffffffff16565b61356490919063ffffffff16565b6134de90919063ffffffff16565b61356490919063ffffffff16565b9050600083111561286c5761286961285a620f424061284c86856134de90919063ffffffff16565b61356490919063ffffffff16565b826139ce90919063ffffffff16565b90505b6128bb600760009054906101000a900473ffffffffffffffffffffffffffffffffffffffff1633838c73ffffffffffffffffffffffffffffffffffffffff16613a51909392919063ffffffff16565b60006128d388620186a06134de90919063ffffffff16565b90506000612913826129058a6128f788620186a0038f6134de90919063ffffffff16565b6134de90919063ffffffff16565b61356490919063ffffffff16565b9050600085111561295b57612958612949620f424061293b88856134de90919063ffffffff16565b61356490919063ffffffff16565b826139ce90919063ffffffff16565b90505b6129aa600660009054906101000a900473ffffffffffffffffffffffffffffffffffffffff1633838e73ffffffffffffffffffffffffffffffffffffffff16613a51909392919063ffffffff16565b60006129d4620f42406129c6888e6134de90919063ffffffff16565b61356490919063ffffffff16565b9050600b60009054906101000a900473ffffffffffffffffffffffffffffffffffffffff1673ffffffffffffffffffffffffffffffffffffffff16639dc29fac33612a28848f6139ce90919063ffffffff16565b6040518363ffffffff1660e01b8152600401808373ffffffffffffffffffffffffffffffffffffffff16815260200182815260200192505050600060405180830381600087803b158015612a7b57600080fd5b505af1158015612a8f573d6000803e3d6000fd5b50505050600b60009054906101000a900473ffffffffffffffffffffffffffffffffffffffff1673ffffffffffffffffffffffffffffffffffffffff1663a9059cbb600860009054906101000a900473ffffffffffffffffffffffffffffffffffffffff16836040518363ffffffff1660e01b8152600401808373ffffffffffffffffffffffffffffffffffffffff16815260200182815260200192505050602060405180830381600087803b158015612b4857600080fd5b505af1158015612b5c573d6000803e3d6000fd5b505050506040513d6020811015612b7257600080fd5b810190808051906020019092919050505050505050505050505050505050565b6000600560009054906101000a900473ffffffffffffffffffffffffffffffffffffffff1673ffffffffffffffffffffffffffffffffffffffff16639f1a442e856040518263ffffffff1660e01b8152600401808273ffffffffffffffffffffffffffffffffffffffff16815260200191505060206040518083038186803b158015612c1d57600080fd5b505afa158015612c31573d6000803e3d6000fd5b505050506040513d6020811015612c4757600080fd5b810190808051906020019092919050505090506000600560009054906101000a900473ffffffffffffffffffffffffffffffffffffffff1673ffffffffffffffffffffffffffffffffffffffff16637d1489fe866040518263ffffffff1660e01b8152600401808273ffffffffffffffffffffffffffffffffffffffff16815260200191505060206040518083038186803b158015612ce557600080fd5b505afa158015612cf9573d6000803e3d6000fd5b505050506040513d6020811015612d0f57600080fd5b810190808051906020019092919050505090506000600560009054906101000a900473ffffffffffffffffffffffffffffffffffffffff1673ffffffffffffffffffffffffffffffffffffffff166312dd85ee6040518163ffffffff1660e01b815260040160206040518083038186803b158015612d8c57600080fd5b505afa158015612da0573d6000803e3d6000fd5b505050506040513d6020811015612db657600080fd5b810190808051906020019092919050505090506000600560009054906101000a900473ffffffffffffffffffffffffffffffffffffffff1673ffffffffffffffffffffffffffffffffffffffff1663743db8276040518163ffffffff1660e01b815260040160206040518083038186803b158015612e3357600080fd5b505afa158015612e47573d6000803e3d6000fd5b505050506040513d6020811015612e5d57600080fd5b810190808051906020019092919050505090506000612e7a610c8d565b90506000612e866120cf565b90506000806000806000612ea68b620186a06134de90919063ffffffff16565b905060008c60ff161415612ffe578c9250612f0389612ef58a612ee7620186a0612ed98c8a6134de90919063ffffffff16565b61356490919063ffffffff16565b6134de90919063ffffffff16565b61356490919063ffffffff16565b94506000871115612f4b57612f48612f39620f4240612f2b8a896134de90919063ffffffff16565b61356490919063ffffffff16565b866136a590919063ffffffff16565b94505b612f8781612f798c612f6b8a620186a003886134de90919063ffffffff16565b6134de90919063ffffffff16565b61356490919063ffffffff16565b93506000871115612fcf57612fcc612fbd620f4240612faf8a886134de90919063ffffffff16565b61356490919063ffffffff16565b856136a590919063ffffffff16565b93505b612ff7620f4240612fe989866134de90919063ffffffff16565b61356490919063ffffffff16565b9150613256565b60018c60ff161415613148578c9450849250600087111561304757613044613032620f42408961356490919063ffffffff16565b6001018461356490919063ffffffff16565b92505b613093886130858b6130778a613069620186a08a6134de90919063ffffffff16565b61356490919063ffffffff16565b6134de90919063ffffffff16565b61356490919063ffffffff16565b92506130d1816130c38c6130b58a620186a003886134de90919063ffffffff16565b6134de90919063ffffffff16565b61356490919063ffffffff16565b9350600087111561311957613116613107620f42406130f98a886134de90919063ffffffff16565b61356490919063ffffffff16565b856136a590919063ffffffff16565b93505b613141620f424061313389866134de90919063ffffffff16565b61356490919063ffffffff16565b9150613255565b60028c60ff161415613254578c935061319386620186a0036131858c61317785896134de90919063ffffffff16565b61356490919063ffffffff16565b61356490919063ffffffff16565b92506131e1896131d38a6131c5620186a06131b78c8a6134de90919063ffffffff16565b61356490919063ffffffff16565b6134de90919063ffffffff16565b61356490919063ffffffff16565b9450600087111561322957613226613217620f42406132098a896134de90919063ffffffff16565b61356490919063ffffffff16565b866136a590919063ffffffff16565b94505b613251620f424061324389866134de90919063ffffffff16565b61356490919063ffffffff16565b91505b5b5b600460009054906101000a900473ffffffffffffffffffffffffffffffffffffffff1673ffffffffffffffffffffffffffffffffffffffff166379cc679033876040518363ffffffff1660e01b8152600401808373ffffffffffffffffffffffffffffffffffffffff16815260200182815260200192505050600060405180830381600087803b1580156132e957600080fd5b505af11580156132fd573d6000803e3d6000fd5b5050505060008e905061335533600660009054906101000a900473ffffffffffffffffffffffffffffffffffffffff16878473ffffffffffffffffffffffffffffffffffffffff16613a51909392919063ffffffff16565b600b60009054906101000a900473ffffffffffffffffffffffffffffffffffffffff1673ffffffffffffffffffffffffffffffffffffffff166340c10f1933866040518363ffffffff1660e01b8152600401808373ffffffffffffffffffffffffffffffffffffffff16815260200182815260200192505050600060405180830381600087803b1580156133e857600080fd5b505af11580156133fc573d6000803e3d6000fd5b50505050600b60009054906101000a900473ffffffffffffffffffffffffffffffffffffffff1673ffffffffffffffffffffffffffffffffffffffff166340c10f19600860009054906101000a900473ffffffffffffffffffffffffffffffffffffffff16856040518363ffffffff1660e01b8152600401808373ffffffffffffffffffffffffffffffffffffffff16815260200182815260200192505050600060405180830381600087803b1580156134b557600080fd5b505af11580156134c9573d6000803e3d6000fd5b50505050505050505050505050505050505050565b6000808314156134f1576000905061355e565b600082840290508284828161350257fe5b0414613559576040517f08c379a00000000000000000000000000000000000000000000000000000000081526004018080602001828103825260218152602001806142686021913960400191505060405180910390fd5b809150505b92915050565b60008082116135db576040517f08c379a000000000000000000000000000000000000000000000000000000000815260040180806020018281038252601a8152602001807f536166654d6174683a206469766973696f6e206279207a65726f00000000000081525060200191505060405180910390fd5b8183816135e457fe5b04905092915050565b6000808290508073ffffffffffffffffffffffffffffffffffffffff166370a08231306040518263ffffffff1660e01b8152600401808273ffffffffffffffffffffffffffffffffffffffff16815260200191505060206040518083038186803b15801561365a57600080fd5b505afa15801561366e573d6000803e3d6000fd5b505050506040513d602081101561368457600080fd5b8101908080519060200190929190505050915050919050565b600033905090565b600080828401905083811015613723576040517f08c379a000000000000000000000000000000000000000000000000000000000815260040180806020018281038252601b8152602001807f536166654d6174683a206164646974696f6e206f766572666c6f77000000000081525060200191505060405180910390fd5b8091505092915050565b6000600b60009054906101000a900473ffffffffffffffffffffffffffffffffffffffff1673ffffffffffffffffffffffffffffffffffffffff166318160ddd6040518163ffffffff1660e01b815260040160206040518083038186803b15801561379757600080fd5b505afa1580156137ab573d6000803e3d6000fd5b505050506040513d60208110156137c157600080fd5b8101908080519060200190929190505050905060006137de613887565b905081811180156137f0575060008214155b1561388357600b60009054906101000a900473ffffffffffffffffffffffffffffffffffffffff1673ffffffffffffffffffffffffffffffffffffffff166339a7919f826040518263ffffffff1660e01b815260040180828152602001915050600060405180830381600087803b15801561386a57600080fd5b505af115801561387e573d6000803e3d6000fd5b505050505b5050565b60006138aa613894613b12565b61389c613b8c565b6136a590919063ffffffff16565b905090565b60006138ba30613b91565b15905090565b600060019054906101000a900460ff16806138df57506138de6138af565b5b806138f5575060008054906101000a900460ff16155b61394a576040517f08c379a000000000000000000000000000000000000000000000000000000000815260040180806020018281038252602e81526020018061423a602e913960400191505060405180910390fd5b60008060019054906101000a900460ff16159050801561399a576001600060016101000a81548160ff02191690831515021790555060016000806101000a81548160ff0219169083151502179055505b6139a2613ba4565b6139aa613ca2565b80156139cb5760008060016101000a81548160ff0219169083151502179055505b50565b600082821115613a46576040517f08c379a000000000000000000000000000000000000000000000000000000000815260040180806020018281038252601e8152602001807f536166654d6174683a207375627472616374696f6e206f766572666c6f77000081525060200191505060405180910390fd5b818303905092915050565b613b0c846323b872dd60e01b858585604051602401808473ffffffffffffffffffffffffffffffffffffffff1681526020018373ffffffffffffffffffffffffffffffffffffffff1681526020018281526020019350505050604051602081830303815290604052907bffffffffffffffffffffffffffffffffffffffffffffffffffffffff19166020820180517bffffffffffffffffffffffffffffffffffffffffffffffffffffffff8381831617835250505050613e49565b50505050565b600080600090505b600380549050811015613b8857613b79613b6a60038381548110613b3a57fe5b9060005260206000200160009054906101000a900473ffffffffffffffffffffffffffffffffffffffff16613f38565b836136a590919063ffffffff16565b91508080600101915050613b1a565b5090565b600090565b600080823b905060008111915050919050565b600060019054906101000a900460ff1680613bc35750613bc26138af565b5b80613bd9575060008054906101000a900460ff16155b613c2e576040517f08c379a000000000000000000000000000000000000000000000000000000000815260040180806020018281038252602e81526020018061423a602e913960400191505060405180910390fd5b60008060019054906101000a900460ff161590508015613c7e576001600060016101000a81548160ff02191690831515021790555060016000806101000a81548160ff0219169083151502179055505b8015613c9f5760008060016101000a81548160ff0219169083151502179055505b50565b600060019054906101000a900460ff1680613cc15750613cc06138af565b5b80613cd7575060008054906101000a900460ff16155b613d2c576040517f08c379a000000000000000000000000000000000000000000000000000000000815260040180806020018281038252602e81526020018061423a602e913960400191505060405180910390fd5b60008060019054906101000a900460ff161590508015613d7c576001600060016101000a81548160ff02191690831515021790555060016000806101000a81548160ff0219169083151502179055505b6000613d8661369d565b905080603f60006101000a81548173ffffffffffffffffffffffffffffffffffffffff021916908373ffffffffffffffffffffffffffffffffffffffff1602179055508073ffffffffffffffffffffffffffffffffffffffff16600073ffffffffffffffffffffffffffffffffffffffff167f8be0079c531659141344cd1fd0a4f28419497f9722a3daafe3b4186f6b6457e060405160405180910390a3508015613e465760008060016101000a81548160ff0219169083151502179055505b50565b6060613eab826040518060400160405280602081526020017f5361666545524332303a206c6f772d6c6576656c2063616c6c206661696c65648152508573ffffffffffffffffffffffffffffffffffffffff16613f3f9092919063ffffffff16565b9050600081511115613f3357808060200190516020811015613ecc57600080fd5b8101908080519060200190929190505050613f32576040517f08c379a000000000000000000000000000000000000000000000000000000000815260040180806020018281038252602a815260200180614289602a913960400191505060405180910390fd5b5b505050565b6000919050565b6060613f4e8484600085613f57565b90509392505050565b606082471015613fb2576040517f08c379a00000000000000000000000000000000000000000000000000000000081526004018080602001828103825260268152602001806142146026913960400191505060405180910390fd5b613fbb85613b91565b61402d576040517f08c379a000000000000000000000000000000000000000000000000000000000815260040180806020018281038252601d8152602001807f416464726573733a2063616c6c20746f206e6f6e2d636f6e747261637400000081525060200191505060405180910390fd5b600060608673ffffffffffffffffffffffffffffffffffffffff1685876040518082805190602001908083835b6020831061407d578051825260208201915060208101905060208303925061405a565b6001836020036101000a03801982511681845116808217855250505050505090500191505060006040518083038185875af1925050503d80600081146140df576040519150601f19603f3d011682016040523d82523d6000602084013e6140e4565b606091505b50915091506140f4828286614100565b92505050949350505050565b60608315614110578290506141c5565b6000835111156141235782518084602001fd5b816040517f08c379a00000000000000000000000000000000000000000000000000000000081526004018080602001828103825283818151815260200191508051906020019080838360005b8381101561418a57808201518184015260208101905061416f565b50505050905090810190601f1680156141b75780820380516001836020036101000a031916815260200191505b509250505060405180910390fd5b939250505056fe4f776e61626c653a206e6577206f776e657220697320746865207a65726f2061646472657373416d6f756e74206e6565647320746f2062652067726561746572207468616e2030416464726573733a20696e73756666696369656e742062616c616e636520666f722063616c6c496e697469616c697a61626c653a20636f6e747261637420697320616c726561647920696e697469616c697a6564536166654d6174683a206d756c7469706c69636174696f6e206f766572666c6f775361666545524332303a204552433230206f7065726174696f6e20646964206e6f742073756363656564a2646970667358221220629b0ff584734b164faa516fb0ca17638168822066557541254b31134be2fd9c64736f6c634300060c0033",
  "immutableReferences": {},
  "source": "//To-do: fix presion\n\npragma solidity ^0.6.12;\n\nimport \"@openzeppelin/contracts-upgradeable/proxy/Initializable.sol\";\nimport \"@openzeppelin/contracts-upgradeable/access/OwnableUpgradeable.sol\";\nimport \"@openzeppelin/contracts-upgradeable/math/SafeMathUpgradeable.sol\";\nimport \"@openzeppelin/contracts-upgradeable/utils/AddressUpgradeable.sol\";\nimport \"@openzeppelin/contracts-upgradeable/token/ERC20/SafeERC20Upgradeable.sol\";\nimport \"@openzeppelin/contracts-upgradeable/token/ERC20/ERC20Upgradeable.sol\";\n\nimport \"./VaultStorage.sol\";\nimport \"../libraries/MyMath.sol\";\nimport \"../libraries/Helpers.sol\";\nimport \"../interfaces/IOracle.sol\";\nimport \"../interfaces/ISperaxToken.sol\";\n\ncontract VaultCore is Initializable, VaultStorage, OwnableUpgradeable {\n\tusing SafeERC20Upgradeable for ERC20Upgradeable;\n\tusing SafeMathUpgradeable for uint;\n\tusing MyMath for uint;\n\n\tmodifier whenMintRedeemAllowed {\n\t\trequire(mintRedeemAllowed, \"Mint & redeem paused\");\n\t\t_;\n\t}\n\n\tfunction initialize(address USDsToken_, address oracleAddr_, address BancorFormulaAddr_) public initializer {\n\t\tOwnableUpgradeable.__Ownable_init();\n\t\t// Initialize variables\n\t\tmintRedeemAllowed = true;\n\t\tswapfeeInAllowed = true;\n\t\tswapfeeOutAllowed = true;\n\t\tSPATokenAddr = 0xFb931d41A744bE590E8B51e2e343bBE030aC4f93;\n\t\tchiInit = 95000;\n\n\t\tcollaValut = address(this);\n\t\tSPAValut = address(this);\n\t\tUSDsFeeValut = address(this);\n\t\tUSDsYieldValut = address(this);\n\t\tsupportedCollat[0xb7a4F3E9097C08dA09517b5aB877F7a917224ede] = true;\n\t\tUSDsInstance = USDs(USDsToken_);\n\t\toracleAddr = oracleAddr_;\n\t\tBancorInstance = BancorFormula(BancorFormulaAddr_);\n\t}\n\n\n\t/**\n\t * @dev swapFeePresion = 1000000\n\t */\n\n\tfunction calculateSwapFeeIn() public view returns (uint) {\n\t\tif (!swapfeeInAllowed) {\n\t\t\treturn 0;\n\t\t}\n\n\t\tuint priceUSDs = uint(IOracle(oracleAddr).getUSDsPrice()); //TODO: change to 3 days average\n\t\tuint precisionUSDs = IOracle(oracleAddr).USDsPricePrecision();\n\t\tuint smallPwithPrecision = swapFee_P.mul(precisionUSDs).div(swapFee_PPresion);\n\t\tif (smallPwithPrecision < priceUSDs) {\n\t\t\treturn swapFeePresion / 1000; // 0.1%\n\t\t} else {\n\t\t\tuint temp = (smallPwithPrecision - priceUSDs).mul(swapFeeTheta); //precision: precisionUSDs\n\t\t\tuint temp2 = temp.mul(temp); //precision: precisionUSDs^2\n\t\t\tuint temp3 = temp2.mul(swapFeePresion).div(precisionUSDs).div(precisionUSDs);\n\t\t\tuint temp4 = temp3.div(100);\n\t\t\treturn swapFeePresion / 1000 + temp4;\n\t\t}\n\n\t}\n\n\tfunction calculateSwapFeeOut() public view returns (uint) {\n\t\tif (!swapfeeOutAllowed) {\n\t\t\treturn 0;\n\t\t}\n\t\tuint USDsInOutRatio = IOracle(oracleAddr).USDsInOutRatio();\n\t\tuint USDsInOutRatioPrecision = IOracle(oracleAddr).USDsInOutRatioPrecision();\n\t\tif (USDsInOutRatio <= uint(12).mul(USDsInOutRatioPrecision).div(10)) {\n\t\t\treturn 1000; //0.1%\n\t\t} else {\n\n\t\t\t(uint powResWithPrec, uint8 powResPrec) = BancorInstance.power(uint(20), uint(1), uint32(12),uint32(10));\n\t\t\treturn uint(powResWithPrec >> powResPrec).mul(10**4);\n\t\t}\n\t}\n\n\tfunction chiTarget(uint chiInit_, uint blockHeight, uint priceUSDs, uint precisionUSDs) public view returns (uint chiTarget_) {\n\t\tuint chiAdjustmentA = blockHeight.mul(chiAlpha).div(chiAlpha_Presion);\n\t\tuint chiAdjustmentB;\n\t\tif (priceUSDs > precisionUSDs) {\n\t\t\tchiAdjustmentB = chiBeta.mul(priceUSDs - precisionUSDs).mul(priceUSDs - precisionUSDs);\n\t\t\tchiTarget_ = chiInit_.sub(chiAdjustmentA).add(chiAdjustmentB);\n\t\t} else if (priceUSDs < precisionUSDs) {\n\t\t\tchiAdjustmentB = chiBeta.mul(precisionUSDs - priceUSDs).mul(precisionUSDs - priceUSDs);\n\t\t\tchiTarget_ = chiInit_.sub(chiAdjustmentA).sub(chiAdjustmentB);\n\t\t} else {\n\t\t\tchiTarget_ = chiInit_.sub(chiAdjustmentA);\n\t\t}\n\t}\n\n\tfunction chiMint() public view returns (uint)  {\n\t\tuint priceUSDs = uint(IOracle(oracleAddr).getUSDsPrice());\n\t\tuint precisionUSDs = IOracle(oracleAddr).USDsPricePrecision();\n\t\treturn chiTarget(chiInit, block.number, priceUSDs, precisionUSDs);\n\t}\n\n\tfunction chiRedeem() public view returns (uint chiRedeem_) {\n\t\tuint priceUSDs = uint(IOracle(oracleAddr).getUSDsPrice());\n\t\tuint precisionUSDs = IOracle(oracleAddr).USDsPricePrecision();\n\t\tuint chiTarget_ = chiTarget(chiInit, block.number, priceUSDs, precisionUSDs);\n\t\tuint collateralRatio_ = collateralRatio();\n\t\tif (chiTarget_ > collateralRatio_) {\n\t\t\tchiRedeem_ = chiTarget_.add(chiGamma.mul(chiTarget_ - collateralRatio_));\n\t\t} else {\n\t\t\tchiRedeem_ = chiTarget_;\n\t\t}\n\n\t}\n\n\tfunction mint(address collaAddr, uint USDsAmt)\n\t\tpublic\n\t\twhenMintRedeemAllowed\n\t{\n\t\trequire(supportedCollat[collaAddr], \"Collateral not supported\");\n\t\trequire(USDsAmt > 0, \"Amount needs to be greater than 0\");\n\t\t_mint(collaAddr, USDsAmt, 0);\n\t}\n\n\tfunction mintWithSPA(address collaAddr, uint SPAAmt)\n\t\tpublic\n\t\twhenMintRedeemAllowed\n\t{\n\t\trequire(supportedCollat[collaAddr], \"Collateral not supported\");\n\t\trequire(SPAAmt > 0, \"Amount needs to be greater than 0\");\n\t\t_mint(collaAddr, SPAAmt, 1);\n\t}\n\n\tfunction mintWithColla(address collaAddr, uint CollaAmt)\n\t\tpublic\n\t\twhenMintRedeemAllowed\n\t{\n\t\trequire(supportedCollat[collaAddr], \"Collateral not supported\");\n\t\trequire(CollaAmt > 0, \"Amount needs to be greater than 0\");\n\t\t_mint(collaAddr, CollaAmt, 2);\n\t}\n\n\tfunction _mint(\n\t\taddress collaAddr,\n\t\tuint valueAmt,\n\t\tuint8 valueType\n\t) internal {\n\t\tuint priceColla = uint(IOracle(oracleAddr).collatPrice(collaAddr));\n\t\tuint precisionColla = IOracle(oracleAddr).collatPricePrecision(collaAddr);\n\t\tuint priceSPA = uint(IOracle(oracleAddr).getSPAPrice());\n\t\tuint precisionSPA = IOracle(oracleAddr).SPAPricePrecision();\n\t\tuint swapFee = calculateSwapFeeIn();\n\t\tuint chi = chiMint();\n\t\tuint SPABurnAmt;\n\t\tuint CollaDepAmt;\n\t\tuint USDsAmt;\n\t\tuint swapFeeAmount;\n\t\tuint CollaDepAmtDiv = chiPresion.mul(priceColla);\n\n\t\tif (valueType == 0) {\n\t\t\tUSDsAmt = valueAmt;\n\n\t\t\tSPABurnAmt = USDsAmt.mul(chi).div(chiPresion).mul(precisionSPA).div(priceSPA);\n\t\t\tif (swapFee > 0) {\n\t\t\t\tSPABurnAmt = SPABurnAmt.add(SPABurnAmt.mul(swapFee).div(swapFeePresion));\n\t\t\t}\n\n\t\t\t//Deposit collaeral\n\t\t\tCollaDepAmt = USDsAmt.mul(chiPresion - chi).mul(precisionColla).div(CollaDepAmtDiv);\n\t\t\tif (swapFee > 0) {\n\t\t\t\tCollaDepAmt = CollaDepAmt.add(CollaDepAmt.mul(swapFee).div(swapFeePresion));\n\t\t\t}\n\n\t\t\tswapFeeAmount = USDsAmt.mul(swapFee).div(swapFeePresion);\n\t\t} else if (valueType == 1) {\n\t\t\tSPABurnAmt = valueAmt;\n\n\t\t\tUSDsAmt = SPABurnAmt;\n\t\t\tif (swapFee > 0) {\n\t\t\t\tUSDsAmt = USDsAmt.div(1 + swapFee.div(swapFeePresion));\n\t\t\t}\n\t\t\tUSDsAmt = USDsAmt.mul(chiPresion).div(chi).mul(priceSPA).div(precisionSPA);\n\n\t\t\t//Deposit collaeral\n\t\t\tCollaDepAmt = USDsAmt.mul(chiPresion - chi).mul(precisionColla).div(CollaDepAmtDiv);\n\t\t\tif (swapFee > 0) {\n\t\t\t\tCollaDepAmt = CollaDepAmt.add(CollaDepAmt.mul(swapFee).div(swapFeePresion));\n\t\t\t}\n\n\t\t\tswapFeeAmount = USDsAmt.mul(swapFee).div(swapFeePresion);\n\t\t} else if (valueType == 2) {\n\t\t\tCollaDepAmt = valueAmt;\n\n\t\t\tUSDsAmt = CollaDepAmt.mul(CollaDepAmtDiv).div(precisionColla).div(chiPresion - chi);\n\n\t\t\tSPABurnAmt = USDsAmt.mul(chi).div(chiPresion).mul(precisionSPA).div(priceSPA);\n\t\t\tif (swapFee > 0) {\n\t\t\t\tSPABurnAmt = SPABurnAmt.add(SPABurnAmt.mul(swapFee).div(swapFeePresion));\n\t\t\t}\n\n\t\t\tswapFeeAmount = USDsAmt.mul(swapFee).div(swapFeePresion);\n\t\t}\n\t\tISperaxToken(SPATokenAddr).burnFrom(msg.sender, SPABurnAmt);\n\n\t\tERC20Upgradeable collaAddrERC20 = ERC20Upgradeable(collaAddr);\n\t\tcollaAddrERC20.safeTransferFrom(msg.sender, collaValut, CollaDepAmt);\n\n\t\t//Mint USDs\n\t\tUSDsInstance.mint(msg.sender, USDsAmt);\n\t\tUSDsInstance.mint(USDsFeeValut, swapFeeAmount);\n\t}\n\n\tfunction redeem(address collaAddr, uint USDsAmt)\n\t\tpublic\n\t\twhenMintRedeemAllowed\n\t{\n\t\trequire(supportedCollat[collaAddr], \"Collateral not supported\");\n\t\trequire(USDsAmt > 0, \"Amount needs to be greater than 0\");\n\t\t_redeem(collaAddr, USDsAmt);\n\t}\n\n\n\tfunction _redeem(\n\t\taddress collaAddr,\n\t\tuint USDsAmt\n\t) internal whenMintRedeemAllowed {\n\t\tuint priceColla = uint(IOracle(oracleAddr).collatPrice(collaAddr));\n\t\tuint precisionColla = IOracle(oracleAddr).collatPricePrecision(collaAddr);\n\t\tuint priceSPA = uint(IOracle(oracleAddr).getSPAPrice());\n\t\tuint precisionSPA = IOracle(oracleAddr).SPAPricePrecision();\n\t\tuint swapFee = calculateSwapFeeOut();\n\t\tuint chi = chiRedeem();\n\t\tuint SPAMintAmt = USDsAmt.mul(chi).div(chiPresion).mul(precisionSPA).div(priceSPA);\n\t\tif (swapFee > 0) {\n\t\t\tSPAMintAmt = SPAMintAmt.sub(SPAMintAmt.mul(swapFee).div(swapFeePresion));\n\t\t}\n\t\tERC20Upgradeable(collaAddr).safeTransferFrom(SPAValut, msg.sender, SPAMintAmt);\n\n\t\t//Unlock collaeral\n\t\tuint CollaUnlockAmtDiv = chiPresion.mul(priceColla);\n\t\tuint CollaUnlockAmt = USDsAmt.mul(chiPresion - chi).mul(precisionColla).div(CollaUnlockAmtDiv);\n\t\tif (swapFee > 0) {\n\t\t\tCollaUnlockAmt = CollaUnlockAmt.sub(CollaUnlockAmt.mul(swapFee).div(swapFeePresion));\n\t\t}\n\t\tERC20Upgradeable(collaAddr).safeTransferFrom(collaValut, msg.sender, CollaUnlockAmt);\n\n\t\t//Burn USDs\n\t\tuint swapFeeAmount = USDsAmt.mul(swapFee).div(swapFeePresion);\n\t\tUSDsInstance.burn(msg.sender, USDsAmt.sub(swapFeeAmount));\n\t\tUSDsInstance.transfer(USDsFeeValut, swapFeeAmount);\n\t}\n\n\t/**\n\t * @dev Calculate the total value of assets held by the Vault and all\n\t *      strategies and update the supply of USDs.\n\t */\n\tfunction rebase() public {\n\t\t_rebase();\n\t}\n\n\t/**\n\t * @dev Calculate the total value of assets held by the Vault and all\n\t *      strategies and update the supply of USDs, optionaly sending a\n\t *      portion of the yield to the trustee.\n\t */\n\tfunction _rebase() internal {\n\t\tuint256 totalSupply = USDsInstance.totalSupply();\n\t\tuint256 vaultValue = _totalValue();\n\n\t\tif (vaultValue > totalSupply && totalSupply != 0) {\n\t\t\tUSDsInstance.changeSupply(vaultValue);\n\t\t}\n\t}\n\n\t/**\n\t * @dev  Precision: same as chi\n\t */\n\n\tfunction collateralRatio() public view returns (uint256 ratio) {\n        uint totalValue = _totalValue();\n\t\tuint USDsSupply =  USDsInstance.totalSupply();\n\t\tratio = totalValue.mul(chiPresion).div(USDsSupply);\n    }\n\n\t/**\n     * @dev Determine the total value of assets held by the vault and its\n     *         strategies.\n     * @return value Total value in USD (1e18)\n     */\n    function totalValue() external view returns (uint256 value) {\n        value = _totalValue();\n    }\n\n    /**\n     * @dev Internal Calculate the total value of the assets held by the\n     *         vault and its strategies.\n     * @return value Total value in USD (1e18)\n     */\n    function _totalValue() internal view returns (uint256 value) {\n        return _totalValueInVault().add(_totalValueInStrategies());\n    }\n\n    /**\n     * @dev Internal to calculate total value of all assets held in Vault.\n     * @return value in ETH (1e18)\n     */\n    function _totalValueInVault() internal view returns (uint256 value) {\n        // for (uint256 y = 0; y < allCollat.length; y++) {\n        //     IERC20 asset = IERC20(allCollat[y]);\n        //     uint256 assetDecimals = Helpers.getDecimals(allCollat[y]);\n        //     uint256 balance = asset.balanceOf(address(this));\n        //     if (balance > 0) {\n        //         value = value.add(balance.scaleBy(int8(18 - assetDecimals)));\n        //     }\n        // }\n    }\n\n    /**\n     * @dev Internal to calculate total value of all assets held in Strategies.\n     * @return value in ETH (1e18)\n     */\n    function _totalValueInStrategies() internal view returns (uint256 value) {\n        for (uint256 i = 0; i < allStrategies.length; i++) {\n            value = value.add(_totalValueInStrategy(allStrategies[i]));\n        }\n    }\n\n    /**\n     * @dev Internal to calculate total value of all assets held by strategy.\n     * @param _strategyAddr Address of the strategy\n     * @return value in ETH (1e18)\n     */\n    function _totalValueInStrategy(address _strategyAddr)\n        internal\n        view\n        returns (uint256 value)\n    {\n        value = 0;\n    }\n\n\t/**\n     * @notice Get the balance of an asset held in Vault and all strategies.\n     * @param _asset Address of asset\n     * @return uint256 Balance of asset in decimals of asset\n     */\n    function checkBalance(address _asset) external view returns (uint256) {\n        return _checkBalance(_asset);\n    }\n\n    /**\n     * @notice Get the balance of an asset held in Vault and all strategies.\n     * @param _asset Address of asset\n     * @return balance Balance of asset in decimals of asset\n     */\n    function _checkBalance(address _asset)\n        internal\n        view\n        returns (uint256 balance)\n    {\n        ERC20Upgradeable asset = ERC20Upgradeable(_asset);\n        balance = asset.balanceOf(address(this));\n        // for (uint256 i = 0; i < allStrategies.length; i++) {\n        //     IStrategy strategy = IStrategy(allStrategies[i]);\n        //     if (strategy.supportsAsset(_asset)) {\n        //         balance = balance.add(strategy.checkBalance(_asset));\n        //     }\n        // }\n    }\n\n    //\n    // Owner Only Function: change swap fee allowance\n    //\n\n    function toggleSwapfeeInAllowed(bool newAllowance) external onlyOwner {\n      swapfeeInAllowed = newAllowance;\n    }\n\n    function toggleSwapfeeOutAllowed(bool newAllowance) external onlyOwner {\n      swapfeeOutAllowed = newAllowance;\n    }\n}\n",
  "sourcePath": "/Volumes/Work/Sperax/USDs/contracts/vault/VaultCore.sol",
  "compiler": {
    "name": "solc",
    "version": "0.6.12+commit.27d51765.Emscripten.clang"
  },
  "schemaVersion": "3.4.0",
  "updatedAt": "2021-07-20T14:28:58.540Z",
  "networkType": "ethereum",
  "devdoc": {
    "kind": "dev",
    "methods": {
      "calculateSwapFeeIn()": {
        "details": "swapFeePresion = 1000000"
      },
      "checkBalance(address)": {
        "params": {
          "_asset": "Address of asset"
        },
        "returns": {
          "_0": "uint256 Balance of asset in decimals of asset"
        }
      },
      "collateralRatio()": {
        "details": "Precision: same as chi"
      },
      "owner()": {
        "details": "Returns the address of the current owner."
      },
      "rebase()": {
        "details": "Calculate the total value of assets held by the Vault and all      strategies and update the supply of USDs."
      },
      "renounceOwnership()": {
        "details": "Leaves the contract without owner. It will not be possible to call `onlyOwner` functions anymore. Can only be called by the current owner. NOTE: Renouncing ownership will leave the contract without an owner, thereby removing any functionality that is only available to the owner."
      },
      "totalValue()": {
        "details": "Determine the total value of assets held by the vault and its         strategies.",
        "returns": {
          "value": "Total value in USD (1e18)"
        }
      },
      "transferOwnership(address)": {
        "details": "Transfers ownership of the contract to a new account (`newOwner`). Can only be called by the current owner."
      }
    },
    "version": 1
  },
  "userdoc": {
    "kind": "user",
    "methods": {
      "checkBalance(address)": {
        "notice": "Get the balance of an asset held in Vault and all strategies."
      }
    },
    "version": 1
  }
}