{
  "contractName": "VaultCore",
  "abi": [
    {
      "anonymous": false,
      "inputs": [
        {
          "indexed": true,
          "internalType": "address",
          "name": "previousOwner",
          "type": "address"
        },
        {
          "indexed": true,
          "internalType": "address",
          "name": "newOwner",
          "type": "address"
        }
      ],
      "name": "OwnershipTransferred",
      "type": "event"
    },
    {
      "inputs": [],
      "name": "SPATokenAddr",
      "outputs": [
        {
          "internalType": "address",
          "name": "",
          "type": "address"
        }
      ],
      "stateMutability": "view",
      "type": "function",
      "constant": true
    },
    {
      "inputs": [],
      "name": "SPAValut",
      "outputs": [
        {
          "internalType": "address",
          "name": "",
          "type": "address"
        }
      ],
      "stateMutability": "view",
      "type": "function",
      "constant": true
    },
    {
      "inputs": [],
      "name": "USDsFeeValut",
      "outputs": [
        {
          "internalType": "address",
          "name": "",
          "type": "address"
        }
      ],
      "stateMutability": "view",
      "type": "function",
      "constant": true
    },
    {
      "inputs": [],
      "name": "USDsYieldValut",
      "outputs": [
        {
          "internalType": "address",
          "name": "",
          "type": "address"
        }
      ],
      "stateMutability": "view",
      "type": "function",
      "constant": true
    },
    {
      "inputs": [],
      "name": "chiInit",
      "outputs": [
        {
          "internalType": "uint256",
          "name": "",
          "type": "uint256"
        }
      ],
      "stateMutability": "view",
      "type": "function",
      "constant": true
    },
    {
      "inputs": [],
      "name": "chiPrec",
      "outputs": [
        {
          "internalType": "uint256",
          "name": "",
          "type": "uint256"
        }
      ],
      "stateMutability": "view",
      "type": "function",
      "constant": true
    },
    {
      "inputs": [],
      "name": "chi_alpha",
      "outputs": [
        {
          "internalType": "uint256",
          "name": "",
          "type": "uint256"
        }
      ],
      "stateMutability": "view",
      "type": "function",
      "constant": true
    },
    {
      "inputs": [],
      "name": "chi_alpha_Prec",
      "outputs": [
        {
          "internalType": "uint256",
          "name": "",
          "type": "uint256"
        }
      ],
      "stateMutability": "view",
      "type": "function",
      "constant": true
    },
    {
      "inputs": [],
      "name": "chi_beta",
      "outputs": [
        {
          "internalType": "uint256",
          "name": "",
          "type": "uint256"
        }
      ],
      "stateMutability": "view",
      "type": "function",
      "constant": true
    },
    {
      "inputs": [],
      "name": "chi_beta_Prec",
      "outputs": [
        {
          "internalType": "uint256",
          "name": "",
          "type": "uint256"
        }
      ],
      "stateMutability": "view",
      "type": "function",
      "constant": true
    },
    {
      "inputs": [],
      "name": "chi_gamma",
      "outputs": [
        {
          "internalType": "uint256",
          "name": "",
          "type": "uint256"
        }
      ],
      "stateMutability": "view",
      "type": "function",
      "constant": true
    },
    {
      "inputs": [],
      "name": "chi_gamma_Prec",
      "outputs": [
        {
          "internalType": "uint256",
          "name": "",
          "type": "uint256"
        }
      ],
      "stateMutability": "view",
      "type": "function",
      "constant": true
    },
    {
      "inputs": [],
      "name": "collaValut",
      "outputs": [
        {
          "internalType": "address",
          "name": "",
          "type": "address"
        }
      ],
      "stateMutability": "view",
      "type": "function",
      "constant": true
    },
    {
      "inputs": [],
      "name": "mintRedeemAllowed",
      "outputs": [
        {
          "internalType": "bool",
          "name": "",
          "type": "bool"
        }
      ],
      "stateMutability": "view",
      "type": "function",
      "constant": true
    },
    {
      "inputs": [],
      "name": "oracleAddr",
      "outputs": [
        {
          "internalType": "address",
          "name": "",
          "type": "address"
        }
      ],
      "stateMutability": "view",
      "type": "function",
      "constant": true
    },
    {
      "inputs": [],
      "name": "owner",
      "outputs": [
        {
          "internalType": "address",
          "name": "",
          "type": "address"
        }
      ],
      "stateMutability": "view",
      "type": "function",
      "constant": true
    },
    {
      "inputs": [],
      "name": "renounceOwnership",
      "outputs": [],
      "stateMutability": "nonpayable",
      "type": "function"
    },
    {
      "inputs": [],
      "name": "startBlockHeight",
      "outputs": [
        {
          "internalType": "uint256",
          "name": "",
          "type": "uint256"
        }
      ],
      "stateMutability": "view",
      "type": "function",
      "constant": true
    },
    {
      "inputs": [],
      "name": "swapFeePresion",
      "outputs": [
        {
          "internalType": "uint256",
          "name": "",
          "type": "uint256"
        }
      ],
      "stateMutability": "view",
      "type": "function",
      "constant": true
    },
    {
      "inputs": [],
      "name": "swapFee_A",
      "outputs": [
        {
          "internalType": "uint256",
          "name": "",
          "type": "uint256"
        }
      ],
      "stateMutability": "view",
      "type": "function",
      "constant": true
    },
    {
      "inputs": [],
      "name": "swapFee_A_Prec",
      "outputs": [
        {
          "internalType": "uint256",
          "name": "",
          "type": "uint256"
        }
      ],
      "stateMutability": "view",
      "type": "function",
      "constant": true
    },
    {
      "inputs": [],
      "name": "swapFee_a",
      "outputs": [
        {
          "internalType": "uint32",
          "name": "",
          "type": "uint32"
        }
      ],
      "stateMutability": "view",
      "type": "function",
      "constant": true
    },
    {
      "inputs": [],
      "name": "swapFee_a_Prec",
      "outputs": [
        {
          "internalType": "uint32",
          "name": "",
          "type": "uint32"
        }
      ],
      "stateMutability": "view",
      "type": "function",
      "constant": true
    },
    {
      "inputs": [],
      "name": "swapFee_p",
      "outputs": [
        {
          "internalType": "uint256",
          "name": "",
          "type": "uint256"
        }
      ],
      "stateMutability": "view",
      "type": "function",
      "constant": true
    },
    {
      "inputs": [],
      "name": "swapFee_p_Prec",
      "outputs": [
        {
          "internalType": "uint256",
          "name": "",
          "type": "uint256"
        }
      ],
      "stateMutability": "view",
      "type": "function",
      "constant": true
    },
    {
      "inputs": [],
      "name": "swapFee_theta",
      "outputs": [
        {
          "internalType": "uint256",
          "name": "",
          "type": "uint256"
        }
      ],
      "stateMutability": "view",
      "type": "function",
      "constant": true
    },
    {
      "inputs": [],
      "name": "swapFee_theta_Prec",
      "outputs": [
        {
          "internalType": "uint256",
          "name": "",
          "type": "uint256"
        }
      ],
      "stateMutability": "view",
      "type": "function",
      "constant": true
    },
    {
      "inputs": [],
      "name": "swapfeeInAllowed",
      "outputs": [
        {
          "internalType": "bool",
          "name": "",
          "type": "bool"
        }
      ],
      "stateMutability": "view",
      "type": "function",
      "constant": true
    },
    {
      "inputs": [],
      "name": "swapfeeOutAllowed",
      "outputs": [
        {
          "internalType": "bool",
          "name": "",
          "type": "bool"
        }
      ],
      "stateMutability": "view",
      "type": "function",
      "constant": true
    },
    {
      "inputs": [
        {
          "internalType": "address",
          "name": "newOwner",
          "type": "address"
        }
      ],
      "name": "transferOwnership",
      "outputs": [],
      "stateMutability": "nonpayable",
      "type": "function"
    },
    {
      "inputs": [
        {
          "internalType": "address",
          "name": "USDsToken_",
          "type": "address"
        },
        {
          "internalType": "address",
          "name": "oracleAddr_",
          "type": "address"
        },
        {
          "internalType": "address",
          "name": "BancorFormulaAddr_",
          "type": "address"
        }
      ],
      "name": "initialize",
      "outputs": [],
      "stateMutability": "nonpayable",
      "type": "function"
    },
    {
      "inputs": [],
      "name": "calculateSwapFeeIn",
      "outputs": [
        {
          "internalType": "uint256",
          "name": "",
          "type": "uint256"
        }
      ],
      "stateMutability": "view",
      "type": "function",
      "constant": true
    },
    {
      "inputs": [],
      "name": "calculateSwapFeeOut",
      "outputs": [
        {
          "internalType": "uint256",
          "name": "",
          "type": "uint256"
        }
      ],
      "stateMutability": "view",
      "type": "function",
      "constant": true
    },
    {
      "inputs": [
        {
          "internalType": "uint256",
          "name": "chiInit_",
          "type": "uint256"
        },
        {
          "internalType": "uint256",
          "name": "blockPassed",
          "type": "uint256"
        },
        {
          "internalType": "uint256",
          "name": "priceUSDs",
          "type": "uint256"
        },
        {
          "internalType": "uint256",
          "name": "precisionUSDs",
          "type": "uint256"
        }
      ],
      "name": "chiTarget",
      "outputs": [
        {
          "internalType": "uint256",
          "name": "chiTarget_",
          "type": "uint256"
        }
      ],
      "stateMutability": "view",
      "type": "function",
      "constant": true
    },
    {
      "inputs": [],
      "name": "chiMint",
      "outputs": [
        {
          "internalType": "uint256",
          "name": "",
          "type": "uint256"
        }
      ],
      "stateMutability": "view",
      "type": "function",
      "constant": true
    },
    {
      "inputs": [],
      "name": "chiRedeem",
      "outputs": [
        {
          "internalType": "uint256",
          "name": "chiRedeem_",
          "type": "uint256"
        }
      ],
      "stateMutability": "view",
      "type": "function",
      "constant": true
    },
    {
      "inputs": [
        {
          "internalType": "address",
          "name": "collaAddr",
          "type": "address"
        },
        {
          "internalType": "uint256",
          "name": "USDsMintAmt",
          "type": "uint256"
        }
      ],
      "name": "mintWithUSDs",
      "outputs": [],
      "stateMutability": "nonpayable",
      "type": "function"
    },
    {
      "inputs": [
        {
          "internalType": "address",
          "name": "collaAddr",
          "type": "address"
        },
        {
          "internalType": "uint256",
          "name": "SPAAmt",
          "type": "uint256"
        }
      ],
      "name": "mintWithSPA",
      "outputs": [],
      "stateMutability": "nonpayable",
      "type": "function"
    },
    {
      "inputs": [
        {
          "internalType": "address",
          "name": "collaAddr",
          "type": "address"
        },
        {
          "internalType": "uint256",
          "name": "CollaAmt",
          "type": "uint256"
        }
      ],
      "name": "mintWithColla",
      "outputs": [],
      "stateMutability": "nonpayable",
      "type": "function"
    },
    {
      "inputs": [
        {
          "internalType": "address",
          "name": "collaAddr",
          "type": "address"
        },
        {
          "internalType": "uint256",
          "name": "USDsMintAmt",
          "type": "uint256"
        }
      ],
      "name": "mintWithUSDsView",
      "outputs": [
        {
          "internalType": "uint256",
          "name": "SPABurnAmt",
          "type": "uint256"
        },
        {
          "internalType": "uint256",
          "name": "CollaDepAmtCorrected",
          "type": "uint256"
        },
        {
          "internalType": "uint256",
          "name": "USDsAmt",
          "type": "uint256"
        },
        {
          "internalType": "uint256",
          "name": "swapFeeAmount",
          "type": "uint256"
        }
      ],
      "stateMutability": "view",
      "type": "function",
      "constant": true
    },
    {
      "inputs": [
        {
          "internalType": "address",
          "name": "collaAddr",
          "type": "address"
        },
        {
          "internalType": "uint256",
          "name": "SPAAmt",
          "type": "uint256"
        }
      ],
      "name": "mintWithSPAView",
      "outputs": [
        {
          "internalType": "uint256",
          "name": "SPABurnAmt",
          "type": "uint256"
        },
        {
          "internalType": "uint256",
          "name": "CollaDepAmtCorrected",
          "type": "uint256"
        },
        {
          "internalType": "uint256",
          "name": "USDsAmt",
          "type": "uint256"
        },
        {
          "internalType": "uint256",
          "name": "swapFeeAmount",
          "type": "uint256"
        }
      ],
      "stateMutability": "view",
      "type": "function",
      "constant": true
    },
    {
      "inputs": [
        {
          "internalType": "address",
          "name": "collaAddr",
          "type": "address"
        },
        {
          "internalType": "uint256",
          "name": "CollaAmt",
          "type": "uint256"
        }
      ],
      "name": "mintWithCollaView",
      "outputs": [
        {
          "internalType": "uint256",
          "name": "SPABurnAmt",
          "type": "uint256"
        },
        {
          "internalType": "uint256",
          "name": "CollaDepAmtCorrected",
          "type": "uint256"
        },
        {
          "internalType": "uint256",
          "name": "USDsAmt",
          "type": "uint256"
        },
        {
          "internalType": "uint256",
          "name": "swapFeeAmount",
          "type": "uint256"
        }
      ],
      "stateMutability": "view",
      "type": "function",
      "constant": true
    },
    {
      "inputs": [
        {
          "internalType": "address",
          "name": "collaAddr",
          "type": "address"
        },
        {
          "internalType": "uint256",
          "name": "valueAmt",
          "type": "uint256"
        },
        {
          "internalType": "uint8",
          "name": "valueType",
          "type": "uint8"
        }
      ],
      "name": "mintView",
      "outputs": [
        {
          "internalType": "uint256",
          "name": "SPABurnAmt",
          "type": "uint256"
        },
        {
          "internalType": "uint256",
          "name": "CollaDepAmtCorrected",
          "type": "uint256"
        },
        {
          "internalType": "uint256",
          "name": "USDsAmt",
          "type": "uint256"
        },
        {
          "internalType": "uint256",
          "name": "swapFeeAmount",
          "type": "uint256"
        }
      ],
      "stateMutability": "view",
      "type": "function",
      "constant": true
    },
    {
      "inputs": [
        {
          "internalType": "address",
          "name": "collaAddr",
          "type": "address"
        },
        {
          "internalType": "uint256",
          "name": "USDsAmt",
          "type": "uint256"
        }
      ],
      "name": "redeem",
      "outputs": [],
      "stateMutability": "nonpayable",
      "type": "function"
    },
    {
      "inputs": [
        {
          "internalType": "address",
          "name": "collaAddr",
          "type": "address"
        },
        {
          "internalType": "uint256",
          "name": "USDsAmt",
          "type": "uint256"
        }
      ],
      "name": "redeemView",
      "outputs": [
        {
          "internalType": "uint256",
          "name": "SPAMintAmt",
          "type": "uint256"
        },
        {
          "internalType": "uint256",
          "name": "CollaUnlockAmtCorrect",
          "type": "uint256"
        },
        {
          "internalType": "uint256",
          "name": "USDsBurntAmt",
          "type": "uint256"
        },
        {
          "internalType": "uint256",
          "name": "swapFeeAmount",
          "type": "uint256"
        }
      ],
      "stateMutability": "view",
      "type": "function",
      "constant": true
    },
    {
      "inputs": [],
      "name": "rebase",
      "outputs": [],
      "stateMutability": "nonpayable",
      "type": "function"
    },
    {
      "inputs": [],
      "name": "collateralRatio",
      "outputs": [
        {
          "internalType": "uint256",
          "name": "ratio",
          "type": "uint256"
        }
      ],
      "stateMutability": "view",
      "type": "function",
      "constant": true
    },
    {
      "inputs": [],
      "name": "totalValue",
      "outputs": [
        {
          "internalType": "uint256",
          "name": "value",
          "type": "uint256"
        }
      ],
      "stateMutability": "view",
      "type": "function",
      "constant": true
    },
    {
      "inputs": [
        {
          "internalType": "address",
          "name": "_asset",
          "type": "address"
        }
      ],
      "name": "checkBalance",
      "outputs": [
        {
          "internalType": "uint256",
          "name": "",
          "type": "uint256"
        }
      ],
      "stateMutability": "view",
      "type": "function",
      "constant": true
    },
    {
      "inputs": [
        {
          "internalType": "bool",
          "name": "newAllowance",
          "type": "bool"
        }
      ],
      "name": "toggleSwapfeeInAllowed",
      "outputs": [],
      "stateMutability": "nonpayable",
      "type": "function"
    },
    {
      "inputs": [
        {
          "internalType": "bool",
          "name": "newAllowance",
          "type": "bool"
        }
      ],
      "name": "toggleSwapfeeOutAllowed",
      "outputs": [],
      "stateMutability": "nonpayable",
      "type": "function"
    }
  ],
  "bytecode": "0x608060405234801561001057600080fd5b50614e00806100206000396000f3fe608060405234801561001057600080fd5b50600436106102f15760003560e01c80639f8fdafe1161019d578063cc31fccb116100e9578063e4a584a7116100a2578063faa5f34b1161007c578063faa5f34b14610cb2578063faeddc9014610cd0578063fc703aa614610cee578063fc9dc4ff14610d0c576102f1565b8063e4a584a714610c1c578063f2fde38b14610c3a578063f62f843014610c7e576102f1565b8063cc31fccb14610aa1578063ceee77ed14610ad5578063d4c3eea014610b09578063df1750cb14610b27578063dfab838d14610b9e578063e1da538014610bfe576102f1565b8063af14052c11610156578063bbfd838111610130578063bbfd83811461096b578063be002f6e1461099b578063c0c53b8b146109cf578063c290817f14610a53576102f1565b8063af14052c14610925578063b4eae1cb1461092f578063bbf274be1461094d576102f1565b80639f8fdafe1461079e578063a09caa18146107bc578063a0fda95e146107dc578063a7a63b0a146107fa578063ab5d97f414610871578063ae67fbb1146108f5576102f1565b80635f5152261161025c5780637e4e61d7116102155780638da5cb5b116101ef5780638da5cb5b146106b757806395bb5e37146106eb57806396fd7db6146107625780639c11ca7314610780576102f1565b80637e4e61d71461064757806382dd391c1461067b5780638714a6d314610699576102f1565b80635f5152261461050b5780635f5878951461056357806363a018e3146105b15780637080460f146105ff578063715018a61461061f5780637238637114610629576102f1565b806337d87d70116102ae57806337d87d70146104495780633f521f8c1461046d57806343ee5cdc1461048b5780634b521499146104a957806357635e91146104c75780635e0d5f13146104e7576102f1565b806316e63e30146102f65780631e9a69501461032a5780631f207d0814610378578063276545fe146103ef57806332ad97ab1461040d57806333f8bdfe1461042b575b600080fd5b6102fe610d2a565b604051808273ffffffffffffffffffffffffffffffffffffffff16815260200191505060405180910390f35b6103766004803603604081101561034057600080fd5b81019080803573ffffffffffffffffffffffffffffffffffffffff16906020019092919080359060200190929190505050610d50565b005b6103c46004803603604081101561038e57600080fd5b81019080803573ffffffffffffffffffffffffffffffffffffffff16906020019092919080359060200190929190505050610ef8565b6040518085815260200184815260200183815260200182815260200194505050505060405180910390f35b6103f761103b565b6040518082815260200191505060405180910390f35b610415611040565b6040518082815260200191505060405180910390f35b61043361104e565b6040518082815260200191505060405180910390f35b610451611055565b604051808263ffffffff16815260200191505060405180910390f35b61047561105a565b6040518082815260200191505060405180910390f35b61049361105f565b6040518082815260200191505060405180910390f35b6104b16112cf565b6040518082815260200191505060405180910390f35b6104cf6112d6565b60405180821515815260200191505060405180910390f35b6104ef6112e9565b604051808263ffffffff16815260200191505060405180910390f35b61054d6004803603602081101561052157600080fd5b81019080803573ffffffffffffffffffffffffffffffffffffffff1690602001909291905050506112ee565b6040518082815260200191505060405180910390f35b6105af6004803603604081101561057957600080fd5b81019080803573ffffffffffffffffffffffffffffffffffffffff16906020019092919080359060200190929190505050611300565b005b6105fd600480360360408110156105c757600080fd5b81019080803573ffffffffffffffffffffffffffffffffffffffff169060200190929190803590602001909291905050506114aa565b005b610607611654565b60405180821515815260200191505060405180910390f35b610627611667565b005b6106316117d7565b6040518082815260200191505060405180910390f35b61064f6117e2565b604051808273ffffffffffffffffffffffffffffffffffffffff16815260200191505060405180910390f35b610683611808565b6040518082815260200191505060405180910390f35b6106a1611ab8565b6040518082815260200191505060405180910390f35b6106bf611c8d565b604051808273ffffffffffffffffffffffffffffffffffffffff16815260200191505060405180910390f35b6107376004803603604081101561070157600080fd5b81019080803573ffffffffffffffffffffffffffffffffffffffff16906020019092919080359060200190929190505050611cb7565b6040518085815260200184815260200183815260200182815260200194505050505060405180910390f35b61076a611dfa565b6040518082815260200191505060405180910390f35b610788611dff565b6040518082815260200191505060405180910390f35b6107a6611e04565b6040518082815260200191505060405180910390f35b6107c4611e09565b60405180821515815260200191505060405180910390f35b6107e4611e1c565b6040518082815260200191505060405180910390f35b6108466004803603604081101561081057600080fd5b81019080803573ffffffffffffffffffffffffffffffffffffffff16906020019092919080359060200190929190505050611e21565b6040518085815260200184815260200183815260200182815260200194505050505060405180910390f35b6108ca6004803603606081101561088757600080fd5b81019080803573ffffffffffffffffffffffffffffffffffffffff16906020019092919080359060200190929190803560ff169060200190929190505050611f64565b6040518085815260200184815260200183815260200182815260200194505050505060405180910390f35b6109236004803603602081101561090b57600080fd5b81019080803515159060200190929190505050612718565b005b61092d6127e4565b005b6109376127ee565b6040518082815260200191505060405180910390f35b6109556128d1565b6040518082815260200191505060405180910390f35b6109996004803603602081101561098157600080fd5b810190808035151590602001909291905050506128d6565b005b6109a36129a2565b604051808273ffffffffffffffffffffffffffffffffffffffff16815260200191505060405180910390f35b610a51600480360360608110156109e557600080fd5b81019080803573ffffffffffffffffffffffffffffffffffffffff169060200190929190803573ffffffffffffffffffffffffffffffffffffffff169060200190929190803573ffffffffffffffffffffffffffffffffffffffff1690602001909291905050506129c8565b005b610a9f60048036036040811015610a6957600080fd5b81019080803573ffffffffffffffffffffffffffffffffffffffff16906020019092919080359060200190929190505050612dba565b005b610aa9612f64565b604051808273ffffffffffffffffffffffffffffffffffffffff16815260200191505060405180910390f35b610add612f8a565b604051808273ffffffffffffffffffffffffffffffffffffffff16815260200191505060405180910390f35b610b11612fb0565b6040518082815260200191505060405180910390f35b610b7360048036036040811015610b3d57600080fd5b81019080803573ffffffffffffffffffffffffffffffffffffffff16906020019092919080359060200190929190505050612fbf565b6040518085815260200184815260200183815260200182815260200194505050505060405180910390f35b610be860048036036080811015610bb457600080fd5b81019080803590602001909291908035906020019092919080359060200190929190803590602001909291905050506134ee565b6040518082815260200191505060405180910390f35b610c06613632565b6040518082815260200191505060405180910390f35b610c24613637565b6040518082815260200191505060405180910390f35b610c7c60048036036020811015610c5057600080fd5b81019080803573ffffffffffffffffffffffffffffffffffffffff1690602001909291905050506137b5565b005b610c866139aa565b604051808273ffffffffffffffffffffffffffffffffffffffff16815260200191505060405180910390f35b610cba6139d0565b6040518082815260200191505060405180910390f35b610cd86139d5565b6040518082815260200191505060405180910390f35b610cf66139db565b6040518082815260200191505060405180910390f35b610d146139e0565b6040518082815260200191505060405180910390f35b600460009054906101000a900473ffffffffffffffffffffffffffffffffffffffff1681565b600060029054906101000a900460ff16610dd2576040517f08c379a00000000000000000000000000000000000000000000000000000000081526004018080602001828103825260148152602001807f4d696e7420262072656465656d2070617573656400000000000000000000000081525060200191505060405180910390fd5b600160008373ffffffffffffffffffffffffffffffffffffffff1673ffffffffffffffffffffffffffffffffffffffff16815260200190815260200160002060009054906101000a900460ff16610e91576040517f08c379a00000000000000000000000000000000000000000000000000000000081526004018080602001828103825260188152602001807f436f6c6c61746572616c206e6f7420737570706f72746564000000000000000081525060200191505060405180910390fd5b60008111610eea576040517f08c379a0000000000000000000000000000000000000000000000000000000008152600401808060200182810382526021815260200180614d0b6021913960400191505060405180910390fd5b610ef482826139e6565b5050565b600080600080600160008773ffffffffffffffffffffffffffffffffffffffff1673ffffffffffffffffffffffffffffffffffffffff16815260200190815260200160002060009054906101000a900460ff16610fbd576040517f08c379a00000000000000000000000000000000000000000000000000000000081526004018080602001828103825260188152602001807f436f6c6c61746572616c206e6f7420737570706f72746564000000000000000081525060200191505060405180910390fd5b60008511611016576040517f08c379a0000000000000000000000000000000000000000000000000000000008152600401808060200182810382526021815260200180614d0b6021913960400191505060405180910390fd5b61102286866001611f64565b8094508195508296508397505050505092959194509250565b606381565b69152d02c7e14af680000081565b620186a081565b600c81565b600181565b60008060039054906101000a900460ff1661107d57600090506112cc565b6000600560009054906101000a900473ffffffffffffffffffffffffffffffffffffffff1673ffffffffffffffffffffffffffffffffffffffff166308432eea6040518163ffffffff1660e01b815260040160206040518083038186803b1580156110e757600080fd5b505afa1580156110fb573d6000803e3d6000fd5b505050506040513d602081101561111157600080fd5b810190808051906020019092919050505090506000600560009054906101000a900473ffffffffffffffffffffffffffffffffffffffff1673ffffffffffffffffffffffffffffffffffffffff1663c36d74976040518163ffffffff1660e01b815260040160206040518083038186803b15801561118e57600080fd5b505afa1580156111a2573d6000803e3d6000fd5b505050506040513d60208110156111b857600080fd5b8101908080519060200190929190505050905060006111f460646111e6846063613ce090919063ffffffff16565b613d6690919063ffffffff16565b905082811015611217576103e8620f42408161120c57fe5b0493505050506112cc565b600061124260016112346032878603613ce090919063ffffffff16565b613d6690919063ffffffff16565b905060006112598283613ce090919063ffffffff16565b90506000611297856112898761127b620f424087613ce090919063ffffffff16565b613d6690919063ffffffff16565b613d6690919063ffffffff16565b905060006112af606483613d6690919063ffffffff16565b9050806103e8620f4240816112c057fe5b04019750505050505050505b90565b620f424081565b600060029054906101000a900460ff1681565b600a81565b60006112f982613def565b9050919050565b600060029054906101000a900460ff16611382576040517f08c379a00000000000000000000000000000000000000000000000000000000081526004018080602001828103825260148152602001807f4d696e7420262072656465656d2070617573656400000000000000000000000081525060200191505060405180910390fd5b600160008373ffffffffffffffffffffffffffffffffffffffff1673ffffffffffffffffffffffffffffffffffffffff16815260200190815260200160002060009054906101000a900460ff16611441576040517f08c379a00000000000000000000000000000000000000000000000000000000081526004018080602001828103825260188152602001807f436f6c6c61746572616c206e6f7420737570706f72746564000000000000000081525060200191505060405180910390fd5b6000811161149a576040517f08c379a0000000000000000000000000000000000000000000000000000000008152600401808060200182810382526021815260200180614d0b6021913960400191505060405180910390fd5b6114a682826000613e9f565b5050565b600060029054906101000a900460ff1661152c576040517f08c379a00000000000000000000000000000000000000000000000000000000081526004018080602001828103825260148152602001807f4d696e7420262072656465656d2070617573656400000000000000000000000081525060200191505060405180910390fd5b600160008373ffffffffffffffffffffffffffffffffffffffff1673ffffffffffffffffffffffffffffffffffffffff16815260200190815260200160002060009054906101000a900460ff166115eb576040517f08c379a00000000000000000000000000000000000000000000000000000000081526004018080602001828103825260188152602001807f436f6c6c61746572616c206e6f7420737570706f72746564000000000000000081525060200191505060405180910390fd5b60008111611644576040517f08c379a0000000000000000000000000000000000000000000000000000000008152600401808060200182810382526021815260200180614d0b6021913960400191505060405180910390fd5b61165082826002613e9f565b5050565b600060049054906101000a900460ff1681565b61166f6141b5565b73ffffffffffffffffffffffffffffffffffffffff1661168d611c8d565b73ffffffffffffffffffffffffffffffffffffffff1614611716576040517f08c379a00000000000000000000000000000000000000000000000000000000081526004018080602001828103825260208152602001807f4f776e61626c653a2063616c6c6572206973206e6f7420746865206f776e657281525060200191505060405180910390fd5b600073ffffffffffffffffffffffffffffffffffffffff16604060009054906101000a900473ffffffffffffffffffffffffffffffffffffffff1673ffffffffffffffffffffffffffffffffffffffff167f8be0079c531659141344cd1fd0a4f28419497f9722a3daafe3b4186f6b6457e060405160405180910390a36000604060006101000a81548173ffffffffffffffffffffffffffffffffffffffff021916908373ffffffffffffffffffffffffffffffffffffffff160217905550565b66123a3aa239f65c81565b600560009054906101000a900473ffffffffffffffffffffffffffffffffffffffff1681565b60008060049054906101000a900460ff166118265760009050611ab5565b6000600560009054906101000a900473ffffffffffffffffffffffffffffffffffffffff1673ffffffffffffffffffffffffffffffffffffffff16630b71f2166040518163ffffffff1660e01b815260040160206040518083038186803b15801561189057600080fd5b505afa1580156118a4573d6000803e3d6000fd5b505050506040513d60208110156118ba57600080fd5b810190808051906020019092919050505090506000600560009054906101000a900473ffffffffffffffffffffffffffffffffffffffff1673ffffffffffffffffffffffffffffffffffffffff16631f58c4416040518163ffffffff1660e01b815260040160206040518083038186803b15801561193757600080fd5b505afa15801561194b573d6000803e3d6000fd5b505050506040513d602081101561196157600080fd5b8101908080519060200190929190505050905061199b600a61198d83600c613ce090919063ffffffff16565b613d6690919063ffffffff16565b82116119ad576103e892505050611ab5565b600080600d60009054906101000a900473ffffffffffffffffffffffffffffffffffffffff1673ffffffffffffffffffffffffffffffffffffffff166332833d5160146001600c600a6040518563ffffffff1660e01b8152600401808581526020018481526020018363ffffffff1681526020018263ffffffff168152602001945050505050604080518083038186803b158015611a4a57600080fd5b505afa158015611a5e573d6000803e3d6000fd5b505050506040513d6040811015611a7457600080fd5b81019080805190602001909291908051906020019092919050505091509150611aae6127108260ff1684901c613ce090919063ffffffff16565b9450505050505b90565b600080600560009054906101000a900473ffffffffffffffffffffffffffffffffffffffff1673ffffffffffffffffffffffffffffffffffffffff166308432eea6040518163ffffffff1660e01b815260040160206040518083038186803b158015611b2357600080fd5b505afa158015611b37573d6000803e3d6000fd5b505050506040513d6020811015611b4d57600080fd5b810190808051906020019092919050505090506000600560009054906101000a900473ffffffffffffffffffffffffffffffffffffffff1673ffffffffffffffffffffffffffffffffffffffff1663c36d74976040518163ffffffff1660e01b815260040160206040518083038186803b158015611bca57600080fd5b505afa158015611bde573d6000803e3d6000fd5b505050506040513d6020811015611bf457600080fd5b810190808051906020019092919050505090506000611c1e600a54436141bd90919063ffffffff16565b90506000611c30600b548386866134ee565b9050600081905080821115611c8157611c7a611c6b6001611c5d8486036001613ce090919063ffffffff16565b613d6690919063ffffffff16565b8361424090919063ffffffff16565b9550611c85565b8195505b505050505090565b6000604060009054906101000a900473ffffffffffffffffffffffffffffffffffffffff16905090565b600080600080600160008773ffffffffffffffffffffffffffffffffffffffff1673ffffffffffffffffffffffffffffffffffffffff16815260200190815260200160002060009054906101000a900460ff16611d7c576040517f08c379a00000000000000000000000000000000000000000000000000000000081526004018080602001828103825260188152602001807f436f6c6c61746572616c206e6f7420737570706f72746564000000000000000081525060200191505060405180910390fd5b60008511611dd5576040517f08c379a0000000000000000000000000000000000000000000000000000000008152600401808060200182810382526021815260200180614d0b6021913960400191505060405180910390fd5b611de186866000611f64565b8094508195508296508397505050505092959194509250565b600981565b600181565b600181565b600060039054906101000a900460ff1681565b601481565b600080600080600160008773ffffffffffffffffffffffffffffffffffffffff1673ffffffffffffffffffffffffffffffffffffffff16815260200190815260200160002060009054906101000a900460ff16611ee6576040517f08c379a00000000000000000000000000000000000000000000000000000000081526004018080602001828103825260188152602001807f436f6c6c61746572616c206e6f7420737570706f72746564000000000000000081525060200191505060405180910390fd5b60008511611f3f576040517f08c379a0000000000000000000000000000000000000000000000000000000008152600401808060200182810382526021815260200180614d0b6021913960400191505060405180910390fd5b611f4b86866002611f64565b8094508195508296508397505050505092959194509250565b6000806000806000600560009054906101000a900473ffffffffffffffffffffffffffffffffffffffff1673ffffffffffffffffffffffffffffffffffffffff16639f1a442e896040518263ffffffff1660e01b8152600401808273ffffffffffffffffffffffffffffffffffffffff16815260200191505060206040518083038186803b158015611ff557600080fd5b505afa158015612009573d6000803e3d6000fd5b505050506040513d602081101561201f57600080fd5b810190808051906020019092919050505090506000600560009054906101000a900473ffffffffffffffffffffffffffffffffffffffff1673ffffffffffffffffffffffffffffffffffffffff16637d1489fe8a6040518263ffffffff1660e01b8152600401808273ffffffffffffffffffffffffffffffffffffffff16815260200191505060206040518083038186803b1580156120bd57600080fd5b505afa1580156120d1573d6000803e3d6000fd5b505050506040513d60208110156120e757600080fd5b810190808051906020019092919050505090506000600560009054906101000a900473ffffffffffffffffffffffffffffffffffffffff1673ffffffffffffffffffffffffffffffffffffffff166312dd85ee6040518163ffffffff1660e01b815260040160206040518083038186803b15801561216457600080fd5b505afa158015612178573d6000803e3d6000fd5b505050506040513d602081101561218e57600080fd5b810190808051906020019092919050505090506000600560009054906101000a900473ffffffffffffffffffffffffffffffffffffffff1673ffffffffffffffffffffffffffffffffffffffff1663743db8276040518163ffffffff1660e01b815260040160206040518083038186803b15801561220b57600080fd5b505afa15801561221f573d6000803e3d6000fd5b505050506040513d602081101561223557600080fd5b81019080805190602001909291905050509050600061225261105f565b9050600061225e613637565b90506000808c60ff1614156123cc578c98506122c1612289620186a087613ce090919063ffffffff16565b6122b3866122a586620186a0038e613ce090919063ffffffff16565b613ce090919063ffffffff16565b613d6690919063ffffffff16565b9a506000831115612309576123066122f7620f42406122e9868f613ce090919063ffffffff16565b613d6690919063ffffffff16565b8c61424090919063ffffffff16565b9a505b61235561232288620186a0613ce090919063ffffffff16565b61234788612339868e613ce090919063ffffffff16565b613ce090919063ffffffff16565b613d6690919063ffffffff16565b9050600083111561239d5761239a61238b620f424061237d8685613ce090919063ffffffff16565b613d6690919063ffffffff16565b8261424090919063ffffffff16565b90505b6123c5620f42406123b7858c613ce090919063ffffffff16565b613d6690919063ffffffff16565b975061264e565b60018c60ff16141561252b578c9a508a9850600083111561241557612412612400620f424085613d6690919063ffffffff16565b6001018a613d6690919063ffffffff16565b98505b61246661243083620186a00386613ce090919063ffffffff16565b6124588761244a620186a08e613ce090919063ffffffff16565b613ce090919063ffffffff16565b613d6690919063ffffffff16565b98506124b461248188620186a0613ce090919063ffffffff16565b6124a688612498868e613ce090919063ffffffff16565b613ce090919063ffffffff16565b613d6690919063ffffffff16565b905060008311156124fc576124f96124ea620f42406124dc8685613ce090919063ffffffff16565b613d6690919063ffffffff16565b8261424090919063ffffffff16565b90505b612524620f4240612516858c613ce090919063ffffffff16565b613d6690919063ffffffff16565b975061264d565b60028c60ff16141561264c578c9050612586826125788861256a61255b8c620186a0613ce090919063ffffffff16565b86613ce090919063ffffffff16565b613d6690919063ffffffff16565b613d6690919063ffffffff16565b98506125d96125a1620186a087613ce090919063ffffffff16565b6125cb866125bd86620186a0038e613ce090919063ffffffff16565b613ce090919063ffffffff16565b613d6690919063ffffffff16565b9a5060008311156126215761261e61260f620f4240612601868f613ce090919063ffffffff16565b613d6690919063ffffffff16565b8c61424090919063ffffffff16565b9a505b612649620f424061263b858c613ce090919063ffffffff16565b613d6690919063ffffffff16565b97505b5b5b60008e905060008173ffffffffffffffffffffffffffffffffffffffff1663313ce5676040518163ffffffff1660e01b815260040160206040518083038186803b15801561269b57600080fd5b505afa1580156126af573d6000803e3d6000fd5b505050506040513d60208110156126c557600080fd5b810190808051906020019092919050505060ff1690506127046126f28260126141bd90919063ffffffff16565b600a0a84613d6690919063ffffffff16565b9b5050505050505050505093509350935093565b6127206141b5565b73ffffffffffffffffffffffffffffffffffffffff1661273e611c8d565b73ffffffffffffffffffffffffffffffffffffffff16146127c7576040517f08c379a00000000000000000000000000000000000000000000000000000000081526004018080602001828103825260208152602001807f4f776e61626c653a2063616c6c6572206973206e6f7420746865206f776e657281525060200191505060405180910390fd5b80600060036101000a81548160ff02191690831515021790555050565b6127ec6142c8565b565b6000806127f9614422565b90506000600c60009054906101000a900473ffffffffffffffffffffffffffffffffffffffff1673ffffffffffffffffffffffffffffffffffffffff166318160ddd6040518163ffffffff1660e01b815260040160206040518083038186803b15801561286557600080fd5b505afa158015612879573d6000803e3d6000fd5b505050506040513d602081101561288f57600080fd5b810190808051906020019092919050505090506128ca816128bc620186a085613ce090919063ffffffff16565b613d6690919063ffffffff16565b9250505090565b606481565b6128de6141b5565b73ffffffffffffffffffffffffffffffffffffffff166128fc611c8d565b73ffffffffffffffffffffffffffffffffffffffff1614612985576040517f08c379a00000000000000000000000000000000000000000000000000000000081526004018080602001828103825260208152602001807f4f776e61626c653a2063616c6c6572206973206e6f7420746865206f776e657281525060200191505060405180910390fd5b80600060046101000a81548160ff02191690831515021790555050565b600860009054906101000a900473ffffffffffffffffffffffffffffffffffffffff1681565b600060019054906101000a900460ff16806129e757506129e661444a565b5b806129fd575060008054906101000a900460ff16155b612a52576040517f08c379a000000000000000000000000000000000000000000000000000000000815260040180806020018281038252602e815260200180614d52602e913960400191505060405180910390fd5b60008060019054906101000a900460ff161590508015612aa2576001600060016101000a81548160ff02191690831515021790555060016000806101000a81548160ff0219169083151502179055505b612aaa61445b565b6001600060026101000a81548160ff0219169083151502179055506001600060036101000a81548160ff0219169083151502179055506001600060046101000a81548160ff02191690831515021790555073fb931d41a744be590e8b51e2e343bbe030ac4f93600460006101000a81548173ffffffffffffffffffffffffffffffffffffffff021916908373ffffffffffffffffffffffffffffffffffffffff16021790555062017318600b8190555030600660006101000a81548173ffffffffffffffffffffffffffffffffffffffff021916908373ffffffffffffffffffffffffffffffffffffffff16021790555030600760006101000a81548173ffffffffffffffffffffffffffffffffffffffff021916908373ffffffffffffffffffffffffffffffffffffffff16021790555030600860006101000a81548173ffffffffffffffffffffffffffffffffffffffff021916908373ffffffffffffffffffffffffffffffffffffffff16021790555030600960006101000a81548173ffffffffffffffffffffffffffffffffffffffff021916908373ffffffffffffffffffffffffffffffffffffffff160217905550600180600073b7a4f3e9097c08da09517b5ab877f7a917224ede73ffffffffffffffffffffffffffffffffffffffff1673ffffffffffffffffffffffffffffffffffffffff16815260200190815260200160002060006101000a81548160ff02191690831515021790555083600c60006101000a81548173ffffffffffffffffffffffffffffffffffffffff021916908373ffffffffffffffffffffffffffffffffffffffff16021790555082600560006101000a81548173ffffffffffffffffffffffffffffffffffffffff021916908373ffffffffffffffffffffffffffffffffffffffff16021790555081600d60006101000a81548173ffffffffffffffffffffffffffffffffffffffff021916908373ffffffffffffffffffffffffffffffffffffffff16021790555043600a819055508015612db45760008060016101000a81548160ff0219169083151502179055505b50505050565b600060029054906101000a900460ff16612e3c576040517f08c379a00000000000000000000000000000000000000000000000000000000081526004018080602001828103825260148152602001807f4d696e7420262072656465656d2070617573656400000000000000000000000081525060200191505060405180910390fd5b600160008373ffffffffffffffffffffffffffffffffffffffff1673ffffffffffffffffffffffffffffffffffffffff16815260200190815260200160002060009054906101000a900460ff16612efb576040517f08c379a00000000000000000000000000000000000000000000000000000000081526004018080602001828103825260188152602001807f436f6c6c61746572616c206e6f7420737570706f72746564000000000000000081525060200191505060405180910390fd5b60008111612f54576040517f08c379a0000000000000000000000000000000000000000000000000000000008152600401808060200182810382526021815260200180614d0b6021913960400191505060405180910390fd5b612f6082826001613e9f565b5050565b600960009054906101000a900473ffffffffffffffffffffffffffffffffffffffff1681565b600660009054906101000a900473ffffffffffffffffffffffffffffffffffffffff1681565b6000612fba614422565b905090565b6000806000806000600560009054906101000a900473ffffffffffffffffffffffffffffffffffffffff1673ffffffffffffffffffffffffffffffffffffffff16639f1a442e886040518263ffffffff1660e01b8152600401808273ffffffffffffffffffffffffffffffffffffffff16815260200191505060206040518083038186803b15801561305057600080fd5b505afa158015613064573d6000803e3d6000fd5b505050506040513d602081101561307a57600080fd5b810190808051906020019092919050505090506000600560009054906101000a900473ffffffffffffffffffffffffffffffffffffffff1673ffffffffffffffffffffffffffffffffffffffff16637d1489fe896040518263ffffffff1660e01b8152600401808273ffffffffffffffffffffffffffffffffffffffff16815260200191505060206040518083038186803b15801561311857600080fd5b505afa15801561312c573d6000803e3d6000fd5b505050506040513d602081101561314257600080fd5b810190808051906020019092919050505090506000600560009054906101000a900473ffffffffffffffffffffffffffffffffffffffff1673ffffffffffffffffffffffffffffffffffffffff166312dd85ee6040518163ffffffff1660e01b815260040160206040518083038186803b1580156131bf57600080fd5b505afa1580156131d3573d6000803e3d6000fd5b505050506040513d60208110156131e957600080fd5b810190808051906020019092919050505090506000600560009054906101000a900473ffffffffffffffffffffffffffffffffffffffff1673ffffffffffffffffffffffffffffffffffffffff1663743db8276040518163ffffffff1660e01b815260040160206040518083038186803b15801561326657600080fd5b505afa15801561327a573d6000803e3d6000fd5b505050506040513d602081101561329057600080fd5b8101908080519060200190929190505050905060006132ad611808565b90506133076132c8620186a085613ce090919063ffffffff16565b6132f9846132eb6132d7611ab8565b620186a0038f613ce090919063ffffffff16565b613ce090919063ffffffff16565b613d6690919063ffffffff16565b9850600081111561334f5761334c61333d620f424061332f848d613ce090919063ffffffff16565b613d6690919063ffffffff16565b8a6141bd90919063ffffffff16565b98505b60006133a461336a87620186a0613ce090919063ffffffff16565b61339661338788613379611ab8565b613ce090919063ffffffff16565b8e613ce090919063ffffffff16565b613d6690919063ffffffff16565b905060008211156133ec576133e96133da620f42406133cc8585613ce090919063ffffffff16565b613d6690919063ffffffff16565b826141bd90919063ffffffff16565b90505b60008c73ffffffffffffffffffffffffffffffffffffffff1663313ce5676040518163ffffffff1660e01b815260040160206040518083038186803b15801561343457600080fd5b505afa158015613448573d6000803e3d6000fd5b505050506040513d602081101561345e57600080fd5b810190808051906020019092919050505060ff16905061349d61348b8260126141bd90919063ffffffff16565b600a0a83613d6690919063ffffffff16565b99506134c7620f42406134b9858f613ce090919063ffffffff16565b613d6690919063ffffffff16565b97506134dc888d6141bd90919063ffffffff16565b98505050505050505092959194509250565b60008061352769152d02c7e14af680000061351966123a3aa239f65c88613ce090919063ffffffff16565b613d6690919063ffffffff16565b905060008385111561359e576135706001613562868803613554888a036009613ce090919063ffffffff16565b613ce090919063ffffffff16565b613d6690919063ffffffff16565b905061359781613589848a6141bd90919063ffffffff16565b61424090919063ffffffff16565b9250613628565b83851015613611576135e360016135d58787036135c78989036009613ce090919063ffffffff16565b613ce090919063ffffffff16565b613d6690919063ffffffff16565b905061360a816135fc848a6141bd90919063ffffffff16565b6141bd90919063ffffffff16565b9250613627565b61362482886141bd90919063ffffffff16565b92505b5b5050949350505050565b603281565b600080600560009054906101000a900473ffffffffffffffffffffffffffffffffffffffff1673ffffffffffffffffffffffffffffffffffffffff166308432eea6040518163ffffffff1660e01b815260040160206040518083038186803b1580156136a257600080fd5b505afa1580156136b6573d6000803e3d6000fd5b505050506040513d60208110156136cc57600080fd5b810190808051906020019092919050505090506000600560009054906101000a900473ffffffffffffffffffffffffffffffffffffffff1673ffffffffffffffffffffffffffffffffffffffff1663c36d74976040518163ffffffff1660e01b815260040160206040518083038186803b15801561374957600080fd5b505afa15801561375d573d6000803e3d6000fd5b505050506040513d602081101561377357600080fd5b81019080805190602001909291905050509050600061379d600a54436141bd90919063ffffffff16565b90506137ad600b548285856134ee565b935050505090565b6137bd6141b5565b73ffffffffffffffffffffffffffffffffffffffff166137db611c8d565b73ffffffffffffffffffffffffffffffffffffffff1614613864576040517f08c379a00000000000000000000000000000000000000000000000000000000081526004018080602001828103825260208152602001807f4f776e61626c653a2063616c6c6572206973206e6f7420746865206f776e657281525060200191505060405180910390fd5b600073ffffffffffffffffffffffffffffffffffffffff168173ffffffffffffffffffffffffffffffffffffffff1614156138ea576040517f08c379a0000000000000000000000000000000000000000000000000000000008152600401808060200182810382526026815260200180614ce56026913960400191505060405180910390fd5b8073ffffffffffffffffffffffffffffffffffffffff16604060009054906101000a900473ffffffffffffffffffffffffffffffffffffffff1673ffffffffffffffffffffffffffffffffffffffff167f8be0079c531659141344cd1fd0a4f28419497f9722a3daafe3b4186f6b6457e060405160405180910390a380604060006101000a81548173ffffffffffffffffffffffffffffffffffffffff021916908373ffffffffffffffffffffffffffffffffffffffff16021790555050565b600760009054906101000a900473ffffffffffffffffffffffffffffffffffffffff1681565b600181565b600b5481565b600181565b600a5481565b600060029054906101000a900460ff16613a68576040517f08c379a00000000000000000000000000000000000000000000000000000000081526004018080602001828103825260148152602001807f4d696e7420262072656465656d2070617573656400000000000000000000000081525060200191505060405180910390fd5b600080600080613a788686612fbf565b9350935093509350613acf600760009054906101000a900473ffffffffffffffffffffffffffffffffffffffff1633868973ffffffffffffffffffffffffffffffffffffffff16614569909392919063ffffffff16565b613b1e600660009054906101000a900473ffffffffffffffffffffffffffffffffffffffff1633858973ffffffffffffffffffffffffffffffffffffffff16614569909392919063ffffffff16565b600c60009054906101000a900473ffffffffffffffffffffffffffffffffffffffff1673ffffffffffffffffffffffffffffffffffffffff16639dc29fac33846040518363ffffffff1660e01b8152600401808373ffffffffffffffffffffffffffffffffffffffff16815260200182815260200192505050600060405180830381600087803b158015613bb157600080fd5b505af1158015613bc5573d6000803e3d6000fd5b50505050600c60009054906101000a900473ffffffffffffffffffffffffffffffffffffffff1673ffffffffffffffffffffffffffffffffffffffff166323b872dd33600860009054906101000a900473ffffffffffffffffffffffffffffffffffffffff16846040518463ffffffff1660e01b8152600401808473ffffffffffffffffffffffffffffffffffffffff1681526020018373ffffffffffffffffffffffffffffffffffffffff1681526020018281526020019350505050602060405180830381600087803b158015613c9c57600080fd5b505af1158015613cb0573d6000803e3d6000fd5b505050506040513d6020811015613cc657600080fd5b810190808051906020019092919050505050505050505050565b600080831415613cf35760009050613d60565b6000828402905082848281613d0457fe5b0414613d5b576040517f08c379a0000000000000000000000000000000000000000000000000000000008152600401808060200182810382526021815260200180614d806021913960400191505060405180910390fd5b809150505b92915050565b6000808211613ddd576040517f08c379a000000000000000000000000000000000000000000000000000000000815260040180806020018281038252601a8152602001807f536166654d6174683a206469766973696f6e206279207a65726f00000000000081525060200191505060405180910390fd5b818381613de657fe5b04905092915050565b6000808290508073ffffffffffffffffffffffffffffffffffffffff166370a08231306040518263ffffffff1660e01b8152600401808273ffffffffffffffffffffffffffffffffffffffff16815260200191505060206040518083038186803b158015613e5c57600080fd5b505afa158015613e70573d6000803e3d6000fd5b505050506040513d6020811015613e8657600080fd5b8101908080519060200190929190505050915050919050565b600060029054906101000a900460ff16613f21576040517f08c379a00000000000000000000000000000000000000000000000000000000081526004018080602001828103825260148152602001807f4d696e7420262072656465656d2070617573656400000000000000000000000081525060200191505060405180910390fd5b600080600080613f32878787611f64565b9350935093509350600460009054906101000a900473ffffffffffffffffffffffffffffffffffffffff1673ffffffffffffffffffffffffffffffffffffffff166379cc679033866040518363ffffffff1660e01b8152600401808373ffffffffffffffffffffffffffffffffffffffff16815260200182815260200192505050600060405180830381600087803b158015613fcd57600080fd5b505af1158015613fe1573d6000803e3d6000fd5b5050505061403433600660009054906101000a900473ffffffffffffffffffffffffffffffffffffffff16858a73ffffffffffffffffffffffffffffffffffffffff16614569909392919063ffffffff16565b600c60009054906101000a900473ffffffffffffffffffffffffffffffffffffffff1673ffffffffffffffffffffffffffffffffffffffff166340c10f1933846040518363ffffffff1660e01b8152600401808373ffffffffffffffffffffffffffffffffffffffff16815260200182815260200192505050600060405180830381600087803b1580156140c757600080fd5b505af11580156140db573d6000803e3d6000fd5b50505050600c60009054906101000a900473ffffffffffffffffffffffffffffffffffffffff1673ffffffffffffffffffffffffffffffffffffffff166340c10f19600860009054906101000a900473ffffffffffffffffffffffffffffffffffffffff16836040518363ffffffff1660e01b8152600401808373ffffffffffffffffffffffffffffffffffffffff16815260200182815260200192505050600060405180830381600087803b15801561419457600080fd5b505af11580156141a8573d6000803e3d6000fd5b5050505050505050505050565b600033905090565b600082821115614235576040517f08c379a000000000000000000000000000000000000000000000000000000000815260040180806020018281038252601e8152602001807f536166654d6174683a207375627472616374696f6e206f766572666c6f77000081525060200191505060405180910390fd5b818303905092915050565b6000808284019050838110156142be576040517f08c379a000000000000000000000000000000000000000000000000000000000815260040180806020018281038252601b8152602001807f536166654d6174683a206164646974696f6e206f766572666c6f77000000000081525060200191505060405180910390fd5b8091505092915050565b6000600c60009054906101000a900473ffffffffffffffffffffffffffffffffffffffff1673ffffffffffffffffffffffffffffffffffffffff166318160ddd6040518163ffffffff1660e01b815260040160206040518083038186803b15801561433257600080fd5b505afa158015614346573d6000803e3d6000fd5b505050506040513d602081101561435c57600080fd5b810190808051906020019092919050505090506000614379614422565b9050818111801561438b575060008214155b1561441e57600c60009054906101000a900473ffffffffffffffffffffffffffffffffffffffff1673ffffffffffffffffffffffffffffffffffffffff166339a7919f826040518263ffffffff1660e01b815260040180828152602001915050600060405180830381600087803b15801561440557600080fd5b505af1158015614419573d6000803e3d6000fd5b505050505b5050565b600061444561442f61462a565b6144376146a4565b61424090919063ffffffff16565b905090565b6000614455306146a9565b15905090565b600060019054906101000a900460ff168061447a575061447961444a565b5b80614490575060008054906101000a900460ff16155b6144e5576040517f08c379a000000000000000000000000000000000000000000000000000000000815260040180806020018281038252602e815260200180614d52602e913960400191505060405180910390fd5b60008060019054906101000a900460ff161590508015614535576001600060016101000a81548160ff02191690831515021790555060016000806101000a81548160ff0219169083151502179055505b61453d6146bc565b6145456147ba565b80156145665760008060016101000a81548160ff0219169083151502179055505b50565b614624846323b872dd60e01b858585604051602401808473ffffffffffffffffffffffffffffffffffffffff1681526020018373ffffffffffffffffffffffffffffffffffffffff1681526020018281526020019350505050604051602081830303815290604052907bffffffffffffffffffffffffffffffffffffffffffffffffffffffff19166020820180517bffffffffffffffffffffffffffffffffffffffffffffffffffffffff8381831617835250505050614961565b50505050565b600080600090505b6003805490508110156146a0576146916146826003838154811061465257fe5b9060005260206000200160009054906101000a900473ffffffffffffffffffffffffffffffffffffffff16614a50565b8361424090919063ffffffff16565b91508080600101915050614632565b5090565b600090565b600080823b905060008111915050919050565b600060019054906101000a900460ff16806146db57506146da61444a565b5b806146f1575060008054906101000a900460ff16155b614746576040517f08c379a000000000000000000000000000000000000000000000000000000000815260040180806020018281038252602e815260200180614d52602e913960400191505060405180910390fd5b60008060019054906101000a900460ff161590508015614796576001600060016101000a81548160ff02191690831515021790555060016000806101000a81548160ff0219169083151502179055505b80156147b75760008060016101000a81548160ff0219169083151502179055505b50565b600060019054906101000a900460ff16806147d957506147d861444a565b5b806147ef575060008054906101000a900460ff16155b614844576040517f08c379a000000000000000000000000000000000000000000000000000000000815260040180806020018281038252602e815260200180614d52602e913960400191505060405180910390fd5b60008060019054906101000a900460ff161590508015614894576001600060016101000a81548160ff02191690831515021790555060016000806101000a81548160ff0219169083151502179055505b600061489e6141b5565b905080604060006101000a81548173ffffffffffffffffffffffffffffffffffffffff021916908373ffffffffffffffffffffffffffffffffffffffff1602179055508073ffffffffffffffffffffffffffffffffffffffff16600073ffffffffffffffffffffffffffffffffffffffff167f8be0079c531659141344cd1fd0a4f28419497f9722a3daafe3b4186f6b6457e060405160405180910390a350801561495e5760008060016101000a81548160ff0219169083151502179055505b50565b60606149c3826040518060400160405280602081526020017f5361666545524332303a206c6f772d6c6576656c2063616c6c206661696c65648152508573ffffffffffffffffffffffffffffffffffffffff16614a579092919063ffffffff16565b9050600081511115614a4b578080602001905160208110156149e457600080fd5b8101908080519060200190929190505050614a4a576040517f08c379a000000000000000000000000000000000000000000000000000000000815260040180806020018281038252602a815260200180614da1602a913960400191505060405180910390fd5b5b505050565b6000919050565b6060614a668484600085614a6f565b90509392505050565b606082471015614aca576040517f08c379a0000000000000000000000000000000000000000000000000000000008152600401808060200182810382526026815260200180614d2c6026913960400191505060405180910390fd5b614ad3856146a9565b614b45576040517f08c379a000000000000000000000000000000000000000000000000000000000815260040180806020018281038252601d8152602001807f416464726573733a2063616c6c20746f206e6f6e2d636f6e747261637400000081525060200191505060405180910390fd5b600060608673ffffffffffffffffffffffffffffffffffffffff1685876040518082805190602001908083835b60208310614b955780518252602082019150602081019050602083039250614b72565b6001836020036101000a03801982511681845116808217855250505050505090500191505060006040518083038185875af1925050503d8060008114614bf7576040519150601f19603f3d011682016040523d82523d6000602084013e614bfc565b606091505b5091509150614c0c828286614c18565b92505050949350505050565b60608315614c2857829050614cdd565b600083511115614c3b5782518084602001fd5b816040517f08c379a00000000000000000000000000000000000000000000000000000000081526004018080602001828103825283818151815260200191508051906020019080838360005b83811015614ca2578082015181840152602081019050614c87565b50505050905090810190601f168015614ccf5780820380516001836020036101000a031916815260200191505b509250505060405180910390fd5b939250505056fe4f776e61626c653a206e6577206f776e657220697320746865207a65726f2061646472657373416d6f756e74206e6565647320746f2062652067726561746572207468616e2030416464726573733a20696e73756666696369656e742062616c616e636520666f722063616c6c496e697469616c697a61626c653a20636f6e747261637420697320616c726561647920696e697469616c697a6564536166654d6174683a206d756c7469706c69636174696f6e206f766572666c6f775361666545524332303a204552433230206f7065726174696f6e20646964206e6f742073756363656564a2646970667358221220f646afb44a982a8eafc2236bb3dbe65e82ee264593e172234fd9675946e2418d64736f6c634300060c0033",
  "immutableReferences": {},
  "source": "//To-do: fix presion\n\npragma solidity ^0.6.12;\n\nimport \"@openzeppelin/contracts-upgradeable/proxy/Initializable.sol\";\nimport \"@openzeppelin/contracts-upgradeable/access/OwnableUpgradeable.sol\";\nimport \"@openzeppelin/contracts-upgradeable/math/SafeMathUpgradeable.sol\";\nimport \"@openzeppelin/contracts-upgradeable/utils/AddressUpgradeable.sol\";\nimport \"@openzeppelin/contracts-upgradeable/token/ERC20/SafeERC20Upgradeable.sol\";\nimport \"@openzeppelin/contracts-upgradeable/token/ERC20/ERC20Upgradeable.sol\";\n\nimport \"./VaultStorage.sol\";\nimport \"../libraries/MyMath.sol\";\nimport \"../libraries/Helpers.sol\";\nimport \"../interfaces/IOracle.sol\";\nimport \"../interfaces/ISperaxToken.sol\";\n\ncontract VaultCore is Initializable, VaultStorage, OwnableUpgradeable {\n\tusing SafeERC20Upgradeable for ERC20Upgradeable;\n\tusing SafeMathUpgradeable for uint;\n\tusing MyMath for uint;\n\n\tmodifier whenMintRedeemAllowed {\n\t\trequire(mintRedeemAllowed, \"Mint & redeem paused\");\n\t\t_;\n\t}\n\n\tfunction initialize(address USDsToken_, address oracleAddr_, address BancorFormulaAddr_) public initializer {\n\t\tOwnableUpgradeable.__Ownable_init();\n\t\t// Initialize variables\n\t\tmintRedeemAllowed = true;\n\t\tswapfeeInAllowed = true;\n\t\tswapfeeOutAllowed = true;\n\t\tSPATokenAddr = 0xFb931d41A744bE590E8B51e2e343bBE030aC4f93;\n\t\tchiInit = 95000;\n\n\t\tcollaValut = address(this);\n\t\tSPAValut = address(this);\n\t\tUSDsFeeValut = address(this);\n\t\tUSDsYieldValut = address(this);\n\t\tsupportedCollat[0xb7a4F3E9097C08dA09517b5aB877F7a917224ede] = true;\n\t\tUSDsInstance = USDs(USDsToken_);\n\t\toracleAddr = oracleAddr_;\n\t\tBancorInstance = BancorFormula(BancorFormulaAddr_);\n\t\tstartBlockHeight = block.number;\n\t}\n\n\n\tfunction calculateSwapFeeIn() public view returns (uint) {\n\t\tif (!swapfeeInAllowed) {\n\t\t\treturn 0;\n\t\t}\n\n\t\tuint priceUSDs = uint(IOracle(oracleAddr).getUSDsPrice()); //TODO: change to 3 days average\n\t\tuint precisionUSDs = IOracle(oracleAddr).USDsPricePrecision();\n\t\tuint smallPwithPrecision = swapFee_p.mul(precisionUSDs).div(swapFee_p_Prec);\n\t\tif (smallPwithPrecision < priceUSDs) {\n\t\t\treturn swapFeePresion / 1000; // 0.1%\n\t\t} else {\n\t\t\tuint temp = (smallPwithPrecision - priceUSDs).mul(swapFee_theta).div(swapFee_theta_Prec); //precision: precisionUSDs\n\t\t\tuint temp2 = temp.mul(temp); //precision: precisionUSDs^2\n\t\t\tuint temp3 = temp2.mul(swapFeePresion).div(precisionUSDs).div(precisionUSDs);\n\t\t\tuint temp4 = temp3.div(100);\n\t\t\treturn swapFeePresion / 1000 + temp4;\n\t\t}\n\n\t}\n\n\tfunction calculateSwapFeeOut() public view returns (uint) {\n\t\tif (!swapfeeOutAllowed) {\n\t\t\treturn 0;\n\t\t}\n\t\tuint USDsInOutRatio = IOracle(oracleAddr).USDsInOutRatio();\n\t\tuint USDsInOutRatioPrecision = IOracle(oracleAddr).USDsInOutRatioPrecision();\n\t\tif (USDsInOutRatio <= uint(12).mul(USDsInOutRatioPrecision).div(10)) {\n\t\t\treturn 1000; //0.1%\n\t\t} else {\n\n\t\t\t(uint powResWithPrec, uint8 powResPrec) = BancorInstance.power(uint(swapFee_A), uint(swapFee_A_Prec), swapFee_a, swapFee_a_Prec);\n\t\t\treturn uint(powResWithPrec >> powResPrec).mul(10**4);\n\t\t}\n\t}\n\n\tfunction chiTarget(uint chiInit_, uint blockPassed, uint priceUSDs, uint precisionUSDs) public view returns (uint chiTarget_) {\n\t\tuint chiAdjustmentA = blockPassed.mul(chi_alpha).div(chi_alpha_Prec);\n\t\tuint chiAdjustmentB;\n\t\tif (priceUSDs > precisionUSDs) {\n\t\t\tchiAdjustmentB = chi_beta.mul(priceUSDs - precisionUSDs).mul(priceUSDs - precisionUSDs).div(chi_beta_Prec);\n\t\t\tchiTarget_ = chiInit_.sub(chiAdjustmentA).add(chiAdjustmentB);\n\t\t} else if (priceUSDs < precisionUSDs) {\n\t\t\tchiAdjustmentB = chi_beta.mul(precisionUSDs - priceUSDs).mul(precisionUSDs - priceUSDs).div(chi_beta_Prec);\n\t\t\tchiTarget_ = chiInit_.sub(chiAdjustmentA).sub(chiAdjustmentB);\n\t\t} else {\n\t\t\tchiTarget_ = chiInit_.sub(chiAdjustmentA);\n\t\t}\n\t}\n\n\tfunction chiMint() public view returns (uint)  {\n\t\tuint priceUSDs = uint(IOracle(oracleAddr).getUSDsPrice());\n\t\tuint precisionUSDs = IOracle(oracleAddr).USDsPricePrecision();\n\t\tuint blockPassed = uint(block.number).sub(startBlockHeight);\n\t\treturn chiTarget(chiInit, blockPassed, priceUSDs, precisionUSDs);\n\t}\n\n\tfunction chiRedeem() public view returns (uint chiRedeem_) {\n\t\tuint priceUSDs = uint(IOracle(oracleAddr).getUSDsPrice());\n\t\tuint precisionUSDs = IOracle(oracleAddr).USDsPricePrecision();\n\t\tuint blockPassed = uint(block.number).sub(startBlockHeight);\n\t\tuint chiTarget_ = chiTarget(chiInit, blockPassed, priceUSDs, precisionUSDs);\n\t\t//uint collateralRatio_ = collateralRatio();\n\t\tuint collateralRatio_ = chiTarget_;\n\t\tif (chiTarget_ > collateralRatio_) {\n\t\t\tchiRedeem_ = chiTarget_.add(chi_gamma.mul(chiTarget_ - collateralRatio_).div(chi_gamma_Prec));\n\t\t} else {\n\t\t\tchiRedeem_ = chiTarget_;\n\t\t}\n\n\t}\n\n\tfunction mintWithUSDs(address collaAddr, uint USDsMintAmt)\n\t\tpublic\n\t\twhenMintRedeemAllowed\n\t{\n\t\trequire(supportedCollat[collaAddr], \"Collateral not supported\");\n\t\trequire(USDsMintAmt > 0, \"Amount needs to be greater than 0\");\n\t\t_mint(collaAddr, USDsMintAmt, 0);\n\t}\n\n\tfunction mintWithSPA(address collaAddr, uint SPAAmt)\n\t\tpublic\n\t\twhenMintRedeemAllowed\n\t{\n\t\trequire(supportedCollat[collaAddr], \"Collateral not supported\");\n\t\trequire(SPAAmt > 0, \"Amount needs to be greater than 0\");\n\t\t_mint(collaAddr, SPAAmt, 1);\n\t}\n\n\tfunction mintWithColla(address collaAddr, uint CollaAmt)\n\t\tpublic\n\t\twhenMintRedeemAllowed\n\t{\n\t\trequire(supportedCollat[collaAddr], \"Collateral not supported\");\n\t\trequire(CollaAmt > 0, \"Amount needs to be greater than 0\");\n\t\t_mint(collaAddr, CollaAmt, 2);\n\t}\n\n\n\t//View functions\n\n\tfunction mintWithUSDsView(address collaAddr, uint USDsMintAmt)\n\t\tpublic view returns (uint SPABurnAmt, uint CollaDepAmtCorrected, uint USDsAmt, uint swapFeeAmount)\n\t{\n\t\trequire(supportedCollat[collaAddr], \"Collateral not supported\");\n\t\trequire(USDsMintAmt > 0, \"Amount needs to be greater than 0\");\n\t\t(SPABurnAmt, CollaDepAmtCorrected, USDsAmt, swapFeeAmount) = mintView(collaAddr, USDsMintAmt, 0);\n\t}\n\n\tfunction mintWithSPAView(address collaAddr, uint SPAAmt)\n\t\tpublic view returns (uint SPABurnAmt, uint CollaDepAmtCorrected, uint USDsAmt, uint swapFeeAmount)\n\t{\n\t\trequire(supportedCollat[collaAddr], \"Collateral not supported\");\n\t\trequire(SPAAmt > 0, \"Amount needs to be greater than 0\");\n\t\t(SPABurnAmt, CollaDepAmtCorrected, USDsAmt, swapFeeAmount)  = mintView(collaAddr, SPAAmt, 1);\n\t}\n\n\tfunction mintWithCollaView(address collaAddr, uint CollaAmt)\n\t\tpublic view returns (uint SPABurnAmt, uint CollaDepAmtCorrected, uint USDsAmt, uint swapFeeAmount)\n\t{\n\t\trequire(supportedCollat[collaAddr], \"Collateral not supported\");\n\t\trequire(CollaAmt > 0, \"Amount needs to be greater than 0\");\n\t\t(SPABurnAmt, CollaDepAmtCorrected, USDsAmt, swapFeeAmount) = mintView(collaAddr, CollaAmt, 2);\n\t}\n\n\tfunction mintView(\n\t\taddress collaAddr,\n\t\tuint valueAmt,\n\t\tuint8 valueType\n\t) public view returns (uint SPABurnAmt, uint CollaDepAmtCorrected, uint USDsAmt, uint swapFeeAmount) {\n\t\tuint priceColla = IOracle(oracleAddr).collatPrice(collaAddr);\n\t\tuint precisionColla = IOracle(oracleAddr).collatPricePrecision(collaAddr);\n\t\tuint priceSPA = IOracle(oracleAddr).getSPAPrice();\n\t\tuint precisionSPA = IOracle(oracleAddr).SPAPricePrecision();\n\t\tuint swapFee = calculateSwapFeeIn();\n\t\tuint chi = chiMint();\n\t\tuint CollaDepAmt;\n\n\t\tif (valueType == 0) {\n\t\t\tUSDsAmt = valueAmt;\n\n\t\t\tSPABurnAmt = USDsAmt.mul(chiPrec - chi).mul(precisionSPA).div(priceSPA.mul(chiPrec));\n\t\t\tif (swapFee > 0) {\n\t\t\t\tSPABurnAmt = SPABurnAmt.add(SPABurnAmt.mul(swapFee).div(swapFeePresion));\n\t\t\t}\n\n\t\t\t//Deposit collaeral\n\t\t\tCollaDepAmt = USDsAmt.mul(chi).mul(precisionColla).div(chiPrec.mul(priceColla));\n\t\t\tif (swapFee > 0) {\n\t\t\t\tCollaDepAmt = CollaDepAmt.add(CollaDepAmt.mul(swapFee).div(swapFeePresion));\n\t\t\t}\n\n\t\t\tswapFeeAmount = USDsAmt.mul(swapFee).div(swapFeePresion);\n\t\t} else if (valueType == 1) {\n\t\t\tSPABurnAmt = valueAmt;\n\n\t\t\tUSDsAmt = SPABurnAmt;\n\t\t\tif (swapFee > 0) {\n\t\t\t\tUSDsAmt = USDsAmt.div(1 + swapFee.div(swapFeePresion));\n\t\t\t}\n\t\t\tUSDsAmt = USDsAmt.mul(chiPrec).mul(priceSPA).div(precisionSPA.mul(chiPrec - chi));\n\n\t\t\t//Deposit collaeral\n\t\t\tCollaDepAmt = USDsAmt.mul(chi).mul(precisionColla).div(chiPrec.mul(priceColla));\n\t\t\tif (swapFee > 0) {\n\t\t\t\tCollaDepAmt = CollaDepAmt.add(CollaDepAmt.mul(swapFee).div(swapFeePresion));\n\t\t\t}\n\n\t\t\tswapFeeAmount = USDsAmt.mul(swapFee).div(swapFeePresion);\n\t\t} else if (valueType == 2) {\n\t\t\tCollaDepAmt = valueAmt;\n\n\t\t\tUSDsAmt = CollaDepAmt.mul(chiPrec.mul(priceColla)).div(precisionColla).div(chi);\n\n\t\t\tSPABurnAmt = USDsAmt.mul(chiPrec - chi).mul(precisionSPA).div(priceSPA.mul(chiPrec));\n\t\t\tif (swapFee > 0) {\n\t\t\t\tSPABurnAmt = SPABurnAmt.add(SPABurnAmt.mul(swapFee).div(swapFeePresion));\n\t\t\t}\n\n\t\t\tswapFeeAmount = USDsAmt.mul(swapFee).div(swapFeePresion);\n\t\t}\n\n\t\tERC20Upgradeable collaAddrERC20 = ERC20Upgradeable(collaAddr);\n\t\tuint collaAddrDecimal = uint(collaAddrERC20.decimals());\n\t\tCollaDepAmtCorrected = CollaDepAmt.div(10**(uint(18).sub(collaAddrDecimal)));\n\t}\n\n\tfunction _mint(\n\t\taddress collaAddr,\n\t\tuint valueAmt,\n\t\tuint8 valueType\n\t) internal whenMintRedeemAllowed {\n\t\t(uint SPABurnAmt, uint CollaDepAmtCorrected, uint USDsAmt, uint swapFeeAmount) = mintView(collaAddr, valueAmt, valueType);\n\t\tISperaxToken(SPATokenAddr).burnFrom(msg.sender, SPABurnAmt);\n\t\tERC20Upgradeable(collaAddr).safeTransferFrom(msg.sender, collaValut, CollaDepAmtCorrected);\n\t\tUSDsInstance.mint(msg.sender, USDsAmt);\n\t\tUSDsInstance.mint(USDsFeeValut, swapFeeAmount);\n\n\t}\n\n\tfunction redeem(address collaAddr, uint USDsAmt)\n\t\tpublic\n\t\twhenMintRedeemAllowed\n\t{\n\t\trequire(supportedCollat[collaAddr], \"Collateral not supported\");\n\t\trequire(USDsAmt > 0, \"Amount needs to be greater than 0\");\n\t\t_redeem(collaAddr, USDsAmt);\n\t}\n\n\n\tfunction redeemView(\n\t\taddress collaAddr,\n\t\tuint USDsAmt\n\t) public view returns (uint SPAMintAmt, uint CollaUnlockAmtCorrect, uint USDsBurntAmt, uint swapFeeAmount) {\n\t\tuint priceColla = IOracle(oracleAddr).collatPrice(collaAddr);\n\t\tuint precisionColla = IOracle(oracleAddr).collatPricePrecision(collaAddr);\n\t\tuint priceSPA = IOracle(oracleAddr).getSPAPrice();\n\t\tuint precisionSPA = IOracle(oracleAddr).SPAPricePrecision();\n\t\tuint swapFee = calculateSwapFeeOut();\n\t\tSPAMintAmt = USDsAmt.mul(chiPrec - chiRedeem()).mul(precisionSPA).div(priceSPA.mul(chiPrec));\n\t\tif (swapFee > 0) {\n\t\t\tSPAMintAmt = SPAMintAmt.sub(SPAMintAmt.mul(swapFee).div(swapFeePresion));\n\t\t}\n\n\t\t//Unlock collaeral\n\t\tuint CollaUnlockAmt = USDsAmt.mul(chiRedeem().mul(precisionColla)).div(chiPrec.mul(priceColla));\n\t\tif (swapFee > 0) {\n\t\t\tCollaUnlockAmt = CollaUnlockAmt.sub(CollaUnlockAmt.mul(swapFee).div(swapFeePresion));\n\t\t}\n\t\tuint collaAddrDecimal = uint(ERC20Upgradeable(collaAddr).decimals());\n\t\tCollaUnlockAmtCorrect =  CollaUnlockAmt.div(10**(uint(18).sub(collaAddrDecimal)));\n\n\t\t//Burn USDs\n\t\tswapFeeAmount = USDsAmt.mul(swapFee).div(swapFeePresion);\n\t\tUSDsBurntAmt =  USDsAmt.sub(swapFeeAmount);\n\t}\n\n\tfunction _redeem(\n\t\taddress collaAddr,\n\t\tuint USDsAmt\n\t) internal whenMintRedeemAllowed {\n\t\t(uint SPAMintAmt, uint CollaUnlockAmtCorrect, uint USDsBurntAmt, uint swapFeeAmount) = redeemView(collaAddr, USDsAmt);\n\t\tERC20Upgradeable(collaAddr).safeTransferFrom(SPAValut, msg.sender, SPAMintAmt);\n\t\tERC20Upgradeable(collaAddr).safeTransferFrom(collaValut, msg.sender, CollaUnlockAmtCorrect);\n\t\tUSDsInstance.burn(msg.sender, USDsBurntAmt);\n\t\tUSDsInstance.transferFrom(msg.sender, USDsFeeValut, swapFeeAmount);\n\n\t}\n\n\t/**\n\t * @dev Calculate the total value of assets held by the Vault and all\n\t *      strategies and update the supply of USDs.\n\t */\n\tfunction rebase() public {\n\t\t_rebase();\n\t}\n\n\t/**\n\t * @dev Calculate the total value of assets held by the Vault and all\n\t *      strategies and update the supply of USDs, optionaly sending a\n\t *      portion of the yield to the trustee.\n\t */\n\tfunction _rebase() internal {\n\t\tuint256 totalSupply = USDsInstance.totalSupply();\n\t\tuint256 vaultValue = _totalValue();\n\n\t\tif (vaultValue > totalSupply && totalSupply != 0) {\n\t\t\tUSDsInstance.changeSupply(vaultValue);\n\t\t}\n\t}\n\n\t/**\n\t * @dev  Precision: same as chi\n\t */\n\n\tfunction collateralRatio() public view returns (uint256 ratio) {\n        uint totalValue = _totalValue();\n\t\tuint USDsSupply =  USDsInstance.totalSupply();\n\t\tratio = totalValue.mul(chiPrec).div(USDsSupply);\n    }\n\n\t/**\n     * @dev Determine the total value of assets held by the vault and its\n     *         strategies.\n     * @return value Total value in USD (1e18)\n     */\n    function totalValue() external view returns (uint256 value) {\n        value = _totalValue();\n    }\n\n    /**\n     * @dev Internal Calculate the total value of the assets held by the\n     *         vault and its strategies.\n     * @return value Total value in USD (1e18)\n     */\n    function _totalValue() internal view returns (uint256 value) {\n        return _totalValueInVault().add(_totalValueInStrategies());\n    }\n\n    /**\n     * @dev Internal to calculate total value of all assets held in Vault.\n     * @return value in ETH (1e18)\n     */\n    function _totalValueInVault() internal view returns (uint256 value) {\n        // for (uint256 y = 0; y < allCollat.length; y++) {\n        //     ERC20Upgradeable asset = ERC20Upgradeable(allCollat[y]);\n        //     uint256 assetDecimals = Helpers.getDecimals(allCollat[y]);\n        //     uint256 balance = asset.balanceOf(address(this));\n        //     if (balance > 0) {\n        //         value = value.add(balance.scaleBy(int8(18 - assetDecimals)));\n        //     }\n        // }\n    }\n\n    /**\n     * @dev Internal to calculate total value of all assets held in Strategies.\n     * @return value in ETH (1e18)\n     */\n    function _totalValueInStrategies() internal view returns (uint256 value) {\n        for (uint256 i = 0; i < allStrategies.length; i++) {\n            value = value.add(_totalValueInStrategy(allStrategies[i]));\n        }\n    }\n\n    /**\n     * @dev Internal to calculate total value of all assets held by strategy.\n     * @param _strategyAddr Address of the strategy\n     * @return value in ETH (1e18)\n     */\n    function _totalValueInStrategy(address _strategyAddr)\n        internal\n        view\n        returns (uint256 value)\n    {\n        value = 0;\n    }\n\n\t/**\n     * @notice Get the balance of an asset held in Vault and all strategies.\n     * @param _asset Address of asset\n     * @return uint256 Balance of asset in decimals of asset\n     */\n    function checkBalance(address _asset) external view returns (uint256) {\n        return _checkBalance(_asset);\n    }\n\n    /**\n     * @notice Get the balance of an asset held in Vault and all strategies.\n     * @param _asset Address of asset\n     * @return balance Balance of asset in decimals of asset\n     */\n    function _checkBalance(address _asset)\n        internal\n        view\n        returns (uint256 balance)\n    {\n        ERC20Upgradeable asset = ERC20Upgradeable(_asset);\n        balance = asset.balanceOf(address(this));\n        // for (uint256 i = 0; i < allStrategies.length; i++) {\n        //     IStrategy strategy = IStrategy(allStrategies[i]);\n        //     if (strategy.supportsAsset(_asset)) {\n        //         balance = balance.add(strategy.checkBalance(_asset));\n        //     }\n        // }\n    }\n\n    //\n    // Owner Only Function: change swap fee allowance\n    //\n\n    function toggleSwapfeeInAllowed(bool newAllowance) external onlyOwner {\n      swapfeeInAllowed = newAllowance;\n    }\n\n    function toggleSwapfeeOutAllowed(bool newAllowance) external onlyOwner {\n      swapfeeOutAllowed = newAllowance;\n    }\n}\n",
  "sourcePath": "/Volumes/Work/Sperax/USDs/contracts/vault/VaultCore.sol",
  "compiler": {
    "name": "solc",
    "version": "0.6.12+commit.27d51765.Emscripten.clang"
  },
  "schemaVersion": "3.4.0",
  "updatedAt": "2021-07-22T17:50:30.503Z",
  "networkType": "ethereum",
  "devdoc": {
    "kind": "dev",
    "methods": {
      "checkBalance(address)": {
        "params": {
          "_asset": "Address of asset"
        },
        "returns": {
          "_0": "uint256 Balance of asset in decimals of asset"
        }
      },
      "collateralRatio()": {
        "details": "Precision: same as chi"
      },
      "owner()": {
        "details": "Returns the address of the current owner."
      },
      "rebase()": {
        "details": "Calculate the total value of assets held by the Vault and all      strategies and update the supply of USDs."
      },
      "renounceOwnership()": {
        "details": "Leaves the contract without owner. It will not be possible to call `onlyOwner` functions anymore. Can only be called by the current owner. NOTE: Renouncing ownership will leave the contract without an owner, thereby removing any functionality that is only available to the owner."
      },
      "totalValue()": {
        "details": "Determine the total value of assets held by the vault and its         strategies.",
        "returns": {
          "value": "Total value in USD (1e18)"
        }
      },
      "transferOwnership(address)": {
        "details": "Transfers ownership of the contract to a new account (`newOwner`). Can only be called by the current owner."
      }
    },
    "version": 1
  },
  "userdoc": {
    "kind": "user",
    "methods": {
      "checkBalance(address)": {
        "notice": "Get the balance of an asset held in Vault and all strategies."
      }
    },
    "version": 1
  }
}